{
  "contractName": "BetokenFund",
  "abi": [
    {
      "constant": true,
      "inputs": [],
      "name": "totalFundsInDAI",
      "outputs": [
        {
          "name": "",
          "type": "uint256"
        }
      ],
      "payable": false,
      "stateMutability": "view",
      "type": "function"
    },
    {
      "constant": true,
      "inputs": [
        {
          "name": "",
          "type": "address"
        }
      ],
      "name": "isMaliciousCoin",
      "outputs": [
        {
          "name": "",
          "type": "bool"
        }
      ],
      "payable": false,
      "stateMutability": "view",
      "type": "function"
    },
    {
      "constant": true,
      "inputs": [],
      "name": "allowEmergencyWithdraw",
      "outputs": [
        {
          "name": "",
          "type": "bool"
        }
      ],
      "payable": false,
      "stateMutability": "view",
      "type": "function"
    },
    {
      "constant": true,
      "inputs": [],
      "name": "developerFeeAccount",
      "outputs": [
        {
          "name": "",
          "type": "address"
        }
      ],
      "payable": false,
      "stateMutability": "view",
      "type": "function"
    },
    {
      "constant": true,
      "inputs": [],
      "name": "startTimeOfCyclePhase",
      "outputs": [
        {
          "name": "",
          "type": "uint256"
        }
      ],
      "payable": false,
      "stateMutability": "view",
      "type": "function"
    },
    {
      "constant": true,
      "inputs": [],
      "name": "cycleNumber",
      "outputs": [
        {
          "name": "",
          "type": "uint256"
        }
      ],
      "payable": false,
      "stateMutability": "view",
      "type": "function"
    },
    {
      "constant": false,
      "inputs": [],
      "name": "unpause",
      "outputs": [],
      "payable": false,
      "stateMutability": "nonpayable",
      "type": "function"
    },
    {
      "constant": true,
      "inputs": [
        {
          "name": "",
          "type": "address"
        }
      ],
      "name": "isStableCoin",
      "outputs": [
        {
          "name": "",
          "type": "bool"
        }
      ],
      "payable": false,
      "stateMutability": "view",
      "type": "function"
    },
    {
      "constant": true,
      "inputs": [],
      "name": "paused",
      "outputs": [
        {
          "name": "",
          "type": "bool"
        }
      ],
      "payable": false,
      "stateMutability": "view",
      "type": "function"
    },
    {
      "constant": true,
      "inputs": [],
      "name": "commissionRate",
      "outputs": [
        {
          "name": "",
          "type": "uint256"
        }
      ],
      "payable": false,
      "stateMutability": "view",
      "type": "function"
    },
    {
      "constant": true,
      "inputs": [],
      "name": "functionCallReward",
      "outputs": [
        {
          "name": "",
          "type": "uint256"
        }
      ],
      "payable": false,
      "stateMutability": "view",
      "type": "function"
    },
    {
      "constant": true,
      "inputs": [],
      "name": "daiAddr",
      "outputs": [
        {
          "name": "",
          "type": "address"
        }
      ],
      "payable": false,
      "stateMutability": "view",
      "type": "function"
    },
    {
      "constant": true,
      "inputs": [
        {
          "name": "",
          "type": "address"
        }
      ],
      "name": "lastCommissionRedemption",
      "outputs": [
        {
          "name": "",
          "type": "uint256"
        }
      ],
      "payable": false,
      "stateMutability": "view",
      "type": "function"
    },
    {
      "constant": false,
      "inputs": [],
      "name": "pause",
      "outputs": [],
      "payable": false,
      "stateMutability": "nonpayable",
      "type": "function"
    },
    {
      "constant": true,
      "inputs": [],
      "name": "aumThresholdInDAI",
      "outputs": [
        {
          "name": "",
          "type": "uint256"
        }
      ],
      "payable": false,
      "stateMutability": "view",
      "type": "function"
    },
    {
      "constant": true,
      "inputs": [],
      "name": "owner",
      "outputs": [
        {
          "name": "",
          "type": "address"
        }
      ],
      "payable": false,
      "stateMutability": "view",
      "type": "function"
    },
    {
      "constant": true,
      "inputs": [
        {
          "name": "",
          "type": "address"
        },
        {
          "name": "",
          "type": "uint256"
        }
      ],
      "name": "userInvestments",
      "outputs": [
        {
          "name": "tokenAddress",
          "type": "address"
        },
        {
          "name": "cycleNumber",
          "type": "uint256"
        },
        {
          "name": "stake",
          "type": "uint256"
        },
        {
          "name": "tokenAmount",
          "type": "uint256"
        },
        {
          "name": "buyPrice",
          "type": "uint256"
        },
        {
          "name": "sellPrice",
          "type": "uint256"
        },
        {
          "name": "isSold",
          "type": "bool"
        }
      ],
      "payable": false,
      "stateMutability": "view",
      "type": "function"
    },
    {
      "constant": true,
      "inputs": [],
      "name": "kyberAddr",
      "outputs": [
        {
          "name": "",
          "type": "address"
        }
      ],
      "payable": false,
      "stateMutability": "view",
      "type": "function"
    },
    {
      "constant": true,
      "inputs": [],
      "name": "developerFeeProportion",
      "outputs": [
        {
          "name": "",
          "type": "uint256"
        }
      ],
      "payable": false,
      "stateMutability": "view",
      "type": "function"
    },
    {
      "constant": true,
      "inputs": [],
      "name": "totalCommission",
      "outputs": [
        {
          "name": "",
          "type": "uint256"
        }
      ],
      "payable": false,
      "stateMutability": "view",
      "type": "function"
    },
    {
      "constant": true,
      "inputs": [],
      "name": "shareTokenAddr",
      "outputs": [
        {
          "name": "",
          "type": "address"
        }
      ],
      "payable": false,
      "stateMutability": "view",
      "type": "function"
    },
    {
      "constant": true,
      "inputs": [],
      "name": "controlTokenAddr",
      "outputs": [
        {
          "name": "",
          "type": "address"
        }
      ],
      "payable": false,
      "stateMutability": "view",
      "type": "function"
    },
    {
      "constant": false,
      "inputs": [
        {
          "name": "newOwner",
          "type": "address"
        }
      ],
      "name": "transferOwnership",
      "outputs": [],
      "payable": false,
      "stateMutability": "nonpayable",
      "type": "function"
    },
    {
      "constant": true,
      "inputs": [],
      "name": "cyclePhase",
      "outputs": [
        {
          "name": "",
          "type": "uint8"
        }
      ],
      "payable": false,
      "stateMutability": "view",
      "type": "function"
    },
    {
      "inputs": [
        {
          "name": "_cTokenAddr",
          "type": "address"
        },
        {
          "name": "_sTokenAddr",
          "type": "address"
        },
        {
          "name": "_kyberAddr",
          "type": "address"
        },
        {
          "name": "_daiAddr",
          "type": "address"
        },
        {
          "name": "_developerFeeAccount",
          "type": "address"
        },
        {
          "name": "_cycleNumber",
          "type": "uint256"
        },
        {
          "name": "_aumThresholdInDAI",
          "type": "uint256"
        },
        {
          "name": "_phaseLengths",
          "type": "uint256[3]"
        },
        {
          "name": "_commissionRate",
          "type": "uint256"
        },
        {
          "name": "_developerFeeProportion",
          "type": "uint256"
        },
        {
          "name": "_functionCallReward",
          "type": "uint256"
        },
        {
          "name": "_stableCoins",
          "type": "address[]"
        }
      ],
      "payable": false,
      "stateMutability": "nonpayable",
      "type": "constructor"
    },
    {
      "payable": true,
      "stateMutability": "payable",
      "type": "fallback"
    },
    {
      "anonymous": false,
      "inputs": [
        {
          "indexed": true,
          "name": "_cycleNumber",
          "type": "uint256"
        },
        {
          "indexed": true,
          "name": "_newPhase",
          "type": "uint256"
        },
        {
          "indexed": false,
          "name": "_timestamp",
          "type": "uint256"
        }
      ],
      "name": "ChangedPhase",
      "type": "event"
    },
    {
      "anonymous": false,
      "inputs": [
        {
          "indexed": true,
          "name": "_cycleNumber",
          "type": "uint256"
        },
        {
          "indexed": true,
          "name": "_sender",
          "type": "address"
        },
        {
          "indexed": false,
          "name": "_tokenAddress",
          "type": "address"
        },
        {
          "indexed": false,
          "name": "_tokenAmount",
          "type": "uint256"
        },
        {
          "indexed": false,
          "name": "_daiAmount",
          "type": "uint256"
        },
        {
          "indexed": false,
          "name": "_timestamp",
          "type": "uint256"
        }
      ],
      "name": "Deposit",
      "type": "event"
    },
    {
      "anonymous": false,
      "inputs": [
        {
          "indexed": true,
          "name": "_cycleNumber",
          "type": "uint256"
        },
        {
          "indexed": true,
          "name": "_sender",
          "type": "address"
        },
        {
          "indexed": false,
          "name": "_tokenAddress",
          "type": "address"
        },
        {
          "indexed": false,
          "name": "_tokenAmount",
          "type": "uint256"
        },
        {
          "indexed": false,
          "name": "daiAmount",
          "type": "uint256"
        },
        {
          "indexed": false,
          "name": "_timestamp",
          "type": "uint256"
        }
      ],
      "name": "Withdraw",
      "type": "event"
    },
    {
      "anonymous": false,
      "inputs": [
        {
          "indexed": true,
          "name": "_cycleNumber",
          "type": "uint256"
        },
        {
          "indexed": true,
          "name": "_sender",
          "type": "address"
        },
        {
          "indexed": false,
          "name": "_id",
          "type": "uint256"
        },
        {
          "indexed": false,
          "name": "_tokenAddress",
          "type": "address"
        },
        {
          "indexed": false,
          "name": "_stakeInWeis",
          "type": "uint256"
        },
        {
          "indexed": false,
          "name": "_buyPrice",
          "type": "uint256"
        },
        {
          "indexed": false,
          "name": "_costDAIAmount",
          "type": "uint256"
        }
      ],
      "name": "CreatedInvestment",
      "type": "event"
    },
    {
      "anonymous": false,
      "inputs": [
        {
          "indexed": true,
          "name": "_cycleNumber",
          "type": "uint256"
        },
        {
          "indexed": true,
          "name": "_sender",
          "type": "address"
        },
        {
          "indexed": false,
          "name": "_investmentId",
          "type": "uint256"
        },
        {
          "indexed": false,
          "name": "_receivedKairos",
          "type": "uint256"
        },
        {
          "indexed": false,
          "name": "_sellPrice",
          "type": "uint256"
        },
        {
          "indexed": false,
          "name": "_earnedDAIAmount",
          "type": "uint256"
        }
      ],
      "name": "SoldInvestment",
      "type": "event"
    },
    {
      "anonymous": false,
      "inputs": [
        {
          "indexed": true,
          "name": "_cycleNumber",
          "type": "uint256"
        },
        {
          "indexed": false,
          "name": "_beforeTotalFunds",
          "type": "uint256"
        },
        {
          "indexed": false,
          "name": "_afterTotalFunds",
          "type": "uint256"
        }
      ],
      "name": "ROI",
      "type": "event"
    },
    {
      "anonymous": false,
      "inputs": [
        {
          "indexed": true,
          "name": "_cycleNumber",
          "type": "uint256"
        },
        {
          "indexed": true,
          "name": "_sender",
          "type": "address"
        },
        {
          "indexed": false,
          "name": "_commission",
          "type": "uint256"
        }
      ],
      "name": "CommissionPaid",
      "type": "event"
    },
    {
      "anonymous": false,
      "inputs": [
        {
          "indexed": true,
          "name": "_cycleNumber",
          "type": "uint256"
        },
        {
          "indexed": false,
          "name": "_totalCommissionInWeis",
          "type": "uint256"
        }
      ],
      "name": "TotalCommissionPaid",
      "type": "event"
    },
    {
      "anonymous": false,
      "inputs": [],
      "name": "Pause",
      "type": "event"
    },
    {
      "anonymous": false,
      "inputs": [],
      "name": "Unpause",
      "type": "event"
    },
    {
      "anonymous": false,
      "inputs": [
        {
          "indexed": true,
          "name": "previousOwner",
          "type": "address"
        },
        {
          "indexed": true,
          "name": "newOwner",
          "type": "address"
        }
      ],
      "name": "OwnershipTransferred",
      "type": "event"
    },
    {
      "constant": true,
      "inputs": [
        {
          "name": "_userAddr",
          "type": "address"
        }
      ],
      "name": "investmentsCount",
      "outputs": [
        {
          "name": "_count",
          "type": "uint256"
        }
      ],
      "payable": false,
      "stateMutability": "view",
      "type": "function"
    },
    {
      "constant": true,
      "inputs": [
        {
          "name": "_userAddr",
          "type": "address"
        }
      ],
      "name": "investments",
      "outputs": [
        {
          "components": [
            {
              "name": "tokenAddress",
              "type": "address"
            },
            {
              "name": "cycleNumber",
              "type": "uint256"
            },
            {
              "name": "stake",
              "type": "uint256"
            },
            {
              "name": "tokenAmount",
              "type": "uint256"
            },
            {
              "name": "buyPrice",
              "type": "uint256"
            },
            {
              "name": "sellPrice",
              "type": "uint256"
            },
            {
              "name": "isSold",
              "type": "bool"
            }
          ],
          "name": "_investments",
          "type": "tuple[]"
        }
      ],
      "payable": false,
      "stateMutability": "view",
      "type": "function"
    },
    {
      "constant": true,
      "inputs": [],
      "name": "getPhaseLengths",
      "outputs": [
        {
          "name": "_phaseLengths",
          "type": "uint256[3]"
        }
      ],
      "payable": false,
      "stateMutability": "view",
      "type": "function"
    },
    {
      "constant": false,
      "inputs": [
        {
          "name": "_tokenAddr",
          "type": "address"
        }
      ],
      "name": "emergencyDumpToken",
      "outputs": [],
      "payable": false,
      "stateMutability": "nonpayable",
      "type": "function"
    },
    {
      "constant": false,
      "inputs": [
        {
          "name": "_investmentId",
          "type": "uint256"
        }
      ],
      "name": "emergencyRedeemStake",
      "outputs": [],
      "payable": false,
      "stateMutability": "nonpayable",
      "type": "function"
    },
    {
      "constant": false,
      "inputs": [],
      "name": "emergencyUpdateBalance",
      "outputs": [],
      "payable": false,
      "stateMutability": "nonpayable",
      "type": "function"
    },
    {
      "constant": false,
      "inputs": [
        {
          "name": "_newVal",
          "type": "bool"
        }
      ],
      "name": "setAllowEmergencyWithdraw",
      "outputs": [],
      "payable": false,
      "stateMutability": "nonpayable",
      "type": "function"
    },
    {
      "constant": false,
      "inputs": [],
      "name": "emergencyWithdraw",
      "outputs": [],
      "payable": false,
      "stateMutability": "nonpayable",
      "type": "function"
    },
    {
      "constant": false,
      "inputs": [
        {
          "name": "_newAddr",
          "type": "address"
        }
      ],
      "name": "changeKyberNetworkAddress",
      "outputs": [],
      "payable": false,
      "stateMutability": "nonpayable",
      "type": "function"
    },
    {
      "constant": false,
      "inputs": [
        {
          "name": "_newAddr",
          "type": "address"
        }
      ],
      "name": "changeDeveloperFeeAccount",
      "outputs": [],
      "payable": false,
      "stateMutability": "nonpayable",
      "type": "function"
    },
    {
      "constant": false,
      "inputs": [
        {
          "name": "_newAddr",
          "type": "address"
        }
      ],
      "name": "changeDAIAddress",
      "outputs": [],
      "payable": false,
      "stateMutability": "nonpayable",
      "type": "function"
    },
    {
      "constant": false,
      "inputs": [
        {
          "name": "_newProp",
          "type": "uint256"
        }
      ],
      "name": "changeDeveloperFeeProportion",
      "outputs": [],
      "payable": false,
      "stateMutability": "nonpayable",
      "type": "function"
    },
    {
      "constant": false,
      "inputs": [
        {
          "name": "_newProp",
          "type": "uint256"
        }
      ],
      "name": "changeCommissionRate",
      "outputs": [],
      "payable": false,
      "stateMutability": "nonpayable",
      "type": "function"
    },
    {
      "constant": false,
      "inputs": [
        {
          "name": "_newVal",
          "type": "uint256"
        }
      ],
      "name": "changeCallReward",
      "outputs": [],
      "payable": false,
      "stateMutability": "nonpayable",
      "type": "function"
    },
    {
      "constant": false,
      "inputs": [
        {
          "name": "_newVal",
          "type": "uint256[3]"
        }
      ],
      "name": "changePhaseLengths",
      "outputs": [],
      "payable": false,
      "stateMutability": "nonpayable",
      "type": "function"
    },
    {
      "constant": false,
      "inputs": [
        {
          "name": "_newOwner",
          "type": "address"
        }
      ],
      "name": "changeControlTokenOwner",
      "outputs": [],
      "payable": false,
      "stateMutability": "nonpayable",
      "type": "function"
    },
    {
      "constant": false,
      "inputs": [
        {
          "name": "_newOwner",
          "type": "address"
        }
      ],
      "name": "changeShareTokenOwner",
      "outputs": [],
      "payable": false,
      "stateMutability": "nonpayable",
      "type": "function"
    },
    {
      "constant": false,
      "inputs": [
        {
          "name": "_stableCoin",
          "type": "address"
        }
      ],
      "name": "addStableCoin",
      "outputs": [],
      "payable": false,
      "stateMutability": "nonpayable",
      "type": "function"
    },
    {
      "constant": false,
      "inputs": [
        {
          "name": "_coin",
          "type": "address"
        },
        {
          "name": "_status",
          "type": "bool"
        }
      ],
      "name": "setMaliciousCoinStatus",
      "outputs": [],
      "payable": false,
      "stateMutability": "nonpayable",
      "type": "function"
    },
    {
      "constant": false,
      "inputs": [],
      "name": "nextPhase",
      "outputs": [],
      "payable": false,
      "stateMutability": "nonpayable",
      "type": "function"
    },
    {
      "constant": false,
      "inputs": [],
      "name": "deposit",
      "outputs": [],
      "payable": true,
      "stateMutability": "payable",
      "type": "function"
    },
    {
      "constant": false,
      "inputs": [
        {
          "name": "_tokenAddr",
          "type": "address"
        },
        {
          "name": "_tokenAmount",
          "type": "uint256"
        }
      ],
      "name": "depositToken",
      "outputs": [],
      "payable": false,
      "stateMutability": "nonpayable",
      "type": "function"
    },
    {
      "constant": false,
      "inputs": [
        {
          "name": "_amountInDAI",
          "type": "uint256"
        }
      ],
      "name": "withdraw",
      "outputs": [],
      "payable": false,
      "stateMutability": "nonpayable",
      "type": "function"
    },
    {
      "constant": false,
      "inputs": [
        {
          "name": "_tokenAddr",
          "type": "address"
        },
        {
          "name": "_amountInDAI",
          "type": "uint256"
        }
      ],
      "name": "withdrawToken",
      "outputs": [],
      "payable": false,
      "stateMutability": "nonpayable",
      "type": "function"
    },
    {
      "constant": false,
      "inputs": [
        {
          "name": "_tokenAddress",
          "type": "address"
        },
        {
          "name": "_stake",
          "type": "uint256"
        }
      ],
      "name": "createInvestment",
      "outputs": [],
      "payable": false,
      "stateMutability": "nonpayable",
      "type": "function"
    },
    {
      "constant": false,
      "inputs": [
        {
          "name": "_investmentId",
          "type": "uint256"
        }
      ],
      "name": "sellInvestmentAsset",
      "outputs": [],
      "payable": false,
      "stateMutability": "nonpayable",
      "type": "function"
    },
    {
      "constant": false,
      "inputs": [],
      "name": "redeemCommission",
      "outputs": [],
      "payable": false,
      "stateMutability": "nonpayable",
      "type": "function"
    },
    {
      "constant": false,
      "inputs": [
        {
          "name": "_tokenAddr",
          "type": "address"
        }
      ],
      "name": "sellLeftoverToken",
      "outputs": [],
      "payable": false,
      "stateMutability": "nonpayable",
      "type": "function"
    }
  ],
  "bytecode": "0x60606040526000805460a060020a60ff021916905534156200002057600080fd5b60405162004a7738038062004a7783398101604052808051919060200180519190602001805191906020018051919060200180519190602001805191906020018051916020820191608001805191906020018051919060200180519190602001805160008054600160a060020a03191633600160a060020a03161781559201919050670de0b6b3a7640000620000c58686640100000000620002dc8102620040ea1704565b10620000d057600080fd5b8c600160006101000a815481600160a060020a030219169083600160a060020a031602179055508b600260006101000a815481600160a060020a030219169083600160a060020a031602179055508a600360006101000a815481600160a060020a030219169083600160a060020a0316021790555089600560006101000a815481600160a060020a030219169083600160a060020a031602179055508c601660016101000a815481600160a060020a030219169083600160a060020a031602179055508b601760006101000a815481600160a060020a030219169083600160a060020a031602179055508a601860006101000a815481600160a060020a030219169083600160a060020a0316021790555088600460006101000a815481600160a060020a030219169083600160a060020a0316021790555085600f9060036200021b929190620002f3565b50506009849055600a839055600060088190556016805460ff199081166002179091556006899055600b849055600d889055600e805490911690555b8151811015620002c9576001601460008484815181106200027457fe5b90602001906020020151600160a060020a031681526020810191909152604001600020805460ff1916911515919091179055620002c1816001640100000000620002dc8102620040ea1704565b905062000257565b5050505050505050505050505062000356565b600082820183811015620002ec57fe5b9392505050565b826003810192821562000324579160200282015b828111156200032457825182559160200191906001019062000307565b506200033292915062000336565b5090565b6200035391905b808211156200033257600081556001016200033d565b90565b61471180620003666000396000f3006060604052600436106102585763ffffffff60e060020a6000350416630cba535581146102755780630e1b1fda1461029a57806311815223146102b057806312e1ee45146102cf578063173e7707146102ee5780631a2604a41461030d5780631a26af7a146103405780631ab371fc146103535780631b8e2192146103825780631c68e528146103955780632303b5b0146103b457806325f842c5146103ca5780632e1a7d4d146103dd5780632f884710146103f3578063338b5dea146104065780633eadb6db146104285780633f4ba83a1461043b578063407fa2a31461044e57806355a0c971146104995780635c975abb146104b85780635d4c3224146104cb5780635ea1d6f8146104e3578063612d194d146104f657806364542e3e146105095780636642642a1461051f57806368063a7414610535578063749b7a3c1461055457806374fa0a631461058d578063821f9824146105a05780638456cb59146105bf57806386634fcd146105d25780638da5cb5b146105e55780639244adcd146105f857806396b98862146106625780639b4ef376146106cf5780639e281a98146106f3578063a7c4dccf14610715578063ab4df16814610728578063b18e8a8d14610747578063b2637f6514610766578063b3c1f5d814610779578063ba25887d14610798578063c0320dbc146107ab578063d0e30db0146107be578063d7615d37146107c6578063d82277cc146107d9578063db2e21bc146107fb578063dc87454c1461080e578063e53ad2d014610821578063e7476abf14610837578063f2fde38b14610856578063f6558b0014610875575b60035433600160a060020a0390811691161461027357600080fd5b005b341561028057600080fd5b6102886108ac565b60405190815260200160405180910390f35b34156102a557600080fd5b6102736004356108b2565b34156102bb57600080fd5b610273600160a060020a03600435166109c8565b34156102da57600080fd5b610273600160a060020a0360043516610a3c565b34156102f957600080fd5b610273600160a060020a0360043516610b1f565b341561031857600080fd5b61032c600160a060020a0360043516610dac565b604051901515815260200160405180910390f35b341561034b57600080fd5b61032c610dc1565b341561035e57600080fd5b610366610dca565b604051600160a060020a03909116815260200160405180910390f35b341561038d57600080fd5b610273610dd9565b34156103a057600080fd5b610273600160a060020a0360043516611037565b34156103bf57600080fd5b6102736004356110e0565b34156103d557600080fd5b610288611100565b34156103e857600080fd5b610273600435611106565b34156103fe57600080fd5b610288611457565b341561041157600080fd5b610273600160a060020a036004351660243561145d565b341561043357600080fd5b610273611b29565b341561044657600080fd5b610273611eab565b341561045957600080fd5b610461611f2a565b6040518082606080838360005b8381101561048657808201518382015260200161046e565b5050505090500191505060405180910390f35b34156104a457600080fd5b61032c600160a060020a0360043516611f68565b34156104c357600080fd5b61032c611f7d565b34156104d657600080fd5b6102736004351515611f8d565b34156104ee57600080fd5b610288611fd3565b341561050157600080fd5b610288611fd9565b341561051457600080fd5b610273600435611fdf565b341561052a57600080fd5b61027360043561200d565b341561054057600080fd5b610288600160a060020a036004351661202d565b341561055f57600080fd5b6102736004606481600360606040519081016040529190828260608082843750939550612048945050505050565b341561059857600080fd5b610366612074565b34156105ab57600080fd5b610288600160a060020a0360043516612083565b34156105ca57600080fd5b610273612095565b34156105dd57600080fd5b610288612119565b34156105f057600080fd5b61036661211f565b341561060357600080fd5b61061a600160a060020a036004351660243561212e565b604051600160a060020a03909716875260208701959095526040808701949094526060860192909252608085015260a084015290151560c083015260e0909101905180910390f35b341561066d57600080fd5b610681600160a060020a0360043516612194565b604051602080825281908101838181518152602001915080516000925b818410156106be576020808502840101518152602001926001019261069e565b925050509250505060405180910390f35b34156106da57600080fd5b610273600160a060020a0360043516602435151561226f565b34156106fe57600080fd5b610273600160a060020a03600435166024356122e2565b341561072057600080fd5b6103666127f9565b341561073357600080fd5b610273600160a060020a0360043516612808565b341561075257600080fd5b610273600160a060020a036004351661287c565b341561077157600080fd5b6102736128ce565b341561078457600080fd5b610273600160a060020a0360043516612979565b34156107a357600080fd5b6102886129e5565b34156107b657600080fd5b6102886129eb565b6102736129f1565b34156107d157600080fd5b610366612e46565b34156107e457600080fd5b610273600160a060020a0360043516602435612e55565b341561080657600080fd5b6102736133d1565b341561081957600080fd5b6103666136d7565b341561082c57600080fd5b6102736004356136e6565b341561084257600080fd5b610273600160a060020a0360043516613b6f565b341561086157600080fd5b610273600160a060020a0360043516613c0c565b341561088057600080fd5b610888613c9a565b6040518082600281111561089857fe5b60ff16815260200191505060405180910390f35b60075481565b60008054819060a060020a900460ff1615156108cd57600080fd5b600e5460ff1615156108de57600080fd5b600160a060020a033316600090815260136020526040902080548490811061090257fe5b90600052602060002090600702019150600654826001015414151561092657600080fd5b5060028101546000811161093957600080fd5b6000600283018190556016546101009004600160a060020a03169063a9059cbb90339084906040516020015260405160e060020a63ffffffff8516028152600160a060020a0390921660048301526024820152604401602060405180830381600087803b15156109a857600080fd5b6102c65a03f115156109b957600080fd5b50505060405180515050505050565b60005433600160a060020a039081169116146109e357600080fd5b60005460a060020a900460ff1615156109fb57600080fd5b600160a060020a0381161515610a1057600080fd5b60038054600160a060020a03909216600160a060020a0319928316811790915560188054909216179055565b6000805433600160a060020a03908116911614610a5857600080fd5b60028060165460ff166002811115610a6c57fe5b14610a7657600080fd5b60005460a060020a900460ff161515610a8e57600080fd5b829150610b198283600160a060020a03166370a082313060006040516020015260405160e060020a63ffffffff8416028152600160a060020a039091166004820152602401602060405180830381600087803b1515610aec57600080fd5b6102c65a03f11515610afd57600080fd5b5050506040518051601954909150600160a060020a0316613ca3565b50505050565b60008060028060165460ff166002811115610b3657fe5b14610b4057600080fd5b600160a060020a038416600090815260156020526040902054849060ff1615610b6857600080fd5b600160a060020a03811673eeeeeeeeeeeeeeeeeeeeeeeeeeeeeeeeeeeeeeee1415610b9257600080fd5b600081600160a060020a03166318160ddd6000604051602001526040518163ffffffff1660e060020a028152600401602060405180830381600087803b1515610bda57600080fd5b6102c65a03f11515610beb57600080fd5b50505060405180519050111515610c0157600080fd5b60005460a060020a900460ff1615610c1857600080fd5b601954600160a060020a03166370a082313060006040516020015260405160e060020a63ffffffff8416028152600160a060020a039091166004820152602401602060405180830381600087803b1515610c7157600080fd5b6102c65a03f11515610c8257600080fd5b5050506040518051600554909550869450600160a060020a03808616911614159050610cad57600080fd5b610d088384600160a060020a03166370a082313060006040516020015260405160e060020a63ffffffff8416028152600160a060020a039091166004820152602401602060405180830381600087803b1515610aec57600080fd5b50601954610da290610d93908690600160a060020a03166370a082313060006040516020015260405160e060020a63ffffffff8416028152600160a060020a039091166004820152602401602060405180830381600087803b1515610d6c57600080fd5b6102c65a03f11515610d7d57600080fd5b505050604051805191905063ffffffff6140d816565b6007549063ffffffff6140ea16565b6007555050505050565b60156020526000908152604090205460ff1681565b600e5460ff1681565b600454600160a060020a031681565b600060028060165460ff166002811115610def57fe5b14610df957600080fd5b60005460a060020a900460ff1615610e1057600080fd5b600654600160a060020a03331660009081526012602052604090205410610e3657600080fd5b600654600160a060020a0333811660009081526012602052604080822093909355601654610f5593610100909104909216916318160ddd919051602001526040518163ffffffff1660e060020a028152600401602060405180830381600087803b1515610ea257600080fd5b6102c65a03f11515610eb357600080fd5b5050506040518051601654909150610f49906101009004600160a060020a03166370a082313360006040516020015260405160e060020a63ffffffff8416028152600160a060020a039091166004820152602401602060405180830381600087803b1515610f2057600080fd5b6102c65a03f11515610f3157600080fd5b5050506040518051600c54915063ffffffff61410416565b9063ffffffff61412f16565b601954909250600160a060020a031663a9059cbb338460006040516020015260405160e060020a63ffffffff8516028152600160a060020a0390921660048301526024820152604401602060405180830381600087803b1515610fb757600080fd5b6102c65a03f11515610fc857600080fd5b50505060405180515050600160a060020a0333166000908152601360205260408120610ff3916145ac565b33600160a060020a03166006547fec530ab710fdaa2b5968fe15f486992441a96f643219cf0150904aa5b9eedf828460405190815260200160405180910390a35050565b60005433600160a060020a0390811691161461105257600080fd5b60005460a060020a900460ff16151561106a57600080fd5b600160a060020a038116151561107f57600080fd5b601754600160a060020a031663f2fde38b8260405160e060020a63ffffffff8416028152600160a060020a039091166004820152602401600060405180830381600087803b15156110cf57600080fd5b6102c65a03f11515610b1957600080fd5b60005433600160a060020a039081169116146110fb57600080fd5b600b55565b60085481565b6000808080808060165460ff16600281111561111e57fe5b1461112857600080fd5b60005460a060020a900460ff161561113f57600080fd5b601954600160a060020a03308181163195509116906370a082319060006040516020015260405160e060020a63ffffffff8416028152600160a060020a039091166004820152602401602060405180830381600087803b15156111a157600080fd5b6102c65a03f115156111b257600080fd5b50505060405180516019549093506111e99150600160a060020a03168773eeeeeeeeeeeeeeeeeeeeeeeeeeeeeeeeeeeeeeee613ca3565b50611204600160a060020a033016318463ffffffff6140d816565b60195490955061128b90600160a060020a03166370a082313060006040516020015260405160e060020a63ffffffff8416028152600160a060020a039091166004820152602401602060405180830381600087803b151561126457600080fd5b6102c65a03f1151561127557600080fd5b505050604051805184915063ffffffff6140d816565b93506000841161129a57600080fd5b601754600754600160a060020a039091169063c000178690339061131f90610f49856318160ddd6000604051602001526040518163ffffffff1660e060020a028152600401602060405180830381600087803b15156112f857600080fd5b6102c65a03f1151561130957600080fd5b50505060405180518b915063ffffffff61410416565b60006040516020015260405160e060020a63ffffffff8516028152600160a060020a0390921660048301526024820152604401602060405180830381600087803b151561136b57600080fd5b6102c65a03f1151561137c57600080fd5b50505060405180515050600754611399908563ffffffff6140d816565b600755600160a060020a03331685156108fc0286604051600060405180830381858888f1935050505015156113cd57600080fd5b33600160a060020a03166006547fae96a66bcd5a00556ad548b9a949f8f45220d5859c013e5cedbddd6af8cf7b9d73eeeeeeeeeeeeeeeeeeeeeeeeeeeeeeeeeeeeeeee8888426040518085600160a060020a0316600160a060020a0316815260200184815260200183815260200182815260200194505050505060405180910390a3505050505050565b60065481565b60008080808080808060165460ff16600281111561147757fe5b1461148157600080fd5b600160a060020a038916600090815260156020526040902054899060ff16156114a957600080fd5b600160a060020a03811673eeeeeeeeeeeeeeeeeeeeeeeeeeeeeeeeeeeeeeee14156114d357600080fd5b600081600160a060020a03166318160ddd6000604051602001526040518163ffffffff1660e060020a028152600401602060405180830381600087803b151561151b57600080fd5b6102c65a03f1151561152c57600080fd5b5050506040518051905011151561154257600080fd5b60005460a060020a900460ff161561155957600080fd5b89975087600160a060020a03166323b872dd33308c60006040516020015260405160e060020a63ffffffff8616028152600160a060020a0393841660048201529190921660248201526044810191909152606401602060405180830381600087803b15156115c657600080fd5b6102c65a03f115156115d757600080fd5b5050506040518051905015156115ec57600080fd5b600554600160a060020a038b81169116141561160d578896508895506118a1565b87600160a060020a03166370a082313060006040516020015260405160e060020a63ffffffff8416028152600160a060020a039091166004820152602401602060405180830381600087803b151561166457600080fd5b6102c65a03f1151561167557600080fd5b5050506040518051601954909650600160a060020a031690506370a082313060006040516020015260405160e060020a63ffffffff8416028152600160a060020a039091166004820152602401602060405180830381600087803b15156116db57600080fd5b6102c65a03f115156116ec57600080fd5b5050506040518051601954909550611711915089908b90600160a060020a0316613ca3565b5061179388600160a060020a03166370a082313060006040516020015260405160e060020a63ffffffff8416028152600160a060020a039091166004820152602401602060405180830381600087803b151561176c57600080fd5b6102c65a03f1151561177d57600080fd5b505050604051805187915063ffffffff6140d816565b95506117a5898763ffffffff6140d816565b925060008311156118335787600160a060020a031663a9059cbb338560006040516020015260405160e060020a63ffffffff8516028152600160a060020a0390921660048301526024820152604401602060405180830381600087803b151561180d57600080fd5b6102c65a03f1151561181e57600080fd5b50505060405180519050151561183357600080fd5b601954611892908590600160a060020a03166370a082313060006040516020015260405160e060020a63ffffffff8416028152600160a060020a039091166004820152602401602060405180830381600087803b1515610d6c57600080fd5b9650600087116118a157600080fd5b6006546001141561192c57601754600160a060020a03166340c10f19338960006040516020015260405160e060020a63ffffffff8516028152600160a060020a0390921660048301526024820152604401602060405180830381600087803b151561190b57600080fd5b6102c65a03f1151561191c57600080fd5b5050506040518051905050611a19565b601754600754600160a060020a03909116906340c10f199033906119b190610f49856318160ddd6000604051602001526040518163ffffffff1660e060020a028152600401602060405180830381600087803b151561198a57600080fd5b6102c65a03f1151561199b57600080fd5b50505060405180518e915063ffffffff61410416565b60006040516020015260405160e060020a63ffffffff8516028152600160a060020a0390921660048301526024820152604401602060405180830381600087803b15156119fd57600080fd5b6102c65a03f11515611a0e57600080fd5b505050604051805150505b600754611a2c908863ffffffff6140ea16565b6007556016546101009004600160a060020a03166340c10f19338960006040516020015260405160e060020a63ffffffff8516028152600160a060020a0390921660048301526024820152604401602060405180830381600087803b1515611a9357600080fd5b6102c65a03f11515611aa457600080fd5b505050604051805190505033600160a060020a03166006547f7ee7a1de9c18ce695c95b8b19fbdf26cce3544e3ca9e08c9f487776783d7599f8c898b426040518085600160a060020a0316600160a060020a0316815260200184815260200183815260200182815260200194505050505060405180910390a350505050505050505050565b60005460a060020a900460ff1615611b4057600080fd5b601654611b7390600f9060ff166002811115611b5857fe5b60038110611b6257fe5b01546008549063ffffffff6140ea16565b421015611b7f57600080fd5b600260165460ff166002811115611b9257fe5b1415611c7a57600654611bac90600163ffffffff6140ea16565b6006556016546101009004600160a060020a0316635c975abb6000604051602001526040518163ffffffff1660e060020a028152600401602060405180830381600087803b1515611bfc57600080fd5b6102c65a03f11515611c0d57600080fd5b5050506040518051905015611c75576016546101009004600160a060020a0316633f4ba83a6040518163ffffffff1660e060020a028152600401600060405180830381600087803b1515611c6057600080fd5b6102c65a03f11515611c7157600080fd5b5050505b611d9b565b600060165460ff166002811115611c8d57fe5b1415611caf5760065460011415611c7557600d546007541015611c7557600080fd5b600160165460ff166002811115611cc257fe5b1415611d9b576016546101009004600160a060020a031663f3123a3a6000604051602001526040518163ffffffff1660e060020a028152600401602060405180830381600087803b1515611d1557600080fd5b6102c65a03f11515611d2657600080fd5b505050604051805190501515611d3b57600080fd5b6016546101009004600160a060020a0316638456cb596040518163ffffffff1660e060020a028152600401600060405180830381600087803b1515611d7f57600080fd5b6102c65a03f11515611d9057600080fd5b505050611d9b614146565b60165460059060019060ff166002811115611db257fe5b086002811115611dbe57fe5b6016805460ff19166001836002811115611dd457fe5b021790555042600855601654600b54610100909104600160a060020a0316906340c10f1990339060006040516020015260405160e060020a63ffffffff8516028152600160a060020a0390921660048301526024820152604401602060405180830381600087803b1515611e4757600080fd5b6102c65a03f11515611e5857600080fd5b5050506040518051505060165460ff166002811115611e7357fe5b6006547f9590d2eff92d0882635fb8e1412da02e41af0dc517cfd07520a03506eb65b0af4260405190815260200160405180910390a3565b60005433600160a060020a03908116911614611ec657600080fd5b60005460a060020a900460ff161515611ede57600080fd5b6000805474ff0000000000000000000000000000000000000000191690557f7805862f689e2f13df9f062ff482ad3ad112aca9e0847911ed832e158c525b3360405160405180910390a1565b611f326145d0565b600f6003606060405190810160405291906060830182845b815481526020019060010190808311611f4a57505050505090505b90565b60146020526000908152604090205460ff1681565b60005460a060020a900460ff1681565b60005433600160a060020a03908116911614611fa857600080fd5b60005460a060020a900460ff161515611fc057600080fd5b600e805460ff1916911515919091179055565b60095481565b600b5481565b60005433600160a060020a03908116911614611ffa57600080fd5b600a54811061200857600080fd5b600a55565b60005433600160a060020a0390811691161461202857600080fd5b600955565b600160a060020a031660009081526013602052604090205490565b60005433600160a060020a0390811691161461206357600080fd5b612070600f8260036145f7565b5050565b600554600160a060020a031681565b60126020526000908152604090205481565b60005433600160a060020a039081169116146120b057600080fd5b60005460a060020a900460ff16156120c757600080fd5b6000805474ff0000000000000000000000000000000000000000191660a060020a1790557f6985a02210a168e66602d3235cb6db0e70f92b3ba4d376a33c0f3d9434bff62560405160405180910390a1565b600d5481565b600054600160a060020a031681565b60136020528160005260406000208181548110151561214957fe5b60009182526020909120600790910201805460018201546002830154600384015460048501546005860154600690960154600160a060020a0390951697509295509093909260ff1687565b61219c614635565b6013600083600160a060020a0316600160a060020a0316815260200190815260200160002080548060200260200160405190810160405281815291906000602084015b8282101561226457600084815260209020600783020160e060405190810160409081528254600160a060020a031682526001808401546020808501919091526002850154928401929092526003840154606084015260048401546080840152600584015460a084015260069093015460ff16151560c0830152908352920191016121df565b505050509050919050565b60005433600160a060020a0390811691161461228a57600080fd5b60005460a060020a900460ff1615156122a257600080fd5b600160a060020a03821615156122b757600080fd5b600160a060020a03919091166000908152601560205260409020805460ff1916911515919091179055565b600080808080808060165460ff1660028111156122fb57fe5b1461230557600080fd5b600160a060020a038816600090815260156020526040902054889060ff161561232d57600080fd5b600160a060020a03811673eeeeeeeeeeeeeeeeeeeeeeeeeeeeeeeeeeeeeeee141561235757600080fd5b600081600160a060020a03166318160ddd6000604051602001526040518163ffffffff1660e060020a028152600401602060405180830381600087803b151561239f57600080fd5b6102c65a03f115156123b057600080fd5b505050604051805190501115156123c657600080fd5b60005460a060020a900460ff16156123dd57600080fd5b600654600114156123ed57600080fd5b600554899750600160a060020a038089169116141561241157879450879550612605565b86600160a060020a03166370a082313060006040516020015260405160e060020a63ffffffff8416028152600160a060020a039091166004820152602401602060405180830381600087803b151561246857600080fd5b6102c65a03f1151561247957600080fd5b5050506040518051601954909550600160a060020a031690506370a082313060006040516020015260405160e060020a63ffffffff8416028152600160a060020a039091166004820152602401602060405180830381600087803b15156124df57600080fd5b6102c65a03f115156124f057600080fd5b50505060405180516019549094506125139150600160a060020a03168989613ca3565b5061256f8488600160a060020a03166370a082313060006040516020015260405160e060020a63ffffffff8416028152600160a060020a039091166004820152602401602060405180830381600087803b1515610d6c57600080fd5b6019549096506125f690600160a060020a03166370a082313060006040516020015260405160e060020a63ffffffff8416028152600160a060020a039091166004820152602401602060405180830381600087803b15156125cf57600080fd5b6102c65a03f115156125e057600080fd5b505050604051805185915063ffffffff6140d816565b94506000851161260557600080fd5b601754600754600160a060020a039091169063c000178690339061268a90610f49856318160ddd6000604051602001526040518163ffffffff1660e060020a028152600401602060405180830381600087803b151561266357600080fd5b6102c65a03f1151561267457600080fd5b50505060405180518c915063ffffffff61410416565b60006040516020015260405160e060020a63ffffffff8516028152600160a060020a0390921660048301526024820152604401602060405180830381600087803b15156126d657600080fd5b6102c65a03f115156126e757600080fd5b50505060405180515050600754612704908663ffffffff6140d816565b600755600160a060020a03871663a9059cbb338860006040516020015260405160e060020a63ffffffff8516028152600160a060020a0390921660048301526024820152604401602060405180830381600087803b151561276457600080fd5b6102c65a03f1151561277557600080fd5b505050604051805190505033600160a060020a03166006547fae96a66bcd5a00556ad548b9a949f8f45220d5859c013e5cedbddd6af8cf7b9d8b8989426040518085600160a060020a0316600160a060020a0316815260200184815260200183815260200182815260200194505050505060405180910390a3505050505050505050565b600354600160a060020a031681565b60005433600160a060020a0390811691161461282357600080fd5b60005460a060020a900460ff16151561283b57600080fd5b600160a060020a038116151561285057600080fd5b60058054600160a060020a03909216600160a060020a0319928316811790915560198054909216179055565b60005433600160a060020a0390811691161461289757600080fd5b600160a060020a03811615156128ac57600080fd5b60048054600160a060020a031916600160a060020a0392909216919091179055565b60005433600160a060020a039081169116146128e957600080fd5b60005460a060020a900460ff16151561290157600080fd5b601954600160a060020a03166370a082313060006040516020015260405160e060020a63ffffffff8416028152600160a060020a039091166004820152602401602060405180830381600087803b151561295a57600080fd5b6102c65a03f1151561296b57600080fd5b505050604051805160075550565b60005433600160a060020a0390811691161461299457600080fd5b60005460a060020a900460ff1615156129ac57600080fd5b600160a060020a03811615156129c157600080fd5b600160a060020a03166000908152601460205260409020805460ff19166001179055565b600a5481565b600c5481565b600080808080808060165460ff166002811115612a0a57fe5b14612a1457600080fd5b60005460a060020a900460ff1615612a2b57600080fd5b601954600160a060020a03308181163196509116906370a082319060006040516020015260405160e060020a63ffffffff8416028152600160a060020a039091166004820152602401602060405180830381600087803b1515612a8d57600080fd5b6102c65a03f11515612a9e57600080fd5b5050506040518051601954909450612ad7915073eeeeeeeeeeeeeeeeeeeeeeeeeeeeeeeeeeeeeeee903490600160a060020a0316613ca3565b50612af284600160a060020a0330163163ffffffff6140d816565b9450612b04348663ffffffff6140d816565b91506000821115612b4057600160a060020a03331682156108fc0283604051600060405180830381858888f193505050501515612b4057600080fd5b601954612b9f908490600160a060020a03166370a082313060006040516020015260405160e060020a63ffffffff8416028152600160a060020a039091166004820152602401602060405180830381600087803b1515610d6c57600080fd5b955060008611612bae57600080fd5b60065460011415612c3957601754600160a060020a03166340c10f19338860006040516020015260405160e060020a63ffffffff8516028152600160a060020a0390921660048301526024820152604401602060405180830381600087803b1515612c1857600080fd5b6102c65a03f11515612c2957600080fd5b5050506040518051905050612d26565b601754600754600160a060020a03909116906340c10f19903390612cbe90610f49856318160ddd6000604051602001526040518163ffffffff1660e060020a028152600401602060405180830381600087803b1515612c9757600080fd5b6102c65a03f11515612ca857600080fd5b50505060405180518d915063ffffffff61410416565b60006040516020015260405160e060020a63ffffffff8516028152600160a060020a0390921660048301526024820152604401602060405180830381600087803b1515612d0a57600080fd5b6102c65a03f11515612d1b57600080fd5b505050604051805150505b600754612d39908763ffffffff6140ea16565b6007556016546101009004600160a060020a03166340c10f19338860006040516020015260405160e060020a63ffffffff8516028152600160a060020a0390921660048301526024820152604401602060405180830381600087803b1515612da057600080fd5b6102c65a03f11515612db157600080fd5b505050604051805190505033600160a060020a03166006547f7ee7a1de9c18ce695c95b8b19fbdf26cce3544e3ca9e08c9f487776783d7599f73eeeeeeeeeeeeeeeeeeeeeeeeeeeeeeeeeeeeeeee888a426040518085600160a060020a0316600160a060020a0316815260200184815260200183815260200182815260200194505050505060405180910390a3505050505050565b600254600160a060020a031681565b600080808060018060165460ff166002811115612e6e57fe5b14612e7857600080fd5b600160a060020a038716600090815260156020526040902054879060ff1615612ea057600080fd5b600160a060020a03811673eeeeeeeeeeeeeeeeeeeeeeeeeeeeeeeeeeeeeeee1415612eca57600080fd5b600081600160a060020a03166318160ddd6000604051602001526040518163ffffffff1660e060020a028152600401602060405180830381600087803b1515612f1257600080fd5b6102c65a03f11515612f2357600080fd5b50505060405180519050111515612f3957600080fd5b60005460a060020a900460ff1615612f5057600080fd5b600160a060020a03881660009081526014602052604090205488965060ff1615612f7957600080fd5b6016546101009004600160a060020a0316632bee7bde338960006040516020015260405160e060020a63ffffffff8516028152600160a060020a0390921660048301526024820152604401602060405180830381600087803b1515612fdd57600080fd5b6102c65a03f11515612fee57600080fd5b50505060405180519050151561300357600080fd5b600160a060020a033316600090815260136020526040902080546001810161302b8382614647565b9160005260206000209060070201600060e06040519081016040908152600160a060020a038d168252600654602083015281018b90526000606082018190526080820181905260a0820181905260c082015291905081518154600160a060020a031916600160a060020a03919091161781556020820151816001015560408201518160020155606082015181600301556080820151816004015560a0820151816005015560c0820151600691909101805460ff19169115159190911790555050600160a060020a0386166370a082313060006040516020015260405160e060020a63ffffffff8416028152600160a060020a039091166004820152602401602060405180830381600087803b151561314257600080fd5b6102c65a03f1151561315357600080fd5b5050506040518051601954909650600160a060020a031690506370a082313060006040516020015260405160e060020a63ffffffff8416028152600160a060020a039091166004820152602401602060405180830381600087803b15156131b957600080fd5b6102c65a03f115156131ca57600080fd5b5050506040518051905093506131f060016131e43361202d565b9063ffffffff6140d816565b92506131fd836001614454565b6132588587600160a060020a03166370a082313060006040516020015260405160e060020a63ffffffff8416028152600160a060020a039091166004820152602401602060405180830381600087803b1515610d6c57600080fd5b600160a060020a033316600090815260136020526040902080548590811061327c57fe5b90600052602060002090600702016003018190555033600160a060020a03166006547f889f8b8332780d1527bc9c13329f57e4eeac4aa8255a0e7d6af5ef7a864301816132cd60016131e43361202d565b600160a060020a033316600090815260136020526040902080548d918d918a9081106132f557fe5b60009182526020822060046007909202010154601954909161338f91600160a060020a0316906370a082319030906040516020015260405160e060020a63ffffffff8416028152600160a060020a039091166004820152602401602060405180830381600087803b151561336857600080fd5b6102c65a03f1151561337957600080fd5b50505060405180518d915063ffffffff6140d816565b604051948552600160a060020a0390931660208501526040808501929092526060840152608083019190915260a0909101905180910390a35050505050505050565b6000805460a060020a900460ff1615156133ea57600080fd5b600e5460ff1615156133fb57600080fd5b6017546134ea90600160a060020a03166318160ddd6000604051602001526040518163ffffffff1660e060020a028152600401602060405180830381600087803b151561344757600080fd5b6102c65a03f1151561345857600080fd5b5050506040518051600754601754919250610f4991600160a060020a03166370a082313360006040516020015260405160e060020a63ffffffff8416028152600160a060020a039091166004820152602401602060405180830381600087803b15156134c357600080fd5b6102c65a03f115156134d457600080fd5b505050604051805191905063ffffffff61410416565b601754909150600160a060020a031663c000178633826370a082318260006040516020015260405160e060020a63ffffffff8416028152600160a060020a039091166004820152602401602060405180830381600087803b151561354d57600080fd5b6102c65a03f1151561355e57600080fd5b5050506040518051905060006040516020015260405160e060020a63ffffffff8516028152600160a060020a0390921660048301526024820152604401602060405180830381600087803b15156135b457600080fd5b6102c65a03f115156135c557600080fd5b505050604051805150506007546135e2908263ffffffff6140d816565b600755601954600160a060020a031663a9059cbb338360006040516020015260405160e060020a63ffffffff8516028152600160a060020a0390921660048301526024820152604401602060405180830381600087803b151561364457600080fd5b6102c65a03f1151561365557600080fd5b50505060405180515050600654600554600160a060020a0333811692917fae96a66bcd5a00556ad548b9a949f8f45220d5859c013e5cedbddd6af8cf7b9d91168480426040518085600160a060020a0316600160a060020a0316815260200184815260200183815260200182815260200194505050505060405180910390a350565b600154600160a060020a031681565b600080808060018060165460ff1660028111156136ff57fe5b1461370957600080fd5b60005460a060020a900460ff161561372057600080fd5b600160a060020a033316600090815260136020526040902080548790811061374457fe5b906000526020600020906007020194506000856004015411151561376757600080fd5b60065460018601541461377957600080fd5b600685015460ff161561378b57600080fd5b601954600160a060020a03166370a082313060006040516020015260405160e060020a63ffffffff8416028152600160a060020a039091166004820152602401602060405180830381600087803b15156137e457600080fd5b6102c65a03f115156137f557600080fd5b50505060405180519050935061380c866000614454565b60068501805460ff19166001179055600485015460058601546138429190610f4990670de0b6b3a764000063ffffffff61410416565b9250613867670de0b6b3a7640000610f4985886002015461410490919063ffffffff16565b9150846002015482111561399e57601660019054906101000a9004600160a060020a0316600160a060020a031663a9059cbb33876002015460006040516020015260405160e060020a63ffffffff8516028152600160a060020a0390921660048301526024820152604401602060405180830381600087803b15156138eb57600080fd5b6102c65a03f115156138fc57600080fd5b505050604051805150506016546002860154610100909104600160a060020a0316906340c10f199033906139319086906140d8565b60006040516020015260405160e060020a63ffffffff8516028152600160a060020a0390921660048301526024820152604401602060405180830381600087803b151561397d57600080fd5b6102c65a03f1151561398e57600080fd5b5050506040518051905050613aaa565b6016546101009004600160a060020a031663a9059cbb338460006040516020015260405160e060020a63ffffffff8516028152600160a060020a0390921660048301526024820152604401602060405180830381600087803b1515613a0257600080fd5b6102c65a03f11515613a1357600080fd5b505050604051805150506016546002860154610100909104600160a060020a0316906349f9f4d090613a4590856140d8565b60006040516020015260405160e060020a63ffffffff84160281526004810191909152602401602060405180830381600087803b1515613a8457600080fd5b6102c65a03f11515613a9557600080fd5b505050604051805190501515613aaa57600080fd5b6006546005860154601954600160a060020a0333811693927f7d92f4f6fffc42160fd0d9f56281733529e476a2c89c29c0a6fa0878cd85a9af928b92889291613b3d918c91166370a082313060006040516020015260405160e060020a63ffffffff8416028152600160a060020a039091166004820152602401602060405180830381600087803b1515610d6c57600080fd5b6040518085815260200184815260200183815260200182815260200194505050505060405180910390a3505050505050565b60005433600160a060020a03908116911614613b8a57600080fd5b60005460a060020a900460ff161515613ba257600080fd5b600160a060020a0381161515613bb757600080fd5b6016546101009004600160a060020a031663f2fde38b8260405160e060020a63ffffffff8416028152600160a060020a039091166004820152602401600060405180830381600087803b15156110cf57600080fd5b60005433600160a060020a03908116911614613c2757600080fd5b600160a060020a0381161515613c3c57600080fd5b600054600160a060020a0380831691167f8be0079c531659141344cd1fd0a4f28419497f9722a3daafe3b4186f6b6457e060405160405180910390a360008054600160a060020a031916600160a060020a0392909216919091179055565b60165460ff1681565b60008080600160a060020a03861673eeeeeeeeeeeeeeeeeeeeeeeeeeeeeeeeeeeeeeee14613e415785600160a060020a03166370a082313060006040516020015260405160e060020a63ffffffff8416028152600160a060020a039091166004820152602401602060405180830381600087803b1515613d2257600080fd5b6102c65a03f11515613d3357600080fd5b5050506040518051600354909250600160a060020a03808916925063095ea7b391166000806040516020015260405160e060020a63ffffffff8516028152600160a060020a0390921660048301526024820152604401602060405180830381600087803b1515613da257600080fd5b6102c65a03f11515613db357600080fd5b50505060405180515050600354600160a060020a038088169163095ea7b391168760006040516020015260405160e060020a63ffffffff8516028152600160a060020a0390921660048301526024820152604401602060405180830381600087803b1515613e2057600080fd5b6102c65a03f11515613e3157600080fd5b5050506040518051905050613e4e565b50600160a060020a033016315b601854600160a060020a031663cb3c28c7878787306b204fce5e3e2502611000000060016000806040516020015260405160e060020a63ffffffff8a16028152600160a060020a039788166004820152602481019690965293861660448601529185166064850152608484015260a483015290911660c482015260e401602060405180830381600087803b1515613ee457600080fd5b6102c65a03f11515613ef557600080fd5b505050604051805192505060008211613f0d57600080fd5b600160a060020a03861673eeeeeeeeeeeeeeeeeeeeeeeeeeeeeeeeeeeeeeee14613fb057600354600160a060020a038088169163095ea7b391166000806040516020015260405160e060020a63ffffffff8516028152600160a060020a0390921660048301526024820152604401602060405180830381600087803b1515613f9457600080fd5b6102c65a03f11515613fa557600080fd5b505050604051805150505b6140ce613fcb83670de0b6b3a764000063ffffffff61410416565b610f4986600160a060020a031663313ce5676000604051602001526040518163ffffffff1660e060020a028152600401602060405180830381600087803b151561401457600080fd5b6102c65a03f1151561402557600080fd5b5050506040518051905060ff16600a0a6140c2670de0b6b3a76400006140c28c600160a060020a03166370a082313060006040516020015260405160e060020a63ffffffff8416028152600160a060020a039091166004820152602401602060405180830381600087803b151561409b57600080fd5b6102c65a03f115156140ac57600080fd5b505050604051805189915063ffffffff6140d816565b9063ffffffff61410416565b9695505050505050565b6000828211156140e457fe5b50900390565b6000828201838110156140f957fe5b8091505b5092915050565b60008083151561411757600091506140fd565b5082820282848281151561412757fe5b04146140f957fe5b600080828481151561413d57fe5b04949350505050565b6007546019546000918291829190600160a060020a03166370a0823130846040516020015260405160e060020a63ffffffff8416028152600160a060020a039091166004820152602401602060405180830381600087803b15156141a957600080fd5b6102c65a03f115156141ba57600080fd5b50505060405180519050111561422e5760075460195461422b9190600160a060020a03166370a082313060006040516020015260405160e060020a63ffffffff8416028152600160a060020a039091166004820152602401602060405180830381600087803b1515610d6c57600080fd5b92505b61424f670de0b6b3a7640000610f498560095461410490919063ffffffff16565b600c556019546142e690670de0b6b3a764000090610f4990600160a060020a03166370a082313060006040516020015260405160e060020a63ffffffff8416028152600160a060020a039091166004820152602401602060405180830381600087803b15156142bd57600080fd5b6102c65a03f115156142ce57600080fd5b5050506040518051600a54915063ffffffff61410416565b600c5460195491935061434f9184916131e491600160a060020a03166370a082313060006040516020015260405160e060020a63ffffffff8416028152600160a060020a039091166004820152602401602060405180830381600087803b1515610d6c57600080fd5b90506006547f13a18edb371d0a74be72de10b678893b96bc8a47e776bb122c59e21d53956fbd6007548360405191825260208201526040908101905180910390a26007819055601954600454600160a060020a039182169163a9059cbb91168460006040516020015260405160e060020a63ffffffff8516028152600160a060020a0390921660048301526024820152604401602060405180830381600087803b15156143fb57600080fd5b6102c65a03f1151561440c57600080fd5b50505060405180519050506006547f2f7da09d276ad6237b75476b806f4d8388b9228bd6fa45a7ca214fac5abdf7a3600c5460405190815260200160405180910390a2505050565b600160a060020a03331660009081526013602052604081208054829182918690811061447c57fe5b90600052602060002090600702019250831561451e57601654614517906101009004600160a060020a03166318160ddd6000604051602001526040518163ffffffff1660e060020a028152600401602060405180830381600087803b15156144e357600080fd5b6102c65a03f115156144f457600080fd5b50505060405180519050610f49856002015460075461410490919063ffffffff16565b9150614526565b826003015491505b508154600160a060020a031683156145595760195461454f90600160a060020a03168383613ca3565b6004840155614581565b60195461457b906145769083908590600160a060020a0316613ca3565b614588565b60058401555b5050505050565b60006145a682610f49670de0b6b3a76400008063ffffffff61410416565b92915050565b50805460008255600702906000526020600020908101906145cd9190614678565b50565b60606040519081016040526003815b60008152602001906001900390816145df5790505090565b8260038101928215614625579160200282015b8281111561462557825182559160200191906001019061460a565b506146319291506146cb565b5090565b60206040519081016040526000815290565b815481835581811511614673576007028160070283600052602060002091820191016146739190614678565b505050565b611f6591905b80821115614631578054600160a060020a0319168155600060018201819055600282018190556003820181905560048201819055600582015560068101805460ff1916905560070161467e565b611f6591905b8082111561463157600081556001016146d15600a165627a7a7230582036f128a1416c74d895f13359340182aa8e7acee2c43a6e06bd67c1d1bb8f85b10029",
  "source": "pragma solidity ^0.4.18;\r\n\r\nimport 'zeppelin-solidity/contracts/math/SafeMath.sol';\r\nimport 'zeppelin-solidity/contracts/lifecycle/Pausable.sol';\r\nimport './ControlToken.sol';\r\nimport './ShareToken.sol';\r\nimport './KyberNetwork.sol';\r\nimport './Utils.sol';\r\n\r\n/**\r\n * The main contract of the Betoken hedge fund\r\n */\r\ncontract BetokenFund is Pausable, Utils {\r\n  using SafeMath for uint256;\r\n\r\n  enum CyclePhase { DepositWithdraw, MakeDecisions, RedeemCommission }\r\n\r\n  struct Investment {\r\n    address tokenAddress;\r\n    uint256 cycleNumber;\r\n    uint256 stake;\r\n    uint256 tokenAmount;\r\n    uint256 buyPrice;\r\n    uint256 sellPrice;\r\n    bool isSold;\r\n  }\r\n\r\n  /**\r\n   * @dev Executes function only during the given cycle phase.\r\n   * @param phase the cycle phase during which the function may be called\r\n   */\r\n  modifier during(CyclePhase phase) {\r\n    require(cyclePhase == phase);\r\n    _;\r\n  }\r\n\r\n  /**\r\n   * @dev Checks if a token address is valid.\r\n   * @param token the token's address\r\n   */\r\n  modifier isValidToken(address token) {\r\n    require(!isMaliciousCoin[token]);\r\n    require(token != address(ETH_TOKEN_ADDRESS));\r\n    require(ERC20(token).totalSupply() > 0);\r\n    _;\r\n  }\r\n\r\n  // Address of the control token contract.\r\n  address public controlTokenAddr;\r\n\r\n  // Address of the share token contract.\r\n  address public shareTokenAddr;\r\n\r\n  // Address of the KyberNetwork contract\r\n  address public kyberAddr;\r\n\r\n  // Address to which the developer fees will be paid.\r\n  address public developerFeeAccount;\r\n\r\n  // Address of the DAI stable-coin contract.\r\n  address public daiAddr;\r\n\r\n  // The number of the current investment cycle.\r\n  uint256 public cycleNumber;\r\n\r\n  // The amount of funds held by the fund.\r\n  uint256 public totalFundsInDAI;\r\n\r\n  // The start time for the current investment cycle phase, in seconds since Unix epoch.\r\n  uint256 public startTimeOfCyclePhase;\r\n\r\n  // The proportion of the fund that gets distributed to Kairo holders every cycle. Fixed point decimal.\r\n  uint256 public commissionRate;\r\n\r\n  // The proportion of contract balance that goes the the devs every cycle. Fixed point decimal.\r\n  uint256 public developerFeeProportion;\r\n\r\n  // Amount of Kairo rewarded to the user who calls a phase transition/investment handling function\r\n  uint256 public functionCallReward;\r\n\r\n  // Amount of commission to be paid out this cycle\r\n  uint256 public totalCommission;\r\n\r\n  // The AUM (Asset Under Management) threshold for progressing to MakeDecisionsTime in the first cycle.\r\n  uint256 public aumThresholdInDAI;\r\n\r\n  // Flag for whether emergency withdrawing is allowed.\r\n  bool public allowEmergencyWithdraw;\r\n\r\n  // Stores the lengths of each cycle phase in seconds.\r\n  uint256[3] phaseLengths;\r\n\r\n  // The last cycle where a user redeemed commission.\r\n  mapping(address => uint256) public lastCommissionRedemption;\r\n\r\n  // List of investments in the current cycle.\r\n  mapping(address => Investment[]) public userInvestments;\r\n\r\n  // Records if a token is a stable coin. Users can't make investments with stable coins.\r\n  mapping(address => bool) public isStableCoin;\r\n\r\n  // Records if a token's contract maliciously treats the BetokenFund differently when calling transfer(), transferFrom(), or approve().\r\n  mapping(address => bool) public isMaliciousCoin;\r\n\r\n  // The current cycle phase.\r\n  CyclePhase public cyclePhase;\r\n\r\n  // Contract instances\r\n  ControlToken internal cToken;\r\n  ShareToken internal sToken;\r\n  KyberNetwork internal kyber;\r\n  DetailedERC20 internal dai;\r\n\r\n  event ChangedPhase(uint256 indexed _cycleNumber, uint256 indexed _newPhase, uint256 _timestamp);\r\n\r\n  event Deposit(uint256 indexed _cycleNumber, address indexed _sender, address _tokenAddress, uint256 _tokenAmount, uint256 _daiAmount, uint256 _timestamp);\r\n  event Withdraw(uint256 indexed _cycleNumber, address indexed _sender, address _tokenAddress, uint256 _tokenAmount, uint256 daiAmount, uint256 _timestamp);\r\n\r\n  event CreatedInvestment(uint256 indexed _cycleNumber, address indexed _sender, uint256 _id, address _tokenAddress, uint256 _stakeInWeis, uint256 _buyPrice, uint256 _costDAIAmount);\r\n  event SoldInvestment(uint256 indexed _cycleNumber, address indexed _sender, uint256 _investmentId, uint256 _receivedKairos, uint256 _sellPrice, uint256 _earnedDAIAmount);\r\n\r\n  event ROI(uint256 indexed _cycleNumber, uint256 _beforeTotalFunds, uint256 _afterTotalFunds);\r\n  event CommissionPaid(uint256 indexed _cycleNumber, address indexed _sender, uint256 _commission);\r\n  event TotalCommissionPaid(uint256 indexed _cycleNumber, uint256 _totalCommissionInWeis);\r\n\r\n  /**\r\n   * Contract initialization functions\r\n   */\r\n\r\n  // Constructor\r\n  function BetokenFund(\r\n    address _cTokenAddr,\r\n    address _sTokenAddr,\r\n    address _kyberAddr,\r\n    address _daiAddr,\r\n    address _developerFeeAccount,\r\n    uint256 _cycleNumber,\r\n    uint256 _aumThresholdInDAI,\r\n    uint256[3] _phaseLengths,\r\n    uint256 _commissionRate,\r\n    uint256 _developerFeeProportion,\r\n    uint256 _functionCallReward,\r\n    address[] _stableCoins\r\n  )\r\n    public\r\n  {\r\n    require(_commissionRate.add(_developerFeeProportion) < 10**18);\r\n\r\n    controlTokenAddr = _cTokenAddr;\r\n    shareTokenAddr = _sTokenAddr;\r\n    kyberAddr = _kyberAddr;\r\n    daiAddr = _daiAddr;\r\n    cToken = ControlToken(_cTokenAddr);\r\n    sToken = ShareToken(_sTokenAddr);\r\n    kyber = KyberNetwork(_kyberAddr);\r\n\r\n    developerFeeAccount = _developerFeeAccount;\r\n    phaseLengths = _phaseLengths;\r\n    commissionRate = _commissionRate;\r\n    developerFeeProportion = _developerFeeProportion;\r\n    startTimeOfCyclePhase = 0;\r\n    cyclePhase = CyclePhase.RedeemCommission;\r\n    cycleNumber = _cycleNumber;\r\n    functionCallReward = _functionCallReward;\r\n    aumThresholdInDAI = _aumThresholdInDAI;\r\n    allowEmergencyWithdraw = false;\r\n\r\n    for (uint256 i = 0; i < _stableCoins.length; i = i.add(1)) {\r\n      isStableCoin[_stableCoins[i]] = true;\r\n    }\r\n  }\r\n\r\n  /**\r\n   * Getters\r\n   */\r\n\r\n  /**\r\n   * Returns the length of the user's investments array.\r\n   * @return length of the user's investments array\r\n   */\r\n  function investmentsCount(address _userAddr) public view returns(uint256 _count) {\r\n    return userInvestments[_userAddr].length;\r\n  }\r\n\r\n  /**\r\n   * Returns the user's investments array.\r\n   * @return the user's investments array\r\n   */\r\n  function investments(address _userAddr) public view returns(Investment[] _investments) {\r\n    return userInvestments[_userAddr];\r\n  }\r\n\r\n  /**\r\n   * Returns the phaseLengths array.\r\n   * @return the phaseLengths array\r\n   */\r\n  function getPhaseLengths() public view returns(uint256[3] _phaseLengths) {\r\n    return phaseLengths;\r\n  }\r\n\r\n  /**\r\n   * Meta functions\r\n   */\r\n\r\n  /**\r\n   * Emergency functions\r\n   */\r\n\r\n  /**\r\n   * @dev Sells token in emergency situations. Only callable by owner.\r\n   * @param _tokenAddr the address of the token to be sold\r\n   */\r\n  function emergencyDumpToken(address _tokenAddr)\r\n    public\r\n    onlyOwner\r\n    during(CyclePhase.RedeemCommission)\r\n    whenPaused\r\n  {\r\n    DetailedERC20 token = DetailedERC20(_tokenAddr);\r\n    __kyberTrade(token, token.balanceOf(this), dai);\r\n  }\r\n\r\n  /**\r\n   * @dev Return staked Kairos for a investment under emergency situations. Should be called by users.\r\n   * @param _investmentId the ID of the investment\r\n   */\r\n  function emergencyRedeemStake(uint256 _investmentId) whenPaused public {\r\n    require(allowEmergencyWithdraw);\r\n    Investment storage investment = userInvestments[msg.sender][_investmentId];\r\n    require(investment.cycleNumber == cycleNumber);\r\n    uint256 stake = investment.stake;\r\n    require(stake > 0);\r\n    delete investment.stake;\r\n    cToken.transfer(msg.sender, stake);\r\n  }\r\n\r\n  /**\r\n   * @dev Updates the current fund balance. Only callable by owner.\r\n   */\r\n  function emergencyUpdateBalance() onlyOwner whenPaused public {\r\n    totalFundsInDAI = dai.balanceOf(this);\r\n  }\r\n\r\n  /**\r\n   * @dev Changes whether emergency withdrawals are allowed. Only callable by owner.\r\n   * @param _newVal the new value\r\n   */\r\n  function setAllowEmergencyWithdraw(bool _newVal) onlyOwner whenPaused public {\r\n    allowEmergencyWithdraw = _newVal;\r\n  }\r\n\r\n  /**\r\n   * @dev Function for withdrawing all funds in times of emergency. Only callable when fund is paused and allowEmergencyWithdraw is true.\r\n   */\r\n  function emergencyWithdraw()\r\n    public\r\n    whenPaused\r\n  {\r\n    require(allowEmergencyWithdraw);\r\n\r\n    uint256 amountInDAI = sToken.balanceOf(msg.sender).mul(totalFundsInDAI).div(sToken.totalSupply());\r\n    sToken.ownerBurn(msg.sender, sToken.balanceOf(msg.sender));\r\n    totalFundsInDAI = totalFundsInDAI.sub(amountInDAI);\r\n\r\n    // Transfer\r\n    dai.transfer(msg.sender, amountInDAI);\r\n\r\n    // Emit event\r\n    Withdraw(cycleNumber, msg.sender, daiAddr, amountInDAI, amountInDAI, now);\r\n  }\r\n\r\n  /**\r\n   * Parameter setters\r\n   */\r\n\r\n  /**\r\n   * @dev Changes the address of the KyberNetwork contract used in the contract. Only callable by owner.\r\n   * @param _newAddr the new address of KyberNetwork contract\r\n   */\r\n  function changeKyberNetworkAddress(address _newAddr) public onlyOwner whenPaused {\r\n    require(_newAddr != address(0));\r\n    kyberAddr = _newAddr;\r\n    kyber = KyberNetwork(_newAddr);\r\n  }\r\n\r\n  /**\r\n   * @dev Changes the address to which the developer fees will be sent. Only callable by owner.\r\n   * @param _newAddr the new developer fee address\r\n   */\r\n  function changeDeveloperFeeAccount(address _newAddr) public onlyOwner {\r\n    require(_newAddr != address(0));\r\n    developerFeeAccount = _newAddr;\r\n  }\r\n\r\n  /**\r\n  * @dev Changes the address of the DAI token smart contract. Only callable by owner.\r\n  * @param _newAddr the new DAI smart contract address\r\n  */\r\n  function changeDAIAddress(address _newAddr) public onlyOwner whenPaused {\r\n    require(_newAddr != address(0));\r\n    daiAddr = _newAddr;\r\n    dai = DetailedERC20(_newAddr);\r\n  }\r\n\r\n  /**\r\n   * @dev Changes the proportion of fund balance sent to the developers each cycle. May only decrease. Only callable by owner.\r\n   * @param _newProp the new proportion, fixed point decimal\r\n   */\r\n  function changeDeveloperFeeProportion(uint256 _newProp) public onlyOwner {\r\n    require(_newProp < developerFeeProportion);\r\n    developerFeeProportion = _newProp;\r\n  }\r\n\r\n  /**\r\n   * @dev Changes the proportion of fund balance given to Kairo holders each cycle. Only callable by owner.\r\n   * @param _newProp the new proportion, fixed point decimal\r\n   */\r\n  function changeCommissionRate(uint256 _newProp) public onlyOwner {\r\n    commissionRate = _newProp;\r\n  }\r\n\r\n  /**\r\n   * @dev Changes the amount of Kairo rewarded to whomever calls nextPhase() the first. Only callable by owner.\r\n   * @param _newVal the new reward value in Kairo, 18 decimals\r\n   */\r\n  function changeCallReward(uint256 _newVal) public onlyOwner {\r\n    functionCallReward = _newVal;\r\n  }\r\n\r\n  /**\r\n   * @dev Changes the lengths of the phases in an investment cycle. Only callable by owner.\r\n   * @param _newVal the new set of phase lengths, in the order of DepositWithdraw, MakeDecisions, RedeemCommission, in seconds\r\n   */\r\n  function changePhaseLengths(uint256[3] _newVal) public onlyOwner {\r\n    phaseLengths = _newVal;\r\n  }\r\n\r\n  /**\r\n   * @dev Changes the owner of the ControlToken contract. Only callable by owner.\r\n   * @param  _newOwner the new owner address\r\n   */\r\n  function changeControlTokenOwner(address _newOwner) public onlyOwner whenPaused {\r\n    require(_newOwner != address(0));\r\n    cToken.transferOwnership(_newOwner);\r\n  }\r\n\r\n  /**\r\n   * @dev Changes the owner of the ShareToken contract. Only callable by owner.\r\n   * @param  _newOwner the new owner address\r\n   */\r\n  function changeShareTokenOwner(address _newOwner) public onlyOwner whenPaused {\r\n    require(_newOwner != address(0));\r\n    sToken.transferOwnership(_newOwner);\r\n  }\r\n\r\n  /**\r\n   * @dev Adds a stable-coin to the manifest. Only callable by owner.\r\n   * @param  _stableCoin the stable-coin's address\r\n   */\r\n  function addStableCoin(address _stableCoin) public onlyOwner whenPaused {\r\n    require(_stableCoin != address(0));\r\n    isStableCoin[_stableCoin] = true;\r\n  }\r\n\r\n  /**\r\n   * @dev Changes the maliciousness status of a token. Only callable by owner.\r\n   * @param _coin the token's address\r\n   * @param _status the new maliciousness status\r\n   */\r\n  function setMaliciousCoinStatus(address _coin, bool _status) public onlyOwner whenPaused {\r\n    require(_coin != address(0));\r\n    isMaliciousCoin[_coin] = _status;\r\n  }\r\n\r\n\r\n  /**\r\n   * @dev Moves the fund to the next phase in the investment cycle.\r\n   */\r\n  function nextPhase()\r\n    public\r\n    whenNotPaused\r\n  {\r\n    require(now >= startTimeOfCyclePhase.add(phaseLengths[uint(cyclePhase)]));\r\n\r\n    if (cyclePhase == CyclePhase.RedeemCommission) {\r\n      // Start new cycle\r\n      cycleNumber = cycleNumber.add(1);\r\n\r\n      if (cToken.paused()) {\r\n        cToken.unpause();\r\n      }\r\n    } else if (cyclePhase == CyclePhase.DepositWithdraw) {\r\n      // End DepositWithdraw phase\r\n      if (cycleNumber == 1) {\r\n        require(totalFundsInDAI >= aumThresholdInDAI);\r\n      }\r\n    } else if (cyclePhase == CyclePhase.MakeDecisions) {\r\n      // Burn any Kairo left in BetokenFund's account\r\n      require(cToken.burnOwnerBalance());\r\n\r\n      cToken.pause();\r\n      __distributeFundsAfterCycleEnd();\r\n    }\r\n\r\n    cyclePhase = CyclePhase(addmod(uint(cyclePhase), 1, 5));\r\n    startTimeOfCyclePhase = now;\r\n\r\n    // Reward caller\r\n    cToken.mint(msg.sender, functionCallReward);\r\n\r\n    ChangedPhase(cycleNumber, uint(cyclePhase), now);\r\n  }\r\n\r\n  /**\r\n   * DepositWithdraw phase functions\r\n   */\r\n\r\n  /**\r\n   * @dev Deposit Ether into the fund. Ether will be converted into DAI.\r\n   */\r\n  function deposit()\r\n    public\r\n    payable\r\n    during(CyclePhase.DepositWithdraw)\r\n    whenNotPaused\r\n  {\r\n    // Buy DAI with ETH\r\n    uint256 actualDAIDeposited;\r\n    uint256 actualETHDeposited;\r\n    uint256 beforeETHBalance = this.balance;\r\n    uint256 beforeDAIBalance = dai.balanceOf(this);\r\n    __kyberTrade(ETH_TOKEN_ADDRESS, msg.value, dai);\r\n    actualETHDeposited = beforeETHBalance.sub(this.balance);\r\n    uint256 leftOverETH = msg.value.sub(actualETHDeposited);\r\n    if (leftOverETH > 0) {\r\n      msg.sender.transfer(leftOverETH);\r\n    }\r\n    actualDAIDeposited = dai.balanceOf(this).sub(beforeDAIBalance);\r\n    require(actualDAIDeposited > 0);\r\n\r\n    // Register investment\r\n    if (cycleNumber == 1) {\r\n      sToken.mint(msg.sender, actualDAIDeposited);\r\n    } else {\r\n      sToken.mint(msg.sender, actualDAIDeposited.mul(sToken.totalSupply()).div(totalFundsInDAI));\r\n    }\r\n    totalFundsInDAI = totalFundsInDAI.add(actualDAIDeposited);\r\n\r\n    // Only for test version. Remove for release.\r\n    cToken.mint(msg.sender, actualDAIDeposited);\r\n\r\n    // Emit event\r\n    Deposit(cycleNumber, msg.sender, ETH_TOKEN_ADDRESS, actualETHDeposited, actualDAIDeposited, now);\r\n  }\r\n\r\n  /**\r\n   * @dev Deposit ERC20 tokens into the fund. Tokens will be converted into DAI.\r\n   * @param _tokenAddr the address of the token to be deposited\r\n   * @param _tokenAmount The amount of tokens to be deposited. May be different from actual deposited amount.\r\n   */\r\n  function depositToken(address _tokenAddr, uint256 _tokenAmount)\r\n    public\r\n    during(CyclePhase.DepositWithdraw)\r\n    isValidToken(_tokenAddr)\r\n    whenNotPaused\r\n  {\r\n    DetailedERC20 token = DetailedERC20(_tokenAddr);\r\n\r\n    require(token.transferFrom(msg.sender, this, _tokenAmount));\r\n\r\n    // Convert token into DAI\r\n    uint256 actualDAIDeposited;\r\n    uint256 actualTokenDeposited;\r\n    if (_tokenAddr == daiAddr) {\r\n      actualDAIDeposited = _tokenAmount;\r\n      actualTokenDeposited = _tokenAmount;\r\n    } else {\r\n      // Buy DAI with tokens\r\n      uint256 beforeTokenBalance = token.balanceOf(this);\r\n      uint256 beforeDAIBalance = dai.balanceOf(this);\r\n      __kyberTrade(token, _tokenAmount, dai);\r\n      actualTokenDeposited = beforeTokenBalance.sub(token.balanceOf(this));\r\n      uint256 leftOverTokens = _tokenAmount.sub(actualTokenDeposited);\r\n      if (leftOverTokens > 0) {\r\n        require(token.transfer(msg.sender, leftOverTokens));\r\n      }\r\n      actualDAIDeposited = dai.balanceOf(this).sub(beforeDAIBalance);\r\n      require(actualDAIDeposited > 0);\r\n    }\r\n\r\n    // Register investment\r\n    if (cycleNumber == 1) {\r\n      sToken.mint(msg.sender, actualDAIDeposited);\r\n    } else {\r\n      sToken.mint(msg.sender, actualDAIDeposited.mul(sToken.totalSupply()).div(totalFundsInDAI));\r\n    }\r\n    totalFundsInDAI = totalFundsInDAI.add(actualDAIDeposited);\r\n\r\n    // Only for test version. Remove for release.\r\n    cToken.mint(msg.sender, actualDAIDeposited);\r\n\r\n    // Emit event\r\n    Deposit(cycleNumber, msg.sender, _tokenAddr, actualTokenDeposited, actualDAIDeposited, now);\r\n  }\r\n\r\n  /**\r\n   * @dev Withdraws Ether by burning Shares.\r\n   * @param _amountInDAI Amount of funds to be withdrawn expressed in DAI. Fixed-point decimal. May be different from actual amount.\r\n   */\r\n  function withdraw(uint256 _amountInDAI)\r\n    public\r\n    during(CyclePhase.DepositWithdraw)\r\n    whenNotPaused\r\n  {\r\n    // Buy ETH\r\n    uint256 actualETHWithdrawn;\r\n    uint256 actualDAIWithdrawn;\r\n    uint256 beforeETHBalance = this.balance;\r\n    uint256 beforeDaiBalance = dai.balanceOf(this);\r\n    __kyberTrade(dai, _amountInDAI, ETH_TOKEN_ADDRESS);\r\n    actualETHWithdrawn = this.balance.sub(beforeETHBalance);\r\n    actualDAIWithdrawn = beforeDaiBalance.sub(dai.balanceOf(this));\r\n    require(actualDAIWithdrawn > 0);\r\n\r\n    // Burn shares\r\n    sToken.ownerBurn(msg.sender, actualDAIWithdrawn.mul(sToken.totalSupply()).div(totalFundsInDAI));\r\n    totalFundsInDAI = totalFundsInDAI.sub(actualDAIWithdrawn);\r\n\r\n    // Transfer Ether to user\r\n    msg.sender.transfer(actualETHWithdrawn);\r\n\r\n    // Emit event\r\n    Withdraw(cycleNumber, msg.sender, ETH_TOKEN_ADDRESS, actualETHWithdrawn, actualDAIWithdrawn, now);\r\n  }\r\n\r\n  /**\r\n   * @dev Withdraws funds by burning Shares, and converts the funds into the specified token using Kyber Network.\r\n   * @param _tokenAddr the address of the token to be withdrawn into the caller's account\r\n   * @param _amountInDAI The amount of funds to be withdrawn expressed in DAI. Fixed-point decimal. May be different from actual amount.\r\n   */\r\n  function withdrawToken(address _tokenAddr, uint256 _amountInDAI)\r\n    public\r\n    during(CyclePhase.DepositWithdraw)\r\n    isValidToken(_tokenAddr)\r\n    whenNotPaused\r\n  {\r\n    require(cycleNumber != 1);\r\n    DetailedERC20 token = DetailedERC20(_tokenAddr);\r\n\r\n    // Convert DAI into desired tokens\r\n    uint256 actualTokenWithdrawn;\r\n    uint256 actualDAIWithdrawn;\r\n    if (_tokenAddr == daiAddr) {\r\n      actualDAIWithdrawn = _amountInDAI;\r\n      actualTokenWithdrawn = _amountInDAI;\r\n    } else {\r\n      // Buy desired tokens\r\n      uint256 beforeTokenBalance = token.balanceOf(this);\r\n      uint256 beforeDaiBalance = dai.balanceOf(this);\r\n      __kyberTrade(dai, _amountInDAI, token);\r\n      actualTokenWithdrawn = token.balanceOf(this).sub(beforeTokenBalance);\r\n      actualDAIWithdrawn = beforeDaiBalance.sub(dai.balanceOf(this));\r\n      require(actualDAIWithdrawn > 0);\r\n    }\r\n\r\n    // Burn Shares\r\n    sToken.ownerBurn(msg.sender, actualDAIWithdrawn.mul(sToken.totalSupply()).div(totalFundsInDAI));\r\n    totalFundsInDAI = totalFundsInDAI.sub(actualDAIWithdrawn);\r\n\r\n    // Transfer tokens to user\r\n    token.transfer(msg.sender, actualTokenWithdrawn);\r\n\r\n    // Emit event\r\n    Withdraw(cycleNumber, msg.sender, _tokenAddr, actualTokenWithdrawn, actualDAIWithdrawn, now);\r\n  }\r\n\r\n  /**\r\n   * MakeDecisions phase functions\r\n   */\r\n\r\n  /**\r\n   * @dev Creates a new investment investment for an ERC20 token.\r\n   * @param _tokenAddress address of the ERC20 token contract\r\n   * @param _stake amount of Kairos to be staked in support of the investment\r\n   */\r\n  function createInvestment(\r\n    address _tokenAddress,\r\n    uint256 _stake\r\n  )\r\n    public\r\n    during(CyclePhase.MakeDecisions)\r\n    isValidToken(_tokenAddress)\r\n    whenNotPaused\r\n  {\r\n    DetailedERC20 token = DetailedERC20(_tokenAddress);\r\n    require(!isStableCoin[_tokenAddress]);\r\n\r\n    // Collect stake\r\n    require(cToken.ownerCollectFrom(msg.sender, _stake));\r\n\r\n    // Add investment to list\r\n    userInvestments[msg.sender].push(Investment({\r\n      tokenAddress: _tokenAddress,\r\n      cycleNumber: cycleNumber,\r\n      stake: _stake,\r\n      tokenAmount: 0,\r\n      buyPrice: 0,\r\n      sellPrice: 0,\r\n      isSold: false\r\n    }));\r\n\r\n    // Invest\r\n    uint256 beforeTokenAmount = token.balanceOf(this);\r\n    uint256 beforeDAIBalance = dai.balanceOf(this);\r\n    uint256 investmentId = investmentsCount(msg.sender).sub(1);\r\n    __handleInvestment(investmentId, true);\r\n    userInvestments[msg.sender][investmentId].tokenAmount = token.balanceOf(this).sub(beforeTokenAmount);\r\n\r\n    // Emit event\r\n    CreatedInvestment(cycleNumber, msg.sender, investmentsCount(msg.sender).sub(1), _tokenAddress, _stake, userInvestments[msg.sender][investmentId].buyPrice, beforeDAIBalance.sub(dai.balanceOf(this)));\r\n  }\r\n\r\n  /**\r\n   * @dev Called by user to sell the assets an investment invested in. Returns the staked Kairo plus rewards/penalties.\r\n   * @param _investmentId the ID of the investment\r\n   */\r\n  function sellInvestmentAsset(uint256 _investmentId)\r\n    public\r\n    during(CyclePhase.MakeDecisions)\r\n    whenNotPaused\r\n  {\r\n    Investment storage investment = userInvestments[msg.sender][_investmentId];\r\n    require(investment.buyPrice > 0);\r\n    require(investment.cycleNumber == cycleNumber);\r\n    require(!investment.isSold);\r\n\r\n    // Sell asset\r\n    uint256 beforeDAIBalance = dai.balanceOf(this);\r\n    __handleInvestment(_investmentId, false);\r\n    investment.isSold = true;\r\n\r\n    // Return Kairo\r\n    uint256 multiplier = investment.sellPrice.mul(PRECISION).div(investment.buyPrice);\r\n    uint256 receiveKairoAmount = investment.stake.mul(multiplier).div(PRECISION);\r\n    if (receiveKairoAmount > investment.stake) {\r\n      cToken.transfer(msg.sender, investment.stake);\r\n      cToken.mint(msg.sender, receiveKairoAmount.sub(investment.stake));\r\n    } else {\r\n      cToken.transfer(msg.sender, receiveKairoAmount);\r\n      require(cToken.burnOwnerTokens(investment.stake.sub(receiveKairoAmount)));\r\n    }\r\n\r\n    // Emit event\r\n    SoldInvestment(cycleNumber, msg.sender, _investmentId, receiveKairoAmount, investment.sellPrice, dai.balanceOf(this).sub(beforeDAIBalance));\r\n  }\r\n\r\n  /**\r\n   * RedeemCommission phase functions\r\n   */\r\n\r\n  /**\r\n   * @dev Redeems commission.\r\n   */\r\n  function redeemCommission()\r\n    public\r\n    during(CyclePhase.RedeemCommission)\r\n    whenNotPaused\r\n  {\r\n    require(lastCommissionRedemption[msg.sender] < cycleNumber);\r\n    lastCommissionRedemption[msg.sender] = cycleNumber;\r\n    uint256 commission = totalCommission.mul(cToken.balanceOf(msg.sender)).div(cToken.totalSupply());\r\n    dai.transfer(msg.sender, commission);\r\n\r\n    delete userInvestments[msg.sender];\r\n\r\n    CommissionPaid(cycleNumber, msg.sender, commission);\r\n  }\r\n\r\n  /**\r\n   * @dev Sells tokens left over due to manager not selling or KyberNetwork not having enough demand. Callable by anyone.\r\n   * @param _tokenAddr address of the token to be sold\r\n   */\r\n  function sellLeftoverToken(address _tokenAddr)\r\n    public\r\n    during(CyclePhase.RedeemCommission)\r\n    isValidToken(_tokenAddr)\r\n    whenNotPaused\r\n  {\r\n    uint256 beforeBalance = dai.balanceOf(this);\r\n    DetailedERC20 token = DetailedERC20(_tokenAddr);\r\n    require(_tokenAddr != daiAddr);\r\n    __kyberTrade(token, token.balanceOf(this), dai);\r\n    totalFundsInDAI = totalFundsInDAI.add(dai.balanceOf(this).sub(beforeBalance));\r\n  }\r\n\r\n  /**\r\n   * Internal use functions\r\n   */\r\n\r\n  /**\r\n   * @dev Update fund statistics, and pay developer fees.\r\n   */\r\n  function __distributeFundsAfterCycleEnd() internal {\r\n    uint256 profit = 0;\r\n    if (dai.balanceOf(this) > totalFundsInDAI) {\r\n      profit = dai.balanceOf(this).sub(totalFundsInDAI);\r\n    }\r\n    totalCommission = commissionRate.mul(profit).div(PRECISION);\r\n    uint256 devFee = developerFeeProportion.mul(dai.balanceOf(this)).div(PRECISION);\r\n    uint256 newTotalFunds = dai.balanceOf(this).sub(totalCommission).sub(devFee);\r\n\r\n    // Update values\r\n    ROI(cycleNumber, totalFundsInDAI, newTotalFunds);\r\n    totalFundsInDAI = newTotalFunds;\r\n\r\n    // Transfer fees\r\n    dai.transfer(developerFeeAccount, devFee);\r\n\r\n    // Emit event\r\n    TotalCommissionPaid(cycleNumber, totalCommission);\r\n  }\r\n\r\n  function __handleInvestment(uint256 _investmentId, bool _buy) internal {\r\n    Investment storage investment = userInvestments[msg.sender][_investmentId];\r\n    uint256 srcAmount;\r\n    if (_buy) {\r\n      srcAmount = totalFundsInDAI.mul(investment.stake).div(cToken.totalSupply());\r\n    } else {\r\n      srcAmount = investment.tokenAmount;\r\n    }\r\n    DetailedERC20 token = DetailedERC20(investment.tokenAddress);\r\n    if (_buy) {\r\n      investment.buyPrice = __kyberTrade(dai, srcAmount, token);\r\n    } else {\r\n      investment.sellPrice = invert(__kyberTrade(token, srcAmount, dai));\r\n    }\r\n  }\r\n\r\n  /**\r\n   * @dev Wrapper function for doing token conversion on Kyber Network\r\n   * @param _srcToken the token to convert from\r\n   * @param _srcAmount the amount of tokens to be converted\r\n   * @param _destToken the destination token\r\n   * @return _destPriceInSrc the price of the destination token, in terms of source tokens\r\n   */\r\n  function __kyberTrade(DetailedERC20 _srcToken, uint256 _srcAmount, DetailedERC20 _destToken) internal returns(uint256 _destPriceInSrc) {\r\n    uint256 actualDestAmount;\r\n    uint256 beforeSrcBalance;\r\n\r\n    if (_srcToken != ETH_TOKEN_ADDRESS) {\r\n      beforeSrcBalance = _srcToken.balanceOf(this);\r\n      _srcToken.approve(kyberAddr, 0);\r\n      _srcToken.approve(kyberAddr, _srcAmount);\r\n    } else {\r\n      beforeSrcBalance = this.balance;\r\n    }\r\n    actualDestAmount = kyber.trade(\r\n      _srcToken,\r\n      _srcAmount,\r\n      _destToken,\r\n      this,\r\n      MAX_QTY,\r\n      1,\r\n      0\r\n    );\r\n    require(actualDestAmount > 0);\r\n    if (_srcToken != ETH_TOKEN_ADDRESS) {\r\n      _srcToken.approve(kyberAddr, 0);\r\n    }\r\n\r\n    _destPriceInSrc = beforeSrcBalance.sub(_srcToken.balanceOf(this)).mul(PRECISION).mul(10**uint256(_destToken.decimals())).div(actualDestAmount.mul(10**18));\r\n  }\r\n\r\n  function() public payable {\r\n    if (msg.sender != kyberAddr) {\r\n      revert();\r\n    }\r\n  }\r\n}",
  "sourcePath": "D:\\msi-cn\\Documents\\GitHub\\betoken\\eth\\contracts\\BetokenFund.sol",
  "compiler": {
    "name": "solc",
    "version": "0.4.19+commit.c4cbbb05.Emscripten.clang"
  },
  "schemaVersion": "2.0.0",
  "updatedAt": "2018-04-08T07:33:06.997Z"
}