{
  "contractName": "BetokenFund",
  "abi": [
    {
      "constant": true,
      "inputs": [],
      "name": "totalFundsInDAI",
      "outputs": [
        {
          "name": "",
          "type": "uint256"
        }
      ],
      "payable": false,
      "stateMutability": "view",
      "type": "function"
    },
    {
      "constant": true,
      "inputs": [
        {
          "name": "",
          "type": "address"
        }
      ],
      "name": "isMaliciousCoin",
      "outputs": [
        {
          "name": "",
          "type": "bool"
        }
      ],
      "payable": false,
      "stateMutability": "view",
      "type": "function"
    },
    {
      "constant": true,
      "inputs": [],
      "name": "allowEmergencyWithdraw",
      "outputs": [
        {
          "name": "",
          "type": "bool"
        }
      ],
      "payable": false,
      "stateMutability": "view",
      "type": "function"
    },
    {
      "constant": true,
      "inputs": [],
      "name": "developerFeeAccount",
      "outputs": [
        {
          "name": "",
          "type": "address"
        }
      ],
      "payable": false,
      "stateMutability": "view",
      "type": "function"
    },
    {
      "constant": true,
      "inputs": [],
      "name": "startTimeOfCyclePhase",
      "outputs": [
        {
          "name": "",
          "type": "uint256"
        }
      ],
      "payable": false,
      "stateMutability": "view",
      "type": "function"
    },
    {
      "constant": true,
      "inputs": [],
      "name": "cycleNumber",
      "outputs": [
        {
          "name": "",
          "type": "uint256"
        }
      ],
      "payable": false,
      "stateMutability": "view",
      "type": "function"
    },
    {
      "constant": false,
      "inputs": [],
      "name": "unpause",
      "outputs": [],
      "payable": false,
      "stateMutability": "nonpayable",
      "type": "function"
    },
    {
      "constant": true,
      "inputs": [
        {
          "name": "",
          "type": "address"
        }
      ],
      "name": "isStableCoin",
      "outputs": [
        {
          "name": "",
          "type": "bool"
        }
      ],
      "payable": false,
      "stateMutability": "view",
      "type": "function"
    },
    {
      "constant": true,
      "inputs": [],
      "name": "paused",
      "outputs": [
        {
          "name": "",
          "type": "bool"
        }
      ],
      "payable": false,
      "stateMutability": "view",
      "type": "function"
    },
    {
      "constant": true,
      "inputs": [],
      "name": "commissionRate",
      "outputs": [
        {
          "name": "",
          "type": "uint256"
        }
      ],
      "payable": false,
      "stateMutability": "view",
      "type": "function"
    },
    {
      "constant": true,
      "inputs": [],
      "name": "functionCallReward",
      "outputs": [
        {
          "name": "",
          "type": "uint256"
        }
      ],
      "payable": false,
      "stateMutability": "view",
      "type": "function"
    },
    {
      "constant": true,
      "inputs": [],
      "name": "daiAddr",
      "outputs": [
        {
          "name": "",
          "type": "address"
        }
      ],
      "payable": false,
      "stateMutability": "view",
      "type": "function"
    },
    {
      "constant": true,
      "inputs": [
        {
          "name": "",
          "type": "address"
        }
      ],
      "name": "lastCommissionRedemption",
      "outputs": [
        {
          "name": "",
          "type": "uint256"
        }
      ],
      "payable": false,
      "stateMutability": "view",
      "type": "function"
    },
    {
      "constant": false,
      "inputs": [],
      "name": "pause",
      "outputs": [],
      "payable": false,
      "stateMutability": "nonpayable",
      "type": "function"
    },
    {
      "constant": true,
      "inputs": [],
      "name": "owner",
      "outputs": [
        {
          "name": "",
          "type": "address"
        }
      ],
      "payable": false,
      "stateMutability": "view",
      "type": "function"
    },
    {
      "constant": true,
      "inputs": [
        {
          "name": "",
          "type": "address"
        },
        {
          "name": "",
          "type": "uint256"
        }
      ],
      "name": "userInvestments",
      "outputs": [
        {
          "name": "tokenAddress",
          "type": "address"
        },
        {
          "name": "cycleNumber",
          "type": "uint256"
        },
        {
          "name": "stake",
          "type": "uint256"
        },
        {
          "name": "tokenAmount",
          "type": "uint256"
        },
        {
          "name": "buyPrice",
          "type": "uint256"
        },
        {
          "name": "sellPrice",
          "type": "uint256"
        },
        {
          "name": "isSold",
          "type": "bool"
        }
      ],
      "payable": false,
      "stateMutability": "view",
      "type": "function"
    },
    {
      "constant": true,
      "inputs": [],
      "name": "kyberAddr",
      "outputs": [
        {
          "name": "",
          "type": "address"
        }
      ],
      "payable": false,
      "stateMutability": "view",
      "type": "function"
    },
    {
      "constant": true,
      "inputs": [],
      "name": "developerFeeProportion",
      "outputs": [
        {
          "name": "",
          "type": "uint256"
        }
      ],
      "payable": false,
      "stateMutability": "view",
      "type": "function"
    },
    {
      "constant": true,
      "inputs": [],
      "name": "totalCommission",
      "outputs": [
        {
          "name": "",
          "type": "uint256"
        }
      ],
      "payable": false,
      "stateMutability": "view",
      "type": "function"
    },
    {
      "constant": true,
      "inputs": [],
      "name": "shareTokenAddr",
      "outputs": [
        {
          "name": "",
          "type": "address"
        }
      ],
      "payable": false,
      "stateMutability": "view",
      "type": "function"
    },
    {
      "constant": true,
      "inputs": [],
      "name": "previousVersion",
      "outputs": [
        {
          "name": "",
          "type": "address"
        }
      ],
      "payable": false,
      "stateMutability": "view",
      "type": "function"
    },
    {
      "constant": true,
      "inputs": [],
      "name": "controlTokenAddr",
      "outputs": [
        {
          "name": "",
          "type": "address"
        }
      ],
      "payable": false,
      "stateMutability": "view",
      "type": "function"
    },
    {
      "constant": false,
      "inputs": [
        {
          "name": "newOwner",
          "type": "address"
        }
      ],
      "name": "transferOwnership",
      "outputs": [],
      "payable": false,
      "stateMutability": "nonpayable",
      "type": "function"
    },
    {
      "constant": true,
      "inputs": [],
      "name": "cyclePhase",
      "outputs": [
        {
          "name": "",
          "type": "uint8"
        }
      ],
      "payable": false,
      "stateMutability": "view",
      "type": "function"
    },
    {
      "inputs": [
        {
          "name": "_cTokenAddr",
          "type": "address"
        },
        {
          "name": "_sTokenAddr",
          "type": "address"
        },
        {
          "name": "_kyberAddr",
          "type": "address"
        },
        {
          "name": "_daiAddr",
          "type": "address"
        },
        {
          "name": "_developerFeeAccount",
          "type": "address"
        },
        {
          "name": "_phaseLengths",
          "type": "uint256[3]"
        },
        {
          "name": "_commissionRate",
          "type": "uint256"
        },
        {
          "name": "_developerFeeProportion",
          "type": "uint256"
        },
        {
          "name": "_functionCallReward",
          "type": "uint256"
        },
        {
          "name": "_stableCoins",
          "type": "address[]"
        },
        {
          "name": "_previousVersion",
          "type": "address"
        }
      ],
      "payable": false,
      "stateMutability": "nonpayable",
      "type": "constructor"
    },
    {
      "payable": true,
      "stateMutability": "payable",
      "type": "fallback"
    },
    {
      "anonymous": false,
      "inputs": [
        {
          "indexed": true,
          "name": "_cycleNumber",
          "type": "uint256"
        },
        {
          "indexed": true,
          "name": "_newPhase",
          "type": "uint256"
        },
        {
          "indexed": false,
          "name": "_timestamp",
          "type": "uint256"
        }
      ],
      "name": "ChangedPhase",
      "type": "event"
    },
    {
      "anonymous": false,
      "inputs": [
        {
          "indexed": true,
          "name": "_cycleNumber",
          "type": "uint256"
        },
        {
          "indexed": true,
          "name": "_sender",
          "type": "address"
        },
        {
          "indexed": false,
          "name": "_tokenAddress",
          "type": "address"
        },
        {
          "indexed": false,
          "name": "_tokenAmount",
          "type": "uint256"
        },
        {
          "indexed": false,
          "name": "_daiAmount",
          "type": "uint256"
        },
        {
          "indexed": false,
          "name": "_timestamp",
          "type": "uint256"
        }
      ],
      "name": "Deposit",
      "type": "event"
    },
    {
      "anonymous": false,
      "inputs": [
        {
          "indexed": true,
          "name": "_cycleNumber",
          "type": "uint256"
        },
        {
          "indexed": true,
          "name": "_sender",
          "type": "address"
        },
        {
          "indexed": false,
          "name": "_tokenAddress",
          "type": "address"
        },
        {
          "indexed": false,
          "name": "_tokenAmount",
          "type": "uint256"
        },
        {
          "indexed": false,
          "name": "daiAmount",
          "type": "uint256"
        },
        {
          "indexed": false,
          "name": "_timestamp",
          "type": "uint256"
        }
      ],
      "name": "Withdraw",
      "type": "event"
    },
    {
      "anonymous": false,
      "inputs": [
        {
          "indexed": true,
          "name": "_cycleNumber",
          "type": "uint256"
        },
        {
          "indexed": true,
          "name": "_sender",
          "type": "address"
        },
        {
          "indexed": false,
          "name": "_id",
          "type": "uint256"
        },
        {
          "indexed": false,
          "name": "_tokenAddress",
          "type": "address"
        },
        {
          "indexed": false,
          "name": "_stakeInWeis",
          "type": "uint256"
        },
        {
          "indexed": false,
          "name": "_buyPrice",
          "type": "uint256"
        },
        {
          "indexed": false,
          "name": "_costDAIAmount",
          "type": "uint256"
        }
      ],
      "name": "CreatedInvestment",
      "type": "event"
    },
    {
      "anonymous": false,
      "inputs": [
        {
          "indexed": true,
          "name": "_cycleNumber",
          "type": "uint256"
        },
        {
          "indexed": true,
          "name": "_sender",
          "type": "address"
        },
        {
          "indexed": false,
          "name": "_investmentId",
          "type": "uint256"
        },
        {
          "indexed": false,
          "name": "_receivedKairos",
          "type": "uint256"
        },
        {
          "indexed": false,
          "name": "_sellPrice",
          "type": "uint256"
        },
        {
          "indexed": false,
          "name": "_earnedDAIAmount",
          "type": "uint256"
        }
      ],
      "name": "SoldInvestment",
      "type": "event"
    },
    {
      "anonymous": false,
      "inputs": [
        {
          "indexed": true,
          "name": "_cycleNumber",
          "type": "uint256"
        },
        {
          "indexed": false,
          "name": "_beforeTotalFunds",
          "type": "uint256"
        },
        {
          "indexed": false,
          "name": "_afterTotalFunds",
          "type": "uint256"
        }
      ],
      "name": "ROI",
      "type": "event"
    },
    {
      "anonymous": false,
      "inputs": [
        {
          "indexed": true,
          "name": "_cycleNumber",
          "type": "uint256"
        },
        {
          "indexed": true,
          "name": "_sender",
          "type": "address"
        },
        {
          "indexed": false,
          "name": "_commission",
          "type": "uint256"
        }
      ],
      "name": "CommissionPaid",
      "type": "event"
    },
    {
      "anonymous": false,
      "inputs": [
        {
          "indexed": true,
          "name": "_cycleNumber",
          "type": "uint256"
        },
        {
          "indexed": false,
          "name": "_totalCommissionInWeis",
          "type": "uint256"
        }
      ],
      "name": "TotalCommissionPaid",
      "type": "event"
    },
    {
      "anonymous": false,
      "inputs": [],
      "name": "Pause",
      "type": "event"
    },
    {
      "anonymous": false,
      "inputs": [],
      "name": "Unpause",
      "type": "event"
    },
    {
      "anonymous": false,
      "inputs": [
        {
          "indexed": true,
          "name": "previousOwner",
          "type": "address"
        },
        {
          "indexed": true,
          "name": "newOwner",
          "type": "address"
        }
      ],
      "name": "OwnershipTransferred",
      "type": "event"
    },
    {
      "constant": true,
      "inputs": [
        {
          "name": "_userAddr",
          "type": "address"
        }
      ],
      "name": "investmentsCount",
      "outputs": [
        {
          "name": "_count",
          "type": "uint256"
        }
      ],
      "payable": false,
      "stateMutability": "view",
      "type": "function"
    },
    {
      "constant": true,
      "inputs": [
        {
          "name": "_userAddr",
          "type": "address"
        },
        {
          "name": "_id",
          "type": "uint256"
        }
      ],
      "name": "investments",
      "outputs": [
        {
          "components": [
            {
              "name": "tokenAddress",
              "type": "address"
            },
            {
              "name": "cycleNumber",
              "type": "uint256"
            },
            {
              "name": "stake",
              "type": "uint256"
            },
            {
              "name": "tokenAmount",
              "type": "uint256"
            },
            {
              "name": "buyPrice",
              "type": "uint256"
            },
            {
              "name": "sellPrice",
              "type": "uint256"
            },
            {
              "name": "isSold",
              "type": "bool"
            }
          ],
          "name": "_investment",
          "type": "tuple"
        }
      ],
      "payable": false,
      "stateMutability": "view",
      "type": "function"
    },
    {
      "constant": true,
      "inputs": [],
      "name": "getPhaseLengths",
      "outputs": [
        {
          "name": "_phaseLengths",
          "type": "uint256[3]"
        }
      ],
      "payable": false,
      "stateMutability": "view",
      "type": "function"
    },
    {
      "constant": false,
      "inputs": [
        {
          "name": "_tokenAddr",
          "type": "address"
        }
      ],
      "name": "emergencyDumpToken",
      "outputs": [],
      "payable": false,
      "stateMutability": "nonpayable",
      "type": "function"
    },
    {
      "constant": false,
      "inputs": [
        {
          "name": "_investmentId",
          "type": "uint256"
        }
      ],
      "name": "emergencyRedeemStake",
      "outputs": [],
      "payable": false,
      "stateMutability": "nonpayable",
      "type": "function"
    },
    {
      "constant": false,
      "inputs": [],
      "name": "emergencyUpdateBalance",
      "outputs": [],
      "payable": false,
      "stateMutability": "nonpayable",
      "type": "function"
    },
    {
      "constant": false,
      "inputs": [
        {
          "name": "_newVal",
          "type": "bool"
        }
      ],
      "name": "setAllowEmergencyWithdraw",
      "outputs": [],
      "payable": false,
      "stateMutability": "nonpayable",
      "type": "function"
    },
    {
      "constant": false,
      "inputs": [],
      "name": "emergencyWithdraw",
      "outputs": [],
      "payable": false,
      "stateMutability": "nonpayable",
      "type": "function"
    },
    {
      "constant": false,
      "inputs": [
        {
          "name": "_newAddr",
          "type": "address"
        }
      ],
      "name": "changeKyberNetworkAddress",
      "outputs": [],
      "payable": false,
      "stateMutability": "nonpayable",
      "type": "function"
    },
    {
      "constant": false,
      "inputs": [
        {
          "name": "_newAddr",
          "type": "address"
        }
      ],
      "name": "changeDeveloperFeeAccount",
      "outputs": [],
      "payable": false,
      "stateMutability": "nonpayable",
      "type": "function"
    },
    {
      "constant": false,
      "inputs": [
        {
          "name": "_newAddr",
          "type": "address"
        }
      ],
      "name": "changeDAIAddress",
      "outputs": [],
      "payable": false,
      "stateMutability": "nonpayable",
      "type": "function"
    },
    {
      "constant": false,
      "inputs": [
        {
          "name": "_newProp",
          "type": "uint256"
        }
      ],
      "name": "changeDeveloperFeeProportion",
      "outputs": [],
      "payable": false,
      "stateMutability": "nonpayable",
      "type": "function"
    },
    {
      "constant": false,
      "inputs": [
        {
          "name": "_newProp",
          "type": "uint256"
        }
      ],
      "name": "changeCommissionRate",
      "outputs": [],
      "payable": false,
      "stateMutability": "nonpayable",
      "type": "function"
    },
    {
      "constant": false,
      "inputs": [
        {
          "name": "_newVal",
          "type": "uint256"
        }
      ],
      "name": "changeCallReward",
      "outputs": [],
      "payable": false,
      "stateMutability": "nonpayable",
      "type": "function"
    },
    {
      "constant": false,
      "inputs": [
        {
          "name": "_newVal",
          "type": "uint256[3]"
        }
      ],
      "name": "changePhaseLengths",
      "outputs": [],
      "payable": false,
      "stateMutability": "nonpayable",
      "type": "function"
    },
    {
      "constant": false,
      "inputs": [
        {
          "name": "_newOwner",
          "type": "address"
        }
      ],
      "name": "changeControlTokenOwner",
      "outputs": [],
      "payable": false,
      "stateMutability": "nonpayable",
      "type": "function"
    },
    {
      "constant": false,
      "inputs": [
        {
          "name": "_stableCoin",
          "type": "address"
        }
      ],
      "name": "addStableCoin",
      "outputs": [],
      "payable": false,
      "stateMutability": "nonpayable",
      "type": "function"
    },
    {
      "constant": false,
      "inputs": [
        {
          "name": "_coin",
          "type": "address"
        },
        {
          "name": "_status",
          "type": "bool"
        }
      ],
      "name": "setMaliciousCoinStatus",
      "outputs": [],
      "payable": false,
      "stateMutability": "nonpayable",
      "type": "function"
    },
    {
      "constant": false,
      "inputs": [],
      "name": "nextPhase",
      "outputs": [],
      "payable": false,
      "stateMutability": "nonpayable",
      "type": "function"
    },
    {
      "constant": false,
      "inputs": [],
      "name": "deposit",
      "outputs": [],
      "payable": true,
      "stateMutability": "payable",
      "type": "function"
    },
    {
      "constant": false,
      "inputs": [
        {
          "name": "_tokenAddr",
          "type": "address"
        },
        {
          "name": "_tokenAmount",
          "type": "uint256"
        }
      ],
      "name": "depositToken",
      "outputs": [],
      "payable": false,
      "stateMutability": "nonpayable",
      "type": "function"
    },
    {
      "constant": false,
      "inputs": [
        {
          "name": "_amountInDAI",
          "type": "uint256"
        }
      ],
      "name": "withdraw",
      "outputs": [],
      "payable": false,
      "stateMutability": "nonpayable",
      "type": "function"
    },
    {
      "constant": false,
      "inputs": [
        {
          "name": "_tokenAddr",
          "type": "address"
        },
        {
          "name": "_amountInDAI",
          "type": "uint256"
        }
      ],
      "name": "withdrawToken",
      "outputs": [],
      "payable": false,
      "stateMutability": "nonpayable",
      "type": "function"
    },
    {
      "constant": false,
      "inputs": [
        {
          "name": "_tokenAddress",
          "type": "address"
        },
        {
          "name": "_stake",
          "type": "uint256"
        }
      ],
      "name": "createInvestment",
      "outputs": [],
      "payable": false,
      "stateMutability": "nonpayable",
      "type": "function"
    },
    {
      "constant": false,
      "inputs": [
        {
          "name": "_investmentId",
          "type": "uint256"
        }
      ],
      "name": "sellInvestmentAsset",
      "outputs": [],
      "payable": false,
      "stateMutability": "nonpayable",
      "type": "function"
    },
    {
      "constant": false,
      "inputs": [],
      "name": "redeemCommission",
      "outputs": [],
      "payable": false,
      "stateMutability": "nonpayable",
      "type": "function"
    },
    {
      "constant": false,
      "inputs": [
        {
          "name": "_tokenAddr",
          "type": "address"
        }
      ],
      "name": "sellLeftoverToken",
      "outputs": [],
      "payable": false,
      "stateMutability": "nonpayable",
      "type": "function"
    }
  ],
  "bytecode": "0x60606040526000805460a060020a60ff021916905534156200002057600080fd5b60405162004941380380620049418339810160405280805191906020018051919060200180519190602001805191906020018051916020820191608001805191906020018051919060200180519190602001805182019190602001805160008054600160a060020a03191633600160a060020a03161781559092509050670de0b6b3a7640000620000c08787640100000000620002ec810262003ebb1704565b10620000cb57600080fd5b8b600160006101000a815481600160a060020a030219169083600160a060020a031602179055508a600260006101000a815481600160a060020a030219169083600160a060020a0316021790555089600360006101000a815481600160a060020a030219169083600160a060020a0316021790555088600560006101000a815481600160a060020a030219169083600160a060020a031602179055508b601660016101000a815481600160a060020a030219169083600160a060020a031602179055508a601760006101000a815481600160a060020a030219169083600160a060020a0316021790555089601860006101000a815481600160a060020a030219169083600160a060020a0316021790555087600460006101000a815481600160a060020a030219169083600160a060020a0316021790555086600f9060036200021692919062000303565b50600a869055600b8590556000600955601680546002919060ff1916600183021790555050600c83905560068054600160a060020a031916600160a060020a038316179055600e805460ff1916905560005b8251811015620002da576001601460008584815181106200028557fe5b90602001906020020151600160a060020a031681526020810191909152604001600020805460ff1916911515919091179055620002d2816001640100000000620002ec810262003ebb1704565b905062000268565b50505050505050505050505062000366565b600082820183811015620002fc57fe5b9392505050565b826003810192821562000334579160200282015b828111156200033457825182559160200191906001019062000317565b506200034292915062000346565b5090565b6200036391905b808211156200034257600081556001016200034d565b90565b6145cb80620003766000396000f30060606040526004361061024d5763ffffffff60e060020a6000350416630cba5355811461026a5780630e1b1fda1461028f57806311815223146102a557806312e1ee45146102c4578063173e7707146102e35780631a2604a4146103025780631a26af7a146103355780631ab371fc146103485780631b8e2192146103775780632303b5b01461038a57806325f842c5146103a05780632e1a7d4d146103b35780632f884710146103c9578063338b5dea146103dc5780633e6d9770146103fe5780633eadb6db146104205780633f4ba83a14610433578063407fa2a31461044657806355a0c971146104915780635c975abb146104b05780635d4c3224146104c35780635ea1d6f8146104db578063612d194d146104ee57806364542e3e146105015780636642642a1461051757806368063a741461052d578063749b7a3c1461054c57806374fa0a6314610585578063821f9824146105985780638456cb59146105b75780638da5cb5b146105ca5780639244adcd146105dd5780639b4ef376146106475780639e281a981461066b578063a7c4dccf1461068d578063ab4df168146106a0578063b18e8a8d146106bf578063b2637f65146106de578063b3c1f5d8146106f1578063ba25887d14610710578063c0320dbc14610723578063d0e30db014610736578063d7615d371461073e578063d82277cc14610751578063db2e21bc14610773578063db3d1ccf14610786578063dc87454c14610799578063e53ad2d0146107ac578063e7476abf146107c2578063f2fde38b146107e1578063f6558b0014610800575b60035433600160a060020a0390811691161461026857600080fd5b005b341561027557600080fd5b61027d610837565b60405190815260200160405180910390f35b341561029a57600080fd5b61026860043561083d565b34156102b057600080fd5b610268600160a060020a0360043516610953565b34156102cf57600080fd5b610268600160a060020a03600435166109c7565b34156102ee57600080fd5b610268600160a060020a0360043516610aaa565b341561030d57600080fd5b610321600160a060020a0360043516610d31565b604051901515815260200160405180910390f35b341561034057600080fd5b610321610d46565b341561035357600080fd5b61035b610d4f565b604051600160a060020a03909116815260200160405180910390f35b341561038257600080fd5b610268610d5e565b341561039557600080fd5b610268600435610fbc565b34156103ab57600080fd5b61027d610fdc565b34156103be57600080fd5b610268600435610fe2565b34156103d457600080fd5b61027d611327565b34156103e757600080fd5b610268600160a060020a036004351660243561132d565b341561040957600080fd5b61027d600160a060020a03600435166024356119f3565b341561042b57600080fd5b610268611a8f565b341561043e57600080fd5b610268611ddc565b341561045157600080fd5b610459611e5b565b6040518082606080838360005b8381101561047e578082015183820152602001610466565b5050505090500191505060405180910390f35b341561049c57600080fd5b610321600160a060020a0360043516611e99565b34156104bb57600080fd5b610321611eae565b34156104ce57600080fd5b6102686004351515611ebe565b34156104e657600080fd5b61027d611f04565b34156104f957600080fd5b61027d611f0a565b341561050c57600080fd5b610268600435611f10565b341561052257600080fd5b610268600435611f3e565b341561053857600080fd5b61027d600160a060020a0360043516611f5e565b341561055757600080fd5b6102686004606481600360606040519081016040529190828260608082843750939550611f7d945050505050565b341561059057600080fd5b61035b611fa9565b34156105a357600080fd5b61027d600160a060020a0360043516611fb8565b34156105c257600080fd5b610268611fca565b34156105d557600080fd5b61035b61204e565b34156105e857600080fd5b6105ff600160a060020a036004351660243561205d565b604051600160a060020a03909716875260208701959095526040808701949094526060860192909252608085015260a084015290151560c083015260e0909101905180910390f35b341561065257600080fd5b610268600160a060020a036004351660243515156120c3565b341561067657600080fd5b610268600160a060020a036004351660243561211e565b341561069857600080fd5b61035b61262f565b34156106ab57600080fd5b610268600160a060020a036004351661263e565b34156106ca57600080fd5b610268600160a060020a03600435166126b2565b34156106e957600080fd5b610268612704565b34156106fc57600080fd5b610268600160a060020a03600435166127af565b341561071b57600080fd5b61027d612803565b341561072e57600080fd5b61027d612809565b61026861280f565b341561074957600080fd5b61035b612c58565b341561075c57600080fd5b610268600160a060020a0360043516602435612c67565b341561077e57600080fd5b6102686131dd565b341561079157600080fd5b61035b6134e3565b34156107a457600080fd5b61035b6134f2565b34156107b757600080fd5b610268600435613501565b34156107cd57600080fd5b610268600160a060020a036004351661398a565b34156107ec57600080fd5b610268600160a060020a0360043516613a38565b341561080b57600080fd5b610813613ac6565b6040518082600281111561082357fe5b60ff16815260200191505060405180910390f35b60085481565b60008054819060a060020a900460ff16151561085857600080fd5b600e5460ff16151561086957600080fd5b600160a060020a033316600090815260136020526040902080548490811061088d57fe5b9060005260206000209060070201915060075482600101541415156108b157600080fd5b506002810154600081116108c457600080fd5b6000600283018190556016546101009004600160a060020a03169063a9059cbb90339084906040516020015260405160e060020a63ffffffff8516028152600160a060020a0390921660048301526024820152604401602060405180830381600087803b151561093357600080fd5b6102c65a03f1151561094457600080fd5b50505060405180515050505050565b60005433600160a060020a0390811691161461096e57600080fd5b60005460a060020a900460ff16151561098657600080fd5b600160a060020a038116151561099b57600080fd5b60038054600160a060020a03909216600160a060020a0319928316811790915560188054909216179055565b6000805433600160a060020a039081169116146109e357600080fd5b60028060165460ff1660028111156109f757fe5b14610a0157600080fd5b60005460a060020a900460ff161515610a1957600080fd5b829150610aa48283600160a060020a03166370a082313060006040516020015260405160e060020a63ffffffff8416028152600160a060020a039091166004820152602401602060405180830381600087803b1515610a7757600080fd5b6102c65a03f11515610a8857600080fd5b5050506040518051601954909150600160a060020a0316613acf565b50505050565b60008060028060165460ff166002811115610ac157fe5b14610acb57600080fd5b600160a060020a038416600090815260156020526040902054849060ff1615610af357600080fd5b600160a060020a0381166000805160206145808339815191521415610b1757600080fd5b600081600160a060020a03166318160ddd6000604051602001526040518163ffffffff1660e060020a028152600401602060405180830381600087803b1515610b5f57600080fd5b6102c65a03f11515610b7057600080fd5b50505060405180519050111515610b8657600080fd5b60005460a060020a900460ff1615610b9d57600080fd5b601954600160a060020a03166370a082313060006040516020015260405160e060020a63ffffffff8416028152600160a060020a039091166004820152602401602060405180830381600087803b1515610bf657600080fd5b6102c65a03f11515610c0757600080fd5b5050506040518051600554909550869450600160a060020a03808616911614159050610c3257600080fd5b610c8d8384600160a060020a03166370a082313060006040516020015260405160e060020a63ffffffff8416028152600160a060020a039091166004820152602401602060405180830381600087803b1515610a7757600080fd5b50601954610d2790610d18908690600160a060020a03166370a082313060006040516020015260405160e060020a63ffffffff8416028152600160a060020a039091166004820152602401602060405180830381600087803b1515610cf157600080fd5b6102c65a03f11515610d0257600080fd5b505050604051805191905063ffffffff613ea916565b6008549063ffffffff613ebb16565b6008555050505050565b60156020526000908152604090205460ff1681565b600e5460ff1681565b600454600160a060020a031681565b600060028060165460ff166002811115610d7457fe5b14610d7e57600080fd5b60005460a060020a900460ff1615610d9557600080fd5b600754600160a060020a03331660009081526012602052604090205410610dbb57600080fd5b600754600160a060020a0333811660009081526012602052604080822093909355601654610eda93610100909104909216916318160ddd919051602001526040518163ffffffff1660e060020a028152600401602060405180830381600087803b1515610e2757600080fd5b6102c65a03f11515610e3857600080fd5b5050506040518051601654909150610ece906101009004600160a060020a03166370a082313360006040516020015260405160e060020a63ffffffff8416028152600160a060020a039091166004820152602401602060405180830381600087803b1515610ea557600080fd5b6102c65a03f11515610eb657600080fd5b5050506040518051600d54915063ffffffff613ed516565b9063ffffffff613f0016565b601954909250600160a060020a031663a9059cbb338460006040516020015260405160e060020a63ffffffff8516028152600160a060020a0390921660048301526024820152604401602060405180830381600087803b1515610f3c57600080fd5b6102c65a03f11515610f4d57600080fd5b50505060405180515050600160a060020a0333166000908152601360205260408120610f789161440f565b33600160a060020a03166007547fec530ab710fdaa2b5968fe15f486992441a96f643219cf0150904aa5b9eedf828460405190815260200160405180910390a35050565b60005433600160a060020a03908116911614610fd757600080fd5b600c55565b60095481565b6000808080808060165460ff166002811115610ffa57fe5b1461100457600080fd5b60005460a060020a900460ff161561101b57600080fd5b601954600160a060020a03308181163195509116906370a082319060006040516020015260405160e060020a63ffffffff8416028152600160a060020a039091166004820152602401602060405180830381600087803b151561107d57600080fd5b6102c65a03f1151561108e57600080fd5b50505060405180516019549093506110bf9150600160a060020a031687600080516020614580833981519152613acf565b506110da600160a060020a033016318463ffffffff613ea916565b60195490955061116190600160a060020a03166370a082313060006040516020015260405160e060020a63ffffffff8416028152600160a060020a039091166004820152602401602060405180830381600087803b151561113a57600080fd5b6102c65a03f1151561114b57600080fd5b505050604051805184915063ffffffff613ea916565b93506000841161117057600080fd5b601754600854600160a060020a039091169063c00017869033906111f590610ece856318160ddd6000604051602001526040518163ffffffff1660e060020a028152600401602060405180830381600087803b15156111ce57600080fd5b6102c65a03f115156111df57600080fd5b50505060405180518b915063ffffffff613ed516565b60006040516020015260405160e060020a63ffffffff8516028152600160a060020a0390921660048301526024820152604401602060405180830381600087803b151561124157600080fd5b6102c65a03f1151561125257600080fd5b5050506040518051505060085461126f908563ffffffff613ea916565b600855600160a060020a03331685156108fc0286604051600060405180830381858888f1935050505015156112a357600080fd5b33600160a060020a03166007547fae96a66bcd5a00556ad548b9a949f8f45220d5859c013e5cedbddd6af8cf7b9d6000805160206145808339815191528888426040518085600160a060020a0316600160a060020a0316815260200184815260200183815260200182815260200194505050505060405180910390a3505050505050565b60075481565b60008080808080808060165460ff16600281111561134757fe5b1461135157600080fd5b600160a060020a038916600090815260156020526040902054899060ff161561137957600080fd5b600160a060020a038116600080516020614580833981519152141561139d57600080fd5b600081600160a060020a03166318160ddd6000604051602001526040518163ffffffff1660e060020a028152600401602060405180830381600087803b15156113e557600080fd5b6102c65a03f115156113f657600080fd5b5050506040518051905011151561140c57600080fd5b60005460a060020a900460ff161561142357600080fd5b89975087600160a060020a03166323b872dd33308c60006040516020015260405160e060020a63ffffffff8616028152600160a060020a0393841660048201529190921660248201526044810191909152606401602060405180830381600087803b151561149057600080fd5b6102c65a03f115156114a157600080fd5b5050506040518051905015156114b657600080fd5b600554600160a060020a038b8116911614156114d75788965088955061176b565b87600160a060020a03166370a082313060006040516020015260405160e060020a63ffffffff8416028152600160a060020a039091166004820152602401602060405180830381600087803b151561152e57600080fd5b6102c65a03f1151561153f57600080fd5b5050506040518051601954909650600160a060020a031690506370a082313060006040516020015260405160e060020a63ffffffff8416028152600160a060020a039091166004820152602401602060405180830381600087803b15156115a557600080fd5b6102c65a03f115156115b657600080fd5b50505060405180516019549095506115db915089908b90600160a060020a0316613acf565b5061165d88600160a060020a03166370a082313060006040516020015260405160e060020a63ffffffff8416028152600160a060020a039091166004820152602401602060405180830381600087803b151561163657600080fd5b6102c65a03f1151561164757600080fd5b505050604051805187915063ffffffff613ea916565b955061166f898763ffffffff613ea916565b925060008311156116fd5787600160a060020a031663a9059cbb338560006040516020015260405160e060020a63ffffffff8516028152600160a060020a0390921660048301526024820152604401602060405180830381600087803b15156116d757600080fd5b6102c65a03f115156116e857600080fd5b5050506040518051905015156116fd57600080fd5b60195461175c908590600160a060020a03166370a082313060006040516020015260405160e060020a63ffffffff8416028152600160a060020a039091166004820152602401602060405180830381600087803b1515610cf157600080fd5b96506000871161176b57600080fd5b600754600114156117f657601754600160a060020a03166340c10f19338960006040516020015260405160e060020a63ffffffff8516028152600160a060020a0390921660048301526024820152604401602060405180830381600087803b15156117d557600080fd5b6102c65a03f115156117e657600080fd5b50505060405180519050506118e3565b601754600854600160a060020a03909116906340c10f1990339061187b90610ece856318160ddd6000604051602001526040518163ffffffff1660e060020a028152600401602060405180830381600087803b151561185457600080fd5b6102c65a03f1151561186557600080fd5b50505060405180518e915063ffffffff613ed516565b60006040516020015260405160e060020a63ffffffff8516028152600160a060020a0390921660048301526024820152604401602060405180830381600087803b15156118c757600080fd5b6102c65a03f115156118d857600080fd5b505050604051805150505b6008546118f6908863ffffffff613ebb16565b6008556016546101009004600160a060020a03166340c10f19338960006040516020015260405160e060020a63ffffffff8516028152600160a060020a0390921660048301526024820152604401602060405180830381600087803b151561195d57600080fd5b6102c65a03f1151561196e57600080fd5b505050604051805190505033600160a060020a03166007547f7ee7a1de9c18ce695c95b8b19fbdf26cce3544e3ca9e08c9f487776783d7599f8c898b426040518085600160a060020a0316600160a060020a0316815260200184815260200183815260200182815260200194505050505060405180910390a350505050505050505050565b6119fb614433565b600160a060020a0383166000908152601360205260409020805483908110611a1f57fe5b906000526020600020906007020160e060405190810160409081528254600160a060020a03168252600183015460208301526002830154908201526003820154606082015260048201546080820152600582015460a082015260069091015460ff16151560c08201529392505050565b60005460a060020a900460ff1615611aa657600080fd5b601654611ad990600f9060ff166002811115611abe57fe5b60038110611ac857fe5b01546009549063ffffffff613ebb16565b421015611ae557600080fd5b600260165460ff166002811115611af857fe5b1415611be057600754611b1290600163ffffffff613ebb16565b6007556016546101009004600160a060020a0316635c975abb6000604051602001526040518163ffffffff1660e060020a028152600401602060405180830381600087803b1515611b6257600080fd5b6102c65a03f11515611b7357600080fd5b5050506040518051905015611bdb576016546101009004600160a060020a0316633f4ba83a6040518163ffffffff1660e060020a028152600401600060405180830381600087803b1515611bc657600080fd5b6102c65a03f11515611bd757600080fd5b5050505b611ccc565b600160165460ff166002811115611bf357fe5b1415611ccc576016546101009004600160a060020a031663f3123a3a6000604051602001526040518163ffffffff1660e060020a028152600401602060405180830381600087803b1515611c4657600080fd5b6102c65a03f11515611c5757600080fd5b505050604051805190501515611c6c57600080fd5b6016546101009004600160a060020a0316638456cb596040518163ffffffff1660e060020a028152600401600060405180830381600087803b1515611cb057600080fd5b6102c65a03f11515611cc157600080fd5b505050611ccc613f17565b60165460059060019060ff166002811115611ce357fe5b086002811115611cef57fe5b6016805460ff19166001836002811115611d0557fe5b021790555042600955601654600c54610100909104600160a060020a0316906340c10f1990339060006040516020015260405160e060020a63ffffffff8516028152600160a060020a0390921660048301526024820152604401602060405180830381600087803b1515611d7857600080fd5b6102c65a03f11515611d8957600080fd5b5050506040518051505060165460ff166002811115611da457fe5b6007547f9590d2eff92d0882635fb8e1412da02e41af0dc517cfd07520a03506eb65b0af4260405190815260200160405180910390a3565b60005433600160a060020a03908116911614611df757600080fd5b60005460a060020a900460ff161515611e0f57600080fd5b6000805474ff0000000000000000000000000000000000000000191690557f7805862f689e2f13df9f062ff482ad3ad112aca9e0847911ed832e158c525b3360405160405180910390a1565b611e6361447c565b600f6003606060405190810160405291906060830182845b815481526020019060010190808311611e7b57505050505090505b90565b60146020526000908152604090205460ff1681565b60005460a060020a900460ff1681565b60005433600160a060020a03908116911614611ed957600080fd5b60005460a060020a900460ff161515611ef157600080fd5b600e805460ff1916911515919091179055565b600a5481565b600c5481565b60005433600160a060020a03908116911614611f2b57600080fd5b600b548110611f3957600080fd5b600b55565b60005433600160a060020a03908116911614611f5957600080fd5b600a55565b600160a060020a0381166000908152601360205260409020545b919050565b60005433600160a060020a03908116911614611f9857600080fd5b611fa5600f8260036144a3565b5050565b600554600160a060020a031681565b60126020526000908152604090205481565b60005433600160a060020a03908116911614611fe557600080fd5b60005460a060020a900460ff1615611ffc57600080fd5b6000805474ff0000000000000000000000000000000000000000191660a060020a1790557f6985a02210a168e66602d3235cb6db0e70f92b3ba4d376a33c0f3d9434bff62560405160405180910390a1565b600054600160a060020a031681565b60136020528160005260406000208181548110151561207857fe5b60009182526020909120600790910201805460018201546002830154600384015460048501546005860154600690960154600160a060020a0390951697509295509093909260ff1687565b60005433600160a060020a039081169116146120de57600080fd5b600160a060020a03821615156120f357600080fd5b600160a060020a03919091166000908152601560205260409020805460ff1916911515919091179055565b600080808080808060165460ff16600281111561213757fe5b1461214157600080fd5b600160a060020a038816600090815260156020526040902054889060ff161561216957600080fd5b600160a060020a038116600080516020614580833981519152141561218d57600080fd5b600081600160a060020a03166318160ddd6000604051602001526040518163ffffffff1660e060020a028152600401602060405180830381600087803b15156121d557600080fd5b6102c65a03f115156121e657600080fd5b505050604051805190501115156121fc57600080fd5b60005460a060020a900460ff161561221357600080fd5b6007546001141561222357600080fd5b600554899750600160a060020a03808916911614156122475787945087955061243b565b86600160a060020a03166370a082313060006040516020015260405160e060020a63ffffffff8416028152600160a060020a039091166004820152602401602060405180830381600087803b151561229e57600080fd5b6102c65a03f115156122af57600080fd5b5050506040518051601954909550600160a060020a031690506370a082313060006040516020015260405160e060020a63ffffffff8416028152600160a060020a039091166004820152602401602060405180830381600087803b151561231557600080fd5b6102c65a03f1151561232657600080fd5b50505060405180516019549094506123499150600160a060020a03168989613acf565b506123a58488600160a060020a03166370a082313060006040516020015260405160e060020a63ffffffff8416028152600160a060020a039091166004820152602401602060405180830381600087803b1515610cf157600080fd5b60195490965061242c90600160a060020a03166370a082313060006040516020015260405160e060020a63ffffffff8416028152600160a060020a039091166004820152602401602060405180830381600087803b151561240557600080fd5b6102c65a03f1151561241657600080fd5b505050604051805185915063ffffffff613ea916565b94506000851161243b57600080fd5b601754600854600160a060020a039091169063c00017869033906124c090610ece856318160ddd6000604051602001526040518163ffffffff1660e060020a028152600401602060405180830381600087803b151561249957600080fd5b6102c65a03f115156124aa57600080fd5b50505060405180518c915063ffffffff613ed516565b60006040516020015260405160e060020a63ffffffff8516028152600160a060020a0390921660048301526024820152604401602060405180830381600087803b151561250c57600080fd5b6102c65a03f1151561251d57600080fd5b5050506040518051505060085461253a908663ffffffff613ea916565b600855600160a060020a03871663a9059cbb338860006040516020015260405160e060020a63ffffffff8516028152600160a060020a0390921660048301526024820152604401602060405180830381600087803b151561259a57600080fd5b6102c65a03f115156125ab57600080fd5b505050604051805190505033600160a060020a03166007547fae96a66bcd5a00556ad548b9a949f8f45220d5859c013e5cedbddd6af8cf7b9d8b8989426040518085600160a060020a0316600160a060020a0316815260200184815260200183815260200182815260200194505050505060405180910390a3505050505050505050565b600354600160a060020a031681565b60005433600160a060020a0390811691161461265957600080fd5b60005460a060020a900460ff16151561267157600080fd5b600160a060020a038116151561268657600080fd5b60058054600160a060020a03909216600160a060020a0319928316811790915560198054909216179055565b60005433600160a060020a039081169116146126cd57600080fd5b600160a060020a03811615156126e257600080fd5b60048054600160a060020a031916600160a060020a0392909216919091179055565b60005433600160a060020a0390811691161461271f57600080fd5b60005460a060020a900460ff16151561273757600080fd5b601954600160a060020a03166370a082313060006040516020015260405160e060020a63ffffffff8416028152600160a060020a039091166004820152602401602060405180830381600087803b151561279057600080fd5b6102c65a03f115156127a157600080fd5b505050604051805160085550565b60005433600160a060020a039081169116146127ca57600080fd5b600160a060020a03811615156127df57600080fd5b600160a060020a03166000908152601460205260409020805460ff19166001179055565b600b5481565b600d5481565b600080808080808060165460ff16600281111561282857fe5b1461283257600080fd5b60005460a060020a900460ff161561284957600080fd5b601954600160a060020a03308181163196509116906370a082319060006040516020015260405160e060020a63ffffffff8416028152600160a060020a039091166004820152602401602060405180830381600087803b15156128ab57600080fd5b6102c65a03f115156128bc57600080fd5b50505060405180516019549094506128ef9150600080516020614580833981519152903490600160a060020a0316613acf565b5061290a84600160a060020a0330163163ffffffff613ea916565b945061291c348663ffffffff613ea916565b9150600082111561295857600160a060020a03331682156108fc0283604051600060405180830381858888f19350505050151561295857600080fd5b6019546129b7908490600160a060020a03166370a082313060006040516020015260405160e060020a63ffffffff8416028152600160a060020a039091166004820152602401602060405180830381600087803b1515610cf157600080fd5b9550600086116129c657600080fd5b60075460011415612a5157601754600160a060020a03166340c10f19338860006040516020015260405160e060020a63ffffffff8516028152600160a060020a0390921660048301526024820152604401602060405180830381600087803b1515612a3057600080fd5b6102c65a03f11515612a4157600080fd5b5050506040518051905050612b3e565b601754600854600160a060020a03909116906340c10f19903390612ad690610ece856318160ddd6000604051602001526040518163ffffffff1660e060020a028152600401602060405180830381600087803b1515612aaf57600080fd5b6102c65a03f11515612ac057600080fd5b50505060405180518d915063ffffffff613ed516565b60006040516020015260405160e060020a63ffffffff8516028152600160a060020a0390921660048301526024820152604401602060405180830381600087803b1515612b2257600080fd5b6102c65a03f11515612b3357600080fd5b505050604051805150505b600854612b51908763ffffffff613ebb16565b6008556016546101009004600160a060020a03166340c10f19338860006040516020015260405160e060020a63ffffffff8516028152600160a060020a0390921660048301526024820152604401602060405180830381600087803b1515612bb857600080fd5b6102c65a03f11515612bc957600080fd5b505050604051805190505033600160a060020a03166007547f7ee7a1de9c18ce695c95b8b19fbdf26cce3544e3ca9e08c9f487776783d7599f600080516020614580833981519152888a426040518085600160a060020a0316600160a060020a0316815260200184815260200183815260200182815260200194505050505060405180910390a3505050505050565b600254600160a060020a031681565b600080808060018060165460ff166002811115612c8057fe5b14612c8a57600080fd5b600160a060020a038716600090815260156020526040902054879060ff1615612cb257600080fd5b600160a060020a0381166000805160206145808339815191521415612cd657600080fd5b600081600160a060020a03166318160ddd6000604051602001526040518163ffffffff1660e060020a028152600401602060405180830381600087803b1515612d1e57600080fd5b6102c65a03f11515612d2f57600080fd5b50505060405180519050111515612d4557600080fd5b60005460a060020a900460ff1615612d5c57600080fd5b600160a060020a03881660009081526014602052604090205488965060ff1615612d8557600080fd5b6016546101009004600160a060020a0316632bee7bde338960006040516020015260405160e060020a63ffffffff8516028152600160a060020a0390921660048301526024820152604401602060405180830381600087803b1515612de957600080fd5b6102c65a03f11515612dfa57600080fd5b505050604051805190501515612e0f57600080fd5b600160a060020a0333166000908152601360205260409020805460018101612e3783826144e1565b9160005260206000209060070201600060e06040519081016040908152600160a060020a038d168252600754602083015281018b90526000606082018190526080820181905260a0820181905260c082015291905081518154600160a060020a031916600160a060020a03919091161781556020820151816001015560408201518160020155606082015181600301556080820151816004015560a0820151816005015560c0820151600691909101805460ff19169115159190911790555050600160a060020a0386166370a082313060006040516020015260405160e060020a63ffffffff8416028152600160a060020a039091166004820152602401602060405180830381600087803b1515612f4e57600080fd5b6102c65a03f11515612f5f57600080fd5b5050506040518051601954909650600160a060020a031690506370a082313060006040516020015260405160e060020a63ffffffff8416028152600160a060020a039091166004820152602401602060405180830381600087803b1515612fc557600080fd5b6102c65a03f11515612fd657600080fd5b505050604051805190509350612ffc6001612ff033611f5e565b9063ffffffff613ea916565b9250613009836001614225565b6130648587600160a060020a03166370a082313060006040516020015260405160e060020a63ffffffff8416028152600160a060020a039091166004820152602401602060405180830381600087803b1515610cf157600080fd5b600160a060020a033316600090815260136020526040902080548590811061308857fe5b90600052602060002090600702016003018190555033600160a060020a03166007547f889f8b8332780d1527bc9c13329f57e4eeac4aa8255a0e7d6af5ef7a864301816130d96001612ff033611f5e565b600160a060020a033316600090815260136020526040902080548d918d918a90811061310157fe5b60009182526020822060046007909202010154601954909161319b91600160a060020a0316906370a082319030906040516020015260405160e060020a63ffffffff8416028152600160a060020a039091166004820152602401602060405180830381600087803b151561317457600080fd5b6102c65a03f1151561318557600080fd5b50505060405180518d915063ffffffff613ea916565b604051948552600160a060020a0390931660208501526040808501929092526060840152608083019190915260a0909101905180910390a35050505050505050565b6000805460a060020a900460ff1615156131f657600080fd5b600e5460ff16151561320757600080fd5b6017546132f690600160a060020a03166318160ddd6000604051602001526040518163ffffffff1660e060020a028152600401602060405180830381600087803b151561325357600080fd5b6102c65a03f1151561326457600080fd5b5050506040518051600854601754919250610ece91600160a060020a03166370a082313360006040516020015260405160e060020a63ffffffff8416028152600160a060020a039091166004820152602401602060405180830381600087803b15156132cf57600080fd5b6102c65a03f115156132e057600080fd5b505050604051805191905063ffffffff613ed516565b601754909150600160a060020a031663c000178633826370a082318260006040516020015260405160e060020a63ffffffff8416028152600160a060020a039091166004820152602401602060405180830381600087803b151561335957600080fd5b6102c65a03f1151561336a57600080fd5b5050506040518051905060006040516020015260405160e060020a63ffffffff8516028152600160a060020a0390921660048301526024820152604401602060405180830381600087803b15156133c057600080fd5b6102c65a03f115156133d157600080fd5b505050604051805150506008546133ee908263ffffffff613ea916565b600855601954600160a060020a031663a9059cbb338360006040516020015260405160e060020a63ffffffff8516028152600160a060020a0390921660048301526024820152604401602060405180830381600087803b151561345057600080fd5b6102c65a03f1151561346157600080fd5b50505060405180515050600754600554600160a060020a0333811692917fae96a66bcd5a00556ad548b9a949f8f45220d5859c013e5cedbddd6af8cf7b9d91168480426040518085600160a060020a0316600160a060020a0316815260200184815260200183815260200182815260200194505050505060405180910390a350565b600654600160a060020a031681565b600154600160a060020a031681565b600080808060018060165460ff16600281111561351a57fe5b1461352457600080fd5b60005460a060020a900460ff161561353b57600080fd5b600160a060020a033316600090815260136020526040902080548790811061355f57fe5b906000526020600020906007020194506000856004015411151561358257600080fd5b60075460018601541461359457600080fd5b600685015460ff16156135a657600080fd5b601954600160a060020a03166370a082313060006040516020015260405160e060020a63ffffffff8416028152600160a060020a039091166004820152602401602060405180830381600087803b15156135ff57600080fd5b6102c65a03f1151561361057600080fd5b505050604051805190509350613627866000614225565b60068501805460ff191660011790556004850154600586015461365d9190610ece90670de0b6b3a764000063ffffffff613ed516565b9250613682670de0b6b3a7640000610ece858860020154613ed590919063ffffffff16565b915084600201548211156137b957601660019054906101000a9004600160a060020a0316600160a060020a031663a9059cbb33876002015460006040516020015260405160e060020a63ffffffff8516028152600160a060020a0390921660048301526024820152604401602060405180830381600087803b151561370657600080fd5b6102c65a03f1151561371757600080fd5b505050604051805150506016546002860154610100909104600160a060020a0316906340c10f1990339061374c908690613ea9565b60006040516020015260405160e060020a63ffffffff8516028152600160a060020a0390921660048301526024820152604401602060405180830381600087803b151561379857600080fd5b6102c65a03f115156137a957600080fd5b50505060405180519050506138c5565b6016546101009004600160a060020a031663a9059cbb338460006040516020015260405160e060020a63ffffffff8516028152600160a060020a0390921660048301526024820152604401602060405180830381600087803b151561381d57600080fd5b6102c65a03f1151561382e57600080fd5b505050604051805150506016546002860154610100909104600160a060020a0316906349f9f4d0906138609085613ea9565b60006040516020015260405160e060020a63ffffffff84160281526004810191909152602401602060405180830381600087803b151561389f57600080fd5b6102c65a03f115156138b057600080fd5b5050506040518051905015156138c557600080fd5b6007546005860154601954600160a060020a0333811693927f7d92f4f6fffc42160fd0d9f56281733529e476a2c89c29c0a6fa0878cd85a9af928b92889291613958918c91166370a082313060006040516020015260405160e060020a63ffffffff8416028152600160a060020a039091166004820152602401602060405180830381600087803b1515610cf157600080fd5b6040518085815260200184815260200183815260200182815260200194505050505060405180910390a3505050505050565b60005433600160a060020a039081169116146139a557600080fd5b60005460a060020a900460ff1615156139bd57600080fd5b600160a060020a03811615156139d257600080fd5b6016546101009004600160a060020a031663f2fde38b8260405160e060020a63ffffffff8416028152600160a060020a039091166004820152602401600060405180830381600087803b1515613a2757600080fd5b6102c65a03f11515610aa457600080fd5b60005433600160a060020a03908116911614613a5357600080fd5b600160a060020a0381161515613a6857600080fd5b600054600160a060020a0380831691167f8be0079c531659141344cd1fd0a4f28419497f9722a3daafe3b4186f6b6457e060405160405180910390a360008054600160a060020a031916600160a060020a0392909216919091179055565b60165460ff1681565b6000808080600160a060020a03871660008051602061458083398151915214613c6b5786600160a060020a03166370a082313060006040516020015260405160e060020a63ffffffff8416028152600160a060020a039091166004820152602401602060405180830381600087803b1515613b4957600080fd5b6102c65a03f11515613b5a57600080fd5b505050604051805160035490935060009250600160a060020a03808a16925063095ea7b3911683806040516020015260405160e060020a63ffffffff8516028152600160a060020a0390921660048301526024820152604401602060405180830381600087803b1515613bcc57600080fd5b6102c65a03f11515613bdd57600080fd5b50505060405180515050600354600160a060020a038089169163095ea7b391168860006040516020015260405160e060020a63ffffffff8516028152600160a060020a0390921660048301526024820152604401602060405180830381600087803b1515613c4a57600080fd5b6102c65a03f11515613c5b57600080fd5b5050506040518051905050613c7a565b5050600160a060020a03301631845b601854600160a060020a031663cb3c28c782898989306b204fce5e3e2502611000000060016000806040516020015260405160e060020a63ffffffff8b16028152600160a060020a039788166004820152602481019690965293861660448601529185166064850152608484015260a483015290911660c482015260e4016020604051808303818588803b1515613d1057600080fd5b6125ee5a03f11515613d2157600080fd5b50505050604051805193505060008311613d3a57600080fd5b600160a060020a03871660008051602061458083398151915214613dd757600354600160a060020a038089169163095ea7b391166000806040516020015260405160e060020a63ffffffff8516028152600160a060020a0390921660048301526024820152604401602060405180830381600087803b1515613dbb57600080fd5b6102c65a03f11515613dcc57600080fd5b505050604051805150505b613e9e613df6613de689614359565b8590600a0a63ffffffff613ed516565b610ece613e0288614359565b600a0a613e92670de0b6b3a7640000613e928d600160a060020a03166370a082313060006040516020015260405160e060020a63ffffffff8416028152600160a060020a039091166004820152602401602060405180830381600087803b1515613e6b57600080fd5b6102c65a03f11515613e7c57600080fd5b50505060405180518a915063ffffffff613ea916565b9063ffffffff613ed516565b979650505050505050565b600082821115613eb557fe5b50900390565b600082820183811015613eca57fe5b8091505b5092915050565b600080831515613ee85760009150613ece565b50828202828482811515613ef857fe5b0414613eca57fe5b6000808284811515613f0e57fe5b04949350505050565b6008546019546000918291829190600160a060020a03166370a0823130846040516020015260405160e060020a63ffffffff8416028152600160a060020a039091166004820152602401602060405180830381600087803b1515613f7a57600080fd5b6102c65a03f11515613f8b57600080fd5b505050604051805190501115613fff57600854601954613ffc9190600160a060020a03166370a082313060006040516020015260405160e060020a63ffffffff8416028152600160a060020a039091166004820152602401602060405180830381600087803b1515610cf157600080fd5b92505b614020670de0b6b3a7640000610ece85600a54613ed590919063ffffffff16565b600d556019546140b790670de0b6b3a764000090610ece90600160a060020a03166370a082313060006040516020015260405160e060020a63ffffffff8416028152600160a060020a039091166004820152602401602060405180830381600087803b151561408e57600080fd5b6102c65a03f1151561409f57600080fd5b5050506040518051600b54915063ffffffff613ed516565b600d54601954919350614120918491612ff091600160a060020a03166370a082313060006040516020015260405160e060020a63ffffffff8416028152600160a060020a039091166004820152602401602060405180830381600087803b1515610cf157600080fd5b90506007547f13a18edb371d0a74be72de10b678893b96bc8a47e776bb122c59e21d53956fbd6008548360405191825260208201526040908101905180910390a26008819055601954600454600160a060020a039182169163a9059cbb91168460006040516020015260405160e060020a63ffffffff8516028152600160a060020a0390921660048301526024820152604401602060405180830381600087803b15156141cc57600080fd5b6102c65a03f115156141dd57600080fd5b50505060405180519050506007547f2f7da09d276ad6237b75476b806f4d8388b9228bd6fa45a7ca214fac5abdf7a3600d5460405190815260200160405180910390a2505050565b600160a060020a03331660009081526013602052604081208054829182918690811061424d57fe5b9060005260206000209060070201925083156142ef576016546142e8906101009004600160a060020a03166318160ddd6000604051602001526040518163ffffffff1660e060020a028152600401602060405180830381600087803b15156142b457600080fd5b6102c65a03f115156142c557600080fd5b50505060405180519050610ece8560020154600854613ed590919063ffffffff16565b91506142f7565b826003015491505b508154600160a060020a0316831561432a5760195461432090600160a060020a03168383613acf565b6004840155614352565b60195461434c906143479083908590600160a060020a0316613acf565b6143eb565b60058401555b5050505050565b6000600160a060020a038216600080516020614580833981519152141561438257506012611f78565b81600160a060020a031663313ce5676000604051602001526040518163ffffffff1660e060020a028152600401602060405180830381600087803b15156143c857600080fd5b6102c65a03f115156143d957600080fd5b505050604051805160ff169392505050565b600061440982610ece670de0b6b3a76400008063ffffffff613ed516565b92915050565b50805460008255600702906000526020600020908101906144309190614512565b50565b60e0604051908101604052806000600160a060020a0316815260200160008152602001600081526020016000815260200160008152602001600081526020016000151581525090565b60606040519081016040526003815b600081526020019060019003908161448b5790505090565b82600381019282156144d1579160200282015b828111156144d15782518255916020019190600101906144b6565b506144dd929150614565565b5090565b81548183558181151161450d5760070281600702836000526020600020918201910161450d9190614512565b505050565b611e9691905b808211156144dd578054600160a060020a0319168155600060018201819055600282018190556003820181905560048201819055600582015560068101805460ff19169055600701614518565b611e9691905b808211156144dd576000815560010161456b5600000000000000000000000000eeeeeeeeeeeeeeeeeeeeeeeeeeeeeeeeeeeeeeeea165627a7a723058204091fdb350b3a2ee68c50348d672704479ea01545ce2aadb08a833cc917ea4f00029",
  "source": "pragma solidity ^0.4.18;\r\n\r\nimport 'zeppelin-solidity/contracts/math/SafeMath.sol';\r\nimport 'zeppelin-solidity/contracts/lifecycle/Pausable.sol';\r\nimport './ControlToken.sol';\r\nimport './ShareToken.sol';\r\nimport './KyberNetwork.sol';\r\nimport './Utils.sol';\r\n\r\n/**\r\n * @title The main smart contract of the Betoken hedge fund.\r\n * @author Zefram Lou (Zebang Liu)\r\n * @dev Need to remove Kairo minting before release\r\n */\r\ncontract BetokenFund is Pausable, Utils {\r\n  using SafeMath for uint256;\r\n\r\n  enum CyclePhase { DepositWithdraw, MakeDecisions, RedeemCommission }\r\n\r\n  struct Investment {\r\n    address tokenAddress;\r\n    uint256 cycleNumber;\r\n    uint256 stake;\r\n    uint256 tokenAmount;\r\n    uint256 buyPrice;\r\n    uint256 sellPrice;\r\n    bool isSold;\r\n  }\r\n\r\n  /**\r\n   * @notice Executes function only during the given cycle phase.\r\n   * @param phase the cycle phase during which the function may be called\r\n   */\r\n  modifier during(CyclePhase phase) {\r\n    require(cyclePhase == phase);\r\n    _;\r\n  }\r\n\r\n  /**\r\n   * @notice Checks if `token` is a valid token.\r\n   * @param token the token's address\r\n   */\r\n  modifier isValidToken(address token) {\r\n    require(!isMaliciousCoin[token]);\r\n    require(token != address(ETH_TOKEN_ADDRESS));\r\n    require(ERC20(token).totalSupply() > 0);\r\n    _;\r\n  }\r\n\r\n  // Address of the control token contract.\r\n  address public controlTokenAddr;\r\n\r\n  // Address of the share token contract.\r\n  address public shareTokenAddr;\r\n\r\n  // Address of the KyberNetwork contract\r\n  address public kyberAddr;\r\n\r\n  // Address to which the developer fees will be paid.\r\n  address public developerFeeAccount;\r\n\r\n  // Address of the DAI stable-coin contract.\r\n  address public daiAddr;\r\n\r\n  // Address of the previous version of BetokenFund.\r\n  address public previousVersion;\r\n\r\n  // The number of the current investment cycle.\r\n  uint256 public cycleNumber;\r\n\r\n  // The amount of funds held by the fund.\r\n  uint256 public totalFundsInDAI;\r\n\r\n  // The start time for the current investment cycle phase, in seconds since Unix epoch.\r\n  uint256 public startTimeOfCyclePhase;\r\n\r\n  // The proportion of the fund that gets distributed to Kairo holders every cycle. Fixed point decimal.\r\n  uint256 public commissionRate;\r\n\r\n  // The proportion of contract balance that goes the the devs every cycle. Fixed point decimal.\r\n  uint256 public developerFeeProportion;\r\n\r\n  // Amount of Kairo rewarded to the user who calls a phase transition/investment handling function\r\n  uint256 public functionCallReward;\r\n\r\n  // Amount of commission to be paid out this cycle\r\n  uint256 public totalCommission;\r\n\r\n  // Flag for whether emergency withdrawing is allowed.\r\n  bool public allowEmergencyWithdraw;\r\n\r\n  // Stores the lengths of each cycle phase in seconds.\r\n  uint256[3] phaseLengths;\r\n\r\n  // The last cycle where a user redeemed commission.\r\n  mapping(address => uint256) public lastCommissionRedemption;\r\n\r\n  // List of investments in the current cycle.\r\n  mapping(address => Investment[]) public userInvestments;\r\n\r\n  // Records if a token is a stable coin. Users can't make investments with stable coins.\r\n  mapping(address => bool) public isStableCoin;\r\n\r\n  // Records if a token's contract maliciously treats the BetokenFund differently when calling transfer(), transferFrom(), or approve().\r\n  mapping(address => bool) public isMaliciousCoin;\r\n\r\n  // The current cycle phase.\r\n  CyclePhase public cyclePhase;\r\n\r\n  // Contract instances\r\n  ControlToken internal cToken;\r\n  ShareToken internal sToken;\r\n  KyberNetwork internal kyber;\r\n  DetailedERC20 internal dai;\r\n\r\n  event ChangedPhase(uint256 indexed _cycleNumber, uint256 indexed _newPhase, uint256 _timestamp);\r\n\r\n  event Deposit(uint256 indexed _cycleNumber, address indexed _sender, address _tokenAddress, uint256 _tokenAmount, uint256 _daiAmount, uint256 _timestamp);\r\n  event Withdraw(uint256 indexed _cycleNumber, address indexed _sender, address _tokenAddress, uint256 _tokenAmount, uint256 daiAmount, uint256 _timestamp);\r\n\r\n  event CreatedInvestment(uint256 indexed _cycleNumber, address indexed _sender, uint256 _id, address _tokenAddress, uint256 _stakeInWeis, uint256 _buyPrice, uint256 _costDAIAmount);\r\n  event SoldInvestment(uint256 indexed _cycleNumber, address indexed _sender, uint256 _investmentId, uint256 _receivedKairos, uint256 _sellPrice, uint256 _earnedDAIAmount);\r\n\r\n  event ROI(uint256 indexed _cycleNumber, uint256 _beforeTotalFunds, uint256 _afterTotalFunds);\r\n  event CommissionPaid(uint256 indexed _cycleNumber, address indexed _sender, uint256 _commission);\r\n  event TotalCommissionPaid(uint256 indexed _cycleNumber, uint256 _totalCommissionInWeis);\r\n\r\n  /**\r\n   * Contract initialization functions\r\n   */\r\n\r\n  // Constructor\r\n  function BetokenFund(\r\n    address _cTokenAddr,\r\n    address _sTokenAddr,\r\n    address _kyberAddr,\r\n    address _daiAddr,\r\n    address _developerFeeAccount,\r\n    uint256[3] _phaseLengths,\r\n    uint256 _commissionRate,\r\n    uint256 _developerFeeProportion,\r\n    uint256 _functionCallReward,\r\n    address[] _stableCoins,\r\n    address _previousVersion\r\n  )\r\n    public\r\n  {\r\n    require(_commissionRate.add(_developerFeeProportion) < 10**18);\r\n\r\n    controlTokenAddr = _cTokenAddr;\r\n    shareTokenAddr = _sTokenAddr;\r\n    kyberAddr = _kyberAddr;\r\n    daiAddr = _daiAddr;\r\n    cToken = ControlToken(_cTokenAddr);\r\n    sToken = ShareToken(_sTokenAddr);\r\n    kyber = KyberNetwork(_kyberAddr);\r\n\r\n    developerFeeAccount = _developerFeeAccount;\r\n    phaseLengths = _phaseLengths;\r\n    commissionRate = _commissionRate;\r\n    developerFeeProportion = _developerFeeProportion;\r\n    startTimeOfCyclePhase = 0;\r\n    cyclePhase = CyclePhase.RedeemCommission;\r\n    functionCallReward = _functionCallReward;\r\n    previousVersion = _previousVersion;\r\n    allowEmergencyWithdraw = false;\r\n\r\n    for (uint256 i = 0; i < _stableCoins.length; i = i.add(1)) {\r\n      isStableCoin[_stableCoins[i]] = true;\r\n    }\r\n  }\r\n\r\n  /**\r\n   * Getters\r\n   */\r\n\r\n  /**\r\n   * @notice Returns the length of the user's investments array.\r\n   * @return length of the user's investments array\r\n   */\r\n  function investmentsCount(address _userAddr) public view returns(uint256 _count) {\r\n    return userInvestments[_userAddr].length;\r\n  }\r\n\r\n  /**\r\n   * @notice Returns an item in the user's investments array.\r\n   * @return the specified investment\r\n   */\r\n  function investments(address _userAddr, uint256 _id) public view returns(Investment _investment) {\r\n    return userInvestments[_userAddr][_id];\r\n  }\r\n\r\n  /**\r\n   * @notice Returns the phaseLengths array.\r\n   * @return the phaseLengths array\r\n   */\r\n  function getPhaseLengths() public view returns(uint256[3] _phaseLengths) {\r\n    return phaseLengths;\r\n  }\r\n\r\n  /**\r\n   * Meta functions\r\n   */\r\n\r\n  /**\r\n   * Emergency functions\r\n   */\r\n\r\n  /**\r\n   * @notice Sells token in emergency situations. Only callable by owner.\r\n   * @param _tokenAddr the address of the token to be sold\r\n   */\r\n  function emergencyDumpToken(address _tokenAddr)\r\n    public\r\n    onlyOwner\r\n    during(CyclePhase.RedeemCommission)\r\n    whenPaused\r\n  {\r\n    DetailedERC20 token = DetailedERC20(_tokenAddr);\r\n    __kyberTrade(token, token.balanceOf(this), dai);\r\n  }\r\n\r\n  /**\r\n   * @notice Return staked Kairos for a investment under emergency situations. Should be called by users.\r\n   * @param _investmentId the ID of the investment\r\n   */\r\n  function emergencyRedeemStake(uint256 _investmentId) whenPaused public {\r\n    require(allowEmergencyWithdraw);\r\n    Investment storage investment = userInvestments[msg.sender][_investmentId];\r\n    require(investment.cycleNumber == cycleNumber);\r\n    uint256 stake = investment.stake;\r\n    require(stake > 0);\r\n    delete investment.stake;\r\n    cToken.transfer(msg.sender, stake);\r\n  }\r\n\r\n  /**\r\n   * @notice Updates the current fund balance. Only callable by owner.\r\n   */\r\n  function emergencyUpdateBalance() onlyOwner whenPaused public {\r\n    totalFundsInDAI = dai.balanceOf(this);\r\n  }\r\n\r\n  /**\r\n   * @notice Changes whether emergency withdrawals are allowed. Only callable by owner.\r\n   * @param _newVal the new value\r\n   */\r\n  function setAllowEmergencyWithdraw(bool _newVal) onlyOwner whenPaused public {\r\n    allowEmergencyWithdraw = _newVal;\r\n  }\r\n\r\n  /**\r\n   * @notice Function for withdrawing all funds in times of emergency. Only callable when fund is paused and allowEmergencyWithdraw is true.\r\n   */\r\n  function emergencyWithdraw()\r\n    public\r\n    whenPaused\r\n  {\r\n    require(allowEmergencyWithdraw);\r\n\r\n    uint256 amountInDAI = sToken.balanceOf(msg.sender).mul(totalFundsInDAI).div(sToken.totalSupply());\r\n    sToken.ownerBurn(msg.sender, sToken.balanceOf(msg.sender));\r\n    totalFundsInDAI = totalFundsInDAI.sub(amountInDAI);\r\n\r\n    // Transfer\r\n    dai.transfer(msg.sender, amountInDAI);\r\n\r\n    // Emit event\r\n    Withdraw(cycleNumber, msg.sender, daiAddr, amountInDAI, amountInDAI, now);\r\n  }\r\n\r\n  /**\r\n   * Parameter setters\r\n   */\r\n\r\n  /**\r\n   * @notice Changes the address of the KyberNetwork contract used in the contract. Only callable by owner.\r\n   * @param _newAddr the new address of KyberNetwork contract\r\n   */\r\n  function changeKyberNetworkAddress(address _newAddr) public onlyOwner whenPaused {\r\n    require(_newAddr != address(0));\r\n    kyberAddr = _newAddr;\r\n    kyber = KyberNetwork(_newAddr);\r\n  }\r\n\r\n  /**\r\n   * @notice Changes the address to which the developer fees will be sent. Only callable by owner.\r\n   * @param _newAddr the new developer fee address\r\n   */\r\n  function changeDeveloperFeeAccount(address _newAddr) public onlyOwner {\r\n    require(_newAddr != address(0));\r\n    developerFeeAccount = _newAddr;\r\n  }\r\n\r\n  /**\r\n  * @notice Changes the address of the DAI token smart contract. Only callable by owner.\r\n  * @param _newAddr the new DAI smart contract address\r\n  */\r\n  function changeDAIAddress(address _newAddr) public onlyOwner whenPaused {\r\n    require(_newAddr != address(0));\r\n    daiAddr = _newAddr;\r\n    dai = DetailedERC20(_newAddr);\r\n  }\r\n\r\n  /**\r\n   * @notice Changes the proportion of fund balance sent to the developers each cycle. May only decrease. Only callable by owner.\r\n   * @param _newProp the new proportion, fixed point decimal\r\n   */\r\n  function changeDeveloperFeeProportion(uint256 _newProp) public onlyOwner {\r\n    require(_newProp < developerFeeProportion);\r\n    developerFeeProportion = _newProp;\r\n  }\r\n\r\n  /**\r\n   * @notice Changes the proportion of fund balance given to Kairo holders each cycle. Only callable by owner.\r\n   * @param _newProp the new proportion, fixed point decimal\r\n   */\r\n  function changeCommissionRate(uint256 _newProp) public onlyOwner {\r\n    commissionRate = _newProp;\r\n  }\r\n\r\n  /**\r\n   * @notice Changes the amount of Kairo rewarded to whomever calls nextPhase() the first. Only callable by owner.\r\n   * @param _newVal the new reward value in Kairo, 18 decimals\r\n   */\r\n  function changeCallReward(uint256 _newVal) public onlyOwner {\r\n    functionCallReward = _newVal;\r\n  }\r\n\r\n  /**\r\n   * @notice Changes the lengths of the phases in an investment cycle. Only callable by owner.\r\n   * @param _newVal the new set of phase lengths, in the order of DepositWithdraw, MakeDecisions, RedeemCommission, in seconds\r\n   */\r\n  function changePhaseLengths(uint256[3] _newVal) public onlyOwner {\r\n    phaseLengths = _newVal;\r\n  }\r\n\r\n  /**\r\n   * @notice Changes the owner of the ControlToken contract. Only callable by owner.\r\n   * @param  _newOwner the new owner address\r\n   */\r\n  function changeControlTokenOwner(address _newOwner) public onlyOwner whenPaused {\r\n    require(_newOwner != address(0));\r\n    cToken.transferOwnership(_newOwner);\r\n  }\r\n\r\n  /**\r\n   * @notice Adds a stable-coin to the manifest. Only callable by owner.\r\n   * @param  _stableCoin the stable-coin's address\r\n   */\r\n  function addStableCoin(address _stableCoin) public onlyOwner {\r\n    require(_stableCoin != address(0));\r\n    isStableCoin[_stableCoin] = true;\r\n  }\r\n\r\n  /**\r\n   * @notice Changes the maliciousness status of a token. Only callable by owner.\r\n   * @param _coin the token's address\r\n   * @param _status the new maliciousness status\r\n   */\r\n  function setMaliciousCoinStatus(address _coin, bool _status) public onlyOwner {\r\n    require(_coin != address(0));\r\n    isMaliciousCoin[_coin] = _status;\r\n  }\r\n\r\n\r\n  /**\r\n   * @notice Moves the fund to the next phase in the investment cycle.\r\n   */\r\n  function nextPhase()\r\n    public\r\n    whenNotPaused\r\n  {\r\n    require(now >= startTimeOfCyclePhase.add(phaseLengths[uint(cyclePhase)]));\r\n\r\n    if (cyclePhase == CyclePhase.RedeemCommission) {\r\n      // Start new cycle\r\n      cycleNumber = cycleNumber.add(1);\r\n\r\n      if (cToken.paused()) {\r\n        cToken.unpause();\r\n      }\r\n    } else if (cyclePhase == CyclePhase.MakeDecisions) {\r\n      // Burn any Kairo left in BetokenFund's account\r\n      require(cToken.burnOwnerBalance());\r\n\r\n      cToken.pause();\r\n      __distributeFundsAfterCycleEnd();\r\n    }\r\n\r\n    cyclePhase = CyclePhase(addmod(uint(cyclePhase), 1, 5));\r\n    startTimeOfCyclePhase = now;\r\n\r\n    // Reward caller\r\n    cToken.mint(msg.sender, functionCallReward);\r\n\r\n    ChangedPhase(cycleNumber, uint(cyclePhase), now);\r\n  }\r\n\r\n  /**\r\n   * DepositWithdraw phase functions\r\n   */\r\n\r\n  /**\r\n   * @notice Deposit Ether into the fund. Ether will be converted into DAI.\r\n   */\r\n  function deposit()\r\n    public\r\n    payable\r\n    during(CyclePhase.DepositWithdraw)\r\n    whenNotPaused\r\n  {\r\n    // Buy DAI with ETH\r\n    uint256 actualDAIDeposited;\r\n    uint256 actualETHDeposited;\r\n    uint256 beforeETHBalance = this.balance;\r\n    uint256 beforeDAIBalance = dai.balanceOf(this);\r\n    __kyberTrade(ETH_TOKEN_ADDRESS, msg.value, dai);\r\n    actualETHDeposited = beforeETHBalance.sub(this.balance);\r\n    uint256 leftOverETH = msg.value.sub(actualETHDeposited);\r\n    if (leftOverETH > 0) {\r\n      msg.sender.transfer(leftOverETH);\r\n    }\r\n    actualDAIDeposited = dai.balanceOf(this).sub(beforeDAIBalance);\r\n    require(actualDAIDeposited > 0);\r\n\r\n    // Register investment\r\n    if (cycleNumber == 1) {\r\n      sToken.mint(msg.sender, actualDAIDeposited);\r\n    } else {\r\n      sToken.mint(msg.sender, actualDAIDeposited.mul(sToken.totalSupply()).div(totalFundsInDAI));\r\n    }\r\n    totalFundsInDAI = totalFundsInDAI.add(actualDAIDeposited);\r\n\r\n    // Only for test version. Remove for release.\r\n    cToken.mint(msg.sender, actualDAIDeposited);\r\n\r\n    // Emit event\r\n    Deposit(cycleNumber, msg.sender, ETH_TOKEN_ADDRESS, actualETHDeposited, actualDAIDeposited, now);\r\n  }\r\n\r\n  /**\r\n   * @notice Deposit ERC20 tokens into the fund. Tokens will be converted into DAI.\r\n   * @param _tokenAddr the address of the token to be deposited\r\n   * @param _tokenAmount The amount of tokens to be deposited. May be different from actual deposited amount.\r\n   */\r\n  function depositToken(address _tokenAddr, uint256 _tokenAmount)\r\n    public\r\n    during(CyclePhase.DepositWithdraw)\r\n    isValidToken(_tokenAddr)\r\n    whenNotPaused\r\n  {\r\n    DetailedERC20 token = DetailedERC20(_tokenAddr);\r\n\r\n    require(token.transferFrom(msg.sender, this, _tokenAmount));\r\n\r\n    // Convert token into DAI\r\n    uint256 actualDAIDeposited;\r\n    uint256 actualTokenDeposited;\r\n    if (_tokenAddr == daiAddr) {\r\n      actualDAIDeposited = _tokenAmount;\r\n      actualTokenDeposited = _tokenAmount;\r\n    } else {\r\n      // Buy DAI with tokens\r\n      uint256 beforeTokenBalance = token.balanceOf(this);\r\n      uint256 beforeDAIBalance = dai.balanceOf(this);\r\n      __kyberTrade(token, _tokenAmount, dai);\r\n      actualTokenDeposited = beforeTokenBalance.sub(token.balanceOf(this));\r\n      uint256 leftOverTokens = _tokenAmount.sub(actualTokenDeposited);\r\n      if (leftOverTokens > 0) {\r\n        require(token.transfer(msg.sender, leftOverTokens));\r\n      }\r\n      actualDAIDeposited = dai.balanceOf(this).sub(beforeDAIBalance);\r\n      require(actualDAIDeposited > 0);\r\n    }\r\n\r\n    // Register investment\r\n    if (cycleNumber == 1) {\r\n      sToken.mint(msg.sender, actualDAIDeposited);\r\n    } else {\r\n      sToken.mint(msg.sender, actualDAIDeposited.mul(sToken.totalSupply()).div(totalFundsInDAI));\r\n    }\r\n    totalFundsInDAI = totalFundsInDAI.add(actualDAIDeposited);\r\n\r\n    // Only for test version. Remove for release.\r\n    cToken.mint(msg.sender, actualDAIDeposited);\r\n\r\n    // Emit event\r\n    Deposit(cycleNumber, msg.sender, _tokenAddr, actualTokenDeposited, actualDAIDeposited, now);\r\n  }\r\n\r\n  /**\r\n   * @notice Withdraws Ether by burning Shares.\r\n   * @param _amountInDAI Amount of funds to be withdrawn expressed in DAI. Fixed-point decimal. May be different from actual amount.\r\n   */\r\n  function withdraw(uint256 _amountInDAI)\r\n    public\r\n    during(CyclePhase.DepositWithdraw)\r\n    whenNotPaused\r\n  {\r\n    // Buy ETH\r\n    uint256 actualETHWithdrawn;\r\n    uint256 actualDAIWithdrawn;\r\n    uint256 beforeETHBalance = this.balance;\r\n    uint256 beforeDaiBalance = dai.balanceOf(this);\r\n    __kyberTrade(dai, _amountInDAI, ETH_TOKEN_ADDRESS);\r\n    actualETHWithdrawn = this.balance.sub(beforeETHBalance);\r\n    actualDAIWithdrawn = beforeDaiBalance.sub(dai.balanceOf(this));\r\n    require(actualDAIWithdrawn > 0);\r\n\r\n    // Burn shares\r\n    sToken.ownerBurn(msg.sender, actualDAIWithdrawn.mul(sToken.totalSupply()).div(totalFundsInDAI));\r\n    totalFundsInDAI = totalFundsInDAI.sub(actualDAIWithdrawn);\r\n\r\n    // Transfer Ether to user\r\n    msg.sender.transfer(actualETHWithdrawn);\r\n\r\n    // Emit event\r\n    Withdraw(cycleNumber, msg.sender, ETH_TOKEN_ADDRESS, actualETHWithdrawn, actualDAIWithdrawn, now);\r\n  }\r\n\r\n  /**\r\n   * @notice Withdraws funds by burning Shares, and converts the funds into the specified token using Kyber Network.\r\n   * @param _tokenAddr the address of the token to be withdrawn into the caller's account\r\n   * @param _amountInDAI The amount of funds to be withdrawn expressed in DAI. Fixed-point decimal. May be different from actual amount.\r\n   */\r\n  function withdrawToken(address _tokenAddr, uint256 _amountInDAI)\r\n    public\r\n    during(CyclePhase.DepositWithdraw)\r\n    isValidToken(_tokenAddr)\r\n    whenNotPaused\r\n  {\r\n    require(cycleNumber != 1);\r\n    DetailedERC20 token = DetailedERC20(_tokenAddr);\r\n\r\n    // Convert DAI into desired tokens\r\n    uint256 actualTokenWithdrawn;\r\n    uint256 actualDAIWithdrawn;\r\n    if (_tokenAddr == daiAddr) {\r\n      actualDAIWithdrawn = _amountInDAI;\r\n      actualTokenWithdrawn = _amountInDAI;\r\n    } else {\r\n      // Buy desired tokens\r\n      uint256 beforeTokenBalance = token.balanceOf(this);\r\n      uint256 beforeDaiBalance = dai.balanceOf(this);\r\n      __kyberTrade(dai, _amountInDAI, token);\r\n      actualTokenWithdrawn = token.balanceOf(this).sub(beforeTokenBalance);\r\n      actualDAIWithdrawn = beforeDaiBalance.sub(dai.balanceOf(this));\r\n      require(actualDAIWithdrawn > 0);\r\n    }\r\n\r\n    // Burn Shares\r\n    sToken.ownerBurn(msg.sender, actualDAIWithdrawn.mul(sToken.totalSupply()).div(totalFundsInDAI));\r\n    totalFundsInDAI = totalFundsInDAI.sub(actualDAIWithdrawn);\r\n\r\n    // Transfer tokens to user\r\n    token.transfer(msg.sender, actualTokenWithdrawn);\r\n\r\n    // Emit event\r\n    Withdraw(cycleNumber, msg.sender, _tokenAddr, actualTokenWithdrawn, actualDAIWithdrawn, now);\r\n  }\r\n\r\n  /**\r\n   * MakeDecisions phase functions\r\n   */\r\n\r\n  /**\r\n   * @notice Creates a new investment investment for an ERC20 token.\r\n   * @param _tokenAddress address of the ERC20 token contract\r\n   * @param _stake amount of Kairos to be staked in support of the investment\r\n   */\r\n  function createInvestment(\r\n    address _tokenAddress,\r\n    uint256 _stake\r\n  )\r\n    public\r\n    during(CyclePhase.MakeDecisions)\r\n    isValidToken(_tokenAddress)\r\n    whenNotPaused\r\n  {\r\n    DetailedERC20 token = DetailedERC20(_tokenAddress);\r\n    require(!isStableCoin[_tokenAddress]);\r\n\r\n    // Collect stake\r\n    require(cToken.ownerCollectFrom(msg.sender, _stake));\r\n\r\n    // Add investment to list\r\n    userInvestments[msg.sender].push(Investment({\r\n      tokenAddress: _tokenAddress,\r\n      cycleNumber: cycleNumber,\r\n      stake: _stake,\r\n      tokenAmount: 0,\r\n      buyPrice: 0,\r\n      sellPrice: 0,\r\n      isSold: false\r\n    }));\r\n\r\n    // Invest\r\n    uint256 beforeTokenAmount = token.balanceOf(this);\r\n    uint256 beforeDAIBalance = dai.balanceOf(this);\r\n    uint256 investmentId = investmentsCount(msg.sender).sub(1);\r\n    __handleInvestment(investmentId, true);\r\n    userInvestments[msg.sender][investmentId].tokenAmount = token.balanceOf(this).sub(beforeTokenAmount);\r\n\r\n    // Emit event\r\n    CreatedInvestment(cycleNumber, msg.sender, investmentsCount(msg.sender).sub(1), _tokenAddress, _stake, userInvestments[msg.sender][investmentId].buyPrice, beforeDAIBalance.sub(dai.balanceOf(this)));\r\n  }\r\n\r\n  /**\r\n   * @notice Called by user to sell the assets an investment invested in. Returns the staked Kairo plus rewards/penalties.\r\n   * @param _investmentId the ID of the investment\r\n   */\r\n  function sellInvestmentAsset(uint256 _investmentId)\r\n    public\r\n    during(CyclePhase.MakeDecisions)\r\n    whenNotPaused\r\n  {\r\n    Investment storage investment = userInvestments[msg.sender][_investmentId];\r\n    require(investment.buyPrice > 0);\r\n    require(investment.cycleNumber == cycleNumber);\r\n    require(!investment.isSold);\r\n\r\n    // Sell asset\r\n    uint256 beforeDAIBalance = dai.balanceOf(this);\r\n    __handleInvestment(_investmentId, false);\r\n    investment.isSold = true;\r\n\r\n    // Return Kairo\r\n    uint256 multiplier = investment.sellPrice.mul(PRECISION).div(investment.buyPrice);\r\n    uint256 receiveKairoAmount = investment.stake.mul(multiplier).div(PRECISION);\r\n    if (receiveKairoAmount > investment.stake) {\r\n      cToken.transfer(msg.sender, investment.stake);\r\n      cToken.mint(msg.sender, receiveKairoAmount.sub(investment.stake));\r\n    } else {\r\n      cToken.transfer(msg.sender, receiveKairoAmount);\r\n      require(cToken.burnOwnerTokens(investment.stake.sub(receiveKairoAmount)));\r\n    }\r\n\r\n    // Emit event\r\n    SoldInvestment(cycleNumber, msg.sender, _investmentId, receiveKairoAmount, investment.sellPrice, dai.balanceOf(this).sub(beforeDAIBalance));\r\n  }\r\n\r\n  /**\r\n   * RedeemCommission phase functions\r\n   */\r\n\r\n  /**\r\n   * @notice Redeems commission.\r\n   */\r\n  function redeemCommission()\r\n    public\r\n    during(CyclePhase.RedeemCommission)\r\n    whenNotPaused\r\n  {\r\n    require(lastCommissionRedemption[msg.sender] < cycleNumber);\r\n    lastCommissionRedemption[msg.sender] = cycleNumber;\r\n    uint256 commission = totalCommission.mul(cToken.balanceOf(msg.sender)).div(cToken.totalSupply());\r\n    dai.transfer(msg.sender, commission);\r\n\r\n    delete userInvestments[msg.sender];\r\n\r\n    CommissionPaid(cycleNumber, msg.sender, commission);\r\n  }\r\n\r\n  /**\r\n   * @notice Sells tokens left over due to manager not selling or KyberNetwork not having enough demand. Callable by anyone.\r\n   * @param _tokenAddr address of the token to be sold\r\n   */\r\n  function sellLeftoverToken(address _tokenAddr)\r\n    public\r\n    during(CyclePhase.RedeemCommission)\r\n    isValidToken(_tokenAddr)\r\n    whenNotPaused\r\n  {\r\n    uint256 beforeBalance = dai.balanceOf(this);\r\n    DetailedERC20 token = DetailedERC20(_tokenAddr);\r\n    require(_tokenAddr != daiAddr);\r\n    __kyberTrade(token, token.balanceOf(this), dai);\r\n    totalFundsInDAI = totalFundsInDAI.add(dai.balanceOf(this).sub(beforeBalance));\r\n  }\r\n\r\n  /**\r\n   * Internal use functions\r\n   */\r\n\r\n  /**\r\n   * @notice Update fund statistics, and pay developer fees.\r\n   */\r\n  function __distributeFundsAfterCycleEnd() internal {\r\n    uint256 profit = 0;\r\n    if (dai.balanceOf(this) > totalFundsInDAI) {\r\n      profit = dai.balanceOf(this).sub(totalFundsInDAI);\r\n    }\r\n    totalCommission = commissionRate.mul(profit).div(PRECISION);\r\n    uint256 devFee = developerFeeProportion.mul(dai.balanceOf(this)).div(PRECISION);\r\n    uint256 newTotalFunds = dai.balanceOf(this).sub(totalCommission).sub(devFee);\r\n\r\n    // Update values\r\n    ROI(cycleNumber, totalFundsInDAI, newTotalFunds);\r\n    totalFundsInDAI = newTotalFunds;\r\n\r\n    // Transfer fees\r\n    dai.transfer(developerFeeAccount, devFee);\r\n\r\n    // Emit event\r\n    TotalCommissionPaid(cycleNumber, totalCommission);\r\n  }\r\n\r\n  function __handleInvestment(uint256 _investmentId, bool _buy) internal {\r\n    Investment storage investment = userInvestments[msg.sender][_investmentId];\r\n    uint256 srcAmount;\r\n    if (_buy) {\r\n      srcAmount = totalFundsInDAI.mul(investment.stake).div(cToken.totalSupply());\r\n    } else {\r\n      srcAmount = investment.tokenAmount;\r\n    }\r\n    DetailedERC20 token = DetailedERC20(investment.tokenAddress);\r\n    if (_buy) {\r\n      investment.buyPrice = __kyberTrade(dai, srcAmount, token);\r\n    } else {\r\n      investment.sellPrice = invert(__kyberTrade(token, srcAmount, dai));\r\n    }\r\n  }\r\n\r\n  /**\r\n   * @notice Wrapper function for doing token conversion on Kyber Network\r\n   * @param _srcToken the token to convert from\r\n   * @param _srcAmount the amount of tokens to be converted\r\n   * @param _destToken the destination token\r\n   * @return _destPriceInSrc the price of the destination token, in terms of source tokens\r\n   */\r\n  function __kyberTrade(DetailedERC20 _srcToken, uint256 _srcAmount, DetailedERC20 _destToken) internal returns(uint256 _destPriceInSrc) {\r\n    uint256 actualDestAmount;\r\n    uint256 beforeSrcBalance;\r\n    uint256 msgValue;\r\n\r\n    if (_srcToken != ETH_TOKEN_ADDRESS) {\r\n      beforeSrcBalance = _srcToken.balanceOf(this);\r\n      msgValue = 0;\r\n      _srcToken.approve(kyberAddr, 0);\r\n      _srcToken.approve(kyberAddr, _srcAmount);\r\n    } else {\r\n      beforeSrcBalance = this.balance;\r\n      msgValue = _srcAmount;\r\n    }\r\n    actualDestAmount = kyber.trade.value(msgValue)(\r\n      _srcToken,\r\n      _srcAmount,\r\n      _destToken,\r\n      this,\r\n      MAX_QTY,\r\n      1,\r\n      0\r\n    );\r\n    require(actualDestAmount > 0);\r\n    if (_srcToken != ETH_TOKEN_ADDRESS) {\r\n      _srcToken.approve(kyberAddr, 0);\r\n    }\r\n\r\n    _destPriceInSrc = beforeSrcBalance.sub(_srcToken.balanceOf(this)).mul(PRECISION).mul(10**getDecimals(_destToken)).div(actualDestAmount.mul(10**getDecimals(_srcToken)));\r\n  }\r\n\r\n  function() public payable {\r\n    if (msg.sender != kyberAddr) {\r\n      revert();\r\n    }\r\n  }\r\n}",
  "sourcePath": "D:\\msi-cn\\Documents\\GitHub\\betoken\\eth\\contracts\\BetokenFund.sol",
  "compiler": {
    "name": "solc",
    "version": "0.4.19+commit.c4cbbb05.Emscripten.clang"
  },
  "schemaVersion": "2.0.0",
  "updatedAt": "2018-04-09T06:04:40.403Z"
}