{
  "contractName": "BetokenFund",
  "abi": [
    {
      "constant": true,
      "inputs": [
        {
          "name": "",
          "type": "uint256"
        }
      ],
      "name": "proposals",
      "outputs": [
        {
          "name": "tokenAddress",
          "type": "address"
        },
        {
          "name": "buyPriceInWeis",
          "type": "uint256"
        },
        {
          "name": "sellPriceInWeis",
          "type": "uint256"
        },
        {
          "name": "numFor",
          "type": "uint256"
        },
        {
          "name": "numAgainst",
          "type": "uint256"
        },
        {
          "name": "isSold",
          "type": "bool"
        }
      ],
      "payable": false,
      "stateMutability": "view",
      "type": "function"
    },
    {
      "constant": true,
      "inputs": [],
      "name": "creator",
      "outputs": [
        {
          "name": "",
          "type": "address"
        }
      ],
      "payable": false,
      "stateMutability": "view",
      "type": "function"
    },
    {
      "constant": true,
      "inputs": [
        {
          "name": "",
          "type": "uint256"
        },
        {
          "name": "",
          "type": "address"
        }
      ],
      "name": "forStakedControlOfProposalOfUser",
      "outputs": [
        {
          "name": "",
          "type": "uint256"
        }
      ],
      "payable": false,
      "stateMutability": "view",
      "type": "function"
    },
    {
      "constant": true,
      "inputs": [
        {
          "name": "",
          "type": "address"
        }
      ],
      "name": "userStakedProposalCount",
      "outputs": [
        {
          "name": "",
          "type": "uint256"
        }
      ],
      "payable": false,
      "stateMutability": "view",
      "type": "function"
    },
    {
      "constant": true,
      "inputs": [],
      "name": "initialized",
      "outputs": [
        {
          "name": "",
          "type": "bool"
        }
      ],
      "payable": false,
      "stateMutability": "view",
      "type": "function"
    },
    {
      "constant": true,
      "inputs": [],
      "name": "allowEmergencyWithdraw",
      "outputs": [
        {
          "name": "",
          "type": "bool"
        }
      ],
      "payable": false,
      "stateMutability": "view",
      "type": "function"
    },
    {
      "constant": true,
      "inputs": [],
      "name": "developerFeeAccount",
      "outputs": [
        {
          "name": "",
          "type": "address"
        }
      ],
      "payable": false,
      "stateMutability": "view",
      "type": "function"
    },
    {
      "constant": true,
      "inputs": [],
      "name": "minStakeProportion",
      "outputs": [
        {
          "name": "",
          "type": "uint256"
        }
      ],
      "payable": false,
      "stateMutability": "view",
      "type": "function"
    },
    {
      "constant": true,
      "inputs": [],
      "name": "startTimeOfCyclePhase",
      "outputs": [
        {
          "name": "",
          "type": "uint256"
        }
      ],
      "payable": false,
      "stateMutability": "view",
      "type": "function"
    },
    {
      "constant": true,
      "inputs": [],
      "name": "timeOfChangeMaking",
      "outputs": [
        {
          "name": "",
          "type": "uint256"
        }
      ],
      "payable": false,
      "stateMutability": "view",
      "type": "function"
    },
    {
      "constant": true,
      "inputs": [
        {
          "name": "",
          "type": "uint256"
        },
        {
          "name": "",
          "type": "address"
        }
      ],
      "name": "againstStakedControlOfProposalOfUser",
      "outputs": [
        {
          "name": "",
          "type": "uint256"
        }
      ],
      "payable": false,
      "stateMutability": "view",
      "type": "function"
    },
    {
      "constant": true,
      "inputs": [],
      "name": "maxProposals",
      "outputs": [
        {
          "name": "",
          "type": "uint256"
        }
      ],
      "payable": false,
      "stateMutability": "view",
      "type": "function"
    },
    {
      "constant": true,
      "inputs": [],
      "name": "cycleNumber",
      "outputs": [
        {
          "name": "",
          "type": "uint256"
        }
      ],
      "payable": false,
      "stateMutability": "view",
      "type": "function"
    },
    {
      "constant": true,
      "inputs": [
        {
          "name": "",
          "type": "uint256"
        }
      ],
      "name": "participants",
      "outputs": [
        {
          "name": "",
          "type": "address"
        }
      ],
      "payable": false,
      "stateMutability": "view",
      "type": "function"
    },
    {
      "constant": false,
      "inputs": [],
      "name": "unpause",
      "outputs": [],
      "payable": false,
      "stateMutability": "nonpayable",
      "type": "function"
    },
    {
      "constant": true,
      "inputs": [],
      "name": "numProposals",
      "outputs": [
        {
          "name": "",
          "type": "uint256"
        }
      ],
      "payable": false,
      "stateMutability": "view",
      "type": "function"
    },
    {
      "constant": true,
      "inputs": [
        {
          "name": "",
          "type": "address"
        }
      ],
      "name": "isTokenAlreadyProposed",
      "outputs": [
        {
          "name": "",
          "type": "bool"
        }
      ],
      "payable": false,
      "stateMutability": "view",
      "type": "function"
    },
    {
      "constant": true,
      "inputs": [],
      "name": "timeOfWaiting",
      "outputs": [
        {
          "name": "",
          "type": "uint256"
        }
      ],
      "payable": false,
      "stateMutability": "view",
      "type": "function"
    },
    {
      "constant": true,
      "inputs": [],
      "name": "paused",
      "outputs": [
        {
          "name": "",
          "type": "bool"
        }
      ],
      "payable": false,
      "stateMutability": "view",
      "type": "function"
    },
    {
      "constant": true,
      "inputs": [],
      "name": "commissionRate",
      "outputs": [
        {
          "name": "",
          "type": "uint256"
        }
      ],
      "payable": false,
      "stateMutability": "view",
      "type": "function"
    },
    {
      "constant": true,
      "inputs": [],
      "name": "functionCallReward",
      "outputs": [
        {
          "name": "",
          "type": "uint256"
        }
      ],
      "payable": false,
      "stateMutability": "view",
      "type": "function"
    },
    {
      "constant": true,
      "inputs": [
        {
          "name": "",
          "type": "address"
        }
      ],
      "name": "balanceOf",
      "outputs": [
        {
          "name": "",
          "type": "uint256"
        }
      ],
      "payable": false,
      "stateMutability": "view",
      "type": "function"
    },
    {
      "constant": true,
      "inputs": [],
      "name": "totalFundsInWeis",
      "outputs": [
        {
          "name": "",
          "type": "uint256"
        }
      ],
      "payable": false,
      "stateMutability": "view",
      "type": "function"
    },
    {
      "constant": true,
      "inputs": [],
      "name": "maxProposalsPerMember",
      "outputs": [
        {
          "name": "",
          "type": "uint256"
        }
      ],
      "payable": false,
      "stateMutability": "view",
      "type": "function"
    },
    {
      "constant": false,
      "inputs": [],
      "name": "pause",
      "outputs": [],
      "payable": false,
      "stateMutability": "nonpayable",
      "type": "function"
    },
    {
      "constant": true,
      "inputs": [],
      "name": "owner",
      "outputs": [
        {
          "name": "",
          "type": "address"
        }
      ],
      "payable": false,
      "stateMutability": "view",
      "type": "function"
    },
    {
      "constant": true,
      "inputs": [
        {
          "name": "",
          "type": "address"
        }
      ],
      "name": "isParticipant",
      "outputs": [
        {
          "name": "",
          "type": "bool"
        }
      ],
      "payable": false,
      "stateMutability": "view",
      "type": "function"
    },
    {
      "constant": true,
      "inputs": [
        {
          "name": "",
          "type": "uint256"
        }
      ],
      "name": "againstStakedControlOfProposal",
      "outputs": [
        {
          "name": "",
          "type": "uint256"
        }
      ],
      "payable": false,
      "stateMutability": "view",
      "type": "function"
    },
    {
      "constant": true,
      "inputs": [],
      "name": "kyberAddr",
      "outputs": [
        {
          "name": "",
          "type": "address"
        }
      ],
      "payable": false,
      "stateMutability": "view",
      "type": "function"
    },
    {
      "constant": true,
      "inputs": [],
      "name": "PRECISION",
      "outputs": [
        {
          "name": "",
          "type": "uint256"
        }
      ],
      "payable": false,
      "stateMutability": "view",
      "type": "function"
    },
    {
      "constant": true,
      "inputs": [
        {
          "name": "",
          "type": "uint256"
        }
      ],
      "name": "forStakedControlOfProposal",
      "outputs": [
        {
          "name": "",
          "type": "uint256"
        }
      ],
      "payable": false,
      "stateMutability": "view",
      "type": "function"
    },
    {
      "constant": true,
      "inputs": [],
      "name": "developerFeeProportion",
      "outputs": [
        {
          "name": "",
          "type": "uint256"
        }
      ],
      "payable": false,
      "stateMutability": "view",
      "type": "function"
    },
    {
      "constant": true,
      "inputs": [],
      "name": "timeOfProposalMaking",
      "outputs": [
        {
          "name": "",
          "type": "uint256"
        }
      ],
      "payable": false,
      "stateMutability": "view",
      "type": "function"
    },
    {
      "constant": true,
      "inputs": [],
      "name": "controlTokenAddr",
      "outputs": [
        {
          "name": "",
          "type": "address"
        }
      ],
      "payable": false,
      "stateMutability": "view",
      "type": "function"
    },
    {
      "constant": true,
      "inputs": [
        {
          "name": "",
          "type": "address"
        }
      ],
      "name": "createdProposalCount",
      "outputs": [
        {
          "name": "",
          "type": "uint256"
        }
      ],
      "payable": false,
      "stateMutability": "view",
      "type": "function"
    },
    {
      "constant": false,
      "inputs": [
        {
          "name": "newOwner",
          "type": "address"
        }
      ],
      "name": "transferOwnership",
      "outputs": [],
      "payable": false,
      "stateMutability": "nonpayable",
      "type": "function"
    },
    {
      "constant": true,
      "inputs": [],
      "name": "cyclePhase",
      "outputs": [
        {
          "name": "",
          "type": "uint8"
        }
      ],
      "payable": false,
      "stateMutability": "view",
      "type": "function"
    },
    {
      "constant": true,
      "inputs": [],
      "name": "cycleTotalForStake",
      "outputs": [
        {
          "name": "",
          "type": "uint256"
        }
      ],
      "payable": false,
      "stateMutability": "view",
      "type": "function"
    },
    {
      "inputs": [
        {
          "name": "_kyberAddr",
          "type": "address"
        },
        {
          "name": "_developerFeeAccount",
          "type": "address"
        },
        {
          "name": "_timeOfChangeMaking",
          "type": "uint256"
        },
        {
          "name": "_timeOfProposalMaking",
          "type": "uint256"
        },
        {
          "name": "_timeOfWaiting",
          "type": "uint256"
        },
        {
          "name": "_minStakeProportion",
          "type": "uint256"
        },
        {
          "name": "_maxProposals",
          "type": "uint256"
        },
        {
          "name": "_commissionRate",
          "type": "uint256"
        },
        {
          "name": "_developerFeeProportion",
          "type": "uint256"
        },
        {
          "name": "_maxProposalsPerMember",
          "type": "uint256"
        },
        {
          "name": "_cycleNumber",
          "type": "uint256"
        },
        {
          "name": "_functionCallReward",
          "type": "uint256"
        }
      ],
      "payable": false,
      "stateMutability": "nonpayable",
      "type": "constructor"
    },
    {
      "payable": true,
      "stateMutability": "payable",
      "type": "fallback"
    },
    {
      "anonymous": false,
      "inputs": [
        {
          "indexed": false,
          "name": "_cycleNumber",
          "type": "uint256"
        },
        {
          "indexed": false,
          "name": "_timestamp",
          "type": "uint256"
        }
      ],
      "name": "CycleStarted",
      "type": "event"
    },
    {
      "anonymous": false,
      "inputs": [
        {
          "indexed": false,
          "name": "_cycleNumber",
          "type": "uint256"
        },
        {
          "indexed": false,
          "name": "_sender",
          "type": "address"
        },
        {
          "indexed": false,
          "name": "_amountInWeis",
          "type": "uint256"
        },
        {
          "indexed": false,
          "name": "_timestamp",
          "type": "uint256"
        }
      ],
      "name": "Deposit",
      "type": "event"
    },
    {
      "anonymous": false,
      "inputs": [
        {
          "indexed": false,
          "name": "_cycleNumber",
          "type": "uint256"
        },
        {
          "indexed": false,
          "name": "_sender",
          "type": "address"
        },
        {
          "indexed": false,
          "name": "_amountInWeis",
          "type": "uint256"
        },
        {
          "indexed": false,
          "name": "_timestamp",
          "type": "uint256"
        }
      ],
      "name": "Withdraw",
      "type": "event"
    },
    {
      "anonymous": false,
      "inputs": [
        {
          "indexed": false,
          "name": "_cycleNumber",
          "type": "uint256"
        },
        {
          "indexed": false,
          "name": "_timestamp",
          "type": "uint256"
        }
      ],
      "name": "ChangeMakingTimeEnded",
      "type": "event"
    },
    {
      "anonymous": false,
      "inputs": [
        {
          "indexed": false,
          "name": "_cycleNumber",
          "type": "uint256"
        },
        {
          "indexed": false,
          "name": "_id",
          "type": "uint256"
        },
        {
          "indexed": false,
          "name": "_tokenAddress",
          "type": "address"
        },
        {
          "indexed": false,
          "name": "_stakeInWeis",
          "type": "uint256"
        }
      ],
      "name": "NewProposal",
      "type": "event"
    },
    {
      "anonymous": false,
      "inputs": [
        {
          "indexed": false,
          "name": "_cycleNumber",
          "type": "uint256"
        },
        {
          "indexed": false,
          "name": "_id",
          "type": "uint256"
        },
        {
          "indexed": false,
          "name": "_stakeInWeis",
          "type": "uint256"
        },
        {
          "indexed": false,
          "name": "_support",
          "type": "bool"
        }
      ],
      "name": "StakedProposal",
      "type": "event"
    },
    {
      "anonymous": false,
      "inputs": [
        {
          "indexed": false,
          "name": "_cycleNumber",
          "type": "uint256"
        },
        {
          "indexed": false,
          "name": "_timestamp",
          "type": "uint256"
        }
      ],
      "name": "ProposalMakingTimeEnded",
      "type": "event"
    },
    {
      "anonymous": false,
      "inputs": [
        {
          "indexed": false,
          "name": "_cycleNumber",
          "type": "uint256"
        },
        {
          "indexed": false,
          "name": "_timestamp",
          "type": "uint256"
        }
      ],
      "name": "WaitingPhaseEnded",
      "type": "event"
    },
    {
      "anonymous": false,
      "inputs": [
        {
          "indexed": false,
          "name": "_cycleNumber",
          "type": "uint256"
        },
        {
          "indexed": false,
          "name": "_proposalId",
          "type": "uint256"
        }
      ],
      "name": "AssetSold",
      "type": "event"
    },
    {
      "anonymous": false,
      "inputs": [
        {
          "indexed": false,
          "name": "_cycleNumber",
          "type": "uint256"
        },
        {
          "indexed": false,
          "name": "_timestamp",
          "type": "uint256"
        }
      ],
      "name": "SellingPhaseEnded",
      "type": "event"
    },
    {
      "anonymous": false,
      "inputs": [
        {
          "indexed": false,
          "name": "_cycleNumber",
          "type": "uint256"
        },
        {
          "indexed": false,
          "name": "_beforeTotalFunds",
          "type": "uint256"
        },
        {
          "indexed": false,
          "name": "_afterTotalFunds",
          "type": "uint256"
        }
      ],
      "name": "ROI",
      "type": "event"
    },
    {
      "anonymous": false,
      "inputs": [
        {
          "indexed": false,
          "name": "_cycleNumber",
          "type": "uint256"
        },
        {
          "indexed": false,
          "name": "_totalCommissionInWeis",
          "type": "uint256"
        }
      ],
      "name": "CommissionPaid",
      "type": "event"
    },
    {
      "anonymous": false,
      "inputs": [
        {
          "indexed": false,
          "name": "_cycleNumber",
          "type": "uint256"
        },
        {
          "indexed": false,
          "name": "_timestamp",
          "type": "uint256"
        }
      ],
      "name": "CycleFinalized",
      "type": "event"
    },
    {
      "anonymous": false,
      "inputs": [],
      "name": "Pause",
      "type": "event"
    },
    {
      "anonymous": false,
      "inputs": [],
      "name": "Unpause",
      "type": "event"
    },
    {
      "anonymous": false,
      "inputs": [
        {
          "indexed": true,
          "name": "previousOwner",
          "type": "address"
        },
        {
          "indexed": true,
          "name": "newOwner",
          "type": "address"
        }
      ],
      "name": "OwnershipTransferred",
      "type": "event"
    },
    {
      "constant": false,
      "inputs": [
        {
          "name": "_participants",
          "type": "address[]"
        }
      ],
      "name": "initializeParticipants",
      "outputs": [],
      "payable": false,
      "stateMutability": "nonpayable",
      "type": "function"
    },
    {
      "constant": false,
      "inputs": [
        {
          "name": "_cTokenAddr",
          "type": "address"
        }
      ],
      "name": "initializeSubcontracts",
      "outputs": [],
      "payable": false,
      "stateMutability": "nonpayable",
      "type": "function"
    },
    {
      "constant": true,
      "inputs": [],
      "name": "participantsCount",
      "outputs": [
        {
          "name": "_count",
          "type": "uint256"
        }
      ],
      "payable": false,
      "stateMutability": "view",
      "type": "function"
    },
    {
      "constant": true,
      "inputs": [],
      "name": "proposalsCount",
      "outputs": [
        {
          "name": "_count",
          "type": "uint256"
        }
      ],
      "payable": false,
      "stateMutability": "view",
      "type": "function"
    },
    {
      "constant": false,
      "inputs": [],
      "name": "emergencyDumpTokens",
      "outputs": [],
      "payable": false,
      "stateMutability": "nonpayable",
      "type": "function"
    },
    {
      "constant": false,
      "inputs": [],
      "name": "emergencyReturnAllStakes",
      "outputs": [],
      "payable": false,
      "stateMutability": "nonpayable",
      "type": "function"
    },
    {
      "constant": false,
      "inputs": [],
      "name": "emergencyRedistBalances",
      "outputs": [],
      "payable": false,
      "stateMutability": "nonpayable",
      "type": "function"
    },
    {
      "constant": false,
      "inputs": [
        {
          "name": "_val",
          "type": "bool"
        }
      ],
      "name": "setAllowEmergencyWithdraw",
      "outputs": [],
      "payable": false,
      "stateMutability": "nonpayable",
      "type": "function"
    },
    {
      "constant": false,
      "inputs": [],
      "name": "emergencyWithdraw",
      "outputs": [],
      "payable": false,
      "stateMutability": "nonpayable",
      "type": "function"
    },
    {
      "constant": false,
      "inputs": [
        {
          "name": "_newAddr",
          "type": "address"
        }
      ],
      "name": "changeKyberNetworkAddress",
      "outputs": [],
      "payable": false,
      "stateMutability": "nonpayable",
      "type": "function"
    },
    {
      "constant": false,
      "inputs": [
        {
          "name": "_newAddr",
          "type": "address"
        }
      ],
      "name": "changeDeveloperFeeAccount",
      "outputs": [],
      "payable": false,
      "stateMutability": "nonpayable",
      "type": "function"
    },
    {
      "constant": false,
      "inputs": [
        {
          "name": "_newProp",
          "type": "uint256"
        }
      ],
      "name": "changeDeveloperFeeProportion",
      "outputs": [],
      "payable": false,
      "stateMutability": "nonpayable",
      "type": "function"
    },
    {
      "constant": false,
      "inputs": [
        {
          "name": "_newProp",
          "type": "uint256"
        }
      ],
      "name": "changeCommissionRate",
      "outputs": [],
      "payable": false,
      "stateMutability": "nonpayable",
      "type": "function"
    },
    {
      "constant": false,
      "inputs": [
        {
          "name": "_newOwner",
          "type": "address"
        }
      ],
      "name": "changeControlTokenOwner",
      "outputs": [],
      "payable": false,
      "stateMutability": "nonpayable",
      "type": "function"
    },
    {
      "constant": false,
      "inputs": [],
      "name": "startNewCycle",
      "outputs": [],
      "payable": false,
      "stateMutability": "nonpayable",
      "type": "function"
    },
    {
      "constant": false,
      "inputs": [],
      "name": "deposit",
      "outputs": [],
      "payable": true,
      "stateMutability": "payable",
      "type": "function"
    },
    {
      "constant": false,
      "inputs": [
        {
          "name": "_amountInWeis",
          "type": "uint256"
        }
      ],
      "name": "withdraw",
      "outputs": [],
      "payable": false,
      "stateMutability": "nonpayable",
      "type": "function"
    },
    {
      "constant": false,
      "inputs": [],
      "name": "endChangeMakingTime",
      "outputs": [],
      "payable": false,
      "stateMutability": "nonpayable",
      "type": "function"
    },
    {
      "constant": false,
      "inputs": [
        {
          "name": "_tokenAddress",
          "type": "address"
        },
        {
          "name": "_stakeInWeis",
          "type": "uint256"
        }
      ],
      "name": "createProposal",
      "outputs": [],
      "payable": false,
      "stateMutability": "nonpayable",
      "type": "function"
    },
    {
      "constant": false,
      "inputs": [
        {
          "name": "_proposalId",
          "type": "uint256"
        },
        {
          "name": "_stakeInWeis",
          "type": "uint256"
        },
        {
          "name": "_support",
          "type": "bool"
        }
      ],
      "name": "stakeProposal",
      "outputs": [],
      "payable": false,
      "stateMutability": "nonpayable",
      "type": "function"
    },
    {
      "constant": false,
      "inputs": [
        {
          "name": "_proposalId",
          "type": "uint256"
        }
      ],
      "name": "cancelProposalStake",
      "outputs": [],
      "payable": false,
      "stateMutability": "nonpayable",
      "type": "function"
    },
    {
      "constant": false,
      "inputs": [],
      "name": "endProposalMakingTime",
      "outputs": [],
      "payable": false,
      "stateMutability": "nonpayable",
      "type": "function"
    },
    {
      "constant": false,
      "inputs": [
        {
          "name": "_proposalId",
          "type": "uint256"
        }
      ],
      "name": "executeProposal",
      "outputs": [],
      "payable": false,
      "stateMutability": "nonpayable",
      "type": "function"
    },
    {
      "constant": false,
      "inputs": [],
      "name": "endWaitingPhase",
      "outputs": [],
      "payable": false,
      "stateMutability": "nonpayable",
      "type": "function"
    },
    {
      "constant": false,
      "inputs": [
        {
          "name": "_proposalId",
          "type": "uint256"
        }
      ],
      "name": "sellProposalAsset",
      "outputs": [],
      "payable": false,
      "stateMutability": "nonpayable",
      "type": "function"
    },
    {
      "constant": false,
      "inputs": [],
      "name": "finalizeCycle",
      "outputs": [],
      "payable": false,
      "stateMutability": "nonpayable",
      "type": "function"
    },
    {
      "constant": true,
      "inputs": [],
      "name": "proposalsAreSold",
      "outputs": [
        {
          "name": "",
          "type": "bool"
        }
      ],
      "payable": false,
      "stateMutability": "view",
      "type": "function"
    },
    {
      "constant": false,
      "inputs": [
        {
          "name": "_receipient",
          "type": "address"
        }
      ],
      "name": "__addControlTokenReceipientAsParticipant",
      "outputs": [],
      "payable": false,
      "stateMutability": "nonpayable",
      "type": "function"
    }
  ],
  "bytecode": "0x60606040526000805460a060020a60ff021916905534156200002057600080fd5b6040516101808062003fd183398101604052808051919060200180519190602001805191906020018051919060200180519190602001805191906020018051919060200180519190602001805191906020018051919060200180519190602001805160008054600160a060020a03191633600160a060020a0316179055915050670de0b6b3a76400008710620000b557600080fd5b670de0b6b3a7640000620000d8868664010000000062002cc56200019282021704565b10620000e357600080fd5b60028054600160a060020a0319908116600160a060020a039e8f169081179092556004805482169d8f169d909d178d5560099b909b55600a99909955600b97909755600c95909555600d93909355600e91909155600f55601055600060088190556020805460ff191690961790955560038054851633909716969096179095556011939093556005939093556013919091556021805490911690911790556014805461ff0019169055620001a9565b600082820183811015620001a257fe5b9392505050565b613e1880620001b96000396000f3006060604052600436106102f25763ffffffff60e060020a600035041663013cf08b811461030f57806302d05d3f1461036857806309b0d33a146103975780630a9f46ad146103aa5780630d61b519146103cf5780630f6f17d2146103e55780630f8f9f5f146104075780631181522314610426578063158ef93e146104455780631603e0321461046c5780631a26af7a1461047f5780631ab371fc146104925780631dcf8ceb146104a55780631ebe568c146104b857806322b86aa1146104ce57806325f842c5146104e157806328ac1228146104f45780632e1a7d4d146105075780632e33de6a1461051d5780632f3fe24c1461053f5780632f8847101461055257806335c1d349146105655780633ea362591461057b5780633f4ba83a1461059a578063400e3949146105ad5780634773822e146105c05780634f634790146105df5780635c975abb146105f25780635d4c3224146106055780635ea1d6f81461061d578063612d194d1461063057806364542e3e146106435780636642642a1461065957806370a082311461066f5780637487d32c1461068e5780637e714dd2146106a15780637f2736d1146106b457806383d32461146106c75780638456cb59146106da5780638657459e146106ed5780638da5cb5b1461070357806390c31d5d14610716578063929066f514610729578063a24459fc14610748578063a7c4dccf1461075e578063aaf5eb6814610771578063b18e8a8d14610784578063b484cf8d146107a3578063b64af4b1146107b9578063b8b74553146107cc578063ba25887d146107df578063c8d530f8146107f2578063d0e30db014610841578063d78b3b1c14610849578063db2e21bc1461085c578063dc87454c1461086f578063dd60c89814610882578063dfc51a2514610895578063e7476abf146108b7578063e7ee8016146108d6578063ebc95b12146108f4578063ec33d2a014610913578063f245fbc714610926578063f2fde38b14610945578063f6558b0014610964578063f8d4d4381461099b575b60025433600160a060020a0390811691161461030d57600080fd5b005b341561031a57600080fd5b6103256004356109ae565b604051600160a060020a03909616865260208601949094526040808601939093526060850191909152608084015290151560a083015260c0909101905180910390f35b341561037357600080fd5b61037b6109ff565b604051600160a060020a03909116815260200160405180910390f35b34156103a257600080fd5b61030d610a0e565b34156103b557600080fd5b6103bd610b45565b60405190815260200160405180910390f35b34156103da57600080fd5b61030d600435610b4c565b34156103f057600080fd5b6103bd600435600160a060020a0360243516610c34565b341561041257600080fd5b6103bd600160a060020a0360043516610c51565b341561043157600080fd5b61030d600160a060020a0360043516610c63565b341561045057600080fd5b610458610cd7565b604051901515815260200160405180910390f35b341561047757600080fd5b61030d610ce0565b341561048a57600080fd5b610458610d71565b341561049d57600080fd5b61037b610d7f565b34156104b057600080fd5b6103bd610d8e565b34156104c357600080fd5b61030d600435610d94565b34156104d957600080fd5b61045861115b565b34156104ec57600080fd5b6103bd6111fb565b34156104ff57600080fd5b6103bd611201565b341561051257600080fd5b61030d600435611207565b341561052857600080fd5b6103bd600435600160a060020a0360243516611356565b341561054a57600080fd5b6103bd611373565b341561055d57600080fd5b6103bd611379565b341561057057600080fd5b61037b60043561137f565b341561058657600080fd5b61030d600160a060020a03600435166113a7565b34156105a557600080fd5b61030d61142b565b34156105b857600080fd5b6103bd6114aa565b34156105cb57600080fd5b610458600160a060020a03600435166114b0565b34156105ea57600080fd5b6103bd6114c5565b34156105fd57600080fd5b6104586114cb565b341561061057600080fd5b61030d60043515156114db565b341561062857600080fd5b6103bd611528565b341561063b57600080fd5b6103bd61152e565b341561064e57600080fd5b61030d600435611534565b341561066457600080fd5b61030d600435611562565b341561067a57600080fd5b6103bd600160a060020a0360043516611582565b341561069957600080fd5b61030d611594565b34156106ac57600080fd5b6103bd611620565b34156106bf57600080fd5b61030d611626565b34156106d257600080fd5b6103bd6117f7565b34156106e557600080fd5b61030d6117fd565b34156106f857600080fd5b61030d600435611881565b341561070e57600080fd5b61037b6119d4565b341561072157600080fd5b61030d6119e3565b341561073457600080fd5b610458600160a060020a0360043516611b20565b341561075357600080fd5b6103bd600435611b35565b341561076957600080fd5b61037b611b47565b341561077c57600080fd5b6103bd611b56565b341561078f57600080fd5b61030d600160a060020a0360043516611b5c565b34156107ae57600080fd5b6103bd600435611bae565b34156107c457600080fd5b61030d611bc0565b34156107d757600080fd5b61030d611cf7565b34156107ea57600080fd5b6103bd611e0e565b34156107fd57600080fd5b61030d6004602481358181019083013580602081810201604051908101604052809392919081815260200183836020028082843750949650611e1495505050505050565b61030d611eb0565b341561085457600080fd5b6103bd61208f565b341561086757600080fd5b61030d612095565b341561087a57600080fd5b61037b6121bb565b341561088d57600080fd5b6103bd6121ca565b34156108a057600080fd5b61030d600160a060020a03600435166024356121d0565b34156108c257600080fd5b61030d600160a060020a036004351661243c565b34156108e157600080fd5b61030d60043560243560443515156124f0565b34156108ff57600080fd5b6103bd600160a060020a0360043516612a0f565b341561091e57600080fd5b61030d612a21565b341561093157600080fd5b61030d600160a060020a0360043516612ba9565b341561095057600080fd5b61030d600160a060020a0360043516612c28565b341561096f57600080fd5b610977612cb6565b6040518082600481111561098757fe5b60ff16815260200191505060405180910390f35b34156109a657600080fd5b6103bd612cbf565b601f8054829081106109bc57fe5b6000918252602090912060069091020180546001820154600283015460038401546004850154600590950154600160a060020a0390941695509193909260ff1686565b600354600160a060020a031681565b60028060205460ff166004811115610a2257fe5b14610a2c57600080fd5b60005460a060020a900460ff1615610a4357600080fd5b602060019054906101000a9004600160a060020a0316600160a060020a03166340c10f193360135460006040516020015260405160e060020a63ffffffff8516028152600160a060020a0390921660048301526024820152604401602060405180830381600087803b1515610ab757600080fd5b6102c65a03f11515610ac857600080fd5b50505060405180515050600b54600854610ae79163ffffffff612cc516565b421015610af357600080fd5b4260088190556020805460ff191660031790556005547fb261f68a380a9c0e8cb1b8ddea5dceb8ce59629e31c7d50b5a3acf6f017b6df69160405191825260208201526040908101905180910390a150565b601f545b90565b60028060205460ff166004811115610b6057fe5b14610b6a57600080fd5b60005460a060020a900460ff1615610b8157600080fd5b602060019054906101000a9004600160a060020a0316600160a060020a03166340c10f193360135460006040516020015260405160e060020a63ffffffff8516028152600160a060020a0390921660048301526024820152604401602060405180830381600087803b1515610bf557600080fd5b6102c65a03f11515610c0657600080fd5b5050506040518051905050610c1a82612cdf565b1515610c2557600080fd5b610c30826001612d28565b5050565b601b60209081526000928352604080842090915290825290205481565b60166020526000908152604090205481565b60005433600160a060020a03908116911614610c7e57600080fd5b60005460a060020a900460ff161515610c9657600080fd5b600160a060020a0381161515610cab57600080fd5b60028054600160a060020a03909216600160a060020a0319928316811790915560218054909216179055565b60145460ff1681565b6000805433600160a060020a03908116911614610cfc57600080fd5b60005460a060020a900460ff161515610d1457600080fd5b5060005b601f54811015610d6e576000601f82815481101515610d3357fe5b9060005260206000209060060201600301541115610d5657610d56816000612d28565b610d6781600163ffffffff612cc516565b9050610d18565b50565b601454610100900460ff1681565b600454600160a060020a031681565b600c5481565b6000808060018060205460ff166004811115610dac57fe5b14610db657600080fd5b600160a060020a03331660009081526015602052604090205460ff161515610ddd57600080fd5b60005460a060020a900460ff1615610df457600080fd5b601f548510610e0257600080fd5b6000601f86815481101515610e1357fe5b906000526020600020906006020160030154111515610e3157600080fd5b6000858152601b60209081526040808320600160a060020a03331680855290835281842054898552601c84528285209185529252909120549094509250610e7e848463ffffffff612cc516565b91506000841115610f2a57600085815260186020526040902054610ea8908363ffffffff61325016565b600086815260186020526040902055601254610eca908363ffffffff61325016565b601255601f8054610f029160019188908110610ee257fe5b90600052602060002090600602016003015461325090919063ffffffff16565b601f805487908110610f1057fe5b906000526020600020906006020160030181905550610fc3565b6000831115610fbe57600085815260196020526040902054610f52908363ffffffff61325016565b600086815260196020526040902055601f8054610f969160019188908110610f7657fe5b90600052602060002090600602016004015461325090919063ffffffff16565b601f805487908110610fa457fe5b906000526020600020906006020160040181905550610fc3565b611154565b600160a060020a033316600090815260166020526040902054610fed90600163ffffffff61325016565b600160a060020a03338181166000818152601660209081526040808320969096558a8252601b815285822083835281528582208290558a8252601c8152858220928252918252848120819055905461010090049092169263a9059cbb928691516020015260405160e060020a63ffffffff8516028152600160a060020a0390921660048301526024820152604401602060405180830381600087803b151561109457600080fd5b6102c65a03f115156110a557600080fd5b50505060405180515050601f8054869081106110bd57fe5b90600052602060002090600602016003015460001415611154576110e085613262565b6110e985613375565b6011546110fd90600163ffffffff61325016565b601155601f80548690811061110e57fe5b6000918252602082206006909102018054600160a060020a03191681556001810182905560028101829055600381018290556004810191909155600501805460ff191690555b5050505050565b6000805b601f548110156111f25761117281612cdf565b80156111a05750601f80548290811061118757fe5b600091825260209091206005600690920201015460ff16155b80156111cc57506000601f828154811015156111b857fe5b906000526020600020906006020160010154115b156111da57600091506111f7565b6111eb81600163ffffffff612cc516565b905061115f565b600191505b5090565b60085481565b60095481565b60008060205460ff16600481111561121b57fe5b1461122557600080fd5b600160a060020a03331660009081526015602052604090205460ff16151561124c57600080fd5b60005460a060020a900460ff161561126357600080fd5b6005546001141561127357600080fd5b600754611286908363ffffffff61325016565b600755600160a060020a0333166000908152601760205260409020546112b2908363ffffffff61325016565b600160a060020a03331660008181526017602052604090819020929092559083156108fc0290849051600060405180830381858888f1935050505015156112f857600080fd5b7fb0ecf14e184effded5473bba77dcfab32b094b77ac1fbb36beec2aef55587970600554338442604051938452600160a060020a03909216602084015260408084019190915260608301919091526080909101905180910390a15050565b601c60209081526000928352604080842090915290825290205481565b600d5481565b60055481565b601e80548290811061138d57fe5b600091825260209091200154600160a060020a0316905081565b60035433600160a060020a039081169116146113c257600080fd5b60145460ff16156113d257600080fd5b6014805460ff191660019081179091558054600160a060020a03928316600160a060020a0319909116179081905560208054919092166101000274ffffffffffffffffffffffffffffffffffffffff0019909116179055565b60005433600160a060020a0390811691161461144657600080fd5b60005460a060020a900460ff16151561145e57600080fd5b6000805474ff0000000000000000000000000000000000000000191690557f7805862f689e2f13df9f062ff482ad3ad112aca9e0847911ed832e158c525b3360405160405180910390a1565b60115481565b601d6020526000908152604090205460ff1681565b600b5481565b60005460a060020a900460ff1681565b60005433600160a060020a039081169116146114f657600080fd5b60005460a060020a900460ff16151561150e57600080fd5b601480549115156101000261ff0019909216919091179055565b600e5481565b60135481565b60005433600160a060020a0390811691161461154f57600080fd5b600f54811061155d57600080fd5b600f55565b60005433600160a060020a0390811691161461157d57600080fd5b600e55565b60176020526000908152604090205481565b6000805433600160a060020a039081169116146115b057600080fd5b60005460a060020a900460ff1615156115c857600080fd5b5060005b601f54811015610d6e576000601f828154811015156115e757fe5b90600052602060002090600602016003015411156116085761160881613262565b61161981600163ffffffff612cc516565b90506115cc565b60075481565b600060048060205460ff16600481111561163c57fe5b1461164657600080fd5b60005460a060020a900460ff161561165d57600080fd5b602060019054906101000a9004600160a060020a0316600160a060020a03166340c10f193360135460006040516020015260405160e060020a63ffffffff8516028152600160a060020a0390921660048301526024820152604401602060405180830381600087803b15156116d157600080fd5b6102c65a03f115156116e257600080fd5b5050506040518051505060145460ff1615156116fd57600080fd5b6020805460ff1916905542600855600554611719906001612cc5565b600555600091505b601e5482101561176f57611757601e8381548110151561173d57fe5b600091825260209091200154600160a060020a03166133d3565b61176882600163ffffffff612cc516565b9150611721565b600091505b601f5482101561179f5761178782613375565b61179882600163ffffffff612cc516565b9150611774565b6117ab601f6000613c8d565b6011600090556012600090557f62eeb403dc233a7676f50cdb0fd72dae595aeb7c63039adce5caacc33254f9c06005544260405191825260208201526040908101905180910390a15050565b60105481565b60005433600160a060020a0390811691161461181857600080fd5b60005460a060020a900460ff161561182f57600080fd5b6000805474ff0000000000000000000000000000000000000000191660a060020a1790557f6985a02210a168e66602d3235cb6db0e70f92b3ba4d376a33c0f3d9434bff62560405160405180910390a1565b60038060205460ff16600481111561189557fe5b1461189f57600080fd5b60005460a060020a900460ff16156118b657600080fd5b602060019054906101000a9004600160a060020a0316600160a060020a03166340c10f193360135460006040516020015260405160e060020a63ffffffff8516028152600160a060020a0390921660048301526024820152604401602060405180830381600087803b151561192a57600080fd5b6102c65a03f1151561193b57600080fd5b505050604051805190505061194f82612cdf565b151561195a57600080fd5b6000601f8381548110151561196b57fe5b90600052602060002090600602016001015411151561198957600080fd5b611994826000612d28565b61199d82613458565b6001601f838154811015156119ae57fe5b60009182526020909120600690910201600501805460ff19169115159190911790555050565b600054600160a060020a031681565b60018060205460ff1660048111156119f757fe5b14611a0157600080fd5b602060019054906101000a9004600160a060020a0316600160a060020a03166340c10f193360135460006040516020015260405160e060020a63ffffffff8516028152600160a060020a0390921660048301526024820152604401602060405180830381600087803b1515611a7557600080fd5b6102c65a03f11515611a8657600080fd5b5050506040518051505060005460a060020a900460ff1615611aa757600080fd5b600a54600854611abc9163ffffffff612cc516565b421015611ac857600080fd5b426008556020805460ff19166002179055611ae1613720565b7fc26cea5d11470524f2c181454de04fcfb1a0349aba5606ea3eb1a8ec87e1f54e6005544260405191825260208201526040908101905180910390a150565b60156020526000908152604090205460ff1681565b60196020526000908152604090205481565b600254600160a060020a031681565b60065481565b60005433600160a060020a03908116911614611b7757600080fd5b600160a060020a0381161515611b8c57600080fd5b60048054600160a060020a031916600160a060020a0392909216919091179055565b60186020526000908152604090205481565b60008060205460ff166004811115611bd457fe5b14611bde57600080fd5b60005460a060020a900460ff1615611bf557600080fd5b602060019054906101000a9004600160a060020a0316600160a060020a03166340c10f193360135460006040516020015260405160e060020a63ffffffff8516028152600160a060020a0390921660048301526024820152604401602060405180830381600087803b1515611c6957600080fd5b6102c65a03f11515611c7a57600080fd5b50505060405180515050600954600854611c999163ffffffff612cc516565b421015611ca557600080fd5b4260088190556020805460ff191660011790556005547f3c3379a2308ae89ee638561d0222706de289bea89968dd555b533795071130fb9160405191825260208201526040908101905180910390a150565b600080548190819033600160a060020a03908116911614611d1757600080fd5b60005460a060020a900460ff161515611d2f57600080fd5b600092505b601e54831015611dfb57601e805484908110611d4c57fe5b6000918252602082200154600754600160a060020a03909116935090915081901115611dc857600754600160a060020a03808416600090815260176020526040902054611dc592611db8929091611dac913016319063ffffffff6138ae16565b9063ffffffff6138d916565b829063ffffffff612cc516565b90505b600160a060020a0382166000908152601760205260409020819055611df483600163ffffffff612cc516565b9250611d34565b505050600160a060020a03301631600755565b600f5481565b60035460009033600160a060020a03908116911614611e3257600080fd5b60145460ff1615611e4257600080fd5b601e828051611e55929160200190613cae565b50600090505b8151811015610c3057600160156000848481518110611e7657fe5b90602001906020020151600160a060020a031681526020810191909152604001600020805460ff1916911515919091179055600101611e5b565b60008060205460ff166004811115611ec457fe5b14611ece57600080fd5b60005460a060020a900460ff1615611ee557600080fd5b600160a060020a03331660009081526015602052604090205460ff161515611f5a57601e805460018101611f198382613d11565b5060009182526020808320919091018054600160a060020a03191633600160a060020a031690811790915582526015905260409020805460ff191660011790555b600160a060020a033316600090815260176020526040902054611f83903463ffffffff612cc516565b600160a060020a033316600090815260176020526040902055600754611faf903463ffffffff612cc516565b6007556020546101009004600160a060020a03166340c10f19333460006040516020015260405160e060020a63ffffffff8516028152600160a060020a0390921660048301526024820152604401602060405180830381600087803b151561201657600080fd5b6102c65a03f1151561202757600080fd5b50505060405180519050507fd36a2f67d06d285786f61a32b052b9ace6b0b7abef5177b54358abdc83a0b69b600554333442604051938452600160a060020a03909216602084015260408084019190915260608301919091526080909101905180910390a150565b600a5481565b600160a060020a03331660009081526015602052604081205460ff1615156120bc57600080fd5b60005460a060020a900460ff1615156120d457600080fd5b601454610100900460ff1615156120ea57600080fd5b50600160a060020a033316600090815260176020526040902054600754612117908263ffffffff61325016565b600755600160a060020a0333166000818152601760205260408082209190915582156108fc0290839051600060405180830381858888f19350505050151561215e57600080fd5b7fb0ecf14e184effded5473bba77dcfab32b094b77ac1fbb36beec2aef55587970600554338342604051938452600160a060020a03909216602084015260408084019190915260608301919091526080909101905180910390a150565b600154600160a060020a031681565b601e5490565b600060018060205460ff1660048111156121e657fe5b146121f057600080fd5b600160a060020a03331660009081526015602052604090205460ff16151561221757600080fd5b60005460a060020a900460ff161561222e57600080fd5b600d546011541061223e57600080fd5b600160a060020a0384166000908152601d602052604090205460ff161561226457600080fd5b601054600160a060020a0333166000908152601a60205260409020541061228a57600080fd5b601f80546001810161229c8382613d3a565b9160005260206000209060060201600060c06040519081016040908152600160a060020a0389168252600060208301819052908201819052606082018190526080820181905260a082015291905081518154600160a060020a031916600160a060020a03919091161781556020820151816001015560408201518160020155606082015181600301556080820151816004015560a08201516005909101805491151560ff19928316179055600160a060020a038088166000908152601d6020908152604080832080549095166001908117909555339093168252601a9052205461238e9350915063ffffffff612cc516565b600160a060020a0333166000908152601a60205260409020556011546123bb90600163ffffffff612cc516565b601155601f546000190191506123d3828460016124f0565b7f8ce9f930ed5ed31849df1551919914386f6b2b7de1fdde27d80255ceaa38b2276005548386866040518085815260200184815260200183600160a060020a0316600160a060020a0316815260200182815260200194505050505060405180910390a150505050565b60005433600160a060020a0390811691161461245757600080fd5b60005460a060020a900460ff16151561246f57600080fd5b600160a060020a038116151561248457600080fd5b6020546101009004600160a060020a031663f2fde38b8260405160e060020a63ffffffff8416028152600160a060020a039091166004820152602401600060405180830381600087803b15156124d957600080fd5b6102c65a03f115156124ea57600080fd5b50505050565b60018060205460ff16600481111561250457fe5b1461250e57600080fd5b600160a060020a03331660009081526015602052604090205460ff16151561253557600080fd5b60005460a060020a900460ff161561254c57600080fd5b601f54841061255a57600080fd5b601d6000601f8681548110151561256d57fe5b60009182526020808320600690920290910154600160a060020a0316835282019290925260400190205460ff1615156125a557600080fd5b602054612630906101009004600160a060020a03166370a082313360006040516020015260405160e060020a63ffffffff8416028152600160a060020a039091166004820152602401602060405180830381600087803b151561260757600080fd5b6102c65a03f1151561261857600080fd5b5050506040518051600c54915063ffffffff6138ae16565b60065461264490859063ffffffff6138ae16565b101561264f57600080fd5b6000831161265c57600080fd5b6020546101009004600160a060020a0316632bee7bde338560006040516020015260405160e060020a63ffffffff8516028152600160a060020a0390921660048301526024820152604401602060405180830381600087803b15156126c057600080fd5b6102c65a03f115156126d157600080fd5b505050604051805190505081801561270957506000848152601c60209081526040808320600160a060020a0333168452909152902054155b15612828576000848152601b60209081526040808320600160a060020a0333168452909152902054151561278f5761276b6001601f8681548110151561274b57fe5b906000526020600020906006020160030154612cc590919063ffffffff16565b601f80548690811061277957fe5b9060005260206000209060060201600301819055505b6000848152601860205260409020546127ae908463ffffffff612cc516565b600085815260186020908152604080832093909355601b8152828220600160a060020a0333168352905220546127ea908463ffffffff612cc516565b6000858152601b60209081526040808320600160a060020a0333168452909152902055601254612820908463ffffffff612cc516565b601255612964565b8115801561285657506000848152601b60209081526040808320600160a060020a0333168452909152902054155b1561295f576000848152601c60209081526040808320600160a060020a033316845290915290205415156128dc576128b86001601f8681548110151561289857fe5b906000526020600020906006020160040154612cc590919063ffffffff16565b601f8054869081106128c657fe5b9060005260206000209060060201600401819055505b6000848152601960205260409020546128fb908463ffffffff612cc516565b600085815260196020908152604080832093909355601c8152828220600160a060020a033316835290522054612937908463ffffffff612cc516565b6000858152601c60209081526040808320600160a060020a0333168452909152902055612964565b600080fd5b600160a060020a03331660009081526016602052604090205461298e90600163ffffffff612cc516565b6016600033600160a060020a0316600160a060020a03168152602001908152602001600020819055507f725e873e4977c489020b571ecffe13e8f200a0e8b71e450d8b190aa236bcede9600554858585604051938452602084019290925260408084019190915290151560608301526080909101905180910390a150505050565b601a6020526000908152604090205481565b60038060205460ff166004811115612a3557fe5b14612a3f57600080fd5b60005460a060020a900460ff1615612a5657600080fd5b602060019054906101000a9004600160a060020a0316600160a060020a03166340c10f193360135460006040516020015260405160e060020a63ffffffff8516028152600160a060020a0390921660048301526024820152604401602060405180830381600087803b1515612aca57600080fd5b6102c65a03f11515612adb57600080fd5b5050506040518051905050612aee61115b565b1515612af957600080fd5b426008556020805460ff191660041790819055600160a060020a036101009091041663f3123a3a6040518163ffffffff1660e060020a028152600401600060405180830381600087803b1515612b4e57600080fd5b6102c65a03f11515612b5f57600080fd5b505050612b6a6138f0565b7ff4b862466a7ed84695726312fc00377bee25443b7890d8b8985f94eef497d6ff6005544260405191825260208201526040908101905180910390a150565b60015433600160a060020a03908116911614612bc457600080fd5b600160a060020a0381166000908152601560205260409020805460ff19166001908117909155601e805490918101612bfc8382613d11565b5060009182526020909120018054600160a060020a031916600160a060020a0392909216919091179055565b60005433600160a060020a03908116911614612c4357600080fd5b600160a060020a0381161515612c5857600080fd5b600054600160a060020a0380831691167f8be0079c531659141344cd1fd0a4f28419497f9722a3daafe3b4186f6b6457e060405160405180910390a360008054600160a060020a031916600160a060020a0392909216919091179055565b60205460ff1681565b60125481565b600082820183811015612cd457fe5b8091505b5092915050565b6000601d6000601f84815481101515612cf457fe5b60009182526020808320600690920290910154600160a060020a0316835282019290925260400190205460ff169050919050565b600080600080600080601f88815481101515612d4057fe5b6000918252602090912060069091020154600160a060020a031692508291508615612ed257601254600089815260186020526040902054600754612d8f9291611dac919063ffffffff6138ae16565b602154909650600160a060020a033081811631935091169063cb3c28c790889073eeeeeeeeeeeeeeeeeeeeeeeeeeeeeeeeeeeeeeee90829087906b204fce5e3e2502611000000060018260006040516020015260405160e060020a63ffffffff8b16028152600160a060020a039788166004820152602481019690965293861660448601529185166064850152608484015260a483015290911660c482015260e4016020604051808303818588803b1515612e4957600080fd5b6125ee5a03f11515612e5a57600080fd5b50505050604051805195505060008511612e7357600080fd5b612ea685611dac600654612e9a30600160a060020a0316318661325090919063ffffffff16565b9063ffffffff6138ae16565b935083601f89815481101515612eb857fe5b906000526020600020906006020160010181905550613246565b81600160a060020a03166370a082313060006040516020015260405160e060020a63ffffffff8416028152600160a060020a039091166004820152602401602060405180830381600087803b1515612f2957600080fd5b6102c65a03f11515612f3a57600080fd5b5050506040518051600254909750600160a060020a03808516925063095ea7b391168860006040516020015260405160e060020a63ffffffff8516028152600160a060020a0390921660048301526024820152604401602060405180830381600087803b1515612fa957600080fd5b6102c65a03f11515612fba57600080fd5b50505060405180515050602154600160a060020a031663cb3c28c7838873eeeeeeeeeeeeeeeeeeeeeeeeeeeeeeeeeeeeeeee306b204fce5e3e2502611000000060018260006040516020015260405160e060020a63ffffffff8a16028152600160a060020a039788166004820152602481019690965293861660448601529185166064850152608484015260a483015290911660c482015260e401602060405180830381600087803b151561306e57600080fd5b6102c65a03f1151561307f57600080fd5b5050506040518051600254909650600160a060020a03808516925063095ea7b391166000806040516020015260405160e060020a63ffffffff8516028152600160a060020a0390921660048301526024820152604401602060405180830381600087803b15156130ee57600080fd5b6102c65a03f115156130ff57600080fd5b50505060405180515050600160a060020a0382166370a082313060006040516020015260405160e060020a63ffffffff8416028152600160a060020a039091166004820152602401602060405180830381600087803b151561316057600080fd5b6102c65a03f1151561317157600080fd5b50505060405180518711905061318657600080fd5b61321e61320a83600160a060020a03166370a082313060006040516020015260405160e060020a63ffffffff8416028152600160a060020a039091166004820152602401602060405180830381600087803b15156131e357600080fd5b6102c65a03f115156131f457600080fd5b505050604051805189915063ffffffff61325016565b600654611dac90889063ffffffff6138ae16565b935083601f8981548110151561323057fe5b9060005260206000209060060201600201819055505b5050505050505050565b60008282111561325c57fe5b50900390565b600080805b601e548310156124ea57601e80548490811061327f57fe5b6000918252602080832090910154868352601c82526040808420600160a060020a0390921680855291835280842054888552601b8452818520838652909352909220549193506132d5919063ffffffff612cc516565b9050801561335d576020546101009004600160a060020a031663a9059cbb838360006040516020015260405160e060020a63ffffffff8516028152600160a060020a0390921660048301526024820152604401602060405180830381600087803b151561334157600080fd5b6102c65a03f1151561335257600080fd5b505050604051805150505b61336e83600163ffffffff612cc516565b9250613267565b601d6000601f8381548110151561338857fe5b60009182526020808320600690920290910154600160a060020a031683528281019390935260409182018120805460ff19169055928352601882528083208390556019909152812055565b600160a060020a0381166000908152601a60209081526040808320839055601690915281208190555b601f54811015610c30576000818152601b60209081526040808320600160a060020a038616808552908352818420849055848452601c835281842090845290915281205561345181600163ffffffff612cc516565b90506133fc565b600080600080600080601f8781548110151561347057fe5b906000526020600020906006020195506134a18660010154611dac60065489600201546138ae90919063ffffffff16565b6001870154909550600094506134be90600263ffffffff6138ae16565b86600201541015613506576135038660010154611dac600654612e9a8a600201546134f760028d600101546138ae90919063ffffffff16565b9063ffffffff61325016565b93505b600092505b601e5483101561371757601e80548490811061352357fe5b6000918252602080832090910154898352601b82526040808420600160a060020a0390921680855291909252908220549093509091508190111561361e57506000868152601b60209081526040808320600160a060020a0380861685529083529220549054600654919261010090910416906340c10f199084906135b190611dac868b63ffffffff6138ae16565b60006040516020015260405160e060020a63ffffffff8516028152600160a060020a0390921660048301526024820152604401602060405180830381600087803b15156135fd57600080fd5b6102c65a03f1151561360e57600080fd5b50505060405180519050506136ff565b6000878152601c60209081526040808320600160a060020a038616845290915281205411156136ff57506000868152601c60209081526040808320600160a060020a0380861685529083529220549054600654919261010090910416906340c10f1990849061369790611dac868a63ffffffff6138ae16565b60006040516020015260405160e060020a63ffffffff8516028152600160a060020a0390921660048301526024820152604401602060405180830381600087803b15156136e357600080fd5b6102c65a03f115156136f457600080fd5b505050604051805150505b61371083600163ffffffff612cc516565b925061350b565b50505050505050565b60008080805b601e548410156124ea57601e80548590811061373e57fe5b60009182526020808320909101549054600160a060020a039182169550610100900416906370a082319085906040516020015260405160e060020a63ffffffff8416028152600160a060020a039091166004820152602401602060405180830381600087803b15156137af57600080fd5b6102c65a03f115156137c057600080fd5b5050506040518051600160a060020a03851660009081526016602052604090205490935015905080156137f35750600082115b1561389657613813600654611dac600c54856138ae90919063ffffffff16565b6020549091506101009004600160a060020a031663c0001786848360006040516020015260405160e060020a63ffffffff8516028152600160a060020a0390921660048301526024820152604401602060405180830381600087803b151561387a57600080fd5b6102c65a03f1151561388b57600080fd5b505050604051805150505b6138a784600163ffffffff612cc516565b9350613726565b6000808315156138c15760009150612cd8565b508282028284828115156138d157fe5b0414612cd457fe5b60008082848115156138e757fe5b04949350505050565b6000806000806000806000806000975060075430600160a060020a03163111156139265760075430600160a060020a0316310397505b613941600654611dac8a600e546138ae90919063ffffffff16565b9650613968600654611dac30600160a060020a031631600f546138ae90919063ffffffff16565b9550613988866134f7600160a060020a033016318a63ffffffff61325016565b9450600093505b601e54841015613bb257601e8054859081106139a757fe5b6000918252602082200154600754600160a060020a03909116945090925082901115613a1257600754600160a060020a038416600090815260176020526040902054613a0f91613a0291611dac90899063ffffffff6138ae16565b839063ffffffff612cc516565b91505b6020546000906101009004600160a060020a03166318160ddd82604051602001526040518163ffffffff1660e060020a028152600401602060405180830381600087803b1515613a6157600080fd5b6102c65a03f11515613a7257600080fd5b505050604051805190501115613b7f57602054613b7c90613a02906101009004600160a060020a03166318160ddd6000604051602001526040518163ffffffff1660e060020a028152600401602060405180830381600087803b1515613ad757600080fd5b6102c65a03f11515613ae857600080fd5b5050506040518051602054909150611dac906101009004600160a060020a03166370a082318860006040516020015260405160e060020a63ffffffff8416028152600160a060020a039091166004820152602401602060405180830381600087803b1515613b5557600080fd5b6102c65a03f11515613b6657600080fd5b50505060405180518c915063ffffffff6138ae16565b91505b600160a060020a0383166000908152601760205260409020829055613bab84600163ffffffff612cc516565b935061398f565b613bc2858863ffffffff612cc516565b90507f13a18edb371d0a74be72de10b678893b96bc8a47e776bb122c59e21d53956fbd6005546007548360405180848152602001838152602001828152602001935050505060405180910390a16007819055600454600160a060020a031686156108fc0287604051600060405180830381858888f193505050501515613c4757600080fd5b7facfa15ebe340982fef95d43aafc25d741382d7928a00055a209274fa615d52776005548860405191825260208201526040908101905180910390a15050505050505050565b5080546000825560060290600052602060002090810190610d6e9190613d62565b828054828255906000526020600020908101928215613d05579160200282015b82811115613d055782518254600160a060020a031916600160a060020a039190911617825560209290920191600190910190613cce565b506111f7929150613dae565b815481835581811511613d3557600083815260209020613d35918101908301613dd2565b505050565b815481835581811511613d3557600602816006028360005260206000209182019101613d3591905b610b4991905b808211156111f7578054600160a060020a03191681556000600182018190556002820181905560038201819055600482015560058101805460ff19169055600601613d68565b610b4991905b808211156111f7578054600160a060020a0319168155600101613db4565b610b4991905b808211156111f75760008155600101613dd85600a165627a7a723058206aa15de30d5a0e1f566ef3cefe3a40dbf9deb2e215cbf1a35cbb2cf15cfd68c80029",
  "source": "pragma solidity ^0.4.18;\r\n\r\nimport 'zeppelin-solidity/contracts/math/SafeMath.sol';\r\nimport 'zeppelin-solidity/contracts/math/Math.sol';\r\nimport 'zeppelin-solidity/contracts/lifecycle/Pausable.sol';\r\nimport './ControlToken.sol';\r\nimport './KyberNetwork.sol';\r\nimport './Utils.sol';\r\n\r\n/**\r\n * The main contract of the Betoken hedge fund\r\n */\r\ncontract BetokenFund is Pausable, Utils {\r\n  using SafeMath for uint256;\r\n\r\n  enum CyclePhase { ChangeMaking, ProposalMaking, Waiting, Selling, Finalized }\r\n\r\n  struct Proposal {\r\n    address tokenAddress;\r\n    uint256 buyPriceInWeis;\r\n    uint256 sellPriceInWeis;\r\n    uint256 numFor;\r\n    uint256 numAgainst;\r\n    bool isSold;\r\n  }\r\n\r\n  /**\r\n   * Executes function only during the given cycle phase.\r\n   * @param phase the cycle phase during which the function may be called\r\n   */\r\n  modifier during(CyclePhase phase) {\r\n    require(cyclePhase == phase);\r\n    _;\r\n  }\r\n\r\n  /**\r\n   * Executes function only when msg.sender is a participant of the fund.\r\n   */\r\n  modifier onlyParticipant {\r\n    require(isParticipant[msg.sender]);\r\n    _;\r\n  }\r\n\r\n  modifier rewardCaller {\r\n    cToken.mint(msg.sender, functionCallReward);\r\n    _;\r\n  }\r\n\r\n  //Address of the control token contract.\r\n  address public controlTokenAddr;\r\n\r\n  //Address of the KyberNetwork contract\r\n  address public kyberAddr;\r\n\r\n  //The creator of the BetokenFund contract. Only used in initializeSubcontracts().\r\n  address public creator;\r\n\r\n  //Address to which the developer fees will be paid.\r\n  address public developerFeeAccount;\r\n\r\n  //The number of the current investment cycle.\r\n  uint256 public cycleNumber;\r\n\r\n  //10^{decimals} used for representing fixed point numbers with {decimals} decimals.\r\n  uint256 public PRECISION;\r\n\r\n  //The amount of funds held by the fund.\r\n  uint256 public totalFundsInWeis;\r\n\r\n  //The start time for the current investment cycle phase, in seconds since Unix epoch.\r\n  uint256 public startTimeOfCyclePhase;\r\n\r\n  //Temporal length of change making period at start of each cycle, in seconds.\r\n  uint256 public timeOfChangeMaking;\r\n\r\n  //Temporal length of proposal making period at start of each cycle, in seconds.\r\n  uint256 public timeOfProposalMaking;\r\n\r\n  //Temporal length of waiting period, in seconds.\r\n  uint256 public timeOfWaiting;\r\n\r\n  //Minimum proportion of Kairo balance people have to stake in support of a proposal. Fixed point decimal.\r\n  uint256 public minStakeProportion;\r\n\r\n  //The maximum number of proposals each cycle.\r\n  uint256 public maxProposals;\r\n\r\n  //The proportion of the fund that gets distributed to Kairo holders every cycle. Fixed point decimal.\r\n  uint256 public commissionRate;\r\n\r\n  //The proportion of contract balance that goes the the devs every cycle. Fixed point decimal.\r\n  uint256 public developerFeeProportion;\r\n\r\n  //The max number of proposals each member can create.\r\n  uint256 public maxProposalsPerMember;\r\n\r\n  //Number of proposals already made in this cycle. Excludes deleted proposals.\r\n  uint256 public numProposals;\r\n\r\n  //Total Kairo staked in support of proposals this cycle.\r\n  uint256 public cycleTotalForStake;\r\n\r\n  //Amount of Kairo rewarded to the user who calls a phase transition/proposal handling function\r\n  uint256 public functionCallReward;\r\n\r\n  //Flag for whether the contract has been initialized with subcontracts' addresses.\r\n  bool public initialized;\r\n\r\n  //Flag for whether emergency withdrawing is allowed.\r\n  bool public allowEmergencyWithdraw;\r\n\r\n  //Returns true for an address if it's in the participants array, false otherwise.\r\n  mapping(address => bool) public isParticipant;\r\n\r\n  //Returns the amount participant staked into all proposals in the current cycle.\r\n  mapping(address => uint256) public userStakedProposalCount;\r\n\r\n  //Mapping from a participant's address to their Ether balance, in weis.\r\n  mapping(address => uint256) public balanceOf;\r\n\r\n  //Mapping from Proposal to total amount of Control Tokens being staked by supporters.\r\n  mapping(uint256 => uint256) public forStakedControlOfProposal;\r\n  mapping(uint256 => uint256) public againstStakedControlOfProposal;\r\n\r\n  //Records the number of proposals a user has created in the current cycle. Canceling support does not decrease this number.\r\n  mapping(address => uint256) public createdProposalCount;\r\n\r\n  //mapping(proposalId => mapping(participantAddress => stakedTokensInWeis))\r\n  mapping(uint256 => mapping(address => uint256)) public forStakedControlOfProposalOfUser;\r\n  mapping(uint256 => mapping(address => uint256)) public againstStakedControlOfProposalOfUser;\r\n\r\n  //Mapping to check if a proposal for a token has already been made.\r\n  mapping(address => bool) public isTokenAlreadyProposed;\r\n\r\n  //A list of everyone who is participating in the fund.\r\n  address[] public participants;\r\n\r\n  //List of proposals in the current cycle.\r\n  Proposal[] public proposals;\r\n\r\n  //The current cycle phase.\r\n  CyclePhase public cyclePhase;\r\n\r\n  //Contract instances\r\n  ControlToken internal cToken;\r\n  KyberNetwork internal kyber;\r\n\r\n  event CycleStarted(uint256 _cycleNumber, uint256 _timestamp);\r\n  event Deposit(uint256 _cycleNumber, address _sender, uint256 _amountInWeis, uint256 _timestamp);\r\n  event Withdraw(uint256 _cycleNumber, address _sender, uint256 _amountInWeis, uint256 _timestamp);\r\n  event ChangeMakingTimeEnded(uint256 _cycleNumber, uint256 _timestamp);\r\n\r\n  event NewProposal(uint256 _cycleNumber, uint256 _id, address _tokenAddress, uint256 _stakeInWeis);\r\n  event StakedProposal(uint256 _cycleNumber, uint256 _id, uint256 _stakeInWeis, bool _support);\r\n  event ProposalMakingTimeEnded(uint256 _cycleNumber, uint256 _timestamp);\r\n\r\n  event WaitingPhaseEnded(uint256 _cycleNumber, uint256 _timestamp);\r\n\r\n  event AssetSold(uint256 _cycleNumber, uint256 _proposalId);\r\n  event SellingPhaseEnded(uint256 _cycleNumber, uint256 _timestamp);\r\n\r\n  event ROI(uint256 _cycleNumber, uint256 _beforeTotalFunds, uint256 _afterTotalFunds);\r\n  event CommissionPaid(uint256 _cycleNumber, uint256 _totalCommissionInWeis);\r\n  event CycleFinalized(uint256 _cycleNumber, uint256 _timestamp);\r\n\r\n  /**\r\n   * Contract initialization functions\r\n   */\r\n\r\n  //Constructor\r\n  function BetokenFund(\r\n    address _kyberAddr,\r\n    address _developerFeeAccount,\r\n    uint256 _timeOfChangeMaking,\r\n    uint256 _timeOfProposalMaking,\r\n    uint256 _timeOfWaiting,\r\n    uint256 _minStakeProportion,\r\n    uint256 _maxProposals,\r\n    uint256 _commissionRate,\r\n    uint256 _developerFeeProportion,\r\n    uint256 _maxProposalsPerMember,\r\n    uint256 _cycleNumber,\r\n    uint256 _functionCallReward\r\n  )\r\n    public\r\n  {\r\n    require(_minStakeProportion < 10**18);\r\n    require(_commissionRate.add(_developerFeeProportion) < 10**18);\r\n\r\n    kyberAddr = _kyberAddr;\r\n    developerFeeAccount = _developerFeeAccount;\r\n    timeOfChangeMaking = _timeOfChangeMaking;\r\n    timeOfProposalMaking = _timeOfProposalMaking;\r\n    timeOfWaiting = _timeOfWaiting;\r\n    minStakeProportion = _minStakeProportion;\r\n    maxProposals = _maxProposals;\r\n    commissionRate = _commissionRate;\r\n    developerFeeProportion = _developerFeeProportion;\r\n    maxProposalsPerMember = _maxProposalsPerMember;\r\n    startTimeOfCyclePhase = 0;\r\n    cyclePhase = CyclePhase.Finalized;\r\n    creator = msg.sender;\r\n    numProposals = 0;\r\n    cycleNumber = _cycleNumber;\r\n    functionCallReward = _functionCallReward;\r\n    kyber = KyberNetwork(_kyberAddr);\r\n    allowEmergencyWithdraw = false;\r\n  }\r\n\r\n  /**\r\n   * Initializes the list of participants. Used during contract upgrades.\r\n   * @param _participants the list of participant addresses\r\n   */\r\n  function initializeParticipants(address[] _participants) public {\r\n    require(msg.sender == creator);\r\n    require (!initialized);\r\n\r\n    participants = _participants;\r\n    for (uint i = 0; i < _participants.length; i++) {\r\n      isParticipant[_participants[i]] = true;\r\n    }\r\n  }\r\n\r\n  /**\r\n   * Initializes the address of the ControlToken contract.\r\n   * @param _cTokenAddr address of ControlToken contract\r\n   */\r\n  function initializeSubcontracts(address _cTokenAddr) public {\r\n    require(msg.sender == creator);\r\n    require(!initialized);\r\n\r\n    initialized = true;\r\n\r\n    controlTokenAddr = _cTokenAddr;\r\n\r\n    cToken = ControlToken(controlTokenAddr);\r\n  }\r\n\r\n  /**\r\n   * Getters\r\n   */\r\n\r\n  /**\r\n   * Returns the length of the participants array.\r\n   * @return length of participants array\r\n   */\r\n  function participantsCount() public view returns(uint256 _count) {\r\n    return participants.length;\r\n  }\r\n\r\n  /**\r\n   * Returns the length of the proposals array.\r\n   * @return length of proposals array\r\n   */\r\n  function proposalsCount() public view returns(uint256 _count) {\r\n    return proposals.length;\r\n  }\r\n\r\n  /**\r\n   * Meta functions\r\n   */\r\n\r\n  /**\r\n   * Emergency functions\r\n   */\r\n\r\n  /**\r\n   * In case the fund is invested in tokens, sell all tokens.\r\n   */\r\n  function emergencyDumpTokens() onlyOwner whenPaused public {\r\n    for (uint256 i = 0; i < proposals.length; i = i.add(1)) {\r\n      if (proposals[i].numFor > 0) { //Ensure proposal isn't a deleted one\r\n        __handleInvestment(i, false);\r\n      }\r\n    }\r\n  }\r\n\r\n  /**\r\n   * In case the fund is invested in tokens, return all staked Kairos.\r\n   */\r\n  function emergencyReturnAllStakes() onlyOwner whenPaused public {\r\n    for (uint256 i = 0; i < proposals.length; i = i.add(1)) {\r\n      if (proposals[i].numFor > 0) {\r\n        __returnStakes(i);\r\n      }\r\n    }\r\n  }\r\n\r\n  /**\r\n   * In case the fund is invested in tokens, redistribute balance after selling all tokens.\r\n   */\r\n  function emergencyRedistBalances() onlyOwner whenPaused public {\r\n    for (uint256 i = 0; i < participants.length; i = i.add(1)) {\r\n      address participant = participants[i];\r\n      uint256 newBalance = 0;\r\n      if (totalFundsInWeis > 0) {\r\n        newBalance = newBalance.add(this.balance.mul(balanceOf[participant]).div(totalFundsInWeis));\r\n      }\r\n      balanceOf[participant] = newBalance;\r\n    }\r\n    totalFundsInWeis = this.balance;\r\n  }\r\n\r\n  function setAllowEmergencyWithdraw(bool _val) onlyOwner whenPaused public {\r\n    allowEmergencyWithdraw = _val;\r\n  }\r\n\r\n  /**\r\n   * Function for withdrawing all funds in times of emergency. Only callable when fund is paused.\r\n   */\r\n  function emergencyWithdraw()\r\n    public\r\n    onlyParticipant\r\n    whenPaused\r\n  {\r\n    require(allowEmergencyWithdraw);\r\n    uint256 amountInWeis = balanceOf[msg.sender];\r\n\r\n    //Subtract from account\r\n    totalFundsInWeis = totalFundsInWeis.sub(amountInWeis);\r\n    balanceOf[msg.sender] = 0;\r\n\r\n    //Transfer\r\n    msg.sender.transfer(amountInWeis);\r\n\r\n    //Emit event\r\n    Withdraw(cycleNumber, msg.sender, amountInWeis, now);\r\n  }\r\n\r\n  /**\r\n   * Parameter setters\r\n   */\r\n\r\n  /**\r\n   * Changes the address of the KyberNetwork contract used in the contract. Only callable by owner.\r\n   * @param _newAddr new address of KyberNetwork contract\r\n   */\r\n  function changeKyberNetworkAddress(address _newAddr) public onlyOwner whenPaused {\r\n    require(_newAddr != address(0));\r\n    kyberAddr = _newAddr;\r\n    kyber = KyberNetwork(_newAddr);\r\n  }\r\n\r\n  /**\r\n   * Changes the address to which the developer fees will be sent. Only callable by owner.\r\n   * @param _newAddr new developer fee address\r\n   */\r\n  function changeDeveloperFeeAccount(address _newAddr) public onlyOwner {\r\n    require(_newAddr != address(0));\r\n    developerFeeAccount = _newAddr;\r\n  }\r\n\r\n  /**\r\n   * Changes the proportion of fund balance sent to the developers each cycle. May only decrease. Only callable by owner.\r\n   * @param _newProp the new proportion, fixed point decimal\r\n   */\r\n  function changeDeveloperFeeProportion(uint256 _newProp) public onlyOwner {\r\n    require(_newProp < developerFeeProportion);\r\n    developerFeeProportion = _newProp;\r\n  }\r\n\r\n  /**\r\n   * Changes the proportion of fund balance given to Kairo holders each cycle. Only callable by owner.\r\n   * @param _newProp the new proportion, fixed point decimal\r\n   */\r\n  function changeCommissionRate(uint256 _newProp) public onlyOwner {\r\n    commissionRate = _newProp;\r\n  }\r\n\r\n  /**\r\n   * Changes the owner of the ControlToken contract.\r\n   * @param  _newOwner the new owner address\r\n   */\r\n  function changeControlTokenOwner(address _newOwner) public onlyOwner whenPaused {\r\n    require(_newOwner != address(0));\r\n    cToken.transferOwnership(_newOwner);\r\n  }\r\n\r\n  /**\r\n   * Start cycle functions\r\n   */\r\n\r\n  /**\r\n   * Starts a new investment cycle.\r\n   */\r\n  function startNewCycle() public during(CyclePhase.Finalized) whenNotPaused rewardCaller {\r\n    require(initialized);\r\n\r\n    //Update values\r\n    cyclePhase = CyclePhase.ChangeMaking;\r\n    startTimeOfCyclePhase = now;\r\n    cycleNumber = cycleNumber.add(1);\r\n\r\n    //Reset data\r\n    for (uint256 i = 0; i < participants.length; i = i.add(1)) {\r\n      __resetMemberData(participants[i]);\r\n    }\r\n    for (i = 0; i < proposals.length; i = i.add(1)) {\r\n      __resetProposalData(i);\r\n    }\r\n    delete proposals;\r\n    delete numProposals;\r\n    delete cycleTotalForStake;\r\n\r\n    //Emit event\r\n    CycleStarted(cycleNumber, now);\r\n  }\r\n\r\n  /**\r\n   * Resets cycle specific data for a given participant.\r\n   * @param _addr the participant whose data will be reset\r\n   */\r\n  function __resetMemberData(address _addr) internal {\r\n    delete createdProposalCount[_addr];\r\n    delete userStakedProposalCount[_addr];\r\n\r\n    //Remove the associated corresponding control staked for/against  each proposal\r\n    for (uint256 i = 0; i < proposals.length; i = i.add(1)) {\r\n      delete forStakedControlOfProposalOfUser[i][_addr];\r\n      delete againstStakedControlOfProposalOfUser[i][_addr];\r\n    }\r\n  }\r\n\r\n  /**\r\n   * Resets cycle specific data for a give proposal\r\n   * @param _proposalId ID of proposal whose data will be reset\r\n   */\r\n  function __resetProposalData(uint256 _proposalId) internal {\r\n    delete isTokenAlreadyProposed[proposals[_proposalId].tokenAddress];\r\n    delete forStakedControlOfProposal[_proposalId];\r\n    delete againstStakedControlOfProposal[_proposalId];\r\n  }\r\n\r\n  /**\r\n   * ChangeMakingTime functions\r\n   */\r\n\r\n  /**\r\n   * Deposit Ether into the fund.\r\n   */\r\n  function deposit()\r\n    public\r\n    payable\r\n    during(CyclePhase.ChangeMaking)\r\n    whenNotPaused\r\n  {\r\n    //If caller is not a participant, add them to the participants list\r\n    if (!isParticipant[msg.sender]) {\r\n      participants.push(msg.sender);\r\n      isParticipant[msg.sender] = true;\r\n    }\r\n\r\n    //Register investment\r\n    balanceOf[msg.sender] = balanceOf[msg.sender].add(msg.value);\r\n    totalFundsInWeis = totalFundsInWeis.add(msg.value);\r\n\r\n    //Deposits during all cycles will grant you Kairo in the testnet alpha\r\n    //Uncomment in mainnet version\r\n    //if (cycleNumber == 1) {\r\n      //Give control tokens proportional to investment\r\n      cToken.mint(msg.sender, msg.value);\r\n    //}\r\n\r\n    //Emit event\r\n    Deposit(cycleNumber, msg.sender, msg.value, now);\r\n  }\r\n\r\n  /**\r\n   * Withdraws a certain amount of Ether from the user's account. Cannot be called during the first cycle.\r\n   * @param _amountInWeis amount of Ether to be withdrawn\r\n   */\r\n  function withdraw(uint256 _amountInWeis)\r\n    public\r\n    during(CyclePhase.ChangeMaking)\r\n    onlyParticipant\r\n    whenNotPaused\r\n  {\r\n    require(cycleNumber != 1);\r\n\r\n    //Subtract from account\r\n    totalFundsInWeis = totalFundsInWeis.sub(_amountInWeis);\r\n    balanceOf[msg.sender] = balanceOf[msg.sender].sub(_amountInWeis);\r\n\r\n    //Transfer Ether to user\r\n    msg.sender.transfer(_amountInWeis);\r\n\r\n    //Emit event\r\n    Withdraw(cycleNumber, msg.sender, _amountInWeis, now);\r\n  }\r\n\r\n  /**\r\n   * Ends the ChangeMaking phase.\r\n   */\r\n  function endChangeMakingTime() public during(CyclePhase.ChangeMaking) whenNotPaused rewardCaller {\r\n    require(now >= startTimeOfCyclePhase.add(timeOfChangeMaking));\r\n\r\n    startTimeOfCyclePhase = now;\r\n    cyclePhase = CyclePhase.ProposalMaking;\r\n\r\n    ChangeMakingTimeEnded(cycleNumber, now);\r\n  }\r\n\r\n  /**\r\n   * ProposalMakingTime functions\r\n   */\r\n\r\n  /**\r\n   * Creates a new investment proposal for an ERC20 token.\r\n   * @param _tokenAddress address of the ERC20 token contract\r\n   * @param _stakeInWeis amount of Kairos to be staked in support of the proposal\r\n   */\r\n  function createProposal(\r\n    address _tokenAddress,\r\n    uint256 _stakeInWeis\r\n  )\r\n    public\r\n    during(CyclePhase.ProposalMaking)\r\n    onlyParticipant\r\n    whenNotPaused\r\n  {\r\n    require(numProposals < maxProposals);\r\n    require(!isTokenAlreadyProposed[_tokenAddress]);\r\n    require(createdProposalCount[msg.sender] < maxProposalsPerMember);\r\n\r\n    //Add proposal to list\r\n    proposals.push(Proposal({\r\n      tokenAddress: _tokenAddress,\r\n      buyPriceInWeis: 0,\r\n      sellPriceInWeis: 0,\r\n      numFor: 0,\r\n      numAgainst: 0,\r\n      isSold: false\r\n    }));\r\n\r\n    //Update values about proposal\r\n    isTokenAlreadyProposed[_tokenAddress] = true;\r\n    createdProposalCount[msg.sender] = createdProposalCount[msg.sender].add(1);\r\n    numProposals = numProposals.add(1);\r\n\r\n    //Stake control tokens\r\n    uint256 proposalId = proposals.length - 1;\r\n    stakeProposal(proposalId, _stakeInWeis, true);\r\n\r\n    //Emit event\r\n    NewProposal(cycleNumber, proposalId, _tokenAddress, _stakeInWeis);\r\n  }\r\n\r\n  /**\r\n   * Stakes for or against an investment proposal.\r\n   * @param _proposalId ID of the proposal the user wants to support\r\n   * @param _stakeInWeis amount of Kairo to be staked in support of the proposal\r\n   */\r\n  function stakeProposal(uint256 _proposalId, uint256 _stakeInWeis, bool _support)\r\n    public\r\n    during(CyclePhase.ProposalMaking)\r\n    onlyParticipant\r\n    whenNotPaused\r\n  {\r\n    require(_proposalId < proposals.length); //Valid ID\r\n    require(isTokenAlreadyProposed[proposals[_proposalId].tokenAddress]); //Non-empty proposal\r\n\r\n    /**\r\n     * Stake Kairos\r\n     */\r\n    //Ensure stake is larger than the minimum proportion of Kairo balance\r\n    require(_stakeInWeis.mul(PRECISION) >= minStakeProportion.mul(cToken.balanceOf(msg.sender)));\r\n    require(_stakeInWeis > 0); //Ensure positive stake amount\r\n\r\n    //Collect Kairos as stake\r\n    cToken.ownerCollectFrom(msg.sender, _stakeInWeis);\r\n\r\n    //Update stake data\r\n    if (_support && againstStakedControlOfProposalOfUser[_proposalId][msg.sender] == 0) {\r\n      //Support proposal, hasn't staked against it\r\n      if (forStakedControlOfProposalOfUser[_proposalId][msg.sender] == 0) {\r\n        proposals[_proposalId].numFor = proposals[_proposalId].numFor.add(1);\r\n      }\r\n      forStakedControlOfProposal[_proposalId] = forStakedControlOfProposal[_proposalId].add(_stakeInWeis);\r\n      forStakedControlOfProposalOfUser[_proposalId][msg.sender] = forStakedControlOfProposalOfUser[_proposalId][msg.sender].add(_stakeInWeis);\r\n      cycleTotalForStake = cycleTotalForStake.add(_stakeInWeis);\r\n    } else if (!_support && forStakedControlOfProposalOfUser[_proposalId][msg.sender] == 0) {\r\n      //Against proposal, hasn't staked for it\r\n      if (againstStakedControlOfProposalOfUser[_proposalId][msg.sender] == 0) {\r\n        proposals[_proposalId].numAgainst = proposals[_proposalId].numAgainst.add(1);\r\n      }\r\n      againstStakedControlOfProposal[_proposalId] = againstStakedControlOfProposal[_proposalId].add(_stakeInWeis);\r\n      againstStakedControlOfProposalOfUser[_proposalId][msg.sender] = againstStakedControlOfProposalOfUser[_proposalId][msg.sender].add(_stakeInWeis);\r\n    } else {\r\n      revert();\r\n    }\r\n    userStakedProposalCount[msg.sender] = userStakedProposalCount[msg.sender].add(1);\r\n\r\n    //Emit event\r\n    StakedProposal(cycleNumber, _proposalId, _stakeInWeis, _support);\r\n  }\r\n\r\n  /**\r\n   * Cancels staking in a proposal.\r\n   * @param _proposalId ID of the proposal\r\n   */\r\n  function cancelProposalStake(uint256 _proposalId)\r\n    public\r\n    during(CyclePhase.ProposalMaking)\r\n    onlyParticipant\r\n    whenNotPaused\r\n  {\r\n    require(_proposalId < proposals.length); //Valid ID\r\n    require(proposals[_proposalId].numFor > 0); //Non-empty proposal\r\n\r\n    //Remove stake data\r\n    uint256 forStake = forStakedControlOfProposalOfUser[_proposalId][msg.sender];\r\n    uint256 againstStake = againstStakedControlOfProposalOfUser[_proposalId][msg.sender];\r\n    uint256 stake = forStake.add(againstStake);\r\n    if (forStake > 0) {\r\n      forStakedControlOfProposal[_proposalId] = forStakedControlOfProposal[_proposalId].sub(stake);\r\n      cycleTotalForStake = cycleTotalForStake.sub(stake);\r\n      proposals[_proposalId].numFor = proposals[_proposalId].numFor.sub(1);\r\n    } else if (againstStake > 0) {\r\n      againstStakedControlOfProposal[_proposalId] = againstStakedControlOfProposal[_proposalId].sub(stake);\r\n      proposals[_proposalId].numAgainst = proposals[_proposalId].numAgainst.sub(1);\r\n    } else {\r\n      return;\r\n    }\r\n    userStakedProposalCount[msg.sender] = userStakedProposalCount[msg.sender].sub(1);\r\n\r\n    delete forStakedControlOfProposalOfUser[_proposalId][msg.sender];\r\n    delete againstStakedControlOfProposalOfUser[_proposalId][msg.sender];\r\n\r\n    //Return stake\r\n    cToken.transfer(msg.sender, stake);\r\n\r\n    //Delete proposal if necessary\r\n    if (proposals[_proposalId].numFor == 0) {\r\n      __returnStakes(_proposalId);\r\n      __resetProposalData(_proposalId);\r\n      numProposals = numProposals.sub(1);\r\n      delete proposals[_proposalId];\r\n    }\r\n  }\r\n\r\n  /**\r\n   * Ends the ProposalMaking phase.\r\n   */\r\n  function endProposalMakingTime()\r\n    public\r\n    during(CyclePhase.ProposalMaking)\r\n    rewardCaller\r\n    whenNotPaused\r\n  {\r\n    require(now >= startTimeOfCyclePhase.add(timeOfProposalMaking));\r\n\r\n    startTimeOfCyclePhase = now;\r\n    cyclePhase = CyclePhase.Waiting;\r\n\r\n    __penalizeNonparticipation();\r\n\r\n    ProposalMakingTimeEnded(cycleNumber, now);\r\n  }\r\n\r\n  /**\r\n   * Penalizes non-participation by burning a proportion of Kairo balance.\r\n   */\r\n  function __penalizeNonparticipation() internal {\r\n    for (uint256 i = 0; i < participants.length; i = i.add(1)) {\r\n      address participant = participants[i];\r\n      uint256 kairoBalance = cToken.balanceOf(participant);\r\n      if (userStakedProposalCount[participant] == 0 && kairoBalance > 0) {\r\n        uint256 decreaseAmount = kairoBalance.mul(minStakeProportion).div(PRECISION);\r\n        cToken.ownerBurn(participant, decreaseAmount);\r\n      }\r\n    }\r\n  }\r\n\r\n  /**\r\n   * Waiting phase functions\r\n   */\r\n\r\n  function executeProposal(uint256 _proposalId)\r\n    public\r\n    during(CyclePhase.Waiting)\r\n    whenNotPaused\r\n    rewardCaller\r\n  {\r\n    require(__proposalIsValid(_proposalId));\r\n    __handleInvestment(_proposalId, true);\r\n  }\r\n\r\n  function endWaitingPhase()\r\n    public\r\n    during(CyclePhase.Waiting)\r\n    whenNotPaused\r\n    rewardCaller\r\n  {\r\n    require(now >= startTimeOfCyclePhase.add(timeOfWaiting));\r\n\r\n    startTimeOfCyclePhase = now;\r\n    cyclePhase = CyclePhase.Selling;\r\n\r\n    WaitingPhaseEnded(cycleNumber, now);\r\n  }\r\n\r\n  /**\r\n   * Selling phase functions\r\n   */\r\n\r\n  /**\r\n   * Called by user to sell the assets a proposal invested in\r\n   * @param _proposalId the ID of the proposal\r\n   */\r\n  function sellProposalAsset(uint256 _proposalId)\r\n    public\r\n    during(CyclePhase.Selling)\r\n    whenNotPaused\r\n    rewardCaller\r\n  {\r\n    require(__proposalIsValid(_proposalId));\r\n    require(proposals[_proposalId].buyPriceInWeis > 0);\r\n    __handleInvestment(_proposalId, false);\r\n    __settleBets(_proposalId);\r\n    proposals[_proposalId].isSold = true;\r\n  }\r\n\r\n  /**\r\n   * Finalize the cycle by redistributing user balances and settling investment proposals.\r\n   */\r\n  function finalizeCycle() public during(CyclePhase.Selling) whenNotPaused rewardCaller {\r\n    require(proposalsAreSold());\r\n\r\n    //Update cycle values\r\n    startTimeOfCyclePhase = now;\r\n    cyclePhase = CyclePhase.Finalized;\r\n\r\n    //Burn any Kairo left in BetokenFund's account\r\n    cToken.burnOwnerBalance();\r\n\r\n    //Distribute funds\r\n    __distributeFundsAfterCycleEnd();\r\n\r\n    //Emit event\r\n    CycleFinalized(cycleNumber, now);\r\n  }\r\n\r\n  /**\r\n   * Returns true if the tokens proposals have invested in have all been sold.\r\n   */\r\n  function proposalsAreSold() public view returns (bool) {\r\n    for (uint256 i = 0; i < proposals.length; i = i.add(1)) {\r\n      if (__proposalIsValid(i) && !proposals[i].isSold && proposals[i].buyPriceInWeis > 0) {\r\n        return false;\r\n      }\r\n    }\r\n    return true;\r\n  }\r\n\r\n  /**\r\n   * Internal use functions\r\n   */\r\n\r\n  function __proposalIsValid(uint256 _proposalId) internal view returns (bool) {\r\n    return isTokenAlreadyProposed[proposals[_proposalId].tokenAddress];\r\n  }\r\n\r\n  function __addControlTokenReceipientAsParticipant(address _receipient) public {\r\n    require(msg.sender == controlTokenAddr);\r\n    isParticipant[_receipient] = true;\r\n    participants.push(_receipient);\r\n  }\r\n\r\n  /**\r\n   * Returns all stakes of a proposal\r\n   * @param _proposalId ID of the proposal\r\n   */\r\n  function __returnStakes(uint256 _proposalId) internal {\r\n    for (uint256 j = 0; j < participants.length; j = j.add(1)) {\r\n      address participant = participants[j];\r\n      uint256 stake = forStakedControlOfProposalOfUser[_proposalId][participant].add(againstStakedControlOfProposalOfUser[_proposalId][participant]);\r\n      if (stake != 0) {\r\n        cToken.transfer(participant, stake);\r\n      }\r\n    }\r\n  }\r\n\r\n  /**\r\n   * Settles an investment proposal in terms of profitability.\r\n   * @param _proposalId ID of the proposal\r\n   */\r\n  function __settleBets(uint256 _proposalId) internal {\r\n    Proposal storage prop = proposals[_proposalId];\r\n\r\n    uint256 forMultiplier = prop.sellPriceInWeis.mul(PRECISION).div(prop.buyPriceInWeis);\r\n    uint256 againstMultiplier = 0;\r\n    if (prop.sellPriceInWeis < prop.buyPriceInWeis.mul(2)) {\r\n      againstMultiplier = prop.buyPriceInWeis.mul(2).sub(prop.sellPriceInWeis).mul(PRECISION).div(prop.buyPriceInWeis);\r\n    }\r\n\r\n    for (uint256 j = 0; j < participants.length; j = j.add(1)) {\r\n      address participant = participants[j];\r\n      uint256 stake = 0;\r\n      if (forStakedControlOfProposalOfUser[_proposalId][participant] > 0) {\r\n        //User supports proposal\r\n        stake = forStakedControlOfProposalOfUser[_proposalId][participant];\r\n        //Mint instead of transfer. Ensures that there are always enough tokens.\r\n        //Extra will be burnt right after so no problem there.\r\n        cToken.mint(participant, stake.mul(forMultiplier).div(PRECISION));\r\n      } else if (againstStakedControlOfProposalOfUser[_proposalId][participant] > 0) {\r\n        //User is against proposal\r\n        stake = againstStakedControlOfProposalOfUser[_proposalId][participant];\r\n        //Mint instead of transfer. Ensures that there are always enough tokens.\r\n        //Extra will be burnt right after so no problem there.\r\n        cToken.mint(participant, stake.mul(againstMultiplier).div(PRECISION));\r\n      }\r\n    }\r\n  }\r\n\r\n  /**\r\n   * Distributes the funds accourding to previously held proportions. Pays commission to Kairo holders,\r\n   * and developer fees to developers.\r\n   */\r\n  function __distributeFundsAfterCycleEnd() internal {\r\n    uint256 profit = 0;\r\n    if (this.balance > totalFundsInWeis) {\r\n      profit = this.balance - totalFundsInWeis;\r\n    }\r\n    uint256 totalCommission = commissionRate.mul(profit).div(PRECISION);\r\n    uint256 devFee = developerFeeProportion.mul(this.balance).div(PRECISION);\r\n    uint256 newTotalRegularFunds = this.balance.sub(totalCommission).sub(devFee);\r\n\r\n    //Distributes funds to participants\r\n    for (uint256 i = 0; i < participants.length; i = i.add(1)) {\r\n      address participant = participants[i];\r\n      uint256 newBalance = 0;\r\n      //Add share\r\n      if (totalFundsInWeis > 0) {\r\n        newBalance = newBalance.add(newTotalRegularFunds.mul(balanceOf[participant]).div(totalFundsInWeis));\r\n      }\r\n      //Add commission\r\n      //Adding a check for nonzero Kairo supply here makes Truffle go apeshit. Edge case anyways, so whatevs.\r\n      if (cToken.totalSupply() > 0) {\r\n        newBalance = newBalance.add(totalCommission.mul(cToken.balanceOf(participant)).div(cToken.totalSupply()));\r\n      }\r\n      //Update balance\r\n      balanceOf[participant] = newBalance;\r\n    }\r\n\r\n    //Update values\r\n    uint256 newTotalFunds = newTotalRegularFunds.add(totalCommission);\r\n    ROI(cycleNumber, totalFundsInWeis, newTotalFunds);\r\n    totalFundsInWeis = newTotalFunds;\r\n\r\n    //Transfer fees\r\n    developerFeeAccount.transfer(devFee);\r\n\r\n    //Emit event\r\n    CommissionPaid(cycleNumber, totalCommission);\r\n  }\r\n\r\n  function __handleInvestment(uint256 _proposalId, bool _buy) internal {\r\n    uint256 srcAmount;\r\n    uint256 actualDestAmount;\r\n    uint256 actualRate;\r\n    address destAddr = proposals[_proposalId].tokenAddress;\r\n    DetailedERC20 destToken = DetailedERC20(destAddr);\r\n\r\n    if (_buy) {\r\n      //Make buy orders\r\n\r\n      //Calculate investment amount\r\n      srcAmount = totalFundsInWeis.mul(forStakedControlOfProposal[_proposalId]).div(cycleTotalForStake);\r\n\r\n      uint256 beforeBalance = this.balance;\r\n\r\n      //Do trade\r\n      actualDestAmount = kyber.trade.value(srcAmount)(\r\n        ETH_TOKEN_ADDRESS,\r\n        srcAmount,\r\n        destToken,\r\n        address(this),\r\n        MAX_QTY,\r\n        1,\r\n        address(this)\r\n      );\r\n\r\n      //Record buy price\r\n      require(actualDestAmount > 0);\r\n      actualRate = beforeBalance.sub(this.balance).mul(PRECISION).div(actualDestAmount);\r\n      proposals[_proposalId].buyPriceInWeis = actualRate;\r\n    } else {\r\n      //Make sell orders\r\n\r\n      //Get sell amount\r\n      srcAmount = destToken.balanceOf(address(this));\r\n\r\n      //Do trade\r\n      destToken.approve(kyberAddr, srcAmount);\r\n      actualDestAmount = kyber.trade(\r\n        destToken,\r\n        srcAmount,\r\n        ETH_TOKEN_ADDRESS,\r\n        address(this),\r\n        MAX_QTY,\r\n        1,\r\n        address(this)\r\n      );\r\n      destToken.approve(kyberAddr, 0);\r\n\r\n      //Record sell price\r\n      require(srcAmount > destToken.balanceOf(address(this)));\r\n      actualRate = actualDestAmount.mul(PRECISION).div(srcAmount.sub(destToken.balanceOf(address(this))));\r\n      proposals[_proposalId].sellPriceInWeis = actualRate;\r\n    }\r\n  }\r\n\r\n  function() public payable {\r\n    if (msg.sender != kyberAddr) {\r\n      revert();\r\n    }\r\n  }\r\n}",
  "sourcePath": "D:\\msi-cn\\Documents\\GitHub\\betoken\\eth\\contracts\\BetokenFund.sol",
  "compiler": {
    "name": "solc",
    "version": "0.4.19+commit.c4cbbb05.Emscripten.clang"
  },
  "schemaVersion": "2.0.0",
  "updatedAt": "2018-03-07T20:01:02.659Z"
}