{
  "contractName": "BetokenFund",
  "abi": [
    {
      "constant": true,
      "inputs": [
        {
          "name": "",
          "type": "address"
        }
      ],
      "name": "isMaliciousCoin",
      "outputs": [
        {
          "name": "",
          "type": "bool"
        }
      ],
      "payable": false,
      "stateMutability": "view",
      "type": "function"
    },
    {
      "constant": true,
      "inputs": [],
      "name": "allowEmergencyWithdraw",
      "outputs": [
        {
          "name": "",
          "type": "bool"
        }
      ],
      "payable": false,
      "stateMutability": "view",
      "type": "function"
    },
    {
      "constant": true,
      "inputs": [],
      "name": "developerFeeAccount",
      "outputs": [
        {
          "name": "",
          "type": "address"
        }
      ],
      "payable": false,
      "stateMutability": "view",
      "type": "function"
    },
    {
      "constant": true,
      "inputs": [
        {
          "name": "",
          "type": "address"
        },
        {
          "name": "",
          "type": "uint256"
        }
      ],
      "name": "userProposals",
      "outputs": [
        {
          "name": "tokenAddress",
          "type": "address"
        },
        {
          "name": "cycleNumber",
          "type": "uint256"
        },
        {
          "name": "stake",
          "type": "uint256"
        },
        {
          "name": "tokenAmount",
          "type": "uint256"
        },
        {
          "name": "buyPriceInWeis",
          "type": "uint256"
        },
        {
          "name": "sellPriceInWeis",
          "type": "uint256"
        },
        {
          "name": "isSold",
          "type": "bool"
        }
      ],
      "payable": false,
      "stateMutability": "view",
      "type": "function"
    },
    {
      "constant": true,
      "inputs": [],
      "name": "startTimeOfCyclePhase",
      "outputs": [
        {
          "name": "",
          "type": "uint256"
        }
      ],
      "payable": false,
      "stateMutability": "view",
      "type": "function"
    },
    {
      "constant": true,
      "inputs": [],
      "name": "cycleNumber",
      "outputs": [
        {
          "name": "",
          "type": "uint256"
        }
      ],
      "payable": false,
      "stateMutability": "view",
      "type": "function"
    },
    {
      "constant": false,
      "inputs": [],
      "name": "unpause",
      "outputs": [],
      "payable": false,
      "stateMutability": "nonpayable",
      "type": "function"
    },
    {
      "constant": true,
      "inputs": [],
      "name": "controlTokenInflation",
      "outputs": [
        {
          "name": "",
          "type": "uint256"
        }
      ],
      "payable": false,
      "stateMutability": "view",
      "type": "function"
    },
    {
      "constant": true,
      "inputs": [
        {
          "name": "",
          "type": "address"
        }
      ],
      "name": "isStableCoin",
      "outputs": [
        {
          "name": "",
          "type": "bool"
        }
      ],
      "payable": false,
      "stateMutability": "view",
      "type": "function"
    },
    {
      "constant": true,
      "inputs": [],
      "name": "paused",
      "outputs": [
        {
          "name": "",
          "type": "bool"
        }
      ],
      "payable": false,
      "stateMutability": "view",
      "type": "function"
    },
    {
      "constant": true,
      "inputs": [],
      "name": "commissionRate",
      "outputs": [
        {
          "name": "",
          "type": "uint256"
        }
      ],
      "payable": false,
      "stateMutability": "view",
      "type": "function"
    },
    {
      "constant": true,
      "inputs": [],
      "name": "functionCallReward",
      "outputs": [
        {
          "name": "",
          "type": "uint256"
        }
      ],
      "payable": false,
      "stateMutability": "view",
      "type": "function"
    },
    {
      "constant": true,
      "inputs": [],
      "name": "aumThresholdInWeis",
      "outputs": [
        {
          "name": "",
          "type": "uint256"
        }
      ],
      "payable": false,
      "stateMutability": "view",
      "type": "function"
    },
    {
      "constant": true,
      "inputs": [],
      "name": "totalFundsInWeis",
      "outputs": [
        {
          "name": "",
          "type": "uint256"
        }
      ],
      "payable": false,
      "stateMutability": "view",
      "type": "function"
    },
    {
      "constant": true,
      "inputs": [
        {
          "name": "",
          "type": "address"
        }
      ],
      "name": "lastCommissionRedemption",
      "outputs": [
        {
          "name": "",
          "type": "uint256"
        }
      ],
      "payable": false,
      "stateMutability": "view",
      "type": "function"
    },
    {
      "constant": false,
      "inputs": [],
      "name": "pause",
      "outputs": [],
      "payable": false,
      "stateMutability": "nonpayable",
      "type": "function"
    },
    {
      "constant": true,
      "inputs": [],
      "name": "owner",
      "outputs": [
        {
          "name": "",
          "type": "address"
        }
      ],
      "payable": false,
      "stateMutability": "view",
      "type": "function"
    },
    {
      "constant": true,
      "inputs": [],
      "name": "kyberAddr",
      "outputs": [
        {
          "name": "",
          "type": "address"
        }
      ],
      "payable": false,
      "stateMutability": "view",
      "type": "function"
    },
    {
      "constant": true,
      "inputs": [],
      "name": "PRECISION",
      "outputs": [
        {
          "name": "",
          "type": "uint256"
        }
      ],
      "payable": false,
      "stateMutability": "view",
      "type": "function"
    },
    {
      "constant": true,
      "inputs": [],
      "name": "developerFeeProportion",
      "outputs": [
        {
          "name": "",
          "type": "uint256"
        }
      ],
      "payable": false,
      "stateMutability": "view",
      "type": "function"
    },
    {
      "constant": true,
      "inputs": [],
      "name": "totalCommission",
      "outputs": [
        {
          "name": "",
          "type": "uint256"
        }
      ],
      "payable": false,
      "stateMutability": "view",
      "type": "function"
    },
    {
      "constant": true,
      "inputs": [],
      "name": "shareTokenAddr",
      "outputs": [
        {
          "name": "",
          "type": "address"
        }
      ],
      "payable": false,
      "stateMutability": "view",
      "type": "function"
    },
    {
      "constant": true,
      "inputs": [],
      "name": "controlTokenAddr",
      "outputs": [
        {
          "name": "",
          "type": "address"
        }
      ],
      "payable": false,
      "stateMutability": "view",
      "type": "function"
    },
    {
      "constant": false,
      "inputs": [
        {
          "name": "newOwner",
          "type": "address"
        }
      ],
      "name": "transferOwnership",
      "outputs": [],
      "payable": false,
      "stateMutability": "nonpayable",
      "type": "function"
    },
    {
      "constant": true,
      "inputs": [],
      "name": "cyclePhase",
      "outputs": [
        {
          "name": "",
          "type": "uint8"
        }
      ],
      "payable": false,
      "stateMutability": "view",
      "type": "function"
    },
    {
      "inputs": [
        {
          "name": "_cTokenAddr",
          "type": "address"
        },
        {
          "name": "_sTokenAddr",
          "type": "address"
        },
        {
          "name": "_kyberAddr",
          "type": "address"
        },
        {
          "name": "_developerFeeAccount",
          "type": "address"
        },
        {
          "name": "_cycleNumber",
          "type": "uint256"
        },
        {
          "name": "_aumThresholdInWeis",
          "type": "uint256"
        },
        {
          "name": "_phaseLengths",
          "type": "uint256[5]"
        },
        {
          "name": "_commissionRate",
          "type": "uint256"
        },
        {
          "name": "_developerFeeProportion",
          "type": "uint256"
        },
        {
          "name": "_functionCallReward",
          "type": "uint256"
        },
        {
          "name": "_controlTokenInflation",
          "type": "uint256"
        },
        {
          "name": "_stableCoins",
          "type": "address[]"
        }
      ],
      "payable": false,
      "stateMutability": "nonpayable",
      "type": "constructor"
    },
    {
      "payable": true,
      "stateMutability": "payable",
      "type": "fallback"
    },
    {
      "anonymous": false,
      "inputs": [
        {
          "indexed": true,
          "name": "_cycleNumber",
          "type": "uint256"
        },
        {
          "indexed": true,
          "name": "_newPhase",
          "type": "uint256"
        },
        {
          "indexed": false,
          "name": "_timestamp",
          "type": "uint256"
        }
      ],
      "name": "ChangedPhase",
      "type": "event"
    },
    {
      "anonymous": false,
      "inputs": [
        {
          "indexed": true,
          "name": "_cycleNumber",
          "type": "uint256"
        },
        {
          "indexed": true,
          "name": "_sender",
          "type": "address"
        },
        {
          "indexed": false,
          "name": "_tokenAddress",
          "type": "address"
        },
        {
          "indexed": false,
          "name": "_amount",
          "type": "uint256"
        },
        {
          "indexed": false,
          "name": "_timestamp",
          "type": "uint256"
        }
      ],
      "name": "Deposit",
      "type": "event"
    },
    {
      "anonymous": false,
      "inputs": [
        {
          "indexed": true,
          "name": "_cycleNumber",
          "type": "uint256"
        },
        {
          "indexed": true,
          "name": "_sender",
          "type": "address"
        },
        {
          "indexed": false,
          "name": "_tokenAddress",
          "type": "address"
        },
        {
          "indexed": false,
          "name": "_amount",
          "type": "uint256"
        },
        {
          "indexed": false,
          "name": "_timestamp",
          "type": "uint256"
        }
      ],
      "name": "Withdraw",
      "type": "event"
    },
    {
      "anonymous": false,
      "inputs": [
        {
          "indexed": true,
          "name": "_cycleNumber",
          "type": "uint256"
        },
        {
          "indexed": true,
          "name": "_sender",
          "type": "address"
        },
        {
          "indexed": false,
          "name": "_id",
          "type": "uint256"
        },
        {
          "indexed": false,
          "name": "_tokenAddress",
          "type": "address"
        },
        {
          "indexed": false,
          "name": "_stakeInWeis",
          "type": "uint256"
        }
      ],
      "name": "CreatedProposal",
      "type": "event"
    },
    {
      "anonymous": false,
      "inputs": [
        {
          "indexed": true,
          "name": "_cycleNumber",
          "type": "uint256"
        },
        {
          "indexed": true,
          "name": "_sender",
          "type": "address"
        },
        {
          "indexed": false,
          "name": "_proposalId",
          "type": "uint256"
        },
        {
          "indexed": false,
          "name": "_receivedKairos",
          "type": "uint256"
        }
      ],
      "name": "RedeemedProposal",
      "type": "event"
    },
    {
      "anonymous": false,
      "inputs": [
        {
          "indexed": true,
          "name": "_cycleNumber",
          "type": "uint256"
        },
        {
          "indexed": false,
          "name": "_beforeTotalFunds",
          "type": "uint256"
        },
        {
          "indexed": false,
          "name": "_afterTotalFunds",
          "type": "uint256"
        }
      ],
      "name": "ROI",
      "type": "event"
    },
    {
      "anonymous": false,
      "inputs": [
        {
          "indexed": true,
          "name": "_cycleNumber",
          "type": "uint256"
        },
        {
          "indexed": true,
          "name": "_sender",
          "type": "address"
        },
        {
          "indexed": false,
          "name": "_commission",
          "type": "uint256"
        }
      ],
      "name": "CommissionPaid",
      "type": "event"
    },
    {
      "anonymous": false,
      "inputs": [
        {
          "indexed": true,
          "name": "_cycleNumber",
          "type": "uint256"
        },
        {
          "indexed": false,
          "name": "_totalCommissionInWeis",
          "type": "uint256"
        }
      ],
      "name": "TotalCommissionPaid",
      "type": "event"
    },
    {
      "anonymous": false,
      "inputs": [],
      "name": "Pause",
      "type": "event"
    },
    {
      "anonymous": false,
      "inputs": [],
      "name": "Unpause",
      "type": "event"
    },
    {
      "anonymous": false,
      "inputs": [
        {
          "indexed": true,
          "name": "previousOwner",
          "type": "address"
        },
        {
          "indexed": true,
          "name": "newOwner",
          "type": "address"
        }
      ],
      "name": "OwnershipTransferred",
      "type": "event"
    },
    {
      "constant": true,
      "inputs": [
        {
          "name": "_userAddr",
          "type": "address"
        }
      ],
      "name": "proposalsCount",
      "outputs": [
        {
          "name": "_count",
          "type": "uint256"
        }
      ],
      "payable": false,
      "stateMutability": "view",
      "type": "function"
    },
    {
      "constant": true,
      "inputs": [
        {
          "name": "_userAddr",
          "type": "address"
        }
      ],
      "name": "proposals",
      "outputs": [
        {
          "components": [
            {
              "name": "tokenAddress",
              "type": "address"
            },
            {
              "name": "cycleNumber",
              "type": "uint256"
            },
            {
              "name": "stake",
              "type": "uint256"
            },
            {
              "name": "tokenAmount",
              "type": "uint256"
            },
            {
              "name": "buyPriceInWeis",
              "type": "uint256"
            },
            {
              "name": "sellPriceInWeis",
              "type": "uint256"
            },
            {
              "name": "isSold",
              "type": "bool"
            }
          ],
          "name": "_proposals",
          "type": "tuple[]"
        }
      ],
      "payable": false,
      "stateMutability": "view",
      "type": "function"
    },
    {
      "constant": true,
      "inputs": [],
      "name": "getPhaseLengths",
      "outputs": [
        {
          "name": "_phaseLengths",
          "type": "uint256[5]"
        }
      ],
      "payable": false,
      "stateMutability": "view",
      "type": "function"
    },
    {
      "constant": false,
      "inputs": [
        {
          "name": "_tokenAddr",
          "type": "address"
        }
      ],
      "name": "emergencyDumpToken",
      "outputs": [],
      "payable": false,
      "stateMutability": "nonpayable",
      "type": "function"
    },
    {
      "constant": false,
      "inputs": [
        {
          "name": "_proposalId",
          "type": "uint256"
        }
      ],
      "name": "emergencyRedeemStake",
      "outputs": [],
      "payable": false,
      "stateMutability": "nonpayable",
      "type": "function"
    },
    {
      "constant": false,
      "inputs": [],
      "name": "emergencyUpdateBalance",
      "outputs": [],
      "payable": false,
      "stateMutability": "nonpayable",
      "type": "function"
    },
    {
      "constant": false,
      "inputs": [
        {
          "name": "_val",
          "type": "bool"
        }
      ],
      "name": "setAllowEmergencyWithdraw",
      "outputs": [],
      "payable": false,
      "stateMutability": "nonpayable",
      "type": "function"
    },
    {
      "constant": false,
      "inputs": [],
      "name": "emergencyWithdraw",
      "outputs": [],
      "payable": false,
      "stateMutability": "nonpayable",
      "type": "function"
    },
    {
      "constant": false,
      "inputs": [
        {
          "name": "_newAddr",
          "type": "address"
        }
      ],
      "name": "changeKyberNetworkAddress",
      "outputs": [],
      "payable": false,
      "stateMutability": "nonpayable",
      "type": "function"
    },
    {
      "constant": false,
      "inputs": [
        {
          "name": "_newAddr",
          "type": "address"
        }
      ],
      "name": "changeDeveloperFeeAccount",
      "outputs": [],
      "payable": false,
      "stateMutability": "nonpayable",
      "type": "function"
    },
    {
      "constant": false,
      "inputs": [
        {
          "name": "_newProp",
          "type": "uint256"
        }
      ],
      "name": "changeDeveloperFeeProportion",
      "outputs": [],
      "payable": false,
      "stateMutability": "nonpayable",
      "type": "function"
    },
    {
      "constant": false,
      "inputs": [
        {
          "name": "_newProp",
          "type": "uint256"
        }
      ],
      "name": "changeCommissionRate",
      "outputs": [],
      "payable": false,
      "stateMutability": "nonpayable",
      "type": "function"
    },
    {
      "constant": false,
      "inputs": [
        {
          "name": "_newVal",
          "type": "uint256"
        }
      ],
      "name": "changeControlTokenInflation",
      "outputs": [],
      "payable": false,
      "stateMutability": "nonpayable",
      "type": "function"
    },
    {
      "constant": false,
      "inputs": [
        {
          "name": "_newVal",
          "type": "uint256"
        }
      ],
      "name": "changeCallReward",
      "outputs": [],
      "payable": false,
      "stateMutability": "nonpayable",
      "type": "function"
    },
    {
      "constant": false,
      "inputs": [
        {
          "name": "_newOwner",
          "type": "address"
        }
      ],
      "name": "changeControlTokenOwner",
      "outputs": [],
      "payable": false,
      "stateMutability": "nonpayable",
      "type": "function"
    },
    {
      "constant": false,
      "inputs": [
        {
          "name": "_newOwner",
          "type": "address"
        }
      ],
      "name": "changeShareTokenOwner",
      "outputs": [],
      "payable": false,
      "stateMutability": "nonpayable",
      "type": "function"
    },
    {
      "constant": false,
      "inputs": [
        {
          "name": "_stableCoin",
          "type": "address"
        }
      ],
      "name": "addStableCoin",
      "outputs": [],
      "payable": false,
      "stateMutability": "nonpayable",
      "type": "function"
    },
    {
      "constant": false,
      "inputs": [
        {
          "name": "_coin",
          "type": "address"
        },
        {
          "name": "_status",
          "type": "bool"
        }
      ],
      "name": "setMaliciousCoinStatus",
      "outputs": [],
      "payable": false,
      "stateMutability": "nonpayable",
      "type": "function"
    },
    {
      "constant": false,
      "inputs": [],
      "name": "nextPhase",
      "outputs": [],
      "payable": false,
      "stateMutability": "nonpayable",
      "type": "function"
    },
    {
      "constant": false,
      "inputs": [],
      "name": "deposit",
      "outputs": [],
      "payable": true,
      "stateMutability": "payable",
      "type": "function"
    },
    {
      "constant": false,
      "inputs": [
        {
          "name": "_tokenAddr",
          "type": "address"
        },
        {
          "name": "_tokenAmount",
          "type": "uint256"
        }
      ],
      "name": "depositToken",
      "outputs": [],
      "payable": false,
      "stateMutability": "nonpayable",
      "type": "function"
    },
    {
      "constant": false,
      "inputs": [
        {
          "name": "_amountInWeis",
          "type": "uint256"
        }
      ],
      "name": "withdraw",
      "outputs": [],
      "payable": false,
      "stateMutability": "nonpayable",
      "type": "function"
    },
    {
      "constant": false,
      "inputs": [
        {
          "name": "_tokenAddr",
          "type": "address"
        },
        {
          "name": "_amountInWeis",
          "type": "uint256"
        }
      ],
      "name": "withdrawToken",
      "outputs": [],
      "payable": false,
      "stateMutability": "nonpayable",
      "type": "function"
    },
    {
      "constant": false,
      "inputs": [
        {
          "name": "_tokenAddress",
          "type": "address"
        },
        {
          "name": "_stakeInWeis",
          "type": "uint256"
        }
      ],
      "name": "createProposal",
      "outputs": [],
      "payable": false,
      "stateMutability": "nonpayable",
      "type": "function"
    },
    {
      "constant": false,
      "inputs": [
        {
          "name": "_proposalId",
          "type": "uint256"
        }
      ],
      "name": "sellProposalAsset",
      "outputs": [],
      "payable": false,
      "stateMutability": "nonpayable",
      "type": "function"
    },
    {
      "constant": false,
      "inputs": [],
      "name": "redeemCommission",
      "outputs": [],
      "payable": false,
      "stateMutability": "nonpayable",
      "type": "function"
    },
    {
      "constant": false,
      "inputs": [
        {
          "name": "_tokenAddr",
          "type": "address"
        }
      ],
      "name": "sellLeftoverToken",
      "outputs": [],
      "payable": false,
      "stateMutability": "nonpayable",
      "type": "function"
    }
  ],
  "bytecode": "0x60606040526000805460a060020a60ff021916905534156200002057600080fd5b60405162003c9e38038062003c9e83398101604052808051919060200180519190602001805191906020018051919060200180519190602001805191602082019160c00180519190602001805191906020018051919060200180519190602001805160008054600160a060020a03191633600160a060020a03161781559201919050670de0b6b3a7640000620000c58787640100000000620002ba8102620035861704565b10620000d057600080fd5b8c600160006101000a815481600160a060020a030219169083600160a060020a031602179055508b600260006101000a815481600160a060020a030219169083600160a060020a031602179055508a600360006101000a815481600160a060020a030219169083600160a060020a031602179055508c601960016101000a815481600160a060020a030219169083600160a060020a031602179055508b601a60006101000a815481600160a060020a030219169083600160a060020a031602179055508a601b60006101000a815481600160a060020a030219169083600160a060020a0316021790555089600460006101000a815481600160a060020a030219169083600160a060020a03160217905550866010906005620001f4929190620002d1565b50506009859055600a849055600060088190556019805460ff1990811660041790915560058a9055600b859055600d849055600e899055600f805490911690555b8151811015620002a7576001601760008484815181106200025257fe5b90602001906020020151600160a060020a031681526020810191909152604001600020805460ff19169115159190911790556200029f816001640100000000620002ba8102620035861704565b905062000235565b5050505050505050505050505062000334565b600082820183811015620002ca57fe5b9392505050565b826005810192821562000302579160200282015b8281111562000302578251825591602001919060010190620002e5565b506200031092915062000314565b5090565b6200033191905b808211156200031057600081556001016200031b565b90565b61395a80620003446000396000f3006060604052600436106102585763ffffffff60e060020a6000350416630e1b1fda8114610275578063118152231461028b57806312e1ee45146102aa578063173e7707146102c957806317514eec146102e85780631a2604a4146103195780631a26af7a1461034c5780631ab371fc1461035f5780631b31527f1461038e5780631b8e2192146103f85780631c68e5281461040b5780632303b5b01461042a57806325f842c5146104405780632e1a7d4d146104535780632f1b3b03146104695780632f8847101461047f5780633341b44514610492578063338b5dea146104ff5780633eadb6db146105215780633f4ba83a14610534578063407fa2a3146105475780634d73ec111461059257806355a0c971146105a55780635c975abb146105c45780635d4c3224146105d75780635ea1d6f8146105ef578063612d194d1461060257806364542e3e146106155780636642642a1461062b5780636d6f8af4146106415780637e714dd214610654578063821f9824146106675780638456cb59146106865780638657459e146106995780638da5cb5b146106af5780639b4ef376146106c25780639e281a98146106e6578063a7c4dccf14610708578063aaf5eb681461071b578063b18e8a8d1461072e578063b2637f651461074d578063b3c1f5d814610760578063ba25887d1461077f578063c0320dbc14610792578063d0e30db0146107a5578063d7615d37146107ad578063db2e21bc146107c0578063dc87454c146107d3578063dfc51a25146107e6578063e7476abf14610808578063f2fde38b14610827578063f6558b0014610846575b60035433600160a060020a0390811691161461027357600080fd5b005b341561028057600080fd5b61027360043561087d565b341561029657600080fd5b610273600160a060020a0360043516610993565b34156102b557600080fd5b610273600160a060020a0360043516610a14565b34156102d457600080fd5b610273600160a060020a0360043516610ae7565b34156102f357600080fd5b610307600160a060020a0360043516610bbb565b60405190815260200160405180910390f35b341561032457600080fd5b610338600160a060020a0360043516610bd6565b604051901515815260200160405180910390f35b341561035757600080fd5b610338610beb565b341561036a57600080fd5b610372610bf4565b604051600160a060020a03909116815260200160405180910390f35b341561039957600080fd5b6103b0600160a060020a0360043516602435610c03565b604051600160a060020a03909716875260208701959095526040808701949094526060860192909252608085015260a084015290151560c083015260e0909101905180910390f35b341561040357600080fd5b610273610c69565b341561041657600080fd5b610273600160a060020a0360043516610e7d565b341561043557600080fd5b610273600435610f2c565b341561044b57600080fd5b610307610f4c565b341561045e57600080fd5b610273600435610f52565b341561047457600080fd5b610273600435611148565b341561048a57600080fd5b610307611168565b341561049d57600080fd5b6104b1600160a060020a036004351661116e565b604051602080825281908101838181518152602001915080516000925b818410156104ee57602080850284010151815260200192600101926104ce565b925050509250505060405180910390f35b341561050a57600080fd5b610273600160a060020a0360043516602435611249565b341561052c57600080fd5b6102736117b8565b341561053f57600080fd5b610273611b20565b341561055257600080fd5b61055a611b9f565b604051808260a080838360005b8381101561057f578082015183820152602001610567565b5050505090500191505060405180910390f35b341561059d57600080fd5b610307611bdd565b34156105b057600080fd5b610338600160a060020a0360043516611be3565b34156105cf57600080fd5b610338611bf8565b34156105e257600080fd5b6102736004351515611c08565b34156105fa57600080fd5b610307611c4e565b341561060d57600080fd5b610307611c54565b341561062057600080fd5b610273600435611c5a565b341561063657600080fd5b610273600435611c88565b341561064c57600080fd5b610307611ca8565b341561065f57600080fd5b610307611cae565b341561067257600080fd5b610307600160a060020a0360043516611cb4565b341561069157600080fd5b610273611cc6565b34156106a457600080fd5b610273600435611d4a565b34156106ba57600080fd5b610372611f2d565b34156106cd57600080fd5b610273600160a060020a03600435166024351515611f3c565b34156106f157600080fd5b610273600160a060020a0360043516602435611faf565b341561071357600080fd5b61037261237a565b341561072657600080fd5b610307612389565b341561073957600080fd5b610273600160a060020a036004351661238f565b341561075857600080fd5b6102736123ee565b341561076b57600080fd5b610273600160a060020a0360043516612431565b341561078a57600080fd5b61030761249d565b341561079d57600080fd5b6103076124a3565b6102736124a9565b34156107b857600080fd5b610372612769565b34156107cb57600080fd5b610273612778565b34156107de57600080fd5b610372612a3a565b34156107f157600080fd5b610273600160a060020a0360043516602435612a49565b341561081357600080fd5b610273600160a060020a0360043516612e3c565b341561083257600080fd5b610273600160a060020a0360043516612ed9565b341561085157600080fd5b610859612f74565b6040518082600481111561086957fe5b60ff16815260200191505060405180910390f35b60008054819060a060020a900460ff16151561089857600080fd5b600f5460ff1615156108a957600080fd5b600160a060020a03331660009081526016602052604090208054849081106108cd57fe5b9060005260206000209060070201915060055482600101541415156108f157600080fd5b5060028101546000811161090457600080fd5b6000600283018190556019546101009004600160a060020a03169063a9059cbb90339084906040516020015260405160e060020a63ffffffff8516028152600160a060020a0390921660048301526024820152604401602060405180830381600087803b151561097357600080fd5b6102c65a03f1151561098457600080fd5b50505060405180515050505050565b60005433600160a060020a039081169116146109ae57600080fd5b60005460a060020a900460ff1615156109c657600080fd5b600160a060020a03811615156109db57600080fd5b60038054600160a060020a0390921673ffffffffffffffffffffffffffffffffffffffff199283168117909155601b8054909216179055565b60005433600160a060020a03908116911614610a2f57600080fd5b60048060195460ff166004811115610a4357fe5b14610a4d57600080fd5b60005460a060020a900460ff161515610a6557600080fd5b610ae28283600160a060020a03166370a082313060006040516020015260405160e060020a63ffffffff8416028152600160a060020a039091166004820152602401602060405180830381600087803b1515610ac057600080fd5b6102c65a03f11515610ad157600080fd5b505050604051805190506000612f7d565b505050565b600060048060195460ff166004811115610afd57fe5b14610b0757600080fd5b60005460a060020a900460ff1615610b1e57600080fd5b30600160a060020a0316319150610b868384600160a060020a03166370a082313060006040516020015260405160e060020a63ffffffff8416028152600160a060020a039091166004820152602401602060405180830381600087803b1515610ac057600080fd5b50610bb3610ba4600160a060020a033016318463ffffffff61357416565b6007549063ffffffff61358616565b600755505050565b600160a060020a031660009081526016602052604090205490565b60186020526000908152604090205460ff1681565b600f5460ff1681565b600454600160a060020a031681565b601660205281600052604060002081815481101515610c1e57fe5b60009182526020909120600790910201805460018201546002830154600384015460048501546005860154600690960154600160a060020a0390951697509295509093909260ff1687565b600060048060195460ff166004811115610c7f57fe5b14610c8957600080fd5b60005460a060020a900460ff1615610ca057600080fd5b600554600160a060020a03331660009081526015602052604090205410610cc657600080fd5b600554600160a060020a0333811660009081526015602052604080822093909355601954610de593610100909104909216916318160ddd919051602001526040518163ffffffff1660e060020a028152600401602060405180830381600087803b1515610d3257600080fd5b6102c65a03f11515610d4357600080fd5b5050506040518051601954909150610dd9906101009004600160a060020a03166370a082313360006040516020015260405160e060020a63ffffffff8416028152600160a060020a039091166004820152602401602060405180830381600087803b1515610db057600080fd5b6102c65a03f11515610dc157600080fd5b5050506040518051600c54915063ffffffff6135a016565b9063ffffffff6135cb16565b9150600160a060020a03331682156108fc0283604051600060405180830381858888f193505050501515610e1857600080fd5b600160a060020a0333166000908152601660205260408120610e3991613845565b33600160a060020a03166005547fec530ab710fdaa2b5968fe15f486992441a96f643219cf0150904aa5b9eedf828460405190815260200160405180910390a35050565b60005433600160a060020a03908116911614610e9857600080fd5b60005460a060020a900460ff161515610eb057600080fd5b600160a060020a0381161515610ec557600080fd5b601a54600160a060020a031663f2fde38b8260405160e060020a63ffffffff8416028152600160a060020a039091166004820152602401600060405180830381600087803b1515610f1557600080fd5b6102c65a03f11515610f2657600080fd5b50505050565b60005433600160a060020a03908116911614610f4757600080fd5b600b55565b60085481565b60008060195460ff166004811115610f6657fe5b14610f7057600080fd5b60005460a060020a900460ff1615610f8757600080fd5b60055460011415610f9757600080fd5b601a54600754600160a060020a039091169063c000178690339061101c90610dd9856318160ddd6000604051602001526040518163ffffffff1660e060020a028152600401602060405180830381600087803b1515610ff557600080fd5b6102c65a03f1151561100657600080fd5b505050604051805189915063ffffffff6135a016565b60006040516020015260405160e060020a63ffffffff8516028152600160a060020a0390921660048301526024820152604401602060405180830381600087803b151561106857600080fd5b6102c65a03f1151561107957600080fd5b50505060405180515050600754611096908363ffffffff61357416565b600755600160a060020a03331682156108fc0283604051600060405180830381858888f1935050505015156110ca57600080fd5b33600160a060020a03166005547ffe7813e2866053d5c3938554e517b554fce6666a6561bed9eaa7419b29fa9b6873eeeeeeeeeeeeeeeeeeeeeeeeeeeeeeeeeeeeeeee85426040518084600160a060020a0316600160a060020a03168152602001838152602001828152602001935050505060405180910390a35050565b60005433600160a060020a0390811691161461116357600080fd5b600d55565b60055481565b611176613869565b6016600083600160a060020a0316600160a060020a0316815260200190815260200160002080548060200260200160405190810160405281815291906000602084015b8282101561123e57600084815260209020600783020160e060405190810160409081528254600160a060020a031682526001808401546020808501919091526002850154928401929092526003840154606084015260048401546080840152600584015460a084015260069093015460ff16151560c0830152908352920191016111b9565b505050509050919050565b60008080808080808060195460ff16600481111561126357fe5b1461126d57600080fd5b60005460a060020a900460ff161561128457600080fd5b600160a060020a03891673eeeeeeeeeeeeeeeeeeeeeeeeeeeeeeeeeeeeeeee14156112ae57600080fd5b889650600087600160a060020a03166318160ddd6000604051602001526040518163ffffffff1660e060020a028152600401602060405180830381600087803b15156112f957600080fd5b6102c65a03f1151561130a57600080fd5b5050506040518051905011151561132057600080fd5b86600160a060020a03166323b872dd33308b60006040516020015260405160e060020a63ffffffff8616028152600160a060020a0393841660048201529190921660248201526044810191909152606401602060405180830381600087803b151561138a57600080fd5b6102c65a03f1151561139b57600080fd5b5050506040518051905015156113b057600080fd5b86600160a060020a03166370a082313060006040516020015260405160e060020a63ffffffff8416028152600160a060020a039091166004820152602401602060405180830381600087803b151561140757600080fd5b6102c65a03f1151561141857600080fd5b5050506040518051965050600160a060020a03301631945061143c89896000612f7d565b5086600160a060020a03166370a082313060006040516020015260405160e060020a63ffffffff8416028152600160a060020a039091166004820152602401602060405180830381600087803b151561149457600080fd5b6102c65a03f115156114a557600080fd5b50505060405180518703945050838803925060008311156115435786600160a060020a031663a9059cbb338560006040516020015260405160e060020a63ffffffff8516028152600160a060020a0390921660048301526024820152604401602060405180830381600087803b151561151d57600080fd5b6102c65a03f1151561152e57600080fd5b50505060405180519050151561154357600080fd5b600160a060020a0330163185900391506000821161156057600080fd5b600554600114156115eb57601a54600160a060020a03166340c10f19338460006040516020015260405160e060020a63ffffffff8516028152600160a060020a0390921660048301526024820152604401602060405180830381600087803b15156115ca57600080fd5b6102c65a03f115156115db57600080fd5b50505060405180519050506116b1565b601a54600754600160a060020a03909116906340c10f1990339061164990610dd9856318160ddd6000604051602001526040518163ffffffff1660e060020a028152600401602060405180830381600087803b1515610ff557600080fd5b60006040516020015260405160e060020a63ffffffff8516028152600160a060020a0390921660048301526024820152604401602060405180830381600087803b151561169557600080fd5b6102c65a03f115156116a657600080fd5b505050604051805150505b6007546116c4908363ffffffff61358616565b6007556019546101009004600160a060020a03166340c10f19338460006040516020015260405160e060020a63ffffffff8516028152600160a060020a0390921660048301526024820152604401602060405180830381600087803b151561172b57600080fd5b6102c65a03f1151561173c57600080fd5b505050604051805190505033600160a060020a03166005547feb65d0f36862bbd8763c5e2c983c9d753267d223eee35a224d8d0a9d7ef433a28b87426040518084600160a060020a0316600160a060020a03168152602001838152602001828152602001935050505060405180910390a3505050505050505050565b60005460a060020a900460ff16156117cf57600080fd5b6019546118029060109060ff1660048111156117e757fe5b600581106117f157fe5b01546008549063ffffffff61358616565b42101561180e57600080fd5b600460195460ff16600481111561182157fe5b14156119095760055461183b90600163ffffffff61358616565b6005556019546101009004600160a060020a0316635c975abb6000604051602001526040518163ffffffff1660e060020a028152600401602060405180830381600087803b151561188b57600080fd5b6102c65a03f1151561189c57600080fd5b5050506040518051905015611904576019546101009004600160a060020a0316633f4ba83a6040518163ffffffff1660e060020a028152600401600060405180830381600087803b15156118ef57600080fd5b6102c65a03f1151561190057600080fd5b5050505b611a10565b600060195460ff16600481111561191c57fe5b141561193e576005546001141561190457600e54600754101561190457600080fd5b600360195460ff16600481111561195157fe5b1415611a10576019546101009004600160a060020a031663f3123a3a6040518163ffffffff1660e060020a028152600401600060405180830381600087803b151561199b57600080fd5b6102c65a03f115156119ac57600080fd5b50506019546101009004600160a060020a03169050638456cb596040518163ffffffff1660e060020a028152600401600060405180830381600087803b15156119f457600080fd5b6102c65a03f11515611a0557600080fd5b505050611a106135e2565b60195460059060019060ff166004811115611a2757fe5b086004811115611a3357fe5b6019805460ff19166001836004811115611a4957fe5b021790555042600855601954600b54610100909104600160a060020a0316906340c10f1990339060006040516020015260405160e060020a63ffffffff8516028152600160a060020a0390921660048301526024820152604401602060405180830381600087803b1515611abc57600080fd5b6102c65a03f11515611acd57600080fd5b5050506040518051505060195460ff166004811115611ae857fe5b6005547f9590d2eff92d0882635fb8e1412da02e41af0dc517cfd07520a03506eb65b0af4260405190815260200160405180910390a3565b60005433600160a060020a03908116911614611b3b57600080fd5b60005460a060020a900460ff161515611b5357600080fd5b6000805474ff0000000000000000000000000000000000000000191690557f7805862f689e2f13df9f062ff482ad3ad112aca9e0847911ed832e158c525b3360405160405180910390a1565b611ba761387b565b6010600560a0604051908101604052919060a0830182845b815481526020019060010190808311611bbf57505050505090505b90565b600d5481565b60176020526000908152604090205460ff1681565b60005460a060020a900460ff1681565b60005433600160a060020a03908116911614611c2357600080fd5b60005460a060020a900460ff161515611c3b57600080fd5b600f805460ff1916911515919091179055565b60095481565b600b5481565b60005433600160a060020a03908116911614611c7557600080fd5b600a548110611c8357600080fd5b600a55565b60005433600160a060020a03908116911614611ca357600080fd5b600955565b600e5481565b60075481565b60156020526000908152604090205481565b60005433600160a060020a03908116911614611ce157600080fd5b60005460a060020a900460ff1615611cf857600080fd5b6000805474ff0000000000000000000000000000000000000000191660a060020a1790557f6985a02210a168e66602d3235cb6db0e70f92b3ba4d376a33c0f3d9434bff62560405160405180910390a1565b6000808060038060195460ff166004811115611d6257fe5b14611d6c57600080fd5b60005460a060020a900460ff1615611d8357600080fd5b600160a060020a0333166000908152601660205260409020805486908110611da757fe5b9060005260206000209060070201935060008460040154111515611dca57600080fd5b600554600185015414611ddc57600080fd5b600684015460ff1615611dee57600080fd5b611df985600061373a565b6006808501805460ff19166001179055600d54600486015491546005870154611e3d93611e31929091610dd99163ffffffff6135a016565b9063ffffffff61358616565b9250611e5c600654610dd98587600201546135a090919063ffffffff16565b6019549092506101009004600160a060020a03166340c10f19338460006040516020015260405160e060020a63ffffffff8516028152600160a060020a0390921660048301526024820152604401602060405180830381600087803b1515611ec357600080fd5b6102c65a03f11515611ed457600080fd5b505050604051805190505033600160a060020a03166005547f0f60dc85641c942ffbe6c217642ae2cdb1bb8e3c12f6dbba1d2d9590de23e817878560405191825260208201526040908101905180910390a35050505050565b600054600160a060020a031681565b60005433600160a060020a03908116911614611f5757600080fd5b60005460a060020a900460ff161515611f6f57600080fd5b600160a060020a0382161515611f8457600080fd5b600160a060020a03919091166000908152601860205260409020805460ff1916911515919091179055565b600080808080808060195460ff166004811115611fc857fe5b14611fd257600080fd5b60005460a060020a900460ff1615611fe957600080fd5b60055460011415611ff957600080fd5b600160a060020a03881673eeeeeeeeeeeeeeeeeeeeeeeeeeeeeeeeeeeeeeee141561202357600080fd5b879550600086600160a060020a03166318160ddd6000604051602001526040518163ffffffff1660e060020a028152600401602060405180830381600087803b151561206e57600080fd5b6102c65a03f1151561207f57600080fd5b5050506040518051905011151561209557600080fd5b85600160a060020a03166370a082313060006040516020015260405160e060020a63ffffffff8416028152600160a060020a039091166004820152602401602060405180830381600087803b15156120ec57600080fd5b6102c65a03f115156120fd57600080fd5b5050506040518051955050600160a060020a03301631935061212188886001612f7d565b508486600160a060020a03166370a082313060006040516020015260405160e060020a63ffffffff8416028152600160a060020a039091166004820152602401602060405180830381600087803b151561217a57600080fd5b6102c65a03f1151561218b57600080fd5b5050506040518051905003925030600160a060020a031631840391506000821115156121b657600080fd5b601a54600754600160a060020a039091169063c000178690339061221490610dd9856318160ddd6000604051602001526040518163ffffffff1660e060020a028152600401602060405180830381600087803b1515610ff557600080fd5b60006040516020015260405160e060020a63ffffffff8516028152600160a060020a0390921660048301526024820152604401602060405180830381600087803b151561226057600080fd5b6102c65a03f1151561227157600080fd5b5050506040518051505060075461228e908363ffffffff61357416565b600755600160a060020a03861663a9059cbb338560006040516020015260405160e060020a63ffffffff8516028152600160a060020a0390921660048301526024820152604401602060405180830381600087803b15156122ee57600080fd5b6102c65a03f115156122ff57600080fd5b505050604051805190505033600160a060020a03166005547ffe7813e2866053d5c3938554e517b554fce6666a6561bed9eaa7419b29fa9b688a86426040518084600160a060020a0316600160a060020a03168152602001838152602001828152602001935050505060405180910390a35050505050505050565b600354600160a060020a031681565b60065481565b60005433600160a060020a039081169116146123aa57600080fd5b600160a060020a03811615156123bf57600080fd5b6004805473ffffffffffffffffffffffffffffffffffffffff1916600160a060020a0392909216919091179055565b60005433600160a060020a0390811691161461240957600080fd5b60005460a060020a900460ff16151561242157600080fd5b600160a060020a03301631600755565b60005433600160a060020a0390811691161461244c57600080fd5b60005460a060020a900460ff16151561246457600080fd5b600160a060020a038116151561247957600080fd5b600160a060020a03166000908152601760205260409020805460ff19166001179055565b600a5481565b600c5481565b60008060195460ff1660048111156124bd57fe5b146124c757600080fd5b60005460a060020a900460ff16156124de57600080fd5b6005546001141561256957601a54600160a060020a03166340c10f19333460006040516020015260405160e060020a63ffffffff8516028152600160a060020a0390921660048301526024820152604401602060405180830381600087803b151561254857600080fd5b6102c65a03f1151561255957600080fd5b5050506040518051905050612656565b601a54600754600160a060020a03909116906340c10f199033906125ee90610dd9856318160ddd6000604051602001526040518163ffffffff1660e060020a028152600401602060405180830381600087803b15156125c757600080fd5b6102c65a03f115156125d857600080fd5b505050604051805134915063ffffffff6135a016565b60006040516020015260405160e060020a63ffffffff8516028152600160a060020a0390921660048301526024820152604401602060405180830381600087803b151561263a57600080fd5b6102c65a03f1151561264b57600080fd5b505050604051805150505b600754612669903463ffffffff61358616565b6007556019546101009004600160a060020a03166340c10f19333460006040516020015260405160e060020a63ffffffff8516028152600160a060020a0390921660048301526024820152604401602060405180830381600087803b15156126d057600080fd5b6102c65a03f115156126e157600080fd5b505050604051805190505033600160a060020a03166005547feb65d0f36862bbd8763c5e2c983c9d753267d223eee35a224d8d0a9d7ef433a273eeeeeeeeeeeeeeeeeeeeeeeeeeeeeeeeeeeeeeee34426040518084600160a060020a0316600160a060020a03168152602001838152602001828152602001935050505060405180910390a350565b600254600160a060020a031681565b6000805460a060020a900460ff16151561279157600080fd5b600f5460ff1615156127a257600080fd5b601a5461289190600160a060020a03166318160ddd6000604051602001526040518163ffffffff1660e060020a028152600401602060405180830381600087803b15156127ee57600080fd5b6102c65a03f115156127ff57600080fd5b5050506040518051600754601a54919250610dd991600160a060020a03166370a082313360006040516020015260405160e060020a63ffffffff8416028152600160a060020a039091166004820152602401602060405180830381600087803b151561286a57600080fd5b6102c65a03f1151561287b57600080fd5b505050604051805191905063ffffffff6135a016565b601a54909150600160a060020a031663c000178633826370a082318260006040516020015260405160e060020a63ffffffff8416028152600160a060020a039091166004820152602401602060405180830381600087803b15156128f457600080fd5b6102c65a03f1151561290557600080fd5b5050506040518051905060006040516020015260405160e060020a63ffffffff8516028152600160a060020a0390921660048301526024820152604401602060405180830381600087803b151561295b57600080fd5b6102c65a03f1151561296c57600080fd5b50505060405180515050600754612989908263ffffffff61357416565b600755600160a060020a03331681156108fc0282604051600060405180830381858888f1935050505015156129bd57600080fd5b33600160a060020a03166005547ffe7813e2866053d5c3938554e517b554fce6666a6561bed9eaa7419b29fa9b6873eeeeeeeeeeeeeeeeeeeeeeeeeeeeeeeeeeeeeeee84426040518084600160a060020a0316600160a060020a03168152602001838152602001828152602001935050505060405180910390a350565b600154600160a060020a031681565b6000808060018060195460ff166004811115612a6157fe5b14612a6b57600080fd5b60005460a060020a900460ff1615612a8257600080fd5b859350600084600160a060020a03166318160ddd6000604051602001526040518163ffffffff1660e060020a028152600401602060405180830381600087803b1515612acd57600080fd5b6102c65a03f11515612ade57600080fd5b50505060405180519050111515612af457600080fd5b600160a060020a03861660009081526017602052604090205460ff1615612b1a57600080fd5b6019546101009004600160a060020a0316632bee7bde338760006040516020015260405160e060020a63ffffffff8516028152600160a060020a0390921660048301526024820152604401602060405180830381600087803b1515612b7e57600080fd5b6102c65a03f11515612b8f57600080fd5b50505060405180515050600160a060020a0333166000908152601660205260409020805460018101612bc183826138a2565b9160005260206000209060070201600060e06040519081016040908152600160a060020a038b168252600554602083015281018990526000606082018190526080820181905260a0820181905260c08201529190508151815473ffffffffffffffffffffffffffffffffffffffff1916600160a060020a03919091161781556020820151816001015560408201518160020155606082015181600301556080820151816004015560a0820151816005015560c0820151600691909101805460ff19169115159190911790555050600160a060020a0384166370a082313060006040516020015260405160e060020a63ffffffff8416028152600160a060020a039091166004820152602401602060405180830381600087803b1515612ce557600080fd5b6102c65a03f11515612cf657600080fd5b5050506040518051905092506001612d0d33610bbb565b039150612d1b82600161373a565b8284600160a060020a03166370a082313060006040516020015260405160e060020a63ffffffff8416028152600160a060020a039091166004820152602401602060405180830381600087803b1515612d7357600080fd5b6102c65a03f11515612d8457600080fd5b5050506040518051600160a060020a03331660009081526016602052604090208054939091039290915084908110612db857fe5b90600052602060002090600702016003018190555033600160a060020a03166005547fd5e80cb8f15599762752fd8ab1596dc8d1b452ec8fcd4692daf3e695f195239d6001612e0633610bbb565b038989604051928352600160a060020a0390911660208301526040808301919091526060909101905180910390a3505050505050565b60005433600160a060020a03908116911614612e5757600080fd5b60005460a060020a900460ff161515612e6f57600080fd5b600160a060020a0381161515612e8457600080fd5b6019546101009004600160a060020a031663f2fde38b8260405160e060020a63ffffffff8416028152600160a060020a039091166004820152602401600060405180830381600087803b1515610f1557600080fd5b60005433600160a060020a03908116911614612ef457600080fd5b600160a060020a0381161515612f0957600080fd5b600054600160a060020a0380831691167f8be0079c531659141344cd1fd0a4f28419497f9722a3daafe3b4186f6b6457e060405160405180910390a36000805473ffffffffffffffffffffffffffffffffffffffff1916600160a060020a0392909216919091179055565b60195460ff1681565b600080808580851561312557601b54600160a060020a033081811631955091169063cb3c28c790899073eeeeeeeeeeeeeeeeeeeeeeeeeeeeeeeeeeeeeeee90829086906b204fce5e3e2502611000000060016000806040516020015260405160e060020a63ffffffff8b16028152600160a060020a039788166004820152602481019690965293861660448601529185166064850152608484015260a483015290911660c482015260e4016020604051808303818588803b151561304057600080fd5b6125ee5a03f1151561305157600080fd5b5050505060405180519450506000841161306a57600080fd5b61311e61308585670de0b6b3a764000063ffffffff6135a016565b610dd983600160a060020a031663313ce5676000604051602001526040518163ffffffff1660e060020a028152600401602060405180830381600087803b15156130ce57600080fd5b6102c65a03f115156130df57600080fd5b5050506040518051905060ff16600a0a61311260065461311230600160a060020a0316318a61357490919063ffffffff16565b9063ffffffff6135a016565b9450613569565b80600160a060020a03166370a082313060006040516020015260405160e060020a63ffffffff8416028152600160a060020a039091166004820152602401602060405180830381600087803b151561317c57600080fd5b6102c65a03f1151561318d57600080fd5b5050506040518051600354909450600160a060020a03808416925063095ea7b391166000806040516020015260405160e060020a63ffffffff8516028152600160a060020a0390921660048301526024820152604401602060405180830381600087803b15156131fc57600080fd5b6102c65a03f1151561320d57600080fd5b50505060405180515050600354600160a060020a038083169163095ea7b391168960006040516020015260405160e060020a63ffffffff8516028152600160a060020a0390921660048301526024820152604401602060405180830381600087803b151561327a57600080fd5b6102c65a03f1151561328b57600080fd5b50505060405180515050601b54600160a060020a031663cb3c28c7828973eeeeeeeeeeeeeeeeeeeeeeeeeeeeeeeeeeeeeeee306b204fce5e3e2502611000000060016000806040516020015260405160e060020a63ffffffff8a16028152600160a060020a039788166004820152602481019690965293861660448601529185166064850152608484015260a483015290911660c482015260e401602060405180830381600087803b151561333f57600080fd5b6102c65a03f1151561335057600080fd5b5050506040518051600354909550600160a060020a03808416925063095ea7b391166000806040516020015260405160e060020a63ffffffff8516028152600160a060020a0390921660048301526024820152604401602060405180830381600087803b15156133bf57600080fd5b6102c65a03f115156133d057600080fd5b50505060405180515050600160a060020a0381166370a082313060006040516020015260405160e060020a63ffffffff8416028152600160a060020a039091166004820152602401602060405180830381600087803b151561343157600080fd5b6102c65a03f1151561344257600080fd5b50505060405180518411905061345757600080fd5b61356661354582600160a060020a031663313ce5676000604051602001526040518163ffffffff1660e060020a028152600401602060405180830381600087803b15156134a357600080fd5b6102c65a03f115156134b457600080fd5b5050506040518051905060ff16600a0a61311284600160a060020a03166370a082313060006040516020015260405160e060020a63ffffffff8416028152600160a060020a039091166004820152602401602060405180830381600087803b151561351e57600080fd5b6102c65a03f1151561352f57600080fd5b505050604051805188915063ffffffff61357416565b610dd9670de0b6b3a7640000613112600654896135a090919063ffffffff16565b94505b505050509392505050565b60008282111561358057fe5b50900390565b60008282018381101561359557fe5b8091505b5092915050565b6000808315156135b35760009150613599565b508282028284828115156135c357fe5b041461359557fe5b60008082848115156135d957fe5b04949350505050565b600080600080925060075430600160a060020a03163111156136105760075430600160a060020a0316310392505b61362b600654610dd9856009546135a090919063ffffffff16565b600c55600654600a546136539190610dd990600160a060020a0330163163ffffffff6135a016565b915061368482613678600c5430600160a060020a03163161357490919063ffffffff16565b9063ffffffff61357416565b90506005547f13a18edb371d0a74be72de10b678893b96bc8a47e776bb122c59e21d53956fbd6007548360405191825260208201526040908101905180910390a26007819055600454600160a060020a031682156108fc0283604051600060405180830381858888f1935050505015156136fd57600080fd5b6005547f2f7da09d276ad6237b75476b806f4d8388b9228bd6fa45a7ca214fac5abdf7a3600c5460405190815260200160405180910390a2505050565b600160a060020a03331660009081526016602052604081208054829182918690811061376257fe5b906000526020600020906007020192508315613804576019546137fd906101009004600160a060020a03166318160ddd6000604051602001526040518163ffffffff1660e060020a028152600401602060405180830381600087803b15156137c957600080fd5b6102c65a03f115156137da57600080fd5b50505060405180519050610dd985600201546007546135a090919063ffffffff16565b915061380c565b826003015491505b825461382290600160a060020a03168386612f7d565b90508315613836576004830181905561383e565b600583018190555b5050505050565b508054600082556007029060005260206000209081019061386691906138ca565b50565b60206040519081016040526000815290565b60a06040519081016040526005815b600081526020019060019003908161388a5790505090565b815481835581811511610ae257600702816007028360005260206000209182019101610ae291905b611bda91905b8082111561392a57805473ffffffffffffffffffffffffffffffffffffffff19168155600060018201819055600282018190556003820181905560048201819055600582015560068101805460ff191690556007016138d0565b50905600a165627a7a72305820fc86ce9f13e6c5d0f8201912b9fefb3c1d3761860ee750a449e3677305f74da00029",
  "source": "pragma solidity ^0.4.18;\r\n\r\nimport 'zeppelin-solidity/contracts/math/SafeMath.sol';\r\nimport 'zeppelin-solidity/contracts/math/Math.sol';\r\nimport 'zeppelin-solidity/contracts/lifecycle/Pausable.sol';\r\nimport './ControlToken.sol';\r\nimport './ShareToken.sol';\r\nimport './KyberNetwork.sol';\r\nimport './Utils.sol';\r\n\r\n/**\r\n * The main contract of the Betoken hedge fund\r\n */\r\ncontract BetokenFund is Pausable, Utils {\r\n  using SafeMath for uint256;\r\n\r\n  enum CyclePhase { ChangeMaking, ProposalMaking, Waiting, Finalizing, Finalized }\r\n\r\n  struct Proposal {\r\n    address tokenAddress;\r\n    uint256 cycleNumber;\r\n    uint256 stake;\r\n    uint256 tokenAmount;\r\n    uint256 buyPriceInWeis;\r\n    uint256 sellPriceInWeis;\r\n    bool isSold;\r\n  }\r\n\r\n  /**\r\n   * @dev Executes function only during the given cycle phase.\r\n   * @param phase the cycle phase during which the function may be called\r\n   */\r\n  modifier during(CyclePhase phase) {\r\n    require(cyclePhase == phase);\r\n    _;\r\n  }\r\n\r\n  // Address of the control token contract.\r\n  address public controlTokenAddr;\r\n\r\n  // Address of the share token contract.\r\n  address public shareTokenAddr;\r\n\r\n  // Address of the KyberNetwork contract\r\n  address public kyberAddr;\r\n\r\n  // Address to which the developer fees will be paid.\r\n  address public developerFeeAccount;\r\n\r\n  // The number of the current investment cycle.\r\n  uint256 public cycleNumber;\r\n\r\n  // 10^{decimals} used for representing fixed point numbers with {decimals} decimals.\r\n  uint256 public PRECISION;\r\n\r\n  // The amount of funds held by the fund.\r\n  uint256 public totalFundsInWeis;\r\n\r\n  // The start time for the current investment cycle phase, in seconds since Unix epoch.\r\n  uint256 public startTimeOfCyclePhase;\r\n\r\n  // The proportion of the fund that gets distributed to Kairo holders every cycle. Fixed point decimal.\r\n  uint256 public commissionRate;\r\n\r\n  // The proportion of contract balance that goes the the devs every cycle. Fixed point decimal.\r\n  uint256 public developerFeeProportion;\r\n\r\n  // Amount of Kairo rewarded to the user who calls a phase transition/proposal handling function\r\n  uint256 public functionCallReward;\r\n\r\n  // Amount of commission to be paid out this cycle\r\n  uint256 public totalCommission;\r\n\r\n  // Inflation rate of control token (KRO). Fixed point decimal.\r\n  uint256 public controlTokenInflation;\r\n\r\n  // The AUM (Asset Under Management) threshold for progressing to ProposalMakingTime in the first cycle.\r\n  uint256 public aumThresholdInWeis;\r\n\r\n  // Flag for whether emergency withdrawing is allowed.\r\n  bool public allowEmergencyWithdraw;\r\n\r\n  uint256[5] phaseLengths;\r\n\r\n  // The last cycle where a user redeemed commission.\r\n  mapping(address => uint256) public lastCommissionRedemption;\r\n\r\n  // List of proposals in the current cycle.\r\n  mapping(address => Proposal[]) public userProposals;\r\n\r\n  // Records if a token is a stable coin. Users can't make proposals with stable coins.\r\n  mapping(address => bool) public isStableCoin;\r\n\r\n  // Records if a token's contract maliciously treats the BetokenFund differently when calling transfer(), transferFrom(), or approve().\r\n  mapping(address => bool) public isMaliciousCoin;\r\n\r\n  // The current cycle phase.\r\n  CyclePhase public cyclePhase;\r\n\r\n  // Contract instances\r\n  ControlToken internal cToken;\r\n  ShareToken internal sToken;\r\n  KyberNetwork internal kyber;\r\n\r\n  event ChangedPhase(uint256 indexed _cycleNumber, uint256 indexed _newPhase, uint256 _timestamp);\r\n\r\n  event Deposit(uint256 indexed _cycleNumber, address indexed _sender, address _tokenAddress, uint256 _amount, uint256 _timestamp);\r\n  event Withdraw(uint256 indexed _cycleNumber, address indexed _sender, address _tokenAddress, uint256 _amount, uint256 _timestamp);\r\n\r\n  event CreatedProposal(uint256 indexed _cycleNumber, address indexed _sender, uint256 _id, address _tokenAddress, uint256 _stakeInWeis);\r\n  event RedeemedProposal(uint256 indexed _cycleNumber, address indexed _sender, uint256 _proposalId, uint256 _receivedKairos);\r\n\r\n  event ROI(uint256 indexed _cycleNumber, uint256 _beforeTotalFunds, uint256 _afterTotalFunds);\r\n  event CommissionPaid(uint256 indexed _cycleNumber, address indexed _sender, uint256 _commission);\r\n  event TotalCommissionPaid(uint256 indexed _cycleNumber, uint256 _totalCommissionInWeis);\r\n\r\n  /**\r\n   * Contract initialization functions\r\n   */\r\n\r\n  // Constructor\r\n  function BetokenFund(\r\n    address _cTokenAddr,\r\n    address _sTokenAddr,\r\n    address _kyberAddr,\r\n    address _developerFeeAccount,\r\n    uint256 _cycleNumber,\r\n    uint256 _aumThresholdInWeis,\r\n    uint256[5] _phaseLengths,\r\n    uint256 _commissionRate,\r\n    uint256 _developerFeeProportion,\r\n    uint256 _functionCallReward,\r\n    uint256 _controlTokenInflation,\r\n    address[] _stableCoins\r\n  )\r\n    public\r\n  {\r\n    require(_commissionRate.add(_developerFeeProportion) < 10**18);\r\n\r\n    controlTokenAddr = _cTokenAddr;\r\n    shareTokenAddr = _sTokenAddr;\r\n    kyberAddr = _kyberAddr;\r\n    cToken = ControlToken(_cTokenAddr);\r\n    sToken = ShareToken(_sTokenAddr);\r\n    kyber = KyberNetwork(_kyberAddr);\r\n\r\n    developerFeeAccount = _developerFeeAccount;\r\n    phaseLengths = _phaseLengths;\r\n    commissionRate = _commissionRate;\r\n    developerFeeProportion = _developerFeeProportion;\r\n    startTimeOfCyclePhase = 0;\r\n    cyclePhase = CyclePhase.Finalized;\r\n    cycleNumber = _cycleNumber;\r\n    functionCallReward = _functionCallReward;\r\n    controlTokenInflation = _controlTokenInflation;\r\n    aumThresholdInWeis = _aumThresholdInWeis;\r\n    allowEmergencyWithdraw = false;\r\n\r\n    for (uint256 i = 0; i < _stableCoins.length; i = i.add(1)) {\r\n      isStableCoin[_stableCoins[i]] = true;\r\n    }\r\n  }\r\n\r\n  /**\r\n   * Getters\r\n   */\r\n\r\n  /**\r\n   * Returns the length of the proposals array.\r\n   * @return length of proposals array\r\n   */\r\n  function proposalsCount(address _userAddr) public view returns(uint256 _count) {\r\n    return userProposals[_userAddr].length;\r\n  }\r\n\r\n  function proposals(address _userAddr) public view returns(Proposal[] _proposals) {\r\n    return userProposals[_userAddr];\r\n  }\r\n\r\n  function getPhaseLengths() public view returns(uint256[5] _phaseLengths) {\r\n    return phaseLengths;\r\n  }\r\n\r\n  /**\r\n   * Meta functions\r\n   */\r\n\r\n  /**\r\n   * Emergency functions\r\n   */\r\n\r\n  /**\r\n   * @dev In case the fund is invested in tokens, sell all tokens.\r\n   */\r\n  function emergencyDumpToken(address _tokenAddr)\r\n    public\r\n    onlyOwner\r\n    during(CyclePhase.Finalized)\r\n    whenPaused\r\n  {\r\n    __transactToken(_tokenAddr, ERC20(_tokenAddr).balanceOf(this), false);\r\n  }\r\n\r\n  /**\r\n   * @dev Return staked Kairos for a proposal under emergency situations.\r\n   */\r\n  function emergencyRedeemStake(uint256 _proposalId) whenPaused public {\r\n    require(allowEmergencyWithdraw);\r\n    Proposal storage prop = userProposals[msg.sender][_proposalId];\r\n    require(prop.cycleNumber == cycleNumber);\r\n    uint256 stake = prop.stake;\r\n    require(stake > 0);\r\n    delete prop.stake;\r\n    cToken.transfer(msg.sender, stake);\r\n  }\r\n\r\n  /**\r\n   * @dev Update current fund balance\r\n   */\r\n  function emergencyUpdateBalance() onlyOwner whenPaused public {\r\n    totalFundsInWeis = this.balance;\r\n  }\r\n\r\n  function setAllowEmergencyWithdraw(bool _val) onlyOwner whenPaused public {\r\n    allowEmergencyWithdraw = _val;\r\n  }\r\n\r\n  /**\r\n   * @dev Function for withdrawing all funds in times of emergency. Only callable when fund is paused.\r\n   */\r\n  function emergencyWithdraw()\r\n    public\r\n    whenPaused\r\n  {\r\n    require(allowEmergencyWithdraw);\r\n\r\n    uint256 amountInWeis = sToken.balanceOf(msg.sender).mul(totalFundsInWeis).div(sToken.totalSupply());\r\n    sToken.ownerBurn(msg.sender, sToken.balanceOf(msg.sender));\r\n    totalFundsInWeis = totalFundsInWeis.sub(amountInWeis);\r\n\r\n    // Transfer\r\n    msg.sender.transfer(amountInWeis);\r\n\r\n    // Emit event\r\n    Withdraw(cycleNumber, msg.sender, ETH_TOKEN_ADDRESS, amountInWeis, now);\r\n  }\r\n\r\n  /**\r\n   * Parameter setters\r\n   */\r\n\r\n  /**\r\n   * @dev Changes the address of the KyberNetwork contract used in the contract. Only callable by owner.\r\n   * @param _newAddr new address of KyberNetwork contract\r\n   */\r\n  function changeKyberNetworkAddress(address _newAddr) public onlyOwner whenPaused {\r\n    require(_newAddr != address(0));\r\n    kyberAddr = _newAddr;\r\n    kyber = KyberNetwork(_newAddr);\r\n  }\r\n\r\n  /**\r\n   * @dev Changes the address to which the developer fees will be sent. Only callable by owner.\r\n   * @param _newAddr new developer fee address\r\n   */\r\n  function changeDeveloperFeeAccount(address _newAddr) public onlyOwner {\r\n    require(_newAddr != address(0));\r\n    developerFeeAccount = _newAddr;\r\n  }\r\n\r\n  /**\r\n   * @dev Changes the proportion of fund balance sent to the developers each cycle. May only decrease. Only callable by owner.\r\n   * @param _newProp the new proportion, fixed point decimal\r\n   */\r\n  function changeDeveloperFeeProportion(uint256 _newProp) public onlyOwner {\r\n    require(_newProp < developerFeeProportion);\r\n    developerFeeProportion = _newProp;\r\n  }\r\n\r\n  /**\r\n   * @dev Changes the proportion of fund balance given to Kairo holders each cycle. Only callable by owner.\r\n   * @param _newProp the new proportion, fixed point decimal\r\n   */\r\n  function changeCommissionRate(uint256 _newProp) public onlyOwner {\r\n    commissionRate = _newProp;\r\n  }\r\n\r\n  /**\r\n   * @dev Changes the inflation rate of control tokens. Only callable by owner.\r\n   * @param _newVal the new inflation value, fixed point decimal\r\n   */\r\n  function changeControlTokenInflation(uint256 _newVal) public onlyOwner {\r\n    controlTokenInflation = _newVal;\r\n  }\r\n\r\n  function changeCallReward(uint256 _newVal) public onlyOwner {\r\n    functionCallReward = _newVal;\r\n  }\r\n\r\n  /**\r\n   * @dev Changes the owner of the ControlToken contract.\r\n   * @param  _newOwner the new owner address\r\n   */\r\n  function changeControlTokenOwner(address _newOwner) public onlyOwner whenPaused {\r\n    require(_newOwner != address(0));\r\n    cToken.transferOwnership(_newOwner);\r\n  }\r\n\r\n  /**\r\n   * @dev Changes the owner of the ShareToken contract.\r\n   * @param  _newOwner the new owner address\r\n   */\r\n  function changeShareTokenOwner(address _newOwner) public onlyOwner whenPaused {\r\n    require(_newOwner != address(0));\r\n    sToken.transferOwnership(_newOwner);\r\n  }\r\n\r\n  function addStableCoin(address _stableCoin) public onlyOwner whenPaused {\r\n    require(_stableCoin != address(0));\r\n    isStableCoin[_stableCoin] = true;\r\n  }\r\n\r\n  function setMaliciousCoinStatus(address _coin, bool _status) public onlyOwner whenPaused {\r\n    require(_coin != address(0));\r\n    isMaliciousCoin[_coin] = _status;\r\n  }\r\n\r\n\r\n  /**\r\n   * @dev Moves the fund to the next phase in the investment cycle.\r\n   */\r\n  function nextPhase()\r\n    public\r\n    whenNotPaused\r\n  {\r\n    require(now >= startTimeOfCyclePhase.add(phaseLengths[uint(cyclePhase)]));\r\n\r\n    if (cyclePhase == CyclePhase.Finalized) {\r\n      // Start new cycle\r\n      cycleNumber = cycleNumber.add(1);\r\n\r\n      if (cToken.paused()) {\r\n        cToken.unpause();\r\n      }\r\n    } else if (cyclePhase == CyclePhase.ChangeMaking) {\r\n      // End ChangeMakingTime\r\n      if (cycleNumber == 1) {\r\n        require(totalFundsInWeis >= aumThresholdInWeis);\r\n      }\r\n    } else if (cyclePhase == CyclePhase.Finalizing) {\r\n      // Finalize cycle\r\n\r\n      // Burn any Kairo left in BetokenFund's account\r\n      cToken.burnOwnerBalance();\r\n\r\n      cToken.pause();\r\n      __distributeFundsAfterCycleEnd();\r\n    }\r\n\r\n    cyclePhase = CyclePhase(addmod(uint(cyclePhase), 1, 5));\r\n    startTimeOfCyclePhase = now;\r\n\r\n    // Reward caller\r\n    cToken.mint(msg.sender, functionCallReward);\r\n\r\n    ChangedPhase(cycleNumber, uint(cyclePhase), now);\r\n  }\r\n\r\n  /**\r\n   * ChangeMakingTime functions\r\n   */\r\n\r\n  /**\r\n   * @dev Deposit Ether into the fund.\r\n   */\r\n  function deposit()\r\n    public\r\n    payable\r\n    during(CyclePhase.ChangeMaking)\r\n    whenNotPaused\r\n  {\r\n    // Register investment\r\n    if (cycleNumber == 1) {\r\n      sToken.mint(msg.sender, msg.value);\r\n    } else {\r\n      sToken.mint(msg.sender, msg.value.mul(sToken.totalSupply()).div(totalFundsInWeis));\r\n    }\r\n    totalFundsInWeis = totalFundsInWeis.add(msg.value);\r\n\r\n    // Give control tokens proportional to investment\r\n    // Uncomment if statement if not test version\r\n    // if (cycleNumber == 1) {\r\n      cToken.mint(msg.sender, msg.value);\r\n    // }\r\n\r\n    // Emit event\r\n    Deposit(cycleNumber, msg.sender, ETH_TOKEN_ADDRESS, msg.value, now);\r\n  }\r\n\r\n  function depositToken(address _tokenAddr, uint256 _tokenAmount)\r\n    public\r\n    during(CyclePhase.ChangeMaking)\r\n    whenNotPaused\r\n  {\r\n    require(_tokenAddr != address(ETH_TOKEN_ADDRESS));\r\n    DetailedERC20 token = DetailedERC20(_tokenAddr);\r\n    require(token.totalSupply() > 0);\r\n\r\n    require(token.transferFrom(msg.sender, this, _tokenAmount));\r\n\r\n    uint256 beforeTokenBalance = token.balanceOf(this);\r\n    uint256 beforeEthBalance = this.balance;\r\n    __transactToken(_tokenAddr, _tokenAmount, false);\r\n    uint256 actualTokenAmount = beforeTokenBalance - token.balanceOf(this);\r\n    uint256 leftOverTokens = _tokenAmount - actualTokenAmount;\r\n    if (leftOverTokens > 0) {\r\n      require(token.transfer(msg.sender, leftOverTokens));\r\n    }\r\n\r\n    uint256 depositInWeis = this.balance - beforeEthBalance;\r\n    require(depositInWeis > 0);\r\n\r\n    // Register investment\r\n    if (cycleNumber == 1) {\r\n      sToken.mint(msg.sender, depositInWeis);\r\n    } else {\r\n      sToken.mint(msg.sender, depositInWeis.mul(sToken.totalSupply()).div(totalFundsInWeis));\r\n    }\r\n    totalFundsInWeis = totalFundsInWeis.add(depositInWeis);\r\n\r\n    // Give control tokens proportional to investment\r\n    // Uncomment if statement if not test version\r\n    // if (cycleNumber == 1) {\r\n    cToken.mint(msg.sender, depositInWeis);\r\n    // }\r\n\r\n    // Emit event\r\n    Deposit(cycleNumber, msg.sender, _tokenAddr, actualTokenAmount, now);\r\n  }\r\n\r\n  /**\r\n   * @dev Withdraws a certain amount of Ether from the user's account. Cannot be called during the first cycle.\r\n   * @param _amountInWeis amount of Ether to be withdrawn\r\n   */\r\n  function withdraw(uint256 _amountInWeis)\r\n    public\r\n    during(CyclePhase.ChangeMaking)\r\n    whenNotPaused\r\n  {\r\n    require(cycleNumber != 1);\r\n\r\n    // Subtract from account\r\n    sToken.ownerBurn(msg.sender, _amountInWeis.mul(sToken.totalSupply()).div(totalFundsInWeis));\r\n    totalFundsInWeis = totalFundsInWeis.sub(_amountInWeis);\r\n\r\n    // Transfer Ether to user\r\n    msg.sender.transfer(_amountInWeis);\r\n\r\n    // Emit event\r\n    Withdraw(cycleNumber, msg.sender, ETH_TOKEN_ADDRESS, _amountInWeis, now);\r\n  }\r\n\r\n  function withdrawToken(address _tokenAddr, uint256 _amountInWeis)\r\n    public\r\n    during(CyclePhase.ChangeMaking)\r\n    whenNotPaused\r\n  {\r\n    require(cycleNumber != 1);\r\n    require(_tokenAddr != address(ETH_TOKEN_ADDRESS));\r\n\r\n    DetailedERC20 token = DetailedERC20(_tokenAddr);\r\n    require(token.totalSupply() > 0);\r\n\r\n    // Buy desired tokens\r\n    uint256 beforeTokenBalance = token.balanceOf(this);\r\n    uint256 beforeEthBalance = this.balance;\r\n    __transactToken(_tokenAddr, _amountInWeis, true);\r\n    uint256 actualTokenAmount = token.balanceOf(this) - beforeTokenBalance;\r\n\r\n    // Subtract from account\r\n    uint256 actualAmountInWeis = beforeEthBalance - this.balance;\r\n    require(actualAmountInWeis > 0);\r\n    sToken.ownerBurn(msg.sender, actualAmountInWeis.mul(sToken.totalSupply()).div(totalFundsInWeis));\r\n    totalFundsInWeis = totalFundsInWeis.sub(actualAmountInWeis);\r\n\r\n    // Transfer tokens\r\n    token.transfer(msg.sender, actualTokenAmount);\r\n\r\n    // Emit event\r\n    Withdraw(cycleNumber, msg.sender, _tokenAddr, actualTokenAmount, now);\r\n  }\r\n\r\n  /**\r\n   * Proposal Making time functions\r\n   */\r\n\r\n  /**\r\n   * @dev Creates a new investment proposal for an ERC20 token.\r\n   * @param _tokenAddress address of the ERC20 token contract\r\n   * @param _stakeInWeis amount of Kairos to be staked in support of the proposal\r\n   */\r\n  function createProposal(\r\n    address _tokenAddress,\r\n    uint256 _stakeInWeis\r\n  )\r\n    public\r\n    during(CyclePhase.ProposalMaking)\r\n    whenNotPaused\r\n  {\r\n    // Check if token is valid\r\n    DetailedERC20 token = DetailedERC20(_tokenAddress);\r\n    require(token.totalSupply() > 0);\r\n    require(!isStableCoin[_tokenAddress]);\r\n\r\n    // Collect stake\r\n    cToken.ownerCollectFrom(msg.sender, _stakeInWeis);\r\n\r\n    // Add proposal to list\r\n    userProposals[msg.sender].push(Proposal({\r\n      tokenAddress: _tokenAddress,\r\n      cycleNumber: cycleNumber,\r\n      stake: _stakeInWeis,\r\n      tokenAmount: 0,\r\n      buyPriceInWeis: 0,\r\n      sellPriceInWeis: 0,\r\n      isSold: false\r\n    }));\r\n\r\n    // Invest\r\n    uint256 beforeTokenAmount = token.balanceOf(this);\r\n    uint256 proposalId = proposalsCount(msg.sender) - 1;\r\n    __handleInvestment(proposalId, true);\r\n    userProposals[msg.sender][proposalId].tokenAmount = token.balanceOf(this) - beforeTokenAmount;\r\n\r\n    // Emit event\r\n    CreatedProposal(cycleNumber, msg.sender, proposalsCount(msg.sender) - 1, _tokenAddress, _stakeInWeis);\r\n  }\r\n\r\n  /**\r\n   * Finalizing phase functions\r\n   */\r\n\r\n  /**\r\n   * @dev Called by user to sell the assets a proposal invested in. Returns the staked Kairo plus rewards.\r\n   * @param _proposalId the ID of the proposal\r\n   */\r\n  function sellProposalAsset(uint256 _proposalId)\r\n    public\r\n    during(CyclePhase.Finalizing)\r\n    whenNotPaused\r\n  {\r\n    Proposal storage prop = userProposals[msg.sender][_proposalId];\r\n    require(prop.buyPriceInWeis > 0);\r\n    require(prop.cycleNumber == cycleNumber);\r\n    require(!prop.isSold);\r\n\r\n    __handleInvestment(_proposalId, false);\r\n    prop.isSold = true;\r\n\r\n    uint256 multiplier = prop.sellPriceInWeis.mul(PRECISION).div(prop.buyPriceInWeis).add(controlTokenInflation);\r\n    uint256 receiveKairoAmount = prop.stake.mul(multiplier).div(PRECISION);\r\n    cToken.mint(msg.sender, receiveKairoAmount);\r\n\r\n    RedeemedProposal(cycleNumber, msg.sender, _proposalId, receiveKairoAmount);\r\n  }\r\n\r\n  /**\r\n   * Finalized phase functions\r\n   */\r\n\r\n  /**\r\n   * @dev Redeems commission.\r\n   */\r\n  function redeemCommission()\r\n    public\r\n    during(CyclePhase.Finalized)\r\n    whenNotPaused\r\n  {\r\n    require(lastCommissionRedemption[msg.sender] < cycleNumber);\r\n    lastCommissionRedemption[msg.sender] = cycleNumber;\r\n    uint256 commission = totalCommission.mul(cToken.balanceOf(msg.sender)).div(cToken.totalSupply());\r\n    msg.sender.transfer(commission);\r\n\r\n    // Reset data\r\n    delete userProposals[msg.sender];\r\n\r\n    CommissionPaid(cycleNumber, msg.sender, commission);\r\n  }\r\n\r\n  /**\r\n   * @dev Sells tokens left over due to manager not selling or KyberNetwork not having enough demand.\r\n   * @param _tokenAddr address of the token to be sold\r\n   */\r\n  function sellLeftoverToken(address _tokenAddr)\r\n    public\r\n    during(CyclePhase.Finalized)\r\n    whenNotPaused\r\n  {\r\n    uint256 beforeBalance = this.balance;\r\n    __transactToken(_tokenAddr, ERC20(_tokenAddr).balanceOf(this), false);\r\n    totalFundsInWeis = totalFundsInWeis.add(this.balance.sub(beforeBalance));\r\n  }\r\n\r\n  /**\r\n   * Internal use functions\r\n   */\r\n\r\n  /**\r\n   * @dev Distributes the funds accourding to previously held proportions. Pays commission to Kairo holders,\r\n   * and developer fees to developers.\r\n   */\r\n  function __distributeFundsAfterCycleEnd() internal {\r\n    uint256 profit = 0;\r\n    if (this.balance > totalFundsInWeis) {\r\n      profit = this.balance - totalFundsInWeis;\r\n    }\r\n    totalCommission = commissionRate.mul(profit).div(PRECISION);\r\n    uint256 devFee = developerFeeProportion.mul(this.balance).div(PRECISION);\r\n    uint256 newTotalFunds = this.balance.sub(totalCommission).sub(devFee);\r\n\r\n    // Update values\r\n    ROI(cycleNumber, totalFundsInWeis, newTotalFunds);\r\n    totalFundsInWeis = newTotalFunds;\r\n\r\n    // Transfer fees\r\n    developerFeeAccount.transfer(devFee);\r\n\r\n    // Emit event\r\n    TotalCommissionPaid(cycleNumber, totalCommission);\r\n  }\r\n\r\n  function __handleInvestment(uint256 _proposalId, bool _buy) internal {\r\n    Proposal storage prop = userProposals[msg.sender][_proposalId];\r\n    uint256 srcAmount;\r\n    if (_buy) {\r\n      srcAmount = totalFundsInWeis.mul(prop.stake).div(cToken.totalSupply());\r\n    } else {\r\n      srcAmount = prop.tokenAmount;\r\n    }\r\n    uint256 actualRate = __transactToken(prop.tokenAddress, srcAmount, _buy);\r\n    if (_buy) {\r\n      prop.buyPriceInWeis = actualRate;\r\n    } else {\r\n      prop.sellPriceInWeis = actualRate;\r\n    }\r\n  }\r\n\r\n  function __transactToken(address _tokenAddr, uint256 _srcAmount, bool _buy) internal returns(uint256 _actualRate) {\r\n    uint256 actualDestAmount;\r\n    uint256 beforeBalance;\r\n    address destAddr = _tokenAddr;\r\n    DetailedERC20 destToken = DetailedERC20(destAddr);\r\n\r\n    if (_buy) {\r\n      // Make buy orders\r\n\r\n      beforeBalance = this.balance;\r\n\r\n      // Do trade\r\n      actualDestAmount = kyber.trade.value(_srcAmount)(\r\n        ETH_TOKEN_ADDRESS,\r\n        _srcAmount,\r\n        destToken,\r\n        this,\r\n        MAX_QTY,\r\n        1,\r\n        0\r\n      );\r\n\r\n      // Record buy price\r\n      require(actualDestAmount > 0);\r\n      _actualRate = beforeBalance.sub(this.balance).mul(PRECISION).mul(10**uint256(destToken.decimals())).div(actualDestAmount.mul(10**18));\r\n    } else {\r\n      // Make sell orders\r\n\r\n      beforeBalance = destToken.balanceOf(this);\r\n\r\n      // Do trade\r\n      destToken.approve(kyberAddr, 0);\r\n      destToken.approve(kyberAddr, _srcAmount);\r\n      actualDestAmount = kyber.trade(\r\n        destToken,\r\n        _srcAmount,\r\n        ETH_TOKEN_ADDRESS,\r\n        this,\r\n        MAX_QTY,\r\n        1,\r\n        0\r\n      );\r\n      destToken.approve(kyberAddr, 0);\r\n\r\n      // Record sell price\r\n      require(beforeBalance > destToken.balanceOf(this));\r\n      _actualRate = actualDestAmount.mul(PRECISION).mul(10**18).div(beforeBalance.sub(destToken.balanceOf(this)).mul(10**uint256(destToken.decimals())));\r\n    }\r\n  }\r\n\r\n  function() public payable {\r\n    if (msg.sender != kyberAddr) {\r\n      revert();\r\n    }\r\n  }\r\n}",
  "sourcePath": "D:\\msi-cn\\Documents\\GitHub\\betoken\\eth\\contracts\\BetokenFund.sol",
  "compiler": {
    "name": "solc",
    "version": "0.4.19+commit.c4cbbb05.Emscripten.clang"
  },
  "schemaVersion": "2.0.0",
  "updatedAt": "2018-04-04T05:20:35.996Z"
}