{
  "contractName": "BetokenFund",
  "abi": [
    {
      "constant": true,
      "inputs": [],
      "name": "developerFeeRate",
      "outputs": [
        {
          "name": "",
          "type": "uint256"
        }
      ],
      "payable": false,
      "stateMutability": "view",
      "type": "function"
    },
    {
      "constant": true,
      "inputs": [],
      "name": "totalFundsInDAI",
      "outputs": [
        {
          "name": "",
          "type": "uint256"
        }
      ],
      "payable": false,
      "stateMutability": "view",
      "type": "function"
    },
    {
      "constant": true,
      "inputs": [
        {
          "name": "",
          "type": "address"
        }
      ],
      "name": "isMaliciousCoin",
      "outputs": [
        {
          "name": "",
          "type": "bool"
        }
      ],
      "payable": false,
      "stateMutability": "view",
      "type": "function"
    },
    {
      "constant": true,
      "inputs": [],
      "name": "allowEmergencyWithdraw",
      "outputs": [
        {
          "name": "",
          "type": "bool"
        }
      ],
      "payable": false,
      "stateMutability": "view",
      "type": "function"
    },
    {
      "constant": true,
      "inputs": [],
      "name": "developerFeeAccount",
      "outputs": [
        {
          "name": "",
          "type": "address"
        }
      ],
      "payable": false,
      "stateMutability": "view",
      "type": "function"
    },
    {
      "constant": true,
      "inputs": [],
      "name": "assetFeeRate",
      "outputs": [
        {
          "name": "",
          "type": "uint256"
        }
      ],
      "payable": false,
      "stateMutability": "view",
      "type": "function"
    },
    {
      "constant": true,
      "inputs": [],
      "name": "startTimeOfCyclePhase",
      "outputs": [
        {
          "name": "",
          "type": "uint256"
        }
      ],
      "payable": false,
      "stateMutability": "view",
      "type": "function"
    },
    {
      "constant": true,
      "inputs": [],
      "name": "cycleNumber",
      "outputs": [
        {
          "name": "",
          "type": "uint256"
        }
      ],
      "payable": false,
      "stateMutability": "view",
      "type": "function"
    },
    {
      "constant": false,
      "inputs": [],
      "name": "unpause",
      "outputs": [],
      "payable": false,
      "stateMutability": "nonpayable",
      "type": "function"
    },
    {
      "constant": true,
      "inputs": [],
      "name": "paused",
      "outputs": [
        {
          "name": "",
          "type": "bool"
        }
      ],
      "payable": false,
      "stateMutability": "view",
      "type": "function"
    },
    {
      "constant": true,
      "inputs": [],
      "name": "commissionRate",
      "outputs": [
        {
          "name": "",
          "type": "uint256"
        }
      ],
      "payable": false,
      "stateMutability": "view",
      "type": "function"
    },
    {
      "constant": true,
      "inputs": [],
      "name": "functionCallReward",
      "outputs": [
        {
          "name": "",
          "type": "uint256"
        }
      ],
      "payable": false,
      "stateMutability": "view",
      "type": "function"
    },
    {
      "constant": true,
      "inputs": [],
      "name": "daiAddr",
      "outputs": [
        {
          "name": "",
          "type": "address"
        }
      ],
      "payable": false,
      "stateMutability": "view",
      "type": "function"
    },
    {
      "constant": true,
      "inputs": [
        {
          "name": "",
          "type": "address"
        }
      ],
      "name": "lastCommissionRedemption",
      "outputs": [
        {
          "name": "",
          "type": "uint256"
        }
      ],
      "payable": false,
      "stateMutability": "view",
      "type": "function"
    },
    {
      "constant": false,
      "inputs": [],
      "name": "pause",
      "outputs": [],
      "payable": false,
      "stateMutability": "nonpayable",
      "type": "function"
    },
    {
      "constant": true,
      "inputs": [],
      "name": "owner",
      "outputs": [
        {
          "name": "",
          "type": "address"
        }
      ],
      "payable": false,
      "stateMutability": "view",
      "type": "function"
    },
    {
      "constant": true,
      "inputs": [
        {
          "name": "",
          "type": "address"
        },
        {
          "name": "",
          "type": "uint256"
        }
      ],
      "name": "userInvestments",
      "outputs": [
        {
          "name": "tokenAddress",
          "type": "address"
        },
        {
          "name": "cycleNumber",
          "type": "uint256"
        },
        {
          "name": "stake",
          "type": "uint256"
        },
        {
          "name": "tokenAmount",
          "type": "uint256"
        },
        {
          "name": "buyPrice",
          "type": "uint256"
        },
        {
          "name": "sellPrice",
          "type": "uint256"
        },
        {
          "name": "isSold",
          "type": "bool"
        }
      ],
      "payable": false,
      "stateMutability": "view",
      "type": "function"
    },
    {
      "constant": true,
      "inputs": [],
      "name": "kyberAddr",
      "outputs": [
        {
          "name": "",
          "type": "address"
        }
      ],
      "payable": false,
      "stateMutability": "view",
      "type": "function"
    },
    {
      "constant": true,
      "inputs": [],
      "name": "exitFeeRate",
      "outputs": [
        {
          "name": "",
          "type": "uint256"
        }
      ],
      "payable": false,
      "stateMutability": "view",
      "type": "function"
    },
    {
      "constant": true,
      "inputs": [],
      "name": "totalCommission",
      "outputs": [
        {
          "name": "",
          "type": "uint256"
        }
      ],
      "payable": false,
      "stateMutability": "view",
      "type": "function"
    },
    {
      "constant": true,
      "inputs": [],
      "name": "shareTokenAddr",
      "outputs": [
        {
          "name": "",
          "type": "address"
        }
      ],
      "payable": false,
      "stateMutability": "view",
      "type": "function"
    },
    {
      "constant": true,
      "inputs": [],
      "name": "previousVersion",
      "outputs": [
        {
          "name": "",
          "type": "address"
        }
      ],
      "payable": false,
      "stateMutability": "view",
      "type": "function"
    },
    {
      "constant": true,
      "inputs": [],
      "name": "controlTokenAddr",
      "outputs": [
        {
          "name": "",
          "type": "address"
        }
      ],
      "payable": false,
      "stateMutability": "view",
      "type": "function"
    },
    {
      "constant": false,
      "inputs": [
        {
          "name": "newOwner",
          "type": "address"
        }
      ],
      "name": "transferOwnership",
      "outputs": [],
      "payable": false,
      "stateMutability": "nonpayable",
      "type": "function"
    },
    {
      "constant": true,
      "inputs": [],
      "name": "cyclePhase",
      "outputs": [
        {
          "name": "",
          "type": "uint8"
        }
      ],
      "payable": false,
      "stateMutability": "view",
      "type": "function"
    },
    {
      "inputs": [
        {
          "name": "_cTokenAddr",
          "type": "address"
        },
        {
          "name": "_sTokenAddr",
          "type": "address"
        },
        {
          "name": "_kyberAddr",
          "type": "address"
        },
        {
          "name": "_daiAddr",
          "type": "address"
        },
        {
          "name": "_developerFeeAccount",
          "type": "address"
        },
        {
          "name": "_phaseLengths",
          "type": "uint256[3]"
        },
        {
          "name": "_commissionRate",
          "type": "uint256"
        },
        {
          "name": "_assetFeeRate",
          "type": "uint256"
        },
        {
          "name": "_developerFeeRate",
          "type": "uint256"
        },
        {
          "name": "_exitFeeRate",
          "type": "uint256"
        },
        {
          "name": "_functionCallReward",
          "type": "uint256"
        },
        {
          "name": "_previousVersion",
          "type": "address"
        }
      ],
      "payable": false,
      "stateMutability": "nonpayable",
      "type": "constructor"
    },
    {
      "payable": true,
      "stateMutability": "payable",
      "type": "fallback"
    },
    {
      "anonymous": false,
      "inputs": [
        {
          "indexed": true,
          "name": "_cycleNumber",
          "type": "uint256"
        },
        {
          "indexed": true,
          "name": "_newPhase",
          "type": "uint256"
        },
        {
          "indexed": false,
          "name": "_timestamp",
          "type": "uint256"
        }
      ],
      "name": "ChangedPhase",
      "type": "event"
    },
    {
      "anonymous": false,
      "inputs": [
        {
          "indexed": true,
          "name": "_cycleNumber",
          "type": "uint256"
        },
        {
          "indexed": true,
          "name": "_sender",
          "type": "address"
        },
        {
          "indexed": false,
          "name": "_tokenAddress",
          "type": "address"
        },
        {
          "indexed": false,
          "name": "_tokenAmount",
          "type": "uint256"
        },
        {
          "indexed": false,
          "name": "_daiAmount",
          "type": "uint256"
        },
        {
          "indexed": false,
          "name": "_timestamp",
          "type": "uint256"
        }
      ],
      "name": "Deposit",
      "type": "event"
    },
    {
      "anonymous": false,
      "inputs": [
        {
          "indexed": true,
          "name": "_cycleNumber",
          "type": "uint256"
        },
        {
          "indexed": true,
          "name": "_sender",
          "type": "address"
        },
        {
          "indexed": false,
          "name": "_tokenAddress",
          "type": "address"
        },
        {
          "indexed": false,
          "name": "_tokenAmount",
          "type": "uint256"
        },
        {
          "indexed": false,
          "name": "daiAmount",
          "type": "uint256"
        },
        {
          "indexed": false,
          "name": "_timestamp",
          "type": "uint256"
        }
      ],
      "name": "Withdraw",
      "type": "event"
    },
    {
      "anonymous": false,
      "inputs": [
        {
          "indexed": true,
          "name": "_cycleNumber",
          "type": "uint256"
        },
        {
          "indexed": true,
          "name": "_sender",
          "type": "address"
        },
        {
          "indexed": false,
          "name": "_id",
          "type": "uint256"
        },
        {
          "indexed": false,
          "name": "_tokenAddress",
          "type": "address"
        },
        {
          "indexed": false,
          "name": "_stakeInWeis",
          "type": "uint256"
        },
        {
          "indexed": false,
          "name": "_buyPrice",
          "type": "uint256"
        },
        {
          "indexed": false,
          "name": "_costDAIAmount",
          "type": "uint256"
        }
      ],
      "name": "CreatedInvestment",
      "type": "event"
    },
    {
      "anonymous": false,
      "inputs": [
        {
          "indexed": true,
          "name": "_cycleNumber",
          "type": "uint256"
        },
        {
          "indexed": true,
          "name": "_sender",
          "type": "address"
        },
        {
          "indexed": false,
          "name": "_investmentId",
          "type": "uint256"
        },
        {
          "indexed": false,
          "name": "_receivedKairos",
          "type": "uint256"
        },
        {
          "indexed": false,
          "name": "_sellPrice",
          "type": "uint256"
        },
        {
          "indexed": false,
          "name": "_earnedDAIAmount",
          "type": "uint256"
        }
      ],
      "name": "SoldInvestment",
      "type": "event"
    },
    {
      "anonymous": false,
      "inputs": [
        {
          "indexed": true,
          "name": "_cycleNumber",
          "type": "uint256"
        },
        {
          "indexed": false,
          "name": "_beforeTotalFunds",
          "type": "uint256"
        },
        {
          "indexed": false,
          "name": "_afterTotalFunds",
          "type": "uint256"
        }
      ],
      "name": "ROI",
      "type": "event"
    },
    {
      "anonymous": false,
      "inputs": [
        {
          "indexed": true,
          "name": "_cycleNumber",
          "type": "uint256"
        },
        {
          "indexed": true,
          "name": "_sender",
          "type": "address"
        },
        {
          "indexed": false,
          "name": "_commission",
          "type": "uint256"
        }
      ],
      "name": "CommissionPaid",
      "type": "event"
    },
    {
      "anonymous": false,
      "inputs": [
        {
          "indexed": true,
          "name": "_cycleNumber",
          "type": "uint256"
        },
        {
          "indexed": false,
          "name": "_totalCommissionInWeis",
          "type": "uint256"
        }
      ],
      "name": "TotalCommissionPaid",
      "type": "event"
    },
    {
      "anonymous": false,
      "inputs": [],
      "name": "Pause",
      "type": "event"
    },
    {
      "anonymous": false,
      "inputs": [],
      "name": "Unpause",
      "type": "event"
    },
    {
      "anonymous": false,
      "inputs": [
        {
          "indexed": true,
          "name": "previousOwner",
          "type": "address"
        },
        {
          "indexed": true,
          "name": "newOwner",
          "type": "address"
        }
      ],
      "name": "OwnershipTransferred",
      "type": "event"
    },
    {
      "constant": true,
      "inputs": [
        {
          "name": "_userAddr",
          "type": "address"
        }
      ],
      "name": "investmentsCount",
      "outputs": [
        {
          "name": "_count",
          "type": "uint256"
        }
      ],
      "payable": false,
      "stateMutability": "view",
      "type": "function"
    },
    {
      "constant": true,
      "inputs": [],
      "name": "getPhaseLengths",
      "outputs": [
        {
          "name": "_phaseLengths",
          "type": "uint256[3]"
        }
      ],
      "payable": false,
      "stateMutability": "view",
      "type": "function"
    },
    {
      "constant": false,
      "inputs": [
        {
          "name": "_tokenAddr",
          "type": "address"
        }
      ],
      "name": "emergencyDumpToken",
      "outputs": [],
      "payable": false,
      "stateMutability": "nonpayable",
      "type": "function"
    },
    {
      "constant": false,
      "inputs": [
        {
          "name": "_investmentId",
          "type": "uint256"
        }
      ],
      "name": "emergencyRedeemStake",
      "outputs": [],
      "payable": false,
      "stateMutability": "nonpayable",
      "type": "function"
    },
    {
      "constant": false,
      "inputs": [],
      "name": "emergencyUpdateBalance",
      "outputs": [],
      "payable": false,
      "stateMutability": "nonpayable",
      "type": "function"
    },
    {
      "constant": false,
      "inputs": [
        {
          "name": "_newVal",
          "type": "bool"
        }
      ],
      "name": "setAllowEmergencyWithdraw",
      "outputs": [],
      "payable": false,
      "stateMutability": "nonpayable",
      "type": "function"
    },
    {
      "constant": false,
      "inputs": [],
      "name": "emergencyWithdraw",
      "outputs": [],
      "payable": false,
      "stateMutability": "nonpayable",
      "type": "function"
    },
    {
      "constant": false,
      "inputs": [
        {
          "name": "_newAddr",
          "type": "address"
        }
      ],
      "name": "changeKyberNetworkAddress",
      "outputs": [],
      "payable": false,
      "stateMutability": "nonpayable",
      "type": "function"
    },
    {
      "constant": false,
      "inputs": [
        {
          "name": "_newAddr",
          "type": "address"
        }
      ],
      "name": "changeDeveloperFeeAccount",
      "outputs": [],
      "payable": false,
      "stateMutability": "nonpayable",
      "type": "function"
    },
    {
      "constant": false,
      "inputs": [
        {
          "name": "_newAddr",
          "type": "address"
        }
      ],
      "name": "changeDAIAddress",
      "outputs": [],
      "payable": false,
      "stateMutability": "nonpayable",
      "type": "function"
    },
    {
      "constant": false,
      "inputs": [
        {
          "name": "_newProp",
          "type": "uint256"
        }
      ],
      "name": "changeCommissionRate",
      "outputs": [],
      "payable": false,
      "stateMutability": "nonpayable",
      "type": "function"
    },
    {
      "constant": false,
      "inputs": [
        {
          "name": "_newProp",
          "type": "uint256"
        }
      ],
      "name": "changeAssetFeeRate",
      "outputs": [],
      "payable": false,
      "stateMutability": "nonpayable",
      "type": "function"
    },
    {
      "constant": false,
      "inputs": [
        {
          "name": "_newProp",
          "type": "uint256"
        }
      ],
      "name": "changeDeveloperFeeProportion",
      "outputs": [],
      "payable": false,
      "stateMutability": "nonpayable",
      "type": "function"
    },
    {
      "constant": false,
      "inputs": [
        {
          "name": "_newProp",
          "type": "uint256"
        }
      ],
      "name": "changeExitFeeRate",
      "outputs": [],
      "payable": false,
      "stateMutability": "nonpayable",
      "type": "function"
    },
    {
      "constant": false,
      "inputs": [
        {
          "name": "_newVal",
          "type": "uint256"
        }
      ],
      "name": "changeCallReward",
      "outputs": [],
      "payable": false,
      "stateMutability": "nonpayable",
      "type": "function"
    },
    {
      "constant": false,
      "inputs": [
        {
          "name": "_newVal",
          "type": "uint256[3]"
        }
      ],
      "name": "changePhaseLengths",
      "outputs": [],
      "payable": false,
      "stateMutability": "nonpayable",
      "type": "function"
    },
    {
      "constant": false,
      "inputs": [
        {
          "name": "_newOwner",
          "type": "address"
        }
      ],
      "name": "changeControlTokenOwner",
      "outputs": [],
      "payable": false,
      "stateMutability": "nonpayable",
      "type": "function"
    },
    {
      "constant": false,
      "inputs": [
        {
          "name": "_coin",
          "type": "address"
        },
        {
          "name": "_status",
          "type": "bool"
        }
      ],
      "name": "setMaliciousCoinStatus",
      "outputs": [],
      "payable": false,
      "stateMutability": "nonpayable",
      "type": "function"
    },
    {
      "constant": false,
      "inputs": [],
      "name": "nextPhase",
      "outputs": [],
      "payable": false,
      "stateMutability": "nonpayable",
      "type": "function"
    },
    {
      "constant": false,
      "inputs": [],
      "name": "deposit",
      "outputs": [],
      "payable": true,
      "stateMutability": "payable",
      "type": "function"
    },
    {
      "constant": false,
      "inputs": [
        {
          "name": "_tokenAddr",
          "type": "address"
        },
        {
          "name": "_tokenAmount",
          "type": "uint256"
        }
      ],
      "name": "depositToken",
      "outputs": [],
      "payable": false,
      "stateMutability": "nonpayable",
      "type": "function"
    },
    {
      "constant": false,
      "inputs": [
        {
          "name": "_amountInDAI",
          "type": "uint256"
        }
      ],
      "name": "withdraw",
      "outputs": [],
      "payable": false,
      "stateMutability": "nonpayable",
      "type": "function"
    },
    {
      "constant": false,
      "inputs": [
        {
          "name": "_tokenAddr",
          "type": "address"
        },
        {
          "name": "_amountInDAI",
          "type": "uint256"
        }
      ],
      "name": "withdrawToken",
      "outputs": [],
      "payable": false,
      "stateMutability": "nonpayable",
      "type": "function"
    },
    {
      "constant": false,
      "inputs": [
        {
          "name": "_tokenAddress",
          "type": "address"
        },
        {
          "name": "_stake",
          "type": "uint256"
        }
      ],
      "name": "createInvestment",
      "outputs": [],
      "payable": false,
      "stateMutability": "nonpayable",
      "type": "function"
    },
    {
      "constant": false,
      "inputs": [
        {
          "name": "_investmentId",
          "type": "uint256"
        }
      ],
      "name": "sellInvestmentAsset",
      "outputs": [],
      "payable": false,
      "stateMutability": "nonpayable",
      "type": "function"
    },
    {
      "constant": false,
      "inputs": [],
      "name": "redeemCommission",
      "outputs": [],
      "payable": false,
      "stateMutability": "nonpayable",
      "type": "function"
    },
    {
      "constant": false,
      "inputs": [],
      "name": "redeemCommissionInShares",
      "outputs": [],
      "payable": false,
      "stateMutability": "nonpayable",
      "type": "function"
    },
    {
      "constant": false,
      "inputs": [
        {
          "name": "_tokenAddr",
          "type": "address"
        }
      ],
      "name": "sellLeftoverToken",
      "outputs": [],
      "payable": false,
      "stateMutability": "nonpayable",
      "type": "function"
    }
  ],
  "bytecode": "0x60606040526000805460a060020a60ff021916905534156200002057600080fd5b6040516101c08062004c2583398101604052808051919060200180519190602001805191906020018051919060200180519160208201916080018051919060200180519190602001805191906020018051919060200180519190602001805160008054600160a060020a03191633600160a060020a03161790559150670de0b6b3a76400009050620000c18786640100000000620002a58102620040e11704565b10620000cc57600080fd5b8b600160006101000a815481600160a060020a030219169083600160a060020a031602179055508a600260006101000a815481600160a060020a030219169083600160a060020a0316021790555089600360006101000a815481600160a060020a030219169083600160a060020a0316021790555088600560006101000a815481600160a060020a030219169083600160a060020a031602179055508b601760016101000a815481600160a060020a030219169083600160a060020a031602179055508a601860006101000a815481600160a060020a030219169083600160a060020a0316021790555089601960006101000a815481600160a060020a030219169083600160a060020a0316021790555088601a60006101000a815481600160a060020a030219169083600160a060020a0316021790555087600460006101000a815481600160a060020a030219169083600160a060020a031602179055508660119060036200023e929190620002bc565b50600a95909555600b93909355600c91909155600d5560006009556017805460ff19908116600217909155600e9190915560068054600160a060020a031916600160a060020a0390931692909217909155601080549091169055506200031f945050505050565b600082820183811015620002b557fe5b9392505050565b8260038101928215620002ed579160200282015b82811115620002ed578251825591602001919060010190620002d0565b50620002fb929150620002ff565b5090565b6200031c91905b80821115620002fb576000815560010162000306565b90565b6148f6806200032f6000396000f3006060604052600436106102635763ffffffff60e060020a600035041663013bcbfc81146102805780630cba5355146102a55780630e1b1fda146102b857806311815223146102ce57806312e1ee45146102ed578063173e77071461030c578063192d619d1461032b5780631a2604a41461033e5780631a26af7a146103715780631ab371fc146103845780631b8e2192146103b35780631f7f336f146103c65780632303b5b0146103d957806325f842c5146103ef5780632e1a7d4d146104025780632f88471014610418578063338b5dea1461042b5780633e2f2b191461044d5780633eadb6db146104635780633f4ba83a14610476578063407fa2a3146104895780635c975abb146104d45780635d4c3224146104e75780635ea1d6f8146104ff578063612d194d1461051257806364542e3e146105255780636642642a1461053b57806368063a7414610551578063749b7a3c1461057057806374fa0a63146105a95780637fa61e14146105bc578063821f9824146105d25780638456cb59146105f15780638da5cb5b146106045780639244adcd146106175780639b4ef376146106815780639e281a98146106a5578063a7c4dccf146106c7578063ab4df168146106da578063b18e8a8d146106f9578063b2637f6514610718578063b6106f3f1461072b578063c0320dbc1461073e578063d0e30db014610751578063d7615d3714610759578063d82277cc1461076c578063db2e21bc1461078e578063db3d1ccf146107a1578063dc87454c146107b4578063e53ad2d0146107c7578063e7476abf146107dd578063f2fde38b146107fc578063f6558b001461081b575b60035433600160a060020a0390811691161461027e57600080fd5b005b341561028b57600080fd5b610293610852565b60405190815260200160405180910390f35b34156102b057600080fd5b610293610858565b34156102c357600080fd5b61027e60043561085e565b34156102d957600080fd5b61027e600160a060020a0360043516610974565b34156102f857600080fd5b61027e600160a060020a03600435166109e8565b341561031757600080fd5b61027e600160a060020a0360043516610acb565b341561033657600080fd5b61027e610d4c565b341561034957600080fd5b61035d600160a060020a03600435166110a5565b604051901515815260200160405180910390f35b341561037c57600080fd5b61035d6110ba565b341561038f57600080fd5b6103976110c3565b604051600160a060020a03909116815260200160405180910390f35b34156103be57600080fd5b61027e6110d2565b34156103d157600080fd5b61029361127d565b34156103e457600080fd5b61027e600435611283565b34156103fa57600080fd5b6102936112a3565b341561040d57600080fd5b61027e6004356112a9565b341561042357600080fd5b61029361165a565b341561043657600080fd5b61027e600160a060020a0360043516602435611660565b341561045857600080fd5b61027e600435611d89565b341561046e57600080fd5b61027e611db7565b341561048157600080fd5b61027e612128565b341561049457600080fd5b61049c6121a7565b6040518082606080838360005b838110156104c15780820151838201526020016104a9565b5050505090500191505060405180910390f35b34156104df57600080fd5b61035d6121e5565b34156104f257600080fd5b61027e60043515156121f5565b341561050a57600080fd5b61029361223b565b341561051d57600080fd5b610293612241565b341561053057600080fd5b61027e600435612247565b341561054657600080fd5b61027e600435612275565b341561055c57600080fd5b610293600160a060020a0360043516612295565b341561057b57600080fd5b61027e60046064816003606060405190810160405291908282606080828437509395506122b4945050505050565b34156105b457600080fd5b6103976122e0565b34156105c757600080fd5b61027e6004356122ef565b34156105dd57600080fd5b610293600160a060020a036004351661230f565b34156105fc57600080fd5b61027e612321565b341561060f57600080fd5b6103976123a5565b341561062257600080fd5b610639600160a060020a03600435166024356123b4565b604051600160a060020a03909716875260208701959095526040808701949094526060860192909252608085015260a084015290151560c083015260e0909101905180910390f35b341561068c57600080fd5b61027e600160a060020a0360043516602435151561241a565b34156106b057600080fd5b61027e600160a060020a0360043516602435612475565b34156106d257600080fd5b610397612a28565b34156106e557600080fd5b61027e600160a060020a0360043516612a37565b341561070457600080fd5b61027e600160a060020a0360043516612aab565b341561072357600080fd5b61027e612afd565b341561073657600080fd5b610293612ba8565b341561074957600080fd5b610293612bae565b61027e612bb4565b341561076457600080fd5b610397613033565b341561077757600080fd5b61027e600160a060020a0360043516602435613042565b341561079957600080fd5b61027e6134d8565b34156107ac57600080fd5b6103976137de565b34156107bf57600080fd5b6103976137ed565b34156107d257600080fd5b61027e6004356137fc565b34156107e857600080fd5b61027e600160a060020a0360043516613c85565b341561080757600080fd5b61027e600160a060020a0360043516613d33565b341561082657600080fd5b61082e613dc1565b6040518082600281111561083e57fe5b60ff16815260200191505060405180910390f35b600c5481565b60085481565b60008054819060a060020a900460ff16151561087957600080fd5b60105460ff16151561088a57600080fd5b600160a060020a03331660009081526015602052604090208054849081106108ae57fe5b9060005260206000209060070201915060075482600101541415156108d257600080fd5b506002810154600081116108e557600080fd5b6000600283018190556017546101009004600160a060020a03169063a9059cbb90339084906040516020015260405160e060020a63ffffffff8516028152600160a060020a0390921660048301526024820152604401602060405180830381600087803b151561095457600080fd5b6102c65a03f1151561096557600080fd5b50505060405180515050505050565b60005433600160a060020a0390811691161461098f57600080fd5b60005460a060020a900460ff1615156109a757600080fd5b600160a060020a03811615156109bc57600080fd5b60038054600160a060020a03909216600160a060020a0319928316811790915560198054909216179055565b6000805433600160a060020a03908116911614610a0457600080fd5b60028060175460ff166002811115610a1857fe5b14610a2257600080fd5b60005460a060020a900460ff161515610a3a57600080fd5b829150610ac58283600160a060020a03166370a082313060006040516020015260405160e060020a63ffffffff8416028152600160a060020a039091166004820152602401602060405180830381600087803b1515610a9857600080fd5b6102c65a03f11515610aa957600080fd5b5050506040518051601a54909150600160a060020a0316613dca565b50505050565b60008060028060175460ff166002811115610ae257fe5b14610aec57600080fd5b600160a060020a038416600090815260166020526040902054849060ff1615610b1457600080fd5b600160a060020a0381166000805160206148ab83398151915214610ba157600081600160a060020a03166318160ddd6000604051602001526040518163ffffffff1660e060020a028152600401602060405180830381600087803b1515610b7a57600080fd5b6102c65a03f11515610b8b57600080fd5b50505060405180519050111515610ba157600080fd5b60005460a060020a900460ff1615610bb857600080fd5b601a54600160a060020a03166370a082313060006040516020015260405160e060020a63ffffffff8416028152600160a060020a039091166004820152602401602060405180830381600087803b1515610c1157600080fd5b6102c65a03f11515610c2257600080fd5b5050506040518051600554909550869450600160a060020a03808616911614159050610c4d57600080fd5b610ca88384600160a060020a03166370a082313060006040516020015260405160e060020a63ffffffff8416028152600160a060020a039091166004820152602401602060405180830381600087803b1515610a9857600080fd5b50601a54610d4290610d33908690600160a060020a03166370a082313060006040516020015260405160e060020a63ffffffff8416028152600160a060020a039091166004820152602401602060405180830381600087803b1515610d0c57600080fd5b6102c65a03f11515610d1d57600080fd5b505050604051805191905063ffffffff6140ca16565b6008549063ffffffff6140e116565b6008555050505050565b600060028060175460ff166002811115610d6257fe5b14610d6c57600080fd5b60005460a060020a900460ff1615610d8357600080fd5b600754600160a060020a03331660009081526014602052604090205410610da957600080fd5b600754600160a060020a0333811660009081526014602052604080822093909355601754610ec893610100909104909216916318160ddd919051602001526040518163ffffffff1660e060020a028152600401602060405180830381600087803b1515610e1557600080fd5b6102c65a03f11515610e2657600080fd5b5050506040518051601754909150610ebc906101009004600160a060020a03166370a082313360006040516020015260405160e060020a63ffffffff8416028152600160a060020a039091166004820152602401602060405180830381600087803b1515610e9357600080fd5b6102c65a03f11515610ea457600080fd5b5050506040518051600f54915063ffffffff6140fb16565b9063ffffffff61412616565b601854600854919350600160a060020a0316906340c10f19903390610f4e90610ebc856318160ddd6000604051602001526040518163ffffffff1660e060020a028152600401602060405180830381600087803b1515610f2757600080fd5b6102c65a03f11515610f3857600080fd5b505050604051805189915063ffffffff6140fb16565b60006040516020015260405160e060020a63ffffffff8516028152600160a060020a0390921660048301526024820152604401602060405180830381600087803b1515610f9a57600080fd5b6102c65a03f11515610fab57600080fd5b50505060405180515050600854610fc8908363ffffffff6140e116565b600855600160a060020a0333166000908152601560205260408120610fec91614783565b600754600554600160a060020a0333811692917f7ee7a1de9c18ce695c95b8b19fbdf26cce3544e3ca9e08c9f487776783d7599f91168580426040518085600160a060020a0316600160a060020a0316815260200184815260200183815260200182815260200194505050505060405180910390a333600160a060020a03166007547fec530ab710fdaa2b5968fe15f486992441a96f643219cf0150904aa5b9eedf828460405190815260200160405180910390a35050565b60166020526000908152604090205460ff1681565b60105460ff1681565b600454600160a060020a031681565b600060028060175460ff1660028111156110e857fe5b146110f257600080fd5b60005460a060020a900460ff161561110957600080fd5b600754600160a060020a0333166000908152601460205260409020541061112f57600080fd5b600754600160a060020a033381166000908152601460205260408082209390935560175461119b93610100909104909216916318160ddd919051602001526040518163ffffffff1660e060020a028152600401602060405180830381600087803b1515610e1557600080fd5b601a54909250600160a060020a031663a9059cbb338460006040516020015260405160e060020a63ffffffff8516028152600160a060020a0390921660048301526024820152604401602060405180830381600087803b15156111fd57600080fd5b6102c65a03f1151561120e57600080fd5b50505060405180515050600160a060020a033316600090815260156020526040812061123991614783565b33600160a060020a03166007547fec530ab710fdaa2b5968fe15f486992441a96f643219cf0150904aa5b9eedf828460405190815260200160405180910390a35050565b600b5481565b60005433600160a060020a0390811691161461129e57600080fd5b600e55565b60095481565b600080808080808060175460ff1660028111156112c257fe5b146112cc57600080fd5b60005460a060020a900460ff16156112e357600080fd5b601a54600160a060020a03308181163196509116906370a082319060006040516020015260405160e060020a63ffffffff8416028152600160a060020a039091166004820152602401602060405180830381600087803b151561134557600080fd5b6102c65a03f1151561135657600080fd5b5050506040518051601a549094506113879150600160a060020a0316886000805160206148ab833981519152613dca565b506113a2600160a060020a033016318563ffffffff6140ca16565b601a5490965061142990600160a060020a03166370a082313060006040516020015260405160e060020a63ffffffff8416028152600160a060020a039091166004820152602401602060405180830381600087803b151561140257600080fd5b6102c65a03f1151561141357600080fd5b505050604051805185915063ffffffff6140ca16565b94506000851161143857600080fd5b601854600854600160a060020a039091169063c00017869033906114bd90610ebc856318160ddd6000604051602001526040518163ffffffff1660e060020a028152600401602060405180830381600087803b151561149657600080fd5b6102c65a03f115156114a757600080fd5b50505060405180518c915063ffffffff6140fb16565b60006040516020015260405160e060020a63ffffffff8516028152600160a060020a0390921660048301526024820152604401602060405180830381600087803b151561150957600080fd5b6102c65a03f1151561151a57600080fd5b50505060405180515050600854611537908663ffffffff6140ca16565b600855600d5461155c90670de0b6b3a764000090610ebc90899063ffffffff6140fb16565b600454909250600160a060020a031682156108fc0283604051600060405180830381858888f19350505050151561159257600080fd5b6115a2868363ffffffff6140ca16565b9550600160a060020a03331686156108fc0287604051600060405180830381858888f1935050505015156115d557600080fd5b33600160a060020a03166007547fae96a66bcd5a00556ad548b9a949f8f45220d5859c013e5cedbddd6af8cf7b9d6000805160206148ab8339815191528989426040518085600160a060020a0316600160a060020a0316815260200184815260200183815260200182815260200194505050505060405180910390a350505050505050565b60075481565b60008080808080808060175460ff16600281111561167a57fe5b1461168457600080fd5b600160a060020a038916600090815260166020526040902054899060ff16156116ac57600080fd5b600160a060020a0381166000805160206148ab8339815191521461173957600081600160a060020a03166318160ddd6000604051602001526040518163ffffffff1660e060020a028152600401602060405180830381600087803b151561171257600080fd5b6102c65a03f1151561172357600080fd5b5050506040518051905011151561173957600080fd5b60005460a060020a900460ff161561175057600080fd5b89975087600160a060020a03166323b872dd33308c60006040516020015260405160e060020a63ffffffff8616028152600160a060020a0393841660048201529190921660248201526044810191909152606401602060405180830381600087803b15156117bd57600080fd5b6102c65a03f115156117ce57600080fd5b5050506040518051905015156117e357600080fd5b600554600160a060020a038b81169116141561180457889650889550611a98565b87600160a060020a03166370a082313060006040516020015260405160e060020a63ffffffff8416028152600160a060020a039091166004820152602401602060405180830381600087803b151561185b57600080fd5b6102c65a03f1151561186c57600080fd5b5050506040518051601a54909650600160a060020a031690506370a082313060006040516020015260405160e060020a63ffffffff8416028152600160a060020a039091166004820152602401602060405180830381600087803b15156118d257600080fd5b6102c65a03f115156118e357600080fd5b5050506040518051601a54909550611908915089908b90600160a060020a0316613dca565b5061198a88600160a060020a03166370a082313060006040516020015260405160e060020a63ffffffff8416028152600160a060020a039091166004820152602401602060405180830381600087803b151561196357600080fd5b6102c65a03f1151561197457600080fd5b505050604051805187915063ffffffff6140ca16565b955061199c898763ffffffff6140ca16565b92506000831115611a2a5787600160a060020a031663a9059cbb338560006040516020015260405160e060020a63ffffffff8516028152600160a060020a0390921660048301526024820152604401602060405180830381600087803b1515611a0457600080fd5b6102c65a03f11515611a1557600080fd5b505050604051805190501515611a2a57600080fd5b601a54611a89908590600160a060020a03166370a082313060006040516020015260405160e060020a63ffffffff8416028152600160a060020a039091166004820152602401602060405180830381600087803b1515610d0c57600080fd5b965060008711611a9857600080fd5b601854600160a060020a03166318160ddd6000604051602001526040518163ffffffff1660e060020a028152600401602060405180830381600087803b1515611ae057600080fd5b6102c65a03f11515611af157600080fd5b505050604051805115905080611b075750600854155b15611b8c57601854600160a060020a03166340c10f19338960006040516020015260405160e060020a63ffffffff8516028152600160a060020a0390921660048301526024820152604401602060405180830381600087803b1515611b6b57600080fd5b6102c65a03f11515611b7c57600080fd5b5050506040518051905050611c79565b601854600854600160a060020a03909116906340c10f19903390611c1190610ebc856318160ddd6000604051602001526040518163ffffffff1660e060020a028152600401602060405180830381600087803b1515611bea57600080fd5b6102c65a03f11515611bfb57600080fd5b50505060405180518e915063ffffffff6140fb16565b60006040516020015260405160e060020a63ffffffff8516028152600160a060020a0390921660048301526024820152604401602060405180830381600087803b1515611c5d57600080fd5b6102c65a03f11515611c6e57600080fd5b505050604051805150505b600854611c8c908863ffffffff6140e116565b6008556017546101009004600160a060020a03166340c10f19338960006040516020015260405160e060020a63ffffffff8516028152600160a060020a0390921660048301526024820152604401602060405180830381600087803b1515611cf357600080fd5b6102c65a03f11515611d0457600080fd5b505050604051805190505033600160a060020a03166007547f7ee7a1de9c18ce695c95b8b19fbdf26cce3544e3ca9e08c9f487776783d7599f8c898b426040518085600160a060020a0316600160a060020a0316815260200184815260200183815260200182815260200194505050505060405180910390a350505050505050505050565b60005433600160a060020a03908116911614611da457600080fd5b600d548110611db257600080fd5b600d55565b60005460a060020a900460ff1615611dce57600080fd5b601754611e019060119060ff166002811115611de657fe5b60038110611df057fe5b01546009549063ffffffff6140e116565b421015611e0d57600080fd5b600260175460ff166002811115611e2057fe5b1415611f2c576007541515611e4a5760005433600160a060020a03908116911614611e4a57600080fd5b600754611e5e90600163ffffffff6140e116565b6007556017546101009004600160a060020a0316635c975abb6000604051602001526040518163ffffffff1660e060020a028152600401602060405180830381600087803b1515611eae57600080fd5b6102c65a03f11515611ebf57600080fd5b5050506040518051905015611f27576017546101009004600160a060020a0316633f4ba83a6040518163ffffffff1660e060020a028152600401600060405180830381600087803b1515611f1257600080fd5b6102c65a03f11515611f2357600080fd5b5050505b612018565b600160175460ff166002811115611f3f57fe5b1415612018576017546101009004600160a060020a031663f3123a3a6000604051602001526040518163ffffffff1660e060020a028152600401602060405180830381600087803b1515611f9257600080fd5b6102c65a03f11515611fa357600080fd5b505050604051805190501515611fb857600080fd5b6017546101009004600160a060020a0316638456cb596040518163ffffffff1660e060020a028152600401600060405180830381600087803b1515611ffc57600080fd5b6102c65a03f1151561200d57600080fd5b50505061201861413d565b60175460039060019060ff16600281111561202f57fe5b08600281111561203b57fe5b6017805460ff1916600183600281111561205157fe5b021790555042600955601754600e54610100909104600160a060020a0316906340c10f1990339060006040516020015260405160e060020a63ffffffff8516028152600160a060020a0390921660048301526024820152604401602060405180830381600087803b15156120c457600080fd5b6102c65a03f115156120d557600080fd5b5050506040518051505060175460ff1660028111156120f057fe5b6007547f9590d2eff92d0882635fb8e1412da02e41af0dc517cfd07520a03506eb65b0af4260405190815260200160405180910390a3565b60005433600160a060020a0390811691161461214357600080fd5b60005460a060020a900460ff16151561215b57600080fd5b6000805474ff0000000000000000000000000000000000000000191690557f7805862f689e2f13df9f062ff482ad3ad112aca9e0847911ed832e158c525b3360405160405180910390a1565b6121af6147a7565b60116003606060405190810160405291906060830182845b8154815260200190600101908083116121c757505050505090505b90565b60005460a060020a900460ff1681565b60005433600160a060020a0390811691161461221057600080fd5b60005460a060020a900460ff16151561222857600080fd5b6010805460ff1916911515919091179055565b600a5481565b600e5481565b60005433600160a060020a0390811691161461226257600080fd5b600c54811061227057600080fd5b600c55565b60005433600160a060020a0390811691161461229057600080fd5b600a55565b600160a060020a0381166000908152601560205260409020545b919050565b60005433600160a060020a039081169116146122cf57600080fd5b6122dc60118260036147ce565b5050565b600554600160a060020a031681565b60005433600160a060020a0390811691161461230a57600080fd5b600b55565b60146020526000908152604090205481565b60005433600160a060020a0390811691161461233c57600080fd5b60005460a060020a900460ff161561235357600080fd5b6000805474ff0000000000000000000000000000000000000000191660a060020a1790557f6985a02210a168e66602d3235cb6db0e70f92b3ba4d376a33c0f3d9434bff62560405160405180910390a1565b600054600160a060020a031681565b6015602052816000526040600020818154811015156123cf57fe5b60009182526020909120600790910201805460018201546002830154600384015460048501546005860154600690960154600160a060020a0390951697509295509093909260ff1687565b60005433600160a060020a0390811691161461243557600080fd5b600160a060020a038216151561244a57600080fd5b600160a060020a03919091166000908152601660205260409020805460ff1916911515919091179055565b60008080808080808060175460ff16600281111561248f57fe5b1461249957600080fd5b600160a060020a038916600090815260166020526040902054899060ff16156124c157600080fd5b600160a060020a0381166000805160206148ab8339815191521461254e57600081600160a060020a03166318160ddd6000604051602001526040518163ffffffff1660e060020a028152600401602060405180830381600087803b151561252757600080fd5b6102c65a03f1151561253857600080fd5b5050506040518051905011151561254e57600080fd5b60005460a060020a900460ff161561256557600080fd5b6005548a9850600160a060020a03808a16911614156125895788955088965061277d565b87600160a060020a03166370a082313060006040516020015260405160e060020a63ffffffff8416028152600160a060020a039091166004820152602401602060405180830381600087803b15156125e057600080fd5b6102c65a03f115156125f157600080fd5b5050506040518051601a54909650600160a060020a031690506370a082313060006040516020015260405160e060020a63ffffffff8416028152600160a060020a039091166004820152602401602060405180830381600087803b151561265757600080fd5b6102c65a03f1151561266857600080fd5b5050506040518051601a5490955061268b9150600160a060020a03168a8a613dca565b506126e78589600160a060020a03166370a082313060006040516020015260405160e060020a63ffffffff8416028152600160a060020a039091166004820152602401602060405180830381600087803b1515610d0c57600080fd5b601a5490975061276e90600160a060020a03166370a082313060006040516020015260405160e060020a63ffffffff8416028152600160a060020a039091166004820152602401602060405180830381600087803b151561274757600080fd5b6102c65a03f1151561275857600080fd5b505050604051805186915063ffffffff6140ca16565b95506000861161277d57600080fd5b601854600854600160a060020a039091169063c000178690339061280290610ebc856318160ddd6000604051602001526040518163ffffffff1660e060020a028152600401602060405180830381600087803b15156127db57600080fd5b6102c65a03f115156127ec57600080fd5b50505060405180518d915063ffffffff6140fb16565b60006040516020015260405160e060020a63ffffffff8516028152600160a060020a0390921660048301526024820152604401602060405180830381600087803b151561284e57600080fd5b6102c65a03f1151561285f57600080fd5b5050506040518051505060085461287c908763ffffffff6140ca16565b600855600d546128a190670de0b6b3a764000090610ebc908a9063ffffffff6140fb16565b600454909350600160a060020a03808a169163a9059cbb91168560006040516020015260405160e060020a63ffffffff8516028152600160a060020a0390921660048301526024820152604401602060405180830381600087803b151561290757600080fd5b6102c65a03f1151561291857600080fd5b5050506040518051506129339050878463ffffffff6140ca16565b965087600160a060020a031663a9059cbb338960006040516020015260405160e060020a63ffffffff8516028152600160a060020a0390921660048301526024820152604401602060405180830381600087803b151561299257600080fd5b6102c65a03f115156129a357600080fd5b505050604051805190505033600160a060020a03166007547fae96a66bcd5a00556ad548b9a949f8f45220d5859c013e5cedbddd6af8cf7b9d8c8a8a426040518085600160a060020a0316600160a060020a0316815260200184815260200183815260200182815260200194505050505060405180910390a350505050505050505050565b600354600160a060020a031681565b60005433600160a060020a03908116911614612a5257600080fd5b60005460a060020a900460ff161515612a6a57600080fd5b600160a060020a0381161515612a7f57600080fd5b60058054600160a060020a03909216600160a060020a03199283168117909155601a8054909216179055565b60005433600160a060020a03908116911614612ac657600080fd5b600160a060020a0381161515612adb57600080fd5b60048054600160a060020a031916600160a060020a0392909216919091179055565b60005433600160a060020a03908116911614612b1857600080fd5b60005460a060020a900460ff161515612b3057600080fd5b601a54600160a060020a03166370a082313060006040516020015260405160e060020a63ffffffff8416028152600160a060020a039091166004820152602401602060405180830381600087803b1515612b8957600080fd5b6102c65a03f11515612b9a57600080fd5b505050604051805160085550565b600d5481565b600f5481565b600080808080808060175460ff166002811115612bcd57fe5b14612bd757600080fd5b60005460a060020a900460ff1615612bee57600080fd5b601a54600160a060020a03308181163196509116906370a082319060006040516020015260405160e060020a63ffffffff8416028152600160a060020a039091166004820152602401602060405180830381600087803b1515612c5057600080fd5b6102c65a03f11515612c6157600080fd5b5050506040518051601a54909450612c9491506000805160206148ab833981519152903490600160a060020a0316613dca565b50612caf84600160a060020a0330163163ffffffff6140ca16565b9450612cc1348663ffffffff6140ca16565b91506000821115612cfd57600160a060020a03331682156108fc0283604051600060405180830381858888f193505050501515612cfd57600080fd5b601a54612d5c908490600160a060020a03166370a082313060006040516020015260405160e060020a63ffffffff8416028152600160a060020a039091166004820152602401602060405180830381600087803b1515610d0c57600080fd5b601854909650600160a060020a03166318160ddd6000604051602001526040518163ffffffff1660e060020a028152600401602060405180830381600087803b1515612da757600080fd5b6102c65a03f11515612db857600080fd5b505050604051805115905080612dce5750600854155b15612e5357601854600160a060020a03166340c10f19338860006040516020015260405160e060020a63ffffffff8516028152600160a060020a0390921660048301526024820152604401602060405180830381600087803b1515612e3257600080fd5b6102c65a03f11515612e4357600080fd5b5050506040518051905050612f19565b601854600854600160a060020a03909116906340c10f19903390612eb190610ebc856318160ddd6000604051602001526040518163ffffffff1660e060020a028152600401602060405180830381600087803b15156127db57600080fd5b60006040516020015260405160e060020a63ffffffff8516028152600160a060020a0390921660048301526024820152604401602060405180830381600087803b1515612efd57600080fd5b6102c65a03f11515612f0e57600080fd5b505050604051805150505b600854612f2c908763ffffffff6140e116565b6008556017546101009004600160a060020a03166340c10f19338860006040516020015260405160e060020a63ffffffff8516028152600160a060020a0390921660048301526024820152604401602060405180830381600087803b1515612f9357600080fd5b6102c65a03f11515612fa457600080fd5b505050604051805190505033600160a060020a03166007547f7ee7a1de9c18ce695c95b8b19fbdf26cce3544e3ca9e08c9f487776783d7599f6000805160206148ab833981519152888a426040518085600160a060020a0316600160a060020a0316815260200184815260200183815260200182815260200194505050505060405180910390a3505050505050565b600254600160a060020a031681565b600080808060018060175460ff16600281111561305b57fe5b1461306557600080fd5b600160a060020a038716600090815260166020526040902054879060ff161561308d57600080fd5b600160a060020a0381166000805160206148ab8339815191521461311a57600081600160a060020a03166318160ddd6000604051602001526040518163ffffffff1660e060020a028152600401602060405180830381600087803b15156130f357600080fd5b6102c65a03f1151561310457600080fd5b5050506040518051905011151561311a57600080fd5b60005460a060020a900460ff161561313157600080fd5b6017548896506101009004600160a060020a0316632bee7bde338960006040516020015260405160e060020a63ffffffff8516028152600160a060020a0390921660048301526024820152604401602060405180830381600087803b151561319857600080fd5b6102c65a03f115156131a957600080fd5b5050506040518051905015156131be57600080fd5b600160a060020a03331660009081526015602052604090208054600181016131e6838261480c565b9160005260206000209060070201600060e06040519081016040908152600160a060020a038d168252600754602083015281018b90526000606082018190526080820181905260a0820181905260c082015291905081518154600160a060020a031916600160a060020a03919091161781556020820151816001015560408201518160020155606082015181600301556080820151816004015560a0820151816005015560c0820151600691909101805460ff1916911515919091179055506132b1905086306144f5565b601a54909550600160a060020a03166370a082313060006040516020015260405160e060020a63ffffffff8416028152600160a060020a039091166004820152602401602060405180830381600087803b151561330d57600080fd5b6102c65a03f1151561331e57600080fd5b505050604051805190509350613344600161333833612295565b9063ffffffff6140ca16565b925061335183600161459f565b61335f8561333888306144f5565b600160a060020a033316600090815260156020526040902080548590811061338357fe5b90600052602060002090600702016003018190555033600160a060020a03166007547f889f8b8332780d1527bc9c13329f57e4eeac4aa8255a0e7d6af5ef7a864301816133d4600161333833612295565b600160a060020a033316600090815260156020526040902080548d918d918a9081106133fc57fe5b60009182526020822060046007909202010154601a54909161349691600160a060020a0316906370a082319030906040516020015260405160e060020a63ffffffff8416028152600160a060020a039091166004820152602401602060405180830381600087803b151561346f57600080fd5b6102c65a03f1151561348057600080fd5b50505060405180518d915063ffffffff6140ca16565b604051948552600160a060020a0390931660208501526040808501929092526060840152608083019190915260a0909101905180910390a35050505050505050565b6000805460a060020a900460ff1615156134f157600080fd5b60105460ff16151561350257600080fd5b6018546135f190600160a060020a03166318160ddd6000604051602001526040518163ffffffff1660e060020a028152600401602060405180830381600087803b151561354e57600080fd5b6102c65a03f1151561355f57600080fd5b5050506040518051600854601854919250610ebc91600160a060020a03166370a082313360006040516020015260405160e060020a63ffffffff8416028152600160a060020a039091166004820152602401602060405180830381600087803b15156135ca57600080fd5b6102c65a03f115156135db57600080fd5b505050604051805191905063ffffffff6140fb16565b601854909150600160a060020a031663c000178633826370a082318260006040516020015260405160e060020a63ffffffff8416028152600160a060020a039091166004820152602401602060405180830381600087803b151561365457600080fd5b6102c65a03f1151561366557600080fd5b5050506040518051905060006040516020015260405160e060020a63ffffffff8516028152600160a060020a0390921660048301526024820152604401602060405180830381600087803b15156136bb57600080fd5b6102c65a03f115156136cc57600080fd5b505050604051805150506008546136e9908263ffffffff6140ca16565b600855601a54600160a060020a031663a9059cbb338360006040516020015260405160e060020a63ffffffff8516028152600160a060020a0390921660048301526024820152604401602060405180830381600087803b151561374b57600080fd5b6102c65a03f1151561375c57600080fd5b50505060405180515050600754600554600160a060020a0333811692917fae96a66bcd5a00556ad548b9a949f8f45220d5859c013e5cedbddd6af8cf7b9d91168480426040518085600160a060020a0316600160a060020a0316815260200184815260200183815260200182815260200194505050505060405180910390a350565b600654600160a060020a031681565b600154600160a060020a031681565b600080808060018060175460ff16600281111561381557fe5b1461381f57600080fd5b60005460a060020a900460ff161561383657600080fd5b600160a060020a033316600090815260156020526040902080548790811061385a57fe5b906000526020600020906007020194506000856004015411151561387d57600080fd5b60075460018601541461388f57600080fd5b600685015460ff16156138a157600080fd5b601a54600160a060020a03166370a082313060006040516020015260405160e060020a63ffffffff8416028152600160a060020a039091166004820152602401602060405180830381600087803b15156138fa57600080fd5b6102c65a03f1151561390b57600080fd5b50505060405180519050935061392286600061459f565b60068501805460ff19166001179055600485015460058601546139589190610ebc90670de0b6b3a764000063ffffffff6140fb16565b925061397d670de0b6b3a7640000610ebc8588600201546140fb90919063ffffffff16565b91508460020154821115613ab457601760019054906101000a9004600160a060020a0316600160a060020a031663a9059cbb33876002015460006040516020015260405160e060020a63ffffffff8516028152600160a060020a0390921660048301526024820152604401602060405180830381600087803b1515613a0157600080fd5b6102c65a03f11515613a1257600080fd5b505050604051805150506017546002860154610100909104600160a060020a0316906340c10f19903390613a479086906140ca565b60006040516020015260405160e060020a63ffffffff8516028152600160a060020a0390921660048301526024820152604401602060405180830381600087803b1515613a9357600080fd5b6102c65a03f11515613aa457600080fd5b5050506040518051905050613bc0565b6017546101009004600160a060020a031663a9059cbb338460006040516020015260405160e060020a63ffffffff8516028152600160a060020a0390921660048301526024820152604401602060405180830381600087803b1515613b1857600080fd5b6102c65a03f11515613b2957600080fd5b505050604051805150506017546002860154610100909104600160a060020a0316906349f9f4d090613b5b90856140ca565b60006040516020015260405160e060020a63ffffffff84160281526004810191909152602401602060405180830381600087803b1515613b9a57600080fd5b6102c65a03f11515613bab57600080fd5b505050604051805190501515613bc057600080fd5b6007546005860154601a54600160a060020a0333811693927f7d92f4f6fffc42160fd0d9f56281733529e476a2c89c29c0a6fa0878cd85a9af928b92889291613c53918c91166370a082313060006040516020015260405160e060020a63ffffffff8416028152600160a060020a039091166004820152602401602060405180830381600087803b1515610d0c57600080fd5b6040518085815260200184815260200183815260200182815260200194505050505060405180910390a3505050505050565b60005433600160a060020a03908116911614613ca057600080fd5b60005460a060020a900460ff161515613cb857600080fd5b600160a060020a0381161515613ccd57600080fd5b6017546101009004600160a060020a031663f2fde38b8260405160e060020a63ffffffff8416028152600160a060020a039091166004820152602401600060405180830381600087803b1515613d2257600080fd5b6102c65a03f11515610ac557600080fd5b60005433600160a060020a03908116911614613d4e57600080fd5b600160a060020a0381161515613d6357600080fd5b600054600160a060020a0380831691167f8be0079c531659141344cd1fd0a4f28419497f9722a3daafe3b4186f6b6457e060405160405180910390a360008054600160a060020a031916600160a060020a0392909216919091179055565b60175460ff1681565b600080600080613dda87306144f5565b9150600160a060020a0387166000805160206148ab83398151915214613eff5750600354600090600160a060020a038089169163095ea7b3911683806040516020015260405160e060020a63ffffffff8516028152600160a060020a0390921660048301526024820152604401602060405180830381600087803b1515613e6057600080fd5b6102c65a03f11515613e7157600080fd5b50505060405180515050600354600160a060020a038089169163095ea7b391168860006040516020015260405160e060020a63ffffffff8516028152600160a060020a0390921660048301526024820152604401602060405180830381600087803b1515613ede57600080fd5b6102c65a03f11515613eef57600080fd5b5050506040518051905050613f02565b50845b601954600160a060020a031663cb3c28c782898989306b204fce5e3e2502611000000060016000806040516020015260405160e060020a63ffffffff8b16028152600160a060020a039788166004820152602481019690965293861660448601529185166064850152608484015260a483015290911660c482015260e4016020604051808303818588803b1515613f9857600080fd5b6125ee5a03f11515613fa957600080fd5b50505050604051805193505060008311613fc257600080fd5b600160a060020a0387166000805160206148ab8339815191521461405f57600354600160a060020a038089169163095ea7b391166000806040516020015260405160e060020a63ffffffff8516028152600160a060020a0390921660048301526024820152604401602060405180830381600087803b151561404357600080fd5b6102c65a03f1151561405457600080fd5b505050604051805150505b6140bf61407e61406e896146d3565b8590600a0a63ffffffff6140fb16565b610ebc61408a886146d3565b600a0a6140b3670de0b6b3a76400006140b36140a68e306144f5565b899063ffffffff6140ca16565b9063ffffffff6140fb16565b979650505050505050565b6000828211156140d657fe5b508082035b92915050565b6000828201838110156140f057fe5b8091505b5092915050565b60008083151561410e57600091506140f4565b5082820282848281151561411e57fe5b04146140f057fe5b600080828481151561413457fe5b04949350505050565b600854601a546000918291829190600160a060020a03166370a0823130846040516020015260405160e060020a63ffffffff8416028152600160a060020a039091166004820152602401602060405180830381600087803b15156141a057600080fd5b6102c65a03f115156141b157600080fd5b50505060405180519050111561422557600854601a546142229190600160a060020a03166370a082313060006040516020015260405160e060020a63ffffffff8416028152600160a060020a039091166004820152602401602060405180830381600087803b1515610d0c57600080fd5b92505b614246670de0b6b3a7640000610ebc85600a546140fb90919063ffffffff16565b600f55601a546142f0906142e190670de0b6b3a764000090610ebc90600160a060020a03166370a082313060006040516020015260405160e060020a63ffffffff8416028152600160a060020a039091166004820152602401602060405180830381600087803b15156142b857600080fd5b6102c65a03f115156142c957600080fd5b5050506040518051600b54915063ffffffff6140fb16565b600f549063ffffffff6140e116565b600f55601a5461438790670de0b6b3a764000090610ebc90600160a060020a03166370a082313060006040516020015260405160e060020a63ffffffff8416028152600160a060020a039091166004820152602401602060405180830381600087803b151561435e57600080fd5b6102c65a03f1151561436f57600080fd5b5050506040518051600c54915063ffffffff6140fb16565b600f54601a549193506143f091849161333891600160a060020a03166370a082313060006040516020015260405160e060020a63ffffffff8416028152600160a060020a039091166004820152602401602060405180830381600087803b1515610d0c57600080fd5b90506007547f13a18edb371d0a74be72de10b678893b96bc8a47e776bb122c59e21d53956fbd6008548360405191825260208201526040908101905180910390a26008819055601a54600454600160a060020a039182169163a9059cbb91168460006040516020015260405160e060020a63ffffffff8516028152600160a060020a0390921660048301526024820152604401602060405180830381600087803b151561449c57600080fd5b6102c65a03f115156144ad57600080fd5b50505060405180519050506007547f2f7da09d276ad6237b75476b806f4d8388b9228bd6fa45a7ca214fac5abdf7a3600f5460405190815260200160405180910390a2505050565b6000600160a060020a0383166000805160206148ab83398151915214156145275750600160a060020a038116316140db565b82600160a060020a03166370a082318360006040516020015260405160e060020a63ffffffff8416028152600160a060020a039091166004820152602401602060405180830381600087803b151561457e57600080fd5b6102c65a03f1151561458f57600080fd5b5050506040518051949350505050565b600160a060020a0333166000908152601560205260408120805482918291869081106145c757fe5b90600052602060002090600702019250831561466957601754614662906101009004600160a060020a03166318160ddd6000604051602001526040518163ffffffff1660e060020a028152600401602060405180830381600087803b151561462e57600080fd5b6102c65a03f1151561463f57600080fd5b50505060405180519050610ebc85600201546008546140fb90919063ffffffff16565b9150614671565b826003015491505b508154600160a060020a031683156146a457601a5461469a90600160a060020a03168383613dca565b60048401556146cc565b601a546146c6906146c19083908590600160a060020a0316613dca565b614765565b60058401555b5050505050565b6000600160a060020a0382166000805160206148ab83398151915214156146fc575060126122af565b81600160a060020a031663313ce5676000604051602001526040518163ffffffff1660e060020a028152600401602060405180830381600087803b151561474257600080fd5b6102c65a03f1151561475357600080fd5b505050604051805160ff169392505050565b60006140db82610ebc670de0b6b3a76400008063ffffffff6140fb16565b50805460008255600702906000526020600020908101906147a4919061483d565b50565b60606040519081016040526003815b60008152602001906001900390816147b65790505090565b82600381019282156147fc579160200282015b828111156147fc5782518255916020019190600101906147e1565b50614808929150614890565b5090565b81548183558181151161483857600702816007028360005260206000209182019101614838919061483d565b505050565b6121e291905b80821115614808578054600160a060020a0319168155600060018201819055600282018190556003820181905560048201819055600582015560068101805460ff19169055600701614843565b6121e291905b8082111561480857600081556001016148965600000000000000000000000000eeeeeeeeeeeeeeeeeeeeeeeeeeeeeeeeeeeeeeeea165627a7a72305820671df0acba8f037a306bbde7a9f16a9d3652a9c569526722d00c9a6de6c1e39c0029",
  "source": "pragma solidity ^0.4.18;\r\n\r\nimport 'zeppelin-solidity/contracts/math/SafeMath.sol';\r\nimport 'zeppelin-solidity/contracts/lifecycle/Pausable.sol';\r\nimport './ControlToken.sol';\r\nimport './ShareToken.sol';\r\nimport './KyberNetwork.sol';\r\nimport './Utils.sol';\r\n\r\n/**\r\n * @title The main smart contract of the Betoken hedge fund.\r\n * @author Zefram Lou (Zebang Liu)\r\n * @dev Need to remove Kairo minting before release\r\n */\r\ncontract BetokenFund is Pausable, Utils {\r\n  using SafeMath for uint256;\r\n\r\n  enum CyclePhase { DepositWithdraw, MakeDecisions, RedeemCommission }\r\n\r\n  struct Investment {\r\n    address tokenAddress;\r\n    uint256 cycleNumber;\r\n    uint256 stake;\r\n    uint256 tokenAmount;\r\n    uint256 buyPrice;\r\n    uint256 sellPrice;\r\n    bool isSold;\r\n  }\r\n\r\n  /**\r\n   * @notice Executes function only during the given cycle phase.\r\n   * @param phase the cycle phase during which the function may be called\r\n   */\r\n  modifier during(CyclePhase phase) {\r\n    require(cyclePhase == phase);\r\n    _;\r\n  }\r\n\r\n  /**\r\n   * @notice Checks if `token` is a valid token.\r\n   * @param token the token's address\r\n   */\r\n  modifier isValidToken(address token) {\r\n    require(!isMaliciousCoin[token]);\r\n    if (token != address(ETH_TOKEN_ADDRESS)) {\r\n      require(ERC20(token).totalSupply() > 0);\r\n    }\r\n    _;\r\n  }\r\n\r\n  // Address of the control token contract.\r\n  address public controlTokenAddr;\r\n\r\n  // Address of the share token contract.\r\n  address public shareTokenAddr;\r\n\r\n  // Address of the KyberNetwork contract\r\n  address public kyberAddr;\r\n\r\n  // Address to which the developer fees will be paid.\r\n  address public developerFeeAccount;\r\n\r\n  // Address of the DAI stable-coin contract.\r\n  address public daiAddr;\r\n\r\n  // Address of the previous version of BetokenFund.\r\n  address public previousVersion;\r\n\r\n  // The number of the current investment cycle.\r\n  uint256 public cycleNumber;\r\n\r\n  // The amount of funds held by the fund.\r\n  uint256 public totalFundsInDAI;\r\n\r\n  // The start time for the current investment cycle phase, in seconds since Unix epoch.\r\n  uint256 public startTimeOfCyclePhase;\r\n\r\n  // The proportion of the fund that gets distributed to Kairo holders every cycle. Fixed point decimal.\r\n  uint256 public commissionRate;\r\n\r\n  // The proportion of contract balance that gets distributed to Kairo holders every cycle. Fixed point decimal.\r\n  uint256 public assetFeeRate;\r\n\r\n  // The proportion of contract balance that goes the the devs every cycle. Fixed point decimal.\r\n  uint256 public developerFeeRate;\r\n\r\n  // The proportion of funds that goes the the devs during withdrawals. Fixed point decimal.\r\n  uint256 public exitFeeRate;\r\n\r\n  // Amount of Kairo rewarded to the user who calls a phase transition/investment handling function\r\n  uint256 public functionCallReward;\r\n\r\n  // Amount of commission to be paid out this cycle\r\n  uint256 public totalCommission;\r\n\r\n  // Flag for whether emergency withdrawing is allowed.\r\n  bool public allowEmergencyWithdraw;\r\n\r\n  // Stores the lengths of each cycle phase in seconds.\r\n  uint256[3] phaseLengths;\r\n\r\n  // The last cycle where a user redeemed commission.\r\n  mapping(address => uint256) public lastCommissionRedemption;\r\n\r\n  // List of investments in the current cycle.\r\n  mapping(address => Investment[]) public userInvestments;\r\n\r\n  // Records if a token's contract maliciously treats the BetokenFund differently when calling transfer(), transferFrom(), or approve().\r\n  mapping(address => bool) public isMaliciousCoin;\r\n\r\n  // The current cycle phase.\r\n  CyclePhase public cyclePhase;\r\n\r\n  // Contract instances\r\n  ControlToken internal cToken;\r\n  ShareToken internal sToken;\r\n  KyberNetwork internal kyber;\r\n  DetailedERC20 internal dai;\r\n\r\n  event ChangedPhase(uint256 indexed _cycleNumber, uint256 indexed _newPhase, uint256 _timestamp);\r\n\r\n  event Deposit(uint256 indexed _cycleNumber, address indexed _sender, address _tokenAddress, uint256 _tokenAmount, uint256 _daiAmount, uint256 _timestamp);\r\n  event Withdraw(uint256 indexed _cycleNumber, address indexed _sender, address _tokenAddress, uint256 _tokenAmount, uint256 daiAmount, uint256 _timestamp);\r\n\r\n  event CreatedInvestment(uint256 indexed _cycleNumber, address indexed _sender, uint256 _id, address _tokenAddress, uint256 _stakeInWeis, uint256 _buyPrice, uint256 _costDAIAmount);\r\n  event SoldInvestment(uint256 indexed _cycleNumber, address indexed _sender, uint256 _investmentId, uint256 _receivedKairos, uint256 _sellPrice, uint256 _earnedDAIAmount);\r\n\r\n  event ROI(uint256 indexed _cycleNumber, uint256 _beforeTotalFunds, uint256 _afterTotalFunds);\r\n  event CommissionPaid(uint256 indexed _cycleNumber, address indexed _sender, uint256 _commission);\r\n  event TotalCommissionPaid(uint256 indexed _cycleNumber, uint256 _totalCommissionInWeis);\r\n\r\n  /**\r\n   * Contract initialization functions\r\n   */\r\n\r\n  // Constructor\r\n  function BetokenFund(\r\n    address _cTokenAddr,\r\n    address _sTokenAddr,\r\n    address _kyberAddr,\r\n    address _daiAddr,\r\n    address _developerFeeAccount,\r\n    uint256[3] _phaseLengths,\r\n    uint256 _commissionRate,\r\n    uint256 _assetFeeRate,\r\n    uint256 _developerFeeRate,\r\n    uint256 _exitFeeRate,\r\n    uint256 _functionCallReward,\r\n    address _previousVersion\r\n  )\r\n    public\r\n  {\r\n    require(_commissionRate.add(_developerFeeRate) < 10**18);\r\n\r\n    controlTokenAddr = _cTokenAddr;\r\n    shareTokenAddr = _sTokenAddr;\r\n    kyberAddr = _kyberAddr;\r\n    daiAddr = _daiAddr;\r\n    cToken = ControlToken(_cTokenAddr);\r\n    sToken = ShareToken(_sTokenAddr);\r\n    kyber = KyberNetwork(_kyberAddr);\r\n    dai = DetailedERC20(_daiAddr);\r\n\r\n    developerFeeAccount = _developerFeeAccount;\r\n    phaseLengths = _phaseLengths;\r\n    commissionRate = _commissionRate;\r\n    assetFeeRate = _assetFeeRate;\r\n    developerFeeRate = _developerFeeRate;\r\n    exitFeeRate = _exitFeeRate;\r\n    startTimeOfCyclePhase = 0;\r\n    cyclePhase = CyclePhase.RedeemCommission;\r\n    functionCallReward = _functionCallReward;\r\n    previousVersion = _previousVersion;\r\n    allowEmergencyWithdraw = false;\r\n  }\r\n\r\n  /**\r\n   * Getters\r\n   */\r\n\r\n  /**\r\n   * @notice Returns the length of the user's investments array.\r\n   * @return length of the user's investments array\r\n   */\r\n  function investmentsCount(address _userAddr) public view returns(uint256 _count) {\r\n    return userInvestments[_userAddr].length;\r\n  }\r\n\r\n  /**\r\n   * @notice Returns the phaseLengths array.\r\n   * @return the phaseLengths array\r\n   */\r\n  function getPhaseLengths() public view returns(uint256[3] _phaseLengths) {\r\n    return phaseLengths;\r\n  }\r\n\r\n  /**\r\n   * Meta functions\r\n   */\r\n\r\n  /**\r\n   * Emergency functions\r\n   */\r\n\r\n  /**\r\n   * @notice Sells token in emergency situations. Only callable by owner.\r\n   * @param _tokenAddr the address of the token to be sold\r\n   */\r\n  function emergencyDumpToken(address _tokenAddr)\r\n    public\r\n    onlyOwner\r\n    during(CyclePhase.RedeemCommission)\r\n    whenPaused\r\n  {\r\n    DetailedERC20 token = DetailedERC20(_tokenAddr);\r\n    __kyberTrade(token, token.balanceOf(this), dai);\r\n  }\r\n\r\n  /**\r\n   * @notice Return staked Kairos for a investment under emergency situations. Should be called by users.\r\n   * @param _investmentId the ID of the investment\r\n   */\r\n  function emergencyRedeemStake(uint256 _investmentId) whenPaused public {\r\n    require(allowEmergencyWithdraw);\r\n    Investment storage investment = userInvestments[msg.sender][_investmentId];\r\n    require(investment.cycleNumber == cycleNumber);\r\n    uint256 stake = investment.stake;\r\n    require(stake > 0);\r\n    delete investment.stake;\r\n    cToken.transfer(msg.sender, stake);\r\n  }\r\n\r\n  /**\r\n   * @notice Updates the current fund balance. Only callable by owner.\r\n   */\r\n  function emergencyUpdateBalance() onlyOwner whenPaused public {\r\n    totalFundsInDAI = dai.balanceOf(this);\r\n  }\r\n\r\n  /**\r\n   * @notice Changes whether emergency withdrawals are allowed. Only callable by owner.\r\n   * @param _newVal the new value\r\n   */\r\n  function setAllowEmergencyWithdraw(bool _newVal) onlyOwner whenPaused public {\r\n    allowEmergencyWithdraw = _newVal;\r\n  }\r\n\r\n  /**\r\n   * @notice Function for withdrawing all funds in times of emergency. Only callable when fund is paused and allowEmergencyWithdraw is true.\r\n   */\r\n  function emergencyWithdraw()\r\n    public\r\n    whenPaused\r\n  {\r\n    require(allowEmergencyWithdraw);\r\n\r\n    uint256 amountInDAI = sToken.balanceOf(msg.sender).mul(totalFundsInDAI).div(sToken.totalSupply());\r\n    sToken.ownerBurn(msg.sender, sToken.balanceOf(msg.sender));\r\n    totalFundsInDAI = totalFundsInDAI.sub(amountInDAI);\r\n\r\n    // Transfer\r\n    dai.transfer(msg.sender, amountInDAI);\r\n\r\n    // Emit event\r\n    Withdraw(cycleNumber, msg.sender, daiAddr, amountInDAI, amountInDAI, now);\r\n  }\r\n\r\n  /**\r\n   * Parameter setters\r\n   */\r\n\r\n  /**\r\n   * @notice Changes the address of the KyberNetwork contract used in the contract. Only callable by owner.\r\n   * @param _newAddr the new address of KyberNetwork contract\r\n   */\r\n  function changeKyberNetworkAddress(address _newAddr) public onlyOwner whenPaused {\r\n    require(_newAddr != address(0));\r\n    kyberAddr = _newAddr;\r\n    kyber = KyberNetwork(_newAddr);\r\n  }\r\n\r\n  /**\r\n   * @notice Changes the address to which the developer fees will be sent. Only callable by owner.\r\n   * @param _newAddr the new developer fee address\r\n   */\r\n  function changeDeveloperFeeAccount(address _newAddr) public onlyOwner {\r\n    require(_newAddr != address(0));\r\n    developerFeeAccount = _newAddr;\r\n  }\r\n\r\n  /**\r\n  * @notice Changes the address of the DAI token smart contract. Only callable by owner.\r\n  * @param _newAddr the new DAI smart contract address\r\n  */\r\n  function changeDAIAddress(address _newAddr) public onlyOwner whenPaused {\r\n    require(_newAddr != address(0));\r\n    daiAddr = _newAddr;\r\n    dai = DetailedERC20(_newAddr);\r\n  }\r\n\r\n  /**\r\n   * @notice Changes the proportion of profits given to Kairo holders each cycle. Only callable by owner.\r\n   * @param _newProp the new proportion, fixed point decimal\r\n   */\r\n  function changeCommissionRate(uint256 _newProp) public onlyOwner {\r\n    commissionRate = _newProp;\r\n  }\r\n\r\n  /**\r\n  * @notice Changes the proportion of fund balance given to Kairo holders each cycle. Only callable by owner.\r\n  * @param _newProp the new proportion, fixed point decimal\r\n  */\r\n  function changeAssetFeeRate(uint256 _newProp) public onlyOwner {\r\n    assetFeeRate = _newProp;\r\n  }\r\n\r\n  /**\r\n   * @notice Changes the proportion of fund balance sent to the developers each cycle. May only decrease. Only callable by owner.\r\n   * @param _newProp the new proportion, fixed point decimal\r\n   */\r\n  function changeDeveloperFeeProportion(uint256 _newProp) public onlyOwner {\r\n    require(_newProp < developerFeeRate);\r\n    developerFeeRate = _newProp;\r\n  }\r\n\r\n  /**\r\n   * @notice Changes exit fee rate. May only decrease. Only callable by owner.\r\n   * @param _newProp the new proportion, fixed point decimal\r\n   */\r\n  function changeExitFeeRate(uint256 _newProp) public onlyOwner {\r\n    require(_newProp < exitFeeRate);\r\n    exitFeeRate = _newProp;\r\n  }\r\n\r\n  /**\r\n   * @notice Changes the amount of Kairo rewarded to whomever calls nextPhase() the first. Only callable by owner.\r\n   * @param _newVal the new reward value in Kairo, 18 decimals\r\n   */\r\n  function changeCallReward(uint256 _newVal) public onlyOwner {\r\n    functionCallReward = _newVal;\r\n  }\r\n\r\n  /**\r\n   * @notice Changes the lengths of the phases in an investment cycle. Only callable by owner.\r\n   * @param _newVal the new set of phase lengths, in the order of DepositWithdraw, MakeDecisions, RedeemCommission, in seconds\r\n   */\r\n  function changePhaseLengths(uint256[3] _newVal) public onlyOwner {\r\n    phaseLengths = _newVal;\r\n  }\r\n\r\n  /**\r\n   * @notice Changes the owner of the ControlToken contract. Only callable by owner.\r\n   * @param  _newOwner the new owner address\r\n   */\r\n  function changeControlTokenOwner(address _newOwner) public onlyOwner whenPaused {\r\n    require(_newOwner != address(0));\r\n    cToken.transferOwnership(_newOwner);\r\n  }\r\n\r\n  /**\r\n   * @notice Changes the maliciousness status of a token. Only callable by owner.\r\n   * @param _coin the token's address\r\n   * @param _status the new maliciousness status\r\n   */\r\n  function setMaliciousCoinStatus(address _coin, bool _status) public onlyOwner {\r\n    require(_coin != address(0));\r\n    isMaliciousCoin[_coin] = _status;\r\n  }\r\n\r\n\r\n  /**\r\n   * @notice Moves the fund to the next phase in the investment cycle.\r\n   */\r\n  function nextPhase()\r\n    public\r\n    whenNotPaused\r\n  {\r\n    require(now >= startTimeOfCyclePhase.add(phaseLengths[uint(cyclePhase)]));\r\n\r\n    if (cyclePhase == CyclePhase.RedeemCommission) {\r\n      // Start new cycle\r\n      if (cycleNumber == 0) {\r\n        require(msg.sender == owner);\r\n      }\r\n\r\n      cycleNumber = cycleNumber.add(1);\r\n\r\n      if (cToken.paused()) {\r\n        cToken.unpause();\r\n      }\r\n    } else if (cyclePhase == CyclePhase.MakeDecisions) {\r\n      // Burn any Kairo left in BetokenFund's account\r\n      require(cToken.burnOwnerBalance());\r\n\r\n      cToken.pause();\r\n      __distributeFundsAfterCycleEnd();\r\n    }\r\n\r\n    cyclePhase = CyclePhase(addmod(uint(cyclePhase), 1, 3));\r\n    startTimeOfCyclePhase = now;\r\n\r\n    // Reward caller\r\n    cToken.mint(msg.sender, functionCallReward);\r\n\r\n    ChangedPhase(cycleNumber, uint(cyclePhase), now);\r\n  }\r\n\r\n  /**\r\n   * DepositWithdraw phase functions\r\n   */\r\n\r\n  /**\r\n   * @notice Deposit Ether into the fund. Ether will be converted into DAI.\r\n   */\r\n  function deposit()\r\n    public\r\n    payable\r\n    during(CyclePhase.DepositWithdraw)\r\n    whenNotPaused\r\n  {\r\n    // Buy DAI with ETH\r\n    uint256 actualDAIDeposited;\r\n    uint256 actualETHDeposited;\r\n    uint256 beforeETHBalance = this.balance;\r\n    uint256 beforeDAIBalance = dai.balanceOf(this);\r\n    __kyberTrade(ETH_TOKEN_ADDRESS, msg.value, dai);\r\n    actualETHDeposited = beforeETHBalance.sub(this.balance);\r\n    uint256 leftOverETH = msg.value.sub(actualETHDeposited);\r\n    if (leftOverETH > 0) {\r\n      msg.sender.transfer(leftOverETH);\r\n    }\r\n    actualDAIDeposited = dai.balanceOf(this).sub(beforeDAIBalance);\r\n\r\n    // Register investment\r\n    if (sToken.totalSupply() == 0 || totalFundsInDAI == 0) {\r\n      sToken.mint(msg.sender, actualDAIDeposited);\r\n    } else {\r\n      sToken.mint(msg.sender, actualDAIDeposited.mul(sToken.totalSupply()).div(totalFundsInDAI));\r\n    }\r\n    totalFundsInDAI = totalFundsInDAI.add(actualDAIDeposited);\r\n\r\n    // Only for test version. Remove for release.\r\n    cToken.mint(msg.sender, actualDAIDeposited);\r\n\r\n    // Emit event\r\n    Deposit(cycleNumber, msg.sender, ETH_TOKEN_ADDRESS, actualETHDeposited, actualDAIDeposited, now);\r\n  }\r\n\r\n  /**\r\n   * @notice Deposit ERC20 tokens into the fund. Tokens will be converted into DAI.\r\n   * @param _tokenAddr the address of the token to be deposited\r\n   * @param _tokenAmount The amount of tokens to be deposited. May be different from actual deposited amount.\r\n   */\r\n  function depositToken(address _tokenAddr, uint256 _tokenAmount)\r\n    public\r\n    during(CyclePhase.DepositWithdraw)\r\n    isValidToken(_tokenAddr)\r\n    whenNotPaused\r\n  {\r\n    DetailedERC20 token = DetailedERC20(_tokenAddr);\r\n\r\n    require(token.transferFrom(msg.sender, this, _tokenAmount));\r\n\r\n    // Convert token into DAI\r\n    uint256 actualDAIDeposited;\r\n    uint256 actualTokenDeposited;\r\n    if (_tokenAddr == daiAddr) {\r\n      actualDAIDeposited = _tokenAmount;\r\n      actualTokenDeposited = _tokenAmount;\r\n    } else {\r\n      // Buy DAI with tokens\r\n      uint256 beforeTokenBalance = token.balanceOf(this);\r\n      uint256 beforeDAIBalance = dai.balanceOf(this);\r\n      __kyberTrade(token, _tokenAmount, dai);\r\n      actualTokenDeposited = beforeTokenBalance.sub(token.balanceOf(this));\r\n      uint256 leftOverTokens = _tokenAmount.sub(actualTokenDeposited);\r\n      if (leftOverTokens > 0) {\r\n        require(token.transfer(msg.sender, leftOverTokens));\r\n      }\r\n      actualDAIDeposited = dai.balanceOf(this).sub(beforeDAIBalance);\r\n      require(actualDAIDeposited > 0);\r\n    }\r\n\r\n    // Register investment\r\n    if (sToken.totalSupply() == 0 || totalFundsInDAI == 0) {\r\n      sToken.mint(msg.sender, actualDAIDeposited);\r\n    } else {\r\n      sToken.mint(msg.sender, actualDAIDeposited.mul(sToken.totalSupply()).div(totalFundsInDAI));\r\n    }\r\n    totalFundsInDAI = totalFundsInDAI.add(actualDAIDeposited);\r\n\r\n    // Only for test version. Remove for release.\r\n    cToken.mint(msg.sender, actualDAIDeposited);\r\n\r\n    // Emit event\r\n    Deposit(cycleNumber, msg.sender, _tokenAddr, actualTokenDeposited, actualDAIDeposited, now);\r\n  }\r\n\r\n  /**\r\n   * @notice Withdraws Ether by burning Shares.\r\n   * @param _amountInDAI Amount of funds to be withdrawn expressed in DAI. Fixed-point decimal. May be different from actual amount.\r\n   */\r\n  function withdraw(uint256 _amountInDAI)\r\n    public\r\n    during(CyclePhase.DepositWithdraw)\r\n    whenNotPaused\r\n  {\r\n    // Buy ETH\r\n    uint256 actualETHWithdrawn;\r\n    uint256 actualDAIWithdrawn;\r\n    uint256 beforeETHBalance = this.balance;\r\n    uint256 beforeDaiBalance = dai.balanceOf(this);\r\n    __kyberTrade(dai, _amountInDAI, ETH_TOKEN_ADDRESS);\r\n    actualETHWithdrawn = this.balance.sub(beforeETHBalance);\r\n    actualDAIWithdrawn = beforeDaiBalance.sub(dai.balanceOf(this));\r\n    require(actualDAIWithdrawn > 0);\r\n\r\n    // Burn shares\r\n    sToken.ownerBurn(msg.sender, actualDAIWithdrawn.mul(sToken.totalSupply()).div(totalFundsInDAI));\r\n    totalFundsInDAI = totalFundsInDAI.sub(actualDAIWithdrawn);\r\n\r\n    // Transfer Ether to user\r\n    uint256 exitFee = actualETHWithdrawn.mul(exitFeeRate).div(PRECISION);\r\n    developerFeeAccount.transfer(exitFee);\r\n    actualETHWithdrawn = actualETHWithdrawn.sub(exitFee);\r\n    msg.sender.transfer(actualETHWithdrawn);\r\n\r\n    // Emit event\r\n    Withdraw(cycleNumber, msg.sender, ETH_TOKEN_ADDRESS, actualETHWithdrawn, actualDAIWithdrawn, now);\r\n  }\r\n\r\n  /**\r\n   * @notice Withdraws funds by burning Shares, and converts the funds into the specified token using Kyber Network.\r\n   * @param _tokenAddr the address of the token to be withdrawn into the caller's account\r\n   * @param _amountInDAI The amount of funds to be withdrawn expressed in DAI. Fixed-point decimal. May be different from actual amount.\r\n   */\r\n  function withdrawToken(address _tokenAddr, uint256 _amountInDAI)\r\n    public\r\n    during(CyclePhase.DepositWithdraw)\r\n    isValidToken(_tokenAddr)\r\n    whenNotPaused\r\n  {\r\n    DetailedERC20 token = DetailedERC20(_tokenAddr);\r\n\r\n    // Convert DAI into desired tokens\r\n    uint256 actualTokenWithdrawn;\r\n    uint256 actualDAIWithdrawn;\r\n    if (_tokenAddr == daiAddr) {\r\n      actualDAIWithdrawn = _amountInDAI;\r\n      actualTokenWithdrawn = _amountInDAI;\r\n    } else {\r\n      // Buy desired tokens\r\n      uint256 beforeTokenBalance = token.balanceOf(this);\r\n      uint256 beforeDaiBalance = dai.balanceOf(this);\r\n      __kyberTrade(dai, _amountInDAI, token);\r\n      actualTokenWithdrawn = token.balanceOf(this).sub(beforeTokenBalance);\r\n      actualDAIWithdrawn = beforeDaiBalance.sub(dai.balanceOf(this));\r\n      require(actualDAIWithdrawn > 0);\r\n    }\r\n\r\n    // Burn Shares\r\n    sToken.ownerBurn(msg.sender, actualDAIWithdrawn.mul(sToken.totalSupply()).div(totalFundsInDAI));\r\n    totalFundsInDAI = totalFundsInDAI.sub(actualDAIWithdrawn);\r\n\r\n    // Transfer tokens to user\r\n    uint256 exitFee = actualTokenWithdrawn.mul(exitFeeRate).div(PRECISION);\r\n    token.transfer(developerFeeAccount, exitFee);\r\n    actualTokenWithdrawn = actualTokenWithdrawn.sub(exitFee);\r\n    token.transfer(msg.sender, actualTokenWithdrawn);\r\n\r\n    // Emit event\r\n    Withdraw(cycleNumber, msg.sender, _tokenAddr, actualTokenWithdrawn, actualDAIWithdrawn, now);\r\n  }\r\n\r\n  /**\r\n   * MakeDecisions phase functions\r\n   */\r\n\r\n  /**\r\n   * @notice Creates a new investment investment for an ERC20 token.\r\n   * @param _tokenAddress address of the ERC20 token contract\r\n   * @param _stake amount of Kairos to be staked in support of the investment\r\n   */\r\n  function createInvestment(\r\n    address _tokenAddress,\r\n    uint256 _stake\r\n  )\r\n    public\r\n    during(CyclePhase.MakeDecisions)\r\n    isValidToken(_tokenAddress)\r\n    whenNotPaused\r\n  {\r\n    DetailedERC20 token = DetailedERC20(_tokenAddress);\r\n\r\n    // Collect stake\r\n    require(cToken.ownerCollectFrom(msg.sender, _stake));\r\n\r\n    // Add investment to list\r\n    userInvestments[msg.sender].push(Investment({\r\n      tokenAddress: _tokenAddress,\r\n      cycleNumber: cycleNumber,\r\n      stake: _stake,\r\n      tokenAmount: 0,\r\n      buyPrice: 0,\r\n      sellPrice: 0,\r\n      isSold: false\r\n    }));\r\n\r\n    // Invest\r\n    uint256 beforeTokenAmount = getBalance(token, this);\r\n    uint256 beforeDAIBalance = dai.balanceOf(this);\r\n    uint256 investmentId = investmentsCount(msg.sender).sub(1);\r\n    __handleInvestment(investmentId, true);\r\n    userInvestments[msg.sender][investmentId].tokenAmount = getBalance(token, this).sub(beforeTokenAmount);\r\n\r\n    // Emit event\r\n    CreatedInvestment(cycleNumber, msg.sender, investmentsCount(msg.sender).sub(1), _tokenAddress, _stake, userInvestments[msg.sender][investmentId].buyPrice, beforeDAIBalance.sub(dai.balanceOf(this)));\r\n  }\r\n\r\n  /**\r\n   * @notice Called by user to sell the assets an investment invested in. Returns the staked Kairo plus rewards/penalties.\r\n   * @param _investmentId the ID of the investment\r\n   */\r\n  function sellInvestmentAsset(uint256 _investmentId)\r\n    public\r\n    during(CyclePhase.MakeDecisions)\r\n    whenNotPaused\r\n  {\r\n    Investment storage investment = userInvestments[msg.sender][_investmentId];\r\n    require(investment.buyPrice > 0);\r\n    require(investment.cycleNumber == cycleNumber);\r\n    require(!investment.isSold);\r\n\r\n    // Sell asset\r\n    uint256 beforeDAIBalance = dai.balanceOf(this);\r\n    __handleInvestment(_investmentId, false);\r\n    investment.isSold = true;\r\n\r\n    // Return Kairo\r\n    uint256 multiplier = investment.sellPrice.mul(PRECISION).div(investment.buyPrice);\r\n    uint256 receiveKairoAmount = investment.stake.mul(multiplier).div(PRECISION);\r\n    if (receiveKairoAmount > investment.stake) {\r\n      cToken.transfer(msg.sender, investment.stake);\r\n      cToken.mint(msg.sender, receiveKairoAmount.sub(investment.stake));\r\n    } else {\r\n      cToken.transfer(msg.sender, receiveKairoAmount);\r\n      require(cToken.burnOwnerTokens(investment.stake.sub(receiveKairoAmount)));\r\n    }\r\n\r\n    // Emit event\r\n    SoldInvestment(cycleNumber, msg.sender, _investmentId, receiveKairoAmount, investment.sellPrice, dai.balanceOf(this).sub(beforeDAIBalance));\r\n  }\r\n\r\n  /**\r\n   * RedeemCommission phase functions\r\n   */\r\n\r\n  /**\r\n   * @notice Redeems commission.\r\n   */\r\n  function redeemCommission()\r\n    public\r\n    during(CyclePhase.RedeemCommission)\r\n    whenNotPaused\r\n  {\r\n    require(lastCommissionRedemption[msg.sender] < cycleNumber);\r\n    lastCommissionRedemption[msg.sender] = cycleNumber;\r\n    uint256 commission = totalCommission.mul(cToken.balanceOf(msg.sender)).div(cToken.totalSupply());\r\n    dai.transfer(msg.sender, commission);\r\n\r\n    delete userInvestments[msg.sender];\r\n\r\n    CommissionPaid(cycleNumber, msg.sender, commission);\r\n  }\r\n\r\n  /**\r\n   * @notice Redeems commission in shares.\r\n   */\r\n  function redeemCommissionInShares()\r\n    public\r\n    during(CyclePhase.RedeemCommission)\r\n    whenNotPaused\r\n  {\r\n    require(lastCommissionRedemption[msg.sender] < cycleNumber);\r\n    lastCommissionRedemption[msg.sender] = cycleNumber;\r\n    uint256 commission = totalCommission.mul(cToken.balanceOf(msg.sender)).div(cToken.totalSupply());\r\n    sToken.mint(msg.sender, commission.mul(sToken.totalSupply()).div(totalFundsInDAI));\r\n    totalFundsInDAI = totalFundsInDAI.add(commission);\r\n\r\n    delete userInvestments[msg.sender];\r\n\r\n    // Emit event\r\n    Deposit(cycleNumber, msg.sender, daiAddr, commission, commission, now);\r\n    CommissionPaid(cycleNumber, msg.sender, commission);\r\n  }\r\n\r\n  /**\r\n   * @notice Sells tokens left over due to manager not selling or KyberNetwork not having enough demand. Callable by anyone.\r\n   * @param _tokenAddr address of the token to be sold\r\n   */\r\n  function sellLeftoverToken(address _tokenAddr)\r\n    public\r\n    during(CyclePhase.RedeemCommission)\r\n    isValidToken(_tokenAddr)\r\n    whenNotPaused\r\n  {\r\n    uint256 beforeBalance = dai.balanceOf(this);\r\n    DetailedERC20 token = DetailedERC20(_tokenAddr);\r\n    require(_tokenAddr != daiAddr);\r\n    __kyberTrade(token, token.balanceOf(this), dai);\r\n    totalFundsInDAI = totalFundsInDAI.add(dai.balanceOf(this).sub(beforeBalance));\r\n  }\r\n\r\n  /**\r\n   * Internal use functions\r\n   */\r\n\r\n  /**\r\n   * @notice Update fund statistics, and pay developer fees.\r\n   */\r\n  function __distributeFundsAfterCycleEnd() internal {\r\n    uint256 profit = 0;\r\n    if (dai.balanceOf(this) > totalFundsInDAI) {\r\n      profit = dai.balanceOf(this).sub(totalFundsInDAI);\r\n    }\r\n    totalCommission = commissionRate.mul(profit).div(PRECISION);\r\n    totalCommission = totalCommission.add(assetFeeRate.mul(dai.balanceOf(this)).div(PRECISION));\r\n    uint256 devFee = developerFeeRate.mul(dai.balanceOf(this)).div(PRECISION);\r\n    uint256 newTotalFunds = dai.balanceOf(this).sub(totalCommission).sub(devFee);\r\n\r\n    // Update values\r\n    ROI(cycleNumber, totalFundsInDAI, newTotalFunds);\r\n    totalFundsInDAI = newTotalFunds;\r\n\r\n    // Transfer fees\r\n    dai.transfer(developerFeeAccount, devFee);\r\n\r\n    // Emit event\r\n    TotalCommissionPaid(cycleNumber, totalCommission);\r\n  }\r\n\r\n  function __handleInvestment(uint256 _investmentId, bool _buy) internal {\r\n    Investment storage investment = userInvestments[msg.sender][_investmentId];\r\n    uint256 srcAmount;\r\n    if (_buy) {\r\n      srcAmount = totalFundsInDAI.mul(investment.stake).div(cToken.totalSupply());\r\n    } else {\r\n      srcAmount = investment.tokenAmount;\r\n    }\r\n    DetailedERC20 token = DetailedERC20(investment.tokenAddress);\r\n    if (_buy) {\r\n      investment.buyPrice = __kyberTrade(dai, srcAmount, token);\r\n    } else {\r\n      investment.sellPrice = invert(__kyberTrade(token, srcAmount, dai));\r\n    }\r\n  }\r\n\r\n  /**\r\n   * @notice Wrapper function for doing token conversion on Kyber Network\r\n   * @param _srcToken the token to convert from\r\n   * @param _srcAmount the amount of tokens to be converted\r\n   * @param _destToken the destination token\r\n   * @return _destPriceInSrc the price of the destination token, in terms of source tokens\r\n   */\r\n  function __kyberTrade(DetailedERC20 _srcToken, uint256 _srcAmount, DetailedERC20 _destToken) internal returns(uint256 _destPriceInSrc) {\r\n    uint256 actualDestAmount;\r\n    uint256 beforeSrcBalance = getBalance(_srcToken, this);\r\n    uint256 msgValue;\r\n\r\n    if (_srcToken != ETH_TOKEN_ADDRESS) {\r\n      msgValue = 0;\r\n      _srcToken.approve(kyberAddr, 0);\r\n      _srcToken.approve(kyberAddr, _srcAmount);\r\n    } else {\r\n      msgValue = _srcAmount;\r\n    }\r\n    actualDestAmount = kyber.trade.value(msgValue)(\r\n      _srcToken,\r\n      _srcAmount,\r\n      _destToken,\r\n      this,\r\n      MAX_QTY,\r\n      1,\r\n      0\r\n    );\r\n    require(actualDestAmount > 0);\r\n    if (_srcToken != ETH_TOKEN_ADDRESS) {\r\n      _srcToken.approve(kyberAddr, 0);\r\n    }\r\n\r\n    _destPriceInSrc = beforeSrcBalance.sub(getBalance(_srcToken, this)).mul(PRECISION).mul(10**getDecimals(_destToken)).div(actualDestAmount.mul(10**getDecimals(_srcToken)));\r\n  }\r\n\r\n  function() public payable {\r\n    if (msg.sender != kyberAddr) {\r\n      revert();\r\n    }\r\n  }\r\n}",
  "sourcePath": "D:\\msi-cn\\Documents\\GitHub\\betoken\\eth\\contracts\\BetokenFund.sol",
  "compiler": {
    "name": "solc",
    "version": "0.4.19+commit.c4cbbb05.Emscripten.clang"
  },
  "schemaVersion": "2.0.0",
  "updatedAt": "2018-05-10T05:55:33.448Z"
}