{
  "contractName": "BetokenFund",
  "abi": [
    {
      "constant": true,
      "inputs": [
        {
          "name": "",
          "type": "uint256"
        }
      ],
      "name": "proposals",
      "outputs": [
        {
          "name": "tokenAddress",
          "type": "address"
        },
        {
          "name": "buyPriceInWeis",
          "type": "uint256"
        },
        {
          "name": "sellPriceInWeis",
          "type": "uint256"
        },
        {
          "name": "numFor",
          "type": "uint256"
        },
        {
          "name": "numAgainst",
          "type": "uint256"
        },
        {
          "name": "isSold",
          "type": "bool"
        }
      ],
      "payable": false,
      "stateMutability": "view",
      "type": "function"
    },
    {
      "constant": true,
      "inputs": [
        {
          "name": "",
          "type": "uint256"
        },
        {
          "name": "",
          "type": "address"
        }
      ],
      "name": "forStakedControlOfProposalOfUser",
      "outputs": [
        {
          "name": "",
          "type": "uint256"
        }
      ],
      "payable": false,
      "stateMutability": "view",
      "type": "function"
    },
    {
      "constant": true,
      "inputs": [],
      "name": "allowEmergencyWithdraw",
      "outputs": [
        {
          "name": "",
          "type": "bool"
        }
      ],
      "payable": false,
      "stateMutability": "view",
      "type": "function"
    },
    {
      "constant": true,
      "inputs": [],
      "name": "developerFeeAccount",
      "outputs": [
        {
          "name": "",
          "type": "address"
        }
      ],
      "payable": false,
      "stateMutability": "view",
      "type": "function"
    },
    {
      "constant": true,
      "inputs": [],
      "name": "minStakeProportion",
      "outputs": [
        {
          "name": "",
          "type": "uint256"
        }
      ],
      "payable": false,
      "stateMutability": "view",
      "type": "function"
    },
    {
      "constant": true,
      "inputs": [],
      "name": "startTimeOfCyclePhase",
      "outputs": [
        {
          "name": "",
          "type": "uint256"
        }
      ],
      "payable": false,
      "stateMutability": "view",
      "type": "function"
    },
    {
      "constant": true,
      "inputs": [],
      "name": "timeOfChangeMaking",
      "outputs": [
        {
          "name": "",
          "type": "uint256"
        }
      ],
      "payable": false,
      "stateMutability": "view",
      "type": "function"
    },
    {
      "constant": true,
      "inputs": [
        {
          "name": "",
          "type": "uint256"
        },
        {
          "name": "",
          "type": "address"
        }
      ],
      "name": "againstStakedControlOfProposalOfUser",
      "outputs": [
        {
          "name": "",
          "type": "uint256"
        }
      ],
      "payable": false,
      "stateMutability": "view",
      "type": "function"
    },
    {
      "constant": true,
      "inputs": [],
      "name": "cycleNumber",
      "outputs": [
        {
          "name": "",
          "type": "uint256"
        }
      ],
      "payable": false,
      "stateMutability": "view",
      "type": "function"
    },
    {
      "constant": true,
      "inputs": [],
      "name": "timeOfFinalizing",
      "outputs": [
        {
          "name": "",
          "type": "uint256"
        }
      ],
      "payable": false,
      "stateMutability": "view",
      "type": "function"
    },
    {
      "constant": false,
      "inputs": [],
      "name": "unpause",
      "outputs": [],
      "payable": false,
      "stateMutability": "nonpayable",
      "type": "function"
    },
    {
      "constant": true,
      "inputs": [
        {
          "name": "",
          "type": "address"
        }
      ],
      "name": "isTokenAlreadyProposed",
      "outputs": [
        {
          "name": "",
          "type": "bool"
        }
      ],
      "payable": false,
      "stateMutability": "view",
      "type": "function"
    },
    {
      "constant": true,
      "inputs": [],
      "name": "timeOfWaiting",
      "outputs": [
        {
          "name": "",
          "type": "uint256"
        }
      ],
      "payable": false,
      "stateMutability": "view",
      "type": "function"
    },
    {
      "constant": true,
      "inputs": [],
      "name": "paused",
      "outputs": [
        {
          "name": "",
          "type": "bool"
        }
      ],
      "payable": false,
      "stateMutability": "view",
      "type": "function"
    },
    {
      "constant": true,
      "inputs": [],
      "name": "commissionRate",
      "outputs": [
        {
          "name": "",
          "type": "uint256"
        }
      ],
      "payable": false,
      "stateMutability": "view",
      "type": "function"
    },
    {
      "constant": true,
      "inputs": [],
      "name": "functionCallReward",
      "outputs": [
        {
          "name": "",
          "type": "uint256"
        }
      ],
      "payable": false,
      "stateMutability": "view",
      "type": "function"
    },
    {
      "constant": true,
      "inputs": [],
      "name": "totalFundsInWeis",
      "outputs": [
        {
          "name": "",
          "type": "uint256"
        }
      ],
      "payable": false,
      "stateMutability": "view",
      "type": "function"
    },
    {
      "constant": true,
      "inputs": [
        {
          "name": "",
          "type": "address"
        }
      ],
      "name": "lastCommissionRedemption",
      "outputs": [
        {
          "name": "",
          "type": "uint256"
        }
      ],
      "payable": false,
      "stateMutability": "view",
      "type": "function"
    },
    {
      "constant": false,
      "inputs": [],
      "name": "pause",
      "outputs": [],
      "payable": false,
      "stateMutability": "nonpayable",
      "type": "function"
    },
    {
      "constant": true,
      "inputs": [],
      "name": "owner",
      "outputs": [
        {
          "name": "",
          "type": "address"
        }
      ],
      "payable": false,
      "stateMutability": "view",
      "type": "function"
    },
    {
      "constant": true,
      "inputs": [
        {
          "name": "",
          "type": "uint256"
        }
      ],
      "name": "againstStakedControlOfProposal",
      "outputs": [
        {
          "name": "",
          "type": "uint256"
        }
      ],
      "payable": false,
      "stateMutability": "view",
      "type": "function"
    },
    {
      "constant": true,
      "inputs": [],
      "name": "kyberAddr",
      "outputs": [
        {
          "name": "",
          "type": "address"
        }
      ],
      "payable": false,
      "stateMutability": "view",
      "type": "function"
    },
    {
      "constant": true,
      "inputs": [],
      "name": "PRECISION",
      "outputs": [
        {
          "name": "",
          "type": "uint256"
        }
      ],
      "payable": false,
      "stateMutability": "view",
      "type": "function"
    },
    {
      "constant": true,
      "inputs": [
        {
          "name": "",
          "type": "uint256"
        }
      ],
      "name": "forStakedControlOfProposal",
      "outputs": [
        {
          "name": "",
          "type": "uint256"
        }
      ],
      "payable": false,
      "stateMutability": "view",
      "type": "function"
    },
    {
      "constant": true,
      "inputs": [],
      "name": "developerFeeProportion",
      "outputs": [
        {
          "name": "",
          "type": "uint256"
        }
      ],
      "payable": false,
      "stateMutability": "view",
      "type": "function"
    },
    {
      "constant": true,
      "inputs": [],
      "name": "totalCommission",
      "outputs": [
        {
          "name": "",
          "type": "uint256"
        }
      ],
      "payable": false,
      "stateMutability": "view",
      "type": "function"
    },
    {
      "constant": true,
      "inputs": [],
      "name": "shareTokenAddr",
      "outputs": [
        {
          "name": "",
          "type": "address"
        }
      ],
      "payable": false,
      "stateMutability": "view",
      "type": "function"
    },
    {
      "constant": true,
      "inputs": [],
      "name": "timeBetweenCycles",
      "outputs": [
        {
          "name": "",
          "type": "uint256"
        }
      ],
      "payable": false,
      "stateMutability": "view",
      "type": "function"
    },
    {
      "constant": true,
      "inputs": [],
      "name": "controlTokenAddr",
      "outputs": [
        {
          "name": "",
          "type": "address"
        }
      ],
      "payable": false,
      "stateMutability": "view",
      "type": "function"
    },
    {
      "constant": false,
      "inputs": [
        {
          "name": "newOwner",
          "type": "address"
        }
      ],
      "name": "transferOwnership",
      "outputs": [],
      "payable": false,
      "stateMutability": "nonpayable",
      "type": "function"
    },
    {
      "constant": true,
      "inputs": [],
      "name": "cyclePhase",
      "outputs": [
        {
          "name": "",
          "type": "uint8"
        }
      ],
      "payable": false,
      "stateMutability": "view",
      "type": "function"
    },
    {
      "constant": true,
      "inputs": [],
      "name": "cycleTotalForStake",
      "outputs": [
        {
          "name": "",
          "type": "uint256"
        }
      ],
      "payable": false,
      "stateMutability": "view",
      "type": "function"
    },
    {
      "inputs": [
        {
          "name": "_cTokenAddr",
          "type": "address"
        },
        {
          "name": "_sTokenAddr",
          "type": "address"
        },
        {
          "name": "_kyberAddr",
          "type": "address"
        },
        {
          "name": "_developerFeeAccount",
          "type": "address"
        },
        {
          "name": "_timeOfChangeMaking",
          "type": "uint256"
        },
        {
          "name": "_timeOfWaiting",
          "type": "uint256"
        },
        {
          "name": "_timeOfFinalizing",
          "type": "uint256"
        },
        {
          "name": "_timeBetweenCycles",
          "type": "uint256"
        },
        {
          "name": "_minStakeProportion",
          "type": "uint256"
        },
        {
          "name": "_commissionRate",
          "type": "uint256"
        },
        {
          "name": "_developerFeeProportion",
          "type": "uint256"
        },
        {
          "name": "_cycleNumber",
          "type": "uint256"
        },
        {
          "name": "_functionCallReward",
          "type": "uint256"
        }
      ],
      "payable": false,
      "stateMutability": "nonpayable",
      "type": "constructor"
    },
    {
      "payable": true,
      "stateMutability": "payable",
      "type": "fallback"
    },
    {
      "anonymous": false,
      "inputs": [
        {
          "indexed": false,
          "name": "_cycleNumber",
          "type": "uint256"
        },
        {
          "indexed": false,
          "name": "_timestamp",
          "type": "uint256"
        }
      ],
      "name": "CycleStarted",
      "type": "event"
    },
    {
      "anonymous": false,
      "inputs": [
        {
          "indexed": false,
          "name": "_cycleNumber",
          "type": "uint256"
        },
        {
          "indexed": false,
          "name": "_sender",
          "type": "address"
        },
        {
          "indexed": false,
          "name": "_amountInWeis",
          "type": "uint256"
        },
        {
          "indexed": false,
          "name": "_timestamp",
          "type": "uint256"
        }
      ],
      "name": "Deposit",
      "type": "event"
    },
    {
      "anonymous": false,
      "inputs": [
        {
          "indexed": false,
          "name": "_cycleNumber",
          "type": "uint256"
        },
        {
          "indexed": false,
          "name": "_sender",
          "type": "address"
        },
        {
          "indexed": false,
          "name": "_amountInWeis",
          "type": "uint256"
        },
        {
          "indexed": false,
          "name": "_timestamp",
          "type": "uint256"
        }
      ],
      "name": "Withdraw",
      "type": "event"
    },
    {
      "anonymous": false,
      "inputs": [
        {
          "indexed": false,
          "name": "_cycleNumber",
          "type": "uint256"
        },
        {
          "indexed": false,
          "name": "_id",
          "type": "uint256"
        },
        {
          "indexed": false,
          "name": "_tokenAddress",
          "type": "address"
        },
        {
          "indexed": false,
          "name": "_stakeInWeis",
          "type": "uint256"
        }
      ],
      "name": "NewProposal",
      "type": "event"
    },
    {
      "anonymous": false,
      "inputs": [
        {
          "indexed": false,
          "name": "_cycleNumber",
          "type": "uint256"
        },
        {
          "indexed": false,
          "name": "_id",
          "type": "uint256"
        },
        {
          "indexed": false,
          "name": "_stakeInWeis",
          "type": "uint256"
        },
        {
          "indexed": false,
          "name": "_support",
          "type": "bool"
        }
      ],
      "name": "StakedProposal",
      "type": "event"
    },
    {
      "anonymous": false,
      "inputs": [
        {
          "indexed": false,
          "name": "_cycleNumber",
          "type": "uint256"
        },
        {
          "indexed": false,
          "name": "_timestamp",
          "type": "uint256"
        }
      ],
      "name": "ChangeMakingTimeEnded",
      "type": "event"
    },
    {
      "anonymous": false,
      "inputs": [
        {
          "indexed": false,
          "name": "_cycleNumber",
          "type": "uint256"
        },
        {
          "indexed": false,
          "name": "_timestamp",
          "type": "uint256"
        }
      ],
      "name": "WaitingPhaseEnded",
      "type": "event"
    },
    {
      "anonymous": false,
      "inputs": [
        {
          "indexed": false,
          "name": "_cycleNumber",
          "type": "uint256"
        },
        {
          "indexed": false,
          "name": "_proposalId",
          "type": "uint256"
        }
      ],
      "name": "AssetSold",
      "type": "event"
    },
    {
      "anonymous": false,
      "inputs": [
        {
          "indexed": false,
          "name": "_cycleNumber",
          "type": "uint256"
        },
        {
          "indexed": false,
          "name": "_timestamp",
          "type": "uint256"
        }
      ],
      "name": "SellingPhaseEnded",
      "type": "event"
    },
    {
      "anonymous": false,
      "inputs": [
        {
          "indexed": false,
          "name": "_cycleNumber",
          "type": "uint256"
        },
        {
          "indexed": false,
          "name": "_beforeTotalFunds",
          "type": "uint256"
        },
        {
          "indexed": false,
          "name": "_afterTotalFunds",
          "type": "uint256"
        }
      ],
      "name": "ROI",
      "type": "event"
    },
    {
      "anonymous": false,
      "inputs": [
        {
          "indexed": false,
          "name": "_cycleNumber",
          "type": "uint256"
        },
        {
          "indexed": false,
          "name": "_totalCommissionInWeis",
          "type": "uint256"
        }
      ],
      "name": "CommissionPaid",
      "type": "event"
    },
    {
      "anonymous": false,
      "inputs": [
        {
          "indexed": false,
          "name": "_cycleNumber",
          "type": "uint256"
        },
        {
          "indexed": false,
          "name": "_timestamp",
          "type": "uint256"
        }
      ],
      "name": "CycleFinalized",
      "type": "event"
    },
    {
      "anonymous": false,
      "inputs": [],
      "name": "Pause",
      "type": "event"
    },
    {
      "anonymous": false,
      "inputs": [],
      "name": "Unpause",
      "type": "event"
    },
    {
      "anonymous": false,
      "inputs": [
        {
          "indexed": true,
          "name": "previousOwner",
          "type": "address"
        },
        {
          "indexed": true,
          "name": "newOwner",
          "type": "address"
        }
      ],
      "name": "OwnershipTransferred",
      "type": "event"
    },
    {
      "constant": true,
      "inputs": [],
      "name": "proposalsCount",
      "outputs": [
        {
          "name": "_count",
          "type": "uint256"
        }
      ],
      "payable": false,
      "stateMutability": "view",
      "type": "function"
    },
    {
      "constant": false,
      "inputs": [],
      "name": "emergencyDumpAllTokens",
      "outputs": [],
      "payable": false,
      "stateMutability": "nonpayable",
      "type": "function"
    },
    {
      "constant": false,
      "inputs": [
        {
          "name": "_proposalId",
          "type": "uint256"
        }
      ],
      "name": "emergencyDumpToken",
      "outputs": [],
      "payable": false,
      "stateMutability": "nonpayable",
      "type": "function"
    },
    {
      "constant": false,
      "inputs": [
        {
          "name": "_proposalId",
          "type": "uint256"
        }
      ],
      "name": "emergencyRedeemStake",
      "outputs": [],
      "payable": false,
      "stateMutability": "nonpayable",
      "type": "function"
    },
    {
      "constant": false,
      "inputs": [],
      "name": "emergencyRedistBalances",
      "outputs": [],
      "payable": false,
      "stateMutability": "nonpayable",
      "type": "function"
    },
    {
      "constant": false,
      "inputs": [
        {
          "name": "_val",
          "type": "bool"
        }
      ],
      "name": "setAllowEmergencyWithdraw",
      "outputs": [],
      "payable": false,
      "stateMutability": "nonpayable",
      "type": "function"
    },
    {
      "constant": false,
      "inputs": [],
      "name": "emergencyWithdraw",
      "outputs": [],
      "payable": false,
      "stateMutability": "nonpayable",
      "type": "function"
    },
    {
      "constant": false,
      "inputs": [
        {
          "name": "_newAddr",
          "type": "address"
        }
      ],
      "name": "changeKyberNetworkAddress",
      "outputs": [],
      "payable": false,
      "stateMutability": "nonpayable",
      "type": "function"
    },
    {
      "constant": false,
      "inputs": [
        {
          "name": "_newAddr",
          "type": "address"
        }
      ],
      "name": "changeDeveloperFeeAccount",
      "outputs": [],
      "payable": false,
      "stateMutability": "nonpayable",
      "type": "function"
    },
    {
      "constant": false,
      "inputs": [
        {
          "name": "_newProp",
          "type": "uint256"
        }
      ],
      "name": "changeDeveloperFeeProportion",
      "outputs": [],
      "payable": false,
      "stateMutability": "nonpayable",
      "type": "function"
    },
    {
      "constant": false,
      "inputs": [
        {
          "name": "_newProp",
          "type": "uint256"
        }
      ],
      "name": "changeCommissionRate",
      "outputs": [],
      "payable": false,
      "stateMutability": "nonpayable",
      "type": "function"
    },
    {
      "constant": false,
      "inputs": [
        {
          "name": "_newOwner",
          "type": "address"
        }
      ],
      "name": "changeControlTokenOwner",
      "outputs": [],
      "payable": false,
      "stateMutability": "nonpayable",
      "type": "function"
    },
    {
      "constant": false,
      "inputs": [
        {
          "name": "_newOwner",
          "type": "address"
        }
      ],
      "name": "changeShareTokenOwner",
      "outputs": [],
      "payable": false,
      "stateMutability": "nonpayable",
      "type": "function"
    },
    {
      "constant": false,
      "inputs": [],
      "name": "startNewCycle",
      "outputs": [],
      "payable": false,
      "stateMutability": "nonpayable",
      "type": "function"
    },
    {
      "constant": false,
      "inputs": [],
      "name": "deposit",
      "outputs": [],
      "payable": true,
      "stateMutability": "payable",
      "type": "function"
    },
    {
      "constant": false,
      "inputs": [
        {
          "name": "_amountInWeis",
          "type": "uint256"
        }
      ],
      "name": "withdraw",
      "outputs": [],
      "payable": false,
      "stateMutability": "nonpayable",
      "type": "function"
    },
    {
      "constant": false,
      "inputs": [
        {
          "name": "_tokenAddress",
          "type": "address"
        },
        {
          "name": "_stakeInWeis",
          "type": "uint256"
        }
      ],
      "name": "createProposal",
      "outputs": [],
      "payable": false,
      "stateMutability": "nonpayable",
      "type": "function"
    },
    {
      "constant": false,
      "inputs": [
        {
          "name": "_proposalId",
          "type": "uint256"
        },
        {
          "name": "_stakeInWeis",
          "type": "uint256"
        },
        {
          "name": "_support",
          "type": "bool"
        }
      ],
      "name": "stakeProposal",
      "outputs": [],
      "payable": false,
      "stateMutability": "nonpayable",
      "type": "function"
    },
    {
      "constant": false,
      "inputs": [
        {
          "name": "_proposalId",
          "type": "uint256"
        }
      ],
      "name": "cancelProposalStake",
      "outputs": [],
      "payable": false,
      "stateMutability": "nonpayable",
      "type": "function"
    },
    {
      "constant": false,
      "inputs": [],
      "name": "endChangeMakingTime",
      "outputs": [],
      "payable": false,
      "stateMutability": "nonpayable",
      "type": "function"
    },
    {
      "constant": false,
      "inputs": [
        {
          "name": "_proposalId",
          "type": "uint256"
        }
      ],
      "name": "executeProposal",
      "outputs": [],
      "payable": false,
      "stateMutability": "nonpayable",
      "type": "function"
    },
    {
      "constant": false,
      "inputs": [],
      "name": "endWaitingPhase",
      "outputs": [],
      "payable": false,
      "stateMutability": "nonpayable",
      "type": "function"
    },
    {
      "constant": false,
      "inputs": [
        {
          "name": "_proposalId",
          "type": "uint256"
        }
      ],
      "name": "sellProposalAsset",
      "outputs": [],
      "payable": false,
      "stateMutability": "nonpayable",
      "type": "function"
    },
    {
      "constant": false,
      "inputs": [
        {
          "name": "_proposalId",
          "type": "uint256"
        }
      ],
      "name": "redeemKairos",
      "outputs": [],
      "payable": false,
      "stateMutability": "nonpayable",
      "type": "function"
    },
    {
      "constant": false,
      "inputs": [],
      "name": "finalizeCycle",
      "outputs": [],
      "payable": false,
      "stateMutability": "nonpayable",
      "type": "function"
    },
    {
      "constant": false,
      "inputs": [],
      "name": "redeemCommission",
      "outputs": [],
      "payable": false,
      "stateMutability": "nonpayable",
      "type": "function"
    }
  ],
  "bytecode": "0x60606040526000805460a060020a60ff021916905534156200002057600080fd5b6040516101a080620039aa8339810160405280805191906020018051919060200180519190602001805191906020018051919060200180519190602001805191906020018051919060200180519190602001805191906020018051919060200180519190602001805160008054600160a060020a03191633600160a060020a0316179055915050670de0b6b3a76400008510620000bc57600080fd5b670de0b6b3a7640000620000df858564010000000062002ec56200027e82021704565b10620000ea57600080fd5b8c600160006101000a815481600160a060020a030219169083600160a060020a031602179055508b600260006101000a815481600160a060020a030219169083600160a060020a031602179055508a600360006101000a815481600160a060020a030219169083600160a060020a031602179055508c601b60016101000a815481600160a060020a030219169083600160a060020a031602179055508b601c60006101000a815481600160a060020a030219169083600160a060020a031602179055508a601d60006101000a815481600160a060020a030219169083600160a060020a0316021790555089600460006101000a815481600160a060020a030219169083600160a060020a031602179055508860098190555087600a8190555086600b8190555085600c8190555084600d8190555083600e8190555082600f8190555060006008819055506003601b60006101000a81548160ff021916908360038111156200025457fe5b021790555060059190915560115550506013805460ff191690555062000295975050505050505050565b6000828201838110156200028e57fe5b9392505050565b61370580620002a56000396000f30060606040526004361061029a5763ffffffff60e060020a600035041663013cf08b81146102b757806309b0d33a146103105780630a9f46ad146103235780630d61b519146103485780630e1b1fda1461035e5780630f6f17d21461037457806311815223146103965780631a26af7a146103b55780631ab371fc146103dc5780631b8e21921461040b5780631c68e5281461041e5780631dcf8ceb1461043d5780631ebe568c1461045057806325f842c51461046657806328ac1228146104795780632e1a7d4d1461048c5780632e33de6a146104a25780632f884710146104c45780633795ea5a146104d75780633f4ba83a146104ea5780634031c09e146104fd5780634773822e146105135780634f634790146105325780635c975abb146105455780635d4c3224146105585780635ea1d6f814610570578063612d194d1461058357806364542e3e146105965780636642642a146105ac5780637e714dd2146105c25780637f2736d1146105d5578063821f9824146105e85780638456cb59146106075780638657459e1461061a5780638d8f784b146106305780638da5cb5b14610643578063a24459fc14610656578063a7c4dccf1461066c578063aaf5eb681461067f578063b18e8a8d14610692578063b484cf8d146106b1578063b64af4b1146106c7578063b8b74553146106da578063ba25887d146106ed578063c0320dbc14610700578063d0e30db014610713578063d13f71841461071b578063d7615d3714610731578063db2e21bc14610744578063dbdadc5c14610757578063dc87454c1461076a578063dfc51a251461077d578063e7476abf1461079f578063e7ee8016146107be578063ec33d2a0146107dc578063f2fde38b146107ef578063f6558b001461080e578063f8d4d43814610845575b60035433600160a060020a039081169116146102b557600080fd5b005b34156102c257600080fd5b6102cd600435610858565b604051600160a060020a03909616865260208601949094526040808601939093526060850191909152608084015290151560a083015260c0909101905180910390f35b341561031b57600080fd5b6102b56108a9565b341561032e57600080fd5b6103366109e0565b60405190815260200160405180910390f35b341561035357600080fd5b6102b56004356109e7565b341561036957600080fd5b6102b5600435610afd565b341561037f57600080fd5b610336600435600160a060020a0360243516610c2d565b34156103a157600080fd5b6102b5600160a060020a0360043516610c4a565b34156103c057600080fd5b6103c8610cbe565b604051901515815260200160405180910390f35b34156103e757600080fd5b6103ef610cc7565b604051600160a060020a03909116815260200160405180910390f35b341561041657600080fd5b6102b5610cd6565b341561042957600080fd5b6102b5600160a060020a0360043516610e7a565b341561044857600080fd5b610336610f29565b341561045b57600080fd5b6102b5600435610f2f565b341561047157600080fd5b61033661125e565b341561048457600080fd5b610336611264565b341561049757600080fd5b6102b560043561126a565b34156104ad57600080fd5b610336600435600160a060020a0360243516611440565b34156104cf57600080fd5b61033661145d565b34156104e257600080fd5b610336611463565b34156104f557600080fd5b6102b5611469565b341561050857600080fd5b6102b56004356114e8565b341561051e57600080fd5b6103c8600160a060020a0360043516611534565b341561053d57600080fd5b610336611549565b341561055057600080fd5b6103c861154f565b341561056357600080fd5b6102b5600435151561155f565b341561057b57600080fd5b6103366115a5565b341561058e57600080fd5b6103366115ab565b34156105a157600080fd5b6102b56004356115b1565b34156105b757600080fd5b6102b56004356115df565b34156105cd57600080fd5b6103366115ff565b34156105e057600080fd5b6102b5611605565b34156105f357600080fd5b610336600160a060020a0360043516611853565b341561061257600080fd5b6102b5611865565b341561062557600080fd5b6102b56004356118e9565b341561063b57600080fd5b6102b5611a33565b341561064e57600080fd5b6103ef611a96565b341561066157600080fd5b610336600435611aa5565b341561067757600080fd5b6103ef611ab7565b341561068a57600080fd5b610336611ac6565b341561069d57600080fd5b6102b5600160a060020a0360043516611acc565b34156106bc57600080fd5b610336600435611b1e565b34156106d257600080fd5b6102b5611b30565b34156106e557600080fd5b6102b5611c67565b34156106f857600080fd5b610336611caa565b341561070b57600080fd5b610336611cb0565b6102b5611cb6565b341561072657600080fd5b6102b5600435611f56565b341561073c57600080fd5b6103ef612273565b341561074f57600080fd5b6102b5612282565b341561076257600080fd5b610336612524565b341561077557600080fd5b6103ef61252a565b341561078857600080fd5b6102b5600160a060020a0360043516602435612539565b34156107aa57600080fd5b6102b5600160a060020a03600435166126f8565b34156107c957600080fd5b6102b56004356024356044351515612795565b34156107e757600080fd5b6102b5612c3a565b34156107fa57600080fd5b6102b5600160a060020a0360043516612e28565b341561081957600080fd5b610821612eb6565b6040518082600381111561083157fe5b60ff16815260200191505060405180910390f35b341561085057600080fd5b610336612ebf565b601a80548290811061086657fe5b6000918252602090912060069091020180546001820154600283015460038401546004850154600590950154600160a060020a0390941695509193909260ff1686565b600180601b5460ff1660038111156108bd57fe5b146108c757600080fd5b60005460a060020a900460ff16156108de57600080fd5b601b60019054906101000a9004600160a060020a0316600160a060020a03166340c10f193360115460006040516020015260405160e060020a63ffffffff8516028152600160a060020a0390921660048301526024820152604401602060405180830381600087803b151561095257600080fd5b6102c65a03f1151561096357600080fd5b50505060405180515050600a546008546109829163ffffffff612ec516565b42101561098e57600080fd5b426008819055601b805460ff191660021790556005547fb261f68a380a9c0e8cb1b8ddea5dceb8ce59629e31c7d50b5a3acf6f017b6df69160405191825260208201526040908101905180910390a150565b601a545b90565b600180601b5460ff1660038111156109fb57fe5b14610a0557600080fd5b60005460a060020a900460ff1615610a1c57600080fd5b601b60019054906101000a9004600160a060020a0316600160a060020a03166340c10f193360115460006040516020015260405160e060020a63ffffffff8516028152600160a060020a0390921660048301526024820152604401602060405180830381600087803b1515610a9057600080fd5b6102c65a03f11515610aa157600080fd5b5050506040518051905050610ab582612edf565b1515610ac057600080fd5b601a805483908110610ace57fe5b9060005260206000209060060201600101546000141515610aee57600080fd5b610af9826001612f0b565b5050565b6000805460a060020a900460ff161515610b1657600080fd5b60135460ff161515610b2757600080fd5b6000828152601760209081526040808320600160a060020a0333168085529083528184205486855260168452828520918552925290912054610b6e9163ffffffff612ec516565b600083815260166020908152604080832033600160a060020a038181168087529285528386208690558886526017855283862092865291909352818420849055601b549495506101009094049093169263a9059cbb928591516020015260405160e060020a63ffffffff8516028152600160a060020a0390921660048301526024820152604401602060405180830381600087803b1515610c0e57600080fd5b6102c65a03f11515610c1f57600080fd5b505050604051805150505050565b601660209081526000928352604080842090915290825290205481565b60005433600160a060020a03908116911614610c6557600080fd5b60005460a060020a900460ff161515610c7d57600080fd5b600160a060020a0381161515610c9257600080fd5b60038054600160a060020a03909216600160a060020a03199283168117909155601d8054909216179055565b60135460ff1681565b600454600160a060020a031681565b600380601b5460ff166003811115610cea57fe5b14610cf457600080fd5b60005460a060020a900460ff1615610d0b57600080fd5b600554600160a060020a03331660009081526019602052604090205410610d3157600080fd5b600554600160a060020a0333811660008181526019602052604080822094909455601b5491936108fc93610e5293610100900416916318160ddd9151602001526040518163ffffffff1660e060020a028152600401602060405180830381600087803b1515610d9f57600080fd5b6102c65a03f11515610db057600080fd5b5050506040518051601b54909150610e46906101009004600160a060020a03166370a082313360006040516020015260405160e060020a63ffffffff8416028152600160a060020a039091166004820152602401602060405180830381600087803b1515610e1d57600080fd5b6102c65a03f11515610e2e57600080fd5b5050506040518051601254915063ffffffff61342716565b9063ffffffff61345216565b9081150290604051600060405180830381858888f193505050501515610e7757600080fd5b50565b60005433600160a060020a03908116911614610e9557600080fd5b60005460a060020a900460ff161515610ead57600080fd5b600160a060020a0381161515610ec257600080fd5b601c54600160a060020a031663f2fde38b8260405160e060020a63ffffffff8416028152600160a060020a039091166004820152602401600060405180830381600087803b1515610f1257600080fd5b6102c65a03f11515610f2357600080fd5b50505050565b600d5481565b600080808080601b5460ff166003811115610f4657fe5b14610f5057600080fd5b60005460a060020a900460ff1615610f6757600080fd5b601a548510610f7557600080fd5b610f7e85612edf565b1515610f8957600080fd5b6000858152601660209081526040808320600160a060020a03331680855290835281842054898552601784528285209185529252909120549094509250610fd6848463ffffffff612ec516565b9150600084111561108257600085815260146020526040902054611000908363ffffffff61346916565b600086815260146020526040902055601054611022908363ffffffff61346916565b601055601a805461105a916001918890811061103a57fe5b90600052602060002090600602016003015461346990919063ffffffff16565b601a80548790811061106857fe5b90600052602060002090600602016003018190555061111b565b6000831115611116576000858152601560205260409020546110aa908363ffffffff61346916565b600086815260156020526040902055601a80546110ee91600191889081106110ce57fe5b90600052602060002090600602016004015461346990919063ffffffff16565b601a8054879081106110fc57fe5b90600052602060002090600602016004018190555061111b565b611257565b600085815260166020908152604080832033600160a060020a038181168087529285528386208690558a86526017855283862092865291909352818420849055601b546101009004169263a9059cbb9291869190516020015260405160e060020a63ffffffff8516028152600160a060020a0390921660048301526024820152604401602060405180830381600087803b15156111b757600080fd5b6102c65a03f115156111c857600080fd5b50505060405180515050601a8054869081106111e057fe5b90600052602060002090600602016003015460001415611257576112038561347b565b601a80548690811061121157fe5b6000918252602082206006909102018054600160a060020a03191681556001810182905560028101829055600381018290556004810191909155600501805460ff191690555b5050505050565b60085481565b60095481565b600080601b5460ff16600381111561127e57fe5b1461128857600080fd5b60005460a060020a900460ff161561129f57600080fd5b600554600114156112af57600080fd5b601c54600754600160a060020a039091169063c000178690339061133490610e46856318160ddd6000604051602001526040518163ffffffff1660e060020a028152600401602060405180830381600087803b151561130d57600080fd5b6102c65a03f1151561131e57600080fd5b505050604051805189915063ffffffff61342716565b60006040516020015260405160e060020a63ffffffff8516028152600160a060020a0390921660048301526024820152604401602060405180830381600087803b151561138057600080fd5b6102c65a03f1151561139157600080fd5b505050604051805150506007546113ae908363ffffffff61346916565b600755600160a060020a03331682156108fc0283604051600060405180830381858888f1935050505015156113e257600080fd5b7fb0ecf14e184effded5473bba77dcfab32b094b77ac1fbb36beec2aef55587970600554338442604051938452600160a060020a03909216602084015260408084019190915260608301919091526080909101905180910390a15050565b601760209081526000928352604080842090915290825290205481565b60055481565b600b5481565b60005433600160a060020a0390811691161461148457600080fd5b60005460a060020a900460ff16151561149c57600080fd5b6000805474ff0000000000000000000000000000000000000000191690557f7805862f689e2f13df9f062ff482ad3ad112aca9e0847911ed832e158c525b3360405160405180910390a1565b60005433600160a060020a0390811691161461150357600080fd5b60005460a060020a900460ff16151561151b57600080fd5b61152481612edf565b15610e7757610e77816000612f0b565b60186020526000908152604090205460ff1681565b600a5481565b60005460a060020a900460ff1681565b60005433600160a060020a0390811691161461157a57600080fd5b60005460a060020a900460ff16151561159257600080fd5b6013805460ff1916911515919091179055565b600e5481565b60115481565b60005433600160a060020a039081169116146115cc57600080fd5b600f5481106115da57600080fd5b600f55565b60005433600160a060020a039081169116146115fa57600080fd5b600e55565b60075481565b6000600380601b5460ff16600381111561161b57fe5b1461162557600080fd5b60005460a060020a900460ff161561163c57600080fd5b601b60019054906101000a9004600160a060020a0316600160a060020a03166340c10f193360115460006040516020015260405160e060020a63ffffffff8516028152600160a060020a0390921660048301526024820152604401602060405180830381600087803b15156116b057600080fd5b6102c65a03f115156116c157600080fd5b50505060405180515050600c546008546116e09163ffffffff612ec516565b4210156116ec57600080fd5b601b805460ff1916905542600855600554611708906001612ec5565b600555601b546101009004600160a060020a0316635c975abb6000604051602001526040518163ffffffff1660e060020a028152600401602060405180830381600087803b151561175857600080fd5b6102c65a03f1151561176957600080fd5b50505060405180519050156117d157601b546101009004600160a060020a0316633f4ba83a6040518163ffffffff1660e060020a028152600401600060405180830381600087803b15156117bc57600080fd5b6102c65a03f115156117cd57600080fd5b5050505b600091505b601a54821015611801576117e98261347b565b6117fa82600163ffffffff612ec516565b91506117d6565b61180d601a6000613637565b6010600090557f62eeb403dc233a7676f50cdb0fd72dae595aeb7c63039adce5caacc33254f9c06005544260405191825260208201526040908101905180910390a15050565b60196020526000908152604090205481565b60005433600160a060020a0390811691161461188057600080fd5b60005460a060020a900460ff161561189757600080fd5b6000805474ff0000000000000000000000000000000000000000191660a060020a1790557f6985a02210a168e66602d3235cb6db0e70f92b3ba4d376a33c0f3d9434bff62560405160405180910390a1565b600280601b5460ff1660038111156118fd57fe5b1461190757600080fd5b60005460a060020a900460ff161561191e57600080fd5b601b60019054906101000a9004600160a060020a0316600160a060020a03166340c10f193360115460006040516020015260405160e060020a63ffffffff8516028152600160a060020a0390921660048301526024820152604401602060405180830381600087803b151561199257600080fd5b6102c65a03f115156119a357600080fd5b50505060405180519050506119b782612edf565b15156119c257600080fd5b6000601a838154811015156119d357fe5b9060005260206000209060060201600101541115156119f157600080fd5b6119fc826000612f0b565b6001601a83815481101515611a0d57fe5b60009182526020909120600690910201600501805460ff19169115159190911790555050565b6000805433600160a060020a03908116911614611a4f57600080fd5b60005460a060020a900460ff161515611a6757600080fd5b5060005b601a54811015610e7757611a7e816114e8565b611a8f81600163ffffffff612ec516565b9050611a6b565b600054600160a060020a031681565b60156020526000908152604090205481565b600354600160a060020a031681565b60065481565b60005433600160a060020a03908116911614611ae757600080fd5b600160a060020a0381161515611afc57600080fd5b60048054600160a060020a031916600160a060020a0392909216919091179055565b60146020526000908152604090205481565b600080601b5460ff166003811115611b4457fe5b14611b4e57600080fd5b60005460a060020a900460ff1615611b6557600080fd5b601b60019054906101000a9004600160a060020a0316600160a060020a03166340c10f193360115460006040516020015260405160e060020a63ffffffff8516028152600160a060020a0390921660048301526024820152604401602060405180830381600087803b1515611bd957600080fd5b6102c65a03f11515611bea57600080fd5b50505060405180515050600954600854611c099163ffffffff612ec516565b421015611c1557600080fd5b426008819055601b805460ff191660011790556005547f3c3379a2308ae89ee638561d0222706de289bea89968dd555b533795071130fb9160405191825260208201526040908101905180910390a150565b60005433600160a060020a03908116911614611c8257600080fd5b60005460a060020a900460ff161515611c9a57600080fd5b600160a060020a03301631600755565b600f5481565b60125481565b600080601b5460ff166003811115611cca57fe5b14611cd457600080fd5b60005460a060020a900460ff1615611ceb57600080fd5b60055460011415611d7657601c54600160a060020a03166340c10f19333460006040516020015260405160e060020a63ffffffff8516028152600160a060020a0390921660048301526024820152604401602060405180830381600087803b1515611d5557600080fd5b6102c65a03f11515611d6657600080fd5b5050506040518051905050611e63565b601c54600754600160a060020a03909116906340c10f19903390611dfb90610e46856318160ddd6000604051602001526040518163ffffffff1660e060020a028152600401602060405180830381600087803b1515611dd457600080fd5b6102c65a03f11515611de557600080fd5b505050604051805134915063ffffffff61342716565b60006040516020015260405160e060020a63ffffffff8516028152600160a060020a0390921660048301526024820152604401602060405180830381600087803b1515611e4757600080fd5b6102c65a03f11515611e5857600080fd5b505050604051805150505b600754611e76903463ffffffff612ec516565b600755601b546101009004600160a060020a03166340c10f19333460006040516020015260405160e060020a63ffffffff8516028152600160a060020a0390921660048301526024820152604401602060405180830381600087803b1515611edd57600080fd5b6102c65a03f11515611eee57600080fd5b50505060405180519050507fd36a2f67d06d285786f61a32b052b9ace6b0b7abef5177b54358abdc83a0b69b600554333442604051938452600160a060020a03909216602084015260408084019190915260608301919091526080909101905180910390a150565b6000808080600280601b5460ff166003811115611f6f57fe5b14611f7957600080fd5b60005460a060020a900460ff1615611f9057600080fd5b601a805487908110611f9e57fe5b60009182526020909120600690910201600581015490955060ff161515611fc457600080fd5b611fe58560010154610e46600654886002015461342790919063ffffffff16565b60018601549094506000935061200290600263ffffffff61342716565b85600201541015612056576120538560010154610e46600654612047896002015461203b60028c6001015461342790919063ffffffff16565b9063ffffffff61346916565b9063ffffffff61342716565b92505b6000868152601660209081526040808320600160a060020a033316845290915281205490925082901115612165576000868152601660209081526040808320600160a060020a0333818116865291909352922054601b546006549195506101009004909116916340c10f19916120d690610e46878a63ffffffff61342716565b60006040516020015260405160e060020a63ffffffff8516028152600160a060020a0390921660048301526024820152604401602060405180830381600087803b151561212257600080fd5b6102c65a03f1151561213357600080fd5b505050604051805150506000868152601660209081526040808320600160a060020a033316845290915281205561226b565b6000868152601760209081526040808320600160a060020a0333168452909152812054111561226b576000868152601760209081526040808320600160a060020a0333818116865291909352922054601b546006549195506101009004909116916340c10f19916121e090610e46878963ffffffff61342716565b60006040516020015260405160e060020a63ffffffff8516028152600160a060020a0390921660048301526024820152604401602060405180830381600087803b151561222c57600080fd5b6102c65a03f1151561223d57600080fd5b505050604051805150506000868152601760209081526040808320600160a060020a03331684529091528120555b505050505050565b600254600160a060020a031681565b6000805460a060020a900460ff16151561229b57600080fd5b60135460ff1615156122ac57600080fd5b601c5461239b90600160a060020a03166318160ddd6000604051602001526040518163ffffffff1660e060020a028152600401602060405180830381600087803b15156122f857600080fd5b6102c65a03f1151561230957600080fd5b5050506040518051600754601c54919250610e4691600160a060020a03166370a082313360006040516020015260405160e060020a63ffffffff8416028152600160a060020a039091166004820152602401602060405180830381600087803b151561237457600080fd5b6102c65a03f1151561238557600080fd5b505050604051805191905063ffffffff61342716565b601c54909150600160a060020a031663c000178633826370a082318260006040516020015260405160e060020a63ffffffff8416028152600160a060020a039091166004820152602401602060405180830381600087803b15156123fe57600080fd5b6102c65a03f1151561240f57600080fd5b5050506040518051905060006040516020015260405160e060020a63ffffffff8516028152600160a060020a0390921660048301526024820152604401602060405180830381600087803b151561246557600080fd5b6102c65a03f1151561247657600080fd5b50505060405180515050600754612493908263ffffffff61346916565b600755600160a060020a03331681156108fc0282604051600060405180830381858888f1935050505015156124c757600080fd5b7fb0ecf14e184effded5473bba77dcfab32b094b77ac1fbb36beec2aef55587970600554338342604051938452600160a060020a03909216602084015260408084019190915260608301919091526080909101905180910390a150565b600c5481565b600154600160a060020a031681565b60008080601b5460ff16600381111561254e57fe5b1461255857600080fd5b60005460a060020a900460ff161561256f57600080fd5b600160a060020a03841660009081526018602052604090205460ff161561259557600080fd5b601a8054600181016125a78382613658565b9160005260206000209060060201600060c06040519081016040908152600160a060020a0389168252600060208301819052908201819052606082018190526080820181905260a082015291905081518154600160a060020a031916600160a060020a03919091161781556020820151816001015560408201518160020155606082015181600301556080820151816004015560a08201516005909101805491151560ff19928316179055600160a060020a038716600090815260186020526040902080549091166001908117909155601a5460001901945061268f92508491508590612795565b7f8ce9f930ed5ed31849df1551919914386f6b2b7de1fdde27d80255ceaa38b2276005548386866040518085815260200184815260200183600160a060020a0316600160a060020a0316815260200182815260200194505050505060405180910390a150505050565b60005433600160a060020a0390811691161461271357600080fd5b60005460a060020a900460ff16151561272b57600080fd5b600160a060020a038116151561274057600080fd5b601b546101009004600160a060020a031663f2fde38b8260405160e060020a63ffffffff8416028152600160a060020a039091166004820152602401600060405180830381600087803b1515610f1257600080fd5b600080601b5460ff1660038111156127a957fe5b146127b357600080fd5b60005460a060020a900460ff16156127ca57600080fd5b601a5484106127d857600080fd5b60186000601a868154811015156127eb57fe5b60009182526020808320600690920290910154600160a060020a0316835282019290925260400190205460ff16151561282357600080fd5b601b546128ae906101009004600160a060020a03166370a082313360006040516020015260405160e060020a63ffffffff8416028152600160a060020a039091166004820152602401602060405180830381600087803b151561288557600080fd5b6102c65a03f1151561289657600080fd5b5050506040518051600d54915063ffffffff61342716565b6006546128c290859063ffffffff61342716565b10156128cd57600080fd5b600083116128da57600080fd5b601b546101009004600160a060020a0316632bee7bde338560006040516020015260405160e060020a63ffffffff8516028152600160a060020a0390921660048301526024820152604401602060405180830381600087803b151561293e57600080fd5b6102c65a03f1151561294f57600080fd5b505050604051805190505081801561298757506000848152601760209081526040808320600160a060020a0333168452909152902054155b15612aa6576000848152601660209081526040808320600160a060020a03331684529091529020541515612a0d576129e96001601a868154811015156129c957fe5b906000526020600020906006020160030154612ec590919063ffffffff16565b601a8054869081106129f757fe5b9060005260206000209060060201600301819055505b600084815260146020526040902054612a2c908463ffffffff612ec516565b60008581526014602090815260408083209390935560168152828220600160a060020a033316835290522054612a68908463ffffffff612ec516565b6000858152601660209081526040808320600160a060020a0333168452909152902055601054612a9e908463ffffffff612ec516565b601055612be2565b81158015612ad457506000848152601660209081526040808320600160a060020a0333168452909152902054155b15612bdd576000848152601760209081526040808320600160a060020a03331684529091529020541515612b5a57612b366001601a86815481101515612b1657fe5b906000526020600020906006020160040154612ec590919063ffffffff16565b601a805486908110612b4457fe5b9060005260206000209060060201600401819055505b600084815260156020526040902054612b79908463ffffffff612ec516565b60008581526015602090815260408083209390935560178152828220600160a060020a033316835290522054612bb5908463ffffffff612ec516565b6000858152601760209081526040808320600160a060020a0333168452909152902055612be2565b600080fd5b7f725e873e4977c489020b571ecffe13e8f200a0e8b71e450d8b190aa236bcede9600554858585604051938452602084019290925260408084019190915290151560608301526080909101905180910390a150505050565b600280601b5460ff166003811115612c4e57fe5b14612c5857600080fd5b60005460a060020a900460ff1615612c6f57600080fd5b601b60019054906101000a9004600160a060020a0316600160a060020a03166340c10f193360115460006040516020015260405160e060020a63ffffffff8516028152600160a060020a0390921660048301526024820152604401602060405180830381600087803b1515612ce357600080fd5b6102c65a03f11515612cf457600080fd5b50505060405180515050600b54600854612d139163ffffffff612ec516565b421015612d1f57600080fd5b42600855601b805460ff191660031790819055600160a060020a036101009091041663f3123a3a6040518163ffffffff1660e060020a028152600401600060405180830381600087803b1515612d7457600080fd5b6102c65a03f11515612d8557600080fd5b5050601b546101009004600160a060020a03169050638456cb596040518163ffffffff1660e060020a028152600401600060405180830381600087803b1515612dcd57600080fd5b6102c65a03f11515612dde57600080fd5b505050612de96134d9565b7ff4b862466a7ed84695726312fc00377bee25443b7890d8b8985f94eef497d6ff6005544260405191825260208201526040908101905180910390a150565b60005433600160a060020a03908116911614612e4357600080fd5b600160a060020a0381161515612e5857600080fd5b600054600160a060020a0380831691167f8be0079c531659141344cd1fd0a4f28419497f9722a3daafe3b4186f6b6457e060405160405180910390a360008054600160a060020a031916600160a060020a0392909216919091179055565b601b5460ff1681565b60105481565b600082820183811015612ed457fe5b8091505b5092915050565b600080601a83815481101515612ef157fe5b906000526020600020906006020160030154119050919050565b600080600080600080601a88815481101515612f2357fe5b6000918252602090912060069091020154600160a060020a0316925082915086156130a957601054600089815260146020526040902054600754612f729291610e46919063ffffffff61342716565b601d54909650600160a060020a033081811631935091169063cb3c28c790889073eeeeeeeeeeeeeeeeeeeeeeeeeeeeeeeeeeeeeeee90829087906b204fce5e3e2502611000000060018260006040516020015260405160e060020a63ffffffff8b16028152600160a060020a039788166004820152602481019690965293861660448601529185166064850152608484015260a483015290911660c482015260e4016020604051808303818588803b151561302c57600080fd5b6125ee5a03f1151561303d57600080fd5b5050505060405180519550506000851161305657600080fd5b61307d85610e4660065461204730600160a060020a0316318661346990919063ffffffff16565b935083601a8981548110151561308f57fe5b90600052602060002090600602016001018190555061341d565b81600160a060020a03166370a082313060006040516020015260405160e060020a63ffffffff8416028152600160a060020a039091166004820152602401602060405180830381600087803b151561310057600080fd5b6102c65a03f1151561311157600080fd5b5050506040518051600354909750600160a060020a03808516925063095ea7b391168860006040516020015260405160e060020a63ffffffff8516028152600160a060020a0390921660048301526024820152604401602060405180830381600087803b151561318057600080fd5b6102c65a03f1151561319157600080fd5b50505060405180515050601d54600160a060020a031663cb3c28c7838873eeeeeeeeeeeeeeeeeeeeeeeeeeeeeeeeeeeeeeee306b204fce5e3e2502611000000060018260006040516020015260405160e060020a63ffffffff8a16028152600160a060020a039788166004820152602481019690965293861660448601529185166064850152608484015260a483015290911660c482015260e401602060405180830381600087803b151561324557600080fd5b6102c65a03f1151561325657600080fd5b5050506040518051600354909650600160a060020a03808516925063095ea7b391166000806040516020015260405160e060020a63ffffffff8516028152600160a060020a0390921660048301526024820152604401602060405180830381600087803b15156132c557600080fd5b6102c65a03f115156132d657600080fd5b50505060405180515050600160a060020a0382166370a082313060006040516020015260405160e060020a63ffffffff8416028152600160a060020a039091166004820152602401602060405180830381600087803b151561333757600080fd5b6102c65a03f1151561334857600080fd5b50505060405180518711905061335d57600080fd5b6133f56133e183600160a060020a03166370a082313060006040516020015260405160e060020a63ffffffff8416028152600160a060020a039091166004820152602401602060405180830381600087803b15156133ba57600080fd5b6102c65a03f115156133cb57600080fd5b505050604051805189915063ffffffff61346916565b600654610e4690889063ffffffff61342716565b935083601a8981548110151561340757fe5b9060005260206000209060060201600201819055505b5050505050505050565b60008083151561343a5760009150612ed8565b5082820282848281151561344a57fe5b0414612ed457fe5b600080828481151561346057fe5b04949350505050565b60008282111561347557fe5b50900390565b60186000601a8381548110151561348e57fe5b60009182526020808320600690920290910154600160a060020a031683528281019390935260409182018120805460ff19169055928352601482528083208390556015909152812055565b600080600080925060075430600160a060020a03163111156135075760075430600160a060020a0316310392505b613522600654610e4685600e5461342790919063ffffffff16565b601255600654600f5461354a9190610e4690600160a060020a0330163163ffffffff61342716565b915061356f8261203b60125430600160a060020a03163161346990919063ffffffff16565b90507f13a18edb371d0a74be72de10b678893b96bc8a47e776bb122c59e21d53956fbd6005546007548360405180848152602001838152602001828152602001935050505060405180910390a16007819055600454600160a060020a031682156108fc0283604051600060405180830381858888f1935050505015156135f457600080fd5b7facfa15ebe340982fef95d43aafc25d741382d7928a00055a209274fa615d527760055460125460405191825260208201526040908101905180910390a1505050565b5080546000825560060290600052602060002090810190610e779190613689565b815481835581811511613684576006028160060283600052602060002091820191016136849190613689565b505050565b6109e491905b808211156136d5578054600160a060020a03191681556000600182018190556002820181905560038201819055600482015560058101805460ff1916905560060161368f565b50905600a165627a7a72305820f31d1341763a0d3fc7f85876d02b9e8bb6296c625674f62653118f59f7948b670029",
  "source": "pragma solidity ^0.4.18;\r\n\r\nimport 'zeppelin-solidity/contracts/math/SafeMath.sol';\r\nimport 'zeppelin-solidity/contracts/math/Math.sol';\r\nimport 'zeppelin-solidity/contracts/lifecycle/Pausable.sol';\r\nimport './ControlToken.sol';\r\nimport './ShareToken.sol';\r\nimport './KyberNetwork.sol';\r\nimport './Utils.sol';\r\n\r\n/**\r\n * The main contract of the Betoken hedge fund\r\n */\r\ncontract BetokenFund is Pausable, Utils {\r\n  using SafeMath for uint256;\r\n\r\n  enum CyclePhase { ChangeMaking, Waiting, Finalizing, Finalized }\r\n\r\n  struct Proposal {\r\n    address tokenAddress;\r\n    uint256 buyPriceInWeis;\r\n    uint256 sellPriceInWeis;\r\n    uint256 numFor;\r\n    uint256 numAgainst;\r\n    bool isSold;\r\n  }\r\n\r\n  /**\r\n   * @dev Executes function only during the given cycle phase.\r\n   * @param phase the cycle phase during which the function may be called\r\n   */\r\n  modifier during(CyclePhase phase) {\r\n    require(cyclePhase == phase);\r\n    _;\r\n  }\r\n\r\n  modifier rewardCaller {\r\n    cToken.mint(msg.sender, functionCallReward);\r\n    _;\r\n  }\r\n\r\n  //Address of the control token contract.\r\n  address public controlTokenAddr;\r\n\r\n  //Address of the share token contract.\r\n  address public shareTokenAddr;\r\n\r\n  //Address of the KyberNetwork contract\r\n  address public kyberAddr;\r\n\r\n  //Address to which the developer fees will be paid.\r\n  address public developerFeeAccount;\r\n\r\n  //The number of the current investment cycle.\r\n  uint256 public cycleNumber;\r\n\r\n  //10^{decimals} used for representing fixed point numbers with {decimals} decimals.\r\n  uint256 public PRECISION;\r\n\r\n  //The amount of funds held by the fund.\r\n  uint256 public totalFundsInWeis;\r\n\r\n  //The start time for the current investment cycle phase, in seconds since Unix epoch.\r\n  uint256 public startTimeOfCyclePhase;\r\n\r\n  //Temporal length of change making period at start of each cycle, in seconds.\r\n  uint256 public timeOfChangeMaking;\r\n\r\n  //Temporal length of waiting period, in seconds.\r\n  uint256 public timeOfWaiting;\r\n\r\n  uint256 public timeOfFinalizing;\r\n\r\n  uint256 public timeBetweenCycles;\r\n\r\n  //Minimum proportion of Kairo balance people have to stake in support of a proposal. Fixed point decimal.\r\n  uint256 public minStakeProportion;\r\n\r\n  //The proportion of the fund that gets distributed to Kairo holders every cycle. Fixed point decimal.\r\n  uint256 public commissionRate;\r\n\r\n  //The proportion of contract balance that goes the the devs every cycle. Fixed point decimal.\r\n  uint256 public developerFeeProportion;\r\n\r\n  //Total Kairo staked in support of proposals this cycle.\r\n  uint256 public cycleTotalForStake;\r\n\r\n  //Amount of Kairo rewarded to the user who calls a phase transition/proposal handling function\r\n  uint256 public functionCallReward;\r\n\r\n  //Amount of commission to be paid out this cycle\r\n  uint256 public totalCommission;\r\n\r\n  //Flag for whether emergency withdrawing is allowed.\r\n  bool public allowEmergencyWithdraw;\r\n\r\n  //Mapping from Proposal to total amount of Control Tokens being staked by supporters.\r\n  mapping(uint256 => uint256) public forStakedControlOfProposal;\r\n  mapping(uint256 => uint256) public againstStakedControlOfProposal;\r\n\r\n  //mapping(proposalId => mapping(participantAddress => stakedTokensInWeis))\r\n  mapping(uint256 => mapping(address => uint256)) public forStakedControlOfProposalOfUser;\r\n  mapping(uint256 => mapping(address => uint256)) public againstStakedControlOfProposalOfUser;\r\n\r\n  //Mapping to check if a proposal for a token has already been made.\r\n  mapping(address => bool) public isTokenAlreadyProposed;\r\n\r\n  //The last cycle where a user redeemed commission.\r\n  mapping(address => uint256) public lastCommissionRedemption;\r\n\r\n  //List of proposals in the current cycle.\r\n  Proposal[] public proposals;\r\n\r\n  //The current cycle phase.\r\n  CyclePhase public cyclePhase;\r\n\r\n  //Contract instances\r\n  ControlToken internal cToken;\r\n  ShareToken internal sToken;\r\n  KyberNetwork internal kyber;\r\n\r\n  event CycleStarted(uint256 _cycleNumber, uint256 _timestamp);\r\n  event Deposit(uint256 _cycleNumber, address _sender, uint256 _amountInWeis, uint256 _timestamp);\r\n  event Withdraw(uint256 _cycleNumber, address _sender, uint256 _amountInWeis, uint256 _timestamp);\r\n  event NewProposal(uint256 _cycleNumber, uint256 _id, address _tokenAddress, uint256 _stakeInWeis);\r\n  event StakedProposal(uint256 _cycleNumber, uint256 _id, uint256 _stakeInWeis, bool _support);\r\n  event ChangeMakingTimeEnded(uint256 _cycleNumber, uint256 _timestamp);\r\n\r\n  event WaitingPhaseEnded(uint256 _cycleNumber, uint256 _timestamp);\r\n\r\n  event AssetSold(uint256 _cycleNumber, uint256 _proposalId);\r\n  event SellingPhaseEnded(uint256 _cycleNumber, uint256 _timestamp);\r\n\r\n  event ROI(uint256 _cycleNumber, uint256 _beforeTotalFunds, uint256 _afterTotalFunds);\r\n  event CommissionPaid(uint256 _cycleNumber, uint256 _totalCommissionInWeis);\r\n  event CycleFinalized(uint256 _cycleNumber, uint256 _timestamp);\r\n\r\n  /**\r\n   * Contract initialization functions\r\n   */\r\n\r\n  //Constructor\r\n  function BetokenFund(\r\n    address _cTokenAddr,\r\n    address _sTokenAddr,\r\n    address _kyberAddr,\r\n    address _developerFeeAccount,\r\n    uint256 _timeOfChangeMaking,\r\n    uint256 _timeOfWaiting,\r\n    uint256 _timeOfFinalizing,\r\n    uint256 _timeBetweenCycles,\r\n    uint256 _minStakeProportion,\r\n    uint256 _commissionRate,\r\n    uint256 _developerFeeProportion,\r\n    uint256 _cycleNumber,\r\n    uint256 _functionCallReward\r\n  )\r\n    public\r\n  {\r\n    require(_minStakeProportion < 10**18);\r\n    require(_commissionRate.add(_developerFeeProportion) < 10**18);\r\n\r\n    controlTokenAddr = _cTokenAddr;\r\n    shareTokenAddr = _sTokenAddr;\r\n    kyberAddr = _kyberAddr;\r\n    cToken = ControlToken(_cTokenAddr);\r\n    sToken = ShareToken(_sTokenAddr);\r\n    kyber = KyberNetwork(_kyberAddr);\r\n\r\n    developerFeeAccount = _developerFeeAccount;\r\n    timeOfChangeMaking = _timeOfChangeMaking;\r\n    timeOfWaiting = _timeOfWaiting;\r\n    timeOfFinalizing = _timeOfFinalizing;\r\n    timeBetweenCycles = _timeBetweenCycles;\r\n    minStakeProportion = _minStakeProportion;\r\n    commissionRate = _commissionRate;\r\n    developerFeeProportion = _developerFeeProportion;\r\n    startTimeOfCyclePhase = 0;\r\n    cyclePhase = CyclePhase.Finalized;\r\n    cycleNumber = _cycleNumber;\r\n    functionCallReward = _functionCallReward;\r\n    allowEmergencyWithdraw = false;\r\n  }\r\n\r\n  /**\r\n   * Getters\r\n   */\r\n\r\n  /**\r\n   * Returns the length of the proposals array.\r\n   * @return length of proposals array\r\n   */\r\n  function proposalsCount() public view returns(uint256 _count) {\r\n    return proposals.length;\r\n  }\r\n\r\n  /**\r\n   * Meta functions\r\n   */\r\n\r\n  /**\r\n   * Emergency functions\r\n   */\r\n\r\n  /**\r\n   * @dev In case the fund is invested in tokens, sell all tokens.\r\n   */\r\n  function emergencyDumpAllTokens() onlyOwner whenPaused public {\r\n    for (uint256 i = 0; i < proposals.length; i = i.add(1)) {\r\n      emergencyDumpToken(i);\r\n    }\r\n  }\r\n\r\n  function emergencyDumpToken(uint256 _proposalId) onlyOwner whenPaused public {\r\n    if (__proposalIsValid(_proposalId)) { //Ensure proposal isn't a deleted one\r\n      __handleInvestment(_proposalId, false);\r\n    }\r\n  }\r\n\r\n  /**\r\n   * @dev Return staked Kairos for a proposal under emergency situations.\r\n   */\r\n  function emergencyRedeemStake(uint256 _proposalId) whenPaused public {\r\n    require(allowEmergencyWithdraw);\r\n    uint256 stake = forStakedControlOfProposalOfUser[_proposalId][msg.sender].add(againstStakedControlOfProposalOfUser[_proposalId][msg.sender]);\r\n    forStakedControlOfProposalOfUser[_proposalId][msg.sender] = 0;\r\n    againstStakedControlOfProposalOfUser[_proposalId][msg.sender] = 0;\r\n    cToken.transfer(msg.sender, stake);\r\n  }\r\n\r\n  /**\r\n   * @dev Update current fund balance\r\n   */\r\n  function emergencyRedistBalances() onlyOwner whenPaused public {\r\n    totalFundsInWeis = this.balance;\r\n  }\r\n\r\n  function setAllowEmergencyWithdraw(bool _val) onlyOwner whenPaused public {\r\n    allowEmergencyWithdraw = _val;\r\n  }\r\n\r\n  /**\r\n   * @dev Function for withdrawing all funds in times of emergency. Only callable when fund is paused.\r\n   */\r\n  function emergencyWithdraw()\r\n    public\r\n    whenPaused\r\n  {\r\n    require(allowEmergencyWithdraw);\r\n\r\n    uint256 amountInWeis = sToken.balanceOf(msg.sender).mul(totalFundsInWeis).div(sToken.totalSupply());\r\n    sToken.ownerBurn(msg.sender, sToken.balanceOf(msg.sender));\r\n    totalFundsInWeis = totalFundsInWeis.sub(amountInWeis);\r\n\r\n    //Transfer\r\n    msg.sender.transfer(amountInWeis);\r\n\r\n    //Emit event\r\n    Withdraw(cycleNumber, msg.sender, amountInWeis, now);\r\n  }\r\n\r\n  /**\r\n   * Parameter setters\r\n   */\r\n\r\n  /**\r\n   * @dev Changes the address of the KyberNetwork contract used in the contract. Only callable by owner.\r\n   * @param _newAddr new address of KyberNetwork contract\r\n   */\r\n  function changeKyberNetworkAddress(address _newAddr) public onlyOwner whenPaused {\r\n    require(_newAddr != address(0));\r\n    kyberAddr = _newAddr;\r\n    kyber = KyberNetwork(_newAddr);\r\n  }\r\n\r\n  /**\r\n   * @dev Changes the address to which the developer fees will be sent. Only callable by owner.\r\n   * @param _newAddr new developer fee address\r\n   */\r\n  function changeDeveloperFeeAccount(address _newAddr) public onlyOwner {\r\n    require(_newAddr != address(0));\r\n    developerFeeAccount = _newAddr;\r\n  }\r\n\r\n  /**\r\n   * @dev Changes the proportion of fund balance sent to the developers each cycle. May only decrease. Only callable by owner.\r\n   * @param _newProp the new proportion, fixed point decimal\r\n   */\r\n  function changeDeveloperFeeProportion(uint256 _newProp) public onlyOwner {\r\n    require(_newProp < developerFeeProportion);\r\n    developerFeeProportion = _newProp;\r\n  }\r\n\r\n  /**\r\n   * @dev Changes the proportion of fund balance given to Kairo holders each cycle. Only callable by owner.\r\n   * @param _newProp the new proportion, fixed point decimal\r\n   */\r\n  function changeCommissionRate(uint256 _newProp) public onlyOwner {\r\n    commissionRate = _newProp;\r\n  }\r\n\r\n  /**\r\n   * @dev Changes the owner of the ControlToken contract.\r\n   * @param  _newOwner the new owner address\r\n   */\r\n  function changeControlTokenOwner(address _newOwner) public onlyOwner whenPaused {\r\n    require(_newOwner != address(0));\r\n    cToken.transferOwnership(_newOwner);\r\n  }\r\n\r\n  /**\r\n   * @dev Changes the owner of the ShareToken contract.\r\n   * @param  _newOwner the new owner address\r\n   */\r\n  function changeShareTokenOwner(address _newOwner) public onlyOwner whenPaused {\r\n    require(_newOwner != address(0));\r\n    sToken.transferOwnership(_newOwner);\r\n  }\r\n\r\n  /**\r\n   * Start cycle functions\r\n   */\r\n\r\n  /**\r\n   * @dev Starts a new investment cycle.\r\n   */\r\n  function startNewCycle() public during(CyclePhase.Finalized) whenNotPaused rewardCaller {\r\n    require(now >= startTimeOfCyclePhase.add(timeBetweenCycles));\r\n\r\n    //Update values\r\n    cyclePhase = CyclePhase.ChangeMaking;\r\n    startTimeOfCyclePhase = now;\r\n    cycleNumber = cycleNumber.add(1);\r\n\r\n    if (cToken.paused()) {\r\n      cToken.unpause();\r\n    }\r\n\r\n    //Reset data\r\n    for (uint256 i = 0; i < proposals.length; i = i.add(1)) {\r\n      __resetProposalData(i);\r\n    }\r\n    delete proposals;\r\n    delete cycleTotalForStake;\r\n\r\n    //Emit event\r\n    CycleStarted(cycleNumber, now);\r\n  }\r\n\r\n  /**\r\n   * @dev Resets cycle specific data for a give proposal\r\n   * @param _proposalId ID of proposal whose data will be reset\r\n   */\r\n  function __resetProposalData(uint256 _proposalId) internal {\r\n    delete isTokenAlreadyProposed[proposals[_proposalId].tokenAddress];\r\n    delete forStakedControlOfProposal[_proposalId];\r\n    delete againstStakedControlOfProposal[_proposalId];\r\n  }\r\n\r\n  /**\r\n   * ChangeMakingTime functions\r\n   */\r\n\r\n  /**\r\n   * @dev Deposit Ether into the fund.\r\n   */\r\n  function deposit()\r\n    public\r\n    payable\r\n    during(CyclePhase.ChangeMaking)\r\n    whenNotPaused\r\n  {\r\n    //Register investment\r\n    if (cycleNumber == 1) {\r\n      sToken.mint(msg.sender, msg.value);\r\n    } else {\r\n      sToken.mint(msg.sender, msg.value.mul(sToken.totalSupply()).div(totalFundsInWeis));\r\n    }\r\n    totalFundsInWeis = totalFundsInWeis.add(msg.value);\r\n\r\n    //Give control tokens proportional to investment\r\n    //Uncomment if statement if not test version\r\n    //if (cycleNumber == 1) {\r\n      cToken.mint(msg.sender, msg.value);\r\n    //}\r\n\r\n    //Emit event\r\n    Deposit(cycleNumber, msg.sender, msg.value, now);\r\n  }\r\n\r\n  /**\r\n   * @dev Withdraws a certain amount of Ether from the user's account. Cannot be called during the first cycle.\r\n   * @param _amountInWeis amount of Ether to be withdrawn\r\n   */\r\n  function withdraw(uint256 _amountInWeis)\r\n    public\r\n    during(CyclePhase.ChangeMaking)\r\n    whenNotPaused\r\n  {\r\n    require(cycleNumber != 1);\r\n\r\n    //Subtract from account\r\n    sToken.ownerBurn(msg.sender, _amountInWeis.mul(sToken.totalSupply()).div(totalFundsInWeis));\r\n    totalFundsInWeis = totalFundsInWeis.sub(_amountInWeis);\r\n\r\n    //Transfer Ether to user\r\n    msg.sender.transfer(_amountInWeis);\r\n\r\n    //Emit event\r\n    Withdraw(cycleNumber, msg.sender, _amountInWeis, now);\r\n  }\r\n\r\n  /**\r\n   * @dev Creates a new investment proposal for an ERC20 token.\r\n   * @param _tokenAddress address of the ERC20 token contract\r\n   * @param _stakeInWeis amount of Kairos to be staked in support of the proposal\r\n   */\r\n  function createProposal(\r\n    address _tokenAddress,\r\n    uint256 _stakeInWeis\r\n  )\r\n    public\r\n    during(CyclePhase.ChangeMaking)\r\n    whenNotPaused\r\n  {\r\n    require(!isTokenAlreadyProposed[_tokenAddress]);\r\n\r\n    //Add proposal to list\r\n    proposals.push(Proposal({\r\n      tokenAddress: _tokenAddress,\r\n      buyPriceInWeis: 0,\r\n      sellPriceInWeis: 0,\r\n      numFor: 0,\r\n      numAgainst: 0,\r\n      isSold: false\r\n    }));\r\n\r\n    //Update values about proposal\r\n    isTokenAlreadyProposed[_tokenAddress] = true;\r\n\r\n    //Stake control tokens\r\n    uint256 proposalId = proposals.length - 1;\r\n    stakeProposal(proposalId, _stakeInWeis, true);\r\n\r\n    //Emit event\r\n    NewProposal(cycleNumber, proposalId, _tokenAddress, _stakeInWeis);\r\n  }\r\n\r\n  /**\r\n   * @dev Stakes for or against an investment proposal.\r\n   * @param _proposalId ID of the proposal the user wants to support\r\n   * @param _stakeInWeis amount of Kairo to be staked in support of the proposal\r\n   */\r\n  function stakeProposal(uint256 _proposalId, uint256 _stakeInWeis, bool _support)\r\n    public\r\n    during(CyclePhase.ChangeMaking)\r\n    whenNotPaused\r\n  {\r\n    require(_proposalId < proposals.length); //Valid ID\r\n    require(isTokenAlreadyProposed[proposals[_proposalId].tokenAddress]); //Non-empty proposal\r\n\r\n    /**\r\n     * Stake Kairos\r\n     */\r\n    //Ensure stake is larger than the minimum proportion of Kairo balance\r\n    require(_stakeInWeis.mul(PRECISION) >= minStakeProportion.mul(cToken.balanceOf(msg.sender)));\r\n    require(_stakeInWeis > 0); //Ensure positive stake amount\r\n\r\n    //Collect Kairos as stake\r\n    cToken.ownerCollectFrom(msg.sender, _stakeInWeis);\r\n\r\n    //Update stake data\r\n    if (_support && againstStakedControlOfProposalOfUser[_proposalId][msg.sender] == 0) {\r\n      //Support proposal, hasn't staked against it\r\n      if (forStakedControlOfProposalOfUser[_proposalId][msg.sender] == 0) {\r\n        proposals[_proposalId].numFor = proposals[_proposalId].numFor.add(1);\r\n      }\r\n      forStakedControlOfProposal[_proposalId] = forStakedControlOfProposal[_proposalId].add(_stakeInWeis);\r\n      forStakedControlOfProposalOfUser[_proposalId][msg.sender] = forStakedControlOfProposalOfUser[_proposalId][msg.sender].add(_stakeInWeis);\r\n      cycleTotalForStake = cycleTotalForStake.add(_stakeInWeis);\r\n    } else if (!_support && forStakedControlOfProposalOfUser[_proposalId][msg.sender] == 0) {\r\n      //Against proposal, hasn't staked for it\r\n      if (againstStakedControlOfProposalOfUser[_proposalId][msg.sender] == 0) {\r\n        proposals[_proposalId].numAgainst = proposals[_proposalId].numAgainst.add(1);\r\n      }\r\n      againstStakedControlOfProposal[_proposalId] = againstStakedControlOfProposal[_proposalId].add(_stakeInWeis);\r\n      againstStakedControlOfProposalOfUser[_proposalId][msg.sender] = againstStakedControlOfProposalOfUser[_proposalId][msg.sender].add(_stakeInWeis);\r\n    } else {\r\n      revert();\r\n    }\r\n\r\n    //Emit event\r\n    StakedProposal(cycleNumber, _proposalId, _stakeInWeis, _support);\r\n  }\r\n\r\n  /**\r\n   * @dev Cancels staking in a proposal.\r\n   * @param _proposalId ID of the proposal\r\n   */\r\n  function cancelProposalStake(uint256 _proposalId)\r\n    public\r\n    during(CyclePhase.ChangeMaking)\r\n    whenNotPaused\r\n  {\r\n    require(_proposalId < proposals.length); //Valid ID\r\n    require(__proposalIsValid(_proposalId)); //Non-empty proposal\r\n\r\n    //Remove stake data\r\n    uint256 forStake = forStakedControlOfProposalOfUser[_proposalId][msg.sender];\r\n    uint256 againstStake = againstStakedControlOfProposalOfUser[_proposalId][msg.sender];\r\n    uint256 stake = forStake.add(againstStake);\r\n    if (forStake > 0) {\r\n      forStakedControlOfProposal[_proposalId] = forStakedControlOfProposal[_proposalId].sub(stake);\r\n      cycleTotalForStake = cycleTotalForStake.sub(stake);\r\n      proposals[_proposalId].numFor = proposals[_proposalId].numFor.sub(1);\r\n    } else if (againstStake > 0) {\r\n      againstStakedControlOfProposal[_proposalId] = againstStakedControlOfProposal[_proposalId].sub(stake);\r\n      proposals[_proposalId].numAgainst = proposals[_proposalId].numAgainst.sub(1);\r\n    } else {\r\n      return;\r\n    }\r\n\r\n    delete forStakedControlOfProposalOfUser[_proposalId][msg.sender];\r\n    delete againstStakedControlOfProposalOfUser[_proposalId][msg.sender];\r\n\r\n    //Return stake\r\n    cToken.transfer(msg.sender, stake);\r\n\r\n    //Delete proposal if necessary\r\n    if (proposals[_proposalId].numFor == 0) {\r\n      //TODO return stakes\r\n      __resetProposalData(_proposalId);\r\n      delete proposals[_proposalId];\r\n    }\r\n  }\r\n\r\n  /**\r\n   * @dev Ends the ChangeMaking phase.\r\n   */\r\n  function endChangeMakingTime() public during(CyclePhase.ChangeMaking) whenNotPaused rewardCaller {\r\n    require(now >= startTimeOfCyclePhase.add(timeOfChangeMaking));\r\n\r\n    startTimeOfCyclePhase = now;\r\n    cyclePhase = CyclePhase.Waiting;\r\n\r\n    ChangeMakingTimeEnded(cycleNumber, now);\r\n  }\r\n\r\n  /**\r\n   * Waiting phase functions\r\n   */\r\n\r\n  /**\r\n   * @dev Called by user to buy the assets of a proposal\r\n   * @param _proposalId the ID of the proposal\r\n   */\r\n  function executeProposal(uint256 _proposalId)\r\n    public\r\n    during(CyclePhase.Waiting)\r\n    whenNotPaused\r\n    rewardCaller\r\n  {\r\n    require(__proposalIsValid(_proposalId));\r\n    require(proposals[_proposalId].buyPriceInWeis == 0);\r\n    __handleInvestment(_proposalId, true);\r\n  }\r\n\r\n  function endWaitingPhase()\r\n    public\r\n    during(CyclePhase.Waiting)\r\n    whenNotPaused\r\n    rewardCaller\r\n  {\r\n    require(now >= startTimeOfCyclePhase.add(timeOfWaiting));\r\n\r\n    startTimeOfCyclePhase = now;\r\n    cyclePhase = CyclePhase.Finalizing;\r\n\r\n    WaitingPhaseEnded(cycleNumber, now);\r\n  }\r\n\r\n  /**\r\n   * Finalizing phase functions\r\n   */\r\n\r\n  /**\r\n   * @dev Called by user to sell the assets a proposal invested in\r\n   * @param _proposalId the ID of the proposal\r\n   */\r\n  function sellProposalAsset(uint256 _proposalId)\r\n    public\r\n    during(CyclePhase.Finalizing)\r\n    whenNotPaused\r\n    rewardCaller\r\n  {\r\n    require(__proposalIsValid(_proposalId));\r\n    require(proposals[_proposalId].buyPriceInWeis > 0);\r\n    __handleInvestment(_proposalId, false);\r\n    proposals[_proposalId].isSold = true;\r\n  }\r\n\r\n  /**\r\n   * @dev Redeems the Kairo stake and reward for a particular proposal\r\n   * @param _proposalId the ID of the proposal\r\n   */\r\n  function redeemKairos(uint256 _proposalId)\r\n    public\r\n    during(CyclePhase.Finalizing)\r\n    whenNotPaused\r\n  {\r\n    Proposal storage prop = proposals[_proposalId];\r\n    require(prop.isSold);\r\n\r\n    uint256 forMultiplier = prop.sellPriceInWeis.mul(PRECISION).div(prop.buyPriceInWeis);\r\n    uint256 againstMultiplier = 0;\r\n    if (prop.sellPriceInWeis < prop.buyPriceInWeis.mul(2)) {\r\n      againstMultiplier = prop.buyPriceInWeis.mul(2).sub(prop.sellPriceInWeis).mul(PRECISION).div(prop.buyPriceInWeis);\r\n    }\r\n\r\n    uint256 stake = 0;\r\n    if (forStakedControlOfProposalOfUser[_proposalId][msg.sender] > 0) {\r\n      //User supports proposal\r\n      stake = forStakedControlOfProposalOfUser[_proposalId][msg.sender];\r\n      //Mint instead of transfer. Ensures that there are always enough tokens.\r\n      //Extra will be burnt right after so no problem there.\r\n      cToken.mint(msg.sender, stake.mul(forMultiplier).div(PRECISION));\r\n      delete forStakedControlOfProposalOfUser[_proposalId][msg.sender];\r\n    } else if (againstStakedControlOfProposalOfUser[_proposalId][msg.sender] > 0) {\r\n      //User is against proposal\r\n      stake = againstStakedControlOfProposalOfUser[_proposalId][msg.sender];\r\n      //Mint instead of transfer. Ensures that there are always enough tokens.\r\n      //Extra will be burnt right after so no problem there.\r\n      cToken.mint(msg.sender, stake.mul(againstMultiplier).div(PRECISION));\r\n      delete againstStakedControlOfProposalOfUser[_proposalId][msg.sender];\r\n    }\r\n  }\r\n\r\n  /**\r\n   * @dev Finalize the cycle by redistributing user balances and settling investment proposals.\r\n   */\r\n  function finalizeCycle() public during(CyclePhase.Finalizing) whenNotPaused rewardCaller {\r\n    require(now >= startTimeOfCyclePhase.add(timeOfFinalizing));\r\n\r\n    //Update cycle values\r\n    startTimeOfCyclePhase = now;\r\n    cyclePhase = CyclePhase.Finalized;\r\n\r\n    //Burn any Kairo left in BetokenFund's account\r\n    cToken.burnOwnerBalance();\r\n\r\n    cToken.pause();\r\n\r\n    //Distribute funds\r\n    __distributeFundsAfterCycleEnd();\r\n\r\n    //Emit event\r\n    CycleFinalized(cycleNumber, now);\r\n  }\r\n\r\n  /**\r\n   * Finalized phase functions\r\n   */\r\n\r\n  function redeemCommission()\r\n    public\r\n    during(CyclePhase.Finalized)\r\n    whenNotPaused\r\n  {\r\n    require(lastCommissionRedemption[msg.sender] < cycleNumber);\r\n    lastCommissionRedemption[msg.sender] = cycleNumber;\r\n    msg.sender.transfer(totalCommission.mul(cToken.balanceOf(msg.sender)).div(cToken.totalSupply()));\r\n  }\r\n\r\n  /**\r\n   * Internal use functions\r\n   */\r\n\r\n  function __proposalIsValid(uint256 _proposalId) internal view returns (bool) {\r\n    return proposals[_proposalId].numFor > 0;\r\n  }\r\n\r\n  /**\r\n   * @dev Distributes the funds accourding to previously held proportions. Pays commission to Kairo holders,\r\n   * and developer fees to developers.\r\n   */\r\n  function __distributeFundsAfterCycleEnd() internal {\r\n    uint256 profit = 0;\r\n    if (this.balance > totalFundsInWeis) {\r\n      profit = this.balance - totalFundsInWeis;\r\n    }\r\n    totalCommission = commissionRate.mul(profit).div(PRECISION);\r\n    uint256 devFee = developerFeeProportion.mul(this.balance).div(PRECISION);\r\n    uint256 newTotalFunds = this.balance.sub(totalCommission).sub(devFee);\r\n\r\n    //Update values\r\n    ROI(cycleNumber, totalFundsInWeis, newTotalFunds);\r\n    totalFundsInWeis = newTotalFunds;\r\n\r\n    //Transfer fees\r\n    developerFeeAccount.transfer(devFee);\r\n\r\n    //Emit event\r\n    CommissionPaid(cycleNumber, totalCommission);\r\n  }\r\n\r\n  function __handleInvestment(uint256 _proposalId, bool _buy) internal {\r\n    uint256 srcAmount;\r\n    uint256 actualDestAmount;\r\n    uint256 actualRate;\r\n    address destAddr = proposals[_proposalId].tokenAddress;\r\n    DetailedERC20 destToken = DetailedERC20(destAddr);\r\n\r\n    if (_buy) {\r\n      //Make buy orders\r\n\r\n      //Calculate investment amount\r\n      srcAmount = totalFundsInWeis.mul(forStakedControlOfProposal[_proposalId]).div(cycleTotalForStake);\r\n\r\n      uint256 beforeBalance = this.balance;\r\n\r\n      //Do trade\r\n      actualDestAmount = kyber.trade.value(srcAmount)(\r\n        ETH_TOKEN_ADDRESS,\r\n        srcAmount,\r\n        destToken,\r\n        address(this),\r\n        MAX_QTY,\r\n        1,\r\n        address(this)\r\n      );\r\n\r\n      //Record buy price\r\n      require(actualDestAmount > 0);\r\n      actualRate = beforeBalance.sub(this.balance).mul(PRECISION).div(actualDestAmount);\r\n      proposals[_proposalId].buyPriceInWeis = actualRate;\r\n    } else {\r\n      //Make sell orders\r\n\r\n      //Get sell amount\r\n      srcAmount = destToken.balanceOf(address(this));\r\n\r\n      //Do trade\r\n      destToken.approve(kyberAddr, srcAmount);\r\n      actualDestAmount = kyber.trade(\r\n        destToken,\r\n        srcAmount,\r\n        ETH_TOKEN_ADDRESS,\r\n        address(this),\r\n        MAX_QTY,\r\n        1,\r\n        address(this)\r\n      );\r\n      destToken.approve(kyberAddr, 0);\r\n\r\n      //Record sell price\r\n      require(srcAmount > destToken.balanceOf(address(this)));\r\n      actualRate = actualDestAmount.mul(PRECISION).div(srcAmount.sub(destToken.balanceOf(address(this))));\r\n      proposals[_proposalId].sellPriceInWeis = actualRate;\r\n    }\r\n  }\r\n\r\n  function() public payable {\r\n    if (msg.sender != kyberAddr) {\r\n      revert();\r\n    }\r\n  }\r\n}",
  "sourcePath": "D:\\msi-cn\\Documents\\GitHub\\betoken\\eth\\contracts\\BetokenFund.sol",
  "compiler": {
    "name": "solc",
    "version": "0.4.19+commit.c4cbbb05.Emscripten.clang"
  },
  "schemaVersion": "2.0.0",
  "updatedAt": "2018-03-11T08:36:55.050Z"
}