{
  "contractName": "BetokenFund",
  "abi": [
    {
      "constant": true,
      "inputs": [
        {
          "name": "",
          "type": "uint256"
        }
      ],
      "name": "proposals",
      "outputs": [
        {
          "name": "tokenAddress",
          "type": "address"
        },
        {
          "name": "buyPriceInWeis",
          "type": "uint256"
        },
        {
          "name": "sellPriceInWeis",
          "type": "uint256"
        },
        {
          "name": "numFor",
          "type": "uint256"
        },
        {
          "name": "numAgainst",
          "type": "uint256"
        },
        {
          "name": "isSold",
          "type": "bool"
        }
      ],
      "payable": false,
      "stateMutability": "view",
      "type": "function"
    },
    {
      "constant": true,
      "inputs": [],
      "name": "creator",
      "outputs": [
        {
          "name": "",
          "type": "address"
        }
      ],
      "payable": false,
      "stateMutability": "view",
      "type": "function"
    },
    {
      "constant": true,
      "inputs": [
        {
          "name": "",
          "type": "uint256"
        },
        {
          "name": "",
          "type": "address"
        }
      ],
      "name": "forStakedControlOfProposalOfUser",
      "outputs": [
        {
          "name": "",
          "type": "uint256"
        }
      ],
      "payable": false,
      "stateMutability": "view",
      "type": "function"
    },
    {
      "constant": true,
      "inputs": [
        {
          "name": "",
          "type": "address"
        }
      ],
      "name": "userStakedProposalCount",
      "outputs": [
        {
          "name": "",
          "type": "uint256"
        }
      ],
      "payable": false,
      "stateMutability": "view",
      "type": "function"
    },
    {
      "constant": true,
      "inputs": [],
      "name": "initialized",
      "outputs": [
        {
          "name": "",
          "type": "bool"
        }
      ],
      "payable": false,
      "stateMutability": "view",
      "type": "function"
    },
    {
      "constant": true,
      "inputs": [],
      "name": "allowEmergencyWithdraw",
      "outputs": [
        {
          "name": "",
          "type": "bool"
        }
      ],
      "payable": false,
      "stateMutability": "view",
      "type": "function"
    },
    {
      "constant": true,
      "inputs": [],
      "name": "developerFeeAccount",
      "outputs": [
        {
          "name": "",
          "type": "address"
        }
      ],
      "payable": false,
      "stateMutability": "view",
      "type": "function"
    },
    {
      "constant": true,
      "inputs": [],
      "name": "minStakeProportion",
      "outputs": [
        {
          "name": "",
          "type": "uint256"
        }
      ],
      "payable": false,
      "stateMutability": "view",
      "type": "function"
    },
    {
      "constant": true,
      "inputs": [],
      "name": "startTimeOfCyclePhase",
      "outputs": [
        {
          "name": "",
          "type": "uint256"
        }
      ],
      "payable": false,
      "stateMutability": "view",
      "type": "function"
    },
    {
      "constant": true,
      "inputs": [],
      "name": "timeOfChangeMaking",
      "outputs": [
        {
          "name": "",
          "type": "uint256"
        }
      ],
      "payable": false,
      "stateMutability": "view",
      "type": "function"
    },
    {
      "constant": true,
      "inputs": [
        {
          "name": "",
          "type": "uint256"
        },
        {
          "name": "",
          "type": "address"
        }
      ],
      "name": "againstStakedControlOfProposalOfUser",
      "outputs": [
        {
          "name": "",
          "type": "uint256"
        }
      ],
      "payable": false,
      "stateMutability": "view",
      "type": "function"
    },
    {
      "constant": true,
      "inputs": [],
      "name": "maxProposals",
      "outputs": [
        {
          "name": "",
          "type": "uint256"
        }
      ],
      "payable": false,
      "stateMutability": "view",
      "type": "function"
    },
    {
      "constant": true,
      "inputs": [],
      "name": "cycleNumber",
      "outputs": [
        {
          "name": "",
          "type": "uint256"
        }
      ],
      "payable": false,
      "stateMutability": "view",
      "type": "function"
    },
    {
      "constant": true,
      "inputs": [
        {
          "name": "",
          "type": "uint256"
        }
      ],
      "name": "participants",
      "outputs": [
        {
          "name": "",
          "type": "address"
        }
      ],
      "payable": false,
      "stateMutability": "view",
      "type": "function"
    },
    {
      "constant": false,
      "inputs": [],
      "name": "unpause",
      "outputs": [],
      "payable": false,
      "stateMutability": "nonpayable",
      "type": "function"
    },
    {
      "constant": true,
      "inputs": [],
      "name": "numProposals",
      "outputs": [
        {
          "name": "",
          "type": "uint256"
        }
      ],
      "payable": false,
      "stateMutability": "view",
      "type": "function"
    },
    {
      "constant": true,
      "inputs": [
        {
          "name": "",
          "type": "address"
        }
      ],
      "name": "isTokenAlreadyProposed",
      "outputs": [
        {
          "name": "",
          "type": "bool"
        }
      ],
      "payable": false,
      "stateMutability": "view",
      "type": "function"
    },
    {
      "constant": true,
      "inputs": [],
      "name": "timeOfWaiting",
      "outputs": [
        {
          "name": "",
          "type": "uint256"
        }
      ],
      "payable": false,
      "stateMutability": "view",
      "type": "function"
    },
    {
      "constant": true,
      "inputs": [],
      "name": "paused",
      "outputs": [
        {
          "name": "",
          "type": "bool"
        }
      ],
      "payable": false,
      "stateMutability": "view",
      "type": "function"
    },
    {
      "constant": true,
      "inputs": [],
      "name": "commissionRate",
      "outputs": [
        {
          "name": "",
          "type": "uint256"
        }
      ],
      "payable": false,
      "stateMutability": "view",
      "type": "function"
    },
    {
      "constant": true,
      "inputs": [],
      "name": "functionCallReward",
      "outputs": [
        {
          "name": "",
          "type": "uint256"
        }
      ],
      "payable": false,
      "stateMutability": "view",
      "type": "function"
    },
    {
      "constant": true,
      "inputs": [
        {
          "name": "",
          "type": "address"
        }
      ],
      "name": "balanceOf",
      "outputs": [
        {
          "name": "",
          "type": "uint256"
        }
      ],
      "payable": false,
      "stateMutability": "view",
      "type": "function"
    },
    {
      "constant": true,
      "inputs": [],
      "name": "totalFundsInWeis",
      "outputs": [
        {
          "name": "",
          "type": "uint256"
        }
      ],
      "payable": false,
      "stateMutability": "view",
      "type": "function"
    },
    {
      "constant": true,
      "inputs": [],
      "name": "maxProposalsPerMember",
      "outputs": [
        {
          "name": "",
          "type": "uint256"
        }
      ],
      "payable": false,
      "stateMutability": "view",
      "type": "function"
    },
    {
      "constant": false,
      "inputs": [],
      "name": "pause",
      "outputs": [],
      "payable": false,
      "stateMutability": "nonpayable",
      "type": "function"
    },
    {
      "constant": true,
      "inputs": [],
      "name": "owner",
      "outputs": [
        {
          "name": "",
          "type": "address"
        }
      ],
      "payable": false,
      "stateMutability": "view",
      "type": "function"
    },
    {
      "constant": true,
      "inputs": [
        {
          "name": "",
          "type": "address"
        }
      ],
      "name": "isParticipant",
      "outputs": [
        {
          "name": "",
          "type": "bool"
        }
      ],
      "payable": false,
      "stateMutability": "view",
      "type": "function"
    },
    {
      "constant": true,
      "inputs": [
        {
          "name": "",
          "type": "uint256"
        }
      ],
      "name": "againstStakedControlOfProposal",
      "outputs": [
        {
          "name": "",
          "type": "uint256"
        }
      ],
      "payable": false,
      "stateMutability": "view",
      "type": "function"
    },
    {
      "constant": true,
      "inputs": [],
      "name": "kyberAddr",
      "outputs": [
        {
          "name": "",
          "type": "address"
        }
      ],
      "payable": false,
      "stateMutability": "view",
      "type": "function"
    },
    {
      "constant": true,
      "inputs": [],
      "name": "PRECISION",
      "outputs": [
        {
          "name": "",
          "type": "uint256"
        }
      ],
      "payable": false,
      "stateMutability": "view",
      "type": "function"
    },
    {
      "constant": true,
      "inputs": [
        {
          "name": "",
          "type": "uint256"
        }
      ],
      "name": "forStakedControlOfProposal",
      "outputs": [
        {
          "name": "",
          "type": "uint256"
        }
      ],
      "payable": false,
      "stateMutability": "view",
      "type": "function"
    },
    {
      "constant": true,
      "inputs": [],
      "name": "developerFeeProportion",
      "outputs": [
        {
          "name": "",
          "type": "uint256"
        }
      ],
      "payable": false,
      "stateMutability": "view",
      "type": "function"
    },
    {
      "constant": true,
      "inputs": [],
      "name": "timeOfProposalMaking",
      "outputs": [
        {
          "name": "",
          "type": "uint256"
        }
      ],
      "payable": false,
      "stateMutability": "view",
      "type": "function"
    },
    {
      "constant": true,
      "inputs": [],
      "name": "controlTokenAddr",
      "outputs": [
        {
          "name": "",
          "type": "address"
        }
      ],
      "payable": false,
      "stateMutability": "view",
      "type": "function"
    },
    {
      "constant": true,
      "inputs": [
        {
          "name": "",
          "type": "address"
        }
      ],
      "name": "createdProposalCount",
      "outputs": [
        {
          "name": "",
          "type": "uint256"
        }
      ],
      "payable": false,
      "stateMutability": "view",
      "type": "function"
    },
    {
      "constant": false,
      "inputs": [
        {
          "name": "newOwner",
          "type": "address"
        }
      ],
      "name": "transferOwnership",
      "outputs": [],
      "payable": false,
      "stateMutability": "nonpayable",
      "type": "function"
    },
    {
      "constant": true,
      "inputs": [],
      "name": "cyclePhase",
      "outputs": [
        {
          "name": "",
          "type": "uint8"
        }
      ],
      "payable": false,
      "stateMutability": "view",
      "type": "function"
    },
    {
      "constant": true,
      "inputs": [],
      "name": "cycleTotalForStake",
      "outputs": [
        {
          "name": "",
          "type": "uint256"
        }
      ],
      "payable": false,
      "stateMutability": "view",
      "type": "function"
    },
    {
      "inputs": [
        {
          "name": "_kyberAddr",
          "type": "address"
        },
        {
          "name": "_developerFeeAccount",
          "type": "address"
        },
        {
          "name": "_timeOfChangeMaking",
          "type": "uint256"
        },
        {
          "name": "_timeOfProposalMaking",
          "type": "uint256"
        },
        {
          "name": "_timeOfWaiting",
          "type": "uint256"
        },
        {
          "name": "_minStakeProportion",
          "type": "uint256"
        },
        {
          "name": "_maxProposals",
          "type": "uint256"
        },
        {
          "name": "_commissionRate",
          "type": "uint256"
        },
        {
          "name": "_developerFeeProportion",
          "type": "uint256"
        },
        {
          "name": "_maxProposalsPerMember",
          "type": "uint256"
        },
        {
          "name": "_cycleNumber",
          "type": "uint256"
        },
        {
          "name": "_functionCallReward",
          "type": "uint256"
        }
      ],
      "payable": false,
      "stateMutability": "nonpayable",
      "type": "constructor"
    },
    {
      "payable": true,
      "stateMutability": "payable",
      "type": "fallback"
    },
    {
      "anonymous": false,
      "inputs": [
        {
          "indexed": false,
          "name": "_cycleNumber",
          "type": "uint256"
        },
        {
          "indexed": false,
          "name": "_timestamp",
          "type": "uint256"
        }
      ],
      "name": "CycleStarted",
      "type": "event"
    },
    {
      "anonymous": false,
      "inputs": [
        {
          "indexed": false,
          "name": "_cycleNumber",
          "type": "uint256"
        },
        {
          "indexed": false,
          "name": "_sender",
          "type": "address"
        },
        {
          "indexed": false,
          "name": "_amountInWeis",
          "type": "uint256"
        },
        {
          "indexed": false,
          "name": "_timestamp",
          "type": "uint256"
        }
      ],
      "name": "Deposit",
      "type": "event"
    },
    {
      "anonymous": false,
      "inputs": [
        {
          "indexed": false,
          "name": "_cycleNumber",
          "type": "uint256"
        },
        {
          "indexed": false,
          "name": "_sender",
          "type": "address"
        },
        {
          "indexed": false,
          "name": "_amountInWeis",
          "type": "uint256"
        },
        {
          "indexed": false,
          "name": "_timestamp",
          "type": "uint256"
        }
      ],
      "name": "Withdraw",
      "type": "event"
    },
    {
      "anonymous": false,
      "inputs": [
        {
          "indexed": false,
          "name": "_cycleNumber",
          "type": "uint256"
        },
        {
          "indexed": false,
          "name": "_timestamp",
          "type": "uint256"
        }
      ],
      "name": "ChangeMakingTimeEnded",
      "type": "event"
    },
    {
      "anonymous": false,
      "inputs": [
        {
          "indexed": false,
          "name": "_cycleNumber",
          "type": "uint256"
        },
        {
          "indexed": false,
          "name": "_id",
          "type": "uint256"
        },
        {
          "indexed": false,
          "name": "_tokenAddress",
          "type": "address"
        },
        {
          "indexed": false,
          "name": "_stakeInWeis",
          "type": "uint256"
        }
      ],
      "name": "NewProposal",
      "type": "event"
    },
    {
      "anonymous": false,
      "inputs": [
        {
          "indexed": false,
          "name": "_cycleNumber",
          "type": "uint256"
        },
        {
          "indexed": false,
          "name": "_id",
          "type": "uint256"
        },
        {
          "indexed": false,
          "name": "_stakeInWeis",
          "type": "uint256"
        },
        {
          "indexed": false,
          "name": "_support",
          "type": "bool"
        }
      ],
      "name": "StakedProposal",
      "type": "event"
    },
    {
      "anonymous": false,
      "inputs": [
        {
          "indexed": false,
          "name": "_cycleNumber",
          "type": "uint256"
        },
        {
          "indexed": false,
          "name": "_timestamp",
          "type": "uint256"
        }
      ],
      "name": "ProposalMakingTimeEnded",
      "type": "event"
    },
    {
      "anonymous": false,
      "inputs": [
        {
          "indexed": false,
          "name": "_cycleNumber",
          "type": "uint256"
        },
        {
          "indexed": false,
          "name": "_timestamp",
          "type": "uint256"
        }
      ],
      "name": "WaitingPhaseEnded",
      "type": "event"
    },
    {
      "anonymous": false,
      "inputs": [
        {
          "indexed": false,
          "name": "_cycleNumber",
          "type": "uint256"
        },
        {
          "indexed": false,
          "name": "_proposalId",
          "type": "uint256"
        }
      ],
      "name": "AssetSold",
      "type": "event"
    },
    {
      "anonymous": false,
      "inputs": [
        {
          "indexed": false,
          "name": "_cycleNumber",
          "type": "uint256"
        },
        {
          "indexed": false,
          "name": "_timestamp",
          "type": "uint256"
        }
      ],
      "name": "SellingPhaseEnded",
      "type": "event"
    },
    {
      "anonymous": false,
      "inputs": [
        {
          "indexed": false,
          "name": "_cycleNumber",
          "type": "uint256"
        },
        {
          "indexed": false,
          "name": "_beforeTotalFunds",
          "type": "uint256"
        },
        {
          "indexed": false,
          "name": "_afterTotalFunds",
          "type": "uint256"
        }
      ],
      "name": "ROI",
      "type": "event"
    },
    {
      "anonymous": false,
      "inputs": [
        {
          "indexed": false,
          "name": "_cycleNumber",
          "type": "uint256"
        },
        {
          "indexed": false,
          "name": "_totalCommissionInWeis",
          "type": "uint256"
        }
      ],
      "name": "CommissionPaid",
      "type": "event"
    },
    {
      "anonymous": false,
      "inputs": [
        {
          "indexed": false,
          "name": "_cycleNumber",
          "type": "uint256"
        },
        {
          "indexed": false,
          "name": "_timestamp",
          "type": "uint256"
        }
      ],
      "name": "CycleFinalized",
      "type": "event"
    },
    {
      "anonymous": false,
      "inputs": [],
      "name": "Pause",
      "type": "event"
    },
    {
      "anonymous": false,
      "inputs": [],
      "name": "Unpause",
      "type": "event"
    },
    {
      "anonymous": false,
      "inputs": [
        {
          "indexed": true,
          "name": "previousOwner",
          "type": "address"
        },
        {
          "indexed": true,
          "name": "newOwner",
          "type": "address"
        }
      ],
      "name": "OwnershipTransferred",
      "type": "event"
    },
    {
      "constant": false,
      "inputs": [
        {
          "name": "_participants",
          "type": "address[]"
        }
      ],
      "name": "initializeParticipants",
      "outputs": [],
      "payable": false,
      "stateMutability": "nonpayable",
      "type": "function"
    },
    {
      "constant": false,
      "inputs": [
        {
          "name": "_cTokenAddr",
          "type": "address"
        }
      ],
      "name": "initializeSubcontracts",
      "outputs": [],
      "payable": false,
      "stateMutability": "nonpayable",
      "type": "function"
    },
    {
      "constant": true,
      "inputs": [],
      "name": "participantsCount",
      "outputs": [
        {
          "name": "_count",
          "type": "uint256"
        }
      ],
      "payable": false,
      "stateMutability": "view",
      "type": "function"
    },
    {
      "constant": true,
      "inputs": [],
      "name": "proposalsCount",
      "outputs": [
        {
          "name": "_count",
          "type": "uint256"
        }
      ],
      "payable": false,
      "stateMutability": "view",
      "type": "function"
    },
    {
      "constant": false,
      "inputs": [],
      "name": "emergencyDumpAllTokens",
      "outputs": [],
      "payable": false,
      "stateMutability": "nonpayable",
      "type": "function"
    },
    {
      "constant": false,
      "inputs": [
        {
          "name": "_proposalId",
          "type": "uint256"
        }
      ],
      "name": "emergencyDumpToken",
      "outputs": [],
      "payable": false,
      "stateMutability": "nonpayable",
      "type": "function"
    },
    {
      "constant": false,
      "inputs": [],
      "name": "emergencyReturnAllStakes",
      "outputs": [],
      "payable": false,
      "stateMutability": "nonpayable",
      "type": "function"
    },
    {
      "constant": false,
      "inputs": [
        {
          "name": "_proposalId",
          "type": "uint256"
        }
      ],
      "name": "emergencyReturnStakes",
      "outputs": [],
      "payable": false,
      "stateMutability": "nonpayable",
      "type": "function"
    },
    {
      "constant": false,
      "inputs": [],
      "name": "emergencyRedistBalances",
      "outputs": [],
      "payable": false,
      "stateMutability": "nonpayable",
      "type": "function"
    },
    {
      "constant": false,
      "inputs": [
        {
          "name": "_val",
          "type": "bool"
        }
      ],
      "name": "setAllowEmergencyWithdraw",
      "outputs": [],
      "payable": false,
      "stateMutability": "nonpayable",
      "type": "function"
    },
    {
      "constant": false,
      "inputs": [],
      "name": "emergencyWithdraw",
      "outputs": [],
      "payable": false,
      "stateMutability": "nonpayable",
      "type": "function"
    },
    {
      "constant": false,
      "inputs": [
        {
          "name": "_newAddr",
          "type": "address"
        }
      ],
      "name": "changeKyberNetworkAddress",
      "outputs": [],
      "payable": false,
      "stateMutability": "nonpayable",
      "type": "function"
    },
    {
      "constant": false,
      "inputs": [
        {
          "name": "_newAddr",
          "type": "address"
        }
      ],
      "name": "changeDeveloperFeeAccount",
      "outputs": [],
      "payable": false,
      "stateMutability": "nonpayable",
      "type": "function"
    },
    {
      "constant": false,
      "inputs": [
        {
          "name": "_newProp",
          "type": "uint256"
        }
      ],
      "name": "changeDeveloperFeeProportion",
      "outputs": [],
      "payable": false,
      "stateMutability": "nonpayable",
      "type": "function"
    },
    {
      "constant": false,
      "inputs": [
        {
          "name": "_newProp",
          "type": "uint256"
        }
      ],
      "name": "changeCommissionRate",
      "outputs": [],
      "payable": false,
      "stateMutability": "nonpayable",
      "type": "function"
    },
    {
      "constant": false,
      "inputs": [
        {
          "name": "_newOwner",
          "type": "address"
        }
      ],
      "name": "changeControlTokenOwner",
      "outputs": [],
      "payable": false,
      "stateMutability": "nonpayable",
      "type": "function"
    },
    {
      "constant": false,
      "inputs": [],
      "name": "startNewCycle",
      "outputs": [],
      "payable": false,
      "stateMutability": "nonpayable",
      "type": "function"
    },
    {
      "constant": false,
      "inputs": [],
      "name": "deposit",
      "outputs": [],
      "payable": true,
      "stateMutability": "payable",
      "type": "function"
    },
    {
      "constant": false,
      "inputs": [
        {
          "name": "_amountInWeis",
          "type": "uint256"
        }
      ],
      "name": "withdraw",
      "outputs": [],
      "payable": false,
      "stateMutability": "nonpayable",
      "type": "function"
    },
    {
      "constant": false,
      "inputs": [],
      "name": "endChangeMakingTime",
      "outputs": [],
      "payable": false,
      "stateMutability": "nonpayable",
      "type": "function"
    },
    {
      "constant": false,
      "inputs": [
        {
          "name": "_tokenAddress",
          "type": "address"
        },
        {
          "name": "_stakeInWeis",
          "type": "uint256"
        }
      ],
      "name": "createProposal",
      "outputs": [],
      "payable": false,
      "stateMutability": "nonpayable",
      "type": "function"
    },
    {
      "constant": false,
      "inputs": [
        {
          "name": "_proposalId",
          "type": "uint256"
        },
        {
          "name": "_stakeInWeis",
          "type": "uint256"
        },
        {
          "name": "_support",
          "type": "bool"
        }
      ],
      "name": "stakeProposal",
      "outputs": [],
      "payable": false,
      "stateMutability": "nonpayable",
      "type": "function"
    },
    {
      "constant": false,
      "inputs": [
        {
          "name": "_proposalId",
          "type": "uint256"
        }
      ],
      "name": "cancelProposalStake",
      "outputs": [],
      "payable": false,
      "stateMutability": "nonpayable",
      "type": "function"
    },
    {
      "constant": false,
      "inputs": [],
      "name": "endProposalMakingTime",
      "outputs": [],
      "payable": false,
      "stateMutability": "nonpayable",
      "type": "function"
    },
    {
      "constant": false,
      "inputs": [
        {
          "name": "_proposalId",
          "type": "uint256"
        }
      ],
      "name": "executeProposal",
      "outputs": [],
      "payable": false,
      "stateMutability": "nonpayable",
      "type": "function"
    },
    {
      "constant": false,
      "inputs": [],
      "name": "endWaitingPhase",
      "outputs": [],
      "payable": false,
      "stateMutability": "nonpayable",
      "type": "function"
    },
    {
      "constant": false,
      "inputs": [
        {
          "name": "_proposalId",
          "type": "uint256"
        }
      ],
      "name": "sellProposalAsset",
      "outputs": [],
      "payable": false,
      "stateMutability": "nonpayable",
      "type": "function"
    },
    {
      "constant": false,
      "inputs": [],
      "name": "finalizeCycle",
      "outputs": [],
      "payable": false,
      "stateMutability": "nonpayable",
      "type": "function"
    },
    {
      "constant": true,
      "inputs": [],
      "name": "proposalsAreSold",
      "outputs": [
        {
          "name": "",
          "type": "bool"
        }
      ],
      "payable": false,
      "stateMutability": "view",
      "type": "function"
    },
    {
      "constant": false,
      "inputs": [
        {
          "name": "_receipient",
          "type": "address"
        }
      ],
      "name": "__addControlTokenReceipientAsParticipant",
      "outputs": [],
      "payable": false,
      "stateMutability": "nonpayable",
      "type": "function"
    }
  ],
  "bytecode": "0x60606040526000805460a060020a60ff021916905534156200002057600080fd5b604051610180806200404b83398101604052808051919060200180519190602001805191906020018051919060200180519190602001805191906020018051919060200180519190602001805191906020018051919060200180519190602001805160008054600160a060020a03191633600160a060020a0316179055915050670de0b6b3a76400008710620000b557600080fd5b670de0b6b3a7640000620000d8868664010000000062002e9b6200019282021704565b10620000e357600080fd5b60028054600160a060020a0319908116600160a060020a039e8f169081179092556004805482169d8f169d909d178d5560099b909b55600a99909955600b97909755600c95909555600d93909355600e91909155600f55601055600060088190556020805460ff191690961790955560038054851633909716969096179095556011939093556005939093556013919091556021805490911690911790556014805461ff0019169055620001a9565b600082820183811015620001a257fe5b9392505050565b613e9280620001b96000396000f3006060604052600436106103085763ffffffff60e060020a600035041663013cf08b811461032557806302a7f5d41461037e57806302d05d3f1461039457806309b0d33a146103c35780630a9f46ad146103d65780630d61b519146103fb5780630f6f17d2146104115780630f8f9f5f146104335780631181522314610452578063158ef93e146104715780631a26af7a146104985780631ab371fc146104ab5780631dcf8ceb146104be5780631ebe568c146104d157806322b86aa1146104e757806325f842c5146104fa57806328ac12281461050d5780632e1a7d4d146105205780632e33de6a146105365780632f3fe24c146105585780632f8847101461056b57806335c1d3491461057e5780633ea36259146105945780633f4ba83a146105b3578063400e3949146105c65780634031c09e146105d95780634773822e146105ef5780634f6347901461060e5780635c975abb146106215780635d4c3224146106345780635ea1d6f81461064c578063612d194d1461065f57806364542e3e146106725780636642642a1461068857806370a082311461069e5780637487d32c146106bd5780637e714dd2146106d05780637f2736d1146106e357806383d32461146106f65780638456cb59146107095780638657459e1461071c5780638d8f784b146107325780638da5cb5b1461074557806390c31d5d14610758578063929066f51461076b578063a24459fc1461078a578063a7c4dccf146107a0578063aaf5eb68146107b3578063b18e8a8d146107c6578063b484cf8d146107e5578063b64af4b1146107fb578063b8b745531461080e578063ba25887d14610821578063c8d530f814610834578063d0e30db014610883578063d78b3b1c1461088b578063db2e21bc1461089e578063dc87454c146108b1578063dd60c898146108c4578063dfc51a25146108d7578063e7476abf146108f9578063e7ee801614610918578063ebc95b1214610936578063ec33d2a014610955578063f245fbc714610968578063f2fde38b14610987578063f6558b00146109a6578063f8d4d438146109dd575b60025433600160a060020a0390811691161461032357600080fd5b005b341561033057600080fd5b61033b6004356109f0565b604051600160a060020a03909616865260208601949094526040808601939093526060850191909152608084015290151560a083015260c0909101905180910390f35b341561038957600080fd5b610323600435610a41565b341561039f57600080fd5b6103a7610a8e565b604051600160a060020a03909116815260200160405180910390f35b34156103ce57600080fd5b610323610a9d565b34156103e157600080fd5b6103e9610bd4565b60405190815260200160405180910390f35b341561040657600080fd5b610323600435610bdb565b341561041c57600080fd5b6103e9600435600160a060020a0360243516610cf1565b341561043e57600080fd5b6103e9600160a060020a0360043516610d0e565b341561045d57600080fd5b610323600160a060020a0360043516610d20565b341561047c57600080fd5b610484610d94565b604051901515815260200160405180910390f35b34156104a357600080fd5b610484610d9d565b34156104b657600080fd5b6103a7610dab565b34156104c957600080fd5b6103e9610dba565b34156104dc57600080fd5b610323600435610dc0565b34156104f257600080fd5b61048461116c565b341561050557600080fd5b6103e961120c565b341561051857600080fd5b6103e9611212565b341561052b57600080fd5b610323600435611218565b341561054157600080fd5b6103e9600435600160a060020a0360243516611367565b341561056357600080fd5b6103e9611384565b341561057657600080fd5b6103e961138a565b341561058957600080fd5b6103a7600435611390565b341561059f57600080fd5b610323600160a060020a03600435166113b8565b34156105be57600080fd5b61032361143c565b34156105d157600080fd5b6103e96114bb565b34156105e457600080fd5b6103236004356114c1565b34156105fa57600080fd5b610484600160a060020a036004351661150d565b341561061957600080fd5b6103e9611522565b341561062c57600080fd5b610484611528565b341561063f57600080fd5b6103236004351515611538565b341561065757600080fd5b6103e9611585565b341561066a57600080fd5b6103e961158b565b341561067d57600080fd5b610323600435611591565b341561069357600080fd5b6103236004356115bf565b34156106a957600080fd5b6103e9600160a060020a03600435166115df565b34156106c857600080fd5b6103236115f1565b34156106db57600080fd5b6103e9611654565b34156106ee57600080fd5b61032361165a565b341561070157600080fd5b6103e961182b565b341561071457600080fd5b610323611831565b341561072757600080fd5b6103236004356118b5565b341561073d57600080fd5b610323611a08565b341561075057600080fd5b6103a7611a6b565b341561076357600080fd5b610323611a7a565b341561077657600080fd5b610484600160a060020a0360043516611bb7565b341561079557600080fd5b6103e9600435611bcc565b34156107ab57600080fd5b6103a7611bde565b34156107be57600080fd5b6103e9611bed565b34156107d157600080fd5b610323600160a060020a0360043516611bf3565b34156107f057600080fd5b6103e9600435611c45565b341561080657600080fd5b610323611c57565b341561081957600080fd5b610323611d8e565b341561082c57600080fd5b6103e9611ea5565b341561083f57600080fd5b6103236004602481358181019083013580602081810201604051908101604052809392919081815260200183836020028082843750949650611eab95505050505050565b610323611f47565b341561089657600080fd5b6103e9612126565b34156108a957600080fd5b61032361212c565b34156108bc57600080fd5b6103a7612252565b34156108cf57600080fd5b6103e9612261565b34156108e257600080fd5b610323600160a060020a0360043516602435612267565b341561090457600080fd5b610323600160a060020a03600435166124d3565b341561092357600080fd5b6103236004356024356044351515612587565b341561094157600080fd5b6103e9600160a060020a0360043516612aa6565b341561096057600080fd5b610323612ab8565b341561097357600080fd5b610323600160a060020a0360043516612c40565b341561099257600080fd5b610323600160a060020a0360043516612cbf565b34156109b157600080fd5b6109b9612d4d565b604051808260048111156109c957fe5b60ff16815260200191505060405180910390f35b34156109e857600080fd5b6103e9612d56565b601f8054829081106109fe57fe5b6000918252602090912060069091020180546001820154600283015460038401546004850154600590950154600160a060020a0390941695509193909260ff1686565b60005433600160a060020a03908116911614610a5c57600080fd5b60005460a060020a900460ff161515610a7457600080fd5b610a7d81612d5c565b15610a8b57610a8b81612d88565b50565b600354600160a060020a031681565b60028060205460ff166004811115610ab157fe5b14610abb57600080fd5b60005460a060020a900460ff1615610ad257600080fd5b602060019054906101000a9004600160a060020a0316600160a060020a03166340c10f193360135460006040516020015260405160e060020a63ffffffff8516028152600160a060020a0390921660048301526024820152604401602060405180830381600087803b1515610b4657600080fd5b6102c65a03f11515610b5757600080fd5b50505060405180515050600b54600854610b769163ffffffff612e9b16565b421015610b8257600080fd5b4260088190556020805460ff191660031790556005547fb261f68a380a9c0e8cb1b8ddea5dceb8ce59629e31c7d50b5a3acf6f017b6df69160405191825260208201526040908101905180910390a150565b601f545b90565b60028060205460ff166004811115610bef57fe5b14610bf957600080fd5b60005460a060020a900460ff1615610c1057600080fd5b602060019054906101000a9004600160a060020a0316600160a060020a03166340c10f193360135460006040516020015260405160e060020a63ffffffff8516028152600160a060020a0390921660048301526024820152604401602060405180830381600087803b1515610c8457600080fd5b6102c65a03f11515610c9557600080fd5b5050506040518051905050610ca982612d5c565b1515610cb457600080fd5b601f805483908110610cc257fe5b9060005260206000209060060201600101546000141515610ce257600080fd5b610ced826001612eb5565b5050565b601b60209081526000928352604080842090915290825290205481565b60166020526000908152604090205481565b60005433600160a060020a03908116911614610d3b57600080fd5b60005460a060020a900460ff161515610d5357600080fd5b600160a060020a0381161515610d6857600080fd5b60028054600160a060020a03909216600160a060020a0319928316811790915560218054909216179055565b60145460ff1681565b601454610100900460ff1681565b600454600160a060020a031681565b600c5481565b6000808060018060205460ff166004811115610dd857fe5b14610de257600080fd5b600160a060020a03331660009081526015602052604090205460ff161515610e0957600080fd5b60005460a060020a900460ff1615610e2057600080fd5b601f548510610e2e57600080fd5b610e3785612d5c565b1515610e4257600080fd5b6000858152601b60209081526040808320600160a060020a03331680855290835281842054898552601c84528285209185529252909120549094509250610e8f848463ffffffff612e9b16565b91506000841115610f3b57600085815260186020526040902054610eb9908363ffffffff6133dd16565b600086815260186020526040902055601254610edb908363ffffffff6133dd16565b601255601f8054610f139160019188908110610ef357fe5b9060005260206000209060060201600301546133dd90919063ffffffff16565b601f805487908110610f2157fe5b906000526020600020906006020160030181905550610fd4565b6000831115610fcf57600085815260196020526040902054610f63908363ffffffff6133dd16565b600086815260196020526040902055601f8054610fa79160019188908110610f8757fe5b9060005260206000209060060201600401546133dd90919063ffffffff16565b601f805487908110610fb557fe5b906000526020600020906006020160040181905550610fd4565b611165565b600160a060020a033316600090815260166020526040902054610ffe90600163ffffffff6133dd16565b600160a060020a03338181166000818152601660209081526040808320969096558a8252601b815285822083835281528582208290558a8252601c8152858220928252918252848120819055905461010090049092169263a9059cbb928691516020015260405160e060020a63ffffffff8516028152600160a060020a0390921660048301526024820152604401602060405180830381600087803b15156110a557600080fd5b6102c65a03f115156110b657600080fd5b50505060405180515050601f8054869081106110ce57fe5b90600052602060002090600602016003015460001415611165576110f185612d88565b6110fa856133ef565b60115461110e90600163ffffffff6133dd16565b601155601f80548690811061111f57fe5b6000918252602082206006909102018054600160a060020a03191681556001810182905560028101829055600381018290556004810191909155600501805460ff191690555b5050505050565b6000805b601f548110156112035761118381612d5c565b80156111b15750601f80548290811061119857fe5b600091825260209091206005600690920201015460ff16155b80156111dd57506000601f828154811015156111c957fe5b906000526020600020906006020160010154115b156111eb5760009150611208565b6111fc81600163ffffffff612e9b16565b9050611170565b600191505b5090565b60085481565b60095481565b60008060205460ff16600481111561122c57fe5b1461123657600080fd5b600160a060020a03331660009081526015602052604090205460ff16151561125d57600080fd5b60005460a060020a900460ff161561127457600080fd5b6005546001141561128457600080fd5b600754611297908363ffffffff6133dd16565b600755600160a060020a0333166000908152601760205260409020546112c3908363ffffffff6133dd16565b600160a060020a03331660008181526017602052604090819020929092559083156108fc0290849051600060405180830381858888f19350505050151561130957600080fd5b7fb0ecf14e184effded5473bba77dcfab32b094b77ac1fbb36beec2aef55587970600554338442604051938452600160a060020a03909216602084015260408084019190915260608301919091526080909101905180910390a15050565b601c60209081526000928352604080842090915290825290205481565b600d5481565b60055481565b601e80548290811061139e57fe5b600091825260209091200154600160a060020a0316905081565b60035433600160a060020a039081169116146113d357600080fd5b60145460ff16156113e357600080fd5b6014805460ff191660019081179091558054600160a060020a03928316600160a060020a0319909116179081905560208054919092166101000274ffffffffffffffffffffffffffffffffffffffff0019909116179055565b60005433600160a060020a0390811691161461145757600080fd5b60005460a060020a900460ff16151561146f57600080fd5b6000805474ff0000000000000000000000000000000000000000191690557f7805862f689e2f13df9f062ff482ad3ad112aca9e0847911ed832e158c525b3360405160405180910390a1565b60115481565b60005433600160a060020a039081169116146114dc57600080fd5b60005460a060020a900460ff1615156114f457600080fd5b6114fd81612d5c565b15610a8b57610a8b816000612eb5565b601d6020526000908152604090205460ff1681565b600b5481565b60005460a060020a900460ff1681565b60005433600160a060020a0390811691161461155357600080fd5b60005460a060020a900460ff16151561156b57600080fd5b601480549115156101000261ff0019909216919091179055565b600e5481565b60135481565b60005433600160a060020a039081169116146115ac57600080fd5b600f5481106115ba57600080fd5b600f55565b60005433600160a060020a039081169116146115da57600080fd5b600e55565b60176020526000908152604090205481565b6000805433600160a060020a0390811691161461160d57600080fd5b60005460a060020a900460ff16151561162557600080fd5b5060005b601f54811015610a8b5761163c81610a41565b61164d81600163ffffffff612e9b16565b9050611629565b60075481565b600060048060205460ff16600481111561167057fe5b1461167a57600080fd5b60005460a060020a900460ff161561169157600080fd5b602060019054906101000a9004600160a060020a0316600160a060020a03166340c10f193360135460006040516020015260405160e060020a63ffffffff8516028152600160a060020a0390921660048301526024820152604401602060405180830381600087803b151561170557600080fd5b6102c65a03f1151561171657600080fd5b5050506040518051505060145460ff16151561173157600080fd5b6020805460ff191690554260085560055461174d906001612e9b565b600555600091505b601e548210156117a35761178b601e8381548110151561177157fe5b600091825260209091200154600160a060020a031661344d565b61179c82600163ffffffff612e9b16565b9150611755565b600091505b601f548210156117d3576117bb826133ef565b6117cc82600163ffffffff612e9b16565b91506117a8565b6117df601f6000613d07565b6011600090556012600090557f62eeb403dc233a7676f50cdb0fd72dae595aeb7c63039adce5caacc33254f9c06005544260405191825260208201526040908101905180910390a15050565b60105481565b60005433600160a060020a0390811691161461184c57600080fd5b60005460a060020a900460ff161561186357600080fd5b6000805474ff0000000000000000000000000000000000000000191660a060020a1790557f6985a02210a168e66602d3235cb6db0e70f92b3ba4d376a33c0f3d9434bff62560405160405180910390a1565b60038060205460ff1660048111156118c957fe5b146118d357600080fd5b60005460a060020a900460ff16156118ea57600080fd5b602060019054906101000a9004600160a060020a0316600160a060020a03166340c10f193360135460006040516020015260405160e060020a63ffffffff8516028152600160a060020a0390921660048301526024820152604401602060405180830381600087803b151561195e57600080fd5b6102c65a03f1151561196f57600080fd5b505050604051805190505061198382612d5c565b151561198e57600080fd5b6000601f8381548110151561199f57fe5b9060005260206000209060060201600101541115156119bd57600080fd5b6119c8826000612eb5565b6119d1826134d2565b6001601f838154811015156119e257fe5b60009182526020909120600690910201600501805460ff19169115159190911790555050565b6000805433600160a060020a03908116911614611a2457600080fd5b60005460a060020a900460ff161515611a3c57600080fd5b5060005b601f54811015610a8b57611a53816114c1565b611a6481600163ffffffff612e9b16565b9050611a40565b600054600160a060020a031681565b60018060205460ff166004811115611a8e57fe5b14611a9857600080fd5b602060019054906101000a9004600160a060020a0316600160a060020a03166340c10f193360135460006040516020015260405160e060020a63ffffffff8516028152600160a060020a0390921660048301526024820152604401602060405180830381600087803b1515611b0c57600080fd5b6102c65a03f11515611b1d57600080fd5b5050506040518051505060005460a060020a900460ff1615611b3e57600080fd5b600a54600854611b539163ffffffff612e9b16565b421015611b5f57600080fd5b426008556020805460ff19166002179055611b7861379a565b7fc26cea5d11470524f2c181454de04fcfb1a0349aba5606ea3eb1a8ec87e1f54e6005544260405191825260208201526040908101905180910390a150565b60156020526000908152604090205460ff1681565b60196020526000908152604090205481565b600254600160a060020a031681565b60065481565b60005433600160a060020a03908116911614611c0e57600080fd5b600160a060020a0381161515611c2357600080fd5b60048054600160a060020a031916600160a060020a0392909216919091179055565b60186020526000908152604090205481565b60008060205460ff166004811115611c6b57fe5b14611c7557600080fd5b60005460a060020a900460ff1615611c8c57600080fd5b602060019054906101000a9004600160a060020a0316600160a060020a03166340c10f193360135460006040516020015260405160e060020a63ffffffff8516028152600160a060020a0390921660048301526024820152604401602060405180830381600087803b1515611d0057600080fd5b6102c65a03f11515611d1157600080fd5b50505060405180515050600954600854611d309163ffffffff612e9b16565b421015611d3c57600080fd5b4260088190556020805460ff191660011790556005547f3c3379a2308ae89ee638561d0222706de289bea89968dd555b533795071130fb9160405191825260208201526040908101905180910390a150565b600080548190819033600160a060020a03908116911614611dae57600080fd5b60005460a060020a900460ff161515611dc657600080fd5b600092505b601e54831015611e9257601e805484908110611de357fe5b6000918252602082200154600754600160a060020a03909116935090915081901115611e5f57600754600160a060020a03808416600090815260176020526040902054611e5c92611e4f929091611e43913016319063ffffffff61392816565b9063ffffffff61395316565b829063ffffffff612e9b16565b90505b600160a060020a0382166000908152601760205260409020819055611e8b83600163ffffffff612e9b16565b9250611dcb565b505050600160a060020a03301631600755565b600f5481565b60035460009033600160a060020a03908116911614611ec957600080fd5b60145460ff1615611ed957600080fd5b601e828051611eec929160200190613d28565b50600090505b8151811015610ced57600160156000848481518110611f0d57fe5b90602001906020020151600160a060020a031681526020810191909152604001600020805460ff1916911515919091179055600101611ef2565b60008060205460ff166004811115611f5b57fe5b14611f6557600080fd5b60005460a060020a900460ff1615611f7c57600080fd5b600160a060020a03331660009081526015602052604090205460ff161515611ff157601e805460018101611fb08382613d8b565b5060009182526020808320919091018054600160a060020a03191633600160a060020a031690811790915582526015905260409020805460ff191660011790555b600160a060020a03331660009081526017602052604090205461201a903463ffffffff612e9b16565b600160a060020a033316600090815260176020526040902055600754612046903463ffffffff612e9b16565b6007556020546101009004600160a060020a03166340c10f19333460006040516020015260405160e060020a63ffffffff8516028152600160a060020a0390921660048301526024820152604401602060405180830381600087803b15156120ad57600080fd5b6102c65a03f115156120be57600080fd5b50505060405180519050507fd36a2f67d06d285786f61a32b052b9ace6b0b7abef5177b54358abdc83a0b69b600554333442604051938452600160a060020a03909216602084015260408084019190915260608301919091526080909101905180910390a150565b600a5481565b600160a060020a03331660009081526015602052604081205460ff16151561215357600080fd5b60005460a060020a900460ff16151561216b57600080fd5b601454610100900460ff16151561218157600080fd5b50600160a060020a0333166000908152601760205260409020546007546121ae908263ffffffff6133dd16565b600755600160a060020a0333166000818152601760205260408082209190915582156108fc0290839051600060405180830381858888f1935050505015156121f557600080fd5b7fb0ecf14e184effded5473bba77dcfab32b094b77ac1fbb36beec2aef55587970600554338342604051938452600160a060020a03909216602084015260408084019190915260608301919091526080909101905180910390a150565b600154600160a060020a031681565b601e5490565b600060018060205460ff16600481111561227d57fe5b1461228757600080fd5b600160a060020a03331660009081526015602052604090205460ff1615156122ae57600080fd5b60005460a060020a900460ff16156122c557600080fd5b600d54601154106122d557600080fd5b600160a060020a0384166000908152601d602052604090205460ff16156122fb57600080fd5b601054600160a060020a0333166000908152601a60205260409020541061232157600080fd5b601f8054600181016123338382613db4565b9160005260206000209060060201600060c06040519081016040908152600160a060020a0389168252600060208301819052908201819052606082018190526080820181905260a082015291905081518154600160a060020a031916600160a060020a03919091161781556020820151816001015560408201518160020155606082015181600301556080820151816004015560a08201516005909101805491151560ff19928316179055600160a060020a038088166000908152601d6020908152604080832080549095166001908117909555339093168252601a905220546124259350915063ffffffff612e9b16565b600160a060020a0333166000908152601a602052604090205560115461245290600163ffffffff612e9b16565b601155601f5460001901915061246a82846001612587565b7f8ce9f930ed5ed31849df1551919914386f6b2b7de1fdde27d80255ceaa38b2276005548386866040518085815260200184815260200183600160a060020a0316600160a060020a0316815260200182815260200194505050505060405180910390a150505050565b60005433600160a060020a039081169116146124ee57600080fd5b60005460a060020a900460ff16151561250657600080fd5b600160a060020a038116151561251b57600080fd5b6020546101009004600160a060020a031663f2fde38b8260405160e060020a63ffffffff8416028152600160a060020a039091166004820152602401600060405180830381600087803b151561257057600080fd5b6102c65a03f1151561258157600080fd5b50505050565b60018060205460ff16600481111561259b57fe5b146125a557600080fd5b600160a060020a03331660009081526015602052604090205460ff1615156125cc57600080fd5b60005460a060020a900460ff16156125e357600080fd5b601f5484106125f157600080fd5b601d6000601f8681548110151561260457fe5b60009182526020808320600690920290910154600160a060020a0316835282019290925260400190205460ff16151561263c57600080fd5b6020546126c7906101009004600160a060020a03166370a082313360006040516020015260405160e060020a63ffffffff8416028152600160a060020a039091166004820152602401602060405180830381600087803b151561269e57600080fd5b6102c65a03f115156126af57600080fd5b5050506040518051600c54915063ffffffff61392816565b6006546126db90859063ffffffff61392816565b10156126e657600080fd5b600083116126f357600080fd5b6020546101009004600160a060020a0316632bee7bde338560006040516020015260405160e060020a63ffffffff8516028152600160a060020a0390921660048301526024820152604401602060405180830381600087803b151561275757600080fd5b6102c65a03f1151561276857600080fd5b50505060405180519050508180156127a057506000848152601c60209081526040808320600160a060020a0333168452909152902054155b156128bf576000848152601b60209081526040808320600160a060020a03331684529091529020541515612826576128026001601f868154811015156127e257fe5b906000526020600020906006020160030154612e9b90919063ffffffff16565b601f80548690811061281057fe5b9060005260206000209060060201600301819055505b600084815260186020526040902054612845908463ffffffff612e9b16565b600085815260186020908152604080832093909355601b8152828220600160a060020a033316835290522054612881908463ffffffff612e9b16565b6000858152601b60209081526040808320600160a060020a03331684529091529020556012546128b7908463ffffffff612e9b16565b6012556129fb565b811580156128ed57506000848152601b60209081526040808320600160a060020a0333168452909152902054155b156129f6576000848152601c60209081526040808320600160a060020a033316845290915290205415156129735761294f6001601f8681548110151561292f57fe5b906000526020600020906006020160040154612e9b90919063ffffffff16565b601f80548690811061295d57fe5b9060005260206000209060060201600401819055505b600084815260196020526040902054612992908463ffffffff612e9b16565b600085815260196020908152604080832093909355601c8152828220600160a060020a0333168352905220546129ce908463ffffffff612e9b16565b6000858152601c60209081526040808320600160a060020a03331684529091529020556129fb565b600080fd5b600160a060020a033316600090815260166020526040902054612a2590600163ffffffff612e9b16565b6016600033600160a060020a0316600160a060020a03168152602001908152602001600020819055507f725e873e4977c489020b571ecffe13e8f200a0e8b71e450d8b190aa236bcede9600554858585604051938452602084019290925260408084019190915290151560608301526080909101905180910390a150505050565b601a6020526000908152604090205481565b60038060205460ff166004811115612acc57fe5b14612ad657600080fd5b60005460a060020a900460ff1615612aed57600080fd5b602060019054906101000a9004600160a060020a0316600160a060020a03166340c10f193360135460006040516020015260405160e060020a63ffffffff8516028152600160a060020a0390921660048301526024820152604401602060405180830381600087803b1515612b6157600080fd5b6102c65a03f11515612b7257600080fd5b5050506040518051905050612b8561116c565b1515612b9057600080fd5b426008556020805460ff191660041790819055600160a060020a036101009091041663f3123a3a6040518163ffffffff1660e060020a028152600401600060405180830381600087803b1515612be557600080fd5b6102c65a03f11515612bf657600080fd5b505050612c0161396a565b7ff4b862466a7ed84695726312fc00377bee25443b7890d8b8985f94eef497d6ff6005544260405191825260208201526040908101905180910390a150565b60015433600160a060020a03908116911614612c5b57600080fd5b600160a060020a0381166000908152601560205260409020805460ff19166001908117909155601e805490918101612c938382613d8b565b5060009182526020909120018054600160a060020a031916600160a060020a0392909216919091179055565b60005433600160a060020a03908116911614612cda57600080fd5b600160a060020a0381161515612cef57600080fd5b600054600160a060020a0380831691167f8be0079c531659141344cd1fd0a4f28419497f9722a3daafe3b4186f6b6457e060405160405180910390a360008054600160a060020a031916600160a060020a0392909216919091179055565b60205460ff1681565b60125481565b600080601f83815481101515612d6e57fe5b906000526020600020906006020160030154119050919050565b600080805b601e5483101561258157601e805484908110612da557fe5b6000918252602080832090910154868352601c82526040808420600160a060020a0390921680855291835280842054888552601b845281852083865290935290922054919350612dfb919063ffffffff612e9b16565b90508015612e83576020546101009004600160a060020a031663a9059cbb838360006040516020015260405160e060020a63ffffffff8516028152600160a060020a0390921660048301526024820152604401602060405180830381600087803b1515612e6757600080fd5b6102c65a03f11515612e7857600080fd5b505050604051805150505b612e9483600163ffffffff612e9b16565b9250612d8d565b600082820183811015612eaa57fe5b8091505b5092915050565b600080600080600080601f88815481101515612ecd57fe5b6000918252602090912060069091020154600160a060020a03169250829150861561305f57601254600089815260186020526040902054600754612f1c9291611e43919063ffffffff61392816565b602154909650600160a060020a033081811631935091169063cb3c28c790889073eeeeeeeeeeeeeeeeeeeeeeeeeeeeeeeeeeeeeeee90829087906b204fce5e3e2502611000000060018260006040516020015260405160e060020a63ffffffff8b16028152600160a060020a039788166004820152602481019690965293861660448601529185166064850152608484015260a483015290911660c482015260e4016020604051808303818588803b1515612fd657600080fd5b6125ee5a03f11515612fe757600080fd5b5050505060405180519550506000851161300057600080fd5b61303385611e4360065461302730600160a060020a031631866133dd90919063ffffffff16565b9063ffffffff61392816565b935083601f8981548110151561304557fe5b9060005260206000209060060201600101819055506133d3565b81600160a060020a03166370a082313060006040516020015260405160e060020a63ffffffff8416028152600160a060020a039091166004820152602401602060405180830381600087803b15156130b657600080fd5b6102c65a03f115156130c757600080fd5b5050506040518051600254909750600160a060020a03808516925063095ea7b391168860006040516020015260405160e060020a63ffffffff8516028152600160a060020a0390921660048301526024820152604401602060405180830381600087803b151561313657600080fd5b6102c65a03f1151561314757600080fd5b50505060405180515050602154600160a060020a031663cb3c28c7838873eeeeeeeeeeeeeeeeeeeeeeeeeeeeeeeeeeeeeeee306b204fce5e3e2502611000000060018260006040516020015260405160e060020a63ffffffff8a16028152600160a060020a039788166004820152602481019690965293861660448601529185166064850152608484015260a483015290911660c482015260e401602060405180830381600087803b15156131fb57600080fd5b6102c65a03f1151561320c57600080fd5b5050506040518051600254909650600160a060020a03808516925063095ea7b391166000806040516020015260405160e060020a63ffffffff8516028152600160a060020a0390921660048301526024820152604401602060405180830381600087803b151561327b57600080fd5b6102c65a03f1151561328c57600080fd5b50505060405180515050600160a060020a0382166370a082313060006040516020015260405160e060020a63ffffffff8416028152600160a060020a039091166004820152602401602060405180830381600087803b15156132ed57600080fd5b6102c65a03f115156132fe57600080fd5b50505060405180518711905061331357600080fd5b6133ab61339783600160a060020a03166370a082313060006040516020015260405160e060020a63ffffffff8416028152600160a060020a039091166004820152602401602060405180830381600087803b151561337057600080fd5b6102c65a03f1151561338157600080fd5b505050604051805189915063ffffffff6133dd16565b600654611e4390889063ffffffff61392816565b935083601f898154811015156133bd57fe5b9060005260206000209060060201600201819055505b5050505050505050565b6000828211156133e957fe5b50900390565b601d6000601f8381548110151561340257fe5b60009182526020808320600690920290910154600160a060020a031683528281019390935260409182018120805460ff19169055928352601882528083208390556019909152812055565b600160a060020a0381166000908152601a60209081526040808320839055601690915281208190555b601f54811015610ced576000818152601b60209081526040808320600160a060020a038616808552908352818420849055848452601c83528184209084529091528120556134cb81600163ffffffff612e9b16565b9050613476565b600080600080600080601f878154811015156134ea57fe5b9060005260206000209060060201955061351b8660010154611e43600654896002015461392890919063ffffffff16565b60018701549095506000945061353890600263ffffffff61392816565b866002015410156135805761357d8660010154611e436006546130278a6002015461357160028d6001015461392890919063ffffffff16565b9063ffffffff6133dd16565b93505b600092505b601e5483101561379157601e80548490811061359d57fe5b6000918252602080832090910154898352601b82526040808420600160a060020a0390921680855291909252908220549093509091508190111561369857506000868152601b60209081526040808320600160a060020a0380861685529083529220549054600654919261010090910416906340c10f1990849061362b90611e43868b63ffffffff61392816565b60006040516020015260405160e060020a63ffffffff8516028152600160a060020a0390921660048301526024820152604401602060405180830381600087803b151561367757600080fd5b6102c65a03f1151561368857600080fd5b5050506040518051905050613779565b6000878152601c60209081526040808320600160a060020a0386168452909152812054111561377957506000868152601c60209081526040808320600160a060020a0380861685529083529220549054600654919261010090910416906340c10f1990849061371190611e43868a63ffffffff61392816565b60006040516020015260405160e060020a63ffffffff8516028152600160a060020a0390921660048301526024820152604401602060405180830381600087803b151561375d57600080fd5b6102c65a03f1151561376e57600080fd5b505050604051805150505b61378a83600163ffffffff612e9b16565b9250613585565b50505050505050565b60008080805b601e5484101561258157601e8054859081106137b857fe5b60009182526020808320909101549054600160a060020a039182169550610100900416906370a082319085906040516020015260405160e060020a63ffffffff8416028152600160a060020a039091166004820152602401602060405180830381600087803b151561382957600080fd5b6102c65a03f1151561383a57600080fd5b5050506040518051600160a060020a038516600090815260166020526040902054909350159050801561386d5750600082115b156139105761388d600654611e43600c548561392890919063ffffffff16565b6020549091506101009004600160a060020a031663c0001786848360006040516020015260405160e060020a63ffffffff8516028152600160a060020a0390921660048301526024820152604401602060405180830381600087803b15156138f457600080fd5b6102c65a03f1151561390557600080fd5b505050604051805150505b61392184600163ffffffff612e9b16565b93506137a0565b60008083151561393b5760009150612eae565b5082820282848281151561394b57fe5b0414612eaa57fe5b600080828481151561396157fe5b04949350505050565b6000806000806000806000806000975060075430600160a060020a03163111156139a05760075430600160a060020a0316310397505b6139bb600654611e438a600e5461392890919063ffffffff16565b96506139e2600654611e4330600160a060020a031631600f5461392890919063ffffffff16565b9550613a0286613571600160a060020a033016318a63ffffffff6133dd16565b9450600093505b601e54841015613c2c57601e805485908110613a2157fe5b6000918252602082200154600754600160a060020a03909116945090925082901115613a8c57600754600160a060020a038416600090815260176020526040902054613a8991613a7c91611e4390899063ffffffff61392816565b839063ffffffff612e9b16565b91505b6020546000906101009004600160a060020a03166318160ddd82604051602001526040518163ffffffff1660e060020a028152600401602060405180830381600087803b1515613adb57600080fd5b6102c65a03f11515613aec57600080fd5b505050604051805190501115613bf957602054613bf690613a7c906101009004600160a060020a03166318160ddd6000604051602001526040518163ffffffff1660e060020a028152600401602060405180830381600087803b1515613b5157600080fd5b6102c65a03f11515613b6257600080fd5b5050506040518051602054909150611e43906101009004600160a060020a03166370a082318860006040516020015260405160e060020a63ffffffff8416028152600160a060020a039091166004820152602401602060405180830381600087803b1515613bcf57600080fd5b6102c65a03f11515613be057600080fd5b50505060405180518c915063ffffffff61392816565b91505b600160a060020a0383166000908152601760205260409020829055613c2584600163ffffffff612e9b16565b9350613a09565b613c3c858863ffffffff612e9b16565b90507f13a18edb371d0a74be72de10b678893b96bc8a47e776bb122c59e21d53956fbd6005546007548360405180848152602001838152602001828152602001935050505060405180910390a16007819055600454600160a060020a031686156108fc0287604051600060405180830381858888f193505050501515613cc157600080fd5b7facfa15ebe340982fef95d43aafc25d741382d7928a00055a209274fa615d52776005548860405191825260208201526040908101905180910390a15050505050505050565b5080546000825560060290600052602060002090810190610a8b9190613ddc565b828054828255906000526020600020908101928215613d7f579160200282015b82811115613d7f5782518254600160a060020a031916600160a060020a039190911617825560209290920191600190910190613d48565b50611208929150613e28565b815481835581811511613daf57600083815260209020613daf918101908301613e4c565b505050565b815481835581811511613daf57600602816006028360005260206000209182019101613daf91905b610bd891905b80821115611208578054600160a060020a03191681556000600182018190556002820181905560038201819055600482015560058101805460ff19169055600601613de2565b610bd891905b80821115611208578054600160a060020a0319168155600101613e2e565b610bd891905b808211156112085760008155600101613e525600a165627a7a72305820f93c0987ead478d19e65497cbc612de31133b6b122dccf1b1a4a62f459711d720029",
  "source": "pragma solidity ^0.4.18;\r\n\r\nimport 'zeppelin-solidity/contracts/math/SafeMath.sol';\r\nimport 'zeppelin-solidity/contracts/math/Math.sol';\r\nimport 'zeppelin-solidity/contracts/lifecycle/Pausable.sol';\r\nimport './ControlToken.sol';\r\nimport './KyberNetwork.sol';\r\nimport './Utils.sol';\r\n\r\n/**\r\n * The main contract of the Betoken hedge fund\r\n */\r\ncontract BetokenFund is Pausable, Utils {\r\n  using SafeMath for uint256;\r\n\r\n  enum CyclePhase { ChangeMaking, ProposalMaking, Waiting, Selling, Finalized }\r\n\r\n  struct Proposal {\r\n    address tokenAddress;\r\n    uint256 buyPriceInWeis;\r\n    uint256 sellPriceInWeis;\r\n    uint256 numFor;\r\n    uint256 numAgainst;\r\n    bool isSold;\r\n  }\r\n\r\n  /**\r\n   * Executes function only during the given cycle phase.\r\n   * @param phase the cycle phase during which the function may be called\r\n   */\r\n  modifier during(CyclePhase phase) {\r\n    require(cyclePhase == phase);\r\n    _;\r\n  }\r\n\r\n  /**\r\n   * Executes function only when msg.sender is a participant of the fund.\r\n   */\r\n  modifier onlyParticipant {\r\n    require(isParticipant[msg.sender]);\r\n    _;\r\n  }\r\n\r\n  modifier rewardCaller {\r\n    cToken.mint(msg.sender, functionCallReward);\r\n    _;\r\n  }\r\n\r\n  //Address of the control token contract.\r\n  address public controlTokenAddr;\r\n\r\n  //Address of the KyberNetwork contract\r\n  address public kyberAddr;\r\n\r\n  //The creator of the BetokenFund contract. Only used in initializeSubcontracts().\r\n  address public creator;\r\n\r\n  //Address to which the developer fees will be paid.\r\n  address public developerFeeAccount;\r\n\r\n  //The number of the current investment cycle.\r\n  uint256 public cycleNumber;\r\n\r\n  //10^{decimals} used for representing fixed point numbers with {decimals} decimals.\r\n  uint256 public PRECISION;\r\n\r\n  //The amount of funds held by the fund.\r\n  uint256 public totalFundsInWeis;\r\n\r\n  //The start time for the current investment cycle phase, in seconds since Unix epoch.\r\n  uint256 public startTimeOfCyclePhase;\r\n\r\n  //Temporal length of change making period at start of each cycle, in seconds.\r\n  uint256 public timeOfChangeMaking;\r\n\r\n  //Temporal length of proposal making period at start of each cycle, in seconds.\r\n  uint256 public timeOfProposalMaking;\r\n\r\n  //Temporal length of waiting period, in seconds.\r\n  uint256 public timeOfWaiting;\r\n\r\n  //Minimum proportion of Kairo balance people have to stake in support of a proposal. Fixed point decimal.\r\n  uint256 public minStakeProportion;\r\n\r\n  //The maximum number of proposals each cycle.\r\n  uint256 public maxProposals;\r\n\r\n  //The proportion of the fund that gets distributed to Kairo holders every cycle. Fixed point decimal.\r\n  uint256 public commissionRate;\r\n\r\n  //The proportion of contract balance that goes the the devs every cycle. Fixed point decimal.\r\n  uint256 public developerFeeProportion;\r\n\r\n  //The max number of proposals each member can create.\r\n  uint256 public maxProposalsPerMember;\r\n\r\n  //Number of proposals already made in this cycle. Excludes deleted proposals.\r\n  uint256 public numProposals;\r\n\r\n  //Total Kairo staked in support of proposals this cycle.\r\n  uint256 public cycleTotalForStake;\r\n\r\n  //Amount of Kairo rewarded to the user who calls a phase transition/proposal handling function\r\n  uint256 public functionCallReward;\r\n\r\n  //Flag for whether the contract has been initialized with subcontracts' addresses.\r\n  bool public initialized;\r\n\r\n  //Flag for whether emergency withdrawing is allowed.\r\n  bool public allowEmergencyWithdraw;\r\n\r\n  //Returns true for an address if it's in the participants array, false otherwise.\r\n  mapping(address => bool) public isParticipant;\r\n\r\n  //Returns the amount participant staked into all proposals in the current cycle.\r\n  mapping(address => uint256) public userStakedProposalCount;\r\n\r\n  //Mapping from a participant's address to their Ether balance, in weis.\r\n  mapping(address => uint256) public balanceOf;\r\n\r\n  //Mapping from Proposal to total amount of Control Tokens being staked by supporters.\r\n  mapping(uint256 => uint256) public forStakedControlOfProposal;\r\n  mapping(uint256 => uint256) public againstStakedControlOfProposal;\r\n\r\n  //Records the number of proposals a user has created in the current cycle. Canceling support does not decrease this number.\r\n  mapping(address => uint256) public createdProposalCount;\r\n\r\n  //mapping(proposalId => mapping(participantAddress => stakedTokensInWeis))\r\n  mapping(uint256 => mapping(address => uint256)) public forStakedControlOfProposalOfUser;\r\n  mapping(uint256 => mapping(address => uint256)) public againstStakedControlOfProposalOfUser;\r\n\r\n  //Mapping to check if a proposal for a token has already been made.\r\n  mapping(address => bool) public isTokenAlreadyProposed;\r\n\r\n  //A list of everyone who is participating in the fund.\r\n  address[] public participants;\r\n\r\n  //List of proposals in the current cycle.\r\n  Proposal[] public proposals;\r\n\r\n  //The current cycle phase.\r\n  CyclePhase public cyclePhase;\r\n\r\n  //Contract instances\r\n  ControlToken internal cToken;\r\n  KyberNetwork internal kyber;\r\n\r\n  event CycleStarted(uint256 _cycleNumber, uint256 _timestamp);\r\n  event Deposit(uint256 _cycleNumber, address _sender, uint256 _amountInWeis, uint256 _timestamp);\r\n  event Withdraw(uint256 _cycleNumber, address _sender, uint256 _amountInWeis, uint256 _timestamp);\r\n  event ChangeMakingTimeEnded(uint256 _cycleNumber, uint256 _timestamp);\r\n\r\n  event NewProposal(uint256 _cycleNumber, uint256 _id, address _tokenAddress, uint256 _stakeInWeis);\r\n  event StakedProposal(uint256 _cycleNumber, uint256 _id, uint256 _stakeInWeis, bool _support);\r\n  event ProposalMakingTimeEnded(uint256 _cycleNumber, uint256 _timestamp);\r\n\r\n  event WaitingPhaseEnded(uint256 _cycleNumber, uint256 _timestamp);\r\n\r\n  event AssetSold(uint256 _cycleNumber, uint256 _proposalId);\r\n  event SellingPhaseEnded(uint256 _cycleNumber, uint256 _timestamp);\r\n\r\n  event ROI(uint256 _cycleNumber, uint256 _beforeTotalFunds, uint256 _afterTotalFunds);\r\n  event CommissionPaid(uint256 _cycleNumber, uint256 _totalCommissionInWeis);\r\n  event CycleFinalized(uint256 _cycleNumber, uint256 _timestamp);\r\n\r\n  /**\r\n   * Contract initialization functions\r\n   */\r\n\r\n  //Constructor\r\n  function BetokenFund(\r\n    address _kyberAddr,\r\n    address _developerFeeAccount,\r\n    uint256 _timeOfChangeMaking,\r\n    uint256 _timeOfProposalMaking,\r\n    uint256 _timeOfWaiting,\r\n    uint256 _minStakeProportion,\r\n    uint256 _maxProposals,\r\n    uint256 _commissionRate,\r\n    uint256 _developerFeeProportion,\r\n    uint256 _maxProposalsPerMember,\r\n    uint256 _cycleNumber,\r\n    uint256 _functionCallReward\r\n  )\r\n    public\r\n  {\r\n    require(_minStakeProportion < 10**18);\r\n    require(_commissionRate.add(_developerFeeProportion) < 10**18);\r\n\r\n    kyberAddr = _kyberAddr;\r\n    developerFeeAccount = _developerFeeAccount;\r\n    timeOfChangeMaking = _timeOfChangeMaking;\r\n    timeOfProposalMaking = _timeOfProposalMaking;\r\n    timeOfWaiting = _timeOfWaiting;\r\n    minStakeProportion = _minStakeProportion;\r\n    maxProposals = _maxProposals;\r\n    commissionRate = _commissionRate;\r\n    developerFeeProportion = _developerFeeProportion;\r\n    maxProposalsPerMember = _maxProposalsPerMember;\r\n    startTimeOfCyclePhase = 0;\r\n    cyclePhase = CyclePhase.Finalized;\r\n    creator = msg.sender;\r\n    numProposals = 0;\r\n    cycleNumber = _cycleNumber;\r\n    functionCallReward = _functionCallReward;\r\n    kyber = KyberNetwork(_kyberAddr);\r\n    allowEmergencyWithdraw = false;\r\n  }\r\n\r\n  /**\r\n   * Initializes the list of participants. Used during contract upgrades.\r\n   * @param _participants the list of participant addresses\r\n   */\r\n  function initializeParticipants(address[] _participants) public {\r\n    require(msg.sender == creator);\r\n    require (!initialized);\r\n\r\n    participants = _participants;\r\n    for (uint i = 0; i < _participants.length; i++) {\r\n      isParticipant[_participants[i]] = true;\r\n    }\r\n  }\r\n\r\n  /**\r\n   * Initializes the address of the ControlToken contract.\r\n   * @param _cTokenAddr address of ControlToken contract\r\n   */\r\n  function initializeSubcontracts(address _cTokenAddr) public {\r\n    require(msg.sender == creator);\r\n    require(!initialized);\r\n\r\n    initialized = true;\r\n\r\n    controlTokenAddr = _cTokenAddr;\r\n\r\n    cToken = ControlToken(controlTokenAddr);\r\n  }\r\n\r\n  /**\r\n   * Getters\r\n   */\r\n\r\n  /**\r\n   * Returns the length of the participants array.\r\n   * @return length of participants array\r\n   */\r\n  function participantsCount() public view returns(uint256 _count) {\r\n    return participants.length;\r\n  }\r\n\r\n  /**\r\n   * Returns the length of the proposals array.\r\n   * @return length of proposals array\r\n   */\r\n  function proposalsCount() public view returns(uint256 _count) {\r\n    return proposals.length;\r\n  }\r\n\r\n  /**\r\n   * Meta functions\r\n   */\r\n\r\n  /**\r\n   * Emergency functions\r\n   */\r\n\r\n  /**\r\n   * In case the fund is invested in tokens, sell all tokens.\r\n   */\r\n  function emergencyDumpAllTokens() onlyOwner whenPaused public {\r\n    for (uint256 i = 0; i < proposals.length; i = i.add(1)) {\r\n      emergencyDumpToken(i);\r\n    }\r\n  }\r\n\r\n  function emergencyDumpToken(uint256 _proposalId) onlyOwner whenPaused public {\r\n    if (__proposalIsValid(_proposalId)) { //Ensure proposal isn't a deleted one\r\n      __handleInvestment(_proposalId, false);\r\n    }\r\n  }\r\n\r\n  /**\r\n   * In case the fund is invested in tokens, return all staked Kairos.\r\n   */\r\n  function emergencyReturnAllStakes() onlyOwner whenPaused public {\r\n    for (uint256 i = 0; i < proposals.length; i = i.add(1)) {\r\n      emergencyReturnStakes(i);\r\n    }\r\n  }\r\n\r\n  function emergencyReturnStakes(uint256 _proposalId) onlyOwner whenPaused public {\r\n    if (__proposalIsValid(_proposalId)) {\r\n      __returnStakes(_proposalId);\r\n    }\r\n  }\r\n\r\n  /**\r\n   * In case the fund is invested in tokens, redistribute balance after selling all tokens.\r\n   */\r\n  function emergencyRedistBalances() onlyOwner whenPaused public {\r\n    for (uint256 i = 0; i < participants.length; i = i.add(1)) {\r\n      address participant = participants[i];\r\n      uint256 newBalance = 0;\r\n      if (totalFundsInWeis > 0) {\r\n        newBalance = newBalance.add(this.balance.mul(balanceOf[participant]).div(totalFundsInWeis));\r\n      }\r\n      balanceOf[participant] = newBalance;\r\n    }\r\n    totalFundsInWeis = this.balance;\r\n  }\r\n\r\n  function setAllowEmergencyWithdraw(bool _val) onlyOwner whenPaused public {\r\n    allowEmergencyWithdraw = _val;\r\n  }\r\n\r\n  /**\r\n   * Function for withdrawing all funds in times of emergency. Only callable when fund is paused.\r\n   */\r\n  function emergencyWithdraw()\r\n    public\r\n    onlyParticipant\r\n    whenPaused\r\n  {\r\n    require(allowEmergencyWithdraw);\r\n    uint256 amountInWeis = balanceOf[msg.sender];\r\n\r\n    //Subtract from account\r\n    totalFundsInWeis = totalFundsInWeis.sub(amountInWeis);\r\n    balanceOf[msg.sender] = 0;\r\n\r\n    //Transfer\r\n    msg.sender.transfer(amountInWeis);\r\n\r\n    //Emit event\r\n    Withdraw(cycleNumber, msg.sender, amountInWeis, now);\r\n  }\r\n\r\n  /**\r\n   * Parameter setters\r\n   */\r\n\r\n  /**\r\n   * Changes the address of the KyberNetwork contract used in the contract. Only callable by owner.\r\n   * @param _newAddr new address of KyberNetwork contract\r\n   */\r\n  function changeKyberNetworkAddress(address _newAddr) public onlyOwner whenPaused {\r\n    require(_newAddr != address(0));\r\n    kyberAddr = _newAddr;\r\n    kyber = KyberNetwork(_newAddr);\r\n  }\r\n\r\n  /**\r\n   * Changes the address to which the developer fees will be sent. Only callable by owner.\r\n   * @param _newAddr new developer fee address\r\n   */\r\n  function changeDeveloperFeeAccount(address _newAddr) public onlyOwner {\r\n    require(_newAddr != address(0));\r\n    developerFeeAccount = _newAddr;\r\n  }\r\n\r\n  /**\r\n   * Changes the proportion of fund balance sent to the developers each cycle. May only decrease. Only callable by owner.\r\n   * @param _newProp the new proportion, fixed point decimal\r\n   */\r\n  function changeDeveloperFeeProportion(uint256 _newProp) public onlyOwner {\r\n    require(_newProp < developerFeeProportion);\r\n    developerFeeProportion = _newProp;\r\n  }\r\n\r\n  /**\r\n   * Changes the proportion of fund balance given to Kairo holders each cycle. Only callable by owner.\r\n   * @param _newProp the new proportion, fixed point decimal\r\n   */\r\n  function changeCommissionRate(uint256 _newProp) public onlyOwner {\r\n    commissionRate = _newProp;\r\n  }\r\n\r\n  /**\r\n   * Changes the owner of the ControlToken contract.\r\n   * @param  _newOwner the new owner address\r\n   */\r\n  function changeControlTokenOwner(address _newOwner) public onlyOwner whenPaused {\r\n    require(_newOwner != address(0));\r\n    cToken.transferOwnership(_newOwner);\r\n  }\r\n\r\n  /**\r\n   * Start cycle functions\r\n   */\r\n\r\n  /**\r\n   * Starts a new investment cycle.\r\n   */\r\n  function startNewCycle() public during(CyclePhase.Finalized) whenNotPaused rewardCaller {\r\n    require(initialized);\r\n\r\n    //Update values\r\n    cyclePhase = CyclePhase.ChangeMaking;\r\n    startTimeOfCyclePhase = now;\r\n    cycleNumber = cycleNumber.add(1);\r\n\r\n    //Reset data\r\n    for (uint256 i = 0; i < participants.length; i = i.add(1)) {\r\n      __resetMemberData(participants[i]);\r\n    }\r\n    for (i = 0; i < proposals.length; i = i.add(1)) {\r\n      __resetProposalData(i);\r\n    }\r\n    delete proposals;\r\n    delete numProposals;\r\n    delete cycleTotalForStake;\r\n\r\n    //Emit event\r\n    CycleStarted(cycleNumber, now);\r\n  }\r\n\r\n  /**\r\n   * Resets cycle specific data for a given participant.\r\n   * @param _addr the participant whose data will be reset\r\n   */\r\n  function __resetMemberData(address _addr) internal {\r\n    delete createdProposalCount[_addr];\r\n    delete userStakedProposalCount[_addr];\r\n\r\n    //Remove the associated corresponding control staked for/against  each proposal\r\n    for (uint256 i = 0; i < proposals.length; i = i.add(1)) {\r\n      delete forStakedControlOfProposalOfUser[i][_addr];\r\n      delete againstStakedControlOfProposalOfUser[i][_addr];\r\n    }\r\n  }\r\n\r\n  /**\r\n   * Resets cycle specific data for a give proposal\r\n   * @param _proposalId ID of proposal whose data will be reset\r\n   */\r\n  function __resetProposalData(uint256 _proposalId) internal {\r\n    delete isTokenAlreadyProposed[proposals[_proposalId].tokenAddress];\r\n    delete forStakedControlOfProposal[_proposalId];\r\n    delete againstStakedControlOfProposal[_proposalId];\r\n  }\r\n\r\n  /**\r\n   * ChangeMakingTime functions\r\n   */\r\n\r\n  /**\r\n   * Deposit Ether into the fund.\r\n   */\r\n  function deposit()\r\n    public\r\n    payable\r\n    during(CyclePhase.ChangeMaking)\r\n    whenNotPaused\r\n  {\r\n    //If caller is not a participant, add them to the participants list\r\n    if (!isParticipant[msg.sender]) {\r\n      participants.push(msg.sender);\r\n      isParticipant[msg.sender] = true;\r\n    }\r\n\r\n    //Register investment\r\n    balanceOf[msg.sender] = balanceOf[msg.sender].add(msg.value);\r\n    totalFundsInWeis = totalFundsInWeis.add(msg.value);\r\n\r\n    //Deposits during all cycles will grant you Kairo in the testnet alpha\r\n    //Uncomment in mainnet version\r\n    //if (cycleNumber == 1) {\r\n      //Give control tokens proportional to investment\r\n      cToken.mint(msg.sender, msg.value);\r\n    //}\r\n\r\n    //Emit event\r\n    Deposit(cycleNumber, msg.sender, msg.value, now);\r\n  }\r\n\r\n  /**\r\n   * Withdraws a certain amount of Ether from the user's account. Cannot be called during the first cycle.\r\n   * @param _amountInWeis amount of Ether to be withdrawn\r\n   */\r\n  function withdraw(uint256 _amountInWeis)\r\n    public\r\n    during(CyclePhase.ChangeMaking)\r\n    onlyParticipant\r\n    whenNotPaused\r\n  {\r\n    require(cycleNumber != 1);\r\n\r\n    //Subtract from account\r\n    totalFundsInWeis = totalFundsInWeis.sub(_amountInWeis);\r\n    balanceOf[msg.sender] = balanceOf[msg.sender].sub(_amountInWeis);\r\n\r\n    //Transfer Ether to user\r\n    msg.sender.transfer(_amountInWeis);\r\n\r\n    //Emit event\r\n    Withdraw(cycleNumber, msg.sender, _amountInWeis, now);\r\n  }\r\n\r\n  /**\r\n   * Ends the ChangeMaking phase.\r\n   */\r\n  function endChangeMakingTime() public during(CyclePhase.ChangeMaking) whenNotPaused rewardCaller {\r\n    require(now >= startTimeOfCyclePhase.add(timeOfChangeMaking));\r\n\r\n    startTimeOfCyclePhase = now;\r\n    cyclePhase = CyclePhase.ProposalMaking;\r\n\r\n    ChangeMakingTimeEnded(cycleNumber, now);\r\n  }\r\n\r\n  /**\r\n   * ProposalMakingTime functions\r\n   */\r\n\r\n  /**\r\n   * Creates a new investment proposal for an ERC20 token.\r\n   * @param _tokenAddress address of the ERC20 token contract\r\n   * @param _stakeInWeis amount of Kairos to be staked in support of the proposal\r\n   */\r\n  function createProposal(\r\n    address _tokenAddress,\r\n    uint256 _stakeInWeis\r\n  )\r\n    public\r\n    during(CyclePhase.ProposalMaking)\r\n    onlyParticipant\r\n    whenNotPaused\r\n  {\r\n    require(numProposals < maxProposals);\r\n    require(!isTokenAlreadyProposed[_tokenAddress]);\r\n    require(createdProposalCount[msg.sender] < maxProposalsPerMember);\r\n\r\n    //Add proposal to list\r\n    proposals.push(Proposal({\r\n      tokenAddress: _tokenAddress,\r\n      buyPriceInWeis: 0,\r\n      sellPriceInWeis: 0,\r\n      numFor: 0,\r\n      numAgainst: 0,\r\n      isSold: false\r\n    }));\r\n\r\n    //Update values about proposal\r\n    isTokenAlreadyProposed[_tokenAddress] = true;\r\n    createdProposalCount[msg.sender] = createdProposalCount[msg.sender].add(1);\r\n    numProposals = numProposals.add(1);\r\n\r\n    //Stake control tokens\r\n    uint256 proposalId = proposals.length - 1;\r\n    stakeProposal(proposalId, _stakeInWeis, true);\r\n\r\n    //Emit event\r\n    NewProposal(cycleNumber, proposalId, _tokenAddress, _stakeInWeis);\r\n  }\r\n\r\n  /**\r\n   * Stakes for or against an investment proposal.\r\n   * @param _proposalId ID of the proposal the user wants to support\r\n   * @param _stakeInWeis amount of Kairo to be staked in support of the proposal\r\n   */\r\n  function stakeProposal(uint256 _proposalId, uint256 _stakeInWeis, bool _support)\r\n    public\r\n    during(CyclePhase.ProposalMaking)\r\n    onlyParticipant\r\n    whenNotPaused\r\n  {\r\n    require(_proposalId < proposals.length); //Valid ID\r\n    require(isTokenAlreadyProposed[proposals[_proposalId].tokenAddress]); //Non-empty proposal\r\n\r\n    /**\r\n     * Stake Kairos\r\n     */\r\n    //Ensure stake is larger than the minimum proportion of Kairo balance\r\n    require(_stakeInWeis.mul(PRECISION) >= minStakeProportion.mul(cToken.balanceOf(msg.sender)));\r\n    require(_stakeInWeis > 0); //Ensure positive stake amount\r\n\r\n    //Collect Kairos as stake\r\n    cToken.ownerCollectFrom(msg.sender, _stakeInWeis);\r\n\r\n    //Update stake data\r\n    if (_support && againstStakedControlOfProposalOfUser[_proposalId][msg.sender] == 0) {\r\n      //Support proposal, hasn't staked against it\r\n      if (forStakedControlOfProposalOfUser[_proposalId][msg.sender] == 0) {\r\n        proposals[_proposalId].numFor = proposals[_proposalId].numFor.add(1);\r\n      }\r\n      forStakedControlOfProposal[_proposalId] = forStakedControlOfProposal[_proposalId].add(_stakeInWeis);\r\n      forStakedControlOfProposalOfUser[_proposalId][msg.sender] = forStakedControlOfProposalOfUser[_proposalId][msg.sender].add(_stakeInWeis);\r\n      cycleTotalForStake = cycleTotalForStake.add(_stakeInWeis);\r\n    } else if (!_support && forStakedControlOfProposalOfUser[_proposalId][msg.sender] == 0) {\r\n      //Against proposal, hasn't staked for it\r\n      if (againstStakedControlOfProposalOfUser[_proposalId][msg.sender] == 0) {\r\n        proposals[_proposalId].numAgainst = proposals[_proposalId].numAgainst.add(1);\r\n      }\r\n      againstStakedControlOfProposal[_proposalId] = againstStakedControlOfProposal[_proposalId].add(_stakeInWeis);\r\n      againstStakedControlOfProposalOfUser[_proposalId][msg.sender] = againstStakedControlOfProposalOfUser[_proposalId][msg.sender].add(_stakeInWeis);\r\n    } else {\r\n      revert();\r\n    }\r\n    userStakedProposalCount[msg.sender] = userStakedProposalCount[msg.sender].add(1);\r\n\r\n    //Emit event\r\n    StakedProposal(cycleNumber, _proposalId, _stakeInWeis, _support);\r\n  }\r\n\r\n  /**\r\n   * Cancels staking in a proposal.\r\n   * @param _proposalId ID of the proposal\r\n   */\r\n  function cancelProposalStake(uint256 _proposalId)\r\n    public\r\n    during(CyclePhase.ProposalMaking)\r\n    onlyParticipant\r\n    whenNotPaused\r\n  {\r\n    require(_proposalId < proposals.length); //Valid ID\r\n    require(__proposalIsValid(_proposalId)); //Non-empty proposal\r\n\r\n    //Remove stake data\r\n    uint256 forStake = forStakedControlOfProposalOfUser[_proposalId][msg.sender];\r\n    uint256 againstStake = againstStakedControlOfProposalOfUser[_proposalId][msg.sender];\r\n    uint256 stake = forStake.add(againstStake);\r\n    if (forStake > 0) {\r\n      forStakedControlOfProposal[_proposalId] = forStakedControlOfProposal[_proposalId].sub(stake);\r\n      cycleTotalForStake = cycleTotalForStake.sub(stake);\r\n      proposals[_proposalId].numFor = proposals[_proposalId].numFor.sub(1);\r\n    } else if (againstStake > 0) {\r\n      againstStakedControlOfProposal[_proposalId] = againstStakedControlOfProposal[_proposalId].sub(stake);\r\n      proposals[_proposalId].numAgainst = proposals[_proposalId].numAgainst.sub(1);\r\n    } else {\r\n      return;\r\n    }\r\n    userStakedProposalCount[msg.sender] = userStakedProposalCount[msg.sender].sub(1);\r\n\r\n    delete forStakedControlOfProposalOfUser[_proposalId][msg.sender];\r\n    delete againstStakedControlOfProposalOfUser[_proposalId][msg.sender];\r\n\r\n    //Return stake\r\n    cToken.transfer(msg.sender, stake);\r\n\r\n    //Delete proposal if necessary\r\n    if (proposals[_proposalId].numFor == 0) {\r\n      __returnStakes(_proposalId);\r\n      __resetProposalData(_proposalId);\r\n      numProposals = numProposals.sub(1);\r\n      delete proposals[_proposalId];\r\n    }\r\n  }\r\n\r\n  /**\r\n   * Ends the ProposalMaking phase.\r\n   */\r\n  function endProposalMakingTime()\r\n    public\r\n    during(CyclePhase.ProposalMaking)\r\n    rewardCaller\r\n    whenNotPaused\r\n  {\r\n    require(now >= startTimeOfCyclePhase.add(timeOfProposalMaking));\r\n\r\n    startTimeOfCyclePhase = now;\r\n    cyclePhase = CyclePhase.Waiting;\r\n\r\n    __penalizeNonparticipation();\r\n\r\n    ProposalMakingTimeEnded(cycleNumber, now);\r\n  }\r\n\r\n  /**\r\n   * Penalizes non-participation by burning a proportion of Kairo balance.\r\n   */\r\n  function __penalizeNonparticipation() internal {\r\n    for (uint256 i = 0; i < participants.length; i = i.add(1)) {\r\n      address participant = participants[i];\r\n      uint256 kairoBalance = cToken.balanceOf(participant);\r\n      if (userStakedProposalCount[participant] == 0 && kairoBalance > 0) {\r\n        uint256 decreaseAmount = kairoBalance.mul(minStakeProportion).div(PRECISION);\r\n        cToken.ownerBurn(participant, decreaseAmount);\r\n      }\r\n    }\r\n  }\r\n\r\n  /**\r\n   * Waiting phase functions\r\n   */\r\n\r\n  /**\r\n   * Called by user to buy the assets of a proposal\r\n   * @param _proposalId the ID of the proposal\r\n   */\r\n  function executeProposal(uint256 _proposalId)\r\n    public\r\n    during(CyclePhase.Waiting)\r\n    whenNotPaused\r\n    rewardCaller\r\n  {\r\n    require(__proposalIsValid(_proposalId));\r\n    require(proposals[_proposalId].buyPriceInWeis == 0);\r\n    __handleInvestment(_proposalId, true);\r\n  }\r\n\r\n  function endWaitingPhase()\r\n    public\r\n    during(CyclePhase.Waiting)\r\n    whenNotPaused\r\n    rewardCaller\r\n  {\r\n    require(now >= startTimeOfCyclePhase.add(timeOfWaiting));\r\n\r\n    startTimeOfCyclePhase = now;\r\n    cyclePhase = CyclePhase.Selling;\r\n\r\n    WaitingPhaseEnded(cycleNumber, now);\r\n  }\r\n\r\n  /**\r\n   * Selling phase functions\r\n   */\r\n\r\n  /**\r\n   * Called by user to sell the assets a proposal invested in\r\n   * @param _proposalId the ID of the proposal\r\n   */\r\n  function sellProposalAsset(uint256 _proposalId)\r\n    public\r\n    during(CyclePhase.Selling)\r\n    whenNotPaused\r\n    rewardCaller\r\n  {\r\n    require(__proposalIsValid(_proposalId));\r\n    require(proposals[_proposalId].buyPriceInWeis > 0);\r\n    __handleInvestment(_proposalId, false);\r\n    __settleBets(_proposalId);\r\n    proposals[_proposalId].isSold = true;\r\n  }\r\n\r\n  /**\r\n   * Finalize the cycle by redistributing user balances and settling investment proposals.\r\n   */\r\n  function finalizeCycle() public during(CyclePhase.Selling) whenNotPaused rewardCaller {\r\n    require(proposalsAreSold());\r\n\r\n    //Update cycle values\r\n    startTimeOfCyclePhase = now;\r\n    cyclePhase = CyclePhase.Finalized;\r\n\r\n    //Burn any Kairo left in BetokenFund's account\r\n    cToken.burnOwnerBalance();\r\n\r\n    //Distribute funds\r\n    __distributeFundsAfterCycleEnd();\r\n\r\n    //Emit event\r\n    CycleFinalized(cycleNumber, now);\r\n  }\r\n\r\n  /**\r\n   * Returns true if the tokens proposals have invested in have all been sold.\r\n   */\r\n  function proposalsAreSold() public view returns (bool) {\r\n    for (uint256 i = 0; i < proposals.length; i = i.add(1)) {\r\n      if (__proposalIsValid(i) && !proposals[i].isSold && proposals[i].buyPriceInWeis > 0) {\r\n        return false;\r\n      }\r\n    }\r\n    return true;\r\n  }\r\n\r\n  /**\r\n   * Internal use functions\r\n   */\r\n\r\n  function __proposalIsValid(uint256 _proposalId) internal view returns (bool) {\r\n    return proposals[_proposalId].numFor > 0;\r\n  }\r\n\r\n  function __addControlTokenReceipientAsParticipant(address _receipient) public {\r\n    require(msg.sender == controlTokenAddr);\r\n    isParticipant[_receipient] = true;\r\n    participants.push(_receipient);\r\n  }\r\n\r\n  /**\r\n   * Returns all stakes of a proposal\r\n   * @param _proposalId ID of the proposal\r\n   */\r\n  function __returnStakes(uint256 _proposalId) internal {\r\n    for (uint256 j = 0; j < participants.length; j = j.add(1)) {\r\n      address participant = participants[j];\r\n      uint256 stake = forStakedControlOfProposalOfUser[_proposalId][participant].add(againstStakedControlOfProposalOfUser[_proposalId][participant]);\r\n      if (stake != 0) {\r\n        cToken.transfer(participant, stake);\r\n      }\r\n    }\r\n  }\r\n\r\n  /**\r\n   * Settles an investment proposal in terms of profitability.\r\n   * @param _proposalId ID of the proposal\r\n   */\r\n  function __settleBets(uint256 _proposalId) internal {\r\n    Proposal storage prop = proposals[_proposalId];\r\n\r\n    uint256 forMultiplier = prop.sellPriceInWeis.mul(PRECISION).div(prop.buyPriceInWeis);\r\n    uint256 againstMultiplier = 0;\r\n    if (prop.sellPriceInWeis < prop.buyPriceInWeis.mul(2)) {\r\n      againstMultiplier = prop.buyPriceInWeis.mul(2).sub(prop.sellPriceInWeis).mul(PRECISION).div(prop.buyPriceInWeis);\r\n    }\r\n\r\n    for (uint256 j = 0; j < participants.length; j = j.add(1)) {\r\n      address participant = participants[j];\r\n      uint256 stake = 0;\r\n      if (forStakedControlOfProposalOfUser[_proposalId][participant] > 0) {\r\n        //User supports proposal\r\n        stake = forStakedControlOfProposalOfUser[_proposalId][participant];\r\n        //Mint instead of transfer. Ensures that there are always enough tokens.\r\n        //Extra will be burnt right after so no problem there.\r\n        cToken.mint(participant, stake.mul(forMultiplier).div(PRECISION));\r\n      } else if (againstStakedControlOfProposalOfUser[_proposalId][participant] > 0) {\r\n        //User is against proposal\r\n        stake = againstStakedControlOfProposalOfUser[_proposalId][participant];\r\n        //Mint instead of transfer. Ensures that there are always enough tokens.\r\n        //Extra will be burnt right after so no problem there.\r\n        cToken.mint(participant, stake.mul(againstMultiplier).div(PRECISION));\r\n      }\r\n    }\r\n  }\r\n\r\n  /**\r\n   * Distributes the funds accourding to previously held proportions. Pays commission to Kairo holders,\r\n   * and developer fees to developers.\r\n   */\r\n  function __distributeFundsAfterCycleEnd() internal {\r\n    uint256 profit = 0;\r\n    if (this.balance > totalFundsInWeis) {\r\n      profit = this.balance - totalFundsInWeis;\r\n    }\r\n    uint256 totalCommission = commissionRate.mul(profit).div(PRECISION);\r\n    uint256 devFee = developerFeeProportion.mul(this.balance).div(PRECISION);\r\n    uint256 newTotalRegularFunds = this.balance.sub(totalCommission).sub(devFee);\r\n\r\n    //Distributes funds to participants\r\n    for (uint256 i = 0; i < participants.length; i = i.add(1)) {\r\n      address participant = participants[i];\r\n      uint256 newBalance = 0;\r\n      //Add share\r\n      if (totalFundsInWeis > 0) {\r\n        newBalance = newBalance.add(newTotalRegularFunds.mul(balanceOf[participant]).div(totalFundsInWeis));\r\n      }\r\n      //Add commission\r\n      //Adding a check for nonzero Kairo supply here makes Truffle go apeshit. Edge case anyways, so whatevs.\r\n      if (cToken.totalSupply() > 0) {\r\n        newBalance = newBalance.add(totalCommission.mul(cToken.balanceOf(participant)).div(cToken.totalSupply()));\r\n      }\r\n      //Update balance\r\n      balanceOf[participant] = newBalance;\r\n    }\r\n\r\n    //Update values\r\n    uint256 newTotalFunds = newTotalRegularFunds.add(totalCommission);\r\n    ROI(cycleNumber, totalFundsInWeis, newTotalFunds);\r\n    totalFundsInWeis = newTotalFunds;\r\n\r\n    //Transfer fees\r\n    developerFeeAccount.transfer(devFee);\r\n\r\n    //Emit event\r\n    CommissionPaid(cycleNumber, totalCommission);\r\n  }\r\n\r\n  function __handleInvestment(uint256 _proposalId, bool _buy) internal {\r\n    uint256 srcAmount;\r\n    uint256 actualDestAmount;\r\n    uint256 actualRate;\r\n    address destAddr = proposals[_proposalId].tokenAddress;\r\n    DetailedERC20 destToken = DetailedERC20(destAddr);\r\n\r\n    if (_buy) {\r\n      //Make buy orders\r\n\r\n      //Calculate investment amount\r\n      srcAmount = totalFundsInWeis.mul(forStakedControlOfProposal[_proposalId]).div(cycleTotalForStake);\r\n\r\n      uint256 beforeBalance = this.balance;\r\n\r\n      //Do trade\r\n      actualDestAmount = kyber.trade.value(srcAmount)(\r\n        ETH_TOKEN_ADDRESS,\r\n        srcAmount,\r\n        destToken,\r\n        address(this),\r\n        MAX_QTY,\r\n        1,\r\n        address(this)\r\n      );\r\n\r\n      //Record buy price\r\n      require(actualDestAmount > 0);\r\n      actualRate = beforeBalance.sub(this.balance).mul(PRECISION).div(actualDestAmount);\r\n      proposals[_proposalId].buyPriceInWeis = actualRate;\r\n    } else {\r\n      //Make sell orders\r\n\r\n      //Get sell amount\r\n      srcAmount = destToken.balanceOf(address(this));\r\n\r\n      //Do trade\r\n      destToken.approve(kyberAddr, srcAmount);\r\n      actualDestAmount = kyber.trade(\r\n        destToken,\r\n        srcAmount,\r\n        ETH_TOKEN_ADDRESS,\r\n        address(this),\r\n        MAX_QTY,\r\n        1,\r\n        address(this)\r\n      );\r\n      destToken.approve(kyberAddr, 0);\r\n\r\n      //Record sell price\r\n      require(srcAmount > destToken.balanceOf(address(this)));\r\n      actualRate = actualDestAmount.mul(PRECISION).div(srcAmount.sub(destToken.balanceOf(address(this))));\r\n      proposals[_proposalId].sellPriceInWeis = actualRate;\r\n    }\r\n  }\r\n\r\n  function() public payable {\r\n    if (msg.sender != kyberAddr) {\r\n      revert();\r\n    }\r\n  }\r\n}",
  "sourcePath": "D:\\msi-cn\\Documents\\GitHub\\betoken\\eth\\contracts\\BetokenFund.sol",
  "compiler": {
    "name": "solc",
    "version": "0.4.19+commit.c4cbbb05.Emscripten.clang"
  },
  "schemaVersion": "2.0.0",
  "updatedAt": "2018-03-08T08:42:09.731Z"
}