{
  "contractName": "BetokenFund",
  "abi": [
    {
      "constant": true,
      "inputs": [
        {
          "name": "",
          "type": "uint256"
        }
      ],
      "name": "proposals",
      "outputs": [
        {
          "name": "tokenAddress",
          "type": "address"
        },
        {
          "name": "tokenSymbol",
          "type": "string"
        },
        {
          "name": "tokenDecimals",
          "type": "uint256"
        },
        {
          "name": "buyPriceInWeis",
          "type": "uint256"
        },
        {
          "name": "sellPriceInWeis",
          "type": "uint256"
        },
        {
          "name": "buyOrderExpirationBlockNum",
          "type": "uint256"
        },
        {
          "name": "sellOrderExpirationBlockNum",
          "type": "uint256"
        },
        {
          "name": "numFor",
          "type": "uint256"
        },
        {
          "name": "numAgainst",
          "type": "uint256"
        }
      ],
      "payable": false,
      "stateMutability": "view",
      "type": "function"
    },
    {
      "constant": true,
      "inputs": [],
      "name": "creator",
      "outputs": [
        {
          "name": "",
          "type": "address"
        }
      ],
      "payable": false,
      "stateMutability": "view",
      "type": "function"
    },
    {
      "constant": true,
      "inputs": [],
      "name": "proposalsCount",
      "outputs": [
        {
          "name": "_count",
          "type": "uint256"
        }
      ],
      "payable": false,
      "stateMutability": "view",
      "type": "function"
    },
    {
      "constant": true,
      "inputs": [
        {
          "name": "",
          "type": "uint256"
        },
        {
          "name": "",
          "type": "address"
        }
      ],
      "name": "forStakedControlOfProposalOfUser",
      "outputs": [
        {
          "name": "",
          "type": "uint256"
        }
      ],
      "payable": false,
      "stateMutability": "view",
      "type": "function"
    },
    {
      "constant": true,
      "inputs": [],
      "name": "initialized",
      "outputs": [
        {
          "name": "",
          "type": "bool"
        }
      ],
      "payable": false,
      "stateMutability": "view",
      "type": "function"
    },
    {
      "constant": true,
      "inputs": [],
      "name": "developerFeeAccount",
      "outputs": [
        {
          "name": "",
          "type": "address"
        }
      ],
      "payable": false,
      "stateMutability": "view",
      "type": "function"
    },
    {
      "constant": true,
      "inputs": [],
      "name": "minStakeProportion",
      "outputs": [
        {
          "name": "",
          "type": "uint256"
        }
      ],
      "payable": false,
      "stateMutability": "view",
      "type": "function"
    },
    {
      "constant": true,
      "inputs": [],
      "name": "tenToDecimals",
      "outputs": [
        {
          "name": "",
          "type": "uint256"
        }
      ],
      "payable": false,
      "stateMutability": "view",
      "type": "function"
    },
    {
      "constant": true,
      "inputs": [],
      "name": "startTimeOfCyclePhase",
      "outputs": [
        {
          "name": "",
          "type": "uint256"
        }
      ],
      "payable": false,
      "stateMutability": "view",
      "type": "function"
    },
    {
      "constant": true,
      "inputs": [],
      "name": "timeOfChangeMaking",
      "outputs": [
        {
          "name": "",
          "type": "uint256"
        }
      ],
      "payable": false,
      "stateMutability": "view",
      "type": "function"
    },
    {
      "constant": false,
      "inputs": [
        {
          "name": "_amountInWeis",
          "type": "uint256"
        }
      ],
      "name": "withdraw",
      "outputs": [],
      "payable": false,
      "stateMutability": "nonpayable",
      "type": "function"
    },
    {
      "constant": true,
      "inputs": [
        {
          "name": "",
          "type": "uint256"
        },
        {
          "name": "",
          "type": "address"
        }
      ],
      "name": "againstStakedControlOfProposalOfUser",
      "outputs": [
        {
          "name": "",
          "type": "uint256"
        }
      ],
      "payable": false,
      "stateMutability": "view",
      "type": "function"
    },
    {
      "constant": true,
      "inputs": [],
      "name": "maxProposals",
      "outputs": [
        {
          "name": "",
          "type": "uint256"
        }
      ],
      "payable": false,
      "stateMutability": "view",
      "type": "function"
    },
    {
      "constant": true,
      "inputs": [],
      "name": "cycleNumber",
      "outputs": [
        {
          "name": "",
          "type": "uint256"
        }
      ],
      "payable": false,
      "stateMutability": "view",
      "type": "function"
    },
    {
      "constant": false,
      "inputs": [
        {
          "name": "_newAddr",
          "type": "address"
        }
      ],
      "name": "changeOraclizeAddress",
      "outputs": [],
      "payable": false,
      "stateMutability": "nonpayable",
      "type": "function"
    },
    {
      "constant": true,
      "inputs": [
        {
          "name": "",
          "type": "uint256"
        }
      ],
      "name": "participants",
      "outputs": [
        {
          "name": "",
          "type": "address"
        }
      ],
      "payable": false,
      "stateMutability": "view",
      "type": "function"
    },
    {
      "constant": false,
      "inputs": [],
      "name": "unpause",
      "outputs": [],
      "payable": false,
      "stateMutability": "nonpayable",
      "type": "function"
    },
    {
      "constant": true,
      "inputs": [],
      "name": "numProposals",
      "outputs": [
        {
          "name": "",
          "type": "uint256"
        }
      ],
      "payable": false,
      "stateMutability": "view",
      "type": "function"
    },
    {
      "constant": true,
      "inputs": [
        {
          "name": "",
          "type": "address"
        }
      ],
      "name": "isTokenAlreadyProposed",
      "outputs": [
        {
          "name": "",
          "type": "bool"
        }
      ],
      "payable": false,
      "stateMutability": "view",
      "type": "function"
    },
    {
      "constant": true,
      "inputs": [],
      "name": "timeOfWaiting",
      "outputs": [
        {
          "name": "",
          "type": "uint256"
        }
      ],
      "payable": false,
      "stateMutability": "view",
      "type": "function"
    },
    {
      "constant": false,
      "inputs": [],
      "name": "topupOraclizeFees",
      "outputs": [],
      "payable": true,
      "stateMutability": "payable",
      "type": "function"
    },
    {
      "constant": true,
      "inputs": [],
      "name": "paused",
      "outputs": [
        {
          "name": "",
          "type": "bool"
        }
      ],
      "payable": false,
      "stateMutability": "view",
      "type": "function"
    },
    {
      "constant": true,
      "inputs": [],
      "name": "commissionRate",
      "outputs": [
        {
          "name": "",
          "type": "uint256"
        }
      ],
      "payable": false,
      "stateMutability": "view",
      "type": "function"
    },
    {
      "constant": false,
      "inputs": [
        {
          "name": "_newProp",
          "type": "uint256"
        }
      ],
      "name": "changeDeveloperFeeProportion",
      "outputs": [],
      "payable": false,
      "stateMutability": "nonpayable",
      "type": "function"
    },
    {
      "constant": false,
      "inputs": [
        {
          "name": "_newProp",
          "type": "uint256"
        }
      ],
      "name": "changeCommissionRate",
      "outputs": [],
      "payable": false,
      "stateMutability": "nonpayable",
      "type": "function"
    },
    {
      "constant": false,
      "inputs": [
        {
          "name": "_tokenAddress",
          "type": "address"
        },
        {
          "name": "_tokenSymbol",
          "type": "string"
        },
        {
          "name": "_tokenDecimals",
          "type": "uint256"
        },
        {
          "name": "_stakeInWeis",
          "type": "uint256"
        }
      ],
      "name": "createProposal",
      "outputs": [],
      "payable": false,
      "stateMutability": "nonpayable",
      "type": "function"
    },
    {
      "constant": true,
      "inputs": [
        {
          "name": "",
          "type": "address"
        }
      ],
      "name": "balanceOf",
      "outputs": [
        {
          "name": "",
          "type": "uint256"
        }
      ],
      "payable": false,
      "stateMutability": "view",
      "type": "function"
    },
    {
      "constant": false,
      "inputs": [
        {
          "name": "_proposalId",
          "type": "uint256"
        },
        {
          "name": "_stakeInWeis",
          "type": "uint256"
        }
      ],
      "name": "supportProposal",
      "outputs": [],
      "payable": false,
      "stateMutability": "nonpayable",
      "type": "function"
    },
    {
      "constant": true,
      "inputs": [],
      "name": "totalFundsInWeis",
      "outputs": [
        {
          "name": "",
          "type": "uint256"
        }
      ],
      "payable": false,
      "stateMutability": "view",
      "type": "function"
    },
    {
      "constant": false,
      "inputs": [],
      "name": "startNewCycle",
      "outputs": [],
      "payable": false,
      "stateMutability": "nonpayable",
      "type": "function"
    },
    {
      "constant": true,
      "inputs": [],
      "name": "totalStaked",
      "outputs": [
        {
          "name": "",
          "type": "uint256"
        }
      ],
      "payable": false,
      "stateMutability": "view",
      "type": "function"
    },
    {
      "constant": true,
      "inputs": [],
      "name": "maxProposalsPerMember",
      "outputs": [
        {
          "name": "",
          "type": "uint256"
        }
      ],
      "payable": false,
      "stateMutability": "view",
      "type": "function"
    },
    {
      "constant": true,
      "inputs": [],
      "name": "orderExpirationTimeInBlocks",
      "outputs": [
        {
          "name": "",
          "type": "uint256"
        }
      ],
      "payable": false,
      "stateMutability": "view",
      "type": "function"
    },
    {
      "constant": false,
      "inputs": [],
      "name": "pause",
      "outputs": [],
      "payable": false,
      "stateMutability": "nonpayable",
      "type": "function"
    },
    {
      "constant": false,
      "inputs": [
        {
          "name": "_cTokenAddr",
          "type": "address"
        },
        {
          "name": "_oraclizeAddr",
          "type": "address"
        }
      ],
      "name": "initializeSubcontracts",
      "outputs": [],
      "payable": false,
      "stateMutability": "nonpayable",
      "type": "function"
    },
    {
      "constant": false,
      "inputs": [],
      "name": "endWaitingTime",
      "outputs": [],
      "payable": false,
      "stateMutability": "nonpayable",
      "type": "function"
    },
    {
      "constant": true,
      "inputs": [],
      "name": "owner",
      "outputs": [
        {
          "name": "",
          "type": "address"
        }
      ],
      "payable": false,
      "stateMutability": "view",
      "type": "function"
    },
    {
      "constant": false,
      "inputs": [
        {
          "name": "_proposalId",
          "type": "uint256"
        }
      ],
      "name": "cancelProposalSupport",
      "outputs": [],
      "payable": false,
      "stateMutability": "nonpayable",
      "type": "function"
    },
    {
      "constant": false,
      "inputs": [],
      "name": "endProposalMakingTime",
      "outputs": [],
      "payable": false,
      "stateMutability": "nonpayable",
      "type": "function"
    },
    {
      "constant": true,
      "inputs": [
        {
          "name": "",
          "type": "address"
        }
      ],
      "name": "isParticipant",
      "outputs": [
        {
          "name": "",
          "type": "bool"
        }
      ],
      "payable": false,
      "stateMutability": "view",
      "type": "function"
    },
    {
      "constant": true,
      "inputs": [],
      "name": "etherDeltaAddr",
      "outputs": [
        {
          "name": "",
          "type": "address"
        }
      ],
      "payable": false,
      "stateMutability": "view",
      "type": "function"
    },
    {
      "constant": true,
      "inputs": [],
      "name": "timeOfSellOrderWaiting",
      "outputs": [
        {
          "name": "",
          "type": "uint256"
        }
      ],
      "payable": false,
      "stateMutability": "view",
      "type": "function"
    },
    {
      "constant": true,
      "inputs": [],
      "name": "oraclizeAddr",
      "outputs": [
        {
          "name": "",
          "type": "address"
        }
      ],
      "payable": false,
      "stateMutability": "view",
      "type": "function"
    },
    {
      "constant": false,
      "inputs": [
        {
          "name": "_proposalId",
          "type": "uint256"
        },
        {
          "name": "_buyPrice",
          "type": "uint256"
        },
        {
          "name": "_expires",
          "type": "uint256"
        }
      ],
      "name": "__setBuyPriceAndExpirationBlock",
      "outputs": [],
      "payable": false,
      "stateMutability": "nonpayable",
      "type": "function"
    },
    {
      "constant": false,
      "inputs": [
        {
          "name": "_newAddr",
          "type": "address"
        }
      ],
      "name": "changeDeveloperFeeAccount",
      "outputs": [],
      "payable": false,
      "stateMutability": "nonpayable",
      "type": "function"
    },
    {
      "constant": false,
      "inputs": [
        {
          "name": "_newAddr",
          "type": "address"
        }
      ],
      "name": "changeEtherDeltaAddress",
      "outputs": [],
      "payable": false,
      "stateMutability": "nonpayable",
      "type": "function"
    },
    {
      "constant": true,
      "inputs": [
        {
          "name": "",
          "type": "uint256"
        }
      ],
      "name": "forStakedControlOfProposal",
      "outputs": [
        {
          "name": "",
          "type": "uint256"
        }
      ],
      "payable": false,
      "stateMutability": "view",
      "type": "function"
    },
    {
      "constant": false,
      "inputs": [],
      "name": "endChangeMakingTime",
      "outputs": [],
      "payable": false,
      "stateMutability": "nonpayable",
      "type": "function"
    },
    {
      "constant": true,
      "inputs": [],
      "name": "developerFeeProportion",
      "outputs": [
        {
          "name": "",
          "type": "uint256"
        }
      ],
      "payable": false,
      "stateMutability": "view",
      "type": "function"
    },
    {
      "constant": false,
      "inputs": [
        {
          "name": "_proposalId",
          "type": "uint256"
        },
        {
          "name": "_sellPrice",
          "type": "uint256"
        },
        {
          "name": "_expires",
          "type": "uint256"
        }
      ],
      "name": "__setSellPriceAndExpirationBlock",
      "outputs": [],
      "payable": false,
      "stateMutability": "nonpayable",
      "type": "function"
    },
    {
      "constant": false,
      "inputs": [],
      "name": "deposit",
      "outputs": [],
      "payable": true,
      "stateMutability": "payable",
      "type": "function"
    },
    {
      "constant": false,
      "inputs": [
        {
          "name": "_newOwner",
          "type": "address"
        }
      ],
      "name": "changeOraclizeOwner",
      "outputs": [],
      "payable": false,
      "stateMutability": "nonpayable",
      "type": "function"
    },
    {
      "constant": true,
      "inputs": [],
      "name": "timeOfProposalMaking",
      "outputs": [
        {
          "name": "",
          "type": "uint256"
        }
      ],
      "payable": false,
      "stateMutability": "view",
      "type": "function"
    },
    {
      "constant": false,
      "inputs": [],
      "name": "emergencyWithdraw",
      "outputs": [],
      "payable": false,
      "stateMutability": "nonpayable",
      "type": "function"
    },
    {
      "constant": true,
      "inputs": [],
      "name": "controlTokenAddr",
      "outputs": [
        {
          "name": "",
          "type": "address"
        }
      ],
      "payable": false,
      "stateMutability": "view",
      "type": "function"
    },
    {
      "constant": true,
      "inputs": [],
      "name": "participantsCount",
      "outputs": [
        {
          "name": "_count",
          "type": "uint256"
        }
      ],
      "payable": false,
      "stateMutability": "view",
      "type": "function"
    },
    {
      "constant": false,
      "inputs": [
        {
          "name": "_newOwner",
          "type": "address"
        }
      ],
      "name": "changeControlTokenOwner",
      "outputs": [],
      "payable": false,
      "stateMutability": "nonpayable",
      "type": "function"
    },
    {
      "constant": true,
      "inputs": [
        {
          "name": "",
          "type": "address"
        }
      ],
      "name": "createdProposalCount",
      "outputs": [
        {
          "name": "",
          "type": "uint256"
        }
      ],
      "payable": false,
      "stateMutability": "view",
      "type": "function"
    },
    {
      "constant": false,
      "inputs": [],
      "name": "finalizeCycle",
      "outputs": [],
      "payable": false,
      "stateMutability": "nonpayable",
      "type": "function"
    },
    {
      "constant": false,
      "inputs": [
        {
          "name": "_tokenGet",
          "type": "address"
        },
        {
          "name": "_amountGet",
          "type": "uint256"
        },
        {
          "name": "_tokenGive",
          "type": "address"
        },
        {
          "name": "_amountGive",
          "type": "uint256"
        },
        {
          "name": "_expires",
          "type": "uint256"
        },
        {
          "name": "_nonce",
          "type": "uint256"
        }
      ],
      "name": "__makeOrder",
      "outputs": [],
      "payable": false,
      "stateMutability": "nonpayable",
      "type": "function"
    },
    {
      "constant": false,
      "inputs": [
        {
          "name": "_receipient",
          "type": "address"
        }
      ],
      "name": "__addControlTokenReceipientAsParticipant",
      "outputs": [],
      "payable": false,
      "stateMutability": "nonpayable",
      "type": "function"
    },
    {
      "constant": false,
      "inputs": [
        {
          "name": "newOwner",
          "type": "address"
        }
      ],
      "name": "transferOwnership",
      "outputs": [],
      "payable": false,
      "stateMutability": "nonpayable",
      "type": "function"
    },
    {
      "constant": true,
      "inputs": [],
      "name": "cyclePhase",
      "outputs": [
        {
          "name": "",
          "type": "uint8"
        }
      ],
      "payable": false,
      "stateMutability": "view",
      "type": "function"
    },
    {
      "inputs": [
        {
          "name": "_etherDeltaAddr",
          "type": "address"
        },
        {
          "name": "_developerFeeAccount",
          "type": "address"
        },
        {
          "name": "_tenToDecimals",
          "type": "uint256"
        },
        {
          "name": "_timeOfChangeMaking",
          "type": "uint256"
        },
        {
          "name": "_timeOfProposalMaking",
          "type": "uint256"
        },
        {
          "name": "_timeOfWaiting",
          "type": "uint256"
        },
        {
          "name": "_timeOfSellOrderWaiting",
          "type": "uint256"
        },
        {
          "name": "_minStakeProportion",
          "type": "uint256"
        },
        {
          "name": "_maxProposals",
          "type": "uint256"
        },
        {
          "name": "_commissionRate",
          "type": "uint256"
        },
        {
          "name": "_orderExpirationTimeInBlocks",
          "type": "uint256"
        },
        {
          "name": "_developerFeeProportion",
          "type": "uint256"
        },
        {
          "name": "_maxProposalsPerMember",
          "type": "uint256"
        }
      ],
      "payable": false,
      "stateMutability": "nonpayable",
      "type": "constructor"
    },
    {
      "payable": true,
      "stateMutability": "payable",
      "type": "fallback"
    },
    {
      "anonymous": false,
      "inputs": [
        {
          "indexed": false,
          "name": "_cycleNumber",
          "type": "uint256"
        },
        {
          "indexed": false,
          "name": "_timestamp",
          "type": "uint256"
        }
      ],
      "name": "CycleStarted",
      "type": "event"
    },
    {
      "anonymous": false,
      "inputs": [
        {
          "indexed": false,
          "name": "_cycleNumber",
          "type": "uint256"
        },
        {
          "indexed": false,
          "name": "_sender",
          "type": "address"
        },
        {
          "indexed": false,
          "name": "_amountInWeis",
          "type": "uint256"
        },
        {
          "indexed": false,
          "name": "_timestamp",
          "type": "uint256"
        }
      ],
      "name": "Deposit",
      "type": "event"
    },
    {
      "anonymous": false,
      "inputs": [
        {
          "indexed": false,
          "name": "_cycleNumber",
          "type": "uint256"
        },
        {
          "indexed": false,
          "name": "_sender",
          "type": "address"
        },
        {
          "indexed": false,
          "name": "_amountInWeis",
          "type": "uint256"
        },
        {
          "indexed": false,
          "name": "_timestamp",
          "type": "uint256"
        }
      ],
      "name": "Withdraw",
      "type": "event"
    },
    {
      "anonymous": false,
      "inputs": [
        {
          "indexed": false,
          "name": "_cycleNumber",
          "type": "uint256"
        },
        {
          "indexed": false,
          "name": "_timestamp",
          "type": "uint256"
        }
      ],
      "name": "ChangeMakingTimeEnded",
      "type": "event"
    },
    {
      "anonymous": false,
      "inputs": [
        {
          "indexed": false,
          "name": "_cycleNumber",
          "type": "uint256"
        },
        {
          "indexed": false,
          "name": "_id",
          "type": "uint256"
        },
        {
          "indexed": false,
          "name": "_tokenAddress",
          "type": "address"
        },
        {
          "indexed": false,
          "name": "_tokenSymbol",
          "type": "string"
        },
        {
          "indexed": false,
          "name": "_amountInWeis",
          "type": "uint256"
        }
      ],
      "name": "NewProposal",
      "type": "event"
    },
    {
      "anonymous": false,
      "inputs": [
        {
          "indexed": false,
          "name": "_cycleNumber",
          "type": "uint256"
        },
        {
          "indexed": false,
          "name": "_id",
          "type": "uint256"
        },
        {
          "indexed": false,
          "name": "_amountInWeis",
          "type": "uint256"
        }
      ],
      "name": "SupportedProposal",
      "type": "event"
    },
    {
      "anonymous": false,
      "inputs": [
        {
          "indexed": false,
          "name": "_cycleNumber",
          "type": "uint256"
        },
        {
          "indexed": false,
          "name": "_timestamp",
          "type": "uint256"
        }
      ],
      "name": "ProposalMakingTimeEnded",
      "type": "event"
    },
    {
      "anonymous": false,
      "inputs": [
        {
          "indexed": false,
          "name": "_cycleNumber",
          "type": "uint256"
        },
        {
          "indexed": false,
          "name": "_timestamp",
          "type": "uint256"
        }
      ],
      "name": "CycleEnded",
      "type": "event"
    },
    {
      "anonymous": false,
      "inputs": [
        {
          "indexed": false,
          "name": "_cycleNumber",
          "type": "uint256"
        },
        {
          "indexed": false,
          "name": "_timestamp",
          "type": "uint256"
        }
      ],
      "name": "CycleFinalized",
      "type": "event"
    },
    {
      "anonymous": false,
      "inputs": [
        {
          "indexed": false,
          "name": "_cycleNumber",
          "type": "uint256"
        },
        {
          "indexed": false,
          "name": "_beforeTotalFunds",
          "type": "uint256"
        },
        {
          "indexed": false,
          "name": "_afterTotalFunds",
          "type": "uint256"
        }
      ],
      "name": "ROI",
      "type": "event"
    },
    {
      "anonymous": false,
      "inputs": [
        {
          "indexed": false,
          "name": "_cycleNumber",
          "type": "uint256"
        },
        {
          "indexed": false,
          "name": "_member",
          "type": "address"
        },
        {
          "indexed": false,
          "name": "_success",
          "type": "bool"
        }
      ],
      "name": "PredictionResult",
      "type": "event"
    },
    {
      "anonymous": false,
      "inputs": [
        {
          "indexed": false,
          "name": "_cycleNumber",
          "type": "uint256"
        },
        {
          "indexed": false,
          "name": "_totalCommissionInWeis",
          "type": "uint256"
        }
      ],
      "name": "CommissionPaid",
      "type": "event"
    },
    {
      "anonymous": false,
      "inputs": [],
      "name": "Pause",
      "type": "event"
    },
    {
      "anonymous": false,
      "inputs": [],
      "name": "Unpause",
      "type": "event"
    },
    {
      "anonymous": false,
      "inputs": [
        {
          "indexed": true,
          "name": "previousOwner",
          "type": "address"
        },
        {
          "indexed": true,
          "name": "newOwner",
          "type": "address"
        }
      ],
      "name": "OwnershipTransferred",
      "type": "event"
    }
  ],
  "bytecode": "0x60606040526000805460a060020a60ff021916905534156200002057600080fd5b6040516101a08062003def8339810160405280805191906020018051919060200180519190602001805191906020018051919060200180519190602001805191906020018051919060200180519190602001805191906020018051919060200180519190602001805160008054600160a060020a03191633600160a060020a03161781559092508c119050620000b557600080fd5b8a8610620000c257600080fd5b8a620000dd8584640100000000620028b9620001ff82021704565b10620000e857600080fd5b8c600260006101000a815481600160a060020a030219169083600160a060020a031602179055508b600560006101000a815481600160a060020a030219169083600160a060020a031602179055508a60078190555089600a8190555088600b8190555087600c8190555086600d8190555085600e8190555084600f819055508360108190555082601181905550816012819055508060138190555060006009819055506004602260146101000a81548160ff02191690836004811115620001ab57fe5b02179055505060048054600160a060020a03338116600160a060020a0319928316179092556000601481905560065560025460218054909216921691909117905550620002169a5050505050505050505050565b6000828201838110156200020f57fe5b9392505050565b613bc980620002266000396000f3006060604052600436106102d15763ffffffff60e060020a600035041663013cf08b811461030b57806302d05d3f146103f45780630a9f46ad146104235780630f6f17d214610448578063158ef93e1461046a5780631ab371fc146104915780631dcf8ceb146104a45780631f12b0e8146104b757806325f842c5146104ca57806328ac1228146104dd5780632e1a7d4d146104f05780632e33de6a146105065780632f3fe24c146105285780632f8847101461053b57806334c7502b1461054e57806335c1d3491461056d5780633f4ba83a14610583578063400e3949146105965780634773822e146105a95780634f634790146105c857806358e0abec146105db5780635c975abb146105e35780635ea1d6f8146105f657806364542e3e146106095780636642642a1461061f5780636c46ab691461063557806370a082311461069b5780637b3b346b146106ba5780637e714dd2146106d35780637f2736d1146106e6578063817b1cd2146106f957806383d324611461070c5780638456799b1461071f5780638456cb591461073257806384e4807714610745578063866fc4e41461076a5780638da5cb5b1461077d5780638fb644bb1461079057806390c31d5d146107a6578063929066f5146107b957806395fa9fc9146107d85780639e125850146107eb578063a23a6f9e146107fe578063a418117414610811578063b18e8a8d1461082d578063b462c8fa1461084c578063b484cf8d1461086b578063b64af4b114610881578063ba25887d14610894578063bc127301146108a7578063d0e30db0146108c3578063d217e14b146108cb578063d78b3b1c146108ea578063db2e21bc146108fd578063dc87454c14610910578063dd60c89814610923578063e7476abf14610936578063ebc95b1214610955578063ec33d2a014610974578063f1cd92f114610987578063f245fbc7146109b9578063f2fde38b146109d8578063f6558b00146109f7575b60025433600160a060020a039081169116148015906102ff575060035433600160a060020a03908116911614155b1561030957600080fd5b005b341561031657600080fd5b610321600435610a2e565b604051600160a060020a038a16815260408101889052606081018790526080810186905260a0810185905260c0810184905260e08101839052610100808201839052610120602083018181528b54600260018216159094026000190116929092049083018190526101408301908b9080156103dd5780601f106103b2576101008083540402835291602001916103dd565b820191906000526020600020905b8154815290600101906020018083116103c057829003601f168201915b50509a505050505050505050505060405180910390f35b34156103ff57600080fd5b610407610a91565b604051600160a060020a03909116815260200160405180910390f35b341561042e57600080fd5b610436610aa0565b60405190815260200160405180910390f35b341561045357600080fd5b610436600435600160a060020a0360243516610aa7565b341561047557600080fd5b61047d610ac4565b604051901515815260200160405180910390f35b341561049c57600080fd5b610407610acd565b34156104af57600080fd5b610436610adc565b34156104c257600080fd5b610436610ae2565b34156104d557600080fd5b610436610ae8565b34156104e857600080fd5b610436610aee565b34156104fb57600080fd5b610309600435610af4565b341561051157600080fd5b610436600435600160a060020a0360243516610c4a565b341561053357600080fd5b610436610c67565b341561054657600080fd5b610436610c6d565b341561055957600080fd5b610309600160a060020a0360043516610c73565b341561057857600080fd5b610407600435610ccf565b341561058e57600080fd5b610309610cf7565b34156105a157600080fd5b610436610d68565b34156105b457600080fd5b61047d600160a060020a0360043516610d6e565b34156105d357600080fd5b610436610d83565b610309610d89565b34156105ee57600080fd5b61047d610dbf565b341561060157600080fd5b610436610dcf565b341561061457600080fd5b610309600435610dd5565b341561062a57600080fd5b610309600435610e03565b341561064057600080fd5b61030960048035600160a060020a03169060446024803590810190830135806020601f8201819004810201604051908101604052818152929190602084018383808284375094965050843594602001359350610e2392505050565b34156106a657600080fd5b610436600160a060020a03600435166111fb565b34156106c557600080fd5b61030960043560243561120d565b34156106de57600080fd5b61043661154c565b34156106f157600080fd5b610309611552565b341561070457600080fd5b6104366116f5565b341561071757600080fd5b6104366116fb565b341561072a57600080fd5b610436611701565b341561073d57600080fd5b610309611707565b341561075057600080fd5b610309600160a060020a036004358116906024351661177d565b341561077557600080fd5b610309611808565b341561078857600080fd5b61040761197f565b341561079b57600080fd5b61030960043561198e565b34156107b157600080fd5b610309611c28565b34156107c457600080fd5b61047d600160a060020a0360043516611cff565b34156107e357600080fd5b610407611d14565b34156107f657600080fd5b610436611d23565b341561080957600080fd5b610407611d29565b341561081c57600080fd5b610309600435602435604435611d38565b341561083857600080fd5b610309600160a060020a0360043516611da2565b341561085757600080fd5b610309600160a060020a0360043516611df4565b341561087657600080fd5b610436600435611eae565b341561088c57600080fd5b610309611ec0565b341561089f57600080fd5b610436611f78565b34156108b257600080fd5b610309600435602435604435611f7e565b610309611fe8565b34156108d657600080fd5b610309600160a060020a03600435166121d4565b34156108f557600080fd5b610436612254565b341561090857600080fd5b61030961225a565b341561091b57600080fd5b61040761236a565b341561092e57600080fd5b610436612379565b341561094157600080fd5b610309600160a060020a036004351661237f565b341561096057600080fd5b610436600160a060020a03600435166123ff565b341561097f57600080fd5b610309612411565b341561099257600080fd5b610309600160a060020a03600435811690602435906044351660643560843560a4356126c1565b34156109c457600080fd5b610309600160a060020a036004351661278a565b34156109e357600080fd5b610309600160a060020a0360043516612809565b3415610a0257600080fd5b610a0a612897565b60405180826004811115610a1a57fe5b60ff16815260200191505060405180910390f35b601f805482908110610a3c57fe5b6000918252602090912060099091020180546002820154600383015460048401546005850154600686015460078701546008880154600160a060020a0390971698506001909701969495939492939192909189565b600454600160a060020a031681565b601f545b90565b601b60209081526000928352604080842090915290825290205481565b60165460ff1681565b600554600160a060020a031681565b600e5481565b60075481565b60095481565b600a5481565b60008060225460a060020a900460ff166004811115610b0f57fe5b14610b1957600080fd5b600160a060020a03331660009081526017602052604090205460ff161515610b4057600080fd5b60005460a060020a900460ff1615610b5757600080fd5b60065460011415610b6757600080fd5b600854610b7a908363ffffffff6128a716565b600855600160a060020a033316600090815260186020526040902054610ba6908363ffffffff6128a716565b600160a060020a03331660008181526018602052604090819020929092559083156108fc0290849051600060405180830381858888f193505050501515610bec57600080fd5b7fb0ecf14e184effded5473bba77dcfab32b094b77ac1fbb36beec2aef55587970600654338442604051938452600160a060020a03909216602084015260408084019190915260608301919091526080909101905180910390a15050565b601c60209081526000928352604080842090915290825290205481565b600f5481565b60065481565b60005433600160a060020a03908116911614610c8e57600080fd5b600160a060020a0381161515610ca357600080fd5b60038054600160a060020a03909216600160a060020a0319928316811790915560228054909216179055565b601e805482908110610cdd57fe5b600091825260209091200154600160a060020a0316905081565b60005433600160a060020a03908116911614610d1257600080fd5b60005460a060020a900460ff161515610d2a57600080fd5b6000805460a060020a60ff02191690557f7805862f689e2f13df9f062ff482ad3ad112aca9e0847911ed832e158c525b3360405160405180910390a1565b60145481565b601d6020526000908152604090205460ff1681565b600c5481565b600354600160a060020a03163480156108fc0290604051600060405180830381858888f193505050501515610dbd57600080fd5b565b60005460a060020a900460ff1681565b60105481565b60005433600160a060020a03908116911614610df057600080fd5b6012548110610dfe57600080fd5b601255565b60005433600160a060020a03908116911614610e1e57600080fd5b601055565b600060018060225460a060020a900460ff166004811115610e4057fe5b14610e4a57600080fd5b600160a060020a03331660009081526017602052604090205460ff161515610e7157600080fd5b60005460a060020a900460ff1615610e8857600080fd5b600f5460145410610e9857600080fd5b600160a060020a0386166000908152601d602052604090205460ff1615610ebe57600080fd5b601354600160a060020a0333166000908152601a602052604090205410610ee457600080fd5b601f805460018101610ef683826139c8565b91600052602060002090600902016000610120604051908101604052808a600160a060020a0316815260200189815260200188815260200160008152602001600081526020016000815260200160008152602001600081526020016000815250909190915060008201518154600160a060020a031916600160a060020a0391909116178155602082015181600101908051610f959291602001906139f4565b5060408201518160020155606082015181600301556080820151816004015560a0820151816005015560c0820151816006015560e082015181600701556101008201516008909101555050600160a060020a038087166000908152601d602052604090819020805460ff1916600117905560225490911690633455d73e908790518263ffffffff1660e060020a0281526004018080602001828103825283818151815260200191508051906020019080838360005b8381101561106257808201518382015260200161104a565b50505050905090810190601f16801561108f5780820380516001836020036101000a031916815260200191505b5092505050600060405180830381600087803b15156110ad57600080fd5b6102c65a03f115156110be57600080fd5b505050600160a060020a0333166000908152601a60205260409020546110eb90600163ffffffff6128b916565b600160a060020a0333166000908152601a602052604090205560145461111890600163ffffffff6128b916565b601455601f5460001901915061112e828461120d565b7f39efe5de2a7fb314f1bfefde235db361176dcf978143fe59ec807b96bce0e3356006548388888760405185815260208101859052600160a060020a03841660408201526080810182905260a06060820181815290820184818151815260200191508051906020019080838360005b838110156111b557808201518382015260200161119d565b50505050905090810190601f1680156111e25780820380516001836020036101000a031916815260200191505b50965050505050505060405180910390a1505050505050565b60186020526000908152604090205481565b60018060225460a060020a900460ff16600481111561122857fe5b1461123257600080fd5b600160a060020a03331660009081526017602052604090205460ff16151561125957600080fd5b60005460a060020a900460ff161561127057600080fd5b601f54831061127e57600080fd5b601d6000601f8581548110151561129157fe5b60009182526020808320600990920290910154600160a060020a0316835282019290925260400190205460ff1615156112c957600080fd5b60205461134f90600160a060020a03166370a082313360006040516020015260405160e060020a63ffffffff8416028152600160a060020a039091166004820152602401602060405180830381600087803b151561132657600080fd5b6102c65a03f1151561133757600080fd5b5050506040518051600e54915063ffffffff6128d316565b60075461136390849063ffffffff6128d316565b101561136e57600080fd5b602054600160a060020a0316632bee7bde338460006040516020015260405160e060020a63ffffffff8516028152600160a060020a0390921660048301526024820152604401602060405180830381600087803b15156113cd57600080fd5b6102c65a03f115156113de57600080fd5b505050604051805150506000838152601b60209081526040808320600160a060020a03331684529091529020541515611469576114456001601f8581548110151561142557fe5b9060005260206000209060090201600701546128b990919063ffffffff16565b601f80548590811061145357fe5b9060005260206000209060090201600701819055505b600083815260196020526040902054611488908363ffffffff6128b916565b600084815260196020908152604080832093909355601b8152828220600160a060020a0333168352905220546114c4908363ffffffff6128b916565b6000848152601b60209081526040808320600160a060020a03331684529091529020556015546114fa908363ffffffff6128b916565b6015556006547fa736789dcfb52f0b1a8435926ec8b18ae01d53345345787987b86f8e5809cd4f90848460405180848152602001838152602001828152602001935050505060405180910390a1505050565b60085481565b600060048060225460a060020a900460ff16600481111561156f57fe5b1461157957600080fd5b60005460a060020a900460ff161561159057600080fd5b60165460ff1615156115a157600080fd5b6022805460a060020a60ff0219169055426009556006546115c39060016128b9565b600655600091505b601e5482101561161957611601601e838154811015156115e757fe5b600091825260209091200154600160a060020a03166128fe565b61161282600163ffffffff6128b916565b91506115cb565b600091505b601f54821015611649576116318261297a565b61164282600163ffffffff6128b916565b915061161e565b602254600160a060020a03166332f42b546040518163ffffffff1660e060020a028152600401600060405180830381600087803b151561168857600080fd5b6102c65a03f1151561169957600080fd5b505050601f60006116aa9190613a72565b600060148190556015556006547f62eeb403dc233a7676f50cdb0fd72dae595aeb7c63039adce5caacc33254f9c0904260405191825260208201526040908101905180910390a15050565b60155481565b60135481565b60115481565b60005433600160a060020a0390811691161461172257600080fd5b60005460a060020a900460ff161561173957600080fd5b6000805460a060020a60ff02191660a060020a1790557f6985a02210a168e66602d3235cb6db0e70f92b3ba4d376a33c0f3d9434bff62560405160405180910390a1565b60045433600160a060020a0390811691161461179857600080fd5b60165460ff16156117a857600080fd5b6016805460ff191660019081179091558054600160a060020a03938416600160a060020a03199182161791829055600380549385169382169390931792839055602080548216928516929092179091556022805490911691909216179055565b600060028060225460a060020a900460ff16600481111561182557fe5b1461182f57600080fd5b60005460a060020a900460ff161561184657600080fd5b600c5460095461185b9163ffffffff6128b916565b42101561186757600080fd5b426009556022805460a060020a60ff02191674030000000000000000000000000000000000000000179055600091505b601f5482101561193f576000601f838154811015156118b257fe5b906000526020600020906009020160070154111561192757602254600160a060020a03166360fc3f8e8360405160e060020a63ffffffff84160281526004810191909152602401600060405180830381600087803b151561191257600080fd5b6102c65a03f1151561192357600080fd5b5050505b61193882600163ffffffff6128b916565b9150611897565b7fe1a58fd1bf66f9e9b1034d0c18caf7f52dd92caa648db643d1c98438402bd34e6006544260405191825260208201526040908101905180910390a15050565b600054600160a060020a031681565b600060018060225460a060020a900460ff1660048111156119ab57fe5b146119b557600080fd5b600160a060020a03331660009081526017602052604090205460ff1615156119dc57600080fd5b60005460a060020a900460ff16156119f357600080fd5b601f548310611a0157600080fd5b6000601f84815481101515611a1257fe5b906000526020600020906009020160070154111515611a3057600080fd5b6000838152601b60209081526040808320600160a060020a03331684528252808320805490849055868452601990925290912054909250611a77908363ffffffff6128a716565b600084815260196020526040902055601554611a99908363ffffffff6128a716565b601555601f8054611ad19160019186908110611ab157fe5b9060005260206000209060090201600701546128a790919063ffffffff16565b601f805485908110611adf57fe5b906000526020600020906009020160070181905550602060009054906101000a9004600160a060020a0316600160a060020a031663a9059cbb338460006040516020015260405160e060020a63ffffffff8516028152600160a060020a0390921660048301526024820152604401602060405180830381600087803b1515611b6657600080fd5b6102c65a03f11515611b7757600080fd5b505050604051805150506000838152601960205260409020541515611c2357611b9f8361297a565b601454611bb390600163ffffffff6128a716565b601455601f805484908110611bc457fe5b6000918252602082206009909102018054600160a060020a031916815590611bef6001830182613a96565b5060006002820181905560038201819055600482018190556005820181905560068201819055600782018190556008909101555b505050565b60018060225460a060020a900460ff166004811115611c4357fe5b14611c4d57600080fd5b60005460a060020a900460ff1615611c6457600080fd5b600b54600954611c799163ffffffff6128b916565b421015611c8557600080fd5b426009556022805460a060020a60ff02191674020000000000000000000000000000000000000000179055611cb86129ce565b611cc0612e5f565b7fc26cea5d11470524f2c181454de04fcfb1a0349aba5606ea3eb1a8ec87e1f54e6006544260405191825260208201526040908101905180910390a150565b60176020526000908152604090205460ff1681565b600254600160a060020a031681565b600d5481565b600354600160a060020a031681565b60035433600160a060020a03908116911614611d5357600080fd5b81601f84815481101515611d6357fe5b90600052602060002090600902016003018190555080601f84815481101515611d8857fe5b906000526020600020906009020160050181905550505050565b60005433600160a060020a03908116911614611dbd57600080fd5b600160a060020a0381161515611dd257600080fd5b60058054600160a060020a031916600160a060020a0392909216919091179055565b60005433600160a060020a03908116911614611e0f57600080fd5b600160a060020a0381161515611e2457600080fd5b60028054600160a060020a0319908116600160a060020a038481169182179093556021805490921617905560225416635aeed50a8260405160e060020a63ffffffff8416028152600160a060020a039091166004820152602401600060405180830381600087803b1515611e9757600080fd5b6102c65a03f11515611ea857600080fd5b50505050565b60196020526000908152604090205481565b60008060225460a060020a900460ff166004811115611edb57fe5b14611ee557600080fd5b60005460a060020a900460ff1615611efc57600080fd5b600a54600954611f119163ffffffff6128b916565b421015611f1d57600080fd5b4260098190556022805460a060020a60ff02191660a060020a1790556006547f3c3379a2308ae89ee638561d0222706de289bea89968dd555b533795071130fb9160405191825260208201526040908101905180910390a150565b60125481565b60035433600160a060020a03908116911614611f9957600080fd5b81601f84815481101515611fa957fe5b90600052602060002090600902016004018190555080601f84815481101515611fce57fe5b906000526020600020906009020160060181905550505050565b60008060225460a060020a900460ff16600481111561200357fe5b1461200d57600080fd5b60005460a060020a900460ff161561202457600080fd5b600160a060020a03331660009081526017602052604090205460ff16151561209957601e8054600181016120588382613ada565b5060009182526020808320919091018054600160a060020a03191633600160a060020a031690811790915582526017905260409020805460ff191660011790555b600160a060020a0333166000908152601860205260409020546120c2903463ffffffff6128b916565b600160a060020a0333166000908152601860205260409020556008546120ee903463ffffffff6128b916565b6008556006546001141561217757602054600160a060020a03166340c10f19333460006040516020015260405160e060020a63ffffffff8516028152600160a060020a0390921660048301526024820152604401602060405180830381600087803b151561215b57600080fd5b6102c65a03f1151561216c57600080fd5b505050604051805150505b7fd36a2f67d06d285786f61a32b052b9ace6b0b7abef5177b54358abdc83a0b69b600654333442604051938452600160a060020a03909216602084015260408084019190915260608301919091526080909101905180910390a150565b60005433600160a060020a039081169116146121ef57600080fd5b600160a060020a038116151561220457600080fd5b602254600160a060020a031663f2fde38b8260405160e060020a63ffffffff8416028152600160a060020a039091166004820152602401600060405180830381600087803b1515611e9757600080fd5b600b5481565b600160a060020a03331660009081526017602052604081205460ff16151561228157600080fd5b60005460a060020a900460ff16151561229957600080fd5b50600160a060020a0333166000908152601860205260409020546008546122c6908263ffffffff6128a716565b600855600160a060020a0333166000818152601860205260408082209190915582156108fc0290839051600060405180830381858888f19350505050151561230d57600080fd5b7fb0ecf14e184effded5473bba77dcfab32b094b77ac1fbb36beec2aef55587970600654338342604051938452600160a060020a03909216602084015260408084019190915260608301919091526080909101905180910390a150565b600154600160a060020a031681565b601e5490565b60005433600160a060020a0390811691161461239a57600080fd5b600160a060020a03811615156123af57600080fd5b602054600160a060020a031663f2fde38b8260405160e060020a63ffffffff8416028152600160a060020a039091166004820152602401600060405180830381600087803b1515611e9757600080fd5b601a6020526000908152604090205481565b60008060038060225460a060020a900460ff16600481111561242f57fe5b1461243957600080fd5b60005460a060020a900460ff161561245057600080fd5b600d546009546124659163ffffffff6128b916565b42101561247157600080fd5b426009556022805460a060020a60ff02191674040000000000000000000000000000000000000000179055600092505b601f548310156124f5576000601f848154811015156124bc57fe5b90600052602060002090600902016007015411156124dd576124dd83612f8e565b6124ee83600163ffffffff6128b916565b92506124a1565b602054600160a060020a031663f3123a3a6040518163ffffffff1660e060020a028152600401600060405180830381600087803b151561253457600080fd5b6102c65a03f1151561254557600080fd5b5050602154600160a060020a0316905063508493bc600030816040516020015260405160e060020a63ffffffff8516028152600160a060020a03928316600482015291166024820152604401602060405180830381600087803b15156125aa57600080fd5b6102c65a03f115156125bb57600080fd5b5050506040518051602154909350600160a060020a03169050632e1a7d4d8360405160e060020a63ffffffff84160281526004810191909152602401600060405180830381600087803b151561261057600080fd5b6102c65a03f1151561262157600080fd5b5050602254600160a060020a03169050635fc86db16040518163ffffffff1660e060020a028152600401600060405180830381600087803b151561266457600080fd5b6102c65a03f1151561267557600080fd5b50505061268061349a565b7ff4b862466a7ed84695726312fc00377bee25443b7890d8b8985f94eef497d6ff6006544260405191825260208201526040908101905180910390a1505050565b60035433600160a060020a039081169116146126dc57600080fd5b60005460a060020a900460ff16156126f357600080fd5b602154600160a060020a0316630b92766687878787878760405160e060020a63ffffffff8916028152600160a060020a03968716600482015260248101959095529290941660448401526064830152608482019290925260a481019190915260c401600060405180830381600087803b151561276e57600080fd5b6102c65a03f1151561277f57600080fd5b505050505050505050565b60015433600160a060020a039081169116146127a557600080fd5b600160a060020a0381166000908152601760205260409020805460ff19166001908117909155601e8054909181016127dd8382613ada565b5060009182526020909120018054600160a060020a031916600160a060020a0392909216919091179055565b60005433600160a060020a0390811691161461282457600080fd5b600160a060020a038116151561283957600080fd5b600054600160a060020a0380831691167f8be0079c531659141344cd1fd0a4f28419497f9722a3daafe3b4186f6b6457e060405160405180910390a360008054600160a060020a031916600160a060020a0392909216919091179055565b60225460a060020a900460ff1681565b6000828211156128b357fe5b50900390565b6000828201838110156128c857fe5b8091505b5092915050565b6000808315156128e657600091506128cc565b508282028284828115156128f657fe5b04146128c857fe5b600160a060020a0381166000908152601a602052604081208190555b601f54811015612976576000818152601b60209081526040808320600160a060020a038616808552908352818420849055848452601c835281842090845290915281205561296f81600163ffffffff6128b916565b905061291a565b5050565b601d6000601f8381548110151561298d57fe5b60009182526020808320600990920290910154600160a060020a031683528281019390935260409182018120805460ff191690559283526019909152812055565b600080808080808080805b601f5489101561277f576000601f8a8154811015156129f457fe5b9060005260206000209060090201600701541115612e475760009750600096505b601e54871015612b2d576000898152601b60205260408120601e80549192918a908110612a3e57fe5b6000918252602080832090910154600160a060020a031683528201929092526040019020541515955085612b1557602054601e8054612b1292600160a060020a0316916370a08231918b908110612a9157fe5b6000918252602082200154600160a060020a0316906040516020015260405160e060020a63ffffffff8416028152600160a060020a039091166004820152602401602060405180830381600087803b1515612aeb57600080fd5b6102c65a03f11515612afc57600080fd5b50505060405180518a915063ffffffff6128b916565b97505b612b2687600163ffffffff6128b916565b9650612a15565b60075460008a81526019602052604090205490955088901015612b845760075460008a815260196020526040902054612b7d918a91612b719163ffffffff6128d316565b9063ffffffff6138a316565b9450612c1a565b6000898152601960205260408120548990039450841115612c1a57602054600160a060020a03166340c10f19308660006040516020015260405160e060020a63ffffffff8516028152600160a060020a0390921660048301526024820152604401602060405180830381600087803b1515612bfe57600080fd5b6102c65a03f11515612c0f57600080fd5b505050604051805150505b600096505b601e54871015612e4757601e805488908110612c3757fe5b60009182526020808320909101548b8352601b82526040808420600160a060020a039283168086529084528185205493549315159a5096509116916370a0823191869190516020015260405160e060020a63ffffffff8416028152600160a060020a039091166004820152602401602060405180830381600087803b1515612cbe57600080fd5b6102c65a03f11515612ccf57600080fd5b505050604051805192505085158015612ce85750600082115b15612e2f57600754612d0490612b71878563ffffffff6128d316565b602054909150600160a060020a0316632bee7bde848360006040516020015260405160e060020a63ffffffff8516028152600160a060020a0390921660048301526024820152604401602060405180830381600087803b1515612d6657600080fd5b6102c65a03f11515612d7757600080fd5b5050506040518051905050612db66001601f8b815481101515612d9657fe5b9060005260206000209060090201600801546128b990919063ffffffff16565b601f80548b908110612dc457fe5b60009182526020808320600860099093020191909101929092558a8152601c82526040808220600160a060020a03871683529092522054612e0b908263ffffffff6128b916565b60008a8152601c60209081526040808320600160a060020a03881684529091529020555b612e4087600163ffffffff6128b916565b9650612c1f565b612e5889600163ffffffff6128b916565b98506129d9565b6000805b601f54821015612976576000601f83815481101515612e7e57fe5b9060005260206000209060090201600701541115612f7657601554600083815260196020526040902054600854612ec09291612b71919063ffffffff6128d316565b602154909150600160a060020a031663d0e30db0826040518263ffffffff1660e060020a0281526004016000604051808303818588803b1515612f0257600080fd5b6125ee5a03f11515612f1357600080fd5b5050602254600160a060020a031691506360fc3f8e90508360405160e060020a63ffffffff84160281526004810191909152602401600060405180830381600087803b1515612f6157600080fd5b6102c65a03f11515612f7257600080fd5b5050505b612f8782600163ffffffff6128b916565b9150612e63565b6000806000806000601f86815481101515612fa557fe5b90600052602060002090600902019450846003015460001480612fc85750601554155b15612fdb57612fd6866138ba565b613492565b6015546000878152601960205260409020546008546130059291612b71919063ffffffff6128d316565b602154865460038801546002890154939450600160a060020a03928316936346be96c393909216916130409190612b71908790600a0a6128d3565b6000858a600601548c306000806000806040516020015260405160e060020a63ffffffff8d16028152600160a060020a039a8b166004820152602481019990995296891660448901526064880195909552608487019390935260a486019190915290941660c484015260ff90931660e483015261010482019290925261012481019190915261014401602060405180830381600087803b15156130e257600080fd5b6102c65a03f115156130f357600080fd5b5050506040518051159050613489578460030154856004015411156132c557600092505b601e548310156132c057601e80548490811061312f57fe5b6000918252602080832090910154888352601b82526040808420600160a060020a0390921680855291909252908220549550925084111561323c57602054600160a060020a031663a9059cbb8361318d87600263ffffffff6128d316565b60006040516020015260405160e060020a63ffffffff8516028152600160a060020a0390921660048301526024820152604401602060405180830381600087803b15156131d957600080fd5b6102c65a03f115156131ea57600080fd5b5050506040518051905050600080516020613b7e833981519152600654836001604051928352600160a060020a03909116602083015215156040808301919091526060909101905180910390a16132a8565b6000868152601c60209081526040808320600160a060020a038616845290915281205411156132a857600080516020613b7e833981519152600654836000604051928352600160a060020a03909116602083015215156040808301919091526060909101905180910390a15b6132b983600163ffffffff6128b916565b9250613117565b612fd6565b60008560080154111561348057600092505b601e548310156132c057601e8054849081106132ef57fe5b6000918252602080832090910154888352601c82526040808420600160a060020a039092168085529190925290822054955092508411156133fc57602054600160a060020a031663a9059cbb8361334d87600263ffffffff6128d316565b60006040516020015260405160e060020a63ffffffff8516028152600160a060020a0390921660048301526024820152604401602060405180830381600087803b151561339957600080fd5b6102c65a03f115156133aa57600080fd5b5050506040518051905050600080516020613b7e833981519152600654836001604051928352600160a060020a03909116602083015215156040808301919091526060909101905180910390a1613468565b6000868152601b60209081526040808320600160a060020a0386168452909152812054111561346857600080516020613b7e833981519152600654836000604051928352600160a060020a03909116602083015215156040808301919091526060909101905180910390a15b61347983600163ffffffff6128b916565b92506132d7565b612fd6866138ba565b613492866138ba565b505050505050565b600080600080600080600080600080985060085430600160a060020a03163111156134d15760085430600160a060020a0316310398505b6134ec600754612b718b6010546128d390919063ffffffff16565b9750613513600754612b7130600160a060020a0316316012546128d390919063ffffffff16565b600f5460225491985061359f9160029161359391600160a060020a03166330fbd48d6000604051602001526040518163ffffffff1660e060020a028152600401602060405180830381600087803b151561356c57600080fd5b6102c65a03f1151561357d57600080fd5b505050604051805191905063ffffffff6128d316565b9063ffffffff6128d316565b95506135cb876135bf600160a060020a033016318b63ffffffff6128a716565b9063ffffffff6128a716565b94508486116135e7576135e4858763ffffffff6128a716565b94505b600093505b601e5484101561379457601e80548590811061360457fe5b6000918252602082200154600854600160a060020a0390911694509092508290111561366f57600854600160a060020a03841660009081526018602052604090205461366c9161365f91612b7190899063ffffffff6128d316565b839063ffffffff6128b916565b91505b60205461375f9061365f90600160a060020a03166318160ddd6000604051602001526040518163ffffffff1660e060020a028152600401602060405180830381600087803b15156136bf57600080fd5b6102c65a03f115156136d057600080fd5b5050506040518051602054909150612b7190600160a060020a03166370a082318860006040516020015260405160e060020a63ffffffff8416028152600160a060020a039091166004820152602401602060405180830381600087803b151561373857600080fd5b6102c65a03f1151561374957600080fd5b50505060405180518d915063ffffffff6128d316565b600160a060020a0384166000908152601860205260409020819055915061378d84600163ffffffff6128b916565b93506135ec565b6137a4858963ffffffff6128b916565b90507f13a18edb371d0a74be72de10b678893b96bc8a47e776bb122c59e21d53956fbd6006546008548360405180848152602001838152602001828152602001935050505060405180910390a16008819055600554600160a060020a031687156108fc0288604051600060405180830381858888f19350505050151561382957600080fd5b602254600160a060020a031686156108fc0287604051600060405180830381858888f19350505050151561385c57600080fd5b7facfa15ebe340982fef95d43aafc25d741382d7928a00055a209274fa615d52776006548960405191825260208201526040908101905180910390a1505050505050505050565b60008082848115156138b157fe5b04949350505050565b600080805b601e54831015611ea857601e8054849081106138d757fe5b6000918252602080832090910154868352601c82526040808420600160a060020a0390921680855291835280842054888552601b84528185208386529093529092205491935061392d919063ffffffff6128b916565b905080156139b057602054600160a060020a031663a9059cbb838360006040516020015260405160e060020a63ffffffff8516028152600160a060020a0390921660048301526024820152604401602060405180830381600087803b151561399457600080fd5b6102c65a03f115156139a557600080fd5b505050604051805150505b6139c183600163ffffffff6128b916565b92506138bf565b815481835581811511611c2357600902816009028360005260206000209182019101611c239190613afe565b828054600181600116156101000203166002900490600052602060002090601f016020900481019282601f10613a3557805160ff1916838001178555613a62565b82800160010185558215613a62579182015b82811115613a62578251825591602001919060010190613a47565b50613a6e929150613b63565b5090565b5080546000825560090290600052602060002090810190613a939190613afe565b50565b50805460018160011615610100020316600290046000825580601f10613abc5750613a93565b601f016020900490600052602060002090810190613a939190613b63565b815481835581811511611c2357600083815260209020611c23918101908301613b63565b610aa491905b80821115613a6e578054600160a060020a03191681556000613b296001830182613a96565b5060006002820181905560038201819055600482018190556005820181905560068201819055600782018190556008820155600901613b04565b610aa491905b80821115613a6e5760008155600101613b6956003f188c7c7d060cde17eb095b50e5e05033be925ea386e9a542ffd27923a99fe5a165627a7a723058205c0e95906d7ba0074339071fd2459475d4ec69d26e5450b7fbfb0414888aa4290029",
  "source": "pragma solidity ^0.4.18;\r\n\r\nimport 'zeppelin-solidity/contracts/token/ERC20/MintableToken.sol';\r\nimport 'zeppelin-solidity/contracts/math/SafeMath.sol';\r\nimport 'zeppelin-solidity/contracts/lifecycle/Pausable.sol';\r\nimport './etherdelta.sol';\r\nimport './oraclizeAPI_0.5.sol';\r\n\r\n/**\r\n * The main contract of the Betoken hedge fund\r\n */\r\ncontract BetokenFund is Pausable {\r\n  using SafeMath for uint256;\r\n\r\n  enum CyclePhase { ChangeMaking, ProposalMaking, Waiting, Ended, Finalized }\r\n\r\n  struct Proposal {\r\n    address tokenAddress;\r\n    string tokenSymbol;\r\n    uint256 tokenDecimals;\r\n    uint256 buyPriceInWeis;\r\n    uint256 sellPriceInWeis;\r\n    uint256 buyOrderExpirationBlockNum;\r\n    uint256 sellOrderExpirationBlockNum;\r\n    uint256 numFor;\r\n    uint256 numAgainst;\r\n  }\r\n\r\n  /**\r\n   * Executes function only during the given cycle phase.\r\n   * @param phase the cycle phase during which the function may be called\r\n   */\r\n  modifier during(CyclePhase phase) {\r\n    require(cyclePhase == phase);\r\n    _;\r\n  }\r\n\r\n  /**\r\n   * Executes function only when msg.sender is a participant of the fund.\r\n   */\r\n  modifier onlyParticipant {\r\n    require(isParticipant[msg.sender]);\r\n    _;\r\n  }\r\n\r\n  /**\r\n   * Exucutes function only when msg.sender is the fund's OraclizeHandler.\r\n   */\r\n  modifier onlyOraclize {\r\n    require(msg.sender == oraclizeAddr);\r\n    _;\r\n  }\r\n\r\n  //Address of the control token contract.\r\n  address public controlTokenAddr;\r\n\r\n  //Address of the EtherDelta contract\r\n  address public etherDeltaAddr;\r\n\r\n  //Address of the fund's OraclizeHandler contract.\r\n  address public oraclizeAddr;\r\n\r\n  //The creator of the BetokenFund contract. Only used in initializeSubcontracts().\r\n  address public creator;\r\n\r\n  //Address to which the developer fees will be paid.\r\n  address public developerFeeAccount;\r\n\r\n  //The number of the current investment cycle.\r\n  uint256 public cycleNumber;\r\n\r\n  //10^{decimals} used for representing fixed point numbers with {decimals} decimals.\r\n  uint256 public tenToDecimals;\r\n\r\n  //The amount of funds held by the fund.\r\n  uint256 public totalFundsInWeis;\r\n\r\n  //The start time for the current investment cycle phase, in seconds since Unix epoch.\r\n  uint256 public startTimeOfCyclePhase;\r\n\r\n  //Temporal length of change making period at start of each cycle, in seconds.\r\n  uint256 public timeOfChangeMaking;\r\n\r\n  //Temporal length of proposal making period at start of each cycle, in seconds.\r\n  uint256 public timeOfProposalMaking;\r\n\r\n  //Temporal length of waiting period, after which the bets will be settled, in seconds.\r\n  uint256 public timeOfWaiting;\r\n\r\n  //The time allotted for waiting for sell orders, in seconds.\r\n  uint256 public timeOfSellOrderWaiting;\r\n\r\n  //Minimum proportion of Kairo balance people have to stake in support of a proposal. Fixed point decimal.\r\n  uint256 public minStakeProportion;\r\n\r\n  //The maximum number of proposals each cycle.\r\n  uint256 public maxProposals;\r\n\r\n  //The proportion of the fund that gets distributed to Kairo holders every cycle. Fixed point decimal.\r\n  uint256 public commissionRate;\r\n\r\n  //The expiration time for buy and sell orders made on EtherDelta.\r\n  uint256 public orderExpirationTimeInBlocks;\r\n\r\n  //The proportion of contract balance that goes the the devs every cycle. Fixed point decimal.\r\n  uint256 public developerFeeProportion;\r\n\r\n  //The max number of proposals each member can create.\r\n  uint256 public maxProposalsPerMember;\r\n\r\n  //Number of proposals already made in this cycle. Excludes deleted proposals.\r\n  uint256 public numProposals;\r\n\r\n  //Total Kairo staked this cycle.\r\n  uint256 public totalStaked;\r\n\r\n  //Flag for whether the contract has been initialized with subcontracts' addresses.\r\n  bool public initialized;\r\n\r\n  //Returns true for an address if it's in the participants array, false otherwise.\r\n  mapping(address => bool) public isParticipant;\r\n\r\n  //Mapping from a participant's address to their Ether balance, in weis.\r\n  mapping(address => uint256) public balanceOf;\r\n\r\n  //Mapping from Proposal to total amount of Control Tokens being staked by supporters.\r\n  mapping(uint256 => uint256) public forStakedControlOfProposal;\r\n\r\n  //Records the number of proposals a user has created in the current cycle. Canceling support does not decrease this number.\r\n  mapping(address => uint256) public createdProposalCount;\r\n\r\n  //mapping(proposalId => mapping(participantAddress => stakedTokensInWeis))\r\n  mapping(uint256 => mapping(address => uint256)) public forStakedControlOfProposalOfUser;\r\n  mapping(uint256 => mapping(address => uint256)) public againstStakedControlOfProposalOfUser;\r\n\r\n  //Mapping to check if a proposal for a token has already been made.\r\n  mapping(address => bool) public isTokenAlreadyProposed;\r\n\r\n  //A list of everyone who is participating in the fund.\r\n  address[] public participants;\r\n\r\n  //List of proposals in the current cycle.\r\n  Proposal[] public proposals;\r\n\r\n  //References to subcontracts and EtherDelta contract.\r\n  ControlToken internal cToken;\r\n  EtherDelta internal etherDelta;\r\n  OraclizeHandler internal oraclize;\r\n\r\n  //The current cycle phase.\r\n  CyclePhase public cyclePhase;\r\n\r\n  event CycleStarted(uint256 _cycleNumber, uint256 _timestamp);\r\n  event Deposit(uint256 _cycleNumber, address _sender, uint256 _amountInWeis, uint256 _timestamp);\r\n  event Withdraw(uint256 _cycleNumber, address _sender, uint256 _amountInWeis, uint256 _timestamp);\r\n  event ChangeMakingTimeEnded(uint256 _cycleNumber, uint256 _timestamp);\r\n  event NewProposal(uint256 _cycleNumber, uint256 _id, address _tokenAddress, string _tokenSymbol, uint256 _amountInWeis);\r\n  event SupportedProposal(uint256 _cycleNumber, uint256 _id, uint256 _amountInWeis);\r\n  event ProposalMakingTimeEnded(uint256 _cycleNumber, uint256 _timestamp);\r\n  event CycleEnded(uint256 _cycleNumber, uint256 _timestamp);\r\n  event CycleFinalized(uint256 _cycleNumber, uint256 _timestamp);\r\n  event ROI(uint256 _cycleNumber, uint256 _beforeTotalFunds, uint256 _afterTotalFunds);\r\n  event PredictionResult(uint256 _cycleNumber, address _member, bool _success);\r\n  event CommissionPaid(uint256 _cycleNumber, uint256 _totalCommissionInWeis);\r\n\r\n  /**\r\n   * Contract initialization functions\r\n   */\r\n\r\n  //Constructor\r\n  function BetokenFund(\r\n    address _etherDeltaAddr,\r\n    address _developerFeeAccount,\r\n    uint256 _tenToDecimals,\r\n    uint256 _timeOfChangeMaking,\r\n    uint256 _timeOfProposalMaking,\r\n    uint256 _timeOfWaiting,\r\n    uint256 _timeOfSellOrderWaiting,\r\n    uint256 _minStakeProportion,\r\n    uint256 _maxProposals,\r\n    uint256 _commissionRate,\r\n    uint256 _orderExpirationTimeInBlocks,\r\n    uint256 _developerFeeProportion,\r\n    uint256 _maxProposalsPerMember\r\n  )\r\n    public\r\n  {\r\n    require(_tenToDecimals > 0);\r\n    require(_minStakeProportion < _tenToDecimals);\r\n    require(_commissionRate.add(_developerFeeProportion) < _tenToDecimals);\r\n\r\n    etherDeltaAddr = _etherDeltaAddr;\r\n    developerFeeAccount = _developerFeeAccount;\r\n    tenToDecimals = _tenToDecimals;\r\n    timeOfChangeMaking = _timeOfChangeMaking;\r\n    timeOfProposalMaking = _timeOfProposalMaking;\r\n    timeOfWaiting = _timeOfWaiting;\r\n    timeOfSellOrderWaiting = _timeOfSellOrderWaiting;\r\n    minStakeProportion = _minStakeProportion;\r\n    maxProposals = _maxProposals;\r\n    commissionRate = _commissionRate;\r\n    orderExpirationTimeInBlocks = _orderExpirationTimeInBlocks;\r\n    developerFeeProportion = _developerFeeProportion;\r\n    maxProposalsPerMember = _maxProposalsPerMember;\r\n    startTimeOfCyclePhase = 0;\r\n    cyclePhase = CyclePhase.Finalized;\r\n    creator = msg.sender;\r\n    numProposals = 0;\r\n    cycleNumber = 0;\r\n    etherDelta = EtherDelta(etherDeltaAddr);\r\n  }\r\n\r\n  /**\r\n   * Initializes the addresses of the ControlToken and OraclizeHandler contracts.\r\n   * @param _cTokenAddr address of ControlToken contract\r\n   * @param _oraclizeAddr address of OraclizeHandler contract\r\n   */\r\n  function initializeSubcontracts(address _cTokenAddr, address _oraclizeAddr) public {\r\n    require(msg.sender == creator);\r\n    require(!initialized);\r\n\r\n    initialized = true;\r\n\r\n    controlTokenAddr = _cTokenAddr;\r\n    oraclizeAddr = _oraclizeAddr;\r\n\r\n    cToken = ControlToken(controlTokenAddr);\r\n    oraclize = OraclizeHandler(oraclizeAddr);\r\n  }\r\n\r\n  /**\r\n   * Getters\r\n   */\r\n\r\n  /**\r\n   * Returns the length of the participants array.\r\n   * @return length of participants array\r\n   */\r\n  function participantsCount() public view returns(uint256 _count) {\r\n    return participants.length;\r\n  }\r\n\r\n  /**\r\n   * Returns the length of the proposals array.\r\n   * @return length of proposals array\r\n   */\r\n  function proposalsCount() public view returns(uint256 _count) {\r\n    return proposals.length;\r\n  }\r\n\r\n  /**\r\n   * Meta functions\r\n   */\r\n\r\n  /**\r\n   * Changes the address of the EtherDelta contract used in the contract. Only callable by owner.\r\n   * @param _newAddr new address of EtherDelta contract\r\n   */\r\n  function changeEtherDeltaAddress(address _newAddr) public onlyOwner {\r\n    require(_newAddr != address(0));\r\n    etherDeltaAddr = _newAddr;\r\n    etherDelta = EtherDelta(_newAddr);\r\n    oraclize.__changeEtherDeltaAddress(_newAddr);\r\n  }\r\n\r\n  /**\r\n   * Changes the address of the OraclizeHandler contract used in the contract. Only callable by owner.\r\n   * @param _newAddr new address of OraclizeHandler contract\r\n   */\r\n  function changeOraclizeAddress(address _newAddr) public onlyOwner {\r\n    require(_newAddr != address(0));\r\n    oraclizeAddr = _newAddr;\r\n    oraclize = OraclizeHandler(_newAddr);\r\n  }\r\n\r\n  /**\r\n   * Changes the address to which the developer fees will be sent. Only callable by owner.\r\n   * @param _newAddr new developer fee address\r\n   */\r\n  function changeDeveloperFeeAccount(address _newAddr) public onlyOwner {\r\n    require(_newAddr != address(0));\r\n    developerFeeAccount = _newAddr;\r\n  }\r\n\r\n  /**\r\n   * Changes the proportion of fund balance sent to the developers each cycle. May only decrease. Only callable by owner.\r\n   * @param _newProp the new proportion, fixed point decimal\r\n   */\r\n  function changeDeveloperFeeProportion(uint256 _newProp) public onlyOwner {\r\n    require(_newProp < developerFeeProportion);\r\n    developerFeeProportion = _newProp;\r\n  }\r\n\r\n  /**\r\n   * Changes the proportion of fund balance given to Kairo holders each cycle. Only callable by owner.\r\n   * @param _newProp the new proportion, fixed point decimal\r\n   */\r\n  function changeCommissionRate(uint256 _newProp) public onlyOwner {\r\n    commissionRate = _newProp;\r\n  }\r\n\r\n  /**\r\n   * Sends Ether to the OraclizeHandler contract.\r\n   */\r\n  function topupOraclizeFees() public payable {\r\n    oraclizeAddr.transfer(msg.value);\r\n  }\r\n\r\n  /**\r\n   * Changes the owner of the OraclizeHandler contract.\r\n   * @param  _newOwner the new owner address\r\n   */\r\n  function changeOraclizeOwner(address _newOwner) public onlyOwner {\r\n    require(_newOwner != address(0));\r\n    oraclize.transferOwnership(_newOwner);\r\n  }\r\n\r\n  /**\r\n   * Changes the owner of the ControlToken contract.\r\n   * @param  _newOwner the new owner address\r\n   */\r\n  function changeControlTokenOwner(address _newOwner) public onlyOwner {\r\n    require(_newOwner != address(0));\r\n    cToken.transferOwnership(_newOwner);\r\n  }\r\n\r\n  /**\r\n   * Start cycle functions\r\n   */\r\n\r\n  /**\r\n   * Starts a new investment cycle.\r\n   */\r\n  function startNewCycle() public during(CyclePhase.Finalized) whenNotPaused {\r\n    require(initialized);\r\n\r\n    //Update values\r\n    cyclePhase = CyclePhase.ChangeMaking;\r\n    startTimeOfCyclePhase = now;\r\n    cycleNumber = cycleNumber.add(1);\r\n\r\n    //Reset data\r\n    for (uint256 i = 0; i < participants.length; i = i.add(1)) {\r\n      __resetMemberData(participants[i]);\r\n    }\r\n    for (i = 0; i < proposals.length; i = i.add(1)) {\r\n      __resetProposalData(i);\r\n    }\r\n    oraclize.__deleteTokenSymbolOfProposal();\r\n    delete proposals;\r\n    delete numProposals;\r\n    totalStaked = 0;\r\n\r\n    //Emit event\r\n    CycleStarted(cycleNumber, now);\r\n  }\r\n\r\n  /**\r\n   * Resets cycle specific data for a given participant.\r\n   * @param _addr the participant whose data will be reset\r\n   */\r\n  function __resetMemberData(address _addr) internal {\r\n    delete createdProposalCount[_addr];\r\n\r\n    //Remove the associated corresponding control staked for/against  each proposal\r\n    for (uint256 i = 0; i < proposals.length; i = i.add(1)) {\r\n      delete forStakedControlOfProposalOfUser[i][_addr];\r\n      delete againstStakedControlOfProposalOfUser[i][_addr];\r\n    }\r\n  }\r\n\r\n  /**\r\n   * Resets cycle specific data for a give proposal\r\n   * @param _proposalId ID of proposal whose data will be reset\r\n   */\r\n  function __resetProposalData(uint256 _proposalId) internal {\r\n    delete isTokenAlreadyProposed[proposals[_proposalId].tokenAddress];\r\n    delete forStakedControlOfProposal[_proposalId];\r\n  }\r\n\r\n  /**\r\n   * ChangeMakingTime functions\r\n   */\r\n\r\n  /**\r\n   * Deposit Ether into the fund.\r\n   */\r\n  function deposit()\r\n    public\r\n    payable\r\n    during(CyclePhase.ChangeMaking)\r\n    whenNotPaused\r\n  {\r\n    //If caller is not a participant, add them to the participants list\r\n    if (!isParticipant[msg.sender]) {\r\n      participants.push(msg.sender);\r\n      isParticipant[msg.sender] = true;\r\n    }\r\n\r\n    //Register investment\r\n    balanceOf[msg.sender] = balanceOf[msg.sender].add(msg.value);\r\n    totalFundsInWeis = totalFundsInWeis.add(msg.value);\r\n\r\n    if (cycleNumber == 1) {\r\n      //Give control tokens proportional to investment\r\n      cToken.mint(msg.sender, msg.value);\r\n    }\r\n\r\n    //Emit event\r\n    Deposit(cycleNumber, msg.sender, msg.value, now);\r\n  }\r\n\r\n  /**\r\n   * Withdraws a certain amount of Ether from the user's account. Cannot be called during the first cycle.\r\n   * @param _amountInWeis amount of Ether to be withdrawn\r\n   */\r\n  function withdraw(uint256 _amountInWeis)\r\n    public\r\n    during(CyclePhase.ChangeMaking)\r\n    onlyParticipant\r\n    whenNotPaused\r\n  {\r\n    require(cycleNumber != 1);\r\n\r\n    //Subtract from account\r\n    totalFundsInWeis = totalFundsInWeis.sub(_amountInWeis);\r\n    balanceOf[msg.sender] = balanceOf[msg.sender].sub(_amountInWeis);\r\n\r\n    //Transfer Ether to user\r\n    msg.sender.transfer(_amountInWeis);\r\n\r\n    //Emit event\r\n    Withdraw(cycleNumber, msg.sender, _amountInWeis, now);\r\n  }\r\n\r\n  /**\r\n   * Function for withdrawing all funds in times of emergency. Only callable when fund is paused.\r\n   */\r\n  function emergencyWithdraw()\r\n    public\r\n    onlyParticipant\r\n    whenPaused\r\n  {\r\n    uint256 amountInWeis = balanceOf[msg.sender];\r\n\r\n    //Subtract from account\r\n    totalFundsInWeis = totalFundsInWeis.sub(amountInWeis);\r\n    balanceOf[msg.sender] = 0;\r\n\r\n    //Transfer\r\n    msg.sender.transfer(amountInWeis);\r\n\r\n    //Emit event\r\n    Withdraw(cycleNumber, msg.sender, amountInWeis, now);\r\n  }\r\n\r\n  /**\r\n   * Ends the ChangeMaking phase.\r\n   */\r\n  function endChangeMakingTime() public during(CyclePhase.ChangeMaking) whenNotPaused {\r\n    require(now >= startTimeOfCyclePhase.add(timeOfChangeMaking));\r\n\r\n    startTimeOfCyclePhase = now;\r\n    cyclePhase = CyclePhase.ProposalMaking;\r\n\r\n    ChangeMakingTimeEnded(cycleNumber, now);\r\n  }\r\n\r\n  /**\r\n   * ProposalMakingTime functions\r\n   */\r\n\r\n  /**\r\n   * Creates a new investment proposal for an ERC20 token.\r\n   * @param _tokenAddress address of the ERC20 token contract\r\n   * @param _tokenSymbol  ticker/symbol of the token\r\n   * @param _tokenDecimals number of decimals that the token uses\r\n   * @param _stakeInWeis amount of Kairos to be staked in support of the proposal\r\n   */\r\n  function createProposal(\r\n    address _tokenAddress,\r\n    string _tokenSymbol,\r\n    uint256 _tokenDecimals,\r\n    uint256 _stakeInWeis\r\n  )\r\n    public\r\n    during(CyclePhase.ProposalMaking)\r\n    onlyParticipant\r\n    whenNotPaused\r\n  {\r\n    require(numProposals < maxProposals);\r\n    require(!isTokenAlreadyProposed[_tokenAddress]);\r\n    require(createdProposalCount[msg.sender] < maxProposalsPerMember);\r\n\r\n    //Add proposal to list\r\n    proposals.push(Proposal({\r\n      tokenAddress: _tokenAddress,\r\n      tokenSymbol: _tokenSymbol,\r\n      tokenDecimals: _tokenDecimals,\r\n      buyPriceInWeis: 0,\r\n      sellPriceInWeis: 0,\r\n      numFor: 0,\r\n      numAgainst: 0,\r\n      buyOrderExpirationBlockNum: 0,\r\n      sellOrderExpirationBlockNum: 0\r\n    }));\r\n\r\n    //Update values about proposal\r\n    isTokenAlreadyProposed[_tokenAddress] = true;\r\n    oraclize.__pushTokenSymbolOfProposal(_tokenSymbol);\r\n    createdProposalCount[msg.sender] = createdProposalCount[msg.sender].add(1);\r\n    numProposals = numProposals.add(1);\r\n\r\n    //Stake control tokens\r\n    uint256 proposalId = proposals.length - 1;\r\n    supportProposal(proposalId, _stakeInWeis);\r\n\r\n    //Emit event\r\n    NewProposal(cycleNumber, proposalId, _tokenAddress, _tokenSymbol, _stakeInWeis);\r\n  }\r\n\r\n  /**\r\n   * Supports an investment proposal.\r\n   * @param _proposalId ID of the proposal the user wants to support\r\n   * @param _stakeInWeis amount of Kairo to be staked in support of the proposal\r\n   */\r\n  function supportProposal(uint256 _proposalId, uint256 _stakeInWeis)\r\n    public\r\n    during(CyclePhase.ProposalMaking)\r\n    onlyParticipant\r\n    whenNotPaused\r\n  {\r\n    require(_proposalId < proposals.length); //Valid ID\r\n    require(isTokenAlreadyProposed[proposals[_proposalId].tokenAddress]); //Non-empty proposal\r\n\r\n    /**\r\n     * Stake Kairos\r\n     */\r\n    //Ensure stake is larger than the minimum proportion of Kairo balance\r\n    require(_stakeInWeis.mul(tenToDecimals) >= minStakeProportion.mul(cToken.balanceOf(msg.sender)));\r\n    //Collect Kairos as stake\r\n    cToken.ownerCollectFrom(msg.sender, _stakeInWeis);\r\n    //Update stake data\r\n    if (forStakedControlOfProposalOfUser[_proposalId][msg.sender] == 0) {\r\n      proposals[_proposalId].numFor = proposals[_proposalId].numFor.add(1);\r\n    }\r\n    forStakedControlOfProposal[_proposalId] = forStakedControlOfProposal[_proposalId].add(_stakeInWeis);\r\n    forStakedControlOfProposalOfUser[_proposalId][msg.sender] = forStakedControlOfProposalOfUser[_proposalId][msg.sender].add(_stakeInWeis);\r\n    totalStaked = totalStaked.add(_stakeInWeis);\r\n\r\n    //Emit event\r\n    SupportedProposal(cycleNumber, _proposalId, _stakeInWeis);\r\n  }\r\n\r\n  /**\r\n   * Cancels support of a proposal.\r\n   * @param _proposalId ID of the proposal\r\n   */\r\n  function cancelProposalSupport(uint256 _proposalId)\r\n    public\r\n    during(CyclePhase.ProposalMaking)\r\n    onlyParticipant\r\n    whenNotPaused\r\n  {\r\n    require(_proposalId < proposals.length); //Valid ID\r\n    require(proposals[_proposalId].numFor > 0); //Non-empty proposal\r\n\r\n    //Remove stake data\r\n    uint256 stake = forStakedControlOfProposalOfUser[_proposalId][msg.sender];\r\n    delete forStakedControlOfProposalOfUser[_proposalId][msg.sender];\r\n    forStakedControlOfProposal[_proposalId] = forStakedControlOfProposal[_proposalId].sub(stake);\r\n    totalStaked = totalStaked.sub(stake);\r\n\r\n    //Remove support\r\n    proposals[_proposalId].numFor = proposals[_proposalId].numFor.sub(1);\r\n\r\n    //Return stake\r\n    cToken.transfer(msg.sender, stake);\r\n\r\n    //Delete proposal if necessary\r\n    if (forStakedControlOfProposal[_proposalId] == 0) {\r\n      __resetProposalData(_proposalId);\r\n      numProposals = numProposals.sub(1);\r\n      delete proposals[_proposalId];\r\n    }\r\n  }\r\n\r\n  /**\r\n   * Ends the ProposalMaking phase.\r\n   */\r\n  function endProposalMakingTime()\r\n    public\r\n    during(CyclePhase.ProposalMaking)\r\n    whenNotPaused\r\n  {\r\n    require(now >= startTimeOfCyclePhase.add(timeOfProposalMaking));\r\n\r\n    startTimeOfCyclePhase = now;\r\n    cyclePhase = CyclePhase.Waiting;\r\n\r\n    __stakeAgainstVotes();\r\n    __makeInvestments();\r\n\r\n    ProposalMakingTimeEnded(cycleNumber, now);\r\n  }\r\n\r\n  /**\r\n   * Stakes the Kairos of the against side into proposals.\r\n   */\r\n  function __stakeAgainstVotes() internal {\r\n    for (uint256 i = 0; i < proposals.length; i = i.add(1)) {\r\n      if (proposals[i].numFor > 0) { //Ensure proposal isn't a deleted one\r\n        //Calculate total Kairo balance of users against the proposal\r\n        uint256 againstTotalBalance = 0;\r\n        for (uint256 j = 0; j < participants.length; j = j.add(1)) {\r\n          bool isFor = forStakedControlOfProposalOfUser[i][participants[j]] != 0;\r\n          if (!isFor) {\r\n            againstTotalBalance = againstTotalBalance.add(cToken.balanceOf(participants[j]));\r\n          }\r\n        }\r\n        //Calculate the proportion of Kairo each user against the proposal have to stake\r\n        uint256 stakeProportion = tenToDecimals;\r\n        if (forStakedControlOfProposal[i] < againstTotalBalance) {\r\n          stakeProportion = forStakedControlOfProposal[i].mul(tenToDecimals).div(againstTotalBalance);\r\n        } else {\r\n          //Mint new Kairo to fill the gap\r\n          uint256 mintAmount = forStakedControlOfProposal[i] - againstTotalBalance;\r\n          if (mintAmount > 0) {\r\n            cToken.mint(address(this), mintAmount);\r\n          }\r\n        }\r\n        //Collect stakes\r\n        for (j = 0; j < participants.length; j = j.add(1)) {\r\n          address participant = participants[j];\r\n          isFor = forStakedControlOfProposalOfUser[i][participant] != 0;\r\n          uint256 userBalance = cToken.balanceOf(participant);\r\n          if (!isFor && userBalance > 0) {\r\n            uint256 stake = stakeProportion.mul(userBalance).div(tenToDecimals);\r\n            cToken.ownerCollectFrom(participant, stake);\r\n            proposals[i].numAgainst = proposals[i].numAgainst.add(1);\r\n            againstStakedControlOfProposalOfUser[i][participant] = againstStakedControlOfProposalOfUser[i][participant].add(stake);\r\n          }\r\n        }\r\n      }\r\n    }\r\n  }\r\n\r\n  /**\r\n   * Turns the investment proposals into EtherDelta orders.\r\n   */\r\n  function __makeInvestments() internal {\r\n    //Invest in tokens using etherdelta\r\n    for (uint256 i = 0; i < proposals.length; i = i.add(1)) {\r\n      if (proposals[i].numFor > 0) { //Ensure proposal isn't a deleted one\r\n        //Deposit ether\r\n        uint256 investAmount = totalFundsInWeis.mul(forStakedControlOfProposal[i]).div(totalStaked);\r\n        etherDelta.deposit.value(investAmount)();\r\n        oraclize.__grabCurrentPriceFromOraclize(i);\r\n      }\r\n    }\r\n  }\r\n\r\n  /**\r\n   * Ends the Waiting phase.\r\n   */\r\n  function endWaitingTime() public during(CyclePhase.Waiting) whenNotPaused {\r\n    require(now >= startTimeOfCyclePhase.add(timeOfWaiting));\r\n\r\n    //Update values\r\n    startTimeOfCyclePhase = now;\r\n    cyclePhase = CyclePhase.Ended;\r\n\r\n    //Sell all invested tokens\r\n    for (uint256 i = 0; i < proposals.length; i = i.add(1)) {\r\n      if (proposals[i].numFor > 0) { //Ensure proposal isn't a deleted one\r\n        oraclize.__grabCurrentPriceFromOraclize(i);\r\n      }\r\n    }\r\n\r\n    //Emit event\r\n    CycleEnded(cycleNumber, now);\r\n  }\r\n\r\n  /**\r\n   * Finalize the cycle by redistributing user balances and settling investment proposals.\r\n   */\r\n  function finalizeCycle() public during(CyclePhase.Ended) whenNotPaused {\r\n    require(now >= startTimeOfCyclePhase.add(timeOfSellOrderWaiting));\r\n\r\n    //Update cycle values\r\n    startTimeOfCyclePhase = now;\r\n    cyclePhase = CyclePhase.Finalized;\r\n\r\n    //Settle investment proposal results\r\n    for (uint256 proposalId = 0; proposalId < proposals.length; proposalId = proposalId.add(1)) {\r\n      if (proposals[proposalId].numFor > 0) { //Ensure proposal isn't a deleted one\r\n        __settleBets(proposalId);\r\n      }\r\n    }\r\n    //Burn any Kairo left in BetokenFund's account\r\n    cToken.burnOwnerBalance();\r\n\r\n    //Withdraw from etherdelta\r\n    uint256 balance = etherDelta.tokens(address(0), address(this));\r\n    etherDelta.withdraw(balance);\r\n\r\n    //Get all remaining funds from OraclizeHandler\r\n    oraclize.__returnAllFunds();\r\n\r\n    //Distribute funds\r\n    __distributeFundsAfterCycleEnd();\r\n\r\n    //Emit event\r\n    CycleFinalized(cycleNumber, now);\r\n  }\r\n\r\n  /**\r\n   * Settles an investment proposal in terms of profitability.\r\n   * @param _proposalId ID of the proposal\r\n   */\r\n  function __settleBets(uint256 _proposalId) internal {\r\n    Proposal storage prop = proposals[_proposalId];\r\n\r\n    //Prevent divide by zero errors\r\n    if (prop.buyPriceInWeis == 0 || totalStaked == 0) {\r\n      __returnStakes(_proposalId);\r\n      return;\r\n    }\r\n\r\n    uint256 stake;\r\n    uint256 j;\r\n    address participant;\r\n    uint256 investAmount = totalFundsInWeis.mul(forStakedControlOfProposal[_proposalId]).div(totalStaked);\r\n\r\n    //Check if sell order has been partially or completely filled\r\n    if (etherDelta.amountFilled(prop.tokenAddress, investAmount.mul(10**prop.tokenDecimals).div(prop.buyPriceInWeis), address(0), investAmount, prop.sellOrderExpirationBlockNum, _proposalId, address(this), 0, 0, 0) != 0) {\r\n      if (prop.sellPriceInWeis > prop.buyPriceInWeis) {\r\n        //For wins\r\n        for (j = 0; j < participants.length; j = j.add(1)) {\r\n          participant = participants[j];\r\n          stake = forStakedControlOfProposalOfUser[_proposalId][participant];\r\n          if (stake > 0) {\r\n            //Give control tokens\r\n            cToken.transfer(participant, stake.mul(2));\r\n            //Emit event\r\n            PredictionResult(cycleNumber, participant, true);\r\n          } else {\r\n            //Check if participant staked against\r\n            if (againstStakedControlOfProposalOfUser[_proposalId][participant] > 0) {\r\n              //Emit event\r\n              PredictionResult(cycleNumber, participant, false);\r\n            }\r\n          }\r\n        }\r\n      } else {\r\n        //Against wins\r\n        if (prop.numAgainst > 0) {\r\n          for (j = 0; j < participants.length; j = j.add(1)) {\r\n            participant = participants[j];\r\n            stake = againstStakedControlOfProposalOfUser[_proposalId][participant];\r\n            if (stake > 0) {\r\n              //Give control tokens\r\n              cToken.transfer(participant, stake.mul(2));\r\n              //Emit event\r\n              PredictionResult(cycleNumber, participant, true);\r\n            } else {\r\n              //Check if participant staked for\r\n              if (forStakedControlOfProposalOfUser[_proposalId][participant] > 0) {\r\n                //Emit event\r\n                PredictionResult(cycleNumber, participant, false);\r\n              }\r\n            }\r\n          }\r\n        } else {\r\n          //Everyone f'ed up somehow. No point in punishing. Return stakes.\r\n          __returnStakes(_proposalId);\r\n        }\r\n      }\r\n    } else {\r\n      //Buy order failed completely. Give back stakes.\r\n      __returnStakes(_proposalId);\r\n    }\r\n  }\r\n\r\n  /**\r\n   * Returns all stakes of a proposal\r\n   * @param _proposalId ID of a proposal\r\n   */\r\n  function __returnStakes(uint256 _proposalId) internal {\r\n    for (uint256 j = 0; j < participants.length; j = j.add(1)) {\r\n      address participant = participants[j];\r\n      uint256 stake = forStakedControlOfProposalOfUser[_proposalId][participant].add(againstStakedControlOfProposalOfUser[_proposalId][participant]);\r\n      if (stake != 0) {\r\n        cToken.transfer(participant, stake);\r\n      }\r\n    }\r\n  }\r\n\r\n  /**\r\n   * Distributes the funds accourding to previously held proportions. Pays commission to Kairo holders,\r\n   * developer fees to developers, and oraclize fee to OraclizeHandler.\r\n   */\r\n  function __distributeFundsAfterCycleEnd() internal {\r\n    uint256 profit = 0;\r\n    if (this.balance > totalFundsInWeis) {\r\n      profit = this.balance - totalFundsInWeis;\r\n    }\r\n    uint256 totalCommission = commissionRate.mul(profit).div(tenToDecimals);\r\n    uint256 devFee = developerFeeProportion.mul(this.balance).div(tenToDecimals);\r\n    uint256 oraclizeFee = oraclize.__oraclizeFee().mul(maxProposals).mul(2);\r\n    uint256 newTotalRegularFunds = this.balance.sub(totalCommission).sub(devFee);\r\n    if (oraclizeFee <= newTotalRegularFunds) {\r\n      newTotalRegularFunds = newTotalRegularFunds.sub(oraclizeFee);\r\n    }\r\n\r\n    //Distributes funds to participants\r\n    for (uint256 i = 0; i < participants.length; i = i.add(1)) {\r\n      address participant = participants[i];\r\n      uint256 newBalance = 0;\r\n      //Add share\r\n      if (totalFundsInWeis > 0) {\r\n        newBalance = newBalance.add(newTotalRegularFunds.mul(balanceOf[participant]).div(totalFundsInWeis));\r\n      }\r\n      //Add commission\r\n      //Adding a check for nonzero Kairo supply here makes Truffle go apeshit. Edge case anyways, so whatevs.\r\n      newBalance = newBalance.add(totalCommission.mul(cToken.balanceOf(participant)).div(cToken.totalSupply()));\r\n      //Update balance\r\n      balanceOf[participant] = newBalance;\r\n    }\r\n\r\n    //Update values\r\n    uint256 newTotalFunds = newTotalRegularFunds.add(totalCommission);\r\n    ROI(cycleNumber, totalFundsInWeis, newTotalFunds);\r\n    totalFundsInWeis = newTotalFunds;\r\n\r\n    //Transfer fees\r\n    developerFeeAccount.transfer(devFee);\r\n    oraclize.transfer(oraclizeFee);\r\n\r\n    //Emit event\r\n    CommissionPaid(cycleNumber, totalCommission);\r\n  }\r\n\r\n  /**\r\n   * Internal use functions\r\n   */\r\n\r\n  function __addControlTokenReceipientAsParticipant(address _receipient) public {\r\n    require(msg.sender == controlTokenAddr);\r\n    isParticipant[_receipient] = true;\r\n    participants.push(_receipient);\r\n  }\r\n\r\n  function __makeOrder(address _tokenGet, uint _amountGet, address _tokenGive, uint _amountGive, uint _expires, uint _nonce) public onlyOraclize whenNotPaused {\r\n    etherDelta.order(_tokenGet, _amountGet, _tokenGive, _amountGive, _expires, _nonce);\r\n  }\r\n\r\n  function __setBuyPriceAndExpirationBlock(uint256 _proposalId, uint256 _buyPrice, uint256 _expires) public onlyOraclize {\r\n    proposals[_proposalId].buyPriceInWeis = _buyPrice;\r\n    proposals[_proposalId].buyOrderExpirationBlockNum = _expires;\r\n  }\r\n\r\n  function __setSellPriceAndExpirationBlock(uint256 _proposalId, uint256 _sellPrice, uint256 _expires) public onlyOraclize {\r\n    proposals[_proposalId].sellPriceInWeis = _sellPrice;\r\n    proposals[_proposalId].sellOrderExpirationBlockNum = _expires;\r\n  }\r\n\r\n  function() public payable {\r\n    if (msg.sender != etherDeltaAddr && msg.sender != oraclizeAddr) {\r\n      revert();\r\n    }\r\n  }\r\n}\r\n\r\n/**\r\n * Contract that handles all Oraclize related operations.\r\n */\r\ncontract OraclizeHandler is usingOraclize, Ownable {\r\n  using SafeMath for uint256;\r\n\r\n  enum CyclePhase { ChangeMaking, ProposalMaking, Waiting, Ended, Finalized }\r\n\r\n  //URL parts used for Oraclize queries.\r\n  string public priceCheckURL1;\r\n  string public priceCheckURL2;\r\n  string public currencySymbol;\r\n\r\n  //Addresses of other contracts.\r\n  address public controlTokenAddr;\r\n  address public etherDeltaAddr;\r\n\r\n  //mapping(queryHash => proposalId)\r\n  mapping(bytes32 => uint256) public proposalIdOfQuery;\r\n\r\n  //References to other contracts.\r\n  BetokenFund internal betokenFund;\r\n  ControlToken internal cToken;\r\n  EtherDelta internal etherDelta;\r\n\r\n  //Stores the token symbols of each proposal.\r\n  string[] public tokenSymbolOfProposal;\r\n\r\n  function OraclizeHandler(\r\n    address _controlTokenAddr,\r\n    address _etherDeltaAddr,\r\n    string _priceCheckURL1,\r\n    string _priceCheckURL2\r\n  )\r\n    public\r\n  {\r\n    controlTokenAddr = _controlTokenAddr;\r\n    etherDeltaAddr = _etherDeltaAddr;\r\n    cToken = ControlToken(_controlTokenAddr);\r\n    etherDelta = EtherDelta(_etherDeltaAddr);\r\n\r\n    priceCheckURL1 = _priceCheckURL1;\r\n    priceCheckURL2 = _priceCheckURL2;\r\n  }\r\n\r\n  function __changeEtherDeltaAddress(address _newAddr) public onlyOwner {\r\n    etherDeltaAddr = _newAddr;\r\n    etherDelta = EtherDelta(_newAddr);\r\n  }\r\n\r\n  function __pushTokenSymbolOfProposal(string _tokenSymbol) public onlyOwner {\r\n    tokenSymbolOfProposal.push(_tokenSymbol);\r\n  }\r\n\r\n  function __deleteTokenSymbolOfProposal() public onlyOwner {\r\n    delete tokenSymbolOfProposal;\r\n  }\r\n\r\n  function __returnAllFunds() public onlyOwner {\r\n    owner.transfer(this.balance);\r\n  }\r\n\r\n  function __oraclizeFee() public view returns(uint256) {\r\n    return oraclize_getPrice(\"URL\");\r\n  }\r\n\r\n  /**\r\n   * Oraclize functions\r\n   */\r\n\r\n  /**\r\n   * Queries the price of a proposal's token using Oraclize.\r\n   * @param _proposalId ID of the proposal\r\n   */\r\n  function __grabCurrentPriceFromOraclize(uint _proposalId) public payable onlyOwner {\r\n    require(oraclize_getPrice(\"URL\") <= this.balance);\r\n\r\n    betokenFund = BetokenFund(owner);\r\n\r\n    //Generate query\r\n    string storage tokenSymbol = tokenSymbolOfProposal[_proposalId];\r\n    string memory urlToQuery = strConcat(priceCheckURL1, tokenSymbol, priceCheckURL2);\r\n\r\n    //Call Oraclize to grab the most recent price information\r\n    proposalIdOfQuery[oraclize_query(\"URL\", urlToQuery)] = _proposalId;\r\n  }\r\n\r\n  /**\r\n   * Callback function for Oraclize queries.\r\n   * @param _myID query ID\r\n   * @param _result  result of query\r\n   */\r\n  function __callback(bytes32 _myID, string _result) public {\r\n    require(msg.sender == oraclize_cbAddress());\r\n    require(keccak256(_result) != keccak256(\"\"));\r\n\r\n    //Update BetokenFund contract in case owner has changed\r\n    betokenFund = BetokenFund(owner);\r\n\r\n    //Grab ETH price in Weis\r\n    uint256 priceInWeis = parseInt(_result, 18);\r\n\r\n    //Get proposal data\r\n    uint256 proposalId = proposalIdOfQuery[_myID];\r\n    var (tokenAddress, _, decimals,) = betokenFund.proposals(proposalId);\r\n\r\n    uint256 investAmount = betokenFund.totalFundsInWeis().mul(betokenFund.forStakedControlOfProposal(proposalId)).div(betokenFund.totalStaked());\r\n    uint256 expires = block.number.add(betokenFund.orderExpirationTimeInBlocks());\r\n    if (uint(betokenFund.cyclePhase()) == uint(CyclePhase.Waiting)) {\r\n      //Make buy orders\r\n      betokenFund.__setBuyPriceAndExpirationBlock(proposalId, priceInWeis, expires);\r\n      uint256 buyTokenAmount = investAmount.mul(10**decimals).div(priceInWeis);\r\n      betokenFund.__makeOrder(tokenAddress, buyTokenAmount, address(0), investAmount, expires, proposalId);\r\n    } else if (uint(betokenFund.cyclePhase()) == uint(CyclePhase.Ended)) {\r\n      //Make sell orders\r\n      betokenFund.__setSellPriceAndExpirationBlock(proposalId, priceInWeis, expires);\r\n      uint256 sellTokenAmount = etherDelta.tokens(tokenAddress, owner);\r\n      uint256 getWeiAmount = sellTokenAmount.mul(priceInWeis).div(10**decimals);\r\n      betokenFund.__makeOrder(address(0), getWeiAmount, tokenAddress, sellTokenAmount, expires, proposalId);\r\n    }\r\n\r\n    //Reset data\r\n    delete proposalIdOfQuery[_myID];\r\n  }\r\n\r\n  function() public payable {\r\n    if (msg.sender != owner) {\r\n      revert();\r\n    }\r\n  }\r\n}\r\n\r\n/**\r\n * ERC20 token contract for Kairo.\r\n */\r\ncontract ControlToken is MintableToken {\r\n  using SafeMath for uint256;\r\n\r\n  string public constant name = \"Kairo\";\r\n  string public constant symbol = \"KRO\";\r\n  uint8 public constant decimals = 18;\r\n\r\n  event OwnerCollectFrom(address _from, uint256 _value);\r\n\r\n  /**\r\n   * Transfer token for a specified address\r\n   * @param _to The address to transfer to.\r\n   * @param _value The amount to be transferred.\r\n   */\r\n  function transfer(address _to, uint256 _value) public returns(bool) {\r\n    require(_to != address(0));\r\n    require(_value <= balances[msg.sender]);\r\n\r\n    //Add receipient as a participant if not already a participant\r\n    addParticipant(_to);\r\n\r\n    // SafeMath.sub will throw if there is not enough balance.\r\n    balances[msg.sender] = balances[msg.sender].sub(_value);\r\n    balances[_to] = balances[_to].add(_value);\r\n    Transfer(msg.sender, _to, _value);\r\n    return true;\r\n  }\r\n\r\n  /**\r\n   * Transfer tokens from one address to another\r\n   * @param _from The address which you want to send tokens from\r\n   * @param _to The address which you want to transfer to\r\n   * @param _value the amount of tokens to be transferred\r\n   */\r\n  function transferFrom(address _from, address _to, uint256 _value) public returns (bool) {\r\n    require(_to != address(0));\r\n    require(_value <= balances[_from]);\r\n    require(_value <= allowed[_from][msg.sender]);\r\n\r\n    //Add receipient as a participant if not already a participant\r\n    addParticipant(_to);\r\n\r\n    balances[_from] = balances[_from].sub(_value);\r\n    balances[_to] = balances[_to].add(_value);\r\n    allowed[_from][msg.sender] = allowed[_from][msg.sender].sub(_value);\r\n    Transfer(_from, _to, _value);\r\n    return true;\r\n  }\r\n\r\n  /**\r\n   * Collects tokens for the owner.\r\n   * @param _from The address which you want to send tokens from\r\n   * @param _value the amount of tokens to be transferred\r\n   * @return true if succeeded, false otherwise\r\n   */\r\n  function ownerCollectFrom(address _from, uint256 _value) public onlyOwner returns(bool) {\r\n    require(_from != address(0));\r\n    require(_value <= balances[_from]);\r\n\r\n    // SafeMath.sub will throw if there is not enough balance.\r\n    balances[_from] = balances[_from].sub(_value);\r\n    balances[msg.sender] = balances[msg.sender].add(_value);\r\n    OwnerCollectFrom(_from, _value);\r\n    return true;\r\n  }\r\n\r\n  /**\r\n   * Adds an address as a BetokenFund participant.\r\n   * @param  _to the address to be added\r\n   */\r\n  function addParticipant(address _to) internal {\r\n    BetokenFund groupFund = BetokenFund(owner);\r\n    if (!groupFund.isParticipant(_to)) {\r\n      groupFund.__addControlTokenReceipientAsParticipant(_to);\r\n    }\r\n  }\r\n\r\n  /**\r\n   * Burns the owner's token balance.\r\n   */\r\n  function burnOwnerBalance() public onlyOwner {\r\n    totalSupply_ = totalSupply_.sub(balances[owner]);\r\n    balances[owner] = 0;\r\n  }\r\n\r\n  function() public {\r\n    revert();\r\n  }\r\n}\r\n",
  "sourcePath": "D:\\msi-cn\\Documents\\GitHub\\betoken\\eth\\contracts\\betoken.sol",
  "compiler": {
    "name": "solc",
    "version": "0.4.18+commit.9cf6e910.Emscripten.clang"
  },
  "schemaVersion": "1.0.1",
  "updatedAt": "2018-01-29T07:25:45.807Z"
}