{
  "contractName": "BetokenFund",
  "abi": [
    {
      "constant": true,
      "inputs": [],
      "name": "allowEmergencyWithdraw",
      "outputs": [
        {
          "name": "",
          "type": "bool"
        }
      ],
      "payable": false,
      "stateMutability": "view",
      "type": "function"
    },
    {
      "constant": true,
      "inputs": [],
      "name": "developerFeeAccount",
      "outputs": [
        {
          "name": "",
          "type": "address"
        }
      ],
      "payable": false,
      "stateMutability": "view",
      "type": "function"
    },
    {
      "constant": true,
      "inputs": [
        {
          "name": "",
          "type": "address"
        },
        {
          "name": "",
          "type": "uint256"
        }
      ],
      "name": "userProposals",
      "outputs": [
        {
          "name": "tokenAddress",
          "type": "address"
        },
        {
          "name": "cycleNumber",
          "type": "uint256"
        },
        {
          "name": "stake",
          "type": "uint256"
        },
        {
          "name": "tokenAmount",
          "type": "uint256"
        },
        {
          "name": "buyPriceInWeis",
          "type": "uint256"
        },
        {
          "name": "sellPriceInWeis",
          "type": "uint256"
        },
        {
          "name": "isSold",
          "type": "bool"
        }
      ],
      "payable": false,
      "stateMutability": "view",
      "type": "function"
    },
    {
      "constant": true,
      "inputs": [],
      "name": "startTimeOfCyclePhase",
      "outputs": [
        {
          "name": "",
          "type": "uint256"
        }
      ],
      "payable": false,
      "stateMutability": "view",
      "type": "function"
    },
    {
      "constant": true,
      "inputs": [],
      "name": "timeOfChangeMaking",
      "outputs": [
        {
          "name": "",
          "type": "uint256"
        }
      ],
      "payable": false,
      "stateMutability": "view",
      "type": "function"
    },
    {
      "constant": true,
      "inputs": [],
      "name": "cycleNumber",
      "outputs": [
        {
          "name": "",
          "type": "uint256"
        }
      ],
      "payable": false,
      "stateMutability": "view",
      "type": "function"
    },
    {
      "constant": true,
      "inputs": [],
      "name": "timeOfFinalizing",
      "outputs": [
        {
          "name": "",
          "type": "uint256"
        }
      ],
      "payable": false,
      "stateMutability": "view",
      "type": "function"
    },
    {
      "constant": false,
      "inputs": [],
      "name": "unpause",
      "outputs": [],
      "payable": false,
      "stateMutability": "nonpayable",
      "type": "function"
    },
    {
      "constant": true,
      "inputs": [],
      "name": "controlTokenInflation",
      "outputs": [
        {
          "name": "",
          "type": "uint256"
        }
      ],
      "payable": false,
      "stateMutability": "view",
      "type": "function"
    },
    {
      "constant": true,
      "inputs": [],
      "name": "timeOfWaiting",
      "outputs": [
        {
          "name": "",
          "type": "uint256"
        }
      ],
      "payable": false,
      "stateMutability": "view",
      "type": "function"
    },
    {
      "constant": true,
      "inputs": [],
      "name": "paused",
      "outputs": [
        {
          "name": "",
          "type": "bool"
        }
      ],
      "payable": false,
      "stateMutability": "view",
      "type": "function"
    },
    {
      "constant": true,
      "inputs": [],
      "name": "commissionRate",
      "outputs": [
        {
          "name": "",
          "type": "uint256"
        }
      ],
      "payable": false,
      "stateMutability": "view",
      "type": "function"
    },
    {
      "constant": true,
      "inputs": [],
      "name": "functionCallReward",
      "outputs": [
        {
          "name": "",
          "type": "uint256"
        }
      ],
      "payable": false,
      "stateMutability": "view",
      "type": "function"
    },
    {
      "constant": true,
      "inputs": [],
      "name": "aumThresholdInWeis",
      "outputs": [
        {
          "name": "",
          "type": "uint256"
        }
      ],
      "payable": false,
      "stateMutability": "view",
      "type": "function"
    },
    {
      "constant": true,
      "inputs": [],
      "name": "totalFundsInWeis",
      "outputs": [
        {
          "name": "",
          "type": "uint256"
        }
      ],
      "payable": false,
      "stateMutability": "view",
      "type": "function"
    },
    {
      "constant": true,
      "inputs": [
        {
          "name": "",
          "type": "address"
        }
      ],
      "name": "lastCommissionRedemption",
      "outputs": [
        {
          "name": "",
          "type": "uint256"
        }
      ],
      "payable": false,
      "stateMutability": "view",
      "type": "function"
    },
    {
      "constant": false,
      "inputs": [],
      "name": "pause",
      "outputs": [],
      "payable": false,
      "stateMutability": "nonpayable",
      "type": "function"
    },
    {
      "constant": true,
      "inputs": [],
      "name": "owner",
      "outputs": [
        {
          "name": "",
          "type": "address"
        }
      ],
      "payable": false,
      "stateMutability": "view",
      "type": "function"
    },
    {
      "constant": true,
      "inputs": [],
      "name": "kyberAddr",
      "outputs": [
        {
          "name": "",
          "type": "address"
        }
      ],
      "payable": false,
      "stateMutability": "view",
      "type": "function"
    },
    {
      "constant": true,
      "inputs": [],
      "name": "PRECISION",
      "outputs": [
        {
          "name": "",
          "type": "uint256"
        }
      ],
      "payable": false,
      "stateMutability": "view",
      "type": "function"
    },
    {
      "constant": true,
      "inputs": [],
      "name": "developerFeeProportion",
      "outputs": [
        {
          "name": "",
          "type": "uint256"
        }
      ],
      "payable": false,
      "stateMutability": "view",
      "type": "function"
    },
    {
      "constant": true,
      "inputs": [],
      "name": "totalCommission",
      "outputs": [
        {
          "name": "",
          "type": "uint256"
        }
      ],
      "payable": false,
      "stateMutability": "view",
      "type": "function"
    },
    {
      "constant": true,
      "inputs": [],
      "name": "shareTokenAddr",
      "outputs": [
        {
          "name": "",
          "type": "address"
        }
      ],
      "payable": false,
      "stateMutability": "view",
      "type": "function"
    },
    {
      "constant": true,
      "inputs": [],
      "name": "timeOfProposalMaking",
      "outputs": [
        {
          "name": "",
          "type": "uint256"
        }
      ],
      "payable": false,
      "stateMutability": "view",
      "type": "function"
    },
    {
      "constant": true,
      "inputs": [],
      "name": "timeBetweenCycles",
      "outputs": [
        {
          "name": "",
          "type": "uint256"
        }
      ],
      "payable": false,
      "stateMutability": "view",
      "type": "function"
    },
    {
      "constant": true,
      "inputs": [],
      "name": "controlTokenAddr",
      "outputs": [
        {
          "name": "",
          "type": "address"
        }
      ],
      "payable": false,
      "stateMutability": "view",
      "type": "function"
    },
    {
      "constant": false,
      "inputs": [
        {
          "name": "newOwner",
          "type": "address"
        }
      ],
      "name": "transferOwnership",
      "outputs": [],
      "payable": false,
      "stateMutability": "nonpayable",
      "type": "function"
    },
    {
      "constant": true,
      "inputs": [],
      "name": "cyclePhase",
      "outputs": [
        {
          "name": "",
          "type": "uint8"
        }
      ],
      "payable": false,
      "stateMutability": "view",
      "type": "function"
    },
    {
      "inputs": [
        {
          "name": "_cTokenAddr",
          "type": "address"
        },
        {
          "name": "_sTokenAddr",
          "type": "address"
        },
        {
          "name": "_kyberAddr",
          "type": "address"
        },
        {
          "name": "_developerFeeAccount",
          "type": "address"
        },
        {
          "name": "_timeOfChangeMaking",
          "type": "uint256"
        },
        {
          "name": "_timeOfProposalMaking",
          "type": "uint256"
        },
        {
          "name": "_timeOfWaiting",
          "type": "uint256"
        },
        {
          "name": "_timeOfFinalizing",
          "type": "uint256"
        },
        {
          "name": "_timeBetweenCycles",
          "type": "uint256"
        },
        {
          "name": "_commissionRate",
          "type": "uint256"
        },
        {
          "name": "_developerFeeProportion",
          "type": "uint256"
        },
        {
          "name": "_cycleNumber",
          "type": "uint256"
        },
        {
          "name": "_functionCallReward",
          "type": "uint256"
        },
        {
          "name": "_controlTokenInflation",
          "type": "uint256"
        },
        {
          "name": "_aumThresholdInWeis",
          "type": "uint256"
        }
      ],
      "payable": false,
      "stateMutability": "nonpayable",
      "type": "constructor"
    },
    {
      "payable": true,
      "stateMutability": "payable",
      "type": "fallback"
    },
    {
      "anonymous": false,
      "inputs": [
        {
          "indexed": true,
          "name": "_cycleNumber",
          "type": "uint256"
        },
        {
          "indexed": false,
          "name": "_timestamp",
          "type": "uint256"
        }
      ],
      "name": "CycleStarted",
      "type": "event"
    },
    {
      "anonymous": false,
      "inputs": [
        {
          "indexed": true,
          "name": "_cycleNumber",
          "type": "uint256"
        },
        {
          "indexed": true,
          "name": "_sender",
          "type": "address"
        },
        {
          "indexed": false,
          "name": "_tokenAddress",
          "type": "address"
        },
        {
          "indexed": false,
          "name": "_amount",
          "type": "uint256"
        },
        {
          "indexed": false,
          "name": "_timestamp",
          "type": "uint256"
        }
      ],
      "name": "Deposit",
      "type": "event"
    },
    {
      "anonymous": false,
      "inputs": [
        {
          "indexed": true,
          "name": "_cycleNumber",
          "type": "uint256"
        },
        {
          "indexed": true,
          "name": "_sender",
          "type": "address"
        },
        {
          "indexed": false,
          "name": "_tokenAddress",
          "type": "address"
        },
        {
          "indexed": false,
          "name": "_amount",
          "type": "uint256"
        },
        {
          "indexed": false,
          "name": "_timestamp",
          "type": "uint256"
        }
      ],
      "name": "Withdraw",
      "type": "event"
    },
    {
      "anonymous": false,
      "inputs": [
        {
          "indexed": true,
          "name": "_cycleNumber",
          "type": "uint256"
        },
        {
          "indexed": false,
          "name": "_timestamp",
          "type": "uint256"
        }
      ],
      "name": "ChangeMakingTimeEnded",
      "type": "event"
    },
    {
      "anonymous": false,
      "inputs": [
        {
          "indexed": true,
          "name": "_cycleNumber",
          "type": "uint256"
        },
        {
          "indexed": true,
          "name": "_sender",
          "type": "address"
        },
        {
          "indexed": false,
          "name": "_id",
          "type": "uint256"
        },
        {
          "indexed": false,
          "name": "_tokenAddress",
          "type": "address"
        },
        {
          "indexed": false,
          "name": "_stakeInWeis",
          "type": "uint256"
        }
      ],
      "name": "NewProposal",
      "type": "event"
    },
    {
      "anonymous": false,
      "inputs": [
        {
          "indexed": true,
          "name": "_cycleNumber",
          "type": "uint256"
        },
        {
          "indexed": false,
          "name": "_timestamp",
          "type": "uint256"
        }
      ],
      "name": "ProposalMakingTimeEnded",
      "type": "event"
    },
    {
      "anonymous": false,
      "inputs": [
        {
          "indexed": true,
          "name": "_cycleNumber",
          "type": "uint256"
        },
        {
          "indexed": false,
          "name": "_timestamp",
          "type": "uint256"
        }
      ],
      "name": "WaitingPhaseEnded",
      "type": "event"
    },
    {
      "anonymous": false,
      "inputs": [
        {
          "indexed": true,
          "name": "_cycleNumber",
          "type": "uint256"
        },
        {
          "indexed": true,
          "name": "_sender",
          "type": "address"
        },
        {
          "indexed": false,
          "name": "_proposalId",
          "type": "uint256"
        },
        {
          "indexed": false,
          "name": "_receivedKairos",
          "type": "uint256"
        }
      ],
      "name": "ProposalSold",
      "type": "event"
    },
    {
      "anonymous": false,
      "inputs": [
        {
          "indexed": true,
          "name": "_cycleNumber",
          "type": "uint256"
        },
        {
          "indexed": false,
          "name": "_timestamp",
          "type": "uint256"
        }
      ],
      "name": "SellingPhaseEnded",
      "type": "event"
    },
    {
      "anonymous": false,
      "inputs": [
        {
          "indexed": true,
          "name": "_cycleNumber",
          "type": "uint256"
        },
        {
          "indexed": false,
          "name": "_beforeTotalFunds",
          "type": "uint256"
        },
        {
          "indexed": false,
          "name": "_afterTotalFunds",
          "type": "uint256"
        }
      ],
      "name": "ROI",
      "type": "event"
    },
    {
      "anonymous": false,
      "inputs": [
        {
          "indexed": true,
          "name": "_cycleNumber",
          "type": "uint256"
        },
        {
          "indexed": true,
          "name": "_sender",
          "type": "address"
        },
        {
          "indexed": false,
          "name": "_commission",
          "type": "uint256"
        }
      ],
      "name": "CommissionPaid",
      "type": "event"
    },
    {
      "anonymous": false,
      "inputs": [
        {
          "indexed": true,
          "name": "_cycleNumber",
          "type": "uint256"
        },
        {
          "indexed": false,
          "name": "_totalCommissionInWeis",
          "type": "uint256"
        }
      ],
      "name": "TotalCommissionPaid",
      "type": "event"
    },
    {
      "anonymous": false,
      "inputs": [
        {
          "indexed": true,
          "name": "_cycleNumber",
          "type": "uint256"
        },
        {
          "indexed": false,
          "name": "_timestamp",
          "type": "uint256"
        }
      ],
      "name": "CycleFinalized",
      "type": "event"
    },
    {
      "anonymous": false,
      "inputs": [],
      "name": "Pause",
      "type": "event"
    },
    {
      "anonymous": false,
      "inputs": [],
      "name": "Unpause",
      "type": "event"
    },
    {
      "anonymous": false,
      "inputs": [
        {
          "indexed": true,
          "name": "previousOwner",
          "type": "address"
        },
        {
          "indexed": true,
          "name": "newOwner",
          "type": "address"
        }
      ],
      "name": "OwnershipTransferred",
      "type": "event"
    },
    {
      "constant": true,
      "inputs": [
        {
          "name": "_userAddr",
          "type": "address"
        }
      ],
      "name": "proposalsCount",
      "outputs": [
        {
          "name": "_count",
          "type": "uint256"
        }
      ],
      "payable": false,
      "stateMutability": "view",
      "type": "function"
    },
    {
      "constant": true,
      "inputs": [
        {
          "name": "_userAddr",
          "type": "address"
        }
      ],
      "name": "proposals",
      "outputs": [
        {
          "components": [
            {
              "name": "tokenAddress",
              "type": "address"
            },
            {
              "name": "cycleNumber",
              "type": "uint256"
            },
            {
              "name": "stake",
              "type": "uint256"
            },
            {
              "name": "tokenAmount",
              "type": "uint256"
            },
            {
              "name": "buyPriceInWeis",
              "type": "uint256"
            },
            {
              "name": "sellPriceInWeis",
              "type": "uint256"
            },
            {
              "name": "isSold",
              "type": "bool"
            }
          ],
          "name": "_proposals",
          "type": "tuple[]"
        }
      ],
      "payable": false,
      "stateMutability": "view",
      "type": "function"
    },
    {
      "constant": false,
      "inputs": [
        {
          "name": "_tokenAddr",
          "type": "address"
        }
      ],
      "name": "emergencyDumpToken",
      "outputs": [],
      "payable": false,
      "stateMutability": "nonpayable",
      "type": "function"
    },
    {
      "constant": false,
      "inputs": [
        {
          "name": "_proposalId",
          "type": "uint256"
        }
      ],
      "name": "emergencyRedeemStake",
      "outputs": [],
      "payable": false,
      "stateMutability": "nonpayable",
      "type": "function"
    },
    {
      "constant": false,
      "inputs": [],
      "name": "emergencyUpdateBalance",
      "outputs": [],
      "payable": false,
      "stateMutability": "nonpayable",
      "type": "function"
    },
    {
      "constant": false,
      "inputs": [
        {
          "name": "_val",
          "type": "bool"
        }
      ],
      "name": "setAllowEmergencyWithdraw",
      "outputs": [],
      "payable": false,
      "stateMutability": "nonpayable",
      "type": "function"
    },
    {
      "constant": false,
      "inputs": [],
      "name": "emergencyWithdraw",
      "outputs": [],
      "payable": false,
      "stateMutability": "nonpayable",
      "type": "function"
    },
    {
      "constant": false,
      "inputs": [
        {
          "name": "_newAddr",
          "type": "address"
        }
      ],
      "name": "changeKyberNetworkAddress",
      "outputs": [],
      "payable": false,
      "stateMutability": "nonpayable",
      "type": "function"
    },
    {
      "constant": false,
      "inputs": [
        {
          "name": "_newAddr",
          "type": "address"
        }
      ],
      "name": "changeDeveloperFeeAccount",
      "outputs": [],
      "payable": false,
      "stateMutability": "nonpayable",
      "type": "function"
    },
    {
      "constant": false,
      "inputs": [
        {
          "name": "_newProp",
          "type": "uint256"
        }
      ],
      "name": "changeDeveloperFeeProportion",
      "outputs": [],
      "payable": false,
      "stateMutability": "nonpayable",
      "type": "function"
    },
    {
      "constant": false,
      "inputs": [
        {
          "name": "_newProp",
          "type": "uint256"
        }
      ],
      "name": "changeCommissionRate",
      "outputs": [],
      "payable": false,
      "stateMutability": "nonpayable",
      "type": "function"
    },
    {
      "constant": false,
      "inputs": [
        {
          "name": "_newVal",
          "type": "uint256"
        }
      ],
      "name": "changeControlTokenInflation",
      "outputs": [],
      "payable": false,
      "stateMutability": "nonpayable",
      "type": "function"
    },
    {
      "constant": false,
      "inputs": [
        {
          "name": "_newOwner",
          "type": "address"
        }
      ],
      "name": "changeControlTokenOwner",
      "outputs": [],
      "payable": false,
      "stateMutability": "nonpayable",
      "type": "function"
    },
    {
      "constant": false,
      "inputs": [
        {
          "name": "_newOwner",
          "type": "address"
        }
      ],
      "name": "changeShareTokenOwner",
      "outputs": [],
      "payable": false,
      "stateMutability": "nonpayable",
      "type": "function"
    },
    {
      "constant": false,
      "inputs": [],
      "name": "startNewCycle",
      "outputs": [],
      "payable": false,
      "stateMutability": "nonpayable",
      "type": "function"
    },
    {
      "constant": false,
      "inputs": [],
      "name": "deposit",
      "outputs": [],
      "payable": true,
      "stateMutability": "payable",
      "type": "function"
    },
    {
      "constant": false,
      "inputs": [
        {
          "name": "_tokenAddr",
          "type": "address"
        },
        {
          "name": "_tokenAmount",
          "type": "uint256"
        }
      ],
      "name": "depositToken",
      "outputs": [],
      "payable": false,
      "stateMutability": "nonpayable",
      "type": "function"
    },
    {
      "constant": false,
      "inputs": [
        {
          "name": "_amountInWeis",
          "type": "uint256"
        }
      ],
      "name": "withdraw",
      "outputs": [],
      "payable": false,
      "stateMutability": "nonpayable",
      "type": "function"
    },
    {
      "constant": false,
      "inputs": [
        {
          "name": "_tokenAddr",
          "type": "address"
        },
        {
          "name": "_amountInWeis",
          "type": "uint256"
        }
      ],
      "name": "withdrawToken",
      "outputs": [],
      "payable": false,
      "stateMutability": "nonpayable",
      "type": "function"
    },
    {
      "constant": false,
      "inputs": [],
      "name": "endChangeMakingTime",
      "outputs": [],
      "payable": false,
      "stateMutability": "nonpayable",
      "type": "function"
    },
    {
      "constant": false,
      "inputs": [
        {
          "name": "_tokenAddress",
          "type": "address"
        },
        {
          "name": "_stakeInWeis",
          "type": "uint256"
        }
      ],
      "name": "createProposal",
      "outputs": [],
      "payable": false,
      "stateMutability": "nonpayable",
      "type": "function"
    },
    {
      "constant": false,
      "inputs": [],
      "name": "endProposalMakingTime",
      "outputs": [],
      "payable": false,
      "stateMutability": "nonpayable",
      "type": "function"
    },
    {
      "constant": false,
      "inputs": [],
      "name": "endWaitingPhase",
      "outputs": [],
      "payable": false,
      "stateMutability": "nonpayable",
      "type": "function"
    },
    {
      "constant": false,
      "inputs": [
        {
          "name": "_proposalId",
          "type": "uint256"
        }
      ],
      "name": "sellProposalAsset",
      "outputs": [],
      "payable": false,
      "stateMutability": "nonpayable",
      "type": "function"
    },
    {
      "constant": false,
      "inputs": [],
      "name": "finalizeCycle",
      "outputs": [],
      "payable": false,
      "stateMutability": "nonpayable",
      "type": "function"
    },
    {
      "constant": false,
      "inputs": [],
      "name": "redeemCommission",
      "outputs": [],
      "payable": false,
      "stateMutability": "nonpayable",
      "type": "function"
    },
    {
      "constant": false,
      "inputs": [
        {
          "name": "_tokenAddr",
          "type": "address"
        }
      ],
      "name": "sellLeftoverToken",
      "outputs": [],
      "payable": false,
      "stateMutability": "nonpayable",
      "type": "function"
    }
  ],
  "bytecode": "0x60606040526000805460a060020a60ff021916905534156200002057600080fd5b6040516101e08062003e1083398101604052808051919060200180519190602001805191906020018051919060200180519190602001805191906020018051919060200180519190602001805191906020018051919060200180519190602001805191906020018051919060200180519190602001805160008054600160a060020a03191633600160a060020a03161790559150670de0b6b3a76400009050620000d987876401000000006200028181026200322d1704565b10620000e457600080fd5b8e600160006101000a815481600160a060020a030219169083600160a060020a031602179055508d600260006101000a815481600160a060020a030219169083600160a060020a031602179055508c600360006101000a815481600160a060020a030219169083600160a060020a031602179055508e601760016101000a815481600160a060020a030219169083600160a060020a031602179055508d601860006101000a815481600160a060020a030219169083600160a060020a031602179055508c601960006101000a815481600160a060020a030219169083600160a060020a031602179055508b600460006101000a815481600160a060020a030219169083600160a060020a031602179055508a60098190555089600a8190555088600b8190555087600c8190555086600d8190555085600e8190555084600f8190555060006008819055506004601760006101000a81548160ff021916908360048111156200024e57fe5b021790555060059390935560109190915560125560135550506014805460ff191690555062000298975050505050505050565b6000828201838110156200029157fe5b9392505050565b613b6880620002a86000396000f3006060604052600436106102795763ffffffff60e060020a60003504166309b0d33a81146102965780630e1b1fda146102a957806311815223146102bf57806312e1ee45146102de578063173e7707146102fd57806317514eec1461031c5780631a26af7a1461034d5780631ab371fc146103745780631b31527f146103a35780631b8e21921461040d5780631c68e5281461042057806325f842c51461043f57806328ac1228146104525780632e1a7d4d146104655780632f1b3b031461047b5780632f884710146104915780633341b445146104a4578063338b5dea146105115780633795ea5a146105335780633f4ba83a146105465780634d73ec11146105595780634f6347901461056c5780635c975abb1461057f5780635d4c3224146105925780635ea1d6f8146105aa578063612d194d146105bd57806364542e3e146105d05780636642642a146105e65780636d6f8af4146105fc5780637e714dd21461060f5780637f2736d114610622578063821f9824146106355780638456cb59146106545780638657459e146106675780638da5cb5b1461067d57806390c31d5d146106905780639e281a98146106a3578063a7c4dccf146106c5578063aaf5eb68146106d8578063b18e8a8d146106eb578063b2637f651461070a578063b64af4b11461071d578063ba25887d14610730578063c0320dbc14610743578063d0e30db014610756578063d7615d371461075e578063d78b3b1c14610771578063db2e21bc14610784578063dbdadc5c14610797578063dc87454c146107aa578063dfc51a25146107bd578063e7476abf146107df578063ec33d2a0146107fe578063f2fde38b14610811578063f6558b0014610830575b60035433600160a060020a0390811691161461029457600080fd5b005b34156102a157600080fd5b610294610867565b34156102b457600080fd5b610294600435610999565b34156102ca57600080fd5b610294600160a060020a0360043516610aaf565b34156102e957600080fd5b610294600160a060020a0360043516610b30565b341561030857600080fd5b610294600160a060020a0360043516610c03565b341561032757600080fd5b61033b600160a060020a0360043516610cd7565b60405190815260200160405180910390f35b341561035857600080fd5b610360610cf2565b604051901515815260200160405180910390f35b341561037f57600080fd5b610387610cfb565b604051600160a060020a03909116815260200160405180910390f35b34156103ae57600080fd5b6103c5600160a060020a0360043516602435610d0a565b604051600160a060020a03909716875260208701959095526040808701949094526060860192909252608085015260a084015290151560c083015260e0909101905180910390f35b341561041857600080fd5b610294610d70565b341561042b57600080fd5b610294600160a060020a0360043516610f84565b341561044a57600080fd5b61033b611033565b341561045d57600080fd5b61033b611039565b341561047057600080fd5b61029460043561103f565b341561048657600080fd5b610294600435611235565b341561049c57600080fd5b61033b611255565b34156104af57600080fd5b6104c3600160a060020a036004351661125b565b604051602080825281908101838181518152602001915080516000925b8184101561050057602080850284010151815260200192600101926104e0565b925050509250505060405180910390f35b341561051c57600080fd5b610294600160a060020a0360043516602435611336565b341561053e57600080fd5b61033b6118a5565b341561055157600080fd5b6102946118ab565b341561056457600080fd5b61033b61192a565b341561057757600080fd5b61033b611930565b341561058a57600080fd5b610360611936565b341561059d57600080fd5b6102946004351515611946565b34156105b557600080fd5b61033b61198c565b34156105c857600080fd5b61033b611992565b34156105db57600080fd5b610294600435611998565b34156105f157600080fd5b6102946004356119c6565b341561060757600080fd5b61033b6119e6565b341561061a57600080fd5b61033b6119ec565b341561062d57600080fd5b6102946119f2565b341561064057600080fd5b61033b600160a060020a0360043516611bf5565b341561065f57600080fd5b610294611c07565b341561067257600080fd5b610294600435611c8b565b341561068857600080fd5b610387611e6e565b341561069b57600080fd5b610294611e7d565b34156106ae57600080fd5b610294600160a060020a0360043516602435611faf565b34156106d057600080fd5b61038761237a565b34156106e357600080fd5b61033b612389565b34156106f657600080fd5b610294600160a060020a036004351661238f565b341561071557600080fd5b6102946123ee565b341561072857600080fd5b610294612431565b341561073b57600080fd5b61033b61257f565b341561074e57600080fd5b61033b612585565b61029461258b565b341561076957600080fd5b61038761284b565b341561077c57600080fd5b61033b61285a565b341561078f57600080fd5b610294612860565b34156107a257600080fd5b61033b612b22565b34156107b557600080fd5b610387612b28565b34156107c857600080fd5b610294600160a060020a0360043516602435612b37565b34156107ea57600080fd5b610294600160a060020a0360043516612f04565b341561080957600080fd5b610294612fa1565b341561081c57600080fd5b610294600160a060020a0360043516613189565b341561083b57600080fd5b610843613224565b6040518082600481111561085357fe5b60ff16815260200191505060405180910390f35b60028060175460ff16600481111561087b57fe5b1461088557600080fd5b60005460a060020a900460ff161561089c57600080fd5b601760019054906101000a9004600160a060020a0316600160a060020a03166340c10f193360105460006040516020015260405160e060020a63ffffffff8516028152600160a060020a0390921660048301526024820152604401602060405180830381600087803b151561091057600080fd5b6102c65a03f1151561092157600080fd5b50505060405180515050600b546008546109409163ffffffff61322d16565b42101561094c57600080fd5b4260088190556017805460ff19166003179055600554907fb261f68a380a9c0e8cb1b8ddea5dceb8ce59629e31c7d50b5a3acf6f017b6df69060405190815260200160405180910390a250565b60008054819060a060020a900460ff1615156109b457600080fd5b60145460ff1615156109c557600080fd5b600160a060020a03331660009081526016602052604090208054849081106109e957fe5b906000526020600020906007020191506005548260010154141515610a0d57600080fd5b50600281015460008111610a2057600080fd5b6000600283018190556017546101009004600160a060020a03169063a9059cbb90339084906040516020015260405160e060020a63ffffffff8516028152600160a060020a0390921660048301526024820152604401602060405180830381600087803b1515610a8f57600080fd5b6102c65a03f11515610aa057600080fd5b50505060405180515050505050565b60005433600160a060020a03908116911614610aca57600080fd5b60005460a060020a900460ff161515610ae257600080fd5b600160a060020a0381161515610af757600080fd5b60038054600160a060020a0390921673ffffffffffffffffffffffffffffffffffffffff19928316811790915560198054909216179055565b60005433600160a060020a03908116911614610b4b57600080fd5b60048060175460ff166004811115610b5f57fe5b14610b6957600080fd5b60005460a060020a900460ff161515610b8157600080fd5b610bfe8283600160a060020a03166370a082313060006040516020015260405160e060020a63ffffffff8416028152600160a060020a039091166004820152602401602060405180830381600087803b1515610bdc57600080fd5b6102c65a03f11515610bed57600080fd5b505050604051805190506000613247565b505050565b600060048060175460ff166004811115610c1957fe5b14610c2357600080fd5b60005460a060020a900460ff1615610c3a57600080fd5b30600160a060020a0316319150610ca28384600160a060020a03166370a082313060006040516020015260405160e060020a63ffffffff8416028152600160a060020a039091166004820152602401602060405180830381600087803b1515610bdc57600080fd5b50610ccf610cc0600160a060020a033016318463ffffffff6137c016565b6007549063ffffffff61322d16565b600755505050565b600160a060020a031660009081526016602052604090205490565b60145460ff1681565b600454600160a060020a031681565b601660205281600052604060002081815481101515610d2557fe5b60009182526020909120600790910201805460018201546002830154600384015460048501546005860154600690960154600160a060020a0390951697509295509093909260ff1687565b600060048060175460ff166004811115610d8657fe5b14610d9057600080fd5b60005460a060020a900460ff1615610da757600080fd5b600554600160a060020a03331660009081526015602052604090205410610dcd57600080fd5b600554600160a060020a0333811660009081526015602052604080822093909355601754610eec93610100909104909216916318160ddd919051602001526040518163ffffffff1660e060020a028152600401602060405180830381600087803b1515610e3957600080fd5b6102c65a03f11515610e4a57600080fd5b5050506040518051601754909150610ee0906101009004600160a060020a03166370a082313360006040516020015260405160e060020a63ffffffff8416028152600160a060020a039091166004820152602401602060405180830381600087803b1515610eb757600080fd5b6102c65a03f11515610ec857600080fd5b5050506040518051601154915063ffffffff6137d216565b9063ffffffff6137fd16565b9150600160a060020a03331682156108fc0283604051600060405180830381858888f193505050501515610f1f57600080fd5b600160a060020a0333166000908152601660205260408120610f4091613a77565b33600160a060020a03166005547fec530ab710fdaa2b5968fe15f486992441a96f643219cf0150904aa5b9eedf828460405190815260200160405180910390a35050565b60005433600160a060020a03908116911614610f9f57600080fd5b60005460a060020a900460ff161515610fb757600080fd5b600160a060020a0381161515610fcc57600080fd5b601854600160a060020a031663f2fde38b8260405160e060020a63ffffffff8416028152600160a060020a039091166004820152602401600060405180830381600087803b151561101c57600080fd5b6102c65a03f1151561102d57600080fd5b50505050565b60085481565b60095481565b60008060175460ff16600481111561105357fe5b1461105d57600080fd5b60005460a060020a900460ff161561107457600080fd5b6005546001141561108457600080fd5b601854600754600160a060020a039091169063c000178690339061110990610ee0856318160ddd6000604051602001526040518163ffffffff1660e060020a028152600401602060405180830381600087803b15156110e257600080fd5b6102c65a03f115156110f357600080fd5b505050604051805189915063ffffffff6137d216565b60006040516020015260405160e060020a63ffffffff8516028152600160a060020a0390921660048301526024820152604401602060405180830381600087803b151561115557600080fd5b6102c65a03f1151561116657600080fd5b50505060405180515050600754611183908363ffffffff6137c016565b600755600160a060020a03331682156108fc0283604051600060405180830381858888f1935050505015156111b757600080fd5b33600160a060020a03166005547ffe7813e2866053d5c3938554e517b554fce6666a6561bed9eaa7419b29fa9b6873eeeeeeeeeeeeeeeeeeeeeeeeeeeeeeeeeeeeeeee85426040518084600160a060020a0316600160a060020a03168152602001838152602001828152602001935050505060405180910390a35050565b60005433600160a060020a0390811691161461125057600080fd5b601255565b60055481565b611263613a9b565b6016600083600160a060020a0316600160a060020a0316815260200190815260200160002080548060200260200160405190810160405281815291906000602084015b8282101561132b57600084815260209020600783020160e060405190810160409081528254600160a060020a031682526001808401546020808501919091526002850154928401929092526003840154606084015260048401546080840152600584015460a084015260069093015460ff16151560c0830152908352920191016112a6565b505050509050919050565b60008080808080808060175460ff16600481111561135057fe5b1461135a57600080fd5b60005460a060020a900460ff161561137157600080fd5b600160a060020a03891673eeeeeeeeeeeeeeeeeeeeeeeeeeeeeeeeeeeeeeee141561139b57600080fd5b889650600087600160a060020a03166318160ddd6000604051602001526040518163ffffffff1660e060020a028152600401602060405180830381600087803b15156113e657600080fd5b6102c65a03f115156113f757600080fd5b5050506040518051905011151561140d57600080fd5b86600160a060020a03166323b872dd33308b60006040516020015260405160e060020a63ffffffff8616028152600160a060020a0393841660048201529190921660248201526044810191909152606401602060405180830381600087803b151561147757600080fd5b6102c65a03f1151561148857600080fd5b50505060405180519050151561149d57600080fd5b86600160a060020a03166370a082313060006040516020015260405160e060020a63ffffffff8416028152600160a060020a039091166004820152602401602060405180830381600087803b15156114f457600080fd5b6102c65a03f1151561150557600080fd5b5050506040518051965050600160a060020a03301631945061152989896000613247565b5086600160a060020a03166370a082313060006040516020015260405160e060020a63ffffffff8416028152600160a060020a039091166004820152602401602060405180830381600087803b151561158157600080fd5b6102c65a03f1151561159257600080fd5b50505060405180518703945050838803925060008311156116305786600160a060020a031663a9059cbb338560006040516020015260405160e060020a63ffffffff8516028152600160a060020a0390921660048301526024820152604401602060405180830381600087803b151561160a57600080fd5b6102c65a03f1151561161b57600080fd5b50505060405180519050151561163057600080fd5b600160a060020a0330163185900391506000821161164d57600080fd5b600554600114156116d857601854600160a060020a03166340c10f19338460006040516020015260405160e060020a63ffffffff8516028152600160a060020a0390921660048301526024820152604401602060405180830381600087803b15156116b757600080fd5b6102c65a03f115156116c857600080fd5b505050604051805190505061179e565b601854600754600160a060020a03909116906340c10f1990339061173690610ee0856318160ddd6000604051602001526040518163ffffffff1660e060020a028152600401602060405180830381600087803b15156110e257600080fd5b60006040516020015260405160e060020a63ffffffff8516028152600160a060020a0390921660048301526024820152604401602060405180830381600087803b151561178257600080fd5b6102c65a03f1151561179357600080fd5b505050604051805150505b6007546117b1908363ffffffff61322d16565b6007556017546101009004600160a060020a03166340c10f19338460006040516020015260405160e060020a63ffffffff8516028152600160a060020a0390921660048301526024820152604401602060405180830381600087803b151561181857600080fd5b6102c65a03f1151561182957600080fd5b505050604051805190505033600160a060020a03166005547feb65d0f36862bbd8763c5e2c983c9d753267d223eee35a224d8d0a9d7ef433a28b87426040518084600160a060020a0316600160a060020a03168152602001838152602001828152602001935050505060405180910390a3505050505050505050565b600c5481565b60005433600160a060020a039081169116146118c657600080fd5b60005460a060020a900460ff1615156118de57600080fd5b6000805474ff0000000000000000000000000000000000000000191690557f7805862f689e2f13df9f062ff482ad3ad112aca9e0847911ed832e158c525b3360405160405180910390a1565b60125481565b600b5481565b60005460a060020a900460ff1681565b60005433600160a060020a0390811691161461196157600080fd5b60005460a060020a900460ff16151561197957600080fd5b6014805460ff1916911515919091179055565b600e5481565b60105481565b60005433600160a060020a039081169116146119b357600080fd5b600f5481106119c157600080fd5b600f55565b60005433600160a060020a039081169116146119e157600080fd5b600e55565b60135481565b60075481565b60048060175460ff166004811115611a0657fe5b14611a1057600080fd5b60005460a060020a900460ff1615611a2757600080fd5b601760019054906101000a9004600160a060020a0316600160a060020a03166340c10f193360105460006040516020015260405160e060020a63ffffffff8516028152600160a060020a0390921660048301526024820152604401602060405180830381600087803b1515611a9b57600080fd5b6102c65a03f11515611aac57600080fd5b50505060405180515050600d54600854611acb9163ffffffff61322d16565b421015611ad757600080fd5b6017805460ff1916905542600855600554611af390600161322d565b6005556017546101009004600160a060020a0316635c975abb6000604051602001526040518163ffffffff1660e060020a028152600401602060405180830381600087803b1515611b4357600080fd5b6102c65a03f11515611b5457600080fd5b5050506040518051905015611bbc576017546101009004600160a060020a0316633f4ba83a6040518163ffffffff1660e060020a028152600401600060405180830381600087803b1515611ba757600080fd5b6102c65a03f11515611bb857600080fd5b5050505b6005547f62eeb403dc233a7676f50cdb0fd72dae595aeb7c63039adce5caacc33254f9c04260405190815260200160405180910390a250565b60156020526000908152604090205481565b60005433600160a060020a03908116911614611c2257600080fd5b60005460a060020a900460ff1615611c3957600080fd5b6000805474ff0000000000000000000000000000000000000000191660a060020a1790557f6985a02210a168e66602d3235cb6db0e70f92b3ba4d376a33c0f3d9434bff62560405160405180910390a1565b6000808060038060175460ff166004811115611ca357fe5b14611cad57600080fd5b60005460a060020a900460ff1615611cc457600080fd5b600160a060020a0333166000908152601660205260409020805486908110611ce857fe5b9060005260206000209060070201935060008460040154111515611d0b57600080fd5b600554600185015414611d1d57600080fd5b600684015460ff1615611d2f57600080fd5b611d3a856000613814565b6006808501805460ff19166001179055601254600486015491546005870154611d7e93611d72929091610ee09163ffffffff6137d216565b9063ffffffff61322d16565b9250611d9d600654610ee08587600201546137d290919063ffffffff16565b6017549092506101009004600160a060020a03166340c10f19338460006040516020015260405160e060020a63ffffffff8516028152600160a060020a0390921660048301526024820152604401602060405180830381600087803b1515611e0457600080fd5b6102c65a03f11515611e1557600080fd5b505050604051805190505033600160a060020a03166005547fc5819bc554302d429c4c637ae5e9ad43c892f07f4261d1b581b52addc3e01d4d878560405191825260208201526040908101905180910390a35050505050565b600054600160a060020a031681565b60018060175460ff166004811115611e9157fe5b14611e9b57600080fd5b60005460a060020a900460ff1615611eb257600080fd5b601760019054906101000a9004600160a060020a0316600160a060020a03166340c10f193360105460006040516020015260405160e060020a63ffffffff8516028152600160a060020a0390921660048301526024820152604401602060405180830381600087803b1515611f2657600080fd5b6102c65a03f11515611f3757600080fd5b50505060405180515050600a54600854611f569163ffffffff61322d16565b421015611f6257600080fd5b4260088190556017805460ff19166002179055600554907fc26cea5d11470524f2c181454de04fcfb1a0349aba5606ea3eb1a8ec87e1f54e9060405190815260200160405180910390a250565b600080808080808060175460ff166004811115611fc857fe5b14611fd257600080fd5b60005460a060020a900460ff1615611fe957600080fd5b60055460011415611ff957600080fd5b600160a060020a03881673eeeeeeeeeeeeeeeeeeeeeeeeeeeeeeeeeeeeeeee141561202357600080fd5b879550600086600160a060020a03166318160ddd6000604051602001526040518163ffffffff1660e060020a028152600401602060405180830381600087803b151561206e57600080fd5b6102c65a03f1151561207f57600080fd5b5050506040518051905011151561209557600080fd5b85600160a060020a03166370a082313060006040516020015260405160e060020a63ffffffff8416028152600160a060020a039091166004820152602401602060405180830381600087803b15156120ec57600080fd5b6102c65a03f115156120fd57600080fd5b5050506040518051955050600160a060020a03301631935061212188886001613247565b508486600160a060020a03166370a082313060006040516020015260405160e060020a63ffffffff8416028152600160a060020a039091166004820152602401602060405180830381600087803b151561217a57600080fd5b6102c65a03f1151561218b57600080fd5b5050506040518051905003925030600160a060020a031631840391506000821115156121b657600080fd5b601854600754600160a060020a039091169063c000178690339061221490610ee0856318160ddd6000604051602001526040518163ffffffff1660e060020a028152600401602060405180830381600087803b15156110e257600080fd5b60006040516020015260405160e060020a63ffffffff8516028152600160a060020a0390921660048301526024820152604401602060405180830381600087803b151561226057600080fd5b6102c65a03f1151561227157600080fd5b5050506040518051505060075461228e908363ffffffff6137c016565b600755600160a060020a03861663a9059cbb338560006040516020015260405160e060020a63ffffffff8516028152600160a060020a0390921660048301526024820152604401602060405180830381600087803b15156122ee57600080fd5b6102c65a03f115156122ff57600080fd5b505050604051805190505033600160a060020a03166005547ffe7813e2866053d5c3938554e517b554fce6666a6561bed9eaa7419b29fa9b688a86426040518084600160a060020a0316600160a060020a03168152602001838152602001828152602001935050505060405180910390a35050505050505050565b600354600160a060020a031681565b60065481565b60005433600160a060020a039081169116146123aa57600080fd5b600160a060020a03811615156123bf57600080fd5b6004805473ffffffffffffffffffffffffffffffffffffffff1916600160a060020a0392909216919091179055565b60005433600160a060020a0390811691161461240957600080fd5b60005460a060020a900460ff16151561242157600080fd5b600160a060020a03301631600755565b60008060175460ff16600481111561244557fe5b1461244f57600080fd5b60005460a060020a900460ff161561246657600080fd5b601760019054906101000a9004600160a060020a0316600160a060020a03166340c10f193360105460006040516020015260405160e060020a63ffffffff8516028152600160a060020a0390921660048301526024820152604401602060405180830381600087803b15156124da57600080fd5b6102c65a03f115156124eb57600080fd5b5050506040518051505060095460085461250a9163ffffffff61322d16565b42101561251657600080fd5b6005546001141561253257601354600754101561253257600080fd5b4260088190556017805460ff19166001179055600554907f3c3379a2308ae89ee638561d0222706de289bea89968dd555b533795071130fb9060405190815260200160405180910390a250565b600f5481565b60115481565b60008060175460ff16600481111561259f57fe5b146125a957600080fd5b60005460a060020a900460ff16156125c057600080fd5b6005546001141561264b57601854600160a060020a03166340c10f19333460006040516020015260405160e060020a63ffffffff8516028152600160a060020a0390921660048301526024820152604401602060405180830381600087803b151561262a57600080fd5b6102c65a03f1151561263b57600080fd5b5050506040518051905050612738565b601854600754600160a060020a03909116906340c10f199033906126d090610ee0856318160ddd6000604051602001526040518163ffffffff1660e060020a028152600401602060405180830381600087803b15156126a957600080fd5b6102c65a03f115156126ba57600080fd5b505050604051805134915063ffffffff6137d216565b60006040516020015260405160e060020a63ffffffff8516028152600160a060020a0390921660048301526024820152604401602060405180830381600087803b151561271c57600080fd5b6102c65a03f1151561272d57600080fd5b505050604051805150505b60075461274b903463ffffffff61322d16565b6007556017546101009004600160a060020a03166340c10f19333460006040516020015260405160e060020a63ffffffff8516028152600160a060020a0390921660048301526024820152604401602060405180830381600087803b15156127b257600080fd5b6102c65a03f115156127c357600080fd5b505050604051805190505033600160a060020a03166005547feb65d0f36862bbd8763c5e2c983c9d753267d223eee35a224d8d0a9d7ef433a273eeeeeeeeeeeeeeeeeeeeeeeeeeeeeeeeeeeeeeee34426040518084600160a060020a0316600160a060020a03168152602001838152602001828152602001935050505060405180910390a350565b600254600160a060020a031681565b600a5481565b6000805460a060020a900460ff16151561287957600080fd5b60145460ff16151561288a57600080fd5b60185461297990600160a060020a03166318160ddd6000604051602001526040518163ffffffff1660e060020a028152600401602060405180830381600087803b15156128d657600080fd5b6102c65a03f115156128e757600080fd5b5050506040518051600754601854919250610ee091600160a060020a03166370a082313360006040516020015260405160e060020a63ffffffff8416028152600160a060020a039091166004820152602401602060405180830381600087803b151561295257600080fd5b6102c65a03f1151561296357600080fd5b505050604051805191905063ffffffff6137d216565b601854909150600160a060020a031663c000178633826370a082318260006040516020015260405160e060020a63ffffffff8416028152600160a060020a039091166004820152602401602060405180830381600087803b15156129dc57600080fd5b6102c65a03f115156129ed57600080fd5b5050506040518051905060006040516020015260405160e060020a63ffffffff8516028152600160a060020a0390921660048301526024820152604401602060405180830381600087803b1515612a4357600080fd5b6102c65a03f11515612a5457600080fd5b50505060405180515050600754612a71908263ffffffff6137c016565b600755600160a060020a03331681156108fc0282604051600060405180830381858888f193505050501515612aa557600080fd5b33600160a060020a03166005547ffe7813e2866053d5c3938554e517b554fce6666a6561bed9eaa7419b29fa9b6873eeeeeeeeeeeeeeeeeeeeeeeeeeeeeeeeeeeeeeee84426040518084600160a060020a0316600160a060020a03168152602001838152602001828152602001935050505060405180910390a350565b600d5481565b600154600160a060020a031681565b6000808060018060175460ff166004811115612b4f57fe5b14612b5957600080fd5b60005460a060020a900460ff1615612b7057600080fd5b859350600084600160a060020a03166318160ddd6000604051602001526040518163ffffffff1660e060020a028152600401602060405180830381600087803b1515612bbb57600080fd5b6102c65a03f11515612bcc57600080fd5b50505060405180519050111515612be257600080fd5b6017546101009004600160a060020a0316632bee7bde338760006040516020015260405160e060020a63ffffffff8516028152600160a060020a0390921660048301526024820152604401602060405180830381600087803b1515612c4657600080fd5b6102c65a03f11515612c5757600080fd5b50505060405180515050600160a060020a0333166000908152601660205260409020805460018101612c898382613aad565b9160005260206000209060070201600060e06040519081016040908152600160a060020a038b168252600554602083015281018990526000606082018190526080820181905260a0820181905260c08201529190508151815473ffffffffffffffffffffffffffffffffffffffff1916600160a060020a03919091161781556020820151816001015560408201518160020155606082015181600301556080820151816004015560a0820151816005015560c0820151600691909101805460ff19169115159190911790555050600160a060020a0384166370a082313060006040516020015260405160e060020a63ffffffff8416028152600160a060020a039091166004820152602401602060405180830381600087803b1515612dad57600080fd5b6102c65a03f11515612dbe57600080fd5b5050506040518051905092506001612dd533610cd7565b039150612de3826001613814565b8284600160a060020a03166370a082313060006040516020015260405160e060020a63ffffffff8416028152600160a060020a039091166004820152602401602060405180830381600087803b1515612e3b57600080fd5b6102c65a03f11515612e4c57600080fd5b5050506040518051600160a060020a03331660009081526016602052604090208054939091039290915084908110612e8057fe5b90600052602060002090600702016003018190555033600160a060020a03166005547fa3b6749fa188c23c831e823167e3c22da77d0d6e2ba5adee953c0b14003ef49b6001612ece33610cd7565b038989604051928352600160a060020a0390911660208301526040808301919091526060909101905180910390a3505050505050565b60005433600160a060020a03908116911614612f1f57600080fd5b60005460a060020a900460ff161515612f3757600080fd5b600160a060020a0381161515612f4c57600080fd5b6017546101009004600160a060020a031663f2fde38b8260405160e060020a63ffffffff8416028152600160a060020a039091166004820152602401600060405180830381600087803b151561101c57600080fd5b60038060175460ff166004811115612fb557fe5b14612fbf57600080fd5b60005460a060020a900460ff1615612fd657600080fd5b601760019054906101000a9004600160a060020a0316600160a060020a03166340c10f193360105460006040516020015260405160e060020a63ffffffff8516028152600160a060020a0390921660048301526024820152604401602060405180830381600087803b151561304a57600080fd5b6102c65a03f1151561305b57600080fd5b50505060405180515050600c5460085461307a9163ffffffff61322d16565b42101561308657600080fd5b426008556017805460ff191660041790819055600160a060020a036101009091041663f3123a3a6040518163ffffffff1660e060020a028152600401600060405180830381600087803b15156130db57600080fd5b6102c65a03f115156130ec57600080fd5b50506017546101009004600160a060020a03169050638456cb596040518163ffffffff1660e060020a028152600401600060405180830381600087803b151561313457600080fd5b6102c65a03f1151561314557600080fd5b50505061315061391f565b6005547ff4b862466a7ed84695726312fc00377bee25443b7890d8b8985f94eef497d6ff4260405190815260200160405180910390a250565b60005433600160a060020a039081169116146131a457600080fd5b600160a060020a03811615156131b957600080fd5b600054600160a060020a0380831691167f8be0079c531659141344cd1fd0a4f28419497f9722a3daafe3b4186f6b6457e060405160405180910390a36000805473ffffffffffffffffffffffffffffffffffffffff1916600160a060020a0392909216919091179055565b60175460ff1681565b60008282018381101561323c57fe5b8091505b5092915050565b60008080858085156133ef57601954600160a060020a033081811631955091169063cb3c28c790899073eeeeeeeeeeeeeeeeeeeeeeeeeeeeeeeeeeeeeeee90829086906b204fce5e3e2502611000000060016000806040516020015260405160e060020a63ffffffff8b16028152600160a060020a039788166004820152602481019690965293861660448601529185166064850152608484015260a483015290911660c482015260e4016020604051808303818588803b151561330a57600080fd5b6125ee5a03f1151561331b57600080fd5b5050505060405180519450506000841161333457600080fd5b6133e861334f85670de0b6b3a764000063ffffffff6137d216565b610ee083600160a060020a031663313ce5676000604051602001526040518163ffffffff1660e060020a028152600401602060405180830381600087803b151561339857600080fd5b6102c65a03f115156133a957600080fd5b5050506040518051905060ff16600a0a6133dc6006546133dc30600160a060020a0316318a6137c090919063ffffffff16565b9063ffffffff6137d216565b94506137b5565b80600160a060020a03166370a082313060006040516020015260405160e060020a63ffffffff8416028152600160a060020a039091166004820152602401602060405180830381600087803b151561344657600080fd5b6102c65a03f1151561345757600080fd5b5050506040518051600354909450600160a060020a03808416925063095ea7b391168960006040516020015260405160e060020a63ffffffff8516028152600160a060020a0390921660048301526024820152604401602060405180830381600087803b15156134c657600080fd5b6102c65a03f115156134d757600080fd5b50505060405180515050601954600160a060020a031663cb3c28c7828973eeeeeeeeeeeeeeeeeeeeeeeeeeeeeeeeeeeeeeee306b204fce5e3e2502611000000060016000806040516020015260405160e060020a63ffffffff8a16028152600160a060020a039788166004820152602481019690965293861660448601529185166064850152608484015260a483015290911660c482015260e401602060405180830381600087803b151561358b57600080fd5b6102c65a03f1151561359c57600080fd5b5050506040518051600354909550600160a060020a03808416925063095ea7b391166000806040516020015260405160e060020a63ffffffff8516028152600160a060020a0390921660048301526024820152604401602060405180830381600087803b151561360b57600080fd5b6102c65a03f1151561361c57600080fd5b50505060405180515050600160a060020a0381166370a082313060006040516020015260405160e060020a63ffffffff8416028152600160a060020a039091166004820152602401602060405180830381600087803b151561367d57600080fd5b6102c65a03f1151561368e57600080fd5b5050506040518051841190506136a357600080fd5b6137b261379182600160a060020a031663313ce5676000604051602001526040518163ffffffff1660e060020a028152600401602060405180830381600087803b15156136ef57600080fd5b6102c65a03f1151561370057600080fd5b5050506040518051905060ff16600a0a6133dc84600160a060020a03166370a082313060006040516020015260405160e060020a63ffffffff8416028152600160a060020a039091166004820152602401602060405180830381600087803b151561376a57600080fd5b6102c65a03f1151561377b57600080fd5b505050604051805188915063ffffffff6137c016565b610ee0670de0b6b3a76400006133dc600654896137d290919063ffffffff16565b94505b505050509392505050565b6000828211156137cc57fe5b50900390565b6000808315156137e55760009150613240565b508282028284828115156137f557fe5b041461323c57fe5b600080828481151561380b57fe5b04949350505050565b600160a060020a03331660009081526016602052604081208054829182918690811061383c57fe5b9060005260206000209060070201925083156138de576017546138d7906101009004600160a060020a03166318160ddd6000604051602001526040518163ffffffff1660e060020a028152600401602060405180830381600087803b15156138a357600080fd5b6102c65a03f115156138b457600080fd5b50505060405180519050610ee085600201546007546137d290919063ffffffff16565b91506138e6565b826003015491505b82546138fc90600160a060020a03168386613247565b905083156139105760048301819055613918565b600583018190555b5050505050565b600080600080925060075430600160a060020a031631111561394d5760075430600160a060020a0316310392505b613968600654610ee085600e546137d290919063ffffffff16565b601155600654600f546139909190610ee090600160a060020a0330163163ffffffff6137d216565b91506139c1826139b560115430600160a060020a0316316137c090919063ffffffff16565b9063ffffffff6137c016565b90506005547f13a18edb371d0a74be72de10b678893b96bc8a47e776bb122c59e21d53956fbd6007548360405191825260208201526040908101905180910390a26007819055600454600160a060020a031682156108fc0283604051600060405180830381858888f193505050501515613a3a57600080fd5b6005547f2f7da09d276ad6237b75476b806f4d8388b9228bd6fa45a7ca214fac5abdf7a360115460405190815260200160405180910390a2505050565b5080546000825560070290600052602060002090810190613a989190613ad5565b50565b60206040519081016040526000815290565b815481835581811511610bfe57600702816007028360005260206000209182019101610bfe91905b613b3991905b80821115613b3557805473ffffffffffffffffffffffffffffffffffffffff19168155600060018201819055600282018190556003820181905560048201819055600582015560068101805460ff19169055600701613adb565b5090565b905600a165627a7a72305820ebf146283edb16e06ca79174d2c5d5a4a953c09c8c1a036b7dc02993e66792390029",
  "source": "pragma solidity ^0.4.18;\r\n\r\nimport 'zeppelin-solidity/contracts/math/SafeMath.sol';\r\nimport 'zeppelin-solidity/contracts/math/Math.sol';\r\nimport 'zeppelin-solidity/contracts/lifecycle/Pausable.sol';\r\nimport './ControlToken.sol';\r\nimport './ShareToken.sol';\r\nimport './KyberNetwork.sol';\r\nimport './Utils.sol';\r\n\r\n/**\r\n * The main contract of the Betoken hedge fund\r\n */\r\ncontract BetokenFund is Pausable, Utils {\r\n  using SafeMath for uint256;\r\n\r\n  enum CyclePhase { ChangeMaking, ProposalMaking, Waiting, Finalizing, Finalized }\r\n\r\n  struct Proposal {\r\n    address tokenAddress;\r\n    uint256 cycleNumber;\r\n    uint256 stake;\r\n    uint256 tokenAmount;\r\n    uint256 buyPriceInWeis;\r\n    uint256 sellPriceInWeis;\r\n    bool isSold;\r\n  }\r\n\r\n  /**\r\n   * @dev Executes function only during the given cycle phase.\r\n   * @param phase the cycle phase during which the function may be called\r\n   */\r\n  modifier during(CyclePhase phase) {\r\n    require(cyclePhase == phase);\r\n    _;\r\n  }\r\n\r\n  modifier rewardCaller {\r\n    cToken.mint(msg.sender, functionCallReward);\r\n    _;\r\n  }\r\n\r\n  // Address of the control token contract.\r\n  address public controlTokenAddr;\r\n\r\n  // Address of the share token contract.\r\n  address public shareTokenAddr;\r\n\r\n  // Address of the KyberNetwork contract\r\n  address public kyberAddr;\r\n\r\n  // Address to which the developer fees will be paid.\r\n  address public developerFeeAccount;\r\n\r\n  // The number of the current investment cycle.\r\n  uint256 public cycleNumber;\r\n\r\n  // 10^{decimals} used for representing fixed point numbers with {decimals} decimals.\r\n  uint256 public PRECISION;\r\n\r\n  // The amount of funds held by the fund.\r\n  uint256 public totalFundsInWeis;\r\n\r\n  // The start time for the current investment cycle phase, in seconds since Unix epoch.\r\n  uint256 public startTimeOfCyclePhase;\r\n\r\n  // Temporal length of change making period at start of each cycle, in seconds.\r\n  uint256 public timeOfChangeMaking;\r\n\r\n  uint256 public timeOfProposalMaking;\r\n\r\n  // Temporal length of waiting period, in seconds.\r\n  uint256 public timeOfWaiting;\r\n\r\n  uint256 public timeOfFinalizing;\r\n\r\n  uint256 public timeBetweenCycles;\r\n\r\n  // The proportion of the fund that gets distributed to Kairo holders every cycle. Fixed point decimal.\r\n  uint256 public commissionRate;\r\n\r\n  // The proportion of contract balance that goes the the devs every cycle. Fixed point decimal.\r\n  uint256 public developerFeeProportion;\r\n\r\n  // Amount of Kairo rewarded to the user who calls a phase transition/proposal handling function\r\n  uint256 public functionCallReward;\r\n\r\n  // Amount of commission to be paid out this cycle\r\n  uint256 public totalCommission;\r\n\r\n  // Inflation rate of control token (KRO). Fixed point decimal.\r\n  uint256 public controlTokenInflation;\r\n\r\n  // The AUM (Asset Under Management) threshold for progressing to ProposalMakingTime in the first cycle.\r\n  uint256 public aumThresholdInWeis;\r\n\r\n  // Flag for whether emergency withdrawing is allowed.\r\n  bool public allowEmergencyWithdraw;\r\n\r\n  // The last cycle where a user redeemed commission.\r\n  mapping(address => uint256) public lastCommissionRedemption;\r\n\r\n  // List of proposals in the current cycle.\r\n  mapping(address => Proposal[]) public userProposals;\r\n\r\n  // The current cycle phase.\r\n  CyclePhase public cyclePhase;\r\n\r\n  // Contract instances\r\n  ControlToken internal cToken;\r\n  ShareToken internal sToken;\r\n  KyberNetwork internal kyber;\r\n\r\n  event CycleStarted(uint256 indexed _cycleNumber, uint256 _timestamp);\r\n  event Deposit(uint256 indexed _cycleNumber, address indexed _sender, address _tokenAddress, uint256 _amount, uint256 _timestamp);\r\n  event Withdraw(uint256 indexed _cycleNumber, address indexed _sender, address _tokenAddress, uint256 _amount, uint256 _timestamp);\r\n  event ChangeMakingTimeEnded(uint256 indexed _cycleNumber, uint256 _timestamp);\r\n\r\n  event NewProposal(uint256 indexed _cycleNumber, address indexed _sender, uint256 _id, address _tokenAddress, uint256 _stakeInWeis);\r\n  event ProposalMakingTimeEnded(uint256 indexed _cycleNumber, uint256 _timestamp);\r\n\r\n  event WaitingPhaseEnded(uint256 indexed _cycleNumber, uint256 _timestamp);\r\n\r\n  event ProposalSold(uint256 indexed _cycleNumber, address indexed _sender, uint256 _proposalId, uint256 _receivedKairos);\r\n  event SellingPhaseEnded(uint256 indexed _cycleNumber, uint256 _timestamp);\r\n\r\n  event ROI(uint256 indexed _cycleNumber, uint256 _beforeTotalFunds, uint256 _afterTotalFunds);\r\n  event CommissionPaid(uint256 indexed _cycleNumber, address indexed _sender, uint256 _commission);\r\n  event TotalCommissionPaid(uint256 indexed _cycleNumber, uint256 _totalCommissionInWeis);\r\n  event CycleFinalized(uint256 indexed _cycleNumber, uint256 _timestamp);\r\n\r\n  /**\r\n   * Contract initialization functions\r\n   */\r\n\r\n  // Constructor\r\n  function BetokenFund(\r\n    address _cTokenAddr,\r\n    address _sTokenAddr,\r\n    address _kyberAddr,\r\n    address _developerFeeAccount,\r\n    uint256 _timeOfChangeMaking,\r\n    uint256 _timeOfProposalMaking,\r\n    uint256 _timeOfWaiting,\r\n    uint256 _timeOfFinalizing,\r\n    uint256 _timeBetweenCycles,\r\n    uint256 _commissionRate,\r\n    uint256 _developerFeeProportion,\r\n    uint256 _cycleNumber,\r\n    uint256 _functionCallReward,\r\n    uint256 _controlTokenInflation,\r\n    uint256 _aumThresholdInWeis\r\n  )\r\n    public\r\n  {\r\n    require(_commissionRate.add(_developerFeeProportion) < 10**18);\r\n\r\n    controlTokenAddr = _cTokenAddr;\r\n    shareTokenAddr = _sTokenAddr;\r\n    kyberAddr = _kyberAddr;\r\n    cToken = ControlToken(_cTokenAddr);\r\n    sToken = ShareToken(_sTokenAddr);\r\n    kyber = KyberNetwork(_kyberAddr);\r\n\r\n    developerFeeAccount = _developerFeeAccount;\r\n    timeOfChangeMaking = _timeOfChangeMaking;\r\n    timeOfProposalMaking = _timeOfProposalMaking;\r\n    timeOfWaiting = _timeOfWaiting;\r\n    timeOfFinalizing = _timeOfFinalizing;\r\n    timeBetweenCycles = _timeBetweenCycles;\r\n    commissionRate = _commissionRate;\r\n    developerFeeProportion = _developerFeeProportion;\r\n    startTimeOfCyclePhase = 0;\r\n    cyclePhase = CyclePhase.Finalized;\r\n    cycleNumber = _cycleNumber;\r\n    functionCallReward = _functionCallReward;\r\n    controlTokenInflation = _controlTokenInflation;\r\n    aumThresholdInWeis = _aumThresholdInWeis;\r\n    allowEmergencyWithdraw = false;\r\n  }\r\n\r\n  /**\r\n   * Getters\r\n   */\r\n\r\n  /**\r\n   * Returns the length of the proposals array.\r\n   * @return length of proposals array\r\n   */\r\n  function proposalsCount(address _userAddr) public view returns(uint256 _count) {\r\n    return userProposals[_userAddr].length;\r\n  }\r\n\r\n  function proposals(address _userAddr) public view returns(Proposal[] _proposals) {\r\n    return userProposals[_userAddr];\r\n  }\r\n\r\n  /**\r\n   * Meta functions\r\n   */\r\n\r\n  /**\r\n   * Emergency functions\r\n   */\r\n\r\n  /**\r\n   * @dev In case the fund is invested in tokens, sell all tokens.\r\n   */\r\n  function emergencyDumpToken(address _tokenAddr)\r\n    public\r\n    onlyOwner\r\n    during(CyclePhase.Finalized)\r\n    whenPaused\r\n  {\r\n    __transactToken(_tokenAddr, ERC20(_tokenAddr).balanceOf(this), false);\r\n  }\r\n\r\n  /**\r\n   * @dev Return staked Kairos for a proposal under emergency situations.\r\n   */\r\n  function emergencyRedeemStake(uint256 _proposalId) whenPaused public {\r\n    require(allowEmergencyWithdraw);\r\n    Proposal storage prop = userProposals[msg.sender][_proposalId];\r\n    require(prop.cycleNumber == cycleNumber);\r\n    uint256 stake = prop.stake;\r\n    require(stake > 0);\r\n    delete prop.stake;\r\n    cToken.transfer(msg.sender, stake);\r\n  }\r\n\r\n  /**\r\n   * @dev Update current fund balance\r\n   */\r\n  function emergencyUpdateBalance() onlyOwner whenPaused public {\r\n    totalFundsInWeis = this.balance;\r\n  }\r\n\r\n  function setAllowEmergencyWithdraw(bool _val) onlyOwner whenPaused public {\r\n    allowEmergencyWithdraw = _val;\r\n  }\r\n\r\n  /**\r\n   * @dev Function for withdrawing all funds in times of emergency. Only callable when fund is paused.\r\n   */\r\n  function emergencyWithdraw()\r\n    public\r\n    whenPaused\r\n  {\r\n    require(allowEmergencyWithdraw);\r\n\r\n    uint256 amountInWeis = sToken.balanceOf(msg.sender).mul(totalFundsInWeis).div(sToken.totalSupply());\r\n    sToken.ownerBurn(msg.sender, sToken.balanceOf(msg.sender));\r\n    totalFundsInWeis = totalFundsInWeis.sub(amountInWeis);\r\n\r\n    // Transfer\r\n    msg.sender.transfer(amountInWeis);\r\n\r\n    // Emit event\r\n    Withdraw(cycleNumber, msg.sender, ETH_TOKEN_ADDRESS, amountInWeis, now);\r\n  }\r\n\r\n  /**\r\n   * Parameter setters\r\n   */\r\n\r\n  /**\r\n   * @dev Changes the address of the KyberNetwork contract used in the contract. Only callable by owner.\r\n   * @param _newAddr new address of KyberNetwork contract\r\n   */\r\n  function changeKyberNetworkAddress(address _newAddr) public onlyOwner whenPaused {\r\n    require(_newAddr != address(0));\r\n    kyberAddr = _newAddr;\r\n    kyber = KyberNetwork(_newAddr);\r\n  }\r\n\r\n  /**\r\n   * @dev Changes the address to which the developer fees will be sent. Only callable by owner.\r\n   * @param _newAddr new developer fee address\r\n   */\r\n  function changeDeveloperFeeAccount(address _newAddr) public onlyOwner {\r\n    require(_newAddr != address(0));\r\n    developerFeeAccount = _newAddr;\r\n  }\r\n\r\n  /**\r\n   * @dev Changes the proportion of fund balance sent to the developers each cycle. May only decrease. Only callable by owner.\r\n   * @param _newProp the new proportion, fixed point decimal\r\n   */\r\n  function changeDeveloperFeeProportion(uint256 _newProp) public onlyOwner {\r\n    require(_newProp < developerFeeProportion);\r\n    developerFeeProportion = _newProp;\r\n  }\r\n\r\n  /**\r\n   * @dev Changes the proportion of fund balance given to Kairo holders each cycle. Only callable by owner.\r\n   * @param _newProp the new proportion, fixed point decimal\r\n   */\r\n  function changeCommissionRate(uint256 _newProp) public onlyOwner {\r\n    commissionRate = _newProp;\r\n  }\r\n\r\n  /**\r\n   * @dev Changes the inflation rate of control tokens. Only callable by owner.\r\n   * @param _newVal the new inflation value, fixed point decimal\r\n   */\r\n  function changeControlTokenInflation(uint256 _newVal) public onlyOwner {\r\n    controlTokenInflation = _newVal;\r\n  }\r\n\r\n  /**\r\n   * @dev Changes the owner of the ControlToken contract.\r\n   * @param  _newOwner the new owner address\r\n   */\r\n  function changeControlTokenOwner(address _newOwner) public onlyOwner whenPaused {\r\n    require(_newOwner != address(0));\r\n    cToken.transferOwnership(_newOwner);\r\n  }\r\n\r\n  /**\r\n   * @dev Changes the owner of the ShareToken contract.\r\n   * @param  _newOwner the new owner address\r\n   */\r\n  function changeShareTokenOwner(address _newOwner) public onlyOwner whenPaused {\r\n    require(_newOwner != address(0));\r\n    sToken.transferOwnership(_newOwner);\r\n  }\r\n\r\n  /**\r\n   * Start cycle functions\r\n   */\r\n\r\n  /**\r\n   * @dev Starts a new investment cycle.\r\n   */\r\n  function startNewCycle() public during(CyclePhase.Finalized) whenNotPaused rewardCaller {\r\n    require(now >= startTimeOfCyclePhase.add(timeBetweenCycles));\r\n\r\n    // Update values\r\n    cyclePhase = CyclePhase.ChangeMaking;\r\n    startTimeOfCyclePhase = now;\r\n    cycleNumber = cycleNumber.add(1);\r\n\r\n    if (cToken.paused()) {\r\n      cToken.unpause();\r\n    }\r\n\r\n    // Emit event\r\n    CycleStarted(cycleNumber, now);\r\n  }\r\n\r\n  /**\r\n   * ChangeMakingTime functions\r\n   */\r\n\r\n  /**\r\n   * @dev Deposit Ether into the fund.\r\n   */\r\n  function deposit()\r\n    public\r\n    payable\r\n    during(CyclePhase.ChangeMaking)\r\n    whenNotPaused\r\n  {\r\n    // Register investment\r\n    if (cycleNumber == 1) {\r\n      sToken.mint(msg.sender, msg.value);\r\n    } else {\r\n      sToken.mint(msg.sender, msg.value.mul(sToken.totalSupply()).div(totalFundsInWeis));\r\n    }\r\n    totalFundsInWeis = totalFundsInWeis.add(msg.value);\r\n\r\n    // Give control tokens proportional to investment\r\n    // Uncomment if statement if not test version\r\n    // if (cycleNumber == 1) {\r\n      cToken.mint(msg.sender, msg.value);\r\n    // }\r\n\r\n    // Emit event\r\n    Deposit(cycleNumber, msg.sender, ETH_TOKEN_ADDRESS, msg.value, now);\r\n  }\r\n\r\n  function depositToken(address _tokenAddr, uint256 _tokenAmount)\r\n    public\r\n    during(CyclePhase.ChangeMaking)\r\n    whenNotPaused\r\n  {\r\n    require(_tokenAddr != address(ETH_TOKEN_ADDRESS));\r\n    DetailedERC20 token = DetailedERC20(_tokenAddr);\r\n    require(token.totalSupply() > 0);\r\n\r\n    require(token.transferFrom(msg.sender, this, _tokenAmount));\r\n\r\n    uint256 beforeTokenBalance = token.balanceOf(this);\r\n    uint256 beforeEthBalance = this.balance;\r\n    __transactToken(_tokenAddr, _tokenAmount, false);\r\n    uint256 actualTokenAmount = beforeTokenBalance - token.balanceOf(this);\r\n    uint256 leftOverTokens = _tokenAmount - actualTokenAmount;\r\n    if (leftOverTokens > 0) {\r\n      require(token.transfer(msg.sender, leftOverTokens));\r\n    }\r\n\r\n    uint256 depositInWeis = this.balance - beforeEthBalance;\r\n    require(depositInWeis > 0);\r\n\r\n    // Register investment\r\n    if (cycleNumber == 1) {\r\n      sToken.mint(msg.sender, depositInWeis);\r\n    } else {\r\n      sToken.mint(msg.sender, depositInWeis.mul(sToken.totalSupply()).div(totalFundsInWeis));\r\n    }\r\n    totalFundsInWeis = totalFundsInWeis.add(depositInWeis);\r\n\r\n    // Give control tokens proportional to investment\r\n    // Uncomment if statement if not test version\r\n    // if (cycleNumber == 1) {\r\n    cToken.mint(msg.sender, depositInWeis);\r\n    // }\r\n\r\n    // Emit event\r\n    Deposit(cycleNumber, msg.sender, _tokenAddr, actualTokenAmount, now);\r\n  }\r\n\r\n  /**\r\n   * @dev Withdraws a certain amount of Ether from the user's account. Cannot be called during the first cycle.\r\n   * @param _amountInWeis amount of Ether to be withdrawn\r\n   */\r\n  function withdraw(uint256 _amountInWeis)\r\n    public\r\n    during(CyclePhase.ChangeMaking)\r\n    whenNotPaused\r\n  {\r\n    require(cycleNumber != 1);\r\n\r\n    // Subtract from account\r\n    sToken.ownerBurn(msg.sender, _amountInWeis.mul(sToken.totalSupply()).div(totalFundsInWeis));\r\n    totalFundsInWeis = totalFundsInWeis.sub(_amountInWeis);\r\n\r\n    // Transfer Ether to user\r\n    msg.sender.transfer(_amountInWeis);\r\n\r\n    // Emit event\r\n    Withdraw(cycleNumber, msg.sender, ETH_TOKEN_ADDRESS, _amountInWeis, now);\r\n  }\r\n\r\n  function withdrawToken(address _tokenAddr, uint256 _amountInWeis)\r\n    public\r\n    during(CyclePhase.ChangeMaking)\r\n    whenNotPaused\r\n  {\r\n    require(cycleNumber != 1);\r\n    require(_tokenAddr != address(ETH_TOKEN_ADDRESS));\r\n\r\n    DetailedERC20 token = DetailedERC20(_tokenAddr);\r\n    require(token.totalSupply() > 0);\r\n\r\n    // Buy desired tokens\r\n    uint256 beforeTokenBalance = token.balanceOf(this);\r\n    uint256 beforeEthBalance = this.balance;\r\n    __transactToken(_tokenAddr, _amountInWeis, true);\r\n    uint256 actualTokenAmount = token.balanceOf(this) - beforeTokenBalance;\r\n\r\n    // Subtract from account\r\n    uint256 actualAmountInWeis = beforeEthBalance - this.balance;\r\n    require(actualAmountInWeis > 0);\r\n    sToken.ownerBurn(msg.sender, actualAmountInWeis.mul(sToken.totalSupply()).div(totalFundsInWeis));\r\n    totalFundsInWeis = totalFundsInWeis.sub(actualAmountInWeis);\r\n\r\n    // Transfer tokens\r\n    token.transfer(msg.sender, actualTokenAmount);\r\n\r\n    // Emit event\r\n    Withdraw(cycleNumber, msg.sender, _tokenAddr, actualTokenAmount, now);\r\n  }\r\n\r\n  /**\r\n   * @dev Ends the ChangeMaking phase.\r\n   */\r\n  function endChangeMakingTime() public during(CyclePhase.ChangeMaking) whenNotPaused rewardCaller {\r\n    require(now >= startTimeOfCyclePhase.add(timeOfChangeMaking));\r\n\r\n    if (cycleNumber == 1) {\r\n      require(totalFundsInWeis >= aumThresholdInWeis);\r\n    }\r\n\r\n    startTimeOfCyclePhase = now;\r\n    cyclePhase = CyclePhase.ProposalMaking;\r\n\r\n    ChangeMakingTimeEnded(cycleNumber, now);\r\n  }\r\n\r\n  /**\r\n   * Proposal Making time functions\r\n   */\r\n\r\n  /**\r\n   * @dev Creates a new investment proposal for an ERC20 token.\r\n   * @param _tokenAddress address of the ERC20 token contract\r\n   * @param _stakeInWeis amount of Kairos to be staked in support of the proposal\r\n   */\r\n  function createProposal(\r\n    address _tokenAddress,\r\n    uint256 _stakeInWeis\r\n  )\r\n    public\r\n    during(CyclePhase.ProposalMaking)\r\n    whenNotPaused\r\n  {\r\n    // Check if token is valid\r\n    DetailedERC20 token = DetailedERC20(_tokenAddress);\r\n    require(token.totalSupply() > 0);\r\n\r\n    // Collect stake\r\n    cToken.ownerCollectFrom(msg.sender, _stakeInWeis);\r\n\r\n    // Add proposal to list\r\n    userProposals[msg.sender].push(Proposal({\r\n      tokenAddress: _tokenAddress,\r\n      cycleNumber: cycleNumber,\r\n      stake: _stakeInWeis,\r\n      tokenAmount: 0,\r\n      buyPriceInWeis: 0,\r\n      sellPriceInWeis: 0,\r\n      isSold: false\r\n    }));\r\n\r\n    // Invest\r\n    uint256 beforeTokenAmount = token.balanceOf(this);\r\n    uint256 proposalId = proposalsCount(msg.sender) - 1;\r\n    __handleInvestment(proposalId, true);\r\n    userProposals[msg.sender][proposalId].tokenAmount = token.balanceOf(this) - beforeTokenAmount;\r\n\r\n    // Emit event\r\n    NewProposal(cycleNumber, msg.sender, proposalsCount(msg.sender) - 1, _tokenAddress, _stakeInWeis);\r\n  }\r\n\r\n  function endProposalMakingTime()\r\n    public\r\n    during(CyclePhase.ProposalMaking)\r\n    whenNotPaused\r\n    rewardCaller\r\n  {\r\n    require(now >= startTimeOfCyclePhase.add(timeOfProposalMaking));\r\n\r\n    startTimeOfCyclePhase = now;\r\n    cyclePhase = CyclePhase.Waiting;\r\n\r\n    ProposalMakingTimeEnded(cycleNumber, now);\r\n  }\r\n\r\n  /**\r\n   * Waiting phase functions\r\n   */\r\n\r\n  function endWaitingPhase()\r\n    public\r\n    during(CyclePhase.Waiting)\r\n    whenNotPaused\r\n    rewardCaller\r\n  {\r\n    require(now >= startTimeOfCyclePhase.add(timeOfWaiting));\r\n\r\n    startTimeOfCyclePhase = now;\r\n    cyclePhase = CyclePhase.Finalizing;\r\n\r\n    WaitingPhaseEnded(cycleNumber, now);\r\n  }\r\n\r\n  /**\r\n   * Finalizing phase functions\r\n   */\r\n\r\n  /**\r\n   * @dev Called by user to sell the assets a proposal invested in. Returns the staked Kairo plus rewards.\r\n   * @param _proposalId the ID of the proposal\r\n   */\r\n  function sellProposalAsset(uint256 _proposalId)\r\n    public\r\n    during(CyclePhase.Finalizing)\r\n    whenNotPaused\r\n  {\r\n    Proposal storage prop = userProposals[msg.sender][_proposalId];\r\n    require(prop.buyPriceInWeis > 0);\r\n    require(prop.cycleNumber == cycleNumber);\r\n    require(!prop.isSold);\r\n\r\n    __handleInvestment(_proposalId, false);\r\n    prop.isSold = true;\r\n\r\n    uint256 multiplier = prop.sellPriceInWeis.mul(PRECISION).div(prop.buyPriceInWeis).add(controlTokenInflation);\r\n    uint256 receiveKairoAmount = prop.stake.mul(multiplier).div(PRECISION);\r\n    cToken.mint(msg.sender, receiveKairoAmount);\r\n\r\n    ProposalSold(cycleNumber, msg.sender, _proposalId, receiveKairoAmount);\r\n  }\r\n\r\n  /**\r\n   * @dev Finalize the cycle by redistributing user balances and settling investment proposals.\r\n   */\r\n  function finalizeCycle() public during(CyclePhase.Finalizing) whenNotPaused rewardCaller {\r\n    require(now >= startTimeOfCyclePhase.add(timeOfFinalizing));\r\n\r\n    // Update cycle values\r\n    startTimeOfCyclePhase = now;\r\n    cyclePhase = CyclePhase.Finalized;\r\n\r\n    // Burn any Kairo left in BetokenFund's account\r\n    cToken.burnOwnerBalance();\r\n\r\n    cToken.pause();\r\n\r\n    // Distribute funds\r\n    __distributeFundsAfterCycleEnd();\r\n\r\n    // Emit event\r\n    CycleFinalized(cycleNumber, now);\r\n  }\r\n\r\n  /**\r\n   * Finalized phase functions\r\n   */\r\n\r\n  /**\r\n   * @dev Redeems commission.\r\n   */\r\n  function redeemCommission()\r\n    public\r\n    during(CyclePhase.Finalized)\r\n    whenNotPaused\r\n  {\r\n    require(lastCommissionRedemption[msg.sender] < cycleNumber);\r\n    lastCommissionRedemption[msg.sender] = cycleNumber;\r\n    uint256 commission = totalCommission.mul(cToken.balanceOf(msg.sender)).div(cToken.totalSupply());\r\n    msg.sender.transfer(commission);\r\n\r\n    // Reset data\r\n    delete userProposals[msg.sender];\r\n\r\n    CommissionPaid(cycleNumber, msg.sender, commission);\r\n  }\r\n\r\n  /**\r\n   * @dev Sells tokens left over due to manager not selling or KyberNetwork not having enough demand.\r\n   * @param _tokenAddr address of the token to be sold\r\n   */\r\n  function sellLeftoverToken(address _tokenAddr)\r\n    public\r\n    during(CyclePhase.Finalized)\r\n    whenNotPaused\r\n  {\r\n    uint256 beforeBalance = this.balance;\r\n    __transactToken(_tokenAddr, ERC20(_tokenAddr).balanceOf(this), false);\r\n    totalFundsInWeis = totalFundsInWeis.add(this.balance.sub(beforeBalance));\r\n  }\r\n\r\n  /**\r\n   * Internal use functions\r\n   */\r\n\r\n  /**\r\n   * @dev Distributes the funds accourding to previously held proportions. Pays commission to Kairo holders,\r\n   * and developer fees to developers.\r\n   */\r\n  function __distributeFundsAfterCycleEnd() internal {\r\n    uint256 profit = 0;\r\n    if (this.balance > totalFundsInWeis) {\r\n      profit = this.balance - totalFundsInWeis;\r\n    }\r\n    totalCommission = commissionRate.mul(profit).div(PRECISION);\r\n    uint256 devFee = developerFeeProportion.mul(this.balance).div(PRECISION);\r\n    uint256 newTotalFunds = this.balance.sub(totalCommission).sub(devFee);\r\n\r\n    // Update values\r\n    ROI(cycleNumber, totalFundsInWeis, newTotalFunds);\r\n    totalFundsInWeis = newTotalFunds;\r\n\r\n    // Transfer fees\r\n    developerFeeAccount.transfer(devFee);\r\n\r\n    // Emit event\r\n    TotalCommissionPaid(cycleNumber, totalCommission);\r\n  }\r\n\r\n  function __handleInvestment(uint256 _proposalId, bool _buy) internal {\r\n    Proposal storage prop = userProposals[msg.sender][_proposalId];\r\n    uint256 srcAmount;\r\n    if (_buy) {\r\n      srcAmount = totalFundsInWeis.mul(prop.stake).div(cToken.totalSupply());\r\n    } else {\r\n      srcAmount = prop.tokenAmount;\r\n    }\r\n    uint256 actualRate = __transactToken(prop.tokenAddress, srcAmount, _buy);\r\n    if (_buy) {\r\n      prop.buyPriceInWeis = actualRate;\r\n    } else {\r\n      prop.sellPriceInWeis = actualRate;\r\n    }\r\n  }\r\n\r\n  function __transactToken(address _tokenAddr, uint256 _srcAmount, bool _buy) internal returns(uint256 _actualRate) {\r\n    uint256 actualDestAmount;\r\n    uint256 beforeBalance;\r\n    address destAddr = _tokenAddr;\r\n    DetailedERC20 destToken = DetailedERC20(destAddr);\r\n\r\n    if (_buy) {\r\n      // Make buy orders\r\n\r\n      beforeBalance = this.balance;\r\n\r\n      // Do trade\r\n      actualDestAmount = kyber.trade.value(_srcAmount)(\r\n        ETH_TOKEN_ADDRESS,\r\n        _srcAmount,\r\n        destToken,\r\n        this,\r\n        MAX_QTY,\r\n        1,\r\n        0\r\n      );\r\n\r\n      // Record buy price\r\n      require(actualDestAmount > 0);\r\n      _actualRate = beforeBalance.sub(this.balance).mul(PRECISION).mul(10**uint256(destToken.decimals())).div(actualDestAmount.mul(10**18));\r\n    } else {\r\n      // Make sell orders\r\n\r\n      beforeBalance = destToken.balanceOf(this);\r\n\r\n      // Do trade\r\n      destToken.approve(kyberAddr, _srcAmount);\r\n      actualDestAmount = kyber.trade(\r\n        destToken,\r\n        _srcAmount,\r\n        ETH_TOKEN_ADDRESS,\r\n        this,\r\n        MAX_QTY,\r\n        1,\r\n        0\r\n      );\r\n      destToken.approve(kyberAddr, 0);\r\n\r\n      // Record sell price\r\n      require(beforeBalance > destToken.balanceOf(this));\r\n      _actualRate = actualDestAmount.mul(PRECISION).mul(10**18).div(beforeBalance.sub(destToken.balanceOf(this)).mul(10**uint256(destToken.decimals())));\r\n    }\r\n  }\r\n\r\n  function() public payable {\r\n    if (msg.sender != kyberAddr) {\r\n      revert();\r\n    }\r\n  }\r\n}",
  "sourcePath": "D:\\msi-cn\\Documents\\GitHub\\betoken\\eth\\contracts\\BetokenFund.sol",
  "compiler": {
    "name": "solc",
    "version": "0.4.19+commit.c4cbbb05.Emscripten.clang"
  },
  "schemaVersion": "2.0.0",
  "updatedAt": "2018-03-30T08:22:12.962Z"
}