{
  "contractName": "BetokenFund",
  "abi": [
    {
      "constant": true,
      "inputs": [],
      "name": "developerFeeRate",
      "outputs": [
        {
          "name": "",
          "type": "uint256"
        }
      ],
      "payable": false,
      "stateMutability": "view",
      "type": "function"
    },
    {
      "constant": true,
      "inputs": [],
      "name": "totalFundsInDAI",
      "outputs": [
        {
          "name": "",
          "type": "uint256"
        }
      ],
      "payable": false,
      "stateMutability": "view",
      "type": "function"
    },
    {
      "constant": true,
      "inputs": [
        {
          "name": "",
          "type": "address"
        }
      ],
      "name": "isMaliciousCoin",
      "outputs": [
        {
          "name": "",
          "type": "bool"
        }
      ],
      "payable": false,
      "stateMutability": "view",
      "type": "function"
    },
    {
      "constant": true,
      "inputs": [],
      "name": "allowEmergencyWithdraw",
      "outputs": [
        {
          "name": "",
          "type": "bool"
        }
      ],
      "payable": false,
      "stateMutability": "view",
      "type": "function"
    },
    {
      "constant": true,
      "inputs": [],
      "name": "developerFeeAccount",
      "outputs": [
        {
          "name": "",
          "type": "address"
        }
      ],
      "payable": false,
      "stateMutability": "view",
      "type": "function"
    },
    {
      "constant": true,
      "inputs": [],
      "name": "assetFeeRate",
      "outputs": [
        {
          "name": "",
          "type": "uint256"
        }
      ],
      "payable": false,
      "stateMutability": "view",
      "type": "function"
    },
    {
      "constant": true,
      "inputs": [],
      "name": "startTimeOfCyclePhase",
      "outputs": [
        {
          "name": "",
          "type": "uint256"
        }
      ],
      "payable": false,
      "stateMutability": "view",
      "type": "function"
    },
    {
      "constant": true,
      "inputs": [],
      "name": "cycleNumber",
      "outputs": [
        {
          "name": "",
          "type": "uint256"
        }
      ],
      "payable": false,
      "stateMutability": "view",
      "type": "function"
    },
    {
      "constant": false,
      "inputs": [],
      "name": "unpause",
      "outputs": [],
      "payable": false,
      "stateMutability": "nonpayable",
      "type": "function"
    },
    {
      "constant": true,
      "inputs": [],
      "name": "paused",
      "outputs": [
        {
          "name": "",
          "type": "bool"
        }
      ],
      "payable": false,
      "stateMutability": "view",
      "type": "function"
    },
    {
      "constant": true,
      "inputs": [],
      "name": "commissionRate",
      "outputs": [
        {
          "name": "",
          "type": "uint256"
        }
      ],
      "payable": false,
      "stateMutability": "view",
      "type": "function"
    },
    {
      "constant": true,
      "inputs": [],
      "name": "functionCallReward",
      "outputs": [
        {
          "name": "",
          "type": "uint256"
        }
      ],
      "payable": false,
      "stateMutability": "view",
      "type": "function"
    },
    {
      "constant": true,
      "inputs": [],
      "name": "daiAddr",
      "outputs": [
        {
          "name": "",
          "type": "address"
        }
      ],
      "payable": false,
      "stateMutability": "view",
      "type": "function"
    },
    {
      "constant": true,
      "inputs": [
        {
          "name": "",
          "type": "address"
        }
      ],
      "name": "lastCommissionRedemption",
      "outputs": [
        {
          "name": "",
          "type": "uint256"
        }
      ],
      "payable": false,
      "stateMutability": "view",
      "type": "function"
    },
    {
      "constant": false,
      "inputs": [],
      "name": "pause",
      "outputs": [],
      "payable": false,
      "stateMutability": "nonpayable",
      "type": "function"
    },
    {
      "constant": true,
      "inputs": [],
      "name": "owner",
      "outputs": [
        {
          "name": "",
          "type": "address"
        }
      ],
      "payable": false,
      "stateMutability": "view",
      "type": "function"
    },
    {
      "constant": true,
      "inputs": [
        {
          "name": "",
          "type": "address"
        },
        {
          "name": "",
          "type": "uint256"
        }
      ],
      "name": "userInvestments",
      "outputs": [
        {
          "name": "tokenAddress",
          "type": "address"
        },
        {
          "name": "cycleNumber",
          "type": "uint256"
        },
        {
          "name": "stake",
          "type": "uint256"
        },
        {
          "name": "tokenAmount",
          "type": "uint256"
        },
        {
          "name": "buyPrice",
          "type": "uint256"
        },
        {
          "name": "sellPrice",
          "type": "uint256"
        },
        {
          "name": "isSold",
          "type": "bool"
        }
      ],
      "payable": false,
      "stateMutability": "view",
      "type": "function"
    },
    {
      "constant": true,
      "inputs": [],
      "name": "kyberAddr",
      "outputs": [
        {
          "name": "",
          "type": "address"
        }
      ],
      "payable": false,
      "stateMutability": "view",
      "type": "function"
    },
    {
      "constant": true,
      "inputs": [],
      "name": "exitFeeRate",
      "outputs": [
        {
          "name": "",
          "type": "uint256"
        }
      ],
      "payable": false,
      "stateMutability": "view",
      "type": "function"
    },
    {
      "constant": true,
      "inputs": [],
      "name": "totalCommission",
      "outputs": [
        {
          "name": "",
          "type": "uint256"
        }
      ],
      "payable": false,
      "stateMutability": "view",
      "type": "function"
    },
    {
      "constant": true,
      "inputs": [],
      "name": "shareTokenAddr",
      "outputs": [
        {
          "name": "",
          "type": "address"
        }
      ],
      "payable": false,
      "stateMutability": "view",
      "type": "function"
    },
    {
      "constant": true,
      "inputs": [],
      "name": "previousVersion",
      "outputs": [
        {
          "name": "",
          "type": "address"
        }
      ],
      "payable": false,
      "stateMutability": "view",
      "type": "function"
    },
    {
      "constant": true,
      "inputs": [],
      "name": "controlTokenAddr",
      "outputs": [
        {
          "name": "",
          "type": "address"
        }
      ],
      "payable": false,
      "stateMutability": "view",
      "type": "function"
    },
    {
      "constant": false,
      "inputs": [
        {
          "name": "newOwner",
          "type": "address"
        }
      ],
      "name": "transferOwnership",
      "outputs": [],
      "payable": false,
      "stateMutability": "nonpayable",
      "type": "function"
    },
    {
      "constant": true,
      "inputs": [],
      "name": "cyclePhase",
      "outputs": [
        {
          "name": "",
          "type": "uint8"
        }
      ],
      "payable": false,
      "stateMutability": "view",
      "type": "function"
    },
    {
      "inputs": [
        {
          "name": "_cTokenAddr",
          "type": "address"
        },
        {
          "name": "_sTokenAddr",
          "type": "address"
        },
        {
          "name": "_kyberAddr",
          "type": "address"
        },
        {
          "name": "_daiAddr",
          "type": "address"
        },
        {
          "name": "_developerFeeAccount",
          "type": "address"
        },
        {
          "name": "_phaseLengths",
          "type": "uint256[3]"
        },
        {
          "name": "_commissionRate",
          "type": "uint256"
        },
        {
          "name": "_assetFeeRate",
          "type": "uint256"
        },
        {
          "name": "_developerFeeRate",
          "type": "uint256"
        },
        {
          "name": "_exitFeeRate",
          "type": "uint256"
        },
        {
          "name": "_functionCallReward",
          "type": "uint256"
        },
        {
          "name": "_previousVersion",
          "type": "address"
        }
      ],
      "payable": false,
      "stateMutability": "nonpayable",
      "type": "constructor"
    },
    {
      "payable": true,
      "stateMutability": "payable",
      "type": "fallback"
    },
    {
      "anonymous": false,
      "inputs": [
        {
          "indexed": true,
          "name": "_cycleNumber",
          "type": "uint256"
        },
        {
          "indexed": true,
          "name": "_newPhase",
          "type": "uint256"
        },
        {
          "indexed": false,
          "name": "_timestamp",
          "type": "uint256"
        }
      ],
      "name": "ChangedPhase",
      "type": "event"
    },
    {
      "anonymous": false,
      "inputs": [
        {
          "indexed": true,
          "name": "_cycleNumber",
          "type": "uint256"
        },
        {
          "indexed": true,
          "name": "_sender",
          "type": "address"
        },
        {
          "indexed": false,
          "name": "_tokenAddress",
          "type": "address"
        },
        {
          "indexed": false,
          "name": "_tokenAmount",
          "type": "uint256"
        },
        {
          "indexed": false,
          "name": "_daiAmount",
          "type": "uint256"
        },
        {
          "indexed": false,
          "name": "_timestamp",
          "type": "uint256"
        }
      ],
      "name": "Deposit",
      "type": "event"
    },
    {
      "anonymous": false,
      "inputs": [
        {
          "indexed": true,
          "name": "_cycleNumber",
          "type": "uint256"
        },
        {
          "indexed": true,
          "name": "_sender",
          "type": "address"
        },
        {
          "indexed": false,
          "name": "_tokenAddress",
          "type": "address"
        },
        {
          "indexed": false,
          "name": "_tokenAmount",
          "type": "uint256"
        },
        {
          "indexed": false,
          "name": "daiAmount",
          "type": "uint256"
        },
        {
          "indexed": false,
          "name": "_timestamp",
          "type": "uint256"
        }
      ],
      "name": "Withdraw",
      "type": "event"
    },
    {
      "anonymous": false,
      "inputs": [
        {
          "indexed": true,
          "name": "_cycleNumber",
          "type": "uint256"
        },
        {
          "indexed": true,
          "name": "_sender",
          "type": "address"
        },
        {
          "indexed": false,
          "name": "_id",
          "type": "uint256"
        },
        {
          "indexed": false,
          "name": "_tokenAddress",
          "type": "address"
        },
        {
          "indexed": false,
          "name": "_stakeInWeis",
          "type": "uint256"
        },
        {
          "indexed": false,
          "name": "_buyPrice",
          "type": "uint256"
        },
        {
          "indexed": false,
          "name": "_costDAIAmount",
          "type": "uint256"
        }
      ],
      "name": "CreatedInvestment",
      "type": "event"
    },
    {
      "anonymous": false,
      "inputs": [
        {
          "indexed": true,
          "name": "_cycleNumber",
          "type": "uint256"
        },
        {
          "indexed": true,
          "name": "_sender",
          "type": "address"
        },
        {
          "indexed": false,
          "name": "_investmentId",
          "type": "uint256"
        },
        {
          "indexed": false,
          "name": "_receivedKairos",
          "type": "uint256"
        },
        {
          "indexed": false,
          "name": "_sellPrice",
          "type": "uint256"
        },
        {
          "indexed": false,
          "name": "_earnedDAIAmount",
          "type": "uint256"
        }
      ],
      "name": "SoldInvestment",
      "type": "event"
    },
    {
      "anonymous": false,
      "inputs": [
        {
          "indexed": true,
          "name": "_cycleNumber",
          "type": "uint256"
        },
        {
          "indexed": false,
          "name": "_beforeTotalFunds",
          "type": "uint256"
        },
        {
          "indexed": false,
          "name": "_afterTotalFunds",
          "type": "uint256"
        }
      ],
      "name": "ROI",
      "type": "event"
    },
    {
      "anonymous": false,
      "inputs": [
        {
          "indexed": true,
          "name": "_cycleNumber",
          "type": "uint256"
        },
        {
          "indexed": true,
          "name": "_sender",
          "type": "address"
        },
        {
          "indexed": false,
          "name": "_commission",
          "type": "uint256"
        }
      ],
      "name": "CommissionPaid",
      "type": "event"
    },
    {
      "anonymous": false,
      "inputs": [
        {
          "indexed": true,
          "name": "_cycleNumber",
          "type": "uint256"
        },
        {
          "indexed": false,
          "name": "_totalCommissionInWeis",
          "type": "uint256"
        }
      ],
      "name": "TotalCommissionPaid",
      "type": "event"
    },
    {
      "anonymous": false,
      "inputs": [],
      "name": "Pause",
      "type": "event"
    },
    {
      "anonymous": false,
      "inputs": [],
      "name": "Unpause",
      "type": "event"
    },
    {
      "anonymous": false,
      "inputs": [
        {
          "indexed": true,
          "name": "previousOwner",
          "type": "address"
        },
        {
          "indexed": true,
          "name": "newOwner",
          "type": "address"
        }
      ],
      "name": "OwnershipTransferred",
      "type": "event"
    },
    {
      "constant": true,
      "inputs": [
        {
          "name": "_userAddr",
          "type": "address"
        }
      ],
      "name": "investmentsCount",
      "outputs": [
        {
          "name": "_count",
          "type": "uint256"
        }
      ],
      "payable": false,
      "stateMutability": "view",
      "type": "function"
    },
    {
      "constant": true,
      "inputs": [],
      "name": "getPhaseLengths",
      "outputs": [
        {
          "name": "_phaseLengths",
          "type": "uint256[3]"
        }
      ],
      "payable": false,
      "stateMutability": "view",
      "type": "function"
    },
    {
      "constant": false,
      "inputs": [
        {
          "name": "_tokenAddr",
          "type": "address"
        }
      ],
      "name": "emergencyDumpToken",
      "outputs": [],
      "payable": false,
      "stateMutability": "nonpayable",
      "type": "function"
    },
    {
      "constant": false,
      "inputs": [
        {
          "name": "_investmentId",
          "type": "uint256"
        }
      ],
      "name": "emergencyRedeemStake",
      "outputs": [],
      "payable": false,
      "stateMutability": "nonpayable",
      "type": "function"
    },
    {
      "constant": false,
      "inputs": [],
      "name": "emergencyUpdateBalance",
      "outputs": [],
      "payable": false,
      "stateMutability": "nonpayable",
      "type": "function"
    },
    {
      "constant": false,
      "inputs": [
        {
          "name": "_newVal",
          "type": "bool"
        }
      ],
      "name": "setAllowEmergencyWithdraw",
      "outputs": [],
      "payable": false,
      "stateMutability": "nonpayable",
      "type": "function"
    },
    {
      "constant": false,
      "inputs": [],
      "name": "emergencyWithdraw",
      "outputs": [],
      "payable": false,
      "stateMutability": "nonpayable",
      "type": "function"
    },
    {
      "constant": false,
      "inputs": [
        {
          "name": "_newAddr",
          "type": "address"
        }
      ],
      "name": "changeKyberNetworkAddress",
      "outputs": [],
      "payable": false,
      "stateMutability": "nonpayable",
      "type": "function"
    },
    {
      "constant": false,
      "inputs": [
        {
          "name": "_newAddr",
          "type": "address"
        }
      ],
      "name": "changeDeveloperFeeAccount",
      "outputs": [],
      "payable": false,
      "stateMutability": "nonpayable",
      "type": "function"
    },
    {
      "constant": false,
      "inputs": [
        {
          "name": "_newAddr",
          "type": "address"
        }
      ],
      "name": "changeDAIAddress",
      "outputs": [],
      "payable": false,
      "stateMutability": "nonpayable",
      "type": "function"
    },
    {
      "constant": false,
      "inputs": [
        {
          "name": "_newProp",
          "type": "uint256"
        }
      ],
      "name": "changeCommissionRate",
      "outputs": [],
      "payable": false,
      "stateMutability": "nonpayable",
      "type": "function"
    },
    {
      "constant": false,
      "inputs": [
        {
          "name": "_newProp",
          "type": "uint256"
        }
      ],
      "name": "changeAssetFeeRate",
      "outputs": [],
      "payable": false,
      "stateMutability": "nonpayable",
      "type": "function"
    },
    {
      "constant": false,
      "inputs": [
        {
          "name": "_newProp",
          "type": "uint256"
        }
      ],
      "name": "changeDeveloperFeeProportion",
      "outputs": [],
      "payable": false,
      "stateMutability": "nonpayable",
      "type": "function"
    },
    {
      "constant": false,
      "inputs": [
        {
          "name": "_newProp",
          "type": "uint256"
        }
      ],
      "name": "changeExitFeeRate",
      "outputs": [],
      "payable": false,
      "stateMutability": "nonpayable",
      "type": "function"
    },
    {
      "constant": false,
      "inputs": [
        {
          "name": "_newVal",
          "type": "uint256"
        }
      ],
      "name": "changeCallReward",
      "outputs": [],
      "payable": false,
      "stateMutability": "nonpayable",
      "type": "function"
    },
    {
      "constant": false,
      "inputs": [
        {
          "name": "_newVal",
          "type": "uint256[3]"
        }
      ],
      "name": "changePhaseLengths",
      "outputs": [],
      "payable": false,
      "stateMutability": "nonpayable",
      "type": "function"
    },
    {
      "constant": false,
      "inputs": [
        {
          "name": "_newOwner",
          "type": "address"
        }
      ],
      "name": "changeControlTokenOwner",
      "outputs": [],
      "payable": false,
      "stateMutability": "nonpayable",
      "type": "function"
    },
    {
      "constant": false,
      "inputs": [
        {
          "name": "_coin",
          "type": "address"
        },
        {
          "name": "_status",
          "type": "bool"
        }
      ],
      "name": "setMaliciousCoinStatus",
      "outputs": [],
      "payable": false,
      "stateMutability": "nonpayable",
      "type": "function"
    },
    {
      "constant": false,
      "inputs": [],
      "name": "nextPhase",
      "outputs": [],
      "payable": false,
      "stateMutability": "nonpayable",
      "type": "function"
    },
    {
      "constant": false,
      "inputs": [],
      "name": "deposit",
      "outputs": [],
      "payable": true,
      "stateMutability": "payable",
      "type": "function"
    },
    {
      "constant": false,
      "inputs": [
        {
          "name": "_tokenAddr",
          "type": "address"
        },
        {
          "name": "_tokenAmount",
          "type": "uint256"
        }
      ],
      "name": "depositToken",
      "outputs": [],
      "payable": false,
      "stateMutability": "nonpayable",
      "type": "function"
    },
    {
      "constant": false,
      "inputs": [
        {
          "name": "_amountInDAI",
          "type": "uint256"
        }
      ],
      "name": "withdraw",
      "outputs": [],
      "payable": false,
      "stateMutability": "nonpayable",
      "type": "function"
    },
    {
      "constant": false,
      "inputs": [
        {
          "name": "_tokenAddr",
          "type": "address"
        },
        {
          "name": "_amountInDAI",
          "type": "uint256"
        }
      ],
      "name": "withdrawToken",
      "outputs": [],
      "payable": false,
      "stateMutability": "nonpayable",
      "type": "function"
    },
    {
      "constant": false,
      "inputs": [
        {
          "name": "_tokenAddress",
          "type": "address"
        },
        {
          "name": "_stake",
          "type": "uint256"
        }
      ],
      "name": "createInvestment",
      "outputs": [],
      "payable": false,
      "stateMutability": "nonpayable",
      "type": "function"
    },
    {
      "constant": false,
      "inputs": [
        {
          "name": "_investmentId",
          "type": "uint256"
        }
      ],
      "name": "sellInvestmentAsset",
      "outputs": [],
      "payable": false,
      "stateMutability": "nonpayable",
      "type": "function"
    },
    {
      "constant": false,
      "inputs": [],
      "name": "redeemCommission",
      "outputs": [],
      "payable": false,
      "stateMutability": "nonpayable",
      "type": "function"
    },
    {
      "constant": false,
      "inputs": [],
      "name": "redeemCommissionInShares",
      "outputs": [],
      "payable": false,
      "stateMutability": "nonpayable",
      "type": "function"
    },
    {
      "constant": false,
      "inputs": [
        {
          "name": "_tokenAddr",
          "type": "address"
        }
      ],
      "name": "sellLeftoverToken",
      "outputs": [],
      "payable": false,
      "stateMutability": "nonpayable",
      "type": "function"
    }
  ],
  "bytecode": "0x60606040526000805460a060020a61ffff021916905534156200002157600080fd5b6040516101c0806200504483398101604052808051919060200180519190602001805191906020018051919060200180519160208201916080018051919060200180519190602001805191906020018051919060200180519190602001805160008054600160a060020a03191633600160a060020a03161790559150670de0b6b3a76400009050620000c28786640100000000620002a68102620044ff1704565b10620000cd57600080fd5b8b600160006101000a815481600160a060020a030219169083600160a060020a031602179055508a600260006101000a815481600160a060020a030219169083600160a060020a0316021790555089600360006101000a815481600160a060020a030219169083600160a060020a0316021790555088600560006101000a815481600160a060020a030219169083600160a060020a031602179055508b601760016101000a815481600160a060020a030219169083600160a060020a031602179055508a601860006101000a815481600160a060020a030219169083600160a060020a0316021790555089601960006101000a815481600160a060020a030219169083600160a060020a0316021790555088601a60006101000a815481600160a060020a030219169083600160a060020a0316021790555087600460006101000a815481600160a060020a030219169083600160a060020a031602179055508660119060036200023f929190620002bd565b50600a95909555600b93909355600c91909155600d5560006009556017805460ff19908116600217909155600e9190915560068054600160a060020a031916600160a060020a03909316929092179091556010805490911690555062000320945050505050565b600082820183811015620002b657fe5b9392505050565b8260038101928215620002ee579160200282015b82811115620002ee578251825591602001919060010190620002d1565b50620002fc92915062000300565b5090565b6200031d91905b80821115620002fc576000815560010162000307565b90565b614d1480620003306000396000f3006060604052600436106102635763ffffffff60e060020a600035041663013bcbfc81146102805780630cba5355146102a55780630e1b1fda146102b857806311815223146102ce57806312e1ee45146102ed578063173e77071461030c578063192d619d1461032b5780631a2604a41461033e5780631a26af7a146103715780631ab371fc146103845780631b8e2192146103b35780631f7f336f146103c65780632303b5b0146103d957806325f842c5146103ef5780632e1a7d4d146104025780632f88471014610418578063338b5dea1461042b5780633e2f2b191461044d5780633eadb6db146104635780633f4ba83a14610476578063407fa2a3146104895780635c975abb146104d45780635d4c3224146104e75780635ea1d6f8146104ff578063612d194d1461051257806364542e3e146105255780636642642a1461053b57806368063a7414610551578063749b7a3c1461057057806374fa0a63146105a95780637fa61e14146105bc578063821f9824146105d25780638456cb59146105f15780638da5cb5b146106045780639244adcd146106175780639b4ef376146106815780639e281a98146106a5578063a7c4dccf146106c7578063ab4df168146106da578063b18e8a8d146106f9578063b2637f6514610718578063b6106f3f1461072b578063c0320dbc1461073e578063d0e30db014610751578063d7615d3714610759578063d82277cc1461076c578063db2e21bc1461078e578063db3d1ccf146107a1578063dc87454c146107b4578063e53ad2d0146107c7578063e7476abf146107dd578063f2fde38b146107fc578063f6558b001461081b575b60035433600160a060020a0390811691161461027e57600080fd5b005b341561028b57600080fd5b610293610852565b60405190815260200160405180910390f35b34156102b057600080fd5b610293610858565b34156102c357600080fd5b61027e60043561085e565b34156102d957600080fd5b61027e600160a060020a0360043516610974565b34156102f857600080fd5b61027e600160a060020a03600435166109e8565b341561031757600080fd5b61027e600160a060020a0360043516610acb565b341561033657600080fd5b61027e610de4565b341561034957600080fd5b61035d600160a060020a0360043516611178565b604051901515815260200160405180910390f35b341561037c57600080fd5b61035d61118d565b341561038f57600080fd5b610397611196565b604051600160a060020a03909116815260200160405180910390f35b34156103be57600080fd5b61027e6111a5565b34156103d157600080fd5b61029361138b565b34156103e457600080fd5b61027e600435611391565b34156103fa57600080fd5b6102936113b1565b341561040d57600080fd5b61027e6004356113b7565b341561042357600080fd5b6102936117a4565b341561043657600080fd5b61027e600160a060020a03600435166024356117aa565b341561045857600080fd5b61027e600435611f89565b341561046e57600080fd5b61027e611fb7565b341561048157600080fd5b61027e612328565b341561049457600080fd5b61049c6123a7565b6040518082606080838360005b838110156104c15780820151838201526020016104a9565b5050505090500191505060405180910390f35b34156104df57600080fd5b61035d6123e5565b34156104f257600080fd5b61027e60043515156123f5565b341561050a57600080fd5b61029361243b565b341561051d57600080fd5b610293612441565b341561053057600080fd5b61027e600435612447565b341561054657600080fd5b61027e600435612475565b341561055c57600080fd5b610293600160a060020a0360043516612495565b341561057b57600080fd5b61027e60046064816003606060405190810160405291908282606080828437509395506124b4945050505050565b34156105b457600080fd5b6103976124e0565b34156105c757600080fd5b61027e6004356124ef565b34156105dd57600080fd5b610293600160a060020a036004351661250f565b34156105fc57600080fd5b61027e612521565b341561060f57600080fd5b6103976125a5565b341561062257600080fd5b610639600160a060020a03600435166024356125b4565b604051600160a060020a03909716875260208701959095526040808701949094526060860192909252608085015260a084015290151560c083015260e0909101905180910390f35b341561068c57600080fd5b61027e600160a060020a0360043516602435151561261a565b34156106b057600080fd5b61027e600160a060020a0360043516602435612675565b34156106d257600080fd5b610397612cdb565b34156106e557600080fd5b61027e600160a060020a0360043516612cea565b341561070457600080fd5b61027e600160a060020a0360043516612d5e565b341561072357600080fd5b61027e612db0565b341561073657600080fd5b610293612e5b565b341561074957600080fd5b610293612e61565b61027e612e67565b341561076457600080fd5b610397613349565b341561077757600080fd5b61027e600160a060020a0360043516602435613358565b341561079957600080fd5b61027e6138a4565b34156107ac57600080fd5b610397613baa565b34156107bf57600080fd5b610397613bb9565b34156107d257600080fd5b61027e600435613bc8565b34156107e857600080fd5b61027e600160a060020a036004351661408b565b341561080757600080fd5b61027e600160a060020a0360043516614139565b341561082657600080fd5b61082e6141c7565b6040518082600281111561083e57fe5b60ff16815260200191505060405180910390f35b600c5481565b60085481565b60008054819060a060020a900460ff16151561087957600080fd5b60105460ff16151561088a57600080fd5b600160a060020a03331660009081526015602052604090208054849081106108ae57fe5b9060005260206000209060070201915060075482600101541415156108d257600080fd5b506002810154600081116108e557600080fd5b6000600283018190556017546101009004600160a060020a03169063a9059cbb90339084906040516020015260405160e060020a63ffffffff8516028152600160a060020a0390921660048301526024820152604401602060405180830381600087803b151561095457600080fd5b6102c65a03f1151561096557600080fd5b50505060405180515050505050565b60005433600160a060020a0390811691161461098f57600080fd5b60005460a060020a900460ff1615156109a757600080fd5b600160a060020a03811615156109bc57600080fd5b60038054600160a060020a03909216600160a060020a0319928316811790915560198054909216179055565b6000805433600160a060020a03908116911614610a0457600080fd5b60028060175460ff166002811115610a1857fe5b14610a2257600080fd5b60005460a060020a900460ff161515610a3a57600080fd5b829150610ac58283600160a060020a03166370a082313060006040516020015260405160e060020a63ffffffff8416028152600160a060020a039091166004820152602401602060405180830381600087803b1515610a9857600080fd5b6102c65a03f11515610aa957600080fd5b5050506040518051601a54909150600160a060020a03166141d0565b50505050565b60008060028060175460ff166002811115610ae257fe5b14610aec57600080fd5b600160a060020a03841660009081526016602052604081205485919060ff1615610b1557600080fd5b600160a060020a038216600080516020614cc983398151915214610c165750806000600160a060020a0382166318160ddd82604051602001526040518163ffffffff1660e060020a028152600401602060405180830381600087803b1515610b7c57600080fd5b6102c65a03f11515610b8d57600080fd5b50505060405180519050111515610ba357600080fd5b600b81600160a060020a031663313ce5676000604051602001526040518163ffffffff1660e060020a028152600401602060405180830381600087803b1515610beb57600080fd5b6102c65a03f11515610bfc57600080fd5b5050506040518051905060ff1610151515610c1657600080fd5b60005460a060020a900460ff1615610c2d57600080fd5b60005460a860020a900460ff1615610c4457600080fd5b6000805460a860020a60ff02191660a860020a178155601a54600160a060020a0316906370a082319030906040516020015260405160e060020a63ffffffff8416028152600160a060020a039091166004820152602401602060405180830381600087803b1515610cb457600080fd5b6102c65a03f11515610cc557600080fd5b505050604051805190509450859350610d2f8485600160a060020a03166370a082313060006040516020015260405160e060020a63ffffffff8416028152600160a060020a039091166004820152602401602060405180830381600087803b1515610a9857600080fd5b50601a54610dc990610dba908790600160a060020a03166370a082313060006040516020015260405160e060020a63ffffffff8416028152600160a060020a039091166004820152602401602060405180830381600087803b1515610d9357600080fd5b6102c65a03f11515610da457600080fd5b505050604051805191905063ffffffff6144e816565b6008549063ffffffff6144ff16565b60085550506000805460a860020a60ff021916905550505050565b600060028060175460ff166002811115610dfa57fe5b14610e0457600080fd5b60005460a060020a900460ff1615610e1b57600080fd5b60005460a860020a900460ff1615610e3257600080fd5b6000805460a860020a60ff02191660a860020a178155600754600160a060020a0333168252601460205260409091205410610e6c57600080fd5b600754600160a060020a0333811660009081526014602052604080822093909355601754610f8b93610100909104909216916318160ddd919051602001526040518163ffffffff1660e060020a028152600401602060405180830381600087803b1515610ed857600080fd5b6102c65a03f11515610ee957600080fd5b5050506040518051601754909150610f7f906101009004600160a060020a03166370a082313360006040516020015260405160e060020a63ffffffff8416028152600160a060020a039091166004820152602401602060405180830381600087803b1515610f5657600080fd5b6102c65a03f11515610f6757600080fd5b5050506040518051600f54915063ffffffff61451916565b9063ffffffff61454416565b601854600854919350600160a060020a0316906340c10f1990339061101190610f7f856318160ddd6000604051602001526040518163ffffffff1660e060020a028152600401602060405180830381600087803b1515610fea57600080fd5b6102c65a03f11515610ffb57600080fd5b505050604051805189915063ffffffff61451916565b60006040516020015260405160e060020a63ffffffff8516028152600160a060020a0390921660048301526024820152604401602060405180830381600087803b151561105d57600080fd5b6102c65a03f1151561106e57600080fd5b5050506040518051505060085461108b908363ffffffff6144ff16565b600855600160a060020a03331660009081526015602052604081206110af91614ba1565b600754600554600160a060020a0333811692917f7ee7a1de9c18ce695c95b8b19fbdf26cce3544e3ca9e08c9f487776783d7599f91168580426040518085600160a060020a0316600160a060020a0316815260200184815260200183815260200182815260200194505050505060405180910390a333600160a060020a03166007547fec530ab710fdaa2b5968fe15f486992441a96f643219cf0150904aa5b9eedf828460405190815260200160405180910390a350506000805460a860020a60ff0219169055565b60166020526000908152604090205460ff1681565b60105460ff1681565b600454600160a060020a031681565b600060028060175460ff1660028111156111bb57fe5b146111c557600080fd5b60005460a060020a900460ff16156111dc57600080fd5b60005460a860020a900460ff16156111f357600080fd5b6000805460a860020a60ff02191660a860020a178155600754600160a060020a033316825260146020526040909120541061122d57600080fd5b600754600160a060020a033381166000908152601460205260408082209390935560175461129993610100909104909216916318160ddd919051602001526040518163ffffffff1660e060020a028152600401602060405180830381600087803b1515610ed857600080fd5b601a54909250600160a060020a031663a9059cbb338460006040516020015260405160e060020a63ffffffff8516028152600160a060020a0390921660048301526024820152604401602060405180830381600087803b15156112fb57600080fd5b6102c65a03f1151561130c57600080fd5b50505060405180515050600160a060020a033316600090815260156020526040812061133791614ba1565b33600160a060020a03166007547fec530ab710fdaa2b5968fe15f486992441a96f643219cf0150904aa5b9eedf828460405190815260200160405180910390a350506000805460a860020a60ff0219169055565b600b5481565b60005433600160a060020a039081169116146113ac57600080fd5b600e55565b60095481565b600080808080808060175460ff1660028111156113d057fe5b146113da57600080fd5b60005460a060020a900460ff16156113f157600080fd5b60005460a860020a900460ff161561140857600080fd5b6000805460a860020a60ff02191660a860020a178155601a54600160a060020a03308181163197509116916370a0823191906040516020015260405160e060020a63ffffffff8416028152600160a060020a039091166004820152602401602060405180830381600087803b151561147f57600080fd5b6102c65a03f1151561149057600080fd5b5050506040518051601a549094506114c19150600160a060020a031688600080516020614cc98339815191526141d0565b506114dc600160a060020a033016318563ffffffff6144e816565b601a5490965061156390600160a060020a03166370a082313060006040516020015260405160e060020a63ffffffff8416028152600160a060020a039091166004820152602401602060405180830381600087803b151561153c57600080fd5b6102c65a03f1151561154d57600080fd5b505050604051805185915063ffffffff6144e816565b94506000851161157257600080fd5b601854600854600160a060020a039091169063c00017869033906115f790610f7f856318160ddd6000604051602001526040518163ffffffff1660e060020a028152600401602060405180830381600087803b15156115d057600080fd5b6102c65a03f115156115e157600080fd5b50505060405180518c915063ffffffff61451916565b60006040516020015260405160e060020a63ffffffff8516028152600160a060020a0390921660048301526024820152604401602060405180830381600087803b151561164357600080fd5b6102c65a03f1151561165457600080fd5b50505060405180515050600854611671908663ffffffff6144e816565b600855600d5461169690670de0b6b3a764000090610f7f90899063ffffffff61451916565b600454909250600160a060020a031682156108fc0283604051600060405180830381858888f1935050505015156116cc57600080fd5b6116dc868363ffffffff6144e816565b9550600160a060020a03331686156108fc0287604051600060405180830381858888f19350505050151561170f57600080fd5b33600160a060020a03166007547fae96a66bcd5a00556ad548b9a949f8f45220d5859c013e5cedbddd6af8cf7b9d600080516020614cc98339815191528989426040518085600160a060020a0316600160a060020a0316815260200184815260200183815260200182815260200194505050505060405180910390a350506000805460a860020a60ff02191690555050505050565b60075481565b60008080808080808060175460ff1660028111156117c457fe5b146117ce57600080fd5b600160a060020a0389166000908152601660205260408120548a919060ff16156117f757600080fd5b600160a060020a038216600080516020614cc9833981519152146118f85750806000600160a060020a0382166318160ddd82604051602001526040518163ffffffff1660e060020a028152600401602060405180830381600087803b151561185e57600080fd5b6102c65a03f1151561186f57600080fd5b5050506040518051905011151561188557600080fd5b600b81600160a060020a031663313ce5676000604051602001526040518163ffffffff1660e060020a028152600401602060405180830381600087803b15156118cd57600080fd5b6102c65a03f115156118de57600080fd5b5050506040518051905060ff16101515156118f857600080fd5b60005460a060020a900460ff161561190f57600080fd5b60005460a860020a900460ff161561192657600080fd5b6000805460a860020a60ff02191660a860020a1781558b9950600160a060020a038a16906323b872dd90339030908e906040516020015260405160e060020a63ffffffff8616028152600160a060020a0393841660048201529190921660248201526044810191909152606401602060405180830381600087803b15156119ac57600080fd5b6102c65a03f115156119bd57600080fd5b5050506040518051905015156119d257600080fd5b600554600160a060020a038c8116911614156119f357899750899650611c87565b88600160a060020a03166370a082313060006040516020015260405160e060020a63ffffffff8416028152600160a060020a039091166004820152602401602060405180830381600087803b1515611a4a57600080fd5b6102c65a03f11515611a5b57600080fd5b5050506040518051601a54909750600160a060020a031690506370a082313060006040516020015260405160e060020a63ffffffff8416028152600160a060020a039091166004820152602401602060405180830381600087803b1515611ac157600080fd5b6102c65a03f11515611ad257600080fd5b5050506040518051601a54909650611af791508a908c90600160a060020a03166141d0565b50611b7989600160a060020a03166370a082313060006040516020015260405160e060020a63ffffffff8416028152600160a060020a039091166004820152602401602060405180830381600087803b1515611b5257600080fd5b6102c65a03f11515611b6357600080fd5b505050604051805188915063ffffffff6144e816565b9650611b8b8a8863ffffffff6144e816565b93506000841115611c195788600160a060020a031663a9059cbb338660006040516020015260405160e060020a63ffffffff8516028152600160a060020a0390921660048301526024820152604401602060405180830381600087803b1515611bf357600080fd5b6102c65a03f11515611c0457600080fd5b505050604051805190501515611c1957600080fd5b601a54611c78908690600160a060020a03166370a082313060006040516020015260405160e060020a63ffffffff8416028152600160a060020a039091166004820152602401602060405180830381600087803b1515610d9357600080fd5b975060008811611c8757600080fd5b601854600160a060020a03166318160ddd6000604051602001526040518163ffffffff1660e060020a028152600401602060405180830381600087803b1515611ccf57600080fd5b6102c65a03f11515611ce057600080fd5b505050604051805115905080611cf65750600854155b15611d7b57601854600160a060020a03166340c10f19338a60006040516020015260405160e060020a63ffffffff8516028152600160a060020a0390921660048301526024820152604401602060405180830381600087803b1515611d5a57600080fd5b6102c65a03f11515611d6b57600080fd5b5050506040518051905050611e68565b601854600854600160a060020a03909116906340c10f19903390611e0090610f7f856318160ddd6000604051602001526040518163ffffffff1660e060020a028152600401602060405180830381600087803b1515611dd957600080fd5b6102c65a03f11515611dea57600080fd5b50505060405180518f915063ffffffff61451916565b60006040516020015260405160e060020a63ffffffff8516028152600160a060020a0390921660048301526024820152604401602060405180830381600087803b1515611e4c57600080fd5b6102c65a03f11515611e5d57600080fd5b505050604051805150505b600854611e7b908963ffffffff6144ff16565b6008556017546101009004600160a060020a03166340c10f19338a60006040516020015260405160e060020a63ffffffff8516028152600160a060020a0390921660048301526024820152604401602060405180830381600087803b1515611ee257600080fd5b6102c65a03f11515611ef357600080fd5b505050604051805190505033600160a060020a03166007547f7ee7a1de9c18ce695c95b8b19fbdf26cce3544e3ca9e08c9f487776783d7599f8d8a8c426040518085600160a060020a0316600160a060020a0316815260200184815260200183815260200182815260200194505050505060405180910390a350506000805460a860020a60ff0219169055505050505050505050565b60005433600160a060020a03908116911614611fa457600080fd5b600d548110611fb257600080fd5b600d55565b60005460a060020a900460ff1615611fce57600080fd5b6017546120019060119060ff166002811115611fe657fe5b60038110611ff057fe5b01546009549063ffffffff6144ff16565b42101561200d57600080fd5b600260175460ff16600281111561202057fe5b141561212c57600754151561204a5760005433600160a060020a0390811691161461204a57600080fd5b60075461205e90600163ffffffff6144ff16565b6007556017546101009004600160a060020a0316635c975abb6000604051602001526040518163ffffffff1660e060020a028152600401602060405180830381600087803b15156120ae57600080fd5b6102c65a03f115156120bf57600080fd5b5050506040518051905015612127576017546101009004600160a060020a0316633f4ba83a6040518163ffffffff1660e060020a028152600401600060405180830381600087803b151561211257600080fd5b6102c65a03f1151561212357600080fd5b5050505b612218565b600160175460ff16600281111561213f57fe5b1415612218576017546101009004600160a060020a031663f3123a3a6000604051602001526040518163ffffffff1660e060020a028152600401602060405180830381600087803b151561219257600080fd5b6102c65a03f115156121a357600080fd5b5050506040518051905015156121b857600080fd5b6017546101009004600160a060020a0316638456cb596040518163ffffffff1660e060020a028152600401600060405180830381600087803b15156121fc57600080fd5b6102c65a03f1151561220d57600080fd5b50505061221861455b565b60175460039060019060ff16600281111561222f57fe5b08600281111561223b57fe5b6017805460ff1916600183600281111561225157fe5b021790555042600955601754600e54610100909104600160a060020a0316906340c10f1990339060006040516020015260405160e060020a63ffffffff8516028152600160a060020a0390921660048301526024820152604401602060405180830381600087803b15156122c457600080fd5b6102c65a03f115156122d557600080fd5b5050506040518051505060175460ff1660028111156122f057fe5b6007547f9590d2eff92d0882635fb8e1412da02e41af0dc517cfd07520a03506eb65b0af4260405190815260200160405180910390a3565b60005433600160a060020a0390811691161461234357600080fd5b60005460a060020a900460ff16151561235b57600080fd5b6000805474ff0000000000000000000000000000000000000000191690557f7805862f689e2f13df9f062ff482ad3ad112aca9e0847911ed832e158c525b3360405160405180910390a1565b6123af614bc5565b60116003606060405190810160405291906060830182845b8154815260200190600101908083116123c757505050505090505b90565b60005460a060020a900460ff1681565b60005433600160a060020a0390811691161461241057600080fd5b60005460a060020a900460ff16151561242857600080fd5b6010805460ff1916911515919091179055565b600a5481565b600e5481565b60005433600160a060020a0390811691161461246257600080fd5b600c54811061247057600080fd5b600c55565b60005433600160a060020a0390811691161461249057600080fd5b600a55565b600160a060020a0381166000908152601560205260409020545b919050565b60005433600160a060020a039081169116146124cf57600080fd5b6124dc6011826003614bec565b5050565b600554600160a060020a031681565b60005433600160a060020a0390811691161461250a57600080fd5b600b55565b60146020526000908152604090205481565b60005433600160a060020a0390811691161461253c57600080fd5b60005460a060020a900460ff161561255357600080fd5b6000805474ff0000000000000000000000000000000000000000191660a060020a1790557f6985a02210a168e66602d3235cb6db0e70f92b3ba4d376a33c0f3d9434bff62560405160405180910390a1565b600054600160a060020a031681565b6015602052816000526040600020818154811015156125cf57fe5b60009182526020909120600790910201805460018201546002830154600384015460048501546005860154600690960154600160a060020a0390951697509295509093909260ff1687565b60005433600160a060020a0390811691161461263557600080fd5b600160a060020a038216151561264a57600080fd5b600160a060020a03919091166000908152601660205260409020805460ff1916911515919091179055565b60008080808080808060175460ff16600281111561268f57fe5b1461269957600080fd5b600160a060020a0389166000908152601660205260408120548a919060ff16156126c257600080fd5b600160a060020a038216600080516020614cc9833981519152146127c35750806000600160a060020a0382166318160ddd82604051602001526040518163ffffffff1660e060020a028152600401602060405180830381600087803b151561272957600080fd5b6102c65a03f1151561273a57600080fd5b5050506040518051905011151561275057600080fd5b600b81600160a060020a031663313ce5676000604051602001526040518163ffffffff1660e060020a028152600401602060405180830381600087803b151561279857600080fd5b6102c65a03f115156127a957600080fd5b5050506040518051905060ff16101515156127c357600080fd5b60005460a060020a900460ff16156127da57600080fd5b60005460a860020a900460ff16156127f157600080fd5b6000805460a860020a60ff02191660a860020a1790556005548b9950600160a060020a03808b169116141561282b57899650899750612a1f565b88600160a060020a03166370a082313060006040516020015260405160e060020a63ffffffff8416028152600160a060020a039091166004820152602401602060405180830381600087803b151561288257600080fd5b6102c65a03f1151561289357600080fd5b5050506040518051601a54909750600160a060020a031690506370a082313060006040516020015260405160e060020a63ffffffff8416028152600160a060020a039091166004820152602401602060405180830381600087803b15156128f957600080fd5b6102c65a03f1151561290a57600080fd5b5050506040518051601a5490965061292d9150600160a060020a03168b8b6141d0565b50612989868a600160a060020a03166370a082313060006040516020015260405160e060020a63ffffffff8416028152600160a060020a039091166004820152602401602060405180830381600087803b1515610d9357600080fd5b601a54909850612a1090600160a060020a03166370a082313060006040516020015260405160e060020a63ffffffff8416028152600160a060020a039091166004820152602401602060405180830381600087803b15156129e957600080fd5b6102c65a03f115156129fa57600080fd5b505050604051805187915063ffffffff6144e816565b965060008711612a1f57600080fd5b601854600854600160a060020a039091169063c0001786903390612aa490610f7f856318160ddd6000604051602001526040518163ffffffff1660e060020a028152600401602060405180830381600087803b1515612a7d57600080fd5b6102c65a03f11515612a8e57600080fd5b50505060405180518e915063ffffffff61451916565b60006040516020015260405160e060020a63ffffffff8516028152600160a060020a0390921660048301526024820152604401602060405180830381600087803b1515612af057600080fd5b6102c65a03f11515612b0157600080fd5b50505060405180515050600854612b1e908863ffffffff6144e816565b600855600d54612b4390670de0b6b3a764000090610f7f908b9063ffffffff61451916565b600454909450600160a060020a03808b169163a9059cbb91168660006040516020015260405160e060020a63ffffffff8516028152600160a060020a0390921660048301526024820152604401602060405180830381600087803b1515612ba957600080fd5b6102c65a03f11515612bba57600080fd5b505050604051805150612bd59050888563ffffffff6144e816565b975088600160a060020a031663a9059cbb338a60006040516020015260405160e060020a63ffffffff8516028152600160a060020a0390921660048301526024820152604401602060405180830381600087803b1515612c3457600080fd5b6102c65a03f11515612c4557600080fd5b505050604051805190505033600160a060020a03166007547fae96a66bcd5a00556ad548b9a949f8f45220d5859c013e5cedbddd6af8cf7b9d8d8b8b426040518085600160a060020a0316600160a060020a0316815260200184815260200183815260200182815260200194505050505060405180910390a350506000805460a860020a60ff0219169055505050505050505050565b600354600160a060020a031681565b60005433600160a060020a03908116911614612d0557600080fd5b60005460a060020a900460ff161515612d1d57600080fd5b600160a060020a0381161515612d3257600080fd5b60058054600160a060020a03909216600160a060020a03199283168117909155601a8054909216179055565b60005433600160a060020a03908116911614612d7957600080fd5b600160a060020a0381161515612d8e57600080fd5b60048054600160a060020a031916600160a060020a0392909216919091179055565b60005433600160a060020a03908116911614612dcb57600080fd5b60005460a060020a900460ff161515612de357600080fd5b601a54600160a060020a03166370a082313060006040516020015260405160e060020a63ffffffff8416028152600160a060020a039091166004820152602401602060405180830381600087803b1515612e3c57600080fd5b6102c65a03f11515612e4d57600080fd5b505050604051805160085550565b600d5481565b600f5481565b600080808080808060175460ff166002811115612e8057fe5b14612e8a57600080fd5b60005460a060020a900460ff1615612ea157600080fd5b60005460a860020a900460ff1615612eb857600080fd5b6000805460a860020a60ff02191660a860020a178155601a54600160a060020a03308181163197509116916370a0823191906040516020015260405160e060020a63ffffffff8416028152600160a060020a039091166004820152602401602060405180830381600087803b1515612f2f57600080fd5b6102c65a03f11515612f4057600080fd5b5050506040518051601a54909450612f739150600080516020614cc9833981519152903490600160a060020a03166141d0565b50612f8e84600160a060020a0330163163ffffffff6144e816565b9450612fa0348663ffffffff6144e816565b91506000821115612fdc57600160a060020a03331682156108fc0283604051600060405180830381858888f193505050501515612fdc57600080fd5b601a5461303b908490600160a060020a03166370a082313060006040516020015260405160e060020a63ffffffff8416028152600160a060020a039091166004820152602401602060405180830381600087803b1515610d9357600080fd5b601854909650600160a060020a03166318160ddd6000604051602001526040518163ffffffff1660e060020a028152600401602060405180830381600087803b151561308657600080fd5b6102c65a03f1151561309757600080fd5b5050506040518051159050806130ad5750600854155b1561313257601854600160a060020a03166340c10f19338860006040516020015260405160e060020a63ffffffff8516028152600160a060020a0390921660048301526024820152604401602060405180830381600087803b151561311157600080fd5b6102c65a03f1151561312257600080fd5b505050604051805190505061321f565b601854600854600160a060020a03909116906340c10f199033906131b790610f7f856318160ddd6000604051602001526040518163ffffffff1660e060020a028152600401602060405180830381600087803b151561319057600080fd5b6102c65a03f115156131a157600080fd5b50505060405180518d915063ffffffff61451916565b60006040516020015260405160e060020a63ffffffff8516028152600160a060020a0390921660048301526024820152604401602060405180830381600087803b151561320357600080fd5b6102c65a03f1151561321457600080fd5b505050604051805150505b600854613232908763ffffffff6144ff16565b6008556017546101009004600160a060020a03166340c10f19338860006040516020015260405160e060020a63ffffffff8516028152600160a060020a0390921660048301526024820152604401602060405180830381600087803b151561329957600080fd5b6102c65a03f115156132aa57600080fd5b505050604051805190505033600160a060020a03166007547f7ee7a1de9c18ce695c95b8b19fbdf26cce3544e3ca9e08c9f487776783d7599f600080516020614cc9833981519152888a426040518085600160a060020a0316600160a060020a0316815260200184815260200183815260200182815260200194505050505060405180910390a350506000805460a860020a60ff021916905550505050565b600254600160a060020a031681565b600080808060018060175460ff16600281111561337157fe5b1461337b57600080fd5b600160a060020a03871660009081526016602052604081205488919060ff16156133a457600080fd5b600160a060020a038216600080516020614cc9833981519152146134a55750806000600160a060020a0382166318160ddd82604051602001526040518163ffffffff1660e060020a028152600401602060405180830381600087803b151561340b57600080fd5b6102c65a03f1151561341c57600080fd5b5050506040518051905011151561343257600080fd5b600b81600160a060020a031663313ce5676000604051602001526040518163ffffffff1660e060020a028152600401602060405180830381600087803b151561347a57600080fd5b6102c65a03f1151561348b57600080fd5b5050506040518051905060ff16101515156134a557600080fd5b60005460a060020a900460ff16156134bc57600080fd5b60005460a860020a900460ff16156134d357600080fd5b6000805460a860020a60ff02191660a860020a1781556017548a9850600160a060020a036101009091041690632bee7bde9033908b906040516020015260405160e060020a63ffffffff8516028152600160a060020a0390921660048301526024820152604401602060405180830381600087803b151561355357600080fd5b6102c65a03f1151561356457600080fd5b50505060405180519050151561357957600080fd5b600160a060020a03331660009081526015602052604090208054600181016135a18382614c2a565b9160005260206000209060070201600060e06040519081016040908152600160a060020a038e168252600754602083015281018c90526000606082018190526080820181905260a0820181905260c082015291905081518154600160a060020a031916600160a060020a03919091161781556020820151816001015560408201518160020155606082015181600301556080820151816004015560a0820151816005015560c0820151600691909101805460ff19169115159190911790555061366c90508730614913565b601a54909650600160a060020a03166370a082313060006040516020015260405160e060020a63ffffffff8416028152600160a060020a039091166004820152602401602060405180830381600087803b15156136c857600080fd5b6102c65a03f115156136d957600080fd5b5050506040518051905094506136ff60016136f333612495565b9063ffffffff6144e816565b935061370c8460016149bd565b61371a866136f38930614913565b600160a060020a033316600090815260156020526040902080548690811061373e57fe5b90600052602060002090600702016003018190555033600160a060020a03166007547f889f8b8332780d1527bc9c13329f57e4eeac4aa8255a0e7d6af5ef7a8643018161378f60016136f333612495565b600160a060020a033316600090815260156020526040902080548e918e918b9081106137b757fe5b60009182526020822060046007909202010154601a54909161385191600160a060020a0316906370a082319030906040516020015260405160e060020a63ffffffff8416028152600160a060020a039091166004820152602401602060405180830381600087803b151561382a57600080fd5b6102c65a03f1151561383b57600080fd5b50505060405180518e915063ffffffff6144e816565b604051948552600160a060020a0390931660208501526040808501929092526060840152608083019190915260a0909101905180910390a350506000805460a860020a60ff021916905550505050505050565b6000805460a060020a900460ff1615156138bd57600080fd5b60105460ff1615156138ce57600080fd5b6018546139bd90600160a060020a03166318160ddd6000604051602001526040518163ffffffff1660e060020a028152600401602060405180830381600087803b151561391a57600080fd5b6102c65a03f1151561392b57600080fd5b5050506040518051600854601854919250610f7f91600160a060020a03166370a082313360006040516020015260405160e060020a63ffffffff8416028152600160a060020a039091166004820152602401602060405180830381600087803b151561399657600080fd5b6102c65a03f115156139a757600080fd5b505050604051805191905063ffffffff61451916565b601854909150600160a060020a031663c000178633826370a082318260006040516020015260405160e060020a63ffffffff8416028152600160a060020a039091166004820152602401602060405180830381600087803b1515613a2057600080fd5b6102c65a03f11515613a3157600080fd5b5050506040518051905060006040516020015260405160e060020a63ffffffff8516028152600160a060020a0390921660048301526024820152604401602060405180830381600087803b1515613a8757600080fd5b6102c65a03f11515613a9857600080fd5b50505060405180515050600854613ab5908263ffffffff6144e816565b600855601a54600160a060020a031663a9059cbb338360006040516020015260405160e060020a63ffffffff8516028152600160a060020a0390921660048301526024820152604401602060405180830381600087803b1515613b1757600080fd5b6102c65a03f11515613b2857600080fd5b50505060405180515050600754600554600160a060020a0333811692917fae96a66bcd5a00556ad548b9a949f8f45220d5859c013e5cedbddd6af8cf7b9d91168480426040518085600160a060020a0316600160a060020a0316815260200184815260200183815260200182815260200194505050505060405180910390a350565b600654600160a060020a031681565b600154600160a060020a031681565b600080808060018060175460ff166002811115613be157fe5b14613beb57600080fd5b60005460a060020a900460ff1615613c0257600080fd5b60005460a860020a900460ff1615613c1957600080fd5b6000805460a860020a60ff02191660a860020a178155600160a060020a0333168152601560205260409020805487908110613c5057fe5b9060005260206000209060070201945060008560040154111515613c7357600080fd5b600754600186015414613c8557600080fd5b600685015460ff1615613c9757600080fd5b60068501805460ff19166001179055601a54600160a060020a03166370a082313060006040516020015260405160e060020a63ffffffff8416028152600160a060020a039091166004820152602401602060405180830381600087803b1515613cff57600080fd5b6102c65a03f11515613d1057600080fd5b505050604051805190509350613d278660006149bd565b613d4e8560040154610f7f670de0b6b3a7640000886005015461451990919063ffffffff16565b9250613d73670de0b6b3a7640000610f7f85886002015461451990919063ffffffff16565b91508460020154821115613eaa57601760019054906101000a9004600160a060020a0316600160a060020a031663a9059cbb33876002015460006040516020015260405160e060020a63ffffffff8516028152600160a060020a0390921660048301526024820152604401602060405180830381600087803b1515613df757600080fd5b6102c65a03f11515613e0857600080fd5b505050604051805150506017546002860154610100909104600160a060020a0316906340c10f19903390613e3d9086906144e8565b60006040516020015260405160e060020a63ffffffff8516028152600160a060020a0390921660048301526024820152604401602060405180830381600087803b1515613e8957600080fd5b6102c65a03f11515613e9a57600080fd5b5050506040518051905050613fb6565b6017546101009004600160a060020a031663a9059cbb338460006040516020015260405160e060020a63ffffffff8516028152600160a060020a0390921660048301526024820152604401602060405180830381600087803b1515613f0e57600080fd5b6102c65a03f11515613f1f57600080fd5b505050604051805150506017546002860154610100909104600160a060020a0316906349f9f4d090613f5190856144e8565b60006040516020015260405160e060020a63ffffffff84160281526004810191909152602401602060405180830381600087803b1515613f9057600080fd5b6102c65a03f11515613fa157600080fd5b505050604051805190501515613fb657600080fd5b6007546005860154601a54600160a060020a0333811693927f7d92f4f6fffc42160fd0d9f56281733529e476a2c89c29c0a6fa0878cd85a9af928b92889291614049918c91166370a082313060006040516020015260405160e060020a63ffffffff8416028152600160a060020a039091166004820152602401602060405180830381600087803b1515610d9357600080fd5b6040518085815260200184815260200183815260200182815260200194505050505060405180910390a350506000805460a860020a60ff021916905550505050565b60005433600160a060020a039081169116146140a657600080fd5b60005460a060020a900460ff1615156140be57600080fd5b600160a060020a03811615156140d357600080fd5b6017546101009004600160a060020a031663f2fde38b8260405160e060020a63ffffffff8416028152600160a060020a039091166004820152602401600060405180830381600087803b151561412857600080fd5b6102c65a03f11515610ac557600080fd5b60005433600160a060020a0390811691161461415457600080fd5b600160a060020a038116151561416957600080fd5b600054600160a060020a0380831691167f8be0079c531659141344cd1fd0a4f28419497f9722a3daafe3b4186f6b6457e060405160405180910390a360008054600160a060020a031916600160a060020a0392909216919091179055565b60175460ff1681565b6000808080600160a060020a0387811690861614156141ee57600080fd5b6141f88730614913565b9150600160a060020a038716600080516020614cc98339815191521461431d5750600354600090600160a060020a038089169163095ea7b3911683806040516020015260405160e060020a63ffffffff8516028152600160a060020a0390921660048301526024820152604401602060405180830381600087803b151561427e57600080fd5b6102c65a03f1151561428f57600080fd5b50505060405180515050600354600160a060020a038089169163095ea7b391168860006040516020015260405160e060020a63ffffffff8516028152600160a060020a0390921660048301526024820152604401602060405180830381600087803b15156142fc57600080fd5b6102c65a03f1151561430d57600080fd5b5050506040518051905050614320565b50845b601954600160a060020a031663cb3c28c782898989306b204fce5e3e2502611000000060016000806040516020015260405160e060020a63ffffffff8b16028152600160a060020a039788166004820152602481019690965293861660448601529185166064850152608484015260a483015290911660c482015260e4016020604051808303818588803b15156143b657600080fd5b6125ee5a03f115156143c757600080fd5b505050506040518051935050600083116143e057600080fd5b600160a060020a038716600080516020614cc98339815191521461447d57600354600160a060020a038089169163095ea7b391166000806040516020015260405160e060020a63ffffffff8516028152600160a060020a0390921660048301526024820152604401602060405180830381600087803b151561446157600080fd5b6102c65a03f1151561447257600080fd5b505050604051805150505b6144dd61449c61448c89614af1565b8590600a0a63ffffffff61451916565b610f7f6144a888614af1565b600a0a6144d1670de0b6b3a76400006144d16144c48e30614913565b899063ffffffff6144e816565b9063ffffffff61451916565b979650505050505050565b6000828211156144f457fe5b508082035b92915050565b60008282018381101561450e57fe5b8091505b5092915050565b60008083151561452c5760009150614512565b5082820282848281151561453c57fe5b041461450e57fe5b600080828481151561455257fe5b04949350505050565b600854601a546000918291829190600160a060020a03166370a0823130846040516020015260405160e060020a63ffffffff8416028152600160a060020a039091166004820152602401602060405180830381600087803b15156145be57600080fd5b6102c65a03f115156145cf57600080fd5b50505060405180519050111561464357600854601a546146409190600160a060020a03166370a082313060006040516020015260405160e060020a63ffffffff8416028152600160a060020a039091166004820152602401602060405180830381600087803b1515610d9357600080fd5b92505b614664670de0b6b3a7640000610f7f85600a5461451990919063ffffffff16565b600f55601a5461470e906146ff90670de0b6b3a764000090610f7f90600160a060020a03166370a082313060006040516020015260405160e060020a63ffffffff8416028152600160a060020a039091166004820152602401602060405180830381600087803b15156146d657600080fd5b6102c65a03f115156146e757600080fd5b5050506040518051600b54915063ffffffff61451916565b600f549063ffffffff6144ff16565b600f55601a546147a590670de0b6b3a764000090610f7f90600160a060020a03166370a082313060006040516020015260405160e060020a63ffffffff8416028152600160a060020a039091166004820152602401602060405180830381600087803b151561477c57600080fd5b6102c65a03f1151561478d57600080fd5b5050506040518051600c54915063ffffffff61451916565b600f54601a5491935061480e9184916136f391600160a060020a03166370a082313060006040516020015260405160e060020a63ffffffff8416028152600160a060020a039091166004820152602401602060405180830381600087803b1515610d9357600080fd5b90506007547f13a18edb371d0a74be72de10b678893b96bc8a47e776bb122c59e21d53956fbd6008548360405191825260208201526040908101905180910390a26008819055601a54600454600160a060020a039182169163a9059cbb91168460006040516020015260405160e060020a63ffffffff8516028152600160a060020a0390921660048301526024820152604401602060405180830381600087803b15156148ba57600080fd5b6102c65a03f115156148cb57600080fd5b50505060405180519050506007547f2f7da09d276ad6237b75476b806f4d8388b9228bd6fa45a7ca214fac5abdf7a3600f5460405190815260200160405180910390a2505050565b6000600160a060020a038316600080516020614cc983398151915214156149455750600160a060020a038116316144f9565b82600160a060020a03166370a082318360006040516020015260405160e060020a63ffffffff8416028152600160a060020a039091166004820152602401602060405180830381600087803b151561499c57600080fd5b6102c65a03f115156149ad57600080fd5b5050506040518051949350505050565b600160a060020a0333166000908152601560205260408120805482918291869081106149e557fe5b906000526020600020906007020192508315614a8757601754614a80906101009004600160a060020a03166318160ddd6000604051602001526040518163ffffffff1660e060020a028152600401602060405180830381600087803b1515614a4c57600080fd5b6102c65a03f11515614a5d57600080fd5b50505060405180519050610f7f856002015460085461451990919063ffffffff16565b9150614a8f565b826003015491505b508154600160a060020a03168315614ac257601a54614ab890600160a060020a031683836141d0565b6004840155614aea565b601a54614ae490614adf9083908590600160a060020a03166141d0565b614b83565b60058401555b5050505050565b6000600160a060020a038216600080516020614cc98339815191521415614b1a575060126124af565b81600160a060020a031663313ce5676000604051602001526040518163ffffffff1660e060020a028152600401602060405180830381600087803b1515614b6057600080fd5b6102c65a03f11515614b7157600080fd5b505050604051805160ff169392505050565b60006144f982610f7f670de0b6b3a76400008063ffffffff61451916565b5080546000825560070290600052602060002090810190614bc29190614c5b565b50565b60606040519081016040526003815b6000815260200190600190039081614bd45790505090565b8260038101928215614c1a579160200282015b82811115614c1a578251825591602001919060010190614bff565b50614c26929150614cae565b5090565b815481835581811511614c5657600702816007028360005260206000209182019101614c569190614c5b565b505050565b6123e291905b80821115614c26578054600160a060020a0319168155600060018201819055600282018190556003820181905560048201819055600582015560068101805460ff19169055600701614c61565b6123e291905b80821115614c265760008155600101614cb45600000000000000000000000000eeeeeeeeeeeeeeeeeeeeeeeeeeeeeeeeeeeeeeeea165627a7a7230582035e8199661a27dc3d57d4e81c3b89efc5ffde39ee17112569f48f2bd7da0bf620029",
  "source": "pragma solidity ^0.4.18;\r\n\r\nimport 'zeppelin-solidity/contracts/math/SafeMath.sol';\r\nimport 'zeppelin-solidity/contracts/lifecycle/Pausable.sol';\r\nimport 'zeppelin-solidity/contracts/ReentrancyGuard.sol';\r\nimport './ControlToken.sol';\r\nimport './ShareToken.sol';\r\nimport './KyberNetwork.sol';\r\nimport './Utils.sol';\r\n\r\n/**\r\n * @title The main smart contract of the Betoken hedge fund.\r\n * @author Zefram Lou (Zebang Liu)\r\n * @dev Need to remove Kairo minting before release\r\n */\r\ncontract BetokenFund is Pausable, Utils, ReentrancyGuard {\r\n  using SafeMath for uint256;\r\n\r\n  enum CyclePhase { DepositWithdraw, MakeDecisions, RedeemCommission }\r\n\r\n  struct Investment {\r\n    address tokenAddress;\r\n    uint256 cycleNumber;\r\n    uint256 stake;\r\n    uint256 tokenAmount;\r\n    uint256 buyPrice;\r\n    uint256 sellPrice;\r\n    bool isSold;\r\n  }\r\n\r\n  /**\r\n   * @notice Executes function only during the given cycle phase.\r\n   * @param phase the cycle phase during which the function may be called\r\n   */\r\n  modifier during(CyclePhase phase) {\r\n    require(cyclePhase == phase);\r\n    _;\r\n  }\r\n\r\n  /**\r\n   * @notice Checks if `token` is a valid token.\r\n   * @param token the token's address\r\n   */\r\n  modifier isValidToken(address token) {\r\n    require(!isMaliciousCoin[token]);\r\n    if (token != address(ETH_TOKEN_ADDRESS)) {\r\n      DetailedERC20 _token = DetailedERC20(token);\r\n      require(_token.totalSupply() > 0);\r\n      require(_token.decimals() >= MIN_DECIMALS);\r\n    }\r\n    _;\r\n  }\r\n\r\n  // Address of the control token contract.\r\n  address public controlTokenAddr;\r\n\r\n  // Address of the share token contract.\r\n  address public shareTokenAddr;\r\n\r\n  // Address of the KyberNetwork contract\r\n  address public kyberAddr;\r\n\r\n  // Address to which the developer fees will be paid.\r\n  address public developerFeeAccount;\r\n\r\n  // Address of the DAI stable-coin contract.\r\n  address public daiAddr;\r\n\r\n  // Address of the previous version of BetokenFund.\r\n  address public previousVersion;\r\n\r\n  // The number of the current investment cycle.\r\n  uint256 public cycleNumber;\r\n\r\n  // The amount of funds held by the fund.\r\n  uint256 public totalFundsInDAI;\r\n\r\n  // The start time for the current investment cycle phase, in seconds since Unix epoch.\r\n  uint256 public startTimeOfCyclePhase;\r\n\r\n  // The proportion of the fund that gets distributed to Kairo holders every cycle. Fixed point decimal.\r\n  uint256 public commissionRate;\r\n\r\n  // The proportion of contract balance that gets distributed to Kairo holders every cycle. Fixed point decimal.\r\n  uint256 public assetFeeRate;\r\n\r\n  // The proportion of contract balance that goes the the devs every cycle. Fixed point decimal.\r\n  uint256 public developerFeeRate;\r\n\r\n  // The proportion of funds that goes the the devs during withdrawals. Fixed point decimal.\r\n  uint256 public exitFeeRate;\r\n\r\n  // Amount of Kairo rewarded to the user who calls a phase transition/investment handling function\r\n  uint256 public functionCallReward;\r\n\r\n  // Amount of commission to be paid out this cycle\r\n  uint256 public totalCommission;\r\n\r\n  // Flag for whether emergency withdrawing is allowed.\r\n  bool public allowEmergencyWithdraw;\r\n\r\n  // Stores the lengths of each cycle phase in seconds.\r\n  uint256[3] phaseLengths;\r\n\r\n  // The last cycle where a user redeemed commission.\r\n  mapping(address => uint256) public lastCommissionRedemption;\r\n\r\n  // List of investments in the current cycle.\r\n  mapping(address => Investment[]) public userInvestments;\r\n\r\n  // Records if a token's contract maliciously treats the BetokenFund differently when calling transfer(), transferFrom(), or approve().\r\n  mapping(address => bool) public isMaliciousCoin;\r\n\r\n  // The current cycle phase.\r\n  CyclePhase public cyclePhase;\r\n\r\n  // Contract instances\r\n  ControlToken internal cToken;\r\n  ShareToken internal sToken;\r\n  KyberNetwork internal kyber;\r\n  DetailedERC20 internal dai;\r\n\r\n  event ChangedPhase(uint256 indexed _cycleNumber, uint256 indexed _newPhase, uint256 _timestamp);\r\n\r\n  event Deposit(uint256 indexed _cycleNumber, address indexed _sender, address _tokenAddress, uint256 _tokenAmount, uint256 _daiAmount, uint256 _timestamp);\r\n  event Withdraw(uint256 indexed _cycleNumber, address indexed _sender, address _tokenAddress, uint256 _tokenAmount, uint256 daiAmount, uint256 _timestamp);\r\n\r\n  event CreatedInvestment(uint256 indexed _cycleNumber, address indexed _sender, uint256 _id, address _tokenAddress, uint256 _stakeInWeis, uint256 _buyPrice, uint256 _costDAIAmount);\r\n  event SoldInvestment(uint256 indexed _cycleNumber, address indexed _sender, uint256 _investmentId, uint256 _receivedKairos, uint256 _sellPrice, uint256 _earnedDAIAmount);\r\n\r\n  event ROI(uint256 indexed _cycleNumber, uint256 _beforeTotalFunds, uint256 _afterTotalFunds);\r\n  event CommissionPaid(uint256 indexed _cycleNumber, address indexed _sender, uint256 _commission);\r\n  event TotalCommissionPaid(uint256 indexed _cycleNumber, uint256 _totalCommissionInWeis);\r\n\r\n  /**\r\n   * Contract initialization functions\r\n   */\r\n\r\n  // Constructor\r\n  function BetokenFund(\r\n    address _cTokenAddr,\r\n    address _sTokenAddr,\r\n    address _kyberAddr,\r\n    address _daiAddr,\r\n    address _developerFeeAccount,\r\n    uint256[3] _phaseLengths,\r\n    uint256 _commissionRate,\r\n    uint256 _assetFeeRate,\r\n    uint256 _developerFeeRate,\r\n    uint256 _exitFeeRate,\r\n    uint256 _functionCallReward,\r\n    address _previousVersion\r\n  )\r\n    public\r\n  {\r\n    require(_commissionRate.add(_developerFeeRate) < 10**18);\r\n\r\n    controlTokenAddr = _cTokenAddr;\r\n    shareTokenAddr = _sTokenAddr;\r\n    kyberAddr = _kyberAddr;\r\n    daiAddr = _daiAddr;\r\n    cToken = ControlToken(_cTokenAddr);\r\n    sToken = ShareToken(_sTokenAddr);\r\n    kyber = KyberNetwork(_kyberAddr);\r\n    dai = DetailedERC20(_daiAddr);\r\n\r\n    developerFeeAccount = _developerFeeAccount;\r\n    phaseLengths = _phaseLengths;\r\n    commissionRate = _commissionRate;\r\n    assetFeeRate = _assetFeeRate;\r\n    developerFeeRate = _developerFeeRate;\r\n    exitFeeRate = _exitFeeRate;\r\n    startTimeOfCyclePhase = 0;\r\n    cyclePhase = CyclePhase.RedeemCommission;\r\n    functionCallReward = _functionCallReward;\r\n    previousVersion = _previousVersion;\r\n    allowEmergencyWithdraw = false;\r\n  }\r\n\r\n  /**\r\n   * Getters\r\n   */\r\n\r\n  /**\r\n   * @notice Returns the length of the user's investments array.\r\n   * @return length of the user's investments array\r\n   */\r\n  function investmentsCount(address _userAddr) public view returns(uint256 _count) {\r\n    return userInvestments[_userAddr].length;\r\n  }\r\n\r\n  /**\r\n   * @notice Returns the phaseLengths array.\r\n   * @return the phaseLengths array\r\n   */\r\n  function getPhaseLengths() public view returns(uint256[3] _phaseLengths) {\r\n    return phaseLengths;\r\n  }\r\n\r\n  /**\r\n   * Meta functions\r\n   */\r\n\r\n  /**\r\n   * Emergency functions\r\n   */\r\n\r\n  /**\r\n   * @notice Sells token in emergency situations. Only callable by owner.\r\n   * @param _tokenAddr the address of the token to be sold\r\n   */\r\n  function emergencyDumpToken(address _tokenAddr)\r\n    public\r\n    onlyOwner\r\n    during(CyclePhase.RedeemCommission)\r\n    whenPaused\r\n  {\r\n    DetailedERC20 token = DetailedERC20(_tokenAddr);\r\n    __kyberTrade(token, token.balanceOf(this), dai);\r\n  }\r\n\r\n  /**\r\n   * @notice Return staked Kairos for a investment under emergency situations. Should be called by users.\r\n   * @param _investmentId the ID of the investment\r\n   */\r\n  function emergencyRedeemStake(uint256 _investmentId) whenPaused public {\r\n    require(allowEmergencyWithdraw);\r\n    Investment storage investment = userInvestments[msg.sender][_investmentId];\r\n    require(investment.cycleNumber == cycleNumber);\r\n    uint256 stake = investment.stake;\r\n    require(stake > 0);\r\n    delete investment.stake;\r\n    cToken.transfer(msg.sender, stake);\r\n  }\r\n\r\n  /**\r\n   * @notice Updates the current fund balance. Only callable by owner.\r\n   */\r\n  function emergencyUpdateBalance() onlyOwner whenPaused public {\r\n    totalFundsInDAI = dai.balanceOf(this);\r\n  }\r\n\r\n  /**\r\n   * @notice Changes whether emergency withdrawals are allowed. Only callable by owner.\r\n   * @param _newVal the new value\r\n   */\r\n  function setAllowEmergencyWithdraw(bool _newVal) onlyOwner whenPaused public {\r\n    allowEmergencyWithdraw = _newVal;\r\n  }\r\n\r\n  /**\r\n   * @notice Function for withdrawing all funds in times of emergency. Only callable when fund is paused and allowEmergencyWithdraw is true.\r\n   */\r\n  function emergencyWithdraw()\r\n    public\r\n    whenPaused\r\n  {\r\n    require(allowEmergencyWithdraw);\r\n\r\n    uint256 amountInDAI = sToken.balanceOf(msg.sender).mul(totalFundsInDAI).div(sToken.totalSupply());\r\n    sToken.ownerBurn(msg.sender, sToken.balanceOf(msg.sender));\r\n    totalFundsInDAI = totalFundsInDAI.sub(amountInDAI);\r\n\r\n    // Transfer\r\n    dai.transfer(msg.sender, amountInDAI);\r\n\r\n    // Emit event\r\n    Withdraw(cycleNumber, msg.sender, daiAddr, amountInDAI, amountInDAI, now);\r\n  }\r\n\r\n  /**\r\n   * Parameter setters\r\n   */\r\n\r\n  /**\r\n   * @notice Changes the address of the KyberNetwork contract used in the contract. Only callable by owner.\r\n   * @param _newAddr the new address of KyberNetwork contract\r\n   */\r\n  function changeKyberNetworkAddress(address _newAddr) public onlyOwner whenPaused {\r\n    require(_newAddr != address(0));\r\n    kyberAddr = _newAddr;\r\n    kyber = KyberNetwork(_newAddr);\r\n  }\r\n\r\n  /**\r\n   * @notice Changes the address to which the developer fees will be sent. Only callable by owner.\r\n   * @param _newAddr the new developer fee address\r\n   */\r\n  function changeDeveloperFeeAccount(address _newAddr) public onlyOwner {\r\n    require(_newAddr != address(0));\r\n    developerFeeAccount = _newAddr;\r\n  }\r\n\r\n  /**\r\n  * @notice Changes the address of the DAI token smart contract. Only callable by owner.\r\n  * @param _newAddr the new DAI smart contract address\r\n  */\r\n  function changeDAIAddress(address _newAddr) public onlyOwner whenPaused {\r\n    require(_newAddr != address(0));\r\n    daiAddr = _newAddr;\r\n    dai = DetailedERC20(_newAddr);\r\n  }\r\n\r\n  /**\r\n   * @notice Changes the proportion of profits given to Kairo holders each cycle. Only callable by owner.\r\n   * @param _newProp the new proportion, fixed point decimal\r\n   */\r\n  function changeCommissionRate(uint256 _newProp) public onlyOwner {\r\n    commissionRate = _newProp;\r\n  }\r\n\r\n  /**\r\n  * @notice Changes the proportion of fund balance given to Kairo holders each cycle. Only callable by owner.\r\n  * @param _newProp the new proportion, fixed point decimal\r\n  */\r\n  function changeAssetFeeRate(uint256 _newProp) public onlyOwner {\r\n    assetFeeRate = _newProp;\r\n  }\r\n\r\n  /**\r\n   * @notice Changes the proportion of fund balance sent to the developers each cycle. May only decrease. Only callable by owner.\r\n   * @param _newProp the new proportion, fixed point decimal\r\n   */\r\n  function changeDeveloperFeeProportion(uint256 _newProp) public onlyOwner {\r\n    require(_newProp < developerFeeRate);\r\n    developerFeeRate = _newProp;\r\n  }\r\n\r\n  /**\r\n   * @notice Changes exit fee rate. May only decrease. Only callable by owner.\r\n   * @param _newProp the new proportion, fixed point decimal\r\n   */\r\n  function changeExitFeeRate(uint256 _newProp) public onlyOwner {\r\n    require(_newProp < exitFeeRate);\r\n    exitFeeRate = _newProp;\r\n  }\r\n\r\n  /**\r\n   * @notice Changes the amount of Kairo rewarded to whomever calls nextPhase() the first. Only callable by owner.\r\n   * @param _newVal the new reward value in Kairo, 18 decimals\r\n   */\r\n  function changeCallReward(uint256 _newVal) public onlyOwner {\r\n    functionCallReward = _newVal;\r\n  }\r\n\r\n  /**\r\n   * @notice Changes the lengths of the phases in an investment cycle. Only callable by owner.\r\n   * @param _newVal the new set of phase lengths, in the order of DepositWithdraw, MakeDecisions, RedeemCommission, in seconds\r\n   */\r\n  function changePhaseLengths(uint256[3] _newVal) public onlyOwner {\r\n    phaseLengths = _newVal;\r\n  }\r\n\r\n  /**\r\n   * @notice Changes the owner of the ControlToken contract. Only callable by owner.\r\n   * @param  _newOwner the new owner address\r\n   */\r\n  function changeControlTokenOwner(address _newOwner) public onlyOwner whenPaused {\r\n    require(_newOwner != address(0));\r\n    cToken.transferOwnership(_newOwner);\r\n  }\r\n\r\n  /**\r\n   * @notice Changes the maliciousness status of a token. Only callable by owner.\r\n   * @param _coin the token's address\r\n   * @param _status the new maliciousness status\r\n   */\r\n  function setMaliciousCoinStatus(address _coin, bool _status) public onlyOwner {\r\n    require(_coin != address(0));\r\n    isMaliciousCoin[_coin] = _status;\r\n  }\r\n\r\n\r\n  /**\r\n   * @notice Moves the fund to the next phase in the investment cycle.\r\n   */\r\n  function nextPhase()\r\n    public\r\n    whenNotPaused\r\n  {\r\n    require(now >= startTimeOfCyclePhase.add(phaseLengths[uint(cyclePhase)]));\r\n\r\n    if (cyclePhase == CyclePhase.RedeemCommission) {\r\n      // Start new cycle\r\n      if (cycleNumber == 0) {\r\n        require(msg.sender == owner);\r\n      }\r\n\r\n      cycleNumber = cycleNumber.add(1);\r\n\r\n      if (cToken.paused()) {\r\n        cToken.unpause();\r\n      }\r\n    } else if (cyclePhase == CyclePhase.MakeDecisions) {\r\n      // Burn any Kairo left in BetokenFund's account\r\n      require(cToken.burnOwnerBalance());\r\n\r\n      cToken.pause();\r\n      __distributeFundsAfterCycleEnd();\r\n    }\r\n\r\n    cyclePhase = CyclePhase(addmod(uint(cyclePhase), 1, 3));\r\n    startTimeOfCyclePhase = now;\r\n\r\n    // Reward caller\r\n    cToken.mint(msg.sender, functionCallReward);\r\n\r\n    ChangedPhase(cycleNumber, uint(cyclePhase), now);\r\n  }\r\n\r\n  /**\r\n   * DepositWithdraw phase functions\r\n   */\r\n\r\n  /**\r\n   * @notice Deposit Ether into the fund. Ether will be converted into DAI.\r\n   */\r\n  function deposit()\r\n    public\r\n    payable\r\n    during(CyclePhase.DepositWithdraw)\r\n    whenNotPaused\r\n    nonReentrant\r\n  {\r\n    // Buy DAI with ETH\r\n    uint256 actualDAIDeposited;\r\n    uint256 actualETHDeposited;\r\n    uint256 beforeETHBalance = this.balance;\r\n    uint256 beforeDAIBalance = dai.balanceOf(this);\r\n    __kyberTrade(ETH_TOKEN_ADDRESS, msg.value, dai);\r\n    actualETHDeposited = beforeETHBalance.sub(this.balance);\r\n    uint256 leftOverETH = msg.value.sub(actualETHDeposited);\r\n    if (leftOverETH > 0) {\r\n      msg.sender.transfer(leftOverETH);\r\n    }\r\n    actualDAIDeposited = dai.balanceOf(this).sub(beforeDAIBalance);\r\n\r\n    // Register investment\r\n    if (sToken.totalSupply() == 0 || totalFundsInDAI == 0) {\r\n      sToken.mint(msg.sender, actualDAIDeposited);\r\n    } else {\r\n      sToken.mint(msg.sender, actualDAIDeposited.mul(sToken.totalSupply()).div(totalFundsInDAI));\r\n    }\r\n    totalFundsInDAI = totalFundsInDAI.add(actualDAIDeposited);\r\n\r\n    // Only for test version. Remove for release.\r\n    cToken.mint(msg.sender, actualDAIDeposited);\r\n\r\n    // Emit event\r\n    Deposit(cycleNumber, msg.sender, ETH_TOKEN_ADDRESS, actualETHDeposited, actualDAIDeposited, now);\r\n  }\r\n\r\n  /**\r\n   * @notice Deposit ERC20 tokens into the fund. Tokens will be converted into DAI.\r\n   * @param _tokenAddr the address of the token to be deposited\r\n   * @param _tokenAmount The amount of tokens to be deposited. May be different from actual deposited amount.\r\n   */\r\n  function depositToken(address _tokenAddr, uint256 _tokenAmount)\r\n    public\r\n    during(CyclePhase.DepositWithdraw)\r\n    isValidToken(_tokenAddr)\r\n    whenNotPaused\r\n    nonReentrant\r\n  {\r\n    DetailedERC20 token = DetailedERC20(_tokenAddr);\r\n\r\n    require(token.transferFrom(msg.sender, this, _tokenAmount));\r\n\r\n    // Convert token into DAI\r\n    uint256 actualDAIDeposited;\r\n    uint256 actualTokenDeposited;\r\n    if (_tokenAddr == daiAddr) {\r\n      actualDAIDeposited = _tokenAmount;\r\n      actualTokenDeposited = _tokenAmount;\r\n    } else {\r\n      // Buy DAI with tokens\r\n      uint256 beforeTokenBalance = token.balanceOf(this);\r\n      uint256 beforeDAIBalance = dai.balanceOf(this);\r\n      __kyberTrade(token, _tokenAmount, dai);\r\n      actualTokenDeposited = beforeTokenBalance.sub(token.balanceOf(this));\r\n      uint256 leftOverTokens = _tokenAmount.sub(actualTokenDeposited);\r\n      if (leftOverTokens > 0) {\r\n        require(token.transfer(msg.sender, leftOverTokens));\r\n      }\r\n      actualDAIDeposited = dai.balanceOf(this).sub(beforeDAIBalance);\r\n      require(actualDAIDeposited > 0);\r\n    }\r\n\r\n    // Register investment\r\n    if (sToken.totalSupply() == 0 || totalFundsInDAI == 0) {\r\n      sToken.mint(msg.sender, actualDAIDeposited);\r\n    } else {\r\n      sToken.mint(msg.sender, actualDAIDeposited.mul(sToken.totalSupply()).div(totalFundsInDAI));\r\n    }\r\n    totalFundsInDAI = totalFundsInDAI.add(actualDAIDeposited);\r\n\r\n    // Only for test version. Remove for release.\r\n    cToken.mint(msg.sender, actualDAIDeposited);\r\n\r\n    // Emit event\r\n    Deposit(cycleNumber, msg.sender, _tokenAddr, actualTokenDeposited, actualDAIDeposited, now);\r\n  }\r\n\r\n  /**\r\n   * @notice Withdraws Ether by burning Shares.\r\n   * @param _amountInDAI Amount of funds to be withdrawn expressed in DAI. Fixed-point decimal. May be different from actual amount.\r\n   */\r\n  function withdraw(uint256 _amountInDAI)\r\n    public\r\n    during(CyclePhase.DepositWithdraw)\r\n    whenNotPaused\r\n    nonReentrant\r\n  {\r\n    // Buy ETH\r\n    uint256 actualETHWithdrawn;\r\n    uint256 actualDAIWithdrawn;\r\n    uint256 beforeETHBalance = this.balance;\r\n    uint256 beforeDaiBalance = dai.balanceOf(this);\r\n    __kyberTrade(dai, _amountInDAI, ETH_TOKEN_ADDRESS);\r\n    actualETHWithdrawn = this.balance.sub(beforeETHBalance);\r\n    actualDAIWithdrawn = beforeDaiBalance.sub(dai.balanceOf(this));\r\n    require(actualDAIWithdrawn > 0);\r\n\r\n    // Burn shares\r\n    sToken.ownerBurn(msg.sender, actualDAIWithdrawn.mul(sToken.totalSupply()).div(totalFundsInDAI));\r\n    totalFundsInDAI = totalFundsInDAI.sub(actualDAIWithdrawn);\r\n\r\n    // Transfer Ether to user\r\n    uint256 exitFee = actualETHWithdrawn.mul(exitFeeRate).div(PRECISION);\r\n    developerFeeAccount.transfer(exitFee);\r\n    actualETHWithdrawn = actualETHWithdrawn.sub(exitFee);\r\n    msg.sender.transfer(actualETHWithdrawn);\r\n\r\n    // Emit event\r\n    Withdraw(cycleNumber, msg.sender, ETH_TOKEN_ADDRESS, actualETHWithdrawn, actualDAIWithdrawn, now);\r\n  }\r\n\r\n  /**\r\n   * @notice Withdraws funds by burning Shares, and converts the funds into the specified token using Kyber Network.\r\n   * @param _tokenAddr the address of the token to be withdrawn into the caller's account\r\n   * @param _amountInDAI The amount of funds to be withdrawn expressed in DAI. Fixed-point decimal. May be different from actual amount.\r\n   */\r\n  function withdrawToken(address _tokenAddr, uint256 _amountInDAI)\r\n    public\r\n    during(CyclePhase.DepositWithdraw)\r\n    isValidToken(_tokenAddr)\r\n    whenNotPaused\r\n    nonReentrant\r\n  {\r\n    DetailedERC20 token = DetailedERC20(_tokenAddr);\r\n\r\n    // Convert DAI into desired tokens\r\n    uint256 actualTokenWithdrawn;\r\n    uint256 actualDAIWithdrawn;\r\n    if (_tokenAddr == daiAddr) {\r\n      actualDAIWithdrawn = _amountInDAI;\r\n      actualTokenWithdrawn = _amountInDAI;\r\n    } else {\r\n      // Buy desired tokens\r\n      uint256 beforeTokenBalance = token.balanceOf(this);\r\n      uint256 beforeDaiBalance = dai.balanceOf(this);\r\n      __kyberTrade(dai, _amountInDAI, token);\r\n      actualTokenWithdrawn = token.balanceOf(this).sub(beforeTokenBalance);\r\n      actualDAIWithdrawn = beforeDaiBalance.sub(dai.balanceOf(this));\r\n      require(actualDAIWithdrawn > 0);\r\n    }\r\n\r\n    // Burn Shares\r\n    sToken.ownerBurn(msg.sender, actualDAIWithdrawn.mul(sToken.totalSupply()).div(totalFundsInDAI));\r\n    totalFundsInDAI = totalFundsInDAI.sub(actualDAIWithdrawn);\r\n\r\n    // Transfer tokens to user\r\n    uint256 exitFee = actualTokenWithdrawn.mul(exitFeeRate).div(PRECISION);\r\n    token.transfer(developerFeeAccount, exitFee);\r\n    actualTokenWithdrawn = actualTokenWithdrawn.sub(exitFee);\r\n    token.transfer(msg.sender, actualTokenWithdrawn);\r\n\r\n    // Emit event\r\n    Withdraw(cycleNumber, msg.sender, _tokenAddr, actualTokenWithdrawn, actualDAIWithdrawn, now);\r\n  }\r\n\r\n  /**\r\n   * MakeDecisions phase functions\r\n   */\r\n\r\n  /**\r\n   * @notice Creates a new investment investment for an ERC20 token.\r\n   * @param _tokenAddress address of the ERC20 token contract\r\n   * @param _stake amount of Kairos to be staked in support of the investment\r\n   */\r\n  function createInvestment(\r\n    address _tokenAddress,\r\n    uint256 _stake\r\n  )\r\n    public\r\n    during(CyclePhase.MakeDecisions)\r\n    isValidToken(_tokenAddress)\r\n    whenNotPaused\r\n    nonReentrant\r\n  {\r\n    DetailedERC20 token = DetailedERC20(_tokenAddress);\r\n\r\n    // Collect stake\r\n    require(cToken.ownerCollectFrom(msg.sender, _stake));\r\n\r\n    // Add investment to list\r\n    userInvestments[msg.sender].push(Investment({\r\n      tokenAddress: _tokenAddress,\r\n      cycleNumber: cycleNumber,\r\n      stake: _stake,\r\n      tokenAmount: 0,\r\n      buyPrice: 0,\r\n      sellPrice: 0,\r\n      isSold: false\r\n    }));\r\n\r\n    // Invest\r\n    uint256 beforeTokenAmount = getBalance(token, this);\r\n    uint256 beforeDAIBalance = dai.balanceOf(this);\r\n    uint256 investmentId = investmentsCount(msg.sender).sub(1);\r\n    __handleInvestment(investmentId, true);\r\n    userInvestments[msg.sender][investmentId].tokenAmount = getBalance(token, this).sub(beforeTokenAmount);\r\n\r\n    // Emit event\r\n    CreatedInvestment(cycleNumber, msg.sender, investmentsCount(msg.sender).sub(1), _tokenAddress, _stake, userInvestments[msg.sender][investmentId].buyPrice, beforeDAIBalance.sub(dai.balanceOf(this)));\r\n  }\r\n\r\n  /**\r\n   * @notice Called by user to sell the assets an investment invested in. Returns the staked Kairo plus rewards/penalties.\r\n   * @param _investmentId the ID of the investment\r\n   */\r\n  function sellInvestmentAsset(uint256 _investmentId)\r\n    public\r\n    during(CyclePhase.MakeDecisions)\r\n    whenNotPaused\r\n    nonReentrant\r\n  {\r\n    Investment storage investment = userInvestments[msg.sender][_investmentId];\r\n    require(investment.buyPrice > 0);\r\n    require(investment.cycleNumber == cycleNumber);\r\n    require(!investment.isSold);\r\n\r\n    investment.isSold = true;\r\n\r\n    // Sell asset\r\n    uint256 beforeDAIBalance = dai.balanceOf(this);\r\n    __handleInvestment(_investmentId, false);\r\n\r\n    // Return Kairo\r\n    uint256 multiplier = investment.sellPrice.mul(PRECISION).div(investment.buyPrice);\r\n    uint256 receiveKairoAmount = investment.stake.mul(multiplier).div(PRECISION);\r\n    if (receiveKairoAmount > investment.stake) {\r\n      cToken.transfer(msg.sender, investment.stake);\r\n      cToken.mint(msg.sender, receiveKairoAmount.sub(investment.stake));\r\n    } else {\r\n      cToken.transfer(msg.sender, receiveKairoAmount);\r\n      require(cToken.burnOwnerTokens(investment.stake.sub(receiveKairoAmount)));\r\n    }\r\n\r\n    // Emit event\r\n    SoldInvestment(cycleNumber, msg.sender, _investmentId, receiveKairoAmount, investment.sellPrice, dai.balanceOf(this).sub(beforeDAIBalance));\r\n  }\r\n\r\n  /**\r\n   * RedeemCommission phase functions\r\n   */\r\n\r\n  /**\r\n   * @notice Redeems commission.\r\n   */\r\n  function redeemCommission()\r\n    public\r\n    during(CyclePhase.RedeemCommission)\r\n    whenNotPaused\r\n    nonReentrant\r\n  {\r\n    require(lastCommissionRedemption[msg.sender] < cycleNumber);\r\n    lastCommissionRedemption[msg.sender] = cycleNumber;\r\n    uint256 commission = totalCommission.mul(cToken.balanceOf(msg.sender)).div(cToken.totalSupply());\r\n    dai.transfer(msg.sender, commission);\r\n\r\n    delete userInvestments[msg.sender];\r\n\r\n    CommissionPaid(cycleNumber, msg.sender, commission);\r\n  }\r\n\r\n  /**\r\n   * @notice Redeems commission in shares.\r\n   */\r\n  function redeemCommissionInShares()\r\n    public\r\n    during(CyclePhase.RedeemCommission)\r\n    whenNotPaused\r\n    nonReentrant\r\n  {\r\n    require(lastCommissionRedemption[msg.sender] < cycleNumber);\r\n    lastCommissionRedemption[msg.sender] = cycleNumber;\r\n    uint256 commission = totalCommission.mul(cToken.balanceOf(msg.sender)).div(cToken.totalSupply());\r\n    sToken.mint(msg.sender, commission.mul(sToken.totalSupply()).div(totalFundsInDAI));\r\n    totalFundsInDAI = totalFundsInDAI.add(commission);\r\n\r\n    delete userInvestments[msg.sender];\r\n\r\n    // Emit event\r\n    Deposit(cycleNumber, msg.sender, daiAddr, commission, commission, now);\r\n    CommissionPaid(cycleNumber, msg.sender, commission);\r\n  }\r\n\r\n  /**\r\n   * @notice Sells tokens left over due to manager not selling or KyberNetwork not having enough demand. Callable by anyone.\r\n   * @param _tokenAddr address of the token to be sold\r\n   */\r\n  function sellLeftoverToken(address _tokenAddr)\r\n    public\r\n    during(CyclePhase.RedeemCommission)\r\n    isValidToken(_tokenAddr)\r\n    whenNotPaused\r\n    nonReentrant\r\n  {\r\n    uint256 beforeBalance = dai.balanceOf(this);\r\n    DetailedERC20 token = DetailedERC20(_tokenAddr);\r\n    __kyberTrade(token, token.balanceOf(this), dai);\r\n    totalFundsInDAI = totalFundsInDAI.add(dai.balanceOf(this).sub(beforeBalance));\r\n  }\r\n\r\n  /**\r\n   * Internal use functions\r\n   */\r\n\r\n  /**\r\n   * @notice Update fund statistics, and pay developer fees.\r\n   */\r\n  function __distributeFundsAfterCycleEnd() internal {\r\n    uint256 profit = 0;\r\n    if (dai.balanceOf(this) > totalFundsInDAI) {\r\n      profit = dai.balanceOf(this).sub(totalFundsInDAI);\r\n    }\r\n    totalCommission = commissionRate.mul(profit).div(PRECISION);\r\n    totalCommission = totalCommission.add(assetFeeRate.mul(dai.balanceOf(this)).div(PRECISION));\r\n    uint256 devFee = developerFeeRate.mul(dai.balanceOf(this)).div(PRECISION);\r\n    uint256 newTotalFunds = dai.balanceOf(this).sub(totalCommission).sub(devFee);\r\n\r\n    // Update values\r\n    ROI(cycleNumber, totalFundsInDAI, newTotalFunds);\r\n    totalFundsInDAI = newTotalFunds;\r\n\r\n    // Transfer fees\r\n    dai.transfer(developerFeeAccount, devFee);\r\n\r\n    // Emit event\r\n    TotalCommissionPaid(cycleNumber, totalCommission);\r\n  }\r\n\r\n  function __handleInvestment(uint256 _investmentId, bool _buy) internal {\r\n    Investment storage investment = userInvestments[msg.sender][_investmentId];\r\n    uint256 srcAmount;\r\n    if (_buy) {\r\n      srcAmount = totalFundsInDAI.mul(investment.stake).div(cToken.totalSupply());\r\n    } else {\r\n      srcAmount = investment.tokenAmount;\r\n    }\r\n    DetailedERC20 token = DetailedERC20(investment.tokenAddress);\r\n    if (_buy) {\r\n      investment.buyPrice = __kyberTrade(dai, srcAmount, token);\r\n    } else {\r\n      investment.sellPrice = invert(__kyberTrade(token, srcAmount, dai));\r\n    }\r\n  }\r\n\r\n  /**\r\n   * @notice Wrapper function for doing token conversion on Kyber Network\r\n   * @param _srcToken the token to convert from\r\n   * @param _srcAmount the amount of tokens to be converted\r\n   * @param _destToken the destination token\r\n   * @return _destPriceInSrc the price of the destination token, in terms of source tokens\r\n   */\r\n  function __kyberTrade(DetailedERC20 _srcToken, uint256 _srcAmount, DetailedERC20 _destToken) internal returns(uint256 _destPriceInSrc) {\r\n    require(_srcToken != _destToken);\r\n    uint256 actualDestAmount;\r\n    uint256 beforeSrcBalance = getBalance(_srcToken, this);\r\n    uint256 msgValue;\r\n\r\n    if (_srcToken != ETH_TOKEN_ADDRESS) {\r\n      msgValue = 0;\r\n      _srcToken.approve(kyberAddr, 0);\r\n      _srcToken.approve(kyberAddr, _srcAmount);\r\n    } else {\r\n      msgValue = _srcAmount;\r\n    }\r\n    actualDestAmount = kyber.trade.value(msgValue)(\r\n      _srcToken,\r\n      _srcAmount,\r\n      _destToken,\r\n      this,\r\n      MAX_QTY,\r\n      1,\r\n      0\r\n    );\r\n    require(actualDestAmount > 0);\r\n    if (_srcToken != ETH_TOKEN_ADDRESS) {\r\n      _srcToken.approve(kyberAddr, 0);\r\n    }\r\n\r\n    _destPriceInSrc = beforeSrcBalance.sub(getBalance(_srcToken, this)).mul(PRECISION).mul(10**getDecimals(_destToken)).div(actualDestAmount.mul(10**getDecimals(_srcToken)));\r\n  }\r\n\r\n  function() public payable {\r\n    if (msg.sender != kyberAddr) {\r\n      revert();\r\n    }\r\n  }\r\n}",
  "sourcePath": "D:\\msi-cn\\Documents\\GitHub\\betoken\\eth\\contracts\\BetokenFund.sol",
  "compiler": {
    "name": "solc",
    "version": "0.4.19+commit.c4cbbb05.Emscripten.clang"
  },
  "schemaVersion": "2.0.0",
  "updatedAt": "2018-05-12T07:01:50.001Z"
}