{
  "contractName": "BetokenFund",
  "abi": [
    {
      "constant": true,
      "inputs": [
        {
          "name": "",
          "type": "uint256"
        }
      ],
      "name": "proposals",
      "outputs": [
        {
          "name": "tokenAddress",
          "type": "address"
        },
        {
          "name": "cycleNumber",
          "type": "uint256"
        },
        {
          "name": "buyPriceInWeis",
          "type": "uint256"
        },
        {
          "name": "sellPriceInWeis",
          "type": "uint256"
        },
        {
          "name": "numFor",
          "type": "uint256"
        },
        {
          "name": "numAgainst",
          "type": "uint256"
        },
        {
          "name": "isSold",
          "type": "bool"
        }
      ],
      "payable": false,
      "stateMutability": "view",
      "type": "function"
    },
    {
      "constant": true,
      "inputs": [
        {
          "name": "",
          "type": "uint256"
        },
        {
          "name": "",
          "type": "address"
        }
      ],
      "name": "forStakedControlOfProposalOfUser",
      "outputs": [
        {
          "name": "",
          "type": "uint256"
        }
      ],
      "payable": false,
      "stateMutability": "view",
      "type": "function"
    },
    {
      "constant": true,
      "inputs": [],
      "name": "allowEmergencyWithdraw",
      "outputs": [
        {
          "name": "",
          "type": "bool"
        }
      ],
      "payable": false,
      "stateMutability": "view",
      "type": "function"
    },
    {
      "constant": true,
      "inputs": [],
      "name": "developerFeeAccount",
      "outputs": [
        {
          "name": "",
          "type": "address"
        }
      ],
      "payable": false,
      "stateMutability": "view",
      "type": "function"
    },
    {
      "constant": true,
      "inputs": [],
      "name": "minStakeProportion",
      "outputs": [
        {
          "name": "",
          "type": "uint256"
        }
      ],
      "payable": false,
      "stateMutability": "view",
      "type": "function"
    },
    {
      "constant": true,
      "inputs": [],
      "name": "startTimeOfCyclePhase",
      "outputs": [
        {
          "name": "",
          "type": "uint256"
        }
      ],
      "payable": false,
      "stateMutability": "view",
      "type": "function"
    },
    {
      "constant": true,
      "inputs": [],
      "name": "timeOfChangeMaking",
      "outputs": [
        {
          "name": "",
          "type": "uint256"
        }
      ],
      "payable": false,
      "stateMutability": "view",
      "type": "function"
    },
    {
      "constant": true,
      "inputs": [
        {
          "name": "",
          "type": "uint256"
        },
        {
          "name": "",
          "type": "address"
        }
      ],
      "name": "againstStakedControlOfProposalOfUser",
      "outputs": [
        {
          "name": "",
          "type": "uint256"
        }
      ],
      "payable": false,
      "stateMutability": "view",
      "type": "function"
    },
    {
      "constant": true,
      "inputs": [],
      "name": "cycleNumber",
      "outputs": [
        {
          "name": "",
          "type": "uint256"
        }
      ],
      "payable": false,
      "stateMutability": "view",
      "type": "function"
    },
    {
      "constant": true,
      "inputs": [],
      "name": "timeOfFinalizing",
      "outputs": [
        {
          "name": "",
          "type": "uint256"
        }
      ],
      "payable": false,
      "stateMutability": "view",
      "type": "function"
    },
    {
      "constant": false,
      "inputs": [],
      "name": "unpause",
      "outputs": [],
      "payable": false,
      "stateMutability": "nonpayable",
      "type": "function"
    },
    {
      "constant": true,
      "inputs": [
        {
          "name": "",
          "type": "address"
        }
      ],
      "name": "isTokenAlreadyProposed",
      "outputs": [
        {
          "name": "",
          "type": "bool"
        }
      ],
      "payable": false,
      "stateMutability": "view",
      "type": "function"
    },
    {
      "constant": true,
      "inputs": [],
      "name": "timeOfWaiting",
      "outputs": [
        {
          "name": "",
          "type": "uint256"
        }
      ],
      "payable": false,
      "stateMutability": "view",
      "type": "function"
    },
    {
      "constant": true,
      "inputs": [],
      "name": "paused",
      "outputs": [
        {
          "name": "",
          "type": "bool"
        }
      ],
      "payable": false,
      "stateMutability": "view",
      "type": "function"
    },
    {
      "constant": true,
      "inputs": [],
      "name": "commissionRate",
      "outputs": [
        {
          "name": "",
          "type": "uint256"
        }
      ],
      "payable": false,
      "stateMutability": "view",
      "type": "function"
    },
    {
      "constant": true,
      "inputs": [],
      "name": "functionCallReward",
      "outputs": [
        {
          "name": "",
          "type": "uint256"
        }
      ],
      "payable": false,
      "stateMutability": "view",
      "type": "function"
    },
    {
      "constant": true,
      "inputs": [],
      "name": "totalFundsInWeis",
      "outputs": [
        {
          "name": "",
          "type": "uint256"
        }
      ],
      "payable": false,
      "stateMutability": "view",
      "type": "function"
    },
    {
      "constant": true,
      "inputs": [
        {
          "name": "",
          "type": "address"
        }
      ],
      "name": "lastCommissionRedemption",
      "outputs": [
        {
          "name": "",
          "type": "uint256"
        }
      ],
      "payable": false,
      "stateMutability": "view",
      "type": "function"
    },
    {
      "constant": false,
      "inputs": [],
      "name": "pause",
      "outputs": [],
      "payable": false,
      "stateMutability": "nonpayable",
      "type": "function"
    },
    {
      "constant": true,
      "inputs": [],
      "name": "owner",
      "outputs": [
        {
          "name": "",
          "type": "address"
        }
      ],
      "payable": false,
      "stateMutability": "view",
      "type": "function"
    },
    {
      "constant": true,
      "inputs": [
        {
          "name": "",
          "type": "uint256"
        }
      ],
      "name": "againstStakedControlOfProposal",
      "outputs": [
        {
          "name": "",
          "type": "uint256"
        }
      ],
      "payable": false,
      "stateMutability": "view",
      "type": "function"
    },
    {
      "constant": true,
      "inputs": [],
      "name": "kyberAddr",
      "outputs": [
        {
          "name": "",
          "type": "address"
        }
      ],
      "payable": false,
      "stateMutability": "view",
      "type": "function"
    },
    {
      "constant": true,
      "inputs": [],
      "name": "PRECISION",
      "outputs": [
        {
          "name": "",
          "type": "uint256"
        }
      ],
      "payable": false,
      "stateMutability": "view",
      "type": "function"
    },
    {
      "constant": true,
      "inputs": [
        {
          "name": "",
          "type": "uint256"
        }
      ],
      "name": "forStakedControlOfProposal",
      "outputs": [
        {
          "name": "",
          "type": "uint256"
        }
      ],
      "payable": false,
      "stateMutability": "view",
      "type": "function"
    },
    {
      "constant": true,
      "inputs": [],
      "name": "developerFeeProportion",
      "outputs": [
        {
          "name": "",
          "type": "uint256"
        }
      ],
      "payable": false,
      "stateMutability": "view",
      "type": "function"
    },
    {
      "constant": true,
      "inputs": [],
      "name": "totalCommission",
      "outputs": [
        {
          "name": "",
          "type": "uint256"
        }
      ],
      "payable": false,
      "stateMutability": "view",
      "type": "function"
    },
    {
      "constant": true,
      "inputs": [],
      "name": "shareTokenAddr",
      "outputs": [
        {
          "name": "",
          "type": "address"
        }
      ],
      "payable": false,
      "stateMutability": "view",
      "type": "function"
    },
    {
      "constant": true,
      "inputs": [],
      "name": "timeBetweenCycles",
      "outputs": [
        {
          "name": "",
          "type": "uint256"
        }
      ],
      "payable": false,
      "stateMutability": "view",
      "type": "function"
    },
    {
      "constant": true,
      "inputs": [],
      "name": "controlTokenAddr",
      "outputs": [
        {
          "name": "",
          "type": "address"
        }
      ],
      "payable": false,
      "stateMutability": "view",
      "type": "function"
    },
    {
      "constant": false,
      "inputs": [
        {
          "name": "newOwner",
          "type": "address"
        }
      ],
      "name": "transferOwnership",
      "outputs": [],
      "payable": false,
      "stateMutability": "nonpayable",
      "type": "function"
    },
    {
      "constant": true,
      "inputs": [],
      "name": "cyclePhase",
      "outputs": [
        {
          "name": "",
          "type": "uint8"
        }
      ],
      "payable": false,
      "stateMutability": "view",
      "type": "function"
    },
    {
      "constant": true,
      "inputs": [],
      "name": "cycleTotalForStake",
      "outputs": [
        {
          "name": "",
          "type": "uint256"
        }
      ],
      "payable": false,
      "stateMutability": "view",
      "type": "function"
    },
    {
      "inputs": [
        {
          "name": "_cTokenAddr",
          "type": "address"
        },
        {
          "name": "_sTokenAddr",
          "type": "address"
        },
        {
          "name": "_kyberAddr",
          "type": "address"
        },
        {
          "name": "_developerFeeAccount",
          "type": "address"
        },
        {
          "name": "_timeOfChangeMaking",
          "type": "uint256"
        },
        {
          "name": "_timeOfWaiting",
          "type": "uint256"
        },
        {
          "name": "_timeOfFinalizing",
          "type": "uint256"
        },
        {
          "name": "_timeBetweenCycles",
          "type": "uint256"
        },
        {
          "name": "_minStakeProportion",
          "type": "uint256"
        },
        {
          "name": "_commissionRate",
          "type": "uint256"
        },
        {
          "name": "_developerFeeProportion",
          "type": "uint256"
        },
        {
          "name": "_cycleNumber",
          "type": "uint256"
        },
        {
          "name": "_functionCallReward",
          "type": "uint256"
        }
      ],
      "payable": false,
      "stateMutability": "nonpayable",
      "type": "constructor"
    },
    {
      "payable": true,
      "stateMutability": "payable",
      "type": "fallback"
    },
    {
      "anonymous": false,
      "inputs": [
        {
          "indexed": false,
          "name": "_cycleNumber",
          "type": "uint256"
        },
        {
          "indexed": false,
          "name": "_timestamp",
          "type": "uint256"
        }
      ],
      "name": "CycleStarted",
      "type": "event"
    },
    {
      "anonymous": false,
      "inputs": [
        {
          "indexed": false,
          "name": "_cycleNumber",
          "type": "uint256"
        },
        {
          "indexed": false,
          "name": "_sender",
          "type": "address"
        },
        {
          "indexed": false,
          "name": "_amountInWeis",
          "type": "uint256"
        },
        {
          "indexed": false,
          "name": "_timestamp",
          "type": "uint256"
        }
      ],
      "name": "Deposit",
      "type": "event"
    },
    {
      "anonymous": false,
      "inputs": [
        {
          "indexed": false,
          "name": "_cycleNumber",
          "type": "uint256"
        },
        {
          "indexed": false,
          "name": "_sender",
          "type": "address"
        },
        {
          "indexed": false,
          "name": "_amountInWeis",
          "type": "uint256"
        },
        {
          "indexed": false,
          "name": "_timestamp",
          "type": "uint256"
        }
      ],
      "name": "Withdraw",
      "type": "event"
    },
    {
      "anonymous": false,
      "inputs": [
        {
          "indexed": false,
          "name": "_cycleNumber",
          "type": "uint256"
        },
        {
          "indexed": false,
          "name": "_id",
          "type": "uint256"
        },
        {
          "indexed": false,
          "name": "_tokenAddress",
          "type": "address"
        },
        {
          "indexed": false,
          "name": "_stakeInWeis",
          "type": "uint256"
        }
      ],
      "name": "NewProposal",
      "type": "event"
    },
    {
      "anonymous": false,
      "inputs": [
        {
          "indexed": false,
          "name": "_cycleNumber",
          "type": "uint256"
        },
        {
          "indexed": false,
          "name": "_id",
          "type": "uint256"
        },
        {
          "indexed": false,
          "name": "_stakeInWeis",
          "type": "uint256"
        },
        {
          "indexed": false,
          "name": "_support",
          "type": "bool"
        }
      ],
      "name": "StakedProposal",
      "type": "event"
    },
    {
      "anonymous": false,
      "inputs": [
        {
          "indexed": false,
          "name": "_cycleNumber",
          "type": "uint256"
        },
        {
          "indexed": false,
          "name": "_timestamp",
          "type": "uint256"
        }
      ],
      "name": "ChangeMakingTimeEnded",
      "type": "event"
    },
    {
      "anonymous": false,
      "inputs": [
        {
          "indexed": false,
          "name": "_cycleNumber",
          "type": "uint256"
        },
        {
          "indexed": false,
          "name": "_timestamp",
          "type": "uint256"
        }
      ],
      "name": "WaitingPhaseEnded",
      "type": "event"
    },
    {
      "anonymous": false,
      "inputs": [
        {
          "indexed": false,
          "name": "_cycleNumber",
          "type": "uint256"
        },
        {
          "indexed": false,
          "name": "_proposalId",
          "type": "uint256"
        }
      ],
      "name": "AssetSold",
      "type": "event"
    },
    {
      "anonymous": false,
      "inputs": [
        {
          "indexed": false,
          "name": "_cycleNumber",
          "type": "uint256"
        },
        {
          "indexed": false,
          "name": "_timestamp",
          "type": "uint256"
        }
      ],
      "name": "SellingPhaseEnded",
      "type": "event"
    },
    {
      "anonymous": false,
      "inputs": [
        {
          "indexed": false,
          "name": "_cycleNumber",
          "type": "uint256"
        },
        {
          "indexed": false,
          "name": "_beforeTotalFunds",
          "type": "uint256"
        },
        {
          "indexed": false,
          "name": "_afterTotalFunds",
          "type": "uint256"
        }
      ],
      "name": "ROI",
      "type": "event"
    },
    {
      "anonymous": false,
      "inputs": [
        {
          "indexed": false,
          "name": "_cycleNumber",
          "type": "uint256"
        },
        {
          "indexed": false,
          "name": "_totalCommissionInWeis",
          "type": "uint256"
        }
      ],
      "name": "CommissionPaid",
      "type": "event"
    },
    {
      "anonymous": false,
      "inputs": [
        {
          "indexed": false,
          "name": "_cycleNumber",
          "type": "uint256"
        },
        {
          "indexed": false,
          "name": "_timestamp",
          "type": "uint256"
        }
      ],
      "name": "CycleFinalized",
      "type": "event"
    },
    {
      "anonymous": false,
      "inputs": [],
      "name": "Pause",
      "type": "event"
    },
    {
      "anonymous": false,
      "inputs": [],
      "name": "Unpause",
      "type": "event"
    },
    {
      "anonymous": false,
      "inputs": [
        {
          "indexed": true,
          "name": "previousOwner",
          "type": "address"
        },
        {
          "indexed": true,
          "name": "newOwner",
          "type": "address"
        }
      ],
      "name": "OwnershipTransferred",
      "type": "event"
    },
    {
      "constant": true,
      "inputs": [],
      "name": "proposalsCount",
      "outputs": [
        {
          "name": "_count",
          "type": "uint256"
        }
      ],
      "payable": false,
      "stateMutability": "view",
      "type": "function"
    },
    {
      "constant": false,
      "inputs": [],
      "name": "emergencyDumpAllTokens",
      "outputs": [],
      "payable": false,
      "stateMutability": "nonpayable",
      "type": "function"
    },
    {
      "constant": false,
      "inputs": [
        {
          "name": "_proposalId",
          "type": "uint256"
        }
      ],
      "name": "emergencyDumpToken",
      "outputs": [],
      "payable": false,
      "stateMutability": "nonpayable",
      "type": "function"
    },
    {
      "constant": false,
      "inputs": [
        {
          "name": "_proposalId",
          "type": "uint256"
        }
      ],
      "name": "emergencyRedeemStake",
      "outputs": [],
      "payable": false,
      "stateMutability": "nonpayable",
      "type": "function"
    },
    {
      "constant": false,
      "inputs": [],
      "name": "emergencyRedistBalances",
      "outputs": [],
      "payable": false,
      "stateMutability": "nonpayable",
      "type": "function"
    },
    {
      "constant": false,
      "inputs": [
        {
          "name": "_val",
          "type": "bool"
        }
      ],
      "name": "setAllowEmergencyWithdraw",
      "outputs": [],
      "payable": false,
      "stateMutability": "nonpayable",
      "type": "function"
    },
    {
      "constant": false,
      "inputs": [],
      "name": "emergencyWithdraw",
      "outputs": [],
      "payable": false,
      "stateMutability": "nonpayable",
      "type": "function"
    },
    {
      "constant": false,
      "inputs": [
        {
          "name": "_newAddr",
          "type": "address"
        }
      ],
      "name": "changeKyberNetworkAddress",
      "outputs": [],
      "payable": false,
      "stateMutability": "nonpayable",
      "type": "function"
    },
    {
      "constant": false,
      "inputs": [
        {
          "name": "_newAddr",
          "type": "address"
        }
      ],
      "name": "changeDeveloperFeeAccount",
      "outputs": [],
      "payable": false,
      "stateMutability": "nonpayable",
      "type": "function"
    },
    {
      "constant": false,
      "inputs": [
        {
          "name": "_newProp",
          "type": "uint256"
        }
      ],
      "name": "changeDeveloperFeeProportion",
      "outputs": [],
      "payable": false,
      "stateMutability": "nonpayable",
      "type": "function"
    },
    {
      "constant": false,
      "inputs": [
        {
          "name": "_newProp",
          "type": "uint256"
        }
      ],
      "name": "changeCommissionRate",
      "outputs": [],
      "payable": false,
      "stateMutability": "nonpayable",
      "type": "function"
    },
    {
      "constant": false,
      "inputs": [
        {
          "name": "_newOwner",
          "type": "address"
        }
      ],
      "name": "changeControlTokenOwner",
      "outputs": [],
      "payable": false,
      "stateMutability": "nonpayable",
      "type": "function"
    },
    {
      "constant": false,
      "inputs": [
        {
          "name": "_newOwner",
          "type": "address"
        }
      ],
      "name": "changeShareTokenOwner",
      "outputs": [],
      "payable": false,
      "stateMutability": "nonpayable",
      "type": "function"
    },
    {
      "constant": false,
      "inputs": [],
      "name": "startNewCycle",
      "outputs": [],
      "payable": false,
      "stateMutability": "nonpayable",
      "type": "function"
    },
    {
      "constant": false,
      "inputs": [],
      "name": "deposit",
      "outputs": [],
      "payable": true,
      "stateMutability": "payable",
      "type": "function"
    },
    {
      "constant": false,
      "inputs": [
        {
          "name": "_amountInWeis",
          "type": "uint256"
        }
      ],
      "name": "withdraw",
      "outputs": [],
      "payable": false,
      "stateMutability": "nonpayable",
      "type": "function"
    },
    {
      "constant": false,
      "inputs": [
        {
          "name": "_tokenAddress",
          "type": "address"
        },
        {
          "name": "_stakeInWeis",
          "type": "uint256"
        }
      ],
      "name": "createProposal",
      "outputs": [],
      "payable": false,
      "stateMutability": "nonpayable",
      "type": "function"
    },
    {
      "constant": false,
      "inputs": [
        {
          "name": "_proposalId",
          "type": "uint256"
        },
        {
          "name": "_stakeInWeis",
          "type": "uint256"
        },
        {
          "name": "_support",
          "type": "bool"
        }
      ],
      "name": "stakeProposal",
      "outputs": [],
      "payable": false,
      "stateMutability": "nonpayable",
      "type": "function"
    },
    {
      "constant": false,
      "inputs": [
        {
          "name": "_proposalId",
          "type": "uint256"
        }
      ],
      "name": "cancelProposalStake",
      "outputs": [],
      "payable": false,
      "stateMutability": "nonpayable",
      "type": "function"
    },
    {
      "constant": false,
      "inputs": [
        {
          "name": "_proposalId",
          "type": "uint256"
        }
      ],
      "name": "redeemStakeFromDeletedProposal",
      "outputs": [],
      "payable": false,
      "stateMutability": "nonpayable",
      "type": "function"
    },
    {
      "constant": false,
      "inputs": [],
      "name": "endChangeMakingTime",
      "outputs": [],
      "payable": false,
      "stateMutability": "nonpayable",
      "type": "function"
    },
    {
      "constant": false,
      "inputs": [
        {
          "name": "_proposalId",
          "type": "uint256"
        }
      ],
      "name": "executeProposal",
      "outputs": [],
      "payable": false,
      "stateMutability": "nonpayable",
      "type": "function"
    },
    {
      "constant": false,
      "inputs": [],
      "name": "endWaitingPhase",
      "outputs": [],
      "payable": false,
      "stateMutability": "nonpayable",
      "type": "function"
    },
    {
      "constant": false,
      "inputs": [
        {
          "name": "_proposalId",
          "type": "uint256"
        }
      ],
      "name": "sellProposalAsset",
      "outputs": [],
      "payable": false,
      "stateMutability": "nonpayable",
      "type": "function"
    },
    {
      "constant": false,
      "inputs": [
        {
          "name": "_proposalId",
          "type": "uint256"
        }
      ],
      "name": "redeemKairos",
      "outputs": [],
      "payable": false,
      "stateMutability": "nonpayable",
      "type": "function"
    },
    {
      "constant": false,
      "inputs": [],
      "name": "finalizeCycle",
      "outputs": [],
      "payable": false,
      "stateMutability": "nonpayable",
      "type": "function"
    },
    {
      "constant": false,
      "inputs": [],
      "name": "redeemCommission",
      "outputs": [],
      "payable": false,
      "stateMutability": "nonpayable",
      "type": "function"
    }
  ],
  "bytecode": "0x60606040526000805460a060020a60ff021916905534156200002057600080fd5b6040516101a08062003aef8339810160405280805191906020018051919060200180519190602001805191906020018051919060200180519190602001805191906020018051919060200180519190602001805191906020018051919060200180519190602001805160008054600160a060020a03191633600160a060020a0316179055915050670de0b6b3a76400008510620000bc57600080fd5b670de0b6b3a7640000620000df858564010000000062002ff66200027e82021704565b10620000ea57600080fd5b8c600160006101000a815481600160a060020a030219169083600160a060020a031602179055508b600260006101000a815481600160a060020a030219169083600160a060020a031602179055508a600360006101000a815481600160a060020a030219169083600160a060020a031602179055508c601b60016101000a815481600160a060020a030219169083600160a060020a031602179055508b601c60006101000a815481600160a060020a030219169083600160a060020a031602179055508a601d60006101000a815481600160a060020a030219169083600160a060020a0316021790555089600460006101000a815481600160a060020a030219169083600160a060020a031602179055508860098190555087600a8190555086600b8190555085600c8190555084600d8190555083600e8190555082600f8190555060006008819055506003601b60006101000a81548160ff021916908360038111156200025457fe5b021790555060059190915560115550506013805460ff191690555062000295975050505050505050565b6000828201838110156200028e57fe5b9392505050565b61384a80620002a56000396000f3006060604052600436106102a55763ffffffff60e060020a600035041663013cf08b81146102c257806309b0d33a146103205780630a9f46ad146103335780630d61b519146103585780630e1b1fda1461036e5780630f6f17d21461038457806311815223146103a65780631a26af7a146103c55780631ab371fc146103ec5780631b8e21921461041b5780631c68e5281461042e5780631dcf8ceb1461044d5780631ebe568c1461046057806325f842c51461047657806328ac1228146104895780632e1a7d4d1461049c5780632e33de6a146104b25780632f884710146104d45780633795ea5a146104e75780633f4ba83a146104fa5780634031c09e1461050d5780634773822e146105235780634f634790146105425780635c975abb146105555780635d4c3224146105685780635ea1d6f814610580578063612d194d1461059357806364542e3e146105a65780636642642a146105bc57806373e11b0d146105d25780637e714dd2146105e85780637f2736d1146105fb578063821f98241461060e5780638456cb591461062d5780638657459e146106405780638d8f784b146106565780638da5cb5b14610669578063a24459fc1461067c578063a7c4dccf14610692578063aaf5eb68146106a5578063b18e8a8d146106b8578063b484cf8d146106d7578063b64af4b1146106ed578063b8b7455314610700578063ba25887d14610713578063c0320dbc14610726578063d0e30db014610739578063d13f718414610741578063d7615d3714610757578063db2e21bc1461076a578063dbdadc5c1461077d578063dc87454c14610790578063dfc51a25146107a3578063e7476abf146107c5578063e7ee8016146107e4578063ec33d2a014610802578063f2fde38b14610815578063f6558b0014610834578063f8d4d4381461086b575b60035433600160a060020a039081169116146102c057600080fd5b005b34156102cd57600080fd5b6102d860043561087e565b604051600160a060020a03909716875260208701959095526040808701949094526060860192909252608085015260a084015290151560c083015260e0909101905180910390f35b341561032b57600080fd5b6102c06108d8565b341561033e57600080fd5b610346610a0f565b60405190815260200160405180910390f35b341561036357600080fd5b6102c0600435610a16565b341561037957600080fd5b6102c0600435610b2c565b341561038f57600080fd5b610346600435600160a060020a0360243516610c5c565b34156103b157600080fd5b6102c0600160a060020a0360043516610c79565b34156103d057600080fd5b6103d8610cfa565b604051901515815260200160405180910390f35b34156103f757600080fd5b6103ff610d03565b604051600160a060020a03909116815260200160405180910390f35b341561042657600080fd5b6102c0610d12565b341561043957600080fd5b6102c0600160a060020a0360043516610eb6565b341561045857600080fd5b610346610f65565b341561046b57600080fd5b6102c0600435610f6b565b341561048157600080fd5b610346611246565b341561049457600080fd5b61034661124c565b34156104a757600080fd5b6102c0600435611252565b34156104bd57600080fd5b610346600435600160a060020a0360243516611428565b34156104df57600080fd5b610346611445565b34156104f257600080fd5b61034661144b565b341561050557600080fd5b6102c0611451565b341561051857600080fd5b6102c06004356114d0565b341561052e57600080fd5b6103d8600160a060020a036004351661151c565b341561054d57600080fd5b610346611531565b341561056057600080fd5b6103d8611537565b341561057357600080fd5b6102c06004351515611547565b341561058b57600080fd5b61034661158d565b341561059e57600080fd5b610346611593565b34156105b157600080fd5b6102c0600435611599565b34156105c757600080fd5b6102c06004356115c7565b34156105dd57600080fd5b6102c06004356115e7565b34156105f357600080fd5b6103466116f6565b341561060657600080fd5b6102c06116fc565b341561061957600080fd5b610346600160a060020a036004351661194a565b341561063857600080fd5b6102c061195c565b341561064b57600080fd5b6102c06004356119e0565b341561066157600080fd5b6102c0611b2a565b341561067457600080fd5b6103ff611b8d565b341561068757600080fd5b610346600435611b9c565b341561069d57600080fd5b6103ff611bae565b34156106b057600080fd5b610346611bbd565b34156106c357600080fd5b6102c0600160a060020a0360043516611bc3565b34156106e257600080fd5b610346600435611c22565b34156106f857600080fd5b6102c0611c34565b341561070b57600080fd5b6102c0611d6b565b341561071e57600080fd5b610346611dae565b341561073157600080fd5b610346611db4565b6102c0611dba565b341561074c57600080fd5b6102c060043561205a565b341561076257600080fd5b6103ff612378565b341561077557600080fd5b6102c0612387565b341561078857600080fd5b610346612629565b341561079b57600080fd5b6103ff61262f565b34156107ae57600080fd5b6102c0600160a060020a036004351660243561263e565b34156107d057600080fd5b6102c0600160a060020a036004351661281c565b34156107ef57600080fd5b6102c060043560243560443515156128b9565b341561080d57600080fd5b6102c0612d5e565b341561082057600080fd5b6102c0600160a060020a0360043516612f4c565b341561083f57600080fd5b610847612fe7565b6040518082600381111561085757fe5b60ff16815260200191505060405180910390f35b341561087657600080fd5b610346612ff0565b601a80548290811061088c57fe5b60009182526020909120600790910201805460018201546002830154600384015460048501546005860154600690960154600160a060020a039095169650929491939092919060ff1687565b600180601b5460ff1660038111156108ec57fe5b146108f657600080fd5b60005460a060020a900460ff161561090d57600080fd5b601b60019054906101000a9004600160a060020a0316600160a060020a03166340c10f193360115460006040516020015260405160e060020a63ffffffff8516028152600160a060020a0390921660048301526024820152604401602060405180830381600087803b151561098157600080fd5b6102c65a03f1151561099257600080fd5b50505060405180515050600a546008546109b19163ffffffff612ff616565b4210156109bd57600080fd5b426008819055601b805460ff191660021790556005547fb261f68a380a9c0e8cb1b8ddea5dceb8ce59629e31c7d50b5a3acf6f017b6df69160405191825260208201526040908101905180910390a150565b601a545b90565b600180601b5460ff166003811115610a2a57fe5b14610a3457600080fd5b60005460a060020a900460ff1615610a4b57600080fd5b601b60019054906101000a9004600160a060020a0316600160a060020a03166340c10f193360115460006040516020015260405160e060020a63ffffffff8516028152600160a060020a0390921660048301526024820152604401602060405180830381600087803b1515610abf57600080fd5b6102c65a03f11515610ad057600080fd5b5050506040518051905050610ae482613010565b1515610aef57600080fd5b601a805483908110610afd57fe5b9060005260206000209060070201600201546000141515610b1d57600080fd5b610b2882600161303c565b5050565b6000805460a060020a900460ff161515610b4557600080fd5b60135460ff161515610b5657600080fd5b6000828152601760209081526040808320600160a060020a0333168085529083528184205486855260168452828520918552925290912054610b9d9163ffffffff612ff616565b600083815260166020908152604080832033600160a060020a038181168087529285528386208690558886526017855283862092865291909352818420849055601b549495506101009094049093169263a9059cbb928591516020015260405160e060020a63ffffffff8516028152600160a060020a0390921660048301526024820152604401602060405180830381600087803b1515610c3d57600080fd5b6102c65a03f11515610c4e57600080fd5b505050604051805150505050565b601660209081526000928352604080842090915290825290205481565b60005433600160a060020a03908116911614610c9457600080fd5b60005460a060020a900460ff161515610cac57600080fd5b600160a060020a0381161515610cc157600080fd5b60038054600160a060020a0390921673ffffffffffffffffffffffffffffffffffffffff199283168117909155601d8054909216179055565b60135460ff1681565b600454600160a060020a031681565b600380601b5460ff166003811115610d2657fe5b14610d3057600080fd5b60005460a060020a900460ff1615610d4757600080fd5b600554600160a060020a03331660009081526019602052604090205410610d6d57600080fd5b600554600160a060020a0333811660008181526019602052604080822094909455601b5491936108fc93610e8e93610100900416916318160ddd9151602001526040518163ffffffff1660e060020a028152600401602060405180830381600087803b1515610ddb57600080fd5b6102c65a03f11515610dec57600080fd5b5050506040518051601b54909150610e82906101009004600160a060020a03166370a082313360006040516020015260405160e060020a63ffffffff8416028152600160a060020a039091166004820152602401602060405180830381600087803b1515610e5957600080fd5b6102c65a03f11515610e6a57600080fd5b5050506040518051601254915063ffffffff61355816565b9063ffffffff61358316565b9081150290604051600060405180830381858888f193505050501515610eb357600080fd5b50565b60005433600160a060020a03908116911614610ed157600080fd5b60005460a060020a900460ff161515610ee957600080fd5b600160a060020a0381161515610efe57600080fd5b601c54600160a060020a031663f2fde38b8260405160e060020a63ffffffff8416028152600160a060020a039091166004820152602401600060405180830381600087803b1515610f4e57600080fd5b6102c65a03f11515610f5f57600080fd5b50505050565b600d5481565b600080808080601b5460ff166003811115610f8257fe5b14610f8c57600080fd5b60005460a060020a900460ff1615610fa357600080fd5b601a548510610fb157600080fd5b610fba85613010565b1515610fc557600080fd5b6000858152601660209081526040808320600160a060020a03331680855290835281842054898552601784528285209185529252909120549094509250611012848463ffffffff612ff616565b915060008411156110be5760008581526014602052604090205461103c908363ffffffff61359a16565b60008681526014602052604090205560105461105e908363ffffffff61359a16565b601055601a8054611096916001918890811061107657fe5b90600052602060002090600702016004015461359a90919063ffffffff16565b601a8054879081106110a457fe5b906000526020600020906007020160040181905550611157565b6000831115611152576000858152601560205260409020546110e6908363ffffffff61359a16565b600086815260156020526040902055601a805461112a916001918890811061110a57fe5b90600052602060002090600702016005015461359a90919063ffffffff16565b601a80548790811061113857fe5b906000526020600020906007020160050181905550611157565b61123f565b600085815260166020908152604080832033600160a060020a038181168087529285528386208690558a86526017855283862092865291909352818420849055601b546101009004169263a9059cbb9291869190516020015260405160e060020a63ffffffff8516028152600160a060020a0390921660048301526024820152604401602060405180830381600087803b15156111f357600080fd5b6102c65a03f1151561120457600080fd5b50505060405180515050601a80548690811061121c57fe5b9060005260206000209060070201600401546000141561123f5761123f856135ac565b5050505050565b60085481565b60095481565b600080601b5460ff16600381111561126657fe5b1461127057600080fd5b60005460a060020a900460ff161561128757600080fd5b6005546001141561129757600080fd5b601c54600754600160a060020a039091169063c000178690339061131c90610e82856318160ddd6000604051602001526040518163ffffffff1660e060020a028152600401602060405180830381600087803b15156112f557600080fd5b6102c65a03f1151561130657600080fd5b505050604051805189915063ffffffff61355816565b60006040516020015260405160e060020a63ffffffff8516028152600160a060020a0390921660048301526024820152604401602060405180830381600087803b151561136857600080fd5b6102c65a03f1151561137957600080fd5b50505060405180515050600754611396908363ffffffff61359a16565b600755600160a060020a03331682156108fc0283604051600060405180830381858888f1935050505015156113ca57600080fd5b7fb0ecf14e184effded5473bba77dcfab32b094b77ac1fbb36beec2aef55587970600554338442604051938452600160a060020a03909216602084015260408084019190915260608301919091526080909101905180910390a15050565b601760209081526000928352604080842090915290825290205481565b60055481565b600b5481565b60005433600160a060020a0390811691161461146c57600080fd5b60005460a060020a900460ff16151561148457600080fd5b6000805474ff0000000000000000000000000000000000000000191690557f7805862f689e2f13df9f062ff482ad3ad112aca9e0847911ed832e158c525b3360405160405180910390a1565b60005433600160a060020a039081169116146114eb57600080fd5b60005460a060020a900460ff16151561150357600080fd5b61150c81613010565b15610eb357610eb381600061303c565b60186020526000908152604090205460ff1681565b600a5481565b60005460a060020a900460ff1681565b60005433600160a060020a0390811691161461156257600080fd5b60005460a060020a900460ff16151561157a57600080fd5b6013805460ff1916911515919091179055565b600e5481565b60115481565b60005433600160a060020a039081169116146115b457600080fd5b600f5481106115c257600080fd5b600f55565b60005433600160a060020a039081169116146115e257600080fd5b600e55565b6000805460a060020a900460ff16156115ff57600080fd5b61160882613010565b1561161257600080fd5b600554601a80548490811061162357fe5b90600052602060002090600702016001015414151561164157600080fd5b506000818152601760209081526040808320600160a060020a033316845290915281205490811161167157600080fd5b600082815260176020908152604080832033600160a060020a03818116865291909352818420849055601b546101009004169263a9059cbb9291859190516020015260405160e060020a63ffffffff8516028152600160a060020a0390921660048301526024820152604401602060405180830381600087803b1515610c3d57600080fd5b60075481565b6000600380601b5460ff16600381111561171257fe5b1461171c57600080fd5b60005460a060020a900460ff161561173357600080fd5b601b60019054906101000a9004600160a060020a0316600160a060020a03166340c10f193360115460006040516020015260405160e060020a63ffffffff8516028152600160a060020a0390921660048301526024820152604401602060405180830381600087803b15156117a757600080fd5b6102c65a03f115156117b857600080fd5b50505060405180515050600c546008546117d79163ffffffff612ff616565b4210156117e357600080fd5b601b805460ff19169055426008556005546117ff906001612ff6565b600555601b546101009004600160a060020a0316635c975abb6000604051602001526040518163ffffffff1660e060020a028152600401602060405180830381600087803b151561184f57600080fd5b6102c65a03f1151561186057600080fd5b50505060405180519050156118c857601b546101009004600160a060020a0316633f4ba83a6040518163ffffffff1660e060020a028152600401600060405180830381600087803b15156118b357600080fd5b6102c65a03f115156118c457600080fd5b5050505b600091505b601a548210156118f8576118e0826135ac565b6118f182600163ffffffff612ff616565b91506118cd565b611904601a6000613768565b6010600090557f62eeb403dc233a7676f50cdb0fd72dae595aeb7c63039adce5caacc33254f9c06005544260405191825260208201526040908101905180910390a15050565b60196020526000908152604090205481565b60005433600160a060020a0390811691161461197757600080fd5b60005460a060020a900460ff161561198e57600080fd5b6000805474ff0000000000000000000000000000000000000000191660a060020a1790557f6985a02210a168e66602d3235cb6db0e70f92b3ba4d376a33c0f3d9434bff62560405160405180910390a1565b600280601b5460ff1660038111156119f457fe5b146119fe57600080fd5b60005460a060020a900460ff1615611a1557600080fd5b601b60019054906101000a9004600160a060020a0316600160a060020a03166340c10f193360115460006040516020015260405160e060020a63ffffffff8516028152600160a060020a0390921660048301526024820152604401602060405180830381600087803b1515611a8957600080fd5b6102c65a03f11515611a9a57600080fd5b5050506040518051905050611aae82613010565b1515611ab957600080fd5b6000601a83815481101515611aca57fe5b906000526020600020906007020160020154111515611ae857600080fd5b611af382600061303c565b6001601a83815481101515611b0457fe5b60009182526020909120600790910201600601805460ff19169115159190911790555050565b6000805433600160a060020a03908116911614611b4657600080fd5b60005460a060020a900460ff161515611b5e57600080fd5b5060005b601a54811015610eb357611b75816114d0565b611b8681600163ffffffff612ff616565b9050611b62565b600054600160a060020a031681565b60156020526000908152604090205481565b600354600160a060020a031681565b60065481565b60005433600160a060020a03908116911614611bde57600080fd5b600160a060020a0381161515611bf357600080fd5b6004805473ffffffffffffffffffffffffffffffffffffffff1916600160a060020a0392909216919091179055565b60146020526000908152604090205481565b600080601b5460ff166003811115611c4857fe5b14611c5257600080fd5b60005460a060020a900460ff1615611c6957600080fd5b601b60019054906101000a9004600160a060020a0316600160a060020a03166340c10f193360115460006040516020015260405160e060020a63ffffffff8516028152600160a060020a0390921660048301526024820152604401602060405180830381600087803b1515611cdd57600080fd5b6102c65a03f11515611cee57600080fd5b50505060405180515050600954600854611d0d9163ffffffff612ff616565b421015611d1957600080fd5b426008819055601b805460ff191660011790556005547f3c3379a2308ae89ee638561d0222706de289bea89968dd555b533795071130fb9160405191825260208201526040908101905180910390a150565b60005433600160a060020a03908116911614611d8657600080fd5b60005460a060020a900460ff161515611d9e57600080fd5b600160a060020a03301631600755565b600f5481565b60125481565b600080601b5460ff166003811115611dce57fe5b14611dd857600080fd5b60005460a060020a900460ff1615611def57600080fd5b60055460011415611e7a57601c54600160a060020a03166340c10f19333460006040516020015260405160e060020a63ffffffff8516028152600160a060020a0390921660048301526024820152604401602060405180830381600087803b1515611e5957600080fd5b6102c65a03f11515611e6a57600080fd5b5050506040518051905050611f67565b601c54600754600160a060020a03909116906340c10f19903390611eff90610e82856318160ddd6000604051602001526040518163ffffffff1660e060020a028152600401602060405180830381600087803b1515611ed857600080fd5b6102c65a03f11515611ee957600080fd5b505050604051805134915063ffffffff61355816565b60006040516020015260405160e060020a63ffffffff8516028152600160a060020a0390921660048301526024820152604401602060405180830381600087803b1515611f4b57600080fd5b6102c65a03f11515611f5c57600080fd5b505050604051805150505b600754611f7a903463ffffffff612ff616565b600755601b546101009004600160a060020a03166340c10f19333460006040516020015260405160e060020a63ffffffff8516028152600160a060020a0390921660048301526024820152604401602060405180830381600087803b1515611fe157600080fd5b6102c65a03f11515611ff257600080fd5b50505060405180519050507fd36a2f67d06d285786f61a32b052b9ace6b0b7abef5177b54358abdc83a0b69b600554333442604051938452600160a060020a03909216602084015260408084019190915260608301919091526080909101905180910390a150565b6000808080600280601b5460ff16600381111561207357fe5b1461207d57600080fd5b60005460a060020a900460ff161561209457600080fd5b601a8054879081106120a257fe5b60009182526020909120600790910201600681015490955060ff1615156120c857600080fd5b6120e98560020154610e82600654886003015461355890919063ffffffff16565b9350600092506121076002866002015461355890919063ffffffff16565b8560030154101561215b576121588560020154610e8260065461214c896003015461214060028c6002015461355890919063ffffffff16565b9063ffffffff61359a16565b9063ffffffff61355816565b92505b6000868152601660209081526040808320600160a060020a03331684529091528120549092508290111561226a576000868152601660209081526040808320600160a060020a0333818116865291909352922054601b546006549195506101009004909116916340c10f19916121db90610e82878a63ffffffff61355816565b60006040516020015260405160e060020a63ffffffff8516028152600160a060020a0390921660048301526024820152604401602060405180830381600087803b151561222757600080fd5b6102c65a03f1151561223857600080fd5b505050604051805150506000868152601660209081526040808320600160a060020a0333168452909152812055612370565b6000868152601760209081526040808320600160a060020a03331684529091528120541115612370576000868152601760209081526040808320600160a060020a0333818116865291909352922054601b546006549195506101009004909116916340c10f19916122e590610e82878963ffffffff61355816565b60006040516020015260405160e060020a63ffffffff8516028152600160a060020a0390921660048301526024820152604401602060405180830381600087803b151561233157600080fd5b6102c65a03f1151561234257600080fd5b505050604051805150506000868152601760209081526040808320600160a060020a03331684529091528120555b505050505050565b600254600160a060020a031681565b6000805460a060020a900460ff1615156123a057600080fd5b60135460ff1615156123b157600080fd5b601c546124a090600160a060020a03166318160ddd6000604051602001526040518163ffffffff1660e060020a028152600401602060405180830381600087803b15156123fd57600080fd5b6102c65a03f1151561240e57600080fd5b5050506040518051600754601c54919250610e8291600160a060020a03166370a082313360006040516020015260405160e060020a63ffffffff8416028152600160a060020a039091166004820152602401602060405180830381600087803b151561247957600080fd5b6102c65a03f1151561248a57600080fd5b505050604051805191905063ffffffff61355816565b601c54909150600160a060020a031663c000178633826370a082318260006040516020015260405160e060020a63ffffffff8416028152600160a060020a039091166004820152602401602060405180830381600087803b151561250357600080fd5b6102c65a03f1151561251457600080fd5b5050506040518051905060006040516020015260405160e060020a63ffffffff8516028152600160a060020a0390921660048301526024820152604401602060405180830381600087803b151561256a57600080fd5b6102c65a03f1151561257b57600080fd5b50505060405180515050600754612598908263ffffffff61359a16565b600755600160a060020a03331681156108fc0282604051600060405180830381858888f1935050505015156125cc57600080fd5b7fb0ecf14e184effded5473bba77dcfab32b094b77ac1fbb36beec2aef55587970600554338342604051938452600160a060020a03909216602084015260408084019190915260608301919091526080909101905180910390a150565b600c5481565b600154600160a060020a031681565b60008080601b5460ff16600381111561265357fe5b1461265d57600080fd5b60005460a060020a900460ff161561267457600080fd5b600160a060020a03841660009081526018602052604090205460ff161561269a57600080fd5b601a8054600181016126ac8382613789565b9160005260206000209060070201600060e06040519081016040908152600160a060020a038916825260055460208301526000908201819052606082018190526080820181905260a0820181905260c08201529190508151815473ffffffffffffffffffffffffffffffffffffffff1916600160a060020a03919091161781556020820151816001015560408201518160020155606082015181600301556080820151816004015560a0820151816005015560c08201516006909101805491151560ff19928316179055600160a060020a038716600090815260186020526040902080549091166001908117909155601a546000190194506127b3925084915085906128b9565b7f8ce9f930ed5ed31849df1551919914386f6b2b7de1fdde27d80255ceaa38b2276005548386866040518085815260200184815260200183600160a060020a0316600160a060020a0316815260200182815260200194505050505060405180910390a150505050565b60005433600160a060020a0390811691161461283757600080fd5b60005460a060020a900460ff16151561284f57600080fd5b600160a060020a038116151561286457600080fd5b601b546101009004600160a060020a031663f2fde38b8260405160e060020a63ffffffff8416028152600160a060020a039091166004820152602401600060405180830381600087803b1515610f4e57600080fd5b600080601b5460ff1660038111156128cd57fe5b146128d757600080fd5b60005460a060020a900460ff16156128ee57600080fd5b601a5484106128fc57600080fd5b60186000601a8681548110151561290f57fe5b60009182526020808320600790920290910154600160a060020a0316835282019290925260400190205460ff16151561294757600080fd5b601b546129d2906101009004600160a060020a03166370a082313360006040516020015260405160e060020a63ffffffff8416028152600160a060020a039091166004820152602401602060405180830381600087803b15156129a957600080fd5b6102c65a03f115156129ba57600080fd5b5050506040518051600d54915063ffffffff61355816565b6006546129e690859063ffffffff61355816565b10156129f157600080fd5b600083116129fe57600080fd5b601b546101009004600160a060020a0316632bee7bde338560006040516020015260405160e060020a63ffffffff8516028152600160a060020a0390921660048301526024820152604401602060405180830381600087803b1515612a6257600080fd5b6102c65a03f11515612a7357600080fd5b5050506040518051905050818015612aab57506000848152601760209081526040808320600160a060020a0333168452909152902054155b15612bca576000848152601660209081526040808320600160a060020a03331684529091529020541515612b3157612b0d6001601a86815481101515612aed57fe5b906000526020600020906007020160040154612ff690919063ffffffff16565b601a805486908110612b1b57fe5b9060005260206000209060070201600401819055505b600084815260146020526040902054612b50908463ffffffff612ff616565b60008581526014602090815260408083209390935560168152828220600160a060020a033316835290522054612b8c908463ffffffff612ff616565b6000858152601660209081526040808320600160a060020a0333168452909152902055601054612bc2908463ffffffff612ff616565b601055612d06565b81158015612bf857506000848152601660209081526040808320600160a060020a0333168452909152902054155b15612d01576000848152601760209081526040808320600160a060020a03331684529091529020541515612c7e57612c5a6001601a86815481101515612c3a57fe5b906000526020600020906007020160050154612ff690919063ffffffff16565b601a805486908110612c6857fe5b9060005260206000209060070201600501819055505b600084815260156020526040902054612c9d908463ffffffff612ff616565b60008581526015602090815260408083209390935560178152828220600160a060020a033316835290522054612cd9908463ffffffff612ff616565b6000858152601760209081526040808320600160a060020a0333168452909152902055612d06565b600080fd5b7f725e873e4977c489020b571ecffe13e8f200a0e8b71e450d8b190aa236bcede9600554858585604051938452602084019290925260408084019190915290151560608301526080909101905180910390a150505050565b600280601b5460ff166003811115612d7257fe5b14612d7c57600080fd5b60005460a060020a900460ff1615612d9357600080fd5b601b60019054906101000a9004600160a060020a0316600160a060020a03166340c10f193360115460006040516020015260405160e060020a63ffffffff8516028152600160a060020a0390921660048301526024820152604401602060405180830381600087803b1515612e0757600080fd5b6102c65a03f11515612e1857600080fd5b50505060405180515050600b54600854612e379163ffffffff612ff616565b421015612e4357600080fd5b42600855601b805460ff191660031790819055600160a060020a036101009091041663f3123a3a6040518163ffffffff1660e060020a028152600401600060405180830381600087803b1515612e9857600080fd5b6102c65a03f11515612ea957600080fd5b5050601b546101009004600160a060020a03169050638456cb596040518163ffffffff1660e060020a028152600401600060405180830381600087803b1515612ef157600080fd5b6102c65a03f11515612f0257600080fd5b505050612f0d61360a565b7ff4b862466a7ed84695726312fc00377bee25443b7890d8b8985f94eef497d6ff6005544260405191825260208201526040908101905180910390a150565b60005433600160a060020a03908116911614612f6757600080fd5b600160a060020a0381161515612f7c57600080fd5b600054600160a060020a0380831691167f8be0079c531659141344cd1fd0a4f28419497f9722a3daafe3b4186f6b6457e060405160405180910390a36000805473ffffffffffffffffffffffffffffffffffffffff1916600160a060020a0392909216919091179055565b601b5460ff1681565b60105481565b60008282018381101561300557fe5b8091505b5092915050565b600080601a8381548110151561302257fe5b906000526020600020906007020160040154119050919050565b600080600080600080601a8881548110151561305457fe5b6000918252602090912060079091020154600160a060020a0316925082915086156131da576010546000898152601460205260409020546007546130a39291610e82919063ffffffff61355816565b601d54909650600160a060020a033081811631935091169063cb3c28c790889073eeeeeeeeeeeeeeeeeeeeeeeeeeeeeeeeeeeeeeee90829087906b204fce5e3e2502611000000060018260006040516020015260405160e060020a63ffffffff8b16028152600160a060020a039788166004820152602481019690965293861660448601529185166064850152608484015260a483015290911660c482015260e4016020604051808303818588803b151561315d57600080fd5b6125ee5a03f1151561316e57600080fd5b5050505060405180519550506000851161318757600080fd5b6131ae85610e8260065461214c30600160a060020a0316318661359a90919063ffffffff16565b935083601a898154811015156131c057fe5b90600052602060002090600702016002018190555061354e565b81600160a060020a03166370a082313060006040516020015260405160e060020a63ffffffff8416028152600160a060020a039091166004820152602401602060405180830381600087803b151561323157600080fd5b6102c65a03f1151561324257600080fd5b5050506040518051600354909750600160a060020a03808516925063095ea7b391168860006040516020015260405160e060020a63ffffffff8516028152600160a060020a0390921660048301526024820152604401602060405180830381600087803b15156132b157600080fd5b6102c65a03f115156132c257600080fd5b50505060405180515050601d54600160a060020a031663cb3c28c7838873eeeeeeeeeeeeeeeeeeeeeeeeeeeeeeeeeeeeeeee306b204fce5e3e2502611000000060018260006040516020015260405160e060020a63ffffffff8a16028152600160a060020a039788166004820152602481019690965293861660448601529185166064850152608484015260a483015290911660c482015260e401602060405180830381600087803b151561337657600080fd5b6102c65a03f1151561338757600080fd5b5050506040518051600354909650600160a060020a03808516925063095ea7b391166000806040516020015260405160e060020a63ffffffff8516028152600160a060020a0390921660048301526024820152604401602060405180830381600087803b15156133f657600080fd5b6102c65a03f1151561340757600080fd5b50505060405180515050600160a060020a0382166370a082313060006040516020015260405160e060020a63ffffffff8416028152600160a060020a039091166004820152602401602060405180830381600087803b151561346857600080fd5b6102c65a03f1151561347957600080fd5b50505060405180518711905061348e57600080fd5b61352661351283600160a060020a03166370a082313060006040516020015260405160e060020a63ffffffff8416028152600160a060020a039091166004820152602401602060405180830381600087803b15156134eb57600080fd5b6102c65a03f115156134fc57600080fd5b505050604051805189915063ffffffff61359a16565b600654610e8290889063ffffffff61355816565b935083601a8981548110151561353857fe5b9060005260206000209060070201600301819055505b5050505050505050565b60008083151561356b5760009150613009565b5082820282848281151561357b57fe5b041461300557fe5b600080828481151561359157fe5b04949350505050565b6000828211156135a657fe5b50900390565b60186000601a838154811015156135bf57fe5b60009182526020808320600790920290910154600160a060020a031683528281019390935260409182018120805460ff19169055928352601482528083208390556015909152812055565b600080600080925060075430600160a060020a03163111156136385760075430600160a060020a0316310392505b613653600654610e8285600e5461355890919063ffffffff16565b601255600654600f5461367b9190610e8290600160a060020a0330163163ffffffff61355816565b91506136a08261214060125430600160a060020a03163161359a90919063ffffffff16565b90507f13a18edb371d0a74be72de10b678893b96bc8a47e776bb122c59e21d53956fbd6005546007548360405180848152602001838152602001828152602001935050505060405180910390a16007819055600454600160a060020a031682156108fc0283604051600060405180830381858888f19350505050151561372557600080fd5b7facfa15ebe340982fef95d43aafc25d741382d7928a00055a209274fa615d527760055460125460405191825260208201526040908101905180910390a1505050565b5080546000825560070290600052602060002090810190610eb391906137ba565b8154818355818115116137b5576007028160070283600052602060002091820191016137b591906137ba565b505050565b610a1391905b8082111561381a57805473ffffffffffffffffffffffffffffffffffffffff19168155600060018201819055600282018190556003820181905560048201819055600582015560068101805460ff191690556007016137c0565b50905600a165627a7a7230582004651d1413c1f8ed3f937bbdadbf0c0ac0e6fcefd0c5879314edd82c225e3fbf0029",
  "source": "pragma solidity ^0.4.18;\r\n\r\nimport 'zeppelin-solidity/contracts/math/SafeMath.sol';\r\nimport 'zeppelin-solidity/contracts/math/Math.sol';\r\nimport 'zeppelin-solidity/contracts/lifecycle/Pausable.sol';\r\nimport './ControlToken.sol';\r\nimport './ShareToken.sol';\r\nimport './KyberNetwork.sol';\r\nimport './Utils.sol';\r\n\r\n/**\r\n * The main contract of the Betoken hedge fund\r\n */\r\ncontract BetokenFund is Pausable, Utils {\r\n  using SafeMath for uint256;\r\n\r\n  enum CyclePhase { ChangeMaking, Waiting, Finalizing, Finalized }\r\n\r\n  struct Proposal {\r\n    address tokenAddress;\r\n    uint256 cycleNumber;\r\n    uint256 buyPriceInWeis;\r\n    uint256 sellPriceInWeis;\r\n    uint256 numFor;\r\n    uint256 numAgainst;\r\n    bool isSold;\r\n  }\r\n\r\n  /**\r\n   * @dev Executes function only during the given cycle phase.\r\n   * @param phase the cycle phase during which the function may be called\r\n   */\r\n  modifier during(CyclePhase phase) {\r\n    require(cyclePhase == phase);\r\n    _;\r\n  }\r\n\r\n  modifier rewardCaller {\r\n    cToken.mint(msg.sender, functionCallReward);\r\n    _;\r\n  }\r\n\r\n  //Address of the control token contract.\r\n  address public controlTokenAddr;\r\n\r\n  //Address of the share token contract.\r\n  address public shareTokenAddr;\r\n\r\n  //Address of the KyberNetwork contract\r\n  address public kyberAddr;\r\n\r\n  //Address to which the developer fees will be paid.\r\n  address public developerFeeAccount;\r\n\r\n  //The number of the current investment cycle.\r\n  uint256 public cycleNumber;\r\n\r\n  //10^{decimals} used for representing fixed point numbers with {decimals} decimals.\r\n  uint256 public PRECISION;\r\n\r\n  //The amount of funds held by the fund.\r\n  uint256 public totalFundsInWeis;\r\n\r\n  //The start time for the current investment cycle phase, in seconds since Unix epoch.\r\n  uint256 public startTimeOfCyclePhase;\r\n\r\n  //Temporal length of change making period at start of each cycle, in seconds.\r\n  uint256 public timeOfChangeMaking;\r\n\r\n  //Temporal length of waiting period, in seconds.\r\n  uint256 public timeOfWaiting;\r\n\r\n  uint256 public timeOfFinalizing;\r\n\r\n  uint256 public timeBetweenCycles;\r\n\r\n  //Minimum proportion of Kairo balance people have to stake in support of a proposal. Fixed point decimal.\r\n  uint256 public minStakeProportion;\r\n\r\n  //The proportion of the fund that gets distributed to Kairo holders every cycle. Fixed point decimal.\r\n  uint256 public commissionRate;\r\n\r\n  //The proportion of contract balance that goes the the devs every cycle. Fixed point decimal.\r\n  uint256 public developerFeeProportion;\r\n\r\n  //Total Kairo staked in support of proposals this cycle.\r\n  uint256 public cycleTotalForStake;\r\n\r\n  //Amount of Kairo rewarded to the user who calls a phase transition/proposal handling function\r\n  uint256 public functionCallReward;\r\n\r\n  //Amount of commission to be paid out this cycle\r\n  uint256 public totalCommission;\r\n\r\n  //Flag for whether emergency withdrawing is allowed.\r\n  bool public allowEmergencyWithdraw;\r\n\r\n  //Mapping from Proposal to total amount of Control Tokens being staked by supporters.\r\n  mapping(uint256 => uint256) public forStakedControlOfProposal;\r\n  mapping(uint256 => uint256) public againstStakedControlOfProposal;\r\n\r\n  //mapping(proposalId => mapping(participantAddress => stakedTokensInWeis))\r\n  mapping(uint256 => mapping(address => uint256)) public forStakedControlOfProposalOfUser;\r\n  mapping(uint256 => mapping(address => uint256)) public againstStakedControlOfProposalOfUser;\r\n\r\n  //Mapping to check if a proposal for a token has already been made.\r\n  mapping(address => bool) public isTokenAlreadyProposed;\r\n\r\n  //The last cycle where a user redeemed commission.\r\n  mapping(address => uint256) public lastCommissionRedemption;\r\n\r\n  //List of proposals in the current cycle.\r\n  Proposal[] public proposals;\r\n\r\n  //The current cycle phase.\r\n  CyclePhase public cyclePhase;\r\n\r\n  //Contract instances\r\n  ControlToken internal cToken;\r\n  ShareToken internal sToken;\r\n  KyberNetwork internal kyber;\r\n\r\n  event CycleStarted(uint256 _cycleNumber, uint256 _timestamp);\r\n  event Deposit(uint256 _cycleNumber, address _sender, uint256 _amountInWeis, uint256 _timestamp);\r\n  event Withdraw(uint256 _cycleNumber, address _sender, uint256 _amountInWeis, uint256 _timestamp);\r\n  event NewProposal(uint256 _cycleNumber, uint256 _id, address _tokenAddress, uint256 _stakeInWeis);\r\n  event StakedProposal(uint256 _cycleNumber, uint256 _id, uint256 _stakeInWeis, bool _support);\r\n  event ChangeMakingTimeEnded(uint256 _cycleNumber, uint256 _timestamp);\r\n\r\n  event WaitingPhaseEnded(uint256 _cycleNumber, uint256 _timestamp);\r\n\r\n  event AssetSold(uint256 _cycleNumber, uint256 _proposalId);\r\n  event SellingPhaseEnded(uint256 _cycleNumber, uint256 _timestamp);\r\n\r\n  event ROI(uint256 _cycleNumber, uint256 _beforeTotalFunds, uint256 _afterTotalFunds);\r\n  event CommissionPaid(uint256 _cycleNumber, uint256 _totalCommissionInWeis);\r\n  event CycleFinalized(uint256 _cycleNumber, uint256 _timestamp);\r\n\r\n  /**\r\n   * Contract initialization functions\r\n   */\r\n\r\n  //Constructor\r\n  function BetokenFund(\r\n    address _cTokenAddr,\r\n    address _sTokenAddr,\r\n    address _kyberAddr,\r\n    address _developerFeeAccount,\r\n    uint256 _timeOfChangeMaking,\r\n    uint256 _timeOfWaiting,\r\n    uint256 _timeOfFinalizing,\r\n    uint256 _timeBetweenCycles,\r\n    uint256 _minStakeProportion,\r\n    uint256 _commissionRate,\r\n    uint256 _developerFeeProportion,\r\n    uint256 _cycleNumber,\r\n    uint256 _functionCallReward\r\n  )\r\n    public\r\n  {\r\n    require(_minStakeProportion < 10**18);\r\n    require(_commissionRate.add(_developerFeeProportion) < 10**18);\r\n\r\n    controlTokenAddr = _cTokenAddr;\r\n    shareTokenAddr = _sTokenAddr;\r\n    kyberAddr = _kyberAddr;\r\n    cToken = ControlToken(_cTokenAddr);\r\n    sToken = ShareToken(_sTokenAddr);\r\n    kyber = KyberNetwork(_kyberAddr);\r\n\r\n    developerFeeAccount = _developerFeeAccount;\r\n    timeOfChangeMaking = _timeOfChangeMaking;\r\n    timeOfWaiting = _timeOfWaiting;\r\n    timeOfFinalizing = _timeOfFinalizing;\r\n    timeBetweenCycles = _timeBetweenCycles;\r\n    minStakeProportion = _minStakeProportion;\r\n    commissionRate = _commissionRate;\r\n    developerFeeProportion = _developerFeeProportion;\r\n    startTimeOfCyclePhase = 0;\r\n    cyclePhase = CyclePhase.Finalized;\r\n    cycleNumber = _cycleNumber;\r\n    functionCallReward = _functionCallReward;\r\n    allowEmergencyWithdraw = false;\r\n  }\r\n\r\n  /**\r\n   * Getters\r\n   */\r\n\r\n  /**\r\n   * Returns the length of the proposals array.\r\n   * @return length of proposals array\r\n   */\r\n  function proposalsCount() public view returns(uint256 _count) {\r\n    return proposals.length;\r\n  }\r\n\r\n  /**\r\n   * Meta functions\r\n   */\r\n\r\n  /**\r\n   * Emergency functions\r\n   */\r\n\r\n  /**\r\n   * @dev In case the fund is invested in tokens, sell all tokens.\r\n   */\r\n  function emergencyDumpAllTokens() onlyOwner whenPaused public {\r\n    for (uint256 i = 0; i < proposals.length; i = i.add(1)) {\r\n      emergencyDumpToken(i);\r\n    }\r\n  }\r\n\r\n  function emergencyDumpToken(uint256 _proposalId) onlyOwner whenPaused public {\r\n    if (__proposalIsValid(_proposalId)) { //Ensure proposal isn't a deleted one\r\n      __handleInvestment(_proposalId, false);\r\n    }\r\n  }\r\n\r\n  /**\r\n   * @dev Return staked Kairos for a proposal under emergency situations.\r\n   */\r\n  function emergencyRedeemStake(uint256 _proposalId) whenPaused public {\r\n    require(allowEmergencyWithdraw);\r\n    uint256 stake = forStakedControlOfProposalOfUser[_proposalId][msg.sender].add(againstStakedControlOfProposalOfUser[_proposalId][msg.sender]);\r\n    delete forStakedControlOfProposalOfUser[_proposalId][msg.sender];\r\n    delete againstStakedControlOfProposalOfUser[_proposalId][msg.sender];\r\n    cToken.transfer(msg.sender, stake);\r\n  }\r\n\r\n  /**\r\n   * @dev Update current fund balance\r\n   */\r\n  function emergencyRedistBalances() onlyOwner whenPaused public {\r\n    totalFundsInWeis = this.balance;\r\n  }\r\n\r\n  function setAllowEmergencyWithdraw(bool _val) onlyOwner whenPaused public {\r\n    allowEmergencyWithdraw = _val;\r\n  }\r\n\r\n  /**\r\n   * @dev Function for withdrawing all funds in times of emergency. Only callable when fund is paused.\r\n   */\r\n  function emergencyWithdraw()\r\n    public\r\n    whenPaused\r\n  {\r\n    require(allowEmergencyWithdraw);\r\n\r\n    uint256 amountInWeis = sToken.balanceOf(msg.sender).mul(totalFundsInWeis).div(sToken.totalSupply());\r\n    sToken.ownerBurn(msg.sender, sToken.balanceOf(msg.sender));\r\n    totalFundsInWeis = totalFundsInWeis.sub(amountInWeis);\r\n\r\n    //Transfer\r\n    msg.sender.transfer(amountInWeis);\r\n\r\n    //Emit event\r\n    Withdraw(cycleNumber, msg.sender, amountInWeis, now);\r\n  }\r\n\r\n  /**\r\n   * Parameter setters\r\n   */\r\n\r\n  /**\r\n   * @dev Changes the address of the KyberNetwork contract used in the contract. Only callable by owner.\r\n   * @param _newAddr new address of KyberNetwork contract\r\n   */\r\n  function changeKyberNetworkAddress(address _newAddr) public onlyOwner whenPaused {\r\n    require(_newAddr != address(0));\r\n    kyberAddr = _newAddr;\r\n    kyber = KyberNetwork(_newAddr);\r\n  }\r\n\r\n  /**\r\n   * @dev Changes the address to which the developer fees will be sent. Only callable by owner.\r\n   * @param _newAddr new developer fee address\r\n   */\r\n  function changeDeveloperFeeAccount(address _newAddr) public onlyOwner {\r\n    require(_newAddr != address(0));\r\n    developerFeeAccount = _newAddr;\r\n  }\r\n\r\n  /**\r\n   * @dev Changes the proportion of fund balance sent to the developers each cycle. May only decrease. Only callable by owner.\r\n   * @param _newProp the new proportion, fixed point decimal\r\n   */\r\n  function changeDeveloperFeeProportion(uint256 _newProp) public onlyOwner {\r\n    require(_newProp < developerFeeProportion);\r\n    developerFeeProportion = _newProp;\r\n  }\r\n\r\n  /**\r\n   * @dev Changes the proportion of fund balance given to Kairo holders each cycle. Only callable by owner.\r\n   * @param _newProp the new proportion, fixed point decimal\r\n   */\r\n  function changeCommissionRate(uint256 _newProp) public onlyOwner {\r\n    commissionRate = _newProp;\r\n  }\r\n\r\n  /**\r\n   * @dev Changes the owner of the ControlToken contract.\r\n   * @param  _newOwner the new owner address\r\n   */\r\n  function changeControlTokenOwner(address _newOwner) public onlyOwner whenPaused {\r\n    require(_newOwner != address(0));\r\n    cToken.transferOwnership(_newOwner);\r\n  }\r\n\r\n  /**\r\n   * @dev Changes the owner of the ShareToken contract.\r\n   * @param  _newOwner the new owner address\r\n   */\r\n  function changeShareTokenOwner(address _newOwner) public onlyOwner whenPaused {\r\n    require(_newOwner != address(0));\r\n    sToken.transferOwnership(_newOwner);\r\n  }\r\n\r\n  /**\r\n   * Start cycle functions\r\n   */\r\n\r\n  /**\r\n   * @dev Starts a new investment cycle.\r\n   */\r\n  function startNewCycle() public during(CyclePhase.Finalized) whenNotPaused rewardCaller {\r\n    require(now >= startTimeOfCyclePhase.add(timeBetweenCycles));\r\n\r\n    //Update values\r\n    cyclePhase = CyclePhase.ChangeMaking;\r\n    startTimeOfCyclePhase = now;\r\n    cycleNumber = cycleNumber.add(1);\r\n\r\n    if (cToken.paused()) {\r\n      cToken.unpause();\r\n    }\r\n\r\n    //Reset data\r\n    for (uint256 i = 0; i < proposals.length; i = i.add(1)) {\r\n      __resetProposalData(i);\r\n    }\r\n    delete proposals;\r\n    delete cycleTotalForStake;\r\n\r\n    //Emit event\r\n    CycleStarted(cycleNumber, now);\r\n  }\r\n\r\n  /**\r\n   * @dev Resets cycle specific data for a give proposal\r\n   * @param _proposalId ID of proposal whose data will be reset\r\n   */\r\n  function __resetProposalData(uint256 _proposalId) internal {\r\n    delete isTokenAlreadyProposed[proposals[_proposalId].tokenAddress];\r\n    delete forStakedControlOfProposal[_proposalId];\r\n    delete againstStakedControlOfProposal[_proposalId];\r\n  }\r\n\r\n  /**\r\n   * ChangeMakingTime functions\r\n   */\r\n\r\n  /**\r\n   * @dev Deposit Ether into the fund.\r\n   */\r\n  function deposit()\r\n    public\r\n    payable\r\n    during(CyclePhase.ChangeMaking)\r\n    whenNotPaused\r\n  {\r\n    //Register investment\r\n    if (cycleNumber == 1) {\r\n      sToken.mint(msg.sender, msg.value);\r\n    } else {\r\n      sToken.mint(msg.sender, msg.value.mul(sToken.totalSupply()).div(totalFundsInWeis));\r\n    }\r\n    totalFundsInWeis = totalFundsInWeis.add(msg.value);\r\n\r\n    //Give control tokens proportional to investment\r\n    //Uncomment if statement if not test version\r\n    //if (cycleNumber == 1) {\r\n      cToken.mint(msg.sender, msg.value);\r\n    //}\r\n\r\n    //Emit event\r\n    Deposit(cycleNumber, msg.sender, msg.value, now);\r\n  }\r\n\r\n  /**\r\n   * @dev Withdraws a certain amount of Ether from the user's account. Cannot be called during the first cycle.\r\n   * @param _amountInWeis amount of Ether to be withdrawn\r\n   */\r\n  function withdraw(uint256 _amountInWeis)\r\n    public\r\n    during(CyclePhase.ChangeMaking)\r\n    whenNotPaused\r\n  {\r\n    require(cycleNumber != 1);\r\n\r\n    //Subtract from account\r\n    sToken.ownerBurn(msg.sender, _amountInWeis.mul(sToken.totalSupply()).div(totalFundsInWeis));\r\n    totalFundsInWeis = totalFundsInWeis.sub(_amountInWeis);\r\n\r\n    //Transfer Ether to user\r\n    msg.sender.transfer(_amountInWeis);\r\n\r\n    //Emit event\r\n    Withdraw(cycleNumber, msg.sender, _amountInWeis, now);\r\n  }\r\n\r\n  /**\r\n   * @dev Creates a new investment proposal for an ERC20 token.\r\n   * @param _tokenAddress address of the ERC20 token contract\r\n   * @param _stakeInWeis amount of Kairos to be staked in support of the proposal\r\n   */\r\n  function createProposal(\r\n    address _tokenAddress,\r\n    uint256 _stakeInWeis\r\n  )\r\n    public\r\n    during(CyclePhase.ChangeMaking)\r\n    whenNotPaused\r\n  {\r\n    require(!isTokenAlreadyProposed[_tokenAddress]);\r\n\r\n    //Add proposal to list\r\n    proposals.push(Proposal({\r\n      tokenAddress: _tokenAddress,\r\n      cycleNumber: cycleNumber,\r\n      buyPriceInWeis: 0,\r\n      sellPriceInWeis: 0,\r\n      numFor: 0,\r\n      numAgainst: 0,\r\n      isSold: false\r\n    }));\r\n\r\n    //Update values about proposal\r\n    isTokenAlreadyProposed[_tokenAddress] = true;\r\n\r\n    //Stake control tokens\r\n    uint256 proposalId = proposals.length - 1;\r\n    stakeProposal(proposalId, _stakeInWeis, true);\r\n\r\n    //Emit event\r\n    NewProposal(cycleNumber, proposalId, _tokenAddress, _stakeInWeis);\r\n  }\r\n\r\n  /**\r\n   * @dev Stakes for or against an investment proposal.\r\n   * @param _proposalId ID of the proposal the user wants to support\r\n   * @param _stakeInWeis amount of Kairo to be staked in support of the proposal\r\n   */\r\n  function stakeProposal(uint256 _proposalId, uint256 _stakeInWeis, bool _support)\r\n    public\r\n    during(CyclePhase.ChangeMaking)\r\n    whenNotPaused\r\n  {\r\n    require(_proposalId < proposals.length); //Valid ID\r\n    require(isTokenAlreadyProposed[proposals[_proposalId].tokenAddress]); //Non-empty proposal\r\n\r\n    /**\r\n     * Stake Kairos\r\n     */\r\n    //Ensure stake is larger than the minimum proportion of Kairo balance\r\n    require(_stakeInWeis.mul(PRECISION) >= minStakeProportion.mul(cToken.balanceOf(msg.sender)));\r\n    require(_stakeInWeis > 0); //Ensure positive stake amount\r\n\r\n    //Collect Kairos as stake\r\n    cToken.ownerCollectFrom(msg.sender, _stakeInWeis);\r\n\r\n    //Update stake data\r\n    if (_support && againstStakedControlOfProposalOfUser[_proposalId][msg.sender] == 0) {\r\n      //Support proposal, hasn't staked against it\r\n      if (forStakedControlOfProposalOfUser[_proposalId][msg.sender] == 0) {\r\n        proposals[_proposalId].numFor = proposals[_proposalId].numFor.add(1);\r\n      }\r\n      forStakedControlOfProposal[_proposalId] = forStakedControlOfProposal[_proposalId].add(_stakeInWeis);\r\n      forStakedControlOfProposalOfUser[_proposalId][msg.sender] = forStakedControlOfProposalOfUser[_proposalId][msg.sender].add(_stakeInWeis);\r\n      cycleTotalForStake = cycleTotalForStake.add(_stakeInWeis);\r\n    } else if (!_support && forStakedControlOfProposalOfUser[_proposalId][msg.sender] == 0) {\r\n      //Against proposal, hasn't staked for it\r\n      if (againstStakedControlOfProposalOfUser[_proposalId][msg.sender] == 0) {\r\n        proposals[_proposalId].numAgainst = proposals[_proposalId].numAgainst.add(1);\r\n      }\r\n      againstStakedControlOfProposal[_proposalId] = againstStakedControlOfProposal[_proposalId].add(_stakeInWeis);\r\n      againstStakedControlOfProposalOfUser[_proposalId][msg.sender] = againstStakedControlOfProposalOfUser[_proposalId][msg.sender].add(_stakeInWeis);\r\n    } else {\r\n      revert();\r\n    }\r\n\r\n    //Emit event\r\n    StakedProposal(cycleNumber, _proposalId, _stakeInWeis, _support);\r\n  }\r\n\r\n  /**\r\n   * @dev Cancels staking in a proposal.\r\n   * @param _proposalId ID of the proposal\r\n   */\r\n  function cancelProposalStake(uint256 _proposalId)\r\n    public\r\n    during(CyclePhase.ChangeMaking)\r\n    whenNotPaused\r\n  {\r\n    require(_proposalId < proposals.length); //Valid ID\r\n    require(__proposalIsValid(_proposalId)); //Non-empty proposal\r\n\r\n    //Remove stake data\r\n    uint256 forStake = forStakedControlOfProposalOfUser[_proposalId][msg.sender];\r\n    uint256 againstStake = againstStakedControlOfProposalOfUser[_proposalId][msg.sender];\r\n    uint256 stake = forStake.add(againstStake);\r\n    if (forStake > 0) {\r\n      forStakedControlOfProposal[_proposalId] = forStakedControlOfProposal[_proposalId].sub(stake);\r\n      cycleTotalForStake = cycleTotalForStake.sub(stake);\r\n      proposals[_proposalId].numFor = proposals[_proposalId].numFor.sub(1);\r\n    } else if (againstStake > 0) {\r\n      againstStakedControlOfProposal[_proposalId] = againstStakedControlOfProposal[_proposalId].sub(stake);\r\n      proposals[_proposalId].numAgainst = proposals[_proposalId].numAgainst.sub(1);\r\n    } else {\r\n      return;\r\n    }\r\n\r\n    delete forStakedControlOfProposalOfUser[_proposalId][msg.sender];\r\n    delete againstStakedControlOfProposalOfUser[_proposalId][msg.sender];\r\n\r\n    //Return stake\r\n    cToken.transfer(msg.sender, stake);\r\n\r\n    //Delete proposal if necessary\r\n    if (proposals[_proposalId].numFor == 0) {\r\n      __resetProposalData(_proposalId);\r\n    }\r\n  }\r\n\r\n  /**\r\n   * @dev Returns Kairos staked on the opposing side of a deleted proposal. Can only do so within the same cycle as the\r\n   *  proposal.\r\n   * @param _proposalId ID of the proposal\r\n   */\r\n  function redeemStakeFromDeletedProposal(uint256 _proposalId)\r\n    public\r\n    whenNotPaused\r\n  {\r\n    require(!__proposalIsValid(_proposalId));\r\n    require(proposals[_proposalId].cycleNumber == cycleNumber); //Prevent getting back stake from previous cycles\r\n    uint256 stake = againstStakedControlOfProposalOfUser[_proposalId][msg.sender];\r\n    require(stake > 0);\r\n    delete againstStakedControlOfProposalOfUser[_proposalId][msg.sender];\r\n    cToken.transfer(msg.sender, stake);\r\n  }\r\n\r\n  /**\r\n   * @dev Ends the ChangeMaking phase.\r\n   */\r\n  function endChangeMakingTime() public during(CyclePhase.ChangeMaking) whenNotPaused rewardCaller {\r\n    require(now >= startTimeOfCyclePhase.add(timeOfChangeMaking));\r\n\r\n    startTimeOfCyclePhase = now;\r\n    cyclePhase = CyclePhase.Waiting;\r\n\r\n    ChangeMakingTimeEnded(cycleNumber, now);\r\n  }\r\n\r\n  /**\r\n   * Waiting phase functions\r\n   */\r\n\r\n  /**\r\n   * @dev Called by user to buy the assets of a proposal\r\n   * @param _proposalId the ID of the proposal\r\n   */\r\n  function executeProposal(uint256 _proposalId)\r\n    public\r\n    during(CyclePhase.Waiting)\r\n    whenNotPaused\r\n    rewardCaller\r\n  {\r\n    require(__proposalIsValid(_proposalId));\r\n    require(proposals[_proposalId].buyPriceInWeis == 0);\r\n    __handleInvestment(_proposalId, true);\r\n  }\r\n\r\n  function endWaitingPhase()\r\n    public\r\n    during(CyclePhase.Waiting)\r\n    whenNotPaused\r\n    rewardCaller\r\n  {\r\n    require(now >= startTimeOfCyclePhase.add(timeOfWaiting));\r\n\r\n    startTimeOfCyclePhase = now;\r\n    cyclePhase = CyclePhase.Finalizing;\r\n\r\n    WaitingPhaseEnded(cycleNumber, now);\r\n  }\r\n\r\n  /**\r\n   * Finalizing phase functions\r\n   */\r\n\r\n  /**\r\n   * @dev Called by user to sell the assets a proposal invested in\r\n   * @param _proposalId the ID of the proposal\r\n   */\r\n  function sellProposalAsset(uint256 _proposalId)\r\n    public\r\n    during(CyclePhase.Finalizing)\r\n    whenNotPaused\r\n    rewardCaller\r\n  {\r\n    require(__proposalIsValid(_proposalId));\r\n    require(proposals[_proposalId].buyPriceInWeis > 0);\r\n    __handleInvestment(_proposalId, false);\r\n    proposals[_proposalId].isSold = true;\r\n  }\r\n\r\n  /**\r\n   * @dev Redeems the Kairo stake and reward for a particular proposal\r\n   * @param _proposalId the ID of the proposal\r\n   */\r\n  function redeemKairos(uint256 _proposalId)\r\n    public\r\n    during(CyclePhase.Finalizing)\r\n    whenNotPaused\r\n  {\r\n    Proposal storage prop = proposals[_proposalId];\r\n    require(prop.isSold);\r\n\r\n    uint256 forMultiplier = prop.sellPriceInWeis.mul(PRECISION).div(prop.buyPriceInWeis);\r\n    uint256 againstMultiplier = 0;\r\n    if (prop.sellPriceInWeis < prop.buyPriceInWeis.mul(2)) {\r\n      againstMultiplier = prop.buyPriceInWeis.mul(2).sub(prop.sellPriceInWeis).mul(PRECISION).div(prop.buyPriceInWeis);\r\n    }\r\n\r\n    uint256 stake = 0;\r\n    if (forStakedControlOfProposalOfUser[_proposalId][msg.sender] > 0) {\r\n      //User supports proposal\r\n      stake = forStakedControlOfProposalOfUser[_proposalId][msg.sender];\r\n      //Mint instead of transfer. Ensures that there are always enough tokens.\r\n      //Extra will be burnt right after so no problem there.\r\n      cToken.mint(msg.sender, stake.mul(forMultiplier).div(PRECISION));\r\n      delete forStakedControlOfProposalOfUser[_proposalId][msg.sender];\r\n    } else if (againstStakedControlOfProposalOfUser[_proposalId][msg.sender] > 0) {\r\n      //User is against proposal\r\n      stake = againstStakedControlOfProposalOfUser[_proposalId][msg.sender];\r\n      //Mint instead of transfer. Ensures that there are always enough tokens.\r\n      //Extra will be burnt right after so no problem there.\r\n      cToken.mint(msg.sender, stake.mul(againstMultiplier).div(PRECISION));\r\n      delete againstStakedControlOfProposalOfUser[_proposalId][msg.sender];\r\n    }\r\n  }\r\n\r\n  /**\r\n   * @dev Finalize the cycle by redistributing user balances and settling investment proposals.\r\n   */\r\n  function finalizeCycle() public during(CyclePhase.Finalizing) whenNotPaused rewardCaller {\r\n    require(now >= startTimeOfCyclePhase.add(timeOfFinalizing));\r\n\r\n    //Update cycle values\r\n    startTimeOfCyclePhase = now;\r\n    cyclePhase = CyclePhase.Finalized;\r\n\r\n    //Burn any Kairo left in BetokenFund's account\r\n    cToken.burnOwnerBalance();\r\n\r\n    cToken.pause();\r\n\r\n    //Distribute funds\r\n    __distributeFundsAfterCycleEnd();\r\n\r\n    //Emit event\r\n    CycleFinalized(cycleNumber, now);\r\n  }\r\n\r\n  /**\r\n   * Finalized phase functions\r\n   */\r\n\r\n  function redeemCommission()\r\n    public\r\n    during(CyclePhase.Finalized)\r\n    whenNotPaused\r\n  {\r\n    require(lastCommissionRedemption[msg.sender] < cycleNumber);\r\n    lastCommissionRedemption[msg.sender] = cycleNumber;\r\n    msg.sender.transfer(totalCommission.mul(cToken.balanceOf(msg.sender)).div(cToken.totalSupply()));\r\n  }\r\n\r\n  /**\r\n   * Internal use functions\r\n   */\r\n\r\n  function __proposalIsValid(uint256 _proposalId) internal view returns (bool) {\r\n    return proposals[_proposalId].numFor > 0;\r\n  }\r\n\r\n  /**\r\n   * @dev Distributes the funds accourding to previously held proportions. Pays commission to Kairo holders,\r\n   * and developer fees to developers.\r\n   */\r\n  function __distributeFundsAfterCycleEnd() internal {\r\n    uint256 profit = 0;\r\n    if (this.balance > totalFundsInWeis) {\r\n      profit = this.balance - totalFundsInWeis;\r\n    }\r\n    totalCommission = commissionRate.mul(profit).div(PRECISION);\r\n    uint256 devFee = developerFeeProportion.mul(this.balance).div(PRECISION);\r\n    uint256 newTotalFunds = this.balance.sub(totalCommission).sub(devFee);\r\n\r\n    //Update values\r\n    ROI(cycleNumber, totalFundsInWeis, newTotalFunds);\r\n    totalFundsInWeis = newTotalFunds;\r\n\r\n    //Transfer fees\r\n    developerFeeAccount.transfer(devFee);\r\n\r\n    //Emit event\r\n    CommissionPaid(cycleNumber, totalCommission);\r\n  }\r\n\r\n  function __handleInvestment(uint256 _proposalId, bool _buy) internal {\r\n    uint256 srcAmount;\r\n    uint256 actualDestAmount;\r\n    uint256 actualRate;\r\n    address destAddr = proposals[_proposalId].tokenAddress;\r\n    DetailedERC20 destToken = DetailedERC20(destAddr);\r\n\r\n    if (_buy) {\r\n      //Make buy orders\r\n\r\n      //Calculate investment amount\r\n      srcAmount = totalFundsInWeis.mul(forStakedControlOfProposal[_proposalId]).div(cycleTotalForStake);\r\n\r\n      uint256 beforeBalance = this.balance;\r\n\r\n      //Do trade\r\n      actualDestAmount = kyber.trade.value(srcAmount)(\r\n        ETH_TOKEN_ADDRESS,\r\n        srcAmount,\r\n        destToken,\r\n        address(this),\r\n        MAX_QTY,\r\n        1,\r\n        address(this)\r\n      );\r\n\r\n      //Record buy price\r\n      require(actualDestAmount > 0);\r\n      actualRate = beforeBalance.sub(this.balance).mul(PRECISION).div(actualDestAmount);\r\n      proposals[_proposalId].buyPriceInWeis = actualRate;\r\n    } else {\r\n      //Make sell orders\r\n\r\n      //Get sell amount\r\n      srcAmount = destToken.balanceOf(address(this));\r\n\r\n      //Do trade\r\n      destToken.approve(kyberAddr, srcAmount);\r\n      actualDestAmount = kyber.trade(\r\n        destToken,\r\n        srcAmount,\r\n        ETH_TOKEN_ADDRESS,\r\n        address(this),\r\n        MAX_QTY,\r\n        1,\r\n        address(this)\r\n      );\r\n      destToken.approve(kyberAddr, 0);\r\n\r\n      //Record sell price\r\n      require(srcAmount > destToken.balanceOf(address(this)));\r\n      actualRate = actualDestAmount.mul(PRECISION).div(srcAmount.sub(destToken.balanceOf(address(this))));\r\n      proposals[_proposalId].sellPriceInWeis = actualRate;\r\n    }\r\n  }\r\n\r\n  function() public payable {\r\n    if (msg.sender != kyberAddr) {\r\n      revert();\r\n    }\r\n  }\r\n}",
  "sourcePath": "D:\\msi-cn\\Documents\\GitHub\\betoken\\eth\\contracts\\BetokenFund.sol",
  "compiler": {
    "name": "solc",
    "version": "0.4.19+commit.c4cbbb05.Emscripten.clang"
  },
  "schemaVersion": "2.0.0",
  "updatedAt": "2018-03-11T21:25:21.248Z"
}