{
  "contractName": "BetokenFund",
  "abi": [
    {
      "constant": true,
      "inputs": [
        {
          "name": "",
          "type": "uint256"
        }
      ],
      "name": "proposals",
      "outputs": [
        {
          "name": "tokenAddress",
          "type": "address"
        },
        {
          "name": "tokenSymbol",
          "type": "string"
        },
        {
          "name": "tokenDecimals",
          "type": "uint256"
        },
        {
          "name": "buyPriceInWeis",
          "type": "uint256"
        },
        {
          "name": "sellPriceInWeis",
          "type": "uint256"
        },
        {
          "name": "buyOrderExpirationBlockNum",
          "type": "uint256"
        },
        {
          "name": "sellOrderExpirationBlockNum",
          "type": "uint256"
        },
        {
          "name": "numFor",
          "type": "uint256"
        },
        {
          "name": "numAgainst",
          "type": "uint256"
        }
      ],
      "payable": false,
      "stateMutability": "view",
      "type": "function"
    },
    {
      "constant": true,
      "inputs": [],
      "name": "creator",
      "outputs": [
        {
          "name": "",
          "type": "address"
        }
      ],
      "payable": false,
      "stateMutability": "view",
      "type": "function"
    },
    {
      "constant": true,
      "inputs": [],
      "name": "proposalsCount",
      "outputs": [
        {
          "name": "_count",
          "type": "uint256"
        }
      ],
      "payable": false,
      "stateMutability": "view",
      "type": "function"
    },
    {
      "constant": true,
      "inputs": [
        {
          "name": "",
          "type": "uint256"
        },
        {
          "name": "",
          "type": "address"
        }
      ],
      "name": "forStakedControlOfProposalOfUser",
      "outputs": [
        {
          "name": "",
          "type": "uint256"
        }
      ],
      "payable": false,
      "stateMutability": "view",
      "type": "function"
    },
    {
      "constant": true,
      "inputs": [
        {
          "name": "",
          "type": "address"
        }
      ],
      "name": "userStakedProposalCount",
      "outputs": [
        {
          "name": "",
          "type": "uint256"
        }
      ],
      "payable": false,
      "stateMutability": "view",
      "type": "function"
    },
    {
      "constant": true,
      "inputs": [],
      "name": "initialized",
      "outputs": [
        {
          "name": "",
          "type": "bool"
        }
      ],
      "payable": false,
      "stateMutability": "view",
      "type": "function"
    },
    {
      "constant": true,
      "inputs": [],
      "name": "developerFeeAccount",
      "outputs": [
        {
          "name": "",
          "type": "address"
        }
      ],
      "payable": false,
      "stateMutability": "view",
      "type": "function"
    },
    {
      "constant": true,
      "inputs": [],
      "name": "minStakeProportion",
      "outputs": [
        {
          "name": "",
          "type": "uint256"
        }
      ],
      "payable": false,
      "stateMutability": "view",
      "type": "function"
    },
    {
      "constant": true,
      "inputs": [],
      "name": "startTimeOfCyclePhase",
      "outputs": [
        {
          "name": "",
          "type": "uint256"
        }
      ],
      "payable": false,
      "stateMutability": "view",
      "type": "function"
    },
    {
      "constant": true,
      "inputs": [],
      "name": "timeOfChangeMaking",
      "outputs": [
        {
          "name": "",
          "type": "uint256"
        }
      ],
      "payable": false,
      "stateMutability": "view",
      "type": "function"
    },
    {
      "constant": false,
      "inputs": [
        {
          "name": "_amountInWeis",
          "type": "uint256"
        }
      ],
      "name": "withdraw",
      "outputs": [],
      "payable": false,
      "stateMutability": "nonpayable",
      "type": "function"
    },
    {
      "constant": true,
      "inputs": [
        {
          "name": "",
          "type": "uint256"
        },
        {
          "name": "",
          "type": "address"
        }
      ],
      "name": "againstStakedControlOfProposalOfUser",
      "outputs": [
        {
          "name": "",
          "type": "uint256"
        }
      ],
      "payable": false,
      "stateMutability": "view",
      "type": "function"
    },
    {
      "constant": true,
      "inputs": [],
      "name": "maxProposals",
      "outputs": [
        {
          "name": "",
          "type": "uint256"
        }
      ],
      "payable": false,
      "stateMutability": "view",
      "type": "function"
    },
    {
      "constant": true,
      "inputs": [],
      "name": "cycleNumber",
      "outputs": [
        {
          "name": "",
          "type": "uint256"
        }
      ],
      "payable": false,
      "stateMutability": "view",
      "type": "function"
    },
    {
      "constant": false,
      "inputs": [
        {
          "name": "_newAddr",
          "type": "address"
        }
      ],
      "name": "changeOraclizeAddress",
      "outputs": [],
      "payable": false,
      "stateMutability": "nonpayable",
      "type": "function"
    },
    {
      "constant": true,
      "inputs": [
        {
          "name": "",
          "type": "uint256"
        }
      ],
      "name": "participants",
      "outputs": [
        {
          "name": "",
          "type": "address"
        }
      ],
      "payable": false,
      "stateMutability": "view",
      "type": "function"
    },
    {
      "constant": false,
      "inputs": [],
      "name": "unpause",
      "outputs": [],
      "payable": false,
      "stateMutability": "nonpayable",
      "type": "function"
    },
    {
      "constant": true,
      "inputs": [],
      "name": "numProposals",
      "outputs": [
        {
          "name": "",
          "type": "uint256"
        }
      ],
      "payable": false,
      "stateMutability": "view",
      "type": "function"
    },
    {
      "constant": true,
      "inputs": [
        {
          "name": "",
          "type": "address"
        }
      ],
      "name": "isTokenAlreadyProposed",
      "outputs": [
        {
          "name": "",
          "type": "bool"
        }
      ],
      "payable": false,
      "stateMutability": "view",
      "type": "function"
    },
    {
      "constant": true,
      "inputs": [],
      "name": "timeOfWaiting",
      "outputs": [
        {
          "name": "",
          "type": "uint256"
        }
      ],
      "payable": false,
      "stateMutability": "view",
      "type": "function"
    },
    {
      "constant": false,
      "inputs": [],
      "name": "topupOraclizeFees",
      "outputs": [],
      "payable": true,
      "stateMutability": "payable",
      "type": "function"
    },
    {
      "constant": true,
      "inputs": [],
      "name": "paused",
      "outputs": [
        {
          "name": "",
          "type": "bool"
        }
      ],
      "payable": false,
      "stateMutability": "view",
      "type": "function"
    },
    {
      "constant": true,
      "inputs": [],
      "name": "commissionRate",
      "outputs": [
        {
          "name": "",
          "type": "uint256"
        }
      ],
      "payable": false,
      "stateMutability": "view",
      "type": "function"
    },
    {
      "constant": false,
      "inputs": [
        {
          "name": "_newProp",
          "type": "uint256"
        }
      ],
      "name": "changeDeveloperFeeProportion",
      "outputs": [],
      "payable": false,
      "stateMutability": "nonpayable",
      "type": "function"
    },
    {
      "constant": false,
      "inputs": [
        {
          "name": "_newProp",
          "type": "uint256"
        }
      ],
      "name": "changeCommissionRate",
      "outputs": [],
      "payable": false,
      "stateMutability": "nonpayable",
      "type": "function"
    },
    {
      "constant": false,
      "inputs": [
        {
          "name": "_tokenAddress",
          "type": "address"
        },
        {
          "name": "_tokenSymbol",
          "type": "string"
        },
        {
          "name": "_tokenDecimals",
          "type": "uint256"
        },
        {
          "name": "_stakeInWeis",
          "type": "uint256"
        }
      ],
      "name": "createProposal",
      "outputs": [],
      "payable": false,
      "stateMutability": "nonpayable",
      "type": "function"
    },
    {
      "constant": true,
      "inputs": [
        {
          "name": "",
          "type": "address"
        }
      ],
      "name": "balanceOf",
      "outputs": [
        {
          "name": "",
          "type": "uint256"
        }
      ],
      "payable": false,
      "stateMutability": "view",
      "type": "function"
    },
    {
      "constant": true,
      "inputs": [],
      "name": "totalFundsInWeis",
      "outputs": [
        {
          "name": "",
          "type": "uint256"
        }
      ],
      "payable": false,
      "stateMutability": "view",
      "type": "function"
    },
    {
      "constant": false,
      "inputs": [],
      "name": "startNewCycle",
      "outputs": [],
      "payable": false,
      "stateMutability": "nonpayable",
      "type": "function"
    },
    {
      "constant": true,
      "inputs": [],
      "name": "maxProposalsPerMember",
      "outputs": [
        {
          "name": "",
          "type": "uint256"
        }
      ],
      "payable": false,
      "stateMutability": "view",
      "type": "function"
    },
    {
      "constant": true,
      "inputs": [],
      "name": "orderExpirationTimeInBlocks",
      "outputs": [
        {
          "name": "",
          "type": "uint256"
        }
      ],
      "payable": false,
      "stateMutability": "view",
      "type": "function"
    },
    {
      "constant": false,
      "inputs": [],
      "name": "pause",
      "outputs": [],
      "payable": false,
      "stateMutability": "nonpayable",
      "type": "function"
    },
    {
      "constant": false,
      "inputs": [
        {
          "name": "_cTokenAddr",
          "type": "address"
        },
        {
          "name": "_oraclizeAddr",
          "type": "address"
        }
      ],
      "name": "initializeSubcontracts",
      "outputs": [],
      "payable": false,
      "stateMutability": "nonpayable",
      "type": "function"
    },
    {
      "constant": false,
      "inputs": [],
      "name": "endWaitingTime",
      "outputs": [],
      "payable": false,
      "stateMutability": "nonpayable",
      "type": "function"
    },
    {
      "constant": true,
      "inputs": [],
      "name": "owner",
      "outputs": [
        {
          "name": "",
          "type": "address"
        }
      ],
      "payable": false,
      "stateMutability": "view",
      "type": "function"
    },
    {
      "constant": false,
      "inputs": [
        {
          "name": "_proposalId",
          "type": "uint256"
        }
      ],
      "name": "cancelProposalSupport",
      "outputs": [],
      "payable": false,
      "stateMutability": "nonpayable",
      "type": "function"
    },
    {
      "constant": false,
      "inputs": [],
      "name": "endProposalMakingTime",
      "outputs": [],
      "payable": false,
      "stateMutability": "nonpayable",
      "type": "function"
    },
    {
      "constant": true,
      "inputs": [
        {
          "name": "",
          "type": "address"
        }
      ],
      "name": "isParticipant",
      "outputs": [
        {
          "name": "",
          "type": "bool"
        }
      ],
      "payable": false,
      "stateMutability": "view",
      "type": "function"
    },
    {
      "constant": true,
      "inputs": [],
      "name": "etherDeltaAddr",
      "outputs": [
        {
          "name": "",
          "type": "address"
        }
      ],
      "payable": false,
      "stateMutability": "view",
      "type": "function"
    },
    {
      "constant": true,
      "inputs": [],
      "name": "timeOfSellOrderWaiting",
      "outputs": [
        {
          "name": "",
          "type": "uint256"
        }
      ],
      "payable": false,
      "stateMutability": "view",
      "type": "function"
    },
    {
      "constant": true,
      "inputs": [],
      "name": "oraclizeAddr",
      "outputs": [
        {
          "name": "",
          "type": "address"
        }
      ],
      "payable": false,
      "stateMutability": "view",
      "type": "function"
    },
    {
      "constant": true,
      "inputs": [
        {
          "name": "",
          "type": "uint256"
        }
      ],
      "name": "againstStakedControlOfProposal",
      "outputs": [
        {
          "name": "",
          "type": "uint256"
        }
      ],
      "payable": false,
      "stateMutability": "view",
      "type": "function"
    },
    {
      "constant": false,
      "inputs": [
        {
          "name": "_proposalId",
          "type": "uint256"
        },
        {
          "name": "_buyPrice",
          "type": "uint256"
        },
        {
          "name": "_expires",
          "type": "uint256"
        }
      ],
      "name": "__setBuyPriceAndExpirationBlock",
      "outputs": [],
      "payable": false,
      "stateMutability": "nonpayable",
      "type": "function"
    },
    {
      "constant": false,
      "inputs": [
        {
          "name": "_newAddr",
          "type": "address"
        }
      ],
      "name": "changeDeveloperFeeAccount",
      "outputs": [],
      "payable": false,
      "stateMutability": "nonpayable",
      "type": "function"
    },
    {
      "constant": false,
      "inputs": [
        {
          "name": "_newAddr",
          "type": "address"
        }
      ],
      "name": "changeEtherDeltaAddress",
      "outputs": [],
      "payable": false,
      "stateMutability": "nonpayable",
      "type": "function"
    },
    {
      "constant": true,
      "inputs": [
        {
          "name": "",
          "type": "uint256"
        }
      ],
      "name": "forStakedControlOfProposal",
      "outputs": [
        {
          "name": "",
          "type": "uint256"
        }
      ],
      "payable": false,
      "stateMutability": "view",
      "type": "function"
    },
    {
      "constant": false,
      "inputs": [],
      "name": "endChangeMakingTime",
      "outputs": [],
      "payable": false,
      "stateMutability": "nonpayable",
      "type": "function"
    },
    {
      "constant": true,
      "inputs": [],
      "name": "developerFeeProportion",
      "outputs": [
        {
          "name": "",
          "type": "uint256"
        }
      ],
      "payable": false,
      "stateMutability": "view",
      "type": "function"
    },
    {
      "constant": false,
      "inputs": [
        {
          "name": "_proposalId",
          "type": "uint256"
        },
        {
          "name": "_sellPrice",
          "type": "uint256"
        },
        {
          "name": "_expires",
          "type": "uint256"
        }
      ],
      "name": "__setSellPriceAndExpirationBlock",
      "outputs": [],
      "payable": false,
      "stateMutability": "nonpayable",
      "type": "function"
    },
    {
      "constant": false,
      "inputs": [
        {
          "name": "_participants",
          "type": "address[]"
        }
      ],
      "name": "initializeParticipants",
      "outputs": [],
      "payable": false,
      "stateMutability": "nonpayable",
      "type": "function"
    },
    {
      "constant": false,
      "inputs": [],
      "name": "deposit",
      "outputs": [],
      "payable": true,
      "stateMutability": "payable",
      "type": "function"
    },
    {
      "constant": false,
      "inputs": [
        {
          "name": "_newOwner",
          "type": "address"
        }
      ],
      "name": "changeOraclizeOwner",
      "outputs": [],
      "payable": false,
      "stateMutability": "nonpayable",
      "type": "function"
    },
    {
      "constant": true,
      "inputs": [],
      "name": "precision",
      "outputs": [
        {
          "name": "",
          "type": "uint256"
        }
      ],
      "payable": false,
      "stateMutability": "view",
      "type": "function"
    },
    {
      "constant": true,
      "inputs": [],
      "name": "timeOfProposalMaking",
      "outputs": [
        {
          "name": "",
          "type": "uint256"
        }
      ],
      "payable": false,
      "stateMutability": "view",
      "type": "function"
    },
    {
      "constant": false,
      "inputs": [],
      "name": "emergencyWithdraw",
      "outputs": [],
      "payable": false,
      "stateMutability": "nonpayable",
      "type": "function"
    },
    {
      "constant": true,
      "inputs": [],
      "name": "controlTokenAddr",
      "outputs": [
        {
          "name": "",
          "type": "address"
        }
      ],
      "payable": false,
      "stateMutability": "view",
      "type": "function"
    },
    {
      "constant": true,
      "inputs": [],
      "name": "participantsCount",
      "outputs": [
        {
          "name": "_count",
          "type": "uint256"
        }
      ],
      "payable": false,
      "stateMutability": "view",
      "type": "function"
    },
    {
      "constant": false,
      "inputs": [
        {
          "name": "_newOwner",
          "type": "address"
        }
      ],
      "name": "changeControlTokenOwner",
      "outputs": [],
      "payable": false,
      "stateMutability": "nonpayable",
      "type": "function"
    },
    {
      "constant": false,
      "inputs": [
        {
          "name": "_proposalId",
          "type": "uint256"
        },
        {
          "name": "_stakeInWeis",
          "type": "uint256"
        },
        {
          "name": "_support",
          "type": "bool"
        }
      ],
      "name": "stakeProposal",
      "outputs": [],
      "payable": false,
      "stateMutability": "nonpayable",
      "type": "function"
    },
    {
      "constant": true,
      "inputs": [
        {
          "name": "",
          "type": "address"
        }
      ],
      "name": "createdProposalCount",
      "outputs": [
        {
          "name": "",
          "type": "uint256"
        }
      ],
      "payable": false,
      "stateMutability": "view",
      "type": "function"
    },
    {
      "constant": false,
      "inputs": [],
      "name": "finalizeCycle",
      "outputs": [],
      "payable": false,
      "stateMutability": "nonpayable",
      "type": "function"
    },
    {
      "constant": false,
      "inputs": [
        {
          "name": "_tokenGet",
          "type": "address"
        },
        {
          "name": "_amountGet",
          "type": "uint256"
        },
        {
          "name": "_tokenGive",
          "type": "address"
        },
        {
          "name": "_amountGive",
          "type": "uint256"
        },
        {
          "name": "_expires",
          "type": "uint256"
        },
        {
          "name": "_nonce",
          "type": "uint256"
        }
      ],
      "name": "__makeOrder",
      "outputs": [],
      "payable": false,
      "stateMutability": "nonpayable",
      "type": "function"
    },
    {
      "constant": false,
      "inputs": [
        {
          "name": "_receipient",
          "type": "address"
        }
      ],
      "name": "__addControlTokenReceipientAsParticipant",
      "outputs": [],
      "payable": false,
      "stateMutability": "nonpayable",
      "type": "function"
    },
    {
      "constant": false,
      "inputs": [
        {
          "name": "newOwner",
          "type": "address"
        }
      ],
      "name": "transferOwnership",
      "outputs": [],
      "payable": false,
      "stateMutability": "nonpayable",
      "type": "function"
    },
    {
      "constant": true,
      "inputs": [],
      "name": "cyclePhase",
      "outputs": [
        {
          "name": "",
          "type": "uint8"
        }
      ],
      "payable": false,
      "stateMutability": "view",
      "type": "function"
    },
    {
      "constant": true,
      "inputs": [],
      "name": "cycleTotalForStake",
      "outputs": [
        {
          "name": "",
          "type": "uint256"
        }
      ],
      "payable": false,
      "stateMutability": "view",
      "type": "function"
    },
    {
      "inputs": [
        {
          "name": "_etherDeltaAddr",
          "type": "address"
        },
        {
          "name": "_developerFeeAccount",
          "type": "address"
        },
        {
          "name": "_precision",
          "type": "uint256"
        },
        {
          "name": "_timeOfChangeMaking",
          "type": "uint256"
        },
        {
          "name": "_timeOfProposalMaking",
          "type": "uint256"
        },
        {
          "name": "_timeOfWaiting",
          "type": "uint256"
        },
        {
          "name": "_timeOfSellOrderWaiting",
          "type": "uint256"
        },
        {
          "name": "_minStakeProportion",
          "type": "uint256"
        },
        {
          "name": "_maxProposals",
          "type": "uint256"
        },
        {
          "name": "_commissionRate",
          "type": "uint256"
        },
        {
          "name": "_orderExpirationTimeInBlocks",
          "type": "uint256"
        },
        {
          "name": "_developerFeeProportion",
          "type": "uint256"
        },
        {
          "name": "_maxProposalsPerMember",
          "type": "uint256"
        }
      ],
      "payable": false,
      "stateMutability": "nonpayable",
      "type": "constructor"
    },
    {
      "payable": true,
      "stateMutability": "payable",
      "type": "fallback"
    },
    {
      "anonymous": false,
      "inputs": [
        {
          "indexed": false,
          "name": "_cycleNumber",
          "type": "uint256"
        },
        {
          "indexed": false,
          "name": "_timestamp",
          "type": "uint256"
        }
      ],
      "name": "CycleStarted",
      "type": "event"
    },
    {
      "anonymous": false,
      "inputs": [
        {
          "indexed": false,
          "name": "_cycleNumber",
          "type": "uint256"
        },
        {
          "indexed": false,
          "name": "_sender",
          "type": "address"
        },
        {
          "indexed": false,
          "name": "_amountInWeis",
          "type": "uint256"
        },
        {
          "indexed": false,
          "name": "_timestamp",
          "type": "uint256"
        }
      ],
      "name": "Deposit",
      "type": "event"
    },
    {
      "anonymous": false,
      "inputs": [
        {
          "indexed": false,
          "name": "_cycleNumber",
          "type": "uint256"
        },
        {
          "indexed": false,
          "name": "_sender",
          "type": "address"
        },
        {
          "indexed": false,
          "name": "_amountInWeis",
          "type": "uint256"
        },
        {
          "indexed": false,
          "name": "_timestamp",
          "type": "uint256"
        }
      ],
      "name": "Withdraw",
      "type": "event"
    },
    {
      "anonymous": false,
      "inputs": [
        {
          "indexed": false,
          "name": "_cycleNumber",
          "type": "uint256"
        },
        {
          "indexed": false,
          "name": "_timestamp",
          "type": "uint256"
        }
      ],
      "name": "ChangeMakingTimeEnded",
      "type": "event"
    },
    {
      "anonymous": false,
      "inputs": [
        {
          "indexed": false,
          "name": "_cycleNumber",
          "type": "uint256"
        },
        {
          "indexed": false,
          "name": "_id",
          "type": "uint256"
        },
        {
          "indexed": false,
          "name": "_tokenAddress",
          "type": "address"
        },
        {
          "indexed": false,
          "name": "_tokenSymbol",
          "type": "string"
        },
        {
          "indexed": false,
          "name": "_amountInWeis",
          "type": "uint256"
        }
      ],
      "name": "NewProposal",
      "type": "event"
    },
    {
      "anonymous": false,
      "inputs": [
        {
          "indexed": false,
          "name": "_cycleNumber",
          "type": "uint256"
        },
        {
          "indexed": false,
          "name": "_id",
          "type": "uint256"
        },
        {
          "indexed": false,
          "name": "_amountInWeis",
          "type": "uint256"
        },
        {
          "indexed": false,
          "name": "_support",
          "type": "bool"
        }
      ],
      "name": "StakedProposal",
      "type": "event"
    },
    {
      "anonymous": false,
      "inputs": [
        {
          "indexed": false,
          "name": "_cycleNumber",
          "type": "uint256"
        },
        {
          "indexed": false,
          "name": "_timestamp",
          "type": "uint256"
        }
      ],
      "name": "ProposalMakingTimeEnded",
      "type": "event"
    },
    {
      "anonymous": false,
      "inputs": [
        {
          "indexed": false,
          "name": "_cycleNumber",
          "type": "uint256"
        },
        {
          "indexed": false,
          "name": "_timestamp",
          "type": "uint256"
        }
      ],
      "name": "CycleEnded",
      "type": "event"
    },
    {
      "anonymous": false,
      "inputs": [
        {
          "indexed": false,
          "name": "_cycleNumber",
          "type": "uint256"
        },
        {
          "indexed": false,
          "name": "_timestamp",
          "type": "uint256"
        }
      ],
      "name": "CycleFinalized",
      "type": "event"
    },
    {
      "anonymous": false,
      "inputs": [
        {
          "indexed": false,
          "name": "_cycleNumber",
          "type": "uint256"
        },
        {
          "indexed": false,
          "name": "_beforeTotalFunds",
          "type": "uint256"
        },
        {
          "indexed": false,
          "name": "_afterTotalFunds",
          "type": "uint256"
        }
      ],
      "name": "ROI",
      "type": "event"
    },
    {
      "anonymous": false,
      "inputs": [
        {
          "indexed": false,
          "name": "_cycleNumber",
          "type": "uint256"
        },
        {
          "indexed": false,
          "name": "_totalCommissionInWeis",
          "type": "uint256"
        }
      ],
      "name": "CommissionPaid",
      "type": "event"
    },
    {
      "anonymous": false,
      "inputs": [],
      "name": "Pause",
      "type": "event"
    },
    {
      "anonymous": false,
      "inputs": [],
      "name": "Unpause",
      "type": "event"
    },
    {
      "anonymous": false,
      "inputs": [
        {
          "indexed": true,
          "name": "previousOwner",
          "type": "address"
        },
        {
          "indexed": true,
          "name": "newOwner",
          "type": "address"
        }
      ],
      "name": "OwnershipTransferred",
      "type": "event"
    }
  ],
  "bytecode": "0x60606040526000805460a060020a60ff021916905534156200002057600080fd5b6040516101a08062003fdd8339810160405280805191906020018051919060200180519190602001805191906020018051919060200180519190602001805191906020018051919060200180519190602001805191906020018051919060200180519190602001805160008054600160a060020a03191633600160a060020a03161781559092508c119050620000b557600080fd5b8a8610620000c257600080fd5b8a620000dd858464010000000062002dee620001ff82021704565b10620000e857600080fd5b8c600260006101000a815481600160a060020a030219169083600160a060020a031602179055508b600560006101000a815481600160a060020a030219169083600160a060020a031602179055508a60078190555089600a8190555088600b8190555087600c8190555086600d8190555085600e8190555084600f819055508360108190555082601181905550816012819055508060138190555060006009819055506004602460146101000a81548160ff02191690836004811115620001ab57fe5b02179055505060048054600160a060020a03338116600160a060020a0319928316179092556000601481905560065560025460238054909216921691909117905550620002169a5050505050505050505050565b6000828201838110156200020f57fe5b9392505050565b613db780620002266000396000f3006060604052600436106102f25763ffffffff60e060020a600035041663013cf08b811461032c57806302d05d3f146104155780630a9f46ad146104445780630f6f17d2146104695780630f8f9f5f1461048b578063158ef93e146104aa5780631ab371fc146104d15780631dcf8ceb146104e457806325f842c5146104f757806328ac12281461050a5780632e1a7d4d1461051d5780632e33de6a146105335780632f3fe24c146105555780632f8847101461056857806334c7502b1461057b57806335c1d3491461059a5780633f4ba83a146105b0578063400e3949146105c35780634773822e146105d65780634f634790146105f557806358e0abec146106085780635c975abb146106105780635ea1d6f81461062357806364542e3e146106365780636642642a1461064c5780636c46ab691461066257806370a08231146106c85780637e714dd2146106e75780637f2736d1146106fa57806383d324611461070d5780638456799b146107205780638456cb591461073357806384e4807714610746578063866fc4e41461076b5780638da5cb5b1461077e5780638fb644bb1461079157806390c31d5d146107a7578063929066f5146107ba57806395fa9fc9146107d95780639e125850146107ec578063a23a6f9e146107ff578063a24459fc14610812578063a418117414610828578063b18e8a8d14610844578063b462c8fa14610863578063b484cf8d14610882578063b64af4b114610898578063ba25887d146108ab578063bc127301146108be578063c8d530f8146108da578063d0e30db014610929578063d217e14b14610931578063d3b5dc3b14610950578063d78b3b1c14610963578063db2e21bc14610976578063dc87454c14610989578063dd60c8981461099c578063e7476abf146109af578063e7ee8016146109ce578063ebc95b12146109ec578063ec33d2a014610a0b578063f1cd92f114610a1e578063f245fbc714610a50578063f2fde38b14610a6f578063f6558b0014610a8e578063f8d4d43814610ac5575b60025433600160a060020a03908116911614801590610320575060035433600160a060020a03908116911614155b1561032a57600080fd5b005b341561033757600080fd5b610342600435610ad8565b604051600160a060020a038a16815260408101889052606081018790526080810186905260a0810185905260c0810184905260e08101839052610100808201839052610120602083018181528b54600260018216159094026000190116929092049083018190526101408301908b9080156103fe5780601f106103d3576101008083540402835291602001916103fe565b820191906000526020600020905b8154815290600101906020018083116103e157829003601f168201915b50509a505050505050505050505060405180910390f35b341561042057600080fd5b610428610b3b565b604051600160a060020a03909116815260200160405180910390f35b341561044f57600080fd5b610457610b4a565b60405190815260200160405180910390f35b341561047457600080fd5b610457600435600160a060020a0360243516610b51565b341561049657600080fd5b610457600160a060020a0360043516610b6e565b34156104b557600080fd5b6104bd610b80565b604051901515815260200160405180910390f35b34156104dc57600080fd5b610428610b89565b34156104ef57600080fd5b610457610b98565b341561050257600080fd5b610457610b9e565b341561051557600080fd5b610457610ba4565b341561052857600080fd5b61032a600435610baa565b341561053e57600080fd5b610457600435600160a060020a0360243516610d00565b341561056057600080fd5b610457610d1d565b341561057357600080fd5b610457610d23565b341561058657600080fd5b61032a600160a060020a0360043516610d29565b34156105a557600080fd5b610428600435610d85565b34156105bb57600080fd5b61032a610dad565b34156105ce57600080fd5b610457610e1e565b34156105e157600080fd5b6104bd600160a060020a0360043516610e24565b341561060057600080fd5b610457610e39565b61032a610e3f565b341561061b57600080fd5b6104bd610e75565b341561062e57600080fd5b610457610e85565b341561064157600080fd5b61032a600435610e8b565b341561065757600080fd5b61032a600435610eb9565b341561066d57600080fd5b61032a60048035600160a060020a03169060446024803590810190830135806020601f8201819004810201604051908101604052818152929190602084018383808284375094965050843594602001359350610ed992505050565b34156106d357600080fd5b610457600160a060020a03600435166112b3565b34156106f257600080fd5b6104576112c5565b341561070557600080fd5b61032a6112cb565b341561071857600080fd5b61045761146f565b341561072b57600080fd5b610457611475565b341561073e57600080fd5b61032a61147b565b341561075157600080fd5b61032a600160a060020a03600435811690602435166115f0565b341561077657600080fd5b61032a61167b565b341561078957600080fd5b6104286117f2565b341561079c57600080fd5b61032a600435611801565b34156107b257600080fd5b61032a611be5565b34156107c557600080fd5b6104bd600160a060020a0360043516611cbc565b34156107e457600080fd5b610428611cd1565b34156107f757600080fd5b610457611ce0565b341561080a57600080fd5b610428611ce6565b341561081d57600080fd5b610457600435611cf5565b341561083357600080fd5b61032a600435602435604435611d07565b341561084f57600080fd5b61032a600160a060020a0360043516611d71565b341561086e57600080fd5b61032a600160a060020a0360043516611dc3565b341561088d57600080fd5b610457600435611e7d565b34156108a357600080fd5b61032a611e8f565b34156108b657600080fd5b610457611f47565b34156108c957600080fd5b61032a600435602435604435611f4d565b34156108e557600080fd5b61032a6004602481358181019083013580602081810201604051908101604052809392919081815260200183836020028082843750949650611fb795505050505050565b61032a611ff5565b341561093c57600080fd5b61032a600160a060020a03600435166121e1565b341561095b57600080fd5b610457612261565b341561096e57600080fd5b610457612267565b341561098157600080fd5b61032a61226d565b341561099457600080fd5b61042861237d565b34156109a757600080fd5b61045761238c565b34156109ba57600080fd5b61032a600160a060020a0360043516612392565b34156109d957600080fd5b61032a6004356024356044351515612412565b34156109f757600080fd5b610457600160a060020a036004351661292e565b3415610a1657600080fd5b61032a612940565b3415610a2957600080fd5b61032a600160a060020a03600435811690602435906044351660643560843560a435612bf0565b3415610a5b57600080fd5b61032a600160a060020a0360043516612cb9565b3415610a7a57600080fd5b61032a600160a060020a0360043516612d38565b3415610a9957600080fd5b610aa1612dc6565b60405180826004811115610ab157fe5b60ff16815260200191505060405180910390f35b3415610ad057600080fd5b610457612dd6565b6021805482908110610ae657fe5b6000918252602090912060099091020180546002820154600383015460048401546005850154600686015460078701546008880154600160a060020a0390971698506001909701969495939492939192909189565b600454600160a060020a031681565b6021545b90565b601d60209081526000928352604080842090915290825290205481565b60186020526000908152604090205481565b60165460ff1681565b600554600160a060020a031681565b600e5481565b60095481565b600a5481565b60008060245460a060020a900460ff166004811115610bc557fe5b14610bcf57600080fd5b600160a060020a03331660009081526017602052604090205460ff161515610bf657600080fd5b60005460a060020a900460ff1615610c0d57600080fd5b60065460011415610c1d57600080fd5b600854610c30908363ffffffff612ddc16565b600855600160a060020a033316600090815260196020526040902054610c5c908363ffffffff612ddc16565b600160a060020a03331660008181526019602052604090819020929092559083156108fc0290849051600060405180830381858888f193505050501515610ca257600080fd5b7fb0ecf14e184effded5473bba77dcfab32b094b77ac1fbb36beec2aef55587970600654338442604051938452600160a060020a03909216602084015260408084019190915260608301919091526080909101905180910390a15050565b601e60209081526000928352604080842090915290825290205481565b600f5481565b60065481565b60005433600160a060020a03908116911614610d4457600080fd5b600160a060020a0381161515610d5957600080fd5b60038054600160a060020a03909216600160a060020a0319928316811790915560248054909216179055565b6020805482908110610d9357fe5b600091825260209091200154600160a060020a0316905081565b60005433600160a060020a03908116911614610dc857600080fd5b60005460a060020a900460ff161515610de057600080fd5b6000805460a060020a60ff02191690557f7805862f689e2f13df9f062ff482ad3ad112aca9e0847911ed832e158c525b3360405160405180910390a1565b60145481565b601f6020526000908152604090205460ff1681565b600c5481565b600354600160a060020a03163480156108fc0290604051600060405180830381858888f193505050501515610e7357600080fd5b565b60005460a060020a900460ff1681565b60105481565b60005433600160a060020a03908116911614610ea657600080fd5b6012548110610eb457600080fd5b601255565b60005433600160a060020a03908116911614610ed457600080fd5b601055565b600060018060245460a060020a900460ff166004811115610ef657fe5b14610f0057600080fd5b600160a060020a03331660009081526017602052604090205460ff161515610f2757600080fd5b60005460a060020a900460ff1615610f3e57600080fd5b600f5460145410610f4e57600080fd5b600160a060020a0386166000908152601f602052604090205460ff1615610f7457600080fd5b601354600160a060020a0333166000908152601c602052604090205410610f9a57600080fd5b6021805460018101610fac8382613b4a565b91600052602060002090600902016000610120604051908101604052808a600160a060020a0316815260200189815260200188815260200160008152602001600081526020016000815260200160008152602001600081526020016000815250909190915060008201518154600160a060020a031916600160a060020a039190911617815560208201518160010190805161104b929160200190613b7b565b5060408201518160020155606082015181600301556080820151816004015560a0820151816005015560c0820151816006015560e082015181600701556101008201516008909101555050600160a060020a038087166000908152601f602052604090819020805460ff1916600117905560245490911690633455d73e908790518263ffffffff1660e060020a0281526004018080602001828103825283818151815260200191508051906020019080838360005b83811015611118578082015183820152602001611100565b50505050905090810190601f1680156111455780820380516001836020036101000a031916815260200191505b5092505050600060405180830381600087803b151561116357600080fd5b6102c65a03f1151561117457600080fd5b505050600160a060020a0333166000908152601c60205260409020546111a190600163ffffffff612dee16565b600160a060020a0333166000908152601c60205260409020556014546111ce90600163ffffffff612dee16565b6014556021546000190191506111e682846001612412565b7f39efe5de2a7fb314f1bfefde235db361176dcf978143fe59ec807b96bce0e3356006548388888760405185815260208101859052600160a060020a03841660408201526080810182905260a06060820181815290820184818151815260200191508051906020019080838360005b8381101561126d578082015183820152602001611255565b50505050905090810190601f16801561129a5780820380516001836020036101000a031916815260200191505b50965050505050505060405180910390a1505050505050565b60196020526000908152604090205481565b60085481565b600060048060245460a060020a900460ff1660048111156112e857fe5b146112f257600080fd5b60005460a060020a900460ff161561130957600080fd5b60165460ff16151561131a57600080fd5b6024805460a060020a60ff02191690554260095560065461133c906001612dee565b600655600091505b6020548210156113925761137a60208381548110151561136057fe5b600091825260209091200154600160a060020a0316612e08565b61138b82600163ffffffff612dee16565b9150611344565b600091505b6021548210156113c2576113aa82612e8d565b6113bb82600163ffffffff612dee16565b9150611397565b602454600160a060020a03166332f42b546040518163ffffffff1660e060020a028152600401600060405180830381600087803b151561140157600080fd5b6102c65a03f1151561141257600080fd5b505050602160006114239190613bf9565b6014600090556015600090557f62eeb403dc233a7676f50cdb0fd72dae595aeb7c63039adce5caacc33254f9c06006544260405191825260208201526040908101905180910390a15050565b60135481565b60115481565b60008054819033600160a060020a0390811691161461149957600080fd5b60005460a060020a900460ff16156114b057600080fd5b6114b8612eeb565b602354600160a060020a031663508493bc600030816040516020015260405160e060020a63ffffffff8516028152600160a060020a03928316600482015291166024820152604401602060405180830381600087803b151561151957600080fd5b6102c65a03f1151561152a57600080fd5b5050506040518051602354909350600160a060020a03169050632e1a7d4d8360405160e060020a63ffffffff84160281526004810191909152602401600060405180830381600087803b151561157f57600080fd5b6102c65a03f1151561159057600080fd5b505050600090505b6021548110156115ec5760006021828154811015156115b357fe5b90600052602060002090600902016007015411156115d4576115d481612f61565b6115e581600163ffffffff612dee16565b9050611598565b5050565b60045433600160a060020a0390811691161461160b57600080fd5b60165460ff161561161b57600080fd5b6016805460ff191660019081179091558054600160a060020a03938416600160a060020a03199182161791829055600380549385169382169390931792839055602280548216928516929092179091556024805490911691909216179055565b600060028060245460a060020a900460ff16600481111561169857fe5b146116a257600080fd5b60005460a060020a900460ff16156116b957600080fd5b600c546009546116ce9163ffffffff612dee16565b4210156116da57600080fd5b426009556024805460a060020a60ff02191674030000000000000000000000000000000000000000179055600091505b6021548210156117b257600060218381548110151561172557fe5b906000526020600020906009020160070154111561179a57602454600160a060020a03166360fc3f8e8360405160e060020a63ffffffff84160281526004810191909152602401600060405180830381600087803b151561178557600080fd5b6102c65a03f1151561179657600080fd5b5050505b6117ab82600163ffffffff612dee16565b915061170a565b7fe1a58fd1bf66f9e9b1034d0c18caf7f52dd92caa648db643d1c98438402bd34e6006544260405191825260208201526040908101905180910390a15050565b600054600160a060020a031681565b6000808060018060245460a060020a900460ff16600481111561182057fe5b1461182a57600080fd5b600160a060020a03331660009081526017602052604090205460ff16151561185157600080fd5b60005460a060020a900460ff161561186857600080fd5b602154851061187657600080fd5b600060218681548110151561188757fe5b9060005260206000209060090201600701541115156118a557600080fd5b6000858152601d60209081526040808320600160a060020a03331680855290835281842054898552601e845282852091855292529091205490945092506118f2848463ffffffff612dee16565b9150600084111561199e576000858152601a602052604090205461191c908363ffffffff612ddc16565b6000868152601a602052604090205560155461193e908363ffffffff612ddc16565b60155560218054611976916001918890811061195657fe5b906000526020600020906009020160070154612ddc90919063ffffffff16565b602180548790811061198457fe5b906000526020600020906009020160070181905550611a37565b6000831115611a32576000858152601b60205260409020546119c6908363ffffffff612ddc16565b6000868152601b602052604090205560218054611a0a91600191889081106119ea57fe5b906000526020600020906009020160080154612ddc90919063ffffffff16565b6021805487908110611a1857fe5b906000526020600020906009020160080181905550611a37565b611bde565b600160a060020a033316600090815260186020526040902054611a6190600163ffffffff612ddc16565b600160a060020a03338181166000818152601860209081526040808320969096558a8252601d815285822083835281528582208290558a8252601e8152858220928252919091528381208190556022549092169263a9059cbb928691516020015260405160e060020a63ffffffff8516028152600160a060020a0390921660048301526024820152604401602060405180830381600087803b1515611b0557600080fd5b6102c65a03f11515611b1657600080fd5b505050604051805150506021805486908110611b2e57fe5b90600052602060002090600902016007015460001415611bde57611b5185612f61565b611b5a85612e8d565b601454611b6e90600163ffffffff612ddc16565b6014556021805486908110611b7f57fe5b6000918252602082206009909102018054600160a060020a031916815590611baa6001830182613c1d565b5060006002820181905560038201819055600482018190556005820181905560068201819055600782018190556008909101555b5050505050565b60018060245460a060020a900460ff166004811115611c0057fe5b14611c0a57600080fd5b60005460a060020a900460ff1615611c2157600080fd5b600b54600954611c369163ffffffff612dee16565b421015611c4257600080fd5b426009556024805460a060020a60ff02191674020000000000000000000000000000000000000000179055611c7561306f565b611c7d6131c8565b7fc26cea5d11470524f2c181454de04fcfb1a0349aba5606ea3eb1a8ec87e1f54e6006544260405191825260208201526040908101905180910390a150565b60176020526000908152604090205460ff1681565b600254600160a060020a031681565b600d5481565b600354600160a060020a031681565b601b6020526000908152604090205481565b60035433600160a060020a03908116911614611d2257600080fd5b81602184815481101515611d3257fe5b90600052602060002090600902016003018190555080602184815481101515611d5757fe5b906000526020600020906009020160050181905550505050565b60005433600160a060020a03908116911614611d8c57600080fd5b600160a060020a0381161515611da157600080fd5b60058054600160a060020a031916600160a060020a0392909216919091179055565b60005433600160a060020a03908116911614611dde57600080fd5b600160a060020a0381161515611df357600080fd5b60028054600160a060020a0319908116600160a060020a038481169182179093556023805490921617905560245416635aeed50a8260405160e060020a63ffffffff8416028152600160a060020a039091166004820152602401600060405180830381600087803b1515611e6657600080fd5b6102c65a03f11515611e7757600080fd5b50505050565b601a6020526000908152604090205481565b60008060245460a060020a900460ff166004811115611eaa57fe5b14611eb457600080fd5b60005460a060020a900460ff1615611ecb57600080fd5b600a54600954611ee09163ffffffff612dee16565b421015611eec57600080fd5b4260098190556024805460a060020a60ff02191660a060020a1790556006547f3c3379a2308ae89ee638561d0222706de289bea89968dd555b533795071130fb9160405191825260208201526040908101905180910390a150565b60125481565b60035433600160a060020a03908116911614611f6857600080fd5b81602184815481101515611f7857fe5b90600052602060002090600902016004018190555080602184815481101515611f9d57fe5b906000526020600020906009020160060181905550505050565b60045433600160a060020a03908116911614611fd257600080fd5b60165460ff1615611fe257600080fd5b60208180516115ec929160200190613c61565b60008060245460a060020a900460ff16600481111561201057fe5b1461201a57600080fd5b60005460a060020a900460ff161561203157600080fd5b600160a060020a03331660009081526017602052604090205460ff1615156120a65760208054600181016120658382613cc4565b5060009182526020808320919091018054600160a060020a03191633600160a060020a031690811790915582526017905260409020805460ff191660011790555b600160a060020a0333166000908152601960205260409020546120cf903463ffffffff612dee16565b600160a060020a0333166000908152601960205260409020556008546120fb903463ffffffff612dee16565b6008556006546001141561218457602254600160a060020a03166340c10f19333460006040516020015260405160e060020a63ffffffff8516028152600160a060020a0390921660048301526024820152604401602060405180830381600087803b151561216857600080fd5b6102c65a03f1151561217957600080fd5b505050604051805150505b7fd36a2f67d06d285786f61a32b052b9ace6b0b7abef5177b54358abdc83a0b69b600654333442604051938452600160a060020a03909216602084015260408084019190915260608301919091526080909101905180910390a150565b60005433600160a060020a039081169116146121fc57600080fd5b600160a060020a038116151561221157600080fd5b602454600160a060020a031663f2fde38b8260405160e060020a63ffffffff8416028152600160a060020a039091166004820152602401600060405180830381600087803b1515611e6657600080fd5b60075481565b600b5481565b600160a060020a03331660009081526017602052604081205460ff16151561229457600080fd5b60005460a060020a900460ff1615156122ac57600080fd5b50600160a060020a0333166000908152601960205260409020546008546122d9908263ffffffff612ddc16565b600855600160a060020a0333166000818152601960205260408082209190915582156108fc0290839051600060405180830381858888f19350505050151561232057600080fd5b7fb0ecf14e184effded5473bba77dcfab32b094b77ac1fbb36beec2aef55587970600654338342604051938452600160a060020a03909216602084015260408084019190915260608301919091526080909101905180910390a150565b600154600160a060020a031681565b60205490565b60005433600160a060020a039081169116146123ad57600080fd5b600160a060020a03811615156123c257600080fd5b602254600160a060020a031663f2fde38b8260405160e060020a63ffffffff8416028152600160a060020a039091166004820152602401600060405180830381600087803b1515611e6657600080fd5b60018060245460a060020a900460ff16600481111561242d57fe5b1461243757600080fd5b600160a060020a03331660009081526017602052604090205460ff16151561245e57600080fd5b60005460a060020a900460ff161561247557600080fd5b602154841061248357600080fd5b601f600060218681548110151561249657fe5b60009182526020808320600990920290910154600160a060020a0316835282019290925260400190205460ff1615156124ce57600080fd5b60225461255490600160a060020a03166370a082313360006040516020015260405160e060020a63ffffffff8416028152600160a060020a039091166004820152602401602060405180830381600087803b151561252b57600080fd5b6102c65a03f1151561253c57600080fd5b5050506040518051600e54915063ffffffff6132f716565b60075461256890859063ffffffff6132f716565b101561257357600080fd5b6000831161258057600080fd5b602254600160a060020a0316632bee7bde338560006040516020015260405160e060020a63ffffffff8516028152600160a060020a0390921660048301526024820152604401602060405180830381600087803b15156125df57600080fd5b6102c65a03f115156125f057600080fd5b505050604051805190505081801561262857506000848152601e60209081526040808320600160a060020a0333168452909152902054155b15612747576000848152601d60209081526040808320600160a060020a033316845290915290205415156126ae5761268a600160218681548110151561266a57fe5b906000526020600020906009020160070154612dee90919063ffffffff16565b602180548690811061269857fe5b9060005260206000209060090201600701819055505b6000848152601a60205260409020546126cd908463ffffffff612dee16565b6000858152601a6020908152604080832093909355601d8152828220600160a060020a033316835290522054612709908463ffffffff612dee16565b6000858152601d60209081526040808320600160a060020a033316845290915290205560155461273f908463ffffffff612dee16565b601555612883565b8115801561277557506000848152601d60209081526040808320600160a060020a0333168452909152902054155b1561287e576000848152601e60209081526040808320600160a060020a033316845290915290205415156127fb576127d760016021868154811015156127b757fe5b906000526020600020906009020160080154612dee90919063ffffffff16565b60218054869081106127e557fe5b9060005260206000209060090201600801819055505b6000848152601b602052604090205461281a908463ffffffff612dee16565b6000858152601b6020908152604080832093909355601e8152828220600160a060020a033316835290522054612856908463ffffffff612dee16565b6000858152601e60209081526040808320600160a060020a0333168452909152902055612883565b600080fd5b600160a060020a0333166000908152601860205260409020546128ad90600163ffffffff612dee16565b6018600033600160a060020a0316600160a060020a03168152602001908152602001600020819055507f725e873e4977c489020b571ecffe13e8f200a0e8b71e450d8b190aa236bcede9600654858585604051938452602084019290925260408084019190915290151560608301526080909101905180910390a150505050565b601c6020526000908152604090205481565b60008060038060245460a060020a900460ff16600481111561295e57fe5b1461296857600080fd5b60005460a060020a900460ff161561297f57600080fd5b600d546009546129949163ffffffff612dee16565b4210156129a057600080fd5b426009556024805460a060020a60ff02191674040000000000000000000000000000000000000000179055600092505b602154831015612a245760006021848154811015156129eb57fe5b9060005260206000209060090201600701541115612a0c57612a0c83613322565b612a1d83600163ffffffff612dee16565b92506129d0565b602254600160a060020a031663f3123a3a6040518163ffffffff1660e060020a028152600401600060405180830381600087803b1515612a6357600080fd5b6102c65a03f11515612a7457600080fd5b5050602354600160a060020a0316905063508493bc600030816040516020015260405160e060020a63ffffffff8516028152600160a060020a03928316600482015291166024820152604401602060405180830381600087803b1515612ad957600080fd5b6102c65a03f11515612aea57600080fd5b5050506040518051602354909350600160a060020a03169050632e1a7d4d8360405160e060020a63ffffffff84160281526004810191909152602401600060405180830381600087803b1515612b3f57600080fd5b6102c65a03f11515612b5057600080fd5b5050602454600160a060020a03169050635fc86db16040518163ffffffff1660e060020a028152600401600060405180830381600087803b1515612b9357600080fd5b6102c65a03f11515612ba457600080fd5b505050612baf613742565b7ff4b862466a7ed84695726312fc00377bee25443b7890d8b8985f94eef497d6ff6006544260405191825260208201526040908101905180910390a1505050565b60035433600160a060020a03908116911614612c0b57600080fd5b60005460a060020a900460ff1615612c2257600080fd5b602354600160a060020a0316630b92766687878787878760405160e060020a63ffffffff8916028152600160a060020a03968716600482015260248101959095529290941660448401526064830152608482019290925260a481019190915260c401600060405180830381600087803b1515612c9d57600080fd5b6102c65a03f11515612cae57600080fd5b505050505050505050565b60015433600160a060020a03908116911614612cd457600080fd5b600160a060020a0381166000908152601760209081526040909120805460ff191660019081179091558154908101612d0c8382613cc4565b5060009182526020909120018054600160a060020a031916600160a060020a0392909216919091179055565b60005433600160a060020a03908116911614612d5357600080fd5b600160a060020a0381161515612d6857600080fd5b600054600160a060020a0380831691167f8be0079c531659141344cd1fd0a4f28419497f9722a3daafe3b4186f6b6457e060405160405180910390a360008054600160a060020a031916600160a060020a0392909216919091179055565b60245460a060020a900460ff1681565b60155481565b600082821115612de857fe5b50900390565b600082820183811015612dfd57fe5b8091505b5092915050565b600160a060020a0381166000908152601c60209081526040808320839055601890915281208190555b6021548110156115ec576000818152601d60209081526040808320600160a060020a038616808552908352818420849055848452601e8352818420908452909152812055612e8681600163ffffffff612dee16565b9050612e31565b601f6000602183815481101515612ea057fe5b60009182526020808320600990920290910154600160a060020a031683528281019390935260409182018120805460ff19169055928352601a8252808320839055601b909152812055565b60005433600160a060020a03908116911614612f0657600080fd5b60005460a060020a900460ff1615612f1d57600080fd5b6000805460a060020a60ff02191660a060020a1790557f6985a02210a168e66602d3235cb6db0e70f92b3ba4d376a33c0f3d9434bff62560405160405180910390a1565b600080805b602054831015611e77576020805484908110612f7e57fe5b6000918252602080832090910154868352601e82526040808420600160a060020a0390921680855291835280842054888552601d845281852083865290935290922054919350612fd4919063ffffffff612dee16565b9050801561305757602254600160a060020a031663a9059cbb838360006040516020015260405160e060020a63ffffffff8516028152600160a060020a0390921660048301526024820152604401602060405180830381600087803b151561303b57600080fd5b6102c65a03f1151561304c57600080fd5b505050604051805150505b61306883600163ffffffff612dee16565b9250612f66565b6000808080805b602054851015611bde57602080548690811061308e57fe5b6000918252602082200154602254600160a060020a03918216965016906370a082319086906040516020015260405160e060020a63ffffffff8416028152600160a060020a039091166004820152602401602060405180830381600087803b15156130f857600080fd5b6102c65a03f1151561310957600080fd5b5050506040518051600160a060020a038616600090815260186020526040902054909450159050801561313c5750600083115b156131b05761317b61315b6014546007546132f790919063ffffffff16565b600e5461316f90869063ffffffff6132f716565b9063ffffffff613b3316565b9150600090505b6021548110156131b05761319881836000612412565b6131a981600163ffffffff612dee16565b9050613182565b6131c185600163ffffffff612dee16565b9450613076565b6000805b6021548210156115ec5760006021838154811015156131e757fe5b90600052602060002090600902016007015411156132df576015546000838152601a6020526040902054600854613229929161316f919063ffffffff6132f716565b602354909150600160a060020a031663d0e30db0826040518263ffffffff1660e060020a0281526004016000604051808303818588803b151561326b57600080fd5b6125ee5a03f1151561327c57600080fd5b5050602454600160a060020a031691506360fc3f8e90508360405160e060020a63ffffffff84160281526004810191909152602401600060405180830381600087803b15156132ca57600080fd5b6102c65a03f115156132db57600080fd5b5050505b6132f082600163ffffffff612dee16565b91506131cc565b60008083151561330a5760009150612e01565b5082820282848281151561331a57fe5b0414612dfd57fe5b600080600080600080600060218881548110151561333c57fe5b9060005260206000209060090201965086600301546000148061335f5750601554155b156133725761336d88612f61565b613738565b6015546000898152601a602052604090205460085461339c929161316f919063ffffffff6132f716565b602354885460038a015460028b0154939950600160a060020a03928316936346be96c393909216916133d7919061316f908c90600a0a6132f7565b60008a8c600601548e306000806000806040516020015260405160e060020a63ffffffff8d16028152600160a060020a039a8b166004820152602481019990995296891660448901526064880195909552608487019390935260a486019190915290941660c484015260ff90931660e483015261010482019290925261012481019190915261014401602060405180830381600087803b151561347957600080fd5b6102c65a03f1151561348a57600080fd5b505050604051805115905061372f576134ba876003015461316f6007548a600401546132f790919063ffffffff16565b6003880154909550600094506134d790600263ffffffff6132f716565b876004015410156135285760038701546007546004890154613525929161316f916135199061350d85600263ffffffff6132f716565b9063ffffffff612ddc16565b9063ffffffff6132f716565b93505b600092505b60205483101561336d57602080548490811061354557fe5b60009182526020808320909101548a8352601d82526040808420600160a060020a0390921680855291909252908220549093509091508190111561363b57506000878152601d60209081526040808320600160a060020a038086168552925290912054602254600754919216906340c10f199084906135ce9061316f868b63ffffffff6132f716565b60006040516020015260405160e060020a63ffffffff8516028152600160a060020a0390921660048301526024820152604401602060405180830381600087803b151561361a57600080fd5b6102c65a03f1151561362b57600080fd5b5050506040518051905050613717565b6000888152601e60209081526040808320600160a060020a0386168452909152812054111561371757506000878152601e60209081526040808320600160a060020a038086168552925290912054602254600754919216906340c10f199084906136af9061316f868a63ffffffff6132f716565b60006040516020015260405160e060020a63ffffffff8516028152600160a060020a0390921660048301526024820152604401602060405180830381600087803b15156136fb57600080fd5b6102c65a03f1151561370c57600080fd5b505050604051805150505b61372883600163ffffffff612dee16565b925061352d565b61373888612f61565b5050505050505050565b600080600080600080600080600080985060085430600160a060020a03163111156137795760085430600160a060020a0316310398505b61379460075461316f8b6010546132f790919063ffffffff16565b97506137bb60075461316f30600160a060020a0316316012546132f790919063ffffffff16565b600f5460245491985061383b9160029161351991600160a060020a03166330fbd48d6000604051602001526040518163ffffffff1660e060020a028152600401602060405180830381600087803b151561381457600080fd5b6102c65a03f1151561382557600080fd5b505050604051805191905063ffffffff6132f716565b955061385b8761350d600160a060020a033016318b63ffffffff612ddc16565b945084861161387757613874858763ffffffff612ddc16565b94505b600093505b602054841015613a2457602080548590811061389457fe5b6000918252602082200154600854600160a060020a039091169450909250829011156138ff57600854600160a060020a0384166000908152601960205260409020546138fc916138ef9161316f90899063ffffffff6132f716565b839063ffffffff612dee16565b91505b6022546139ef906138ef90600160a060020a03166318160ddd6000604051602001526040518163ffffffff1660e060020a028152600401602060405180830381600087803b151561394f57600080fd5b6102c65a03f1151561396057600080fd5b505050604051805160225490915061316f90600160a060020a03166370a082318860006040516020015260405160e060020a63ffffffff8416028152600160a060020a039091166004820152602401602060405180830381600087803b15156139c857600080fd5b6102c65a03f115156139d957600080fd5b50505060405180518d915063ffffffff6132f716565b600160a060020a03841660009081526019602052604090208190559150613a1d84600163ffffffff612dee16565b935061387c565b613a34858963ffffffff612dee16565b90507f13a18edb371d0a74be72de10b678893b96bc8a47e776bb122c59e21d53956fbd6006546008548360405180848152602001838152602001828152602001935050505060405180910390a16008819055600554600160a060020a031687156108fc0288604051600060405180830381858888f193505050501515613ab957600080fd5b602454600160a060020a031686156108fc0287604051600060405180830381858888f193505050501515613aec57600080fd5b7facfa15ebe340982fef95d43aafc25d741382d7928a00055a209274fa615d52776006548960405191825260208201526040908101905180910390a1505050505050505050565b6000808284811515613b4157fe5b04949350505050565b815481835581811511613b7657600902816009028360005260206000209182019101613b769190613ce8565b505050565b828054600181600116156101000203166002900490600052602060002090601f016020900481019282601f10613bbc57805160ff1916838001178555613be9565b82800160010185558215613be9579182015b82811115613be9578251825591602001919060010190613bce565b50613bf5929150613d4d565b5090565b5080546000825560090290600052602060002090810190613c1a9190613ce8565b50565b50805460018160011615610100020316600290046000825580601f10613c435750613c1a565b601f016020900490600052602060002090810190613c1a9190613d4d565b828054828255906000526020600020908101928215613cb8579160200282015b82811115613cb85782518254600160a060020a031916600160a060020a039190911617825560209290920191600190910190613c81565b50613bf5929150613d67565b815481835581811511613b7657600083815260209020613b76918101908301613d4d565b610b4e91905b80821115613bf5578054600160a060020a03191681556000613d136001830182613c1d565b5060006002820181905560038201819055600482018190556005820181905560068201819055600782018190556008820155600901613cee565b610b4e91905b80821115613bf55760008155600101613d53565b610b4e91905b80821115613bf5578054600160a060020a0319168155600101613d6d5600a165627a7a72305820087d3b9413751170c45aba7e4598599ef8f1d40461b3bb935c89a76322e7adb00029",
  "source": "pragma solidity ^0.4.18;\r\n\r\nimport 'zeppelin-solidity/contracts/token/ERC20/MintableToken.sol';\r\nimport 'zeppelin-solidity/contracts/math/SafeMath.sol';\r\nimport 'zeppelin-solidity/contracts/math/Math.sol';\r\nimport 'zeppelin-solidity/contracts/lifecycle/Pausable.sol';\r\nimport './etherdelta.sol';\r\nimport './oraclizeAPI_0.5.sol';\r\n\r\n/**\r\n * The main contract of the Betoken hedge fund\r\n */\r\ncontract BetokenFund is Pausable {\r\n  using SafeMath for uint256;\r\n\r\n  enum CyclePhase { ChangeMaking, ProposalMaking, Waiting, Ended, Finalized }\r\n\r\n  struct Proposal {\r\n    address tokenAddress;\r\n    string tokenSymbol;\r\n    uint256 tokenDecimals;\r\n    uint256 buyPriceInWeis;\r\n    uint256 sellPriceInWeis;\r\n    uint256 buyOrderExpirationBlockNum;\r\n    uint256 sellOrderExpirationBlockNum;\r\n    uint256 numFor;\r\n    uint256 numAgainst;\r\n  }\r\n\r\n  /**\r\n   * Executes function only during the given cycle phase.\r\n   * @param phase the cycle phase during which the function may be called\r\n   */\r\n  modifier during(CyclePhase phase) {\r\n    require(cyclePhase == phase);\r\n    _;\r\n  }\r\n\r\n  /**\r\n   * Executes function only when msg.sender is a participant of the fund.\r\n   */\r\n  modifier onlyParticipant {\r\n    require(isParticipant[msg.sender]);\r\n    _;\r\n  }\r\n\r\n  /**\r\n   * Exucutes function only when msg.sender is the fund's OraclizeHandler.\r\n   */\r\n  modifier onlyOraclize {\r\n    require(msg.sender == oraclizeAddr);\r\n    _;\r\n  }\r\n\r\n  //Address of the control token contract.\r\n  address public controlTokenAddr;\r\n\r\n  //Address of the EtherDelta contract\r\n  address public etherDeltaAddr;\r\n\r\n  //Address of the fund's OraclizeHandler contract.\r\n  address public oraclizeAddr;\r\n\r\n  //The creator of the BetokenFund contract. Only used in initializeSubcontracts().\r\n  address public creator;\r\n\r\n  //Address to which the developer fees will be paid.\r\n  address public developerFeeAccount;\r\n\r\n  //The number of the current investment cycle.\r\n  uint256 public cycleNumber;\r\n\r\n  //10^{decimals} used for representing fixed point numbers with {decimals} decimals.\r\n  uint256 public precision;\r\n\r\n  //The amount of funds held by the fund.\r\n  uint256 public totalFundsInWeis;\r\n\r\n  //The start time for the current investment cycle phase, in seconds since Unix epoch.\r\n  uint256 public startTimeOfCyclePhase;\r\n\r\n  //Temporal length of change making period at start of each cycle, in seconds.\r\n  uint256 public timeOfChangeMaking;\r\n\r\n  //Temporal length of proposal making period at start of each cycle, in seconds.\r\n  uint256 public timeOfProposalMaking;\r\n\r\n  //Temporal length of waiting period, after which the bets will be settled, in seconds.\r\n  uint256 public timeOfWaiting;\r\n\r\n  //The time allotted for waiting for sell orders, in seconds.\r\n  uint256 public timeOfSellOrderWaiting;\r\n\r\n  //Minimum proportion of Kairo balance people have to stake in support of a proposal. Fixed point decimal.\r\n  uint256 public minStakeProportion;\r\n\r\n  //The maximum number of proposals each cycle.\r\n  uint256 public maxProposals;\r\n\r\n  //The proportion of the fund that gets distributed to Kairo holders every cycle. Fixed point decimal.\r\n  uint256 public commissionRate;\r\n\r\n  //The expiration time for buy and sell orders made on EtherDelta.\r\n  uint256 public orderExpirationTimeInBlocks;\r\n\r\n  //The proportion of contract balance that goes the the devs every cycle. Fixed point decimal.\r\n  uint256 public developerFeeProportion;\r\n\r\n  //The max number of proposals each member can create.\r\n  uint256 public maxProposalsPerMember;\r\n\r\n  //Number of proposals already made in this cycle. Excludes deleted proposals.\r\n  uint256 public numProposals;\r\n\r\n  //Total Kairo staked in support of proposals this cycle.\r\n  uint256 public cycleTotalForStake;\r\n\r\n  //Flag for whether the contract has been initialized with subcontracts' addresses.\r\n  bool public initialized;\r\n\r\n  //Returns true for an address if it's in the participants array, false otherwise.\r\n  mapping(address => bool) public isParticipant;\r\n\r\n  //Returns the amount participant staked into all proposals in the current cycle.\r\n  mapping(address => uint256) public userStakedProposalCount;\r\n\r\n  //Mapping from a participant's address to their Ether balance, in weis.\r\n  mapping(address => uint256) public balanceOf;\r\n\r\n  //Mapping from Proposal to total amount of Control Tokens being staked by supporters.\r\n  mapping(uint256 => uint256) public forStakedControlOfProposal;\r\n  mapping(uint256 => uint256) public againstStakedControlOfProposal;\r\n\r\n  //Records the number of proposals a user has created in the current cycle. Canceling support does not decrease this number.\r\n  mapping(address => uint256) public createdProposalCount;\r\n\r\n  //mapping(proposalId => mapping(participantAddress => stakedTokensInWeis))\r\n  mapping(uint256 => mapping(address => uint256)) public forStakedControlOfProposalOfUser;\r\n  mapping(uint256 => mapping(address => uint256)) public againstStakedControlOfProposalOfUser;\r\n\r\n  //Mapping to check if a proposal for a token has already been made.\r\n  mapping(address => bool) public isTokenAlreadyProposed;\r\n\r\n  //A list of everyone who is participating in the fund.\r\n  address[] public participants;\r\n\r\n  //List of proposals in the current cycle.\r\n  Proposal[] public proposals;\r\n\r\n  //References to subcontracts and EtherDelta contract.\r\n  ControlToken internal cToken;\r\n  EtherDelta internal etherDelta;\r\n  OraclizeHandler internal oraclize;\r\n\r\n  //The current cycle phase.\r\n  CyclePhase public cyclePhase;\r\n\r\n  event CycleStarted(uint256 _cycleNumber, uint256 _timestamp);\r\n  event Deposit(uint256 _cycleNumber, address _sender, uint256 _amountInWeis, uint256 _timestamp);\r\n  event Withdraw(uint256 _cycleNumber, address _sender, uint256 _amountInWeis, uint256 _timestamp);\r\n  event ChangeMakingTimeEnded(uint256 _cycleNumber, uint256 _timestamp);\r\n  event NewProposal(uint256 _cycleNumber, uint256 _id, address _tokenAddress, string _tokenSymbol, uint256 _amountInWeis);\r\n  event StakedProposal(uint256 _cycleNumber, uint256 _id, uint256 _amountInWeis, bool _support);\r\n  event ProposalMakingTimeEnded(uint256 _cycleNumber, uint256 _timestamp);\r\n  event CycleEnded(uint256 _cycleNumber, uint256 _timestamp);\r\n  event CycleFinalized(uint256 _cycleNumber, uint256 _timestamp);\r\n  event ROI(uint256 _cycleNumber, uint256 _beforeTotalFunds, uint256 _afterTotalFunds);\r\n  event CommissionPaid(uint256 _cycleNumber, uint256 _totalCommissionInWeis);\r\n\r\n  /**\r\n   * Contract initialization functions\r\n   */\r\n\r\n  //Constructor\r\n  function BetokenFund(\r\n    address _etherDeltaAddr,\r\n    address _developerFeeAccount,\r\n    uint256 _precision,\r\n    uint256 _timeOfChangeMaking,\r\n    uint256 _timeOfProposalMaking,\r\n    uint256 _timeOfWaiting,\r\n    uint256 _timeOfSellOrderWaiting,\r\n    uint256 _minStakeProportion,\r\n    uint256 _maxProposals,\r\n    uint256 _commissionRate,\r\n    uint256 _orderExpirationTimeInBlocks,\r\n    uint256 _developerFeeProportion,\r\n    uint256 _maxProposalsPerMember\r\n  )\r\n    public\r\n  {\r\n    require(_precision > 0);\r\n    require(_minStakeProportion < _precision);\r\n    require(_commissionRate.add(_developerFeeProportion) < _precision);\r\n\r\n    etherDeltaAddr = _etherDeltaAddr;\r\n    developerFeeAccount = _developerFeeAccount;\r\n    precision = _precision;\r\n    timeOfChangeMaking = _timeOfChangeMaking;\r\n    timeOfProposalMaking = _timeOfProposalMaking;\r\n    timeOfWaiting = _timeOfWaiting;\r\n    timeOfSellOrderWaiting = _timeOfSellOrderWaiting;\r\n    minStakeProportion = _minStakeProportion;\r\n    maxProposals = _maxProposals;\r\n    commissionRate = _commissionRate;\r\n    orderExpirationTimeInBlocks = _orderExpirationTimeInBlocks;\r\n    developerFeeProportion = _developerFeeProportion;\r\n    maxProposalsPerMember = _maxProposalsPerMember;\r\n    startTimeOfCyclePhase = 0;\r\n    cyclePhase = CyclePhase.Finalized;\r\n    creator = msg.sender;\r\n    numProposals = 0;\r\n    cycleNumber = 0;\r\n    etherDelta = EtherDelta(etherDeltaAddr);\r\n  }\r\n\r\n  /**\r\n   * Initializes the list of participants. Used during contract upgrades.\r\n   * @param _participants the list of participant addresses\r\n   */\r\n  function initializeParticipants(address[] _participants) public {\r\n    require(msg.sender == creator);\r\n    require (!initialized);\r\n\r\n    participants = _participants;\r\n  }\r\n\r\n  /**\r\n   * Initializes the addresses of the ControlToken and OraclizeHandler contracts.\r\n   * @param _cTokenAddr address of ControlToken contract\r\n   * @param _oraclizeAddr address of OraclizeHandler contract\r\n   */\r\n  function initializeSubcontracts(address _cTokenAddr, address _oraclizeAddr) public {\r\n    require(msg.sender == creator);\r\n    require(!initialized);\r\n\r\n    initialized = true;\r\n\r\n    controlTokenAddr = _cTokenAddr;\r\n    oraclizeAddr = _oraclizeAddr;\r\n\r\n    cToken = ControlToken(controlTokenAddr);\r\n    oraclize = OraclizeHandler(oraclizeAddr);\r\n  }\r\n\r\n  /**\r\n   * Getters\r\n   */\r\n\r\n  /**\r\n   * Returns the length of the participants array.\r\n   * @return length of participants array\r\n   */\r\n  function participantsCount() public view returns(uint256 _count) {\r\n    return participants.length;\r\n  }\r\n\r\n  /**\r\n   * Returns the length of the proposals array.\r\n   * @return length of proposals array\r\n   */\r\n  function proposalsCount() public view returns(uint256 _count) {\r\n    return proposals.length;\r\n  }\r\n\r\n  /**\r\n   * Meta functions\r\n   */\r\n\r\n  /**\r\n   * Called by the owner to pause, triggers stopped state\r\n   */\r\n  function pause() onlyOwner whenNotPaused public {\r\n    super.pause();\r\n\r\n    //Withdraw from EtherDelta\r\n    uint256 balance = etherDelta.tokens(address(0), address(this));\r\n    etherDelta.withdraw(balance);\r\n\r\n    //Return all stakes\r\n    for (uint256 i = 0; i < proposals.length; i = i.add(1)) {\r\n      if (proposals[i].numFor > 0) {\r\n        __returnStakes(i);\r\n      }\r\n    }\r\n  }\r\n\r\n  /**\r\n   * Changes the address of the EtherDelta contract used in the contract. Only callable by owner.\r\n   * @param _newAddr new address of EtherDelta contract\r\n   */\r\n  function changeEtherDeltaAddress(address _newAddr) public onlyOwner {\r\n    require(_newAddr != address(0));\r\n    etherDeltaAddr = _newAddr;\r\n    etherDelta = EtherDelta(_newAddr);\r\n    oraclize.__changeEtherDeltaAddress(_newAddr);\r\n  }\r\n\r\n  /**\r\n   * Changes the address of the OraclizeHandler contract used in the contract. Only callable by owner.\r\n   * @param _newAddr new address of OraclizeHandler contract\r\n   */\r\n  function changeOraclizeAddress(address _newAddr) public onlyOwner {\r\n    require(_newAddr != address(0));\r\n    oraclizeAddr = _newAddr;\r\n    oraclize = OraclizeHandler(_newAddr);\r\n  }\r\n\r\n  /**\r\n   * Changes the address to which the developer fees will be sent. Only callable by owner.\r\n   * @param _newAddr new developer fee address\r\n   */\r\n  function changeDeveloperFeeAccount(address _newAddr) public onlyOwner {\r\n    require(_newAddr != address(0));\r\n    developerFeeAccount = _newAddr;\r\n  }\r\n\r\n  /**\r\n   * Changes the proportion of fund balance sent to the developers each cycle. May only decrease. Only callable by owner.\r\n   * @param _newProp the new proportion, fixed point decimal\r\n   */\r\n  function changeDeveloperFeeProportion(uint256 _newProp) public onlyOwner {\r\n    require(_newProp < developerFeeProportion);\r\n    developerFeeProportion = _newProp;\r\n  }\r\n\r\n  /**\r\n   * Changes the proportion of fund balance given to Kairo holders each cycle. Only callable by owner.\r\n   * @param _newProp the new proportion, fixed point decimal\r\n   */\r\n  function changeCommissionRate(uint256 _newProp) public onlyOwner {\r\n    commissionRate = _newProp;\r\n  }\r\n\r\n  /**\r\n   * Sends Ether to the OraclizeHandler contract.\r\n   */\r\n  function topupOraclizeFees() public payable {\r\n    oraclizeAddr.transfer(msg.value);\r\n  }\r\n\r\n  /**\r\n   * Changes the owner of the OraclizeHandler contract.\r\n   * @param  _newOwner the new owner address\r\n   */\r\n  function changeOraclizeOwner(address _newOwner) public onlyOwner {\r\n    require(_newOwner != address(0));\r\n    oraclize.transferOwnership(_newOwner);\r\n  }\r\n\r\n  /**\r\n   * Changes the owner of the ControlToken contract.\r\n   * @param  _newOwner the new owner address\r\n   */\r\n  function changeControlTokenOwner(address _newOwner) public onlyOwner {\r\n    require(_newOwner != address(0));\r\n    cToken.transferOwnership(_newOwner);\r\n  }\r\n\r\n  /**\r\n   * Start cycle functions\r\n   */\r\n\r\n  /**\r\n   * Starts a new investment cycle.\r\n   */\r\n  function startNewCycle() public during(CyclePhase.Finalized) whenNotPaused {\r\n    require(initialized);\r\n\r\n    //Update values\r\n    cyclePhase = CyclePhase.ChangeMaking;\r\n    startTimeOfCyclePhase = now;\r\n    cycleNumber = cycleNumber.add(1);\r\n\r\n    //Reset data\r\n    for (uint256 i = 0; i < participants.length; i = i.add(1)) {\r\n      __resetMemberData(participants[i]);\r\n    }\r\n    for (i = 0; i < proposals.length; i = i.add(1)) {\r\n      __resetProposalData(i);\r\n    }\r\n    oraclize.__deleteTokenSymbolOfProposal();\r\n    delete proposals;\r\n    delete numProposals;\r\n    delete cycleTotalForStake;\r\n\r\n    //Emit event\r\n    CycleStarted(cycleNumber, now);\r\n  }\r\n\r\n  /**\r\n   * Resets cycle specific data for a given participant.\r\n   * @param _addr the participant whose data will be reset\r\n   */\r\n  function __resetMemberData(address _addr) internal {\r\n    delete createdProposalCount[_addr];\r\n    delete userStakedProposalCount[_addr];\r\n\r\n    //Remove the associated corresponding control staked for/against  each proposal\r\n    for (uint256 i = 0; i < proposals.length; i = i.add(1)) {\r\n      delete forStakedControlOfProposalOfUser[i][_addr];\r\n      delete againstStakedControlOfProposalOfUser[i][_addr];\r\n    }\r\n  }\r\n\r\n  /**\r\n   * Resets cycle specific data for a give proposal\r\n   * @param _proposalId ID of proposal whose data will be reset\r\n   */\r\n  function __resetProposalData(uint256 _proposalId) internal {\r\n    delete isTokenAlreadyProposed[proposals[_proposalId].tokenAddress];\r\n    delete forStakedControlOfProposal[_proposalId];\r\n    delete againstStakedControlOfProposal[_proposalId];\r\n  }\r\n\r\n  /**\r\n   * ChangeMakingTime functions\r\n   */\r\n\r\n  /**\r\n   * Deposit Ether into the fund.\r\n   */\r\n  function deposit()\r\n    public\r\n    payable\r\n    during(CyclePhase.ChangeMaking)\r\n    whenNotPaused\r\n  {\r\n    //If caller is not a participant, add them to the participants list\r\n    if (!isParticipant[msg.sender]) {\r\n      participants.push(msg.sender);\r\n      isParticipant[msg.sender] = true;\r\n    }\r\n\r\n    //Register investment\r\n    balanceOf[msg.sender] = balanceOf[msg.sender].add(msg.value);\r\n    totalFundsInWeis = totalFundsInWeis.add(msg.value);\r\n\r\n    if (cycleNumber == 1) {\r\n      //Give control tokens proportional to investment\r\n      cToken.mint(msg.sender, msg.value);\r\n    }\r\n\r\n    //Emit event\r\n    Deposit(cycleNumber, msg.sender, msg.value, now);\r\n  }\r\n\r\n  /**\r\n   * Withdraws a certain amount of Ether from the user's account. Cannot be called during the first cycle.\r\n   * @param _amountInWeis amount of Ether to be withdrawn\r\n   */\r\n  function withdraw(uint256 _amountInWeis)\r\n    public\r\n    during(CyclePhase.ChangeMaking)\r\n    onlyParticipant\r\n    whenNotPaused\r\n  {\r\n    require(cycleNumber != 1);\r\n\r\n    //Subtract from account\r\n    totalFundsInWeis = totalFundsInWeis.sub(_amountInWeis);\r\n    balanceOf[msg.sender] = balanceOf[msg.sender].sub(_amountInWeis);\r\n\r\n    //Transfer Ether to user\r\n    msg.sender.transfer(_amountInWeis);\r\n\r\n    //Emit event\r\n    Withdraw(cycleNumber, msg.sender, _amountInWeis, now);\r\n  }\r\n\r\n  /**\r\n   * Function for withdrawing all funds in times of emergency. Only callable when fund is paused.\r\n   */\r\n  function emergencyWithdraw()\r\n    public\r\n    onlyParticipant\r\n    whenPaused\r\n  {\r\n    uint256 amountInWeis = balanceOf[msg.sender];\r\n\r\n    //Subtract from account\r\n    totalFundsInWeis = totalFundsInWeis.sub(amountInWeis);\r\n    balanceOf[msg.sender] = 0;\r\n\r\n    //Transfer\r\n    msg.sender.transfer(amountInWeis);\r\n\r\n    //Emit event\r\n    Withdraw(cycleNumber, msg.sender, amountInWeis, now);\r\n  }\r\n\r\n  /**\r\n   * Ends the ChangeMaking phase.\r\n   */\r\n  function endChangeMakingTime() public during(CyclePhase.ChangeMaking) whenNotPaused {\r\n    require(now >= startTimeOfCyclePhase.add(timeOfChangeMaking));\r\n\r\n    startTimeOfCyclePhase = now;\r\n    cyclePhase = CyclePhase.ProposalMaking;\r\n\r\n    ChangeMakingTimeEnded(cycleNumber, now);\r\n  }\r\n\r\n  /**\r\n   * ProposalMakingTime functions\r\n   */\r\n\r\n  /**\r\n   * Creates a new investment proposal for an ERC20 token.\r\n   * @param _tokenAddress address of the ERC20 token contract\r\n   * @param _tokenSymbol  ticker/symbol of the token\r\n   * @param _tokenDecimals number of decimals that the token uses\r\n   * @param _stakeInWeis amount of Kairos to be staked in support of the proposal\r\n   */\r\n  function createProposal(\r\n    address _tokenAddress,\r\n    string _tokenSymbol,\r\n    uint256 _tokenDecimals,\r\n    uint256 _stakeInWeis\r\n  )\r\n    public\r\n    during(CyclePhase.ProposalMaking)\r\n    onlyParticipant\r\n    whenNotPaused\r\n  {\r\n    require(numProposals < maxProposals);\r\n    require(!isTokenAlreadyProposed[_tokenAddress]);\r\n    require(createdProposalCount[msg.sender] < maxProposalsPerMember);\r\n\r\n    //Add proposal to list\r\n    proposals.push(Proposal({\r\n      tokenAddress: _tokenAddress,\r\n      tokenSymbol: _tokenSymbol,\r\n      tokenDecimals: _tokenDecimals,\r\n      buyPriceInWeis: 0,\r\n      sellPriceInWeis: 0,\r\n      numFor: 0,\r\n      numAgainst: 0,\r\n      buyOrderExpirationBlockNum: 0,\r\n      sellOrderExpirationBlockNum: 0\r\n    }));\r\n\r\n    //Update values about proposal\r\n    isTokenAlreadyProposed[_tokenAddress] = true;\r\n    oraclize.__pushTokenSymbolOfProposal(_tokenSymbol);\r\n    createdProposalCount[msg.sender] = createdProposalCount[msg.sender].add(1);\r\n    numProposals = numProposals.add(1);\r\n\r\n    //Stake control tokens\r\n    uint256 proposalId = proposals.length - 1;\r\n    stakeProposal(proposalId, _stakeInWeis, true);\r\n\r\n    //Emit event\r\n    NewProposal(cycleNumber, proposalId, _tokenAddress, _tokenSymbol, _stakeInWeis);\r\n  }\r\n\r\n  /**\r\n   * Supports an investment proposal.\r\n   * @param _proposalId ID of the proposal the user wants to support\r\n   * @param _stakeInWeis amount of Kairo to be staked in support of the proposal\r\n   */\r\n  function stakeProposal(uint256 _proposalId, uint256 _stakeInWeis, bool _support)\r\n    public\r\n    during(CyclePhase.ProposalMaking)\r\n    onlyParticipant\r\n    whenNotPaused\r\n  {\r\n    require(_proposalId < proposals.length); //Valid ID\r\n    require(isTokenAlreadyProposed[proposals[_proposalId].tokenAddress]); //Non-empty proposal\r\n\r\n    /**\r\n     * Stake Kairos\r\n     */\r\n    //Ensure stake is larger than the minimum proportion of Kairo balance\r\n    require(_stakeInWeis.mul(precision) >= minStakeProportion.mul(cToken.balanceOf(msg.sender)));\r\n    require(_stakeInWeis > 0); //Ensure positive stake amount\r\n\r\n    //Collect Kairos as stake\r\n    cToken.ownerCollectFrom(msg.sender, _stakeInWeis);\r\n\r\n    //Update stake data\r\n    if (_support && againstStakedControlOfProposalOfUser[_proposalId][msg.sender] == 0) {\r\n      //Support proposal, hasn't staked against it\r\n      if (forStakedControlOfProposalOfUser[_proposalId][msg.sender] == 0) {\r\n        proposals[_proposalId].numFor = proposals[_proposalId].numFor.add(1);\r\n      }\r\n      forStakedControlOfProposal[_proposalId] = forStakedControlOfProposal[_proposalId].add(_stakeInWeis);\r\n      forStakedControlOfProposalOfUser[_proposalId][msg.sender] = forStakedControlOfProposalOfUser[_proposalId][msg.sender].add(_stakeInWeis);\r\n      cycleTotalForStake = cycleTotalForStake.add(_stakeInWeis);\r\n    } else if (!_support && forStakedControlOfProposalOfUser[_proposalId][msg.sender] == 0) {\r\n      //Against proposal, hasn't staked for it\r\n      if (againstStakedControlOfProposalOfUser[_proposalId][msg.sender] == 0) {\r\n        proposals[_proposalId].numAgainst = proposals[_proposalId].numAgainst.add(1);\r\n      }\r\n      againstStakedControlOfProposal[_proposalId] = againstStakedControlOfProposal[_proposalId].add(_stakeInWeis);\r\n      againstStakedControlOfProposalOfUser[_proposalId][msg.sender] = againstStakedControlOfProposalOfUser[_proposalId][msg.sender].add(_stakeInWeis);\r\n    } else {\r\n      revert();\r\n    }\r\n    userStakedProposalCount[msg.sender] = userStakedProposalCount[msg.sender].add(1);\r\n\r\n    //Emit event\r\n    StakedProposal(cycleNumber, _proposalId, _stakeInWeis, _support);\r\n  }\r\n\r\n  /**\r\n   * Cancels support of a proposal.\r\n   * @param _proposalId ID of the proposal\r\n   */\r\n  function cancelProposalSupport(uint256 _proposalId)\r\n    public\r\n    during(CyclePhase.ProposalMaking)\r\n    onlyParticipant\r\n    whenNotPaused\r\n  {\r\n    require(_proposalId < proposals.length); //Valid ID\r\n    require(proposals[_proposalId].numFor > 0); //Non-empty proposal\r\n\r\n    //Remove stake data\r\n    uint256 forStake = forStakedControlOfProposalOfUser[_proposalId][msg.sender];\r\n    uint256 againstStake = againstStakedControlOfProposalOfUser[_proposalId][msg.sender];\r\n    uint256 stake = forStake.add(againstStake);\r\n    if (forStake > 0) {\r\n      forStakedControlOfProposal[_proposalId] = forStakedControlOfProposal[_proposalId].sub(stake);\r\n      cycleTotalForStake = cycleTotalForStake.sub(stake);\r\n      proposals[_proposalId].numFor = proposals[_proposalId].numFor.sub(1);\r\n    } else if (againstStake > 0) {\r\n      againstStakedControlOfProposal[_proposalId] = againstStakedControlOfProposal[_proposalId].sub(stake);\r\n      proposals[_proposalId].numAgainst = proposals[_proposalId].numAgainst.sub(1);\r\n    } else {\r\n      return;\r\n    }\r\n    userStakedProposalCount[msg.sender] = userStakedProposalCount[msg.sender].sub(1);\r\n\r\n    delete forStakedControlOfProposalOfUser[_proposalId][msg.sender];\r\n    delete againstStakedControlOfProposalOfUser[_proposalId][msg.sender];\r\n\r\n    //Return stake\r\n    cToken.transfer(msg.sender, stake);\r\n\r\n    //Delete proposal if necessary\r\n    if (proposals[_proposalId].numFor == 0) {\r\n      __returnStakes(_proposalId);\r\n      __resetProposalData(_proposalId);\r\n      numProposals = numProposals.sub(1);\r\n      delete proposals[_proposalId];\r\n    }\r\n  }\r\n\r\n  /**\r\n   * Ends the ProposalMaking phase.\r\n   */\r\n  function endProposalMakingTime()\r\n    public\r\n    during(CyclePhase.ProposalMaking)\r\n    whenNotPaused\r\n  {\r\n    require(now >= startTimeOfCyclePhase.add(timeOfProposalMaking));\r\n\r\n    startTimeOfCyclePhase = now;\r\n    cyclePhase = CyclePhase.Waiting;\r\n\r\n    __autoStakeAgainst();\r\n    __makeInvestments();\r\n\r\n    ProposalMakingTimeEnded(cycleNumber, now);\r\n  }\r\n\r\n  /**\r\n   * Automatically stake equally into all proposals for Kairo holders who didn't stake anything.\r\n   */\r\n  function __autoStakeAgainst() internal {\r\n    for (uint256 i = 0; i < participants.length; i = i.add(1)) {\r\n      address participant = participants[i];\r\n      uint256 kairoBalance = cToken.balanceOf(participant);\r\n      if (userStakedProposalCount[participant] == 0 && kairoBalance > 0) {\r\n        uint256 stakeIntoEachProposal = kairoBalance.mul(minStakeProportion).div(precision.mul(numProposals));\r\n        for (uint256 j = 0; j < proposals.length; j = j.add(1)) {\r\n          stakeProposal(j, stakeIntoEachProposal, false);\r\n        }\r\n      }\r\n    }\r\n  }\r\n\r\n  /**\r\n   * Turns the investment proposals into EtherDelta orders.\r\n   */\r\n  function __makeInvestments() internal {\r\n    //Invest in tokens using etherdelta\r\n    for (uint256 i = 0; i < proposals.length; i = i.add(1)) {\r\n      if (proposals[i].numFor > 0) { //Ensure proposal isn't a deleted one\r\n        //Deposit ether\r\n        uint256 investAmount = totalFundsInWeis.mul(forStakedControlOfProposal[i]).div(cycleTotalForStake);\r\n        etherDelta.deposit.value(investAmount)();\r\n        oraclize.__grabCurrentPriceFromOraclize(i);\r\n      }\r\n    }\r\n  }\r\n\r\n  /**\r\n   * Ends the Waiting phase.\r\n   */\r\n  function endWaitingTime() public during(CyclePhase.Waiting) whenNotPaused {\r\n    require(now >= startTimeOfCyclePhase.add(timeOfWaiting));\r\n\r\n    //Update values\r\n    startTimeOfCyclePhase = now;\r\n    cyclePhase = CyclePhase.Ended;\r\n\r\n    //Sell all invested tokens\r\n    for (uint256 i = 0; i < proposals.length; i = i.add(1)) {\r\n      if (proposals[i].numFor > 0) { //Ensure proposal isn't a deleted one\r\n        oraclize.__grabCurrentPriceFromOraclize(i);\r\n      }\r\n    }\r\n\r\n    //Emit event\r\n    CycleEnded(cycleNumber, now);\r\n  }\r\n\r\n  /**\r\n   * Finalize the cycle by redistributing user balances and settling investment proposals.\r\n   */\r\n  function finalizeCycle() public during(CyclePhase.Ended) whenNotPaused {\r\n    require(now >= startTimeOfCyclePhase.add(timeOfSellOrderWaiting));\r\n\r\n    //Update cycle values\r\n    startTimeOfCyclePhase = now;\r\n    cyclePhase = CyclePhase.Finalized;\r\n\r\n    //Settle investment proposal results\r\n    for (uint256 proposalId = 0; proposalId < proposals.length; proposalId = proposalId.add(1)) {\r\n      if (proposals[proposalId].numFor > 0) { //Ensure proposal isn't a deleted one\r\n        __settleBets(proposalId);\r\n      }\r\n    }\r\n    //Burn any Kairo left in BetokenFund's account\r\n    cToken.burnOwnerBalance();\r\n\r\n    //Withdraw from etherdelta\r\n    uint256 balance = etherDelta.tokens(address(0), address(this));\r\n    etherDelta.withdraw(balance);\r\n\r\n    //Get all remaining funds from OraclizeHandler\r\n    oraclize.__returnAllFunds();\r\n\r\n    //Distribute funds\r\n    __distributeFundsAfterCycleEnd();\r\n\r\n    //Emit event\r\n    CycleFinalized(cycleNumber, now);\r\n  }\r\n\r\n  /**\r\n   * Settles an investment proposal in terms of profitability.\r\n   * @param _proposalId ID of the proposal\r\n   */\r\n  function __settleBets(uint256 _proposalId) internal {\r\n    Proposal storage prop = proposals[_proposalId];\r\n\r\n    //Prevent divide by zero errors\r\n    if (prop.buyPriceInWeis == 0 || cycleTotalForStake == 0) {\r\n      __returnStakes(_proposalId);\r\n      return;\r\n    }\r\n\r\n    //Check if sell order has been partially or completely filled\r\n    uint256 investAmount = totalFundsInWeis.mul(forStakedControlOfProposal[_proposalId]).div(cycleTotalForStake);\r\n    if (etherDelta.amountFilled(prop.tokenAddress, investAmount.mul(10**prop.tokenDecimals).div(prop.buyPriceInWeis), address(0), investAmount, prop.sellOrderExpirationBlockNum, _proposalId, address(this), 0, 0, 0) != 0) {\r\n      uint256 forMultiplier = prop.sellPriceInWeis.mul(precision).div(prop.buyPriceInWeis);\r\n      uint256 againstMultiplier = 0;\r\n      if (prop.sellPriceInWeis < prop.buyPriceInWeis.mul(2)) {\r\n        againstMultiplier = prop.buyPriceInWeis.mul(2).sub(prop.sellPriceInWeis).mul(precision).div(prop.buyPriceInWeis);\r\n      }\r\n\r\n      for (uint256 j = 0; j < participants.length; j = j.add(1)) {\r\n        address participant = participants[j];\r\n        uint256 stake = 0;\r\n        if (forStakedControlOfProposalOfUser[_proposalId][participant] > 0) {\r\n          //User supports proposal\r\n          stake = forStakedControlOfProposalOfUser[_proposalId][participant];\r\n          //Mint instead of transfer. Ensures that there are always enough tokens.\r\n          //Extra will be burned right after so no problem there.\r\n          cToken.mint(participant, stake.mul(forMultiplier).div(precision));\r\n        } else if (againstStakedControlOfProposalOfUser[_proposalId][participant] > 0) {\r\n          //User is against proposal\r\n          stake = againstStakedControlOfProposalOfUser[_proposalId][participant];\r\n          //Mint instead of transfer. Ensures that there are always enough tokens.\r\n          //Extra will be burned right after so no problem there.\r\n          cToken.mint(participant, stake.mul(againstMultiplier).div(precision));\r\n        }\r\n      }\r\n    } else {\r\n      //Buy order failed completely. Return stakes.\r\n      __returnStakes(_proposalId);\r\n    }\r\n  }\r\n\r\n  /**\r\n   * Returns all stakes of a proposal\r\n   * @param _proposalId ID of the proposal\r\n   */\r\n  function __returnStakes(uint256 _proposalId) internal {\r\n    for (uint256 j = 0; j < participants.length; j = j.add(1)) {\r\n      address participant = participants[j];\r\n      uint256 stake = forStakedControlOfProposalOfUser[_proposalId][participant].add(againstStakedControlOfProposalOfUser[_proposalId][participant]);\r\n      if (stake != 0) {\r\n        cToken.transfer(participant, stake);\r\n      }\r\n    }\r\n  }\r\n\r\n  /**\r\n   * Distributes the funds accourding to previously held proportions. Pays commission to Kairo holders,\r\n   * developer fees to developers, and oraclize fee to OraclizeHandler.\r\n   */\r\n  function __distributeFundsAfterCycleEnd() internal {\r\n    uint256 profit = 0;\r\n    if (this.balance > totalFundsInWeis) {\r\n      profit = this.balance - totalFundsInWeis;\r\n    }\r\n    uint256 totalCommission = commissionRate.mul(profit).div(precision);\r\n    uint256 devFee = developerFeeProportion.mul(this.balance).div(precision);\r\n    uint256 oraclizeFee = oraclize.__oraclizeFee().mul(maxProposals).mul(2);\r\n    uint256 newTotalRegularFunds = this.balance.sub(totalCommission).sub(devFee);\r\n    if (oraclizeFee <= newTotalRegularFunds) {\r\n      newTotalRegularFunds = newTotalRegularFunds.sub(oraclizeFee);\r\n    }\r\n\r\n    //Distributes funds to participants\r\n    for (uint256 i = 0; i < participants.length; i = i.add(1)) {\r\n      address participant = participants[i];\r\n      uint256 newBalance = 0;\r\n      //Add share\r\n      if (totalFundsInWeis > 0) {\r\n        newBalance = newBalance.add(newTotalRegularFunds.mul(balanceOf[participant]).div(totalFundsInWeis));\r\n      }\r\n      //Add commission\r\n      //Adding a check for nonzero Kairo supply here makes Truffle go apeshit. Edge case anyways, so whatevs.\r\n      newBalance = newBalance.add(totalCommission.mul(cToken.balanceOf(participant)).div(cToken.totalSupply()));\r\n      //Update balance\r\n      balanceOf[participant] = newBalance;\r\n    }\r\n\r\n    //Update values\r\n    uint256 newTotalFunds = newTotalRegularFunds.add(totalCommission);\r\n    ROI(cycleNumber, totalFundsInWeis, newTotalFunds);\r\n    totalFundsInWeis = newTotalFunds;\r\n\r\n    //Transfer fees\r\n    developerFeeAccount.transfer(devFee);\r\n    oraclize.transfer(oraclizeFee);\r\n\r\n    //Emit event\r\n    CommissionPaid(cycleNumber, totalCommission);\r\n  }\r\n\r\n  /**\r\n   * Internal use functions\r\n   */\r\n\r\n  function __addControlTokenReceipientAsParticipant(address _receipient) public {\r\n    require(msg.sender == controlTokenAddr);\r\n    isParticipant[_receipient] = true;\r\n    participants.push(_receipient);\r\n  }\r\n\r\n  function __makeOrder(address _tokenGet, uint _amountGet, address _tokenGive, uint _amountGive, uint _expires, uint _nonce) public onlyOraclize whenNotPaused {\r\n    etherDelta.order(_tokenGet, _amountGet, _tokenGive, _amountGive, _expires, _nonce);\r\n  }\r\n\r\n  function __setBuyPriceAndExpirationBlock(uint256 _proposalId, uint256 _buyPrice, uint256 _expires) public onlyOraclize {\r\n    proposals[_proposalId].buyPriceInWeis = _buyPrice;\r\n    proposals[_proposalId].buyOrderExpirationBlockNum = _expires;\r\n  }\r\n\r\n  function __setSellPriceAndExpirationBlock(uint256 _proposalId, uint256 _sellPrice, uint256 _expires) public onlyOraclize {\r\n    proposals[_proposalId].sellPriceInWeis = _sellPrice;\r\n    proposals[_proposalId].sellOrderExpirationBlockNum = _expires;\r\n  }\r\n\r\n  function() public payable {\r\n    if (msg.sender != etherDeltaAddr && msg.sender != oraclizeAddr) {\r\n      revert();\r\n    }\r\n  }\r\n}\r\n\r\n/**\r\n * Contract that handles all Oraclize related operations.\r\n */\r\ncontract OraclizeHandler is usingOraclize, Ownable {\r\n  using SafeMath for uint256;\r\n\r\n  enum CyclePhase { ChangeMaking, ProposalMaking, Waiting, Ended, Finalized }\r\n\r\n  //URL parts used for Oraclize queries.\r\n  string public priceCheckURL1;\r\n  string public priceCheckURL2;\r\n  string public currencySymbol;\r\n\r\n  //Addresses of other contracts.\r\n  address public controlTokenAddr;\r\n  address public etherDeltaAddr;\r\n\r\n  //mapping(queryHash => proposalId)\r\n  mapping(bytes32 => uint256) public proposalIdOfQuery;\r\n\r\n  //References to other contracts.\r\n  BetokenFund internal betokenFund;\r\n  ControlToken internal cToken;\r\n  EtherDelta internal etherDelta;\r\n\r\n  //Stores the token symbols of each proposal.\r\n  string[] public tokenSymbolOfProposal;\r\n\r\n  function OraclizeHandler(\r\n    address _controlTokenAddr,\r\n    address _etherDeltaAddr,\r\n    string _priceCheckURL1,\r\n    string _priceCheckURL2\r\n  )\r\n    public\r\n  {\r\n    controlTokenAddr = _controlTokenAddr;\r\n    etherDeltaAddr = _etherDeltaAddr;\r\n    cToken = ControlToken(_controlTokenAddr);\r\n    etherDelta = EtherDelta(_etherDeltaAddr);\r\n\r\n    priceCheckURL1 = _priceCheckURL1;\r\n    priceCheckURL2 = _priceCheckURL2;\r\n  }\r\n\r\n  function __changeEtherDeltaAddress(address _newAddr) public onlyOwner {\r\n    etherDeltaAddr = _newAddr;\r\n    etherDelta = EtherDelta(_newAddr);\r\n  }\r\n\r\n  function __pushTokenSymbolOfProposal(string _tokenSymbol) public onlyOwner {\r\n    tokenSymbolOfProposal.push(_tokenSymbol);\r\n  }\r\n\r\n  function __deleteTokenSymbolOfProposal() public onlyOwner {\r\n    delete tokenSymbolOfProposal;\r\n  }\r\n\r\n  function __returnAllFunds() public onlyOwner {\r\n    owner.transfer(this.balance);\r\n  }\r\n\r\n  function __oraclizeFee() public view returns(uint256) {\r\n    return oraclize_getPrice(\"URL\");\r\n  }\r\n\r\n  /**\r\n   * Oraclize functions\r\n   */\r\n\r\n  /**\r\n   * Queries the price of a proposal's token using Oraclize.\r\n   * @param _proposalId ID of the proposal\r\n   */\r\n  function __grabCurrentPriceFromOraclize(uint _proposalId) public payable onlyOwner {\r\n    require(oraclize_getPrice(\"URL\") <= this.balance);\r\n\r\n    betokenFund = BetokenFund(owner);\r\n\r\n    //Generate query\r\n    string storage tokenSymbol = tokenSymbolOfProposal[_proposalId];\r\n    string memory urlToQuery = strConcat(priceCheckURL1, tokenSymbol, priceCheckURL2);\r\n\r\n    //Call Oraclize to grab the most recent price information\r\n    proposalIdOfQuery[oraclize_query(\"URL\", urlToQuery)] = _proposalId;\r\n  }\r\n\r\n  /**\r\n   * Callback function for Oraclize queries.\r\n   * @param _myID query ID\r\n   * @param _result  result of query\r\n   */\r\n  function __callback(bytes32 _myID, string _result) public {\r\n    require(msg.sender == oraclize_cbAddress());\r\n    require(keccak256(_result) != keccak256(\"\"));\r\n\r\n    //Update BetokenFund contract in case owner has changed\r\n    betokenFund = BetokenFund(owner);\r\n\r\n    //Grab ETH price in Weis\r\n    uint256 priceInWeis = parseInt(_result, 18);\r\n\r\n    //Get proposal data\r\n    uint256 proposalId = proposalIdOfQuery[_myID];\r\n    var (tokenAddress, _, decimals,) = betokenFund.proposals(proposalId);\r\n\r\n    uint256 investAmount = betokenFund.totalFundsInWeis().mul(betokenFund.forStakedControlOfProposal(proposalId)).div(betokenFund.cycleTotalForStake());\r\n    uint256 expires = block.number.add(betokenFund.orderExpirationTimeInBlocks());\r\n    if (uint(betokenFund.cyclePhase()) == uint(CyclePhase.Waiting)) {\r\n      //Make buy orders\r\n      betokenFund.__setBuyPriceAndExpirationBlock(proposalId, priceInWeis, expires);\r\n      uint256 buyTokenAmount = investAmount.mul(10**decimals).div(priceInWeis);\r\n      betokenFund.__makeOrder(tokenAddress, buyTokenAmount, address(0), investAmount, expires, proposalId);\r\n    } else if (uint(betokenFund.cyclePhase()) == uint(CyclePhase.Ended)) {\r\n      //Make sell orders\r\n      betokenFund.__setSellPriceAndExpirationBlock(proposalId, priceInWeis, expires);\r\n      uint256 sellTokenAmount = etherDelta.tokens(tokenAddress, owner);\r\n      uint256 getWeiAmount = sellTokenAmount.mul(priceInWeis).div(10**decimals);\r\n      betokenFund.__makeOrder(address(0), getWeiAmount, tokenAddress, sellTokenAmount, expires, proposalId);\r\n    }\r\n\r\n    //Reset data\r\n    delete proposalIdOfQuery[_myID];\r\n  }\r\n\r\n  function() public payable {\r\n    if (msg.sender != owner) {\r\n      revert();\r\n    }\r\n  }\r\n}\r\n\r\n/**\r\n * ERC20 token contract for Kairo.\r\n */\r\ncontract ControlToken is MintableToken {\r\n  using SafeMath for uint256;\r\n\r\n  string public constant name = \"Kairo\";\r\n  string public constant symbol = \"KRO\";\r\n  uint8 public constant decimals = 18;\r\n\r\n  event OwnerCollectFrom(address _from, uint256 _value);\r\n\r\n  /**\r\n   * Transfer token for a specified address\r\n   * @param _to The address to transfer to.\r\n   * @param _value The amount to be transferred.\r\n   */\r\n  function transfer(address _to, uint256 _value) public returns(bool) {\r\n    require(_to != address(0));\r\n    require(_value <= balances[msg.sender]);\r\n\r\n    //Add receipient as a participant if not already a participant\r\n    addParticipant(_to);\r\n\r\n    // SafeMath.sub will throw if there is not enough balance.\r\n    balances[msg.sender] = balances[msg.sender].sub(_value);\r\n    balances[_to] = balances[_to].add(_value);\r\n    Transfer(msg.sender, _to, _value);\r\n    return true;\r\n  }\r\n\r\n  /**\r\n   * Transfer tokens from one address to another\r\n   * @param _from The address which you want to send tokens from\r\n   * @param _to The address which you want to transfer to\r\n   * @param _value the amount of tokens to be transferred\r\n   */\r\n  function transferFrom(address _from, address _to, uint256 _value) public returns (bool) {\r\n    require(_to != address(0));\r\n    require(_value <= balances[_from]);\r\n    require(_value <= allowed[_from][msg.sender]);\r\n\r\n    //Add receipient as a participant if not already a participant\r\n    addParticipant(_to);\r\n\r\n    balances[_from] = balances[_from].sub(_value);\r\n    balances[_to] = balances[_to].add(_value);\r\n    allowed[_from][msg.sender] = allowed[_from][msg.sender].sub(_value);\r\n    Transfer(_from, _to, _value);\r\n    return true;\r\n  }\r\n\r\n  /**\r\n   * Collects tokens for the owner.\r\n   * @param _from The address which you want to send tokens from\r\n   * @param _value the amount of tokens to be transferred\r\n   * @return true if succeeded, false otherwise\r\n   */\r\n  function ownerCollectFrom(address _from, uint256 _value) public onlyOwner returns(bool) {\r\n    require(_from != address(0));\r\n    require(_value <= balances[_from]);\r\n\r\n    // SafeMath.sub will throw if there is not enough balance.\r\n    balances[_from] = balances[_from].sub(_value);\r\n    balances[msg.sender] = balances[msg.sender].add(_value);\r\n    OwnerCollectFrom(_from, _value);\r\n    return true;\r\n  }\r\n\r\n  /**\r\n   * Adds an address as a BetokenFund participant.\r\n   * @param  _to the address to be added\r\n   */\r\n  function addParticipant(address _to) internal {\r\n    BetokenFund groupFund = BetokenFund(owner);\r\n    if (!groupFund.isParticipant(_to)) {\r\n      groupFund.__addControlTokenReceipientAsParticipant(_to);\r\n    }\r\n  }\r\n\r\n  /**\r\n   * Burns the owner's token balance.\r\n   */\r\n  function burnOwnerBalance() public onlyOwner {\r\n    totalSupply_ = totalSupply_.sub(balances[owner]);\r\n    balances[owner] = 0;\r\n  }\r\n\r\n  function() public {\r\n    revert();\r\n  }\r\n}\r\n",
  "sourcePath": "D:\\msi-cn\\Documents\\GitHub\\betoken\\eth\\contracts\\betoken.sol",
  "compiler": {
    "name": "solc",
    "version": "0.4.18+commit.9cf6e910.Emscripten.clang"
  },
  "schemaVersion": "1.0.1",
  "updatedAt": "2018-02-04T07:55:10.599Z"
}