{
  "contractName": "BetokenFund",
  "abi": [
    {
      "constant": true,
      "inputs": [
        {
          "name": "",
          "type": "uint256"
        }
      ],
      "name": "proposals",
      "outputs": [
        {
          "name": "tokenAddress",
          "type": "address"
        },
        {
          "name": "buyPriceInWeis",
          "type": "uint256"
        },
        {
          "name": "sellPriceInWeis",
          "type": "uint256"
        },
        {
          "name": "numFor",
          "type": "uint256"
        },
        {
          "name": "numAgainst",
          "type": "uint256"
        }
      ],
      "payable": false,
      "stateMutability": "view",
      "type": "function"
    },
    {
      "constant": true,
      "inputs": [],
      "name": "creator",
      "outputs": [
        {
          "name": "",
          "type": "address"
        }
      ],
      "payable": false,
      "stateMutability": "view",
      "type": "function"
    },
    {
      "constant": true,
      "inputs": [
        {
          "name": "",
          "type": "uint256"
        },
        {
          "name": "",
          "type": "address"
        }
      ],
      "name": "forStakedControlOfProposalOfUser",
      "outputs": [
        {
          "name": "",
          "type": "uint256"
        }
      ],
      "payable": false,
      "stateMutability": "view",
      "type": "function"
    },
    {
      "constant": true,
      "inputs": [
        {
          "name": "",
          "type": "address"
        }
      ],
      "name": "userStakedProposalCount",
      "outputs": [
        {
          "name": "",
          "type": "uint256"
        }
      ],
      "payable": false,
      "stateMutability": "view",
      "type": "function"
    },
    {
      "constant": true,
      "inputs": [],
      "name": "initialized",
      "outputs": [
        {
          "name": "",
          "type": "bool"
        }
      ],
      "payable": false,
      "stateMutability": "view",
      "type": "function"
    },
    {
      "constant": true,
      "inputs": [],
      "name": "allowEmergencyWithdraw",
      "outputs": [
        {
          "name": "",
          "type": "bool"
        }
      ],
      "payable": false,
      "stateMutability": "view",
      "type": "function"
    },
    {
      "constant": true,
      "inputs": [],
      "name": "developerFeeAccount",
      "outputs": [
        {
          "name": "",
          "type": "address"
        }
      ],
      "payable": false,
      "stateMutability": "view",
      "type": "function"
    },
    {
      "constant": true,
      "inputs": [],
      "name": "minStakeProportion",
      "outputs": [
        {
          "name": "",
          "type": "uint256"
        }
      ],
      "payable": false,
      "stateMutability": "view",
      "type": "function"
    },
    {
      "constant": true,
      "inputs": [],
      "name": "startTimeOfCyclePhase",
      "outputs": [
        {
          "name": "",
          "type": "uint256"
        }
      ],
      "payable": false,
      "stateMutability": "view",
      "type": "function"
    },
    {
      "constant": true,
      "inputs": [],
      "name": "timeOfChangeMaking",
      "outputs": [
        {
          "name": "",
          "type": "uint256"
        }
      ],
      "payable": false,
      "stateMutability": "view",
      "type": "function"
    },
    {
      "constant": true,
      "inputs": [
        {
          "name": "",
          "type": "uint256"
        },
        {
          "name": "",
          "type": "address"
        }
      ],
      "name": "againstStakedControlOfProposalOfUser",
      "outputs": [
        {
          "name": "",
          "type": "uint256"
        }
      ],
      "payable": false,
      "stateMutability": "view",
      "type": "function"
    },
    {
      "constant": true,
      "inputs": [],
      "name": "maxProposals",
      "outputs": [
        {
          "name": "",
          "type": "uint256"
        }
      ],
      "payable": false,
      "stateMutability": "view",
      "type": "function"
    },
    {
      "constant": true,
      "inputs": [],
      "name": "cycleNumber",
      "outputs": [
        {
          "name": "",
          "type": "uint256"
        }
      ],
      "payable": false,
      "stateMutability": "view",
      "type": "function"
    },
    {
      "constant": true,
      "inputs": [
        {
          "name": "",
          "type": "uint256"
        }
      ],
      "name": "participants",
      "outputs": [
        {
          "name": "",
          "type": "address"
        }
      ],
      "payable": false,
      "stateMutability": "view",
      "type": "function"
    },
    {
      "constant": false,
      "inputs": [],
      "name": "unpause",
      "outputs": [],
      "payable": false,
      "stateMutability": "nonpayable",
      "type": "function"
    },
    {
      "constant": true,
      "inputs": [],
      "name": "numProposals",
      "outputs": [
        {
          "name": "",
          "type": "uint256"
        }
      ],
      "payable": false,
      "stateMutability": "view",
      "type": "function"
    },
    {
      "constant": true,
      "inputs": [
        {
          "name": "",
          "type": "address"
        }
      ],
      "name": "isTokenAlreadyProposed",
      "outputs": [
        {
          "name": "",
          "type": "bool"
        }
      ],
      "payable": false,
      "stateMutability": "view",
      "type": "function"
    },
    {
      "constant": true,
      "inputs": [],
      "name": "timeOfWaiting",
      "outputs": [
        {
          "name": "",
          "type": "uint256"
        }
      ],
      "payable": false,
      "stateMutability": "view",
      "type": "function"
    },
    {
      "constant": true,
      "inputs": [],
      "name": "paused",
      "outputs": [
        {
          "name": "",
          "type": "bool"
        }
      ],
      "payable": false,
      "stateMutability": "view",
      "type": "function"
    },
    {
      "constant": true,
      "inputs": [],
      "name": "commissionRate",
      "outputs": [
        {
          "name": "",
          "type": "uint256"
        }
      ],
      "payable": false,
      "stateMutability": "view",
      "type": "function"
    },
    {
      "constant": true,
      "inputs": [
        {
          "name": "",
          "type": "address"
        }
      ],
      "name": "balanceOf",
      "outputs": [
        {
          "name": "",
          "type": "uint256"
        }
      ],
      "payable": false,
      "stateMutability": "view",
      "type": "function"
    },
    {
      "constant": true,
      "inputs": [],
      "name": "totalFundsInWeis",
      "outputs": [
        {
          "name": "",
          "type": "uint256"
        }
      ],
      "payable": false,
      "stateMutability": "view",
      "type": "function"
    },
    {
      "constant": true,
      "inputs": [],
      "name": "maxProposalsPerMember",
      "outputs": [
        {
          "name": "",
          "type": "uint256"
        }
      ],
      "payable": false,
      "stateMutability": "view",
      "type": "function"
    },
    {
      "constant": false,
      "inputs": [],
      "name": "pause",
      "outputs": [],
      "payable": false,
      "stateMutability": "nonpayable",
      "type": "function"
    },
    {
      "constant": true,
      "inputs": [],
      "name": "owner",
      "outputs": [
        {
          "name": "",
          "type": "address"
        }
      ],
      "payable": false,
      "stateMutability": "view",
      "type": "function"
    },
    {
      "constant": true,
      "inputs": [
        {
          "name": "",
          "type": "address"
        }
      ],
      "name": "isParticipant",
      "outputs": [
        {
          "name": "",
          "type": "bool"
        }
      ],
      "payable": false,
      "stateMutability": "view",
      "type": "function"
    },
    {
      "constant": true,
      "inputs": [
        {
          "name": "",
          "type": "uint256"
        }
      ],
      "name": "againstStakedControlOfProposal",
      "outputs": [
        {
          "name": "",
          "type": "uint256"
        }
      ],
      "payable": false,
      "stateMutability": "view",
      "type": "function"
    },
    {
      "constant": true,
      "inputs": [],
      "name": "kyberAddr",
      "outputs": [
        {
          "name": "",
          "type": "address"
        }
      ],
      "payable": false,
      "stateMutability": "view",
      "type": "function"
    },
    {
      "constant": true,
      "inputs": [],
      "name": "PRECISION",
      "outputs": [
        {
          "name": "",
          "type": "uint256"
        }
      ],
      "payable": false,
      "stateMutability": "view",
      "type": "function"
    },
    {
      "constant": true,
      "inputs": [
        {
          "name": "",
          "type": "uint256"
        }
      ],
      "name": "forStakedControlOfProposal",
      "outputs": [
        {
          "name": "",
          "type": "uint256"
        }
      ],
      "payable": false,
      "stateMutability": "view",
      "type": "function"
    },
    {
      "constant": true,
      "inputs": [],
      "name": "developerFeeProportion",
      "outputs": [
        {
          "name": "",
          "type": "uint256"
        }
      ],
      "payable": false,
      "stateMutability": "view",
      "type": "function"
    },
    {
      "constant": true,
      "inputs": [],
      "name": "timeOfProposalMaking",
      "outputs": [
        {
          "name": "",
          "type": "uint256"
        }
      ],
      "payable": false,
      "stateMutability": "view",
      "type": "function"
    },
    {
      "constant": true,
      "inputs": [],
      "name": "controlTokenAddr",
      "outputs": [
        {
          "name": "",
          "type": "address"
        }
      ],
      "payable": false,
      "stateMutability": "view",
      "type": "function"
    },
    {
      "constant": true,
      "inputs": [
        {
          "name": "",
          "type": "address"
        }
      ],
      "name": "createdProposalCount",
      "outputs": [
        {
          "name": "",
          "type": "uint256"
        }
      ],
      "payable": false,
      "stateMutability": "view",
      "type": "function"
    },
    {
      "constant": false,
      "inputs": [
        {
          "name": "newOwner",
          "type": "address"
        }
      ],
      "name": "transferOwnership",
      "outputs": [],
      "payable": false,
      "stateMutability": "nonpayable",
      "type": "function"
    },
    {
      "constant": true,
      "inputs": [],
      "name": "cyclePhase",
      "outputs": [
        {
          "name": "",
          "type": "uint8"
        }
      ],
      "payable": false,
      "stateMutability": "view",
      "type": "function"
    },
    {
      "constant": true,
      "inputs": [],
      "name": "cycleTotalForStake",
      "outputs": [
        {
          "name": "",
          "type": "uint256"
        }
      ],
      "payable": false,
      "stateMutability": "view",
      "type": "function"
    },
    {
      "inputs": [
        {
          "name": "_kyberAddr",
          "type": "address"
        },
        {
          "name": "_developerFeeAccount",
          "type": "address"
        },
        {
          "name": "_timeOfChangeMaking",
          "type": "uint256"
        },
        {
          "name": "_timeOfProposalMaking",
          "type": "uint256"
        },
        {
          "name": "_timeOfWaiting",
          "type": "uint256"
        },
        {
          "name": "_minStakeProportion",
          "type": "uint256"
        },
        {
          "name": "_maxProposals",
          "type": "uint256"
        },
        {
          "name": "_commissionRate",
          "type": "uint256"
        },
        {
          "name": "_developerFeeProportion",
          "type": "uint256"
        },
        {
          "name": "_maxProposalsPerMember",
          "type": "uint256"
        },
        {
          "name": "_cycleNumber",
          "type": "uint256"
        }
      ],
      "payable": false,
      "stateMutability": "nonpayable",
      "type": "constructor"
    },
    {
      "payable": true,
      "stateMutability": "payable",
      "type": "fallback"
    },
    {
      "anonymous": false,
      "inputs": [
        {
          "indexed": false,
          "name": "_cycleNumber",
          "type": "uint256"
        },
        {
          "indexed": false,
          "name": "_timestamp",
          "type": "uint256"
        }
      ],
      "name": "CycleStarted",
      "type": "event"
    },
    {
      "anonymous": false,
      "inputs": [
        {
          "indexed": false,
          "name": "_cycleNumber",
          "type": "uint256"
        },
        {
          "indexed": false,
          "name": "_sender",
          "type": "address"
        },
        {
          "indexed": false,
          "name": "_amountInWeis",
          "type": "uint256"
        },
        {
          "indexed": false,
          "name": "_timestamp",
          "type": "uint256"
        }
      ],
      "name": "Deposit",
      "type": "event"
    },
    {
      "anonymous": false,
      "inputs": [
        {
          "indexed": false,
          "name": "_cycleNumber",
          "type": "uint256"
        },
        {
          "indexed": false,
          "name": "_sender",
          "type": "address"
        },
        {
          "indexed": false,
          "name": "_amountInWeis",
          "type": "uint256"
        },
        {
          "indexed": false,
          "name": "_timestamp",
          "type": "uint256"
        }
      ],
      "name": "Withdraw",
      "type": "event"
    },
    {
      "anonymous": false,
      "inputs": [
        {
          "indexed": false,
          "name": "_cycleNumber",
          "type": "uint256"
        },
        {
          "indexed": false,
          "name": "_timestamp",
          "type": "uint256"
        }
      ],
      "name": "ChangeMakingTimeEnded",
      "type": "event"
    },
    {
      "anonymous": false,
      "inputs": [
        {
          "indexed": false,
          "name": "_cycleNumber",
          "type": "uint256"
        },
        {
          "indexed": false,
          "name": "_id",
          "type": "uint256"
        },
        {
          "indexed": false,
          "name": "_tokenAddress",
          "type": "address"
        },
        {
          "indexed": false,
          "name": "_stakeInWeis",
          "type": "uint256"
        }
      ],
      "name": "NewProposal",
      "type": "event"
    },
    {
      "anonymous": false,
      "inputs": [
        {
          "indexed": false,
          "name": "_cycleNumber",
          "type": "uint256"
        },
        {
          "indexed": false,
          "name": "_id",
          "type": "uint256"
        },
        {
          "indexed": false,
          "name": "_stakeInWeis",
          "type": "uint256"
        },
        {
          "indexed": false,
          "name": "_support",
          "type": "bool"
        }
      ],
      "name": "StakedProposal",
      "type": "event"
    },
    {
      "anonymous": false,
      "inputs": [
        {
          "indexed": false,
          "name": "_cycleNumber",
          "type": "uint256"
        },
        {
          "indexed": false,
          "name": "_timestamp",
          "type": "uint256"
        }
      ],
      "name": "ProposalMakingTimeEnded",
      "type": "event"
    },
    {
      "anonymous": false,
      "inputs": [
        {
          "indexed": false,
          "name": "_cycleNumber",
          "type": "uint256"
        },
        {
          "indexed": false,
          "name": "_beforeTotalFunds",
          "type": "uint256"
        },
        {
          "indexed": false,
          "name": "_afterTotalFunds",
          "type": "uint256"
        }
      ],
      "name": "ROI",
      "type": "event"
    },
    {
      "anonymous": false,
      "inputs": [
        {
          "indexed": false,
          "name": "_cycleNumber",
          "type": "uint256"
        },
        {
          "indexed": false,
          "name": "_totalCommissionInWeis",
          "type": "uint256"
        }
      ],
      "name": "CommissionPaid",
      "type": "event"
    },
    {
      "anonymous": false,
      "inputs": [
        {
          "indexed": false,
          "name": "_cycleNumber",
          "type": "uint256"
        },
        {
          "indexed": false,
          "name": "_timestamp",
          "type": "uint256"
        }
      ],
      "name": "CycleFinalized",
      "type": "event"
    },
    {
      "anonymous": false,
      "inputs": [],
      "name": "Pause",
      "type": "event"
    },
    {
      "anonymous": false,
      "inputs": [],
      "name": "Unpause",
      "type": "event"
    },
    {
      "anonymous": false,
      "inputs": [
        {
          "indexed": true,
          "name": "previousOwner",
          "type": "address"
        },
        {
          "indexed": true,
          "name": "newOwner",
          "type": "address"
        }
      ],
      "name": "OwnershipTransferred",
      "type": "event"
    },
    {
      "constant": false,
      "inputs": [
        {
          "name": "_participants",
          "type": "address[]"
        }
      ],
      "name": "initializeParticipants",
      "outputs": [],
      "payable": false,
      "stateMutability": "nonpayable",
      "type": "function"
    },
    {
      "constant": false,
      "inputs": [
        {
          "name": "_cTokenAddr",
          "type": "address"
        }
      ],
      "name": "initializeSubcontracts",
      "outputs": [],
      "payable": false,
      "stateMutability": "nonpayable",
      "type": "function"
    },
    {
      "constant": true,
      "inputs": [],
      "name": "participantsCount",
      "outputs": [
        {
          "name": "_count",
          "type": "uint256"
        }
      ],
      "payable": false,
      "stateMutability": "view",
      "type": "function"
    },
    {
      "constant": true,
      "inputs": [],
      "name": "proposalsCount",
      "outputs": [
        {
          "name": "_count",
          "type": "uint256"
        }
      ],
      "payable": false,
      "stateMutability": "view",
      "type": "function"
    },
    {
      "constant": false,
      "inputs": [],
      "name": "emergencyDumpTokens",
      "outputs": [],
      "payable": false,
      "stateMutability": "nonpayable",
      "type": "function"
    },
    {
      "constant": false,
      "inputs": [],
      "name": "emergencyReturnAllStakes",
      "outputs": [],
      "payable": false,
      "stateMutability": "nonpayable",
      "type": "function"
    },
    {
      "constant": false,
      "inputs": [],
      "name": "emergencyRedistBalances",
      "outputs": [],
      "payable": false,
      "stateMutability": "nonpayable",
      "type": "function"
    },
    {
      "constant": false,
      "inputs": [
        {
          "name": "_val",
          "type": "bool"
        }
      ],
      "name": "setAllowEmergencyWithdraw",
      "outputs": [],
      "payable": false,
      "stateMutability": "nonpayable",
      "type": "function"
    },
    {
      "constant": false,
      "inputs": [],
      "name": "emergencyWithdraw",
      "outputs": [],
      "payable": false,
      "stateMutability": "nonpayable",
      "type": "function"
    },
    {
      "constant": false,
      "inputs": [
        {
          "name": "_newAddr",
          "type": "address"
        }
      ],
      "name": "changeKyberNetworkAddress",
      "outputs": [],
      "payable": false,
      "stateMutability": "nonpayable",
      "type": "function"
    },
    {
      "constant": false,
      "inputs": [
        {
          "name": "_newAddr",
          "type": "address"
        }
      ],
      "name": "changeDeveloperFeeAccount",
      "outputs": [],
      "payable": false,
      "stateMutability": "nonpayable",
      "type": "function"
    },
    {
      "constant": false,
      "inputs": [
        {
          "name": "_newProp",
          "type": "uint256"
        }
      ],
      "name": "changeDeveloperFeeProportion",
      "outputs": [],
      "payable": false,
      "stateMutability": "nonpayable",
      "type": "function"
    },
    {
      "constant": false,
      "inputs": [
        {
          "name": "_newProp",
          "type": "uint256"
        }
      ],
      "name": "changeCommissionRate",
      "outputs": [],
      "payable": false,
      "stateMutability": "nonpayable",
      "type": "function"
    },
    {
      "constant": false,
      "inputs": [
        {
          "name": "_newOwner",
          "type": "address"
        }
      ],
      "name": "changeControlTokenOwner",
      "outputs": [],
      "payable": false,
      "stateMutability": "nonpayable",
      "type": "function"
    },
    {
      "constant": false,
      "inputs": [],
      "name": "startNewCycle",
      "outputs": [],
      "payable": false,
      "stateMutability": "nonpayable",
      "type": "function"
    },
    {
      "constant": false,
      "inputs": [],
      "name": "deposit",
      "outputs": [],
      "payable": true,
      "stateMutability": "payable",
      "type": "function"
    },
    {
      "constant": false,
      "inputs": [
        {
          "name": "_amountInWeis",
          "type": "uint256"
        }
      ],
      "name": "withdraw",
      "outputs": [],
      "payable": false,
      "stateMutability": "nonpayable",
      "type": "function"
    },
    {
      "constant": false,
      "inputs": [],
      "name": "endChangeMakingTime",
      "outputs": [],
      "payable": false,
      "stateMutability": "nonpayable",
      "type": "function"
    },
    {
      "constant": false,
      "inputs": [
        {
          "name": "_tokenAddress",
          "type": "address"
        },
        {
          "name": "_stakeInWeis",
          "type": "uint256"
        }
      ],
      "name": "createProposal",
      "outputs": [],
      "payable": false,
      "stateMutability": "nonpayable",
      "type": "function"
    },
    {
      "constant": false,
      "inputs": [
        {
          "name": "_proposalId",
          "type": "uint256"
        },
        {
          "name": "_stakeInWeis",
          "type": "uint256"
        },
        {
          "name": "_support",
          "type": "bool"
        }
      ],
      "name": "stakeProposal",
      "outputs": [],
      "payable": false,
      "stateMutability": "nonpayable",
      "type": "function"
    },
    {
      "constant": false,
      "inputs": [
        {
          "name": "_proposalId",
          "type": "uint256"
        }
      ],
      "name": "cancelProposalStake",
      "outputs": [],
      "payable": false,
      "stateMutability": "nonpayable",
      "type": "function"
    },
    {
      "constant": false,
      "inputs": [],
      "name": "endProposalMakingTime",
      "outputs": [],
      "payable": false,
      "stateMutability": "nonpayable",
      "type": "function"
    },
    {
      "constant": false,
      "inputs": [],
      "name": "finalizeCycle",
      "outputs": [],
      "payable": false,
      "stateMutability": "nonpayable",
      "type": "function"
    },
    {
      "constant": false,
      "inputs": [
        {
          "name": "_receipient",
          "type": "address"
        }
      ],
      "name": "__addControlTokenReceipientAsParticipant",
      "outputs": [],
      "payable": false,
      "stateMutability": "nonpayable",
      "type": "function"
    }
  ],
  "bytecode": "0x60606040526000805460a060020a60ff021916905534156200002057600080fd5b6040516101608062003aa6833981016040528080519190602001805191906020018051919060200180519190602001805191906020018051919060200180519190602001805191906020018051919060200180519190602001805160008054600160a060020a03191633600160a060020a0316179055915050670de0b6b3a76400008610620000ae57600080fd5b670de0b6b3a7640000620000d1858564010000000062002cc46200019782021704565b10620000dc57600080fd5b60028054600160a060020a039c8d16600160a060020a03199182168117909255600480549c8e169c82169c909c17909b55600999909955600a97909755600b95909555600c93909355600d91909155600e55600f55601055600060088190556020805460038054339098169787169790971790965560119190915560059190915560a060020a60ff021990931674030000000000000000000000000000000000000000179091161790556013805461ff0019169055620001ae565b600082820183811015620001a757fe5b9392505050565b6138e880620001be6000396000f3006060604052600436106102bb5763ffffffff60e060020a600035041663013cf08b81146102d857806302d05d3f146103295780630a9f46ad146103585780630f6f17d21461037d5780630f8f9f5f1461039f57806311815223146103be578063158ef93e146103dd5780631603e032146104045780631a26af7a146104175780631ab371fc1461042a5780631dcf8ceb1461043d5780631ebe568c1461045057806325f842c51461046657806328ac1228146104795780632e1a7d4d1461048c5780632e33de6a146104a25780632f3fe24c146104c45780632f884710146104d757806335c1d349146104ea5780633ea36259146105005780633f4ba83a1461051f578063400e3949146105325780634773822e146105455780634f634790146105645780635c975abb146105775780635d4c32241461058a5780635ea1d6f8146105a257806364542e3e146105b55780636642642a146105cb57806370a08231146105e15780637487d32c146106005780637e714dd2146106135780637f2736d11461062657806383d32461146106395780638456cb591461064c5780638da5cb5b1461065f57806390c31d5d14610672578063929066f514610685578063a24459fc146106a4578063a7c4dccf146106ba578063aaf5eb68146106cd578063b18e8a8d146106e0578063b484cf8d146106ff578063b64af4b114610715578063b8b7455314610728578063ba25887d1461073b578063c8d530f81461074e578063d0e30db01461079d578063d78b3b1c146107a5578063db2e21bc146107b8578063dc87454c146107cb578063dd60c898146107de578063dfc51a25146107f1578063e7476abf14610813578063e7ee801614610832578063ebc95b1214610850578063ec33d2a01461086f578063f245fbc714610882578063f2fde38b146108a1578063f6558b00146108c0578063f8d4d438146108f7575b60025433600160a060020a039081169116146102d657600080fd5b005b34156102e357600080fd5b6102ee60043561090a565b604051600160a060020a03909516855260208501939093526040808501929092526060840152608083019190915260a0909101905180910390f35b341561033457600080fd5b61033c610953565b604051600160a060020a03909116815260200160405180910390f35b341561036357600080fd5b61036b610962565b60405190815260200160405180910390f35b341561038857600080fd5b61036b600435600160a060020a0360243516610969565b34156103aa57600080fd5b61036b600160a060020a0360043516610986565b34156103c957600080fd5b6102d6600160a060020a0360043516610998565b34156103e857600080fd5b6103f0610a0c565b604051901515815260200160405180910390f35b341561040f57600080fd5b6102d6610a15565b341561042257600080fd5b6103f0610aa6565b341561043557600080fd5b61033c610ab4565b341561044857600080fd5b61036b610ac3565b341561045b57600080fd5b6102d6600435610ac9565b341561047157600080fd5b61036b610e85565b341561048457600080fd5b61036b610e8b565b341561049757600080fd5b6102d6600435610e91565b34156104ad57600080fd5b61036b600435600160a060020a0360243516610fe7565b34156104cf57600080fd5b61036b611004565b34156104e257600080fd5b61036b61100a565b34156104f557600080fd5b61033c600435611010565b341561050b57600080fd5b6102d6600160a060020a0360043516611038565b341561052a57600080fd5b6102d66110a1565b341561053d57600080fd5b61036b611112565b341561055057600080fd5b6103f0600160a060020a0360043516611118565b341561056f57600080fd5b61036b61112d565b341561058257600080fd5b6103f0611133565b341561059557600080fd5b6102d66004351515611143565b34156105ad57600080fd5b61036b611190565b34156105c057600080fd5b6102d6600435611196565b34156105d657600080fd5b6102d66004356111c4565b34156105ec57600080fd5b61036b600160a060020a03600435166111e4565b341561060b57600080fd5b6102d66111f6565b341561061e57600080fd5b61036b611282565b341561063157600080fd5b6102d6611288565b341561064457600080fd5b61036b6113d7565b341561065757600080fd5b6102d66113dd565b341561066a57600080fd5b61033c611453565b341561067d57600080fd5b6102d6611462565b341561069057600080fd5b6103f0600160a060020a0360043516611539565b34156106af57600080fd5b61036b60043561154e565b34156106c557600080fd5b61033c611560565b34156106d857600080fd5b61036b61156f565b34156106eb57600080fd5b6102d6600160a060020a0360043516611575565b341561070a57600080fd5b61036b6004356115c7565b341561072057600080fd5b6102d66115d9565b341561073357600080fd5b6102d6611691565b341561074657600080fd5b61036b6117a8565b341561075957600080fd5b6102d660046024813581810190830135806020818102016040519081016040528093929190818152602001838360200280828437509496506117ae95505050505050565b6102d661184e565b34156107b057600080fd5b61036b611a2f565b34156107c357600080fd5b6102d6611a35565b34156107d657600080fd5b61033c611b5b565b34156107e957600080fd5b61036b611b6a565b34156107fc57600080fd5b6102d6600160a060020a0360043516602435611b70565b341561081e57600080fd5b6102d6600160a060020a0360043516611dc7565b341561083d57600080fd5b6102d66004356024356044351515611e76565b341561085b57600080fd5b61036b600160a060020a0360043516612392565b341561087a57600080fd5b6102d66123a4565b341561088d57600080fd5b6102d6600160a060020a036004351661252d565b34156108ac57600080fd5b6102d6600160a060020a03600435166125ac565b34156108cb57600080fd5b6108d361263a565b604051808260038111156108e357fe5b60ff16815260200191505060405180910390f35b341561090257600080fd5b61036b61264a565b601e80548290811061091857fe5b600091825260209091206005909102018054600182015460028301546003840154600490940154600160a060020a0390931694509092909185565b600354600160a060020a031681565b601e545b90565b601a60209081526000928352604080842090915290825290205481565b60156020526000908152604090205481565b60005433600160a060020a039081169116146109b357600080fd5b60005460a060020a900460ff1615156109cb57600080fd5b600160a060020a03811615156109e057600080fd5b60028054600160a060020a03909216600160a060020a0319928316811790915560208054909216179055565b60135460ff1681565b6000805433600160a060020a03908116911614610a3157600080fd5b60005460a060020a900460ff161515610a4957600080fd5b5060005b601e54811015610aa3576000601e82815481101515610a6857fe5b9060005260206000209060050201600301541115610a8b57610a8b816000612650565b610a9c81600163ffffffff612cc416565b9050610a4d565b50565b601354610100900460ff1681565b600454600160a060020a031681565b600c5481565b6000808060018060205460a060020a900460ff166003811115610ae857fe5b14610af257600080fd5b600160a060020a03331660009081526014602052604090205460ff161515610b1957600080fd5b60005460a060020a900460ff1615610b3057600080fd5b601e548510610b3e57600080fd5b6000601e86815481101515610b4f57fe5b906000526020600020906005020160030154111515610b6d57600080fd5b6000858152601a60209081526040808320600160a060020a03331680855290835281842054898552601b84528285209185529252909120549094509250610bba848463ffffffff612cc416565b91506000841115610c6657600085815260176020526040902054610be4908363ffffffff612cde16565b600086815260176020526040902055601254610c06908363ffffffff612cde16565b601255601e8054610c3e9160019188908110610c1e57fe5b906000526020600020906005020160030154612cde90919063ffffffff16565b601e805487908110610c4c57fe5b906000526020600020906005020160030181905550610cff565b6000831115610cfa57600085815260186020526040902054610c8e908363ffffffff612cde16565b600086815260186020526040902055601e8054610cd29160019188908110610cb257fe5b906000526020600020906005020160040154612cde90919063ffffffff16565b601e805487908110610ce057fe5b906000526020600020906005020160040181905550610cff565b610e7e565b600160a060020a033316600090815260156020526040902054610d2990600163ffffffff612cde16565b600160a060020a03338181166000818152601560209081526040808320969096558a8252601a815285822083835281528582208290558a8252601b815285822092825291909152838120819055601f549092169263a9059cbb928691516020015260405160e060020a63ffffffff8516028152600160a060020a0390921660048301526024820152604401602060405180830381600087803b1515610dcd57600080fd5b6102c65a03f11515610dde57600080fd5b50505060405180515050601e805486908110610df657fe5b90600052602060002090600502016003015460001415610e7e57610e1985612cf0565b610e2285612dfe565b601154610e3690600163ffffffff612cde16565b601155601e805486908110610e4757fe5b6000918252602082206005909102018054600160a060020a0319168155600181018290556002810182905560038101829055600401555b5050505050565b60085481565b60095481565b60008060205460a060020a900460ff166003811115610eac57fe5b14610eb657600080fd5b600160a060020a03331660009081526014602052604090205460ff161515610edd57600080fd5b60005460a060020a900460ff1615610ef457600080fd5b60055460011415610f0457600080fd5b600754610f17908363ffffffff612cde16565b600755600160a060020a033316600090815260166020526040902054610f43908363ffffffff612cde16565b600160a060020a03331660008181526016602052604090819020929092559083156108fc0290849051600060405180830381858888f193505050501515610f8957600080fd5b7fb0ecf14e184effded5473bba77dcfab32b094b77ac1fbb36beec2aef55587970600554338442604051938452600160a060020a03909216602084015260408084019190915260608301919091526080909101905180910390a15050565b601b60209081526000928352604080842090915290825290205481565b600d5481565b60055481565b601d80548290811061101e57fe5b600091825260209091200154600160a060020a0316905081565b60035433600160a060020a0390811691161461105357600080fd5b60135460ff161561106357600080fd5b6013805460ff191660019081179091558054600160a060020a03928316600160a060020a03199182161791829055601f805490911691909216179055565b60005433600160a060020a039081169116146110bc57600080fd5b60005460a060020a900460ff1615156110d457600080fd5b6000805460a060020a60ff02191690557f7805862f689e2f13df9f062ff482ad3ad112aca9e0847911ed832e158c525b3360405160405180910390a1565b60115481565b601c6020526000908152604090205460ff1681565b600b5481565b60005460a060020a900460ff1681565b60005433600160a060020a0390811691161461115e57600080fd5b60005460a060020a900460ff16151561117657600080fd5b601380549115156101000261ff0019909216919091179055565b600e5481565b60005433600160a060020a039081169116146111b157600080fd5b600f5481106111bf57600080fd5b600f55565b60005433600160a060020a039081169116146111df57600080fd5b600e55565b60166020526000908152604090205481565b6000805433600160a060020a0390811691161461121257600080fd5b60005460a060020a900460ff16151561122a57600080fd5b5060005b601e54811015610aa3576000601e8281548110151561124957fe5b906000526020600020906005020160030154111561126a5761126a81612cf0565b61127b81600163ffffffff612cc416565b905061122e565b60075481565b600060038060205460a060020a900460ff1660038111156112a557fe5b146112af57600080fd5b60005460a060020a900460ff16156112c657600080fd5b60135460ff1615156112d757600080fd5b6020805460a060020a60ff0219169055426008556005546112f9906001612cc4565b600555600091505b601d5482101561134f57611337601d8381548110151561131d57fe5b600091825260209091200154600160a060020a0316612e5c565b61134882600163ffffffff612cc416565b9150611301565b600091505b601e5482101561137f5761136782612dfe565b61137882600163ffffffff612cc416565b9150611354565b61138b601e6000613765565b6011600090556012600090557f62eeb403dc233a7676f50cdb0fd72dae595aeb7c63039adce5caacc33254f9c06005544260405191825260208201526040908101905180910390a15050565b60105481565b60005433600160a060020a039081169116146113f857600080fd5b60005460a060020a900460ff161561140f57600080fd5b6000805460a060020a60ff02191660a060020a1790557f6985a02210a168e66602d3235cb6db0e70f92b3ba4d376a33c0f3d9434bff62560405160405180910390a1565b600054600160a060020a031681565b60018060205460a060020a900460ff16600381111561147d57fe5b1461148757600080fd5b60005460a060020a900460ff161561149e57600080fd5b600a546008546114b39163ffffffff612cc416565b4210156114bf57600080fd5b426008556020805460a060020a60ff021916740200000000000000000000000000000000000000001790556114f2612ee1565b6114fa613063565b7fc26cea5d11470524f2c181454de04fcfb1a0349aba5606ea3eb1a8ec87e1f54e6005544260405191825260208201526040908101905180910390a150565b60146020526000908152604090205460ff1681565b60186020526000908152604090205481565b600254600160a060020a031681565b60065481565b60005433600160a060020a0390811691161461159057600080fd5b600160a060020a03811615156115a557600080fd5b60048054600160a060020a031916600160a060020a0392909216919091179055565b60176020526000908152604090205481565b60008060205460a060020a900460ff1660038111156115f457fe5b146115fe57600080fd5b60005460a060020a900460ff161561161557600080fd5b60095460085461162a9163ffffffff612cc416565b42101561163657600080fd5b4260088190556020805460a060020a60ff02191660a060020a1790556005547f3c3379a2308ae89ee638561d0222706de289bea89968dd555b533795071130fb9160405191825260208201526040908101905180910390a150565b600080548190819033600160a060020a039081169116146116b157600080fd5b60005460a060020a900460ff1615156116c957600080fd5b600092505b601d5483101561179557601d8054849081106116e657fe5b6000918252602082200154600754600160a060020a0390911693509091508190111561176257600754600160a060020a0380841660009081526016602052604090205461175f92611752929091611746913016319063ffffffff6130bc16565b9063ffffffff6130e716565b829063ffffffff612cc416565b90505b600160a060020a038216600090815260166020526040902081905561178e83600163ffffffff612cc416565b92506116ce565b505050600160a060020a03301631600755565b600f5481565b60035460009033600160a060020a039081169116146117cc57600080fd5b60135460ff16156117dc57600080fd5b601d8280516117ef929160200190613786565b50600090505b815181101561184a5760016014600084848151811061181057fe5b90602001906020020151600160a060020a031681526020810191909152604001600020805460ff19169115159190911790556001016117f5565b5050565b60008060205460a060020a900460ff16600381111561186957fe5b1461187357600080fd5b60005460a060020a900460ff161561188a57600080fd5b600160a060020a03331660009081526014602052604090205460ff1615156118ff57601d8054600181016118be83826137ed565b5060009182526020808320919091018054600160a060020a03191633600160a060020a031690811790915582526014905260409020805460ff191660011790555b600160a060020a033316600090815260166020526040902054611928903463ffffffff612cc416565b600160a060020a033316600090815260166020526040902055600754611954903463ffffffff612cc416565b600755601f54600160a060020a03166340c10f19333460006040516020015260405160e060020a63ffffffff8516028152600160a060020a0390921660048301526024820152604401602060405180830381600087803b15156119b657600080fd5b6102c65a03f115156119c757600080fd5b50505060405180519050507fd36a2f67d06d285786f61a32b052b9ace6b0b7abef5177b54358abdc83a0b69b600554333442604051938452600160a060020a03909216602084015260408084019190915260608301919091526080909101905180910390a150565b600a5481565b600160a060020a03331660009081526014602052604081205460ff161515611a5c57600080fd5b60005460a060020a900460ff161515611a7457600080fd5b601354610100900460ff161515611a8a57600080fd5b50600160a060020a033316600090815260166020526040902054600754611ab7908263ffffffff612cde16565b600755600160a060020a0333166000818152601660205260408082209190915582156108fc0290839051600060405180830381858888f193505050501515611afe57600080fd5b7fb0ecf14e184effded5473bba77dcfab32b094b77ac1fbb36beec2aef55587970600554338342604051938452600160a060020a03909216602084015260408084019190915260608301919091526080909101905180910390a150565b600154600160a060020a031681565b601d5490565b600060018060205460a060020a900460ff166003811115611b8d57fe5b14611b9757600080fd5b600160a060020a03331660009081526014602052604090205460ff161515611bbe57600080fd5b60005460a060020a900460ff1615611bd557600080fd5b600d5460115410611be557600080fd5b600160a060020a0384166000908152601c602052604090205460ff1615611c0b57600080fd5b601054600160a060020a03331660009081526019602052604090205410611c3157600080fd5b601e805460018101611c438382613816565b9160005260206000209060050201600060a06040519081016040908152600160a060020a038916825260006020830181905290820181905260608201819052608082015291905081518154600160a060020a031916600160a060020a039190911617815560208201518160010155604082015181600201556060820151816003015560808201516004909101555050600160a060020a038085166000908152601c60209081526040808320805460ff191660019081179091553390941683526019909152902054611d199163ffffffff612cc416565b600160a060020a033316600090815260196020526040902055601154611d4690600163ffffffff612cc416565b601155601e54600019019150611d5e82846001611e76565b7f8ce9f930ed5ed31849df1551919914386f6b2b7de1fdde27d80255ceaa38b2276005548386866040518085815260200184815260200183600160a060020a0316600160a060020a0316815260200182815260200194505050505060405180910390a150505050565b60005433600160a060020a03908116911614611de257600080fd5b60005460a060020a900460ff161515611dfa57600080fd5b600160a060020a0381161515611e0f57600080fd5b601f54600160a060020a031663f2fde38b8260405160e060020a63ffffffff8416028152600160a060020a039091166004820152602401600060405180830381600087803b1515611e5f57600080fd5b6102c65a03f11515611e7057600080fd5b50505050565b60018060205460a060020a900460ff166003811115611e9157fe5b14611e9b57600080fd5b600160a060020a03331660009081526014602052604090205460ff161515611ec257600080fd5b60005460a060020a900460ff1615611ed957600080fd5b601e548410611ee757600080fd5b601c6000601e86815481101515611efa57fe5b60009182526020808320600590920290910154600160a060020a0316835282019290925260400190205460ff161515611f3257600080fd5b601f54611fb890600160a060020a03166370a082313360006040516020015260405160e060020a63ffffffff8416028152600160a060020a039091166004820152602401602060405180830381600087803b1515611f8f57600080fd5b6102c65a03f11515611fa057600080fd5b5050506040518051600c54915063ffffffff6130bc16565b600654611fcc90859063ffffffff6130bc16565b1015611fd757600080fd5b60008311611fe457600080fd5b601f54600160a060020a0316632bee7bde338560006040516020015260405160e060020a63ffffffff8516028152600160a060020a0390921660048301526024820152604401602060405180830381600087803b151561204357600080fd5b6102c65a03f1151561205457600080fd5b505050604051805190505081801561208c57506000848152601b60209081526040808320600160a060020a0333168452909152902054155b156121ab576000848152601a60209081526040808320600160a060020a03331684529091529020541515612112576120ee6001601e868154811015156120ce57fe5b906000526020600020906005020160030154612cc490919063ffffffff16565b601e8054869081106120fc57fe5b9060005260206000209060050201600301819055505b600084815260176020526040902054612131908463ffffffff612cc416565b600085815260176020908152604080832093909355601a8152828220600160a060020a03331683529052205461216d908463ffffffff612cc416565b6000858152601a60209081526040808320600160a060020a03331684529091529020556012546121a3908463ffffffff612cc416565b6012556122e7565b811580156121d957506000848152601a60209081526040808320600160a060020a0333168452909152902054155b156122e2576000848152601b60209081526040808320600160a060020a0333168452909152902054151561225f5761223b6001601e8681548110151561221b57fe5b906000526020600020906005020160040154612cc490919063ffffffff16565b601e80548690811061224957fe5b9060005260206000209060050201600401819055505b60008481526018602052604090205461227e908463ffffffff612cc416565b600085815260186020908152604080832093909355601b8152828220600160a060020a0333168352905220546122ba908463ffffffff612cc416565b6000858152601b60209081526040808320600160a060020a03331684529091529020556122e7565b600080fd5b600160a060020a03331660009081526015602052604090205461231190600163ffffffff612cc416565b6015600033600160a060020a0316600160a060020a03168152602001908152602001600020819055507f725e873e4977c489020b571ecffe13e8f200a0e8b71e450d8b190aa236bcede9600554858585604051938452602084019290925260408084019190915290151560608301526080909101905180910390a150505050565b60196020526000908152604090205481565b600060028060205460a060020a900460ff1660038111156123c157fe5b146123cb57600080fd5b60005460a060020a900460ff16156123e257600080fd5b600b546008546123f79163ffffffff612cc416565b42101561240357600080fd5b426008556020805460a060020a60ff02191674030000000000000000000000000000000000000000179055600091505b601e54821015612492576000601e8381548110151561244e57fe5b906000526020600020906005020160030154111561247a57612471826000612650565b61247a826130fe565b61248b82600163ffffffff612cc416565b9150612433565b601f54600160a060020a031663f3123a3a6040518163ffffffff1660e060020a028152600401600060405180830381600087803b15156124d157600080fd5b6102c65a03f115156124e257600080fd5b5050506124ed6133d7565b7ff4b862466a7ed84695726312fc00377bee25443b7890d8b8985f94eef497d6ff6005544260405191825260208201526040908101905180910390a15050565b60015433600160a060020a0390811691161461254857600080fd5b600160a060020a0381166000908152601460205260409020805460ff19166001908117909155601d80549091810161258083826137ed565b5060009182526020909120018054600160a060020a031916600160a060020a0392909216919091179055565b60005433600160a060020a039081169116146125c757600080fd5b600160a060020a03811615156125dc57600080fd5b600054600160a060020a0380831691167f8be0079c531659141344cd1fd0a4f28419497f9722a3daafe3b4186f6b6457e060405160405180910390a360008054600160a060020a031916600160a060020a0392909216919091179055565b60205460a060020a900460ff1681565b60125481565b600080600080600080600080601e8a81548110151561266b57fe5b6000918252602090912060059091020154600160a060020a0316925082915088156128a05760125460008b8152601760205260409020546007546126ba9291611746919063ffffffff6130bc16565b602054909850600160a060020a031663b8388aca73eeeeeeeeeeeeeeeeeeeeeeeeeeeeeeeeeeeeeeee848b60006040516040015260405160e060020a63ffffffff8616028152600160a060020a03938416600482015291909216602482015260448101919091526064016040805180830381600087803b151561273c57600080fd5b6102c65a03f1151561274d57600080fd5b5050506040518051906020018051602054929950975050600160a060020a033081811631935091169063cb3c28c7908a9073eeeeeeeeeeeeeeeeeeeeeeeeeeeeeeeeeeeeeeee90829087906b204fce5e3e250261100000008d8260006040516020015260405160e060020a63ffffffff8b16028152600160a060020a039788166004820152602481019690965293861660448601529185166064850152608484015260a483015290911660c482015260e4016020604051808303818588803b151561281757600080fd5b6125ee5a03f1151561282857600080fd5b5050505060405180519550506000851161284157600080fd5b6128748561174660065461286830600160a060020a03163186612cde90919063ffffffff16565b9063ffffffff6130bc16565b935083601e8b81548110151561288657fe5b906000526020600020906005020160010181905550612cb8565b81600160a060020a03166370a082313060006040516020015260405160e060020a63ffffffff8416028152600160a060020a039091166004820152602401602060405180830381600087803b15156128f757600080fd5b6102c65a03f1151561290857600080fd5b5050506040518051602054909950600160a060020a0316905063b8388aca8373eeeeeeeeeeeeeeeeeeeeeeeeeeeeeeeeeeeeeeee8b60006040516040015260405160e060020a63ffffffff8616028152600160a060020a03938416600482015291909216602482015260448101919091526064016040805180830381600087803b151561299457600080fd5b6102c65a03f115156129a557600080fd5b5050506040518051906020018051600254929950975050600160a060020a038084169163095ea7b391168a60006040516020015260405160e060020a63ffffffff8516028152600160a060020a0390921660048301526024820152604401602060405180830381600087803b1515612a1c57600080fd5b6102c65a03f11515612a2d57600080fd5b50505060405180515050602054600160a060020a031663cb3c28c7838a73eeeeeeeeeeeeeeeeeeeeeeeeeeeeeeeeeeeeeeee306b204fce5e3e250261100000008c8260006040516020015260405160e060020a63ffffffff8a16028152600160a060020a039788166004820152602481019690965293861660448601529185166064850152608484015260a483015290911660c482015260e401602060405180830381600087803b1515612ae057600080fd5b6102c65a03f11515612af157600080fd5b5050506040518051600254909650600160a060020a03808516925063095ea7b391166000806040516020015260405160e060020a63ffffffff8516028152600160a060020a0390921660048301526024820152604401602060405180830381600087803b1515612b6057600080fd5b6102c65a03f11515612b7157600080fd5b50505060405180515050600160a060020a0382166370a082313060006040516020015260405160e060020a63ffffffff8416028152600160a060020a039091166004820152602401602060405180830381600087803b1515612bd257600080fd5b6102c65a03f11515612be357600080fd5b505050604051805189119050612bf857600080fd5b612c90612c7c83600160a060020a03166370a082313060006040516020015260405160e060020a63ffffffff8416028152600160a060020a039091166004820152602401602060405180830381600087803b1515612c5557600080fd5b6102c65a03f11515612c6657600080fd5b50505060405180518b915063ffffffff612cde16565b60065461174690889063ffffffff6130bc16565b935083601e8b815481101515612ca257fe5b9060005260206000209060050201600201819055505b50505050505050505050565b600082820183811015612cd357fe5b8091505b5092915050565b600082821115612cea57fe5b50900390565b600080805b601d54831015611e7057601d805484908110612d0d57fe5b6000918252602080832090910154868352601b82526040808420600160a060020a0390921680855291835280842054888552601a845281852083865290935290922054919350612d63919063ffffffff612cc416565b90508015612de657601f54600160a060020a031663a9059cbb838360006040516020015260405160e060020a63ffffffff8516028152600160a060020a0390921660048301526024820152604401602060405180830381600087803b1515612dca57600080fd5b6102c65a03f11515612ddb57600080fd5b505050604051805150505b612df783600163ffffffff612cc416565b9250612cf5565b601c6000601e83815481101515612e1157fe5b60009182526020808320600590920290910154600160a060020a031683528281019390935260409182018120805460ff19169055928352601782528083208390556018909152812055565b600160a060020a0381166000908152601960209081526040808320839055601590915281208190555b601e5481101561184a576000818152601a60209081526040808320600160a060020a038616808552908352818420849055848452601b8352818420908452909152812055612eda81600163ffffffff612cc416565b9050612e85565b60008080805b601d54841015611e7057601d805485908110612eff57fe5b6000918252602082200154601f54600160a060020a03918216955016906370a082319085906040516020015260405160e060020a63ffffffff8416028152600160a060020a039091166004820152602401602060405180830381600087803b1515612f6957600080fd5b6102c65a03f11515612f7a57600080fd5b5050506040518051600160a060020a0385166000908152601560205260409020549093501590508015612fad5750600082115b1561304b57612fcd600654611746600c54856130bc90919063ffffffff16565b601f54909150600160a060020a031663c0001786848360006040516020015260405160e060020a63ffffffff8516028152600160a060020a0390921660048301526024820152604401602060405180830381600087803b151561302f57600080fd5b6102c65a03f1151561304057600080fd5b505050604051805150505b61305c84600163ffffffff612cc416565b9350612ee7565b60005b601e54811015610aa3576000601e8281548110151561308157fe5b90600052602060002090600502016003015411156130a4576130a4816001612650565b6130b581600163ffffffff612cc416565b9050613066565b6000808315156130cf5760009150612cd7565b508282028284828115156130df57fe5b0414612cd357fe5b60008082848115156130f557fe5b04949350505050565b600080600080600080601e8781548110151561311657fe5b906000526020600020906005020195508560010154600014156131415761313c87612cf0565b6133ce565b613162866001015461174660065489600201546130bc90919063ffffffff16565b60018701549095506000945061317f90600263ffffffff6130bc16565b866002015410156131c7576131c486600101546117466006546128688a600201546131b860028d600101546130bc90919063ffffffff16565b9063ffffffff612cde16565b93505b600092505b601d548310156133ce57601d8054849081106131e457fe5b6000918252602080832090910154898352601a82526040808420600160a060020a039092168085529190925290822054909350909150819011156132da57506000868152601a60209081526040808320600160a060020a038086168552925290912054601f54600654919216906340c10f1990849061326d90611746868b63ffffffff6130bc16565b60006040516020015260405160e060020a63ffffffff8516028152600160a060020a0390921660048301526024820152604401602060405180830381600087803b15156132b957600080fd5b6102c65a03f115156132ca57600080fd5b50505060405180519050506133b6565b6000878152601b60209081526040808320600160a060020a038616845290915281205411156133b657506000868152601b60209081526040808320600160a060020a038086168552925290912054601f54600654919216906340c10f1990849061334e90611746868a63ffffffff6130bc16565b60006040516020015260405160e060020a63ffffffff8516028152600160a060020a0390921660048301526024820152604401602060405180830381600087803b151561339a57600080fd5b6102c65a03f115156133ab57600080fd5b505050604051805150505b6133c783600163ffffffff612cc416565b92506131cc565b50505050505050565b6000806000806000806000806000975060075430600160a060020a031631111561340d5760075430600160a060020a0316310397505b6134286006546117468a600e546130bc90919063ffffffff16565b965061344f60065461174630600160a060020a031631600f546130bc90919063ffffffff16565b955061346f866131b8600160a060020a033016318a63ffffffff612cde16565b9450600093505b601d5484101561368a57601d80548590811061348e57fe5b6000918252602082200154600754600160a060020a039091169450909250829011156134f957600754600160a060020a0384166000908152601660205260409020546134f6916134e99161174690899063ffffffff6130bc16565b839063ffffffff612cc416565b91505b601f54600090600160a060020a03166318160ddd82604051602001526040518163ffffffff1660e060020a028152600401602060405180830381600087803b151561354357600080fd5b6102c65a03f1151561355457600080fd5b50505060405180519050111561365757601f54613654906134e990600160a060020a03166318160ddd6000604051602001526040518163ffffffff1660e060020a028152600401602060405180830381600087803b15156135b457600080fd5b6102c65a03f115156135c557600080fd5b5050506040518051601f5490915061174690600160a060020a03166370a082318860006040516020015260405160e060020a63ffffffff8416028152600160a060020a039091166004820152602401602060405180830381600087803b151561362d57600080fd5b6102c65a03f1151561363e57600080fd5b50505060405180518c915063ffffffff6130bc16565b91505b600160a060020a038316600090815260166020526040902082905561368384600163ffffffff612cc416565b9350613476565b61369a858863ffffffff612cc416565b90507f13a18edb371d0a74be72de10b678893b96bc8a47e776bb122c59e21d53956fbd6005546007548360405180848152602001838152602001828152602001935050505060405180910390a16007819055600454600160a060020a031686156108fc0287604051600060405180830381858888f19350505050151561371f57600080fd5b7facfa15ebe340982fef95d43aafc25d741382d7928a00055a209274fa615d52776005548860405191825260208201526040908101905180910390a15050505050505050565b5080546000825560050290600052602060002090810190610aa3919061383e565b8280548282559060005260206000209081019282156137dd579160200282015b828111156137dd5782518254600160a060020a031916600160a060020a0391909116178255602092909201916001909101906137a6565b506137e992915061387e565b5090565b815481835581811511613811576000838152602090206138119181019083016138a2565b505050565b8154818355818115116138115760050281600502836000526020600020918201910161381191905b61096691905b808211156137e9578054600160a060020a031916815560006001820181905560028201819055600382018190556004820155600501613844565b61096691905b808211156137e9578054600160a060020a0319168155600101613884565b61096691905b808211156137e957600081556001016138a85600a165627a7a72305820685597190f0cf9cafc8e41fb4eedf94528eae7d7ded866eb49be5e9828c3bebb0029",
  "source": "pragma solidity ^0.4.18;\r\n\r\nimport 'zeppelin-solidity/contracts/math/SafeMath.sol';\r\nimport 'zeppelin-solidity/contracts/math/Math.sol';\r\nimport 'zeppelin-solidity/contracts/lifecycle/Pausable.sol';\r\nimport './ControlToken.sol';\r\nimport './KyberNetwork.sol';\r\nimport './Utils.sol';\r\n\r\n/**\r\n * The main contract of the Betoken hedge fund\r\n */\r\ncontract BetokenFund is Pausable, Utils {\r\n  using SafeMath for uint256;\r\n\r\n  enum CyclePhase { ChangeMaking, ProposalMaking, Waiting, Finalized }\r\n\r\n  struct Proposal {\r\n    address tokenAddress;\r\n    uint256 buyPriceInWeis;\r\n    uint256 sellPriceInWeis;\r\n    uint256 numFor;\r\n    uint256 numAgainst;\r\n  }\r\n\r\n  /**\r\n   * Executes function only during the given cycle phase.\r\n   * @param phase the cycle phase during which the function may be called\r\n   */\r\n  modifier during(CyclePhase phase) {\r\n    require(cyclePhase == phase);\r\n    _;\r\n  }\r\n\r\n  /**\r\n   * Executes function only when msg.sender is a participant of the fund.\r\n   */\r\n  modifier onlyParticipant {\r\n    require(isParticipant[msg.sender]);\r\n    _;\r\n  }\r\n\r\n  //Address of the control token contract.\r\n  address public controlTokenAddr;\r\n\r\n  //Address of the KyberNetwork contract\r\n  address public kyberAddr;\r\n\r\n  //The creator of the BetokenFund contract. Only used in initializeSubcontracts().\r\n  address public creator;\r\n\r\n  //Address to which the developer fees will be paid.\r\n  address public developerFeeAccount;\r\n\r\n  //The number of the current investment cycle.\r\n  uint256 public cycleNumber;\r\n\r\n  //10^{decimals} used for representing fixed point numbers with {decimals} decimals.\r\n  uint256 public PRECISION;\r\n\r\n  //The amount of funds held by the fund.\r\n  uint256 public totalFundsInWeis;\r\n\r\n  //The start time for the current investment cycle phase, in seconds since Unix epoch.\r\n  uint256 public startTimeOfCyclePhase;\r\n\r\n  //Temporal length of change making period at start of each cycle, in seconds.\r\n  uint256 public timeOfChangeMaking;\r\n\r\n  //Temporal length of proposal making period at start of each cycle, in seconds.\r\n  uint256 public timeOfProposalMaking;\r\n\r\n  //Temporal length of waiting period, after which the bets will be settled, in seconds.\r\n  uint256 public timeOfWaiting;\r\n\r\n  //Minimum proportion of Kairo balance people have to stake in support of a proposal. Fixed point decimal.\r\n  uint256 public minStakeProportion;\r\n\r\n  //The maximum number of proposals each cycle.\r\n  uint256 public maxProposals;\r\n\r\n  //The proportion of the fund that gets distributed to Kairo holders every cycle. Fixed point decimal.\r\n  uint256 public commissionRate;\r\n\r\n  //The proportion of contract balance that goes the the devs every cycle. Fixed point decimal.\r\n  uint256 public developerFeeProportion;\r\n\r\n  //The max number of proposals each member can create.\r\n  uint256 public maxProposalsPerMember;\r\n\r\n  //Number of proposals already made in this cycle. Excludes deleted proposals.\r\n  uint256 public numProposals;\r\n\r\n  //Total Kairo staked in support of proposals this cycle.\r\n  uint256 public cycleTotalForStake;\r\n\r\n  //Flag for whether the contract has been initialized with subcontracts' addresses.\r\n  bool public initialized;\r\n\r\n  //Flag for whether emergency withdrawing is allowed.\r\n  bool public allowEmergencyWithdraw;\r\n\r\n  //Returns true for an address if it's in the participants array, false otherwise.\r\n  mapping(address => bool) public isParticipant;\r\n\r\n  //Returns the amount participant staked into all proposals in the current cycle.\r\n  mapping(address => uint256) public userStakedProposalCount;\r\n\r\n  //Mapping from a participant's address to their Ether balance, in weis.\r\n  mapping(address => uint256) public balanceOf;\r\n\r\n  //Mapping from Proposal to total amount of Control Tokens being staked by supporters.\r\n  mapping(uint256 => uint256) public forStakedControlOfProposal;\r\n  mapping(uint256 => uint256) public againstStakedControlOfProposal;\r\n\r\n  //Records the number of proposals a user has created in the current cycle. Canceling support does not decrease this number.\r\n  mapping(address => uint256) public createdProposalCount;\r\n\r\n  //mapping(proposalId => mapping(participantAddress => stakedTokensInWeis))\r\n  mapping(uint256 => mapping(address => uint256)) public forStakedControlOfProposalOfUser;\r\n  mapping(uint256 => mapping(address => uint256)) public againstStakedControlOfProposalOfUser;\r\n\r\n  //Mapping to check if a proposal for a token has already been made.\r\n  mapping(address => bool) public isTokenAlreadyProposed;\r\n\r\n  //A list of everyone who is participating in the fund.\r\n  address[] public participants;\r\n\r\n  //List of proposals in the current cycle.\r\n  Proposal[] public proposals;\r\n\r\n  //References to subcontracts and KyberNetwork contract.\r\n  ControlToken internal cToken;\r\n  KyberNetwork internal kyber;\r\n\r\n  //The current cycle phase.\r\n  CyclePhase public cyclePhase;\r\n\r\n  event CycleStarted(uint256 _cycleNumber, uint256 _timestamp);\r\n  event Deposit(uint256 _cycleNumber, address _sender, uint256 _amountInWeis, uint256 _timestamp);\r\n  event Withdraw(uint256 _cycleNumber, address _sender, uint256 _amountInWeis, uint256 _timestamp);\r\n  event ChangeMakingTimeEnded(uint256 _cycleNumber, uint256 _timestamp);\r\n\r\n  event NewProposal(uint256 _cycleNumber, uint256 _id, address _tokenAddress, uint256 _stakeInWeis);\r\n  event StakedProposal(uint256 _cycleNumber, uint256 _id, uint256 _stakeInWeis, bool _support);\r\n  event ProposalMakingTimeEnded(uint256 _cycleNumber, uint256 _timestamp);\r\n\r\n  event ROI(uint256 _cycleNumber, uint256 _beforeTotalFunds, uint256 _afterTotalFunds);\r\n  event CommissionPaid(uint256 _cycleNumber, uint256 _totalCommissionInWeis);\r\n  event CycleFinalized(uint256 _cycleNumber, uint256 _timestamp);\r\n\r\n  /**\r\n   * Contract initialization functions\r\n   */\r\n\r\n  //Constructor\r\n  function BetokenFund(\r\n    address _kyberAddr,\r\n    address _developerFeeAccount,\r\n    uint256 _timeOfChangeMaking,\r\n    uint256 _timeOfProposalMaking,\r\n    uint256 _timeOfWaiting,\r\n    uint256 _minStakeProportion,\r\n    uint256 _maxProposals,\r\n    uint256 _commissionRate,\r\n    uint256 _developerFeeProportion,\r\n    uint256 _maxProposalsPerMember,\r\n    uint256 _cycleNumber\r\n  )\r\n    public\r\n  {\r\n    require(_minStakeProportion < 10**18);\r\n    require(_commissionRate.add(_developerFeeProportion) < 10**18);\r\n\r\n    kyberAddr = _kyberAddr;\r\n    developerFeeAccount = _developerFeeAccount;\r\n    timeOfChangeMaking = _timeOfChangeMaking;\r\n    timeOfProposalMaking = _timeOfProposalMaking;\r\n    timeOfWaiting = _timeOfWaiting;\r\n    minStakeProportion = _minStakeProportion;\r\n    maxProposals = _maxProposals;\r\n    commissionRate = _commissionRate;\r\n    developerFeeProportion = _developerFeeProportion;\r\n    maxProposalsPerMember = _maxProposalsPerMember;\r\n    startTimeOfCyclePhase = 0;\r\n    cyclePhase = CyclePhase.Finalized;\r\n    creator = msg.sender;\r\n    numProposals = 0;\r\n    cycleNumber = _cycleNumber;\r\n    kyber = KyberNetwork(_kyberAddr);\r\n    allowEmergencyWithdraw = false;\r\n  }\r\n\r\n  /**\r\n   * Initializes the list of participants. Used during contract upgrades.\r\n   * @param _participants the list of participant addresses\r\n   */\r\n  function initializeParticipants(address[] _participants) public {\r\n    require(msg.sender == creator);\r\n    require (!initialized);\r\n\r\n    participants = _participants;\r\n    for (uint i = 0; i < _participants.length; i++) {\r\n      isParticipant[_participants[i]] = true;\r\n    }\r\n  }\r\n\r\n  /**\r\n   * Initializes the address of the ControlToken contract.\r\n   * @param _cTokenAddr address of ControlToken contract\r\n   */\r\n  function initializeSubcontracts(address _cTokenAddr) public {\r\n    require(msg.sender == creator);\r\n    require(!initialized);\r\n\r\n    initialized = true;\r\n\r\n    controlTokenAddr = _cTokenAddr;\r\n\r\n    cToken = ControlToken(controlTokenAddr);\r\n  }\r\n\r\n  /**\r\n   * Getters\r\n   */\r\n\r\n  /**\r\n   * Returns the length of the participants array.\r\n   * @return length of participants array\r\n   */\r\n  function participantsCount() public view returns(uint256 _count) {\r\n    return participants.length;\r\n  }\r\n\r\n  /**\r\n   * Returns the length of the proposals array.\r\n   * @return length of proposals array\r\n   */\r\n  function proposalsCount() public view returns(uint256 _count) {\r\n    return proposals.length;\r\n  }\r\n\r\n  /**\r\n   * Meta functions\r\n   */\r\n\r\n  /**\r\n   * Emergency functions\r\n   */\r\n\r\n  /**\r\n   * In case the fund is invested in tokens, sell all tokens.\r\n   */\r\n  function emergencyDumpTokens() onlyOwner whenPaused public {\r\n    for (uint256 i = 0; i < proposals.length; i = i.add(1)) {\r\n      if (proposals[i].numFor > 0) { //Ensure proposal isn't a deleted one\r\n        __handleInvestment(i, false);\r\n      }\r\n    }\r\n  }\r\n\r\n  /**\r\n   * In case the fund is invested in tokens, return all staked Kairos.\r\n   */\r\n  function emergencyReturnAllStakes() onlyOwner whenPaused public {\r\n    for (uint256 i = 0; i < proposals.length; i = i.add(1)) {\r\n      if (proposals[i].numFor > 0) {\r\n        __returnStakes(i);\r\n      }\r\n    }\r\n  }\r\n\r\n  /**\r\n   * In case the fund is invested in tokens, redistribute balance after selling all tokens.\r\n   */\r\n  function emergencyRedistBalances() onlyOwner whenPaused public {\r\n    for (uint256 i = 0; i < participants.length; i = i.add(1)) {\r\n      address participant = participants[i];\r\n      uint256 newBalance = 0;\r\n      if (totalFundsInWeis > 0) {\r\n        newBalance = newBalance.add(this.balance.mul(balanceOf[participant]).div(totalFundsInWeis));\r\n      }\r\n      balanceOf[participant] = newBalance;\r\n    }\r\n    totalFundsInWeis = this.balance;\r\n  }\r\n\r\n  function setAllowEmergencyWithdraw(bool _val) onlyOwner whenPaused public {\r\n    allowEmergencyWithdraw = _val;\r\n  }\r\n\r\n  /**\r\n   * Function for withdrawing all funds in times of emergency. Only callable when fund is paused.\r\n   */\r\n  function emergencyWithdraw()\r\n    public\r\n    onlyParticipant\r\n    whenPaused\r\n  {\r\n    require(allowEmergencyWithdraw);\r\n    uint256 amountInWeis = balanceOf[msg.sender];\r\n\r\n    //Subtract from account\r\n    totalFundsInWeis = totalFundsInWeis.sub(amountInWeis);\r\n    balanceOf[msg.sender] = 0;\r\n\r\n    //Transfer\r\n    msg.sender.transfer(amountInWeis);\r\n\r\n    //Emit event\r\n    Withdraw(cycleNumber, msg.sender, amountInWeis, now);\r\n  }\r\n\r\n  /**\r\n   * Parameter setters\r\n   */\r\n\r\n  /**\r\n   * Changes the address of the KyberNetwork contract used in the contract. Only callable by owner.\r\n   * @param _newAddr new address of KyberNetwork contract\r\n   */\r\n  function changeKyberNetworkAddress(address _newAddr) public onlyOwner whenPaused {\r\n    require(_newAddr != address(0));\r\n    kyberAddr = _newAddr;\r\n    kyber = KyberNetwork(_newAddr);\r\n  }\r\n\r\n  /**\r\n   * Changes the address to which the developer fees will be sent. Only callable by owner.\r\n   * @param _newAddr new developer fee address\r\n   */\r\n  function changeDeveloperFeeAccount(address _newAddr) public onlyOwner {\r\n    require(_newAddr != address(0));\r\n    developerFeeAccount = _newAddr;\r\n  }\r\n\r\n  /**\r\n   * Changes the proportion of fund balance sent to the developers each cycle. May only decrease. Only callable by owner.\r\n   * @param _newProp the new proportion, fixed point decimal\r\n   */\r\n  function changeDeveloperFeeProportion(uint256 _newProp) public onlyOwner {\r\n    require(_newProp < developerFeeProportion);\r\n    developerFeeProportion = _newProp;\r\n  }\r\n\r\n  /**\r\n   * Changes the proportion of fund balance given to Kairo holders each cycle. Only callable by owner.\r\n   * @param _newProp the new proportion, fixed point decimal\r\n   */\r\n  function changeCommissionRate(uint256 _newProp) public onlyOwner {\r\n    commissionRate = _newProp;\r\n  }\r\n\r\n  /**\r\n   * Changes the owner of the ControlToken contract.\r\n   * @param  _newOwner the new owner address\r\n   */\r\n  function changeControlTokenOwner(address _newOwner) public onlyOwner whenPaused {\r\n    require(_newOwner != address(0));\r\n    cToken.transferOwnership(_newOwner);\r\n  }\r\n\r\n  /**\r\n   * Start cycle functions\r\n   */\r\n\r\n  /**\r\n   * Starts a new investment cycle.\r\n   */\r\n  function startNewCycle() public during(CyclePhase.Finalized) whenNotPaused {\r\n    require(initialized);\r\n\r\n    //Update values\r\n    cyclePhase = CyclePhase.ChangeMaking;\r\n    startTimeOfCyclePhase = now;\r\n    cycleNumber = cycleNumber.add(1);\r\n\r\n    //Reset data\r\n    for (uint256 i = 0; i < participants.length; i = i.add(1)) {\r\n      __resetMemberData(participants[i]);\r\n    }\r\n    for (i = 0; i < proposals.length; i = i.add(1)) {\r\n      __resetProposalData(i);\r\n    }\r\n    delete proposals;\r\n    delete numProposals;\r\n    delete cycleTotalForStake;\r\n\r\n    //Emit event\r\n    CycleStarted(cycleNumber, now);\r\n  }\r\n\r\n  /**\r\n   * Resets cycle specific data for a given participant.\r\n   * @param _addr the participant whose data will be reset\r\n   */\r\n  function __resetMemberData(address _addr) internal {\r\n    delete createdProposalCount[_addr];\r\n    delete userStakedProposalCount[_addr];\r\n\r\n    //Remove the associated corresponding control staked for/against  each proposal\r\n    for (uint256 i = 0; i < proposals.length; i = i.add(1)) {\r\n      delete forStakedControlOfProposalOfUser[i][_addr];\r\n      delete againstStakedControlOfProposalOfUser[i][_addr];\r\n    }\r\n  }\r\n\r\n  /**\r\n   * Resets cycle specific data for a give proposal\r\n   * @param _proposalId ID of proposal whose data will be reset\r\n   */\r\n  function __resetProposalData(uint256 _proposalId) internal {\r\n    delete isTokenAlreadyProposed[proposals[_proposalId].tokenAddress];\r\n    delete forStakedControlOfProposal[_proposalId];\r\n    delete againstStakedControlOfProposal[_proposalId];\r\n  }\r\n\r\n  /**\r\n   * ChangeMakingTime functions\r\n   */\r\n\r\n  /**\r\n   * Deposit Ether into the fund.\r\n   */\r\n  function deposit()\r\n    public\r\n    payable\r\n    during(CyclePhase.ChangeMaking)\r\n    whenNotPaused\r\n  {\r\n    //If caller is not a participant, add them to the participants list\r\n    if (!isParticipant[msg.sender]) {\r\n      participants.push(msg.sender);\r\n      isParticipant[msg.sender] = true;\r\n    }\r\n\r\n    //Register investment\r\n    balanceOf[msg.sender] = balanceOf[msg.sender].add(msg.value);\r\n    totalFundsInWeis = totalFundsInWeis.add(msg.value);\r\n\r\n    //Deposits during all cycles will grant you Kairo in the testnet alpha\r\n    //Uncomment in mainnet version\r\n    //if (cycleNumber == 1) {\r\n      //Give control tokens proportional to investment\r\n      cToken.mint(msg.sender, msg.value);\r\n    //}\r\n\r\n    //Emit event\r\n    Deposit(cycleNumber, msg.sender, msg.value, now);\r\n  }\r\n\r\n  /**\r\n   * Withdraws a certain amount of Ether from the user's account. Cannot be called during the first cycle.\r\n   * @param _amountInWeis amount of Ether to be withdrawn\r\n   */\r\n  function withdraw(uint256 _amountInWeis)\r\n    public\r\n    during(CyclePhase.ChangeMaking)\r\n    onlyParticipant\r\n    whenNotPaused\r\n  {\r\n    require(cycleNumber != 1);\r\n\r\n    //Subtract from account\r\n    totalFundsInWeis = totalFundsInWeis.sub(_amountInWeis);\r\n    balanceOf[msg.sender] = balanceOf[msg.sender].sub(_amountInWeis);\r\n\r\n    //Transfer Ether to user\r\n    msg.sender.transfer(_amountInWeis);\r\n\r\n    //Emit event\r\n    Withdraw(cycleNumber, msg.sender, _amountInWeis, now);\r\n  }\r\n\r\n  /**\r\n   * Ends the ChangeMaking phase.\r\n   */\r\n  function endChangeMakingTime() public during(CyclePhase.ChangeMaking) whenNotPaused {\r\n    require(now >= startTimeOfCyclePhase.add(timeOfChangeMaking));\r\n\r\n    startTimeOfCyclePhase = now;\r\n    cyclePhase = CyclePhase.ProposalMaking;\r\n\r\n    ChangeMakingTimeEnded(cycleNumber, now);\r\n  }\r\n\r\n  /**\r\n   * ProposalMakingTime functions\r\n   */\r\n\r\n  /**\r\n   * Creates a new investment proposal for an ERC20 token.\r\n   * @param _tokenAddress address of the ERC20 token contract\r\n   * @param _stakeInWeis amount of Kairos to be staked in support of the proposal\r\n   */\r\n  function createProposal(\r\n    address _tokenAddress,\r\n    uint256 _stakeInWeis\r\n  )\r\n    public\r\n    during(CyclePhase.ProposalMaking)\r\n    onlyParticipant\r\n    whenNotPaused\r\n  {\r\n    require(numProposals < maxProposals);\r\n    require(!isTokenAlreadyProposed[_tokenAddress]);\r\n    require(createdProposalCount[msg.sender] < maxProposalsPerMember);\r\n\r\n    //Add proposal to list\r\n    proposals.push(Proposal({\r\n      tokenAddress: _tokenAddress,\r\n      buyPriceInWeis: 0,\r\n      sellPriceInWeis: 0,\r\n      numFor: 0,\r\n      numAgainst: 0\r\n    }));\r\n\r\n    //Update values about proposal\r\n    isTokenAlreadyProposed[_tokenAddress] = true;\r\n    createdProposalCount[msg.sender] = createdProposalCount[msg.sender].add(1);\r\n    numProposals = numProposals.add(1);\r\n\r\n    //Stake control tokens\r\n    uint256 proposalId = proposals.length - 1;\r\n    stakeProposal(proposalId, _stakeInWeis, true);\r\n\r\n    //Emit event\r\n    NewProposal(cycleNumber, proposalId, _tokenAddress, _stakeInWeis);\r\n  }\r\n\r\n  /**\r\n   * Stakes for or against an investment proposal.\r\n   * @param _proposalId ID of the proposal the user wants to support\r\n   * @param _stakeInWeis amount of Kairo to be staked in support of the proposal\r\n   */\r\n  function stakeProposal(uint256 _proposalId, uint256 _stakeInWeis, bool _support)\r\n    public\r\n    during(CyclePhase.ProposalMaking)\r\n    onlyParticipant\r\n    whenNotPaused\r\n  {\r\n    require(_proposalId < proposals.length); //Valid ID\r\n    require(isTokenAlreadyProposed[proposals[_proposalId].tokenAddress]); //Non-empty proposal\r\n\r\n    /**\r\n     * Stake Kairos\r\n     */\r\n    //Ensure stake is larger than the minimum proportion of Kairo balance\r\n    require(_stakeInWeis.mul(PRECISION) >= minStakeProportion.mul(cToken.balanceOf(msg.sender)));\r\n    require(_stakeInWeis > 0); //Ensure positive stake amount\r\n\r\n    //Collect Kairos as stake\r\n    cToken.ownerCollectFrom(msg.sender, _stakeInWeis);\r\n\r\n    //Update stake data\r\n    if (_support && againstStakedControlOfProposalOfUser[_proposalId][msg.sender] == 0) {\r\n      //Support proposal, hasn't staked against it\r\n      if (forStakedControlOfProposalOfUser[_proposalId][msg.sender] == 0) {\r\n        proposals[_proposalId].numFor = proposals[_proposalId].numFor.add(1);\r\n      }\r\n      forStakedControlOfProposal[_proposalId] = forStakedControlOfProposal[_proposalId].add(_stakeInWeis);\r\n      forStakedControlOfProposalOfUser[_proposalId][msg.sender] = forStakedControlOfProposalOfUser[_proposalId][msg.sender].add(_stakeInWeis);\r\n      cycleTotalForStake = cycleTotalForStake.add(_stakeInWeis);\r\n    } else if (!_support && forStakedControlOfProposalOfUser[_proposalId][msg.sender] == 0) {\r\n      //Against proposal, hasn't staked for it\r\n      if (againstStakedControlOfProposalOfUser[_proposalId][msg.sender] == 0) {\r\n        proposals[_proposalId].numAgainst = proposals[_proposalId].numAgainst.add(1);\r\n      }\r\n      againstStakedControlOfProposal[_proposalId] = againstStakedControlOfProposal[_proposalId].add(_stakeInWeis);\r\n      againstStakedControlOfProposalOfUser[_proposalId][msg.sender] = againstStakedControlOfProposalOfUser[_proposalId][msg.sender].add(_stakeInWeis);\r\n    } else {\r\n      revert();\r\n    }\r\n    userStakedProposalCount[msg.sender] = userStakedProposalCount[msg.sender].add(1);\r\n\r\n    //Emit event\r\n    StakedProposal(cycleNumber, _proposalId, _stakeInWeis, _support);\r\n  }\r\n\r\n  /**\r\n   * Cancels staking in a proposal.\r\n   * @param _proposalId ID of the proposal\r\n   */\r\n  function cancelProposalStake(uint256 _proposalId)\r\n    public\r\n    during(CyclePhase.ProposalMaking)\r\n    onlyParticipant\r\n    whenNotPaused\r\n  {\r\n    require(_proposalId < proposals.length); //Valid ID\r\n    require(proposals[_proposalId].numFor > 0); //Non-empty proposal\r\n\r\n    //Remove stake data\r\n    uint256 forStake = forStakedControlOfProposalOfUser[_proposalId][msg.sender];\r\n    uint256 againstStake = againstStakedControlOfProposalOfUser[_proposalId][msg.sender];\r\n    uint256 stake = forStake.add(againstStake);\r\n    if (forStake > 0) {\r\n      forStakedControlOfProposal[_proposalId] = forStakedControlOfProposal[_proposalId].sub(stake);\r\n      cycleTotalForStake = cycleTotalForStake.sub(stake);\r\n      proposals[_proposalId].numFor = proposals[_proposalId].numFor.sub(1);\r\n    } else if (againstStake > 0) {\r\n      againstStakedControlOfProposal[_proposalId] = againstStakedControlOfProposal[_proposalId].sub(stake);\r\n      proposals[_proposalId].numAgainst = proposals[_proposalId].numAgainst.sub(1);\r\n    } else {\r\n      return;\r\n    }\r\n    userStakedProposalCount[msg.sender] = userStakedProposalCount[msg.sender].sub(1);\r\n\r\n    delete forStakedControlOfProposalOfUser[_proposalId][msg.sender];\r\n    delete againstStakedControlOfProposalOfUser[_proposalId][msg.sender];\r\n\r\n    //Return stake\r\n    cToken.transfer(msg.sender, stake);\r\n\r\n    //Delete proposal if necessary\r\n    if (proposals[_proposalId].numFor == 0) {\r\n      __returnStakes(_proposalId);\r\n      __resetProposalData(_proposalId);\r\n      numProposals = numProposals.sub(1);\r\n      delete proposals[_proposalId];\r\n    }\r\n  }\r\n\r\n  /**\r\n   * Ends the ProposalMaking phase.\r\n   */\r\n  function endProposalMakingTime()\r\n    public\r\n    during(CyclePhase.ProposalMaking)\r\n    whenNotPaused\r\n  {\r\n    require(now >= startTimeOfCyclePhase.add(timeOfProposalMaking));\r\n\r\n    startTimeOfCyclePhase = now;\r\n    cyclePhase = CyclePhase.Waiting;\r\n\r\n    __penalizeNonparticipation();\r\n    __makeInvestments();\r\n\r\n    ProposalMakingTimeEnded(cycleNumber, now);\r\n  }\r\n\r\n  /**\r\n   * Penalizes non-participation by burning a proportion of Kairo balance.\r\n   */\r\n  function __penalizeNonparticipation() internal {\r\n    for (uint256 i = 0; i < participants.length; i = i.add(1)) {\r\n      address participant = participants[i];\r\n      uint256 kairoBalance = cToken.balanceOf(participant);\r\n      if (userStakedProposalCount[participant] == 0 && kairoBalance > 0) {\r\n        uint256 decreaseAmount = kairoBalance.mul(minStakeProportion).div(PRECISION);\r\n        cToken.ownerBurn(participant, decreaseAmount);\r\n      }\r\n    }\r\n  }\r\n\r\n  /**\r\n   * Turns the investment proposals into actual investments.\r\n   */\r\n  function __makeInvestments() internal {\r\n    //Invest in tokens using KyberNetwork\r\n    for (uint256 i = 0; i < proposals.length; i = i.add(1)) {\r\n      if (proposals[i].numFor > 0) { //Ensure proposal isn't a deleted one\r\n        //Deposit ether\r\n        __handleInvestment(i, true);\r\n      }\r\n    }\r\n  }\r\n\r\n  /**\r\n   * Finalize the cycle by redistributing user balances and settling investment proposals.\r\n   */\r\n  function finalizeCycle() public during(CyclePhase.Waiting) whenNotPaused {\r\n    require(now >= startTimeOfCyclePhase.add(timeOfWaiting));\r\n\r\n    //Update cycle values\r\n    startTimeOfCyclePhase = now;\r\n    cyclePhase = CyclePhase.Finalized;\r\n\r\n    //Sell all invested tokens and settle bets\r\n    for (uint256 i = 0; i < proposals.length; i = i.add(1)) {\r\n      if (proposals[i].numFor > 0) { //Ensure proposal isn't a deleted one\r\n        __handleInvestment(i, false);\r\n        __settleBets(i);\r\n      }\r\n    }\r\n\r\n    //Burn any Kairo left in BetokenFund's account\r\n    cToken.burnOwnerBalance();\r\n\r\n    //Distribute funds\r\n    __distributeFundsAfterCycleEnd();\r\n\r\n    //Emit event\r\n    CycleFinalized(cycleNumber, now);\r\n  }\r\n\r\n  /**\r\n   * Settles an investment proposal in terms of profitability.\r\n   * @param _proposalId ID of the proposal\r\n   */\r\n  function __settleBets(uint256 _proposalId) internal {\r\n    Proposal storage prop = proposals[_proposalId];\r\n\r\n    //Prevent divide by zero errors\r\n    if (prop.buyPriceInWeis == 0) {\r\n      __returnStakes(_proposalId);\r\n      return;\r\n    }\r\n\r\n    uint256 forMultiplier = prop.sellPriceInWeis.mul(PRECISION).div(prop.buyPriceInWeis);\r\n    uint256 againstMultiplier = 0;\r\n    if (prop.sellPriceInWeis < prop.buyPriceInWeis.mul(2)) {\r\n      againstMultiplier = prop.buyPriceInWeis.mul(2).sub(prop.sellPriceInWeis).mul(PRECISION).div(prop.buyPriceInWeis);\r\n    }\r\n\r\n    for (uint256 j = 0; j < participants.length; j = j.add(1)) {\r\n      address participant = participants[j];\r\n      uint256 stake = 0;\r\n      if (forStakedControlOfProposalOfUser[_proposalId][participant] > 0) {\r\n        //User supports proposal\r\n        stake = forStakedControlOfProposalOfUser[_proposalId][participant];\r\n        //Mint instead of transfer. Ensures that there are always enough tokens.\r\n        //Extra will be burnt right after so no problem there.\r\n        cToken.mint(participant, stake.mul(forMultiplier).div(PRECISION));\r\n      } else if (againstStakedControlOfProposalOfUser[_proposalId][participant] > 0) {\r\n        //User is against proposal\r\n        stake = againstStakedControlOfProposalOfUser[_proposalId][participant];\r\n        //Mint instead of transfer. Ensures that there are always enough tokens.\r\n        //Extra will be burnt right after so no problem there.\r\n        cToken.mint(participant, stake.mul(againstMultiplier).div(PRECISION));\r\n      }\r\n    }\r\n  }\r\n\r\n  /**\r\n   * Distributes the funds accourding to previously held proportions. Pays commission to Kairo holders,\r\n   * and developer fees to developers.\r\n   */\r\n  function __distributeFundsAfterCycleEnd() internal {\r\n    uint256 profit = 0;\r\n    if (this.balance > totalFundsInWeis) {\r\n      profit = this.balance - totalFundsInWeis;\r\n    }\r\n    uint256 totalCommission = commissionRate.mul(profit).div(PRECISION);\r\n    uint256 devFee = developerFeeProportion.mul(this.balance).div(PRECISION);\r\n    uint256 newTotalRegularFunds = this.balance.sub(totalCommission).sub(devFee);\r\n\r\n    //Distributes funds to participants\r\n    for (uint256 i = 0; i < participants.length; i = i.add(1)) {\r\n      address participant = participants[i];\r\n      uint256 newBalance = 0;\r\n      //Add share\r\n      if (totalFundsInWeis > 0) {\r\n        newBalance = newBalance.add(newTotalRegularFunds.mul(balanceOf[participant]).div(totalFundsInWeis));\r\n      }\r\n      //Add commission\r\n      //Adding a check for nonzero Kairo supply here makes Truffle go apeshit. Edge case anyways, so whatevs.\r\n      if (cToken.totalSupply() > 0) {\r\n        newBalance = newBalance.add(totalCommission.mul(cToken.balanceOf(participant)).div(cToken.totalSupply()));\r\n      }\r\n      //Update balance\r\n      balanceOf[participant] = newBalance;\r\n    }\r\n\r\n    //Update values\r\n    uint256 newTotalFunds = newTotalRegularFunds.add(totalCommission);\r\n    ROI(cycleNumber, totalFundsInWeis, newTotalFunds);\r\n    totalFundsInWeis = newTotalFunds;\r\n\r\n    //Transfer fees\r\n    developerFeeAccount.transfer(devFee);\r\n\r\n    //Emit event\r\n    CommissionPaid(cycleNumber, totalCommission);\r\n  }\r\n\r\n  /**\r\n   * Internal use functions\r\n   */\r\n\r\n  function __addControlTokenReceipientAsParticipant(address _receipient) public {\r\n    require(msg.sender == controlTokenAddr);\r\n    isParticipant[_receipient] = true;\r\n    participants.push(_receipient);\r\n  }\r\n\r\n  /**\r\n   * Returns all stakes of a proposal\r\n   * @param _proposalId ID of the proposal\r\n   */\r\n  function __returnStakes(uint256 _proposalId) internal {\r\n    for (uint256 j = 0; j < participants.length; j = j.add(1)) {\r\n      address participant = participants[j];\r\n      uint256 stake = forStakedControlOfProposalOfUser[_proposalId][participant].add(againstStakedControlOfProposalOfUser[_proposalId][participant]);\r\n      if (stake != 0) {\r\n        cToken.transfer(participant, stake);\r\n      }\r\n    }\r\n  }\r\n\r\n  function __handleInvestment(uint256 _proposalId, bool _buy) internal {\r\n    uint256 srcAmount;\r\n    uint256 bestReserve;\r\n    uint256 bestRate;\r\n    uint256 actualDestAmount;\r\n    uint256 actualRate;\r\n    address destAddr = proposals[_proposalId].tokenAddress;\r\n    DetailedERC20 destToken = DetailedERC20(destAddr);\r\n\r\n    if (_buy) {\r\n      //Make buy orders\r\n\r\n      //Calculate investment amount\r\n      srcAmount = totalFundsInWeis.mul(forStakedControlOfProposal[_proposalId]).div(cycleTotalForStake);\r\n\r\n      //Get conversion rate\r\n      (bestReserve, bestRate) = kyber.findBestRate(\r\n        ETH_TOKEN_ADDRESS,\r\n        destToken,\r\n        srcAmount\r\n      );\r\n\r\n      uint256 beforeBalance = this.balance;\r\n\r\n      //Do trade\r\n      actualDestAmount = kyber.trade.value(srcAmount)(\r\n        ETH_TOKEN_ADDRESS,\r\n        srcAmount,\r\n        destToken,\r\n        address(this),\r\n        MAX_QTY,\r\n        bestRate,\r\n        address(this)\r\n      );\r\n\r\n      //Record buy price\r\n      require(actualDestAmount > 0);\r\n      actualRate = beforeBalance.sub(this.balance).mul(PRECISION).div(actualDestAmount);\r\n      proposals[_proposalId].buyPriceInWeis = actualRate;\r\n    } else {\r\n      //Make sell orders\r\n\r\n      //Get sell amount\r\n      srcAmount = destToken.balanceOf(address(this));\r\n\r\n      //Get conversion rate\r\n      (bestReserve, bestRate) = kyber.findBestRate(\r\n        destToken,\r\n        ETH_TOKEN_ADDRESS,\r\n        srcAmount\r\n      );\r\n\r\n      //Do trade\r\n      destToken.approve(kyberAddr, srcAmount);\r\n      actualDestAmount = kyber.trade(\r\n        destToken,\r\n        srcAmount,\r\n        ETH_TOKEN_ADDRESS,\r\n        address(this),\r\n        MAX_QTY,\r\n        bestRate,\r\n        address(this)\r\n      );\r\n      destToken.approve(kyberAddr, 0);\r\n\r\n      //Record sell price\r\n      require(srcAmount > destToken.balanceOf(address(this)));\r\n      actualRate = actualDestAmount.mul(PRECISION).div(srcAmount.sub(destToken.balanceOf(address(this))));\r\n      proposals[_proposalId].sellPriceInWeis = actualRate;\r\n    }\r\n  }\r\n\r\n  function() public payable {\r\n    if (msg.sender != kyberAddr) {\r\n      revert();\r\n    }\r\n  }\r\n}",
  "sourcePath": "D:\\msi-cn\\Documents\\GitHub\\betoken\\eth\\contracts\\BetokenFund.sol",
  "compiler": {
    "name": "solc",
    "version": "0.4.19+commit.c4cbbb05.Emscripten.clang"
  },
  "schemaVersion": "1.0.1",
  "updatedAt": "2018-02-23T07:13:37.947Z"
}