{
  "contractName": "BetokenFund",
  "abi": [
    {
      "constant": true,
      "inputs": [],
      "name": "allowEmergencyWithdraw",
      "outputs": [
        {
          "name": "",
          "type": "bool"
        }
      ],
      "payable": false,
      "stateMutability": "view",
      "type": "function"
    },
    {
      "constant": true,
      "inputs": [],
      "name": "developerFeeAccount",
      "outputs": [
        {
          "name": "",
          "type": "address"
        }
      ],
      "payable": false,
      "stateMutability": "view",
      "type": "function"
    },
    {
      "constant": true,
      "inputs": [
        {
          "name": "",
          "type": "address"
        },
        {
          "name": "",
          "type": "uint256"
        }
      ],
      "name": "userProposals",
      "outputs": [
        {
          "name": "tokenAddress",
          "type": "address"
        },
        {
          "name": "cycleNumber",
          "type": "uint256"
        },
        {
          "name": "stake",
          "type": "uint256"
        },
        {
          "name": "tokenAmount",
          "type": "uint256"
        },
        {
          "name": "buyPriceInWeis",
          "type": "uint256"
        },
        {
          "name": "sellPriceInWeis",
          "type": "uint256"
        },
        {
          "name": "isSold",
          "type": "bool"
        }
      ],
      "payable": false,
      "stateMutability": "view",
      "type": "function"
    },
    {
      "constant": true,
      "inputs": [],
      "name": "minStakeProportion",
      "outputs": [
        {
          "name": "",
          "type": "uint256"
        }
      ],
      "payable": false,
      "stateMutability": "view",
      "type": "function"
    },
    {
      "constant": true,
      "inputs": [],
      "name": "startTimeOfCyclePhase",
      "outputs": [
        {
          "name": "",
          "type": "uint256"
        }
      ],
      "payable": false,
      "stateMutability": "view",
      "type": "function"
    },
    {
      "constant": true,
      "inputs": [],
      "name": "timeOfChangeMaking",
      "outputs": [
        {
          "name": "",
          "type": "uint256"
        }
      ],
      "payable": false,
      "stateMutability": "view",
      "type": "function"
    },
    {
      "constant": true,
      "inputs": [],
      "name": "cycleNumber",
      "outputs": [
        {
          "name": "",
          "type": "uint256"
        }
      ],
      "payable": false,
      "stateMutability": "view",
      "type": "function"
    },
    {
      "constant": true,
      "inputs": [],
      "name": "timeOfFinalizing",
      "outputs": [
        {
          "name": "",
          "type": "uint256"
        }
      ],
      "payable": false,
      "stateMutability": "view",
      "type": "function"
    },
    {
      "constant": false,
      "inputs": [],
      "name": "unpause",
      "outputs": [],
      "payable": false,
      "stateMutability": "nonpayable",
      "type": "function"
    },
    {
      "constant": true,
      "inputs": [],
      "name": "controlTokenInflation",
      "outputs": [
        {
          "name": "",
          "type": "uint256"
        }
      ],
      "payable": false,
      "stateMutability": "view",
      "type": "function"
    },
    {
      "constant": true,
      "inputs": [],
      "name": "timeOfWaiting",
      "outputs": [
        {
          "name": "",
          "type": "uint256"
        }
      ],
      "payable": false,
      "stateMutability": "view",
      "type": "function"
    },
    {
      "constant": true,
      "inputs": [],
      "name": "paused",
      "outputs": [
        {
          "name": "",
          "type": "bool"
        }
      ],
      "payable": false,
      "stateMutability": "view",
      "type": "function"
    },
    {
      "constant": true,
      "inputs": [],
      "name": "commissionRate",
      "outputs": [
        {
          "name": "",
          "type": "uint256"
        }
      ],
      "payable": false,
      "stateMutability": "view",
      "type": "function"
    },
    {
      "constant": true,
      "inputs": [],
      "name": "functionCallReward",
      "outputs": [
        {
          "name": "",
          "type": "uint256"
        }
      ],
      "payable": false,
      "stateMutability": "view",
      "type": "function"
    },
    {
      "constant": true,
      "inputs": [],
      "name": "aumThresholdInWeis",
      "outputs": [
        {
          "name": "",
          "type": "uint256"
        }
      ],
      "payable": false,
      "stateMutability": "view",
      "type": "function"
    },
    {
      "constant": true,
      "inputs": [],
      "name": "totalFundsInWeis",
      "outputs": [
        {
          "name": "",
          "type": "uint256"
        }
      ],
      "payable": false,
      "stateMutability": "view",
      "type": "function"
    },
    {
      "constant": true,
      "inputs": [
        {
          "name": "",
          "type": "address"
        }
      ],
      "name": "lastCommissionRedemption",
      "outputs": [
        {
          "name": "",
          "type": "uint256"
        }
      ],
      "payable": false,
      "stateMutability": "view",
      "type": "function"
    },
    {
      "constant": false,
      "inputs": [],
      "name": "pause",
      "outputs": [],
      "payable": false,
      "stateMutability": "nonpayable",
      "type": "function"
    },
    {
      "constant": true,
      "inputs": [],
      "name": "owner",
      "outputs": [
        {
          "name": "",
          "type": "address"
        }
      ],
      "payable": false,
      "stateMutability": "view",
      "type": "function"
    },
    {
      "constant": true,
      "inputs": [],
      "name": "kyberAddr",
      "outputs": [
        {
          "name": "",
          "type": "address"
        }
      ],
      "payable": false,
      "stateMutability": "view",
      "type": "function"
    },
    {
      "constant": true,
      "inputs": [],
      "name": "PRECISION",
      "outputs": [
        {
          "name": "",
          "type": "uint256"
        }
      ],
      "payable": false,
      "stateMutability": "view",
      "type": "function"
    },
    {
      "constant": true,
      "inputs": [],
      "name": "developerFeeProportion",
      "outputs": [
        {
          "name": "",
          "type": "uint256"
        }
      ],
      "payable": false,
      "stateMutability": "view",
      "type": "function"
    },
    {
      "constant": true,
      "inputs": [],
      "name": "totalCommission",
      "outputs": [
        {
          "name": "",
          "type": "uint256"
        }
      ],
      "payable": false,
      "stateMutability": "view",
      "type": "function"
    },
    {
      "constant": true,
      "inputs": [],
      "name": "shareTokenAddr",
      "outputs": [
        {
          "name": "",
          "type": "address"
        }
      ],
      "payable": false,
      "stateMutability": "view",
      "type": "function"
    },
    {
      "constant": true,
      "inputs": [],
      "name": "timeOfProposalMaking",
      "outputs": [
        {
          "name": "",
          "type": "uint256"
        }
      ],
      "payable": false,
      "stateMutability": "view",
      "type": "function"
    },
    {
      "constant": true,
      "inputs": [],
      "name": "timeBetweenCycles",
      "outputs": [
        {
          "name": "",
          "type": "uint256"
        }
      ],
      "payable": false,
      "stateMutability": "view",
      "type": "function"
    },
    {
      "constant": true,
      "inputs": [],
      "name": "controlTokenAddr",
      "outputs": [
        {
          "name": "",
          "type": "address"
        }
      ],
      "payable": false,
      "stateMutability": "view",
      "type": "function"
    },
    {
      "constant": false,
      "inputs": [
        {
          "name": "newOwner",
          "type": "address"
        }
      ],
      "name": "transferOwnership",
      "outputs": [],
      "payable": false,
      "stateMutability": "nonpayable",
      "type": "function"
    },
    {
      "constant": true,
      "inputs": [],
      "name": "cyclePhase",
      "outputs": [
        {
          "name": "",
          "type": "uint8"
        }
      ],
      "payable": false,
      "stateMutability": "view",
      "type": "function"
    },
    {
      "inputs": [
        {
          "name": "_cTokenAddr",
          "type": "address"
        },
        {
          "name": "_sTokenAddr",
          "type": "address"
        },
        {
          "name": "_kyberAddr",
          "type": "address"
        },
        {
          "name": "_developerFeeAccount",
          "type": "address"
        },
        {
          "name": "_timeOfChangeMaking",
          "type": "uint256"
        },
        {
          "name": "_timeOfProposalMaking",
          "type": "uint256"
        },
        {
          "name": "_timeOfWaiting",
          "type": "uint256"
        },
        {
          "name": "_timeOfFinalizing",
          "type": "uint256"
        },
        {
          "name": "_timeBetweenCycles",
          "type": "uint256"
        },
        {
          "name": "_minStakeProportion",
          "type": "uint256"
        },
        {
          "name": "_commissionRate",
          "type": "uint256"
        },
        {
          "name": "_developerFeeProportion",
          "type": "uint256"
        },
        {
          "name": "_cycleNumber",
          "type": "uint256"
        },
        {
          "name": "_functionCallReward",
          "type": "uint256"
        },
        {
          "name": "_controlTokenInflation",
          "type": "uint256"
        },
        {
          "name": "_aumThresholdInWeis",
          "type": "uint256"
        }
      ],
      "payable": false,
      "stateMutability": "nonpayable",
      "type": "constructor"
    },
    {
      "payable": true,
      "stateMutability": "payable",
      "type": "fallback"
    },
    {
      "anonymous": false,
      "inputs": [
        {
          "indexed": true,
          "name": "_cycleNumber",
          "type": "uint256"
        },
        {
          "indexed": false,
          "name": "_timestamp",
          "type": "uint256"
        }
      ],
      "name": "CycleStarted",
      "type": "event"
    },
    {
      "anonymous": false,
      "inputs": [
        {
          "indexed": true,
          "name": "_cycleNumber",
          "type": "uint256"
        },
        {
          "indexed": true,
          "name": "_sender",
          "type": "address"
        },
        {
          "indexed": false,
          "name": "_amountInWeis",
          "type": "uint256"
        },
        {
          "indexed": false,
          "name": "_timestamp",
          "type": "uint256"
        }
      ],
      "name": "Deposit",
      "type": "event"
    },
    {
      "anonymous": false,
      "inputs": [
        {
          "indexed": true,
          "name": "_cycleNumber",
          "type": "uint256"
        },
        {
          "indexed": true,
          "name": "_sender",
          "type": "address"
        },
        {
          "indexed": false,
          "name": "_amountInWeis",
          "type": "uint256"
        },
        {
          "indexed": false,
          "name": "_timestamp",
          "type": "uint256"
        }
      ],
      "name": "Withdraw",
      "type": "event"
    },
    {
      "anonymous": false,
      "inputs": [
        {
          "indexed": true,
          "name": "_cycleNumber",
          "type": "uint256"
        },
        {
          "indexed": false,
          "name": "_timestamp",
          "type": "uint256"
        }
      ],
      "name": "ChangeMakingTimeEnded",
      "type": "event"
    },
    {
      "anonymous": false,
      "inputs": [
        {
          "indexed": true,
          "name": "_cycleNumber",
          "type": "uint256"
        },
        {
          "indexed": true,
          "name": "_sender",
          "type": "address"
        },
        {
          "indexed": false,
          "name": "_id",
          "type": "uint256"
        },
        {
          "indexed": false,
          "name": "_tokenAddress",
          "type": "address"
        },
        {
          "indexed": false,
          "name": "_stakeInWeis",
          "type": "uint256"
        }
      ],
      "name": "NewProposal",
      "type": "event"
    },
    {
      "anonymous": false,
      "inputs": [
        {
          "indexed": true,
          "name": "_cycleNumber",
          "type": "uint256"
        },
        {
          "indexed": false,
          "name": "_timestamp",
          "type": "uint256"
        }
      ],
      "name": "ProposalMakingTimeEnded",
      "type": "event"
    },
    {
      "anonymous": false,
      "inputs": [
        {
          "indexed": true,
          "name": "_cycleNumber",
          "type": "uint256"
        },
        {
          "indexed": false,
          "name": "_timestamp",
          "type": "uint256"
        }
      ],
      "name": "WaitingPhaseEnded",
      "type": "event"
    },
    {
      "anonymous": false,
      "inputs": [
        {
          "indexed": true,
          "name": "_cycleNumber",
          "type": "uint256"
        },
        {
          "indexed": true,
          "name": "_sender",
          "type": "address"
        },
        {
          "indexed": false,
          "name": "_proposalId",
          "type": "uint256"
        },
        {
          "indexed": false,
          "name": "_receivedKairos",
          "type": "uint256"
        }
      ],
      "name": "ProposalSold",
      "type": "event"
    },
    {
      "anonymous": false,
      "inputs": [
        {
          "indexed": true,
          "name": "_cycleNumber",
          "type": "uint256"
        },
        {
          "indexed": false,
          "name": "_timestamp",
          "type": "uint256"
        }
      ],
      "name": "SellingPhaseEnded",
      "type": "event"
    },
    {
      "anonymous": false,
      "inputs": [
        {
          "indexed": true,
          "name": "_cycleNumber",
          "type": "uint256"
        },
        {
          "indexed": false,
          "name": "_beforeTotalFunds",
          "type": "uint256"
        },
        {
          "indexed": false,
          "name": "_afterTotalFunds",
          "type": "uint256"
        }
      ],
      "name": "ROI",
      "type": "event"
    },
    {
      "anonymous": false,
      "inputs": [
        {
          "indexed": true,
          "name": "_cycleNumber",
          "type": "uint256"
        },
        {
          "indexed": true,
          "name": "_sender",
          "type": "address"
        },
        {
          "indexed": false,
          "name": "_commission",
          "type": "uint256"
        }
      ],
      "name": "CommissionPaid",
      "type": "event"
    },
    {
      "anonymous": false,
      "inputs": [
        {
          "indexed": true,
          "name": "_cycleNumber",
          "type": "uint256"
        },
        {
          "indexed": false,
          "name": "_totalCommissionInWeis",
          "type": "uint256"
        }
      ],
      "name": "TotalCommissionPaid",
      "type": "event"
    },
    {
      "anonymous": false,
      "inputs": [
        {
          "indexed": true,
          "name": "_cycleNumber",
          "type": "uint256"
        },
        {
          "indexed": false,
          "name": "_timestamp",
          "type": "uint256"
        }
      ],
      "name": "CycleFinalized",
      "type": "event"
    },
    {
      "anonymous": false,
      "inputs": [],
      "name": "Pause",
      "type": "event"
    },
    {
      "anonymous": false,
      "inputs": [],
      "name": "Unpause",
      "type": "event"
    },
    {
      "anonymous": false,
      "inputs": [
        {
          "indexed": true,
          "name": "previousOwner",
          "type": "address"
        },
        {
          "indexed": true,
          "name": "newOwner",
          "type": "address"
        }
      ],
      "name": "OwnershipTransferred",
      "type": "event"
    },
    {
      "constant": true,
      "inputs": [
        {
          "name": "_userAddr",
          "type": "address"
        }
      ],
      "name": "proposalsCount",
      "outputs": [
        {
          "name": "_count",
          "type": "uint256"
        }
      ],
      "payable": false,
      "stateMutability": "view",
      "type": "function"
    },
    {
      "constant": false,
      "inputs": [
        {
          "name": "_tokenAddr",
          "type": "address"
        }
      ],
      "name": "emergencyDumpToken",
      "outputs": [],
      "payable": false,
      "stateMutability": "nonpayable",
      "type": "function"
    },
    {
      "constant": false,
      "inputs": [
        {
          "name": "_proposalId",
          "type": "uint256"
        }
      ],
      "name": "emergencyRedeemStake",
      "outputs": [],
      "payable": false,
      "stateMutability": "nonpayable",
      "type": "function"
    },
    {
      "constant": false,
      "inputs": [],
      "name": "emergencyUpdateBalance",
      "outputs": [],
      "payable": false,
      "stateMutability": "nonpayable",
      "type": "function"
    },
    {
      "constant": false,
      "inputs": [
        {
          "name": "_val",
          "type": "bool"
        }
      ],
      "name": "setAllowEmergencyWithdraw",
      "outputs": [],
      "payable": false,
      "stateMutability": "nonpayable",
      "type": "function"
    },
    {
      "constant": false,
      "inputs": [],
      "name": "emergencyWithdraw",
      "outputs": [],
      "payable": false,
      "stateMutability": "nonpayable",
      "type": "function"
    },
    {
      "constant": false,
      "inputs": [
        {
          "name": "_newAddr",
          "type": "address"
        }
      ],
      "name": "changeKyberNetworkAddress",
      "outputs": [],
      "payable": false,
      "stateMutability": "nonpayable",
      "type": "function"
    },
    {
      "constant": false,
      "inputs": [
        {
          "name": "_newAddr",
          "type": "address"
        }
      ],
      "name": "changeDeveloperFeeAccount",
      "outputs": [],
      "payable": false,
      "stateMutability": "nonpayable",
      "type": "function"
    },
    {
      "constant": false,
      "inputs": [
        {
          "name": "_newProp",
          "type": "uint256"
        }
      ],
      "name": "changeDeveloperFeeProportion",
      "outputs": [],
      "payable": false,
      "stateMutability": "nonpayable",
      "type": "function"
    },
    {
      "constant": false,
      "inputs": [
        {
          "name": "_newProp",
          "type": "uint256"
        }
      ],
      "name": "changeCommissionRate",
      "outputs": [],
      "payable": false,
      "stateMutability": "nonpayable",
      "type": "function"
    },
    {
      "constant": false,
      "inputs": [
        {
          "name": "_newVal",
          "type": "uint256"
        }
      ],
      "name": "changeControlTokenInflation",
      "outputs": [],
      "payable": false,
      "stateMutability": "nonpayable",
      "type": "function"
    },
    {
      "constant": false,
      "inputs": [
        {
          "name": "_newOwner",
          "type": "address"
        }
      ],
      "name": "changeControlTokenOwner",
      "outputs": [],
      "payable": false,
      "stateMutability": "nonpayable",
      "type": "function"
    },
    {
      "constant": false,
      "inputs": [
        {
          "name": "_newOwner",
          "type": "address"
        }
      ],
      "name": "changeShareTokenOwner",
      "outputs": [],
      "payable": false,
      "stateMutability": "nonpayable",
      "type": "function"
    },
    {
      "constant": false,
      "inputs": [],
      "name": "startNewCycle",
      "outputs": [],
      "payable": false,
      "stateMutability": "nonpayable",
      "type": "function"
    },
    {
      "constant": false,
      "inputs": [],
      "name": "deposit",
      "outputs": [],
      "payable": true,
      "stateMutability": "payable",
      "type": "function"
    },
    {
      "constant": false,
      "inputs": [
        {
          "name": "_amountInWeis",
          "type": "uint256"
        }
      ],
      "name": "withdraw",
      "outputs": [],
      "payable": false,
      "stateMutability": "nonpayable",
      "type": "function"
    },
    {
      "constant": false,
      "inputs": [],
      "name": "endChangeMakingTime",
      "outputs": [],
      "payable": false,
      "stateMutability": "nonpayable",
      "type": "function"
    },
    {
      "constant": false,
      "inputs": [
        {
          "name": "_tokenAddress",
          "type": "address"
        },
        {
          "name": "_stakeInWeis",
          "type": "uint256"
        }
      ],
      "name": "createProposal",
      "outputs": [],
      "payable": false,
      "stateMutability": "nonpayable",
      "type": "function"
    },
    {
      "constant": false,
      "inputs": [],
      "name": "endProposalMakingTime",
      "outputs": [],
      "payable": false,
      "stateMutability": "nonpayable",
      "type": "function"
    },
    {
      "constant": false,
      "inputs": [],
      "name": "endWaitingPhase",
      "outputs": [],
      "payable": false,
      "stateMutability": "nonpayable",
      "type": "function"
    },
    {
      "constant": false,
      "inputs": [
        {
          "name": "_proposalId",
          "type": "uint256"
        }
      ],
      "name": "sellProposalAsset",
      "outputs": [],
      "payable": false,
      "stateMutability": "nonpayable",
      "type": "function"
    },
    {
      "constant": false,
      "inputs": [],
      "name": "finalizeCycle",
      "outputs": [],
      "payable": false,
      "stateMutability": "nonpayable",
      "type": "function"
    },
    {
      "constant": false,
      "inputs": [],
      "name": "redeemCommission",
      "outputs": [],
      "payable": false,
      "stateMutability": "nonpayable",
      "type": "function"
    },
    {
      "constant": false,
      "inputs": [
        {
          "name": "_tokenAddr",
          "type": "address"
        }
      ],
      "name": "sellLeftoverToken",
      "outputs": [],
      "payable": false,
      "stateMutability": "nonpayable",
      "type": "function"
    }
  ],
  "bytecode": "0x60606040526000805460a060020a60ff021916905534156200002057600080fd5b604051610200806200309b8339810160405280805191906020018051919060200180519190602001805191906020018051919060200180519190602001805191906020018051919060200180519190602001805191906020018051919060200180519190602001805191906020018051919060200180519190602001805160008054600160a060020a03191633600160a060020a0316179055915050670de0b6b3a76400008710620000d157600080fd5b670de0b6b3a7640000620000f487876401000000006200259f620002a482021704565b10620000ff57600080fd5b8f600160006101000a815481600160a060020a030219169083600160a060020a031602179055508e600260006101000a815481600160a060020a030219169083600160a060020a031602179055508d600360006101000a815481600160a060020a030219169083600160a060020a031602179055508f601860016101000a815481600160a060020a030219169083600160a060020a031602179055508e601960006101000a815481600160a060020a030219169083600160a060020a031602179055508d601a60006101000a815481600160a060020a030219169083600160a060020a031602179055508c600460006101000a815481600160a060020a030219169083600160a060020a031602179055508b6009819055508a600a8190555089600b8190555088600c8190555087600d8190555086600e8190555085600f819055508460108190555060006008819055506004601860006101000a81548160ff021916908360048111156200027057fe5b021790555060059390935560119190915560135560145550506015805460ff1916905550620002bb98505050505050505050565b600082820183811015620002b457fe5b9392505050565b612dd080620002cb6000396000f3006060604052600436106102635763ffffffff60e060020a60003504166309b0d33a81146102805780630e1b1fda1461029357806311815223146102a957806312e1ee45146102c8578063173e7707146102e757806317514eec146103065780631a26af7a146103375780631ab371fc1461035e5780631b31527f1461038d5780631b8e2192146103f75780631c68e5281461040a5780631dcf8ceb1461042957806325f842c51461043c57806328ac12281461044f5780632e1a7d4d146104625780632f1b3b03146104785780632f8847101461048e5780633795ea5a146104a15780633f4ba83a146104b45780634d73ec11146104c75780634f634790146104da5780635c975abb146104ed5780635d4c3224146105005780635ea1d6f814610518578063612d194d1461052b57806364542e3e1461053e5780636642642a146105545780636d6f8af41461056a5780637e714dd21461057d5780637f2736d114610590578063821f9824146105a35780638456cb59146105c25780638657459e146105d55780638da5cb5b146105eb57806390c31d5d146105fe578063a7c4dccf14610611578063aaf5eb6814610624578063b18e8a8d14610637578063b2637f6514610656578063b64af4b114610669578063ba25887d1461067c578063c0320dbc1461068f578063d0e30db0146106a2578063d7615d37146106aa578063d78b3b1c146106bd578063db2e21bc146106d0578063dbdadc5c146106e3578063dc87454c146106f6578063dfc51a2514610709578063e7476abf1461072b578063ec33d2a01461074a578063f2fde38b1461075d578063f6558b001461077c575b60035433600160a060020a0390811691161461027e57600080fd5b005b341561028b57600080fd5b61027e6107b3565b341561029e57600080fd5b61027e6004356108e5565b34156102b457600080fd5b61027e600160a060020a03600435166109fb565b34156102d357600080fd5b61027e600160a060020a0360043516610a7c565b34156102f257600080fd5b61027e600160a060020a0360043516610b4f565b341561031157600080fd5b610325600160a060020a0360043516610c23565b60405190815260200160405180910390f35b341561034257600080fd5b61034a610c3e565b604051901515815260200160405180910390f35b341561036957600080fd5b610371610c47565b604051600160a060020a03909116815260200160405180910390f35b341561039857600080fd5b6103af600160a060020a0360043516602435610c56565b604051600160a060020a03909716875260208701959095526040808701949094526060860192909252608085015260a084015290151560c083015260e0909101905180910390f35b341561040257600080fd5b61027e610cbc565b341561041557600080fd5b61027e600160a060020a0360043516610ed0565b341561043457600080fd5b610325610f7f565b341561044757600080fd5b610325610f85565b341561045a57600080fd5b610325610f8b565b341561046d57600080fd5b61027e600435610f91565b341561048357600080fd5b61027e600435611154565b341561049957600080fd5b610325611174565b34156104ac57600080fd5b61032561117a565b34156104bf57600080fd5b61027e611180565b34156104d257600080fd5b6103256111ff565b34156104e557600080fd5b610325611205565b34156104f857600080fd5b61034a61120b565b341561050b57600080fd5b61027e600435151561121b565b341561052357600080fd5b610325611261565b341561053657600080fd5b610325611267565b341561054957600080fd5b61027e60043561126d565b341561055f57600080fd5b61027e60043561129b565b341561057557600080fd5b6103256112bb565b341561058857600080fd5b6103256112c1565b341561059b57600080fd5b61027e6112c7565b34156105ae57600080fd5b610325600160a060020a03600435166114ca565b34156105cd57600080fd5b61027e6114dc565b34156105e057600080fd5b61027e600435611560565b34156105f657600080fd5b610371611743565b341561060957600080fd5b61027e611752565b341561061c57600080fd5b610371611884565b341561062f57600080fd5b610325611893565b341561064257600080fd5b61027e600160a060020a0360043516611899565b341561066157600080fd5b61027e6118f8565b341561067457600080fd5b61027e61193b565b341561068757600080fd5b610325611a89565b341561069a57600080fd5b610325611a8f565b61027e611a95565b34156106b557600080fd5b610371611d22565b34156106c857600080fd5b610325611d31565b34156106db57600080fd5b61027e611d37565b34156106ee57600080fd5b610325611fc6565b341561070157600080fd5b610371611fcc565b341561071457600080fd5b61027e600160a060020a0360043516602435611fdb565b341561073657600080fd5b61027e600160a060020a0360043516612276565b341561075557600080fd5b61027e612313565b341561076857600080fd5b61027e600160a060020a03600435166124fb565b341561078757600080fd5b61078f612596565b6040518082600481111561079f57fe5b60ff16815260200191505060405180910390f35b60028060185460ff1660048111156107c757fe5b146107d157600080fd5b60005460a060020a900460ff16156107e857600080fd5b601860019054906101000a9004600160a060020a0316600160a060020a03166340c10f193360115460006040516020015260405160e060020a63ffffffff8516028152600160a060020a0390921660048301526024820152604401602060405180830381600087803b151561085c57600080fd5b6102c65a03f1151561086d57600080fd5b50505060405180515050600b5460085461088c9163ffffffff61259f16565b42101561089857600080fd5b4260088190556018805460ff19166003179055600554907fb261f68a380a9c0e8cb1b8ddea5dceb8ce59629e31c7d50b5a3acf6f017b6df69060405190815260200160405180910390a250565b60008054819060a060020a900460ff16151561090057600080fd5b60155460ff16151561091157600080fd5b600160a060020a033316600090815260176020526040902080548490811061093557fe5b90600052602060002090600702019150600554826001015414151561095957600080fd5b5060028101546000811161096c57600080fd5b6000600283018190556018546101009004600160a060020a03169063a9059cbb90339084906040516020015260405160e060020a63ffffffff8516028152600160a060020a0390921660048301526024820152604401602060405180830381600087803b15156109db57600080fd5b6102c65a03f115156109ec57600080fd5b50505060405180515050505050565b60005433600160a060020a03908116911614610a1657600080fd5b60005460a060020a900460ff161515610a2e57600080fd5b600160a060020a0381161515610a4357600080fd5b60038054600160a060020a0390921673ffffffffffffffffffffffffffffffffffffffff199283168117909155601a8054909216179055565b60005433600160a060020a03908116911614610a9757600080fd5b60048060185460ff166004811115610aab57fe5b14610ab557600080fd5b60005460a060020a900460ff161515610acd57600080fd5b610b4a8283600160a060020a03166370a082313060006040516020015260405160e060020a63ffffffff8416028152600160a060020a039091166004820152602401602060405180830381600087803b1515610b2857600080fd5b6102c65a03f11515610b3957600080fd5b5050506040518051905060006125b9565b505050565b600060048060185460ff166004811115610b6557fe5b14610b6f57600080fd5b60005460a060020a900460ff1615610b8657600080fd5b30600160a060020a0316319150610bee8384600160a060020a03166370a082313060006040516020015260405160e060020a63ffffffff8416028152600160a060020a039091166004820152602401602060405180830381600087803b1515610b2857600080fd5b50610c1b610c0c600160a060020a033016318463ffffffff612a3a16565b6007549063ffffffff61259f16565b600755505050565b600160a060020a031660009081526017602052604090205490565b60155460ff1681565b600454600160a060020a031681565b601760205281600052604060002081815481101515610c7157fe5b60009182526020909120600790910201805460018201546002830154600384015460048501546005860154600690960154600160a060020a0390951697509295509093909260ff1687565b600060048060185460ff166004811115610cd257fe5b14610cdc57600080fd5b60005460a060020a900460ff1615610cf357600080fd5b600554600160a060020a03331660009081526016602052604090205410610d1957600080fd5b600554600160a060020a0333811660009081526016602052604080822093909355601854610e3893610100909104909216916318160ddd919051602001526040518163ffffffff1660e060020a028152600401602060405180830381600087803b1515610d8557600080fd5b6102c65a03f11515610d9657600080fd5b5050506040518051601854909150610e2c906101009004600160a060020a03166370a082313360006040516020015260405160e060020a63ffffffff8416028152600160a060020a039091166004820152602401602060405180830381600087803b1515610e0357600080fd5b6102c65a03f11515610e1457600080fd5b5050506040518051601254915063ffffffff612a4c16565b9063ffffffff612a7716565b9150600160a060020a03331682156108fc0283604051600060405180830381858888f193505050501515610e6b57600080fd5b600160a060020a0333166000908152601760205260408120610e8c91612cf1565b33600160a060020a03166005547fec530ab710fdaa2b5968fe15f486992441a96f643219cf0150904aa5b9eedf828460405190815260200160405180910390a35050565b60005433600160a060020a03908116911614610eeb57600080fd5b60005460a060020a900460ff161515610f0357600080fd5b600160a060020a0381161515610f1857600080fd5b601954600160a060020a031663f2fde38b8260405160e060020a63ffffffff8416028152600160a060020a039091166004820152602401600060405180830381600087803b1515610f6857600080fd5b6102c65a03f11515610f7957600080fd5b50505050565b600e5481565b60085481565b60095481565b60008060185460ff166004811115610fa557fe5b14610faf57600080fd5b60005460a060020a900460ff1615610fc657600080fd5b60055460011415610fd657600080fd5b601954600754600160a060020a039091169063c000178690339061105b90610e2c856318160ddd6000604051602001526040518163ffffffff1660e060020a028152600401602060405180830381600087803b151561103457600080fd5b6102c65a03f1151561104557600080fd5b505050604051805189915063ffffffff612a4c16565b60006040516020015260405160e060020a63ffffffff8516028152600160a060020a0390921660048301526024820152604401602060405180830381600087803b15156110a757600080fd5b6102c65a03f115156110b857600080fd5b505050604051805150506007546110d5908363ffffffff612a3a16565b600755600160a060020a03331682156108fc0283604051600060405180830381858888f19350505050151561110957600080fd5b33600160a060020a03166005547fb0ecf14e184effded5473bba77dcfab32b094b77ac1fbb36beec2aef55587970844260405191825260208201526040908101905180910390a35050565b60005433600160a060020a0390811691161461116f57600080fd5b601355565b60055481565b600c5481565b60005433600160a060020a0390811691161461119b57600080fd5b60005460a060020a900460ff1615156111b357600080fd5b6000805474ff0000000000000000000000000000000000000000191690557f7805862f689e2f13df9f062ff482ad3ad112aca9e0847911ed832e158c525b3360405160405180910390a1565b60135481565b600b5481565b60005460a060020a900460ff1681565b60005433600160a060020a0390811691161461123657600080fd5b60005460a060020a900460ff16151561124e57600080fd5b6015805460ff1916911515919091179055565b600f5481565b60115481565b60005433600160a060020a0390811691161461128857600080fd5b601054811061129657600080fd5b601055565b60005433600160a060020a039081169116146112b657600080fd5b600f55565b60145481565b60075481565b60048060185460ff1660048111156112db57fe5b146112e557600080fd5b60005460a060020a900460ff16156112fc57600080fd5b601860019054906101000a9004600160a060020a0316600160a060020a03166340c10f193360115460006040516020015260405160e060020a63ffffffff8516028152600160a060020a0390921660048301526024820152604401602060405180830381600087803b151561137057600080fd5b6102c65a03f1151561138157600080fd5b50505060405180515050600d546008546113a09163ffffffff61259f16565b4210156113ac57600080fd5b6018805460ff19169055426008556005546113c890600161259f565b6005556018546101009004600160a060020a0316635c975abb6000604051602001526040518163ffffffff1660e060020a028152600401602060405180830381600087803b151561141857600080fd5b6102c65a03f1151561142957600080fd5b5050506040518051905015611491576018546101009004600160a060020a0316633f4ba83a6040518163ffffffff1660e060020a028152600401600060405180830381600087803b151561147c57600080fd5b6102c65a03f1151561148d57600080fd5b5050505b6005547f62eeb403dc233a7676f50cdb0fd72dae595aeb7c63039adce5caacc33254f9c04260405190815260200160405180910390a250565b60166020526000908152604090205481565b60005433600160a060020a039081169116146114f757600080fd5b60005460a060020a900460ff161561150e57600080fd5b6000805474ff0000000000000000000000000000000000000000191660a060020a1790557f6985a02210a168e66602d3235cb6db0e70f92b3ba4d376a33c0f3d9434bff62560405160405180910390a1565b6000808060038060185460ff16600481111561157857fe5b1461158257600080fd5b60005460a060020a900460ff161561159957600080fd5b600160a060020a03331660009081526017602052604090208054869081106115bd57fe5b90600052602060002090600702019350600084600401541115156115e057600080fd5b6005546001850154146115f257600080fd5b600684015460ff161561160457600080fd5b61160f856000612a8e565b6006808501805460ff1916600117905560135460048601549154600587015461165393611647929091610e2c9163ffffffff612a4c16565b9063ffffffff61259f16565b9250611672600654610e2c858760020154612a4c90919063ffffffff16565b6018549092506101009004600160a060020a03166340c10f19338460006040516020015260405160e060020a63ffffffff8516028152600160a060020a0390921660048301526024820152604401602060405180830381600087803b15156116d957600080fd5b6102c65a03f115156116ea57600080fd5b505050604051805190505033600160a060020a03166005547fc5819bc554302d429c4c637ae5e9ad43c892f07f4261d1b581b52addc3e01d4d878560405191825260208201526040908101905180910390a35050505050565b600054600160a060020a031681565b60018060185460ff16600481111561176657fe5b1461177057600080fd5b60005460a060020a900460ff161561178757600080fd5b601860019054906101000a9004600160a060020a0316600160a060020a03166340c10f193360115460006040516020015260405160e060020a63ffffffff8516028152600160a060020a0390921660048301526024820152604401602060405180830381600087803b15156117fb57600080fd5b6102c65a03f1151561180c57600080fd5b50505060405180515050600a5460085461182b9163ffffffff61259f16565b42101561183757600080fd5b4260088190556018805460ff19166002179055600554907fc26cea5d11470524f2c181454de04fcfb1a0349aba5606ea3eb1a8ec87e1f54e9060405190815260200160405180910390a250565b600354600160a060020a031681565b60065481565b60005433600160a060020a039081169116146118b457600080fd5b600160a060020a03811615156118c957600080fd5b6004805473ffffffffffffffffffffffffffffffffffffffff1916600160a060020a0392909216919091179055565b60005433600160a060020a0390811691161461191357600080fd5b60005460a060020a900460ff16151561192b57600080fd5b600160a060020a03301631600755565b60008060185460ff16600481111561194f57fe5b1461195957600080fd5b60005460a060020a900460ff161561197057600080fd5b601860019054906101000a9004600160a060020a0316600160a060020a03166340c10f193360115460006040516020015260405160e060020a63ffffffff8516028152600160a060020a0390921660048301526024820152604401602060405180830381600087803b15156119e457600080fd5b6102c65a03f115156119f557600080fd5b50505060405180515050600954600854611a149163ffffffff61259f16565b421015611a2057600080fd5b60055460011415611a3c576014546007541015611a3c57600080fd5b4260088190556018805460ff19166001179055600554907f3c3379a2308ae89ee638561d0222706de289bea89968dd555b533795071130fb9060405190815260200160405180910390a250565b60105481565b60125481565b60008060185460ff166004811115611aa957fe5b14611ab357600080fd5b60005460a060020a900460ff1615611aca57600080fd5b60055460011415611b5557601954600160a060020a03166340c10f19333460006040516020015260405160e060020a63ffffffff8516028152600160a060020a0390921660048301526024820152604401602060405180830381600087803b1515611b3457600080fd5b6102c65a03f11515611b4557600080fd5b5050506040518051905050611c42565b601954600754600160a060020a03909116906340c10f19903390611bda90610e2c856318160ddd6000604051602001526040518163ffffffff1660e060020a028152600401602060405180830381600087803b1515611bb357600080fd5b6102c65a03f11515611bc457600080fd5b505050604051805134915063ffffffff612a4c16565b60006040516020015260405160e060020a63ffffffff8516028152600160a060020a0390921660048301526024820152604401602060405180830381600087803b1515611c2657600080fd5b6102c65a03f11515611c3757600080fd5b505050604051805150505b600754611c55903463ffffffff61259f16565b6007556018546101009004600160a060020a03166340c10f19333460006040516020015260405160e060020a63ffffffff8516028152600160a060020a0390921660048301526024820152604401602060405180830381600087803b1515611cbc57600080fd5b6102c65a03f11515611ccd57600080fd5b505050604051805190505033600160a060020a03166005547fd36a2f67d06d285786f61a32b052b9ace6b0b7abef5177b54358abdc83a0b69b344260405191825260208201526040908101905180910390a350565b600254600160a060020a031681565b600a5481565b6000805460a060020a900460ff161515611d5057600080fd5b60155460ff161515611d6157600080fd5b601954611e5090600160a060020a03166318160ddd6000604051602001526040518163ffffffff1660e060020a028152600401602060405180830381600087803b1515611dad57600080fd5b6102c65a03f11515611dbe57600080fd5b5050506040518051600754601954919250610e2c91600160a060020a03166370a082313360006040516020015260405160e060020a63ffffffff8416028152600160a060020a039091166004820152602401602060405180830381600087803b1515611e2957600080fd5b6102c65a03f11515611e3a57600080fd5b505050604051805191905063ffffffff612a4c16565b601954909150600160a060020a031663c000178633826370a082318260006040516020015260405160e060020a63ffffffff8416028152600160a060020a039091166004820152602401602060405180830381600087803b1515611eb357600080fd5b6102c65a03f11515611ec457600080fd5b5050506040518051905060006040516020015260405160e060020a63ffffffff8516028152600160a060020a0390921660048301526024820152604401602060405180830381600087803b1515611f1a57600080fd5b6102c65a03f11515611f2b57600080fd5b50505060405180515050600754611f48908263ffffffff612a3a16565b600755600160a060020a03331681156108fc0282604051600060405180830381858888f193505050501515611f7c57600080fd5b33600160a060020a03166005547fb0ecf14e184effded5473bba77dcfab32b094b77ac1fbb36beec2aef55587970834260405191825260208201526040908101905180910390a350565b600d5481565b600154600160a060020a031681565b60018060185460ff166004811115611fef57fe5b14611ff957600080fd5b60005460a060020a900460ff161561201057600080fd5b600083600160a060020a03166318160ddd6000604051602001526040518163ffffffff1660e060020a028152600401602060405180830381600087803b151561205857600080fd5b6102c65a03f1151561206957600080fd5b5050506040518051905011151561207f57600080fd5b6018546101009004600160a060020a0316632bee7bde338460006040516020015260405160e060020a63ffffffff8516028152600160a060020a0390921660048301526024820152604401602060405180830381600087803b15156120e357600080fd5b6102c65a03f115156120f457600080fd5b50505060405180515050600160a060020a03331660009081526017602052604090208054600181016121268382612d15565b9160005260206000209060070201600060e06040519081016040908152600160a060020a0388168252600554602083015281018690526000606082018190526080820181905260a0820181905260c08201529190508151815473ffffffffffffffffffffffffffffffffffffffff1916600160a060020a03919091161781556020820151816001015560408201518160020155606082015181600301556080820151816004015560a0820151816005015560c0820151600691909101805460ff19169115159190911790555061220a9050600161220233610c23565b036001612a8e565b33600160a060020a03166005547fa3b6749fa188c23c831e823167e3c22da77d0d6e2ba5adee953c0b14003ef49b600161224333610c23565b038686604051928352600160a060020a0390911660208301526040808301919091526060909101905180910390a3505050565b60005433600160a060020a0390811691161461229157600080fd5b60005460a060020a900460ff1615156122a957600080fd5b600160a060020a03811615156122be57600080fd5b6018546101009004600160a060020a031663f2fde38b8260405160e060020a63ffffffff8416028152600160a060020a039091166004820152602401600060405180830381600087803b1515610f6857600080fd5b60038060185460ff16600481111561232757fe5b1461233157600080fd5b60005460a060020a900460ff161561234857600080fd5b601860019054906101000a9004600160a060020a0316600160a060020a03166340c10f193360115460006040516020015260405160e060020a63ffffffff8516028152600160a060020a0390921660048301526024820152604401602060405180830381600087803b15156123bc57600080fd5b6102c65a03f115156123cd57600080fd5b50505060405180515050600c546008546123ec9163ffffffff61259f16565b4210156123f857600080fd5b426008556018805460ff191660041790819055600160a060020a036101009091041663f3123a3a6040518163ffffffff1660e060020a028152600401600060405180830381600087803b151561244d57600080fd5b6102c65a03f1151561245e57600080fd5b50506018546101009004600160a060020a03169050638456cb596040518163ffffffff1660e060020a028152600401600060405180830381600087803b15156124a657600080fd5b6102c65a03f115156124b757600080fd5b5050506124c2612b99565b6005547ff4b862466a7ed84695726312fc00377bee25443b7890d8b8985f94eef497d6ff4260405190815260200160405180910390a250565b60005433600160a060020a0390811691161461251657600080fd5b600160a060020a038116151561252b57600080fd5b600054600160a060020a0380831691167f8be0079c531659141344cd1fd0a4f28419497f9722a3daafe3b4186f6b6457e060405160405180910390a36000805473ffffffffffffffffffffffffffffffffffffffff1916600160a060020a0392909216919091179055565b60185460ff1681565b6000828201838110156125ae57fe5b8091505b5092915050565b60008080858085156126e057601a54600160a060020a033081811631955091169063cb3c28c790899073eeeeeeeeeeeeeeeeeeeeeeeeeeeeeeeeeeeeeeee90829086906b204fce5e3e2502611000000060018260006040516020015260405160e060020a63ffffffff8b16028152600160a060020a039788166004820152602481019690965293861660448601529185166064850152608484015260a483015290911660c482015260e4016020604051808303818588803b151561267c57600080fd5b6125ee5a03f1151561268d57600080fd5b505050506040518051945050600084116126a657600080fd5b6126d984610e2c6006546126cd30600160a060020a03163188612a3a90919063ffffffff16565b9063ffffffff612a4c16565b9450612a2f565b80600160a060020a03166370a082313060006040516020015260405160e060020a63ffffffff8416028152600160a060020a039091166004820152602401602060405180830381600087803b151561273757600080fd5b6102c65a03f1151561274857600080fd5b5050506040518051600354909450600160a060020a03808416925063095ea7b391168960006040516020015260405160e060020a63ffffffff8516028152600160a060020a0390921660048301526024820152604401602060405180830381600087803b15156127b757600080fd5b6102c65a03f115156127c857600080fd5b50505060405180515050601a54600160a060020a031663cb3c28c7828973eeeeeeeeeeeeeeeeeeeeeeeeeeeeeeeeeeeeeeee306b204fce5e3e2502611000000060018260006040516020015260405160e060020a63ffffffff8a16028152600160a060020a039788166004820152602481019690965293861660448601529185166064850152608484015260a483015290911660c482015260e401602060405180830381600087803b151561287c57600080fd5b6102c65a03f1151561288d57600080fd5b5050506040518051600354909550600160a060020a03808416925063095ea7b391166000806040516020015260405160e060020a63ffffffff8516028152600160a060020a0390921660048301526024820152604401602060405180830381600087803b15156128fc57600080fd5b6102c65a03f1151561290d57600080fd5b50505060405180515050600160a060020a0381166370a082313060006040516020015260405160e060020a63ffffffff8416028152600160a060020a039091166004820152602401602060405180830381600087803b151561296e57600080fd5b6102c65a03f1151561297f57600080fd5b50505060405180518411905061299457600080fd5b612a2c612a1882600160a060020a03166370a082313060006040516020015260405160e060020a63ffffffff8416028152600160a060020a039091166004820152602401602060405180830381600087803b15156129f157600080fd5b6102c65a03f11515612a0257600080fd5b505050604051805186915063ffffffff612a3a16565b600654610e2c90879063ffffffff612a4c16565b94505b505050509392505050565b600082821115612a4657fe5b50900390565b600080831515612a5f57600091506125b2565b50828202828482811515612a6f57fe5b04146125ae57fe5b6000808284811515612a8557fe5b04949350505050565b600160a060020a033316600090815260176020526040812080548291829186908110612ab657fe5b906000526020600020906007020192508315612b5857601854612b51906101009004600160a060020a03166318160ddd6000604051602001526040518163ffffffff1660e060020a028152600401602060405180830381600087803b1515612b1d57600080fd5b6102c65a03f11515612b2e57600080fd5b50505060405180519050610e2c8560020154600754612a4c90919063ffffffff16565b9150612b60565b826003015491505b8254612b7690600160a060020a031683866125b9565b90508315612b8a5760048301819055612b92565b600583018190555b5050505050565b600080600080925060075430600160a060020a0316311115612bc75760075430600160a060020a0316310392505b612be2600654610e2c85600f54612a4c90919063ffffffff16565b601255600654601054612c0a9190610e2c90600160a060020a0330163163ffffffff612a4c16565b9150612c3b82612c2f60125430600160a060020a031631612a3a90919063ffffffff16565b9063ffffffff612a3a16565b90506005547f13a18edb371d0a74be72de10b678893b96bc8a47e776bb122c59e21d53956fbd6007548360405191825260208201526040908101905180910390a26007819055600454600160a060020a031682156108fc0283604051600060405180830381858888f193505050501515612cb457600080fd5b6005547f2f7da09d276ad6237b75476b806f4d8388b9228bd6fa45a7ca214fac5abdf7a360125460405190815260200160405180910390a2505050565b5080546000825560070290600052602060002090810190612d129190612d3d565b50565b815481835581811511610b4a57600702816007028360005260206000209182019101610b4a91905b612da191905b80821115612d9d57805473ffffffffffffffffffffffffffffffffffffffff19168155600060018201819055600282018190556003820181905560048201819055600582015560068101805460ff19169055600701612d43565b5090565b905600a165627a7a723058202781dcb716dca76582e44a7ed9bdd2ac6262e9e01df6c34192d2f3389577282a0029",
  "source": "pragma solidity ^0.4.18;\r\n\r\nimport 'zeppelin-solidity/contracts/math/SafeMath.sol';\r\nimport 'zeppelin-solidity/contracts/math/Math.sol';\r\nimport 'zeppelin-solidity/contracts/lifecycle/Pausable.sol';\r\nimport './ControlToken.sol';\r\nimport './ShareToken.sol';\r\nimport './KyberNetwork.sol';\r\nimport './Utils.sol';\r\n\r\n/**\r\n * The main contract of the Betoken hedge fund\r\n */\r\ncontract BetokenFund is Pausable, Utils {\r\n  using SafeMath for uint256;\r\n\r\n  enum CyclePhase { ChangeMaking, ProposalMaking, Waiting, Finalizing, Finalized }\r\n\r\n  struct Proposal {\r\n    address tokenAddress;\r\n    uint256 cycleNumber;\r\n    uint256 stake;\r\n    uint256 tokenAmount;\r\n    uint256 buyPriceInWeis;\r\n    uint256 sellPriceInWeis;\r\n    bool isSold;\r\n  }\r\n\r\n  /**\r\n   * @dev Executes function only during the given cycle phase.\r\n   * @param phase the cycle phase during which the function may be called\r\n   */\r\n  modifier during(CyclePhase phase) {\r\n    require(cyclePhase == phase);\r\n    _;\r\n  }\r\n\r\n  modifier rewardCaller {\r\n    cToken.mint(msg.sender, functionCallReward);\r\n    _;\r\n  }\r\n\r\n  // Address of the control token contract.\r\n  address public controlTokenAddr;\r\n\r\n  // Address of the share token contract.\r\n  address public shareTokenAddr;\r\n\r\n  // Address of the KyberNetwork contract\r\n  address public kyberAddr;\r\n\r\n  // Address to which the developer fees will be paid.\r\n  address public developerFeeAccount;\r\n\r\n  // The number of the current investment cycle.\r\n  uint256 public cycleNumber;\r\n\r\n  // 10^{decimals} used for representing fixed point numbers with {decimals} decimals.\r\n  uint256 public PRECISION;\r\n\r\n  // The amount of funds held by the fund.\r\n  uint256 public totalFundsInWeis;\r\n\r\n  // The start time for the current investment cycle phase, in seconds since Unix epoch.\r\n  uint256 public startTimeOfCyclePhase;\r\n\r\n  // Temporal length of change making period at start of each cycle, in seconds.\r\n  uint256 public timeOfChangeMaking;\r\n\r\n  uint256 public timeOfProposalMaking;\r\n\r\n  // Temporal length of waiting period, in seconds.\r\n  uint256 public timeOfWaiting;\r\n\r\n  uint256 public timeOfFinalizing;\r\n\r\n  uint256 public timeBetweenCycles;\r\n\r\n  // Minimum proportion of Kairo balance people have to stake in support of a proposal. Fixed point decimal.\r\n  uint256 public minStakeProportion;\r\n\r\n  // The proportion of the fund that gets distributed to Kairo holders every cycle. Fixed point decimal.\r\n  uint256 public commissionRate;\r\n\r\n  // The proportion of contract balance that goes the the devs every cycle. Fixed point decimal.\r\n  uint256 public developerFeeProportion;\r\n\r\n  // Amount of Kairo rewarded to the user who calls a phase transition/proposal handling function\r\n  uint256 public functionCallReward;\r\n\r\n  // Amount of commission to be paid out this cycle\r\n  uint256 public totalCommission;\r\n\r\n  // Inflation rate of control token (KRO). Fixed point decimal.\r\n  uint256 public controlTokenInflation;\r\n\r\n  // The AUM (Asset Under Management) threshold for progressing to ProposalMakingTime in the first cycle.\r\n  uint256 public aumThresholdInWeis;\r\n\r\n  // Flag for whether emergency withdrawing is allowed.\r\n  bool public allowEmergencyWithdraw;\r\n\r\n  // The last cycle where a user redeemed commission.\r\n  mapping(address => uint256) public lastCommissionRedemption;\r\n\r\n  // List of proposals in the current cycle.\r\n  mapping(address => Proposal[]) public userProposals;\r\n\r\n  // The current cycle phase.\r\n  CyclePhase public cyclePhase;\r\n\r\n  // Contract instances\r\n  ControlToken internal cToken;\r\n  ShareToken internal sToken;\r\n  KyberNetwork internal kyber;\r\n\r\n  event CycleStarted(uint256 indexed _cycleNumber, uint256 _timestamp);\r\n  event Deposit(uint256 indexed _cycleNumber, address indexed _sender, uint256 _amountInWeis, uint256 _timestamp);\r\n  event Withdraw(uint256 indexed _cycleNumber, address indexed _sender, uint256 _amountInWeis, uint256 _timestamp);\r\n  event ChangeMakingTimeEnded(uint256 indexed _cycleNumber, uint256 _timestamp);\r\n\r\n  event NewProposal(uint256 indexed _cycleNumber, address indexed _sender, uint256 _id, address _tokenAddress, uint256 _stakeInWeis);\r\n  event ProposalMakingTimeEnded(uint256 indexed _cycleNumber, uint256 _timestamp);\r\n\r\n  event WaitingPhaseEnded(uint256 indexed _cycleNumber, uint256 _timestamp);\r\n\r\n  event ProposalSold(uint256 indexed _cycleNumber, address indexed _sender, uint256 _proposalId, uint256 _receivedKairos);\r\n  event SellingPhaseEnded(uint256 indexed _cycleNumber, uint256 _timestamp);\r\n\r\n  event ROI(uint256 indexed _cycleNumber, uint256 _beforeTotalFunds, uint256 _afterTotalFunds);\r\n  event CommissionPaid(uint256 indexed _cycleNumber, address indexed _sender, uint256 _commission);\r\n  event TotalCommissionPaid(uint256 indexed _cycleNumber, uint256 _totalCommissionInWeis);\r\n  event CycleFinalized(uint256 indexed _cycleNumber, uint256 _timestamp);\r\n\r\n  /**\r\n   * Contract initialization functions\r\n   */\r\n\r\n  // Constructor\r\n  function BetokenFund(\r\n    address _cTokenAddr,\r\n    address _sTokenAddr,\r\n    address _kyberAddr,\r\n    address _developerFeeAccount,\r\n    uint256 _timeOfChangeMaking,\r\n    uint256 _timeOfProposalMaking,\r\n    uint256 _timeOfWaiting,\r\n    uint256 _timeOfFinalizing,\r\n    uint256 _timeBetweenCycles,\r\n    uint256 _minStakeProportion,\r\n    uint256 _commissionRate,\r\n    uint256 _developerFeeProportion,\r\n    uint256 _cycleNumber,\r\n    uint256 _functionCallReward,\r\n    uint256 _controlTokenInflation,\r\n    uint256 _aumThresholdInWeis\r\n  )\r\n    public\r\n  {\r\n    require(_minStakeProportion < 10**18);\r\n    require(_commissionRate.add(_developerFeeProportion) < 10**18);\r\n\r\n    controlTokenAddr = _cTokenAddr;\r\n    shareTokenAddr = _sTokenAddr;\r\n    kyberAddr = _kyberAddr;\r\n    cToken = ControlToken(_cTokenAddr);\r\n    sToken = ShareToken(_sTokenAddr);\r\n    kyber = KyberNetwork(_kyberAddr);\r\n\r\n    developerFeeAccount = _developerFeeAccount;\r\n    timeOfChangeMaking = _timeOfChangeMaking;\r\n    timeOfProposalMaking = _timeOfProposalMaking;\r\n    timeOfWaiting = _timeOfWaiting;\r\n    timeOfFinalizing = _timeOfFinalizing;\r\n    timeBetweenCycles = _timeBetweenCycles;\r\n    minStakeProportion = _minStakeProportion;\r\n    commissionRate = _commissionRate;\r\n    developerFeeProportion = _developerFeeProportion;\r\n    startTimeOfCyclePhase = 0;\r\n    cyclePhase = CyclePhase.Finalized;\r\n    cycleNumber = _cycleNumber;\r\n    functionCallReward = _functionCallReward;\r\n    controlTokenInflation = _controlTokenInflation;\r\n    aumThresholdInWeis = _aumThresholdInWeis;\r\n    allowEmergencyWithdraw = false;\r\n  }\r\n\r\n  /**\r\n   * Getters\r\n   */\r\n\r\n  /**\r\n   * Returns the length of the proposals array.\r\n   * @return length of proposals array\r\n   */\r\n  function proposalsCount(address _userAddr) public view returns(uint256 _count) {\r\n    return userProposals[_userAddr].length;\r\n  }\r\n\r\n  /**\r\n   * Meta functions\r\n   */\r\n\r\n  /**\r\n   * Emergency functions\r\n   */\r\n\r\n  /**\r\n   * @dev In case the fund is invested in tokens, sell all tokens.\r\n   */\r\n  function emergencyDumpToken(address _tokenAddr)\r\n    public\r\n    onlyOwner\r\n    during(CyclePhase.Finalized)\r\n    whenPaused\r\n  {\r\n    __transactToken(_tokenAddr, ERC20(_tokenAddr).balanceOf(address(this)), false);\r\n  }\r\n\r\n  /**\r\n   * @dev Return staked Kairos for a proposal under emergency situations.\r\n   */\r\n  function emergencyRedeemStake(uint256 _proposalId) whenPaused public {\r\n    require(allowEmergencyWithdraw);\r\n    Proposal storage prop = userProposals[msg.sender][_proposalId];\r\n    require(prop.cycleNumber == cycleNumber);\r\n    uint256 stake = prop.stake;\r\n    require(stake > 0);\r\n    delete prop.stake;\r\n    cToken.transfer(msg.sender, stake);\r\n  }\r\n\r\n  /**\r\n   * @dev Update current fund balance\r\n   */\r\n  function emergencyUpdateBalance() onlyOwner whenPaused public {\r\n    totalFundsInWeis = this.balance;\r\n  }\r\n\r\n  function setAllowEmergencyWithdraw(bool _val) onlyOwner whenPaused public {\r\n    allowEmergencyWithdraw = _val;\r\n  }\r\n\r\n  /**\r\n   * @dev Function for withdrawing all funds in times of emergency. Only callable when fund is paused.\r\n   */\r\n  function emergencyWithdraw()\r\n    public\r\n    whenPaused\r\n  {\r\n    require(allowEmergencyWithdraw);\r\n\r\n    uint256 amountInWeis = sToken.balanceOf(msg.sender).mul(totalFundsInWeis).div(sToken.totalSupply());\r\n    sToken.ownerBurn(msg.sender, sToken.balanceOf(msg.sender));\r\n    totalFundsInWeis = totalFundsInWeis.sub(amountInWeis);\r\n\r\n    // Transfer\r\n    msg.sender.transfer(amountInWeis);\r\n\r\n    // Emit event\r\n    Withdraw(cycleNumber, msg.sender, amountInWeis, now);\r\n  }\r\n\r\n  /**\r\n   * Parameter setters\r\n   */\r\n\r\n  /**\r\n   * @dev Changes the address of the KyberNetwork contract used in the contract. Only callable by owner.\r\n   * @param _newAddr new address of KyberNetwork contract\r\n   */\r\n  function changeKyberNetworkAddress(address _newAddr) public onlyOwner whenPaused {\r\n    require(_newAddr != address(0));\r\n    kyberAddr = _newAddr;\r\n    kyber = KyberNetwork(_newAddr);\r\n  }\r\n\r\n  /**\r\n   * @dev Changes the address to which the developer fees will be sent. Only callable by owner.\r\n   * @param _newAddr new developer fee address\r\n   */\r\n  function changeDeveloperFeeAccount(address _newAddr) public onlyOwner {\r\n    require(_newAddr != address(0));\r\n    developerFeeAccount = _newAddr;\r\n  }\r\n\r\n  /**\r\n   * @dev Changes the proportion of fund balance sent to the developers each cycle. May only decrease. Only callable by owner.\r\n   * @param _newProp the new proportion, fixed point decimal\r\n   */\r\n  function changeDeveloperFeeProportion(uint256 _newProp) public onlyOwner {\r\n    require(_newProp < developerFeeProportion);\r\n    developerFeeProportion = _newProp;\r\n  }\r\n\r\n  /**\r\n   * @dev Changes the proportion of fund balance given to Kairo holders each cycle. Only callable by owner.\r\n   * @param _newProp the new proportion, fixed point decimal\r\n   */\r\n  function changeCommissionRate(uint256 _newProp) public onlyOwner {\r\n    commissionRate = _newProp;\r\n  }\r\n\r\n  /**\r\n   * @dev Changes the inflation rate of control tokens. Only callable by owner.\r\n   * @param _newVal the new inflation value, fixed point decimal\r\n   */\r\n  function changeControlTokenInflation(uint256 _newVal) public onlyOwner {\r\n    controlTokenInflation = _newVal;\r\n  }\r\n\r\n  /**\r\n   * @dev Changes the owner of the ControlToken contract.\r\n   * @param  _newOwner the new owner address\r\n   */\r\n  function changeControlTokenOwner(address _newOwner) public onlyOwner whenPaused {\r\n    require(_newOwner != address(0));\r\n    cToken.transferOwnership(_newOwner);\r\n  }\r\n\r\n  /**\r\n   * @dev Changes the owner of the ShareToken contract.\r\n   * @param  _newOwner the new owner address\r\n   */\r\n  function changeShareTokenOwner(address _newOwner) public onlyOwner whenPaused {\r\n    require(_newOwner != address(0));\r\n    sToken.transferOwnership(_newOwner);\r\n  }\r\n\r\n  /**\r\n   * Start cycle functions\r\n   */\r\n\r\n  /**\r\n   * @dev Starts a new investment cycle.\r\n   */\r\n  function startNewCycle() public during(CyclePhase.Finalized) whenNotPaused rewardCaller {\r\n    require(now >= startTimeOfCyclePhase.add(timeBetweenCycles));\r\n\r\n    // Update values\r\n    cyclePhase = CyclePhase.ChangeMaking;\r\n    startTimeOfCyclePhase = now;\r\n    cycleNumber = cycleNumber.add(1);\r\n\r\n    if (cToken.paused()) {\r\n      cToken.unpause();\r\n    }\r\n\r\n    // Emit event\r\n    CycleStarted(cycleNumber, now);\r\n  }\r\n\r\n  /**\r\n   * ChangeMakingTime functions\r\n   */\r\n\r\n  /**\r\n   * @dev Deposit Ether into the fund.\r\n   */\r\n  function deposit()\r\n    public\r\n    payable\r\n    during(CyclePhase.ChangeMaking)\r\n    whenNotPaused\r\n  {\r\n    // Register investment\r\n    if (cycleNumber == 1) {\r\n      sToken.mint(msg.sender, msg.value);\r\n    } else {\r\n      sToken.mint(msg.sender, msg.value.mul(sToken.totalSupply()).div(totalFundsInWeis));\r\n    }\r\n    totalFundsInWeis = totalFundsInWeis.add(msg.value);\r\n\r\n    // Give control tokens proportional to investment\r\n    // Uncomment if statement if not test version\r\n    // if (cycleNumber == 1) {\r\n      cToken.mint(msg.sender, msg.value);\r\n    // }\r\n\r\n    // Emit event\r\n    Deposit(cycleNumber, msg.sender, msg.value, now);\r\n  }\r\n\r\n  /**\r\n   * @dev Withdraws a certain amount of Ether from the user's account. Cannot be called during the first cycle.\r\n   * @param _amountInWeis amount of Ether to be withdrawn\r\n   */\r\n  function withdraw(uint256 _amountInWeis)\r\n    public\r\n    during(CyclePhase.ChangeMaking)\r\n    whenNotPaused\r\n  {\r\n    require(cycleNumber != 1);\r\n\r\n    // Subtract from account\r\n    sToken.ownerBurn(msg.sender, _amountInWeis.mul(sToken.totalSupply()).div(totalFundsInWeis));\r\n    totalFundsInWeis = totalFundsInWeis.sub(_amountInWeis);\r\n\r\n    // Transfer Ether to user\r\n    msg.sender.transfer(_amountInWeis);\r\n\r\n    // Emit event\r\n    Withdraw(cycleNumber, msg.sender, _amountInWeis, now);\r\n  }\r\n\r\n  /**\r\n   * @dev Ends the ChangeMaking phase.\r\n   */\r\n  function endChangeMakingTime() public during(CyclePhase.ChangeMaking) whenNotPaused rewardCaller {\r\n    require(now >= startTimeOfCyclePhase.add(timeOfChangeMaking));\r\n\r\n    if (cycleNumber == 1) {\r\n      require(totalFundsInWeis >= aumThresholdInWeis);\r\n    }\r\n\r\n    startTimeOfCyclePhase = now;\r\n    cyclePhase = CyclePhase.ProposalMaking;\r\n\r\n    ChangeMakingTimeEnded(cycleNumber, now);\r\n  }\r\n\r\n  /**\r\n   * Proposal Making time functions\r\n   */\r\n\r\n  /**\r\n   * @dev Creates a new investment proposal for an ERC20 token.\r\n   * @param _tokenAddress address of the ERC20 token contract\r\n   * @param _stakeInWeis amount of Kairos to be staked in support of the proposal\r\n   */\r\n  function createProposal(\r\n    address _tokenAddress,\r\n    uint256 _stakeInWeis\r\n  )\r\n    public\r\n    during(CyclePhase.ProposalMaking)\r\n    whenNotPaused\r\n  {\r\n    // Check if token is valid\r\n    require(ERC20(_tokenAddress).totalSupply() > 0);\r\n\r\n    // Collect stake\r\n    cToken.ownerCollectFrom(msg.sender, _stakeInWeis);\r\n\r\n    // Add proposal to list\r\n    userProposals[msg.sender].push(Proposal({\r\n      tokenAddress: _tokenAddress,\r\n      cycleNumber: cycleNumber,\r\n      stake: _stakeInWeis,\r\n      tokenAmount: 0,\r\n      buyPriceInWeis: 0,\r\n      sellPriceInWeis: 0,\r\n      isSold: false\r\n    }));\r\n\r\n    // Invest\r\n    __handleInvestment(proposalsCount(msg.sender) - 1, true);\r\n\r\n    // Emit event\r\n    NewProposal(cycleNumber, msg.sender, proposalsCount(msg.sender) - 1, _tokenAddress, _stakeInWeis);\r\n  }\r\n\r\n  function endProposalMakingTime()\r\n    public\r\n    during(CyclePhase.ProposalMaking)\r\n    whenNotPaused\r\n    rewardCaller\r\n  {\r\n    require(now >= startTimeOfCyclePhase.add(timeOfProposalMaking));\r\n\r\n    startTimeOfCyclePhase = now;\r\n    cyclePhase = CyclePhase.Waiting;\r\n\r\n    ProposalMakingTimeEnded(cycleNumber, now);\r\n  }\r\n\r\n  /**\r\n   * Waiting phase functions\r\n   */\r\n\r\n  function endWaitingPhase()\r\n    public\r\n    during(CyclePhase.Waiting)\r\n    whenNotPaused\r\n    rewardCaller\r\n  {\r\n    require(now >= startTimeOfCyclePhase.add(timeOfWaiting));\r\n\r\n    startTimeOfCyclePhase = now;\r\n    cyclePhase = CyclePhase.Finalizing;\r\n\r\n    WaitingPhaseEnded(cycleNumber, now);\r\n  }\r\n\r\n  /**\r\n   * Finalizing phase functions\r\n   */\r\n\r\n  /**\r\n   * @dev Called by user to sell the assets a proposal invested in\r\n   * @param _proposalId the ID of the proposal\r\n   */\r\n  function sellProposalAsset(uint256 _proposalId)\r\n    public\r\n    during(CyclePhase.Finalizing)\r\n    whenNotPaused\r\n  {\r\n    Proposal storage prop = userProposals[msg.sender][_proposalId];\r\n    require(prop.buyPriceInWeis > 0);\r\n    require(prop.cycleNumber == cycleNumber);\r\n    require(!prop.isSold);\r\n\r\n    __handleInvestment(_proposalId, false);\r\n    prop.isSold = true;\r\n\r\n    uint256 multiplier = prop.sellPriceInWeis.mul(PRECISION).div(prop.buyPriceInWeis).add(controlTokenInflation);\r\n    uint256 receiveKairoAmount = prop.stake.mul(multiplier).div(PRECISION);\r\n    cToken.mint(msg.sender, receiveKairoAmount);\r\n\r\n    ProposalSold(cycleNumber, msg.sender, _proposalId, receiveKairoAmount);\r\n  }\r\n\r\n  /**\r\n   * @dev Finalize the cycle by redistributing user balances and settling investment proposals.\r\n   */\r\n  function finalizeCycle() public during(CyclePhase.Finalizing) whenNotPaused rewardCaller {\r\n    require(now >= startTimeOfCyclePhase.add(timeOfFinalizing));\r\n\r\n    // Update cycle values\r\n    startTimeOfCyclePhase = now;\r\n    cyclePhase = CyclePhase.Finalized;\r\n\r\n    // Burn any Kairo left in BetokenFund's account\r\n    cToken.burnOwnerBalance();\r\n\r\n    cToken.pause();\r\n\r\n    // Distribute funds\r\n    __distributeFundsAfterCycleEnd();\r\n\r\n    // Emit event\r\n    CycleFinalized(cycleNumber, now);\r\n  }\r\n\r\n  /**\r\n   * Finalized phase functions\r\n   */\r\n\r\n  /**\r\n   * @dev Redeems commission.\r\n   */\r\n  function redeemCommission()\r\n    public\r\n    during(CyclePhase.Finalized)\r\n    whenNotPaused\r\n  {\r\n    require(lastCommissionRedemption[msg.sender] < cycleNumber);\r\n    lastCommissionRedemption[msg.sender] = cycleNumber;\r\n    uint256 commission = totalCommission.mul(cToken.balanceOf(msg.sender)).div(cToken.totalSupply());\r\n    msg.sender.transfer(commission);\r\n\r\n    // Reset data\r\n    delete userProposals[msg.sender];\r\n\r\n    CommissionPaid(cycleNumber, msg.sender, commission);\r\n  }\r\n\r\n  /**\r\n   * @dev Sells tokens left over due to manager not selling or KyberNetwork not having enough demand.\r\n   * @param _tokenAddr address of the token to be sold\r\n   */\r\n  function sellLeftoverToken(address _tokenAddr)\r\n    public\r\n    during(CyclePhase.Finalized)\r\n    whenNotPaused\r\n  {\r\n    uint256 beforeBalance = this.balance;\r\n    __transactToken(_tokenAddr, ERC20(_tokenAddr).balanceOf(address(this)), false);\r\n    totalFundsInWeis = totalFundsInWeis.add(this.balance.sub(beforeBalance));\r\n  }\r\n\r\n  /**\r\n   * Internal use functions\r\n   */\r\n\r\n  /**\r\n   * @dev Distributes the funds accourding to previously held proportions. Pays commission to Kairo holders,\r\n   * and developer fees to developers.\r\n   */\r\n  function __distributeFundsAfterCycleEnd() internal {\r\n    uint256 profit = 0;\r\n    if (this.balance > totalFundsInWeis) {\r\n      profit = this.balance - totalFundsInWeis;\r\n    }\r\n    totalCommission = commissionRate.mul(profit).div(PRECISION);\r\n    uint256 devFee = developerFeeProportion.mul(this.balance).div(PRECISION);\r\n    uint256 newTotalFunds = this.balance.sub(totalCommission).sub(devFee);\r\n\r\n    // Update values\r\n    ROI(cycleNumber, totalFundsInWeis, newTotalFunds);\r\n    totalFundsInWeis = newTotalFunds;\r\n\r\n    // Transfer fees\r\n    developerFeeAccount.transfer(devFee);\r\n\r\n    // Emit event\r\n    TotalCommissionPaid(cycleNumber, totalCommission);\r\n  }\r\n\r\n  function __handleInvestment(uint256 _proposalId, bool _buy) internal {\r\n    Proposal storage prop = userProposals[msg.sender][_proposalId];\r\n    uint256 srcAmount;\r\n    if (_buy) {\r\n      srcAmount = totalFundsInWeis.mul(prop.stake).div(cToken.totalSupply());\r\n    } else {\r\n      srcAmount = prop.tokenAmount;\r\n    }\r\n    uint256 actualRate = __transactToken(prop.tokenAddress, srcAmount, _buy);\r\n    if (_buy) {\r\n      prop.buyPriceInWeis = actualRate;\r\n    } else {\r\n      prop.sellPriceInWeis = actualRate;\r\n    }\r\n  }\r\n\r\n  function __transactToken(address _tokenAddr, uint256 _srcAmount, bool _buy) internal returns(uint256 _actualRate) {\r\n    uint256 actualDestAmount;\r\n    uint256 beforeBalance;\r\n    address destAddr = _tokenAddr;\r\n    DetailedERC20 destToken = DetailedERC20(destAddr);\r\n\r\n    if (_buy) {\r\n      // Make buy orders\r\n\r\n      beforeBalance = this.balance;\r\n\r\n      // Do trade\r\n      actualDestAmount = kyber.trade.value(_srcAmount)(\r\n        ETH_TOKEN_ADDRESS,\r\n        _srcAmount,\r\n        destToken,\r\n        address(this),\r\n        MAX_QTY,\r\n        1,\r\n        address(this)\r\n      );\r\n\r\n      // Record buy price\r\n      require(actualDestAmount > 0);\r\n      _actualRate = beforeBalance.sub(this.balance).mul(PRECISION).div(actualDestAmount);\r\n    } else {\r\n      // Make sell orders\r\n\r\n      beforeBalance = destToken.balanceOf(address(this));\r\n\r\n      // Do trade\r\n      destToken.approve(kyberAddr, _srcAmount);\r\n      actualDestAmount = kyber.trade(\r\n        destToken,\r\n        _srcAmount,\r\n        ETH_TOKEN_ADDRESS,\r\n        address(this),\r\n        MAX_QTY,\r\n        1,\r\n        address(this)\r\n      );\r\n      destToken.approve(kyberAddr, 0);\r\n\r\n      // Record sell price\r\n      require(beforeBalance > destToken.balanceOf(address(this)));\r\n      _actualRate = actualDestAmount.mul(PRECISION).div(beforeBalance.sub(destToken.balanceOf(address(this))));\r\n    }\r\n  }\r\n\r\n  function() public payable {\r\n    if (msg.sender != kyberAddr) {\r\n      revert();\r\n    }\r\n  }\r\n}",
  "sourcePath": "D:\\msi-cn\\Documents\\GitHub\\betoken\\eth\\contracts\\BetokenFund.sol",
  "compiler": {
    "name": "solc",
    "version": "0.4.19+commit.c4cbbb05.Emscripten.clang"
  },
  "schemaVersion": "2.0.0",
  "updatedAt": "2018-03-23T17:35:23.323Z"
}