{
  "contractName": "BetokenFund",
  "abi": [
    {
      "constant": true,
      "inputs": [
        {
          "name": "",
          "type": "address"
        }
      ],
      "name": "isMaliciousCoin",
      "outputs": [
        {
          "name": "",
          "type": "bool"
        }
      ],
      "payable": false,
      "stateMutability": "view",
      "type": "function"
    },
    {
      "constant": true,
      "inputs": [],
      "name": "allowEmergencyWithdraw",
      "outputs": [
        {
          "name": "",
          "type": "bool"
        }
      ],
      "payable": false,
      "stateMutability": "view",
      "type": "function"
    },
    {
      "constant": true,
      "inputs": [],
      "name": "developerFeeAccount",
      "outputs": [
        {
          "name": "",
          "type": "address"
        }
      ],
      "payable": false,
      "stateMutability": "view",
      "type": "function"
    },
    {
      "constant": true,
      "inputs": [],
      "name": "startTimeOfCyclePhase",
      "outputs": [
        {
          "name": "",
          "type": "uint256"
        }
      ],
      "payable": false,
      "stateMutability": "view",
      "type": "function"
    },
    {
      "constant": true,
      "inputs": [],
      "name": "cycleNumber",
      "outputs": [
        {
          "name": "",
          "type": "uint256"
        }
      ],
      "payable": false,
      "stateMutability": "view",
      "type": "function"
    },
    {
      "constant": false,
      "inputs": [],
      "name": "unpause",
      "outputs": [],
      "payable": false,
      "stateMutability": "nonpayable",
      "type": "function"
    },
    {
      "constant": true,
      "inputs": [
        {
          "name": "",
          "type": "address"
        }
      ],
      "name": "isStableCoin",
      "outputs": [
        {
          "name": "",
          "type": "bool"
        }
      ],
      "payable": false,
      "stateMutability": "view",
      "type": "function"
    },
    {
      "constant": true,
      "inputs": [],
      "name": "paused",
      "outputs": [
        {
          "name": "",
          "type": "bool"
        }
      ],
      "payable": false,
      "stateMutability": "view",
      "type": "function"
    },
    {
      "constant": true,
      "inputs": [],
      "name": "commissionRate",
      "outputs": [
        {
          "name": "",
          "type": "uint256"
        }
      ],
      "payable": false,
      "stateMutability": "view",
      "type": "function"
    },
    {
      "constant": true,
      "inputs": [],
      "name": "functionCallReward",
      "outputs": [
        {
          "name": "",
          "type": "uint256"
        }
      ],
      "payable": false,
      "stateMutability": "view",
      "type": "function"
    },
    {
      "constant": true,
      "inputs": [],
      "name": "aumThresholdInWeis",
      "outputs": [
        {
          "name": "",
          "type": "uint256"
        }
      ],
      "payable": false,
      "stateMutability": "view",
      "type": "function"
    },
    {
      "constant": true,
      "inputs": [],
      "name": "daiAddr",
      "outputs": [
        {
          "name": "",
          "type": "address"
        }
      ],
      "payable": false,
      "stateMutability": "view",
      "type": "function"
    },
    {
      "constant": true,
      "inputs": [],
      "name": "totalFundsInWeis",
      "outputs": [
        {
          "name": "",
          "type": "uint256"
        }
      ],
      "payable": false,
      "stateMutability": "view",
      "type": "function"
    },
    {
      "constant": true,
      "inputs": [
        {
          "name": "",
          "type": "address"
        }
      ],
      "name": "lastCommissionRedemption",
      "outputs": [
        {
          "name": "",
          "type": "uint256"
        }
      ],
      "payable": false,
      "stateMutability": "view",
      "type": "function"
    },
    {
      "constant": false,
      "inputs": [],
      "name": "pause",
      "outputs": [],
      "payable": false,
      "stateMutability": "nonpayable",
      "type": "function"
    },
    {
      "constant": true,
      "inputs": [],
      "name": "owner",
      "outputs": [
        {
          "name": "",
          "type": "address"
        }
      ],
      "payable": false,
      "stateMutability": "view",
      "type": "function"
    },
    {
      "constant": true,
      "inputs": [
        {
          "name": "",
          "type": "address"
        },
        {
          "name": "",
          "type": "uint256"
        }
      ],
      "name": "userInvestments",
      "outputs": [
        {
          "name": "tokenAddress",
          "type": "address"
        },
        {
          "name": "cycleNumber",
          "type": "uint256"
        },
        {
          "name": "stake",
          "type": "uint256"
        },
        {
          "name": "tokenAmount",
          "type": "uint256"
        },
        {
          "name": "buyPriceInWeis",
          "type": "uint256"
        },
        {
          "name": "sellPriceInWeis",
          "type": "uint256"
        },
        {
          "name": "isSold",
          "type": "bool"
        }
      ],
      "payable": false,
      "stateMutability": "view",
      "type": "function"
    },
    {
      "constant": true,
      "inputs": [],
      "name": "kyberAddr",
      "outputs": [
        {
          "name": "",
          "type": "address"
        }
      ],
      "payable": false,
      "stateMutability": "view",
      "type": "function"
    },
    {
      "constant": true,
      "inputs": [],
      "name": "developerFeeProportion",
      "outputs": [
        {
          "name": "",
          "type": "uint256"
        }
      ],
      "payable": false,
      "stateMutability": "view",
      "type": "function"
    },
    {
      "constant": true,
      "inputs": [],
      "name": "totalCommission",
      "outputs": [
        {
          "name": "",
          "type": "uint256"
        }
      ],
      "payable": false,
      "stateMutability": "view",
      "type": "function"
    },
    {
      "constant": true,
      "inputs": [],
      "name": "shareTokenAddr",
      "outputs": [
        {
          "name": "",
          "type": "address"
        }
      ],
      "payable": false,
      "stateMutability": "view",
      "type": "function"
    },
    {
      "constant": true,
      "inputs": [],
      "name": "controlTokenAddr",
      "outputs": [
        {
          "name": "",
          "type": "address"
        }
      ],
      "payable": false,
      "stateMutability": "view",
      "type": "function"
    },
    {
      "constant": false,
      "inputs": [
        {
          "name": "newOwner",
          "type": "address"
        }
      ],
      "name": "transferOwnership",
      "outputs": [],
      "payable": false,
      "stateMutability": "nonpayable",
      "type": "function"
    },
    {
      "constant": true,
      "inputs": [],
      "name": "cyclePhase",
      "outputs": [
        {
          "name": "",
          "type": "uint8"
        }
      ],
      "payable": false,
      "stateMutability": "view",
      "type": "function"
    },
    {
      "inputs": [
        {
          "name": "_cTokenAddr",
          "type": "address"
        },
        {
          "name": "_sTokenAddr",
          "type": "address"
        },
        {
          "name": "_kyberAddr",
          "type": "address"
        },
        {
          "name": "_daiAddr",
          "type": "address"
        },
        {
          "name": "_developerFeeAccount",
          "type": "address"
        },
        {
          "name": "_cycleNumber",
          "type": "uint256"
        },
        {
          "name": "_aumThresholdInWeis",
          "type": "uint256"
        },
        {
          "name": "_phaseLengths",
          "type": "uint256[3]"
        },
        {
          "name": "_commissionRate",
          "type": "uint256"
        },
        {
          "name": "_developerFeeProportion",
          "type": "uint256"
        },
        {
          "name": "_functionCallReward",
          "type": "uint256"
        },
        {
          "name": "_stableCoins",
          "type": "address[]"
        }
      ],
      "payable": false,
      "stateMutability": "nonpayable",
      "type": "constructor"
    },
    {
      "payable": true,
      "stateMutability": "payable",
      "type": "fallback"
    },
    {
      "anonymous": false,
      "inputs": [
        {
          "indexed": true,
          "name": "_cycleNumber",
          "type": "uint256"
        },
        {
          "indexed": true,
          "name": "_newPhase",
          "type": "uint256"
        },
        {
          "indexed": false,
          "name": "_timestamp",
          "type": "uint256"
        }
      ],
      "name": "ChangedPhase",
      "type": "event"
    },
    {
      "anonymous": false,
      "inputs": [
        {
          "indexed": true,
          "name": "_cycleNumber",
          "type": "uint256"
        },
        {
          "indexed": true,
          "name": "_sender",
          "type": "address"
        },
        {
          "indexed": false,
          "name": "_tokenAddress",
          "type": "address"
        },
        {
          "indexed": false,
          "name": "_amount",
          "type": "uint256"
        },
        {
          "indexed": false,
          "name": "_timestamp",
          "type": "uint256"
        }
      ],
      "name": "Deposit",
      "type": "event"
    },
    {
      "anonymous": false,
      "inputs": [
        {
          "indexed": true,
          "name": "_cycleNumber",
          "type": "uint256"
        },
        {
          "indexed": true,
          "name": "_sender",
          "type": "address"
        },
        {
          "indexed": false,
          "name": "_tokenAddress",
          "type": "address"
        },
        {
          "indexed": false,
          "name": "_amount",
          "type": "uint256"
        },
        {
          "indexed": false,
          "name": "_timestamp",
          "type": "uint256"
        }
      ],
      "name": "Withdraw",
      "type": "event"
    },
    {
      "anonymous": false,
      "inputs": [
        {
          "indexed": true,
          "name": "_cycleNumber",
          "type": "uint256"
        },
        {
          "indexed": true,
          "name": "_sender",
          "type": "address"
        },
        {
          "indexed": false,
          "name": "_id",
          "type": "uint256"
        },
        {
          "indexed": false,
          "name": "_tokenAddress",
          "type": "address"
        },
        {
          "indexed": false,
          "name": "_stakeInWeis",
          "type": "uint256"
        }
      ],
      "name": "CreatedInvestment",
      "type": "event"
    },
    {
      "anonymous": false,
      "inputs": [
        {
          "indexed": true,
          "name": "_cycleNumber",
          "type": "uint256"
        },
        {
          "indexed": true,
          "name": "_sender",
          "type": "address"
        },
        {
          "indexed": false,
          "name": "_investmentId",
          "type": "uint256"
        },
        {
          "indexed": false,
          "name": "_receivedKairos",
          "type": "uint256"
        }
      ],
      "name": "SoldInvestment",
      "type": "event"
    },
    {
      "anonymous": false,
      "inputs": [
        {
          "indexed": true,
          "name": "_cycleNumber",
          "type": "uint256"
        },
        {
          "indexed": false,
          "name": "_beforeTotalFunds",
          "type": "uint256"
        },
        {
          "indexed": false,
          "name": "_afterTotalFunds",
          "type": "uint256"
        }
      ],
      "name": "ROI",
      "type": "event"
    },
    {
      "anonymous": false,
      "inputs": [
        {
          "indexed": true,
          "name": "_cycleNumber",
          "type": "uint256"
        },
        {
          "indexed": true,
          "name": "_sender",
          "type": "address"
        },
        {
          "indexed": false,
          "name": "_commission",
          "type": "uint256"
        }
      ],
      "name": "CommissionPaid",
      "type": "event"
    },
    {
      "anonymous": false,
      "inputs": [
        {
          "indexed": true,
          "name": "_cycleNumber",
          "type": "uint256"
        },
        {
          "indexed": false,
          "name": "_totalCommissionInWeis",
          "type": "uint256"
        }
      ],
      "name": "TotalCommissionPaid",
      "type": "event"
    },
    {
      "anonymous": false,
      "inputs": [],
      "name": "Pause",
      "type": "event"
    },
    {
      "anonymous": false,
      "inputs": [],
      "name": "Unpause",
      "type": "event"
    },
    {
      "anonymous": false,
      "inputs": [
        {
          "indexed": true,
          "name": "previousOwner",
          "type": "address"
        },
        {
          "indexed": true,
          "name": "newOwner",
          "type": "address"
        }
      ],
      "name": "OwnershipTransferred",
      "type": "event"
    },
    {
      "constant": true,
      "inputs": [
        {
          "name": "_userAddr",
          "type": "address"
        }
      ],
      "name": "investmentsCount",
      "outputs": [
        {
          "name": "_count",
          "type": "uint256"
        }
      ],
      "payable": false,
      "stateMutability": "view",
      "type": "function"
    },
    {
      "constant": true,
      "inputs": [
        {
          "name": "_userAddr",
          "type": "address"
        }
      ],
      "name": "investments",
      "outputs": [
        {
          "components": [
            {
              "name": "tokenAddress",
              "type": "address"
            },
            {
              "name": "cycleNumber",
              "type": "uint256"
            },
            {
              "name": "stake",
              "type": "uint256"
            },
            {
              "name": "tokenAmount",
              "type": "uint256"
            },
            {
              "name": "buyPriceInWeis",
              "type": "uint256"
            },
            {
              "name": "sellPriceInWeis",
              "type": "uint256"
            },
            {
              "name": "isSold",
              "type": "bool"
            }
          ],
          "name": "_investments",
          "type": "tuple[]"
        }
      ],
      "payable": false,
      "stateMutability": "view",
      "type": "function"
    },
    {
      "constant": true,
      "inputs": [],
      "name": "getPhaseLengths",
      "outputs": [
        {
          "name": "_phaseLengths",
          "type": "uint256[3]"
        }
      ],
      "payable": false,
      "stateMutability": "view",
      "type": "function"
    },
    {
      "constant": false,
      "inputs": [
        {
          "name": "_tokenAddr",
          "type": "address"
        }
      ],
      "name": "emergencyDumpToken",
      "outputs": [],
      "payable": false,
      "stateMutability": "nonpayable",
      "type": "function"
    },
    {
      "constant": false,
      "inputs": [
        {
          "name": "_investmentId",
          "type": "uint256"
        }
      ],
      "name": "emergencyRedeemStake",
      "outputs": [],
      "payable": false,
      "stateMutability": "nonpayable",
      "type": "function"
    },
    {
      "constant": false,
      "inputs": [],
      "name": "emergencyUpdateBalance",
      "outputs": [],
      "payable": false,
      "stateMutability": "nonpayable",
      "type": "function"
    },
    {
      "constant": false,
      "inputs": [
        {
          "name": "_val",
          "type": "bool"
        }
      ],
      "name": "setAllowEmergencyWithdraw",
      "outputs": [],
      "payable": false,
      "stateMutability": "nonpayable",
      "type": "function"
    },
    {
      "constant": false,
      "inputs": [],
      "name": "emergencyWithdraw",
      "outputs": [],
      "payable": false,
      "stateMutability": "nonpayable",
      "type": "function"
    },
    {
      "constant": false,
      "inputs": [
        {
          "name": "_newAddr",
          "type": "address"
        }
      ],
      "name": "changeKyberNetworkAddress",
      "outputs": [],
      "payable": false,
      "stateMutability": "nonpayable",
      "type": "function"
    },
    {
      "constant": false,
      "inputs": [
        {
          "name": "_newAddr",
          "type": "address"
        }
      ],
      "name": "changeDeveloperFeeAccount",
      "outputs": [],
      "payable": false,
      "stateMutability": "nonpayable",
      "type": "function"
    },
    {
      "constant": false,
      "inputs": [
        {
          "name": "_newAddr",
          "type": "address"
        }
      ],
      "name": "changeDAIAddress",
      "outputs": [],
      "payable": false,
      "stateMutability": "nonpayable",
      "type": "function"
    },
    {
      "constant": false,
      "inputs": [
        {
          "name": "_newProp",
          "type": "uint256"
        }
      ],
      "name": "changeDeveloperFeeProportion",
      "outputs": [],
      "payable": false,
      "stateMutability": "nonpayable",
      "type": "function"
    },
    {
      "constant": false,
      "inputs": [
        {
          "name": "_newProp",
          "type": "uint256"
        }
      ],
      "name": "changeCommissionRate",
      "outputs": [],
      "payable": false,
      "stateMutability": "nonpayable",
      "type": "function"
    },
    {
      "constant": false,
      "inputs": [
        {
          "name": "_newVal",
          "type": "uint256"
        }
      ],
      "name": "changeCallReward",
      "outputs": [],
      "payable": false,
      "stateMutability": "nonpayable",
      "type": "function"
    },
    {
      "constant": false,
      "inputs": [
        {
          "name": "_newVal",
          "type": "uint256[3]"
        }
      ],
      "name": "changePhaseLengths",
      "outputs": [],
      "payable": false,
      "stateMutability": "nonpayable",
      "type": "function"
    },
    {
      "constant": false,
      "inputs": [
        {
          "name": "_newOwner",
          "type": "address"
        }
      ],
      "name": "changeControlTokenOwner",
      "outputs": [],
      "payable": false,
      "stateMutability": "nonpayable",
      "type": "function"
    },
    {
      "constant": false,
      "inputs": [
        {
          "name": "_newOwner",
          "type": "address"
        }
      ],
      "name": "changeShareTokenOwner",
      "outputs": [],
      "payable": false,
      "stateMutability": "nonpayable",
      "type": "function"
    },
    {
      "constant": false,
      "inputs": [
        {
          "name": "_stableCoin",
          "type": "address"
        }
      ],
      "name": "addStableCoin",
      "outputs": [],
      "payable": false,
      "stateMutability": "nonpayable",
      "type": "function"
    },
    {
      "constant": false,
      "inputs": [
        {
          "name": "_coin",
          "type": "address"
        },
        {
          "name": "_status",
          "type": "bool"
        }
      ],
      "name": "setMaliciousCoinStatus",
      "outputs": [],
      "payable": false,
      "stateMutability": "nonpayable",
      "type": "function"
    },
    {
      "constant": false,
      "inputs": [],
      "name": "nextPhase",
      "outputs": [],
      "payable": false,
      "stateMutability": "nonpayable",
      "type": "function"
    },
    {
      "constant": false,
      "inputs": [],
      "name": "deposit",
      "outputs": [],
      "payable": true,
      "stateMutability": "payable",
      "type": "function"
    },
    {
      "constant": false,
      "inputs": [
        {
          "name": "_tokenAddr",
          "type": "address"
        },
        {
          "name": "_tokenAmount",
          "type": "uint256"
        }
      ],
      "name": "depositToken",
      "outputs": [],
      "payable": false,
      "stateMutability": "nonpayable",
      "type": "function"
    },
    {
      "constant": false,
      "inputs": [
        {
          "name": "_amountInWeis",
          "type": "uint256"
        }
      ],
      "name": "withdraw",
      "outputs": [],
      "payable": false,
      "stateMutability": "nonpayable",
      "type": "function"
    },
    {
      "constant": false,
      "inputs": [
        {
          "name": "_tokenAddr",
          "type": "address"
        },
        {
          "name": "_amountInWeis",
          "type": "uint256"
        }
      ],
      "name": "withdrawToken",
      "outputs": [],
      "payable": false,
      "stateMutability": "nonpayable",
      "type": "function"
    },
    {
      "constant": false,
      "inputs": [
        {
          "name": "_tokenAddress",
          "type": "address"
        },
        {
          "name": "_stakeInWeis",
          "type": "uint256"
        }
      ],
      "name": "createInvestment",
      "outputs": [],
      "payable": false,
      "stateMutability": "nonpayable",
      "type": "function"
    },
    {
      "constant": false,
      "inputs": [
        {
          "name": "_investmentId",
          "type": "uint256"
        }
      ],
      "name": "sellInvestmentAsset",
      "outputs": [],
      "payable": false,
      "stateMutability": "nonpayable",
      "type": "function"
    },
    {
      "constant": false,
      "inputs": [],
      "name": "redeemCommission",
      "outputs": [],
      "payable": false,
      "stateMutability": "nonpayable",
      "type": "function"
    },
    {
      "constant": false,
      "inputs": [
        {
          "name": "_tokenAddr",
          "type": "address"
        }
      ],
      "name": "sellLeftoverToken",
      "outputs": [],
      "payable": false,
      "stateMutability": "nonpayable",
      "type": "function"
    }
  ],
  "bytecode": "0x60606040526000805460a060020a60ff021916905534156200002057600080fd5b60405162003f6a38038062003f6a83398101604052808051919060200180519190602001805191906020018051919060200180519190602001805191906020018051916020820191608001805191906020018051919060200180519190602001805160008054600160a060020a03191633600160a060020a03161781559201919050670de0b6b3a7640000620000c58686640100000000620002dc8102620037dd1704565b10620000d057600080fd5b8c600160006101000a815481600160a060020a030219169083600160a060020a031602179055508b600260006101000a815481600160a060020a030219169083600160a060020a031602179055508a600360006101000a815481600160a060020a030219169083600160a060020a0316021790555089600560006101000a815481600160a060020a030219169083600160a060020a031602179055508c601660016101000a815481600160a060020a030219169083600160a060020a031602179055508b601760006101000a815481600160a060020a030219169083600160a060020a031602179055508a601860006101000a815481600160a060020a030219169083600160a060020a0316021790555088600460006101000a815481600160a060020a030219169083600160a060020a0316021790555085600f9060036200021b929190620002f3565b50506009849055600a839055600060088190556016805460ff199081166002179091556006899055600b849055600d889055600e805490911690555b8151811015620002c9576001601460008484815181106200027457fe5b90602001906020020151600160a060020a031681526020810191909152604001600020805460ff1916911515919091179055620002c1816001640100000000620002dc8102620037dd1704565b905062000257565b5050505050505050505050505062000356565b600082820183811015620002ec57fe5b9392505050565b826003810192821562000324579160200282015b828111156200032457825182559160200191906001019062000307565b506200033292915062000336565b5090565b6200035391905b808211156200033257600081556001016200033d565b90565b613c0480620003666000396000f3006060604052600436106102585763ffffffff60e060020a6000350416630e1b1fda8114610275578063118152231461028b57806312e1ee45146102aa578063173e7707146102c95780631a2604a4146102e85780631a26af7a1461031b5780631ab371fc1461032e5780631b8e21921461035d5780631c68e528146103705780632303b5b01461038f57806325f842c5146103a55780632e1a7d4d146103ca5780632f884710146103e0578063338b5dea146103f35780633eadb6db146104155780633f4ba83a14610428578063407fa2a31461043b57806355a0c971146104865780635c975abb146104a55780635d4c3224146104b85780635ea1d6f8146104d0578063612d194d146104e357806364542e3e146104f65780636642642a1461050c57806368063a74146105225780636d6f8af414610541578063749b7a3c1461055457806374fa0a631461058d5780637e714dd2146105a0578063821f9824146105b35780638456cb59146105d25780638da5cb5b146105e55780639244adcd146105f857806396b98862146106625780639b4ef376146106cf5780639e281a98146106f3578063a7c4dccf14610715578063ab4df16814610728578063b18e8a8d14610747578063b2637f6514610766578063b3c1f5d814610779578063ba25887d14610798578063c0320dbc146107ab578063d0e30db0146107be578063d7615d37146107c6578063d82277cc146107d9578063db2e21bc146107fb578063dc87454c1461080e578063e53ad2d014610821578063e7476abf14610837578063f2fde38b14610856578063f6558b0014610875575b60035433600160a060020a0390811691161461027357600080fd5b005b341561028057600080fd5b6102736004356108ac565b341561029657600080fd5b610273600160a060020a03600435166109c2565b34156102b557600080fd5b610273600160a060020a0360043516610a36565b34156102d457600080fd5b610273600160a060020a0360043516610b09565b34156102f357600080fd5b610307600160a060020a0360043516610bdd565b604051901515815260200160405180910390f35b341561032657600080fd5b610307610bf2565b341561033957600080fd5b610341610bfb565b604051600160a060020a03909116815260200160405180910390f35b341561036857600080fd5b610273610c0a565b341561037b57600080fd5b610273600160a060020a0360043516610e1e565b341561039a57600080fd5b610273600435610ecd565b34156103b057600080fd5b6103b8610eed565b60405190815260200160405180910390f35b34156103d557600080fd5b610273600435610ef3565b34156103eb57600080fd5b6103b86110e9565b34156103fe57600080fd5b610273600160a060020a03600435166024356110ef565b341561042057600080fd5b61027361165e565b341561043357600080fd5b6102736119e0565b341561044657600080fd5b61044e611a5f565b6040518082606080838360005b8381101561047357808201518382015260200161045b565b5050505090500191505060405180910390f35b341561049157600080fd5b610307600160a060020a0360043516611a9d565b34156104b057600080fd5b610307611ab2565b34156104c357600080fd5b6102736004351515611ac2565b34156104db57600080fd5b6103b8611b08565b34156104ee57600080fd5b6103b8611b0e565b341561050157600080fd5b610273600435611b14565b341561051757600080fd5b610273600435611b42565b341561052d57600080fd5b6103b8600160a060020a0360043516611b62565b341561054c57600080fd5b6103b8611b7d565b341561055f57600080fd5b6102736004606481600360606040519081016040529190828260608082843750939550611b83945050505050565b341561059857600080fd5b610341611baf565b34156105ab57600080fd5b6103b8611bbe565b34156105be57600080fd5b6103b8600160a060020a0360043516611bc4565b34156105dd57600080fd5b610273611bd6565b34156105f057600080fd5b610341611c5a565b341561060357600080fd5b61061a600160a060020a0360043516602435611c69565b604051600160a060020a03909716875260208701959095526040808701949094526060860192909252608085015260a084015290151560c083015260e0909101905180910390f35b341561066d57600080fd5b610681600160a060020a0360043516611ccf565b604051602080825281908101838181518152602001915080516000925b818410156106be576020808502840101518152602001926001019261069e565b925050509250505060405180910390f35b34156106da57600080fd5b610273600160a060020a03600435166024351515611daa565b34156106fe57600080fd5b610273600160a060020a0360043516602435611e1d565b341561072057600080fd5b6103416121e8565b341561073357600080fd5b610273600160a060020a03600435166121f7565b341561075257600080fd5b610273600160a060020a036004351661226b565b341561077157600080fd5b6102736122bd565b341561078457600080fd5b610273600160a060020a0360043516612300565b34156107a357600080fd5b6103b861236c565b34156107b657600080fd5b6103b8612372565b610273612378565b34156107d157600080fd5b610341612638565b34156107e457600080fd5b610273600160a060020a0360043516602435612647565b341561080657600080fd5b610273612a38565b341561081957600080fd5b610341612cfa565b341561082c57600080fd5b610273600435612d09565b341561084257600080fd5b610273600160a060020a03600435166130a4565b341561086157600080fd5b610273600160a060020a0360043516613141565b341561088057600080fd5b6108886131cf565b6040518082600281111561089857fe5b60ff16815260200191505060405180910390f35b60008054819060a060020a900460ff1615156108c757600080fd5b600e5460ff1615156108d857600080fd5b600160a060020a03331660009081526013602052604090208054849081106108fc57fe5b90600052602060002090600702019150600654826001015414151561092057600080fd5b5060028101546000811161093357600080fd5b6000600283018190556016546101009004600160a060020a03169063a9059cbb90339084906040516020015260405160e060020a63ffffffff8516028152600160a060020a0390921660048301526024820152604401602060405180830381600087803b15156109a257600080fd5b6102c65a03f115156109b357600080fd5b50505060405180515050505050565b60005433600160a060020a039081169116146109dd57600080fd5b60005460a060020a900460ff1615156109f557600080fd5b600160a060020a0381161515610a0a57600080fd5b60038054600160a060020a03909216600160a060020a0319928316811790915560188054909216179055565b60005433600160a060020a03908116911614610a5157600080fd5b60028060165460ff166002811115610a6557fe5b14610a6f57600080fd5b60005460a060020a900460ff161515610a8757600080fd5b610b048283600160a060020a03166370a082313060006040516020015260405160e060020a63ffffffff8416028152600160a060020a039091166004820152602401602060405180830381600087803b1515610ae257600080fd5b6102c65a03f11515610af357600080fd5b5050506040518051905060006131d8565b505050565b600060028060165460ff166002811115610b1f57fe5b14610b2957600080fd5b60005460a060020a900460ff1615610b4057600080fd5b30600160a060020a0316319150610ba88384600160a060020a03166370a082313060006040516020015260405160e060020a63ffffffff8416028152600160a060020a039091166004820152602401602060405180830381600087803b1515610ae257600080fd5b50610bd5610bc6600160a060020a033016318463ffffffff6137cb16565b6007549063ffffffff6137dd16565b600755505050565b60156020526000908152604090205460ff1681565b600e5460ff1681565b600454600160a060020a031681565b600060028060165460ff166002811115610c2057fe5b14610c2a57600080fd5b60005460a060020a900460ff1615610c4157600080fd5b600654600160a060020a03331660009081526012602052604090205410610c6757600080fd5b600654600160a060020a0333811660009081526012602052604080822093909355601654610d8693610100909104909216916318160ddd919051602001526040518163ffffffff1660e060020a028152600401602060405180830381600087803b1515610cd357600080fd5b6102c65a03f11515610ce457600080fd5b5050506040518051601654909150610d7a906101009004600160a060020a03166370a082313360006040516020015260405160e060020a63ffffffff8416028152600160a060020a039091166004820152602401602060405180830381600087803b1515610d5157600080fd5b6102c65a03f11515610d6257600080fd5b5050506040518051600c54915063ffffffff6137f716565b9063ffffffff61382216565b9150600160a060020a03331682156108fc0283604051600060405180830381858888f193505050501515610db957600080fd5b600160a060020a0333166000908152601360205260408120610dda91613aa8565b33600160a060020a03166006547fec530ab710fdaa2b5968fe15f486992441a96f643219cf0150904aa5b9eedf828460405190815260200160405180910390a35050565b60005433600160a060020a03908116911614610e3957600080fd5b60005460a060020a900460ff161515610e5157600080fd5b600160a060020a0381161515610e6657600080fd5b601754600160a060020a031663f2fde38b8260405160e060020a63ffffffff8416028152600160a060020a039091166004820152602401600060405180830381600087803b1515610eb657600080fd5b6102c65a03f11515610ec757600080fd5b50505050565b60005433600160a060020a03908116911614610ee857600080fd5b600b55565b60085481565b60008060165460ff166002811115610f0757fe5b14610f1157600080fd5b60005460a060020a900460ff1615610f2857600080fd5b60065460011415610f3857600080fd5b601754600754600160a060020a039091169063c0001786903390610fbd90610d7a856318160ddd6000604051602001526040518163ffffffff1660e060020a028152600401602060405180830381600087803b1515610f9657600080fd5b6102c65a03f11515610fa757600080fd5b505050604051805189915063ffffffff6137f716565b60006040516020015260405160e060020a63ffffffff8516028152600160a060020a0390921660048301526024820152604401602060405180830381600087803b151561100957600080fd5b6102c65a03f1151561101a57600080fd5b50505060405180515050600754611037908363ffffffff6137cb16565b600755600160a060020a03331682156108fc0283604051600060405180830381858888f19350505050151561106b57600080fd5b33600160a060020a03166006547ffe7813e2866053d5c3938554e517b554fce6666a6561bed9eaa7419b29fa9b6873eeeeeeeeeeeeeeeeeeeeeeeeeeeeeeeeeeeeeeee85426040518084600160a060020a0316600160a060020a03168152602001838152602001828152602001935050505060405180910390a35050565b60065481565b60008080808080808060165460ff16600281111561110957fe5b1461111357600080fd5b60005460a060020a900460ff161561112a57600080fd5b600160a060020a03891673eeeeeeeeeeeeeeeeeeeeeeeeeeeeeeeeeeeeeeee141561115457600080fd5b889650600087600160a060020a03166318160ddd6000604051602001526040518163ffffffff1660e060020a028152600401602060405180830381600087803b151561119f57600080fd5b6102c65a03f115156111b057600080fd5b505050604051805190501115156111c657600080fd5b86600160a060020a03166323b872dd33308b60006040516020015260405160e060020a63ffffffff8616028152600160a060020a0393841660048201529190921660248201526044810191909152606401602060405180830381600087803b151561123057600080fd5b6102c65a03f1151561124157600080fd5b50505060405180519050151561125657600080fd5b86600160a060020a03166370a082313060006040516020015260405160e060020a63ffffffff8416028152600160a060020a039091166004820152602401602060405180830381600087803b15156112ad57600080fd5b6102c65a03f115156112be57600080fd5b5050506040518051965050600160a060020a0330163194506112e2898960006131d8565b5086600160a060020a03166370a082313060006040516020015260405160e060020a63ffffffff8416028152600160a060020a039091166004820152602401602060405180830381600087803b151561133a57600080fd5b6102c65a03f1151561134b57600080fd5b50505060405180518703945050838803925060008311156113e95786600160a060020a031663a9059cbb338560006040516020015260405160e060020a63ffffffff8516028152600160a060020a0390921660048301526024820152604401602060405180830381600087803b15156113c357600080fd5b6102c65a03f115156113d457600080fd5b5050506040518051905015156113e957600080fd5b600160a060020a0330163185900391506000821161140657600080fd5b6006546001141561149157601754600160a060020a03166340c10f19338460006040516020015260405160e060020a63ffffffff8516028152600160a060020a0390921660048301526024820152604401602060405180830381600087803b151561147057600080fd5b6102c65a03f1151561148157600080fd5b5050506040518051905050611557565b601754600754600160a060020a03909116906340c10f199033906114ef90610d7a856318160ddd6000604051602001526040518163ffffffff1660e060020a028152600401602060405180830381600087803b1515610f9657600080fd5b60006040516020015260405160e060020a63ffffffff8516028152600160a060020a0390921660048301526024820152604401602060405180830381600087803b151561153b57600080fd5b6102c65a03f1151561154c57600080fd5b505050604051805150505b60075461156a908363ffffffff6137dd16565b6007556016546101009004600160a060020a03166340c10f19338460006040516020015260405160e060020a63ffffffff8516028152600160a060020a0390921660048301526024820152604401602060405180830381600087803b15156115d157600080fd5b6102c65a03f115156115e257600080fd5b505050604051805190505033600160a060020a03166006547feb65d0f36862bbd8763c5e2c983c9d753267d223eee35a224d8d0a9d7ef433a28b87426040518084600160a060020a0316600160a060020a03168152602001838152602001828152602001935050505060405180910390a3505050505050505050565b60005460a060020a900460ff161561167557600080fd5b6016546116a890600f9060ff16600281111561168d57fe5b6003811061169757fe5b01546008549063ffffffff6137dd16565b4210156116b457600080fd5b600260165460ff1660028111156116c757fe5b14156117af576006546116e190600163ffffffff6137dd16565b6006556016546101009004600160a060020a0316635c975abb6000604051602001526040518163ffffffff1660e060020a028152600401602060405180830381600087803b151561173157600080fd5b6102c65a03f1151561174257600080fd5b50505060405180519050156117aa576016546101009004600160a060020a0316633f4ba83a6040518163ffffffff1660e060020a028152600401600060405180830381600087803b151561179557600080fd5b6102c65a03f115156117a657600080fd5b5050505b6118d0565b600060165460ff1660028111156117c257fe5b14156117e457600654600114156117aa57600d5460075410156117aa57600080fd5b600160165460ff1660028111156117f757fe5b14156118d0576016546101009004600160a060020a031663f3123a3a6000604051602001526040518163ffffffff1660e060020a028152600401602060405180830381600087803b151561184a57600080fd5b6102c65a03f1151561185b57600080fd5b50505060405180519050151561187057600080fd5b6016546101009004600160a060020a0316638456cb596040518163ffffffff1660e060020a028152600401600060405180830381600087803b15156118b457600080fd5b6102c65a03f115156118c557600080fd5b5050506118d0613839565b60165460059060019060ff1660028111156118e757fe5b0860028111156118f357fe5b6016805460ff1916600183600281111561190957fe5b021790555042600855601654600b54610100909104600160a060020a0316906340c10f1990339060006040516020015260405160e060020a63ffffffff8516028152600160a060020a0390921660048301526024820152604401602060405180830381600087803b151561197c57600080fd5b6102c65a03f1151561198d57600080fd5b5050506040518051505060165460ff1660028111156119a857fe5b6006547f9590d2eff92d0882635fb8e1412da02e41af0dc517cfd07520a03506eb65b0af4260405190815260200160405180910390a3565b60005433600160a060020a039081169116146119fb57600080fd5b60005460a060020a900460ff161515611a1357600080fd5b6000805474ff0000000000000000000000000000000000000000191690557f7805862f689e2f13df9f062ff482ad3ad112aca9e0847911ed832e158c525b3360405160405180910390a1565b611a67613acc565b600f6003606060405190810160405291906060830182845b815481526020019060010190808311611a7f57505050505090505b90565b60146020526000908152604090205460ff1681565b60005460a060020a900460ff1681565b60005433600160a060020a03908116911614611add57600080fd5b60005460a060020a900460ff161515611af557600080fd5b600e805460ff1916911515919091179055565b60095481565b600b5481565b60005433600160a060020a03908116911614611b2f57600080fd5b600a548110611b3d57600080fd5b600a55565b60005433600160a060020a03908116911614611b5d57600080fd5b600955565b600160a060020a031660009081526013602052604090205490565b600d5481565b60005433600160a060020a03908116911614611b9e57600080fd5b611bab600f826003613af3565b5050565b600554600160a060020a031681565b60075481565b60126020526000908152604090205481565b60005433600160a060020a03908116911614611bf157600080fd5b60005460a060020a900460ff1615611c0857600080fd5b6000805474ff0000000000000000000000000000000000000000191660a060020a1790557f6985a02210a168e66602d3235cb6db0e70f92b3ba4d376a33c0f3d9434bff62560405160405180910390a1565b600054600160a060020a031681565b601360205281600052604060002081815481101515611c8457fe5b60009182526020909120600790910201805460018201546002830154600384015460048501546005860154600690960154600160a060020a0390951697509295509093909260ff1687565b611cd7613b31565b6013600083600160a060020a0316600160a060020a0316815260200190815260200160002080548060200260200160405190810160405281815291906000602084015b82821015611d9f57600084815260209020600783020160e060405190810160409081528254600160a060020a031682526001808401546020808501919091526002850154928401929092526003840154606084015260048401546080840152600584015460a084015260069093015460ff16151560c083015290835292019101611d1a565b505050509050919050565b60005433600160a060020a03908116911614611dc557600080fd5b60005460a060020a900460ff161515611ddd57600080fd5b600160a060020a0382161515611df257600080fd5b600160a060020a03919091166000908152601560205260409020805460ff1916911515919091179055565b600080808080808060165460ff166002811115611e3657fe5b14611e4057600080fd5b60005460a060020a900460ff1615611e5757600080fd5b60065460011415611e6757600080fd5b600160a060020a03881673eeeeeeeeeeeeeeeeeeeeeeeeeeeeeeeeeeeeeeee1415611e9157600080fd5b879550600086600160a060020a03166318160ddd6000604051602001526040518163ffffffff1660e060020a028152600401602060405180830381600087803b1515611edc57600080fd5b6102c65a03f11515611eed57600080fd5b50505060405180519050111515611f0357600080fd5b85600160a060020a03166370a082313060006040516020015260405160e060020a63ffffffff8416028152600160a060020a039091166004820152602401602060405180830381600087803b1515611f5a57600080fd5b6102c65a03f11515611f6b57600080fd5b5050506040518051955050600160a060020a033016319350611f8f888860016131d8565b508486600160a060020a03166370a082313060006040516020015260405160e060020a63ffffffff8416028152600160a060020a039091166004820152602401602060405180830381600087803b1515611fe857600080fd5b6102c65a03f11515611ff957600080fd5b5050506040518051905003925030600160a060020a0316318403915060008211151561202457600080fd5b601754600754600160a060020a039091169063c000178690339061208290610d7a856318160ddd6000604051602001526040518163ffffffff1660e060020a028152600401602060405180830381600087803b1515610f9657600080fd5b60006040516020015260405160e060020a63ffffffff8516028152600160a060020a0390921660048301526024820152604401602060405180830381600087803b15156120ce57600080fd5b6102c65a03f115156120df57600080fd5b505050604051805150506007546120fc908363ffffffff6137cb16565b600755600160a060020a03861663a9059cbb338560006040516020015260405160e060020a63ffffffff8516028152600160a060020a0390921660048301526024820152604401602060405180830381600087803b151561215c57600080fd5b6102c65a03f1151561216d57600080fd5b505050604051805190505033600160a060020a03166006547ffe7813e2866053d5c3938554e517b554fce6666a6561bed9eaa7419b29fa9b688a86426040518084600160a060020a0316600160a060020a03168152602001838152602001828152602001935050505060405180910390a35050505050505050565b600354600160a060020a031681565b60005433600160a060020a0390811691161461221257600080fd5b60005460a060020a900460ff16151561222a57600080fd5b600160a060020a038116151561223f57600080fd5b60058054600160a060020a03909216600160a060020a0319928316811790915560198054909216179055565b60005433600160a060020a0390811691161461228657600080fd5b600160a060020a038116151561229b57600080fd5b60048054600160a060020a031916600160a060020a0392909216919091179055565b60005433600160a060020a039081169116146122d857600080fd5b60005460a060020a900460ff1615156122f057600080fd5b600160a060020a03301631600755565b60005433600160a060020a0390811691161461231b57600080fd5b60005460a060020a900460ff16151561233357600080fd5b600160a060020a038116151561234857600080fd5b600160a060020a03166000908152601460205260409020805460ff19166001179055565b600a5481565b600c5481565b60008060165460ff16600281111561238c57fe5b1461239657600080fd5b60005460a060020a900460ff16156123ad57600080fd5b6006546001141561243857601754600160a060020a03166340c10f19333460006040516020015260405160e060020a63ffffffff8516028152600160a060020a0390921660048301526024820152604401602060405180830381600087803b151561241757600080fd5b6102c65a03f1151561242857600080fd5b5050506040518051905050612525565b601754600754600160a060020a03909116906340c10f199033906124bd90610d7a856318160ddd6000604051602001526040518163ffffffff1660e060020a028152600401602060405180830381600087803b151561249657600080fd5b6102c65a03f115156124a757600080fd5b505050604051805134915063ffffffff6137f716565b60006040516020015260405160e060020a63ffffffff8516028152600160a060020a0390921660048301526024820152604401602060405180830381600087803b151561250957600080fd5b6102c65a03f1151561251a57600080fd5b505050604051805150505b600754612538903463ffffffff6137dd16565b6007556016546101009004600160a060020a03166340c10f19333460006040516020015260405160e060020a63ffffffff8516028152600160a060020a0390921660048301526024820152604401602060405180830381600087803b151561259f57600080fd5b6102c65a03f115156125b057600080fd5b505050604051805190505033600160a060020a03166006547feb65d0f36862bbd8763c5e2c983c9d753267d223eee35a224d8d0a9d7ef433a273eeeeeeeeeeeeeeeeeeeeeeeeeeeeeeeeeeeeeeee34426040518084600160a060020a0316600160a060020a03168152602001838152602001828152602001935050505060405180910390a350565b600254600160a060020a031681565b6000808060018060165460ff16600281111561265f57fe5b1461266957600080fd5b60005460a060020a900460ff161561268057600080fd5b859350600084600160a060020a03166318160ddd6000604051602001526040518163ffffffff1660e060020a028152600401602060405180830381600087803b15156126cb57600080fd5b6102c65a03f115156126dc57600080fd5b505050604051805190501115156126f257600080fd5b600160a060020a03861660009081526014602052604090205460ff161561271857600080fd5b6016546101009004600160a060020a0316632bee7bde338760006040516020015260405160e060020a63ffffffff8516028152600160a060020a0390921660048301526024820152604401602060405180830381600087803b151561277c57600080fd5b6102c65a03f1151561278d57600080fd5b5050506040518051905015156127a257600080fd5b600160a060020a03331660009081526013602052604090208054600181016127ca8382613b43565b9160005260206000209060070201600060e06040519081016040908152600160a060020a038b168252600654602083015281018990526000606082018190526080820181905260a0820181905260c082015291905081518154600160a060020a031916600160a060020a03919091161781556020820151816001015560408201518160020155606082015181600301556080820151816004015560a0820151816005015560c0820151600691909101805460ff19169115159190911790555050600160a060020a0384166370a082313060006040516020015260405160e060020a63ffffffff8416028152600160a060020a039091166004820152602401602060405180830381600087803b15156128e157600080fd5b6102c65a03f115156128f257600080fd5b505050604051805190509250600161290933611b62565b03915061291782600161399d565b8284600160a060020a03166370a082313060006040516020015260405160e060020a63ffffffff8416028152600160a060020a039091166004820152602401602060405180830381600087803b151561296f57600080fd5b6102c65a03f1151561298057600080fd5b5050506040518051600160a060020a033316600090815260136020526040902080549390910392909150849081106129b457fe5b90600052602060002090600702016003018190555033600160a060020a03166006547fb5a03794eae0f8666853ba9ef2b1eac3a17fe8bef1a9c10f141dfe16a1b470846001612a0233611b62565b038989604051928352600160a060020a0390911660208301526040808301919091526060909101905180910390a3505050505050565b6000805460a060020a900460ff161515612a5157600080fd5b600e5460ff161515612a6257600080fd5b601754612b5190600160a060020a03166318160ddd6000604051602001526040518163ffffffff1660e060020a028152600401602060405180830381600087803b1515612aae57600080fd5b6102c65a03f11515612abf57600080fd5b5050506040518051600754601754919250610d7a91600160a060020a03166370a082313360006040516020015260405160e060020a63ffffffff8416028152600160a060020a039091166004820152602401602060405180830381600087803b1515612b2a57600080fd5b6102c65a03f11515612b3b57600080fd5b505050604051805191905063ffffffff6137f716565b601754909150600160a060020a031663c000178633826370a082318260006040516020015260405160e060020a63ffffffff8416028152600160a060020a039091166004820152602401602060405180830381600087803b1515612bb457600080fd5b6102c65a03f11515612bc557600080fd5b5050506040518051905060006040516020015260405160e060020a63ffffffff8516028152600160a060020a0390921660048301526024820152604401602060405180830381600087803b1515612c1b57600080fd5b6102c65a03f11515612c2c57600080fd5b50505060405180515050600754612c49908263ffffffff6137cb16565b600755600160a060020a03331681156108fc0282604051600060405180830381858888f193505050501515612c7d57600080fd5b33600160a060020a03166006547ffe7813e2866053d5c3938554e517b554fce6666a6561bed9eaa7419b29fa9b6873eeeeeeeeeeeeeeeeeeeeeeeeeeeeeeeeeeeeeeee84426040518084600160a060020a0316600160a060020a03168152602001838152602001828152602001935050505060405180910390a350565b600154600160a060020a031681565b6000808060018060165460ff166002811115612d2157fe5b14612d2b57600080fd5b60005460a060020a900460ff1615612d4257600080fd5b600160a060020a0333166000908152601360205260409020805486908110612d6657fe5b9060005260206000209060070201935060008460040154111515612d8957600080fd5b600654600185015414612d9b57600080fd5b600684015460ff1615612dad57600080fd5b612db885600061399d565b60068401805460ff1916600117905560048401546005850154612dee9190610d7a90670de0b6b3a764000063ffffffff6137f716565b9250612e13670de0b6b3a7640000610d7a8587600201546137f790919063ffffffff16565b91508360020154821115612f4a57601660019054906101000a9004600160a060020a0316600160a060020a031663a9059cbb33866002015460006040516020015260405160e060020a63ffffffff8516028152600160a060020a0390921660048301526024820152604401602060405180830381600087803b1515612e9757600080fd5b6102c65a03f11515612ea857600080fd5b505050604051805150506016546002850154610100909104600160a060020a0316906340c10f19903390612edd9086906137cb565b60006040516020015260405160e060020a63ffffffff8516028152600160a060020a0390921660048301526024820152604401602060405180830381600087803b1515612f2957600080fd5b6102c65a03f11515612f3a57600080fd5b5050506040518051905050613056565b6016546101009004600160a060020a031663a9059cbb338460006040516020015260405160e060020a63ffffffff8516028152600160a060020a0390921660048301526024820152604401602060405180830381600087803b1515612fae57600080fd5b6102c65a03f11515612fbf57600080fd5b505050604051805150506016546002850154610100909104600160a060020a0316906349f9f4d090612ff190856137cb565b60006040516020015260405160e060020a63ffffffff84160281526004810191909152602401602060405180830381600087803b151561303057600080fd5b6102c65a03f1151561304157600080fd5b50505060405180519050151561305657600080fd5b33600160a060020a03166006547f6314177348141237253dcada0d1743fdaf328951ab70fbccab1e6e117dd868a3878560405191825260208201526040908101905180910390a35050505050565b60005433600160a060020a039081169116146130bf57600080fd5b60005460a060020a900460ff1615156130d757600080fd5b600160a060020a03811615156130ec57600080fd5b6016546101009004600160a060020a031663f2fde38b8260405160e060020a63ffffffff8416028152600160a060020a039091166004820152602401600060405180830381600087803b1515610eb657600080fd5b60005433600160a060020a0390811691161461315c57600080fd5b600160a060020a038116151561317157600080fd5b600054600160a060020a0380831691167f8be0079c531659141344cd1fd0a4f28419497f9722a3daafe3b4186f6b6457e060405160405180910390a360008054600160a060020a031916600160a060020a0392909216919091179055565b60165460ff1681565b600080808580851561338157601854600160a060020a033081811631955091169063cb3c28c790899073eeeeeeeeeeeeeeeeeeeeeeeeeeeeeeeeeeeeeeee90829086906b204fce5e3e2502611000000060016000806040516020015260405160e060020a63ffffffff8b16028152600160a060020a039788166004820152602481019690965293861660448601529185166064850152608484015260a483015290911660c482015260e4016020604051808303818588803b151561329b57600080fd5b6125ee5a03f115156132ac57600080fd5b505050506040518051945050600084116132c557600080fd5b61337a6132e085670de0b6b3a764000063ffffffff6137f716565b610d7a83600160a060020a031663313ce5676000604051602001526040518163ffffffff1660e060020a028152600401602060405180830381600087803b151561332957600080fd5b6102c65a03f1151561333a57600080fd5b505050604051805160ff16600a0a905061336e670de0b6b3a76400008189600160a060020a0330163163ffffffff6137cb16565b9063ffffffff6137f716565b94506137c0565b80600160a060020a03166370a082313060006040516020015260405160e060020a63ffffffff8416028152600160a060020a039091166004820152602401602060405180830381600087803b15156133d857600080fd5b6102c65a03f115156133e957600080fd5b5050506040518051600354909450600160a060020a03808416925063095ea7b391166000806040516020015260405160e060020a63ffffffff8516028152600160a060020a0390921660048301526024820152604401602060405180830381600087803b151561345857600080fd5b6102c65a03f1151561346957600080fd5b50505060405180515050600354600160a060020a038083169163095ea7b391168960006040516020015260405160e060020a63ffffffff8516028152600160a060020a0390921660048301526024820152604401602060405180830381600087803b15156134d657600080fd5b6102c65a03f115156134e757600080fd5b50505060405180515050601854600160a060020a031663cb3c28c7828973eeeeeeeeeeeeeeeeeeeeeeeeeeeeeeeeeeeeeeee306b204fce5e3e2502611000000060016000806040516020015260405160e060020a63ffffffff8a16028152600160a060020a039788166004820152602481019690965293861660448601529185166064850152608484015260a483015290911660c482015260e401602060405180830381600087803b151561359b57600080fd5b6102c65a03f115156135ac57600080fd5b5050506040518051600354909550600160a060020a03808416925063095ea7b391166000806040516020015260405160e060020a63ffffffff8516028152600160a060020a0390921660048301526024820152604401602060405180830381600087803b151561361b57600080fd5b6102c65a03f1151561362c57600080fd5b50505060405180515050600160a060020a0381166370a082313060006040516020015260405160e060020a63ffffffff8416028152600160a060020a039091166004820152602401602060405180830381600087803b151561368d57600080fd5b6102c65a03f1151561369e57600080fd5b5050506040518051841190506136b357600080fd5b6137bd6137a182600160a060020a031663313ce5676000604051602001526040518163ffffffff1660e060020a028152600401602060405180830381600087803b15156136ff57600080fd5b6102c65a03f1151561371057600080fd5b5050506040518051905060ff16600a0a61336e84600160a060020a03166370a082313060006040516020015260405160e060020a63ffffffff8416028152600160a060020a039091166004820152602401602060405180830381600087803b151561377a57600080fd5b6102c65a03f1151561378b57600080fd5b505050604051805188915063ffffffff6137cb16565b610d7a670de0b6b3a764000061336e888263ffffffff6137f716565b94505b505050509392505050565b6000828211156137d757fe5b50900390565b6000828201838110156137ec57fe5b8091505b5092915050565b60008083151561380a57600091506137f0565b5082820282848281151561381a57fe5b04146137ec57fe5b600080828481151561383057fe5b04949350505050565b600080600080925060075430600160a060020a03163111156138675760075430600160a060020a0316310392505b613888670de0b6b3a7640000610d7a856009546137f790919063ffffffff16565b600c55600a546138b690670de0b6b3a764000090610d7a90600160a060020a0330163163ffffffff6137f716565b91506138e7826138db600c5430600160a060020a0316316137cb90919063ffffffff16565b9063ffffffff6137cb16565b90506006547f13a18edb371d0a74be72de10b678893b96bc8a47e776bb122c59e21d53956fbd6007548360405191825260208201526040908101905180910390a26007819055600454600160a060020a031682156108fc0283604051600060405180830381858888f19350505050151561396057600080fd5b6006547f2f7da09d276ad6237b75476b806f4d8388b9228bd6fa45a7ca214fac5abdf7a3600c5460405190815260200160405180910390a2505050565b600160a060020a0333166000908152601360205260408120805482918291869081106139c557fe5b906000526020600020906007020192508315613a6757601654613a60906101009004600160a060020a03166318160ddd6000604051602001526040518163ffffffff1660e060020a028152600401602060405180830381600087803b1515613a2c57600080fd5b6102c65a03f11515613a3d57600080fd5b50505060405180519050610d7a85600201546007546137f790919063ffffffff16565b9150613a6f565b826003015491505b8254613a8590600160a060020a031683866131d8565b90508315613a995760048301819055613aa1565b600583018190555b5050505050565b5080546000825560070290600052602060002090810190613ac99190613b6b565b50565b60606040519081016040526003815b6000815260200190600190039081613adb5790505090565b8260038101928215613b21579160200282015b82811115613b21578251825591602001919060010190613b06565b50613b2d929150613bbe565b5090565b60206040519081016040526000815290565b815481835581811511610b0457600702816007028360005260206000209182019101610b0491905b611a9a91905b80821115613b2d578054600160a060020a0319168155600060018201819055600282018190556003820181905560048201819055600582015560068101805460ff19169055600701613b71565b611a9a91905b80821115613b2d5760008155600101613bc45600a165627a7a72305820cfc2d5b0930ad0d80223e2c912d3ecb9c299139efc316cb480f04f02fd5c46920029",
  "source": "pragma solidity ^0.4.18;\r\n\r\nimport 'zeppelin-solidity/contracts/math/SafeMath.sol';\r\nimport 'zeppelin-solidity/contracts/math/Math.sol';\r\nimport 'zeppelin-solidity/contracts/lifecycle/Pausable.sol';\r\nimport './ControlToken.sol';\r\nimport './ShareToken.sol';\r\nimport './KyberNetwork.sol';\r\nimport './Utils.sol';\r\n\r\n/**\r\n * The main contract of the Betoken hedge fund\r\n */\r\ncontract BetokenFund is Pausable, Utils {\r\n  using SafeMath for uint256;\r\n\r\n  enum CyclePhase { DepositWithdraw, MakeDecisions, RedeemCommission }\r\n\r\n  struct Investment {\r\n    address tokenAddress;\r\n    uint256 cycleNumber;\r\n    uint256 stake;\r\n    uint256 tokenAmount;\r\n    uint256 buyPriceInWeis;\r\n    uint256 sellPriceInWeis;\r\n    bool isSold;\r\n  }\r\n\r\n  /**\r\n   * @dev Executes function only during the given cycle phase.\r\n   * @param phase the cycle phase during which the function may be called\r\n   */\r\n  modifier during(CyclePhase phase) {\r\n    require(cyclePhase == phase);\r\n    _;\r\n  }\r\n\r\n  // Address of the control token contract.\r\n  address public controlTokenAddr;\r\n\r\n  // Address of the share token contract.\r\n  address public shareTokenAddr;\r\n\r\n  // Address of the KyberNetwork contract\r\n  address public kyberAddr;\r\n\r\n  // Address to which the developer fees will be paid.\r\n  address public developerFeeAccount;\r\n\r\n  // Address of the DAI stable-coin contract.\r\n  address public daiAddr;\r\n\r\n  // The number of the current investment cycle.\r\n  uint256 public cycleNumber;\r\n\r\n  // 10^{decimals} used for representing fixed point numbers with {decimals} decimals.\r\n  //uint256 public PRECISION;\r\n\r\n  // The amount of funds held by the fund.\r\n  uint256 public totalFundsInWeis;\r\n\r\n  // The start time for the current investment cycle phase, in seconds since Unix epoch.\r\n  uint256 public startTimeOfCyclePhase;\r\n\r\n  // The proportion of the fund that gets distributed to Kairo holders every cycle. Fixed point decimal.\r\n  uint256 public commissionRate;\r\n\r\n  // The proportion of contract balance that goes the the devs every cycle. Fixed point decimal.\r\n  uint256 public developerFeeProportion;\r\n\r\n  // Amount of Kairo rewarded to the user who calls a phase transition/investment handling function\r\n  uint256 public functionCallReward;\r\n\r\n  // Amount of commission to be paid out this cycle\r\n  uint256 public totalCommission;\r\n\r\n  // The AUM (Asset Under Management) threshold for progressing to MakeDecisionsTime in the first cycle.\r\n  uint256 public aumThresholdInWeis;\r\n\r\n  // Flag for whether emergency withdrawing is allowed.\r\n  bool public allowEmergencyWithdraw;\r\n\r\n  uint256[3] phaseLengths;\r\n\r\n  // The last cycle where a user redeemed commission.\r\n  mapping(address => uint256) public lastCommissionRedemption;\r\n\r\n  // List of investments in the current cycle.\r\n  mapping(address => Investment[]) public userInvestments;\r\n\r\n  // Records if a token is a stable coin. Users can't make investments with stable coins.\r\n  mapping(address => bool) public isStableCoin;\r\n\r\n  // Records if a token's contract maliciously treats the BetokenFund differently when calling transfer(), transferFrom(), or approve().\r\n  mapping(address => bool) public isMaliciousCoin;\r\n\r\n  // The current cycle phase.\r\n  CyclePhase public cyclePhase;\r\n\r\n  // Contract instances\r\n  ControlToken internal cToken;\r\n  ShareToken internal sToken;\r\n  KyberNetwork internal kyber;\r\n  DetailedERC20 internal dai;\r\n\r\n  event ChangedPhase(uint256 indexed _cycleNumber, uint256 indexed _newPhase, uint256 _timestamp);\r\n\r\n  event Deposit(uint256 indexed _cycleNumber, address indexed _sender, address _tokenAddress, uint256 _amount, uint256 _timestamp);\r\n  event Withdraw(uint256 indexed _cycleNumber, address indexed _sender, address _tokenAddress, uint256 _amount, uint256 _timestamp);\r\n\r\n  event CreatedInvestment(uint256 indexed _cycleNumber, address indexed _sender, uint256 _id, address _tokenAddress, uint256 _stakeInWeis);\r\n  event SoldInvestment(uint256 indexed _cycleNumber, address indexed _sender, uint256 _investmentId, uint256 _receivedKairos);\r\n\r\n  event ROI(uint256 indexed _cycleNumber, uint256 _beforeTotalFunds, uint256 _afterTotalFunds);\r\n  event CommissionPaid(uint256 indexed _cycleNumber, address indexed _sender, uint256 _commission);\r\n  event TotalCommissionPaid(uint256 indexed _cycleNumber, uint256 _totalCommissionInWeis);\r\n\r\n  /**\r\n   * Contract initialization functions\r\n   */\r\n\r\n  // Constructor\r\n  function BetokenFund(\r\n    address _cTokenAddr,\r\n    address _sTokenAddr,\r\n    address _kyberAddr,\r\n    address _daiAddr,\r\n    address _developerFeeAccount,\r\n    uint256 _cycleNumber,\r\n    uint256 _aumThresholdInWeis,\r\n    uint256[3] _phaseLengths,\r\n    uint256 _commissionRate,\r\n    uint256 _developerFeeProportion,\r\n    uint256 _functionCallReward,\r\n    address[] _stableCoins\r\n  )\r\n    public\r\n  {\r\n    require(_commissionRate.add(_developerFeeProportion) < 10**18);\r\n\r\n    controlTokenAddr = _cTokenAddr;\r\n    shareTokenAddr = _sTokenAddr;\r\n    kyberAddr = _kyberAddr;\r\n    daiAddr = _daiAddr;\r\n    cToken = ControlToken(_cTokenAddr);\r\n    sToken = ShareToken(_sTokenAddr);\r\n    kyber = KyberNetwork(_kyberAddr);\r\n\r\n    developerFeeAccount = _developerFeeAccount;\r\n    phaseLengths = _phaseLengths;\r\n    commissionRate = _commissionRate;\r\n    developerFeeProportion = _developerFeeProportion;\r\n    startTimeOfCyclePhase = 0;\r\n    cyclePhase = CyclePhase.RedeemCommission;\r\n    cycleNumber = _cycleNumber;\r\n    functionCallReward = _functionCallReward;\r\n    aumThresholdInWeis = _aumThresholdInWeis;\r\n    allowEmergencyWithdraw = false;\r\n\r\n    for (uint256 i = 0; i < _stableCoins.length; i = i.add(1)) {\r\n      isStableCoin[_stableCoins[i]] = true;\r\n    }\r\n  }\r\n\r\n  /**\r\n   * Getters\r\n   */\r\n\r\n  /**\r\n   * Returns the length of the investments array.\r\n   * @return length of investments array\r\n   */\r\n  function investmentsCount(address _userAddr) public view returns(uint256 _count) {\r\n    return userInvestments[_userAddr].length;\r\n  }\r\n\r\n  function investments(address _userAddr) public view returns(Investment[] _investments) {\r\n    return userInvestments[_userAddr];\r\n  }\r\n\r\n  function getPhaseLengths() public view returns(uint256[3] _phaseLengths) {\r\n    return phaseLengths;\r\n  }\r\n\r\n  /**\r\n   * Meta functions\r\n   */\r\n\r\n  /**\r\n   * Emergency functions\r\n   */\r\n\r\n  /**\r\n   * @dev In case the fund is invested in tokens, sell all tokens.\r\n   */\r\n  function emergencyDumpToken(address _tokenAddr)\r\n    public\r\n    onlyOwner\r\n    during(CyclePhase.RedeemCommission)\r\n    whenPaused\r\n  {\r\n    __transactToken(_tokenAddr, ERC20(_tokenAddr).balanceOf(this), false);\r\n  }\r\n\r\n  /**\r\n   * @dev Return staked Kairos for a investment under emergency situations.\r\n   */\r\n  function emergencyRedeemStake(uint256 _investmentId) whenPaused public {\r\n    require(allowEmergencyWithdraw);\r\n    Investment storage investment = userInvestments[msg.sender][_investmentId];\r\n    require(investment.cycleNumber == cycleNumber);\r\n    uint256 stake = investment.stake;\r\n    require(stake > 0);\r\n    delete investment.stake;\r\n    cToken.transfer(msg.sender, stake);\r\n  }\r\n\r\n  /**\r\n   * @dev Update current fund balance\r\n   */\r\n  function emergencyUpdateBalance() onlyOwner whenPaused public {\r\n    totalFundsInWeis = this.balance;\r\n  }\r\n\r\n  function setAllowEmergencyWithdraw(bool _val) onlyOwner whenPaused public {\r\n    allowEmergencyWithdraw = _val;\r\n  }\r\n\r\n  /**\r\n   * @dev Function for withdrawing all funds in times of emergency. Only callable when fund is paused.\r\n   */\r\n  function emergencyWithdraw()\r\n    public\r\n    whenPaused\r\n  {\r\n    require(allowEmergencyWithdraw);\r\n\r\n    uint256 amountInWeis = sToken.balanceOf(msg.sender).mul(totalFundsInWeis).div(sToken.totalSupply());\r\n    sToken.ownerBurn(msg.sender, sToken.balanceOf(msg.sender));\r\n    totalFundsInWeis = totalFundsInWeis.sub(amountInWeis);\r\n\r\n    // Transfer\r\n    msg.sender.transfer(amountInWeis);\r\n\r\n    // Emit event\r\n    Withdraw(cycleNumber, msg.sender, ETH_TOKEN_ADDRESS, amountInWeis, now);\r\n  }\r\n\r\n  /**\r\n   * Parameter setters\r\n   */\r\n\r\n  /**\r\n   * @dev Changes the address of the KyberNetwork contract used in the contract. Only callable by owner.\r\n   * @param _newAddr new address of KyberNetwork contract\r\n   */\r\n  function changeKyberNetworkAddress(address _newAddr) public onlyOwner whenPaused {\r\n    require(_newAddr != address(0));\r\n    kyberAddr = _newAddr;\r\n    kyber = KyberNetwork(_newAddr);\r\n  }\r\n\r\n  /**\r\n   * @dev Changes the address to which the developer fees will be sent. Only callable by owner.\r\n   * @param _newAddr new developer fee address\r\n   */\r\n  function changeDeveloperFeeAccount(address _newAddr) public onlyOwner {\r\n    require(_newAddr != address(0));\r\n    developerFeeAccount = _newAddr;\r\n  }\r\n\r\n  function changeDAIAddress(address _newAddr) public onlyOwner whenPaused {\r\n    require(_newAddr != address(0));\r\n    daiAddr = _newAddr;\r\n    dai = DetailedERC20(_newAddr);\r\n  }\r\n\r\n  /**\r\n   * @dev Changes the proportion of fund balance sent to the developers each cycle. May only decrease. Only callable by owner.\r\n   * @param _newProp the new proportion, fixed point decimal\r\n   */\r\n  function changeDeveloperFeeProportion(uint256 _newProp) public onlyOwner {\r\n    require(_newProp < developerFeeProportion);\r\n    developerFeeProportion = _newProp;\r\n  }\r\n\r\n  /**\r\n   * @dev Changes the proportion of fund balance given to Kairo holders each cycle. Only callable by owner.\r\n   * @param _newProp the new proportion, fixed point decimal\r\n   */\r\n  function changeCommissionRate(uint256 _newProp) public onlyOwner {\r\n    commissionRate = _newProp;\r\n  }\r\n\r\n  function changeCallReward(uint256 _newVal) public onlyOwner {\r\n    functionCallReward = _newVal;\r\n  }\r\n\r\n  function changePhaseLengths(uint256[3] _newVal) public onlyOwner {\r\n    phaseLengths = _newVal;\r\n  }\r\n\r\n  /**\r\n   * @dev Changes the owner of the ControlToken contract.\r\n   * @param  _newOwner the new owner address\r\n   */\r\n  function changeControlTokenOwner(address _newOwner) public onlyOwner whenPaused {\r\n    require(_newOwner != address(0));\r\n    cToken.transferOwnership(_newOwner);\r\n  }\r\n\r\n  /**\r\n   * @dev Changes the owner of the ShareToken contract.\r\n   * @param  _newOwner the new owner address\r\n   */\r\n  function changeShareTokenOwner(address _newOwner) public onlyOwner whenPaused {\r\n    require(_newOwner != address(0));\r\n    sToken.transferOwnership(_newOwner);\r\n  }\r\n\r\n  function addStableCoin(address _stableCoin) public onlyOwner whenPaused {\r\n    require(_stableCoin != address(0));\r\n    isStableCoin[_stableCoin] = true;\r\n  }\r\n\r\n  function setMaliciousCoinStatus(address _coin, bool _status) public onlyOwner whenPaused {\r\n    require(_coin != address(0));\r\n    isMaliciousCoin[_coin] = _status;\r\n  }\r\n\r\n\r\n  /**\r\n   * @dev Moves the fund to the next phase in the investment cycle.\r\n   */\r\n  function nextPhase()\r\n    public\r\n    whenNotPaused\r\n  {\r\n    require(now >= startTimeOfCyclePhase.add(phaseLengths[uint(cyclePhase)]));\r\n\r\n    if (cyclePhase == CyclePhase.RedeemCommission) {\r\n      // Start new cycle\r\n      cycleNumber = cycleNumber.add(1);\r\n\r\n      if (cToken.paused()) {\r\n        cToken.unpause();\r\n      }\r\n    } else if (cyclePhase == CyclePhase.DepositWithdraw) {\r\n      // End DepositWithdraw phase\r\n      if (cycleNumber == 1) {\r\n        require(totalFundsInWeis >= aumThresholdInWeis);\r\n      }\r\n    } else if (cyclePhase == CyclePhase.MakeDecisions) {\r\n      // Burn any Kairo left in BetokenFund's account\r\n      require(cToken.burnOwnerBalance());\r\n\r\n      cToken.pause();\r\n      __distributeFundsAfterCycleEnd();\r\n    }\r\n\r\n    cyclePhase = CyclePhase(addmod(uint(cyclePhase), 1, 5));\r\n    startTimeOfCyclePhase = now;\r\n\r\n    // Reward caller\r\n    cToken.mint(msg.sender, functionCallReward);\r\n\r\n    ChangedPhase(cycleNumber, uint(cyclePhase), now);\r\n  }\r\n\r\n  /**\r\n   * DepositWithdraw phase functions\r\n   */\r\n\r\n  /**\r\n   * @dev Deposit Ether into the fund.\r\n   */\r\n  function deposit()\r\n    public\r\n    payable\r\n    during(CyclePhase.DepositWithdraw)\r\n    whenNotPaused\r\n  {\r\n    // Register investment\r\n    if (cycleNumber == 1) {\r\n      sToken.mint(msg.sender, msg.value);\r\n    } else {\r\n      sToken.mint(msg.sender, msg.value.mul(sToken.totalSupply()).div(totalFundsInWeis));\r\n    }\r\n    totalFundsInWeis = totalFundsInWeis.add(msg.value);\r\n\r\n    // Give control tokens proportional to investment\r\n    // Uncomment if statement if not test version\r\n    // if (cycleNumber == 1) {\r\n      cToken.mint(msg.sender, msg.value);\r\n    // }\r\n\r\n    // Emit event\r\n    Deposit(cycleNumber, msg.sender, ETH_TOKEN_ADDRESS, msg.value, now);\r\n  }\r\n\r\n  function depositToken(address _tokenAddr, uint256 _tokenAmount)\r\n    public\r\n    during(CyclePhase.DepositWithdraw)\r\n    whenNotPaused\r\n  {\r\n    require(_tokenAddr != address(ETH_TOKEN_ADDRESS));\r\n    DetailedERC20 token = DetailedERC20(_tokenAddr);\r\n    require(token.totalSupply() > 0);\r\n\r\n    require(token.transferFrom(msg.sender, this, _tokenAmount));\r\n\r\n    uint256 beforeTokenBalance = token.balanceOf(this);\r\n    uint256 beforeEthBalance = this.balance;\r\n    __transactToken(_tokenAddr, _tokenAmount, false);\r\n    uint256 actualTokenAmount = beforeTokenBalance - token.balanceOf(this);\r\n    uint256 leftOverTokens = _tokenAmount - actualTokenAmount;\r\n    if (leftOverTokens > 0) {\r\n      require(token.transfer(msg.sender, leftOverTokens));\r\n    }\r\n\r\n    uint256 depositInWeis = this.balance - beforeEthBalance;\r\n    require(depositInWeis > 0);\r\n\r\n    // Register investment\r\n    if (cycleNumber == 1) {\r\n      sToken.mint(msg.sender, depositInWeis);\r\n    } else {\r\n      sToken.mint(msg.sender, depositInWeis.mul(sToken.totalSupply()).div(totalFundsInWeis));\r\n    }\r\n    totalFundsInWeis = totalFundsInWeis.add(depositInWeis);\r\n\r\n    // Give control tokens proportional to investment\r\n    // Uncomment if statement if not test version\r\n    // if (cycleNumber == 1) {\r\n    cToken.mint(msg.sender, depositInWeis);\r\n    // }\r\n\r\n    // Emit event\r\n    Deposit(cycleNumber, msg.sender, _tokenAddr, actualTokenAmount, now);\r\n  }\r\n\r\n  /**\r\n   * @dev Withdraws a certain amount of Ether from the user's account. Cannot be called during the first cycle.\r\n   * @param _amountInWeis amount of Ether to be withdrawn\r\n   */\r\n  function withdraw(uint256 _amountInWeis)\r\n    public\r\n    during(CyclePhase.DepositWithdraw)\r\n    whenNotPaused\r\n  {\r\n    require(cycleNumber != 1);\r\n\r\n    // Subtract from account\r\n    sToken.ownerBurn(msg.sender, _amountInWeis.mul(sToken.totalSupply()).div(totalFundsInWeis));\r\n    totalFundsInWeis = totalFundsInWeis.sub(_amountInWeis);\r\n\r\n    // Transfer Ether to user\r\n    msg.sender.transfer(_amountInWeis);\r\n\r\n    // Emit event\r\n    Withdraw(cycleNumber, msg.sender, ETH_TOKEN_ADDRESS, _amountInWeis, now);\r\n  }\r\n\r\n  function withdrawToken(address _tokenAddr, uint256 _amountInWeis)\r\n    public\r\n    during(CyclePhase.DepositWithdraw)\r\n    whenNotPaused\r\n  {\r\n    require(cycleNumber != 1);\r\n    require(_tokenAddr != address(ETH_TOKEN_ADDRESS));\r\n\r\n    DetailedERC20 token = DetailedERC20(_tokenAddr);\r\n    require(token.totalSupply() > 0);\r\n\r\n    // Buy desired tokens\r\n    uint256 beforeTokenBalance = token.balanceOf(this);\r\n    uint256 beforeEthBalance = this.balance;\r\n    __transactToken(_tokenAddr, _amountInWeis, true);\r\n    uint256 actualTokenAmount = token.balanceOf(this) - beforeTokenBalance;\r\n\r\n    // Subtract from account\r\n    uint256 actualAmountInWeis = beforeEthBalance - this.balance;\r\n    require(actualAmountInWeis > 0);\r\n    sToken.ownerBurn(msg.sender, actualAmountInWeis.mul(sToken.totalSupply()).div(totalFundsInWeis));\r\n    totalFundsInWeis = totalFundsInWeis.sub(actualAmountInWeis);\r\n\r\n    // Transfer tokens\r\n    token.transfer(msg.sender, actualTokenAmount);\r\n\r\n    // Emit event\r\n    Withdraw(cycleNumber, msg.sender, _tokenAddr, actualTokenAmount, now);\r\n  }\r\n\r\n  /**\r\n   * MakeDecisions phase functions\r\n   */\r\n\r\n  /**\r\n   * @dev Creates a new investment investment for an ERC20 token.\r\n   * @param _tokenAddress address of the ERC20 token contract\r\n   * @param _stakeInWeis amount of Kairos to be staked in support of the investment\r\n   */\r\n  function createInvestment(\r\n    address _tokenAddress,\r\n    uint256 _stakeInWeis\r\n  )\r\n    public\r\n    during(CyclePhase.MakeDecisions)\r\n    whenNotPaused\r\n  {\r\n    // Check if token is valid\r\n    DetailedERC20 token = DetailedERC20(_tokenAddress);\r\n    require(token.totalSupply() > 0);\r\n    require(!isStableCoin[_tokenAddress]);\r\n\r\n    // Collect stake\r\n    require(cToken.ownerCollectFrom(msg.sender, _stakeInWeis));\r\n\r\n    // Add investment to list\r\n    userInvestments[msg.sender].push(Investment({\r\n      tokenAddress: _tokenAddress,\r\n      cycleNumber: cycleNumber,\r\n      stake: _stakeInWeis,\r\n      tokenAmount: 0,\r\n      buyPriceInWeis: 0,\r\n      sellPriceInWeis: 0,\r\n      isSold: false\r\n    }));\r\n\r\n    // Invest\r\n    uint256 beforeTokenAmount = token.balanceOf(this);\r\n    uint256 investmentId = investmentsCount(msg.sender) - 1;\r\n    __handleInvestment(investmentId, true);\r\n    userInvestments[msg.sender][investmentId].tokenAmount = token.balanceOf(this) - beforeTokenAmount;\r\n\r\n    // Emit event\r\n    CreatedInvestment(cycleNumber, msg.sender, investmentsCount(msg.sender) - 1, _tokenAddress, _stakeInWeis);\r\n  }\r\n\r\n  /**\r\n   * @dev Called by user to sell the assets a investment invested in. Returns the staked Kairo plus rewards.\r\n   * @param _investmentId the ID of the investment\r\n   */\r\n  function sellInvestmentAsset(uint256 _investmentId)\r\n    public\r\n    during(CyclePhase.MakeDecisions)\r\n    whenNotPaused\r\n  {\r\n    Investment storage investment = userInvestments[msg.sender][_investmentId];\r\n    require(investment.buyPriceInWeis > 0);\r\n    require(investment.cycleNumber == cycleNumber);\r\n    require(!investment.isSold);\r\n\r\n    __handleInvestment(_investmentId, false);\r\n    investment.isSold = true;\r\n\r\n    uint256 multiplier = investment.sellPriceInWeis.mul(PRECISION).div(investment.buyPriceInWeis);\r\n    uint256 receiveKairoAmount = investment.stake.mul(multiplier).div(PRECISION);\r\n    if (receiveKairoAmount > investment.stake) {\r\n      cToken.transfer(msg.sender, investment.stake);\r\n      cToken.mint(msg.sender, receiveKairoAmount.sub(investment.stake));\r\n    } else {\r\n      cToken.transfer(msg.sender, receiveKairoAmount);\r\n      require(cToken.burnOwnerTokens(investment.stake.sub(receiveKairoAmount)));\r\n    }\r\n\r\n    SoldInvestment(cycleNumber, msg.sender, _investmentId, receiveKairoAmount);\r\n  }\r\n\r\n  /**\r\n   * RedeemCommission phase functions\r\n   */\r\n\r\n  /**\r\n   * @dev Redeems commission.\r\n   */\r\n  function redeemCommission()\r\n    public\r\n    during(CyclePhase.RedeemCommission)\r\n    whenNotPaused\r\n  {\r\n    require(lastCommissionRedemption[msg.sender] < cycleNumber);\r\n    lastCommissionRedemption[msg.sender] = cycleNumber;\r\n    uint256 commission = totalCommission.mul(cToken.balanceOf(msg.sender)).div(cToken.totalSupply());\r\n    msg.sender.transfer(commission);\r\n\r\n    delete userInvestments[msg.sender];\r\n\r\n    CommissionPaid(cycleNumber, msg.sender, commission);\r\n  }\r\n\r\n  /**\r\n   * @dev Sells tokens left over due to manager not selling or KyberNetwork not having enough demand.\r\n   * @param _tokenAddr address of the token to be sold\r\n   */\r\n  function sellLeftoverToken(address _tokenAddr)\r\n    public\r\n    during(CyclePhase.RedeemCommission)\r\n    whenNotPaused\r\n  {\r\n    uint256 beforeBalance = this.balance;\r\n    __transactToken(_tokenAddr, ERC20(_tokenAddr).balanceOf(this), false);\r\n    totalFundsInWeis = totalFundsInWeis.add(this.balance.sub(beforeBalance));\r\n  }\r\n\r\n  /**\r\n   * Internal use functions\r\n   */\r\n\r\n  /**\r\n   * @dev Distributes the funds accourding to previously held proportions. Pays commission to Kairo holders,\r\n   * and developer fees to developers.\r\n   */\r\n  function __distributeFundsAfterCycleEnd() internal {\r\n    uint256 profit = 0;\r\n    if (this.balance > totalFundsInWeis) {\r\n      profit = this.balance - totalFundsInWeis;\r\n    }\r\n    totalCommission = commissionRate.mul(profit).div(PRECISION);\r\n    uint256 devFee = developerFeeProportion.mul(this.balance).div(PRECISION);\r\n    uint256 newTotalFunds = this.balance.sub(totalCommission).sub(devFee);\r\n\r\n    // Update values\r\n    ROI(cycleNumber, totalFundsInWeis, newTotalFunds);\r\n    totalFundsInWeis = newTotalFunds;\r\n\r\n    // Transfer fees\r\n    developerFeeAccount.transfer(devFee);\r\n\r\n    // Emit event\r\n    TotalCommissionPaid(cycleNumber, totalCommission);\r\n  }\r\n\r\n  function __handleInvestment(uint256 _investmentId, bool _buy) internal {\r\n    Investment storage investment = userInvestments[msg.sender][_investmentId];\r\n    uint256 srcAmount;\r\n    if (_buy) {\r\n      srcAmount = totalFundsInWeis.mul(investment.stake).div(cToken.totalSupply());\r\n    } else {\r\n      srcAmount = investment.tokenAmount;\r\n    }\r\n    uint256 actualRate = __transactToken(investment.tokenAddress, srcAmount, _buy);\r\n    if (_buy) {\r\n      investment.buyPriceInWeis = actualRate;\r\n    } else {\r\n      investment.sellPriceInWeis = actualRate;\r\n    }\r\n  }\r\n\r\n  function __transactToken(address _tokenAddr, uint256 _srcAmount, bool _buy) internal returns(uint256 _actualRate) {\r\n    uint256 actualDestAmount;\r\n    uint256 beforeBalance;\r\n    address destAddr = _tokenAddr;\r\n    DetailedERC20 destToken = DetailedERC20(destAddr);\r\n\r\n    if (_buy) {\r\n      // Make buy orders\r\n\r\n      beforeBalance = this.balance;\r\n\r\n      // Do trade\r\n      actualDestAmount = kyber.trade.value(_srcAmount)(\r\n        ETH_TOKEN_ADDRESS,\r\n        _srcAmount,\r\n        destToken,\r\n        this,\r\n        MAX_QTY,\r\n        1,\r\n        0\r\n      );\r\n\r\n      // Record buy price\r\n      require(actualDestAmount > 0);\r\n      _actualRate = beforeBalance.sub(this.balance).mul(PRECISION).mul(10**uint256(destToken.decimals())).div(actualDestAmount.mul(10**18));\r\n    } else {\r\n      // Make sell orders\r\n\r\n      beforeBalance = destToken.balanceOf(this);\r\n\r\n      // Do trade\r\n      destToken.approve(kyberAddr, 0);\r\n      destToken.approve(kyberAddr, _srcAmount);\r\n      actualDestAmount = kyber.trade(\r\n        destToken,\r\n        _srcAmount,\r\n        ETH_TOKEN_ADDRESS,\r\n        this,\r\n        MAX_QTY,\r\n        1,\r\n        0\r\n      );\r\n      destToken.approve(kyberAddr, 0);\r\n\r\n      // Record sell price\r\n      require(beforeBalance > destToken.balanceOf(this));\r\n      _actualRate = actualDestAmount.mul(PRECISION).mul(10**18).div(beforeBalance.sub(destToken.balanceOf(this)).mul(10**uint256(destToken.decimals())));\r\n    }\r\n  }\r\n\r\n  function() public payable {\r\n    if (msg.sender != kyberAddr) {\r\n      revert();\r\n    }\r\n  }\r\n}",
  "sourcePath": "D:\\msi-cn\\Documents\\GitHub\\betoken\\eth\\contracts\\BetokenFund.sol",
  "compiler": {
    "name": "solc",
    "version": "0.4.19+commit.c4cbbb05.Emscripten.clang"
  },
  "schemaVersion": "2.0.0",
  "updatedAt": "2018-04-06T00:09:36.976Z"
}