{
  "contractName": "BetokenFund",
  "abi": [
    {
      "constant": true,
      "inputs": [],
      "name": "developerFeeRate",
      "outputs": [
        {
          "name": "",
          "type": "uint256"
        }
      ],
      "payable": false,
      "stateMutability": "view",
      "type": "function"
    },
    {
      "constant": true,
      "inputs": [],
      "name": "totalFundsInDAI",
      "outputs": [
        {
          "name": "",
          "type": "uint256"
        }
      ],
      "payable": false,
      "stateMutability": "view",
      "type": "function"
    },
    {
      "constant": true,
      "inputs": [
        {
          "name": "",
          "type": "address"
        }
      ],
      "name": "isMaliciousCoin",
      "outputs": [
        {
          "name": "",
          "type": "bool"
        }
      ],
      "payable": false,
      "stateMutability": "view",
      "type": "function"
    },
    {
      "constant": true,
      "inputs": [],
      "name": "allowEmergencyWithdraw",
      "outputs": [
        {
          "name": "",
          "type": "bool"
        }
      ],
      "payable": false,
      "stateMutability": "view",
      "type": "function"
    },
    {
      "constant": true,
      "inputs": [],
      "name": "developerFeeAccount",
      "outputs": [
        {
          "name": "",
          "type": "address"
        }
      ],
      "payable": false,
      "stateMutability": "view",
      "type": "function"
    },
    {
      "constant": true,
      "inputs": [],
      "name": "assetFeeRate",
      "outputs": [
        {
          "name": "",
          "type": "uint256"
        }
      ],
      "payable": false,
      "stateMutability": "view",
      "type": "function"
    },
    {
      "constant": true,
      "inputs": [],
      "name": "startTimeOfCyclePhase",
      "outputs": [
        {
          "name": "",
          "type": "uint256"
        }
      ],
      "payable": false,
      "stateMutability": "view",
      "type": "function"
    },
    {
      "constant": true,
      "inputs": [],
      "name": "cycleNumber",
      "outputs": [
        {
          "name": "",
          "type": "uint256"
        }
      ],
      "payable": false,
      "stateMutability": "view",
      "type": "function"
    },
    {
      "constant": false,
      "inputs": [],
      "name": "unpause",
      "outputs": [],
      "payable": false,
      "stateMutability": "nonpayable",
      "type": "function"
    },
    {
      "constant": true,
      "inputs": [],
      "name": "paused",
      "outputs": [
        {
          "name": "",
          "type": "bool"
        }
      ],
      "payable": false,
      "stateMutability": "view",
      "type": "function"
    },
    {
      "constant": true,
      "inputs": [],
      "name": "commissionRate",
      "outputs": [
        {
          "name": "",
          "type": "uint256"
        }
      ],
      "payable": false,
      "stateMutability": "view",
      "type": "function"
    },
    {
      "constant": true,
      "inputs": [],
      "name": "functionCallReward",
      "outputs": [
        {
          "name": "",
          "type": "uint256"
        }
      ],
      "payable": false,
      "stateMutability": "view",
      "type": "function"
    },
    {
      "constant": true,
      "inputs": [],
      "name": "daiAddr",
      "outputs": [
        {
          "name": "",
          "type": "address"
        }
      ],
      "payable": false,
      "stateMutability": "view",
      "type": "function"
    },
    {
      "constant": true,
      "inputs": [
        {
          "name": "",
          "type": "address"
        }
      ],
      "name": "lastCommissionRedemption",
      "outputs": [
        {
          "name": "",
          "type": "uint256"
        }
      ],
      "payable": false,
      "stateMutability": "view",
      "type": "function"
    },
    {
      "constant": false,
      "inputs": [],
      "name": "pause",
      "outputs": [],
      "payable": false,
      "stateMutability": "nonpayable",
      "type": "function"
    },
    {
      "constant": true,
      "inputs": [],
      "name": "owner",
      "outputs": [
        {
          "name": "",
          "type": "address"
        }
      ],
      "payable": false,
      "stateMutability": "view",
      "type": "function"
    },
    {
      "constant": true,
      "inputs": [
        {
          "name": "",
          "type": "address"
        },
        {
          "name": "",
          "type": "uint256"
        }
      ],
      "name": "userInvestments",
      "outputs": [
        {
          "name": "tokenAddress",
          "type": "address"
        },
        {
          "name": "cycleNumber",
          "type": "uint256"
        },
        {
          "name": "stake",
          "type": "uint256"
        },
        {
          "name": "tokenAmount",
          "type": "uint256"
        },
        {
          "name": "buyPrice",
          "type": "uint256"
        },
        {
          "name": "sellPrice",
          "type": "uint256"
        },
        {
          "name": "isSold",
          "type": "bool"
        }
      ],
      "payable": false,
      "stateMutability": "view",
      "type": "function"
    },
    {
      "constant": true,
      "inputs": [],
      "name": "kyberAddr",
      "outputs": [
        {
          "name": "",
          "type": "address"
        }
      ],
      "payable": false,
      "stateMutability": "view",
      "type": "function"
    },
    {
      "constant": true,
      "inputs": [],
      "name": "exitFeeRate",
      "outputs": [
        {
          "name": "",
          "type": "uint256"
        }
      ],
      "payable": false,
      "stateMutability": "view",
      "type": "function"
    },
    {
      "constant": true,
      "inputs": [],
      "name": "totalCommission",
      "outputs": [
        {
          "name": "",
          "type": "uint256"
        }
      ],
      "payable": false,
      "stateMutability": "view",
      "type": "function"
    },
    {
      "constant": true,
      "inputs": [],
      "name": "shareTokenAddr",
      "outputs": [
        {
          "name": "",
          "type": "address"
        }
      ],
      "payable": false,
      "stateMutability": "view",
      "type": "function"
    },
    {
      "constant": true,
      "inputs": [],
      "name": "previousVersion",
      "outputs": [
        {
          "name": "",
          "type": "address"
        }
      ],
      "payable": false,
      "stateMutability": "view",
      "type": "function"
    },
    {
      "constant": true,
      "inputs": [],
      "name": "controlTokenAddr",
      "outputs": [
        {
          "name": "",
          "type": "address"
        }
      ],
      "payable": false,
      "stateMutability": "view",
      "type": "function"
    },
    {
      "constant": false,
      "inputs": [
        {
          "name": "newOwner",
          "type": "address"
        }
      ],
      "name": "transferOwnership",
      "outputs": [],
      "payable": false,
      "stateMutability": "nonpayable",
      "type": "function"
    },
    {
      "constant": true,
      "inputs": [],
      "name": "cyclePhase",
      "outputs": [
        {
          "name": "",
          "type": "uint8"
        }
      ],
      "payable": false,
      "stateMutability": "view",
      "type": "function"
    },
    {
      "inputs": [
        {
          "name": "_cTokenAddr",
          "type": "address"
        },
        {
          "name": "_sTokenAddr",
          "type": "address"
        },
        {
          "name": "_kyberAddr",
          "type": "address"
        },
        {
          "name": "_daiAddr",
          "type": "address"
        },
        {
          "name": "_developerFeeAccount",
          "type": "address"
        },
        {
          "name": "_phaseLengths",
          "type": "uint256[3]"
        },
        {
          "name": "_commissionRate",
          "type": "uint256"
        },
        {
          "name": "_assetFeeRate",
          "type": "uint256"
        },
        {
          "name": "_developerFeeRate",
          "type": "uint256"
        },
        {
          "name": "_exitFeeRate",
          "type": "uint256"
        },
        {
          "name": "_functionCallReward",
          "type": "uint256"
        },
        {
          "name": "_previousVersion",
          "type": "address"
        }
      ],
      "payable": false,
      "stateMutability": "nonpayable",
      "type": "constructor"
    },
    {
      "payable": true,
      "stateMutability": "payable",
      "type": "fallback"
    },
    {
      "anonymous": false,
      "inputs": [
        {
          "indexed": true,
          "name": "_cycleNumber",
          "type": "uint256"
        },
        {
          "indexed": true,
          "name": "_newPhase",
          "type": "uint256"
        },
        {
          "indexed": false,
          "name": "_timestamp",
          "type": "uint256"
        }
      ],
      "name": "ChangedPhase",
      "type": "event"
    },
    {
      "anonymous": false,
      "inputs": [
        {
          "indexed": true,
          "name": "_cycleNumber",
          "type": "uint256"
        },
        {
          "indexed": true,
          "name": "_sender",
          "type": "address"
        },
        {
          "indexed": false,
          "name": "_tokenAddress",
          "type": "address"
        },
        {
          "indexed": false,
          "name": "_tokenAmount",
          "type": "uint256"
        },
        {
          "indexed": false,
          "name": "_daiAmount",
          "type": "uint256"
        },
        {
          "indexed": false,
          "name": "_timestamp",
          "type": "uint256"
        }
      ],
      "name": "Deposit",
      "type": "event"
    },
    {
      "anonymous": false,
      "inputs": [
        {
          "indexed": true,
          "name": "_cycleNumber",
          "type": "uint256"
        },
        {
          "indexed": true,
          "name": "_sender",
          "type": "address"
        },
        {
          "indexed": false,
          "name": "_tokenAddress",
          "type": "address"
        },
        {
          "indexed": false,
          "name": "_tokenAmount",
          "type": "uint256"
        },
        {
          "indexed": false,
          "name": "daiAmount",
          "type": "uint256"
        },
        {
          "indexed": false,
          "name": "_timestamp",
          "type": "uint256"
        }
      ],
      "name": "Withdraw",
      "type": "event"
    },
    {
      "anonymous": false,
      "inputs": [
        {
          "indexed": true,
          "name": "_cycleNumber",
          "type": "uint256"
        },
        {
          "indexed": true,
          "name": "_sender",
          "type": "address"
        },
        {
          "indexed": false,
          "name": "_id",
          "type": "uint256"
        },
        {
          "indexed": false,
          "name": "_tokenAddress",
          "type": "address"
        },
        {
          "indexed": false,
          "name": "_stakeInWeis",
          "type": "uint256"
        },
        {
          "indexed": false,
          "name": "_buyPrice",
          "type": "uint256"
        },
        {
          "indexed": false,
          "name": "_costDAIAmount",
          "type": "uint256"
        }
      ],
      "name": "CreatedInvestment",
      "type": "event"
    },
    {
      "anonymous": false,
      "inputs": [
        {
          "indexed": true,
          "name": "_cycleNumber",
          "type": "uint256"
        },
        {
          "indexed": true,
          "name": "_sender",
          "type": "address"
        },
        {
          "indexed": false,
          "name": "_investmentId",
          "type": "uint256"
        },
        {
          "indexed": false,
          "name": "_receivedKairos",
          "type": "uint256"
        },
        {
          "indexed": false,
          "name": "_sellPrice",
          "type": "uint256"
        },
        {
          "indexed": false,
          "name": "_earnedDAIAmount",
          "type": "uint256"
        }
      ],
      "name": "SoldInvestment",
      "type": "event"
    },
    {
      "anonymous": false,
      "inputs": [
        {
          "indexed": true,
          "name": "_cycleNumber",
          "type": "uint256"
        },
        {
          "indexed": false,
          "name": "_beforeTotalFunds",
          "type": "uint256"
        },
        {
          "indexed": false,
          "name": "_afterTotalFunds",
          "type": "uint256"
        }
      ],
      "name": "ROI",
      "type": "event"
    },
    {
      "anonymous": false,
      "inputs": [
        {
          "indexed": true,
          "name": "_cycleNumber",
          "type": "uint256"
        },
        {
          "indexed": true,
          "name": "_sender",
          "type": "address"
        },
        {
          "indexed": false,
          "name": "_commission",
          "type": "uint256"
        }
      ],
      "name": "CommissionPaid",
      "type": "event"
    },
    {
      "anonymous": false,
      "inputs": [
        {
          "indexed": true,
          "name": "_cycleNumber",
          "type": "uint256"
        },
        {
          "indexed": false,
          "name": "_totalCommissionInWeis",
          "type": "uint256"
        }
      ],
      "name": "TotalCommissionPaid",
      "type": "event"
    },
    {
      "anonymous": false,
      "inputs": [],
      "name": "Pause",
      "type": "event"
    },
    {
      "anonymous": false,
      "inputs": [],
      "name": "Unpause",
      "type": "event"
    },
    {
      "anonymous": false,
      "inputs": [
        {
          "indexed": true,
          "name": "previousOwner",
          "type": "address"
        },
        {
          "indexed": true,
          "name": "newOwner",
          "type": "address"
        }
      ],
      "name": "OwnershipTransferred",
      "type": "event"
    },
    {
      "constant": true,
      "inputs": [
        {
          "name": "_userAddr",
          "type": "address"
        }
      ],
      "name": "investmentsCount",
      "outputs": [
        {
          "name": "_count",
          "type": "uint256"
        }
      ],
      "payable": false,
      "stateMutability": "view",
      "type": "function"
    },
    {
      "constant": true,
      "inputs": [
        {
          "name": "_userAddr",
          "type": "address"
        },
        {
          "name": "_id",
          "type": "uint256"
        }
      ],
      "name": "investments",
      "outputs": [
        {
          "components": [
            {
              "name": "tokenAddress",
              "type": "address"
            },
            {
              "name": "cycleNumber",
              "type": "uint256"
            },
            {
              "name": "stake",
              "type": "uint256"
            },
            {
              "name": "tokenAmount",
              "type": "uint256"
            },
            {
              "name": "buyPrice",
              "type": "uint256"
            },
            {
              "name": "sellPrice",
              "type": "uint256"
            },
            {
              "name": "isSold",
              "type": "bool"
            }
          ],
          "name": "_investment",
          "type": "tuple"
        }
      ],
      "payable": false,
      "stateMutability": "view",
      "type": "function"
    },
    {
      "constant": true,
      "inputs": [],
      "name": "getPhaseLengths",
      "outputs": [
        {
          "name": "_phaseLengths",
          "type": "uint256[3]"
        }
      ],
      "payable": false,
      "stateMutability": "view",
      "type": "function"
    },
    {
      "constant": false,
      "inputs": [
        {
          "name": "_tokenAddr",
          "type": "address"
        }
      ],
      "name": "emergencyDumpToken",
      "outputs": [],
      "payable": false,
      "stateMutability": "nonpayable",
      "type": "function"
    },
    {
      "constant": false,
      "inputs": [
        {
          "name": "_investmentId",
          "type": "uint256"
        }
      ],
      "name": "emergencyRedeemStake",
      "outputs": [],
      "payable": false,
      "stateMutability": "nonpayable",
      "type": "function"
    },
    {
      "constant": false,
      "inputs": [],
      "name": "emergencyUpdateBalance",
      "outputs": [],
      "payable": false,
      "stateMutability": "nonpayable",
      "type": "function"
    },
    {
      "constant": false,
      "inputs": [
        {
          "name": "_newVal",
          "type": "bool"
        }
      ],
      "name": "setAllowEmergencyWithdraw",
      "outputs": [],
      "payable": false,
      "stateMutability": "nonpayable",
      "type": "function"
    },
    {
      "constant": false,
      "inputs": [],
      "name": "emergencyWithdraw",
      "outputs": [],
      "payable": false,
      "stateMutability": "nonpayable",
      "type": "function"
    },
    {
      "constant": false,
      "inputs": [
        {
          "name": "_newAddr",
          "type": "address"
        }
      ],
      "name": "changeKyberNetworkAddress",
      "outputs": [],
      "payable": false,
      "stateMutability": "nonpayable",
      "type": "function"
    },
    {
      "constant": false,
      "inputs": [
        {
          "name": "_newAddr",
          "type": "address"
        }
      ],
      "name": "changeDeveloperFeeAccount",
      "outputs": [],
      "payable": false,
      "stateMutability": "nonpayable",
      "type": "function"
    },
    {
      "constant": false,
      "inputs": [
        {
          "name": "_newAddr",
          "type": "address"
        }
      ],
      "name": "changeDAIAddress",
      "outputs": [],
      "payable": false,
      "stateMutability": "nonpayable",
      "type": "function"
    },
    {
      "constant": false,
      "inputs": [
        {
          "name": "_newProp",
          "type": "uint256"
        }
      ],
      "name": "changeCommissionRate",
      "outputs": [],
      "payable": false,
      "stateMutability": "nonpayable",
      "type": "function"
    },
    {
      "constant": false,
      "inputs": [
        {
          "name": "_newProp",
          "type": "uint256"
        }
      ],
      "name": "changeAssetFeeRate",
      "outputs": [],
      "payable": false,
      "stateMutability": "nonpayable",
      "type": "function"
    },
    {
      "constant": false,
      "inputs": [
        {
          "name": "_newProp",
          "type": "uint256"
        }
      ],
      "name": "changeDeveloperFeeProportion",
      "outputs": [],
      "payable": false,
      "stateMutability": "nonpayable",
      "type": "function"
    },
    {
      "constant": false,
      "inputs": [
        {
          "name": "_newProp",
          "type": "uint256"
        }
      ],
      "name": "changeExitFeeRate",
      "outputs": [],
      "payable": false,
      "stateMutability": "nonpayable",
      "type": "function"
    },
    {
      "constant": false,
      "inputs": [
        {
          "name": "_newVal",
          "type": "uint256"
        }
      ],
      "name": "changeCallReward",
      "outputs": [],
      "payable": false,
      "stateMutability": "nonpayable",
      "type": "function"
    },
    {
      "constant": false,
      "inputs": [
        {
          "name": "_newVal",
          "type": "uint256[3]"
        }
      ],
      "name": "changePhaseLengths",
      "outputs": [],
      "payable": false,
      "stateMutability": "nonpayable",
      "type": "function"
    },
    {
      "constant": false,
      "inputs": [
        {
          "name": "_newOwner",
          "type": "address"
        }
      ],
      "name": "changeControlTokenOwner",
      "outputs": [],
      "payable": false,
      "stateMutability": "nonpayable",
      "type": "function"
    },
    {
      "constant": false,
      "inputs": [
        {
          "name": "_coin",
          "type": "address"
        },
        {
          "name": "_status",
          "type": "bool"
        }
      ],
      "name": "setMaliciousCoinStatus",
      "outputs": [],
      "payable": false,
      "stateMutability": "nonpayable",
      "type": "function"
    },
    {
      "constant": false,
      "inputs": [],
      "name": "nextPhase",
      "outputs": [],
      "payable": false,
      "stateMutability": "nonpayable",
      "type": "function"
    },
    {
      "constant": false,
      "inputs": [],
      "name": "deposit",
      "outputs": [],
      "payable": true,
      "stateMutability": "payable",
      "type": "function"
    },
    {
      "constant": false,
      "inputs": [
        {
          "name": "_tokenAddr",
          "type": "address"
        },
        {
          "name": "_tokenAmount",
          "type": "uint256"
        }
      ],
      "name": "depositToken",
      "outputs": [],
      "payable": false,
      "stateMutability": "nonpayable",
      "type": "function"
    },
    {
      "constant": false,
      "inputs": [
        {
          "name": "_amountInDAI",
          "type": "uint256"
        }
      ],
      "name": "withdraw",
      "outputs": [],
      "payable": false,
      "stateMutability": "nonpayable",
      "type": "function"
    },
    {
      "constant": false,
      "inputs": [
        {
          "name": "_tokenAddr",
          "type": "address"
        },
        {
          "name": "_amountInDAI",
          "type": "uint256"
        }
      ],
      "name": "withdrawToken",
      "outputs": [],
      "payable": false,
      "stateMutability": "nonpayable",
      "type": "function"
    },
    {
      "constant": false,
      "inputs": [
        {
          "name": "_tokenAddress",
          "type": "address"
        },
        {
          "name": "_stake",
          "type": "uint256"
        }
      ],
      "name": "createInvestment",
      "outputs": [],
      "payable": false,
      "stateMutability": "nonpayable",
      "type": "function"
    },
    {
      "constant": false,
      "inputs": [
        {
          "name": "_investmentId",
          "type": "uint256"
        }
      ],
      "name": "sellInvestmentAsset",
      "outputs": [],
      "payable": false,
      "stateMutability": "nonpayable",
      "type": "function"
    },
    {
      "constant": false,
      "inputs": [],
      "name": "redeemCommission",
      "outputs": [],
      "payable": false,
      "stateMutability": "nonpayable",
      "type": "function"
    },
    {
      "constant": false,
      "inputs": [],
      "name": "redeemCommissionInShares",
      "outputs": [],
      "payable": false,
      "stateMutability": "nonpayable",
      "type": "function"
    },
    {
      "constant": false,
      "inputs": [
        {
          "name": "_tokenAddr",
          "type": "address"
        }
      ],
      "name": "sellLeftoverToken",
      "outputs": [],
      "payable": false,
      "stateMutability": "nonpayable",
      "type": "function"
    }
  ],
  "bytecode": "0x60606040526000805460a060020a60ff021916905534156200002057600080fd5b6040516101c08062004d3383398101604052808051919060200180519190602001805191906020018051919060200180519160208201916080018051919060200180519190602001805191906020018051919060200180519190602001805160008054600160a060020a03191633600160a060020a03161790559150670de0b6b3a76400009050620000c187866401000000006200027e8102620042711704565b10620000cc57600080fd5b8b600160006101000a815481600160a060020a030219169083600160a060020a031602179055508a600260006101000a815481600160a060020a030219169083600160a060020a0316021790555089600360006101000a815481600160a060020a030219169083600160a060020a0316021790555088600560006101000a815481600160a060020a030219169083600160a060020a031602179055508b601760016101000a815481600160a060020a030219169083600160a060020a031602179055508a601860006101000a815481600160a060020a030219169083600160a060020a0316021790555089601960006101000a815481600160a060020a030219169083600160a060020a0316021790555087600460006101000a815481600160a060020a030219169083600160a060020a031602179055508660119060036200021792919062000295565b50600a95909555600b93909355600c91909155600d5560006009556017805460ff19908116600217909155600e9190915560068054600160a060020a031916600160a060020a039093169290921790915560108054909116905550620002f8945050505050565b6000828201838110156200028e57fe5b9392505050565b8260038101928215620002c6579160200282015b82811115620002c6578251825591602001919060010190620002a9565b50620002d4929150620002d8565b5090565b620002f591905b80821115620002d45760008155600101620002df565b90565b614a2b80620003086000396000f30060606040526004361061026e5763ffffffff60e060020a600035041663013bcbfc811461028b5780630cba5355146102b05780630e1b1fda146102c357806311815223146102d957806312e1ee45146102f8578063173e770714610317578063192d619d146103365780631a2604a4146103495780631a26af7a1461037c5780631ab371fc1461038f5780631b8e2192146103be5780631f7f336f146103d15780632303b5b0146103e457806325f842c5146103fa5780632e1a7d4d1461040d5780632f88471014610423578063338b5dea146104365780633e2f2b19146104585780633e6d97701461046e5780633eadb6db146104905780633f4ba83a146104a3578063407fa2a3146104b65780635c975abb146105015780635d4c3224146105145780635ea1d6f81461052c578063612d194d1461053f57806364542e3e146105525780636642642a1461056857806368063a741461057e578063749b7a3c1461059d57806374fa0a63146105d65780637fa61e14146105e9578063821f9824146105ff5780638456cb591461061e5780638da5cb5b146106315780639244adcd146106445780639b4ef376146106ae5780639e281a98146106d2578063a7c4dccf146106f4578063ab4df16814610707578063b18e8a8d14610726578063b2637f6514610745578063b6106f3f14610758578063c0320dbc1461076b578063d0e30db01461077e578063d7615d3714610786578063d82277cc14610799578063db2e21bc146107bb578063db3d1ccf146107ce578063dc87454c146107e1578063e53ad2d0146107f4578063e7476abf1461080a578063f2fde38b14610829578063f6558b0014610848575b60035433600160a060020a0390811691161461028957600080fd5b005b341561029657600080fd5b61029e61087f565b60405190815260200160405180910390f35b34156102bb57600080fd5b61029e610885565b34156102ce57600080fd5b61028960043561088b565b34156102e457600080fd5b610289600160a060020a03600435166109a1565b341561030357600080fd5b610289600160a060020a0360043516610a15565b341561032257600080fd5b610289600160a060020a0360043516610af8565b341561034157600080fd5b610289610d7f565b341561035457600080fd5b610368600160a060020a03600435166110d8565b604051901515815260200160405180910390f35b341561038757600080fd5b6103686110ed565b341561039a57600080fd5b6103a26110f6565b604051600160a060020a03909116815260200160405180910390f35b34156103c957600080fd5b610289611105565b34156103dc57600080fd5b61029e6112b0565b34156103ef57600080fd5b6102896004356112b6565b341561040557600080fd5b61029e6112d6565b341561041857600080fd5b6102896004356112dc565b341561042e57600080fd5b61029e61168d565b341561044157600080fd5b610289600160a060020a0360043516602435611693565b341561046357600080fd5b610289600435611d59565b341561047957600080fd5b61029e600160a060020a0360043516602435611d87565b341561049b57600080fd5b610289611e23565b34156104ae57600080fd5b610289612170565b34156104c157600080fd5b6104c96121ef565b6040518082606080838360005b838110156104ee5780820151838201526020016104d6565b5050505090500191505060405180910390f35b341561050c57600080fd5b61036861222d565b341561051f57600080fd5b610289600435151561223d565b341561053757600080fd5b61029e612283565b341561054a57600080fd5b61029e612289565b341561055d57600080fd5b61028960043561228f565b341561057357600080fd5b6102896004356122bd565b341561058957600080fd5b61029e600160a060020a03600435166122dd565b34156105a857600080fd5b61028960046064816003606060405190810160405291908282606080828437509395506122fc945050505050565b34156105e157600080fd5b6103a2612328565b34156105f457600080fd5b610289600435612337565b341561060a57600080fd5b61029e600160a060020a0360043516612357565b341561062957600080fd5b610289612369565b341561063c57600080fd5b6103a26123ed565b341561064f57600080fd5b610666600160a060020a03600435166024356123fc565b604051600160a060020a03909716875260208701959095526040808701949094526060860192909252608085015260a084015290151560c083015260e0909101905180910390f35b34156106b957600080fd5b610289600160a060020a03600435166024351515612462565b34156106dd57600080fd5b610289600160a060020a03600435166024356124bd565b34156106ff57600080fd5b6103a2612a86565b341561071257600080fd5b610289600160a060020a0360043516612a95565b341561073157600080fd5b610289600160a060020a0360043516612b09565b341561075057600080fd5b610289612b5b565b341561076357600080fd5b61029e612c06565b341561077657600080fd5b61029e612c0c565b610289612c12565b341561079157600080fd5b6103a2613034565b34156107a457600080fd5b610289600160a060020a0360043516602435613043565b34156107c657600080fd5b610289613593565b34156107d957600080fd5b6103a2613899565b34156107ec57600080fd5b6103a26138a8565b34156107ff57600080fd5b6102896004356138b7565b341561081557600080fd5b610289600160a060020a0360043516613d40565b341561083457600080fd5b610289600160a060020a0360043516613dee565b341561085357600080fd5b61085b613e7c565b6040518082600281111561086b57fe5b60ff16815260200191505060405180910390f35b600c5481565b60085481565b60008054819060a060020a900460ff1615156108a657600080fd5b60105460ff1615156108b757600080fd5b600160a060020a03331660009081526015602052604090208054849081106108db57fe5b9060005260206000209060070201915060075482600101541415156108ff57600080fd5b5060028101546000811161091257600080fd5b6000600283018190556017546101009004600160a060020a03169063a9059cbb90339084906040516020015260405160e060020a63ffffffff8516028152600160a060020a0390921660048301526024820152604401602060405180830381600087803b151561098157600080fd5b6102c65a03f1151561099257600080fd5b50505060405180515050505050565b60005433600160a060020a039081169116146109bc57600080fd5b60005460a060020a900460ff1615156109d457600080fd5b600160a060020a03811615156109e957600080fd5b60038054600160a060020a03909216600160a060020a0319928316811790915560198054909216179055565b6000805433600160a060020a03908116911614610a3157600080fd5b60028060175460ff166002811115610a4557fe5b14610a4f57600080fd5b60005460a060020a900460ff161515610a6757600080fd5b829150610af28283600160a060020a03166370a082313060006040516020015260405160e060020a63ffffffff8416028152600160a060020a039091166004820152602401602060405180830381600087803b1515610ac557600080fd5b6102c65a03f11515610ad657600080fd5b5050506040518051601a54909150600160a060020a0316613e85565b50505050565b60008060028060175460ff166002811115610b0f57fe5b14610b1957600080fd5b600160a060020a038416600090815260166020526040902054849060ff1615610b4157600080fd5b600160a060020a0381166000805160206149e08339815191521415610b6557600080fd5b600081600160a060020a03166318160ddd6000604051602001526040518163ffffffff1660e060020a028152600401602060405180830381600087803b1515610bad57600080fd5b6102c65a03f11515610bbe57600080fd5b50505060405180519050111515610bd457600080fd5b60005460a060020a900460ff1615610beb57600080fd5b601a54600160a060020a03166370a082313060006040516020015260405160e060020a63ffffffff8416028152600160a060020a039091166004820152602401602060405180830381600087803b1515610c4457600080fd5b6102c65a03f11515610c5557600080fd5b5050506040518051600554909550869450600160a060020a03808616911614159050610c8057600080fd5b610cdb8384600160a060020a03166370a082313060006040516020015260405160e060020a63ffffffff8416028152600160a060020a039091166004820152602401602060405180830381600087803b1515610ac557600080fd5b50601a54610d7590610d66908690600160a060020a03166370a082313060006040516020015260405160e060020a63ffffffff8416028152600160a060020a039091166004820152602401602060405180830381600087803b1515610d3f57600080fd5b6102c65a03f11515610d5057600080fd5b505050604051805191905063ffffffff61425f16565b6008549063ffffffff61427116565b6008555050505050565b600060028060175460ff166002811115610d9557fe5b14610d9f57600080fd5b60005460a060020a900460ff1615610db657600080fd5b600754600160a060020a03331660009081526014602052604090205410610ddc57600080fd5b600754600160a060020a0333811660009081526014602052604080822093909355601754610efb93610100909104909216916318160ddd919051602001526040518163ffffffff1660e060020a028152600401602060405180830381600087803b1515610e4857600080fd5b6102c65a03f11515610e5957600080fd5b5050506040518051601754909150610eef906101009004600160a060020a03166370a082313360006040516020015260405160e060020a63ffffffff8416028152600160a060020a039091166004820152602401602060405180830381600087803b1515610ec657600080fd5b6102c65a03f11515610ed757600080fd5b5050506040518051600f54915063ffffffff61428b16565b9063ffffffff6142b616565b601854600854919350600160a060020a0316906340c10f19903390610f8190610eef856318160ddd6000604051602001526040518163ffffffff1660e060020a028152600401602060405180830381600087803b1515610f5a57600080fd5b6102c65a03f11515610f6b57600080fd5b505050604051805189915063ffffffff61428b16565b60006040516020015260405160e060020a63ffffffff8516028152600160a060020a0390921660048301526024820152604401602060405180830381600087803b1515610fcd57600080fd5b6102c65a03f11515610fde57600080fd5b50505060405180515050600854610ffb908363ffffffff61427116565b600855600160a060020a033316600090815260156020526040812061101f9161486f565b600754600554600160a060020a0333811692917f7ee7a1de9c18ce695c95b8b19fbdf26cce3544e3ca9e08c9f487776783d7599f91168580426040518085600160a060020a0316600160a060020a0316815260200184815260200183815260200182815260200194505050505060405180910390a333600160a060020a03166007547fec530ab710fdaa2b5968fe15f486992441a96f643219cf0150904aa5b9eedf828460405190815260200160405180910390a35050565b60166020526000908152604090205460ff1681565b60105460ff1681565b600454600160a060020a031681565b600060028060175460ff16600281111561111b57fe5b1461112557600080fd5b60005460a060020a900460ff161561113c57600080fd5b600754600160a060020a0333166000908152601460205260409020541061116257600080fd5b600754600160a060020a03338116600090815260146020526040808220939093556017546111ce93610100909104909216916318160ddd919051602001526040518163ffffffff1660e060020a028152600401602060405180830381600087803b1515610e4857600080fd5b601a54909250600160a060020a031663a9059cbb338460006040516020015260405160e060020a63ffffffff8516028152600160a060020a0390921660048301526024820152604401602060405180830381600087803b151561123057600080fd5b6102c65a03f1151561124157600080fd5b50505060405180515050600160a060020a033316600090815260156020526040812061126c9161486f565b33600160a060020a03166007547fec530ab710fdaa2b5968fe15f486992441a96f643219cf0150904aa5b9eedf828460405190815260200160405180910390a35050565b600b5481565b60005433600160a060020a039081169116146112d157600080fd5b600e55565b60095481565b600080808080808060175460ff1660028111156112f557fe5b146112ff57600080fd5b60005460a060020a900460ff161561131657600080fd5b601a54600160a060020a03308181163196509116906370a082319060006040516020015260405160e060020a63ffffffff8416028152600160a060020a039091166004820152602401602060405180830381600087803b151561137857600080fd5b6102c65a03f1151561138957600080fd5b5050506040518051601a549094506113ba9150600160a060020a0316886000805160206149e0833981519152613e85565b506113d5600160a060020a033016318563ffffffff61425f16565b601a5490965061145c90600160a060020a03166370a082313060006040516020015260405160e060020a63ffffffff8416028152600160a060020a039091166004820152602401602060405180830381600087803b151561143557600080fd5b6102c65a03f1151561144657600080fd5b505050604051805185915063ffffffff61425f16565b94506000851161146b57600080fd5b601854600854600160a060020a039091169063c00017869033906114f090610eef856318160ddd6000604051602001526040518163ffffffff1660e060020a028152600401602060405180830381600087803b15156114c957600080fd5b6102c65a03f115156114da57600080fd5b50505060405180518c915063ffffffff61428b16565b60006040516020015260405160e060020a63ffffffff8516028152600160a060020a0390921660048301526024820152604401602060405180830381600087803b151561153c57600080fd5b6102c65a03f1151561154d57600080fd5b5050506040518051505060085461156a908663ffffffff61425f16565b600855600d5461158f90670de0b6b3a764000090610eef90899063ffffffff61428b16565b600454909250600160a060020a031682156108fc0283604051600060405180830381858888f1935050505015156115c557600080fd5b6115d5868363ffffffff61425f16565b9550600160a060020a03331686156108fc0287604051600060405180830381858888f19350505050151561160857600080fd5b33600160a060020a03166007547fae96a66bcd5a00556ad548b9a949f8f45220d5859c013e5cedbddd6af8cf7b9d6000805160206149e08339815191528989426040518085600160a060020a0316600160a060020a0316815260200184815260200183815260200182815260200194505050505060405180910390a350505050505050565b60075481565b60008080808080808060175460ff1660028111156116ad57fe5b146116b757600080fd5b600160a060020a038916600090815260166020526040902054899060ff16156116df57600080fd5b600160a060020a0381166000805160206149e0833981519152141561170357600080fd5b600081600160a060020a03166318160ddd6000604051602001526040518163ffffffff1660e060020a028152600401602060405180830381600087803b151561174b57600080fd5b6102c65a03f1151561175c57600080fd5b5050506040518051905011151561177257600080fd5b60005460a060020a900460ff161561178957600080fd5b89975087600160a060020a03166323b872dd33308c60006040516020015260405160e060020a63ffffffff8616028152600160a060020a0393841660048201529190921660248201526044810191909152606401602060405180830381600087803b15156117f657600080fd5b6102c65a03f1151561180757600080fd5b50505060405180519050151561181c57600080fd5b600554600160a060020a038b81169116141561183d57889650889550611ad1565b87600160a060020a03166370a082313060006040516020015260405160e060020a63ffffffff8416028152600160a060020a039091166004820152602401602060405180830381600087803b151561189457600080fd5b6102c65a03f115156118a557600080fd5b5050506040518051601a54909650600160a060020a031690506370a082313060006040516020015260405160e060020a63ffffffff8416028152600160a060020a039091166004820152602401602060405180830381600087803b151561190b57600080fd5b6102c65a03f1151561191c57600080fd5b5050506040518051601a54909550611941915089908b90600160a060020a0316613e85565b506119c388600160a060020a03166370a082313060006040516020015260405160e060020a63ffffffff8416028152600160a060020a039091166004820152602401602060405180830381600087803b151561199c57600080fd5b6102c65a03f115156119ad57600080fd5b505050604051805187915063ffffffff61425f16565b95506119d5898763ffffffff61425f16565b92506000831115611a635787600160a060020a031663a9059cbb338560006040516020015260405160e060020a63ffffffff8516028152600160a060020a0390921660048301526024820152604401602060405180830381600087803b1515611a3d57600080fd5b6102c65a03f11515611a4e57600080fd5b505050604051805190501515611a6357600080fd5b601a54611ac2908590600160a060020a03166370a082313060006040516020015260405160e060020a63ffffffff8416028152600160a060020a039091166004820152602401602060405180830381600087803b1515610d3f57600080fd5b965060008711611ad157600080fd5b60075460011415611b5c57601854600160a060020a03166340c10f19338960006040516020015260405160e060020a63ffffffff8516028152600160a060020a0390921660048301526024820152604401602060405180830381600087803b1515611b3b57600080fd5b6102c65a03f11515611b4c57600080fd5b5050506040518051905050611c49565b601854600854600160a060020a03909116906340c10f19903390611be190610eef856318160ddd6000604051602001526040518163ffffffff1660e060020a028152600401602060405180830381600087803b1515611bba57600080fd5b6102c65a03f11515611bcb57600080fd5b50505060405180518e915063ffffffff61428b16565b60006040516020015260405160e060020a63ffffffff8516028152600160a060020a0390921660048301526024820152604401602060405180830381600087803b1515611c2d57600080fd5b6102c65a03f11515611c3e57600080fd5b505050604051805150505b600854611c5c908863ffffffff61427116565b6008556017546101009004600160a060020a03166340c10f19338960006040516020015260405160e060020a63ffffffff8516028152600160a060020a0390921660048301526024820152604401602060405180830381600087803b1515611cc357600080fd5b6102c65a03f11515611cd457600080fd5b505050604051805190505033600160a060020a03166007547f7ee7a1de9c18ce695c95b8b19fbdf26cce3544e3ca9e08c9f487776783d7599f8c898b426040518085600160a060020a0316600160a060020a0316815260200184815260200183815260200182815260200194505050505060405180910390a350505050505050505050565b60005433600160a060020a03908116911614611d7457600080fd5b600d548110611d8257600080fd5b600d55565b611d8f614893565b600160a060020a0383166000908152601560205260409020805483908110611db357fe5b906000526020600020906007020160e060405190810160409081528254600160a060020a03168252600183015460208301526002830154908201526003820154606082015260048201546080820152600582015460a082015260069091015460ff16151560c08201529392505050565b60005460a060020a900460ff1615611e3a57600080fd5b601754611e6d9060119060ff166002811115611e5257fe5b60038110611e5c57fe5b01546009549063ffffffff61427116565b421015611e7957600080fd5b600260175460ff166002811115611e8c57fe5b1415611f7457600754611ea690600163ffffffff61427116565b6007556017546101009004600160a060020a0316635c975abb6000604051602001526040518163ffffffff1660e060020a028152600401602060405180830381600087803b1515611ef657600080fd5b6102c65a03f11515611f0757600080fd5b5050506040518051905015611f6f576017546101009004600160a060020a0316633f4ba83a6040518163ffffffff1660e060020a028152600401600060405180830381600087803b1515611f5a57600080fd5b6102c65a03f11515611f6b57600080fd5b5050505b612060565b600160175460ff166002811115611f8757fe5b1415612060576017546101009004600160a060020a031663f3123a3a6000604051602001526040518163ffffffff1660e060020a028152600401602060405180830381600087803b1515611fda57600080fd5b6102c65a03f11515611feb57600080fd5b50505060405180519050151561200057600080fd5b6017546101009004600160a060020a0316638456cb596040518163ffffffff1660e060020a028152600401600060405180830381600087803b151561204457600080fd5b6102c65a03f1151561205557600080fd5b5050506120606142cd565b60175460059060019060ff16600281111561207757fe5b08600281111561208357fe5b6017805460ff1916600183600281111561209957fe5b021790555042600955601754600e54610100909104600160a060020a0316906340c10f1990339060006040516020015260405160e060020a63ffffffff8516028152600160a060020a0390921660048301526024820152604401602060405180830381600087803b151561210c57600080fd5b6102c65a03f1151561211d57600080fd5b5050506040518051505060175460ff16600281111561213857fe5b6007547f9590d2eff92d0882635fb8e1412da02e41af0dc517cfd07520a03506eb65b0af4260405190815260200160405180910390a3565b60005433600160a060020a0390811691161461218b57600080fd5b60005460a060020a900460ff1615156121a357600080fd5b6000805474ff0000000000000000000000000000000000000000191690557f7805862f689e2f13df9f062ff482ad3ad112aca9e0847911ed832e158c525b3360405160405180910390a1565b6121f76148dc565b60116003606060405190810160405291906060830182845b81548152602001906001019080831161220f57505050505090505b90565b60005460a060020a900460ff1681565b60005433600160a060020a0390811691161461225857600080fd5b60005460a060020a900460ff16151561227057600080fd5b6010805460ff1916911515919091179055565b600a5481565b600e5481565b60005433600160a060020a039081169116146122aa57600080fd5b600c5481106122b857600080fd5b600c55565b60005433600160a060020a039081169116146122d857600080fd5b600a55565b600160a060020a0381166000908152601560205260409020545b919050565b60005433600160a060020a0390811691161461231757600080fd5b6123246011826003614903565b5050565b600554600160a060020a031681565b60005433600160a060020a0390811691161461235257600080fd5b600b55565b60146020526000908152604090205481565b60005433600160a060020a0390811691161461238457600080fd5b60005460a060020a900460ff161561239b57600080fd5b6000805474ff0000000000000000000000000000000000000000191660a060020a1790557f6985a02210a168e66602d3235cb6db0e70f92b3ba4d376a33c0f3d9434bff62560405160405180910390a1565b600054600160a060020a031681565b60156020528160005260406000208181548110151561241757fe5b60009182526020909120600790910201805460018201546002830154600384015460048501546005860154600690960154600160a060020a0390951697509295509093909260ff1687565b60005433600160a060020a0390811691161461247d57600080fd5b600160a060020a038216151561249257600080fd5b600160a060020a03919091166000908152601660205260409020805460ff1916911515919091179055565b60008080808080808060175460ff1660028111156124d757fe5b146124e157600080fd5b600160a060020a038916600090815260166020526040902054899060ff161561250957600080fd5b600160a060020a0381166000805160206149e0833981519152141561252d57600080fd5b600081600160a060020a03166318160ddd6000604051602001526040518163ffffffff1660e060020a028152600401602060405180830381600087803b151561257557600080fd5b6102c65a03f1151561258657600080fd5b5050506040518051905011151561259c57600080fd5b60005460a060020a900460ff16156125b357600080fd5b600754600114156125c357600080fd5b6005548a9850600160a060020a03808a16911614156125e7578895508896506127db565b87600160a060020a03166370a082313060006040516020015260405160e060020a63ffffffff8416028152600160a060020a039091166004820152602401602060405180830381600087803b151561263e57600080fd5b6102c65a03f1151561264f57600080fd5b5050506040518051601a54909650600160a060020a031690506370a082313060006040516020015260405160e060020a63ffffffff8416028152600160a060020a039091166004820152602401602060405180830381600087803b15156126b557600080fd5b6102c65a03f115156126c657600080fd5b5050506040518051601a549095506126e99150600160a060020a03168a8a613e85565b506127458589600160a060020a03166370a082313060006040516020015260405160e060020a63ffffffff8416028152600160a060020a039091166004820152602401602060405180830381600087803b1515610d3f57600080fd5b601a549097506127cc90600160a060020a03166370a082313060006040516020015260405160e060020a63ffffffff8416028152600160a060020a039091166004820152602401602060405180830381600087803b15156127a557600080fd5b6102c65a03f115156127b657600080fd5b505050604051805186915063ffffffff61425f16565b9550600086116127db57600080fd5b601854600854600160a060020a039091169063c000178690339061286090610eef856318160ddd6000604051602001526040518163ffffffff1660e060020a028152600401602060405180830381600087803b151561283957600080fd5b6102c65a03f1151561284a57600080fd5b50505060405180518d915063ffffffff61428b16565b60006040516020015260405160e060020a63ffffffff8516028152600160a060020a0390921660048301526024820152604401602060405180830381600087803b15156128ac57600080fd5b6102c65a03f115156128bd57600080fd5b505050604051805150506008546128da908763ffffffff61425f16565b600855600d546128ff90670de0b6b3a764000090610eef908a9063ffffffff61428b16565b600454909350600160a060020a03808a169163a9059cbb91168560006040516020015260405160e060020a63ffffffff8516028152600160a060020a0390921660048301526024820152604401602060405180830381600087803b151561296557600080fd5b6102c65a03f1151561297657600080fd5b5050506040518051506129919050878463ffffffff61425f16565b965087600160a060020a031663a9059cbb338960006040516020015260405160e060020a63ffffffff8516028152600160a060020a0390921660048301526024820152604401602060405180830381600087803b15156129f057600080fd5b6102c65a03f11515612a0157600080fd5b505050604051805190505033600160a060020a03166007547fae96a66bcd5a00556ad548b9a949f8f45220d5859c013e5cedbddd6af8cf7b9d8c8a8a426040518085600160a060020a0316600160a060020a0316815260200184815260200183815260200182815260200194505050505060405180910390a350505050505050505050565b600354600160a060020a031681565b60005433600160a060020a03908116911614612ab057600080fd5b60005460a060020a900460ff161515612ac857600080fd5b600160a060020a0381161515612add57600080fd5b60058054600160a060020a03909216600160a060020a03199283168117909155601a8054909216179055565b60005433600160a060020a03908116911614612b2457600080fd5b600160a060020a0381161515612b3957600080fd5b60048054600160a060020a031916600160a060020a0392909216919091179055565b60005433600160a060020a03908116911614612b7657600080fd5b60005460a060020a900460ff161515612b8e57600080fd5b601a54600160a060020a03166370a082313060006040516020015260405160e060020a63ffffffff8416028152600160a060020a039091166004820152602401602060405180830381600087803b1515612be757600080fd5b6102c65a03f11515612bf857600080fd5b505050604051805160085550565b600d5481565b600f5481565b600080808080808060175460ff166002811115612c2b57fe5b14612c3557600080fd5b60005460a060020a900460ff1615612c4c57600080fd5b601a54600160a060020a03308181163196509116906370a082319060006040516020015260405160e060020a63ffffffff8416028152600160a060020a039091166004820152602401602060405180830381600087803b1515612cae57600080fd5b6102c65a03f11515612cbf57600080fd5b5050506040518051601a54909450612cf291506000805160206149e0833981519152903490600160a060020a0316613e85565b50612d0d84600160a060020a0330163163ffffffff61425f16565b9450612d1f348663ffffffff61425f16565b91506000821115612d5b57600160a060020a03331682156108fc0283604051600060405180830381858888f193505050501515612d5b57600080fd5b601a54612dba908490600160a060020a03166370a082313060006040516020015260405160e060020a63ffffffff8416028152600160a060020a039091166004820152602401602060405180830381600087803b1515610d3f57600080fd5b955060008611612dc957600080fd5b60075460011415612e5457601854600160a060020a03166340c10f19338860006040516020015260405160e060020a63ffffffff8516028152600160a060020a0390921660048301526024820152604401602060405180830381600087803b1515612e3357600080fd5b6102c65a03f11515612e4457600080fd5b5050506040518051905050612f1a565b601854600854600160a060020a03909116906340c10f19903390612eb290610eef856318160ddd6000604051602001526040518163ffffffff1660e060020a028152600401602060405180830381600087803b151561283957600080fd5b60006040516020015260405160e060020a63ffffffff8516028152600160a060020a0390921660048301526024820152604401602060405180830381600087803b1515612efe57600080fd5b6102c65a03f11515612f0f57600080fd5b505050604051805150505b600854612f2d908763ffffffff61427116565b6008556017546101009004600160a060020a03166340c10f19338860006040516020015260405160e060020a63ffffffff8516028152600160a060020a0390921660048301526024820152604401602060405180830381600087803b1515612f9457600080fd5b6102c65a03f11515612fa557600080fd5b505050604051805190505033600160a060020a03166007547f7ee7a1de9c18ce695c95b8b19fbdf26cce3544e3ca9e08c9f487776783d7599f6000805160206149e0833981519152888a426040518085600160a060020a0316600160a060020a0316815260200184815260200183815260200182815260200194505050505060405180910390a3505050505050565b600254600160a060020a031681565b600080808060018060175460ff16600281111561305c57fe5b1461306657600080fd5b600160a060020a038716600090815260166020526040902054879060ff161561308e57600080fd5b600160a060020a0381166000805160206149e083398151915214156130b257600080fd5b600081600160a060020a03166318160ddd6000604051602001526040518163ffffffff1660e060020a028152600401602060405180830381600087803b15156130fa57600080fd5b6102c65a03f1151561310b57600080fd5b5050506040518051905011151561312157600080fd5b60005460a060020a900460ff161561313857600080fd5b6017548896506101009004600160a060020a0316632bee7bde338960006040516020015260405160e060020a63ffffffff8516028152600160a060020a0390921660048301526024820152604401602060405180830381600087803b151561319f57600080fd5b6102c65a03f115156131b057600080fd5b5050506040518051905015156131c557600080fd5b600160a060020a03331660009081526015602052604090208054600181016131ed8382614941565b9160005260206000209060070201600060e06040519081016040908152600160a060020a038d168252600754602083015281018b90526000606082018190526080820181905260a0820181905260c082015291905081518154600160a060020a031916600160a060020a03919091161781556020820151816001015560408201518160020155606082015181600301556080820151816004015560a0820151816005015560c0820151600691909101805460ff19169115159190911790555050600160a060020a0386166370a082313060006040516020015260405160e060020a63ffffffff8416028152600160a060020a039091166004820152602401602060405180830381600087803b151561330457600080fd5b6102c65a03f1151561331557600080fd5b5050506040518051601a54909650600160a060020a031690506370a082313060006040516020015260405160e060020a63ffffffff8416028152600160a060020a039091166004820152602401602060405180830381600087803b151561337b57600080fd5b6102c65a03f1151561338c57600080fd5b5050506040518051905093506133b260016133a6336122dd565b9063ffffffff61425f16565b92506133bf836001614685565b61341a8587600160a060020a03166370a082313060006040516020015260405160e060020a63ffffffff8416028152600160a060020a039091166004820152602401602060405180830381600087803b1515610d3f57600080fd5b600160a060020a033316600090815260156020526040902080548590811061343e57fe5b90600052602060002090600702016003018190555033600160a060020a03166007547f889f8b8332780d1527bc9c13329f57e4eeac4aa8255a0e7d6af5ef7a8643018161348f60016133a6336122dd565b600160a060020a033316600090815260156020526040902080548d918d918a9081106134b757fe5b60009182526020822060046007909202010154601a54909161355191600160a060020a0316906370a082319030906040516020015260405160e060020a63ffffffff8416028152600160a060020a039091166004820152602401602060405180830381600087803b151561352a57600080fd5b6102c65a03f1151561353b57600080fd5b50505060405180518d915063ffffffff61425f16565b604051948552600160a060020a0390931660208501526040808501929092526060840152608083019190915260a0909101905180910390a35050505050505050565b6000805460a060020a900460ff1615156135ac57600080fd5b60105460ff1615156135bd57600080fd5b6018546136ac90600160a060020a03166318160ddd6000604051602001526040518163ffffffff1660e060020a028152600401602060405180830381600087803b151561360957600080fd5b6102c65a03f1151561361a57600080fd5b5050506040518051600854601854919250610eef91600160a060020a03166370a082313360006040516020015260405160e060020a63ffffffff8416028152600160a060020a039091166004820152602401602060405180830381600087803b151561368557600080fd5b6102c65a03f1151561369657600080fd5b505050604051805191905063ffffffff61428b16565b601854909150600160a060020a031663c000178633826370a082318260006040516020015260405160e060020a63ffffffff8416028152600160a060020a039091166004820152602401602060405180830381600087803b151561370f57600080fd5b6102c65a03f1151561372057600080fd5b5050506040518051905060006040516020015260405160e060020a63ffffffff8516028152600160a060020a0390921660048301526024820152604401602060405180830381600087803b151561377657600080fd5b6102c65a03f1151561378757600080fd5b505050604051805150506008546137a4908263ffffffff61425f16565b600855601a54600160a060020a031663a9059cbb338360006040516020015260405160e060020a63ffffffff8516028152600160a060020a0390921660048301526024820152604401602060405180830381600087803b151561380657600080fd5b6102c65a03f1151561381757600080fd5b50505060405180515050600754600554600160a060020a0333811692917fae96a66bcd5a00556ad548b9a949f8f45220d5859c013e5cedbddd6af8cf7b9d91168480426040518085600160a060020a0316600160a060020a0316815260200184815260200183815260200182815260200194505050505060405180910390a350565b600654600160a060020a031681565b600154600160a060020a031681565b600080808060018060175460ff1660028111156138d057fe5b146138da57600080fd5b60005460a060020a900460ff16156138f157600080fd5b600160a060020a033316600090815260156020526040902080548790811061391557fe5b906000526020600020906007020194506000856004015411151561393857600080fd5b60075460018601541461394a57600080fd5b600685015460ff161561395c57600080fd5b601a54600160a060020a03166370a082313060006040516020015260405160e060020a63ffffffff8416028152600160a060020a039091166004820152602401602060405180830381600087803b15156139b557600080fd5b6102c65a03f115156139c657600080fd5b5050506040518051905093506139dd866000614685565b60068501805460ff1916600117905560048501546005860154613a139190610eef90670de0b6b3a764000063ffffffff61428b16565b9250613a38670de0b6b3a7640000610eef85886002015461428b90919063ffffffff16565b91508460020154821115613b6f57601760019054906101000a9004600160a060020a0316600160a060020a031663a9059cbb33876002015460006040516020015260405160e060020a63ffffffff8516028152600160a060020a0390921660048301526024820152604401602060405180830381600087803b1515613abc57600080fd5b6102c65a03f11515613acd57600080fd5b505050604051805150506017546002860154610100909104600160a060020a0316906340c10f19903390613b0290869061425f565b60006040516020015260405160e060020a63ffffffff8516028152600160a060020a0390921660048301526024820152604401602060405180830381600087803b1515613b4e57600080fd5b6102c65a03f11515613b5f57600080fd5b5050506040518051905050613c7b565b6017546101009004600160a060020a031663a9059cbb338460006040516020015260405160e060020a63ffffffff8516028152600160a060020a0390921660048301526024820152604401602060405180830381600087803b1515613bd357600080fd5b6102c65a03f11515613be457600080fd5b505050604051805150506017546002860154610100909104600160a060020a0316906349f9f4d090613c16908561425f565b60006040516020015260405160e060020a63ffffffff84160281526004810191909152602401602060405180830381600087803b1515613c5557600080fd5b6102c65a03f11515613c6657600080fd5b505050604051805190501515613c7b57600080fd5b6007546005860154601a54600160a060020a0333811693927f7d92f4f6fffc42160fd0d9f56281733529e476a2c89c29c0a6fa0878cd85a9af928b92889291613d0e918c91166370a082313060006040516020015260405160e060020a63ffffffff8416028152600160a060020a039091166004820152602401602060405180830381600087803b1515610d3f57600080fd5b6040518085815260200184815260200183815260200182815260200194505050505060405180910390a3505050505050565b60005433600160a060020a03908116911614613d5b57600080fd5b60005460a060020a900460ff161515613d7357600080fd5b600160a060020a0381161515613d8857600080fd5b6017546101009004600160a060020a031663f2fde38b8260405160e060020a63ffffffff8416028152600160a060020a039091166004820152602401600060405180830381600087803b1515613ddd57600080fd5b6102c65a03f11515610af257600080fd5b60005433600160a060020a03908116911614613e0957600080fd5b600160a060020a0381161515613e1e57600080fd5b600054600160a060020a0380831691167f8be0079c531659141344cd1fd0a4f28419497f9722a3daafe3b4186f6b6457e060405160405180910390a360008054600160a060020a031916600160a060020a0392909216919091179055565b60175460ff1681565b6000808080600160a060020a0387166000805160206149e0833981519152146140215786600160a060020a03166370a082313060006040516020015260405160e060020a63ffffffff8416028152600160a060020a039091166004820152602401602060405180830381600087803b1515613eff57600080fd5b6102c65a03f11515613f1057600080fd5b505050604051805160035490935060009250600160a060020a03808a16925063095ea7b3911683806040516020015260405160e060020a63ffffffff8516028152600160a060020a0390921660048301526024820152604401602060405180830381600087803b1515613f8257600080fd5b6102c65a03f11515613f9357600080fd5b50505060405180515050600354600160a060020a038089169163095ea7b391168860006040516020015260405160e060020a63ffffffff8516028152600160a060020a0390921660048301526024820152604401602060405180830381600087803b151561400057600080fd5b6102c65a03f1151561401157600080fd5b5050506040518051905050614030565b5050600160a060020a03301631845b601954600160a060020a031663cb3c28c782898989306b204fce5e3e2502611000000060016000806040516020015260405160e060020a63ffffffff8b16028152600160a060020a039788166004820152602481019690965293861660448601529185166064850152608484015260a483015290911660c482015260e4016020604051808303818588803b15156140c657600080fd5b6125ee5a03f115156140d757600080fd5b505050506040518051935050600083116140f057600080fd5b600160a060020a0387166000805160206149e08339815191521461418d57600354600160a060020a038089169163095ea7b391166000806040516020015260405160e060020a63ffffffff8516028152600160a060020a0390921660048301526024820152604401602060405180830381600087803b151561417157600080fd5b6102c65a03f1151561418257600080fd5b505050604051805150505b6142546141ac61419c896147b9565b8590600a0a63ffffffff61428b16565b610eef6141b8886147b9565b600a0a614248670de0b6b3a76400006142488d600160a060020a03166370a082313060006040516020015260405160e060020a63ffffffff8416028152600160a060020a039091166004820152602401602060405180830381600087803b151561422157600080fd5b6102c65a03f1151561423257600080fd5b50505060405180518a915063ffffffff61425f16565b9063ffffffff61428b16565b979650505050505050565b60008282111561426b57fe5b50900390565b60008282018381101561428057fe5b8091505b5092915050565b60008083151561429e5760009150614284565b508282028284828115156142ae57fe5b041461428057fe5b60008082848115156142c457fe5b04949350505050565b600854601a546000918291829190600160a060020a03166370a0823130846040516020015260405160e060020a63ffffffff8416028152600160a060020a039091166004820152602401602060405180830381600087803b151561433057600080fd5b6102c65a03f1151561434157600080fd5b5050506040518051905011156143b557600854601a546143b29190600160a060020a03166370a082313060006040516020015260405160e060020a63ffffffff8416028152600160a060020a039091166004820152602401602060405180830381600087803b1515610d3f57600080fd5b92505b6143d6670de0b6b3a7640000610eef85600a5461428b90919063ffffffff16565b600f55601a546144809061447190670de0b6b3a764000090610eef90600160a060020a03166370a082313060006040516020015260405160e060020a63ffffffff8416028152600160a060020a039091166004820152602401602060405180830381600087803b151561444857600080fd5b6102c65a03f1151561445957600080fd5b5050506040518051600b54915063ffffffff61428b16565b600f549063ffffffff61427116565b600f55601a5461451790670de0b6b3a764000090610eef90600160a060020a03166370a082313060006040516020015260405160e060020a63ffffffff8416028152600160a060020a039091166004820152602401602060405180830381600087803b15156144ee57600080fd5b6102c65a03f115156144ff57600080fd5b5050506040518051600c54915063ffffffff61428b16565b600f54601a549193506145809184916133a691600160a060020a03166370a082313060006040516020015260405160e060020a63ffffffff8416028152600160a060020a039091166004820152602401602060405180830381600087803b1515610d3f57600080fd5b90506007547f13a18edb371d0a74be72de10b678893b96bc8a47e776bb122c59e21d53956fbd6008548360405191825260208201526040908101905180910390a26008819055601a54600454600160a060020a039182169163a9059cbb91168460006040516020015260405160e060020a63ffffffff8516028152600160a060020a0390921660048301526024820152604401602060405180830381600087803b151561462c57600080fd5b6102c65a03f1151561463d57600080fd5b50505060405180519050506007547f2f7da09d276ad6237b75476b806f4d8388b9228bd6fa45a7ca214fac5abdf7a3600f5460405190815260200160405180910390a2505050565b600160a060020a0333166000908152601560205260408120805482918291869081106146ad57fe5b90600052602060002090600702019250831561474f57601754614748906101009004600160a060020a03166318160ddd6000604051602001526040518163ffffffff1660e060020a028152600401602060405180830381600087803b151561471457600080fd5b6102c65a03f1151561472557600080fd5b50505060405180519050610eef856002015460085461428b90919063ffffffff16565b9150614757565b826003015491505b508154600160a060020a0316831561478a57601a5461478090600160a060020a03168383613e85565b60048401556147b2565b601a546147ac906147a79083908590600160a060020a0316613e85565b61484b565b60058401555b5050505050565b6000600160a060020a0382166000805160206149e083398151915214156147e2575060126122f7565b81600160a060020a031663313ce5676000604051602001526040518163ffffffff1660e060020a028152600401602060405180830381600087803b151561482857600080fd5b6102c65a03f1151561483957600080fd5b505050604051805160ff169392505050565b600061486982610eef670de0b6b3a76400008063ffffffff61428b16565b92915050565b50805460008255600702906000526020600020908101906148909190614972565b50565b60e0604051908101604052806000600160a060020a0316815260200160008152602001600081526020016000815260200160008152602001600081526020016000151581525090565b60606040519081016040526003815b60008152602001906001900390816148eb5790505090565b8260038101928215614931579160200282015b82811115614931578251825591602001919060010190614916565b5061493d9291506149c5565b5090565b81548183558181151161496d5760070281600702836000526020600020918201910161496d9190614972565b505050565b61222a91905b8082111561493d578054600160a060020a0319168155600060018201819055600282018190556003820181905560048201819055600582015560068101805460ff19169055600701614978565b61222a91905b8082111561493d57600081556001016149cb5600000000000000000000000000eeeeeeeeeeeeeeeeeeeeeeeeeeeeeeeeeeeeeeeea165627a7a72305820d5aa35ce1e349058dc17365db8a0ecab9d3cf90be59a708121d479831cfe05260029",
  "source": "pragma solidity ^0.4.18;\r\n\r\nimport 'zeppelin-solidity/contracts/math/SafeMath.sol';\r\nimport 'zeppelin-solidity/contracts/lifecycle/Pausable.sol';\r\nimport './ControlToken.sol';\r\nimport './ShareToken.sol';\r\nimport './KyberNetwork.sol';\r\nimport './Utils.sol';\r\n\r\n/**\r\n * @title The main smart contract of the Betoken hedge fund.\r\n * @author Zefram Lou (Zebang Liu)\r\n * @dev Need to remove Kairo minting before release\r\n */\r\ncontract BetokenFund is Pausable, Utils {\r\n  using SafeMath for uint256;\r\n\r\n  enum CyclePhase { DepositWithdraw, MakeDecisions, RedeemCommission }\r\n\r\n  struct Investment {\r\n    address tokenAddress;\r\n    uint256 cycleNumber;\r\n    uint256 stake;\r\n    uint256 tokenAmount;\r\n    uint256 buyPrice;\r\n    uint256 sellPrice;\r\n    bool isSold;\r\n  }\r\n\r\n  /**\r\n   * @notice Executes function only during the given cycle phase.\r\n   * @param phase the cycle phase during which the function may be called\r\n   */\r\n  modifier during(CyclePhase phase) {\r\n    require(cyclePhase == phase);\r\n    _;\r\n  }\r\n\r\n  /**\r\n   * @notice Checks if `token` is a valid token.\r\n   * @param token the token's address\r\n   */\r\n  modifier isValidToken(address token) {\r\n    require(!isMaliciousCoin[token]);\r\n    require(token != address(ETH_TOKEN_ADDRESS));\r\n    require(ERC20(token).totalSupply() > 0);\r\n    _;\r\n  }\r\n\r\n  // Address of the control token contract.\r\n  address public controlTokenAddr;\r\n\r\n  // Address of the share token contract.\r\n  address public shareTokenAddr;\r\n\r\n  // Address of the KyberNetwork contract\r\n  address public kyberAddr;\r\n\r\n  // Address to which the developer fees will be paid.\r\n  address public developerFeeAccount;\r\n\r\n  // Address of the DAI stable-coin contract.\r\n  address public daiAddr;\r\n\r\n  // Address of the previous version of BetokenFund.\r\n  address public previousVersion;\r\n\r\n  // The number of the current investment cycle.\r\n  uint256 public cycleNumber;\r\n\r\n  // The amount of funds held by the fund.\r\n  uint256 public totalFundsInDAI;\r\n\r\n  // The start time for the current investment cycle phase, in seconds since Unix epoch.\r\n  uint256 public startTimeOfCyclePhase;\r\n\r\n  // The proportion of the fund that gets distributed to Kairo holders every cycle. Fixed point decimal.\r\n  uint256 public commissionRate;\r\n\r\n  // The proportion of contract balance that gets distributed to Kairo holders every cycle. Fixed point decimal.\r\n  uint256 public assetFeeRate;\r\n\r\n  // The proportion of contract balance that goes the the devs every cycle. Fixed point decimal.\r\n  uint256 public developerFeeRate;\r\n\r\n  // The proportion of funds that goes the the devs during withdrawals. Fixed point decimal.\r\n  uint256 public exitFeeRate;\r\n\r\n  // Amount of Kairo rewarded to the user who calls a phase transition/investment handling function\r\n  uint256 public functionCallReward;\r\n\r\n  // Amount of commission to be paid out this cycle\r\n  uint256 public totalCommission;\r\n\r\n  // Flag for whether emergency withdrawing is allowed.\r\n  bool public allowEmergencyWithdraw;\r\n\r\n  // Stores the lengths of each cycle phase in seconds.\r\n  uint256[3] phaseLengths;\r\n\r\n  // The last cycle where a user redeemed commission.\r\n  mapping(address => uint256) public lastCommissionRedemption;\r\n\r\n  // List of investments in the current cycle.\r\n  mapping(address => Investment[]) public userInvestments;\r\n\r\n  // Records if a token's contract maliciously treats the BetokenFund differently when calling transfer(), transferFrom(), or approve().\r\n  mapping(address => bool) public isMaliciousCoin;\r\n\r\n  // The current cycle phase.\r\n  CyclePhase public cyclePhase;\r\n\r\n  // Contract instances\r\n  ControlToken internal cToken;\r\n  ShareToken internal sToken;\r\n  KyberNetwork internal kyber;\r\n  DetailedERC20 internal dai;\r\n\r\n  event ChangedPhase(uint256 indexed _cycleNumber, uint256 indexed _newPhase, uint256 _timestamp);\r\n\r\n  event Deposit(uint256 indexed _cycleNumber, address indexed _sender, address _tokenAddress, uint256 _tokenAmount, uint256 _daiAmount, uint256 _timestamp);\r\n  event Withdraw(uint256 indexed _cycleNumber, address indexed _sender, address _tokenAddress, uint256 _tokenAmount, uint256 daiAmount, uint256 _timestamp);\r\n\r\n  event CreatedInvestment(uint256 indexed _cycleNumber, address indexed _sender, uint256 _id, address _tokenAddress, uint256 _stakeInWeis, uint256 _buyPrice, uint256 _costDAIAmount);\r\n  event SoldInvestment(uint256 indexed _cycleNumber, address indexed _sender, uint256 _investmentId, uint256 _receivedKairos, uint256 _sellPrice, uint256 _earnedDAIAmount);\r\n\r\n  event ROI(uint256 indexed _cycleNumber, uint256 _beforeTotalFunds, uint256 _afterTotalFunds);\r\n  event CommissionPaid(uint256 indexed _cycleNumber, address indexed _sender, uint256 _commission);\r\n  event TotalCommissionPaid(uint256 indexed _cycleNumber, uint256 _totalCommissionInWeis);\r\n\r\n  /**\r\n   * Contract initialization functions\r\n   */\r\n\r\n  // Constructor\r\n  function BetokenFund(\r\n    address _cTokenAddr,\r\n    address _sTokenAddr,\r\n    address _kyberAddr,\r\n    address _daiAddr,\r\n    address _developerFeeAccount,\r\n    uint256[3] _phaseLengths,\r\n    uint256 _commissionRate,\r\n    uint256 _assetFeeRate,\r\n    uint256 _developerFeeRate,\r\n    uint256 _exitFeeRate,\r\n    uint256 _functionCallReward,\r\n    address _previousVersion\r\n  )\r\n    public\r\n  {\r\n    require(_commissionRate.add(_developerFeeRate) < 10**18);\r\n\r\n    controlTokenAddr = _cTokenAddr;\r\n    shareTokenAddr = _sTokenAddr;\r\n    kyberAddr = _kyberAddr;\r\n    daiAddr = _daiAddr;\r\n    cToken = ControlToken(_cTokenAddr);\r\n    sToken = ShareToken(_sTokenAddr);\r\n    kyber = KyberNetwork(_kyberAddr);\r\n\r\n    developerFeeAccount = _developerFeeAccount;\r\n    phaseLengths = _phaseLengths;\r\n    commissionRate = _commissionRate;\r\n    assetFeeRate = _assetFeeRate;\r\n    developerFeeRate = _developerFeeRate;\r\n    exitFeeRate = _exitFeeRate;\r\n    startTimeOfCyclePhase = 0;\r\n    cyclePhase = CyclePhase.RedeemCommission;\r\n    functionCallReward = _functionCallReward;\r\n    previousVersion = _previousVersion;\r\n    allowEmergencyWithdraw = false;\r\n  }\r\n\r\n  /**\r\n   * Getters\r\n   */\r\n\r\n  /**\r\n   * @notice Returns the length of the user's investments array.\r\n   * @return length of the user's investments array\r\n   */\r\n  function investmentsCount(address _userAddr) public view returns(uint256 _count) {\r\n    return userInvestments[_userAddr].length;\r\n  }\r\n\r\n  /**\r\n   * @notice Returns an item in the user's investments array.\r\n   * @return the specified investment\r\n   */\r\n  function investments(address _userAddr, uint256 _id) public view returns(Investment _investment) {\r\n    return userInvestments[_userAddr][_id];\r\n  }\r\n\r\n  /**\r\n   * @notice Returns the phaseLengths array.\r\n   * @return the phaseLengths array\r\n   */\r\n  function getPhaseLengths() public view returns(uint256[3] _phaseLengths) {\r\n    return phaseLengths;\r\n  }\r\n\r\n  /**\r\n   * Meta functions\r\n   */\r\n\r\n  /**\r\n   * Emergency functions\r\n   */\r\n\r\n  /**\r\n   * @notice Sells token in emergency situations. Only callable by owner.\r\n   * @param _tokenAddr the address of the token to be sold\r\n   */\r\n  function emergencyDumpToken(address _tokenAddr)\r\n    public\r\n    onlyOwner\r\n    during(CyclePhase.RedeemCommission)\r\n    whenPaused\r\n  {\r\n    DetailedERC20 token = DetailedERC20(_tokenAddr);\r\n    __kyberTrade(token, token.balanceOf(this), dai);\r\n  }\r\n\r\n  /**\r\n   * @notice Return staked Kairos for a investment under emergency situations. Should be called by users.\r\n   * @param _investmentId the ID of the investment\r\n   */\r\n  function emergencyRedeemStake(uint256 _investmentId) whenPaused public {\r\n    require(allowEmergencyWithdraw);\r\n    Investment storage investment = userInvestments[msg.sender][_investmentId];\r\n    require(investment.cycleNumber == cycleNumber);\r\n    uint256 stake = investment.stake;\r\n    require(stake > 0);\r\n    delete investment.stake;\r\n    cToken.transfer(msg.sender, stake);\r\n  }\r\n\r\n  /**\r\n   * @notice Updates the current fund balance. Only callable by owner.\r\n   */\r\n  function emergencyUpdateBalance() onlyOwner whenPaused public {\r\n    totalFundsInDAI = dai.balanceOf(this);\r\n  }\r\n\r\n  /**\r\n   * @notice Changes whether emergency withdrawals are allowed. Only callable by owner.\r\n   * @param _newVal the new value\r\n   */\r\n  function setAllowEmergencyWithdraw(bool _newVal) onlyOwner whenPaused public {\r\n    allowEmergencyWithdraw = _newVal;\r\n  }\r\n\r\n  /**\r\n   * @notice Function for withdrawing all funds in times of emergency. Only callable when fund is paused and allowEmergencyWithdraw is true.\r\n   */\r\n  function emergencyWithdraw()\r\n    public\r\n    whenPaused\r\n  {\r\n    require(allowEmergencyWithdraw);\r\n\r\n    uint256 amountInDAI = sToken.balanceOf(msg.sender).mul(totalFundsInDAI).div(sToken.totalSupply());\r\n    sToken.ownerBurn(msg.sender, sToken.balanceOf(msg.sender));\r\n    totalFundsInDAI = totalFundsInDAI.sub(amountInDAI);\r\n\r\n    // Transfer\r\n    dai.transfer(msg.sender, amountInDAI);\r\n\r\n    // Emit event\r\n    Withdraw(cycleNumber, msg.sender, daiAddr, amountInDAI, amountInDAI, now);\r\n  }\r\n\r\n  /**\r\n   * Parameter setters\r\n   */\r\n\r\n  /**\r\n   * @notice Changes the address of the KyberNetwork contract used in the contract. Only callable by owner.\r\n   * @param _newAddr the new address of KyberNetwork contract\r\n   */\r\n  function changeKyberNetworkAddress(address _newAddr) public onlyOwner whenPaused {\r\n    require(_newAddr != address(0));\r\n    kyberAddr = _newAddr;\r\n    kyber = KyberNetwork(_newAddr);\r\n  }\r\n\r\n  /**\r\n   * @notice Changes the address to which the developer fees will be sent. Only callable by owner.\r\n   * @param _newAddr the new developer fee address\r\n   */\r\n  function changeDeveloperFeeAccount(address _newAddr) public onlyOwner {\r\n    require(_newAddr != address(0));\r\n    developerFeeAccount = _newAddr;\r\n  }\r\n\r\n  /**\r\n  * @notice Changes the address of the DAI token smart contract. Only callable by owner.\r\n  * @param _newAddr the new DAI smart contract address\r\n  */\r\n  function changeDAIAddress(address _newAddr) public onlyOwner whenPaused {\r\n    require(_newAddr != address(0));\r\n    daiAddr = _newAddr;\r\n    dai = DetailedERC20(_newAddr);\r\n  }\r\n\r\n  /**\r\n   * @notice Changes the proportion of profits given to Kairo holders each cycle. Only callable by owner.\r\n   * @param _newProp the new proportion, fixed point decimal\r\n   */\r\n  function changeCommissionRate(uint256 _newProp) public onlyOwner {\r\n    commissionRate = _newProp;\r\n  }\r\n\r\n  /**\r\n  * @notice Changes the proportion of fund balance given to Kairo holders each cycle. Only callable by owner.\r\n  * @param _newProp the new proportion, fixed point decimal\r\n  */\r\n  function changeAssetFeeRate(uint256 _newProp) public onlyOwner {\r\n    assetFeeRate = _newProp;\r\n  }\r\n\r\n  /**\r\n   * @notice Changes the proportion of fund balance sent to the developers each cycle. May only decrease. Only callable by owner.\r\n   * @param _newProp the new proportion, fixed point decimal\r\n   */\r\n  function changeDeveloperFeeProportion(uint256 _newProp) public onlyOwner {\r\n    require(_newProp < developerFeeRate);\r\n    developerFeeRate = _newProp;\r\n  }\r\n\r\n  /**\r\n   * @notice Changes exit fee rate. May only decrease. Only callable by owner.\r\n   * @param _newProp the new proportion, fixed point decimal\r\n   */\r\n  function changeExitFeeRate(uint256 _newProp) public onlyOwner {\r\n    require(_newProp < exitFeeRate);\r\n    exitFeeRate = _newProp;\r\n  }\r\n\r\n  /**\r\n   * @notice Changes the amount of Kairo rewarded to whomever calls nextPhase() the first. Only callable by owner.\r\n   * @param _newVal the new reward value in Kairo, 18 decimals\r\n   */\r\n  function changeCallReward(uint256 _newVal) public onlyOwner {\r\n    functionCallReward = _newVal;\r\n  }\r\n\r\n  /**\r\n   * @notice Changes the lengths of the phases in an investment cycle. Only callable by owner.\r\n   * @param _newVal the new set of phase lengths, in the order of DepositWithdraw, MakeDecisions, RedeemCommission, in seconds\r\n   */\r\n  function changePhaseLengths(uint256[3] _newVal) public onlyOwner {\r\n    phaseLengths = _newVal;\r\n  }\r\n\r\n  /**\r\n   * @notice Changes the owner of the ControlToken contract. Only callable by owner.\r\n   * @param  _newOwner the new owner address\r\n   */\r\n  function changeControlTokenOwner(address _newOwner) public onlyOwner whenPaused {\r\n    require(_newOwner != address(0));\r\n    cToken.transferOwnership(_newOwner);\r\n  }\r\n\r\n  /**\r\n   * @notice Changes the maliciousness status of a token. Only callable by owner.\r\n   * @param _coin the token's address\r\n   * @param _status the new maliciousness status\r\n   */\r\n  function setMaliciousCoinStatus(address _coin, bool _status) public onlyOwner {\r\n    require(_coin != address(0));\r\n    isMaliciousCoin[_coin] = _status;\r\n  }\r\n\r\n\r\n  /**\r\n   * @notice Moves the fund to the next phase in the investment cycle.\r\n   */\r\n  function nextPhase()\r\n    public\r\n    whenNotPaused\r\n  {\r\n    require(now >= startTimeOfCyclePhase.add(phaseLengths[uint(cyclePhase)]));\r\n\r\n    if (cyclePhase == CyclePhase.RedeemCommission) {\r\n      // Start new cycle\r\n      cycleNumber = cycleNumber.add(1);\r\n\r\n      if (cToken.paused()) {\r\n        cToken.unpause();\r\n      }\r\n    } else if (cyclePhase == CyclePhase.MakeDecisions) {\r\n      // Burn any Kairo left in BetokenFund's account\r\n      require(cToken.burnOwnerBalance());\r\n\r\n      cToken.pause();\r\n      __distributeFundsAfterCycleEnd();\r\n    }\r\n\r\n    cyclePhase = CyclePhase(addmod(uint(cyclePhase), 1, 5));\r\n    startTimeOfCyclePhase = now;\r\n\r\n    // Reward caller\r\n    cToken.mint(msg.sender, functionCallReward);\r\n\r\n    ChangedPhase(cycleNumber, uint(cyclePhase), now);\r\n  }\r\n\r\n  /**\r\n   * DepositWithdraw phase functions\r\n   */\r\n\r\n  /**\r\n   * @notice Deposit Ether into the fund. Ether will be converted into DAI.\r\n   */\r\n  function deposit()\r\n    public\r\n    payable\r\n    during(CyclePhase.DepositWithdraw)\r\n    whenNotPaused\r\n  {\r\n    // Buy DAI with ETH\r\n    uint256 actualDAIDeposited;\r\n    uint256 actualETHDeposited;\r\n    uint256 beforeETHBalance = this.balance;\r\n    uint256 beforeDAIBalance = dai.balanceOf(this);\r\n    __kyberTrade(ETH_TOKEN_ADDRESS, msg.value, dai);\r\n    actualETHDeposited = beforeETHBalance.sub(this.balance);\r\n    uint256 leftOverETH = msg.value.sub(actualETHDeposited);\r\n    if (leftOverETH > 0) {\r\n      msg.sender.transfer(leftOverETH);\r\n    }\r\n    actualDAIDeposited = dai.balanceOf(this).sub(beforeDAIBalance);\r\n    require(actualDAIDeposited > 0);\r\n\r\n    // Register investment\r\n    if (cycleNumber == 1) {\r\n      sToken.mint(msg.sender, actualDAIDeposited);\r\n    } else {\r\n      sToken.mint(msg.sender, actualDAIDeposited.mul(sToken.totalSupply()).div(totalFundsInDAI));\r\n    }\r\n    totalFundsInDAI = totalFundsInDAI.add(actualDAIDeposited);\r\n\r\n    // Only for test version. Remove for release.\r\n    cToken.mint(msg.sender, actualDAIDeposited);\r\n\r\n    // Emit event\r\n    Deposit(cycleNumber, msg.sender, ETH_TOKEN_ADDRESS, actualETHDeposited, actualDAIDeposited, now);\r\n  }\r\n\r\n  /**\r\n   * @notice Deposit ERC20 tokens into the fund. Tokens will be converted into DAI.\r\n   * @param _tokenAddr the address of the token to be deposited\r\n   * @param _tokenAmount The amount of tokens to be deposited. May be different from actual deposited amount.\r\n   */\r\n  function depositToken(address _tokenAddr, uint256 _tokenAmount)\r\n    public\r\n    during(CyclePhase.DepositWithdraw)\r\n    isValidToken(_tokenAddr)\r\n    whenNotPaused\r\n  {\r\n    DetailedERC20 token = DetailedERC20(_tokenAddr);\r\n\r\n    require(token.transferFrom(msg.sender, this, _tokenAmount));\r\n\r\n    // Convert token into DAI\r\n    uint256 actualDAIDeposited;\r\n    uint256 actualTokenDeposited;\r\n    if (_tokenAddr == daiAddr) {\r\n      actualDAIDeposited = _tokenAmount;\r\n      actualTokenDeposited = _tokenAmount;\r\n    } else {\r\n      // Buy DAI with tokens\r\n      uint256 beforeTokenBalance = token.balanceOf(this);\r\n      uint256 beforeDAIBalance = dai.balanceOf(this);\r\n      __kyberTrade(token, _tokenAmount, dai);\r\n      actualTokenDeposited = beforeTokenBalance.sub(token.balanceOf(this));\r\n      uint256 leftOverTokens = _tokenAmount.sub(actualTokenDeposited);\r\n      if (leftOverTokens > 0) {\r\n        require(token.transfer(msg.sender, leftOverTokens));\r\n      }\r\n      actualDAIDeposited = dai.balanceOf(this).sub(beforeDAIBalance);\r\n      require(actualDAIDeposited > 0);\r\n    }\r\n\r\n    // Register investment\r\n    if (cycleNumber == 1) {\r\n      sToken.mint(msg.sender, actualDAIDeposited);\r\n    } else {\r\n      sToken.mint(msg.sender, actualDAIDeposited.mul(sToken.totalSupply()).div(totalFundsInDAI));\r\n    }\r\n    totalFundsInDAI = totalFundsInDAI.add(actualDAIDeposited);\r\n\r\n    // Only for test version. Remove for release.\r\n    cToken.mint(msg.sender, actualDAIDeposited);\r\n\r\n    // Emit event\r\n    Deposit(cycleNumber, msg.sender, _tokenAddr, actualTokenDeposited, actualDAIDeposited, now);\r\n  }\r\n\r\n  /**\r\n   * @notice Withdraws Ether by burning Shares.\r\n   * @param _amountInDAI Amount of funds to be withdrawn expressed in DAI. Fixed-point decimal. May be different from actual amount.\r\n   */\r\n  function withdraw(uint256 _amountInDAI)\r\n    public\r\n    during(CyclePhase.DepositWithdraw)\r\n    whenNotPaused\r\n  {\r\n    // Buy ETH\r\n    uint256 actualETHWithdrawn;\r\n    uint256 actualDAIWithdrawn;\r\n    uint256 beforeETHBalance = this.balance;\r\n    uint256 beforeDaiBalance = dai.balanceOf(this);\r\n    __kyberTrade(dai, _amountInDAI, ETH_TOKEN_ADDRESS);\r\n    actualETHWithdrawn = this.balance.sub(beforeETHBalance);\r\n    actualDAIWithdrawn = beforeDaiBalance.sub(dai.balanceOf(this));\r\n    require(actualDAIWithdrawn > 0);\r\n\r\n    // Burn shares\r\n    sToken.ownerBurn(msg.sender, actualDAIWithdrawn.mul(sToken.totalSupply()).div(totalFundsInDAI));\r\n    totalFundsInDAI = totalFundsInDAI.sub(actualDAIWithdrawn);\r\n\r\n    // Transfer Ether to user\r\n    uint256 exitFee = actualETHWithdrawn.mul(exitFeeRate).div(PRECISION);\r\n    developerFeeAccount.transfer(exitFee);\r\n    actualETHWithdrawn = actualETHWithdrawn.sub(exitFee);\r\n    msg.sender.transfer(actualETHWithdrawn);\r\n\r\n    // Emit event\r\n    Withdraw(cycleNumber, msg.sender, ETH_TOKEN_ADDRESS, actualETHWithdrawn, actualDAIWithdrawn, now);\r\n  }\r\n\r\n  /**\r\n   * @notice Withdraws funds by burning Shares, and converts the funds into the specified token using Kyber Network.\r\n   * @param _tokenAddr the address of the token to be withdrawn into the caller's account\r\n   * @param _amountInDAI The amount of funds to be withdrawn expressed in DAI. Fixed-point decimal. May be different from actual amount.\r\n   */\r\n  function withdrawToken(address _tokenAddr, uint256 _amountInDAI)\r\n    public\r\n    during(CyclePhase.DepositWithdraw)\r\n    isValidToken(_tokenAddr)\r\n    whenNotPaused\r\n  {\r\n    require(cycleNumber != 1);\r\n    DetailedERC20 token = DetailedERC20(_tokenAddr);\r\n\r\n    // Convert DAI into desired tokens\r\n    uint256 actualTokenWithdrawn;\r\n    uint256 actualDAIWithdrawn;\r\n    if (_tokenAddr == daiAddr) {\r\n      actualDAIWithdrawn = _amountInDAI;\r\n      actualTokenWithdrawn = _amountInDAI;\r\n    } else {\r\n      // Buy desired tokens\r\n      uint256 beforeTokenBalance = token.balanceOf(this);\r\n      uint256 beforeDaiBalance = dai.balanceOf(this);\r\n      __kyberTrade(dai, _amountInDAI, token);\r\n      actualTokenWithdrawn = token.balanceOf(this).sub(beforeTokenBalance);\r\n      actualDAIWithdrawn = beforeDaiBalance.sub(dai.balanceOf(this));\r\n      require(actualDAIWithdrawn > 0);\r\n    }\r\n\r\n    // Burn Shares\r\n    sToken.ownerBurn(msg.sender, actualDAIWithdrawn.mul(sToken.totalSupply()).div(totalFundsInDAI));\r\n    totalFundsInDAI = totalFundsInDAI.sub(actualDAIWithdrawn);\r\n\r\n    // Transfer tokens to user\r\n    uint256 exitFee = actualTokenWithdrawn.mul(exitFeeRate).div(PRECISION);\r\n    token.transfer(developerFeeAccount, exitFee);\r\n    actualTokenWithdrawn = actualTokenWithdrawn.sub(exitFee);\r\n    token.transfer(msg.sender, actualTokenWithdrawn);\r\n\r\n    // Emit event\r\n    Withdraw(cycleNumber, msg.sender, _tokenAddr, actualTokenWithdrawn, actualDAIWithdrawn, now);\r\n  }\r\n\r\n  /**\r\n   * MakeDecisions phase functions\r\n   */\r\n\r\n  /**\r\n   * @notice Creates a new investment investment for an ERC20 token.\r\n   * @param _tokenAddress address of the ERC20 token contract\r\n   * @param _stake amount of Kairos to be staked in support of the investment\r\n   */\r\n  function createInvestment(\r\n    address _tokenAddress,\r\n    uint256 _stake\r\n  )\r\n    public\r\n    during(CyclePhase.MakeDecisions)\r\n    isValidToken(_tokenAddress)\r\n    whenNotPaused\r\n  {\r\n    DetailedERC20 token = DetailedERC20(_tokenAddress);\r\n\r\n    // Collect stake\r\n    require(cToken.ownerCollectFrom(msg.sender, _stake));\r\n\r\n    // Add investment to list\r\n    userInvestments[msg.sender].push(Investment({\r\n      tokenAddress: _tokenAddress,\r\n      cycleNumber: cycleNumber,\r\n      stake: _stake,\r\n      tokenAmount: 0,\r\n      buyPrice: 0,\r\n      sellPrice: 0,\r\n      isSold: false\r\n    }));\r\n\r\n    // Invest\r\n    uint256 beforeTokenAmount = token.balanceOf(this);\r\n    uint256 beforeDAIBalance = dai.balanceOf(this);\r\n    uint256 investmentId = investmentsCount(msg.sender).sub(1);\r\n    __handleInvestment(investmentId, true);\r\n    userInvestments[msg.sender][investmentId].tokenAmount = token.balanceOf(this).sub(beforeTokenAmount);\r\n\r\n    // Emit event\r\n    CreatedInvestment(cycleNumber, msg.sender, investmentsCount(msg.sender).sub(1), _tokenAddress, _stake, userInvestments[msg.sender][investmentId].buyPrice, beforeDAIBalance.sub(dai.balanceOf(this)));\r\n  }\r\n\r\n  /**\r\n   * @notice Called by user to sell the assets an investment invested in. Returns the staked Kairo plus rewards/penalties.\r\n   * @param _investmentId the ID of the investment\r\n   */\r\n  function sellInvestmentAsset(uint256 _investmentId)\r\n    public\r\n    during(CyclePhase.MakeDecisions)\r\n    whenNotPaused\r\n  {\r\n    Investment storage investment = userInvestments[msg.sender][_investmentId];\r\n    require(investment.buyPrice > 0);\r\n    require(investment.cycleNumber == cycleNumber);\r\n    require(!investment.isSold);\r\n\r\n    // Sell asset\r\n    uint256 beforeDAIBalance = dai.balanceOf(this);\r\n    __handleInvestment(_investmentId, false);\r\n    investment.isSold = true;\r\n\r\n    // Return Kairo\r\n    uint256 multiplier = investment.sellPrice.mul(PRECISION).div(investment.buyPrice);\r\n    uint256 receiveKairoAmount = investment.stake.mul(multiplier).div(PRECISION);\r\n    if (receiveKairoAmount > investment.stake) {\r\n      cToken.transfer(msg.sender, investment.stake);\r\n      cToken.mint(msg.sender, receiveKairoAmount.sub(investment.stake));\r\n    } else {\r\n      cToken.transfer(msg.sender, receiveKairoAmount);\r\n      require(cToken.burnOwnerTokens(investment.stake.sub(receiveKairoAmount)));\r\n    }\r\n\r\n    // Emit event\r\n    SoldInvestment(cycleNumber, msg.sender, _investmentId, receiveKairoAmount, investment.sellPrice, dai.balanceOf(this).sub(beforeDAIBalance));\r\n  }\r\n\r\n  /**\r\n   * RedeemCommission phase functions\r\n   */\r\n\r\n  /**\r\n   * @notice Redeems commission.\r\n   */\r\n  function redeemCommission()\r\n    public\r\n    during(CyclePhase.RedeemCommission)\r\n    whenNotPaused\r\n  {\r\n    require(lastCommissionRedemption[msg.sender] < cycleNumber);\r\n    lastCommissionRedemption[msg.sender] = cycleNumber;\r\n    uint256 commission = totalCommission.mul(cToken.balanceOf(msg.sender)).div(cToken.totalSupply());\r\n    dai.transfer(msg.sender, commission);\r\n\r\n    delete userInvestments[msg.sender];\r\n\r\n    CommissionPaid(cycleNumber, msg.sender, commission);\r\n  }\r\n\r\n  /**\r\n   * @notice Redeems commission in shares.\r\n   */\r\n  function redeemCommissionInShares()\r\n    public\r\n    during(CyclePhase.RedeemCommission)\r\n    whenNotPaused\r\n  {\r\n    require(lastCommissionRedemption[msg.sender] < cycleNumber);\r\n    lastCommissionRedemption[msg.sender] = cycleNumber;\r\n    uint256 commission = totalCommission.mul(cToken.balanceOf(msg.sender)).div(cToken.totalSupply());\r\n    sToken.mint(msg.sender, commission.mul(sToken.totalSupply()).div(totalFundsInDAI));\r\n    totalFundsInDAI = totalFundsInDAI.add(commission);\r\n\r\n    delete userInvestments[msg.sender];\r\n\r\n    // Emit event\r\n    Deposit(cycleNumber, msg.sender, daiAddr, commission, commission, now);\r\n    CommissionPaid(cycleNumber, msg.sender, commission);\r\n  }\r\n\r\n  /**\r\n   * @notice Sells tokens left over due to manager not selling or KyberNetwork not having enough demand. Callable by anyone.\r\n   * @param _tokenAddr address of the token to be sold\r\n   */\r\n  function sellLeftoverToken(address _tokenAddr)\r\n    public\r\n    during(CyclePhase.RedeemCommission)\r\n    isValidToken(_tokenAddr)\r\n    whenNotPaused\r\n  {\r\n    uint256 beforeBalance = dai.balanceOf(this);\r\n    DetailedERC20 token = DetailedERC20(_tokenAddr);\r\n    require(_tokenAddr != daiAddr);\r\n    __kyberTrade(token, token.balanceOf(this), dai);\r\n    totalFundsInDAI = totalFundsInDAI.add(dai.balanceOf(this).sub(beforeBalance));\r\n  }\r\n\r\n  /**\r\n   * Internal use functions\r\n   */\r\n\r\n  /**\r\n   * @notice Update fund statistics, and pay developer fees.\r\n   */\r\n  function __distributeFundsAfterCycleEnd() internal {\r\n    uint256 profit = 0;\r\n    if (dai.balanceOf(this) > totalFundsInDAI) {\r\n      profit = dai.balanceOf(this).sub(totalFundsInDAI);\r\n    }\r\n    totalCommission = commissionRate.mul(profit).div(PRECISION);\r\n    totalCommission = totalCommission.add(assetFeeRate.mul(dai.balanceOf(this)).div(PRECISION));\r\n    uint256 devFee = developerFeeRate.mul(dai.balanceOf(this)).div(PRECISION);\r\n    uint256 newTotalFunds = dai.balanceOf(this).sub(totalCommission).sub(devFee);\r\n\r\n    // Update values\r\n    ROI(cycleNumber, totalFundsInDAI, newTotalFunds);\r\n    totalFundsInDAI = newTotalFunds;\r\n\r\n    // Transfer fees\r\n    dai.transfer(developerFeeAccount, devFee);\r\n\r\n    // Emit event\r\n    TotalCommissionPaid(cycleNumber, totalCommission);\r\n  }\r\n\r\n  function __handleInvestment(uint256 _investmentId, bool _buy) internal {\r\n    Investment storage investment = userInvestments[msg.sender][_investmentId];\r\n    uint256 srcAmount;\r\n    if (_buy) {\r\n      srcAmount = totalFundsInDAI.mul(investment.stake).div(cToken.totalSupply());\r\n    } else {\r\n      srcAmount = investment.tokenAmount;\r\n    }\r\n    DetailedERC20 token = DetailedERC20(investment.tokenAddress);\r\n    if (_buy) {\r\n      investment.buyPrice = __kyberTrade(dai, srcAmount, token);\r\n    } else {\r\n      investment.sellPrice = invert(__kyberTrade(token, srcAmount, dai));\r\n    }\r\n  }\r\n\r\n  /**\r\n   * @notice Wrapper function for doing token conversion on Kyber Network\r\n   * @param _srcToken the token to convert from\r\n   * @param _srcAmount the amount of tokens to be converted\r\n   * @param _destToken the destination token\r\n   * @return _destPriceInSrc the price of the destination token, in terms of source tokens\r\n   */\r\n  function __kyberTrade(DetailedERC20 _srcToken, uint256 _srcAmount, DetailedERC20 _destToken) internal returns(uint256 _destPriceInSrc) {\r\n    uint256 actualDestAmount;\r\n    uint256 beforeSrcBalance;\r\n    uint256 msgValue;\r\n\r\n    if (_srcToken != ETH_TOKEN_ADDRESS) {\r\n      beforeSrcBalance = _srcToken.balanceOf(this);\r\n      msgValue = 0;\r\n      _srcToken.approve(kyberAddr, 0);\r\n      _srcToken.approve(kyberAddr, _srcAmount);\r\n    } else {\r\n      beforeSrcBalance = this.balance;\r\n      msgValue = _srcAmount;\r\n    }\r\n    actualDestAmount = kyber.trade.value(msgValue)(\r\n      _srcToken,\r\n      _srcAmount,\r\n      _destToken,\r\n      this,\r\n      MAX_QTY,\r\n      1,\r\n      0\r\n    );\r\n    require(actualDestAmount > 0);\r\n    if (_srcToken != ETH_TOKEN_ADDRESS) {\r\n      _srcToken.approve(kyberAddr, 0);\r\n    }\r\n\r\n    _destPriceInSrc = beforeSrcBalance.sub(_srcToken.balanceOf(this)).mul(PRECISION).mul(10**getDecimals(_destToken)).div(actualDestAmount.mul(10**getDecimals(_srcToken)));\r\n  }\r\n\r\n  function() public payable {\r\n    if (msg.sender != kyberAddr) {\r\n      revert();\r\n    }\r\n  }\r\n}",
  "sourcePath": "D:\\msi-cn\\Documents\\GitHub\\betoken\\eth\\contracts\\BetokenFund.sol",
  "compiler": {
    "name": "solc",
    "version": "0.4.19+commit.c4cbbb05.Emscripten.clang"
  },
  "schemaVersion": "2.0.0",
  "updatedAt": "2018-04-28T05:04:45.438Z"
}