{
  "contractName": "BetokenFund",
  "abi": [
    {
      "constant": true,
      "inputs": [],
      "name": "allowEmergencyWithdraw",
      "outputs": [
        {
          "name": "",
          "type": "bool"
        }
      ],
      "payable": false,
      "stateMutability": "view",
      "type": "function"
    },
    {
      "constant": true,
      "inputs": [],
      "name": "developerFeeAccount",
      "outputs": [
        {
          "name": "",
          "type": "address"
        }
      ],
      "payable": false,
      "stateMutability": "view",
      "type": "function"
    },
    {
      "constant": true,
      "inputs": [
        {
          "name": "",
          "type": "address"
        },
        {
          "name": "",
          "type": "uint256"
        }
      ],
      "name": "userProposals",
      "outputs": [
        {
          "name": "tokenAddress",
          "type": "address"
        },
        {
          "name": "cycleNumber",
          "type": "uint256"
        },
        {
          "name": "stake",
          "type": "uint256"
        },
        {
          "name": "tokenAmount",
          "type": "uint256"
        },
        {
          "name": "buyPriceInWeis",
          "type": "uint256"
        },
        {
          "name": "sellPriceInWeis",
          "type": "uint256"
        },
        {
          "name": "isSold",
          "type": "bool"
        }
      ],
      "payable": false,
      "stateMutability": "view",
      "type": "function"
    },
    {
      "constant": true,
      "inputs": [],
      "name": "minStakeProportion",
      "outputs": [
        {
          "name": "",
          "type": "uint256"
        }
      ],
      "payable": false,
      "stateMutability": "view",
      "type": "function"
    },
    {
      "constant": true,
      "inputs": [],
      "name": "startTimeOfCyclePhase",
      "outputs": [
        {
          "name": "",
          "type": "uint256"
        }
      ],
      "payable": false,
      "stateMutability": "view",
      "type": "function"
    },
    {
      "constant": true,
      "inputs": [],
      "name": "timeOfChangeMaking",
      "outputs": [
        {
          "name": "",
          "type": "uint256"
        }
      ],
      "payable": false,
      "stateMutability": "view",
      "type": "function"
    },
    {
      "constant": true,
      "inputs": [],
      "name": "cycleNumber",
      "outputs": [
        {
          "name": "",
          "type": "uint256"
        }
      ],
      "payable": false,
      "stateMutability": "view",
      "type": "function"
    },
    {
      "constant": true,
      "inputs": [],
      "name": "timeOfFinalizing",
      "outputs": [
        {
          "name": "",
          "type": "uint256"
        }
      ],
      "payable": false,
      "stateMutability": "view",
      "type": "function"
    },
    {
      "constant": false,
      "inputs": [],
      "name": "unpause",
      "outputs": [],
      "payable": false,
      "stateMutability": "nonpayable",
      "type": "function"
    },
    {
      "constant": true,
      "inputs": [],
      "name": "controlTokenInflation",
      "outputs": [
        {
          "name": "",
          "type": "uint256"
        }
      ],
      "payable": false,
      "stateMutability": "view",
      "type": "function"
    },
    {
      "constant": true,
      "inputs": [],
      "name": "timeOfWaiting",
      "outputs": [
        {
          "name": "",
          "type": "uint256"
        }
      ],
      "payable": false,
      "stateMutability": "view",
      "type": "function"
    },
    {
      "constant": true,
      "inputs": [],
      "name": "paused",
      "outputs": [
        {
          "name": "",
          "type": "bool"
        }
      ],
      "payable": false,
      "stateMutability": "view",
      "type": "function"
    },
    {
      "constant": true,
      "inputs": [],
      "name": "commissionRate",
      "outputs": [
        {
          "name": "",
          "type": "uint256"
        }
      ],
      "payable": false,
      "stateMutability": "view",
      "type": "function"
    },
    {
      "constant": true,
      "inputs": [],
      "name": "functionCallReward",
      "outputs": [
        {
          "name": "",
          "type": "uint256"
        }
      ],
      "payable": false,
      "stateMutability": "view",
      "type": "function"
    },
    {
      "constant": true,
      "inputs": [],
      "name": "totalFundsInWeis",
      "outputs": [
        {
          "name": "",
          "type": "uint256"
        }
      ],
      "payable": false,
      "stateMutability": "view",
      "type": "function"
    },
    {
      "constant": true,
      "inputs": [
        {
          "name": "",
          "type": "address"
        }
      ],
      "name": "lastCommissionRedemption",
      "outputs": [
        {
          "name": "",
          "type": "uint256"
        }
      ],
      "payable": false,
      "stateMutability": "view",
      "type": "function"
    },
    {
      "constant": false,
      "inputs": [],
      "name": "pause",
      "outputs": [],
      "payable": false,
      "stateMutability": "nonpayable",
      "type": "function"
    },
    {
      "constant": true,
      "inputs": [],
      "name": "owner",
      "outputs": [
        {
          "name": "",
          "type": "address"
        }
      ],
      "payable": false,
      "stateMutability": "view",
      "type": "function"
    },
    {
      "constant": true,
      "inputs": [],
      "name": "kyberAddr",
      "outputs": [
        {
          "name": "",
          "type": "address"
        }
      ],
      "payable": false,
      "stateMutability": "view",
      "type": "function"
    },
    {
      "constant": true,
      "inputs": [],
      "name": "PRECISION",
      "outputs": [
        {
          "name": "",
          "type": "uint256"
        }
      ],
      "payable": false,
      "stateMutability": "view",
      "type": "function"
    },
    {
      "constant": true,
      "inputs": [],
      "name": "developerFeeProportion",
      "outputs": [
        {
          "name": "",
          "type": "uint256"
        }
      ],
      "payable": false,
      "stateMutability": "view",
      "type": "function"
    },
    {
      "constant": true,
      "inputs": [],
      "name": "totalCommission",
      "outputs": [
        {
          "name": "",
          "type": "uint256"
        }
      ],
      "payable": false,
      "stateMutability": "view",
      "type": "function"
    },
    {
      "constant": true,
      "inputs": [],
      "name": "shareTokenAddr",
      "outputs": [
        {
          "name": "",
          "type": "address"
        }
      ],
      "payable": false,
      "stateMutability": "view",
      "type": "function"
    },
    {
      "constant": true,
      "inputs": [],
      "name": "timeOfProposalMaking",
      "outputs": [
        {
          "name": "",
          "type": "uint256"
        }
      ],
      "payable": false,
      "stateMutability": "view",
      "type": "function"
    },
    {
      "constant": true,
      "inputs": [],
      "name": "timeBetweenCycles",
      "outputs": [
        {
          "name": "",
          "type": "uint256"
        }
      ],
      "payable": false,
      "stateMutability": "view",
      "type": "function"
    },
    {
      "constant": true,
      "inputs": [],
      "name": "controlTokenAddr",
      "outputs": [
        {
          "name": "",
          "type": "address"
        }
      ],
      "payable": false,
      "stateMutability": "view",
      "type": "function"
    },
    {
      "constant": false,
      "inputs": [
        {
          "name": "newOwner",
          "type": "address"
        }
      ],
      "name": "transferOwnership",
      "outputs": [],
      "payable": false,
      "stateMutability": "nonpayable",
      "type": "function"
    },
    {
      "constant": true,
      "inputs": [],
      "name": "cyclePhase",
      "outputs": [
        {
          "name": "",
          "type": "uint8"
        }
      ],
      "payable": false,
      "stateMutability": "view",
      "type": "function"
    },
    {
      "inputs": [
        {
          "name": "_cTokenAddr",
          "type": "address"
        },
        {
          "name": "_sTokenAddr",
          "type": "address"
        },
        {
          "name": "_kyberAddr",
          "type": "address"
        },
        {
          "name": "_developerFeeAccount",
          "type": "address"
        },
        {
          "name": "_timeOfChangeMaking",
          "type": "uint256"
        },
        {
          "name": "_timeOfProposalMaking",
          "type": "uint256"
        },
        {
          "name": "_timeOfWaiting",
          "type": "uint256"
        },
        {
          "name": "_timeOfFinalizing",
          "type": "uint256"
        },
        {
          "name": "_timeBetweenCycles",
          "type": "uint256"
        },
        {
          "name": "_minStakeProportion",
          "type": "uint256"
        },
        {
          "name": "_commissionRate",
          "type": "uint256"
        },
        {
          "name": "_developerFeeProportion",
          "type": "uint256"
        },
        {
          "name": "_cycleNumber",
          "type": "uint256"
        },
        {
          "name": "_functionCallReward",
          "type": "uint256"
        },
        {
          "name": "_controlTokenInflation",
          "type": "uint256"
        }
      ],
      "payable": false,
      "stateMutability": "nonpayable",
      "type": "constructor"
    },
    {
      "payable": true,
      "stateMutability": "payable",
      "type": "fallback"
    },
    {
      "anonymous": false,
      "inputs": [
        {
          "indexed": true,
          "name": "_cycleNumber",
          "type": "uint256"
        },
        {
          "indexed": false,
          "name": "_timestamp",
          "type": "uint256"
        }
      ],
      "name": "CycleStarted",
      "type": "event"
    },
    {
      "anonymous": false,
      "inputs": [
        {
          "indexed": true,
          "name": "_cycleNumber",
          "type": "uint256"
        },
        {
          "indexed": true,
          "name": "_sender",
          "type": "address"
        },
        {
          "indexed": false,
          "name": "_amountInWeis",
          "type": "uint256"
        },
        {
          "indexed": false,
          "name": "_timestamp",
          "type": "uint256"
        }
      ],
      "name": "Deposit",
      "type": "event"
    },
    {
      "anonymous": false,
      "inputs": [
        {
          "indexed": true,
          "name": "_cycleNumber",
          "type": "uint256"
        },
        {
          "indexed": true,
          "name": "_sender",
          "type": "address"
        },
        {
          "indexed": false,
          "name": "_amountInWeis",
          "type": "uint256"
        },
        {
          "indexed": false,
          "name": "_timestamp",
          "type": "uint256"
        }
      ],
      "name": "Withdraw",
      "type": "event"
    },
    {
      "anonymous": false,
      "inputs": [
        {
          "indexed": true,
          "name": "_cycleNumber",
          "type": "uint256"
        },
        {
          "indexed": false,
          "name": "_timestamp",
          "type": "uint256"
        }
      ],
      "name": "ChangeMakingTimeEnded",
      "type": "event"
    },
    {
      "anonymous": false,
      "inputs": [
        {
          "indexed": true,
          "name": "_cycleNumber",
          "type": "uint256"
        },
        {
          "indexed": true,
          "name": "_sender",
          "type": "address"
        },
        {
          "indexed": false,
          "name": "_id",
          "type": "uint256"
        },
        {
          "indexed": false,
          "name": "_tokenAddress",
          "type": "address"
        },
        {
          "indexed": false,
          "name": "_stakeInWeis",
          "type": "uint256"
        }
      ],
      "name": "NewProposal",
      "type": "event"
    },
    {
      "anonymous": false,
      "inputs": [
        {
          "indexed": true,
          "name": "_cycleNumber",
          "type": "uint256"
        },
        {
          "indexed": false,
          "name": "_timestamp",
          "type": "uint256"
        }
      ],
      "name": "ProposalMakingTimeEnded",
      "type": "event"
    },
    {
      "anonymous": false,
      "inputs": [
        {
          "indexed": true,
          "name": "_cycleNumber",
          "type": "uint256"
        },
        {
          "indexed": false,
          "name": "_timestamp",
          "type": "uint256"
        }
      ],
      "name": "WaitingPhaseEnded",
      "type": "event"
    },
    {
      "anonymous": false,
      "inputs": [
        {
          "indexed": true,
          "name": "_cycleNumber",
          "type": "uint256"
        },
        {
          "indexed": true,
          "name": "_sender",
          "type": "address"
        },
        {
          "indexed": false,
          "name": "_proposalId",
          "type": "uint256"
        },
        {
          "indexed": false,
          "name": "_receivedKairos",
          "type": "uint256"
        }
      ],
      "name": "ProposalSold",
      "type": "event"
    },
    {
      "anonymous": false,
      "inputs": [
        {
          "indexed": true,
          "name": "_cycleNumber",
          "type": "uint256"
        },
        {
          "indexed": false,
          "name": "_timestamp",
          "type": "uint256"
        }
      ],
      "name": "SellingPhaseEnded",
      "type": "event"
    },
    {
      "anonymous": false,
      "inputs": [
        {
          "indexed": true,
          "name": "_cycleNumber",
          "type": "uint256"
        },
        {
          "indexed": false,
          "name": "_beforeTotalFunds",
          "type": "uint256"
        },
        {
          "indexed": false,
          "name": "_afterTotalFunds",
          "type": "uint256"
        }
      ],
      "name": "ROI",
      "type": "event"
    },
    {
      "anonymous": false,
      "inputs": [
        {
          "indexed": true,
          "name": "_cycleNumber",
          "type": "uint256"
        },
        {
          "indexed": true,
          "name": "_sender",
          "type": "address"
        },
        {
          "indexed": false,
          "name": "_commission",
          "type": "uint256"
        }
      ],
      "name": "CommissionPaid",
      "type": "event"
    },
    {
      "anonymous": false,
      "inputs": [
        {
          "indexed": true,
          "name": "_cycleNumber",
          "type": "uint256"
        },
        {
          "indexed": false,
          "name": "_totalCommissionInWeis",
          "type": "uint256"
        }
      ],
      "name": "TotalCommissionPaid",
      "type": "event"
    },
    {
      "anonymous": false,
      "inputs": [
        {
          "indexed": true,
          "name": "_cycleNumber",
          "type": "uint256"
        },
        {
          "indexed": false,
          "name": "_timestamp",
          "type": "uint256"
        }
      ],
      "name": "CycleFinalized",
      "type": "event"
    },
    {
      "anonymous": false,
      "inputs": [],
      "name": "Pause",
      "type": "event"
    },
    {
      "anonymous": false,
      "inputs": [],
      "name": "Unpause",
      "type": "event"
    },
    {
      "anonymous": false,
      "inputs": [
        {
          "indexed": true,
          "name": "previousOwner",
          "type": "address"
        },
        {
          "indexed": true,
          "name": "newOwner",
          "type": "address"
        }
      ],
      "name": "OwnershipTransferred",
      "type": "event"
    },
    {
      "constant": true,
      "inputs": [
        {
          "name": "_userAddr",
          "type": "address"
        }
      ],
      "name": "proposalsCount",
      "outputs": [
        {
          "name": "_count",
          "type": "uint256"
        }
      ],
      "payable": false,
      "stateMutability": "view",
      "type": "function"
    },
    {
      "constant": false,
      "inputs": [
        {
          "name": "_tokenAddr",
          "type": "address"
        }
      ],
      "name": "emergencyDumpToken",
      "outputs": [],
      "payable": false,
      "stateMutability": "nonpayable",
      "type": "function"
    },
    {
      "constant": false,
      "inputs": [
        {
          "name": "_proposalId",
          "type": "uint256"
        }
      ],
      "name": "emergencyRedeemStake",
      "outputs": [],
      "payable": false,
      "stateMutability": "nonpayable",
      "type": "function"
    },
    {
      "constant": false,
      "inputs": [],
      "name": "emergencyUpdateBalance",
      "outputs": [],
      "payable": false,
      "stateMutability": "nonpayable",
      "type": "function"
    },
    {
      "constant": false,
      "inputs": [
        {
          "name": "_val",
          "type": "bool"
        }
      ],
      "name": "setAllowEmergencyWithdraw",
      "outputs": [],
      "payable": false,
      "stateMutability": "nonpayable",
      "type": "function"
    },
    {
      "constant": false,
      "inputs": [],
      "name": "emergencyWithdraw",
      "outputs": [],
      "payable": false,
      "stateMutability": "nonpayable",
      "type": "function"
    },
    {
      "constant": false,
      "inputs": [
        {
          "name": "_newAddr",
          "type": "address"
        }
      ],
      "name": "changeKyberNetworkAddress",
      "outputs": [],
      "payable": false,
      "stateMutability": "nonpayable",
      "type": "function"
    },
    {
      "constant": false,
      "inputs": [
        {
          "name": "_newAddr",
          "type": "address"
        }
      ],
      "name": "changeDeveloperFeeAccount",
      "outputs": [],
      "payable": false,
      "stateMutability": "nonpayable",
      "type": "function"
    },
    {
      "constant": false,
      "inputs": [
        {
          "name": "_newProp",
          "type": "uint256"
        }
      ],
      "name": "changeDeveloperFeeProportion",
      "outputs": [],
      "payable": false,
      "stateMutability": "nonpayable",
      "type": "function"
    },
    {
      "constant": false,
      "inputs": [
        {
          "name": "_newProp",
          "type": "uint256"
        }
      ],
      "name": "changeCommissionRate",
      "outputs": [],
      "payable": false,
      "stateMutability": "nonpayable",
      "type": "function"
    },
    {
      "constant": false,
      "inputs": [
        {
          "name": "_newVal",
          "type": "uint256"
        }
      ],
      "name": "changeControlTokenInflation",
      "outputs": [],
      "payable": false,
      "stateMutability": "nonpayable",
      "type": "function"
    },
    {
      "constant": false,
      "inputs": [
        {
          "name": "_newOwner",
          "type": "address"
        }
      ],
      "name": "changeControlTokenOwner",
      "outputs": [],
      "payable": false,
      "stateMutability": "nonpayable",
      "type": "function"
    },
    {
      "constant": false,
      "inputs": [
        {
          "name": "_newOwner",
          "type": "address"
        }
      ],
      "name": "changeShareTokenOwner",
      "outputs": [],
      "payable": false,
      "stateMutability": "nonpayable",
      "type": "function"
    },
    {
      "constant": false,
      "inputs": [],
      "name": "startNewCycle",
      "outputs": [],
      "payable": false,
      "stateMutability": "nonpayable",
      "type": "function"
    },
    {
      "constant": false,
      "inputs": [],
      "name": "deposit",
      "outputs": [],
      "payable": true,
      "stateMutability": "payable",
      "type": "function"
    },
    {
      "constant": false,
      "inputs": [
        {
          "name": "_amountInWeis",
          "type": "uint256"
        }
      ],
      "name": "withdraw",
      "outputs": [],
      "payable": false,
      "stateMutability": "nonpayable",
      "type": "function"
    },
    {
      "constant": false,
      "inputs": [],
      "name": "endChangeMakingTime",
      "outputs": [],
      "payable": false,
      "stateMutability": "nonpayable",
      "type": "function"
    },
    {
      "constant": false,
      "inputs": [
        {
          "name": "_tokenAddress",
          "type": "address"
        },
        {
          "name": "_stakeInWeis",
          "type": "uint256"
        }
      ],
      "name": "createProposal",
      "outputs": [],
      "payable": false,
      "stateMutability": "nonpayable",
      "type": "function"
    },
    {
      "constant": false,
      "inputs": [],
      "name": "endProposalMakingTime",
      "outputs": [],
      "payable": false,
      "stateMutability": "nonpayable",
      "type": "function"
    },
    {
      "constant": false,
      "inputs": [],
      "name": "endWaitingPhase",
      "outputs": [],
      "payable": false,
      "stateMutability": "nonpayable",
      "type": "function"
    },
    {
      "constant": false,
      "inputs": [
        {
          "name": "_proposalId",
          "type": "uint256"
        }
      ],
      "name": "sellProposalAsset",
      "outputs": [],
      "payable": false,
      "stateMutability": "nonpayable",
      "type": "function"
    },
    {
      "constant": false,
      "inputs": [],
      "name": "finalizeCycle",
      "outputs": [],
      "payable": false,
      "stateMutability": "nonpayable",
      "type": "function"
    },
    {
      "constant": false,
      "inputs": [],
      "name": "redeemCommission",
      "outputs": [],
      "payable": false,
      "stateMutability": "nonpayable",
      "type": "function"
    },
    {
      "constant": false,
      "inputs": [
        {
          "name": "_tokenAddr",
          "type": "address"
        }
      ],
      "name": "sellLeftoverToken",
      "outputs": [],
      "payable": false,
      "stateMutability": "nonpayable",
      "type": "function"
    }
  ],
  "bytecode": "0x60606040526000805460a060020a60ff021916905534156200002057600080fd5b6040516101e0806200304e83398101604052808051919060200180519190602001805191906020018051919060200180519190602001805191906020018051919060200180519190602001805191906020018051919060200180519190602001805191906020018051919060200180519190602001805160008054600160a060020a03191633600160a060020a0316179055915050670de0b6b3a76400008610620000ca57600080fd5b670de0b6b3a7640000620000ed86866401000000006200255f6200029782021704565b10620000f857600080fd5b8e600160006101000a815481600160a060020a030219169083600160a060020a031602179055508d600260006101000a815481600160a060020a030219169083600160a060020a031602179055508c600360006101000a815481600160a060020a030219169083600160a060020a031602179055508e601760016101000a815481600160a060020a030219169083600160a060020a031602179055508d601860006101000a815481600160a060020a030219169083600160a060020a031602179055508c601960006101000a815481600160a060020a030219169083600160a060020a031602179055508b600460006101000a815481600160a060020a030219169083600160a060020a031602179055508a60098190555089600a8190555088600b8190555087600c8190555086600d8190555085600e8190555084600f819055508360108190555060006008819055506004601760006101000a81548160ff021916908360048111156200026957fe5b021790555060059290925560115560135550506014805460ff1916905550620002ae98505050505050505050565b600082820183811015620002a757fe5b9392505050565b612d9080620002be6000396000f3006060604052600436106102585763ffffffff60e060020a60003504166309b0d33a81146102755780630e1b1fda14610288578063118152231461029e57806312e1ee45146102bd578063173e7707146102dc57806317514eec146102fb5780631a26af7a1461032c5780631ab371fc146103535780631b31527f146103825780631b8e2192146103ec5780631c68e528146103ff5780631dcf8ceb1461041e57806325f842c51461043157806328ac1228146104445780632e1a7d4d146104575780632f1b3b031461046d5780632f884710146104835780633795ea5a146104965780633f4ba83a146104a95780634d73ec11146104bc5780634f634790146104cf5780635c975abb146104e25780635d4c3224146104f55780635ea1d6f81461050d578063612d194d1461052057806364542e3e146105335780636642642a146105495780637e714dd21461055f5780637f2736d114610572578063821f9824146105855780638456cb59146105a45780638657459e146105b75780638da5cb5b146105cd57806390c31d5d146105e0578063a7c4dccf146105f3578063aaf5eb6814610606578063b18e8a8d14610619578063b2637f6514610638578063b64af4b11461064b578063ba25887d1461065e578063c0320dbc14610671578063d0e30db014610684578063d7615d371461068c578063d78b3b1c1461069f578063db2e21bc146106b2578063dbdadc5c146106c5578063dc87454c146106d8578063dfc51a25146106eb578063e7476abf1461070d578063ec33d2a01461072c578063f2fde38b1461073f578063f6558b001461075e575b60035433600160a060020a0390811691161461027357600080fd5b005b341561028057600080fd5b610273610795565b341561029357600080fd5b6102736004356108c7565b34156102a957600080fd5b610273600160a060020a03600435166109dd565b34156102c857600080fd5b610273600160a060020a0360043516610a5e565b34156102e757600080fd5b610273600160a060020a0360043516610b31565b341561030657600080fd5b61031a600160a060020a0360043516610c05565b60405190815260200160405180910390f35b341561033757600080fd5b61033f610c20565b604051901515815260200160405180910390f35b341561035e57600080fd5b610366610c29565b604051600160a060020a03909116815260200160405180910390f35b341561038d57600080fd5b6103a4600160a060020a0360043516602435610c38565b604051600160a060020a03909716875260208701959095526040808701949094526060860192909252608085015260a084015290151560c083015260e0909101905180910390f35b34156103f757600080fd5b610273610c9e565b341561040a57600080fd5b610273600160a060020a0360043516610eb2565b341561042957600080fd5b61031a610f61565b341561043c57600080fd5b61031a610f67565b341561044f57600080fd5b61031a610f6d565b341561046257600080fd5b610273600435610f73565b341561047857600080fd5b610273600435611136565b341561048e57600080fd5b61031a611156565b34156104a157600080fd5b61031a61115c565b34156104b457600080fd5b610273611162565b34156104c757600080fd5b61031a6111e1565b34156104da57600080fd5b61031a6111e7565b34156104ed57600080fd5b61033f6111ed565b341561050057600080fd5b61027360043515156111fd565b341561051857600080fd5b61031a611243565b341561052b57600080fd5b61031a611249565b341561053e57600080fd5b61027360043561124f565b341561055457600080fd5b61027360043561127d565b341561056a57600080fd5b61031a61129d565b341561057d57600080fd5b6102736112a3565b341561059057600080fd5b61031a600160a060020a03600435166114a6565b34156105af57600080fd5b6102736114b8565b34156105c257600080fd5b61027360043561153c565b34156105d857600080fd5b61036661171f565b34156105eb57600080fd5b61027361172e565b34156105fe57600080fd5b610366611860565b341561061157600080fd5b61031a61186f565b341561062457600080fd5b610273600160a060020a0360043516611875565b341561064357600080fd5b6102736118d4565b341561065657600080fd5b610273611917565b341561066957600080fd5b61031a611a49565b341561067c57600080fd5b61031a611a4f565b610273611a55565b341561069757600080fd5b610366611ce2565b34156106aa57600080fd5b61031a611cf1565b34156106bd57600080fd5b610273611cf7565b34156106d057600080fd5b61031a611f86565b34156106e357600080fd5b610366611f8c565b34156106f657600080fd5b610273600160a060020a0360043516602435611f9b565b341561071857600080fd5b610273600160a060020a0360043516612236565b341561073757600080fd5b6102736122d3565b341561074a57600080fd5b610273600160a060020a03600435166124bb565b341561076957600080fd5b610771612556565b6040518082600481111561078157fe5b60ff16815260200191505060405180910390f35b60028060175460ff1660048111156107a957fe5b146107b357600080fd5b60005460a060020a900460ff16156107ca57600080fd5b601760019054906101000a9004600160a060020a0316600160a060020a03166340c10f193360115460006040516020015260405160e060020a63ffffffff8516028152600160a060020a0390921660048301526024820152604401602060405180830381600087803b151561083e57600080fd5b6102c65a03f1151561084f57600080fd5b50505060405180515050600b5460085461086e9163ffffffff61255f16565b42101561087a57600080fd5b4260088190556017805460ff19166003179055600554907fb261f68a380a9c0e8cb1b8ddea5dceb8ce59629e31c7d50b5a3acf6f017b6df69060405190815260200160405180910390a250565b60008054819060a060020a900460ff1615156108e257600080fd5b60145460ff1615156108f357600080fd5b600160a060020a033316600090815260166020526040902080548490811061091757fe5b90600052602060002090600702019150600554826001015414151561093b57600080fd5b5060028101546000811161094e57600080fd5b6000600283018190556017546101009004600160a060020a03169063a9059cbb90339084906040516020015260405160e060020a63ffffffff8516028152600160a060020a0390921660048301526024820152604401602060405180830381600087803b15156109bd57600080fd5b6102c65a03f115156109ce57600080fd5b50505060405180515050505050565b60005433600160a060020a039081169116146109f857600080fd5b60005460a060020a900460ff161515610a1057600080fd5b600160a060020a0381161515610a2557600080fd5b60038054600160a060020a0390921673ffffffffffffffffffffffffffffffffffffffff19928316811790915560198054909216179055565b60005433600160a060020a03908116911614610a7957600080fd5b60048060175460ff166004811115610a8d57fe5b14610a9757600080fd5b60005460a060020a900460ff161515610aaf57600080fd5b610b2c8283600160a060020a03166370a082313060006040516020015260405160e060020a63ffffffff8416028152600160a060020a039091166004820152602401602060405180830381600087803b1515610b0a57600080fd5b6102c65a03f11515610b1b57600080fd5b505050604051805190506000612579565b505050565b600060048060175460ff166004811115610b4757fe5b14610b5157600080fd5b60005460a060020a900460ff1615610b6857600080fd5b30600160a060020a0316319150610bd08384600160a060020a03166370a082313060006040516020015260405160e060020a63ffffffff8416028152600160a060020a039091166004820152602401602060405180830381600087803b1515610b0a57600080fd5b50610bfd610bee600160a060020a033016318463ffffffff6129fa16565b6007549063ffffffff61255f16565b600755505050565b600160a060020a031660009081526016602052604090205490565b60145460ff1681565b600454600160a060020a031681565b601660205281600052604060002081815481101515610c5357fe5b60009182526020909120600790910201805460018201546002830154600384015460048501546005860154600690960154600160a060020a0390951697509295509093909260ff1687565b600060048060175460ff166004811115610cb457fe5b14610cbe57600080fd5b60005460a060020a900460ff1615610cd557600080fd5b600554600160a060020a03331660009081526015602052604090205410610cfb57600080fd5b600554600160a060020a0333811660009081526015602052604080822093909355601754610e1a93610100909104909216916318160ddd919051602001526040518163ffffffff1660e060020a028152600401602060405180830381600087803b1515610d6757600080fd5b6102c65a03f11515610d7857600080fd5b5050506040518051601754909150610e0e906101009004600160a060020a03166370a082313360006040516020015260405160e060020a63ffffffff8416028152600160a060020a039091166004820152602401602060405180830381600087803b1515610de557600080fd5b6102c65a03f11515610df657600080fd5b5050506040518051601254915063ffffffff612a0c16565b9063ffffffff612a3716565b9150600160a060020a03331682156108fc0283604051600060405180830381858888f193505050501515610e4d57600080fd5b600160a060020a0333166000908152601660205260408120610e6e91612cb1565b33600160a060020a03166005547fec530ab710fdaa2b5968fe15f486992441a96f643219cf0150904aa5b9eedf828460405190815260200160405180910390a35050565b60005433600160a060020a03908116911614610ecd57600080fd5b60005460a060020a900460ff161515610ee557600080fd5b600160a060020a0381161515610efa57600080fd5b601854600160a060020a031663f2fde38b8260405160e060020a63ffffffff8416028152600160a060020a039091166004820152602401600060405180830381600087803b1515610f4a57600080fd5b6102c65a03f11515610f5b57600080fd5b50505050565b600e5481565b60085481565b60095481565b60008060175460ff166004811115610f8757fe5b14610f9157600080fd5b60005460a060020a900460ff1615610fa857600080fd5b60055460011415610fb857600080fd5b601854600754600160a060020a039091169063c000178690339061103d90610e0e856318160ddd6000604051602001526040518163ffffffff1660e060020a028152600401602060405180830381600087803b151561101657600080fd5b6102c65a03f1151561102757600080fd5b505050604051805189915063ffffffff612a0c16565b60006040516020015260405160e060020a63ffffffff8516028152600160a060020a0390921660048301526024820152604401602060405180830381600087803b151561108957600080fd5b6102c65a03f1151561109a57600080fd5b505050604051805150506007546110b7908363ffffffff6129fa16565b600755600160a060020a03331682156108fc0283604051600060405180830381858888f1935050505015156110eb57600080fd5b33600160a060020a03166005547fb0ecf14e184effded5473bba77dcfab32b094b77ac1fbb36beec2aef55587970844260405191825260208201526040908101905180910390a35050565b60005433600160a060020a0390811691161461115157600080fd5b601355565b60055481565b600c5481565b60005433600160a060020a0390811691161461117d57600080fd5b60005460a060020a900460ff16151561119557600080fd5b6000805474ff0000000000000000000000000000000000000000191690557f7805862f689e2f13df9f062ff482ad3ad112aca9e0847911ed832e158c525b3360405160405180910390a1565b60135481565b600b5481565b60005460a060020a900460ff1681565b60005433600160a060020a0390811691161461121857600080fd5b60005460a060020a900460ff16151561123057600080fd5b6014805460ff1916911515919091179055565b600f5481565b60115481565b60005433600160a060020a0390811691161461126a57600080fd5b601054811061127857600080fd5b601055565b60005433600160a060020a0390811691161461129857600080fd5b600f55565b60075481565b60048060175460ff1660048111156112b757fe5b146112c157600080fd5b60005460a060020a900460ff16156112d857600080fd5b601760019054906101000a9004600160a060020a0316600160a060020a03166340c10f193360115460006040516020015260405160e060020a63ffffffff8516028152600160a060020a0390921660048301526024820152604401602060405180830381600087803b151561134c57600080fd5b6102c65a03f1151561135d57600080fd5b50505060405180515050600d5460085461137c9163ffffffff61255f16565b42101561138857600080fd5b6017805460ff19169055426008556005546113a490600161255f565b6005556017546101009004600160a060020a0316635c975abb6000604051602001526040518163ffffffff1660e060020a028152600401602060405180830381600087803b15156113f457600080fd5b6102c65a03f1151561140557600080fd5b505050604051805190501561146d576017546101009004600160a060020a0316633f4ba83a6040518163ffffffff1660e060020a028152600401600060405180830381600087803b151561145857600080fd5b6102c65a03f1151561146957600080fd5b5050505b6005547f62eeb403dc233a7676f50cdb0fd72dae595aeb7c63039adce5caacc33254f9c04260405190815260200160405180910390a250565b60156020526000908152604090205481565b60005433600160a060020a039081169116146114d357600080fd5b60005460a060020a900460ff16156114ea57600080fd5b6000805474ff0000000000000000000000000000000000000000191660a060020a1790557f6985a02210a168e66602d3235cb6db0e70f92b3ba4d376a33c0f3d9434bff62560405160405180910390a1565b6000808060038060175460ff16600481111561155457fe5b1461155e57600080fd5b60005460a060020a900460ff161561157557600080fd5b600160a060020a033316600090815260166020526040902080548690811061159957fe5b90600052602060002090600702019350600084600401541115156115bc57600080fd5b6005546001850154146115ce57600080fd5b600684015460ff16156115e057600080fd5b6115eb856000612a4e565b6006808501805460ff1916600117905560135460048601549154600587015461162f93611623929091610e0e9163ffffffff612a0c16565b9063ffffffff61255f16565b925061164e600654610e0e858760020154612a0c90919063ffffffff16565b6017549092506101009004600160a060020a03166340c10f19338460006040516020015260405160e060020a63ffffffff8516028152600160a060020a0390921660048301526024820152604401602060405180830381600087803b15156116b557600080fd5b6102c65a03f115156116c657600080fd5b505050604051805190505033600160a060020a03166005547fc5819bc554302d429c4c637ae5e9ad43c892f07f4261d1b581b52addc3e01d4d878560405191825260208201526040908101905180910390a35050505050565b600054600160a060020a031681565b60018060175460ff16600481111561174257fe5b1461174c57600080fd5b60005460a060020a900460ff161561176357600080fd5b601760019054906101000a9004600160a060020a0316600160a060020a03166340c10f193360115460006040516020015260405160e060020a63ffffffff8516028152600160a060020a0390921660048301526024820152604401602060405180830381600087803b15156117d757600080fd5b6102c65a03f115156117e857600080fd5b50505060405180515050600a546008546118079163ffffffff61255f16565b42101561181357600080fd5b4260088190556017805460ff19166002179055600554907fc26cea5d11470524f2c181454de04fcfb1a0349aba5606ea3eb1a8ec87e1f54e9060405190815260200160405180910390a250565b600354600160a060020a031681565b60065481565b60005433600160a060020a0390811691161461189057600080fd5b600160a060020a03811615156118a557600080fd5b6004805473ffffffffffffffffffffffffffffffffffffffff1916600160a060020a0392909216919091179055565b60005433600160a060020a039081169116146118ef57600080fd5b60005460a060020a900460ff16151561190757600080fd5b600160a060020a03301631600755565b60008060175460ff16600481111561192b57fe5b1461193557600080fd5b60005460a060020a900460ff161561194c57600080fd5b601760019054906101000a9004600160a060020a0316600160a060020a03166340c10f193360115460006040516020015260405160e060020a63ffffffff8516028152600160a060020a0390921660048301526024820152604401602060405180830381600087803b15156119c057600080fd5b6102c65a03f115156119d157600080fd5b505050604051805150506009546008546119f09163ffffffff61255f16565b4210156119fc57600080fd5b4260088190556017805460ff19166001179055600554907f3c3379a2308ae89ee638561d0222706de289bea89968dd555b533795071130fb9060405190815260200160405180910390a250565b60105481565b60125481565b60008060175460ff166004811115611a6957fe5b14611a7357600080fd5b60005460a060020a900460ff1615611a8a57600080fd5b60055460011415611b1557601854600160a060020a03166340c10f19333460006040516020015260405160e060020a63ffffffff8516028152600160a060020a0390921660048301526024820152604401602060405180830381600087803b1515611af457600080fd5b6102c65a03f11515611b0557600080fd5b5050506040518051905050611c02565b601854600754600160a060020a03909116906340c10f19903390611b9a90610e0e856318160ddd6000604051602001526040518163ffffffff1660e060020a028152600401602060405180830381600087803b1515611b7357600080fd5b6102c65a03f11515611b8457600080fd5b505050604051805134915063ffffffff612a0c16565b60006040516020015260405160e060020a63ffffffff8516028152600160a060020a0390921660048301526024820152604401602060405180830381600087803b1515611be657600080fd5b6102c65a03f11515611bf757600080fd5b505050604051805150505b600754611c15903463ffffffff61255f16565b6007556017546101009004600160a060020a03166340c10f19333460006040516020015260405160e060020a63ffffffff8516028152600160a060020a0390921660048301526024820152604401602060405180830381600087803b1515611c7c57600080fd5b6102c65a03f11515611c8d57600080fd5b505050604051805190505033600160a060020a03166005547fd36a2f67d06d285786f61a32b052b9ace6b0b7abef5177b54358abdc83a0b69b344260405191825260208201526040908101905180910390a350565b600254600160a060020a031681565b600a5481565b6000805460a060020a900460ff161515611d1057600080fd5b60145460ff161515611d2157600080fd5b601854611e1090600160a060020a03166318160ddd6000604051602001526040518163ffffffff1660e060020a028152600401602060405180830381600087803b1515611d6d57600080fd5b6102c65a03f11515611d7e57600080fd5b5050506040518051600754601854919250610e0e91600160a060020a03166370a082313360006040516020015260405160e060020a63ffffffff8416028152600160a060020a039091166004820152602401602060405180830381600087803b1515611de957600080fd5b6102c65a03f11515611dfa57600080fd5b505050604051805191905063ffffffff612a0c16565b601854909150600160a060020a031663c000178633826370a082318260006040516020015260405160e060020a63ffffffff8416028152600160a060020a039091166004820152602401602060405180830381600087803b1515611e7357600080fd5b6102c65a03f11515611e8457600080fd5b5050506040518051905060006040516020015260405160e060020a63ffffffff8516028152600160a060020a0390921660048301526024820152604401602060405180830381600087803b1515611eda57600080fd5b6102c65a03f11515611eeb57600080fd5b50505060405180515050600754611f08908263ffffffff6129fa16565b600755600160a060020a03331681156108fc0282604051600060405180830381858888f193505050501515611f3c57600080fd5b33600160a060020a03166005547fb0ecf14e184effded5473bba77dcfab32b094b77ac1fbb36beec2aef55587970834260405191825260208201526040908101905180910390a350565b600d5481565b600154600160a060020a031681565b60018060175460ff166004811115611faf57fe5b14611fb957600080fd5b60005460a060020a900460ff1615611fd057600080fd5b600083600160a060020a03166318160ddd6000604051602001526040518163ffffffff1660e060020a028152600401602060405180830381600087803b151561201857600080fd5b6102c65a03f1151561202957600080fd5b5050506040518051905011151561203f57600080fd5b6017546101009004600160a060020a0316632bee7bde338460006040516020015260405160e060020a63ffffffff8516028152600160a060020a0390921660048301526024820152604401602060405180830381600087803b15156120a357600080fd5b6102c65a03f115156120b457600080fd5b50505060405180515050600160a060020a03331660009081526016602052604090208054600181016120e68382612cd5565b9160005260206000209060070201600060e06040519081016040908152600160a060020a0388168252600554602083015281018690526000606082018190526080820181905260a0820181905260c08201529190508151815473ffffffffffffffffffffffffffffffffffffffff1916600160a060020a03919091161781556020820151816001015560408201518160020155606082015181600301556080820151816004015560a0820151816005015560c0820151600691909101805460ff1916911515919091179055506121ca905060016121c233610c05565b036001612a4e565b33600160a060020a03166005547fa3b6749fa188c23c831e823167e3c22da77d0d6e2ba5adee953c0b14003ef49b600161220333610c05565b038686604051928352600160a060020a0390911660208301526040808301919091526060909101905180910390a3505050565b60005433600160a060020a0390811691161461225157600080fd5b60005460a060020a900460ff16151561226957600080fd5b600160a060020a038116151561227e57600080fd5b6017546101009004600160a060020a031663f2fde38b8260405160e060020a63ffffffff8416028152600160a060020a039091166004820152602401600060405180830381600087803b1515610f4a57600080fd5b60038060175460ff1660048111156122e757fe5b146122f157600080fd5b60005460a060020a900460ff161561230857600080fd5b601760019054906101000a9004600160a060020a0316600160a060020a03166340c10f193360115460006040516020015260405160e060020a63ffffffff8516028152600160a060020a0390921660048301526024820152604401602060405180830381600087803b151561237c57600080fd5b6102c65a03f1151561238d57600080fd5b50505060405180515050600c546008546123ac9163ffffffff61255f16565b4210156123b857600080fd5b426008556017805460ff191660041790819055600160a060020a036101009091041663f3123a3a6040518163ffffffff1660e060020a028152600401600060405180830381600087803b151561240d57600080fd5b6102c65a03f1151561241e57600080fd5b50506017546101009004600160a060020a03169050638456cb596040518163ffffffff1660e060020a028152600401600060405180830381600087803b151561246657600080fd5b6102c65a03f1151561247757600080fd5b505050612482612b59565b6005547ff4b862466a7ed84695726312fc00377bee25443b7890d8b8985f94eef497d6ff4260405190815260200160405180910390a250565b60005433600160a060020a039081169116146124d657600080fd5b600160a060020a03811615156124eb57600080fd5b600054600160a060020a0380831691167f8be0079c531659141344cd1fd0a4f28419497f9722a3daafe3b4186f6b6457e060405160405180910390a36000805473ffffffffffffffffffffffffffffffffffffffff1916600160a060020a0392909216919091179055565b60175460ff1681565b60008282018381101561256e57fe5b8091505b5092915050565b60008080858085156126a057601954600160a060020a033081811631955091169063cb3c28c790899073eeeeeeeeeeeeeeeeeeeeeeeeeeeeeeeeeeeeeeee90829086906b204fce5e3e2502611000000060018260006040516020015260405160e060020a63ffffffff8b16028152600160a060020a039788166004820152602481019690965293861660448601529185166064850152608484015260a483015290911660c482015260e4016020604051808303818588803b151561263c57600080fd5b6125ee5a03f1151561264d57600080fd5b5050505060405180519450506000841161266657600080fd5b61269984610e0e60065461268d30600160a060020a031631886129fa90919063ffffffff16565b9063ffffffff612a0c16565b94506129ef565b80600160a060020a03166370a082313060006040516020015260405160e060020a63ffffffff8416028152600160a060020a039091166004820152602401602060405180830381600087803b15156126f757600080fd5b6102c65a03f1151561270857600080fd5b5050506040518051600354909450600160a060020a03808416925063095ea7b391168960006040516020015260405160e060020a63ffffffff8516028152600160a060020a0390921660048301526024820152604401602060405180830381600087803b151561277757600080fd5b6102c65a03f1151561278857600080fd5b50505060405180515050601954600160a060020a031663cb3c28c7828973eeeeeeeeeeeeeeeeeeeeeeeeeeeeeeeeeeeeeeee306b204fce5e3e2502611000000060018260006040516020015260405160e060020a63ffffffff8a16028152600160a060020a039788166004820152602481019690965293861660448601529185166064850152608484015260a483015290911660c482015260e401602060405180830381600087803b151561283c57600080fd5b6102c65a03f1151561284d57600080fd5b5050506040518051600354909550600160a060020a03808416925063095ea7b391166000806040516020015260405160e060020a63ffffffff8516028152600160a060020a0390921660048301526024820152604401602060405180830381600087803b15156128bc57600080fd5b6102c65a03f115156128cd57600080fd5b50505060405180515050600160a060020a0381166370a082313060006040516020015260405160e060020a63ffffffff8416028152600160a060020a039091166004820152602401602060405180830381600087803b151561292e57600080fd5b6102c65a03f1151561293f57600080fd5b50505060405180518411905061295457600080fd5b6129ec6129d882600160a060020a03166370a082313060006040516020015260405160e060020a63ffffffff8416028152600160a060020a039091166004820152602401602060405180830381600087803b15156129b157600080fd5b6102c65a03f115156129c257600080fd5b505050604051805186915063ffffffff6129fa16565b600654610e0e90879063ffffffff612a0c16565b94505b505050509392505050565b600082821115612a0657fe5b50900390565b600080831515612a1f5760009150612572565b50828202828482811515612a2f57fe5b041461256e57fe5b6000808284811515612a4557fe5b04949350505050565b600160a060020a033316600090815260166020526040812080548291829186908110612a7657fe5b906000526020600020906007020192508315612b1857601754612b11906101009004600160a060020a03166318160ddd6000604051602001526040518163ffffffff1660e060020a028152600401602060405180830381600087803b1515612add57600080fd5b6102c65a03f11515612aee57600080fd5b50505060405180519050610e0e8560020154600754612a0c90919063ffffffff16565b9150612b20565b826003015491505b8254612b3690600160a060020a03168386612579565b90508315612b4a5760048301819055612b52565b600583018190555b5050505050565b600080600080925060075430600160a060020a0316311115612b875760075430600160a060020a0316310392505b612ba2600654610e0e85600f54612a0c90919063ffffffff16565b601255600654601054612bca9190610e0e90600160a060020a0330163163ffffffff612a0c16565b9150612bfb82612bef60125430600160a060020a0316316129fa90919063ffffffff16565b9063ffffffff6129fa16565b90506005547f13a18edb371d0a74be72de10b678893b96bc8a47e776bb122c59e21d53956fbd6007548360405191825260208201526040908101905180910390a26007819055600454600160a060020a031682156108fc0283604051600060405180830381858888f193505050501515612c7457600080fd5b6005547f2f7da09d276ad6237b75476b806f4d8388b9228bd6fa45a7ca214fac5abdf7a360125460405190815260200160405180910390a2505050565b5080546000825560070290600052602060002090810190612cd29190612cfd565b50565b815481835581811511610b2c57600702816007028360005260206000209182019101610b2c91905b612d6191905b80821115612d5d57805473ffffffffffffffffffffffffffffffffffffffff19168155600060018201819055600282018190556003820181905560048201819055600582015560068101805460ff19169055600701612d03565b5090565b905600a165627a7a72305820d3fd9de149df758c910abb2a3d5e4ecbb44ae9c6f612991f4f260befeac131600029",
  "source": "pragma solidity ^0.4.18;\r\n\r\nimport 'zeppelin-solidity/contracts/math/SafeMath.sol';\r\nimport 'zeppelin-solidity/contracts/math/Math.sol';\r\nimport 'zeppelin-solidity/contracts/lifecycle/Pausable.sol';\r\nimport './ControlToken.sol';\r\nimport './ShareToken.sol';\r\nimport './KyberNetwork.sol';\r\nimport './Utils.sol';\r\n\r\n/**\r\n * The main contract of the Betoken hedge fund\r\n */\r\ncontract BetokenFund is Pausable, Utils {\r\n  using SafeMath for uint256;\r\n\r\n  enum CyclePhase { ChangeMaking, ProposalMaking, Waiting, Finalizing, Finalized }\r\n\r\n  struct Proposal {\r\n    address tokenAddress;\r\n    uint256 cycleNumber;\r\n    uint256 stake;\r\n    uint256 tokenAmount;\r\n    uint256 buyPriceInWeis;\r\n    uint256 sellPriceInWeis;\r\n    bool isSold;\r\n  }\r\n\r\n  /**\r\n   * @dev Executes function only during the given cycle phase.\r\n   * @param phase the cycle phase during which the function may be called\r\n   */\r\n  modifier during(CyclePhase phase) {\r\n    require(cyclePhase == phase);\r\n    _;\r\n  }\r\n\r\n  modifier rewardCaller {\r\n    cToken.mint(msg.sender, functionCallReward);\r\n    _;\r\n  }\r\n\r\n  // Address of the control token contract.\r\n  address public controlTokenAddr;\r\n\r\n  // Address of the share token contract.\r\n  address public shareTokenAddr;\r\n\r\n  // Address of the KyberNetwork contract\r\n  address public kyberAddr;\r\n\r\n  // Address to which the developer fees will be paid.\r\n  address public developerFeeAccount;\r\n\r\n  // The number of the current investment cycle.\r\n  uint256 public cycleNumber;\r\n\r\n  // 10^{decimals} used for representing fixed point numbers with {decimals} decimals.\r\n  uint256 public PRECISION;\r\n\r\n  // The amount of funds held by the fund.\r\n  uint256 public totalFundsInWeis;\r\n\r\n  // The start time for the current investment cycle phase, in seconds since Unix epoch.\r\n  uint256 public startTimeOfCyclePhase;\r\n\r\n  // Temporal length of change making period at start of each cycle, in seconds.\r\n  uint256 public timeOfChangeMaking;\r\n\r\n  uint256 public timeOfProposalMaking;\r\n\r\n  // Temporal length of waiting period, in seconds.\r\n  uint256 public timeOfWaiting;\r\n\r\n  uint256 public timeOfFinalizing;\r\n\r\n  uint256 public timeBetweenCycles;\r\n\r\n  // Minimum proportion of Kairo balance people have to stake in support of a proposal. Fixed point decimal.\r\n  uint256 public minStakeProportion;\r\n\r\n  // The proportion of the fund that gets distributed to Kairo holders every cycle. Fixed point decimal.\r\n  uint256 public commissionRate;\r\n\r\n  // The proportion of contract balance that goes the the devs every cycle. Fixed point decimal.\r\n  uint256 public developerFeeProportion;\r\n\r\n  // Amount of Kairo rewarded to the user who calls a phase transition/proposal handling function\r\n  uint256 public functionCallReward;\r\n\r\n  // Amount of commission to be paid out this cycle\r\n  uint256 public totalCommission;\r\n\r\n  // Inflation rate of control token (KRO). Fixed point decimal.\r\n  uint256 public controlTokenInflation;\r\n\r\n  // Flag for whether emergency withdrawing is allowed.\r\n  bool public allowEmergencyWithdraw;\r\n\r\n  // The last cycle where a user redeemed commission.\r\n  mapping(address => uint256) public lastCommissionRedemption;\r\n\r\n  // List of proposals in the current cycle.\r\n  mapping(address => Proposal[]) public userProposals;\r\n\r\n  // The current cycle phase.\r\n  CyclePhase public cyclePhase;\r\n\r\n  // Contract instances\r\n  ControlToken internal cToken;\r\n  ShareToken internal sToken;\r\n  KyberNetwork internal kyber;\r\n\r\n  event CycleStarted(uint256 indexed _cycleNumber, uint256 _timestamp);\r\n  event Deposit(uint256 indexed _cycleNumber, address indexed _sender, uint256 _amountInWeis, uint256 _timestamp);\r\n  event Withdraw(uint256 indexed _cycleNumber, address indexed _sender, uint256 _amountInWeis, uint256 _timestamp);\r\n  event ChangeMakingTimeEnded(uint256 indexed _cycleNumber, uint256 _timestamp);\r\n\r\n  event NewProposal(uint256 indexed _cycleNumber, address indexed _sender, uint256 _id, address _tokenAddress, uint256 _stakeInWeis);\r\n  event ProposalMakingTimeEnded(uint256 indexed _cycleNumber, uint256 _timestamp);\r\n\r\n  event WaitingPhaseEnded(uint256 indexed _cycleNumber, uint256 _timestamp);\r\n\r\n  event ProposalSold(uint256 indexed _cycleNumber, address indexed _sender, uint256 _proposalId, uint256 _receivedKairos);\r\n  event SellingPhaseEnded(uint256 indexed _cycleNumber, uint256 _timestamp);\r\n\r\n  event ROI(uint256 indexed _cycleNumber, uint256 _beforeTotalFunds, uint256 _afterTotalFunds);\r\n  event CommissionPaid(uint256 indexed _cycleNumber, address indexed _sender, uint256 _commission);\r\n  event TotalCommissionPaid(uint256 indexed _cycleNumber, uint256 _totalCommissionInWeis);\r\n  event CycleFinalized(uint256 indexed _cycleNumber, uint256 _timestamp);\r\n\r\n  /**\r\n   * Contract initialization functions\r\n   */\r\n\r\n  // Constructor\r\n  function BetokenFund(\r\n    address _cTokenAddr,\r\n    address _sTokenAddr,\r\n    address _kyberAddr,\r\n    address _developerFeeAccount,\r\n    uint256 _timeOfChangeMaking,\r\n    uint256 _timeOfProposalMaking,\r\n    uint256 _timeOfWaiting,\r\n    uint256 _timeOfFinalizing,\r\n    uint256 _timeBetweenCycles,\r\n    uint256 _minStakeProportion,\r\n    uint256 _commissionRate,\r\n    uint256 _developerFeeProportion,\r\n    uint256 _cycleNumber,\r\n    uint256 _functionCallReward,\r\n    uint256 _controlTokenInflation\r\n  )\r\n    public\r\n  {\r\n    require(_minStakeProportion < 10**18);\r\n    require(_commissionRate.add(_developerFeeProportion) < 10**18);\r\n\r\n    controlTokenAddr = _cTokenAddr;\r\n    shareTokenAddr = _sTokenAddr;\r\n    kyberAddr = _kyberAddr;\r\n    cToken = ControlToken(_cTokenAddr);\r\n    sToken = ShareToken(_sTokenAddr);\r\n    kyber = KyberNetwork(_kyberAddr);\r\n\r\n    developerFeeAccount = _developerFeeAccount;\r\n    timeOfChangeMaking = _timeOfChangeMaking;\r\n    timeOfProposalMaking = _timeOfProposalMaking;\r\n    timeOfWaiting = _timeOfWaiting;\r\n    timeOfFinalizing = _timeOfFinalizing;\r\n    timeBetweenCycles = _timeBetweenCycles;\r\n    minStakeProportion = _minStakeProportion;\r\n    commissionRate = _commissionRate;\r\n    developerFeeProportion = _developerFeeProportion;\r\n    startTimeOfCyclePhase = 0;\r\n    cyclePhase = CyclePhase.Finalized;\r\n    cycleNumber = _cycleNumber;\r\n    functionCallReward = _functionCallReward;\r\n    controlTokenInflation = _controlTokenInflation;\r\n    allowEmergencyWithdraw = false;\r\n  }\r\n\r\n  /**\r\n   * Getters\r\n   */\r\n\r\n  /**\r\n   * Returns the length of the proposals array.\r\n   * @return length of proposals array\r\n   */\r\n  function proposalsCount(address _userAddr) public view returns(uint256 _count) {\r\n    return userProposals[_userAddr].length;\r\n  }\r\n\r\n  /**\r\n   * Meta functions\r\n   */\r\n\r\n  /**\r\n   * Emergency functions\r\n   */\r\n\r\n  /**\r\n   * @dev In case the fund is invested in tokens, sell all tokens.\r\n   */\r\n  function emergencyDumpToken(address _tokenAddr)\r\n    public\r\n    onlyOwner\r\n    during(CyclePhase.Finalized)\r\n    whenPaused\r\n  {\r\n    __transactToken(_tokenAddr, ERC20(_tokenAddr).balanceOf(address(this)), false);\r\n  }\r\n\r\n  /**\r\n   * @dev Return staked Kairos for a proposal under emergency situations.\r\n   */\r\n  function emergencyRedeemStake(uint256 _proposalId) whenPaused public {\r\n    require(allowEmergencyWithdraw);\r\n    Proposal storage prop = userProposals[msg.sender][_proposalId];\r\n    require(prop.cycleNumber == cycleNumber);\r\n    uint256 stake = prop.stake;\r\n    require(stake > 0);\r\n    delete prop.stake;\r\n    cToken.transfer(msg.sender, stake);\r\n  }\r\n\r\n  /**\r\n   * @dev Update current fund balance\r\n   */\r\n  function emergencyUpdateBalance() onlyOwner whenPaused public {\r\n    totalFundsInWeis = this.balance;\r\n  }\r\n\r\n  function setAllowEmergencyWithdraw(bool _val) onlyOwner whenPaused public {\r\n    allowEmergencyWithdraw = _val;\r\n  }\r\n\r\n  /**\r\n   * @dev Function for withdrawing all funds in times of emergency. Only callable when fund is paused.\r\n   */\r\n  function emergencyWithdraw()\r\n    public\r\n    whenPaused\r\n  {\r\n    require(allowEmergencyWithdraw);\r\n\r\n    uint256 amountInWeis = sToken.balanceOf(msg.sender).mul(totalFundsInWeis).div(sToken.totalSupply());\r\n    sToken.ownerBurn(msg.sender, sToken.balanceOf(msg.sender));\r\n    totalFundsInWeis = totalFundsInWeis.sub(amountInWeis);\r\n\r\n    // Transfer\r\n    msg.sender.transfer(amountInWeis);\r\n\r\n    // Emit event\r\n    Withdraw(cycleNumber, msg.sender, amountInWeis, now);\r\n  }\r\n\r\n  /**\r\n   * Parameter setters\r\n   */\r\n\r\n  /**\r\n   * @dev Changes the address of the KyberNetwork contract used in the contract. Only callable by owner.\r\n   * @param _newAddr new address of KyberNetwork contract\r\n   */\r\n  function changeKyberNetworkAddress(address _newAddr) public onlyOwner whenPaused {\r\n    require(_newAddr != address(0));\r\n    kyberAddr = _newAddr;\r\n    kyber = KyberNetwork(_newAddr);\r\n  }\r\n\r\n  /**\r\n   * @dev Changes the address to which the developer fees will be sent. Only callable by owner.\r\n   * @param _newAddr new developer fee address\r\n   */\r\n  function changeDeveloperFeeAccount(address _newAddr) public onlyOwner {\r\n    require(_newAddr != address(0));\r\n    developerFeeAccount = _newAddr;\r\n  }\r\n\r\n  /**\r\n   * @dev Changes the proportion of fund balance sent to the developers each cycle. May only decrease. Only callable by owner.\r\n   * @param _newProp the new proportion, fixed point decimal\r\n   */\r\n  function changeDeveloperFeeProportion(uint256 _newProp) public onlyOwner {\r\n    require(_newProp < developerFeeProportion);\r\n    developerFeeProportion = _newProp;\r\n  }\r\n\r\n  /**\r\n   * @dev Changes the proportion of fund balance given to Kairo holders each cycle. Only callable by owner.\r\n   * @param _newProp the new proportion, fixed point decimal\r\n   */\r\n  function changeCommissionRate(uint256 _newProp) public onlyOwner {\r\n    commissionRate = _newProp;\r\n  }\r\n\r\n  /**\r\n   * @dev Changes the inflation rate of control tokens. Only callable by owner.\r\n   * @param _newVal the new inflation value, fixed point decimal\r\n   */\r\n  function changeControlTokenInflation(uint256 _newVal) public onlyOwner {\r\n    controlTokenInflation = _newVal;\r\n  }\r\n\r\n  /**\r\n   * @dev Changes the owner of the ControlToken contract.\r\n   * @param  _newOwner the new owner address\r\n   */\r\n  function changeControlTokenOwner(address _newOwner) public onlyOwner whenPaused {\r\n    require(_newOwner != address(0));\r\n    cToken.transferOwnership(_newOwner);\r\n  }\r\n\r\n  /**\r\n   * @dev Changes the owner of the ShareToken contract.\r\n   * @param  _newOwner the new owner address\r\n   */\r\n  function changeShareTokenOwner(address _newOwner) public onlyOwner whenPaused {\r\n    require(_newOwner != address(0));\r\n    sToken.transferOwnership(_newOwner);\r\n  }\r\n\r\n  /**\r\n   * Start cycle functions\r\n   */\r\n\r\n  /**\r\n   * @dev Starts a new investment cycle.\r\n   */\r\n  function startNewCycle() public during(CyclePhase.Finalized) whenNotPaused rewardCaller {\r\n    require(now >= startTimeOfCyclePhase.add(timeBetweenCycles));\r\n\r\n    // Update values\r\n    cyclePhase = CyclePhase.ChangeMaking;\r\n    startTimeOfCyclePhase = now;\r\n    cycleNumber = cycleNumber.add(1);\r\n\r\n    if (cToken.paused()) {\r\n      cToken.unpause();\r\n    }\r\n\r\n    // Emit event\r\n    CycleStarted(cycleNumber, now);\r\n  }\r\n\r\n  /**\r\n   * ChangeMakingTime functions\r\n   */\r\n\r\n  /**\r\n   * @dev Deposit Ether into the fund.\r\n   */\r\n  function deposit()\r\n    public\r\n    payable\r\n    during(CyclePhase.ChangeMaking)\r\n    whenNotPaused\r\n  {\r\n    // Register investment\r\n    if (cycleNumber == 1) {\r\n      sToken.mint(msg.sender, msg.value);\r\n    } else {\r\n      sToken.mint(msg.sender, msg.value.mul(sToken.totalSupply()).div(totalFundsInWeis));\r\n    }\r\n    totalFundsInWeis = totalFundsInWeis.add(msg.value);\r\n\r\n    // Give control tokens proportional to investment\r\n    // Uncomment if statement if not test version\r\n    // if (cycleNumber == 1) {\r\n      cToken.mint(msg.sender, msg.value);\r\n    // }\r\n\r\n    // Emit event\r\n    Deposit(cycleNumber, msg.sender, msg.value, now);\r\n  }\r\n\r\n  /**\r\n   * @dev Withdraws a certain amount of Ether from the user's account. Cannot be called during the first cycle.\r\n   * @param _amountInWeis amount of Ether to be withdrawn\r\n   */\r\n  function withdraw(uint256 _amountInWeis)\r\n    public\r\n    during(CyclePhase.ChangeMaking)\r\n    whenNotPaused\r\n  {\r\n    require(cycleNumber != 1);\r\n\r\n    // Subtract from account\r\n    sToken.ownerBurn(msg.sender, _amountInWeis.mul(sToken.totalSupply()).div(totalFundsInWeis));\r\n    totalFundsInWeis = totalFundsInWeis.sub(_amountInWeis);\r\n\r\n    // Transfer Ether to user\r\n    msg.sender.transfer(_amountInWeis);\r\n\r\n    // Emit event\r\n    Withdraw(cycleNumber, msg.sender, _amountInWeis, now);\r\n  }\r\n\r\n  /**\r\n   * @dev Ends the ChangeMaking phase.\r\n   */\r\n  function endChangeMakingTime() public during(CyclePhase.ChangeMaking) whenNotPaused rewardCaller {\r\n    require(now >= startTimeOfCyclePhase.add(timeOfChangeMaking));\r\n\r\n    startTimeOfCyclePhase = now;\r\n    cyclePhase = CyclePhase.ProposalMaking;\r\n\r\n    ChangeMakingTimeEnded(cycleNumber, now);\r\n  }\r\n\r\n  /**\r\n   * Proposal Making time functions\r\n   */\r\n\r\n  /**\r\n   * @dev Creates a new investment proposal for an ERC20 token.\r\n   * @param _tokenAddress address of the ERC20 token contract\r\n   * @param _stakeInWeis amount of Kairos to be staked in support of the proposal\r\n   */\r\n  function createProposal(\r\n    address _tokenAddress,\r\n    uint256 _stakeInWeis\r\n  )\r\n    public\r\n    during(CyclePhase.ProposalMaking)\r\n    whenNotPaused\r\n  {\r\n    // Check if token is valid\r\n    require(ERC20(_tokenAddress).totalSupply() > 0);\r\n\r\n    // Collect stake\r\n    cToken.ownerCollectFrom(msg.sender, _stakeInWeis);\r\n\r\n    // Add proposal to list\r\n    userProposals[msg.sender].push(Proposal({\r\n      tokenAddress: _tokenAddress,\r\n      cycleNumber: cycleNumber,\r\n      stake: _stakeInWeis,\r\n      tokenAmount: 0,\r\n      buyPriceInWeis: 0,\r\n      sellPriceInWeis: 0,\r\n      isSold: false\r\n    }));\r\n\r\n    // Invest\r\n    __handleInvestment(proposalsCount(msg.sender) - 1, true);\r\n\r\n    // Emit event\r\n    NewProposal(cycleNumber, msg.sender, proposalsCount(msg.sender) - 1, _tokenAddress, _stakeInWeis);\r\n  }\r\n\r\n  function endProposalMakingTime()\r\n    public\r\n    during(CyclePhase.ProposalMaking)\r\n    whenNotPaused\r\n    rewardCaller\r\n  {\r\n    require(now >= startTimeOfCyclePhase.add(timeOfProposalMaking));\r\n\r\n    startTimeOfCyclePhase = now;\r\n    cyclePhase = CyclePhase.Waiting;\r\n\r\n    ProposalMakingTimeEnded(cycleNumber, now);\r\n  }\r\n\r\n  /**\r\n   * Waiting phase functions\r\n   */\r\n\r\n  function endWaitingPhase()\r\n    public\r\n    during(CyclePhase.Waiting)\r\n    whenNotPaused\r\n    rewardCaller\r\n  {\r\n    require(now >= startTimeOfCyclePhase.add(timeOfWaiting));\r\n\r\n    startTimeOfCyclePhase = now;\r\n    cyclePhase = CyclePhase.Finalizing;\r\n\r\n    WaitingPhaseEnded(cycleNumber, now);\r\n  }\r\n\r\n  /**\r\n   * Finalizing phase functions\r\n   */\r\n\r\n  /**\r\n   * @dev Called by user to sell the assets a proposal invested in\r\n   * @param _proposalId the ID of the proposal\r\n   */\r\n  function sellProposalAsset(uint256 _proposalId)\r\n    public\r\n    during(CyclePhase.Finalizing)\r\n    whenNotPaused\r\n  {\r\n    Proposal storage prop = userProposals[msg.sender][_proposalId];\r\n    require(prop.buyPriceInWeis > 0);\r\n    require(prop.cycleNumber == cycleNumber);\r\n    require(!prop.isSold);\r\n\r\n    __handleInvestment(_proposalId, false);\r\n    prop.isSold = true;\r\n\r\n    uint256 multiplier = prop.sellPriceInWeis.mul(PRECISION).div(prop.buyPriceInWeis).add(controlTokenInflation);\r\n    uint256 receiveKairoAmount = prop.stake.mul(multiplier).div(PRECISION);\r\n    cToken.mint(msg.sender, receiveKairoAmount);\r\n\r\n    ProposalSold(cycleNumber, msg.sender, _proposalId, receiveKairoAmount);\r\n  }\r\n\r\n  /**\r\n   * @dev Finalize the cycle by redistributing user balances and settling investment proposals.\r\n   */\r\n  function finalizeCycle() public during(CyclePhase.Finalizing) whenNotPaused rewardCaller {\r\n    require(now >= startTimeOfCyclePhase.add(timeOfFinalizing));\r\n\r\n    // Update cycle values\r\n    startTimeOfCyclePhase = now;\r\n    cyclePhase = CyclePhase.Finalized;\r\n\r\n    // Burn any Kairo left in BetokenFund's account\r\n    cToken.burnOwnerBalance();\r\n\r\n    cToken.pause();\r\n\r\n    // Distribute funds\r\n    __distributeFundsAfterCycleEnd();\r\n\r\n    // Emit event\r\n    CycleFinalized(cycleNumber, now);\r\n  }\r\n\r\n  /**\r\n   * Finalized phase functions\r\n   */\r\n\r\n  /**\r\n   * @dev Redeems commission.\r\n   */\r\n  function redeemCommission()\r\n    public\r\n    during(CyclePhase.Finalized)\r\n    whenNotPaused\r\n  {\r\n    require(lastCommissionRedemption[msg.sender] < cycleNumber);\r\n    lastCommissionRedemption[msg.sender] = cycleNumber;\r\n    uint256 commission = totalCommission.mul(cToken.balanceOf(msg.sender)).div(cToken.totalSupply());\r\n    msg.sender.transfer(commission);\r\n\r\n    // Reset data\r\n    delete userProposals[msg.sender];\r\n\r\n    CommissionPaid(cycleNumber, msg.sender, commission);\r\n  }\r\n\r\n  /**\r\n   * @dev Sells tokens left over due to manager not selling or KyberNetwork not having enough demand.\r\n   * @param _tokenAddr address of the token to be sold\r\n   */\r\n  function sellLeftoverToken(address _tokenAddr)\r\n    public\r\n    during(CyclePhase.Finalized)\r\n    whenNotPaused\r\n  {\r\n    uint256 beforeBalance = this.balance;\r\n    __transactToken(_tokenAddr, ERC20(_tokenAddr).balanceOf(address(this)), false);\r\n    totalFundsInWeis = totalFundsInWeis.add(this.balance.sub(beforeBalance));\r\n  }\r\n\r\n  /**\r\n   * Internal use functions\r\n   */\r\n\r\n  /**\r\n   * @dev Distributes the funds accourding to previously held proportions. Pays commission to Kairo holders,\r\n   * and developer fees to developers.\r\n   */\r\n  function __distributeFundsAfterCycleEnd() internal {\r\n    uint256 profit = 0;\r\n    if (this.balance > totalFundsInWeis) {\r\n      profit = this.balance - totalFundsInWeis;\r\n    }\r\n    totalCommission = commissionRate.mul(profit).div(PRECISION);\r\n    uint256 devFee = developerFeeProportion.mul(this.balance).div(PRECISION);\r\n    uint256 newTotalFunds = this.balance.sub(totalCommission).sub(devFee);\r\n\r\n    // Update values\r\n    ROI(cycleNumber, totalFundsInWeis, newTotalFunds);\r\n    totalFundsInWeis = newTotalFunds;\r\n\r\n    // Transfer fees\r\n    developerFeeAccount.transfer(devFee);\r\n\r\n    // Emit event\r\n    TotalCommissionPaid(cycleNumber, totalCommission);\r\n  }\r\n\r\n  function __handleInvestment(uint256 _proposalId, bool _buy) internal {\r\n    Proposal storage prop = userProposals[msg.sender][_proposalId];\r\n    uint256 srcAmount;\r\n    if (_buy) {\r\n      srcAmount = totalFundsInWeis.mul(prop.stake).div(cToken.totalSupply());\r\n    } else {\r\n      srcAmount = prop.tokenAmount;\r\n    }\r\n    uint256 actualRate = __transactToken(prop.tokenAddress, srcAmount, _buy);\r\n    if (_buy) {\r\n      prop.buyPriceInWeis = actualRate;\r\n    } else {\r\n      prop.sellPriceInWeis = actualRate;\r\n    }\r\n  }\r\n\r\n  function __transactToken(address _tokenAddr, uint256 _srcAmount, bool _buy) internal returns(uint256 _actualRate) {\r\n    uint256 actualDestAmount;\r\n    uint256 beforeBalance;\r\n    address destAddr = _tokenAddr;\r\n    DetailedERC20 destToken = DetailedERC20(destAddr);\r\n\r\n    if (_buy) {\r\n      // Make buy orders\r\n\r\n      beforeBalance = this.balance;\r\n\r\n      // Do trade\r\n      actualDestAmount = kyber.trade.value(_srcAmount)(\r\n        ETH_TOKEN_ADDRESS,\r\n        _srcAmount,\r\n        destToken,\r\n        address(this),\r\n        MAX_QTY,\r\n        1,\r\n        address(this)\r\n      );\r\n\r\n      // Record buy price\r\n      require(actualDestAmount > 0);\r\n      _actualRate = beforeBalance.sub(this.balance).mul(PRECISION).div(actualDestAmount);\r\n    } else {\r\n      // Make sell orders\r\n\r\n      beforeBalance = destToken.balanceOf(address(this));\r\n\r\n      // Do trade\r\n      destToken.approve(kyberAddr, _srcAmount);\r\n      actualDestAmount = kyber.trade(\r\n        destToken,\r\n        _srcAmount,\r\n        ETH_TOKEN_ADDRESS,\r\n        address(this),\r\n        MAX_QTY,\r\n        1,\r\n        address(this)\r\n      );\r\n      destToken.approve(kyberAddr, 0);\r\n\r\n      // Record sell price\r\n      require(beforeBalance > destToken.balanceOf(address(this)));\r\n      _actualRate = actualDestAmount.mul(PRECISION).div(beforeBalance.sub(destToken.balanceOf(address(this))));\r\n    }\r\n  }\r\n\r\n  function() public payable {\r\n    if (msg.sender != kyberAddr) {\r\n      revert();\r\n    }\r\n  }\r\n}",
  "sourcePath": "D:\\msi-cn\\Documents\\GitHub\\betoken\\eth\\contracts\\BetokenFund.sol",
  "compiler": {
    "name": "solc",
    "version": "0.4.19+commit.c4cbbb05.Emscripten.clang"
  },
  "schemaVersion": "2.0.0",
  "updatedAt": "2018-03-21T03:09:15.612Z"
}