{
  "contractName": "BetokenFund",
  "abi": [
    {
      "constant": true,
      "inputs": [],
      "name": "allowEmergencyWithdraw",
      "outputs": [
        {
          "name": "",
          "type": "bool"
        }
      ],
      "payable": false,
      "stateMutability": "view",
      "type": "function"
    },
    {
      "constant": true,
      "inputs": [],
      "name": "developerFeeAccount",
      "outputs": [
        {
          "name": "",
          "type": "address"
        }
      ],
      "payable": false,
      "stateMutability": "view",
      "type": "function"
    },
    {
      "constant": true,
      "inputs": [
        {
          "name": "",
          "type": "address"
        },
        {
          "name": "",
          "type": "uint256"
        }
      ],
      "name": "userProposals",
      "outputs": [
        {
          "name": "tokenAddress",
          "type": "address"
        },
        {
          "name": "cycleNumber",
          "type": "uint256"
        },
        {
          "name": "stake",
          "type": "uint256"
        },
        {
          "name": "tokenAmount",
          "type": "uint256"
        },
        {
          "name": "buyPriceInWeis",
          "type": "uint256"
        },
        {
          "name": "sellPriceInWeis",
          "type": "uint256"
        },
        {
          "name": "isSold",
          "type": "bool"
        }
      ],
      "payable": false,
      "stateMutability": "view",
      "type": "function"
    },
    {
      "constant": true,
      "inputs": [],
      "name": "startTimeOfCyclePhase",
      "outputs": [
        {
          "name": "",
          "type": "uint256"
        }
      ],
      "payable": false,
      "stateMutability": "view",
      "type": "function"
    },
    {
      "constant": true,
      "inputs": [],
      "name": "cycleNumber",
      "outputs": [
        {
          "name": "",
          "type": "uint256"
        }
      ],
      "payable": false,
      "stateMutability": "view",
      "type": "function"
    },
    {
      "constant": false,
      "inputs": [],
      "name": "unpause",
      "outputs": [],
      "payable": false,
      "stateMutability": "nonpayable",
      "type": "function"
    },
    {
      "constant": true,
      "inputs": [],
      "name": "controlTokenInflation",
      "outputs": [
        {
          "name": "",
          "type": "uint256"
        }
      ],
      "payable": false,
      "stateMutability": "view",
      "type": "function"
    },
    {
      "constant": true,
      "inputs": [],
      "name": "paused",
      "outputs": [
        {
          "name": "",
          "type": "bool"
        }
      ],
      "payable": false,
      "stateMutability": "view",
      "type": "function"
    },
    {
      "constant": true,
      "inputs": [],
      "name": "commissionRate",
      "outputs": [
        {
          "name": "",
          "type": "uint256"
        }
      ],
      "payable": false,
      "stateMutability": "view",
      "type": "function"
    },
    {
      "constant": true,
      "inputs": [],
      "name": "functionCallReward",
      "outputs": [
        {
          "name": "",
          "type": "uint256"
        }
      ],
      "payable": false,
      "stateMutability": "view",
      "type": "function"
    },
    {
      "constant": true,
      "inputs": [],
      "name": "aumThresholdInWeis",
      "outputs": [
        {
          "name": "",
          "type": "uint256"
        }
      ],
      "payable": false,
      "stateMutability": "view",
      "type": "function"
    },
    {
      "constant": true,
      "inputs": [],
      "name": "totalFundsInWeis",
      "outputs": [
        {
          "name": "",
          "type": "uint256"
        }
      ],
      "payable": false,
      "stateMutability": "view",
      "type": "function"
    },
    {
      "constant": true,
      "inputs": [
        {
          "name": "",
          "type": "address"
        }
      ],
      "name": "lastCommissionRedemption",
      "outputs": [
        {
          "name": "",
          "type": "uint256"
        }
      ],
      "payable": false,
      "stateMutability": "view",
      "type": "function"
    },
    {
      "constant": false,
      "inputs": [],
      "name": "pause",
      "outputs": [],
      "payable": false,
      "stateMutability": "nonpayable",
      "type": "function"
    },
    {
      "constant": true,
      "inputs": [],
      "name": "owner",
      "outputs": [
        {
          "name": "",
          "type": "address"
        }
      ],
      "payable": false,
      "stateMutability": "view",
      "type": "function"
    },
    {
      "constant": true,
      "inputs": [],
      "name": "kyberAddr",
      "outputs": [
        {
          "name": "",
          "type": "address"
        }
      ],
      "payable": false,
      "stateMutability": "view",
      "type": "function"
    },
    {
      "constant": true,
      "inputs": [],
      "name": "PRECISION",
      "outputs": [
        {
          "name": "",
          "type": "uint256"
        }
      ],
      "payable": false,
      "stateMutability": "view",
      "type": "function"
    },
    {
      "constant": true,
      "inputs": [],
      "name": "developerFeeProportion",
      "outputs": [
        {
          "name": "",
          "type": "uint256"
        }
      ],
      "payable": false,
      "stateMutability": "view",
      "type": "function"
    },
    {
      "constant": true,
      "inputs": [],
      "name": "totalCommission",
      "outputs": [
        {
          "name": "",
          "type": "uint256"
        }
      ],
      "payable": false,
      "stateMutability": "view",
      "type": "function"
    },
    {
      "constant": true,
      "inputs": [],
      "name": "shareTokenAddr",
      "outputs": [
        {
          "name": "",
          "type": "address"
        }
      ],
      "payable": false,
      "stateMutability": "view",
      "type": "function"
    },
    {
      "constant": true,
      "inputs": [],
      "name": "controlTokenAddr",
      "outputs": [
        {
          "name": "",
          "type": "address"
        }
      ],
      "payable": false,
      "stateMutability": "view",
      "type": "function"
    },
    {
      "constant": false,
      "inputs": [
        {
          "name": "newOwner",
          "type": "address"
        }
      ],
      "name": "transferOwnership",
      "outputs": [],
      "payable": false,
      "stateMutability": "nonpayable",
      "type": "function"
    },
    {
      "constant": true,
      "inputs": [],
      "name": "cyclePhase",
      "outputs": [
        {
          "name": "",
          "type": "uint8"
        }
      ],
      "payable": false,
      "stateMutability": "view",
      "type": "function"
    },
    {
      "inputs": [
        {
          "name": "_cTokenAddr",
          "type": "address"
        },
        {
          "name": "_sTokenAddr",
          "type": "address"
        },
        {
          "name": "_kyberAddr",
          "type": "address"
        },
        {
          "name": "_developerFeeAccount",
          "type": "address"
        },
        {
          "name": "_cycleNumber",
          "type": "uint256"
        },
        {
          "name": "_aumThresholdInWeis",
          "type": "uint256"
        },
        {
          "name": "_phaseLengths",
          "type": "uint256[5]"
        },
        {
          "name": "_commissionRate",
          "type": "uint256"
        },
        {
          "name": "_developerFeeProportion",
          "type": "uint256"
        },
        {
          "name": "_functionCallReward",
          "type": "uint256"
        },
        {
          "name": "_controlTokenInflation",
          "type": "uint256"
        }
      ],
      "payable": false,
      "stateMutability": "nonpayable",
      "type": "constructor"
    },
    {
      "payable": true,
      "stateMutability": "payable",
      "type": "fallback"
    },
    {
      "anonymous": false,
      "inputs": [
        {
          "indexed": true,
          "name": "_cycleNumber",
          "type": "uint256"
        },
        {
          "indexed": true,
          "name": "_newPhase",
          "type": "uint256"
        },
        {
          "indexed": false,
          "name": "_timestamp",
          "type": "uint256"
        }
      ],
      "name": "ChangedPhase",
      "type": "event"
    },
    {
      "anonymous": false,
      "inputs": [
        {
          "indexed": true,
          "name": "_cycleNumber",
          "type": "uint256"
        },
        {
          "indexed": true,
          "name": "_sender",
          "type": "address"
        },
        {
          "indexed": false,
          "name": "_tokenAddress",
          "type": "address"
        },
        {
          "indexed": false,
          "name": "_amount",
          "type": "uint256"
        },
        {
          "indexed": false,
          "name": "_timestamp",
          "type": "uint256"
        }
      ],
      "name": "Deposit",
      "type": "event"
    },
    {
      "anonymous": false,
      "inputs": [
        {
          "indexed": true,
          "name": "_cycleNumber",
          "type": "uint256"
        },
        {
          "indexed": true,
          "name": "_sender",
          "type": "address"
        },
        {
          "indexed": false,
          "name": "_tokenAddress",
          "type": "address"
        },
        {
          "indexed": false,
          "name": "_amount",
          "type": "uint256"
        },
        {
          "indexed": false,
          "name": "_timestamp",
          "type": "uint256"
        }
      ],
      "name": "Withdraw",
      "type": "event"
    },
    {
      "anonymous": false,
      "inputs": [
        {
          "indexed": true,
          "name": "_cycleNumber",
          "type": "uint256"
        },
        {
          "indexed": true,
          "name": "_sender",
          "type": "address"
        },
        {
          "indexed": false,
          "name": "_id",
          "type": "uint256"
        },
        {
          "indexed": false,
          "name": "_tokenAddress",
          "type": "address"
        },
        {
          "indexed": false,
          "name": "_stakeInWeis",
          "type": "uint256"
        }
      ],
      "name": "CreatedProposal",
      "type": "event"
    },
    {
      "anonymous": false,
      "inputs": [
        {
          "indexed": true,
          "name": "_cycleNumber",
          "type": "uint256"
        },
        {
          "indexed": true,
          "name": "_sender",
          "type": "address"
        },
        {
          "indexed": false,
          "name": "_proposalId",
          "type": "uint256"
        },
        {
          "indexed": false,
          "name": "_receivedKairos",
          "type": "uint256"
        }
      ],
      "name": "RedeemedProposal",
      "type": "event"
    },
    {
      "anonymous": false,
      "inputs": [
        {
          "indexed": true,
          "name": "_cycleNumber",
          "type": "uint256"
        },
        {
          "indexed": false,
          "name": "_beforeTotalFunds",
          "type": "uint256"
        },
        {
          "indexed": false,
          "name": "_afterTotalFunds",
          "type": "uint256"
        }
      ],
      "name": "ROI",
      "type": "event"
    },
    {
      "anonymous": false,
      "inputs": [
        {
          "indexed": true,
          "name": "_cycleNumber",
          "type": "uint256"
        },
        {
          "indexed": true,
          "name": "_sender",
          "type": "address"
        },
        {
          "indexed": false,
          "name": "_commission",
          "type": "uint256"
        }
      ],
      "name": "CommissionPaid",
      "type": "event"
    },
    {
      "anonymous": false,
      "inputs": [
        {
          "indexed": true,
          "name": "_cycleNumber",
          "type": "uint256"
        },
        {
          "indexed": false,
          "name": "_totalCommissionInWeis",
          "type": "uint256"
        }
      ],
      "name": "TotalCommissionPaid",
      "type": "event"
    },
    {
      "anonymous": false,
      "inputs": [],
      "name": "Pause",
      "type": "event"
    },
    {
      "anonymous": false,
      "inputs": [],
      "name": "Unpause",
      "type": "event"
    },
    {
      "anonymous": false,
      "inputs": [
        {
          "indexed": true,
          "name": "previousOwner",
          "type": "address"
        },
        {
          "indexed": true,
          "name": "newOwner",
          "type": "address"
        }
      ],
      "name": "OwnershipTransferred",
      "type": "event"
    },
    {
      "constant": true,
      "inputs": [
        {
          "name": "_userAddr",
          "type": "address"
        }
      ],
      "name": "proposalsCount",
      "outputs": [
        {
          "name": "_count",
          "type": "uint256"
        }
      ],
      "payable": false,
      "stateMutability": "view",
      "type": "function"
    },
    {
      "constant": true,
      "inputs": [
        {
          "name": "_userAddr",
          "type": "address"
        }
      ],
      "name": "proposals",
      "outputs": [
        {
          "components": [
            {
              "name": "tokenAddress",
              "type": "address"
            },
            {
              "name": "cycleNumber",
              "type": "uint256"
            },
            {
              "name": "stake",
              "type": "uint256"
            },
            {
              "name": "tokenAmount",
              "type": "uint256"
            },
            {
              "name": "buyPriceInWeis",
              "type": "uint256"
            },
            {
              "name": "sellPriceInWeis",
              "type": "uint256"
            },
            {
              "name": "isSold",
              "type": "bool"
            }
          ],
          "name": "_proposals",
          "type": "tuple[]"
        }
      ],
      "payable": false,
      "stateMutability": "view",
      "type": "function"
    },
    {
      "constant": true,
      "inputs": [],
      "name": "getPhaseLengths",
      "outputs": [
        {
          "name": "_phaseLengths",
          "type": "uint256[5]"
        }
      ],
      "payable": false,
      "stateMutability": "view",
      "type": "function"
    },
    {
      "constant": false,
      "inputs": [
        {
          "name": "_tokenAddr",
          "type": "address"
        }
      ],
      "name": "emergencyDumpToken",
      "outputs": [],
      "payable": false,
      "stateMutability": "nonpayable",
      "type": "function"
    },
    {
      "constant": false,
      "inputs": [
        {
          "name": "_proposalId",
          "type": "uint256"
        }
      ],
      "name": "emergencyRedeemStake",
      "outputs": [],
      "payable": false,
      "stateMutability": "nonpayable",
      "type": "function"
    },
    {
      "constant": false,
      "inputs": [],
      "name": "emergencyUpdateBalance",
      "outputs": [],
      "payable": false,
      "stateMutability": "nonpayable",
      "type": "function"
    },
    {
      "constant": false,
      "inputs": [
        {
          "name": "_val",
          "type": "bool"
        }
      ],
      "name": "setAllowEmergencyWithdraw",
      "outputs": [],
      "payable": false,
      "stateMutability": "nonpayable",
      "type": "function"
    },
    {
      "constant": false,
      "inputs": [],
      "name": "emergencyWithdraw",
      "outputs": [],
      "payable": false,
      "stateMutability": "nonpayable",
      "type": "function"
    },
    {
      "constant": false,
      "inputs": [
        {
          "name": "_newAddr",
          "type": "address"
        }
      ],
      "name": "changeKyberNetworkAddress",
      "outputs": [],
      "payable": false,
      "stateMutability": "nonpayable",
      "type": "function"
    },
    {
      "constant": false,
      "inputs": [
        {
          "name": "_newAddr",
          "type": "address"
        }
      ],
      "name": "changeDeveloperFeeAccount",
      "outputs": [],
      "payable": false,
      "stateMutability": "nonpayable",
      "type": "function"
    },
    {
      "constant": false,
      "inputs": [
        {
          "name": "_newProp",
          "type": "uint256"
        }
      ],
      "name": "changeDeveloperFeeProportion",
      "outputs": [],
      "payable": false,
      "stateMutability": "nonpayable",
      "type": "function"
    },
    {
      "constant": false,
      "inputs": [
        {
          "name": "_newProp",
          "type": "uint256"
        }
      ],
      "name": "changeCommissionRate",
      "outputs": [],
      "payable": false,
      "stateMutability": "nonpayable",
      "type": "function"
    },
    {
      "constant": false,
      "inputs": [
        {
          "name": "_newVal",
          "type": "uint256"
        }
      ],
      "name": "changeControlTokenInflation",
      "outputs": [],
      "payable": false,
      "stateMutability": "nonpayable",
      "type": "function"
    },
    {
      "constant": false,
      "inputs": [
        {
          "name": "_newVal",
          "type": "uint256"
        }
      ],
      "name": "changeCallReward",
      "outputs": [],
      "payable": false,
      "stateMutability": "nonpayable",
      "type": "function"
    },
    {
      "constant": false,
      "inputs": [
        {
          "name": "_newOwner",
          "type": "address"
        }
      ],
      "name": "changeControlTokenOwner",
      "outputs": [],
      "payable": false,
      "stateMutability": "nonpayable",
      "type": "function"
    },
    {
      "constant": false,
      "inputs": [
        {
          "name": "_newOwner",
          "type": "address"
        }
      ],
      "name": "changeShareTokenOwner",
      "outputs": [],
      "payable": false,
      "stateMutability": "nonpayable",
      "type": "function"
    },
    {
      "constant": false,
      "inputs": [],
      "name": "nextPhase",
      "outputs": [],
      "payable": false,
      "stateMutability": "nonpayable",
      "type": "function"
    },
    {
      "constant": false,
      "inputs": [],
      "name": "deposit",
      "outputs": [],
      "payable": true,
      "stateMutability": "payable",
      "type": "function"
    },
    {
      "constant": false,
      "inputs": [
        {
          "name": "_tokenAddr",
          "type": "address"
        },
        {
          "name": "_tokenAmount",
          "type": "uint256"
        }
      ],
      "name": "depositToken",
      "outputs": [],
      "payable": false,
      "stateMutability": "nonpayable",
      "type": "function"
    },
    {
      "constant": false,
      "inputs": [
        {
          "name": "_amountInWeis",
          "type": "uint256"
        }
      ],
      "name": "withdraw",
      "outputs": [],
      "payable": false,
      "stateMutability": "nonpayable",
      "type": "function"
    },
    {
      "constant": false,
      "inputs": [
        {
          "name": "_tokenAddr",
          "type": "address"
        },
        {
          "name": "_amountInWeis",
          "type": "uint256"
        }
      ],
      "name": "withdrawToken",
      "outputs": [],
      "payable": false,
      "stateMutability": "nonpayable",
      "type": "function"
    },
    {
      "constant": false,
      "inputs": [
        {
          "name": "_tokenAddress",
          "type": "address"
        },
        {
          "name": "_stakeInWeis",
          "type": "uint256"
        }
      ],
      "name": "createProposal",
      "outputs": [],
      "payable": false,
      "stateMutability": "nonpayable",
      "type": "function"
    },
    {
      "constant": false,
      "inputs": [
        {
          "name": "_proposalId",
          "type": "uint256"
        }
      ],
      "name": "sellProposalAsset",
      "outputs": [],
      "payable": false,
      "stateMutability": "nonpayable",
      "type": "function"
    },
    {
      "constant": false,
      "inputs": [],
      "name": "redeemCommission",
      "outputs": [],
      "payable": false,
      "stateMutability": "nonpayable",
      "type": "function"
    },
    {
      "constant": false,
      "inputs": [
        {
          "name": "_tokenAddr",
          "type": "address"
        }
      ],
      "name": "sellLeftoverToken",
      "outputs": [],
      "payable": false,
      "stateMutability": "nonpayable",
      "type": "function"
    }
  ],
  "bytecode": "0x60606040526000805460a060020a60ff021916905534156200002057600080fd5b6040516101e0806200392583398101604052808051919060200180519190602001805191906020018051919060200180519190602001805191602082019160c001805191906020018051919060200180519190602001805160008054600160a060020a03191633600160a060020a03161790559150670de0b6b3a76400009050620000ba85856401000000006200019b81026200332c1704565b10620000c557600080fd5b60018054600160a060020a0319908116600160a060020a038e81169182179093556002805483168e85169081179091556003805484168e86169081179091556017805461010060a860020a031916610100909402939093179092556018805484169091179055601980548316909117905560048054909116918a16919091179055620001556010866005620001b2565b50600993909355600a9190915560006008556017805460ff19908116600417909155600595909555600b55600d5550600e55600f80549091169055506200021592505050565b600082820183811015620001ab57fe5b9392505050565b8260058101928215620001e3579160200282015b82811115620001e3578251825591602001919060010190620001c6565b50620001f1929150620001f5565b5090565b6200021291905b80821115620001f15760008155600101620001fc565b90565b61370080620002256000396000f30060606040526004361061022c5763ffffffff60e060020a6000350416630e1b1fda8114610249578063118152231461025f57806312e1ee451461027e578063173e77071461029d57806317514eec146102bc5780631a26af7a146102ed5780631ab371fc146103145780631b31527f146103435780631b8e2192146103ad5780631c68e528146103c05780632303b5b0146103df57806325f842c5146103f55780632e1a7d4d146104085780632f1b3b031461041e5780632f884710146104345780633341b44514610447578063338b5dea146104b45780633eadb6db146104d65780633f4ba83a146104e9578063407fa2a3146104fc5780634d73ec11146105475780635c975abb1461055a5780635d4c32241461056d5780635ea1d6f814610585578063612d194d1461059857806364542e3e146105ab5780636642642a146105c15780636d6f8af4146105d75780637e714dd2146105ea578063821f9824146105fd5780638456cb591461061c5780638657459e1461062f5780638da5cb5b146106455780639e281a9814610658578063a7c4dccf1461067a578063aaf5eb681461068d578063b18e8a8d146106a0578063b2637f65146106bf578063ba25887d146106d2578063c0320dbc146106e5578063d0e30db0146106f8578063d7615d3714610700578063db2e21bc14610713578063dc87454c14610726578063dfc51a2514610739578063e7476abf1461075b578063f2fde38b1461077a578063f6558b0014610799575b60035433600160a060020a0390811691161461024757600080fd5b005b341561025457600080fd5b6102476004356107d0565b341561026a57600080fd5b610247600160a060020a03600435166108e6565b341561028957600080fd5b610247600160a060020a0360043516610967565b34156102a857600080fd5b610247600160a060020a0360043516610a3a565b34156102c757600080fd5b6102db600160a060020a0360043516610b0e565b60405190815260200160405180910390f35b34156102f857600080fd5b610300610b29565b604051901515815260200160405180910390f35b341561031f57600080fd5b610327610b32565b604051600160a060020a03909116815260200160405180910390f35b341561034e57600080fd5b610365600160a060020a0360043516602435610b41565b604051600160a060020a03909716875260208701959095526040808701949094526060860192909252608085015260a084015290151560c083015260e0909101905180910390f35b34156103b857600080fd5b610247610ba7565b34156103cb57600080fd5b610247600160a060020a0360043516610dbb565b34156103ea57600080fd5b610247600435610e6a565b341561040057600080fd5b6102db610e8a565b341561041357600080fd5b610247600435610e90565b341561042957600080fd5b610247600435611086565b341561043f57600080fd5b6102db6110a6565b341561045257600080fd5b610466600160a060020a03600435166110ac565b604051602080825281908101838181518152602001915080516000925b818410156104a35760208085028401015181526020019260010192610483565b925050509250505060405180910390f35b34156104bf57600080fd5b610247600160a060020a0360043516602435611187565b34156104e157600080fd5b6102476116f6565b34156104f457600080fd5b610247611a5e565b341561050757600080fd5b61050f611add565b604051808260a080838360005b8381101561053457808201518382015260200161051c565b5050505090500191505060405180910390f35b341561055257600080fd5b6102db611b1b565b341561056557600080fd5b610300611b21565b341561057857600080fd5b6102476004351515611b31565b341561059057600080fd5b6102db611b77565b34156105a357600080fd5b6102db611b7d565b34156105b657600080fd5b610247600435611b83565b34156105cc57600080fd5b610247600435611bb1565b34156105e257600080fd5b6102db611bd1565b34156105f557600080fd5b6102db611bd7565b341561060857600080fd5b6102db600160a060020a0360043516611bdd565b341561062757600080fd5b610247611bef565b341561063a57600080fd5b610247600435611c73565b341561065057600080fd5b610327611e56565b341561066357600080fd5b610247600160a060020a0360043516602435611e65565b341561068557600080fd5b610327612230565b341561069857600080fd5b6102db61223f565b34156106ab57600080fd5b610247600160a060020a0360043516612245565b34156106ca57600080fd5b6102476122a4565b34156106dd57600080fd5b6102db6122e7565b34156106f057600080fd5b6102db6122ed565b6102476122f3565b341561070b57600080fd5b6103276125b3565b341561071e57600080fd5b6102476125c2565b341561073157600080fd5b610327612884565b341561074457600080fd5b610247600160a060020a0360043516602435612893565b341561076657600080fd5b610247600160a060020a0360043516612c60565b341561078557600080fd5b610247600160a060020a0360043516612cfd565b34156107a457600080fd5b6107ac612d98565b604051808260048111156107bc57fe5b60ff16815260200191505060405180910390f35b60008054819060a060020a900460ff1615156107eb57600080fd5b600f5460ff1615156107fc57600080fd5b600160a060020a033316600090815260166020526040902080548490811061082057fe5b90600052602060002090600702019150600554826001015414151561084457600080fd5b5060028101546000811161085757600080fd5b6000600283018190556017546101009004600160a060020a03169063a9059cbb90339084906040516020015260405160e060020a63ffffffff8516028152600160a060020a0390921660048301526024820152604401602060405180830381600087803b15156108c657600080fd5b6102c65a03f115156108d757600080fd5b50505060405180515050505050565b60005433600160a060020a0390811691161461090157600080fd5b60005460a060020a900460ff16151561091957600080fd5b600160a060020a038116151561092e57600080fd5b60038054600160a060020a0390921673ffffffffffffffffffffffffffffffffffffffff19928316811790915560198054909216179055565b60005433600160a060020a0390811691161461098257600080fd5b60048060175460ff16600481111561099657fe5b146109a057600080fd5b60005460a060020a900460ff1615156109b857600080fd5b610a358283600160a060020a03166370a082313060006040516020015260405160e060020a63ffffffff8416028152600160a060020a039091166004820152602401602060405180830381600087803b1515610a1357600080fd5b6102c65a03f11515610a2457600080fd5b505050604051805190506000612da1565b505050565b600060048060175460ff166004811115610a5057fe5b14610a5a57600080fd5b60005460a060020a900460ff1615610a7157600080fd5b30600160a060020a0316319150610ad98384600160a060020a03166370a082313060006040516020015260405160e060020a63ffffffff8416028152600160a060020a039091166004820152602401602060405180830381600087803b1515610a1357600080fd5b50610b06610af7600160a060020a033016318463ffffffff61331a16565b6007549063ffffffff61332c16565b600755505050565b600160a060020a031660009081526016602052604090205490565b600f5460ff1681565b600454600160a060020a031681565b601660205281600052604060002081815481101515610b5c57fe5b60009182526020909120600790910201805460018201546002830154600384015460048501546005860154600690960154600160a060020a0390951697509295509093909260ff1687565b600060048060175460ff166004811115610bbd57fe5b14610bc757600080fd5b60005460a060020a900460ff1615610bde57600080fd5b600554600160a060020a03331660009081526015602052604090205410610c0457600080fd5b600554600160a060020a0333811660009081526015602052604080822093909355601754610d2393610100909104909216916318160ddd919051602001526040518163ffffffff1660e060020a028152600401602060405180830381600087803b1515610c7057600080fd5b6102c65a03f11515610c8157600080fd5b5050506040518051601754909150610d17906101009004600160a060020a03166370a082313360006040516020015260405160e060020a63ffffffff8416028152600160a060020a039091166004820152602401602060405180830381600087803b1515610cee57600080fd5b6102c65a03f11515610cff57600080fd5b5050506040518051600c54915063ffffffff61334616565b9063ffffffff61337116565b9150600160a060020a03331682156108fc0283604051600060405180830381858888f193505050501515610d5657600080fd5b600160a060020a0333166000908152601660205260408120610d77916135eb565b33600160a060020a03166005547fec530ab710fdaa2b5968fe15f486992441a96f643219cf0150904aa5b9eedf828460405190815260200160405180910390a35050565b60005433600160a060020a03908116911614610dd657600080fd5b60005460a060020a900460ff161515610dee57600080fd5b600160a060020a0381161515610e0357600080fd5b601854600160a060020a031663f2fde38b8260405160e060020a63ffffffff8416028152600160a060020a039091166004820152602401600060405180830381600087803b1515610e5357600080fd5b6102c65a03f11515610e6457600080fd5b50505050565b60005433600160a060020a03908116911614610e8557600080fd5b600b55565b60085481565b60008060175460ff166004811115610ea457fe5b14610eae57600080fd5b60005460a060020a900460ff1615610ec557600080fd5b60055460011415610ed557600080fd5b601854600754600160a060020a039091169063c0001786903390610f5a90610d17856318160ddd6000604051602001526040518163ffffffff1660e060020a028152600401602060405180830381600087803b1515610f3357600080fd5b6102c65a03f11515610f4457600080fd5b505050604051805189915063ffffffff61334616565b60006040516020015260405160e060020a63ffffffff8516028152600160a060020a0390921660048301526024820152604401602060405180830381600087803b1515610fa657600080fd5b6102c65a03f11515610fb757600080fd5b50505060405180515050600754610fd4908363ffffffff61331a16565b600755600160a060020a03331682156108fc0283604051600060405180830381858888f19350505050151561100857600080fd5b33600160a060020a03166005547ffe7813e2866053d5c3938554e517b554fce6666a6561bed9eaa7419b29fa9b6873eeeeeeeeeeeeeeeeeeeeeeeeeeeeeeeeeeeeeeee85426040518084600160a060020a0316600160a060020a03168152602001838152602001828152602001935050505060405180910390a35050565b60005433600160a060020a039081169116146110a157600080fd5b600d55565b60055481565b6110b461360f565b6016600083600160a060020a0316600160a060020a0316815260200190815260200160002080548060200260200160405190810160405281815291906000602084015b8282101561117c57600084815260209020600783020160e060405190810160409081528254600160a060020a031682526001808401546020808501919091526002850154928401929092526003840154606084015260048401546080840152600584015460a084015260069093015460ff16151560c0830152908352920191016110f7565b505050509050919050565b60008080808080808060175460ff1660048111156111a157fe5b146111ab57600080fd5b60005460a060020a900460ff16156111c257600080fd5b600160a060020a03891673eeeeeeeeeeeeeeeeeeeeeeeeeeeeeeeeeeeeeeee14156111ec57600080fd5b889650600087600160a060020a03166318160ddd6000604051602001526040518163ffffffff1660e060020a028152600401602060405180830381600087803b151561123757600080fd5b6102c65a03f1151561124857600080fd5b5050506040518051905011151561125e57600080fd5b86600160a060020a03166323b872dd33308b60006040516020015260405160e060020a63ffffffff8616028152600160a060020a0393841660048201529190921660248201526044810191909152606401602060405180830381600087803b15156112c857600080fd5b6102c65a03f115156112d957600080fd5b5050506040518051905015156112ee57600080fd5b86600160a060020a03166370a082313060006040516020015260405160e060020a63ffffffff8416028152600160a060020a039091166004820152602401602060405180830381600087803b151561134557600080fd5b6102c65a03f1151561135657600080fd5b5050506040518051965050600160a060020a03301631945061137a89896000612da1565b5086600160a060020a03166370a082313060006040516020015260405160e060020a63ffffffff8416028152600160a060020a039091166004820152602401602060405180830381600087803b15156113d257600080fd5b6102c65a03f115156113e357600080fd5b50505060405180518703945050838803925060008311156114815786600160a060020a031663a9059cbb338560006040516020015260405160e060020a63ffffffff8516028152600160a060020a0390921660048301526024820152604401602060405180830381600087803b151561145b57600080fd5b6102c65a03f1151561146c57600080fd5b50505060405180519050151561148157600080fd5b600160a060020a0330163185900391506000821161149e57600080fd5b6005546001141561152957601854600160a060020a03166340c10f19338460006040516020015260405160e060020a63ffffffff8516028152600160a060020a0390921660048301526024820152604401602060405180830381600087803b151561150857600080fd5b6102c65a03f1151561151957600080fd5b50505060405180519050506115ef565b601854600754600160a060020a03909116906340c10f1990339061158790610d17856318160ddd6000604051602001526040518163ffffffff1660e060020a028152600401602060405180830381600087803b1515610f3357600080fd5b60006040516020015260405160e060020a63ffffffff8516028152600160a060020a0390921660048301526024820152604401602060405180830381600087803b15156115d357600080fd5b6102c65a03f115156115e457600080fd5b505050604051805150505b600754611602908363ffffffff61332c16565b6007556017546101009004600160a060020a03166340c10f19338460006040516020015260405160e060020a63ffffffff8516028152600160a060020a0390921660048301526024820152604401602060405180830381600087803b151561166957600080fd5b6102c65a03f1151561167a57600080fd5b505050604051805190505033600160a060020a03166005547feb65d0f36862bbd8763c5e2c983c9d753267d223eee35a224d8d0a9d7ef433a28b87426040518084600160a060020a0316600160a060020a03168152602001838152602001828152602001935050505060405180910390a3505050505050505050565b60005460a060020a900460ff161561170d57600080fd5b6017546117409060109060ff16600481111561172557fe5b6005811061172f57fe5b01546008549063ffffffff61332c16565b42101561174c57600080fd5b600460175460ff16600481111561175f57fe5b14156118475760055461177990600163ffffffff61332c16565b6005556017546101009004600160a060020a0316635c975abb6000604051602001526040518163ffffffff1660e060020a028152600401602060405180830381600087803b15156117c957600080fd5b6102c65a03f115156117da57600080fd5b5050506040518051905015611842576017546101009004600160a060020a0316633f4ba83a6040518163ffffffff1660e060020a028152600401600060405180830381600087803b151561182d57600080fd5b6102c65a03f1151561183e57600080fd5b5050505b61194e565b600060175460ff16600481111561185a57fe5b141561187c576005546001141561184257600e54600754101561184257600080fd5b600360175460ff16600481111561188f57fe5b141561194e576017546101009004600160a060020a031663f3123a3a6040518163ffffffff1660e060020a028152600401600060405180830381600087803b15156118d957600080fd5b6102c65a03f115156118ea57600080fd5b50506017546101009004600160a060020a03169050638456cb596040518163ffffffff1660e060020a028152600401600060405180830381600087803b151561193257600080fd5b6102c65a03f1151561194357600080fd5b50505061194e613388565b60175460059060019060ff16600481111561196557fe5b08600481111561197157fe5b6017805460ff1916600183600481111561198757fe5b021790555042600855601754600b54610100909104600160a060020a0316906340c10f1990339060006040516020015260405160e060020a63ffffffff8516028152600160a060020a0390921660048301526024820152604401602060405180830381600087803b15156119fa57600080fd5b6102c65a03f11515611a0b57600080fd5b5050506040518051505060175460ff166004811115611a2657fe5b6005547f9590d2eff92d0882635fb8e1412da02e41af0dc517cfd07520a03506eb65b0af4260405190815260200160405180910390a3565b60005433600160a060020a03908116911614611a7957600080fd5b60005460a060020a900460ff161515611a9157600080fd5b6000805474ff0000000000000000000000000000000000000000191690557f7805862f689e2f13df9f062ff482ad3ad112aca9e0847911ed832e158c525b3360405160405180910390a1565b611ae5613621565b6010600560a0604051908101604052919060a0830182845b815481526020019060010190808311611afd57505050505090505b90565b600d5481565b60005460a060020a900460ff1681565b60005433600160a060020a03908116911614611b4c57600080fd5b60005460a060020a900460ff161515611b6457600080fd5b600f805460ff1916911515919091179055565b60095481565b600b5481565b60005433600160a060020a03908116911614611b9e57600080fd5b600a548110611bac57600080fd5b600a55565b60005433600160a060020a03908116911614611bcc57600080fd5b600955565b600e5481565b60075481565b60156020526000908152604090205481565b60005433600160a060020a03908116911614611c0a57600080fd5b60005460a060020a900460ff1615611c2157600080fd5b6000805474ff0000000000000000000000000000000000000000191660a060020a1790557f6985a02210a168e66602d3235cb6db0e70f92b3ba4d376a33c0f3d9434bff62560405160405180910390a1565b6000808060038060175460ff166004811115611c8b57fe5b14611c9557600080fd5b60005460a060020a900460ff1615611cac57600080fd5b600160a060020a0333166000908152601660205260409020805486908110611cd057fe5b9060005260206000209060070201935060008460040154111515611cf357600080fd5b600554600185015414611d0557600080fd5b600684015460ff1615611d1757600080fd5b611d228560006134e0565b6006808501805460ff19166001179055600d54600486015491546005870154611d6693611d5a929091610d179163ffffffff61334616565b9063ffffffff61332c16565b9250611d85600654610d1785876002015461334690919063ffffffff16565b6017549092506101009004600160a060020a03166340c10f19338460006040516020015260405160e060020a63ffffffff8516028152600160a060020a0390921660048301526024820152604401602060405180830381600087803b1515611dec57600080fd5b6102c65a03f11515611dfd57600080fd5b505050604051805190505033600160a060020a03166005547f0f60dc85641c942ffbe6c217642ae2cdb1bb8e3c12f6dbba1d2d9590de23e817878560405191825260208201526040908101905180910390a35050505050565b600054600160a060020a031681565b600080808080808060175460ff166004811115611e7e57fe5b14611e8857600080fd5b60005460a060020a900460ff1615611e9f57600080fd5b60055460011415611eaf57600080fd5b600160a060020a03881673eeeeeeeeeeeeeeeeeeeeeeeeeeeeeeeeeeeeeeee1415611ed957600080fd5b879550600086600160a060020a03166318160ddd6000604051602001526040518163ffffffff1660e060020a028152600401602060405180830381600087803b1515611f2457600080fd5b6102c65a03f11515611f3557600080fd5b50505060405180519050111515611f4b57600080fd5b85600160a060020a03166370a082313060006040516020015260405160e060020a63ffffffff8416028152600160a060020a039091166004820152602401602060405180830381600087803b1515611fa257600080fd5b6102c65a03f11515611fb357600080fd5b5050506040518051955050600160a060020a033016319350611fd788886001612da1565b508486600160a060020a03166370a082313060006040516020015260405160e060020a63ffffffff8416028152600160a060020a039091166004820152602401602060405180830381600087803b151561203057600080fd5b6102c65a03f1151561204157600080fd5b5050506040518051905003925030600160a060020a0316318403915060008211151561206c57600080fd5b601854600754600160a060020a039091169063c00017869033906120ca90610d17856318160ddd6000604051602001526040518163ffffffff1660e060020a028152600401602060405180830381600087803b1515610f3357600080fd5b60006040516020015260405160e060020a63ffffffff8516028152600160a060020a0390921660048301526024820152604401602060405180830381600087803b151561211657600080fd5b6102c65a03f1151561212757600080fd5b50505060405180515050600754612144908363ffffffff61331a16565b600755600160a060020a03861663a9059cbb338560006040516020015260405160e060020a63ffffffff8516028152600160a060020a0390921660048301526024820152604401602060405180830381600087803b15156121a457600080fd5b6102c65a03f115156121b557600080fd5b505050604051805190505033600160a060020a03166005547ffe7813e2866053d5c3938554e517b554fce6666a6561bed9eaa7419b29fa9b688a86426040518084600160a060020a0316600160a060020a03168152602001838152602001828152602001935050505060405180910390a35050505050505050565b600354600160a060020a031681565b60065481565b60005433600160a060020a0390811691161461226057600080fd5b600160a060020a038116151561227557600080fd5b6004805473ffffffffffffffffffffffffffffffffffffffff1916600160a060020a0392909216919091179055565b60005433600160a060020a039081169116146122bf57600080fd5b60005460a060020a900460ff1615156122d757600080fd5b600160a060020a03301631600755565b600a5481565b600c5481565b60008060175460ff16600481111561230757fe5b1461231157600080fd5b60005460a060020a900460ff161561232857600080fd5b600554600114156123b357601854600160a060020a03166340c10f19333460006040516020015260405160e060020a63ffffffff8516028152600160a060020a0390921660048301526024820152604401602060405180830381600087803b151561239257600080fd5b6102c65a03f115156123a357600080fd5b50505060405180519050506124a0565b601854600754600160a060020a03909116906340c10f1990339061243890610d17856318160ddd6000604051602001526040518163ffffffff1660e060020a028152600401602060405180830381600087803b151561241157600080fd5b6102c65a03f1151561242257600080fd5b505050604051805134915063ffffffff61334616565b60006040516020015260405160e060020a63ffffffff8516028152600160a060020a0390921660048301526024820152604401602060405180830381600087803b151561248457600080fd5b6102c65a03f1151561249557600080fd5b505050604051805150505b6007546124b3903463ffffffff61332c16565b6007556017546101009004600160a060020a03166340c10f19333460006040516020015260405160e060020a63ffffffff8516028152600160a060020a0390921660048301526024820152604401602060405180830381600087803b151561251a57600080fd5b6102c65a03f1151561252b57600080fd5b505050604051805190505033600160a060020a03166005547feb65d0f36862bbd8763c5e2c983c9d753267d223eee35a224d8d0a9d7ef433a273eeeeeeeeeeeeeeeeeeeeeeeeeeeeeeeeeeeeeeee34426040518084600160a060020a0316600160a060020a03168152602001838152602001828152602001935050505060405180910390a350565b600254600160a060020a031681565b6000805460a060020a900460ff1615156125db57600080fd5b600f5460ff1615156125ec57600080fd5b6018546126db90600160a060020a03166318160ddd6000604051602001526040518163ffffffff1660e060020a028152600401602060405180830381600087803b151561263857600080fd5b6102c65a03f1151561264957600080fd5b5050506040518051600754601854919250610d1791600160a060020a03166370a082313360006040516020015260405160e060020a63ffffffff8416028152600160a060020a039091166004820152602401602060405180830381600087803b15156126b457600080fd5b6102c65a03f115156126c557600080fd5b505050604051805191905063ffffffff61334616565b601854909150600160a060020a031663c000178633826370a082318260006040516020015260405160e060020a63ffffffff8416028152600160a060020a039091166004820152602401602060405180830381600087803b151561273e57600080fd5b6102c65a03f1151561274f57600080fd5b5050506040518051905060006040516020015260405160e060020a63ffffffff8516028152600160a060020a0390921660048301526024820152604401602060405180830381600087803b15156127a557600080fd5b6102c65a03f115156127b657600080fd5b505050604051805150506007546127d3908263ffffffff61331a16565b600755600160a060020a03331681156108fc0282604051600060405180830381858888f19350505050151561280757600080fd5b33600160a060020a03166005547ffe7813e2866053d5c3938554e517b554fce6666a6561bed9eaa7419b29fa9b6873eeeeeeeeeeeeeeeeeeeeeeeeeeeeeeeeeeeeeeee84426040518084600160a060020a0316600160a060020a03168152602001838152602001828152602001935050505060405180910390a350565b600154600160a060020a031681565b6000808060018060175460ff1660048111156128ab57fe5b146128b557600080fd5b60005460a060020a900460ff16156128cc57600080fd5b859350600084600160a060020a03166318160ddd6000604051602001526040518163ffffffff1660e060020a028152600401602060405180830381600087803b151561291757600080fd5b6102c65a03f1151561292857600080fd5b5050506040518051905011151561293e57600080fd5b6017546101009004600160a060020a0316632bee7bde338760006040516020015260405160e060020a63ffffffff8516028152600160a060020a0390921660048301526024820152604401602060405180830381600087803b15156129a257600080fd5b6102c65a03f115156129b357600080fd5b50505060405180515050600160a060020a03331660009081526016602052604090208054600181016129e58382613648565b9160005260206000209060070201600060e06040519081016040908152600160a060020a038b168252600554602083015281018990526000606082018190526080820181905260a0820181905260c08201529190508151815473ffffffffffffffffffffffffffffffffffffffff1916600160a060020a03919091161781556020820151816001015560408201518160020155606082015181600301556080820151816004015560a0820151816005015560c0820151600691909101805460ff19169115159190911790555050600160a060020a0384166370a082313060006040516020015260405160e060020a63ffffffff8416028152600160a060020a039091166004820152602401602060405180830381600087803b1515612b0957600080fd5b6102c65a03f11515612b1a57600080fd5b5050506040518051905092506001612b3133610b0e565b039150612b3f8260016134e0565b8284600160a060020a03166370a082313060006040516020015260405160e060020a63ffffffff8416028152600160a060020a039091166004820152602401602060405180830381600087803b1515612b9757600080fd5b6102c65a03f11515612ba857600080fd5b5050506040518051600160a060020a03331660009081526016602052604090208054939091039290915084908110612bdc57fe5b90600052602060002090600702016003018190555033600160a060020a03166005547fd5e80cb8f15599762752fd8ab1596dc8d1b452ec8fcd4692daf3e695f195239d6001612c2a33610b0e565b038989604051928352600160a060020a0390911660208301526040808301919091526060909101905180910390a3505050505050565b60005433600160a060020a03908116911614612c7b57600080fd5b60005460a060020a900460ff161515612c9357600080fd5b600160a060020a0381161515612ca857600080fd5b6017546101009004600160a060020a031663f2fde38b8260405160e060020a63ffffffff8416028152600160a060020a039091166004820152602401600060405180830381600087803b1515610e5357600080fd5b60005433600160a060020a03908116911614612d1857600080fd5b600160a060020a0381161515612d2d57600080fd5b600054600160a060020a0380831691167f8be0079c531659141344cd1fd0a4f28419497f9722a3daafe3b4186f6b6457e060405160405180910390a36000805473ffffffffffffffffffffffffffffffffffffffff1916600160a060020a0392909216919091179055565b60175460ff1681565b6000808085808515612f4957601954600160a060020a033081811631955091169063cb3c28c790899073eeeeeeeeeeeeeeeeeeeeeeeeeeeeeeeeeeeeeeee90829086906b204fce5e3e2502611000000060016000806040516020015260405160e060020a63ffffffff8b16028152600160a060020a039788166004820152602481019690965293861660448601529185166064850152608484015260a483015290911660c482015260e4016020604051808303818588803b1515612e6457600080fd5b6125ee5a03f11515612e7557600080fd5b50505050604051805194505060008411612e8e57600080fd5b612f42612ea985670de0b6b3a764000063ffffffff61334616565b610d1783600160a060020a031663313ce5676000604051602001526040518163ffffffff1660e060020a028152600401602060405180830381600087803b1515612ef257600080fd5b6102c65a03f11515612f0357600080fd5b5050506040518051905060ff16600a0a612f36600654612f3630600160a060020a0316318a61331a90919063ffffffff16565b9063ffffffff61334616565b945061330f565b80600160a060020a03166370a082313060006040516020015260405160e060020a63ffffffff8416028152600160a060020a039091166004820152602401602060405180830381600087803b1515612fa057600080fd5b6102c65a03f11515612fb157600080fd5b5050506040518051600354909450600160a060020a03808416925063095ea7b391168960006040516020015260405160e060020a63ffffffff8516028152600160a060020a0390921660048301526024820152604401602060405180830381600087803b151561302057600080fd5b6102c65a03f1151561303157600080fd5b50505060405180515050601954600160a060020a031663cb3c28c7828973eeeeeeeeeeeeeeeeeeeeeeeeeeeeeeeeeeeeeeee306b204fce5e3e2502611000000060016000806040516020015260405160e060020a63ffffffff8a16028152600160a060020a039788166004820152602481019690965293861660448601529185166064850152608484015260a483015290911660c482015260e401602060405180830381600087803b15156130e557600080fd5b6102c65a03f115156130f657600080fd5b5050506040518051600354909550600160a060020a03808416925063095ea7b391166000806040516020015260405160e060020a63ffffffff8516028152600160a060020a0390921660048301526024820152604401602060405180830381600087803b151561316557600080fd5b6102c65a03f1151561317657600080fd5b50505060405180515050600160a060020a0381166370a082313060006040516020015260405160e060020a63ffffffff8416028152600160a060020a039091166004820152602401602060405180830381600087803b15156131d757600080fd5b6102c65a03f115156131e857600080fd5b5050506040518051841190506131fd57600080fd5b61330c6132eb82600160a060020a031663313ce5676000604051602001526040518163ffffffff1660e060020a028152600401602060405180830381600087803b151561324957600080fd5b6102c65a03f1151561325a57600080fd5b5050506040518051905060ff16600a0a612f3684600160a060020a03166370a082313060006040516020015260405160e060020a63ffffffff8416028152600160a060020a039091166004820152602401602060405180830381600087803b15156132c457600080fd5b6102c65a03f115156132d557600080fd5b505050604051805188915063ffffffff61331a16565b610d17670de0b6b3a7640000612f366006548961334690919063ffffffff16565b94505b505050509392505050565b60008282111561332657fe5b50900390565b60008282018381101561333b57fe5b8091505b5092915050565b600080831515613359576000915061333f565b5082820282848281151561336957fe5b041461333b57fe5b600080828481151561337f57fe5b04949350505050565b600080600080925060075430600160a060020a03163111156133b65760075430600160a060020a0316310392505b6133d1600654610d178560095461334690919063ffffffff16565b600c55600654600a546133f99190610d1790600160a060020a0330163163ffffffff61334616565b915061342a8261341e600c5430600160a060020a03163161331a90919063ffffffff16565b9063ffffffff61331a16565b90506005547f13a18edb371d0a74be72de10b678893b96bc8a47e776bb122c59e21d53956fbd6007548360405191825260208201526040908101905180910390a26007819055600454600160a060020a031682156108fc0283604051600060405180830381858888f1935050505015156134a357600080fd5b6005547f2f7da09d276ad6237b75476b806f4d8388b9228bd6fa45a7ca214fac5abdf7a3600c5460405190815260200160405180910390a2505050565b600160a060020a03331660009081526016602052604081208054829182918690811061350857fe5b9060005260206000209060070201925083156135aa576017546135a3906101009004600160a060020a03166318160ddd6000604051602001526040518163ffffffff1660e060020a028152600401602060405180830381600087803b151561356f57600080fd5b6102c65a03f1151561358057600080fd5b50505060405180519050610d17856002015460075461334690919063ffffffff16565b91506135b2565b826003015491505b82546135c890600160a060020a03168386612da1565b905083156135dc57600483018190556135e4565b600583018190555b5050505050565b508054600082556007029060005260206000209081019061360c9190613670565b50565b60206040519081016040526000815290565b60a06040519081016040526005815b60008152602001906001900390816136305790505090565b815481835581811511610a3557600702816007028360005260206000209182019101610a3591905b611b1891905b808211156136d057805473ffffffffffffffffffffffffffffffffffffffff19168155600060018201819055600282018190556003820181905560048201819055600582015560068101805460ff19169055600701613676565b50905600a165627a7a72305820114757725f21130b10ee0189a21bed280e7a6694a16e83c94926d7686bbb19c30029",
  "source": "pragma solidity ^0.4.18;\r\n\r\nimport 'zeppelin-solidity/contracts/math/SafeMath.sol';\r\nimport 'zeppelin-solidity/contracts/math/Math.sol';\r\nimport 'zeppelin-solidity/contracts/lifecycle/Pausable.sol';\r\nimport './ControlToken.sol';\r\nimport './ShareToken.sol';\r\nimport './KyberNetwork.sol';\r\nimport './Utils.sol';\r\n\r\n/**\r\n * The main contract of the Betoken hedge fund\r\n */\r\ncontract BetokenFund is Pausable, Utils {\r\n  using SafeMath for uint256;\r\n\r\n  enum CyclePhase { ChangeMaking, ProposalMaking, Waiting, Finalizing, Finalized }\r\n\r\n  struct Proposal {\r\n    address tokenAddress;\r\n    uint256 cycleNumber;\r\n    uint256 stake;\r\n    uint256 tokenAmount;\r\n    uint256 buyPriceInWeis;\r\n    uint256 sellPriceInWeis;\r\n    bool isSold;\r\n  }\r\n\r\n  /**\r\n   * @dev Executes function only during the given cycle phase.\r\n   * @param phase the cycle phase during which the function may be called\r\n   */\r\n  modifier during(CyclePhase phase) {\r\n    require(cyclePhase == phase);\r\n    _;\r\n  }\r\n\r\n  // Address of the control token contract.\r\n  address public controlTokenAddr;\r\n\r\n  // Address of the share token contract.\r\n  address public shareTokenAddr;\r\n\r\n  // Address of the KyberNetwork contract\r\n  address public kyberAddr;\r\n\r\n  // Address to which the developer fees will be paid.\r\n  address public developerFeeAccount;\r\n\r\n  // The number of the current investment cycle.\r\n  uint256 public cycleNumber;\r\n\r\n  // 10^{decimals} used for representing fixed point numbers with {decimals} decimals.\r\n  uint256 public PRECISION;\r\n\r\n  // The amount of funds held by the fund.\r\n  uint256 public totalFundsInWeis;\r\n\r\n  // The start time for the current investment cycle phase, in seconds since Unix epoch.\r\n  uint256 public startTimeOfCyclePhase;\r\n\r\n  // The proportion of the fund that gets distributed to Kairo holders every cycle. Fixed point decimal.\r\n  uint256 public commissionRate;\r\n\r\n  // The proportion of contract balance that goes the the devs every cycle. Fixed point decimal.\r\n  uint256 public developerFeeProportion;\r\n\r\n  // Amount of Kairo rewarded to the user who calls a phase transition/proposal handling function\r\n  uint256 public functionCallReward;\r\n\r\n  // Amount of commission to be paid out this cycle\r\n  uint256 public totalCommission;\r\n\r\n  // Inflation rate of control token (KRO). Fixed point decimal.\r\n  uint256 public controlTokenInflation;\r\n\r\n  // The AUM (Asset Under Management) threshold for progressing to ProposalMakingTime in the first cycle.\r\n  uint256 public aumThresholdInWeis;\r\n\r\n  // Flag for whether emergency withdrawing is allowed.\r\n  bool public allowEmergencyWithdraw;\r\n\r\n  uint256[5] phaseLengths;\r\n\r\n  // The last cycle where a user redeemed commission.\r\n  mapping(address => uint256) public lastCommissionRedemption;\r\n\r\n  // List of proposals in the current cycle.\r\n  mapping(address => Proposal[]) public userProposals;\r\n\r\n  // The current cycle phase.\r\n  CyclePhase public cyclePhase;\r\n\r\n  // Contract instances\r\n  ControlToken internal cToken;\r\n  ShareToken internal sToken;\r\n  KyberNetwork internal kyber;\r\n\r\n  event ChangedPhase(uint256 indexed _cycleNumber, uint256 indexed _newPhase, uint256 _timestamp);\r\n\r\n  event Deposit(uint256 indexed _cycleNumber, address indexed _sender, address _tokenAddress, uint256 _amount, uint256 _timestamp);\r\n  event Withdraw(uint256 indexed _cycleNumber, address indexed _sender, address _tokenAddress, uint256 _amount, uint256 _timestamp);\r\n\r\n  event CreatedProposal(uint256 indexed _cycleNumber, address indexed _sender, uint256 _id, address _tokenAddress, uint256 _stakeInWeis);\r\n  event RedeemedProposal(uint256 indexed _cycleNumber, address indexed _sender, uint256 _proposalId, uint256 _receivedKairos);\r\n\r\n  event ROI(uint256 indexed _cycleNumber, uint256 _beforeTotalFunds, uint256 _afterTotalFunds);\r\n  event CommissionPaid(uint256 indexed _cycleNumber, address indexed _sender, uint256 _commission);\r\n  event TotalCommissionPaid(uint256 indexed _cycleNumber, uint256 _totalCommissionInWeis);\r\n\r\n  /**\r\n   * Contract initialization functions\r\n   */\r\n\r\n  // Constructor\r\n  function BetokenFund(\r\n    address _cTokenAddr,\r\n    address _sTokenAddr,\r\n    address _kyberAddr,\r\n    address _developerFeeAccount,\r\n    uint256 _cycleNumber,\r\n    uint256 _aumThresholdInWeis,\r\n    uint256[5] _phaseLengths,\r\n    uint256 _commissionRate,\r\n    uint256 _developerFeeProportion,\r\n    uint256 _functionCallReward,\r\n    uint256 _controlTokenInflation\r\n  )\r\n    public\r\n  {\r\n    require(_commissionRate.add(_developerFeeProportion) < 10**18);\r\n\r\n    controlTokenAddr = _cTokenAddr;\r\n    shareTokenAddr = _sTokenAddr;\r\n    kyberAddr = _kyberAddr;\r\n    cToken = ControlToken(_cTokenAddr);\r\n    sToken = ShareToken(_sTokenAddr);\r\n    kyber = KyberNetwork(_kyberAddr);\r\n\r\n    developerFeeAccount = _developerFeeAccount;\r\n    phaseLengths = _phaseLengths;\r\n    commissionRate = _commissionRate;\r\n    developerFeeProportion = _developerFeeProportion;\r\n    startTimeOfCyclePhase = 0;\r\n    cyclePhase = CyclePhase.Finalized;\r\n    cycleNumber = _cycleNumber;\r\n    functionCallReward = _functionCallReward;\r\n    controlTokenInflation = _controlTokenInflation;\r\n    aumThresholdInWeis = _aumThresholdInWeis;\r\n    allowEmergencyWithdraw = false;\r\n  }\r\n\r\n  /**\r\n   * Getters\r\n   */\r\n\r\n  /**\r\n   * Returns the length of the proposals array.\r\n   * @return length of proposals array\r\n   */\r\n  function proposalsCount(address _userAddr) public view returns(uint256 _count) {\r\n    return userProposals[_userAddr].length;\r\n  }\r\n\r\n  function proposals(address _userAddr) public view returns(Proposal[] _proposals) {\r\n    return userProposals[_userAddr];\r\n  }\r\n\r\n  function getPhaseLengths() public view returns(uint256[5] _phaseLengths) {\r\n    return phaseLengths;\r\n  }\r\n\r\n  /**\r\n   * Meta functions\r\n   */\r\n\r\n  /**\r\n   * Emergency functions\r\n   */\r\n\r\n  /**\r\n   * @dev In case the fund is invested in tokens, sell all tokens.\r\n   */\r\n  function emergencyDumpToken(address _tokenAddr)\r\n    public\r\n    onlyOwner\r\n    during(CyclePhase.Finalized)\r\n    whenPaused\r\n  {\r\n    __transactToken(_tokenAddr, ERC20(_tokenAddr).balanceOf(this), false);\r\n  }\r\n\r\n  /**\r\n   * @dev Return staked Kairos for a proposal under emergency situations.\r\n   */\r\n  function emergencyRedeemStake(uint256 _proposalId) whenPaused public {\r\n    require(allowEmergencyWithdraw);\r\n    Proposal storage prop = userProposals[msg.sender][_proposalId];\r\n    require(prop.cycleNumber == cycleNumber);\r\n    uint256 stake = prop.stake;\r\n    require(stake > 0);\r\n    delete prop.stake;\r\n    cToken.transfer(msg.sender, stake);\r\n  }\r\n\r\n  /**\r\n   * @dev Update current fund balance\r\n   */\r\n  function emergencyUpdateBalance() onlyOwner whenPaused public {\r\n    totalFundsInWeis = this.balance;\r\n  }\r\n\r\n  function setAllowEmergencyWithdraw(bool _val) onlyOwner whenPaused public {\r\n    allowEmergencyWithdraw = _val;\r\n  }\r\n\r\n  /**\r\n   * @dev Function for withdrawing all funds in times of emergency. Only callable when fund is paused.\r\n   */\r\n  function emergencyWithdraw()\r\n    public\r\n    whenPaused\r\n  {\r\n    require(allowEmergencyWithdraw);\r\n\r\n    uint256 amountInWeis = sToken.balanceOf(msg.sender).mul(totalFundsInWeis).div(sToken.totalSupply());\r\n    sToken.ownerBurn(msg.sender, sToken.balanceOf(msg.sender));\r\n    totalFundsInWeis = totalFundsInWeis.sub(amountInWeis);\r\n\r\n    // Transfer\r\n    msg.sender.transfer(amountInWeis);\r\n\r\n    // Emit event\r\n    Withdraw(cycleNumber, msg.sender, ETH_TOKEN_ADDRESS, amountInWeis, now);\r\n  }\r\n\r\n  /**\r\n   * Parameter setters\r\n   */\r\n\r\n  /**\r\n   * @dev Changes the address of the KyberNetwork contract used in the contract. Only callable by owner.\r\n   * @param _newAddr new address of KyberNetwork contract\r\n   */\r\n  function changeKyberNetworkAddress(address _newAddr) public onlyOwner whenPaused {\r\n    require(_newAddr != address(0));\r\n    kyberAddr = _newAddr;\r\n    kyber = KyberNetwork(_newAddr);\r\n  }\r\n\r\n  /**\r\n   * @dev Changes the address to which the developer fees will be sent. Only callable by owner.\r\n   * @param _newAddr new developer fee address\r\n   */\r\n  function changeDeveloperFeeAccount(address _newAddr) public onlyOwner {\r\n    require(_newAddr != address(0));\r\n    developerFeeAccount = _newAddr;\r\n  }\r\n\r\n  /**\r\n   * @dev Changes the proportion of fund balance sent to the developers each cycle. May only decrease. Only callable by owner.\r\n   * @param _newProp the new proportion, fixed point decimal\r\n   */\r\n  function changeDeveloperFeeProportion(uint256 _newProp) public onlyOwner {\r\n    require(_newProp < developerFeeProportion);\r\n    developerFeeProportion = _newProp;\r\n  }\r\n\r\n  /**\r\n   * @dev Changes the proportion of fund balance given to Kairo holders each cycle. Only callable by owner.\r\n   * @param _newProp the new proportion, fixed point decimal\r\n   */\r\n  function changeCommissionRate(uint256 _newProp) public onlyOwner {\r\n    commissionRate = _newProp;\r\n  }\r\n\r\n  /**\r\n   * @dev Changes the inflation rate of control tokens. Only callable by owner.\r\n   * @param _newVal the new inflation value, fixed point decimal\r\n   */\r\n  function changeControlTokenInflation(uint256 _newVal) public onlyOwner {\r\n    controlTokenInflation = _newVal;\r\n  }\r\n\r\n  function changeCallReward(uint256 _newVal) public onlyOwner {\r\n    functionCallReward = _newVal;\r\n  }\r\n\r\n  /**\r\n   * @dev Changes the owner of the ControlToken contract.\r\n   * @param  _newOwner the new owner address\r\n   */\r\n  function changeControlTokenOwner(address _newOwner) public onlyOwner whenPaused {\r\n    require(_newOwner != address(0));\r\n    cToken.transferOwnership(_newOwner);\r\n  }\r\n\r\n  /**\r\n   * @dev Changes the owner of the ShareToken contract.\r\n   * @param  _newOwner the new owner address\r\n   */\r\n  function changeShareTokenOwner(address _newOwner) public onlyOwner whenPaused {\r\n    require(_newOwner != address(0));\r\n    sToken.transferOwnership(_newOwner);\r\n  }\r\n\r\n  function nextPhase()\r\n    public\r\n    whenNotPaused\r\n  {\r\n    require(now >= startTimeOfCyclePhase.add(phaseLengths[uint(cyclePhase)]));\r\n\r\n    if (cyclePhase == CyclePhase.Finalized) {\r\n      // Start new cycle\r\n      cycleNumber = cycleNumber.add(1);\r\n\r\n      if (cToken.paused()) {\r\n        cToken.unpause();\r\n      }\r\n    } else if (cyclePhase == CyclePhase.ChangeMaking) {\r\n      // End ChangeMakingTime\r\n      if (cycleNumber == 1) {\r\n        require(totalFundsInWeis >= aumThresholdInWeis);\r\n      }\r\n    } else if (cyclePhase == CyclePhase.Finalizing) {\r\n      // Finalize cycle\r\n\r\n      // Burn any Kairo left in BetokenFund's account\r\n      cToken.burnOwnerBalance();\r\n\r\n      cToken.pause();\r\n      __distributeFundsAfterCycleEnd();\r\n    }\r\n\r\n    cyclePhase = CyclePhase(addmod(uint(cyclePhase), 1, 5));\r\n    startTimeOfCyclePhase = now;\r\n\r\n    // Reward caller\r\n    cToken.mint(msg.sender, functionCallReward);\r\n\r\n    ChangedPhase(cycleNumber, uint(cyclePhase), now);\r\n  }\r\n\r\n  /**\r\n   * ChangeMakingTime functions\r\n   */\r\n\r\n  /**\r\n   * @dev Deposit Ether into the fund.\r\n   */\r\n  function deposit()\r\n    public\r\n    payable\r\n    during(CyclePhase.ChangeMaking)\r\n    whenNotPaused\r\n  {\r\n    // Register investment\r\n    if (cycleNumber == 1) {\r\n      sToken.mint(msg.sender, msg.value);\r\n    } else {\r\n      sToken.mint(msg.sender, msg.value.mul(sToken.totalSupply()).div(totalFundsInWeis));\r\n    }\r\n    totalFundsInWeis = totalFundsInWeis.add(msg.value);\r\n\r\n    // Give control tokens proportional to investment\r\n    // Uncomment if statement if not test version\r\n    // if (cycleNumber == 1) {\r\n      cToken.mint(msg.sender, msg.value);\r\n    // }\r\n\r\n    // Emit event\r\n    Deposit(cycleNumber, msg.sender, ETH_TOKEN_ADDRESS, msg.value, now);\r\n  }\r\n\r\n  function depositToken(address _tokenAddr, uint256 _tokenAmount)\r\n    public\r\n    during(CyclePhase.ChangeMaking)\r\n    whenNotPaused\r\n  {\r\n    require(_tokenAddr != address(ETH_TOKEN_ADDRESS));\r\n    DetailedERC20 token = DetailedERC20(_tokenAddr);\r\n    require(token.totalSupply() > 0);\r\n\r\n    require(token.transferFrom(msg.sender, this, _tokenAmount));\r\n\r\n    uint256 beforeTokenBalance = token.balanceOf(this);\r\n    uint256 beforeEthBalance = this.balance;\r\n    __transactToken(_tokenAddr, _tokenAmount, false);\r\n    uint256 actualTokenAmount = beforeTokenBalance - token.balanceOf(this);\r\n    uint256 leftOverTokens = _tokenAmount - actualTokenAmount;\r\n    if (leftOverTokens > 0) {\r\n      require(token.transfer(msg.sender, leftOverTokens));\r\n    }\r\n\r\n    uint256 depositInWeis = this.balance - beforeEthBalance;\r\n    require(depositInWeis > 0);\r\n\r\n    // Register investment\r\n    if (cycleNumber == 1) {\r\n      sToken.mint(msg.sender, depositInWeis);\r\n    } else {\r\n      sToken.mint(msg.sender, depositInWeis.mul(sToken.totalSupply()).div(totalFundsInWeis));\r\n    }\r\n    totalFundsInWeis = totalFundsInWeis.add(depositInWeis);\r\n\r\n    // Give control tokens proportional to investment\r\n    // Uncomment if statement if not test version\r\n    // if (cycleNumber == 1) {\r\n    cToken.mint(msg.sender, depositInWeis);\r\n    // }\r\n\r\n    // Emit event\r\n    Deposit(cycleNumber, msg.sender, _tokenAddr, actualTokenAmount, now);\r\n  }\r\n\r\n  /**\r\n   * @dev Withdraws a certain amount of Ether from the user's account. Cannot be called during the first cycle.\r\n   * @param _amountInWeis amount of Ether to be withdrawn\r\n   */\r\n  function withdraw(uint256 _amountInWeis)\r\n    public\r\n    during(CyclePhase.ChangeMaking)\r\n    whenNotPaused\r\n  {\r\n    require(cycleNumber != 1);\r\n\r\n    // Subtract from account\r\n    sToken.ownerBurn(msg.sender, _amountInWeis.mul(sToken.totalSupply()).div(totalFundsInWeis));\r\n    totalFundsInWeis = totalFundsInWeis.sub(_amountInWeis);\r\n\r\n    // Transfer Ether to user\r\n    msg.sender.transfer(_amountInWeis);\r\n\r\n    // Emit event\r\n    Withdraw(cycleNumber, msg.sender, ETH_TOKEN_ADDRESS, _amountInWeis, now);\r\n  }\r\n\r\n  function withdrawToken(address _tokenAddr, uint256 _amountInWeis)\r\n    public\r\n    during(CyclePhase.ChangeMaking)\r\n    whenNotPaused\r\n  {\r\n    require(cycleNumber != 1);\r\n    require(_tokenAddr != address(ETH_TOKEN_ADDRESS));\r\n\r\n    DetailedERC20 token = DetailedERC20(_tokenAddr);\r\n    require(token.totalSupply() > 0);\r\n\r\n    // Buy desired tokens\r\n    uint256 beforeTokenBalance = token.balanceOf(this);\r\n    uint256 beforeEthBalance = this.balance;\r\n    __transactToken(_tokenAddr, _amountInWeis, true);\r\n    uint256 actualTokenAmount = token.balanceOf(this) - beforeTokenBalance;\r\n\r\n    // Subtract from account\r\n    uint256 actualAmountInWeis = beforeEthBalance - this.balance;\r\n    require(actualAmountInWeis > 0);\r\n    sToken.ownerBurn(msg.sender, actualAmountInWeis.mul(sToken.totalSupply()).div(totalFundsInWeis));\r\n    totalFundsInWeis = totalFundsInWeis.sub(actualAmountInWeis);\r\n\r\n    // Transfer tokens\r\n    token.transfer(msg.sender, actualTokenAmount);\r\n\r\n    // Emit event\r\n    Withdraw(cycleNumber, msg.sender, _tokenAddr, actualTokenAmount, now);\r\n  }\r\n\r\n  /**\r\n   * Proposal Making time functions\r\n   */\r\n\r\n  /**\r\n   * @dev Creates a new investment proposal for an ERC20 token.\r\n   * @param _tokenAddress address of the ERC20 token contract\r\n   * @param _stakeInWeis amount of Kairos to be staked in support of the proposal\r\n   */\r\n  function createProposal(\r\n    address _tokenAddress,\r\n    uint256 _stakeInWeis\r\n  )\r\n    public\r\n    during(CyclePhase.ProposalMaking)\r\n    whenNotPaused\r\n  {\r\n    // Check if token is valid\r\n    DetailedERC20 token = DetailedERC20(_tokenAddress);\r\n    require(token.totalSupply() > 0);\r\n\r\n    // Collect stake\r\n    cToken.ownerCollectFrom(msg.sender, _stakeInWeis);\r\n\r\n    // Add proposal to list\r\n    userProposals[msg.sender].push(Proposal({\r\n      tokenAddress: _tokenAddress,\r\n      cycleNumber: cycleNumber,\r\n      stake: _stakeInWeis,\r\n      tokenAmount: 0,\r\n      buyPriceInWeis: 0,\r\n      sellPriceInWeis: 0,\r\n      isSold: false\r\n    }));\r\n\r\n    // Invest\r\n    uint256 beforeTokenAmount = token.balanceOf(this);\r\n    uint256 proposalId = proposalsCount(msg.sender) - 1;\r\n    __handleInvestment(proposalId, true);\r\n    userProposals[msg.sender][proposalId].tokenAmount = token.balanceOf(this) - beforeTokenAmount;\r\n\r\n    // Emit event\r\n    CreatedProposal(cycleNumber, msg.sender, proposalsCount(msg.sender) - 1, _tokenAddress, _stakeInWeis);\r\n  }\r\n\r\n  /**\r\n   * Finalizing phase functions\r\n   */\r\n\r\n  /**\r\n   * @dev Called by user to sell the assets a proposal invested in. Returns the staked Kairo plus rewards.\r\n   * @param _proposalId the ID of the proposal\r\n   */\r\n  function sellProposalAsset(uint256 _proposalId)\r\n    public\r\n    during(CyclePhase.Finalizing)\r\n    whenNotPaused\r\n  {\r\n    Proposal storage prop = userProposals[msg.sender][_proposalId];\r\n    require(prop.buyPriceInWeis > 0);\r\n    require(prop.cycleNumber == cycleNumber);\r\n    require(!prop.isSold);\r\n\r\n    __handleInvestment(_proposalId, false);\r\n    prop.isSold = true;\r\n\r\n    uint256 multiplier = prop.sellPriceInWeis.mul(PRECISION).div(prop.buyPriceInWeis).add(controlTokenInflation);\r\n    uint256 receiveKairoAmount = prop.stake.mul(multiplier).div(PRECISION);\r\n    cToken.mint(msg.sender, receiveKairoAmount);\r\n\r\n    RedeemedProposal(cycleNumber, msg.sender, _proposalId, receiveKairoAmount);\r\n  }\r\n\r\n  /**\r\n   * Finalized phase functions\r\n   */\r\n\r\n  /**\r\n   * @dev Redeems commission.\r\n   */\r\n  function redeemCommission()\r\n    public\r\n    during(CyclePhase.Finalized)\r\n    whenNotPaused\r\n  {\r\n    require(lastCommissionRedemption[msg.sender] < cycleNumber);\r\n    lastCommissionRedemption[msg.sender] = cycleNumber;\r\n    uint256 commission = totalCommission.mul(cToken.balanceOf(msg.sender)).div(cToken.totalSupply());\r\n    msg.sender.transfer(commission);\r\n\r\n    // Reset data\r\n    delete userProposals[msg.sender];\r\n\r\n    CommissionPaid(cycleNumber, msg.sender, commission);\r\n  }\r\n\r\n  /**\r\n   * @dev Sells tokens left over due to manager not selling or KyberNetwork not having enough demand.\r\n   * @param _tokenAddr address of the token to be sold\r\n   */\r\n  function sellLeftoverToken(address _tokenAddr)\r\n    public\r\n    during(CyclePhase.Finalized)\r\n    whenNotPaused\r\n  {\r\n    uint256 beforeBalance = this.balance;\r\n    __transactToken(_tokenAddr, ERC20(_tokenAddr).balanceOf(this), false);\r\n    totalFundsInWeis = totalFundsInWeis.add(this.balance.sub(beforeBalance));\r\n  }\r\n\r\n  /**\r\n   * Internal use functions\r\n   */\r\n\r\n  /**\r\n   * @dev Distributes the funds accourding to previously held proportions. Pays commission to Kairo holders,\r\n   * and developer fees to developers.\r\n   */\r\n  function __distributeFundsAfterCycleEnd() internal {\r\n    uint256 profit = 0;\r\n    if (this.balance > totalFundsInWeis) {\r\n      profit = this.balance - totalFundsInWeis;\r\n    }\r\n    totalCommission = commissionRate.mul(profit).div(PRECISION);\r\n    uint256 devFee = developerFeeProportion.mul(this.balance).div(PRECISION);\r\n    uint256 newTotalFunds = this.balance.sub(totalCommission).sub(devFee);\r\n\r\n    // Update values\r\n    ROI(cycleNumber, totalFundsInWeis, newTotalFunds);\r\n    totalFundsInWeis = newTotalFunds;\r\n\r\n    // Transfer fees\r\n    developerFeeAccount.transfer(devFee);\r\n\r\n    // Emit event\r\n    TotalCommissionPaid(cycleNumber, totalCommission);\r\n  }\r\n\r\n  function __handleInvestment(uint256 _proposalId, bool _buy) internal {\r\n    Proposal storage prop = userProposals[msg.sender][_proposalId];\r\n    uint256 srcAmount;\r\n    if (_buy) {\r\n      srcAmount = totalFundsInWeis.mul(prop.stake).div(cToken.totalSupply());\r\n    } else {\r\n      srcAmount = prop.tokenAmount;\r\n    }\r\n    uint256 actualRate = __transactToken(prop.tokenAddress, srcAmount, _buy);\r\n    if (_buy) {\r\n      prop.buyPriceInWeis = actualRate;\r\n    } else {\r\n      prop.sellPriceInWeis = actualRate;\r\n    }\r\n  }\r\n\r\n  function __transactToken(address _tokenAddr, uint256 _srcAmount, bool _buy) internal returns(uint256 _actualRate) {\r\n    uint256 actualDestAmount;\r\n    uint256 beforeBalance;\r\n    address destAddr = _tokenAddr;\r\n    DetailedERC20 destToken = DetailedERC20(destAddr);\r\n\r\n    if (_buy) {\r\n      // Make buy orders\r\n\r\n      beforeBalance = this.balance;\r\n\r\n      // Do trade\r\n      actualDestAmount = kyber.trade.value(_srcAmount)(\r\n        ETH_TOKEN_ADDRESS,\r\n        _srcAmount,\r\n        destToken,\r\n        this,\r\n        MAX_QTY,\r\n        1,\r\n        0\r\n      );\r\n\r\n      // Record buy price\r\n      require(actualDestAmount > 0);\r\n      _actualRate = beforeBalance.sub(this.balance).mul(PRECISION).mul(10**uint256(destToken.decimals())).div(actualDestAmount.mul(10**18));\r\n    } else {\r\n      // Make sell orders\r\n\r\n      beforeBalance = destToken.balanceOf(this);\r\n\r\n      // Do trade\r\n      destToken.approve(kyberAddr, _srcAmount);\r\n      actualDestAmount = kyber.trade(\r\n        destToken,\r\n        _srcAmount,\r\n        ETH_TOKEN_ADDRESS,\r\n        this,\r\n        MAX_QTY,\r\n        1,\r\n        0\r\n      );\r\n      destToken.approve(kyberAddr, 0);\r\n\r\n      // Record sell price\r\n      require(beforeBalance > destToken.balanceOf(this));\r\n      _actualRate = actualDestAmount.mul(PRECISION).mul(10**18).div(beforeBalance.sub(destToken.balanceOf(this)).mul(10**uint256(destToken.decimals())));\r\n    }\r\n  }\r\n\r\n  function() public payable {\r\n    if (msg.sender != kyberAddr) {\r\n      revert();\r\n    }\r\n  }\r\n}",
  "sourcePath": "D:\\msi-cn\\Documents\\GitHub\\betoken\\eth\\contracts\\BetokenFund.sol",
  "compiler": {
    "name": "solc",
    "version": "0.4.19+commit.c4cbbb05.Emscripten.clang"
  },
  "schemaVersion": "2.0.0",
  "updatedAt": "2018-04-02T00:20:43.305Z"
}