{
  "contractName": "BetokenFund",
  "abi": [
    {
      "constant": true,
      "inputs": [],
      "name": "totalFundsInDAI",
      "outputs": [
        {
          "name": "",
          "type": "uint256"
        }
      ],
      "payable": false,
      "stateMutability": "view",
      "type": "function"
    },
    {
      "constant": true,
      "inputs": [
        {
          "name": "",
          "type": "address"
        }
      ],
      "name": "isMaliciousCoin",
      "outputs": [
        {
          "name": "",
          "type": "bool"
        }
      ],
      "payable": false,
      "stateMutability": "view",
      "type": "function"
    },
    {
      "constant": true,
      "inputs": [],
      "name": "allowEmergencyWithdraw",
      "outputs": [
        {
          "name": "",
          "type": "bool"
        }
      ],
      "payable": false,
      "stateMutability": "view",
      "type": "function"
    },
    {
      "constant": true,
      "inputs": [],
      "name": "developerFeeAccount",
      "outputs": [
        {
          "name": "",
          "type": "address"
        }
      ],
      "payable": false,
      "stateMutability": "view",
      "type": "function"
    },
    {
      "constant": true,
      "inputs": [],
      "name": "startTimeOfCyclePhase",
      "outputs": [
        {
          "name": "",
          "type": "uint256"
        }
      ],
      "payable": false,
      "stateMutability": "view",
      "type": "function"
    },
    {
      "constant": true,
      "inputs": [],
      "name": "cycleNumber",
      "outputs": [
        {
          "name": "",
          "type": "uint256"
        }
      ],
      "payable": false,
      "stateMutability": "view",
      "type": "function"
    },
    {
      "constant": false,
      "inputs": [],
      "name": "unpause",
      "outputs": [],
      "payable": false,
      "stateMutability": "nonpayable",
      "type": "function"
    },
    {
      "constant": true,
      "inputs": [],
      "name": "paused",
      "outputs": [
        {
          "name": "",
          "type": "bool"
        }
      ],
      "payable": false,
      "stateMutability": "view",
      "type": "function"
    },
    {
      "constant": true,
      "inputs": [],
      "name": "commissionRate",
      "outputs": [
        {
          "name": "",
          "type": "uint256"
        }
      ],
      "payable": false,
      "stateMutability": "view",
      "type": "function"
    },
    {
      "constant": true,
      "inputs": [],
      "name": "functionCallReward",
      "outputs": [
        {
          "name": "",
          "type": "uint256"
        }
      ],
      "payable": false,
      "stateMutability": "view",
      "type": "function"
    },
    {
      "constant": true,
      "inputs": [],
      "name": "daiAddr",
      "outputs": [
        {
          "name": "",
          "type": "address"
        }
      ],
      "payable": false,
      "stateMutability": "view",
      "type": "function"
    },
    {
      "constant": true,
      "inputs": [
        {
          "name": "",
          "type": "address"
        }
      ],
      "name": "lastCommissionRedemption",
      "outputs": [
        {
          "name": "",
          "type": "uint256"
        }
      ],
      "payable": false,
      "stateMutability": "view",
      "type": "function"
    },
    {
      "constant": false,
      "inputs": [],
      "name": "pause",
      "outputs": [],
      "payable": false,
      "stateMutability": "nonpayable",
      "type": "function"
    },
    {
      "constant": true,
      "inputs": [],
      "name": "owner",
      "outputs": [
        {
          "name": "",
          "type": "address"
        }
      ],
      "payable": false,
      "stateMutability": "view",
      "type": "function"
    },
    {
      "constant": true,
      "inputs": [
        {
          "name": "",
          "type": "address"
        },
        {
          "name": "",
          "type": "uint256"
        }
      ],
      "name": "userInvestments",
      "outputs": [
        {
          "name": "tokenAddress",
          "type": "address"
        },
        {
          "name": "cycleNumber",
          "type": "uint256"
        },
        {
          "name": "stake",
          "type": "uint256"
        },
        {
          "name": "tokenAmount",
          "type": "uint256"
        },
        {
          "name": "buyPrice",
          "type": "uint256"
        },
        {
          "name": "sellPrice",
          "type": "uint256"
        },
        {
          "name": "isSold",
          "type": "bool"
        }
      ],
      "payable": false,
      "stateMutability": "view",
      "type": "function"
    },
    {
      "constant": true,
      "inputs": [],
      "name": "kyberAddr",
      "outputs": [
        {
          "name": "",
          "type": "address"
        }
      ],
      "payable": false,
      "stateMutability": "view",
      "type": "function"
    },
    {
      "constant": true,
      "inputs": [],
      "name": "developerFeeProportion",
      "outputs": [
        {
          "name": "",
          "type": "uint256"
        }
      ],
      "payable": false,
      "stateMutability": "view",
      "type": "function"
    },
    {
      "constant": true,
      "inputs": [],
      "name": "totalCommission",
      "outputs": [
        {
          "name": "",
          "type": "uint256"
        }
      ],
      "payable": false,
      "stateMutability": "view",
      "type": "function"
    },
    {
      "constant": true,
      "inputs": [],
      "name": "shareTokenAddr",
      "outputs": [
        {
          "name": "",
          "type": "address"
        }
      ],
      "payable": false,
      "stateMutability": "view",
      "type": "function"
    },
    {
      "constant": true,
      "inputs": [],
      "name": "previousVersion",
      "outputs": [
        {
          "name": "",
          "type": "address"
        }
      ],
      "payable": false,
      "stateMutability": "view",
      "type": "function"
    },
    {
      "constant": true,
      "inputs": [],
      "name": "controlTokenAddr",
      "outputs": [
        {
          "name": "",
          "type": "address"
        }
      ],
      "payable": false,
      "stateMutability": "view",
      "type": "function"
    },
    {
      "constant": false,
      "inputs": [
        {
          "name": "newOwner",
          "type": "address"
        }
      ],
      "name": "transferOwnership",
      "outputs": [],
      "payable": false,
      "stateMutability": "nonpayable",
      "type": "function"
    },
    {
      "constant": true,
      "inputs": [],
      "name": "cyclePhase",
      "outputs": [
        {
          "name": "",
          "type": "uint8"
        }
      ],
      "payable": false,
      "stateMutability": "view",
      "type": "function"
    },
    {
      "inputs": [
        {
          "name": "_cTokenAddr",
          "type": "address"
        },
        {
          "name": "_sTokenAddr",
          "type": "address"
        },
        {
          "name": "_kyberAddr",
          "type": "address"
        },
        {
          "name": "_daiAddr",
          "type": "address"
        },
        {
          "name": "_developerFeeAccount",
          "type": "address"
        },
        {
          "name": "_phaseLengths",
          "type": "uint256[3]"
        },
        {
          "name": "_commissionRate",
          "type": "uint256"
        },
        {
          "name": "_developerFeeProportion",
          "type": "uint256"
        },
        {
          "name": "_functionCallReward",
          "type": "uint256"
        },
        {
          "name": "_previousVersion",
          "type": "address"
        }
      ],
      "payable": false,
      "stateMutability": "nonpayable",
      "type": "constructor"
    },
    {
      "payable": true,
      "stateMutability": "payable",
      "type": "fallback"
    },
    {
      "anonymous": false,
      "inputs": [
        {
          "indexed": true,
          "name": "_cycleNumber",
          "type": "uint256"
        },
        {
          "indexed": true,
          "name": "_newPhase",
          "type": "uint256"
        },
        {
          "indexed": false,
          "name": "_timestamp",
          "type": "uint256"
        }
      ],
      "name": "ChangedPhase",
      "type": "event"
    },
    {
      "anonymous": false,
      "inputs": [
        {
          "indexed": true,
          "name": "_cycleNumber",
          "type": "uint256"
        },
        {
          "indexed": true,
          "name": "_sender",
          "type": "address"
        },
        {
          "indexed": false,
          "name": "_tokenAddress",
          "type": "address"
        },
        {
          "indexed": false,
          "name": "_tokenAmount",
          "type": "uint256"
        },
        {
          "indexed": false,
          "name": "_daiAmount",
          "type": "uint256"
        },
        {
          "indexed": false,
          "name": "_timestamp",
          "type": "uint256"
        }
      ],
      "name": "Deposit",
      "type": "event"
    },
    {
      "anonymous": false,
      "inputs": [
        {
          "indexed": true,
          "name": "_cycleNumber",
          "type": "uint256"
        },
        {
          "indexed": true,
          "name": "_sender",
          "type": "address"
        },
        {
          "indexed": false,
          "name": "_tokenAddress",
          "type": "address"
        },
        {
          "indexed": false,
          "name": "_tokenAmount",
          "type": "uint256"
        },
        {
          "indexed": false,
          "name": "daiAmount",
          "type": "uint256"
        },
        {
          "indexed": false,
          "name": "_timestamp",
          "type": "uint256"
        }
      ],
      "name": "Withdraw",
      "type": "event"
    },
    {
      "anonymous": false,
      "inputs": [
        {
          "indexed": true,
          "name": "_cycleNumber",
          "type": "uint256"
        },
        {
          "indexed": true,
          "name": "_sender",
          "type": "address"
        },
        {
          "indexed": false,
          "name": "_id",
          "type": "uint256"
        },
        {
          "indexed": false,
          "name": "_tokenAddress",
          "type": "address"
        },
        {
          "indexed": false,
          "name": "_stakeInWeis",
          "type": "uint256"
        },
        {
          "indexed": false,
          "name": "_buyPrice",
          "type": "uint256"
        },
        {
          "indexed": false,
          "name": "_costDAIAmount",
          "type": "uint256"
        }
      ],
      "name": "CreatedInvestment",
      "type": "event"
    },
    {
      "anonymous": false,
      "inputs": [
        {
          "indexed": true,
          "name": "_cycleNumber",
          "type": "uint256"
        },
        {
          "indexed": true,
          "name": "_sender",
          "type": "address"
        },
        {
          "indexed": false,
          "name": "_investmentId",
          "type": "uint256"
        },
        {
          "indexed": false,
          "name": "_receivedKairos",
          "type": "uint256"
        },
        {
          "indexed": false,
          "name": "_sellPrice",
          "type": "uint256"
        },
        {
          "indexed": false,
          "name": "_earnedDAIAmount",
          "type": "uint256"
        }
      ],
      "name": "SoldInvestment",
      "type": "event"
    },
    {
      "anonymous": false,
      "inputs": [
        {
          "indexed": true,
          "name": "_cycleNumber",
          "type": "uint256"
        },
        {
          "indexed": false,
          "name": "_beforeTotalFunds",
          "type": "uint256"
        },
        {
          "indexed": false,
          "name": "_afterTotalFunds",
          "type": "uint256"
        }
      ],
      "name": "ROI",
      "type": "event"
    },
    {
      "anonymous": false,
      "inputs": [
        {
          "indexed": true,
          "name": "_cycleNumber",
          "type": "uint256"
        },
        {
          "indexed": true,
          "name": "_sender",
          "type": "address"
        },
        {
          "indexed": false,
          "name": "_commission",
          "type": "uint256"
        }
      ],
      "name": "CommissionPaid",
      "type": "event"
    },
    {
      "anonymous": false,
      "inputs": [
        {
          "indexed": true,
          "name": "_cycleNumber",
          "type": "uint256"
        },
        {
          "indexed": false,
          "name": "_totalCommissionInWeis",
          "type": "uint256"
        }
      ],
      "name": "TotalCommissionPaid",
      "type": "event"
    },
    {
      "anonymous": false,
      "inputs": [],
      "name": "Pause",
      "type": "event"
    },
    {
      "anonymous": false,
      "inputs": [],
      "name": "Unpause",
      "type": "event"
    },
    {
      "anonymous": false,
      "inputs": [
        {
          "indexed": true,
          "name": "previousOwner",
          "type": "address"
        },
        {
          "indexed": true,
          "name": "newOwner",
          "type": "address"
        }
      ],
      "name": "OwnershipTransferred",
      "type": "event"
    },
    {
      "constant": true,
      "inputs": [
        {
          "name": "_userAddr",
          "type": "address"
        }
      ],
      "name": "investmentsCount",
      "outputs": [
        {
          "name": "_count",
          "type": "uint256"
        }
      ],
      "payable": false,
      "stateMutability": "view",
      "type": "function"
    },
    {
      "constant": true,
      "inputs": [
        {
          "name": "_userAddr",
          "type": "address"
        },
        {
          "name": "_id",
          "type": "uint256"
        }
      ],
      "name": "investments",
      "outputs": [
        {
          "components": [
            {
              "name": "tokenAddress",
              "type": "address"
            },
            {
              "name": "cycleNumber",
              "type": "uint256"
            },
            {
              "name": "stake",
              "type": "uint256"
            },
            {
              "name": "tokenAmount",
              "type": "uint256"
            },
            {
              "name": "buyPrice",
              "type": "uint256"
            },
            {
              "name": "sellPrice",
              "type": "uint256"
            },
            {
              "name": "isSold",
              "type": "bool"
            }
          ],
          "name": "_investment",
          "type": "tuple"
        }
      ],
      "payable": false,
      "stateMutability": "view",
      "type": "function"
    },
    {
      "constant": true,
      "inputs": [],
      "name": "getPhaseLengths",
      "outputs": [
        {
          "name": "_phaseLengths",
          "type": "uint256[3]"
        }
      ],
      "payable": false,
      "stateMutability": "view",
      "type": "function"
    },
    {
      "constant": false,
      "inputs": [
        {
          "name": "_tokenAddr",
          "type": "address"
        }
      ],
      "name": "emergencyDumpToken",
      "outputs": [],
      "payable": false,
      "stateMutability": "nonpayable",
      "type": "function"
    },
    {
      "constant": false,
      "inputs": [
        {
          "name": "_investmentId",
          "type": "uint256"
        }
      ],
      "name": "emergencyRedeemStake",
      "outputs": [],
      "payable": false,
      "stateMutability": "nonpayable",
      "type": "function"
    },
    {
      "constant": false,
      "inputs": [],
      "name": "emergencyUpdateBalance",
      "outputs": [],
      "payable": false,
      "stateMutability": "nonpayable",
      "type": "function"
    },
    {
      "constant": false,
      "inputs": [
        {
          "name": "_newVal",
          "type": "bool"
        }
      ],
      "name": "setAllowEmergencyWithdraw",
      "outputs": [],
      "payable": false,
      "stateMutability": "nonpayable",
      "type": "function"
    },
    {
      "constant": false,
      "inputs": [],
      "name": "emergencyWithdraw",
      "outputs": [],
      "payable": false,
      "stateMutability": "nonpayable",
      "type": "function"
    },
    {
      "constant": false,
      "inputs": [
        {
          "name": "_newAddr",
          "type": "address"
        }
      ],
      "name": "changeKyberNetworkAddress",
      "outputs": [],
      "payable": false,
      "stateMutability": "nonpayable",
      "type": "function"
    },
    {
      "constant": false,
      "inputs": [
        {
          "name": "_newAddr",
          "type": "address"
        }
      ],
      "name": "changeDeveloperFeeAccount",
      "outputs": [],
      "payable": false,
      "stateMutability": "nonpayable",
      "type": "function"
    },
    {
      "constant": false,
      "inputs": [
        {
          "name": "_newAddr",
          "type": "address"
        }
      ],
      "name": "changeDAIAddress",
      "outputs": [],
      "payable": false,
      "stateMutability": "nonpayable",
      "type": "function"
    },
    {
      "constant": false,
      "inputs": [
        {
          "name": "_newProp",
          "type": "uint256"
        }
      ],
      "name": "changeDeveloperFeeProportion",
      "outputs": [],
      "payable": false,
      "stateMutability": "nonpayable",
      "type": "function"
    },
    {
      "constant": false,
      "inputs": [
        {
          "name": "_newProp",
          "type": "uint256"
        }
      ],
      "name": "changeCommissionRate",
      "outputs": [],
      "payable": false,
      "stateMutability": "nonpayable",
      "type": "function"
    },
    {
      "constant": false,
      "inputs": [
        {
          "name": "_newVal",
          "type": "uint256"
        }
      ],
      "name": "changeCallReward",
      "outputs": [],
      "payable": false,
      "stateMutability": "nonpayable",
      "type": "function"
    },
    {
      "constant": false,
      "inputs": [
        {
          "name": "_newVal",
          "type": "uint256[3]"
        }
      ],
      "name": "changePhaseLengths",
      "outputs": [],
      "payable": false,
      "stateMutability": "nonpayable",
      "type": "function"
    },
    {
      "constant": false,
      "inputs": [
        {
          "name": "_newOwner",
          "type": "address"
        }
      ],
      "name": "changeControlTokenOwner",
      "outputs": [],
      "payable": false,
      "stateMutability": "nonpayable",
      "type": "function"
    },
    {
      "constant": false,
      "inputs": [
        {
          "name": "_coin",
          "type": "address"
        },
        {
          "name": "_status",
          "type": "bool"
        }
      ],
      "name": "setMaliciousCoinStatus",
      "outputs": [],
      "payable": false,
      "stateMutability": "nonpayable",
      "type": "function"
    },
    {
      "constant": false,
      "inputs": [],
      "name": "nextPhase",
      "outputs": [],
      "payable": false,
      "stateMutability": "nonpayable",
      "type": "function"
    },
    {
      "constant": false,
      "inputs": [],
      "name": "deposit",
      "outputs": [],
      "payable": true,
      "stateMutability": "payable",
      "type": "function"
    },
    {
      "constant": false,
      "inputs": [
        {
          "name": "_tokenAddr",
          "type": "address"
        },
        {
          "name": "_tokenAmount",
          "type": "uint256"
        }
      ],
      "name": "depositToken",
      "outputs": [],
      "payable": false,
      "stateMutability": "nonpayable",
      "type": "function"
    },
    {
      "constant": false,
      "inputs": [
        {
          "name": "_amountInDAI",
          "type": "uint256"
        }
      ],
      "name": "withdraw",
      "outputs": [],
      "payable": false,
      "stateMutability": "nonpayable",
      "type": "function"
    },
    {
      "constant": false,
      "inputs": [
        {
          "name": "_tokenAddr",
          "type": "address"
        },
        {
          "name": "_amountInDAI",
          "type": "uint256"
        }
      ],
      "name": "withdrawToken",
      "outputs": [],
      "payable": false,
      "stateMutability": "nonpayable",
      "type": "function"
    },
    {
      "constant": false,
      "inputs": [
        {
          "name": "_tokenAddress",
          "type": "address"
        },
        {
          "name": "_stake",
          "type": "uint256"
        }
      ],
      "name": "createInvestment",
      "outputs": [],
      "payable": false,
      "stateMutability": "nonpayable",
      "type": "function"
    },
    {
      "constant": false,
      "inputs": [
        {
          "name": "_investmentId",
          "type": "uint256"
        }
      ],
      "name": "sellInvestmentAsset",
      "outputs": [],
      "payable": false,
      "stateMutability": "nonpayable",
      "type": "function"
    },
    {
      "constant": false,
      "inputs": [],
      "name": "redeemCommission",
      "outputs": [],
      "payable": false,
      "stateMutability": "nonpayable",
      "type": "function"
    },
    {
      "constant": false,
      "inputs": [],
      "name": "redeemCommissionInShares",
      "outputs": [],
      "payable": false,
      "stateMutability": "nonpayable",
      "type": "function"
    },
    {
      "constant": false,
      "inputs": [
        {
          "name": "_tokenAddr",
          "type": "address"
        }
      ],
      "name": "sellLeftoverToken",
      "outputs": [],
      "payable": false,
      "stateMutability": "nonpayable",
      "type": "function"
    }
  ],
  "bytecode": "0x60606040526000805460a060020a60ff021916905534156200002057600080fd5b60405161018080620049f48339810160405280805191906020018051919060200180519190602001805191906020018051916020820191608001805191906020018051919060200180519190602001805160008054600160a060020a03191633600160a060020a03161790559150670de0b6b3a76400009050620000b38585640100000000620001be81026200409c1704565b10620000be57600080fd5b60018054600160a060020a0319908116600160a060020a038d81169182179093556002805483168d85169081179091556003805484168d861690811782556005805486168e88161790556015805461010060a860020a03191661010090950294909417909355601680548516909217909155601780548416909217909155600480549092169289169290921790556200015c90600f908790620001d5565b50600a849055600b8390556000600955601580546002919060ff19166001830217905550600c9190915560068054600160a060020a031916600160a060020a039092169190911790555050600e805460ff191690555062000238945050505050565b600082820183811015620001ce57fe5b9392505050565b826003810192821562000206579160200282015b8281111562000206578251825591602001919060010190620001e9565b506200021492915062000218565b5090565b6200023591905b808211156200021457600081556001016200021f565b90565b6147ac80620002486000396000f3006060604052600436106102425763ffffffff60e060020a6000350416630cba5355811461025f5780630e1b1fda14610284578063118152231461029a57806312e1ee45146102b9578063173e7707146102d8578063192d619d146102f75780631a2604a41461030a5780631a26af7a1461033d5780631ab371fc146103505780631b8e21921461037f5780632303b5b01461039257806325f842c5146103a85780632e1a7d4d146103bb5780632f884710146103d1578063338b5dea146103e45780633e6d9770146104065780633eadb6db146104285780633f4ba83a1461043b578063407fa2a31461044e5780635c975abb146104995780635d4c3224146104ac5780635ea1d6f8146104c4578063612d194d146104d757806364542e3e146104ea5780636642642a1461050057806368063a7414610516578063749b7a3c1461053557806374fa0a631461056e578063821f9824146105815780638456cb59146105a05780638da5cb5b146105b35780639244adcd146105c65780639b4ef376146106305780639e281a9814610654578063a7c4dccf14610676578063ab4df16814610689578063b18e8a8d146106a8578063b2637f65146106c7578063ba25887d146106da578063c0320dbc146106ed578063d0e30db014610700578063d7615d3714610708578063d82277cc1461071b578063db2e21bc1461073d578063db3d1ccf14610750578063dc87454c14610763578063e53ad2d014610776578063e7476abf1461078c578063f2fde38b146107ab578063f6558b00146107ca575b60035433600160a060020a0390811691161461025d57600080fd5b005b341561026a57600080fd5b610272610801565b60405190815260200160405180910390f35b341561028f57600080fd5b61025d600435610807565b34156102a557600080fd5b61025d600160a060020a036004351661091d565b34156102c457600080fd5b61025d600160a060020a0360043516610991565b34156102e357600080fd5b61025d600160a060020a0360043516610a74565b341561030257600080fd5b61025d610cfb565b341561031557600080fd5b610329600160a060020a0360043516611054565b604051901515815260200160405180910390f35b341561034857600080fd5b610329611069565b341561035b57600080fd5b610363611072565b604051600160a060020a03909116815260200160405180910390f35b341561038a57600080fd5b61025d611081565b341561039d57600080fd5b61025d60043561122c565b34156103b357600080fd5b61027261124c565b34156103c657600080fd5b61025d600435611252565b34156103dc57600080fd5b610272611597565b34156103ef57600080fd5b61025d600160a060020a036004351660243561159d565b341561041157600080fd5b610272600160a060020a0360043516602435611c63565b341561043357600080fd5b61025d611cff565b341561044657600080fd5b61025d61204c565b341561045957600080fd5b6104616120cb565b6040518082606080838360005b8381101561048657808201518382015260200161046e565b5050505090500191505060405180910390f35b34156104a457600080fd5b610329612109565b34156104b757600080fd5b61025d6004351515612119565b34156104cf57600080fd5b61027261215f565b34156104e257600080fd5b610272612165565b34156104f557600080fd5b61025d60043561216b565b341561050b57600080fd5b61025d600435612199565b341561052157600080fd5b610272600160a060020a03600435166121b9565b341561054057600080fd5b61025d60046064816003606060405190810160405291908282606080828437509395506121d8945050505050565b341561057957600080fd5b610363612204565b341561058c57600080fd5b610272600160a060020a0360043516612213565b34156105ab57600080fd5b61025d612225565b34156105be57600080fd5b6103636122a9565b34156105d157600080fd5b6105e8600160a060020a03600435166024356122b8565b604051600160a060020a03909716875260208701959095526040808701949094526060860192909252608085015260a084015290151560c083015260e0909101905180910390f35b341561063b57600080fd5b61025d600160a060020a0360043516602435151561231e565b341561065f57600080fd5b61025d600160a060020a0360043516602435612379565b341561068157600080fd5b61036361288a565b341561069457600080fd5b61025d600160a060020a0360043516612899565b34156106b357600080fd5b61025d600160a060020a036004351661290d565b34156106d257600080fd5b61025d61295f565b34156106e557600080fd5b610272612a0a565b34156106f857600080fd5b610272612a10565b61025d612a16565b341561071357600080fd5b610363612e5f565b341561072657600080fd5b61025d600160a060020a0360043516602435612e6e565b341561074857600080fd5b61025d6133be565b341561075b57600080fd5b6103636136c4565b341561076e57600080fd5b6103636136d3565b341561078157600080fd5b61025d6004356136e2565b341561079757600080fd5b61025d600160a060020a0360043516613b6b565b34156107b657600080fd5b61025d600160a060020a0360043516613c19565b34156107d557600080fd5b6107dd613ca7565b604051808260028111156107ed57fe5b60ff16815260200191505060405180910390f35b60085481565b60008054819060a060020a900460ff16151561082257600080fd5b600e5460ff16151561083357600080fd5b600160a060020a033316600090815260136020526040902080548490811061085757fe5b90600052602060002090600702019150600754826001015414151561087b57600080fd5b5060028101546000811161088e57600080fd5b6000600283018190556015546101009004600160a060020a03169063a9059cbb90339084906040516020015260405160e060020a63ffffffff8516028152600160a060020a0390921660048301526024820152604401602060405180830381600087803b15156108fd57600080fd5b6102c65a03f1151561090e57600080fd5b50505060405180515050505050565b60005433600160a060020a0390811691161461093857600080fd5b60005460a060020a900460ff16151561095057600080fd5b600160a060020a038116151561096557600080fd5b60038054600160a060020a03909216600160a060020a0319928316811790915560178054909216179055565b6000805433600160a060020a039081169116146109ad57600080fd5b60028060155460ff1660028111156109c157fe5b146109cb57600080fd5b60005460a060020a900460ff1615156109e357600080fd5b829150610a6e8283600160a060020a03166370a082313060006040516020015260405160e060020a63ffffffff8416028152600160a060020a039091166004820152602401602060405180830381600087803b1515610a4157600080fd5b6102c65a03f11515610a5257600080fd5b5050506040518051601854909150600160a060020a0316613cb0565b50505050565b60008060028060155460ff166002811115610a8b57fe5b14610a9557600080fd5b600160a060020a038416600090815260146020526040902054849060ff1615610abd57600080fd5b600160a060020a0381166000805160206147618339815191521415610ae157600080fd5b600081600160a060020a03166318160ddd6000604051602001526040518163ffffffff1660e060020a028152600401602060405180830381600087803b1515610b2957600080fd5b6102c65a03f11515610b3a57600080fd5b50505060405180519050111515610b5057600080fd5b60005460a060020a900460ff1615610b6757600080fd5b601854600160a060020a03166370a082313060006040516020015260405160e060020a63ffffffff8416028152600160a060020a039091166004820152602401602060405180830381600087803b1515610bc057600080fd5b6102c65a03f11515610bd157600080fd5b5050506040518051600554909550869450600160a060020a03808616911614159050610bfc57600080fd5b610c578384600160a060020a03166370a082313060006040516020015260405160e060020a63ffffffff8416028152600160a060020a039091166004820152602401602060405180830381600087803b1515610a4157600080fd5b50601854610cf190610ce2908690600160a060020a03166370a082313060006040516020015260405160e060020a63ffffffff8416028152600160a060020a039091166004820152602401602060405180830381600087803b1515610cbb57600080fd5b6102c65a03f11515610ccc57600080fd5b505050604051805191905063ffffffff61408a16565b6008549063ffffffff61409c16565b6008555050505050565b600060028060155460ff166002811115610d1157fe5b14610d1b57600080fd5b60005460a060020a900460ff1615610d3257600080fd5b600754600160a060020a03331660009081526012602052604090205410610d5857600080fd5b600754600160a060020a0333811660009081526012602052604080822093909355601554610e7793610100909104909216916318160ddd919051602001526040518163ffffffff1660e060020a028152600401602060405180830381600087803b1515610dc457600080fd5b6102c65a03f11515610dd557600080fd5b5050506040518051601554909150610e6b906101009004600160a060020a03166370a082313360006040516020015260405160e060020a63ffffffff8416028152600160a060020a039091166004820152602401602060405180830381600087803b1515610e4257600080fd5b6102c65a03f11515610e5357600080fd5b5050506040518051600d54915063ffffffff6140b616565b9063ffffffff6140e116565b601654600854919350600160a060020a0316906340c10f19903390610efd90610e6b856318160ddd6000604051602001526040518163ffffffff1660e060020a028152600401602060405180830381600087803b1515610ed657600080fd5b6102c65a03f11515610ee757600080fd5b505050604051805189915063ffffffff6140b616565b60006040516020015260405160e060020a63ffffffff8516028152600160a060020a0390921660048301526024820152604401602060405180830381600087803b1515610f4957600080fd5b6102c65a03f11515610f5a57600080fd5b50505060405180515050600854610f77908363ffffffff61409c16565b600855600160a060020a0333166000908152601360205260408120610f9b916145f0565b600754600554600160a060020a0333811692917f7ee7a1de9c18ce695c95b8b19fbdf26cce3544e3ca9e08c9f487776783d7599f91168580426040518085600160a060020a0316600160a060020a0316815260200184815260200183815260200182815260200194505050505060405180910390a333600160a060020a03166007547fec530ab710fdaa2b5968fe15f486992441a96f643219cf0150904aa5b9eedf828460405190815260200160405180910390a35050565b60146020526000908152604090205460ff1681565b600e5460ff1681565b600454600160a060020a031681565b600060028060155460ff16600281111561109757fe5b146110a157600080fd5b60005460a060020a900460ff16156110b857600080fd5b600754600160a060020a033316600090815260126020526040902054106110de57600080fd5b600754600160a060020a033381166000908152601260205260408082209390935560155461114a93610100909104909216916318160ddd919051602001526040518163ffffffff1660e060020a028152600401602060405180830381600087803b1515610dc457600080fd5b601854909250600160a060020a031663a9059cbb338460006040516020015260405160e060020a63ffffffff8516028152600160a060020a0390921660048301526024820152604401602060405180830381600087803b15156111ac57600080fd5b6102c65a03f115156111bd57600080fd5b50505060405180515050600160a060020a03331660009081526013602052604081206111e8916145f0565b33600160a060020a03166007547fec530ab710fdaa2b5968fe15f486992441a96f643219cf0150904aa5b9eedf828460405190815260200160405180910390a35050565b60005433600160a060020a0390811691161461124757600080fd5b600c55565b60095481565b6000808080808060155460ff16600281111561126a57fe5b1461127457600080fd5b60005460a060020a900460ff161561128b57600080fd5b601854600160a060020a03308181163195509116906370a082319060006040516020015260405160e060020a63ffffffff8416028152600160a060020a039091166004820152602401602060405180830381600087803b15156112ed57600080fd5b6102c65a03f115156112fe57600080fd5b505050604051805160185490935061132f9150600160a060020a031687600080516020614761833981519152613cb0565b5061134a600160a060020a033016318463ffffffff61408a16565b6018549095506113d190600160a060020a03166370a082313060006040516020015260405160e060020a63ffffffff8416028152600160a060020a039091166004820152602401602060405180830381600087803b15156113aa57600080fd5b6102c65a03f115156113bb57600080fd5b505050604051805184915063ffffffff61408a16565b9350600084116113e057600080fd5b601654600854600160a060020a039091169063c000178690339061146590610e6b856318160ddd6000604051602001526040518163ffffffff1660e060020a028152600401602060405180830381600087803b151561143e57600080fd5b6102c65a03f1151561144f57600080fd5b50505060405180518b915063ffffffff6140b616565b60006040516020015260405160e060020a63ffffffff8516028152600160a060020a0390921660048301526024820152604401602060405180830381600087803b15156114b157600080fd5b6102c65a03f115156114c257600080fd5b505050604051805150506008546114df908563ffffffff61408a16565b600855600160a060020a03331685156108fc0286604051600060405180830381858888f19350505050151561151357600080fd5b33600160a060020a03166007547fae96a66bcd5a00556ad548b9a949f8f45220d5859c013e5cedbddd6af8cf7b9d6000805160206147618339815191528888426040518085600160a060020a0316600160a060020a0316815260200184815260200183815260200182815260200194505050505060405180910390a3505050505050565b60075481565b60008080808080808060155460ff1660028111156115b757fe5b146115c157600080fd5b600160a060020a038916600090815260146020526040902054899060ff16156115e957600080fd5b600160a060020a038116600080516020614761833981519152141561160d57600080fd5b600081600160a060020a03166318160ddd6000604051602001526040518163ffffffff1660e060020a028152600401602060405180830381600087803b151561165557600080fd5b6102c65a03f1151561166657600080fd5b5050506040518051905011151561167c57600080fd5b60005460a060020a900460ff161561169357600080fd5b89975087600160a060020a03166323b872dd33308c60006040516020015260405160e060020a63ffffffff8616028152600160a060020a0393841660048201529190921660248201526044810191909152606401602060405180830381600087803b151561170057600080fd5b6102c65a03f1151561171157600080fd5b50505060405180519050151561172657600080fd5b600554600160a060020a038b811691161415611747578896508895506119db565b87600160a060020a03166370a082313060006040516020015260405160e060020a63ffffffff8416028152600160a060020a039091166004820152602401602060405180830381600087803b151561179e57600080fd5b6102c65a03f115156117af57600080fd5b5050506040518051601854909650600160a060020a031690506370a082313060006040516020015260405160e060020a63ffffffff8416028152600160a060020a039091166004820152602401602060405180830381600087803b151561181557600080fd5b6102c65a03f1151561182657600080fd5b505050604051805160185490955061184b915089908b90600160a060020a0316613cb0565b506118cd88600160a060020a03166370a082313060006040516020015260405160e060020a63ffffffff8416028152600160a060020a039091166004820152602401602060405180830381600087803b15156118a657600080fd5b6102c65a03f115156118b757600080fd5b505050604051805187915063ffffffff61408a16565b95506118df898763ffffffff61408a16565b9250600083111561196d5787600160a060020a031663a9059cbb338560006040516020015260405160e060020a63ffffffff8516028152600160a060020a0390921660048301526024820152604401602060405180830381600087803b151561194757600080fd5b6102c65a03f1151561195857600080fd5b50505060405180519050151561196d57600080fd5b6018546119cc908590600160a060020a03166370a082313060006040516020015260405160e060020a63ffffffff8416028152600160a060020a039091166004820152602401602060405180830381600087803b1515610cbb57600080fd5b9650600087116119db57600080fd5b60075460011415611a6657601654600160a060020a03166340c10f19338960006040516020015260405160e060020a63ffffffff8516028152600160a060020a0390921660048301526024820152604401602060405180830381600087803b1515611a4557600080fd5b6102c65a03f11515611a5657600080fd5b5050506040518051905050611b53565b601654600854600160a060020a03909116906340c10f19903390611aeb90610e6b856318160ddd6000604051602001526040518163ffffffff1660e060020a028152600401602060405180830381600087803b1515611ac457600080fd5b6102c65a03f11515611ad557600080fd5b50505060405180518e915063ffffffff6140b616565b60006040516020015260405160e060020a63ffffffff8516028152600160a060020a0390921660048301526024820152604401602060405180830381600087803b1515611b3757600080fd5b6102c65a03f11515611b4857600080fd5b505050604051805150505b600854611b66908863ffffffff61409c16565b6008556015546101009004600160a060020a03166340c10f19338960006040516020015260405160e060020a63ffffffff8516028152600160a060020a0390921660048301526024820152604401602060405180830381600087803b1515611bcd57600080fd5b6102c65a03f11515611bde57600080fd5b505050604051805190505033600160a060020a03166007547f7ee7a1de9c18ce695c95b8b19fbdf26cce3544e3ca9e08c9f487776783d7599f8c898b426040518085600160a060020a0316600160a060020a0316815260200184815260200183815260200182815260200194505050505060405180910390a350505050505050505050565b611c6b614614565b600160a060020a0383166000908152601360205260409020805483908110611c8f57fe5b906000526020600020906007020160e060405190810160409081528254600160a060020a03168252600183015460208301526002830154908201526003820154606082015260048201546080820152600582015460a082015260069091015460ff16151560c08201529392505050565b60005460a060020a900460ff1615611d1657600080fd5b601554611d4990600f9060ff166002811115611d2e57fe5b60038110611d3857fe5b01546009549063ffffffff61409c16565b421015611d5557600080fd5b600260155460ff166002811115611d6857fe5b1415611e5057600754611d8290600163ffffffff61409c16565b6007556015546101009004600160a060020a0316635c975abb6000604051602001526040518163ffffffff1660e060020a028152600401602060405180830381600087803b1515611dd257600080fd5b6102c65a03f11515611de357600080fd5b5050506040518051905015611e4b576015546101009004600160a060020a0316633f4ba83a6040518163ffffffff1660e060020a028152600401600060405180830381600087803b1515611e3657600080fd5b6102c65a03f11515611e4757600080fd5b5050505b611f3c565b600160155460ff166002811115611e6357fe5b1415611f3c576015546101009004600160a060020a031663f3123a3a6000604051602001526040518163ffffffff1660e060020a028152600401602060405180830381600087803b1515611eb657600080fd5b6102c65a03f11515611ec757600080fd5b505050604051805190501515611edc57600080fd5b6015546101009004600160a060020a0316638456cb596040518163ffffffff1660e060020a028152600401600060405180830381600087803b1515611f2057600080fd5b6102c65a03f11515611f3157600080fd5b505050611f3c6140f8565b60155460059060019060ff166002811115611f5357fe5b086002811115611f5f57fe5b6015805460ff19166001836002811115611f7557fe5b021790555042600955601554600c54610100909104600160a060020a0316906340c10f1990339060006040516020015260405160e060020a63ffffffff8516028152600160a060020a0390921660048301526024820152604401602060405180830381600087803b1515611fe857600080fd5b6102c65a03f11515611ff957600080fd5b5050506040518051505060155460ff16600281111561201457fe5b6007547f9590d2eff92d0882635fb8e1412da02e41af0dc517cfd07520a03506eb65b0af4260405190815260200160405180910390a3565b60005433600160a060020a0390811691161461206757600080fd5b60005460a060020a900460ff16151561207f57600080fd5b6000805474ff0000000000000000000000000000000000000000191690557f7805862f689e2f13df9f062ff482ad3ad112aca9e0847911ed832e158c525b3360405160405180910390a1565b6120d361465d565b600f6003606060405190810160405291906060830182845b8154815260200190600101908083116120eb57505050505090505b90565b60005460a060020a900460ff1681565b60005433600160a060020a0390811691161461213457600080fd5b60005460a060020a900460ff16151561214c57600080fd5b600e805460ff1916911515919091179055565b600a5481565b600c5481565b60005433600160a060020a0390811691161461218657600080fd5b600b54811061219457600080fd5b600b55565b60005433600160a060020a039081169116146121b457600080fd5b600a55565b600160a060020a0381166000908152601360205260409020545b919050565b60005433600160a060020a039081169116146121f357600080fd5b612200600f826003614684565b5050565b600554600160a060020a031681565b60126020526000908152604090205481565b60005433600160a060020a0390811691161461224057600080fd5b60005460a060020a900460ff161561225757600080fd5b6000805474ff0000000000000000000000000000000000000000191660a060020a1790557f6985a02210a168e66602d3235cb6db0e70f92b3ba4d376a33c0f3d9434bff62560405160405180910390a1565b600054600160a060020a031681565b6013602052816000526040600020818154811015156122d357fe5b60009182526020909120600790910201805460018201546002830154600384015460048501546005860154600690960154600160a060020a0390951697509295509093909260ff1687565b60005433600160a060020a0390811691161461233957600080fd5b600160a060020a038216151561234e57600080fd5b600160a060020a03919091166000908152601460205260409020805460ff1916911515919091179055565b600080808080808060155460ff16600281111561239257fe5b1461239c57600080fd5b600160a060020a038816600090815260146020526040902054889060ff16156123c457600080fd5b600160a060020a03811660008051602061476183398151915214156123e857600080fd5b600081600160a060020a03166318160ddd6000604051602001526040518163ffffffff1660e060020a028152600401602060405180830381600087803b151561243057600080fd5b6102c65a03f1151561244157600080fd5b5050506040518051905011151561245757600080fd5b60005460a060020a900460ff161561246e57600080fd5b6007546001141561247e57600080fd5b600554899750600160a060020a03808916911614156124a257879450879550612696565b86600160a060020a03166370a082313060006040516020015260405160e060020a63ffffffff8416028152600160a060020a039091166004820152602401602060405180830381600087803b15156124f957600080fd5b6102c65a03f1151561250a57600080fd5b5050506040518051601854909550600160a060020a031690506370a082313060006040516020015260405160e060020a63ffffffff8416028152600160a060020a039091166004820152602401602060405180830381600087803b151561257057600080fd5b6102c65a03f1151561258157600080fd5b50505060405180516018549094506125a49150600160a060020a03168989613cb0565b506126008488600160a060020a03166370a082313060006040516020015260405160e060020a63ffffffff8416028152600160a060020a039091166004820152602401602060405180830381600087803b1515610cbb57600080fd5b60185490965061268790600160a060020a03166370a082313060006040516020015260405160e060020a63ffffffff8416028152600160a060020a039091166004820152602401602060405180830381600087803b151561266057600080fd5b6102c65a03f1151561267157600080fd5b505050604051805185915063ffffffff61408a16565b94506000851161269657600080fd5b601654600854600160a060020a039091169063c000178690339061271b90610e6b856318160ddd6000604051602001526040518163ffffffff1660e060020a028152600401602060405180830381600087803b15156126f457600080fd5b6102c65a03f1151561270557600080fd5b50505060405180518c915063ffffffff6140b616565b60006040516020015260405160e060020a63ffffffff8516028152600160a060020a0390921660048301526024820152604401602060405180830381600087803b151561276757600080fd5b6102c65a03f1151561277857600080fd5b50505060405180515050600854612795908663ffffffff61408a16565b600855600160a060020a03871663a9059cbb338860006040516020015260405160e060020a63ffffffff8516028152600160a060020a0390921660048301526024820152604401602060405180830381600087803b15156127f557600080fd5b6102c65a03f1151561280657600080fd5b505050604051805190505033600160a060020a03166007547fae96a66bcd5a00556ad548b9a949f8f45220d5859c013e5cedbddd6af8cf7b9d8b8989426040518085600160a060020a0316600160a060020a0316815260200184815260200183815260200182815260200194505050505060405180910390a3505050505050505050565b600354600160a060020a031681565b60005433600160a060020a039081169116146128b457600080fd5b60005460a060020a900460ff1615156128cc57600080fd5b600160a060020a03811615156128e157600080fd5b60058054600160a060020a03909216600160a060020a0319928316811790915560188054909216179055565b60005433600160a060020a0390811691161461292857600080fd5b600160a060020a038116151561293d57600080fd5b60048054600160a060020a031916600160a060020a0392909216919091179055565b60005433600160a060020a0390811691161461297a57600080fd5b60005460a060020a900460ff16151561299257600080fd5b601854600160a060020a03166370a082313060006040516020015260405160e060020a63ffffffff8416028152600160a060020a039091166004820152602401602060405180830381600087803b15156129eb57600080fd5b6102c65a03f115156129fc57600080fd5b505050604051805160085550565b600b5481565b600d5481565b600080808080808060155460ff166002811115612a2f57fe5b14612a3957600080fd5b60005460a060020a900460ff1615612a5057600080fd5b601854600160a060020a03308181163196509116906370a082319060006040516020015260405160e060020a63ffffffff8416028152600160a060020a039091166004820152602401602060405180830381600087803b1515612ab257600080fd5b6102c65a03f11515612ac357600080fd5b5050506040518051601854909450612af69150600080516020614761833981519152903490600160a060020a0316613cb0565b50612b1184600160a060020a0330163163ffffffff61408a16565b9450612b23348663ffffffff61408a16565b91506000821115612b5f57600160a060020a03331682156108fc0283604051600060405180830381858888f193505050501515612b5f57600080fd5b601854612bbe908490600160a060020a03166370a082313060006040516020015260405160e060020a63ffffffff8416028152600160a060020a039091166004820152602401602060405180830381600087803b1515610cbb57600080fd5b955060008611612bcd57600080fd5b60075460011415612c5857601654600160a060020a03166340c10f19338860006040516020015260405160e060020a63ffffffff8516028152600160a060020a0390921660048301526024820152604401602060405180830381600087803b1515612c3757600080fd5b6102c65a03f11515612c4857600080fd5b5050506040518051905050612d45565b601654600854600160a060020a03909116906340c10f19903390612cdd90610e6b856318160ddd6000604051602001526040518163ffffffff1660e060020a028152600401602060405180830381600087803b1515612cb657600080fd5b6102c65a03f11515612cc757600080fd5b50505060405180518d915063ffffffff6140b616565b60006040516020015260405160e060020a63ffffffff8516028152600160a060020a0390921660048301526024820152604401602060405180830381600087803b1515612d2957600080fd5b6102c65a03f11515612d3a57600080fd5b505050604051805150505b600854612d58908763ffffffff61409c16565b6008556015546101009004600160a060020a03166340c10f19338860006040516020015260405160e060020a63ffffffff8516028152600160a060020a0390921660048301526024820152604401602060405180830381600087803b1515612dbf57600080fd5b6102c65a03f11515612dd057600080fd5b505050604051805190505033600160a060020a03166007547f7ee7a1de9c18ce695c95b8b19fbdf26cce3544e3ca9e08c9f487776783d7599f600080516020614761833981519152888a426040518085600160a060020a0316600160a060020a0316815260200184815260200183815260200182815260200194505050505060405180910390a3505050505050565b600254600160a060020a031681565b600080808060018060155460ff166002811115612e8757fe5b14612e9157600080fd5b600160a060020a038716600090815260146020526040902054879060ff1615612eb957600080fd5b600160a060020a0381166000805160206147618339815191521415612edd57600080fd5b600081600160a060020a03166318160ddd6000604051602001526040518163ffffffff1660e060020a028152600401602060405180830381600087803b1515612f2557600080fd5b6102c65a03f11515612f3657600080fd5b50505060405180519050111515612f4c57600080fd5b60005460a060020a900460ff1615612f6357600080fd5b6015548896506101009004600160a060020a0316632bee7bde338960006040516020015260405160e060020a63ffffffff8516028152600160a060020a0390921660048301526024820152604401602060405180830381600087803b1515612fca57600080fd5b6102c65a03f11515612fdb57600080fd5b505050604051805190501515612ff057600080fd5b600160a060020a033316600090815260136020526040902080546001810161301883826146c2565b9160005260206000209060070201600060e06040519081016040908152600160a060020a038d168252600754602083015281018b90526000606082018190526080820181905260a0820181905260c082015291905081518154600160a060020a031916600160a060020a03919091161781556020820151816001015560408201518160020155606082015181600301556080820151816004015560a0820151816005015560c0820151600691909101805460ff19169115159190911790555050600160a060020a0386166370a082313060006040516020015260405160e060020a63ffffffff8416028152600160a060020a039091166004820152602401602060405180830381600087803b151561312f57600080fd5b6102c65a03f1151561314057600080fd5b5050506040518051601854909650600160a060020a031690506370a082313060006040516020015260405160e060020a63ffffffff8416028152600160a060020a039091166004820152602401602060405180830381600087803b15156131a657600080fd5b6102c65a03f115156131b757600080fd5b5050506040518051905093506131dd60016131d1336121b9565b9063ffffffff61408a16565b92506131ea836001614406565b6132458587600160a060020a03166370a082313060006040516020015260405160e060020a63ffffffff8416028152600160a060020a039091166004820152602401602060405180830381600087803b1515610cbb57600080fd5b600160a060020a033316600090815260136020526040902080548590811061326957fe5b90600052602060002090600702016003018190555033600160a060020a03166007547f889f8b8332780d1527bc9c13329f57e4eeac4aa8255a0e7d6af5ef7a864301816132ba60016131d1336121b9565b600160a060020a033316600090815260136020526040902080548d918d918a9081106132e257fe5b60009182526020822060046007909202010154601854909161337c91600160a060020a0316906370a082319030906040516020015260405160e060020a63ffffffff8416028152600160a060020a039091166004820152602401602060405180830381600087803b151561335557600080fd5b6102c65a03f1151561336657600080fd5b50505060405180518d915063ffffffff61408a16565b604051948552600160a060020a0390931660208501526040808501929092526060840152608083019190915260a0909101905180910390a35050505050505050565b6000805460a060020a900460ff1615156133d757600080fd5b600e5460ff1615156133e857600080fd5b6016546134d790600160a060020a03166318160ddd6000604051602001526040518163ffffffff1660e060020a028152600401602060405180830381600087803b151561343457600080fd5b6102c65a03f1151561344557600080fd5b5050506040518051600854601654919250610e6b91600160a060020a03166370a082313360006040516020015260405160e060020a63ffffffff8416028152600160a060020a039091166004820152602401602060405180830381600087803b15156134b057600080fd5b6102c65a03f115156134c157600080fd5b505050604051805191905063ffffffff6140b616565b601654909150600160a060020a031663c000178633826370a082318260006040516020015260405160e060020a63ffffffff8416028152600160a060020a039091166004820152602401602060405180830381600087803b151561353a57600080fd5b6102c65a03f1151561354b57600080fd5b5050506040518051905060006040516020015260405160e060020a63ffffffff8516028152600160a060020a0390921660048301526024820152604401602060405180830381600087803b15156135a157600080fd5b6102c65a03f115156135b257600080fd5b505050604051805150506008546135cf908263ffffffff61408a16565b600855601854600160a060020a031663a9059cbb338360006040516020015260405160e060020a63ffffffff8516028152600160a060020a0390921660048301526024820152604401602060405180830381600087803b151561363157600080fd5b6102c65a03f1151561364257600080fd5b50505060405180515050600754600554600160a060020a0333811692917fae96a66bcd5a00556ad548b9a949f8f45220d5859c013e5cedbddd6af8cf7b9d91168480426040518085600160a060020a0316600160a060020a0316815260200184815260200183815260200182815260200194505050505060405180910390a350565b600654600160a060020a031681565b600154600160a060020a031681565b600080808060018060155460ff1660028111156136fb57fe5b1461370557600080fd5b60005460a060020a900460ff161561371c57600080fd5b600160a060020a033316600090815260136020526040902080548790811061374057fe5b906000526020600020906007020194506000856004015411151561376357600080fd5b60075460018601541461377557600080fd5b600685015460ff161561378757600080fd5b601854600160a060020a03166370a082313060006040516020015260405160e060020a63ffffffff8416028152600160a060020a039091166004820152602401602060405180830381600087803b15156137e057600080fd5b6102c65a03f115156137f157600080fd5b505050604051805190509350613808866000614406565b60068501805460ff191660011790556004850154600586015461383e9190610e6b90670de0b6b3a764000063ffffffff6140b616565b9250613863670de0b6b3a7640000610e6b8588600201546140b690919063ffffffff16565b9150846002015482111561399a57601560019054906101000a9004600160a060020a0316600160a060020a031663a9059cbb33876002015460006040516020015260405160e060020a63ffffffff8516028152600160a060020a0390921660048301526024820152604401602060405180830381600087803b15156138e757600080fd5b6102c65a03f115156138f857600080fd5b505050604051805150506015546002860154610100909104600160a060020a0316906340c10f1990339061392d90869061408a565b60006040516020015260405160e060020a63ffffffff8516028152600160a060020a0390921660048301526024820152604401602060405180830381600087803b151561397957600080fd5b6102c65a03f1151561398a57600080fd5b5050506040518051905050613aa6565b6015546101009004600160a060020a031663a9059cbb338460006040516020015260405160e060020a63ffffffff8516028152600160a060020a0390921660048301526024820152604401602060405180830381600087803b15156139fe57600080fd5b6102c65a03f11515613a0f57600080fd5b505050604051805150506015546002860154610100909104600160a060020a0316906349f9f4d090613a41908561408a565b60006040516020015260405160e060020a63ffffffff84160281526004810191909152602401602060405180830381600087803b1515613a8057600080fd5b6102c65a03f11515613a9157600080fd5b505050604051805190501515613aa657600080fd5b6007546005860154601854600160a060020a0333811693927f7d92f4f6fffc42160fd0d9f56281733529e476a2c89c29c0a6fa0878cd85a9af928b92889291613b39918c91166370a082313060006040516020015260405160e060020a63ffffffff8416028152600160a060020a039091166004820152602401602060405180830381600087803b1515610cbb57600080fd5b6040518085815260200184815260200183815260200182815260200194505050505060405180910390a3505050505050565b60005433600160a060020a03908116911614613b8657600080fd5b60005460a060020a900460ff161515613b9e57600080fd5b600160a060020a0381161515613bb357600080fd5b6015546101009004600160a060020a031663f2fde38b8260405160e060020a63ffffffff8416028152600160a060020a039091166004820152602401600060405180830381600087803b1515613c0857600080fd5b6102c65a03f11515610a6e57600080fd5b60005433600160a060020a03908116911614613c3457600080fd5b600160a060020a0381161515613c4957600080fd5b600054600160a060020a0380831691167f8be0079c531659141344cd1fd0a4f28419497f9722a3daafe3b4186f6b6457e060405160405180910390a360008054600160a060020a031916600160a060020a0392909216919091179055565b60155460ff1681565b6000808080600160a060020a03871660008051602061476183398151915214613e4c5786600160a060020a03166370a082313060006040516020015260405160e060020a63ffffffff8416028152600160a060020a039091166004820152602401602060405180830381600087803b1515613d2a57600080fd5b6102c65a03f11515613d3b57600080fd5b505050604051805160035490935060009250600160a060020a03808a16925063095ea7b3911683806040516020015260405160e060020a63ffffffff8516028152600160a060020a0390921660048301526024820152604401602060405180830381600087803b1515613dad57600080fd5b6102c65a03f11515613dbe57600080fd5b50505060405180515050600354600160a060020a038089169163095ea7b391168860006040516020015260405160e060020a63ffffffff8516028152600160a060020a0390921660048301526024820152604401602060405180830381600087803b1515613e2b57600080fd5b6102c65a03f11515613e3c57600080fd5b5050506040518051905050613e5b565b5050600160a060020a03301631845b601754600160a060020a031663cb3c28c782898989306b204fce5e3e2502611000000060016000806040516020015260405160e060020a63ffffffff8b16028152600160a060020a039788166004820152602481019690965293861660448601529185166064850152608484015260a483015290911660c482015260e4016020604051808303818588803b1515613ef157600080fd5b6125ee5a03f11515613f0257600080fd5b50505050604051805193505060008311613f1b57600080fd5b600160a060020a03871660008051602061476183398151915214613fb857600354600160a060020a038089169163095ea7b391166000806040516020015260405160e060020a63ffffffff8516028152600160a060020a0390921660048301526024820152604401602060405180830381600087803b1515613f9c57600080fd5b6102c65a03f11515613fad57600080fd5b505050604051805150505b61407f613fd7613fc78961453a565b8590600a0a63ffffffff6140b616565b610e6b613fe38861453a565b600a0a614073670de0b6b3a76400006140738d600160a060020a03166370a082313060006040516020015260405160e060020a63ffffffff8416028152600160a060020a039091166004820152602401602060405180830381600087803b151561404c57600080fd5b6102c65a03f1151561405d57600080fd5b50505060405180518a915063ffffffff61408a16565b9063ffffffff6140b616565b979650505050505050565b60008282111561409657fe5b50900390565b6000828201838110156140ab57fe5b8091505b5092915050565b6000808315156140c957600091506140af565b508282028284828115156140d957fe5b04146140ab57fe5b60008082848115156140ef57fe5b04949350505050565b6008546018546000918291829190600160a060020a03166370a0823130846040516020015260405160e060020a63ffffffff8416028152600160a060020a039091166004820152602401602060405180830381600087803b151561415b57600080fd5b6102c65a03f1151561416c57600080fd5b5050506040518051905011156141e0576008546018546141dd9190600160a060020a03166370a082313060006040516020015260405160e060020a63ffffffff8416028152600160a060020a039091166004820152602401602060405180830381600087803b1515610cbb57600080fd5b92505b614201670de0b6b3a7640000610e6b85600a546140b690919063ffffffff16565b600d5560185461429890670de0b6b3a764000090610e6b90600160a060020a03166370a082313060006040516020015260405160e060020a63ffffffff8416028152600160a060020a039091166004820152602401602060405180830381600087803b151561426f57600080fd5b6102c65a03f1151561428057600080fd5b5050506040518051600b54915063ffffffff6140b616565b600d546018549193506143019184916131d191600160a060020a03166370a082313060006040516020015260405160e060020a63ffffffff8416028152600160a060020a039091166004820152602401602060405180830381600087803b1515610cbb57600080fd5b90506007547f13a18edb371d0a74be72de10b678893b96bc8a47e776bb122c59e21d53956fbd6008548360405191825260208201526040908101905180910390a26008819055601854600454600160a060020a039182169163a9059cbb91168460006040516020015260405160e060020a63ffffffff8516028152600160a060020a0390921660048301526024820152604401602060405180830381600087803b15156143ad57600080fd5b6102c65a03f115156143be57600080fd5b50505060405180519050506007547f2f7da09d276ad6237b75476b806f4d8388b9228bd6fa45a7ca214fac5abdf7a3600d5460405190815260200160405180910390a2505050565b600160a060020a03331660009081526013602052604081208054829182918690811061442e57fe5b9060005260206000209060070201925083156144d0576015546144c9906101009004600160a060020a03166318160ddd6000604051602001526040518163ffffffff1660e060020a028152600401602060405180830381600087803b151561449557600080fd5b6102c65a03f115156144a657600080fd5b50505060405180519050610e6b85600201546008546140b690919063ffffffff16565b91506144d8565b826003015491505b508154600160a060020a0316831561450b5760185461450190600160a060020a03168383613cb0565b6004840155614533565b60185461452d906145289083908590600160a060020a0316613cb0565b6145cc565b60058401555b5050505050565b6000600160a060020a0382166000805160206147618339815191521415614563575060126121d3565b81600160a060020a031663313ce5676000604051602001526040518163ffffffff1660e060020a028152600401602060405180830381600087803b15156145a957600080fd5b6102c65a03f115156145ba57600080fd5b505050604051805160ff169392505050565b60006145ea82610e6b670de0b6b3a76400008063ffffffff6140b616565b92915050565b508054600082556007029060005260206000209081019061461191906146f3565b50565b60e0604051908101604052806000600160a060020a0316815260200160008152602001600081526020016000815260200160008152602001600081526020016000151581525090565b60606040519081016040526003815b600081526020019060019003908161466c5790505090565b82600381019282156146b2579160200282015b828111156146b2578251825591602001919060010190614697565b506146be929150614746565b5090565b8154818355818115116146ee576007028160070283600052602060002091820191016146ee91906146f3565b505050565b61210691905b808211156146be578054600160a060020a0319168155600060018201819055600282018190556003820181905560048201819055600582015560068101805460ff191690556007016146f9565b61210691905b808211156146be576000815560010161474c5600000000000000000000000000eeeeeeeeeeeeeeeeeeeeeeeeeeeeeeeeeeeeeeeea165627a7a723058208d2ead700704b13026e37ccce3afbe6643dfc50fbb4da8ffaadcebc81b1890ff0029",
  "source": "pragma solidity ^0.4.18;\r\n\r\nimport 'zeppelin-solidity/contracts/math/SafeMath.sol';\r\nimport 'zeppelin-solidity/contracts/lifecycle/Pausable.sol';\r\nimport './ControlToken.sol';\r\nimport './ShareToken.sol';\r\nimport './KyberNetwork.sol';\r\nimport './Utils.sol';\r\n\r\n/**\r\n * @title The main smart contract of the Betoken hedge fund.\r\n * @author Zefram Lou (Zebang Liu)\r\n * @dev Need to remove Kairo minting before release\r\n */\r\ncontract BetokenFund is Pausable, Utils {\r\n  using SafeMath for uint256;\r\n\r\n  enum CyclePhase { DepositWithdraw, MakeDecisions, RedeemCommission }\r\n\r\n  struct Investment {\r\n    address tokenAddress;\r\n    uint256 cycleNumber;\r\n    uint256 stake;\r\n    uint256 tokenAmount;\r\n    uint256 buyPrice;\r\n    uint256 sellPrice;\r\n    bool isSold;\r\n  }\r\n\r\n  /**\r\n   * @notice Executes function only during the given cycle phase.\r\n   * @param phase the cycle phase during which the function may be called\r\n   */\r\n  modifier during(CyclePhase phase) {\r\n    require(cyclePhase == phase);\r\n    _;\r\n  }\r\n\r\n  /**\r\n   * @notice Checks if `token` is a valid token.\r\n   * @param token the token's address\r\n   */\r\n  modifier isValidToken(address token) {\r\n    require(!isMaliciousCoin[token]);\r\n    require(token != address(ETH_TOKEN_ADDRESS));\r\n    require(ERC20(token).totalSupply() > 0);\r\n    _;\r\n  }\r\n\r\n  // Address of the control token contract.\r\n  address public controlTokenAddr;\r\n\r\n  // Address of the share token contract.\r\n  address public shareTokenAddr;\r\n\r\n  // Address of the KyberNetwork contract\r\n  address public kyberAddr;\r\n\r\n  // Address to which the developer fees will be paid.\r\n  address public developerFeeAccount;\r\n\r\n  // Address of the DAI stable-coin contract.\r\n  address public daiAddr;\r\n\r\n  // Address of the previous version of BetokenFund.\r\n  address public previousVersion;\r\n\r\n  // The number of the current investment cycle.\r\n  uint256 public cycleNumber;\r\n\r\n  // The amount of funds held by the fund.\r\n  uint256 public totalFundsInDAI;\r\n\r\n  // The start time for the current investment cycle phase, in seconds since Unix epoch.\r\n  uint256 public startTimeOfCyclePhase;\r\n\r\n  // The proportion of the fund that gets distributed to Kairo holders every cycle. Fixed point decimal.\r\n  uint256 public commissionRate;\r\n\r\n  // The proportion of contract balance that goes the the devs every cycle. Fixed point decimal.\r\n  uint256 public developerFeeProportion;\r\n\r\n  // Amount of Kairo rewarded to the user who calls a phase transition/investment handling function\r\n  uint256 public functionCallReward;\r\n\r\n  // Amount of commission to be paid out this cycle\r\n  uint256 public totalCommission;\r\n\r\n  // Flag for whether emergency withdrawing is allowed.\r\n  bool public allowEmergencyWithdraw;\r\n\r\n  // Stores the lengths of each cycle phase in seconds.\r\n  uint256[3] phaseLengths;\r\n\r\n  // The last cycle where a user redeemed commission.\r\n  mapping(address => uint256) public lastCommissionRedemption;\r\n\r\n  // List of investments in the current cycle.\r\n  mapping(address => Investment[]) public userInvestments;\r\n\r\n  // Records if a token's contract maliciously treats the BetokenFund differently when calling transfer(), transferFrom(), or approve().\r\n  mapping(address => bool) public isMaliciousCoin;\r\n\r\n  // The current cycle phase.\r\n  CyclePhase public cyclePhase;\r\n\r\n  // Contract instances\r\n  ControlToken internal cToken;\r\n  ShareToken internal sToken;\r\n  KyberNetwork internal kyber;\r\n  DetailedERC20 internal dai;\r\n\r\n  event ChangedPhase(uint256 indexed _cycleNumber, uint256 indexed _newPhase, uint256 _timestamp);\r\n\r\n  event Deposit(uint256 indexed _cycleNumber, address indexed _sender, address _tokenAddress, uint256 _tokenAmount, uint256 _daiAmount, uint256 _timestamp);\r\n  event Withdraw(uint256 indexed _cycleNumber, address indexed _sender, address _tokenAddress, uint256 _tokenAmount, uint256 daiAmount, uint256 _timestamp);\r\n\r\n  event CreatedInvestment(uint256 indexed _cycleNumber, address indexed _sender, uint256 _id, address _tokenAddress, uint256 _stakeInWeis, uint256 _buyPrice, uint256 _costDAIAmount);\r\n  event SoldInvestment(uint256 indexed _cycleNumber, address indexed _sender, uint256 _investmentId, uint256 _receivedKairos, uint256 _sellPrice, uint256 _earnedDAIAmount);\r\n\r\n  event ROI(uint256 indexed _cycleNumber, uint256 _beforeTotalFunds, uint256 _afterTotalFunds);\r\n  event CommissionPaid(uint256 indexed _cycleNumber, address indexed _sender, uint256 _commission);\r\n  event TotalCommissionPaid(uint256 indexed _cycleNumber, uint256 _totalCommissionInWeis);\r\n\r\n  /**\r\n   * Contract initialization functions\r\n   */\r\n\r\n  // Constructor\r\n  function BetokenFund(\r\n    address _cTokenAddr,\r\n    address _sTokenAddr,\r\n    address _kyberAddr,\r\n    address _daiAddr,\r\n    address _developerFeeAccount,\r\n    uint256[3] _phaseLengths,\r\n    uint256 _commissionRate,\r\n    uint256 _developerFeeProportion,\r\n    uint256 _functionCallReward,\r\n    address _previousVersion\r\n  )\r\n    public\r\n  {\r\n    require(_commissionRate.add(_developerFeeProportion) < 10**18);\r\n\r\n    controlTokenAddr = _cTokenAddr;\r\n    shareTokenAddr = _sTokenAddr;\r\n    kyberAddr = _kyberAddr;\r\n    daiAddr = _daiAddr;\r\n    cToken = ControlToken(_cTokenAddr);\r\n    sToken = ShareToken(_sTokenAddr);\r\n    kyber = KyberNetwork(_kyberAddr);\r\n\r\n    developerFeeAccount = _developerFeeAccount;\r\n    phaseLengths = _phaseLengths;\r\n    commissionRate = _commissionRate;\r\n    developerFeeProportion = _developerFeeProportion;\r\n    startTimeOfCyclePhase = 0;\r\n    cyclePhase = CyclePhase.RedeemCommission;\r\n    functionCallReward = _functionCallReward;\r\n    previousVersion = _previousVersion;\r\n    allowEmergencyWithdraw = false;\r\n  }\r\n\r\n  /**\r\n   * Getters\r\n   */\r\n\r\n  /**\r\n   * @notice Returns the length of the user's investments array.\r\n   * @return length of the user's investments array\r\n   */\r\n  function investmentsCount(address _userAddr) public view returns(uint256 _count) {\r\n    return userInvestments[_userAddr].length;\r\n  }\r\n\r\n  /**\r\n   * @notice Returns an item in the user's investments array.\r\n   * @return the specified investment\r\n   */\r\n  function investments(address _userAddr, uint256 _id) public view returns(Investment _investment) {\r\n    return userInvestments[_userAddr][_id];\r\n  }\r\n\r\n  /**\r\n   * @notice Returns the phaseLengths array.\r\n   * @return the phaseLengths array\r\n   */\r\n  function getPhaseLengths() public view returns(uint256[3] _phaseLengths) {\r\n    return phaseLengths;\r\n  }\r\n\r\n  /**\r\n   * Meta functions\r\n   */\r\n\r\n  /**\r\n   * Emergency functions\r\n   */\r\n\r\n  /**\r\n   * @notice Sells token in emergency situations. Only callable by owner.\r\n   * @param _tokenAddr the address of the token to be sold\r\n   */\r\n  function emergencyDumpToken(address _tokenAddr)\r\n    public\r\n    onlyOwner\r\n    during(CyclePhase.RedeemCommission)\r\n    whenPaused\r\n  {\r\n    DetailedERC20 token = DetailedERC20(_tokenAddr);\r\n    __kyberTrade(token, token.balanceOf(this), dai);\r\n  }\r\n\r\n  /**\r\n   * @notice Return staked Kairos for a investment under emergency situations. Should be called by users.\r\n   * @param _investmentId the ID of the investment\r\n   */\r\n  function emergencyRedeemStake(uint256 _investmentId) whenPaused public {\r\n    require(allowEmergencyWithdraw);\r\n    Investment storage investment = userInvestments[msg.sender][_investmentId];\r\n    require(investment.cycleNumber == cycleNumber);\r\n    uint256 stake = investment.stake;\r\n    require(stake > 0);\r\n    delete investment.stake;\r\n    cToken.transfer(msg.sender, stake);\r\n  }\r\n\r\n  /**\r\n   * @notice Updates the current fund balance. Only callable by owner.\r\n   */\r\n  function emergencyUpdateBalance() onlyOwner whenPaused public {\r\n    totalFundsInDAI = dai.balanceOf(this);\r\n  }\r\n\r\n  /**\r\n   * @notice Changes whether emergency withdrawals are allowed. Only callable by owner.\r\n   * @param _newVal the new value\r\n   */\r\n  function setAllowEmergencyWithdraw(bool _newVal) onlyOwner whenPaused public {\r\n    allowEmergencyWithdraw = _newVal;\r\n  }\r\n\r\n  /**\r\n   * @notice Function for withdrawing all funds in times of emergency. Only callable when fund is paused and allowEmergencyWithdraw is true.\r\n   */\r\n  function emergencyWithdraw()\r\n    public\r\n    whenPaused\r\n  {\r\n    require(allowEmergencyWithdraw);\r\n\r\n    uint256 amountInDAI = sToken.balanceOf(msg.sender).mul(totalFundsInDAI).div(sToken.totalSupply());\r\n    sToken.ownerBurn(msg.sender, sToken.balanceOf(msg.sender));\r\n    totalFundsInDAI = totalFundsInDAI.sub(amountInDAI);\r\n\r\n    // Transfer\r\n    dai.transfer(msg.sender, amountInDAI);\r\n\r\n    // Emit event\r\n    Withdraw(cycleNumber, msg.sender, daiAddr, amountInDAI, amountInDAI, now);\r\n  }\r\n\r\n  /**\r\n   * Parameter setters\r\n   */\r\n\r\n  /**\r\n   * @notice Changes the address of the KyberNetwork contract used in the contract. Only callable by owner.\r\n   * @param _newAddr the new address of KyberNetwork contract\r\n   */\r\n  function changeKyberNetworkAddress(address _newAddr) public onlyOwner whenPaused {\r\n    require(_newAddr != address(0));\r\n    kyberAddr = _newAddr;\r\n    kyber = KyberNetwork(_newAddr);\r\n  }\r\n\r\n  /**\r\n   * @notice Changes the address to which the developer fees will be sent. Only callable by owner.\r\n   * @param _newAddr the new developer fee address\r\n   */\r\n  function changeDeveloperFeeAccount(address _newAddr) public onlyOwner {\r\n    require(_newAddr != address(0));\r\n    developerFeeAccount = _newAddr;\r\n  }\r\n\r\n  /**\r\n  * @notice Changes the address of the DAI token smart contract. Only callable by owner.\r\n  * @param _newAddr the new DAI smart contract address\r\n  */\r\n  function changeDAIAddress(address _newAddr) public onlyOwner whenPaused {\r\n    require(_newAddr != address(0));\r\n    daiAddr = _newAddr;\r\n    dai = DetailedERC20(_newAddr);\r\n  }\r\n\r\n  /**\r\n   * @notice Changes the proportion of fund balance sent to the developers each cycle. May only decrease. Only callable by owner.\r\n   * @param _newProp the new proportion, fixed point decimal\r\n   */\r\n  function changeDeveloperFeeProportion(uint256 _newProp) public onlyOwner {\r\n    require(_newProp < developerFeeProportion);\r\n    developerFeeProportion = _newProp;\r\n  }\r\n\r\n  /**\r\n   * @notice Changes the proportion of fund balance given to Kairo holders each cycle. Only callable by owner.\r\n   * @param _newProp the new proportion, fixed point decimal\r\n   */\r\n  function changeCommissionRate(uint256 _newProp) public onlyOwner {\r\n    commissionRate = _newProp;\r\n  }\r\n\r\n  /**\r\n   * @notice Changes the amount of Kairo rewarded to whomever calls nextPhase() the first. Only callable by owner.\r\n   * @param _newVal the new reward value in Kairo, 18 decimals\r\n   */\r\n  function changeCallReward(uint256 _newVal) public onlyOwner {\r\n    functionCallReward = _newVal;\r\n  }\r\n\r\n  /**\r\n   * @notice Changes the lengths of the phases in an investment cycle. Only callable by owner.\r\n   * @param _newVal the new set of phase lengths, in the order of DepositWithdraw, MakeDecisions, RedeemCommission, in seconds\r\n   */\r\n  function changePhaseLengths(uint256[3] _newVal) public onlyOwner {\r\n    phaseLengths = _newVal;\r\n  }\r\n\r\n  /**\r\n   * @notice Changes the owner of the ControlToken contract. Only callable by owner.\r\n   * @param  _newOwner the new owner address\r\n   */\r\n  function changeControlTokenOwner(address _newOwner) public onlyOwner whenPaused {\r\n    require(_newOwner != address(0));\r\n    cToken.transferOwnership(_newOwner);\r\n  }\r\n\r\n  /**\r\n   * @notice Changes the maliciousness status of a token. Only callable by owner.\r\n   * @param _coin the token's address\r\n   * @param _status the new maliciousness status\r\n   */\r\n  function setMaliciousCoinStatus(address _coin, bool _status) public onlyOwner {\r\n    require(_coin != address(0));\r\n    isMaliciousCoin[_coin] = _status;\r\n  }\r\n\r\n\r\n  /**\r\n   * @notice Moves the fund to the next phase in the investment cycle.\r\n   */\r\n  function nextPhase()\r\n    public\r\n    whenNotPaused\r\n  {\r\n    require(now >= startTimeOfCyclePhase.add(phaseLengths[uint(cyclePhase)]));\r\n\r\n    if (cyclePhase == CyclePhase.RedeemCommission) {\r\n      // Start new cycle\r\n      cycleNumber = cycleNumber.add(1);\r\n\r\n      if (cToken.paused()) {\r\n        cToken.unpause();\r\n      }\r\n    } else if (cyclePhase == CyclePhase.MakeDecisions) {\r\n      // Burn any Kairo left in BetokenFund's account\r\n      require(cToken.burnOwnerBalance());\r\n\r\n      cToken.pause();\r\n      __distributeFundsAfterCycleEnd();\r\n    }\r\n\r\n    cyclePhase = CyclePhase(addmod(uint(cyclePhase), 1, 5));\r\n    startTimeOfCyclePhase = now;\r\n\r\n    // Reward caller\r\n    cToken.mint(msg.sender, functionCallReward);\r\n\r\n    ChangedPhase(cycleNumber, uint(cyclePhase), now);\r\n  }\r\n\r\n  /**\r\n   * DepositWithdraw phase functions\r\n   */\r\n\r\n  /**\r\n   * @notice Deposit Ether into the fund. Ether will be converted into DAI.\r\n   */\r\n  function deposit()\r\n    public\r\n    payable\r\n    during(CyclePhase.DepositWithdraw)\r\n    whenNotPaused\r\n  {\r\n    // Buy DAI with ETH\r\n    uint256 actualDAIDeposited;\r\n    uint256 actualETHDeposited;\r\n    uint256 beforeETHBalance = this.balance;\r\n    uint256 beforeDAIBalance = dai.balanceOf(this);\r\n    __kyberTrade(ETH_TOKEN_ADDRESS, msg.value, dai);\r\n    actualETHDeposited = beforeETHBalance.sub(this.balance);\r\n    uint256 leftOverETH = msg.value.sub(actualETHDeposited);\r\n    if (leftOverETH > 0) {\r\n      msg.sender.transfer(leftOverETH);\r\n    }\r\n    actualDAIDeposited = dai.balanceOf(this).sub(beforeDAIBalance);\r\n    require(actualDAIDeposited > 0);\r\n\r\n    // Register investment\r\n    if (cycleNumber == 1) {\r\n      sToken.mint(msg.sender, actualDAIDeposited);\r\n    } else {\r\n      sToken.mint(msg.sender, actualDAIDeposited.mul(sToken.totalSupply()).div(totalFundsInDAI));\r\n    }\r\n    totalFundsInDAI = totalFundsInDAI.add(actualDAIDeposited);\r\n\r\n    // Only for test version. Remove for release.\r\n    cToken.mint(msg.sender, actualDAIDeposited);\r\n\r\n    // Emit event\r\n    Deposit(cycleNumber, msg.sender, ETH_TOKEN_ADDRESS, actualETHDeposited, actualDAIDeposited, now);\r\n  }\r\n\r\n  /**\r\n   * @notice Deposit ERC20 tokens into the fund. Tokens will be converted into DAI.\r\n   * @param _tokenAddr the address of the token to be deposited\r\n   * @param _tokenAmount The amount of tokens to be deposited. May be different from actual deposited amount.\r\n   */\r\n  function depositToken(address _tokenAddr, uint256 _tokenAmount)\r\n    public\r\n    during(CyclePhase.DepositWithdraw)\r\n    isValidToken(_tokenAddr)\r\n    whenNotPaused\r\n  {\r\n    DetailedERC20 token = DetailedERC20(_tokenAddr);\r\n\r\n    require(token.transferFrom(msg.sender, this, _tokenAmount));\r\n\r\n    // Convert token into DAI\r\n    uint256 actualDAIDeposited;\r\n    uint256 actualTokenDeposited;\r\n    if (_tokenAddr == daiAddr) {\r\n      actualDAIDeposited = _tokenAmount;\r\n      actualTokenDeposited = _tokenAmount;\r\n    } else {\r\n      // Buy DAI with tokens\r\n      uint256 beforeTokenBalance = token.balanceOf(this);\r\n      uint256 beforeDAIBalance = dai.balanceOf(this);\r\n      __kyberTrade(token, _tokenAmount, dai);\r\n      actualTokenDeposited = beforeTokenBalance.sub(token.balanceOf(this));\r\n      uint256 leftOverTokens = _tokenAmount.sub(actualTokenDeposited);\r\n      if (leftOverTokens > 0) {\r\n        require(token.transfer(msg.sender, leftOverTokens));\r\n      }\r\n      actualDAIDeposited = dai.balanceOf(this).sub(beforeDAIBalance);\r\n      require(actualDAIDeposited > 0);\r\n    }\r\n\r\n    // Register investment\r\n    if (cycleNumber == 1) {\r\n      sToken.mint(msg.sender, actualDAIDeposited);\r\n    } else {\r\n      sToken.mint(msg.sender, actualDAIDeposited.mul(sToken.totalSupply()).div(totalFundsInDAI));\r\n    }\r\n    totalFundsInDAI = totalFundsInDAI.add(actualDAIDeposited);\r\n\r\n    // Only for test version. Remove for release.\r\n    cToken.mint(msg.sender, actualDAIDeposited);\r\n\r\n    // Emit event\r\n    Deposit(cycleNumber, msg.sender, _tokenAddr, actualTokenDeposited, actualDAIDeposited, now);\r\n  }\r\n\r\n  /**\r\n   * @notice Withdraws Ether by burning Shares.\r\n   * @param _amountInDAI Amount of funds to be withdrawn expressed in DAI. Fixed-point decimal. May be different from actual amount.\r\n   */\r\n  function withdraw(uint256 _amountInDAI)\r\n    public\r\n    during(CyclePhase.DepositWithdraw)\r\n    whenNotPaused\r\n  {\r\n    // Buy ETH\r\n    uint256 actualETHWithdrawn;\r\n    uint256 actualDAIWithdrawn;\r\n    uint256 beforeETHBalance = this.balance;\r\n    uint256 beforeDaiBalance = dai.balanceOf(this);\r\n    __kyberTrade(dai, _amountInDAI, ETH_TOKEN_ADDRESS);\r\n    actualETHWithdrawn = this.balance.sub(beforeETHBalance);\r\n    actualDAIWithdrawn = beforeDaiBalance.sub(dai.balanceOf(this));\r\n    require(actualDAIWithdrawn > 0);\r\n\r\n    // Burn shares\r\n    sToken.ownerBurn(msg.sender, actualDAIWithdrawn.mul(sToken.totalSupply()).div(totalFundsInDAI));\r\n    totalFundsInDAI = totalFundsInDAI.sub(actualDAIWithdrawn);\r\n\r\n    // Transfer Ether to user\r\n    msg.sender.transfer(actualETHWithdrawn);\r\n\r\n    // Emit event\r\n    Withdraw(cycleNumber, msg.sender, ETH_TOKEN_ADDRESS, actualETHWithdrawn, actualDAIWithdrawn, now);\r\n  }\r\n\r\n  /**\r\n   * @notice Withdraws funds by burning Shares, and converts the funds into the specified token using Kyber Network.\r\n   * @param _tokenAddr the address of the token to be withdrawn into the caller's account\r\n   * @param _amountInDAI The amount of funds to be withdrawn expressed in DAI. Fixed-point decimal. May be different from actual amount.\r\n   */\r\n  function withdrawToken(address _tokenAddr, uint256 _amountInDAI)\r\n    public\r\n    during(CyclePhase.DepositWithdraw)\r\n    isValidToken(_tokenAddr)\r\n    whenNotPaused\r\n  {\r\n    require(cycleNumber != 1);\r\n    DetailedERC20 token = DetailedERC20(_tokenAddr);\r\n\r\n    // Convert DAI into desired tokens\r\n    uint256 actualTokenWithdrawn;\r\n    uint256 actualDAIWithdrawn;\r\n    if (_tokenAddr == daiAddr) {\r\n      actualDAIWithdrawn = _amountInDAI;\r\n      actualTokenWithdrawn = _amountInDAI;\r\n    } else {\r\n      // Buy desired tokens\r\n      uint256 beforeTokenBalance = token.balanceOf(this);\r\n      uint256 beforeDaiBalance = dai.balanceOf(this);\r\n      __kyberTrade(dai, _amountInDAI, token);\r\n      actualTokenWithdrawn = token.balanceOf(this).sub(beforeTokenBalance);\r\n      actualDAIWithdrawn = beforeDaiBalance.sub(dai.balanceOf(this));\r\n      require(actualDAIWithdrawn > 0);\r\n    }\r\n\r\n    // Burn Shares\r\n    sToken.ownerBurn(msg.sender, actualDAIWithdrawn.mul(sToken.totalSupply()).div(totalFundsInDAI));\r\n    totalFundsInDAI = totalFundsInDAI.sub(actualDAIWithdrawn);\r\n\r\n    // Transfer tokens to user\r\n    token.transfer(msg.sender, actualTokenWithdrawn);\r\n\r\n    // Emit event\r\n    Withdraw(cycleNumber, msg.sender, _tokenAddr, actualTokenWithdrawn, actualDAIWithdrawn, now);\r\n  }\r\n\r\n  /**\r\n   * MakeDecisions phase functions\r\n   */\r\n\r\n  /**\r\n   * @notice Creates a new investment investment for an ERC20 token.\r\n   * @param _tokenAddress address of the ERC20 token contract\r\n   * @param _stake amount of Kairos to be staked in support of the investment\r\n   */\r\n  function createInvestment(\r\n    address _tokenAddress,\r\n    uint256 _stake\r\n  )\r\n    public\r\n    during(CyclePhase.MakeDecisions)\r\n    isValidToken(_tokenAddress)\r\n    whenNotPaused\r\n  {\r\n    DetailedERC20 token = DetailedERC20(_tokenAddress);\r\n\r\n    // Collect stake\r\n    require(cToken.ownerCollectFrom(msg.sender, _stake));\r\n\r\n    // Add investment to list\r\n    userInvestments[msg.sender].push(Investment({\r\n      tokenAddress: _tokenAddress,\r\n      cycleNumber: cycleNumber,\r\n      stake: _stake,\r\n      tokenAmount: 0,\r\n      buyPrice: 0,\r\n      sellPrice: 0,\r\n      isSold: false\r\n    }));\r\n\r\n    // Invest\r\n    uint256 beforeTokenAmount = token.balanceOf(this);\r\n    uint256 beforeDAIBalance = dai.balanceOf(this);\r\n    uint256 investmentId = investmentsCount(msg.sender).sub(1);\r\n    __handleInvestment(investmentId, true);\r\n    userInvestments[msg.sender][investmentId].tokenAmount = token.balanceOf(this).sub(beforeTokenAmount);\r\n\r\n    // Emit event\r\n    CreatedInvestment(cycleNumber, msg.sender, investmentsCount(msg.sender).sub(1), _tokenAddress, _stake, userInvestments[msg.sender][investmentId].buyPrice, beforeDAIBalance.sub(dai.balanceOf(this)));\r\n  }\r\n\r\n  /**\r\n   * @notice Called by user to sell the assets an investment invested in. Returns the staked Kairo plus rewards/penalties.\r\n   * @param _investmentId the ID of the investment\r\n   */\r\n  function sellInvestmentAsset(uint256 _investmentId)\r\n    public\r\n    during(CyclePhase.MakeDecisions)\r\n    whenNotPaused\r\n  {\r\n    Investment storage investment = userInvestments[msg.sender][_investmentId];\r\n    require(investment.buyPrice > 0);\r\n    require(investment.cycleNumber == cycleNumber);\r\n    require(!investment.isSold);\r\n\r\n    // Sell asset\r\n    uint256 beforeDAIBalance = dai.balanceOf(this);\r\n    __handleInvestment(_investmentId, false);\r\n    investment.isSold = true;\r\n\r\n    // Return Kairo\r\n    uint256 multiplier = investment.sellPrice.mul(PRECISION).div(investment.buyPrice);\r\n    uint256 receiveKairoAmount = investment.stake.mul(multiplier).div(PRECISION);\r\n    if (receiveKairoAmount > investment.stake) {\r\n      cToken.transfer(msg.sender, investment.stake);\r\n      cToken.mint(msg.sender, receiveKairoAmount.sub(investment.stake));\r\n    } else {\r\n      cToken.transfer(msg.sender, receiveKairoAmount);\r\n      require(cToken.burnOwnerTokens(investment.stake.sub(receiveKairoAmount)));\r\n    }\r\n\r\n    // Emit event\r\n    SoldInvestment(cycleNumber, msg.sender, _investmentId, receiveKairoAmount, investment.sellPrice, dai.balanceOf(this).sub(beforeDAIBalance));\r\n  }\r\n\r\n  /**\r\n   * RedeemCommission phase functions\r\n   */\r\n\r\n  /**\r\n   * @notice Redeems commission.\r\n   */\r\n  function redeemCommission()\r\n    public\r\n    during(CyclePhase.RedeemCommission)\r\n    whenNotPaused\r\n  {\r\n    require(lastCommissionRedemption[msg.sender] < cycleNumber);\r\n    lastCommissionRedemption[msg.sender] = cycleNumber;\r\n    uint256 commission = totalCommission.mul(cToken.balanceOf(msg.sender)).div(cToken.totalSupply());\r\n    dai.transfer(msg.sender, commission);\r\n\r\n    delete userInvestments[msg.sender];\r\n\r\n    CommissionPaid(cycleNumber, msg.sender, commission);\r\n  }\r\n\r\n  /**\r\n   * @notice Redeems commission in shares.\r\n   */\r\n  function redeemCommissionInShares()\r\n    public\r\n    during(CyclePhase.RedeemCommission)\r\n    whenNotPaused\r\n  {\r\n    require(lastCommissionRedemption[msg.sender] < cycleNumber);\r\n    lastCommissionRedemption[msg.sender] = cycleNumber;\r\n    uint256 commission = totalCommission.mul(cToken.balanceOf(msg.sender)).div(cToken.totalSupply());\r\n    sToken.mint(msg.sender, commission.mul(sToken.totalSupply()).div(totalFundsInDAI));\r\n    totalFundsInDAI = totalFundsInDAI.add(commission);\r\n\r\n    delete userInvestments[msg.sender];\r\n\r\n    // Emit event\r\n    Deposit(cycleNumber, msg.sender, daiAddr, commission, commission, now);\r\n    CommissionPaid(cycleNumber, msg.sender, commission);\r\n  }\r\n\r\n  /**\r\n   * @notice Sells tokens left over due to manager not selling or KyberNetwork not having enough demand. Callable by anyone.\r\n   * @param _tokenAddr address of the token to be sold\r\n   */\r\n  function sellLeftoverToken(address _tokenAddr)\r\n    public\r\n    during(CyclePhase.RedeemCommission)\r\n    isValidToken(_tokenAddr)\r\n    whenNotPaused\r\n  {\r\n    uint256 beforeBalance = dai.balanceOf(this);\r\n    DetailedERC20 token = DetailedERC20(_tokenAddr);\r\n    require(_tokenAddr != daiAddr);\r\n    __kyberTrade(token, token.balanceOf(this), dai);\r\n    totalFundsInDAI = totalFundsInDAI.add(dai.balanceOf(this).sub(beforeBalance));\r\n  }\r\n\r\n  /**\r\n   * Internal use functions\r\n   */\r\n\r\n  /**\r\n   * @notice Update fund statistics, and pay developer fees.\r\n   */\r\n  function __distributeFundsAfterCycleEnd() internal {\r\n    uint256 profit = 0;\r\n    if (dai.balanceOf(this) > totalFundsInDAI) {\r\n      profit = dai.balanceOf(this).sub(totalFundsInDAI);\r\n    }\r\n    totalCommission = commissionRate.mul(profit).div(PRECISION);\r\n    uint256 devFee = developerFeeProportion.mul(dai.balanceOf(this)).div(PRECISION);\r\n    uint256 newTotalFunds = dai.balanceOf(this).sub(totalCommission).sub(devFee);\r\n\r\n    // Update values\r\n    ROI(cycleNumber, totalFundsInDAI, newTotalFunds);\r\n    totalFundsInDAI = newTotalFunds;\r\n\r\n    // Transfer fees\r\n    dai.transfer(developerFeeAccount, devFee);\r\n\r\n    // Emit event\r\n    TotalCommissionPaid(cycleNumber, totalCommission);\r\n  }\r\n\r\n  function __handleInvestment(uint256 _investmentId, bool _buy) internal {\r\n    Investment storage investment = userInvestments[msg.sender][_investmentId];\r\n    uint256 srcAmount;\r\n    if (_buy) {\r\n      srcAmount = totalFundsInDAI.mul(investment.stake).div(cToken.totalSupply());\r\n    } else {\r\n      srcAmount = investment.tokenAmount;\r\n    }\r\n    DetailedERC20 token = DetailedERC20(investment.tokenAddress);\r\n    if (_buy) {\r\n      investment.buyPrice = __kyberTrade(dai, srcAmount, token);\r\n    } else {\r\n      investment.sellPrice = invert(__kyberTrade(token, srcAmount, dai));\r\n    }\r\n  }\r\n\r\n  /**\r\n   * @notice Wrapper function for doing token conversion on Kyber Network\r\n   * @param _srcToken the token to convert from\r\n   * @param _srcAmount the amount of tokens to be converted\r\n   * @param _destToken the destination token\r\n   * @return _destPriceInSrc the price of the destination token, in terms of source tokens\r\n   */\r\n  function __kyberTrade(DetailedERC20 _srcToken, uint256 _srcAmount, DetailedERC20 _destToken) internal returns(uint256 _destPriceInSrc) {\r\n    uint256 actualDestAmount;\r\n    uint256 beforeSrcBalance;\r\n    uint256 msgValue;\r\n\r\n    if (_srcToken != ETH_TOKEN_ADDRESS) {\r\n      beforeSrcBalance = _srcToken.balanceOf(this);\r\n      msgValue = 0;\r\n      _srcToken.approve(kyberAddr, 0);\r\n      _srcToken.approve(kyberAddr, _srcAmount);\r\n    } else {\r\n      beforeSrcBalance = this.balance;\r\n      msgValue = _srcAmount;\r\n    }\r\n    actualDestAmount = kyber.trade.value(msgValue)(\r\n      _srcToken,\r\n      _srcAmount,\r\n      _destToken,\r\n      this,\r\n      MAX_QTY,\r\n      1,\r\n      0\r\n    );\r\n    require(actualDestAmount > 0);\r\n    if (_srcToken != ETH_TOKEN_ADDRESS) {\r\n      _srcToken.approve(kyberAddr, 0);\r\n    }\r\n\r\n    _destPriceInSrc = beforeSrcBalance.sub(_srcToken.balanceOf(this)).mul(PRECISION).mul(10**getDecimals(_destToken)).div(actualDestAmount.mul(10**getDecimals(_srcToken)));\r\n  }\r\n\r\n  function() public payable {\r\n    if (msg.sender != kyberAddr) {\r\n      revert();\r\n    }\r\n  }\r\n}",
  "sourcePath": "D:\\msi-cn\\Documents\\GitHub\\betoken\\eth\\contracts\\BetokenFund.sol",
  "compiler": {
    "name": "solc",
    "version": "0.4.19+commit.c4cbbb05.Emscripten.clang"
  },
  "schemaVersion": "2.0.0",
  "updatedAt": "2018-04-20T18:52:03.496Z"
}