{
  "contractName": "ControlToken",
  "abi": [
    {
      "constant": true,
      "inputs": [],
      "name": "mintingFinished",
      "outputs": [
        {
          "name": "",
          "type": "bool"
        }
      ],
      "payable": false,
      "stateMutability": "view",
      "type": "function"
    },
    {
      "constant": true,
      "inputs": [],
      "name": "name",
      "outputs": [
        {
          "name": "",
          "type": "string"
        }
      ],
      "payable": false,
      "stateMutability": "view",
      "type": "function"
    },
    {
      "constant": false,
      "inputs": [
        {
          "name": "_spender",
          "type": "address"
        },
        {
          "name": "_value",
          "type": "uint256"
        }
      ],
      "name": "approve",
      "outputs": [
        {
          "name": "",
          "type": "bool"
        }
      ],
      "payable": false,
      "stateMutability": "nonpayable",
      "type": "function"
    },
    {
      "constant": true,
      "inputs": [],
      "name": "totalSupply",
      "outputs": [
        {
          "name": "",
          "type": "uint256"
        }
      ],
      "payable": false,
      "stateMutability": "view",
      "type": "function"
    },
    {
      "constant": false,
      "inputs": [
        {
          "name": "_from",
          "type": "address"
        },
        {
          "name": "_to",
          "type": "address"
        },
        {
          "name": "_value",
          "type": "uint256"
        }
      ],
      "name": "transferFrom",
      "outputs": [
        {
          "name": "",
          "type": "bool"
        }
      ],
      "payable": false,
      "stateMutability": "nonpayable",
      "type": "function"
    },
    {
      "constant": false,
      "inputs": [
        {
          "name": "_from",
          "type": "address"
        },
        {
          "name": "_value",
          "type": "uint256"
        }
      ],
      "name": "ownerCollectFrom",
      "outputs": [
        {
          "name": "",
          "type": "bool"
        }
      ],
      "payable": false,
      "stateMutability": "nonpayable",
      "type": "function"
    },
    {
      "constant": true,
      "inputs": [],
      "name": "decimals",
      "outputs": [
        {
          "name": "",
          "type": "uint8"
        }
      ],
      "payable": false,
      "stateMutability": "view",
      "type": "function"
    },
    {
      "constant": false,
      "inputs": [
        {
          "name": "_to",
          "type": "address"
        },
        {
          "name": "_amount",
          "type": "uint256"
        }
      ],
      "name": "mint",
      "outputs": [
        {
          "name": "",
          "type": "bool"
        }
      ],
      "payable": false,
      "stateMutability": "nonpayable",
      "type": "function"
    },
    {
      "constant": false,
      "inputs": [
        {
          "name": "_spender",
          "type": "address"
        },
        {
          "name": "_subtractedValue",
          "type": "uint256"
        }
      ],
      "name": "decreaseApproval",
      "outputs": [
        {
          "name": "",
          "type": "bool"
        }
      ],
      "payable": false,
      "stateMutability": "nonpayable",
      "type": "function"
    },
    {
      "constant": true,
      "inputs": [
        {
          "name": "_owner",
          "type": "address"
        }
      ],
      "name": "balanceOf",
      "outputs": [
        {
          "name": "balance",
          "type": "uint256"
        }
      ],
      "payable": false,
      "stateMutability": "view",
      "type": "function"
    },
    {
      "constant": false,
      "inputs": [],
      "name": "finishMinting",
      "outputs": [
        {
          "name": "",
          "type": "bool"
        }
      ],
      "payable": false,
      "stateMutability": "nonpayable",
      "type": "function"
    },
    {
      "constant": true,
      "inputs": [],
      "name": "owner",
      "outputs": [
        {
          "name": "",
          "type": "address"
        }
      ],
      "payable": false,
      "stateMutability": "view",
      "type": "function"
    },
    {
      "constant": true,
      "inputs": [],
      "name": "symbol",
      "outputs": [
        {
          "name": "",
          "type": "string"
        }
      ],
      "payable": false,
      "stateMutability": "view",
      "type": "function"
    },
    {
      "constant": false,
      "inputs": [
        {
          "name": "_to",
          "type": "address"
        },
        {
          "name": "_value",
          "type": "uint256"
        }
      ],
      "name": "transfer",
      "outputs": [
        {
          "name": "",
          "type": "bool"
        }
      ],
      "payable": false,
      "stateMutability": "nonpayable",
      "type": "function"
    },
    {
      "constant": false,
      "inputs": [
        {
          "name": "_from",
          "type": "address"
        },
        {
          "name": "_value",
          "type": "uint256"
        }
      ],
      "name": "ownerBurn",
      "outputs": [
        {
          "name": "",
          "type": "bool"
        }
      ],
      "payable": false,
      "stateMutability": "nonpayable",
      "type": "function"
    },
    {
      "constant": false,
      "inputs": [
        {
          "name": "_spender",
          "type": "address"
        },
        {
          "name": "_addedValue",
          "type": "uint256"
        }
      ],
      "name": "increaseApproval",
      "outputs": [
        {
          "name": "",
          "type": "bool"
        }
      ],
      "payable": false,
      "stateMutability": "nonpayable",
      "type": "function"
    },
    {
      "constant": true,
      "inputs": [
        {
          "name": "_owner",
          "type": "address"
        },
        {
          "name": "_spender",
          "type": "address"
        }
      ],
      "name": "allowance",
      "outputs": [
        {
          "name": "",
          "type": "uint256"
        }
      ],
      "payable": false,
      "stateMutability": "view",
      "type": "function"
    },
    {
      "constant": false,
      "inputs": [
        {
          "name": "newOwner",
          "type": "address"
        }
      ],
      "name": "transferOwnership",
      "outputs": [],
      "payable": false,
      "stateMutability": "nonpayable",
      "type": "function"
    },
    {
      "constant": false,
      "inputs": [],
      "name": "burnOwnerBalance",
      "outputs": [],
      "payable": false,
      "stateMutability": "nonpayable",
      "type": "function"
    },
    {
      "payable": false,
      "stateMutability": "nonpayable",
      "type": "fallback"
    },
    {
      "anonymous": false,
      "inputs": [
        {
          "indexed": false,
          "name": "_from",
          "type": "address"
        },
        {
          "indexed": false,
          "name": "_value",
          "type": "uint256"
        }
      ],
      "name": "OwnerCollectFrom",
      "type": "event"
    },
    {
      "anonymous": false,
      "inputs": [
        {
          "indexed": false,
          "name": "_from",
          "type": "address"
        },
        {
          "indexed": false,
          "name": "_value",
          "type": "uint256"
        }
      ],
      "name": "OwnerBurn",
      "type": "event"
    },
    {
      "anonymous": false,
      "inputs": [
        {
          "indexed": true,
          "name": "to",
          "type": "address"
        },
        {
          "indexed": false,
          "name": "amount",
          "type": "uint256"
        }
      ],
      "name": "Mint",
      "type": "event"
    },
    {
      "anonymous": false,
      "inputs": [],
      "name": "MintFinished",
      "type": "event"
    },
    {
      "anonymous": false,
      "inputs": [
        {
          "indexed": true,
          "name": "previousOwner",
          "type": "address"
        },
        {
          "indexed": true,
          "name": "newOwner",
          "type": "address"
        }
      ],
      "name": "OwnershipTransferred",
      "type": "event"
    },
    {
      "anonymous": false,
      "inputs": [
        {
          "indexed": true,
          "name": "owner",
          "type": "address"
        },
        {
          "indexed": true,
          "name": "spender",
          "type": "address"
        },
        {
          "indexed": false,
          "name": "value",
          "type": "uint256"
        }
      ],
      "name": "Approval",
      "type": "event"
    },
    {
      "anonymous": false,
      "inputs": [
        {
          "indexed": true,
          "name": "from",
          "type": "address"
        },
        {
          "indexed": true,
          "name": "to",
          "type": "address"
        },
        {
          "indexed": false,
          "name": "value",
          "type": "uint256"
        }
      ],
      "name": "Transfer",
      "type": "event"
    }
  ],
  "bytecode": "0x606060405260038054600160a860020a03191633600160a060020a0316179055610f668061002e6000396000f3006060604052600436106100ed5763ffffffff60e060020a60003504166305d2035b81146100fd57806306fdde0314610124578063095ea7b3146101ae57806318160ddd146101d057806323b872dd146101f55780632bee7bde1461021d578063313ce5671461023f57806340c10f1914610268578063661884631461028a57806370a08231146102ac5780637d64bcb4146102cb5780638da5cb5b146102de57806395d89b411461030d578063a9059cbb14610320578063c000178614610342578063d73dd62314610364578063dd62ed3e14610386578063f2fde38b146103ab578063f3123a3a146103cc575b34156100f857600080fd5b600080fd5b341561010857600080fd5b6101106103df565b604051901515815260200160405180910390f35b341561012f57600080fd5b6101376103ef565b60405160208082528190810183818151815260200191508051906020019080838360005b8381101561017357808201518382015260200161015b565b50505050905090810190601f1680156101a05780820380516001836020036101000a031916815260200191505b509250505060405180910390f35b34156101b957600080fd5b610110600160a060020a0360043516602435610426565b34156101db57600080fd5b6101e3610492565b60405190815260200160405180910390f35b341561020057600080fd5b610110600160a060020a0360043581169060243516604435610498565b341561022857600080fd5b610110600160a060020a0360043516602435610621565b341561024a57600080fd5b61025261074d565b60405160ff909116815260200160405180910390f35b341561027357600080fd5b610110600160a060020a0360043516602435610752565b341561029557600080fd5b610110600160a060020a0360043516602435610860565b34156102b757600080fd5b6101e3600160a060020a036004351661095a565b34156102d657600080fd5b610110610975565b34156102e957600080fd5b6102f1610a00565b604051600160a060020a03909116815260200160405180910390f35b341561031857600080fd5b610137610a0f565b341561032b57600080fd5b610110600160a060020a0360043516602435610a46565b341561034d57600080fd5b610110600160a060020a0360043516602435610b61565b341561036f57600080fd5b610110600160a060020a0360043516602435610c5e565b341561039157600080fd5b6101e3600160a060020a0360043581169060243516610d02565b34156103b657600080fd5b6103ca600160a060020a0360043516610d2d565b005b34156103d757600080fd5b6103ca610dc8565b60035460a060020a900460ff1681565b60408051908101604052600581527f4b6169726f000000000000000000000000000000000000000000000000000000602082015281565b600160a060020a03338116600081815260026020908152604080832094871680845294909152808220859055909291907f8c5be1e5ebec7d5bd14f71427d1e84f3dd0314c0f7b2291e5b200ac8c7c3b9259085905190815260200160405180910390a350600192915050565b60015490565b6000600160a060020a03831615156104af57600080fd5b600160a060020a0384166000908152602081905260409020548211156104d457600080fd5b600160a060020a038085166000908152600260209081526040808320339094168352929052205482111561050757600080fd5b61051083610e30565b600160a060020a038416600090815260208190526040902054610539908363ffffffff610f1216565b600160a060020a03808616600090815260208190526040808220939093559085168152205461056e908363ffffffff610f2416565b600160a060020a03808516600090815260208181526040808320949094558783168252600281528382203390931682529190915220546105b4908363ffffffff610f1216565b600160a060020a03808616600081815260026020908152604080832033861684529091529081902093909355908516917fddf252ad1be2c89b69c2b068fc378daa952ba7f163c4a11628f55a4df523b3ef9085905190815260200160405180910390a35060019392505050565b60035460009033600160a060020a0390811691161461063f57600080fd5b600160a060020a038316151561065457600080fd5b600160a060020a03831660009081526020819052604090205482111561067957600080fd5b600160a060020a0383166000908152602081905260409020546106a2908363ffffffff610f1216565b600160a060020a038085166000908152602081905260408082209390935533909116815220546106d8908363ffffffff610f2416565b60008033600160a060020a0316600160a060020a03168152602001908152602001600020819055507f285da9122e12f24158745e2179a8da30488f6fa4a6292da22f90b18d9b59201e8383604051600160a060020a03909216825260208201526040908101905180910390a150600192915050565b601281565b60035460009033600160a060020a0390811691161461077057600080fd5b60035460a060020a900460ff161561078757600080fd5b60015461079a908363ffffffff610f2416565b600155600160a060020a0383166000908152602081905260409020546107c6908363ffffffff610f2416565b600160a060020a0384166000818152602081905260409081902092909255907f0f6798a560793a54c3bcfe86a93cde1e73087d944c0ea20544137d41213968859084905190815260200160405180910390a2600160a060020a03831660007fddf252ad1be2c89b69c2b068fc378daa952ba7f163c4a11628f55a4df523b3ef8460405190815260200160405180910390a350600192915050565b600160a060020a033381166000908152600260209081526040808320938616835292905290812054808311156108bd57600160a060020a0333811660009081526002602090815260408083209388168352929052908120556108f4565b6108cd818463ffffffff610f1216565b600160a060020a033381166000908152600260209081526040808320938916835292905220555b600160a060020a0333811660008181526002602090815260408083209489168084529490915290819020547f8c5be1e5ebec7d5bd14f71427d1e84f3dd0314c0f7b2291e5b200ac8c7c3b925915190815260200160405180910390a35060019392505050565b600160a060020a031660009081526020819052604090205490565b60035460009033600160a060020a0390811691161461099357600080fd5b60035460a060020a900460ff16156109aa57600080fd5b6003805474ff0000000000000000000000000000000000000000191660a060020a1790557fae5184fba832cb2b1f702aca6117b8d265eaf03ad33eb133f19dde0f5920fa0860405160405180910390a150600190565b600354600160a060020a031681565b60408051908101604052600381527f4b524f0000000000000000000000000000000000000000000000000000000000602082015281565b6000600160a060020a0383161515610a5d57600080fd5b600160a060020a033316600090815260208190526040902054821115610a8257600080fd5b610a8b83610e30565b600160a060020a033316600090815260208190526040902054610ab4908363ffffffff610f1216565b600160a060020a033381166000908152602081905260408082209390935590851681522054610ae9908363ffffffff610f2416565b60008085600160a060020a0316600160a060020a031681526020019081526020016000208190555082600160a060020a031633600160a060020a03167fddf252ad1be2c89b69c2b068fc378daa952ba7f163c4a11628f55a4df523b3ef8460405190815260200160405180910390a350600192915050565b60035460009033600160a060020a03908116911614610b7f57600080fd5b600160a060020a0383161515610b9457600080fd5b600160a060020a038316600090815260208190526040902054821115610bb957600080fd5b600160a060020a038316600090815260208190526040902054610be2908363ffffffff610f1216565b600160a060020a038416600090815260208190526040902055600154610c0e908363ffffffff610f1216565b6001557f0ab39d9ba7919873feca55bf060424fe84ce224de99a09c4a7e4ca1c2ac673c98383604051600160a060020a03909216825260208201526040908101905180910390a150600192915050565b600160a060020a033381166000908152600260209081526040808320938616835292905290812054610c96908363ffffffff610f2416565b600160a060020a0333811660008181526002602090815260408083209489168084529490915290819020849055919290917f8c5be1e5ebec7d5bd14f71427d1e84f3dd0314c0f7b2291e5b200ac8c7c3b92591905190815260200160405180910390a350600192915050565b600160a060020a03918216600090815260026020908152604080832093909416825291909152205490565b60035433600160a060020a03908116911614610d4857600080fd5b600160a060020a0381161515610d5d57600080fd5b600354600160a060020a0380831691167f8be0079c531659141344cd1fd0a4f28419497f9722a3daafe3b4186f6b6457e060405160405180910390a36003805473ffffffffffffffffffffffffffffffffffffffff1916600160a060020a0392909216919091179055565b60035433600160a060020a03908116911614610de357600080fd5b600354600160a060020a0316600090815260208190526040902054600154610e109163ffffffff610f1216565b600155600354600160a060020a0316600090815260208190526040812055565b600354600160a060020a03168063929066f58360006040516020015260405160e060020a63ffffffff8416028152600160a060020a039091166004820152602401602060405180830381600087803b1515610e8a57600080fd5b6102c65a03f11515610e9b57600080fd5b505050604051805190501515610f0e5780600160a060020a031663f245fbc78360405160e060020a63ffffffff8416028152600160a060020a039091166004820152602401600060405180830381600087803b1515610ef957600080fd5b6102c65a03f11515610f0a57600080fd5b5050505b5050565b600082821115610f1e57fe5b50900390565b600082820183811015610f3357fe5b93925050505600a165627a7a7230582093fe414d224e3ddf181505a3763dcf28857814ee5a53474e3d683efdc289f8ee0029",
  "source": "pragma solidity ^0.4.18;\r\n\r\nimport 'zeppelin-solidity/contracts/token/ERC20/MintableToken.sol';\r\nimport 'zeppelin-solidity/contracts/math/SafeMath.sol';\r\nimport 'zeppelin-solidity/contracts/math/Math.sol';\r\nimport 'zeppelin-solidity/contracts/lifecycle/Pausable.sol';\r\nimport './etherdelta.sol';\r\nimport './oraclizeAPI_0.5.sol';\r\n\r\n/**\r\n * The main contract of the Betoken hedge fund\r\n */\r\ncontract BetokenFund is Pausable {\r\n  using SafeMath for uint256;\r\n\r\n  enum CyclePhase { ChangeMaking, ProposalMaking, Waiting, Ended, Finalized }\r\n\r\n  struct Proposal {\r\n    address tokenAddress;\r\n    string tokenSymbol;\r\n    uint256 tokenDecimals;\r\n    uint256 buyPriceInWeis;\r\n    uint256 sellPriceInWeis;\r\n    uint256 buyOrderExpirationBlockNum;\r\n    uint256 sellOrderExpirationBlockNum;\r\n    uint256 numFor;\r\n    uint256 numAgainst;\r\n  }\r\n\r\n  /**\r\n   * Executes function only during the given cycle phase.\r\n   * @param phase the cycle phase during which the function may be called\r\n   */\r\n  modifier during(CyclePhase phase) {\r\n    require(cyclePhase == phase);\r\n    _;\r\n  }\r\n\r\n  /**\r\n   * Executes function only when msg.sender is a participant of the fund.\r\n   */\r\n  modifier onlyParticipant {\r\n    require(isParticipant[msg.sender]);\r\n    _;\r\n  }\r\n\r\n  /**\r\n   * Exucutes function only when msg.sender is the fund's OraclizeHandler.\r\n   */\r\n  modifier onlyOraclize {\r\n    require(msg.sender == oraclizeAddr);\r\n    _;\r\n  }\r\n\r\n  //Address of the control token contract.\r\n  address public controlTokenAddr;\r\n\r\n  //Address of the EtherDelta contract\r\n  address public etherDeltaAddr;\r\n\r\n  //Address of the fund's OraclizeHandler contract.\r\n  address public oraclizeAddr;\r\n\r\n  //The creator of the BetokenFund contract. Only used in initializeSubcontracts().\r\n  address public creator;\r\n\r\n  //Address to which the developer fees will be paid.\r\n  address public developerFeeAccount;\r\n\r\n  //The number of the current investment cycle.\r\n  uint256 public cycleNumber;\r\n\r\n  //10^{decimals} used for representing fixed point numbers with {decimals} decimals.\r\n  uint256 public precision;\r\n\r\n  //The amount of funds held by the fund.\r\n  uint256 public totalFundsInWeis;\r\n\r\n  //The start time for the current investment cycle phase, in seconds since Unix epoch.\r\n  uint256 public startTimeOfCyclePhase;\r\n\r\n  //Temporal length of change making period at start of each cycle, in seconds.\r\n  uint256 public timeOfChangeMaking;\r\n\r\n  //Temporal length of proposal making period at start of each cycle, in seconds.\r\n  uint256 public timeOfProposalMaking;\r\n\r\n  //Temporal length of waiting period, after which the bets will be settled, in seconds.\r\n  uint256 public timeOfWaiting;\r\n\r\n  //The time allotted for waiting for sell orders, in seconds.\r\n  uint256 public timeOfSellOrderWaiting;\r\n\r\n  //Minimum proportion of Kairo balance people have to stake in support of a proposal. Fixed point decimal.\r\n  uint256 public minStakeProportion;\r\n\r\n  //The maximum number of proposals each cycle.\r\n  uint256 public maxProposals;\r\n\r\n  //The proportion of the fund that gets distributed to Kairo holders every cycle. Fixed point decimal.\r\n  uint256 public commissionRate;\r\n\r\n  //The expiration time for buy and sell orders made on EtherDelta.\r\n  uint256 public orderExpirationTimeInBlocks;\r\n\r\n  //The proportion of contract balance that goes the the devs every cycle. Fixed point decimal.\r\n  uint256 public developerFeeProportion;\r\n\r\n  //The max number of proposals each member can create.\r\n  uint256 public maxProposalsPerMember;\r\n\r\n  //Number of proposals already made in this cycle. Excludes deleted proposals.\r\n  uint256 public numProposals;\r\n\r\n  //Total Kairo staked in support of proposals this cycle.\r\n  uint256 public cycleTotalForStake;\r\n\r\n  //Flag for whether the contract has been initialized with subcontracts' addresses.\r\n  bool public initialized;\r\n\r\n  //Flag for whether emergency withdrawing is allowed.\r\n  bool public allowEmergencyWithdraw;\r\n\r\n  //Returns true for an address if it's in the participants array, false otherwise.\r\n  mapping(address => bool) public isParticipant;\r\n\r\n  //Returns the amount participant staked into all proposals in the current cycle.\r\n  mapping(address => uint256) public userStakedProposalCount;\r\n\r\n  //Mapping from a participant's address to their Ether balance, in weis.\r\n  mapping(address => uint256) public balanceOf;\r\n\r\n  //Mapping from Proposal to total amount of Control Tokens being staked by supporters.\r\n  mapping(uint256 => uint256) public forStakedControlOfProposal;\r\n  mapping(uint256 => uint256) public againstStakedControlOfProposal;\r\n\r\n  //Records the number of proposals a user has created in the current cycle. Canceling support does not decrease this number.\r\n  mapping(address => uint256) public createdProposalCount;\r\n\r\n  //mapping(proposalId => mapping(participantAddress => stakedTokensInWeis))\r\n  mapping(uint256 => mapping(address => uint256)) public forStakedControlOfProposalOfUser;\r\n  mapping(uint256 => mapping(address => uint256)) public againstStakedControlOfProposalOfUser;\r\n\r\n  //Mapping to check if a proposal for a token has already been made.\r\n  mapping(address => bool) public isTokenAlreadyProposed;\r\n\r\n  //A list of everyone who is participating in the fund.\r\n  address[] public participants;\r\n\r\n  //List of proposals in the current cycle.\r\n  Proposal[] public proposals;\r\n\r\n  //References to subcontracts and EtherDelta contract.\r\n  ControlToken internal cToken;\r\n  EtherDelta internal etherDelta;\r\n  OraclizeHandler internal oraclize;\r\n\r\n  //The current cycle phase.\r\n  CyclePhase public cyclePhase;\r\n\r\n  event CycleStarted(uint256 _cycleNumber, uint256 _timestamp);\r\n  event Deposit(uint256 _cycleNumber, address _sender, uint256 _amountInWeis, uint256 _timestamp);\r\n  event Withdraw(uint256 _cycleNumber, address _sender, uint256 _amountInWeis, uint256 _timestamp);\r\n  event ChangeMakingTimeEnded(uint256 _cycleNumber, uint256 _timestamp);\r\n  event NewProposal(uint256 _cycleNumber, uint256 _id, address _tokenAddress, string _tokenSymbol, uint256 _amountInWeis);\r\n  event StakedProposal(uint256 _cycleNumber, uint256 _id, uint256 _amountInWeis, bool _support);\r\n  event ProposalMakingTimeEnded(uint256 _cycleNumber, uint256 _timestamp);\r\n  event CycleEnded(uint256 _cycleNumber, uint256 _timestamp);\r\n  event CycleFinalized(uint256 _cycleNumber, uint256 _timestamp);\r\n  event ROI(uint256 _cycleNumber, uint256 _beforeTotalFunds, uint256 _afterTotalFunds);\r\n  event CommissionPaid(uint256 _cycleNumber, uint256 _totalCommissionInWeis);\r\n\r\n  /**\r\n   * Contract initialization functions\r\n   */\r\n\r\n  //Constructor\r\n  function BetokenFund(\r\n    address _etherDeltaAddr,\r\n    address _developerFeeAccount,\r\n    uint256 _precision,\r\n    uint256 _timeOfChangeMaking,\r\n    uint256 _timeOfProposalMaking,\r\n    uint256 _timeOfWaiting,\r\n    uint256 _timeOfSellOrderWaiting,\r\n    uint256 _minStakeProportion,\r\n    uint256 _maxProposals,\r\n    uint256 _commissionRate,\r\n    uint256 _orderExpirationTimeInBlocks,\r\n    uint256 _developerFeeProportion,\r\n    uint256 _maxProposalsPerMember,\r\n    uint256 _cycleNumber\r\n  )\r\n    public\r\n  {\r\n    require(_precision > 0);\r\n    require(_minStakeProportion < _precision);\r\n    require(_commissionRate.add(_developerFeeProportion) < _precision);\r\n\r\n    etherDeltaAddr = _etherDeltaAddr;\r\n    developerFeeAccount = _developerFeeAccount;\r\n    precision = _precision;\r\n    timeOfChangeMaking = _timeOfChangeMaking;\r\n    timeOfProposalMaking = _timeOfProposalMaking;\r\n    timeOfWaiting = _timeOfWaiting;\r\n    timeOfSellOrderWaiting = _timeOfSellOrderWaiting;\r\n    minStakeProportion = _minStakeProportion;\r\n    maxProposals = _maxProposals;\r\n    commissionRate = _commissionRate;\r\n    orderExpirationTimeInBlocks = _orderExpirationTimeInBlocks;\r\n    developerFeeProportion = _developerFeeProportion;\r\n    maxProposalsPerMember = _maxProposalsPerMember;\r\n    startTimeOfCyclePhase = 0;\r\n    cyclePhase = CyclePhase.Finalized;\r\n    creator = msg.sender;\r\n    numProposals = 0;\r\n    cycleNumber = _cycleNumber;\r\n    etherDelta = EtherDelta(etherDeltaAddr);\r\n    allowEmergencyWithdraw = false;\r\n  }\r\n\r\n  /**\r\n   * Initializes the list of participants. Used during contract upgrades.\r\n   * @param _participants the list of participant addresses\r\n   */\r\n  function initializeParticipants(address[] _participants) public {\r\n    require(msg.sender == creator);\r\n    require (!initialized);\r\n\r\n    participants = _participants;\r\n    for (uint i = 0; i < _participants.length; i++) {\r\n      isParticipant[_participants[i]] = true;\r\n    }\r\n  }\r\n\r\n  /**\r\n   * Initializes the addresses of the ControlToken and OraclizeHandler contracts.\r\n   * @param _cTokenAddr address of ControlToken contract\r\n   * @param _oraclizeAddr address of OraclizeHandler contract\r\n   */\r\n  function initializeSubcontracts(address _cTokenAddr, address _oraclizeAddr) public {\r\n    require(msg.sender == creator);\r\n    require(!initialized);\r\n\r\n    initialized = true;\r\n\r\n    controlTokenAddr = _cTokenAddr;\r\n    oraclizeAddr = _oraclizeAddr;\r\n\r\n    cToken = ControlToken(controlTokenAddr);\r\n    oraclize = OraclizeHandler(oraclizeAddr);\r\n  }\r\n\r\n  /**\r\n   * Getters\r\n   */\r\n\r\n  /**\r\n   * Returns the length of the participants array.\r\n   * @return length of participants array\r\n   */\r\n  function participantsCount() public view returns(uint256 _count) {\r\n    return participants.length;\r\n  }\r\n\r\n  /**\r\n   * Returns the length of the proposals array.\r\n   * @return length of proposals array\r\n   */\r\n  function proposalsCount() public view returns(uint256 _count) {\r\n    return proposals.length;\r\n  }\r\n\r\n  /**\r\n   * Meta functions\r\n   */\r\n\r\n  /**\r\n   * Emergency functions\r\n   */\r\n\r\n  /**\r\n   * In case the fund is invested in tokens, sell all tokens.\r\n   */\r\n  function emergencyDumpTokens() onlyOwner whenPaused public {\r\n    for (uint256 i = 0; i < proposals.length; i = i.add(1)) {\r\n      if (proposals[i].numFor > 0) { //Ensure proposal isn't a deleted one\r\n        oraclize.__grabCurrentPriceFromOraclize(i);\r\n      }\r\n    }\r\n  }\r\n\r\n  /**\r\n   * In case the fund is invested in tokens, withdraw all ether from EtherDelta.\r\n   */\r\n  function emergencyWithdrawFromEtherDelta() onlyOwner whenPaused public {\r\n    uint256 balance = etherDelta.tokens(address(0), address(this));\r\n    etherDelta.withdraw(balance);\r\n  }\r\n\r\n  /**\r\n   * In case the fund is invested in tokens, return all staked Kairos.\r\n   */\r\n  function emergencyReturnAllStakes() onlyOwner whenPaused public {\r\n    for (uint256 i = 0; i < proposals.length; i = i.add(1)) {\r\n      if (proposals[i].numFor > 0) {\r\n        __returnStakes(i);\r\n      }\r\n    }\r\n  }\r\n\r\n  /**\r\n   * In case the fund is invested in tokens, redistribute balance after selling all tokens.\r\n   */\r\n  function emergencyRedistBalances() onlyOwner whenPaused public {\r\n    for (uint256 i = 0; i < participants.length; i = i.add(1)) {\r\n      address participant = participants[i];\r\n      uint256 newBalance = 0;\r\n      if (totalFundsInWeis > 0) {\r\n        newBalance = newBalance.add(this.balance.mul(balanceOf[participant]).div(totalFundsInWeis));\r\n      }\r\n      balanceOf[participant] = newBalance;\r\n    }\r\n    totalFundsInWeis = this.balance;\r\n  }\r\n\r\n  function setAllowEmergencyWithdraw(bool _val) onlyOwner whenPaused public {\r\n    allowEmergencyWithdraw = _val;\r\n  }\r\n\r\n  /**\r\n   * Function for withdrawing all funds in times of emergency. Only callable when fund is paused.\r\n   */\r\n  function emergencyWithdraw()\r\n    public\r\n    onlyParticipant\r\n    whenPaused\r\n  {\r\n    require(allowEmergencyWithdraw);\r\n    uint256 amountInWeis = balanceOf[msg.sender];\r\n\r\n    //Subtract from account\r\n    totalFundsInWeis = totalFundsInWeis.sub(amountInWeis);\r\n    balanceOf[msg.sender] = 0;\r\n\r\n    //Transfer\r\n    msg.sender.transfer(amountInWeis);\r\n\r\n    //Emit event\r\n    Withdraw(cycleNumber, msg.sender, amountInWeis, now);\r\n  }\r\n\r\n  /**\r\n   * Parameter setters\r\n   */\r\n\r\n  /**\r\n   * Changes the address of the EtherDelta contract used in the contract. Only callable by owner.\r\n   * @param _newAddr new address of EtherDelta contract\r\n   */\r\n  function changeEtherDeltaAddress(address _newAddr) public onlyOwner whenPaused {\r\n    require(_newAddr != address(0));\r\n    etherDeltaAddr = _newAddr;\r\n    etherDelta = EtherDelta(_newAddr);\r\n    oraclize.__changeEtherDeltaAddress(_newAddr);\r\n  }\r\n\r\n  /**\r\n   * Changes the address of the OraclizeHandler contract used in the contract. Only callable by owner.\r\n   * @param _newAddr new address of OraclizeHandler contract\r\n   */\r\n  function changeOraclizeAddress(address _newAddr) public onlyOwner whenPaused {\r\n    require(_newAddr != address(0));\r\n    oraclizeAddr = _newAddr;\r\n    oraclize = OraclizeHandler(_newAddr);\r\n  }\r\n\r\n  /**\r\n   * Changes the address to which the developer fees will be sent. Only callable by owner.\r\n   * @param _newAddr new developer fee address\r\n   */\r\n  function changeDeveloperFeeAccount(address _newAddr) public onlyOwner {\r\n    require(_newAddr != address(0));\r\n    developerFeeAccount = _newAddr;\r\n  }\r\n\r\n  /**\r\n   * Changes the proportion of fund balance sent to the developers each cycle. May only decrease. Only callable by owner.\r\n   * @param _newProp the new proportion, fixed point decimal\r\n   */\r\n  function changeDeveloperFeeProportion(uint256 _newProp) public onlyOwner {\r\n    require(_newProp < developerFeeProportion);\r\n    developerFeeProportion = _newProp;\r\n  }\r\n\r\n  /**\r\n   * Changes the proportion of fund balance given to Kairo holders each cycle. Only callable by owner.\r\n   * @param _newProp the new proportion, fixed point decimal\r\n   */\r\n  function changeCommissionRate(uint256 _newProp) public onlyOwner {\r\n    commissionRate = _newProp;\r\n  }\r\n\r\n  /**\r\n   * Sends Ether to the OraclizeHandler contract.\r\n   */\r\n  function topupOraclizeFees() public payable {\r\n    oraclizeAddr.transfer(msg.value);\r\n  }\r\n\r\n  /**\r\n   * Changes the owner of the OraclizeHandler contract.\r\n   * @param  _newOwner the new owner address\r\n   */\r\n  function changeOraclizeOwner(address _newOwner) public onlyOwner whenPaused {\r\n    require(_newOwner != address(0));\r\n    oraclize.transferOwnership(_newOwner);\r\n  }\r\n\r\n  /**\r\n   * Changes the owner of the ControlToken contract.\r\n   * @param  _newOwner the new owner address\r\n   */\r\n  function changeControlTokenOwner(address _newOwner) public onlyOwner whenPaused {\r\n    require(_newOwner != address(0));\r\n    cToken.transferOwnership(_newOwner);\r\n  }\r\n\r\n  /**\r\n   * Start cycle functions\r\n   */\r\n\r\n  /**\r\n   * Starts a new investment cycle.\r\n   */\r\n  function startNewCycle() public during(CyclePhase.Finalized) whenNotPaused {\r\n    require(initialized);\r\n\r\n    //Update values\r\n    cyclePhase = CyclePhase.ChangeMaking;\r\n    startTimeOfCyclePhase = now;\r\n    cycleNumber = cycleNumber.add(1);\r\n\r\n    //Reset data\r\n    for (uint256 i = 0; i < participants.length; i = i.add(1)) {\r\n      __resetMemberData(participants[i]);\r\n    }\r\n    for (i = 0; i < proposals.length; i = i.add(1)) {\r\n      __resetProposalData(i);\r\n    }\r\n    oraclize.__deleteTokenSymbolOfProposal();\r\n    delete proposals;\r\n    delete numProposals;\r\n    delete cycleTotalForStake;\r\n\r\n    //Emit event\r\n    CycleStarted(cycleNumber, now);\r\n  }\r\n\r\n  /**\r\n   * Resets cycle specific data for a given participant.\r\n   * @param _addr the participant whose data will be reset\r\n   */\r\n  function __resetMemberData(address _addr) internal {\r\n    delete createdProposalCount[_addr];\r\n    delete userStakedProposalCount[_addr];\r\n\r\n    //Remove the associated corresponding control staked for/against  each proposal\r\n    for (uint256 i = 0; i < proposals.length; i = i.add(1)) {\r\n      delete forStakedControlOfProposalOfUser[i][_addr];\r\n      delete againstStakedControlOfProposalOfUser[i][_addr];\r\n    }\r\n  }\r\n\r\n  /**\r\n   * Resets cycle specific data for a give proposal\r\n   * @param _proposalId ID of proposal whose data will be reset\r\n   */\r\n  function __resetProposalData(uint256 _proposalId) internal {\r\n    delete isTokenAlreadyProposed[proposals[_proposalId].tokenAddress];\r\n    delete forStakedControlOfProposal[_proposalId];\r\n    delete againstStakedControlOfProposal[_proposalId];\r\n  }\r\n\r\n  /**\r\n   * ChangeMakingTime functions\r\n   */\r\n\r\n  /**\r\n   * Deposit Ether into the fund.\r\n   */\r\n  function deposit()\r\n    public\r\n    payable\r\n    during(CyclePhase.ChangeMaking)\r\n    whenNotPaused\r\n  {\r\n    //If caller is not a participant, add them to the participants list\r\n    if (!isParticipant[msg.sender]) {\r\n      participants.push(msg.sender);\r\n      isParticipant[msg.sender] = true;\r\n    }\r\n\r\n    //Register investment\r\n    balanceOf[msg.sender] = balanceOf[msg.sender].add(msg.value);\r\n    totalFundsInWeis = totalFundsInWeis.add(msg.value);\r\n\r\n    //Deposits during all cycles will grant you Kairo in the testnet alpha\r\n    //Uncomment in mainnet version\r\n    //if (cycleNumber == 1) {\r\n      //Give control tokens proportional to investment\r\n      cToken.mint(msg.sender, msg.value);\r\n    //}\r\n\r\n    //Emit event\r\n    Deposit(cycleNumber, msg.sender, msg.value, now);\r\n  }\r\n\r\n  /**\r\n   * Withdraws a certain amount of Ether from the user's account. Cannot be called during the first cycle.\r\n   * @param _amountInWeis amount of Ether to be withdrawn\r\n   */\r\n  function withdraw(uint256 _amountInWeis)\r\n    public\r\n    during(CyclePhase.ChangeMaking)\r\n    onlyParticipant\r\n    whenNotPaused\r\n  {\r\n    require(cycleNumber != 1);\r\n\r\n    //Subtract from account\r\n    totalFundsInWeis = totalFundsInWeis.sub(_amountInWeis);\r\n    balanceOf[msg.sender] = balanceOf[msg.sender].sub(_amountInWeis);\r\n\r\n    //Transfer Ether to user\r\n    msg.sender.transfer(_amountInWeis);\r\n\r\n    //Emit event\r\n    Withdraw(cycleNumber, msg.sender, _amountInWeis, now);\r\n  }\r\n\r\n  /**\r\n   * Ends the ChangeMaking phase.\r\n   */\r\n  function endChangeMakingTime() public during(CyclePhase.ChangeMaking) whenNotPaused {\r\n    require(now >= startTimeOfCyclePhase.add(timeOfChangeMaking));\r\n\r\n    startTimeOfCyclePhase = now;\r\n    cyclePhase = CyclePhase.ProposalMaking;\r\n\r\n    ChangeMakingTimeEnded(cycleNumber, now);\r\n  }\r\n\r\n  /**\r\n   * ProposalMakingTime functions\r\n   */\r\n\r\n  /**\r\n   * Creates a new investment proposal for an ERC20 token.\r\n   * @param _tokenAddress address of the ERC20 token contract\r\n   * @param _tokenSymbol  ticker/symbol of the token\r\n   * @param _tokenDecimals number of decimals that the token uses\r\n   * @param _stakeInWeis amount of Kairos to be staked in support of the proposal\r\n   */\r\n  function createProposal(\r\n    address _tokenAddress,\r\n    string _tokenSymbol,\r\n    uint256 _tokenDecimals,\r\n    uint256 _stakeInWeis\r\n  )\r\n    public\r\n    during(CyclePhase.ProposalMaking)\r\n    onlyParticipant\r\n    whenNotPaused\r\n  {\r\n    require(numProposals < maxProposals);\r\n    require(!isTokenAlreadyProposed[_tokenAddress]);\r\n    require(createdProposalCount[msg.sender] < maxProposalsPerMember);\r\n\r\n    //Add proposal to list\r\n    proposals.push(Proposal({\r\n      tokenAddress: _tokenAddress,\r\n      tokenSymbol: _tokenSymbol,\r\n      tokenDecimals: _tokenDecimals,\r\n      buyPriceInWeis: 0,\r\n      sellPriceInWeis: 0,\r\n      numFor: 0,\r\n      numAgainst: 0,\r\n      buyOrderExpirationBlockNum: 0,\r\n      sellOrderExpirationBlockNum: 0\r\n    }));\r\n\r\n    //Update values about proposal\r\n    isTokenAlreadyProposed[_tokenAddress] = true;\r\n    oraclize.__pushTokenSymbolOfProposal(_tokenSymbol);\r\n    createdProposalCount[msg.sender] = createdProposalCount[msg.sender].add(1);\r\n    numProposals = numProposals.add(1);\r\n\r\n    //Stake control tokens\r\n    uint256 proposalId = proposals.length - 1;\r\n    stakeProposal(proposalId, _stakeInWeis, true);\r\n\r\n    //Emit event\r\n    NewProposal(cycleNumber, proposalId, _tokenAddress, _tokenSymbol, _stakeInWeis);\r\n  }\r\n\r\n  /**\r\n   * Stakes for or against an investment proposal.\r\n   * @param _proposalId ID of the proposal the user wants to support\r\n   * @param _stakeInWeis amount of Kairo to be staked in support of the proposal\r\n   */\r\n  function stakeProposal(uint256 _proposalId, uint256 _stakeInWeis, bool _support)\r\n    public\r\n    during(CyclePhase.ProposalMaking)\r\n    onlyParticipant\r\n    whenNotPaused\r\n  {\r\n    require(_proposalId < proposals.length); //Valid ID\r\n    require(isTokenAlreadyProposed[proposals[_proposalId].tokenAddress]); //Non-empty proposal\r\n\r\n    /**\r\n     * Stake Kairos\r\n     */\r\n    //Ensure stake is larger than the minimum proportion of Kairo balance\r\n    require(_stakeInWeis.mul(precision) >= minStakeProportion.mul(cToken.balanceOf(msg.sender)));\r\n    require(_stakeInWeis > 0); //Ensure positive stake amount\r\n\r\n    //Collect Kairos as stake\r\n    cToken.ownerCollectFrom(msg.sender, _stakeInWeis);\r\n\r\n    //Update stake data\r\n    if (_support && againstStakedControlOfProposalOfUser[_proposalId][msg.sender] == 0) {\r\n      //Support proposal, hasn't staked against it\r\n      if (forStakedControlOfProposalOfUser[_proposalId][msg.sender] == 0) {\r\n        proposals[_proposalId].numFor = proposals[_proposalId].numFor.add(1);\r\n      }\r\n      forStakedControlOfProposal[_proposalId] = forStakedControlOfProposal[_proposalId].add(_stakeInWeis);\r\n      forStakedControlOfProposalOfUser[_proposalId][msg.sender] = forStakedControlOfProposalOfUser[_proposalId][msg.sender].add(_stakeInWeis);\r\n      cycleTotalForStake = cycleTotalForStake.add(_stakeInWeis);\r\n    } else if (!_support && forStakedControlOfProposalOfUser[_proposalId][msg.sender] == 0) {\r\n      //Against proposal, hasn't staked for it\r\n      if (againstStakedControlOfProposalOfUser[_proposalId][msg.sender] == 0) {\r\n        proposals[_proposalId].numAgainst = proposals[_proposalId].numAgainst.add(1);\r\n      }\r\n      againstStakedControlOfProposal[_proposalId] = againstStakedControlOfProposal[_proposalId].add(_stakeInWeis);\r\n      againstStakedControlOfProposalOfUser[_proposalId][msg.sender] = againstStakedControlOfProposalOfUser[_proposalId][msg.sender].add(_stakeInWeis);\r\n    } else {\r\n      revert();\r\n    }\r\n    userStakedProposalCount[msg.sender] = userStakedProposalCount[msg.sender].add(1);\r\n\r\n    //Emit event\r\n    StakedProposal(cycleNumber, _proposalId, _stakeInWeis, _support);\r\n  }\r\n\r\n  /**\r\n   * Cancels staking in a proposal.\r\n   * @param _proposalId ID of the proposal\r\n   */\r\n  function cancelProposalStake(uint256 _proposalId)\r\n    public\r\n    during(CyclePhase.ProposalMaking)\r\n    onlyParticipant\r\n    whenNotPaused\r\n  {\r\n    require(_proposalId < proposals.length); //Valid ID\r\n    require(proposals[_proposalId].numFor > 0); //Non-empty proposal\r\n\r\n    //Remove stake data\r\n    uint256 forStake = forStakedControlOfProposalOfUser[_proposalId][msg.sender];\r\n    uint256 againstStake = againstStakedControlOfProposalOfUser[_proposalId][msg.sender];\r\n    uint256 stake = forStake.add(againstStake);\r\n    if (forStake > 0) {\r\n      forStakedControlOfProposal[_proposalId] = forStakedControlOfProposal[_proposalId].sub(stake);\r\n      cycleTotalForStake = cycleTotalForStake.sub(stake);\r\n      proposals[_proposalId].numFor = proposals[_proposalId].numFor.sub(1);\r\n    } else if (againstStake > 0) {\r\n      againstStakedControlOfProposal[_proposalId] = againstStakedControlOfProposal[_proposalId].sub(stake);\r\n      proposals[_proposalId].numAgainst = proposals[_proposalId].numAgainst.sub(1);\r\n    } else {\r\n      return;\r\n    }\r\n    userStakedProposalCount[msg.sender] = userStakedProposalCount[msg.sender].sub(1);\r\n\r\n    delete forStakedControlOfProposalOfUser[_proposalId][msg.sender];\r\n    delete againstStakedControlOfProposalOfUser[_proposalId][msg.sender];\r\n\r\n    //Return stake\r\n    cToken.transfer(msg.sender, stake);\r\n\r\n    //Delete proposal if necessary\r\n    if (proposals[_proposalId].numFor == 0) {\r\n      __returnStakes(_proposalId);\r\n      __resetProposalData(_proposalId);\r\n      numProposals = numProposals.sub(1);\r\n      delete proposals[_proposalId];\r\n    }\r\n  }\r\n\r\n  /**\r\n   * Ends the ProposalMaking phase.\r\n   */\r\n  function endProposalMakingTime()\r\n    public\r\n    during(CyclePhase.ProposalMaking)\r\n    whenNotPaused\r\n  {\r\n    require(now >= startTimeOfCyclePhase.add(timeOfProposalMaking));\r\n\r\n    startTimeOfCyclePhase = now;\r\n    cyclePhase = CyclePhase.Waiting;\r\n\r\n    __penalizeNonparticipation();\r\n    __makeInvestments();\r\n\r\n    ProposalMakingTimeEnded(cycleNumber, now);\r\n  }\r\n\r\n  /**\r\n   * Penalizes non-participation by burning a proportion of Kairo balance.\r\n   */\r\n  function __penalizeNonparticipation() internal {\r\n    for (uint256 i = 0; i < participants.length; i = i.add(1)) {\r\n      address participant = participants[i];\r\n      uint256 kairoBalance = cToken.balanceOf(participant);\r\n      if (userStakedProposalCount[participant] == 0 && kairoBalance > 0) {\r\n        uint256 decreaseAmount = kairoBalance.mul(minStakeProportion).div(precision);\r\n        cToken.ownerBurn(participant, decreaseAmount);\r\n      }\r\n    }\r\n  }\r\n\r\n  /**\r\n   * Turns the investment proposals into EtherDelta orders.\r\n   */\r\n  function __makeInvestments() internal {\r\n    //Invest in tokens using etherdelta\r\n    for (uint256 i = 0; i < proposals.length; i = i.add(1)) {\r\n      if (proposals[i].numFor > 0) { //Ensure proposal isn't a deleted one\r\n        //Deposit ether\r\n        uint256 investAmount = totalFundsInWeis.mul(forStakedControlOfProposal[i]).div(cycleTotalForStake);\r\n        etherDelta.deposit.value(investAmount)();\r\n        oraclize.__grabCurrentPriceFromOraclize(i);\r\n      }\r\n    }\r\n  }\r\n\r\n  /**\r\n   * Ends the Waiting phase.\r\n   */\r\n  function endWaitingTime() public during(CyclePhase.Waiting) whenNotPaused {\r\n    require(now >= startTimeOfCyclePhase.add(timeOfWaiting));\r\n\r\n    //Update values\r\n    startTimeOfCyclePhase = now;\r\n    cyclePhase = CyclePhase.Ended;\r\n\r\n    //Sell all invested tokens\r\n    for (uint256 i = 0; i < proposals.length; i = i.add(1)) {\r\n      if (proposals[i].numFor > 0) { //Ensure proposal isn't a deleted one\r\n        oraclize.__grabCurrentPriceFromOraclize(i);\r\n      }\r\n    }\r\n\r\n    //Emit event\r\n    CycleEnded(cycleNumber, now);\r\n  }\r\n\r\n  /**\r\n   * Finalize the cycle by redistributing user balances and settling investment proposals.\r\n   */\r\n  function finalizeCycle() public during(CyclePhase.Ended) whenNotPaused {\r\n    require(now >= startTimeOfCyclePhase.add(timeOfSellOrderWaiting));\r\n\r\n    //Update cycle values\r\n    startTimeOfCyclePhase = now;\r\n    cyclePhase = CyclePhase.Finalized;\r\n\r\n    //Settle investment proposal results\r\n    for (uint256 proposalId = 0; proposalId < proposals.length; proposalId = proposalId.add(1)) {\r\n      if (proposals[proposalId].numFor > 0) { //Ensure proposal isn't a deleted one\r\n        __settleBets(proposalId);\r\n      }\r\n    }\r\n    //Burn any Kairo left in BetokenFund's account\r\n    cToken.burnOwnerBalance();\r\n\r\n    //Withdraw from etherdelta\r\n    uint256 balance = etherDelta.tokens(address(0), address(this));\r\n    etherDelta.withdraw(balance);\r\n\r\n    //Get all remaining funds from OraclizeHandler\r\n    oraclize.__returnAllFunds();\r\n\r\n    //Distribute funds\r\n    __distributeFundsAfterCycleEnd();\r\n\r\n    //Emit event\r\n    CycleFinalized(cycleNumber, now);\r\n  }\r\n\r\n  /**\r\n   * Settles an investment proposal in terms of profitability.\r\n   * @param _proposalId ID of the proposal\r\n   */\r\n  function __settleBets(uint256 _proposalId) internal {\r\n    Proposal storage prop = proposals[_proposalId];\r\n\r\n    //Prevent divide by zero errors\r\n    if (prop.buyPriceInWeis == 0 || cycleTotalForStake == 0) {\r\n      __returnStakes(_proposalId);\r\n      return;\r\n    }\r\n\r\n    //Check if sell order has been partially or completely filled\r\n    uint256 investAmount = totalFundsInWeis.mul(forStakedControlOfProposal[_proposalId]).div(cycleTotalForStake);\r\n    if (etherDelta.amountFilled(prop.tokenAddress, investAmount.mul(10**prop.tokenDecimals).div(prop.buyPriceInWeis), address(0), investAmount, prop.sellOrderExpirationBlockNum, _proposalId, address(this), 0, 0, 0) != 0) {\r\n      uint256 forMultiplier = prop.sellPriceInWeis.mul(precision).div(prop.buyPriceInWeis);\r\n      uint256 againstMultiplier = 0;\r\n      if (prop.sellPriceInWeis < prop.buyPriceInWeis.mul(2)) {\r\n        againstMultiplier = prop.buyPriceInWeis.mul(2).sub(prop.sellPriceInWeis).mul(precision).div(prop.buyPriceInWeis);\r\n      }\r\n\r\n      for (uint256 j = 0; j < participants.length; j = j.add(1)) {\r\n        address participant = participants[j];\r\n        uint256 stake = 0;\r\n        if (forStakedControlOfProposalOfUser[_proposalId][participant] > 0) {\r\n          //User supports proposal\r\n          stake = forStakedControlOfProposalOfUser[_proposalId][participant];\r\n          //Mint instead of transfer. Ensures that there are always enough tokens.\r\n          //Extra will be burned right after so no problem there.\r\n          cToken.mint(participant, stake.mul(forMultiplier).div(precision));\r\n        } else if (againstStakedControlOfProposalOfUser[_proposalId][participant] > 0) {\r\n          //User is against proposal\r\n          stake = againstStakedControlOfProposalOfUser[_proposalId][participant];\r\n          //Mint instead of transfer. Ensures that there are always enough tokens.\r\n          //Extra will be burned right after so no problem there.\r\n          cToken.mint(participant, stake.mul(againstMultiplier).div(precision));\r\n        }\r\n      }\r\n    } else {\r\n      //Buy order failed completely. Return stakes.\r\n      __returnStakes(_proposalId);\r\n    }\r\n  }\r\n\r\n  /**\r\n   * Returns all stakes of a proposal\r\n   * @param _proposalId ID of the proposal\r\n   */\r\n  function __returnStakes(uint256 _proposalId) internal {\r\n    for (uint256 j = 0; j < participants.length; j = j.add(1)) {\r\n      address participant = participants[j];\r\n      uint256 stake = forStakedControlOfProposalOfUser[_proposalId][participant].add(againstStakedControlOfProposalOfUser[_proposalId][participant]);\r\n      if (stake != 0) {\r\n        cToken.transfer(participant, stake);\r\n      }\r\n    }\r\n  }\r\n\r\n  /**\r\n   * Distributes the funds accourding to previously held proportions. Pays commission to Kairo holders,\r\n   * developer fees to developers, and oraclize fee to OraclizeHandler.\r\n   */\r\n  function __distributeFundsAfterCycleEnd() internal {\r\n    uint256 profit = 0;\r\n    if (this.balance > totalFundsInWeis) {\r\n      profit = this.balance - totalFundsInWeis;\r\n    }\r\n    uint256 totalCommission = commissionRate.mul(profit).div(precision);\r\n    uint256 devFee = developerFeeProportion.mul(this.balance).div(precision);\r\n    uint256 oraclizeFee = oraclize.__oraclizeFee().mul(maxProposals).mul(2);\r\n    uint256 newTotalRegularFunds = this.balance.sub(totalCommission).sub(devFee);\r\n    if (oraclizeFee <= newTotalRegularFunds) {\r\n      newTotalRegularFunds = newTotalRegularFunds.sub(oraclizeFee);\r\n    }\r\n\r\n    //Distributes funds to participants\r\n    for (uint256 i = 0; i < participants.length; i = i.add(1)) {\r\n      address participant = participants[i];\r\n      uint256 newBalance = 0;\r\n      //Add share\r\n      if (totalFundsInWeis > 0) {\r\n        newBalance = newBalance.add(newTotalRegularFunds.mul(balanceOf[participant]).div(totalFundsInWeis));\r\n      }\r\n      //Add commission\r\n      //Adding a check for nonzero Kairo supply here makes Truffle go apeshit. Edge case anyways, so whatevs.\r\n      newBalance = newBalance.add(totalCommission.mul(cToken.balanceOf(participant)).div(cToken.totalSupply()));\r\n      //Update balance\r\n      balanceOf[participant] = newBalance;\r\n    }\r\n\r\n    //Update values\r\n    uint256 newTotalFunds = newTotalRegularFunds.add(totalCommission);\r\n    ROI(cycleNumber, totalFundsInWeis, newTotalFunds);\r\n    totalFundsInWeis = newTotalFunds;\r\n\r\n    //Transfer fees\r\n    developerFeeAccount.transfer(devFee);\r\n    oraclize.transfer(oraclizeFee);\r\n\r\n    //Emit event\r\n    CommissionPaid(cycleNumber, totalCommission);\r\n  }\r\n\r\n  /**\r\n   * Internal use functions\r\n   */\r\n\r\n  function __addControlTokenReceipientAsParticipant(address _receipient) public {\r\n    require(msg.sender == controlTokenAddr);\r\n    isParticipant[_receipient] = true;\r\n    participants.push(_receipient);\r\n  }\r\n\r\n  function __makeOrder(address _tokenGet, uint _amountGet, address _tokenGive, uint _amountGive, uint _expires, uint _nonce) public onlyOraclize whenNotPaused {\r\n    etherDelta.order(_tokenGet, _amountGet, _tokenGive, _amountGive, _expires, _nonce);\r\n  }\r\n\r\n  function __setBuyPriceAndExpirationBlock(uint256 _proposalId, uint256 _buyPrice, uint256 _expires) public onlyOraclize {\r\n    proposals[_proposalId].buyPriceInWeis = _buyPrice;\r\n    proposals[_proposalId].buyOrderExpirationBlockNum = _expires;\r\n  }\r\n\r\n  function __setSellPriceAndExpirationBlock(uint256 _proposalId, uint256 _sellPrice, uint256 _expires) public onlyOraclize {\r\n    proposals[_proposalId].sellPriceInWeis = _sellPrice;\r\n    proposals[_proposalId].sellOrderExpirationBlockNum = _expires;\r\n  }\r\n\r\n  function() public payable {\r\n    if (msg.sender != etherDeltaAddr && msg.sender != oraclizeAddr) {\r\n      revert();\r\n    }\r\n  }\r\n}\r\n\r\n/**\r\n * Contract that handles all Oraclize related operations.\r\n */\r\ncontract OraclizeHandler is usingOraclize, Ownable {\r\n  using SafeMath for uint256;\r\n\r\n  enum CyclePhase { ChangeMaking, ProposalMaking, Waiting, Ended, Finalized }\r\n\r\n  //URL parts used for Oraclize queries.\r\n  string public priceCheckURL1;\r\n  string public priceCheckURL2;\r\n  string public currencySymbol;\r\n\r\n  //Addresses of other contracts.\r\n  address public controlTokenAddr;\r\n  address public etherDeltaAddr;\r\n\r\n  //mapping(queryHash => proposalId)\r\n  mapping(bytes32 => uint256) public proposalIdOfQuery;\r\n\r\n  //References to other contracts.\r\n  BetokenFund internal betokenFund;\r\n  ControlToken internal cToken;\r\n  EtherDelta internal etherDelta;\r\n\r\n  //Stores the token symbols of each proposal.\r\n  string[] public tokenSymbolOfProposal;\r\n\r\n  function OraclizeHandler(\r\n    address _controlTokenAddr,\r\n    address _etherDeltaAddr,\r\n    string _priceCheckURL1,\r\n    string _priceCheckURL2\r\n  )\r\n    public\r\n  {\r\n    controlTokenAddr = _controlTokenAddr;\r\n    etherDeltaAddr = _etherDeltaAddr;\r\n    cToken = ControlToken(_controlTokenAddr);\r\n    etherDelta = EtherDelta(_etherDeltaAddr);\r\n\r\n    priceCheckURL1 = _priceCheckURL1;\r\n    priceCheckURL2 = _priceCheckURL2;\r\n  }\r\n\r\n  function __changeEtherDeltaAddress(address _newAddr) public onlyOwner {\r\n    etherDeltaAddr = _newAddr;\r\n    etherDelta = EtherDelta(_newAddr);\r\n  }\r\n\r\n  function __pushTokenSymbolOfProposal(string _tokenSymbol) public onlyOwner {\r\n    tokenSymbolOfProposal.push(_tokenSymbol);\r\n  }\r\n\r\n  function __deleteTokenSymbolOfProposal() public onlyOwner {\r\n    delete tokenSymbolOfProposal;\r\n  }\r\n\r\n  function __returnAllFunds() public onlyOwner {\r\n    owner.transfer(this.balance);\r\n  }\r\n\r\n  function __oraclizeFee() public view returns(uint256) {\r\n    return oraclize_getPrice(\"URL\");\r\n  }\r\n\r\n  /**\r\n   * Oraclize functions\r\n   */\r\n\r\n  /**\r\n   * Queries the price of a proposal's token using Oraclize.\r\n   * @param _proposalId ID of the proposal\r\n   */\r\n  function __grabCurrentPriceFromOraclize(uint _proposalId) public payable onlyOwner {\r\n    require(oraclize_getPrice(\"URL\") <= this.balance);\r\n\r\n    betokenFund = BetokenFund(owner);\r\n\r\n    //Generate query\r\n    string storage tokenSymbol = tokenSymbolOfProposal[_proposalId];\r\n    string memory urlToQuery = strConcat(priceCheckURL1, tokenSymbol, priceCheckURL2);\r\n\r\n    //Call Oraclize to grab the most recent price information\r\n    proposalIdOfQuery[oraclize_query(\"URL\", urlToQuery)] = _proposalId;\r\n  }\r\n\r\n  /**\r\n   * Callback function for Oraclize queries.\r\n   * @param _myID query ID\r\n   * @param _result  result of query\r\n   */\r\n  function __callback(bytes32 _myID, string _result) public {\r\n    require(msg.sender == oraclize_cbAddress());\r\n    require(keccak256(_result) != keccak256(\"\"));\r\n\r\n    //Update BetokenFund contract in case owner has changed\r\n    betokenFund = BetokenFund(owner);\r\n\r\n    //Grab ETH price in Weis\r\n    uint256 priceInWeis = parseInt(_result, 18);\r\n\r\n    //Get proposal data\r\n    uint256 proposalId = proposalIdOfQuery[_myID];\r\n    var (tokenAddress, _, decimals,) = betokenFund.proposals(proposalId);\r\n\r\n    uint256 investAmount = betokenFund.totalFundsInWeis().mul(betokenFund.forStakedControlOfProposal(proposalId)).div(betokenFund.cycleTotalForStake());\r\n    uint256 expires = block.number.add(betokenFund.orderExpirationTimeInBlocks());\r\n\r\n    if (betokenFund.paused() || uint(betokenFund.cyclePhase()) == uint(CyclePhase.Ended)) {\r\n      //Make sell orders\r\n      betokenFund.__setSellPriceAndExpirationBlock(proposalId, priceInWeis, expires);\r\n      uint256 sellTokenAmount = etherDelta.tokens(tokenAddress, owner);\r\n      uint256 getWeiAmount = sellTokenAmount.mul(priceInWeis).div(10**decimals);\r\n      betokenFund.__makeOrder(address(0), getWeiAmount, tokenAddress, sellTokenAmount, expires, proposalId);\r\n    } else if (uint(betokenFund.cyclePhase()) == uint(CyclePhase.Waiting)) {\r\n      //Make buy orders\r\n      betokenFund.__setBuyPriceAndExpirationBlock(proposalId, priceInWeis, expires);\r\n      uint256 buyTokenAmount = investAmount.mul(10**decimals).div(priceInWeis);\r\n      betokenFund.__makeOrder(tokenAddress, buyTokenAmount, address(0), investAmount, expires, proposalId);\r\n    }\r\n\r\n    //Reset data\r\n    delete proposalIdOfQuery[_myID];\r\n  }\r\n\r\n  function() public payable {\r\n    if (msg.sender != owner) {\r\n      revert();\r\n    }\r\n  }\r\n}\r\n\r\n/**\r\n * ERC20 token contract for Kairo.\r\n */\r\ncontract ControlToken is MintableToken {\r\n  using SafeMath for uint256;\r\n\r\n  string public constant name = \"Kairo\";\r\n  string public constant symbol = \"KRO\";\r\n  uint8 public constant decimals = 18;\r\n\r\n  event OwnerCollectFrom(address _from, uint256 _value);\r\n  event OwnerBurn(address _from, uint256 _value);\r\n\r\n  /**\r\n   * Transfer token for a specified address\r\n   * @param _to The address to transfer to.\r\n   * @param _value The amount to be transferred.\r\n   */\r\n  function transfer(address _to, uint256 _value) public returns(bool) {\r\n    require(_to != address(0));\r\n    require(_value <= balances[msg.sender]);\r\n\r\n    //Add receipient as a participant if not already a participant\r\n    addParticipant(_to);\r\n\r\n    // SafeMath.sub will throw if there is not enough balance.\r\n    balances[msg.sender] = balances[msg.sender].sub(_value);\r\n    balances[_to] = balances[_to].add(_value);\r\n    Transfer(msg.sender, _to, _value);\r\n    return true;\r\n  }\r\n\r\n  /**\r\n   * Transfer tokens from one address to another\r\n   * @param _from The address which you want to send tokens from\r\n   * @param _to The address which you want to transfer to\r\n   * @param _value the amount of tokens to be transferred\r\n   */\r\n  function transferFrom(address _from, address _to, uint256 _value) public returns (bool) {\r\n    require(_to != address(0));\r\n    require(_value <= balances[_from]);\r\n    require(_value <= allowed[_from][msg.sender]);\r\n\r\n    //Add receipient as a participant if not already a participant\r\n    addParticipant(_to);\r\n\r\n    balances[_from] = balances[_from].sub(_value);\r\n    balances[_to] = balances[_to].add(_value);\r\n    allowed[_from][msg.sender] = allowed[_from][msg.sender].sub(_value);\r\n    Transfer(_from, _to, _value);\r\n    return true;\r\n  }\r\n\r\n  /**\r\n   * Collects tokens for the owner.\r\n   * @param _from The address which you want to send tokens from\r\n   * @param _value the amount of tokens to be transferred\r\n   * @return true if succeeded, false otherwise\r\n   */\r\n  function ownerCollectFrom(address _from, uint256 _value) public onlyOwner returns(bool) {\r\n    require(_from != address(0));\r\n    require(_value <= balances[_from]);\r\n\r\n    // SafeMath.sub will throw if there is not enough balance.\r\n    balances[_from] = balances[_from].sub(_value);\r\n    balances[msg.sender] = balances[msg.sender].add(_value);\r\n    OwnerCollectFrom(_from, _value);\r\n    return true;\r\n  }\r\n\r\n  /**\r\n   * Burns tokens.\r\n   * @param _from The address whose tokens you want to burn\r\n   * @param _value the amount of tokens to be burnt\r\n   * @return true if succeeded, false otherwise\r\n   */\r\n  function ownerBurn(address _from, uint256 _value) public onlyOwner returns(bool) {\r\n    require(_from != address(0));\r\n    require(_value <= balances[_from]);\r\n\r\n    // SafeMath.sub will throw if there is not enough balance.\r\n    balances[_from] = balances[_from].sub(_value);\r\n    totalSupply_ = totalSupply_.sub(_value);\r\n    OwnerBurn(_from, _value);\r\n    return true;\r\n  }\r\n\r\n  /**\r\n   * Adds an address as a BetokenFund participant.\r\n   * @param  _to the address to be added\r\n   */\r\n  function addParticipant(address _to) internal {\r\n    BetokenFund groupFund = BetokenFund(owner);\r\n    if (!groupFund.isParticipant(_to)) {\r\n      groupFund.__addControlTokenReceipientAsParticipant(_to);\r\n    }\r\n  }\r\n\r\n  /**\r\n   * Burns the owner's token balance.\r\n   */\r\n  function burnOwnerBalance() public onlyOwner {\r\n    totalSupply_ = totalSupply_.sub(balances[owner]);\r\n    balances[owner] = 0;\r\n  }\r\n\r\n  function() public {\r\n    revert();\r\n  }\r\n}\r\n",
  "sourcePath": "D:\\msi-cn\\Documents\\GitHub\\betoken\\eth\\contracts\\betoken.sol",
  "compiler": {
    "name": "solc",
    "version": "0.4.19+commit.c4cbbb05.Emscripten.clang"
  },
  "schemaVersion": "1.0.1",
  "updatedAt": "2018-02-13T19:42:38.676Z"
}