{
  "contractName": "ControlToken",
  "abi": [
    {
      "constant": true,
      "inputs": [],
      "name": "mintingFinished",
      "outputs": [
        {
          "name": "",
          "type": "bool"
        }
      ],
      "payable": false,
      "stateMutability": "view",
      "type": "function"
    },
    {
      "constant": true,
      "inputs": [],
      "name": "name",
      "outputs": [
        {
          "name": "",
          "type": "string"
        }
      ],
      "payable": false,
      "stateMutability": "view",
      "type": "function"
    },
    {
      "constant": false,
      "inputs": [
        {
          "name": "_spender",
          "type": "address"
        },
        {
          "name": "_value",
          "type": "uint256"
        }
      ],
      "name": "approve",
      "outputs": [
        {
          "name": "",
          "type": "bool"
        }
      ],
      "payable": false,
      "stateMutability": "nonpayable",
      "type": "function"
    },
    {
      "constant": true,
      "inputs": [],
      "name": "totalSupply",
      "outputs": [
        {
          "name": "",
          "type": "uint256"
        }
      ],
      "payable": false,
      "stateMutability": "view",
      "type": "function"
    },
    {
      "constant": false,
      "inputs": [
        {
          "name": "_from",
          "type": "address"
        },
        {
          "name": "_to",
          "type": "address"
        },
        {
          "name": "_value",
          "type": "uint256"
        }
      ],
      "name": "transferFrom",
      "outputs": [
        {
          "name": "",
          "type": "bool"
        }
      ],
      "payable": false,
      "stateMutability": "nonpayable",
      "type": "function"
    },
    {
      "constant": true,
      "inputs": [],
      "name": "decimals",
      "outputs": [
        {
          "name": "",
          "type": "uint8"
        }
      ],
      "payable": false,
      "stateMutability": "view",
      "type": "function"
    },
    {
      "constant": false,
      "inputs": [],
      "name": "unpause",
      "outputs": [],
      "payable": false,
      "stateMutability": "nonpayable",
      "type": "function"
    },
    {
      "constant": false,
      "inputs": [
        {
          "name": "_to",
          "type": "address"
        },
        {
          "name": "_amount",
          "type": "uint256"
        }
      ],
      "name": "mint",
      "outputs": [
        {
          "name": "",
          "type": "bool"
        }
      ],
      "payable": false,
      "stateMutability": "nonpayable",
      "type": "function"
    },
    {
      "constant": true,
      "inputs": [],
      "name": "paused",
      "outputs": [
        {
          "name": "",
          "type": "bool"
        }
      ],
      "payable": false,
      "stateMutability": "view",
      "type": "function"
    },
    {
      "constant": false,
      "inputs": [
        {
          "name": "_spender",
          "type": "address"
        },
        {
          "name": "_subtractedValue",
          "type": "uint256"
        }
      ],
      "name": "decreaseApproval",
      "outputs": [
        {
          "name": "success",
          "type": "bool"
        }
      ],
      "payable": false,
      "stateMutability": "nonpayable",
      "type": "function"
    },
    {
      "constant": true,
      "inputs": [
        {
          "name": "_owner",
          "type": "address"
        }
      ],
      "name": "balanceOf",
      "outputs": [
        {
          "name": "balance",
          "type": "uint256"
        }
      ],
      "payable": false,
      "stateMutability": "view",
      "type": "function"
    },
    {
      "constant": false,
      "inputs": [],
      "name": "finishMinting",
      "outputs": [
        {
          "name": "",
          "type": "bool"
        }
      ],
      "payable": false,
      "stateMutability": "nonpayable",
      "type": "function"
    },
    {
      "constant": false,
      "inputs": [],
      "name": "pause",
      "outputs": [],
      "payable": false,
      "stateMutability": "nonpayable",
      "type": "function"
    },
    {
      "constant": true,
      "inputs": [],
      "name": "owner",
      "outputs": [
        {
          "name": "",
          "type": "address"
        }
      ],
      "payable": false,
      "stateMutability": "view",
      "type": "function"
    },
    {
      "constant": true,
      "inputs": [],
      "name": "symbol",
      "outputs": [
        {
          "name": "",
          "type": "string"
        }
      ],
      "payable": false,
      "stateMutability": "view",
      "type": "function"
    },
    {
      "constant": false,
      "inputs": [
        {
          "name": "_to",
          "type": "address"
        },
        {
          "name": "_value",
          "type": "uint256"
        }
      ],
      "name": "transfer",
      "outputs": [
        {
          "name": "",
          "type": "bool"
        }
      ],
      "payable": false,
      "stateMutability": "nonpayable",
      "type": "function"
    },
    {
      "constant": false,
      "inputs": [
        {
          "name": "_spender",
          "type": "address"
        },
        {
          "name": "_addedValue",
          "type": "uint256"
        }
      ],
      "name": "increaseApproval",
      "outputs": [
        {
          "name": "success",
          "type": "bool"
        }
      ],
      "payable": false,
      "stateMutability": "nonpayable",
      "type": "function"
    },
    {
      "constant": true,
      "inputs": [
        {
          "name": "_owner",
          "type": "address"
        },
        {
          "name": "_spender",
          "type": "address"
        }
      ],
      "name": "allowance",
      "outputs": [
        {
          "name": "",
          "type": "uint256"
        }
      ],
      "payable": false,
      "stateMutability": "view",
      "type": "function"
    },
    {
      "constant": false,
      "inputs": [
        {
          "name": "newOwner",
          "type": "address"
        }
      ],
      "name": "transferOwnership",
      "outputs": [],
      "payable": false,
      "stateMutability": "nonpayable",
      "type": "function"
    },
    {
      "payable": false,
      "stateMutability": "nonpayable",
      "type": "fallback"
    },
    {
      "anonymous": false,
      "inputs": [
        {
          "indexed": false,
          "name": "_from",
          "type": "address"
        },
        {
          "indexed": false,
          "name": "_value",
          "type": "uint256"
        }
      ],
      "name": "OwnerCollectFrom",
      "type": "event"
    },
    {
      "anonymous": false,
      "inputs": [
        {
          "indexed": false,
          "name": "_from",
          "type": "address"
        },
        {
          "indexed": false,
          "name": "_value",
          "type": "uint256"
        }
      ],
      "name": "OwnerBurn",
      "type": "event"
    },
    {
      "anonymous": false,
      "inputs": [],
      "name": "Pause",
      "type": "event"
    },
    {
      "anonymous": false,
      "inputs": [],
      "name": "Unpause",
      "type": "event"
    },
    {
      "anonymous": false,
      "inputs": [
        {
          "indexed": true,
          "name": "to",
          "type": "address"
        },
        {
          "indexed": false,
          "name": "amount",
          "type": "uint256"
        }
      ],
      "name": "Mint",
      "type": "event"
    },
    {
      "anonymous": false,
      "inputs": [],
      "name": "MintFinished",
      "type": "event"
    },
    {
      "anonymous": false,
      "inputs": [
        {
          "indexed": true,
          "name": "previousOwner",
          "type": "address"
        },
        {
          "indexed": true,
          "name": "newOwner",
          "type": "address"
        }
      ],
      "name": "OwnershipTransferred",
      "type": "event"
    },
    {
      "anonymous": false,
      "inputs": [
        {
          "indexed": true,
          "name": "owner",
          "type": "address"
        },
        {
          "indexed": true,
          "name": "spender",
          "type": "address"
        },
        {
          "indexed": false,
          "name": "value",
          "type": "uint256"
        }
      ],
      "name": "Approval",
      "type": "event"
    },
    {
      "anonymous": false,
      "inputs": [
        {
          "indexed": true,
          "name": "from",
          "type": "address"
        },
        {
          "indexed": true,
          "name": "to",
          "type": "address"
        },
        {
          "indexed": false,
          "name": "value",
          "type": "uint256"
        }
      ],
      "name": "Transfer",
      "type": "event"
    },
    {
      "constant": false,
      "inputs": [
        {
          "name": "_from",
          "type": "address"
        },
        {
          "name": "_value",
          "type": "uint256"
        }
      ],
      "name": "ownerCollectFrom",
      "outputs": [
        {
          "name": "",
          "type": "bool"
        }
      ],
      "payable": false,
      "stateMutability": "nonpayable",
      "type": "function"
    },
    {
      "constant": false,
      "inputs": [
        {
          "name": "_from",
          "type": "address"
        },
        {
          "name": "_value",
          "type": "uint256"
        }
      ],
      "name": "ownerBurn",
      "outputs": [
        {
          "name": "",
          "type": "bool"
        }
      ],
      "payable": false,
      "stateMutability": "nonpayable",
      "type": "function"
    },
    {
      "constant": false,
      "inputs": [],
      "name": "burnOwnerBalance",
      "outputs": [],
      "payable": false,
      "stateMutability": "nonpayable",
      "type": "function"
    }
  ],
  "bytecode": "0x606060405260038054600160b060020a03191633600160a060020a03161790556110b78061002e6000396000f3006060604052600436106101275763ffffffff7c010000000000000000000000000000000000000000000000000000000060003504166305d2035b811461013757806306fdde031461015e578063095ea7b3146101e857806318160ddd1461020a57806323b872dd1461022f5780632bee7bde14610257578063313ce567146102795780633f4ba83a146102a257806340c10f19146102b75780635c975abb146102d957806366188463146102ec57806370a082311461030e5780637d64bcb41461032d5780638456cb59146103405780638da5cb5b1461035357806395d89b4114610382578063a9059cbb14610395578063c0001786146103b7578063d73dd623146103d9578063dd62ed3e146103fb578063f2fde38b14610420578063f3123a3a1461043f575b341561013257600080fd5b600080fd5b341561014257600080fd5b61014a610452565b604051901515815260200160405180910390f35b341561016957600080fd5b610171610462565b60405160208082528190810183818151815260200191508051906020019080838360005b838110156101ad578082015183820152602001610195565b50505050905090810190601f1680156101da5780820380516001836020036101000a031916815260200191505b509250505060405180910390f35b34156101f357600080fd5b61014a600160a060020a0360043516602435610499565b341561021557600080fd5b61021d6104c4565b60405190815260200160405180910390f35b341561023a57600080fd5b61014a600160a060020a03600435811690602435166044356104ca565b341561026257600080fd5b61014a600160a060020a03600435166024356104f7565b341561028457600080fd5b61028c610623565b60405160ff909116815260200160405180910390f35b34156102ad57600080fd5b6102b5610628565b005b34156102c257600080fd5b61014a600160a060020a03600435166024356106a8565b34156102e457600080fd5b61014a6107b6565b34156102f757600080fd5b61014a600160a060020a03600435166024356107c6565b341561031957600080fd5b61021d600160a060020a03600435166107ea565b341561033857600080fd5b61014a610805565b341561034b57600080fd5b6102b5610890565b341561035e57600080fd5b610366610915565b604051600160a060020a03909116815260200160405180910390f35b341561038d57600080fd5b610171610924565b34156103a057600080fd5b61014a600160a060020a036004351660243561095b565b34156103c257600080fd5b61014a600160a060020a036004351660243561097f565b34156103e457600080fd5b61014a600160a060020a0360043516602435610a7c565b341561040657600080fd5b61021d600160a060020a0360043581169060243516610aa0565b341561042b57600080fd5b6102b5600160a060020a0360043516610acb565b341561044a57600080fd5b6102b5610b66565b60035460a060020a900460ff1681565b60408051908101604052600581527f4b6169726f000000000000000000000000000000000000000000000000000000602082015281565b60035460009060a860020a900460ff16156104b357600080fd5b6104bd8383610bce565b9392505050565b60015490565b60035460009060a860020a900460ff16156104e457600080fd5b6104ef848484610c3a565b949350505050565b60035460009033600160a060020a0390811691161461051557600080fd5b600160a060020a038316151561052a57600080fd5b600160a060020a03831660009081526020819052604090205482111561054f57600080fd5b600160a060020a038316600090815260208190526040902054610578908363ffffffff610dba16565b600160a060020a038085166000908152602081905260408082209390935533909116815220546105ae908363ffffffff610dcc16565b60008033600160a060020a0316600160a060020a03168152602001908152602001600020819055507f285da9122e12f24158745e2179a8da30488f6fa4a6292da22f90b18d9b59201e8383604051600160a060020a03909216825260208201526040908101905180910390a150600192915050565b601281565b60035433600160a060020a0390811691161461064357600080fd5b60035460a860020a900460ff16151561065b57600080fd5b6003805475ff000000000000000000000000000000000000000000191690557f7805862f689e2f13df9f062ff482ad3ad112aca9e0847911ed832e158c525b3360405160405180910390a1565b60035460009033600160a060020a039081169116146106c657600080fd5b60035460a060020a900460ff16156106dd57600080fd5b6001546106f0908363ffffffff610dcc16565b600155600160a060020a03831660009081526020819052604090205461071c908363ffffffff610dcc16565b600160a060020a0384166000818152602081905260409081902092909255907f0f6798a560793a54c3bcfe86a93cde1e73087d944c0ea20544137d41213968859084905190815260200160405180910390a2600160a060020a03831660007fddf252ad1be2c89b69c2b068fc378daa952ba7f163c4a11628f55a4df523b3ef8460405190815260200160405180910390a350600192915050565b60035460a860020a900460ff1681565b60035460009060a860020a900460ff16156107e057600080fd5b6104bd8383610ddb565b600160a060020a031660009081526020819052604090205490565b60035460009033600160a060020a0390811691161461082357600080fd5b60035460a060020a900460ff161561083a57600080fd5b6003805474ff0000000000000000000000000000000000000000191660a060020a1790557fae5184fba832cb2b1f702aca6117b8d265eaf03ad33eb133f19dde0f5920fa0860405160405180910390a150600190565b60035433600160a060020a039081169116146108ab57600080fd5b60035460a860020a900460ff16156108c257600080fd5b6003805475ff000000000000000000000000000000000000000000191660a860020a1790557f6985a02210a168e66602d3235cb6db0e70f92b3ba4d376a33c0f3d9434bff62560405160405180910390a1565b600354600160a060020a031681565b60408051908101604052600381527f4b524f0000000000000000000000000000000000000000000000000000000000602082015281565b60035460009060a860020a900460ff161561097557600080fd5b6104bd8383610ed5565b60035460009033600160a060020a0390811691161461099d57600080fd5b600160a060020a03831615156109b257600080fd5b600160a060020a0383166000908152602081905260409020548211156109d757600080fd5b600160a060020a038316600090815260208190526040902054610a00908363ffffffff610dba16565b600160a060020a038416600090815260208190526040902055600154610a2c908363ffffffff610dba16565b6001557f0ab39d9ba7919873feca55bf060424fe84ce224de99a09c4a7e4ca1c2ac673c98383604051600160a060020a03909216825260208201526040908101905180910390a150600192915050565b60035460009060a860020a900460ff1615610a9657600080fd5b6104bd8383610fe7565b600160a060020a03918216600090815260026020908152604080832093909416825291909152205490565b60035433600160a060020a03908116911614610ae657600080fd5b600160a060020a0381161515610afb57600080fd5b600354600160a060020a0380831691167f8be0079c531659141344cd1fd0a4f28419497f9722a3daafe3b4186f6b6457e060405160405180910390a36003805473ffffffffffffffffffffffffffffffffffffffff1916600160a060020a0392909216919091179055565b60035433600160a060020a03908116911614610b8157600080fd5b600354600160a060020a0316600090815260208190526040902054600154610bae9163ffffffff610dba16565b600155600354600160a060020a0316600090815260208190526040812055565b600160a060020a03338116600081815260026020908152604080832094871680845294909152808220859055909291907f8c5be1e5ebec7d5bd14f71427d1e84f3dd0314c0f7b2291e5b200ac8c7c3b9259085905190815260200160405180910390a350600192915050565b6000600160a060020a0383161515610c5157600080fd5b600160a060020a038416600090815260208190526040902054821115610c7657600080fd5b600160a060020a0380851660009081526002602090815260408083203390941683529290522054821115610ca957600080fd5b600160a060020a038416600090815260208190526040902054610cd2908363ffffffff610dba16565b600160a060020a038086166000908152602081905260408082209390935590851681522054610d07908363ffffffff610dcc16565b600160a060020a0380851660009081526020818152604080832094909455878316825260028152838220339093168252919091522054610d4d908363ffffffff610dba16565b600160a060020a03808616600081815260026020908152604080832033861684529091529081902093909355908516917fddf252ad1be2c89b69c2b068fc378daa952ba7f163c4a11628f55a4df523b3ef9085905190815260200160405180910390a35060019392505050565b600082821115610dc657fe5b50900390565b6000828201838110156104bd57fe5b600160a060020a03338116600090815260026020908152604080832093861683529290529081205480831115610e3857600160a060020a033381166000908152600260209081526040808320938816835292905290812055610e6f565b610e48818463ffffffff610dba16565b600160a060020a033381166000908152600260209081526040808320938916835292905220555b600160a060020a0333811660008181526002602090815260408083209489168084529490915290819020547f8c5be1e5ebec7d5bd14f71427d1e84f3dd0314c0f7b2291e5b200ac8c7c3b925915190815260200160405180910390a35060019392505050565b6000600160a060020a0383161515610eec57600080fd5b600160a060020a033316600090815260208190526040902054821115610f1157600080fd5b600160a060020a033316600090815260208190526040902054610f3a908363ffffffff610dba16565b600160a060020a033381166000908152602081905260408082209390935590851681522054610f6f908363ffffffff610dcc16565b60008085600160a060020a0316600160a060020a031681526020019081526020016000208190555082600160a060020a031633600160a060020a03167fddf252ad1be2c89b69c2b068fc378daa952ba7f163c4a11628f55a4df523b3ef8460405190815260200160405180910390a350600192915050565b600160a060020a03338116600090815260026020908152604080832093861683529290529081205461101f908363ffffffff610dcc16565b600160a060020a0333811660008181526002602090815260408083209489168084529490915290819020849055919290917f8c5be1e5ebec7d5bd14f71427d1e84f3dd0314c0f7b2291e5b200ac8c7c3b92591905190815260200160405180910390a3506001929150505600a165627a7a723058206279ca19d0e4ee50532b6dbb45e5301c94e29473528dd7d2a734e1519737b4c40029",
  "source": "pragma solidity ^0.4.18;\r\n\r\nimport 'zeppelin-solidity/contracts/token/ERC20/MintableToken.sol';\r\nimport 'zeppelin-solidity/contracts/token/ERC20/PausableToken.sol';\r\nimport './BetokenFund.sol';\r\n\r\n/**\r\n * ERC20 token contract for Kairo.\r\n */\r\ncontract ControlToken is MintableToken, PausableToken {\r\n  using SafeMath for uint256;\r\n\r\n  string public constant name = \"Kairo\";\r\n  string public constant symbol = \"KRO\";\r\n  uint8 public constant decimals = 18;\r\n\r\n  event OwnerCollectFrom(address _from, uint256 _value);\r\n  event OwnerBurn(address _from, uint256 _value);\r\n\r\n  /**\r\n   * @dev Collects tokens for the owner.\r\n   * @param _from The address which you want to send tokens from\r\n   * @param _value the amount of tokens to be transferred\r\n   * @return true if succeeded, false otherwise\r\n   */\r\n  function ownerCollectFrom(address _from, uint256 _value) public onlyOwner returns(bool) {\r\n    require(_from != address(0));\r\n    require(_value <= balances[_from]);\r\n\r\n    // SafeMath.sub will throw if there is not enough balance.\r\n    balances[_from] = balances[_from].sub(_value);\r\n    balances[msg.sender] = balances[msg.sender].add(_value);\r\n    OwnerCollectFrom(_from, _value);\r\n    return true;\r\n  }\r\n\r\n  /**\r\n   * @dev Burns tokens.\r\n   * @param _from The address whose tokens you want to burn\r\n   * @param _value the amount of tokens to be burnt\r\n   * @return true if succeeded, false otherwise\r\n   */\r\n  function ownerBurn(address _from, uint256 _value) public onlyOwner returns(bool) {\r\n    require(_from != address(0));\r\n    require(_value <= balances[_from]);\r\n\r\n    // SafeMath.sub will throw if there is not enough balance.\r\n    balances[_from] = balances[_from].sub(_value);\r\n    totalSupply_ = totalSupply_.sub(_value);\r\n    OwnerBurn(_from, _value);\r\n    return true;\r\n  }\r\n\r\n  /**\r\n   * @dev Burns the owner's token balance.\r\n   */\r\n  function burnOwnerBalance() public onlyOwner {\r\n    totalSupply_ = totalSupply_.sub(balances[owner]);\r\n    delete balances[owner];\r\n  }\r\n\r\n  function() public {\r\n    revert();\r\n  }\r\n}\r\n",
  "sourcePath": "D:\\msi-cn\\Documents\\GitHub\\betoken\\eth\\contracts\\ControlToken.sol",
  "compiler": {
    "name": "solc",
    "version": "0.4.19+commit.c4cbbb05.Emscripten.clang"
  },
  "schemaVersion": "2.0.0",
  "updatedAt": "2018-03-11T21:25:21.227Z"
}