{
  "contractName": "ControlToken",
  "abi": [
    {
      "constant": true,
      "inputs": [],
      "name": "mintingFinished",
      "outputs": [
        {
          "name": "",
          "type": "bool"
        }
      ],
      "payable": false,
      "stateMutability": "view",
      "type": "function"
    },
    {
      "constant": true,
      "inputs": [],
      "name": "name",
      "outputs": [
        {
          "name": "",
          "type": "string"
        }
      ],
      "payable": false,
      "stateMutability": "view",
      "type": "function"
    },
    {
      "constant": false,
      "inputs": [
        {
          "name": "_spender",
          "type": "address"
        },
        {
          "name": "_value",
          "type": "uint256"
        }
      ],
      "name": "approve",
      "outputs": [
        {
          "name": "",
          "type": "bool"
        }
      ],
      "payable": false,
      "stateMutability": "nonpayable",
      "type": "function"
    },
    {
      "constant": true,
      "inputs": [],
      "name": "totalSupply",
      "outputs": [
        {
          "name": "",
          "type": "uint256"
        }
      ],
      "payable": false,
      "stateMutability": "view",
      "type": "function"
    },
    {
      "constant": false,
      "inputs": [
        {
          "name": "_from",
          "type": "address"
        },
        {
          "name": "_to",
          "type": "address"
        },
        {
          "name": "_value",
          "type": "uint256"
        }
      ],
      "name": "transferFrom",
      "outputs": [
        {
          "name": "",
          "type": "bool"
        }
      ],
      "payable": false,
      "stateMutability": "nonpayable",
      "type": "function"
    },
    {
      "constant": true,
      "inputs": [],
      "name": "decimals",
      "outputs": [
        {
          "name": "",
          "type": "uint8"
        }
      ],
      "payable": false,
      "stateMutability": "view",
      "type": "function"
    },
    {
      "constant": false,
      "inputs": [],
      "name": "unpause",
      "outputs": [],
      "payable": false,
      "stateMutability": "nonpayable",
      "type": "function"
    },
    {
      "constant": false,
      "inputs": [
        {
          "name": "_to",
          "type": "address"
        },
        {
          "name": "_amount",
          "type": "uint256"
        }
      ],
      "name": "mint",
      "outputs": [
        {
          "name": "",
          "type": "bool"
        }
      ],
      "payable": false,
      "stateMutability": "nonpayable",
      "type": "function"
    },
    {
      "constant": true,
      "inputs": [],
      "name": "paused",
      "outputs": [
        {
          "name": "",
          "type": "bool"
        }
      ],
      "payable": false,
      "stateMutability": "view",
      "type": "function"
    },
    {
      "constant": false,
      "inputs": [
        {
          "name": "_spender",
          "type": "address"
        },
        {
          "name": "_subtractedValue",
          "type": "uint256"
        }
      ],
      "name": "decreaseApproval",
      "outputs": [
        {
          "name": "success",
          "type": "bool"
        }
      ],
      "payable": false,
      "stateMutability": "nonpayable",
      "type": "function"
    },
    {
      "constant": true,
      "inputs": [
        {
          "name": "_owner",
          "type": "address"
        }
      ],
      "name": "balanceOf",
      "outputs": [
        {
          "name": "balance",
          "type": "uint256"
        }
      ],
      "payable": false,
      "stateMutability": "view",
      "type": "function"
    },
    {
      "constant": false,
      "inputs": [],
      "name": "finishMinting",
      "outputs": [
        {
          "name": "",
          "type": "bool"
        }
      ],
      "payable": false,
      "stateMutability": "nonpayable",
      "type": "function"
    },
    {
      "constant": false,
      "inputs": [],
      "name": "pause",
      "outputs": [],
      "payable": false,
      "stateMutability": "nonpayable",
      "type": "function"
    },
    {
      "constant": true,
      "inputs": [],
      "name": "owner",
      "outputs": [
        {
          "name": "",
          "type": "address"
        }
      ],
      "payable": false,
      "stateMutability": "view",
      "type": "function"
    },
    {
      "constant": true,
      "inputs": [],
      "name": "symbol",
      "outputs": [
        {
          "name": "",
          "type": "string"
        }
      ],
      "payable": false,
      "stateMutability": "view",
      "type": "function"
    },
    {
      "constant": false,
      "inputs": [
        {
          "name": "_to",
          "type": "address"
        },
        {
          "name": "_value",
          "type": "uint256"
        }
      ],
      "name": "transfer",
      "outputs": [
        {
          "name": "",
          "type": "bool"
        }
      ],
      "payable": false,
      "stateMutability": "nonpayable",
      "type": "function"
    },
    {
      "constant": false,
      "inputs": [
        {
          "name": "_spender",
          "type": "address"
        },
        {
          "name": "_addedValue",
          "type": "uint256"
        }
      ],
      "name": "increaseApproval",
      "outputs": [
        {
          "name": "success",
          "type": "bool"
        }
      ],
      "payable": false,
      "stateMutability": "nonpayable",
      "type": "function"
    },
    {
      "constant": true,
      "inputs": [
        {
          "name": "_owner",
          "type": "address"
        },
        {
          "name": "_spender",
          "type": "address"
        }
      ],
      "name": "allowance",
      "outputs": [
        {
          "name": "",
          "type": "uint256"
        }
      ],
      "payable": false,
      "stateMutability": "view",
      "type": "function"
    },
    {
      "constant": false,
      "inputs": [
        {
          "name": "newOwner",
          "type": "address"
        }
      ],
      "name": "transferOwnership",
      "outputs": [],
      "payable": false,
      "stateMutability": "nonpayable",
      "type": "function"
    },
    {
      "payable": false,
      "stateMutability": "nonpayable",
      "type": "fallback"
    },
    {
      "anonymous": false,
      "inputs": [
        {
          "indexed": true,
          "name": "_from",
          "type": "address"
        },
        {
          "indexed": false,
          "name": "_value",
          "type": "uint256"
        }
      ],
      "name": "OwnerCollectFrom",
      "type": "event"
    },
    {
      "anonymous": false,
      "inputs": [],
      "name": "Pause",
      "type": "event"
    },
    {
      "anonymous": false,
      "inputs": [],
      "name": "Unpause",
      "type": "event"
    },
    {
      "anonymous": false,
      "inputs": [
        {
          "indexed": true,
          "name": "to",
          "type": "address"
        },
        {
          "indexed": false,
          "name": "amount",
          "type": "uint256"
        }
      ],
      "name": "Mint",
      "type": "event"
    },
    {
      "anonymous": false,
      "inputs": [],
      "name": "MintFinished",
      "type": "event"
    },
    {
      "anonymous": false,
      "inputs": [
        {
          "indexed": true,
          "name": "previousOwner",
          "type": "address"
        },
        {
          "indexed": true,
          "name": "newOwner",
          "type": "address"
        }
      ],
      "name": "OwnershipTransferred",
      "type": "event"
    },
    {
      "anonymous": false,
      "inputs": [
        {
          "indexed": true,
          "name": "owner",
          "type": "address"
        },
        {
          "indexed": true,
          "name": "spender",
          "type": "address"
        },
        {
          "indexed": false,
          "name": "value",
          "type": "uint256"
        }
      ],
      "name": "Approval",
      "type": "event"
    },
    {
      "anonymous": false,
      "inputs": [
        {
          "indexed": true,
          "name": "from",
          "type": "address"
        },
        {
          "indexed": true,
          "name": "to",
          "type": "address"
        },
        {
          "indexed": false,
          "name": "value",
          "type": "uint256"
        }
      ],
      "name": "Transfer",
      "type": "event"
    },
    {
      "constant": false,
      "inputs": [
        {
          "name": "_from",
          "type": "address"
        },
        {
          "name": "_value",
          "type": "uint256"
        }
      ],
      "name": "ownerCollectFrom",
      "outputs": [
        {
          "name": "",
          "type": "bool"
        }
      ],
      "payable": false,
      "stateMutability": "nonpayable",
      "type": "function"
    },
    {
      "constant": false,
      "inputs": [],
      "name": "burnOwnerBalance",
      "outputs": [
        {
          "name": "",
          "type": "bool"
        }
      ],
      "payable": false,
      "stateMutability": "nonpayable",
      "type": "function"
    },
    {
      "constant": false,
      "inputs": [
        {
          "name": "_value",
          "type": "uint256"
        }
      ],
      "name": "burnOwnerTokens",
      "outputs": [
        {
          "name": "",
          "type": "bool"
        }
      ],
      "payable": false,
      "stateMutability": "nonpayable",
      "type": "function"
    }
  ],
  "bytecode": "0x606060405260038054600160b060020a03191633600160a060020a03161790556110098061002e6000396000f3006060604052600436106101275763ffffffff7c010000000000000000000000000000000000000000000000000000000060003504166305d2035b811461013757806306fdde031461015e578063095ea7b3146101e857806318160ddd1461020a57806323b872dd1461022f5780632bee7bde14610257578063313ce567146102795780633f4ba83a146102a257806340c10f19146102b757806349f9f4d0146102d95780635c975abb146102ef578063661884631461030257806370a08231146103245780637d64bcb4146103435780638456cb59146103565780638da5cb5b1461036957806395d89b4114610398578063a9059cbb146103ab578063d73dd623146103cd578063dd62ed3e146103ef578063f2fde38b14610414578063f3123a3a14610433575b341561013257600080fd5b600080fd5b341561014257600080fd5b61014a610446565b604051901515815260200160405180910390f35b341561016957600080fd5b610171610456565b60405160208082528190810183818151815260200191508051906020019080838360005b838110156101ad578082015183820152602001610195565b50505050905090810190601f1680156101da5780820380516001836020036101000a031916815260200191505b509250505060405180910390f35b34156101f357600080fd5b61014a600160a060020a036004351660243561048d565b341561021557600080fd5b61021d6104b8565b60405190815260200160405180910390f35b341561023a57600080fd5b61014a600160a060020a03600435811690602435166044356104be565b341561026257600080fd5b61014a600160a060020a03600435166024356104eb565b341561028457600080fd5b61028c6105eb565b60405160ff909116815260200160405180910390f35b34156102ad57600080fd5b6102b56105f0565b005b34156102c257600080fd5b61014a600160a060020a0360043516602435610670565b34156102e457600080fd5b61014a60043561077e565b34156102fa57600080fd5b61014a6107fd565b341561030d57600080fd5b61014a600160a060020a036004351660243561080d565b341561032f57600080fd5b61021d600160a060020a0360043516610831565b341561034e57600080fd5b61014a61084c565b341561036157600080fd5b6102b56108d7565b341561037457600080fd5b61037c61095c565b604051600160a060020a03909116815260200160405180910390f35b34156103a357600080fd5b61017161096b565b34156103b657600080fd5b61014a600160a060020a03600435166024356109a2565b34156103d857600080fd5b61014a600160a060020a03600435166024356109c6565b34156103fa57600080fd5b61021d600160a060020a03600435811690602435166109ea565b341561041f57600080fd5b6102b5600160a060020a0360043516610a15565b341561043e57600080fd5b61014a610ab0565b60035460a060020a900460ff1681565b60408051908101604052600581527f4b6169726f000000000000000000000000000000000000000000000000000000602082015281565b60035460009060a860020a900460ff16156104a757600080fd5b6104b18383610b20565b9392505050565b60015490565b60035460009060a860020a900460ff16156104d857600080fd5b6104e3848484610b8c565b949350505050565b60035460009033600160a060020a0390811691161461050957600080fd5b600160a060020a038316151561051e57600080fd5b600160a060020a038316600090815260208190526040902054610547908363ffffffff610d0c16565b600160a060020a0380851660009081526020819052604080822093909355339091168152205461057d908363ffffffff610d1e16565b60008033600160a060020a0316600160a060020a031681526020019081526020016000208190555082600160a060020a03167f285da9122e12f24158745e2179a8da30488f6fa4a6292da22f90b18d9b59201e8360405190815260200160405180910390a250600192915050565b601281565b60035433600160a060020a0390811691161461060b57600080fd5b60035460a860020a900460ff16151561062357600080fd5b6003805475ff000000000000000000000000000000000000000000191690557f7805862f689e2f13df9f062ff482ad3ad112aca9e0847911ed832e158c525b3360405160405180910390a1565b60035460009033600160a060020a0390811691161461068e57600080fd5b60035460a060020a900460ff16156106a557600080fd5b6001546106b8908363ffffffff610d1e16565b600155600160a060020a0383166000908152602081905260409020546106e4908363ffffffff610d1e16565b600160a060020a0384166000818152602081905260409081902092909255907f0f6798a560793a54c3bcfe86a93cde1e73087d944c0ea20544137d41213968859084905190815260200160405180910390a2600160a060020a03831660007fddf252ad1be2c89b69c2b068fc378daa952ba7f163c4a11628f55a4df523b3ef8460405190815260200160405180910390a350600192915050565b60035460009033600160a060020a0390811691161461079c57600080fd5b600354600160a060020a03166000908152602081905260409020546107c7908363ffffffff610d0c16565b600354600160a060020a03166000908152602081905260409020556001546107f5908363ffffffff610d0c16565b600155919050565b60035460a860020a900460ff1681565b60035460009060a860020a900460ff161561082757600080fd5b6104b18383610d2d565b600160a060020a031660009081526020819052604090205490565b60035460009033600160a060020a0390811691161461086a57600080fd5b60035460a060020a900460ff161561088157600080fd5b6003805474ff0000000000000000000000000000000000000000191660a060020a1790557fae5184fba832cb2b1f702aca6117b8d265eaf03ad33eb133f19dde0f5920fa0860405160405180910390a150600190565b60035433600160a060020a039081169116146108f257600080fd5b60035460a860020a900460ff161561090957600080fd5b6003805475ff000000000000000000000000000000000000000000191660a860020a1790557f6985a02210a168e66602d3235cb6db0e70f92b3ba4d376a33c0f3d9434bff62560405160405180910390a1565b600354600160a060020a031681565b60408051908101604052600381527f4b524f0000000000000000000000000000000000000000000000000000000000602082015281565b60035460009060a860020a900460ff16156109bc57600080fd5b6104b18383610e27565b60035460009060a860020a900460ff16156109e057600080fd5b6104b18383610f39565b600160a060020a03918216600090815260026020908152604080832093909416825291909152205490565b60035433600160a060020a03908116911614610a3057600080fd5b600160a060020a0381161515610a4557600080fd5b600354600160a060020a0380831691167f8be0079c531659141344cd1fd0a4f28419497f9722a3daafe3b4186f6b6457e060405160405180910390a36003805473ffffffffffffffffffffffffffffffffffffffff1916600160a060020a0392909216919091179055565b60035460009033600160a060020a03908116911614610ace57600080fd5b600354600160a060020a0316600090815260208190526040902054600154610afb9163ffffffff610d0c16565b6001908155600354600160a060020a0316600090815260208190526040812055905090565b600160a060020a03338116600081815260026020908152604080832094871680845294909152808220859055909291907f8c5be1e5ebec7d5bd14f71427d1e84f3dd0314c0f7b2291e5b200ac8c7c3b9259085905190815260200160405180910390a350600192915050565b6000600160a060020a0383161515610ba357600080fd5b600160a060020a038416600090815260208190526040902054821115610bc857600080fd5b600160a060020a0380851660009081526002602090815260408083203390941683529290522054821115610bfb57600080fd5b600160a060020a038416600090815260208190526040902054610c24908363ffffffff610d0c16565b600160a060020a038086166000908152602081905260408082209390935590851681522054610c59908363ffffffff610d1e16565b600160a060020a0380851660009081526020818152604080832094909455878316825260028152838220339093168252919091522054610c9f908363ffffffff610d0c16565b600160a060020a03808616600081815260026020908152604080832033861684529091529081902093909355908516917fddf252ad1be2c89b69c2b068fc378daa952ba7f163c4a11628f55a4df523b3ef9085905190815260200160405180910390a35060019392505050565b600082821115610d1857fe5b50900390565b6000828201838110156104b157fe5b600160a060020a03338116600090815260026020908152604080832093861683529290529081205480831115610d8a57600160a060020a033381166000908152600260209081526040808320938816835292905290812055610dc1565b610d9a818463ffffffff610d0c16565b600160a060020a033381166000908152600260209081526040808320938916835292905220555b600160a060020a0333811660008181526002602090815260408083209489168084529490915290819020547f8c5be1e5ebec7d5bd14f71427d1e84f3dd0314c0f7b2291e5b200ac8c7c3b925915190815260200160405180910390a35060019392505050565b6000600160a060020a0383161515610e3e57600080fd5b600160a060020a033316600090815260208190526040902054821115610e6357600080fd5b600160a060020a033316600090815260208190526040902054610e8c908363ffffffff610d0c16565b600160a060020a033381166000908152602081905260408082209390935590851681522054610ec1908363ffffffff610d1e16565b60008085600160a060020a0316600160a060020a031681526020019081526020016000208190555082600160a060020a031633600160a060020a03167fddf252ad1be2c89b69c2b068fc378daa952ba7f163c4a11628f55a4df523b3ef8460405190815260200160405180910390a350600192915050565b600160a060020a033381166000908152600260209081526040808320938616835292905290812054610f71908363ffffffff610d1e16565b600160a060020a0333811660008181526002602090815260408083209489168084529490915290819020849055919290917f8c5be1e5ebec7d5bd14f71427d1e84f3dd0314c0f7b2291e5b200ac8c7c3b92591905190815260200160405180910390a3506001929150505600a165627a7a723058200e301277bc4ebd885b1a8ea051be710fa40abb9bf4de4d4d446a8cda0d123cc10029",
  "source": "pragma solidity ^0.4.18;\r\n\r\nimport 'zeppelin-solidity/contracts/token/ERC20/MintableToken.sol';\r\nimport 'zeppelin-solidity/contracts/token/ERC20/PausableToken.sol';\r\nimport './BetokenFund.sol';\r\n\r\n/**\r\n * ERC20 token contract for Kairo.\r\n */\r\ncontract ControlToken is MintableToken, PausableToken {\r\n  using SafeMath for uint256;\r\n\r\n  string public constant name = \"Kairo\";\r\n  string public constant symbol = \"KRO\";\r\n  uint8 public constant decimals = 18;\r\n\r\n  event OwnerCollectFrom(address indexed _from, uint256 _value);\r\n\r\n  /**\r\n   * @dev Collects tokens for the owner.\r\n   * @param _from The address which you want to send tokens from\r\n   * @param _value the amount of tokens to be transferred\r\n   * @return true if succeeded, false otherwise\r\n   */\r\n  function ownerCollectFrom(address _from, uint256 _value) public onlyOwner returns(bool) {\r\n    require(_from != address(0));\r\n\r\n    // SafeMath.sub will throw if there is not enough balance.\r\n    balances[_from] = balances[_from].sub(_value);\r\n    balances[msg.sender] = balances[msg.sender].add(_value);\r\n    OwnerCollectFrom(_from, _value);\r\n    return true;\r\n  }\r\n\r\n  /**\r\n   * @dev Burns the owner's token balance.\r\n   */\r\n  function burnOwnerBalance() public onlyOwner returns(bool) {\r\n    totalSupply_ = totalSupply_.sub(balances[owner]);\r\n    delete balances[owner];\r\n    return true;\r\n  }\r\n\r\n  function burnOwnerTokens(uint256 _value) public onlyOwner returns(bool) {\r\n    // SafeMath.sub will throw if there is not enough balance.\r\n    balances[owner] = balances[owner].sub(_value);\r\n    totalSupply_ = totalSupply_.sub(_value);\r\n  }\r\n\r\n  function() public {\r\n    revert();\r\n  }\r\n}\r\n",
  "sourcePath": "D:\\msi-cn\\Documents\\GitHub\\betoken\\eth\\contracts\\ControlToken.sol",
  "compiler": {
    "name": "solc",
    "version": "0.4.19+commit.c4cbbb05.Emscripten.clang"
  },
  "schemaVersion": "2.0.0",
  "updatedAt": "2018-04-06T21:44:21.472Z"
}