{
  "contractName": "GroupFund",
  "abi": [
    {
      "constant": true,
      "inputs": [
        {
          "name": "",
          "type": "uint256"
        }
      ],
      "name": "proposals",
      "outputs": [
        {
          "name": "tokenAddress",
          "type": "address"
        },
        {
          "name": "tokenSymbol",
          "type": "string"
        },
        {
          "name": "buyPriceInWeis",
          "type": "uint256"
        },
        {
          "name": "sellPriceInWeis",
          "type": "uint256"
        },
        {
          "name": "buyOrderExpirationBlockNum",
          "type": "uint256"
        },
        {
          "name": "sellOrderExpirationBlockNum",
          "type": "uint256"
        },
        {
          "name": "numFor",
          "type": "uint256"
        },
        {
          "name": "numAgainst",
          "type": "uint256"
        }
      ],
      "payable": false,
      "stateMutability": "view",
      "type": "function"
    },
    {
      "constant": true,
      "inputs": [],
      "name": "creator",
      "outputs": [
        {
          "name": "",
          "type": "address"
        }
      ],
      "payable": false,
      "stateMutability": "view",
      "type": "function"
    },
    {
      "constant": false,
      "inputs": [],
      "name": "endCycle",
      "outputs": [],
      "payable": false,
      "stateMutability": "nonpayable",
      "type": "function"
    },
    {
      "constant": true,
      "inputs": [],
      "name": "proposalsCount",
      "outputs": [
        {
          "name": "_count",
          "type": "uint256"
        }
      ],
      "payable": false,
      "stateMutability": "view",
      "type": "function"
    },
    {
      "constant": true,
      "inputs": [
        {
          "name": "",
          "type": "uint256"
        },
        {
          "name": "",
          "type": "address"
        }
      ],
      "name": "forStakedControlOfProposalOfUser",
      "outputs": [
        {
          "name": "",
          "type": "uint256"
        }
      ],
      "payable": false,
      "stateMutability": "view",
      "type": "function"
    },
    {
      "constant": true,
      "inputs": [],
      "name": "isFirstCycle",
      "outputs": [
        {
          "name": "",
          "type": "bool"
        }
      ],
      "payable": false,
      "stateMutability": "view",
      "type": "function"
    },
    {
      "constant": true,
      "inputs": [],
      "name": "initialized",
      "outputs": [
        {
          "name": "",
          "type": "bool"
        }
      ],
      "payable": false,
      "stateMutability": "view",
      "type": "function"
    },
    {
      "constant": true,
      "inputs": [],
      "name": "developerFeeAccount",
      "outputs": [
        {
          "name": "",
          "type": "address"
        }
      ],
      "payable": false,
      "stateMutability": "view",
      "type": "function"
    },
    {
      "constant": true,
      "inputs": [],
      "name": "minStakeProportion",
      "outputs": [
        {
          "name": "",
          "type": "uint256"
        }
      ],
      "payable": false,
      "stateMutability": "view",
      "type": "function"
    },
    {
      "constant": true,
      "inputs": [],
      "name": "tenToDecimals",
      "outputs": [
        {
          "name": "",
          "type": "uint256"
        }
      ],
      "payable": false,
      "stateMutability": "view",
      "type": "function"
    },
    {
      "constant": true,
      "inputs": [],
      "name": "timeOfChangeMaking",
      "outputs": [
        {
          "name": "",
          "type": "uint256"
        }
      ],
      "payable": false,
      "stateMutability": "view",
      "type": "function"
    },
    {
      "constant": false,
      "inputs": [
        {
          "name": "_amountInWeis",
          "type": "uint256"
        }
      ],
      "name": "withdraw",
      "outputs": [],
      "payable": false,
      "stateMutability": "nonpayable",
      "type": "function"
    },
    {
      "constant": true,
      "inputs": [
        {
          "name": "",
          "type": "uint256"
        },
        {
          "name": "",
          "type": "address"
        }
      ],
      "name": "againstStakedControlOfProposalOfUser",
      "outputs": [
        {
          "name": "",
          "type": "uint256"
        }
      ],
      "payable": false,
      "stateMutability": "view",
      "type": "function"
    },
    {
      "constant": true,
      "inputs": [],
      "name": "maxProposals",
      "outputs": [
        {
          "name": "",
          "type": "uint256"
        }
      ],
      "payable": false,
      "stateMutability": "view",
      "type": "function"
    },
    {
      "constant": true,
      "inputs": [
        {
          "name": "",
          "type": "uint256"
        }
      ],
      "name": "participants",
      "outputs": [
        {
          "name": "",
          "type": "address"
        }
      ],
      "payable": false,
      "stateMutability": "view",
      "type": "function"
    },
    {
      "constant": true,
      "inputs": [],
      "name": "numProposals",
      "outputs": [
        {
          "name": "",
          "type": "uint256"
        }
      ],
      "payable": false,
      "stateMutability": "view",
      "type": "function"
    },
    {
      "constant": true,
      "inputs": [
        {
          "name": "",
          "type": "address"
        }
      ],
      "name": "isTokenAlreadyProposed",
      "outputs": [
        {
          "name": "",
          "type": "bool"
        }
      ],
      "payable": false,
      "stateMutability": "view",
      "type": "function"
    },
    {
      "constant": false,
      "inputs": [],
      "name": "topupOraclizeFees",
      "outputs": [],
      "payable": true,
      "stateMutability": "payable",
      "type": "function"
    },
    {
      "constant": true,
      "inputs": [],
      "name": "commissionRate",
      "outputs": [
        {
          "name": "",
          "type": "uint256"
        }
      ],
      "payable": false,
      "stateMutability": "view",
      "type": "function"
    },
    {
      "constant": false,
      "inputs": [
        {
          "name": "_newProp",
          "type": "uint256"
        }
      ],
      "name": "changeDeveloperFeeProportion",
      "outputs": [],
      "payable": false,
      "stateMutability": "nonpayable",
      "type": "function"
    },
    {
      "constant": false,
      "inputs": [
        {
          "name": "_newProp",
          "type": "uint256"
        }
      ],
      "name": "changeCommissionRate",
      "outputs": [],
      "payable": false,
      "stateMutability": "nonpayable",
      "type": "function"
    },
    {
      "constant": true,
      "inputs": [
        {
          "name": "",
          "type": "address"
        }
      ],
      "name": "balanceOf",
      "outputs": [
        {
          "name": "",
          "type": "uint256"
        }
      ],
      "payable": false,
      "stateMutability": "view",
      "type": "function"
    },
    {
      "constant": false,
      "inputs": [
        {
          "name": "_proposalId",
          "type": "uint256"
        },
        {
          "name": "_stakeInWeis",
          "type": "uint256"
        }
      ],
      "name": "supportProposal",
      "outputs": [],
      "payable": false,
      "stateMutability": "nonpayable",
      "type": "function"
    },
    {
      "constant": true,
      "inputs": [],
      "name": "totalFundsInWeis",
      "outputs": [
        {
          "name": "",
          "type": "uint256"
        }
      ],
      "payable": false,
      "stateMutability": "view",
      "type": "function"
    },
    {
      "constant": false,
      "inputs": [],
      "name": "startNewCycle",
      "outputs": [],
      "payable": false,
      "stateMutability": "nonpayable",
      "type": "function"
    },
    {
      "constant": true,
      "inputs": [],
      "name": "timeOfCycle",
      "outputs": [
        {
          "name": "",
          "type": "uint256"
        }
      ],
      "payable": false,
      "stateMutability": "view",
      "type": "function"
    },
    {
      "constant": true,
      "inputs": [],
      "name": "maxProposalsPerMember",
      "outputs": [
        {
          "name": "",
          "type": "uint256"
        }
      ],
      "payable": false,
      "stateMutability": "view",
      "type": "function"
    },
    {
      "constant": true,
      "inputs": [],
      "name": "orderExpirationTimeInBlocks",
      "outputs": [
        {
          "name": "",
          "type": "uint256"
        }
      ],
      "payable": false,
      "stateMutability": "view",
      "type": "function"
    },
    {
      "constant": false,
      "inputs": [
        {
          "name": "_cTokenAddr",
          "type": "address"
        },
        {
          "name": "_oraclizeAddr",
          "type": "address"
        }
      ],
      "name": "initializeSubcontracts",
      "outputs": [],
      "payable": false,
      "stateMutability": "nonpayable",
      "type": "function"
    },
    {
      "constant": false,
      "inputs": [],
      "name": "finalizeEndCycle",
      "outputs": [],
      "payable": false,
      "stateMutability": "nonpayable",
      "type": "function"
    },
    {
      "constant": true,
      "inputs": [],
      "name": "owner",
      "outputs": [
        {
          "name": "",
          "type": "address"
        }
      ],
      "payable": false,
      "stateMutability": "view",
      "type": "function"
    },
    {
      "constant": false,
      "inputs": [
        {
          "name": "_proposalId",
          "type": "uint256"
        }
      ],
      "name": "cancelProposalSupport",
      "outputs": [],
      "payable": false,
      "stateMutability": "nonpayable",
      "type": "function"
    },
    {
      "constant": false,
      "inputs": [],
      "name": "endProposalMakingTime",
      "outputs": [],
      "payable": false,
      "stateMutability": "nonpayable",
      "type": "function"
    },
    {
      "constant": true,
      "inputs": [
        {
          "name": "",
          "type": "address"
        }
      ],
      "name": "isParticipant",
      "outputs": [
        {
          "name": "",
          "type": "bool"
        }
      ],
      "payable": false,
      "stateMutability": "view",
      "type": "function"
    },
    {
      "constant": true,
      "inputs": [],
      "name": "startTimeOfCycle",
      "outputs": [
        {
          "name": "",
          "type": "uint256"
        }
      ],
      "payable": false,
      "stateMutability": "view",
      "type": "function"
    },
    {
      "constant": true,
      "inputs": [],
      "name": "etherDeltaAddr",
      "outputs": [
        {
          "name": "",
          "type": "address"
        }
      ],
      "payable": false,
      "stateMutability": "view",
      "type": "function"
    },
    {
      "constant": false,
      "inputs": [
        {
          "name": "_tokenAddress",
          "type": "address"
        },
        {
          "name": "_tokenSymbol",
          "type": "string"
        },
        {
          "name": "_stakeInWeis",
          "type": "uint256"
        }
      ],
      "name": "createProposal",
      "outputs": [],
      "payable": false,
      "stateMutability": "nonpayable",
      "type": "function"
    },
    {
      "constant": true,
      "inputs": [],
      "name": "oraclizeAddr",
      "outputs": [
        {
          "name": "",
          "type": "address"
        }
      ],
      "payable": false,
      "stateMutability": "view",
      "type": "function"
    },
    {
      "constant": false,
      "inputs": [
        {
          "name": "_proposalId",
          "type": "uint256"
        },
        {
          "name": "_buyPrice",
          "type": "uint256"
        },
        {
          "name": "_expires",
          "type": "uint256"
        }
      ],
      "name": "__setBuyPriceAndExpirationBlock",
      "outputs": [],
      "payable": false,
      "stateMutability": "nonpayable",
      "type": "function"
    },
    {
      "constant": true,
      "inputs": [],
      "name": "oraclizeFeeProportion",
      "outputs": [
        {
          "name": "",
          "type": "uint256"
        }
      ],
      "payable": false,
      "stateMutability": "view",
      "type": "function"
    },
    {
      "constant": false,
      "inputs": [
        {
          "name": "_newAddr",
          "type": "address"
        }
      ],
      "name": "changeDeveloperFeeAccount",
      "outputs": [],
      "payable": false,
      "stateMutability": "nonpayable",
      "type": "function"
    },
    {
      "constant": false,
      "inputs": [
        {
          "name": "_newAddr",
          "type": "address"
        }
      ],
      "name": "changeEtherDeltaAddress",
      "outputs": [],
      "payable": false,
      "stateMutability": "nonpayable",
      "type": "function"
    },
    {
      "constant": true,
      "inputs": [
        {
          "name": "",
          "type": "uint256"
        }
      ],
      "name": "forStakedControlOfProposal",
      "outputs": [
        {
          "name": "",
          "type": "uint256"
        }
      ],
      "payable": false,
      "stateMutability": "view",
      "type": "function"
    },
    {
      "constant": false,
      "inputs": [],
      "name": "endChangeMakingTime",
      "outputs": [],
      "payable": false,
      "stateMutability": "nonpayable",
      "type": "function"
    },
    {
      "constant": true,
      "inputs": [],
      "name": "developerFeeProportion",
      "outputs": [
        {
          "name": "",
          "type": "uint256"
        }
      ],
      "payable": false,
      "stateMutability": "view",
      "type": "function"
    },
    {
      "constant": false,
      "inputs": [
        {
          "name": "_proposalId",
          "type": "uint256"
        },
        {
          "name": "_sellPrice",
          "type": "uint256"
        },
        {
          "name": "_expires",
          "type": "uint256"
        }
      ],
      "name": "__setSellPriceAndExpirationBlock",
      "outputs": [],
      "payable": false,
      "stateMutability": "nonpayable",
      "type": "function"
    },
    {
      "constant": false,
      "inputs": [],
      "name": "deposit",
      "outputs": [],
      "payable": true,
      "stateMutability": "payable",
      "type": "function"
    },
    {
      "constant": false,
      "inputs": [
        {
          "name": "_newProp",
          "type": "uint256"
        }
      ],
      "name": "changeOraclizeFeeProportion",
      "outputs": [],
      "payable": false,
      "stateMutability": "nonpayable",
      "type": "function"
    },
    {
      "constant": true,
      "inputs": [],
      "name": "timeOfProposalMaking",
      "outputs": [
        {
          "name": "",
          "type": "uint256"
        }
      ],
      "payable": false,
      "stateMutability": "view",
      "type": "function"
    },
    {
      "constant": true,
      "inputs": [],
      "name": "controlTokenAddr",
      "outputs": [
        {
          "name": "",
          "type": "address"
        }
      ],
      "payable": false,
      "stateMutability": "view",
      "type": "function"
    },
    {
      "constant": true,
      "inputs": [],
      "name": "participantsCount",
      "outputs": [
        {
          "name": "_count",
          "type": "uint256"
        }
      ],
      "payable": false,
      "stateMutability": "view",
      "type": "function"
    },
    {
      "constant": true,
      "inputs": [
        {
          "name": "",
          "type": "address"
        }
      ],
      "name": "createdProposalCount",
      "outputs": [
        {
          "name": "",
          "type": "uint256"
        }
      ],
      "payable": false,
      "stateMutability": "view",
      "type": "function"
    },
    {
      "constant": false,
      "inputs": [
        {
          "name": "_tokenGet",
          "type": "address"
        },
        {
          "name": "_amountGet",
          "type": "uint256"
        },
        {
          "name": "_tokenGive",
          "type": "address"
        },
        {
          "name": "_amountGive",
          "type": "uint256"
        },
        {
          "name": "_expires",
          "type": "uint256"
        },
        {
          "name": "_nonce",
          "type": "uint256"
        }
      ],
      "name": "__makeOrder",
      "outputs": [],
      "payable": false,
      "stateMutability": "nonpayable",
      "type": "function"
    },
    {
      "constant": false,
      "inputs": [
        {
          "name": "_receipient",
          "type": "address"
        }
      ],
      "name": "__addControlTokenReceipientAsParticipant",
      "outputs": [],
      "payable": false,
      "stateMutability": "nonpayable",
      "type": "function"
    },
    {
      "constant": false,
      "inputs": [
        {
          "name": "newOwner",
          "type": "address"
        }
      ],
      "name": "transferOwnership",
      "outputs": [],
      "payable": false,
      "stateMutability": "nonpayable",
      "type": "function"
    },
    {
      "constant": true,
      "inputs": [],
      "name": "cyclePhase",
      "outputs": [
        {
          "name": "",
          "type": "uint8"
        }
      ],
      "payable": false,
      "stateMutability": "view",
      "type": "function"
    },
    {
      "inputs": [
        {
          "name": "_etherDeltaAddr",
          "type": "address"
        },
        {
          "name": "_developerFeeAccount",
          "type": "address"
        },
        {
          "name": "_tenToDecimals",
          "type": "uint256"
        },
        {
          "name": "_timeOfCycle",
          "type": "uint256"
        },
        {
          "name": "_timeOfChangeMaking",
          "type": "uint256"
        },
        {
          "name": "_timeOfProposalMaking",
          "type": "uint256"
        },
        {
          "name": "_minStakeProportion",
          "type": "uint256"
        },
        {
          "name": "_maxProposals",
          "type": "uint256"
        },
        {
          "name": "_commissionRate",
          "type": "uint256"
        },
        {
          "name": "_orderExpirationTimeInBlocks",
          "type": "uint256"
        },
        {
          "name": "_oraclizeFeeProportion",
          "type": "uint256"
        },
        {
          "name": "_developerFeeProportion",
          "type": "uint256"
        },
        {
          "name": "_maxProposalsPerMember",
          "type": "uint256"
        }
      ],
      "payable": false,
      "stateMutability": "nonpayable",
      "type": "constructor"
    },
    {
      "payable": true,
      "stateMutability": "payable",
      "type": "fallback"
    },
    {
      "anonymous": false,
      "inputs": [
        {
          "indexed": false,
          "name": "timestamp",
          "type": "uint256"
        }
      ],
      "name": "CycleStarted",
      "type": "event"
    },
    {
      "anonymous": false,
      "inputs": [
        {
          "indexed": false,
          "name": "_sender",
          "type": "address"
        },
        {
          "indexed": false,
          "name": "_amountInWeis",
          "type": "uint256"
        }
      ],
      "name": "Deposit",
      "type": "event"
    },
    {
      "anonymous": false,
      "inputs": [
        {
          "indexed": false,
          "name": "_sender",
          "type": "address"
        },
        {
          "indexed": false,
          "name": "_amountInWeis",
          "type": "uint256"
        }
      ],
      "name": "Withdraw",
      "type": "event"
    },
    {
      "anonymous": false,
      "inputs": [
        {
          "indexed": false,
          "name": "timestamp",
          "type": "uint256"
        }
      ],
      "name": "ChangeMakingTimeEnded",
      "type": "event"
    },
    {
      "anonymous": false,
      "inputs": [
        {
          "indexed": false,
          "name": "_id",
          "type": "uint256"
        },
        {
          "indexed": false,
          "name": "_tokenAddress",
          "type": "address"
        },
        {
          "indexed": false,
          "name": "_tokenSymbol",
          "type": "string"
        },
        {
          "indexed": false,
          "name": "_amountInWeis",
          "type": "uint256"
        }
      ],
      "name": "NewProposal",
      "type": "event"
    },
    {
      "anonymous": false,
      "inputs": [
        {
          "indexed": false,
          "name": "_id",
          "type": "uint256"
        },
        {
          "indexed": false,
          "name": "_amountInWeis",
          "type": "uint256"
        }
      ],
      "name": "SupportedProposal",
      "type": "event"
    },
    {
      "anonymous": false,
      "inputs": [
        {
          "indexed": false,
          "name": "timestamp",
          "type": "uint256"
        }
      ],
      "name": "ProposalMakingTimeEnded",
      "type": "event"
    },
    {
      "anonymous": false,
      "inputs": [
        {
          "indexed": false,
          "name": "timestamp",
          "type": "uint256"
        }
      ],
      "name": "CycleEnded",
      "type": "event"
    },
    {
      "anonymous": false,
      "inputs": [
        {
          "indexed": false,
          "name": "timestamp",
          "type": "uint256"
        }
      ],
      "name": "CycleFinalized",
      "type": "event"
    },
    {
      "anonymous": false,
      "inputs": [
        {
          "indexed": false,
          "name": "_beforeTotalFunds",
          "type": "uint256"
        },
        {
          "indexed": false,
          "name": "_afterTotalFunds",
          "type": "uint256"
        }
      ],
      "name": "ROI",
      "type": "event"
    },
    {
      "anonymous": false,
      "inputs": [
        {
          "indexed": false,
          "name": "_member",
          "type": "address"
        },
        {
          "indexed": false,
          "name": "_success",
          "type": "bool"
        }
      ],
      "name": "PredictionResult",
      "type": "event"
    },
    {
      "anonymous": false,
      "inputs": [
        {
          "indexed": true,
          "name": "previousOwner",
          "type": "address"
        },
        {
          "indexed": true,
          "name": "newOwner",
          "type": "address"
        }
      ],
      "name": "OwnershipTransferred",
      "type": "event"
    }
  ],
  "bytecode": "0x606060405234156200001057600080fd5b6040516101a0806200601883398101604052808051906020019091908051906020019091908051906020019091908051906020019091908051906020019091908051906020019091908051906020019091908051906020019091908051906020019091908051906020019091908051906020019091908051906020019091908051906020019091905050336000806101000a81548173ffffffffffffffffffffffffffffffffffffffff021916908373ffffffffffffffffffffffffffffffffffffffff16021790555089620000fe898b620002e26401000000000262003a70179091906401000000009004565b111515156200010c57600080fd5b8c600260006101000a81548173ffffffffffffffffffffffffffffffffffffffff021916908373ffffffffffffffffffffffffffffffffffffffff1602179055508b600560006101000a81548173ffffffffffffffffffffffffffffffffffffffff021916908373ffffffffffffffffffffffffffffffffffffffff1602179055508a6006819055508960098190555088600a8190555087600b8190555086600c8190555085600d8190555084600e8190555083600f8190555082601081905550816011819055508060128190555060006008819055506001601460006101000a81548160ff0219169083151502179055506004602060146101000a81548160ff021916908360048111156200021e57fe5b021790555033600460006101000a81548173ffffffffffffffffffffffffffffffffffffffff021916908373ffffffffffffffffffffffffffffffffffffffff1602179055506000601381905550600260009054906101000a900473ffffffffffffffffffffffffffffffffffffffff16601f60006101000a81548173ffffffffffffffffffffffffffffffffffffffff021916908373ffffffffffffffffffffffffffffffffffffffff1602179055505050505050505050505050505062000301565b6000808284019050838110151515620002f757fe5b8091505092915050565b615d0780620003116000396000f30060606040526004361061029e576000357c0100000000000000000000000000000000000000000000000000000000900463ffffffff168063013cf08b146102fc57806302d05d3f14610412578063084a4faf146104675780630a9f46ad1461047c5780630f6f17d2146104a55780631039162b146104fb578063158ef93e146105285780631ab371fc146105555780631dcf8ceb146105aa5780631f12b0e8146105d357806328ac1228146105fc5780632e1a7d4d146106255780632e33de6a146106485780632f3fe24c1461069e57806335c1d349146106c7578063400e39491461072a5780634773822e1461075357806358e0abec146107a45780635ea1d6f8146107ae57806364542e3e146107d75780636642642a146107fa57806370a082311461081d5780637b3b346b1461086a5780637e714dd2146108965780637f2736d1146108bf578063810599e9146108d457806383d32461146108fd5780638456799b1461092657806384e480771461094f5780638b4e6ba8146109a75780638da5cb5b146109bc5780638fb644bb14610a1157806390c31d5d14610a34578063929066f514610a4957806395988d8214610a9a57806395fa9fc914610ac3578063a0a2150414610b18578063a23a6f9e14610b9d578063a418117414610bf2578063b12d2fa614610c27578063b18e8a8d14610c50578063b462c8fa14610c89578063b484cf8d14610cc2578063b64af4b114610cf9578063ba25887d14610d0e578063bc12730114610d37578063d0e30db014610d6c578063d6cf33dd14610d76578063d78b3b1c14610d99578063dc87454c14610dc2578063dd60c89814610e17578063ebc95b1214610e40578063f1cd92f114610e8d578063f245fbc714610f09578063f2fde38b14610f42578063f6558b0014610f7b575b600260009054906101000a900473ffffffffffffffffffffffffffffffffffffffff1673ffffffffffffffffffffffffffffffffffffffff163373ffffffffffffffffffffffffffffffffffffffff161415156102fa57600080fd5b005b341561030757600080fd5b61031d6004808035906020019091905050610fb2565b604051808973ffffffffffffffffffffffffffffffffffffffff1673ffffffffffffffffffffffffffffffffffffffff168152602001806020018881526020018781526020018681526020018581526020018481526020018381526020018281038252898181546001816001161561010002031660029004815260200191508054600181600116156101000203166002900480156103fc5780601f106103d1576101008083540402835291602001916103fc565b820191906000526020600020905b8154815290600101906020018083116103df57829003601f168201915b5050995050505050505050505060405180910390f35b341561041d57600080fd5b610425611028565b604051808273ffffffffffffffffffffffffffffffffffffffff1673ffffffffffffffffffffffffffffffffffffffff16815260200191505060405180910390f35b341561047257600080fd5b61047a61104e565b005b341561048757600080fd5b61048f61121f565b6040518082815260200191505060405180910390f35b34156104b057600080fd5b6104e5600480803590602001909190803573ffffffffffffffffffffffffffffffffffffffff1690602001909190505061122c565b6040518082815260200191505060405180910390f35b341561050657600080fd5b61050e611251565b604051808215151515815260200191505060405180910390f35b341561053357600080fd5b61053b611264565b604051808215151515815260200191505060405180910390f35b341561056057600080fd5b610568611277565b604051808273ffffffffffffffffffffffffffffffffffffffff1673ffffffffffffffffffffffffffffffffffffffff16815260200191505060405180910390f35b34156105b557600080fd5b6105bd61129d565b6040518082815260200191505060405180910390f35b34156105de57600080fd5b6105e66112a3565b6040518082815260200191505060405180910390f35b341561060757600080fd5b61060f6112a9565b6040518082815260200191505060405180910390f35b341561063057600080fd5b61064660048080359060200190919050506112af565b005b341561065357600080fd5b610688600480803590602001909190803573ffffffffffffffffffffffffffffffffffffffff1690602001909190505061144c565b6040518082815260200191505060405180910390f35b34156106a957600080fd5b6106b1611471565b6040518082815260200191505060405180910390f35b34156106d257600080fd5b6106e86004808035906020019091905050611477565b604051808273ffffffffffffffffffffffffffffffffffffffff1673ffffffffffffffffffffffffffffffffffffffff16815260200191505060405180910390f35b341561073557600080fd5b61073d6114b6565b6040518082815260200191505060405180910390f35b341561075e57600080fd5b61078a600480803573ffffffffffffffffffffffffffffffffffffffff169060200190919050506114bc565b604051808215151515815260200191505060405180910390f35b6107ac6114dc565b005b34156107b957600080fd5b6107c161159b565b6040518082815260200191505060405180910390f35b34156107e257600080fd5b6107f860048080359060200190919050506115a1565b005b341561080557600080fd5b61081b6004808035906020019091905050611616565b005b341561082857600080fd5b610854600480803573ffffffffffffffffffffffffffffffffffffffff1690602001909190505061167b565b6040518082815260200191505060405180910390f35b341561087557600080fd5b6108946004808035906020019091908035906020019091905050611693565b005b34156108a157600080fd5b6108a9611b5a565b6040518082815260200191505060405180910390f35b34156108ca57600080fd5b6108d2611b60565b005b34156108df57600080fd5b6108e7611d6b565b6040518082815260200191505060405180910390f35b341561090857600080fd5b610910611d71565b6040518082815260200191505060405180910390f35b341561093157600080fd5b610939611d77565b6040518082815260200191505060405180910390f35b341561095a57600080fd5b6109a5600480803573ffffffffffffffffffffffffffffffffffffffff1690602001909190803573ffffffffffffffffffffffffffffffffffffffff16906020019091905050611d7d565b005b34156109b257600080fd5b6109ba611f5c565b005b34156109c757600080fd5b6109cf6122c4565b604051808273ffffffffffffffffffffffffffffffffffffffff1673ffffffffffffffffffffffffffffffffffffffff16815260200191505060405180910390f35b3415610a1c57600080fd5b610a3260048080359060200190919050506122e9565b005b3415610a3f57600080fd5b610a476126ad565b005b3415610a5457600080fd5b610a80600480803573ffffffffffffffffffffffffffffffffffffffff16906020019091905050612789565b604051808215151515815260200191505060405180910390f35b3415610aa557600080fd5b610aad6127a9565b6040518082815260200191505060405180910390f35b3415610ace57600080fd5b610ad66127af565b604051808273ffffffffffffffffffffffffffffffffffffffff1673ffffffffffffffffffffffffffffffffffffffff16815260200191505060405180910390f35b3415610b2357600080fd5b610b9b600480803573ffffffffffffffffffffffffffffffffffffffff1690602001909190803590602001908201803590602001908080601f016020809104026020016040519081016040528093929190818152602001838380828437820191505050505050919080359060200190919050506127d5565b005b3415610ba857600080fd5b610bb0612d50565b604051808273ffffffffffffffffffffffffffffffffffffffff1673ffffffffffffffffffffffffffffffffffffffff16815260200191505060405180910390f35b3415610bfd57600080fd5b610c256004808035906020019091908035906020019091908035906020019091905050612d76565b005b3415610c3257600080fd5b610c3a612e21565b6040518082815260200191505060405180910390f35b3415610c5b57600080fd5b610c87600480803573ffffffffffffffffffffffffffffffffffffffff16906020019091905050612e27565b005b3415610c9457600080fd5b610cc0600480803573ffffffffffffffffffffffffffffffffffffffff16906020019091905050612ec6565b005b3415610ccd57600080fd5b610ce36004808035906020019091905050613076565b6040518082815260200191505060405180910390f35b3415610d0457600080fd5b610d0c61308e565b005b3415610d1957600080fd5b610d21613146565b6040518082815260200191505060405180910390f35b3415610d4257600080fd5b610d6a600480803590602001909190803590602001909190803590602001909190505061314c565b005b610d746131f7565b005b3415610d8157600080fd5b610d9760048080359060200190919050506135a0565b005b3415610da457600080fd5b610dac613615565b6040518082815260200191505060405180910390f35b3415610dcd57600080fd5b610dd561361b565b604051808273ffffffffffffffffffffffffffffffffffffffff1673ffffffffffffffffffffffffffffffffffffffff16815260200191505060405180910390f35b3415610e2257600080fd5b610e2a613641565b6040518082815260200191505060405180910390f35b3415610e4b57600080fd5b610e77600480803573ffffffffffffffffffffffffffffffffffffffff1690602001909190505061364e565b6040518082815260200191505060405180910390f35b3415610e9857600080fd5b610f07600480803573ffffffffffffffffffffffffffffffffffffffff1690602001909190803590602001909190803573ffffffffffffffffffffffffffffffffffffffff16906020019091908035906020019091908035906020019091908035906020019091905050613666565b005b3415610f1457600080fd5b610f40600480803573ffffffffffffffffffffffffffffffffffffffff169060200190919050506137ee565b005b3415610f4d57600080fd5b610f79600480803573ffffffffffffffffffffffffffffffffffffffff16906020019091905050613908565b005b3415610f8657600080fd5b610f8e613a5d565b60405180826004811115610f9e57fe5b60ff16815260200191505060405180910390f35b601d81815481101515610fc157fe5b90600052602060002090600802016000915090508060000160009054906101000a900473ffffffffffffffffffffffffffffffffffffffff169080600101908060020154908060030154908060040154908060050154908060060154908060070154905088565b600460009054906101000a900473ffffffffffffffffffffffffffffffffffffffff1681565b6000600280600481111561105e57fe5b602060149054906101000a900460ff16600481111561107957fe5b14151561108557600080fd5b61109c600954600854613a7090919063ffffffff16565b42101515156110aa57600080fd5b6003602060146101000a81548160ff021916908360048111156110c957fe5b02179055506000601460006101000a81548160ff021916908315150217905550600091505b601d805490508210156111e4576000601d8381548110151561110c57fe5b90600052602060002090600802016006015411156111c957602060009054906101000a900473ffffffffffffffffffffffffffffffffffffffff1673ffffffffffffffffffffffffffffffffffffffff166360fc3f8e836040518263ffffffff167c010000000000000000000000000000000000000000000000000000000002815260040180828152602001915050600060405180830381600087803b15156111b457600080fd5b6102c65a03f115156111c557600080fd5b5050505b6111dd600183613a7090919063ffffffff16565b91506110ee565b7f4878ecf95e0ab851e92c9860805d02e6413f8379c7702dc1adefab976c7a9ec3426040518082815260200191505060405180910390a15050565b6000601d80549050905090565b6019602052816000526040600020602052806000526040600020600091509150505481565b601460009054906101000a900460ff1681565b601460019054906101000a900460ff1681565b600560009054906101000a900473ffffffffffffffffffffffffffffffffffffffff1681565b600c5481565b60065481565b600a5481565b60008060048111156112bd57fe5b602060149054906101000a900460ff1660048111156112d857fe5b1415156112e457600080fd5b601560003373ffffffffffffffffffffffffffffffffffffffff1673ffffffffffffffffffffffffffffffffffffffff16815260200190815260200160002060009054906101000a900460ff16151561133c57600080fd5b601460009054906101000a900460ff1615151561135857600080fd5b61136d82600754613a8e90919063ffffffff16565b6007819055506113c582601660003373ffffffffffffffffffffffffffffffffffffffff1673ffffffffffffffffffffffffffffffffffffffff16815260200190815260200160002054613a8e90919063ffffffff16565b601660003373ffffffffffffffffffffffffffffffffffffffff1673ffffffffffffffffffffffffffffffffffffffff168152602001908152602001600020819055503373ffffffffffffffffffffffffffffffffffffffff166108fc839081150290604051600060405180830381858888f19350505050151561144857600080fd5b5050565b601a602052816000526040600020602052806000526040600020600091509150505481565b600d5481565b601c8181548110151561148657fe5b90600052602060002090016000915054906101000a900473ffffffffffffffffffffffffffffffffffffffff1681565b60135481565b601b6020528060005260406000206000915054906101000a900460ff1681565b6000809054906101000a900473ffffffffffffffffffffffffffffffffffffffff1673ffffffffffffffffffffffffffffffffffffffff163373ffffffffffffffffffffffffffffffffffffffff1614151561153757600080fd5b600360009054906101000a900473ffffffffffffffffffffffffffffffffffffffff1673ffffffffffffffffffffffffffffffffffffffff166108fc349081150290604051600060405180830381858888f19350505050151561159957600080fd5b565b600e5481565b6000809054906101000a900473ffffffffffffffffffffffffffffffffffffffff1673ffffffffffffffffffffffffffffffffffffffff163373ffffffffffffffffffffffffffffffffffffffff161415156115fc57600080fd5b6011548110151561160c57600080fd5b8060118190555050565b6000809054906101000a900473ffffffffffffffffffffffffffffffffffffffff1673ffffffffffffffffffffffffffffffffffffffff163373ffffffffffffffffffffffffffffffffffffffff1614151561167157600080fd5b80600e8190555050565b60166020528060005260406000206000915090505481565b60018060048111156116a157fe5b602060149054906101000a900460ff1660048111156116bc57fe5b1415156116c857600080fd5b601560003373ffffffffffffffffffffffffffffffffffffffff1673ffffffffffffffffffffffffffffffffffffffff16815260200190815260200160002060009054906101000a900460ff16151561172057600080fd5b601d805490508310151561173357600080fd5b601b6000601d8581548110151561174657fe5b906000526020600020906008020160000160009054906101000a900473ffffffffffffffffffffffffffffffffffffffff1673ffffffffffffffffffffffffffffffffffffffff1673ffffffffffffffffffffffffffffffffffffffff16815260200190815260200160002060009054906101000a900460ff1615156117cb57600080fd5b600c546118d4601e60009054906101000a900473ffffffffffffffffffffffffffffffffffffffff1673ffffffffffffffffffffffffffffffffffffffff166370a08231336000604051602001526040518263ffffffff167c0100000000000000000000000000000000000000000000000000000000028152600401808273ffffffffffffffffffffffffffffffffffffffff1673ffffffffffffffffffffffffffffffffffffffff168152602001915050602060405180830381600087803b151561189657600080fd5b6102c65a03f115156118a757600080fd5b505050604051805190506118c660065486613aa790919063ffffffff16565b613ada90919063ffffffff16565b101515156118e157600080fd5b601e60009054906101000a900473ffffffffffffffffffffffffffffffffffffffff1673ffffffffffffffffffffffffffffffffffffffff16632bee7bde33846000604051602001526040518363ffffffff167c0100000000000000000000000000000000000000000000000000000000028152600401808373ffffffffffffffffffffffffffffffffffffffff1673ffffffffffffffffffffffffffffffffffffffff16815260200182815260200192505050602060405180830381600087803b15156119ae57600080fd5b6102c65a03f115156119bf57600080fd5b50505060405180519050506119fe6001601d858154811015156119de57fe5b906000526020600020906008020160060154613a7090919063ffffffff16565b601d84815481101515611a0d57fe5b906000526020600020906008020160060181905550611a48826017600086815260200190815260200160002054613a7090919063ffffffff16565b6017600085815260200190815260200160002081905550611ac2826019600086815260200190815260200160002060003373ffffffffffffffffffffffffffffffffffffffff1673ffffffffffffffffffffffffffffffffffffffff16815260200190815260200160002054613a7090919063ffffffff16565b6019600085815260200190815260200160002060003373ffffffffffffffffffffffffffffffffffffffff1673ffffffffffffffffffffffffffffffffffffffff168152602001908152602001600020819055507f20129a04dd22d5add63ed99fee5a6d3f6b688120cd4f8d10617b118e8872e1148383604051808381526020018281526020019250505060405180910390a1505050565b60075481565b60006004806004811115611b7057fe5b602060149054906101000a900460ff166004811115611b8b57fe5b141515611b9757600080fd5b601460019054906101000a900460ff161515611bb257600080fd5b6000602060146101000a81548160ff02191690836004811115611bd157fe5b021790555042600881905550600091505b601c80549050821015611c4d57611c32601c83815481101515611c0157fe5b906000526020600020900160009054906101000a900473ffffffffffffffffffffffffffffffffffffffff16613af5565b611c46600183613a7090919063ffffffff16565b9150611be2565b600091505b601d80549050821015611c8357611c6882613c13565b611c7c600183613a7090919063ffffffff16565b9150611c52565b602060009054906101000a900473ffffffffffffffffffffffffffffffffffffffff1673ffffffffffffffffffffffffffffffffffffffff166332f42b546040518163ffffffff167c0100000000000000000000000000000000000000000000000000000000028152600401600060405180830381600087803b1515611d0857600080fd5b6102c65a03f11515611d1957600080fd5b505050601d6000611d2a9190615ae6565b6013600090557fc8a0332abe200b5e7ff117e01b27b1ea7e989a7152ad8690ca1e0f0cb1157c3f426040518082815260200191505060405180910390a15050565b60095481565b60125481565b600f5481565b600460009054906101000a900473ffffffffffffffffffffffffffffffffffffffff1673ffffffffffffffffffffffffffffffffffffffff163373ffffffffffffffffffffffffffffffffffffffff16141515611dd957600080fd5b601460019054906101000a900460ff16151515611df557600080fd5b6001601460016101000a81548160ff02191690831515021790555081600160006101000a81548173ffffffffffffffffffffffffffffffffffffffff021916908373ffffffffffffffffffffffffffffffffffffffff16021790555080600360006101000a81548173ffffffffffffffffffffffffffffffffffffffff021916908373ffffffffffffffffffffffffffffffffffffffff160217905550600160009054906101000a900473ffffffffffffffffffffffffffffffffffffffff16601e60006101000a81548173ffffffffffffffffffffffffffffffffffffffff021916908373ffffffffffffffffffffffffffffffffffffffff160217905550600360009054906101000a900473ffffffffffffffffffffffffffffffffffffffff16602060006101000a81548173ffffffffffffffffffffffffffffffffffffffff021916908373ffffffffffffffffffffffffffffffffffffffff1602179055505050565b6000806003806004811115611f6d57fe5b602060149054906101000a900460ff166004811115611f8857fe5b141515611f9457600080fd5b6004602060146101000a81548160ff02191690836004811115611fb357fe5b0217905550600092505b601d8054905083101561202c576000601d84815481101515611fdb57fe5b906000526020600020906008020160060154111561201157611ffc83613cbc565b151561200757600080fd5b6120108361400f565b5b612025600184613a7090919063ffffffff16565b9250611fbd565b601f60009054906101000a900473ffffffffffffffffffffffffffffffffffffffff1673ffffffffffffffffffffffffffffffffffffffff1663508493bc6000306000604051602001526040518363ffffffff167c0100000000000000000000000000000000000000000000000000000000028152600401808373ffffffffffffffffffffffffffffffffffffffff1673ffffffffffffffffffffffffffffffffffffffff1681526020018273ffffffffffffffffffffffffffffffffffffffff1673ffffffffffffffffffffffffffffffffffffffff16815260200192505050602060405180830381600087803b151561212657600080fd5b6102c65a03f1151561213757600080fd5b505050604051805190509150601f60009054906101000a900473ffffffffffffffffffffffffffffffffffffffff1673ffffffffffffffffffffffffffffffffffffffff16632e1a7d4d836040518263ffffffff167c010000000000000000000000000000000000000000000000000000000002815260040180828152602001915050600060405180830381600087803b15156121d357600080fd5b6102c65a03f115156121e457600080fd5b505050602060009054906101000a900473ffffffffffffffffffffffffffffffffffffffff1673ffffffffffffffffffffffffffffffffffffffff16635fc86db16040518163ffffffff167c0100000000000000000000000000000000000000000000000000000000028152600401600060405180830381600087803b151561226c57600080fd5b6102c65a03f1151561227d57600080fd5b505050612288614a32565b7f6fbfbccdd0d107860c9bccfa723d97eba4f37886edeb01e7a438b1e0fe44e056426040518082815260200191505060405180910390a1505050565b6000809054906101000a900473ffffffffffffffffffffffffffffffffffffffff1681565b600060018060048111156122f957fe5b602060149054906101000a900460ff16600481111561231457fe5b14151561232057600080fd5b601560003373ffffffffffffffffffffffffffffffffffffffff1673ffffffffffffffffffffffffffffffffffffffff16815260200190815260200160002060009054906101000a900460ff16151561237857600080fd5b601d805490508310151561238b57600080fd5b6000601d8481548110151561239c57fe5b9060005260206000209060080201600601541115156123ba57600080fd5b6019600084815260200190815260200160002060003373ffffffffffffffffffffffffffffffffffffffff1673ffffffffffffffffffffffffffffffffffffffff1681526020019081526020016000205491506019600084815260200190815260200160002060003373ffffffffffffffffffffffffffffffffffffffff1673ffffffffffffffffffffffffffffffffffffffff16815260200190815260200160002060009055612487826017600086815260200190815260200160002054613a8e90919063ffffffff16565b60176000858152602001908152602001600020819055506124d26001601d858154811015156124b257fe5b906000526020600020906008020160060154613a8e90919063ffffffff16565b601d848154811015156124e157fe5b906000526020600020906008020160060181905550601e60009054906101000a900473ffffffffffffffffffffffffffffffffffffffff1673ffffffffffffffffffffffffffffffffffffffff1663a9059cbb33846000604051602001526040518363ffffffff167c0100000000000000000000000000000000000000000000000000000000028152600401808373ffffffffffffffffffffffffffffffffffffffff1673ffffffffffffffffffffffffffffffffffffffff16815260200182815260200192505050602060405180830381600087803b15156125c357600080fd5b6102c65a03f115156125d457600080fd5b50505060405180519050506000601760008581526020019081526020016000205414156126a85761260483613c13565b61261a6001601354613a8e90919063ffffffff16565b601381905550601d8381548110151561262f57fe5b9060005260206000209060080201600080820160006101000a81549073ffffffffffffffffffffffffffffffffffffffff02191690556001820160006126759190615b0a565b60028201600090556003820160009055600482016000905560058201600090556006820160009055600782016000905550505b505050565b60018060048111156126bb57fe5b602060149054906101000a900460ff1660048111156126d657fe5b1415156126e257600080fd5b61270d600b546126ff600a54600854613a7090919063ffffffff16565b613a7090919063ffffffff16565b421015151561271b57600080fd5b6002602060146101000a81548160ff0219169083600481111561273a57fe5b0217905550612747614e9d565b61274f615649565b7f63e5255d00258d97be2d059c72be3ed43117e9f43c2439d8639988e874efa9cf426040518082815260200191505060405180910390a150565b60156020528060005260406000206000915054906101000a900460ff1681565b60085481565b600260009054906101000a900473ffffffffffffffffffffffffffffffffffffffff1681565b600060018060048111156127e557fe5b602060149054906101000a900460ff16600481111561280057fe5b14151561280c57600080fd5b601560003373ffffffffffffffffffffffffffffffffffffffff1673ffffffffffffffffffffffffffffffffffffffff16815260200190815260200160002060009054906101000a900460ff16151561286457600080fd5b600d5460135410151561287657600080fd5b601b60008673ffffffffffffffffffffffffffffffffffffffff1673ffffffffffffffffffffffffffffffffffffffff16815260200190815260200160002060009054906101000a900460ff161515156128cf57600080fd5b601254601860003373ffffffffffffffffffffffffffffffffffffffff1673ffffffffffffffffffffffffffffffffffffffff1681526020019081526020016000205410151561291e57600080fd5b601d80548060010182816129329190615b52565b91600052602060002090600802016000610100604051908101604052808973ffffffffffffffffffffffffffffffffffffffff16815260200188815260200160008152602001600081526020016000815260200160008152602001600081526020016000815250909190915060008201518160000160006101000a81548173ffffffffffffffffffffffffffffffffffffffff021916908373ffffffffffffffffffffffffffffffffffffffff1602179055506020820151816001019080519060200190612a01929190615b84565b5060408201518160020155606082015181600301556080820151816004015560a0820151816005015560c0820151816006015560e082015181600701555050506001601b60008773ffffffffffffffffffffffffffffffffffffffff1673ffffffffffffffffffffffffffffffffffffffff16815260200190815260200160002060006101000a81548160ff021916908315150217905550602060009054906101000a900473ffffffffffffffffffffffffffffffffffffffff1673ffffffffffffffffffffffffffffffffffffffff16633455d73e856040518263ffffffff167c01000000000000000000000000000000000000000000000000000000000281526004018080602001828103825283818151815260200191508051906020019080838360005b83811015612b43578082015181840152602081019050612b28565b50505050905090810190601f168015612b705780820380516001836020036101000a031916815260200191505b5092505050600060405180830381600087803b1515612b8e57600080fd5b6102c65a03f11515612b9f57600080fd5b505050612bf56001601860003373ffffffffffffffffffffffffffffffffffffffff1673ffffffffffffffffffffffffffffffffffffffff16815260200190815260200160002054613a7090919063ffffffff16565b601860003373ffffffffffffffffffffffffffffffffffffffff1673ffffffffffffffffffffffffffffffffffffffff16815260200190815260200160002081905550612c4e6001601354613a7090919063ffffffff16565b6013819055506001601d80549050039150612c698284611693565b7f6838db3c5996fec3de968e640e7dd8000add88d4b31235fa327d85cdb8ffce5c82868686604051808581526020018473ffffffffffffffffffffffffffffffffffffffff1673ffffffffffffffffffffffffffffffffffffffff16815260200180602001838152602001828103825284818151815260200191508051906020019080838360005b83811015612d0c578082015181840152602081019050612cf1565b50505050905090810190601f168015612d395780820380516001836020036101000a031916815260200191505b509550505050505060405180910390a15050505050565b600360009054906101000a900473ffffffffffffffffffffffffffffffffffffffff1681565b600360009054906101000a900473ffffffffffffffffffffffffffffffffffffffff1673ffffffffffffffffffffffffffffffffffffffff163373ffffffffffffffffffffffffffffffffffffffff16141515612dd257600080fd5b81601d84815481101515612de257fe5b90600052602060002090600802016002018190555080601d84815481101515612e0757fe5b906000526020600020906008020160040181905550505050565b60105481565b6000809054906101000a900473ffffffffffffffffffffffffffffffffffffffff1673ffffffffffffffffffffffffffffffffffffffff163373ffffffffffffffffffffffffffffffffffffffff16141515612e8257600080fd5b80600560006101000a81548173ffffffffffffffffffffffffffffffffffffffff021916908373ffffffffffffffffffffffffffffffffffffffff16021790555050565b6000809054906101000a900473ffffffffffffffffffffffffffffffffffffffff1673ffffffffffffffffffffffffffffffffffffffff163373ffffffffffffffffffffffffffffffffffffffff16141515612f2157600080fd5b80600260006101000a81548173ffffffffffffffffffffffffffffffffffffffff021916908373ffffffffffffffffffffffffffffffffffffffff16021790555080601f60006101000a81548173ffffffffffffffffffffffffffffffffffffffff021916908373ffffffffffffffffffffffffffffffffffffffff160217905550602060009054906101000a900473ffffffffffffffffffffffffffffffffffffffff1673ffffffffffffffffffffffffffffffffffffffff16635aeed50a826040518263ffffffff167c0100000000000000000000000000000000000000000000000000000000028152600401808273ffffffffffffffffffffffffffffffffffffffff1673ffffffffffffffffffffffffffffffffffffffff168152602001915050600060405180830381600087803b151561305f57600080fd5b6102c65a03f1151561307057600080fd5b50505050565b60176020528060005260406000206000915090505481565b600080600481111561309c57fe5b602060149054906101000a900460ff1660048111156130b757fe5b1415156130c357600080fd5b6130da600a54600854613a7090919063ffffffff16565b42101515156130e857600080fd5b6001602060146101000a81548160ff0219169083600481111561310757fe5b02179055507f87a2225345e9725a08032af379cf06b2dada438a5f4e594bc1ed005a170bf53c426040518082815260200191505060405180910390a150565b60115481565b600360009054906101000a900473ffffffffffffffffffffffffffffffffffffffff1673ffffffffffffffffffffffffffffffffffffffff163373ffffffffffffffffffffffffffffffffffffffff161415156131a857600080fd5b81601d848154811015156131b857fe5b90600052602060002090600802016003018190555080601d848154811015156131dd57fe5b906000526020600020906008020160050181905550505050565b60008080600481111561320657fe5b602060149054906101000a900460ff16600481111561322157fe5b14151561322d57600080fd5b601560003373ffffffffffffffffffffffffffffffffffffffff1673ffffffffffffffffffffffffffffffffffffffff16815260200190815260200160002060009054906101000a900460ff16151561333c57601c80548060010182816132949190615c04565b9160005260206000209001600033909190916101000a81548173ffffffffffffffffffffffffffffffffffffffff021916908373ffffffffffffffffffffffffffffffffffffffff160217905550506001601560003373ffffffffffffffffffffffffffffffffffffffff1673ffffffffffffffffffffffffffffffffffffffff16815260200190815260200160002060006101000a81548160ff0219169083151502179055505b61336560065461335760105434613aa790919063ffffffff16565b613ada90919063ffffffff16565b91506133cb826133bd34601660003373ffffffffffffffffffffffffffffffffffffffff1673ffffffffffffffffffffffffffffffffffffffff16815260200190815260200160002054613a7090919063ffffffff16565b613a8e90919063ffffffff16565b601660003373ffffffffffffffffffffffffffffffffffffffff1673ffffffffffffffffffffffffffffffffffffffff168152602001908152602001600020819055506134358261342734600754613a7090919063ffffffff16565b613a8e90919063ffffffff16565b600781905550600360009054906101000a900473ffffffffffffffffffffffffffffffffffffffff1673ffffffffffffffffffffffffffffffffffffffff166108fc839081150290604051600060405180830381858888f19350505050151561349d57600080fd5b601460009054906101000a900460ff161561359c57601e60009054906101000a900473ffffffffffffffffffffffffffffffffffffffff1673ffffffffffffffffffffffffffffffffffffffff166340c10f1933346000604051602001526040518363ffffffff167c0100000000000000000000000000000000000000000000000000000000028152600401808373ffffffffffffffffffffffffffffffffffffffff1673ffffffffffffffffffffffffffffffffffffffff16815260200182815260200192505050602060405180830381600087803b151561357f57600080fd5b6102c65a03f1151561359057600080fd5b50505060405180519050505b5050565b6000809054906101000a900473ffffffffffffffffffffffffffffffffffffffff1673ffffffffffffffffffffffffffffffffffffffff163373ffffffffffffffffffffffffffffffffffffffff161415156135fb57600080fd5b6010548110151561360b57600080fd5b8060108190555050565b600b5481565b600160009054906101000a900473ffffffffffffffffffffffffffffffffffffffff1681565b6000601c80549050905090565b60186020528060005260406000206000915090505481565b600360009054906101000a900473ffffffffffffffffffffffffffffffffffffffff1673ffffffffffffffffffffffffffffffffffffffff163373ffffffffffffffffffffffffffffffffffffffff161415156136c257600080fd5b601f60009054906101000a900473ffffffffffffffffffffffffffffffffffffffff1673ffffffffffffffffffffffffffffffffffffffff16630b9276668787878787876040518763ffffffff167c0100000000000000000000000000000000000000000000000000000000028152600401808773ffffffffffffffffffffffffffffffffffffffff1673ffffffffffffffffffffffffffffffffffffffff1681526020018681526020018573ffffffffffffffffffffffffffffffffffffffff1673ffffffffffffffffffffffffffffffffffffffff1681526020018481526020018381526020018281526020019650505050505050600060405180830381600087803b15156137d257600080fd5b6102c65a03f115156137e357600080fd5b505050505050505050565b600160009054906101000a900473ffffffffffffffffffffffffffffffffffffffff1673ffffffffffffffffffffffffffffffffffffffff163373ffffffffffffffffffffffffffffffffffffffff1614151561384a57600080fd5b6001601560008373ffffffffffffffffffffffffffffffffffffffff1673ffffffffffffffffffffffffffffffffffffffff16815260200190815260200160002060006101000a81548160ff021916908315150217905550601c80548060010182816138b69190615c04565b9160005260206000209001600083909190916101000a81548173ffffffffffffffffffffffffffffffffffffffff021916908373ffffffffffffffffffffffffffffffffffffffff1602179055505050565b6000809054906101000a900473ffffffffffffffffffffffffffffffffffffffff1673ffffffffffffffffffffffffffffffffffffffff163373ffffffffffffffffffffffffffffffffffffffff1614151561396357600080fd5b600073ffffffffffffffffffffffffffffffffffffffff168173ffffffffffffffffffffffffffffffffffffffff161415151561399f57600080fd5b8073ffffffffffffffffffffffffffffffffffffffff166000809054906101000a900473ffffffffffffffffffffffffffffffffffffffff1673ffffffffffffffffffffffffffffffffffffffff167f8be0079c531659141344cd1fd0a4f28419497f9722a3daafe3b4186f6b6457e060405160405180910390a3806000806101000a81548173ffffffffffffffffffffffffffffffffffffffff021916908373ffffffffffffffffffffffffffffffffffffffff16021790555050565b602060149054906101000a900460ff1681565b6000808284019050838110151515613a8457fe5b8091505092915050565b6000828211151515613a9c57fe5b818303905092915050565b60008082840290506000841480613ac85750828482811515613ac557fe5b04145b1515613ad057fe5b8091505092915050565b6000808284811515613ae857fe5b0490508091505092915050565b6000601860008373ffffffffffffffffffffffffffffffffffffffff1673ffffffffffffffffffffffffffffffffffffffff16815260200190815260200160002060009055600090505b601d80549050811015613c0f576019600082815260200190815260200160002060008373ffffffffffffffffffffffffffffffffffffffff1673ffffffffffffffffffffffffffffffffffffffff16815260200190815260200160002060009055601a600082815260200190815260200160002060008373ffffffffffffffffffffffffffffffffffffffff1673ffffffffffffffffffffffffffffffffffffffff16815260200190815260200160002060009055613c08600182613a7090919063ffffffff16565b9050613b3f565b5050565b601b6000601d83815481101515613c2657fe5b906000526020600020906008020160000160009054906101000a900473ffffffffffffffffffffffffffffffffffffffff1673ffffffffffffffffffffffffffffffffffffffff1673ffffffffffffffffffffffffffffffffffffffff16815260200190815260200160002060006101000a81549060ff0219169055601760008281526020019081526020016000206000905550565b6000806000806000601d86815481101515613cd357fe5b90600052602060002090600802019350601f60009054906101000a900473ffffffffffffffffffffffffffffffffffffffff1673ffffffffffffffffffffffffffffffffffffffff1663508493bc8560000160009054906101000a900473ffffffffffffffffffffffffffffffffffffffff16306000604051602001526040518363ffffffff167c0100000000000000000000000000000000000000000000000000000000028152600401808373ffffffffffffffffffffffffffffffffffffffff1673ffffffffffffffffffffffffffffffffffffffff1681526020018273ffffffffffffffffffffffffffffffffffffffff1673ffffffffffffffffffffffffffffffffffffffff16815260200192505050602060405180830381600087803b1515613e0057600080fd5b6102c65a03f11515613e1157600080fd5b505050604051805190509250613e34846003015484613aa790919063ffffffff16565b9150601f60009054906101000a900473ffffffffffffffffffffffffffffffffffffffff1673ffffffffffffffffffffffffffffffffffffffff166346be96c36000848760000160009054906101000a900473ffffffffffffffffffffffffffffffffffffffff168789600501548c30600080600080604051602001526040518b63ffffffff167c0100000000000000000000000000000000000000000000000000000000028152600401808b73ffffffffffffffffffffffffffffffffffffffff1673ffffffffffffffffffffffffffffffffffffffff1681526020018a81526020018973ffffffffffffffffffffffffffffffffffffffff1673ffffffffffffffffffffffffffffffffffffffff1681526020018881526020018781526020018681526020018573ffffffffffffffffffffffffffffffffffffffff1673ffffffffffffffffffffffffffffffffffffffff1681526020018460ff16815260200183600102600019168152602001826001026000191681526020019a5050505050505050505050602060405180830381600087803b1515613fd657600080fd5b6102c65a03f11515613fe757600080fd5b505050604051805190509050828114806140045750836005015443115b945050505050919050565b600080600080600080601d8781548110151561402757fe5b90600052602060002090600802019550614119601e60009054906101000a900473ffffffffffffffffffffffffffffffffffffffff1673ffffffffffffffffffffffffffffffffffffffff166318160ddd6000604051602001526040518163ffffffff167c0100000000000000000000000000000000000000000000000000000000028152600401602060405180830381600087803b15156140c857600080fd5b6102c65a03f115156140d957600080fd5b5050506040518051905061410b601760008b815260200190815260200160002054600754613aa790919063ffffffff16565b613ada90919063ffffffff16565b90506000601f60009054906101000a900473ffffffffffffffffffffffffffffffffffffffff1673ffffffffffffffffffffffffffffffffffffffff166346be96c38860000160009054906101000a900473ffffffffffffffffffffffffffffffffffffffff166141978a6002015486613ada90919063ffffffff16565b6000868c600501548e30600080600080604051602001526040518b63ffffffff167c0100000000000000000000000000000000000000000000000000000000028152600401808b73ffffffffffffffffffffffffffffffffffffffff1673ffffffffffffffffffffffffffffffffffffffff1681526020018a81526020018973ffffffffffffffffffffffffffffffffffffffff1673ffffffffffffffffffffffffffffffffffffffff1681526020018881526020018781526020018681526020018573ffffffffffffffffffffffffffffffffffffffff1673ffffffffffffffffffffffffffffffffffffffff1681526020018460ff16815260200183600102600019168152602001826001026000191681526020019a5050505050505050505050602060405180830381600087803b15156142d357600080fd5b6102c65a03f115156142e457600080fd5b50505060405180519050141515614986578560020154866003015411156146375761432f8660060154601760008a815260200190815260200160002054613ada90919063ffffffff16565b9450600092505b601c8054905083101561463257601c8381548110151561435257fe5b906000526020600020900160009054906101000a900473ffffffffffffffffffffffffffffffffffffffff1691506019600088815260200190815260200160002060008373ffffffffffffffffffffffffffffffffffffffff1673ffffffffffffffffffffffffffffffffffffffff168152602001908152602001600020549350600084111561454c57601e60009054906101000a900473ffffffffffffffffffffffffffffffffffffffff1673ffffffffffffffffffffffffffffffffffffffff1663a9059cbb8361442e8888613a7090919063ffffffff16565b6000604051602001526040518363ffffffff167c0100000000000000000000000000000000000000000000000000000000028152600401808373ffffffffffffffffffffffffffffffffffffffff1673ffffffffffffffffffffffffffffffffffffffff16815260200182815260200192505050602060405180830381600087803b15156144bb57600080fd5b6102c65a03f115156144cc57600080fd5b50505060405180519050507f9abf19388aafe43a9c9e4eccb861f01f3f3a71f8e60c1ec8d4b1d87899ca60ac826001604051808373ffffffffffffffffffffffffffffffffffffffff1673ffffffffffffffffffffffffffffffffffffffff168152602001821515151581526020019250505060405180910390a1614617565b6000601a600089815260200190815260200160002060008473ffffffffffffffffffffffffffffffffffffffff1673ffffffffffffffffffffffffffffffffffffffff168152602001908152602001600020541115614616577f9abf19388aafe43a9c9e4eccb861f01f3f3a71f8e60c1ec8d4b1d87899ca60ac826000604051808373ffffffffffffffffffffffffffffffffffffffff1673ffffffffffffffffffffffffffffffffffffffff168152602001821515151581526020019250505060405180910390a15b5b61462b600184613a7090919063ffffffff16565b9250614336565b614981565b6000866007015411156149765761466e8660070154601760008a815260200190815260200160002054613ada90919063ffffffff16565b9450600092505b601c8054905083101561497157601c8381548110151561469157fe5b906000526020600020900160009054906101000a900473ffffffffffffffffffffffffffffffffffffffff169150601a600088815260200190815260200160002060008373ffffffffffffffffffffffffffffffffffffffff1673ffffffffffffffffffffffffffffffffffffffff168152602001908152602001600020549350600084111561488b57601e60009054906101000a900473ffffffffffffffffffffffffffffffffffffffff1673ffffffffffffffffffffffffffffffffffffffff1663a9059cbb8361476d8888613a7090919063ffffffff16565b6000604051602001526040518363ffffffff167c0100000000000000000000000000000000000000000000000000000000028152600401808373ffffffffffffffffffffffffffffffffffffffff1673ffffffffffffffffffffffffffffffffffffffff16815260200182815260200192505050602060405180830381600087803b15156147fa57600080fd5b6102c65a03f1151561480b57600080fd5b50505060405180519050507f9abf19388aafe43a9c9e4eccb861f01f3f3a71f8e60c1ec8d4b1d87899ca60ac826001604051808373ffffffffffffffffffffffffffffffffffffffff1673ffffffffffffffffffffffffffffffffffffffff168152602001821515151581526020019250505060405180910390a1614956565b60006019600089815260200190815260200160002060008473ffffffffffffffffffffffffffffffffffffffff1673ffffffffffffffffffffffffffffffffffffffff168152602001908152602001600020541115614955577f9abf19388aafe43a9c9e4eccb861f01f3f3a71f8e60c1ec8d4b1d87899ca60ac826000604051808373ffffffffffffffffffffffffffffffffffffffff1673ffffffffffffffffffffffffffffffffffffffff168152602001821515151581526020019250505060405180910390a15b5b61496a600184613a7090919063ffffffff16565b9250614675565b614980565b61497f876158c9565b5b5b614990565b61498f876158c9565b5b601e60009054906101000a900473ffffffffffffffffffffffffffffffffffffffff1673ffffffffffffffffffffffffffffffffffffffff1663f3123a3a6040518163ffffffff167c0100000000000000000000000000000000000000000000000000000000028152600401600060405180830381600087803b1515614a1557600080fd5b6102c65a03f11515614a2657600080fd5b50505050505050505050565b6000806000806000806000614a7d600654614a6f3073ffffffffffffffffffffffffffffffffffffffff1631600e54613aa790919063ffffffff16565b613ada90919063ffffffff16565b9650614abf600654614ab13073ffffffffffffffffffffffffffffffffffffffff1631601154613aa790919063ffffffff16565b613ada90919063ffffffff16565b9550614afd86614aef893073ffffffffffffffffffffffffffffffffffffffff1631613a8e90919063ffffffff16565b613a8e90919063ffffffff16565b9450600093505b601c80549050841015614dd557601c84815481101515614b2057fe5b906000526020600020900160009054906101000a900473ffffffffffffffffffffffffffffffffffffffff169250614bb4600754614ba6601660008773ffffffffffffffffffffffffffffffffffffffff1673ffffffffffffffffffffffffffffffffffffffff1681526020019081526020016000205488613aa790919063ffffffff16565b613ada90919063ffffffff16565b9150614d74614d65601e60009054906101000a900473ffffffffffffffffffffffffffffffffffffffff1673ffffffffffffffffffffffffffffffffffffffff166318160ddd6000604051602001526040518163ffffffff167c0100000000000000000000000000000000000000000000000000000000028152600401602060405180830381600087803b1515614c4a57600080fd5b6102c65a03f11515614c5b57600080fd5b50505060405180519050614d57601e60009054906101000a900473ffffffffffffffffffffffffffffffffffffffff1673ffffffffffffffffffffffffffffffffffffffff166370a08231886000604051602001526040518263ffffffff167c0100000000000000000000000000000000000000000000000000000000028152600401808273ffffffffffffffffffffffffffffffffffffffff1673ffffffffffffffffffffffffffffffffffffffff168152602001915050602060405180830381600087803b1515614d2d57600080fd5b6102c65a03f11515614d3e57600080fd5b505050604051805190508b613aa790919063ffffffff16565b613ada90919063ffffffff16565b83613a7090919063ffffffff16565b915081601660008573ffffffffffffffffffffffffffffffffffffffff1673ffffffffffffffffffffffffffffffffffffffff16815260200190815260200160002081905550614dce600185613a7090919063ffffffff16565b9350614b04565b614de88786613a7090919063ffffffff16565b90507fb04cca5c267a38ba92be2791f01b78de817a6d4d95155578a5f75a3896f5df1660075482604051808381526020018281526020019250505060405180910390a180600781905550600560009054906101000a900473ffffffffffffffffffffffffffffffffffffffff1673ffffffffffffffffffffffffffffffffffffffff166108fc879081150290604051600060405180830381858888f193505050501515614e9457600080fd5b50505050505050565b60008060008060008060008060008098505b601d8054905089101561563e576000601d8a815481101515614ecd57fe5b90600052602060002090600802016006015411156156235760009750600096505b601c805490508710156150dd576000601960008b81526020019081526020016000206000601c8a815481101515614f2157fe5b906000526020600020900160009054906101000a900473ffffffffffffffffffffffffffffffffffffffff1673ffffffffffffffffffffffffffffffffffffffff1673ffffffffffffffffffffffffffffffffffffffff16815260200190815260200160002054141595508515156150c2576150bf601e60009054906101000a900473ffffffffffffffffffffffffffffffffffffffff1673ffffffffffffffffffffffffffffffffffffffff166370a08231601c8a815481101515614fe357fe5b906000526020600020900160009054906101000a900473ffffffffffffffffffffffffffffffffffffffff166000604051602001526040518263ffffffff167c0100000000000000000000000000000000000000000000000000000000028152600401808273ffffffffffffffffffffffffffffffffffffffff1673ffffffffffffffffffffffffffffffffffffffff168152602001915050602060405180830381600087803b151561509557600080fd5b6102c65a03f115156150a657600080fd5b5050506040518051905089613a7090919063ffffffff16565b97505b6150d6600188613a7090919063ffffffff16565b9650614eee565b600654945087601760008b815260200190815260200160002054101561513e5761513788615129600654601760008e815260200190815260200160002054613aa790919063ffffffff16565b613ada90919063ffffffff16565b945061524a565b87601760008b815260200190815260200160002054039350600084111561524957601e60009054906101000a900473ffffffffffffffffffffffffffffffffffffffff1673ffffffffffffffffffffffffffffffffffffffff166340c10f1930866000604051602001526040518363ffffffff167c0100000000000000000000000000000000000000000000000000000000028152600401808373ffffffffffffffffffffffffffffffffffffffff1673ffffffffffffffffffffffffffffffffffffffff16815260200182815260200192505050602060405180830381600087803b151561522c57600080fd5b6102c65a03f1151561523d57600080fd5b50505060405180519050505b5b600096505b601c8054905087101561562257601c8781548110151561526b57fe5b906000526020600020900160009054906101000a900473ffffffffffffffffffffffffffffffffffffffff1692506000601960008b815260200190815260200160002060008573ffffffffffffffffffffffffffffffffffffffff1673ffffffffffffffffffffffffffffffffffffffff1681526020019081526020016000205414159550601e60009054906101000a900473ffffffffffffffffffffffffffffffffffffffff1673ffffffffffffffffffffffffffffffffffffffff166370a08231846000604051602001526040518263ffffffff167c0100000000000000000000000000000000000000000000000000000000028152600401808273ffffffffffffffffffffffffffffffffffffffff1673ffffffffffffffffffffffffffffffffffffffff168152602001915050602060405180830381600087803b15156153b557600080fd5b6102c65a03f115156153c657600080fd5b505050604051805190509150851580156153e05750600082115b156156075761540c6006546153fe8488613aa790919063ffffffff16565b613ada90919063ffffffff16565b9050601e60009054906101000a900473ffffffffffffffffffffffffffffffffffffffff1673ffffffffffffffffffffffffffffffffffffffff16632bee7bde84836000604051602001526040518363ffffffff167c0100000000000000000000000000000000000000000000000000000000028152600401808373ffffffffffffffffffffffffffffffffffffffff1673ffffffffffffffffffffffffffffffffffffffff16815260200182815260200192505050602060405180830381600087803b15156154db57600080fd5b6102c65a03f115156154ec57600080fd5b505050604051805190505061552b6001601d8b81548110151561550b57fe5b906000526020600020906008020160070154613a7090919063ffffffff16565b601d8a81548110151561553a57fe5b9060005260206000209060080201600701819055506155b281601a60008c815260200190815260200160002060008673ffffffffffffffffffffffffffffffffffffffff1673ffffffffffffffffffffffffffffffffffffffff16815260200190815260200160002054613a7090919063ffffffff16565b601a60008b815260200190815260200160002060008573ffffffffffffffffffffffffffffffffffffffff1673ffffffffffffffffffffffffffffffffffffffff168152602001908152602001600020819055505b61561b600188613a7090919063ffffffff16565b965061524f565b5b61563760018a613a7090919063ffffffff16565b9850614eaf565b505050505050505050565b600080600091505b601d805490508210156158c5576000601d8381548110151561566f57fe5b90600052602060002090600802016006015411156158aa57615769601e60009054906101000a900473ffffffffffffffffffffffffffffffffffffffff1673ffffffffffffffffffffffffffffffffffffffff166318160ddd6000604051602001526040518163ffffffff167c0100000000000000000000000000000000000000000000000000000000028152600401602060405180830381600087803b151561571857600080fd5b6102c65a03f1151561572957600080fd5b5050506040518051905061575b6017600086815260200190815260200160002054600754613aa790919063ffffffff16565b613ada90919063ffffffff16565b9050601f60009054906101000a900473ffffffffffffffffffffffffffffffffffffffff1673ffffffffffffffffffffffffffffffffffffffff1663d0e30db0826040518263ffffffff167c01000000000000000000000000000000000000000000000000000000000281526004016000604051808303818588803b15156157f057600080fd5b6125ee5a03f1151561580157600080fd5b50505050602060009054906101000a900473ffffffffffffffffffffffffffffffffffffffff1673ffffffffffffffffffffffffffffffffffffffff166360fc3f8e836040518263ffffffff167c010000000000000000000000000000000000000000000000000000000002815260040180828152602001915050600060405180830381600087803b151561589557600080fd5b6102c65a03f115156158a657600080fd5b5050505b6158be600183613a7090919063ffffffff16565b9150615651565b5050565b60008060008092505b601c80549050831015615ae057601c838154811015156158ee57fe5b906000526020600020900160009054906101000a900473ffffffffffffffffffffffffffffffffffffffff1691506159cf601a600086815260200190815260200160002060008473ffffffffffffffffffffffffffffffffffffffff1673ffffffffffffffffffffffffffffffffffffffff168152602001908152602001600020546019600087815260200190815260200160002060008573ffffffffffffffffffffffffffffffffffffffff1673ffffffffffffffffffffffffffffffffffffffff16815260200190815260200160002054613a7090919063ffffffff16565b9050600081141515615ac557601e60009054906101000a900473ffffffffffffffffffffffffffffffffffffffff1673ffffffffffffffffffffffffffffffffffffffff1663a9059cbb83836000604051602001526040518363ffffffff167c0100000000000000000000000000000000000000000000000000000000028152600401808373ffffffffffffffffffffffffffffffffffffffff1673ffffffffffffffffffffffffffffffffffffffff16815260200182815260200192505050602060405180830381600087803b1515615aa857600080fd5b6102c65a03f11515615ab957600080fd5b50505060405180519050505b615ad9600184613a7090919063ffffffff16565b92506158d2565b50505050565b5080546000825560080290600052602060002090810190615b079190615c30565b50565b50805460018160011615610100020316600290046000825580601f10615b305750615b4f565b601f016020900490600052602060002090810190615b4e9190615cb6565b5b50565b815481835581811511615b7f57600802816008028360005260206000209182019101615b7e9190615c30565b5b505050565b828054600181600116156101000203166002900490600052602060002090601f016020900481019282601f10615bc557805160ff1916838001178555615bf3565b82800160010185558215615bf3579182015b82811115615bf2578251825591602001919060010190615bd7565b5b509050615c009190615cb6565b5090565b815481835581811511615c2b57818360005260206000209182019101615c2a9190615cb6565b5b505050565b615cb391905b80821115615caf57600080820160006101000a81549073ffffffffffffffffffffffffffffffffffffffff0219169055600182016000615c769190615b0a565b60028201600090556003820160009055600482016000905560058201600090556006820160009055600782016000905550600801615c36565b5090565b90565b615cd891905b80821115615cd4576000816000905550600101615cbc565b5090565b905600a165627a7a723058201fe7fef88a9a811ca2eed5ad2a707eccd290146c6159bea984c4b40aed73bf740029",
  "source": "pragma solidity ^0.4.18;\r\n\r\nimport 'zeppelin-solidity/contracts/token/MintableToken.sol';\r\nimport 'zeppelin-solidity/contracts/math/SafeMath.sol';\r\nimport './etherdelta.sol';\r\nimport './oraclizeAPI_0.4.sol';\r\n\r\n// The main contract that keeps track of:\r\n// - Who is in the fund\r\n// - How much the fund has\r\n// - Each person's Share\r\n// - Each person's Control\r\n// - The current list of Proposals\r\ncontract GroupFund is Ownable {\r\n  using SafeMath for uint256;\r\n\r\n  enum CyclePhase { ChangeMaking, ProposalMaking, Waiting, Ended, Finalized }\r\n\r\n  struct Proposal {\r\n    address tokenAddress;\r\n    string tokenSymbol;\r\n    uint256 buyPriceInWeis;\r\n    uint256 sellPriceInWeis;\r\n    uint256 buyOrderExpirationBlockNum;\r\n    uint256 sellOrderExpirationBlockNum;\r\n    uint256 numFor;\r\n    uint256 numAgainst;\r\n  }\r\n\r\n  modifier during(CyclePhase phase) {\r\n    require(cyclePhase == phase);\r\n    _;\r\n  }\r\n\r\n  modifier onlyParticipant {\r\n    require(isParticipant[msg.sender]);\r\n    _;\r\n  }\r\n\r\n  modifier onlyOraclize {\r\n    require(msg.sender == oraclizeAddr);\r\n    _;\r\n  }\r\n\r\n  // Address of the control token\r\n  address public controlTokenAddr;\r\n\r\n  // Address of the etherDelta decentralized exchange's address\r\n  address public etherDeltaAddr;\r\n\r\n  // Address of the helper contract that calls Oraclize\r\n  address public oraclizeAddr;\r\n\r\n  // The creator of the GroupFund\r\n  address public creator;\r\n\r\n  // Address of the developers ^_^\r\n  address public developerFeeAccount;\r\n\r\n  uint256 public tenToDecimals;\r\n\r\n  // The total amount of funds held by the group\r\n  uint256 public totalFundsInWeis;\r\n\r\n  //The start time for the current investment cycle, in seconds since Unix epoch\r\n  uint256 public startTimeOfCycle;\r\n\r\n  //Temporal length of each investment cycle, in seconds\r\n  uint256 public timeOfCycle;\r\n\r\n  //Temporal length of change making period at start of each cycle, in seconds\r\n  uint256 public timeOfChangeMaking;\r\n\r\n  //Temporal length of proposal making period at start of each cycle, in seconds\r\n  uint256 public timeOfProposalMaking;\r\n\r\n  //Proportion of control people who vote against a proposal have to stake\r\n  uint256 public minStakeProportion;\r\n\r\n  // The maximum number of proposals a participant can make\r\n  uint256 public maxProposals;\r\n\r\n  uint256 public commissionRate;\r\n\r\n  uint256 public orderExpirationTimeInBlocks;\r\n\r\n  //The proportion of contract balance reserved for Oraclize fees\r\n  uint256 public oraclizeFeeProportion;\r\n\r\n  uint256 public developerFeeProportion;\r\n\r\n  //The max number of proposals a member can create\r\n  uint256 public maxProposalsPerMember;\r\n\r\n  uint256 public numProposals;\r\n\r\n  bool public isFirstCycle;\r\n\r\n  bool public initialized;\r\n\r\n  mapping(address => bool) public isParticipant;\r\n\r\n  // Mapping from Participant address to their balance\r\n  mapping(address => uint256) public balanceOf;\r\n\r\n  // Mapping from Proposal to total amount of Control Tokens being staked by supporters\r\n  mapping(uint256 => uint256) public forStakedControlOfProposal;\r\n\r\n  //Records the number of proposals a user has made in the current cycle\r\n  mapping(address => uint256) public createdProposalCount;\r\n\r\n  // Mapping from Proposal to Participant to number of Control Tokens being staked\r\n  mapping(uint256 => mapping(address => uint256)) public forStakedControlOfProposalOfUser;\r\n  mapping(uint256 => mapping(address => uint256)) public againstStakedControlOfProposalOfUser;\r\n\r\n  // Mapping to check if a proposal for a token has already been made\r\n  mapping(address => bool) public isTokenAlreadyProposed;\r\n\r\n  address[] public participants; // A list of everyone who is participating in the GroupFund\r\n  Proposal[] public proposals;\r\n\r\n  // Referrents to other contracts\r\n  ControlToken internal cToken;\r\n  EtherDelta internal etherDelta;\r\n  OraclizeHandler internal oraclize;\r\n\r\n  CyclePhase public cyclePhase;\r\n\r\n  event CycleStarted(uint256 timestamp);\r\n  event Deposit(address _sender, uint256 _amountInWeis);\r\n  event Withdraw(address _sender, uint256 _amountInWeis);\r\n  event ChangeMakingTimeEnded(uint256 timestamp);\r\n  event NewProposal(uint256 _id, address _tokenAddress, string _tokenSymbol, uint256 _amountInWeis);\r\n  event SupportedProposal(uint256 _id, uint256 _amountInWeis);\r\n  event ProposalMakingTimeEnded(uint256 timestamp);\r\n  event CycleEnded(uint256 timestamp);\r\n  event CycleFinalized(uint256 timestamp);\r\n  event ROI(uint256 _beforeTotalFunds, uint256 _afterTotalFunds);\r\n  event PredictionResult(address _member, bool _success);\r\n\r\n  // GroupFund constructor\r\n  function GroupFund(\r\n    address _etherDeltaAddr,\r\n    address _developerFeeAccount,\r\n    uint256 _tenToDecimals,\r\n    uint256 _timeOfCycle,\r\n    uint256 _timeOfChangeMaking,\r\n    uint256 _timeOfProposalMaking,\r\n    uint256 _minStakeProportion,\r\n    uint256 _maxProposals,\r\n    uint256 _commissionRate,\r\n    uint256 _orderExpirationTimeInBlocks,\r\n    uint256 _oraclizeFeeProportion,\r\n    uint256 _developerFeeProportion,\r\n    uint256 _maxProposalsPerMember\r\n  )\r\n    public\r\n  {\r\n    require(_timeOfChangeMaking.add(_timeOfProposalMaking) <= _timeOfCycle);\r\n\r\n    etherDeltaAddr = _etherDeltaAddr;\r\n    developerFeeAccount = _developerFeeAccount;\r\n    tenToDecimals = _tenToDecimals;\r\n    timeOfCycle = _timeOfCycle;\r\n    timeOfChangeMaking = _timeOfChangeMaking;\r\n    timeOfProposalMaking = _timeOfProposalMaking;\r\n    minStakeProportion = _minStakeProportion;\r\n    maxProposals = _maxProposals;\r\n    commissionRate = _commissionRate;\r\n    orderExpirationTimeInBlocks = _orderExpirationTimeInBlocks;\r\n    oraclizeFeeProportion = _oraclizeFeeProportion;\r\n    developerFeeProportion = _developerFeeProportion;\r\n    maxProposalsPerMember = _maxProposalsPerMember;\r\n    startTimeOfCycle = 0;\r\n    isFirstCycle = true;\r\n    cyclePhase = CyclePhase.Finalized;\r\n    creator = msg.sender;\r\n    numProposals = 0;\r\n\r\n    //Initialize etherDelta contract\r\n    etherDelta = EtherDelta(etherDeltaAddr);\r\n  }\r\n\r\n  // Constructor for the Control Token and Oraclize contracts\r\n  function initializeSubcontracts(address _cTokenAddr, address _oraclizeAddr) public {\r\n    require(msg.sender == creator);\r\n    require(!initialized);\r\n\r\n    initialized = true;\r\n\r\n    controlTokenAddr = _cTokenAddr;\r\n    oraclizeAddr = _oraclizeAddr;\r\n\r\n    cToken = ControlToken(controlTokenAddr);\r\n    oraclize = OraclizeHandler(oraclizeAddr);\r\n  }\r\n\r\n  // Allow updating of the exchange's address\r\n  function changeEtherDeltaAddress(address _newAddr) public onlyOwner {\r\n    etherDeltaAddr = _newAddr;\r\n\r\n    // Creates new EtherDelta API contract with the new address\r\n    etherDelta = EtherDelta(_newAddr);\r\n    oraclize.__changeEtherDeltaAddress(_newAddr);\r\n  }\r\n\r\n  // Allow the developer's address to change\r\n  function changeDeveloperFeeAccount(address _newAddr) public onlyOwner {\r\n    developerFeeAccount = _newAddr;\r\n  }\r\n\r\n  //*******\r\n  //Getters\r\n  //*******\r\n  function participantsCount() public view returns(uint256 _count) {\r\n    return participants.length;\r\n  }\r\n\r\n  function proposalsCount() public view returns(uint256 _count) {\r\n    return proposals.length;\r\n  }\r\n\r\n  //*******\r\n  //Fee Proportion setters\r\n  //*******\r\n  function changeOraclizeFeeProportion(uint256 _newProp) public onlyOwner {\r\n    require(_newProp < oraclizeFeeProportion);\r\n    oraclizeFeeProportion = _newProp;\r\n  }\r\n\r\n  function changeDeveloperFeeProportion(uint256 _newProp) public onlyOwner {\r\n    require(_newProp < developerFeeProportion);\r\n    developerFeeProportion = _newProp;\r\n  }\r\n\r\n  // Modify the commission that gets distributed to token holders\r\n  function changeCommissionRate(uint256 _newProp) public onlyOwner {\r\n    commissionRate = _newProp;\r\n  }\r\n\r\n  function topupOraclizeFees() public payable onlyOwner {\r\n    oraclizeAddr.transfer(msg.value);\r\n  }\r\n\r\n  //Starts a new cycle\r\n  function startNewCycle() public during(CyclePhase.Finalized) {\r\n\r\n    // Contract needs to be initialized\r\n    // (Used to prevent function calls before initializing subcontracts)\r\n    require(initialized);\r\n\r\n    // Update the Cycles\r\n    cyclePhase = CyclePhase.ChangeMaking;\r\n    startTimeOfCycle = now;\r\n\r\n    //Reset data\r\n    for (uint256 i = 0; i < participants.length; i = i.add(1)) {\r\n      __resetMemberData(participants[i]);\r\n    }\r\n\r\n    for (i = 0; i < proposals.length; i = i.add(1)) {\r\n      __resetProposalData(i);\r\n    }\r\n    oraclize.__deleteTokenSymbolOfProposal();\r\n    delete proposals;\r\n    delete numProposals;\r\n\r\n    // Updated the time when the cycle started\r\n    CycleStarted(now);\r\n  }\r\n\r\n  // *******\r\n  // Reset functions\r\n  //*******\r\n  function __resetMemberData(address _addr) internal {\r\n    delete createdProposalCount[_addr];\r\n    for (uint256 i = 0; i < proposals.length; i = i.add(1)) {\r\n      delete forStakedControlOfProposalOfUser[i][_addr];\r\n      delete againstStakedControlOfProposalOfUser[i][_addr];\r\n    }\r\n  }\r\n\r\n  function __resetProposalData(uint256 _proposalId) internal {\r\n    delete isTokenAlreadyProposed[proposals[_proposalId].tokenAddress];\r\n    delete forStakedControlOfProposal[_proposalId];\r\n  }\r\n\r\n  //Change making time functions\r\n\r\n  function deposit()\r\n    public\r\n    payable\r\n    during(CyclePhase.ChangeMaking)\r\n  {\r\n    if (!isParticipant[msg.sender]) {\r\n      participants.push(msg.sender);\r\n      isParticipant[msg.sender] = true;\r\n    }\r\n\r\n    //Register investment\r\n    uint256 fees = msg.value.mul(oraclizeFeeProportion).div(tenToDecimals);\r\n    balanceOf[msg.sender] = balanceOf[msg.sender].add(msg.value).sub(fees);\r\n    totalFundsInWeis = totalFundsInWeis.add(msg.value).sub(fees);\r\n    oraclizeAddr.transfer(fees);\r\n\r\n    if (isFirstCycle) {\r\n      //Give control tokens proportional to investment\r\n      cToken.mint(msg.sender, msg.value);\r\n    }\r\n  }\r\n\r\n  // Withdraw from GroupFund\r\n  function withdraw(uint256 _amountInWeis)\r\n    public\r\n    during(CyclePhase.ChangeMaking)\r\n    onlyParticipant\r\n  {\r\n    require(!isFirstCycle);\r\n\r\n    totalFundsInWeis = totalFundsInWeis.sub(_amountInWeis);\r\n    balanceOf[msg.sender] = balanceOf[msg.sender].sub(_amountInWeis);\r\n\r\n    msg.sender.transfer(_amountInWeis);\r\n  }\r\n\r\n  function endChangeMakingTime() public during(CyclePhase.ChangeMaking) {\r\n    require(now >= startTimeOfCycle.add(timeOfChangeMaking));\r\n\r\n    cyclePhase = CyclePhase.ProposalMaking;\r\n\r\n    ChangeMakingTimeEnded(now);\r\n  }\r\n\r\n  //Proposal making time functions\r\n  function createProposal(\r\n    address _tokenAddress,\r\n    string _tokenSymbol,\r\n    uint256 _stakeInWeis\r\n  )\r\n    public\r\n    during(CyclePhase.ProposalMaking)\r\n    onlyParticipant\r\n  {\r\n    require(numProposals < maxProposals);\r\n    require(!isTokenAlreadyProposed[_tokenAddress]);\r\n    require(createdProposalCount[msg.sender] < maxProposalsPerMember);\r\n\r\n    proposals.push(Proposal({\r\n      tokenAddress: _tokenAddress,\r\n      tokenSymbol: _tokenSymbol,\r\n      buyPriceInWeis: 0,\r\n      sellPriceInWeis: 0,\r\n      numFor: 0,\r\n      numAgainst: 0,\r\n      buyOrderExpirationBlockNum: 0,\r\n      sellOrderExpirationBlockNum: 0\r\n    }));\r\n\r\n    isTokenAlreadyProposed[_tokenAddress] = true;\r\n    oraclize.__pushTokenSymbolOfProposal(_tokenSymbol);\r\n    createdProposalCount[msg.sender] = createdProposalCount[msg.sender].add(1);\r\n    numProposals = numProposals.add(1);\r\n\r\n    //Stake control tokens\r\n    uint256 proposalId = proposals.length - 1;\r\n    supportProposal(proposalId, _stakeInWeis);\r\n\r\n    NewProposal(proposalId, _tokenAddress, _tokenSymbol, _stakeInWeis);\r\n  }\r\n\r\n  function supportProposal(uint256 _proposalId, uint256 _stakeInWeis)\r\n    public\r\n    during(CyclePhase.ProposalMaking)\r\n    onlyParticipant\r\n  {\r\n    require(_proposalId < proposals.length);\r\n    require(isTokenAlreadyProposed[proposals[_proposalId].tokenAddress]); //Non-empty proposal\r\n\r\n    //Stake control tokens\r\n\r\n    //Ensure stake is larger than the minimum proportion of Kairo balance\r\n    require(_stakeInWeis.mul(tenToDecimals).div(cToken.balanceOf(msg.sender)) >= minStakeProportion);\r\n    //Collect staked control tokens\r\n    cToken.ownerCollectFrom(msg.sender, _stakeInWeis);\r\n    //Update stake data\r\n    proposals[_proposalId].numFor = proposals[_proposalId].numFor.add(1);\r\n    forStakedControlOfProposal[_proposalId] = forStakedControlOfProposal[_proposalId].add(_stakeInWeis);\r\n    forStakedControlOfProposalOfUser[_proposalId][msg.sender] = forStakedControlOfProposalOfUser[_proposalId][msg.sender].add(_stakeInWeis);\r\n\r\n    SupportedProposal(_proposalId, _stakeInWeis);\r\n  }\r\n\r\n  function cancelProposalSupport(uint256 _proposalId)\r\n    public\r\n    during(CyclePhase.ProposalMaking)\r\n    onlyParticipant\r\n  {\r\n    require(_proposalId < proposals.length);\r\n    require(proposals[_proposalId].numFor > 0); //Non-empty proposal\r\n\r\n    //Remove stake\r\n    uint256 stake = forStakedControlOfProposalOfUser[_proposalId][msg.sender];\r\n    delete forStakedControlOfProposalOfUser[_proposalId][msg.sender];\r\n    forStakedControlOfProposal[_proposalId] = forStakedControlOfProposal[_proposalId].sub(stake);\r\n\r\n    //Remove support\r\n    proposals[_proposalId].numFor = proposals[_proposalId].numFor.sub(1);\r\n\r\n    //Return stake\r\n    cToken.transfer(msg.sender, stake);\r\n\r\n    //Delete proposal if necessary\r\n    if (forStakedControlOfProposal[_proposalId] == 0) {\r\n      __resetProposalData(_proposalId);\r\n      numProposals = numProposals.sub(1);\r\n      delete proposals[_proposalId];\r\n    }\r\n  }\r\n\r\n  function endProposalMakingTime()\r\n    public\r\n    during(CyclePhase.ProposalMaking)\r\n  {\r\n    require(now >= startTimeOfCycle.add(timeOfChangeMaking).add(timeOfProposalMaking));\r\n\r\n    cyclePhase = CyclePhase.Waiting;\r\n\r\n    __stakeAgainstVotes();\r\n    __makeInvestments();\r\n\r\n    ProposalMakingTimeEnded(now);\r\n  }\r\n\r\n  function __stakeAgainstVotes() internal {\r\n    //Stake against votes\r\n    for (uint256 i = 0; i < proposals.length; i = i.add(1)) {\r\n      if (proposals[i].numFor > 0) { //Ensure proposal isn't a deleted one\r\n        //Calculate total Kairo balance of users against the proposal\r\n        uint256 againstTotalBalance = 0;\r\n        for (uint256 j = 0; j < participants.length; j = j.add(1)) {\r\n          bool isFor = forStakedControlOfProposalOfUser[i][participants[j]] != 0;\r\n          if (!isFor) {\r\n            againstTotalBalance = againstTotalBalance.add(cToken.balanceOf(participants[j]));\r\n          }\r\n        }\r\n        //Calculate the proportion of Kairo each user against the proposal have to stake\r\n        uint256 stakeProportion = tenToDecimals;\r\n        if (forStakedControlOfProposal[i] < againstTotalBalance) {\r\n          stakeProportion = forStakedControlOfProposal[i].mul(tenToDecimals).div(againstTotalBalance);\r\n        } else {\r\n          //Mint new Kairo to fill the gap\r\n          uint256 mintAmount = forStakedControlOfProposal[i] - againstTotalBalance;\r\n          if (mintAmount > 0) {\r\n            cToken.mint(address(this), mintAmount);\r\n          }\r\n        }\r\n        //Collect stakes\r\n        for (j = 0; j < participants.length; j = j.add(1)) {\r\n          address participant = participants[j];\r\n          isFor = forStakedControlOfProposalOfUser[i][participant] != 0;\r\n          uint256 userBalance = cToken.balanceOf(participant);\r\n          if (!isFor && userBalance > 0) {\r\n            uint256 stake = stakeProportion.mul(userBalance).div(tenToDecimals);\r\n            cToken.ownerCollectFrom(participant, stake);\r\n            proposals[i].numAgainst = proposals[i].numAgainst.add(1);\r\n            againstStakedControlOfProposalOfUser[i][participant] = againstStakedControlOfProposalOfUser[i][participant].add(stake);\r\n          }\r\n        }\r\n      }\r\n    }\r\n  }\r\n\r\n  function __makeInvestments() internal {\r\n    //Invest in tokens using etherdelta\r\n    for (uint256 i = 0; i < proposals.length; i = i.add(1)) {\r\n      if (proposals[i].numFor > 0) { //Ensure proposal isn't a deleted one\r\n        //Deposit ether\r\n        uint256 investAmount = totalFundsInWeis.mul(forStakedControlOfProposal[i]).div(cToken.totalSupply());\r\n        etherDelta.deposit.value(investAmount)();\r\n        oraclize.__grabCurrentPriceFromOraclize(i);\r\n      }\r\n    }\r\n  }\r\n\r\n  function endCycle() public during(CyclePhase.Waiting) {\r\n    require(now >= startTimeOfCycle.add(timeOfCycle));\r\n\r\n    cyclePhase = CyclePhase.Ended;\r\n    isFirstCycle = false;\r\n\r\n    //Sell all invested tokens\r\n    for (uint256 i = 0; i < proposals.length; i = i.add(1)) {\r\n      if (proposals[i].numFor > 0) {\r\n        //Ensure proposal isn't a deleted one\r\n        oraclize.__grabCurrentPriceFromOraclize(i);\r\n      }\r\n    }\r\n\r\n    CycleEnded(now);\r\n  }\r\n\r\n  function finalizeEndCycle() public during(CyclePhase.Ended) {\r\n    cyclePhase = CyclePhase.Finalized;\r\n\r\n    //Ensure all the sell orders are inactive\r\n    for (uint256 proposalId = 0; proposalId < proposals.length; proposalId = proposalId.add(1)) {\r\n      if (proposals[proposalId].numFor > 0) {\r\n        //Ensure proposal isn't a deleted one\r\n        require(__sellOrderFinished(proposalId));\r\n        __settleBets(proposalId);\r\n      }\r\n    }\r\n    //Withdraw from etherdelta\r\n    uint256 balance = etherDelta.tokens(address(0), address(this));\r\n    etherDelta.withdraw(balance);\r\n\r\n    //Get all remaining funds from OraclizeHandler\r\n    oraclize.__returnAllFunds();\r\n\r\n    __distributeFundsAfterCycleEnd();\r\n\r\n    CycleFinalized(now);\r\n  }\r\n\r\n  //Internal use functions\r\n\r\n  function __sellOrderFinished(uint256 _proposalId) internal returns(bool) {\r\n    Proposal storage prop = proposals[_proposalId];\r\n    uint256 sellTokenAmount = etherDelta.tokens(prop.tokenAddress, address(this));\r\n    uint256 getWeiAmount = sellTokenAmount.mul(prop.sellPriceInWeis);\r\n    uint256 amountFilled = etherDelta.amountFilled(address(0), getWeiAmount, prop.tokenAddress, sellTokenAmount, prop.sellOrderExpirationBlockNum, _proposalId, address(this), 0, 0, 0);\r\n\r\n    return amountFilled == sellTokenAmount || block.number > prop.sellOrderExpirationBlockNum;\r\n  }\r\n\r\n  //Seperated from finalizeEndCycle() to avoid StackTooDeep error\r\n  function __settleBets(uint256 _proposalId) internal {\r\n    //Settle bets\r\n    Proposal storage prop = proposals[_proposalId];\r\n    uint256 tokenReward;\r\n    uint256 stake;\r\n    uint256 j;\r\n    address participant;\r\n    uint256 investAmount = totalFundsInWeis.mul(forStakedControlOfProposal[_proposalId]).div(cToken.totalSupply());\r\n    if (etherDelta.amountFilled(prop.tokenAddress, investAmount.div(prop.buyPriceInWeis), address(0), investAmount, prop.sellOrderExpirationBlockNum, _proposalId, address(this), 0, 0, 0) != 0) {\r\n      if (prop.sellPriceInWeis > prop.buyPriceInWeis) {\r\n        //For wins\r\n        tokenReward = forStakedControlOfProposal[_proposalId].div(prop.numFor);\r\n        for (j = 0; j < participants.length; j = j.add(1)) {\r\n          participant = participants[j];\r\n          stake = forStakedControlOfProposalOfUser[_proposalId][participant];\r\n          if (stake > 0) {\r\n            //Give control tokens\r\n            cToken.transfer(participant, stake.add(tokenReward));\r\n            //Won bet\r\n            PredictionResult(participant, true);\r\n          } else {\r\n            if (againstStakedControlOfProposalOfUser[_proposalId][participant] > 0) {\r\n              //Lost bet\r\n              PredictionResult(participant, false);\r\n            }\r\n          }\r\n        }\r\n      } else {\r\n        //Against wins\r\n        if (prop.numAgainst > 0) {\r\n          tokenReward = forStakedControlOfProposal[_proposalId].div(prop.numAgainst);\r\n          for (j = 0; j < participants.length; j = j.add(1)) {\r\n            participant = participants[j];\r\n            stake = againstStakedControlOfProposalOfUser[_proposalId][participant];\r\n            if (stake > 0) {\r\n              //Give control tokens\r\n              cToken.transfer(participant, stake.add(tokenReward));\r\n              //Won bet\r\n              PredictionResult(participant, true);\r\n            } else {\r\n              if (forStakedControlOfProposalOfUser[_proposalId][participant] > 0) {\r\n                //Lost bet\r\n                PredictionResult(participant, false);\r\n              }\r\n            }\r\n          }\r\n        } else {\r\n          //Everyone f'ed up somehow. No point in punishing. Return stakes.\r\n          __returnStakes(_proposalId);\r\n        }\r\n      }\r\n    } else {\r\n      //Buy order failed completely. Give back stakes.\r\n      __returnStakes(_proposalId);\r\n    }\r\n    //Burn any Kairo left in GroupFund's account\r\n    cToken.burnOwnerBalance();\r\n  }\r\n\r\n  function __returnStakes(uint256 proposalId) internal {\r\n    for (uint256 j = 0; j < participants.length; j = j.add(1)) {\r\n      address participant = participants[j];\r\n      uint256 stake = forStakedControlOfProposalOfUser[proposalId][participant].add(againstStakedControlOfProposalOfUser[proposalId][participant]);\r\n      if (stake != 0) {\r\n        cToken.transfer(participant, stake);\r\n      }\r\n    }\r\n  }\r\n\r\n  //Seperated from finalizeEndCycle() to avoid StackTooDeep error\r\n  function __distributeFundsAfterCycleEnd() internal {\r\n    //Distribute funds\r\n    uint256 totalCommission = commissionRate.mul(this.balance).div(tenToDecimals);\r\n    uint256 devFee = developerFeeProportion.mul(this.balance).div(tenToDecimals);\r\n    uint256 newTotalRegularFunds = this.balance.sub(totalCommission).sub(devFee);\r\n\r\n    for (uint256 i = 0; i < participants.length; i = i.add(1)) {\r\n      address participant = participants[i];\r\n      uint256 newBalance = newTotalRegularFunds.mul(balanceOf[participant]).div(totalFundsInWeis);\r\n      //Add commission\r\n      newBalance = newBalance.add(totalCommission.mul(cToken.balanceOf(participant)).div(cToken.totalSupply()));\r\n      //Update balance\r\n      balanceOf[participant] = newBalance;\r\n    }\r\n\r\n    uint256 newTotalFunds = newTotalRegularFunds.add(totalCommission);\r\n    ROI(totalFundsInWeis, newTotalFunds);\r\n    totalFundsInWeis = newTotalFunds;\r\n\r\n    developerFeeAccount.transfer(devFee);\r\n  }\r\n\r\n  function __addControlTokenReceipientAsParticipant(address _receipient) public {\r\n    require(msg.sender == controlTokenAddr);\r\n    isParticipant[_receipient] = true;\r\n    participants.push(_receipient);\r\n  }\r\n\r\n  function __makeOrder(address _tokenGet, uint _amountGet, address _tokenGive, uint _amountGive, uint _expires, uint _nonce) public onlyOraclize {\r\n    etherDelta.order(_tokenGet, _amountGet, _tokenGive, _amountGive, _expires, _nonce);\r\n  }\r\n\r\n  function __setBuyPriceAndExpirationBlock(uint256 _proposalId, uint256 _buyPrice, uint256 _expires) public onlyOraclize {\r\n    proposals[_proposalId].buyPriceInWeis = _buyPrice;\r\n    proposals[_proposalId].buyOrderExpirationBlockNum = _expires;\r\n  }\r\n\r\n  function __setSellPriceAndExpirationBlock(uint256 _proposalId, uint256 _sellPrice, uint256 _expires) public onlyOraclize {\r\n    proposals[_proposalId].sellPriceInWeis = _sellPrice;\r\n    proposals[_proposalId].sellOrderExpirationBlockNum = _expires;\r\n  }\r\n\r\n  function() public payable {\r\n    if (msg.sender != etherDeltaAddr) {\r\n      revert();\r\n    }\r\n  }\r\n}\r\n\r\ncontract OraclizeHandler is usingOraclize, Ownable {\r\n  using SafeMath for uint256;\r\n\r\n  enum CyclePhase { ChangeMaking, ProposalMaking, Waiting, Ended, Finalized }\r\n\r\n  // URL for querying prices, default is set to cryptocompare\r\n  // Later on, modify this to be more flexible for additional queries, etc.\r\n  string public priceCheckURL1;\r\n  string public priceCheckURL2;\r\n  string public priceCheckURL3;\r\n\r\n  address public controlTokenAddr;\r\n  address public etherDeltaAddr;\r\n\r\n  mapping(bytes32 => uint256) public proposalIdOfQuery;\r\n\r\n  GroupFund internal groupFund;\r\n  ControlToken internal cToken;\r\n  EtherDelta internal etherDelta;\r\n\r\n  string[] public tokenSymbolOfProposal;\r\n\r\n  function OraclizeHandler(address _controlTokenAddr, address _etherDeltaAddr) public {\r\n    controlTokenAddr = _controlTokenAddr;\r\n    etherDeltaAddr = _etherDeltaAddr;\r\n    cToken = ControlToken(_controlTokenAddr);\r\n    etherDelta = EtherDelta(_etherDeltaAddr);\r\n    // Initialize cryptocompare URLs:\r\n    priceCheckURL1 = \"json(https://min-api.cryptocompare.com/data/price?fsym=\";\r\n    priceCheckURL2 = \"&tsyms=\";\r\n    priceCheckURL3 = \").ETH\";\r\n  }\r\n\r\n  function __changeEtherDeltaAddress(address _newAddr) public onlyOwner {\r\n    etherDeltaAddr = _newAddr;\r\n    etherDelta = EtherDelta(_newAddr);\r\n  }\r\n\r\n  function __pushTokenSymbolOfProposal(string _tokenSymbol) public onlyOwner {\r\n    tokenSymbolOfProposal.push(_tokenSymbol);\r\n  }\r\n\r\n  function __deleteTokenSymbolOfProposal() public onlyOwner {\r\n    delete tokenSymbolOfProposal;\r\n  }\r\n\r\n  function __returnAllFunds() public onlyOwner {\r\n    owner.transfer(this.balance);\r\n  }\r\n\r\n  //Oraclize functions\r\n\r\n  // Query Oraclize for the current price\r\n  function __grabCurrentPriceFromOraclize(uint _proposalId) public payable onlyOwner {\r\n    require(oraclize_getPrice(\"URL\") > this.balance);\r\n\r\n    groupFund = GroupFund(owner);\r\n\r\n    string storage tokenSymbol = tokenSymbolOfProposal[_proposalId];\r\n    // Grab the cryptocompare URL that is the price in ETH of the token to purchase\r\n    string memory etherSymbol = \"ETH\";\r\n    string memory urlToQuery = strConcat(priceCheckURL1, tokenSymbol, priceCheckURL2, etherSymbol, priceCheckURL3);\r\n\r\n    string memory url = \"URL\";\r\n\r\n    // Call Oraclize to grab the most recent price information via JSON\r\n    proposalIdOfQuery[oraclize_query(url, urlToQuery)] = _proposalId;\r\n  }\r\n\r\n  // Callback function from Oraclize query:\r\n  function __callback(bytes32 _myID, string _result) public {\r\n    require(msg.sender == oraclize_cbAddress());\r\n    groupFund = GroupFund(owner);\r\n\r\n    // Grab ETH price in Weis\r\n    uint256 priceInWeis = parseInt(_result, 18);\r\n\r\n    uint256 proposalId = proposalIdOfQuery[_myID];\r\n    var (tokenAddress,) = groupFund.proposals(proposalId);\r\n\r\n    //Reset data\r\n    delete proposalIdOfQuery[_myID];\r\n\r\n    uint256 investAmount = groupFund.totalFundsInWeis().mul(groupFund.forStakedControlOfProposal(proposalId)).div(cToken.totalSupply());\r\n    uint256 expires = block.number.add(groupFund.orderExpirationTimeInBlocks());\r\n    if (uint(groupFund.cyclePhase()) == uint(CyclePhase.Waiting)) {\r\n      //Buy\r\n      groupFund.__setBuyPriceAndExpirationBlock(proposalId, priceInWeis, expires);\r\n\r\n      uint256 buyTokenAmount = investAmount.div(priceInWeis);\r\n      groupFund.__makeOrder(tokenAddress, buyTokenAmount, address(0), investAmount, expires, proposalId);\r\n    } else if (uint(groupFund.cyclePhase()) == uint(CyclePhase.Ended)) {\r\n      //Sell\r\n      groupFund.__setSellPriceAndExpirationBlock(proposalId, priceInWeis, expires);\r\n\r\n      uint256 sellTokenAmount = etherDelta.tokens(tokenAddress, owner);\r\n      uint256 getWeiAmount = sellTokenAmount.mul(priceInWeis);\r\n      groupFund.__makeOrder(address(0), getWeiAmount, tokenAddress, sellTokenAmount, expires, proposalId);\r\n    }\r\n  }\r\n\r\n  function() public payable {\r\n    if (msg.sender != owner) {\r\n      revert();\r\n    }\r\n  }\r\n}\r\n\r\n//Proportional to Wei when minted\r\ncontract ControlToken is MintableToken {\r\n  using SafeMath for uint256;\r\n\r\n  string public constant name = \"Kairo\";\r\n  string public constant symbol = \"KRO\";\r\n  uint8 public constant decimals = 18;\r\n\r\n  event OwnerCollectFrom(address _from, uint256 _value);\r\n\r\n  function transfer(address _to, uint256 _value) public returns(bool) {\r\n    require(_to != address(0));\r\n    require(_value <= balances[msg.sender]);\r\n\r\n    //Add receipient as a participant if not already a participant\r\n    addParticipant(_to);\r\n\r\n    // SafeMath.sub will throw if there is not enough balance.\r\n    balances[msg.sender] = balances[msg.sender].sub(_value);\r\n    balances[_to] = balances[_to].add(_value);\r\n    Transfer(msg.sender, _to, _value);\r\n    return true;\r\n  }\r\n\r\n  function transferFrom(address _from, address _to, uint256 _value) public returns (bool) {\r\n    require(_to != address(0));\r\n    require(_value <= balances[_from]);\r\n    require(_value <= allowed[_from][msg.sender]);\r\n\r\n    //Add receipient as a participant if not already a participant\r\n    addParticipant(_to);\r\n\r\n    balances[_from] = balances[_from].sub(_value);\r\n    balances[_to] = balances[_to].add(_value);\r\n    allowed[_from][msg.sender] = allowed[_from][msg.sender].sub(_value);\r\n    Transfer(_from, _to, _value);\r\n    return true;\r\n  }\r\n\r\n  function ownerCollectFrom(address _from, uint256 _value) public onlyOwner returns(bool) {\r\n    require(_from != address(0));\r\n    require(_value <= balances[_from]);\r\n\r\n    // SafeMath.sub will throw if there is not enough balance.\r\n    balances[_from] = balances[_from].sub(_value);\r\n    balances[msg.sender] = balances[msg.sender].add(_value);\r\n    OwnerCollectFrom(_from, _value);\r\n    return true;\r\n  }\r\n\r\n  function addParticipant(address _to) internal {\r\n    GroupFund groupFund = GroupFund(owner);\r\n    if (!groupFund.isParticipant(_to)) {\r\n      groupFund.__addControlTokenReceipientAsParticipant(_to);\r\n    }\r\n  }\r\n\r\n  function burnOwnerBalance() public onlyOwner {\r\n    balances[owner] = 0;\r\n  }\r\n\r\n  function() public {\r\n    revert();\r\n  }\r\n}\r\n",
  "sourcePath": "D:\\msi-cn\\Documents\\GitHub\\betoken\\eth\\contracts\\betoken.sol",
  "compiler": {
    "name": "solc",
    "version": "0.4.18+commit.9cf6e910.Emscripten.clang"
  },
  "schemaVersion": "1.0.1",
  "updatedAt": "2017-12-25T23:54:47.810Z"
}