{
  "contractName": "OraclizeHandler",
  "abi": [
    {
      "constant": true,
      "inputs": [
        {
          "name": "",
          "type": "bytes32"
        }
      ],
      "name": "proposalIdOfQuery",
      "outputs": [
        {
          "name": "",
          "type": "uint256"
        }
      ],
      "payable": false,
      "stateMutability": "view",
      "type": "function"
    },
    {
      "constant": true,
      "inputs": [],
      "name": "priceCheckURL1",
      "outputs": [
        {
          "name": "",
          "type": "string"
        }
      ],
      "payable": false,
      "stateMutability": "view",
      "type": "function"
    },
    {
      "constant": false,
      "inputs": [
        {
          "name": "_myID",
          "type": "bytes32"
        },
        {
          "name": "_result",
          "type": "string"
        }
      ],
      "name": "__callback",
      "outputs": [],
      "payable": false,
      "stateMutability": "nonpayable",
      "type": "function"
    },
    {
      "constant": true,
      "inputs": [],
      "name": "__oraclizeFee",
      "outputs": [
        {
          "name": "",
          "type": "uint256"
        }
      ],
      "payable": false,
      "stateMutability": "view",
      "type": "function"
    },
    {
      "constant": false,
      "inputs": [],
      "name": "__deleteTokenSymbolOfProposal",
      "outputs": [],
      "payable": false,
      "stateMutability": "nonpayable",
      "type": "function"
    },
    {
      "constant": false,
      "inputs": [
        {
          "name": "_tokenSymbol",
          "type": "string"
        }
      ],
      "name": "__pushTokenSymbolOfProposal",
      "outputs": [],
      "payable": false,
      "stateMutability": "nonpayable",
      "type": "function"
    },
    {
      "constant": false,
      "inputs": [
        {
          "name": "myid",
          "type": "bytes32"
        },
        {
          "name": "result",
          "type": "string"
        },
        {
          "name": "proof",
          "type": "bytes"
        }
      ],
      "name": "__callback",
      "outputs": [],
      "payable": false,
      "stateMutability": "nonpayable",
      "type": "function"
    },
    {
      "constant": false,
      "inputs": [
        {
          "name": "_newAddr",
          "type": "address"
        }
      ],
      "name": "__changeEtherDeltaAddress",
      "outputs": [],
      "payable": false,
      "stateMutability": "nonpayable",
      "type": "function"
    },
    {
      "constant": false,
      "inputs": [],
      "name": "__returnAllFunds",
      "outputs": [],
      "payable": false,
      "stateMutability": "nonpayable",
      "type": "function"
    },
    {
      "constant": false,
      "inputs": [
        {
          "name": "_proposalId",
          "type": "uint256"
        }
      ],
      "name": "__grabCurrentPriceFromOraclize",
      "outputs": [],
      "payable": true,
      "stateMutability": "payable",
      "type": "function"
    },
    {
      "constant": true,
      "inputs": [],
      "name": "owner",
      "outputs": [
        {
          "name": "",
          "type": "address"
        }
      ],
      "payable": false,
      "stateMutability": "view",
      "type": "function"
    },
    {
      "constant": true,
      "inputs": [],
      "name": "etherDeltaAddr",
      "outputs": [
        {
          "name": "",
          "type": "address"
        }
      ],
      "payable": false,
      "stateMutability": "view",
      "type": "function"
    },
    {
      "constant": true,
      "inputs": [],
      "name": "currencySymbol",
      "outputs": [
        {
          "name": "",
          "type": "string"
        }
      ],
      "payable": false,
      "stateMutability": "view",
      "type": "function"
    },
    {
      "constant": true,
      "inputs": [],
      "name": "priceCheckURL2",
      "outputs": [
        {
          "name": "",
          "type": "string"
        }
      ],
      "payable": false,
      "stateMutability": "view",
      "type": "function"
    },
    {
      "constant": true,
      "inputs": [],
      "name": "controlTokenAddr",
      "outputs": [
        {
          "name": "",
          "type": "address"
        }
      ],
      "payable": false,
      "stateMutability": "view",
      "type": "function"
    },
    {
      "constant": true,
      "inputs": [
        {
          "name": "",
          "type": "uint256"
        }
      ],
      "name": "tokenSymbolOfProposal",
      "outputs": [
        {
          "name": "",
          "type": "string"
        }
      ],
      "payable": false,
      "stateMutability": "view",
      "type": "function"
    },
    {
      "constant": false,
      "inputs": [
        {
          "name": "newOwner",
          "type": "address"
        }
      ],
      "name": "transferOwnership",
      "outputs": [],
      "payable": false,
      "stateMutability": "nonpayable",
      "type": "function"
    },
    {
      "inputs": [
        {
          "name": "_controlTokenAddr",
          "type": "address"
        },
        {
          "name": "_etherDeltaAddr",
          "type": "address"
        },
        {
          "name": "_priceCheckURL1",
          "type": "string"
        },
        {
          "name": "_priceCheckURL2",
          "type": "string"
        }
      ],
      "payable": false,
      "stateMutability": "nonpayable",
      "type": "constructor"
    },
    {
      "payable": true,
      "stateMutability": "payable",
      "type": "fallback"
    },
    {
      "anonymous": false,
      "inputs": [
        {
          "indexed": true,
          "name": "previousOwner",
          "type": "address"
        },
        {
          "indexed": true,
          "name": "newOwner",
          "type": "address"
        }
      ],
      "name": "OwnershipTransferred",
      "type": "event"
    }
  ],
  "bytecode": "0x606060405234156200001057600080fd5b604051620024173803806200241783398101604052808051919060200180519190602001805182019190602001805160058054600160a060020a03338116600160a060020a031992831617909255600980548984169083168117909155600a805493891693831684179055600d805483169091179055600e8054909116909117905590910190506006828051620000ac929160200190620000cd565b506007818051620000c2929160200190620000cd565b505050505062000172565b828054600181600116156101000203166002900490600052602060002090601f016020900481019282601f106200011057805160ff191683800117855562000140565b8280016001018555821562000140579182015b828111156200014057825182559160200191906001019062000123565b506200014e92915062000152565b5090565b6200016f91905b808211156200014e576000815560010162000159565b90565b61229580620001826000396000f3006060604052600436106100d75763ffffffff60e060020a600035041663239fa71881146100f4578063267a32aa1461011c57806327dc297e146101a657806330fbd48d146101fc57806332f42b541461020f5780633455d73e1461022257806338bbfa50146102735780635aeed50a1461030b5780635fc86db11461032a57806360fc3f8e1461033d5780638da5cb5b1461034857806395fa9fc914610377578063968c42091461038a578063d6c9f59e1461039d578063dc87454c146103b0578063e79e3f1a146103c3578063f2fde38b146103d9575b60055433600160a060020a039081169116146100f257600080fd5b005b34156100ff57600080fd5b61010a6004356103f8565b60405190815260200160405180910390f35b341561012757600080fd5b61012f61040a565b60405160208082528190810183818151815260200191508051906020019080838360005b8381101561016b578082015183820152602001610153565b50505050905090810190601f1680156101985780820380516001836020036101000a031916815260200191505b509250505060405180910390f35b34156101b157600080fd5b6100f2600480359060446024803590810190830135806020601f820181900481020160405190810160405281815292919060208401838380828437509496506104a895505050505050565b341561020757600080fd5b61010a610bd6565b341561021a57600080fd5b6100f2610c1a565b341561022d57600080fd5b6100f260046024813581810190830135806020601f82018190048102016040519081016040528181529291906020840183838082843750949650610c4395505050505050565b341561027e57600080fd5b6100f2600480359060446024803590810190830135806020601f8201819004810201604051908101604052818152929190602084018383808284378201915050505050509190803590602001908201803590602001908080601f016020809104026020016040519081016040528181529291906020840183838082843750949650610c8c95505050505050565b341561031657600080fd5b6100f2600160a060020a0360043516610c91565b341561033557600080fd5b6100f2610cd8565b6100f2600435610d2c565b341561035357600080fd5b61035b611012565b604051600160a060020a03909116815260200160405180910390f35b341561038257600080fd5b61035b611021565b341561039557600080fd5b61012f611030565b34156103a857600080fd5b61012f61109b565b34156103bb57600080fd5b61035b611106565b34156103ce57600080fd5b61012f600435611115565b34156103e457600080fd5b6100f2600160a060020a036004351661119d565b600b6020526000908152604090205481565b60068054600181600116156101000203166002900480601f0160208091040260200160405190810160405280929190818152602001828054600181600116156101000203166002900480156104a05780601f10610475576101008083540402835291602001916104a0565b820191906000526020600020905b81548152906001019060200180831161048357829003601f168201915b505050505081565b6000806000806000806000806000806104bf61122b565b600160a060020a031633600160a060020a03161415156104de57600080fd5b6040516040519081900390208b6040518082805190602001908083835b6020831061051a5780518252601f1990920191602091820191016104fb565b6001836020036101000a0380198251168184511617909252505050919091019250604091505051908190039020141561055257600080fd5b600554600c8054600160a060020a031916600160a060020a0390921691909117905561057f8b60126113cb565b60008d8152600b602052604080822054600c54939d509b50600160a060020a039092169163013cf08b918c9151610120015260405160e060020a63ffffffff8416028152600481019190915260240161012060405180830381600087803b15156105e857600080fd5b6102c65a03f115156105f957600080fd5b50505060405180519060200180519060200180519060200180519060200180519060200180519060200180519060200180519060200180515050600c54979f50959d50939b5061079995600160a060020a0316945063817b1cd2935060009250604091505051602001526040518163ffffffff1660e060020a028152600401602060405180830381600087803b151561069157600080fd5b6102c65a03f115156106a257600080fd5b5050506040518051600c5490915061078d90600160a060020a031663b484cf8d8d60006040516020015260405160e060020a63ffffffff84160281526004810191909152602401602060405180830381600087803b151561070257600080fd5b6102c65a03f1151561071357600080fd5b5050506040518051600c54909150600160a060020a0316637e714dd26000604051602001526040518163ffffffff1660e060020a028152600401602060405180830381600087803b151561076657600080fd5b6102c65a03f1151561077757600080fd5b505050604051805191905063ffffffff61153916565b9063ffffffff61156f16565b600c5490955061080f90600160a060020a0316638456799b6000604051602001526040518163ffffffff1660e060020a028152600401602060405180830381600087803b15156107e857600080fd5b6102c65a03f115156107f957600080fd5b505050604051805143915063ffffffff61158616565b93506002600c54600160a060020a031663f6558b006000604051602001526040518163ffffffff1660e060020a028152600401602060405180830381600087803b151561085b57600080fd5b6102c65a03f1151561086c57600080fd5b50505060405180519050600481111561088157fe5b14156109a457600c54600160a060020a031663a41811748a8c8760405160e060020a63ffffffff8616028152600481019390935260248301919091526044820152606401600060405180830381600087803b15156108de57600080fd5b6102c65a03f115156108ef57600080fd5b50505061090c8a61078d88600a0a8861153990919063ffffffff16565b600c54909350600160a060020a031663f1cd92f18985600089898f60405160e060020a63ffffffff8916028152600160a060020a03968716600482015260248101959095529290941660448401526064830152608482019290925260a481019190915260c401600060405180830381600087803b151561098b57600080fd5b6102c65a03f1151561099c57600080fd5b505050610bb7565b6003600c54600160a060020a031663f6558b006000604051602001526040518163ffffffff1660e060020a028152600401602060405180830381600087803b15156109ee57600080fd5b6102c65a03f115156109ff57600080fd5b505050604051805190506004811115610a1457fe5b1415610bb757600c54600160a060020a031663bc1273018a8c8760405160e060020a63ffffffff8616028152600481019390935260248301919091526044820152606401600060405180830381600087803b1515610a7157600080fd5b6102c65a03f11515610a8257600080fd5b5050600e54600554600160a060020a03918216925063508493bc918b911660006040516020015260405160e060020a63ffffffff8516028152600160a060020a03928316600482015291166024820152604401602060405180830381600087803b1515610aee57600080fd5b6102c65a03f11515610aff57600080fd5b50505060405180519250610b239050600a87900a61078d848d63ffffffff61153916565b600c54909150600160a060020a031663f1cd92f16000838b86898f60405160e060020a63ffffffff8916028152600160a060020a03968716600482015260248101959095529290941660448401526064830152608482019290925260a481019190915260c401600060405180830381600087803b1515610ba257600080fd5b6102c65a03f11515610bb357600080fd5b5050505b50505060009889525050600b6020525050604085209490945550505050565b6000610c1460408051908101604052600381527f55524c00000000000000000000000000000000000000000000000000000000006020820152611595565b90505b90565b60055433600160a060020a03908116911614610c3557600080fd5b610c41600f6000612113565b565b60055433600160a060020a03908116911614610c5e57600080fd5b600f805460018101610c708382612134565b6000928352602090922001828051610c8c929160200190612158565b505050565b60055433600160a060020a03908116911614610cac57600080fd5b600a8054600160a060020a03909216600160a060020a03199283168117909155600e8054909216179055565b60055433600160a060020a03908116911614610cf357600080fd5b600554600160a060020a039081169030163180156108fc0290604051600060405180830381858888f193505050501515610c4157600080fd5b6000610d366121d6565b60055433600160a060020a03908116911614610d5157600080fd5b30600160a060020a031631610d9860408051908101604052600381527f55524c00000000000000000000000000000000000000000000000000000000006020820152611595565b1115610da357600080fd5b600554600c8054600160a060020a031916600160a060020a03909216919091179055600f805484908110610dd357fe5b90600052602060002090019150610fb860068054600181600116156101000203166002900480601f016020809104026020016040519081016040528092919081815260200182805460018160011615610100020316600290048015610e795780601f10610e4e57610100808354040283529160200191610e79565b820191906000526020600020905b815481529060010190602001808311610e5c57829003601f168201915b5050505050838054600181600116156101000203166002900480601f016020809104026020016040519081016040528092919081815260200182805460018160011615610100020316600290048015610f135780601f10610ee857610100808354040283529160200191610f13565b820191906000526020600020905b815481529060010190602001808311610ef657829003601f168201915b505050505060078054600181600116156101000203166002900480601f016020809104026020016040519081016040528092919081815260200182805460018160011615610100020316600290048015610fae5780601f10610f8357610100808354040283529160200191610fae565b820191906000526020600020905b815481529060010190602001808311610f9157829003601f168201915b50505050506117a3565b905082600b6000610ffc60408051908101604052600381527f55524c00000000000000000000000000000000000000000000000000000000006020820152856117de565b8152602081019190915260400160002055505050565b600554600160a060020a031681565b600a54600160a060020a031681565b60088054600181600116156101000203166002900480601f0160208091040260200160405190810160405280929190818152602001828054600181600116156101000203166002900480156104a05780601f10610475576101008083540402835291602001916104a0565b60078054600181600116156101000203166002900480601f0160208091040260200160405190810160405280929190818152602001828054600181600116156101000203166002900480156104a05780601f10610475576101008083540402835291602001916104a0565b600954600160a060020a031681565b600f80548290811061112357fe5b90600052602060002090016000915090508054600181600116156101000203166002900480601f0160208091040260200160405190810160405280929190818152602001828054600181600116156101000203166002900480156104a05780601f10610475576101008083540402835291602001916104a0565b60055433600160a060020a039081169116146111b857600080fd5b600160a060020a03811615156111cd57600080fd5b600554600160a060020a0380831691167f8be0079c531659141344cd1fd0a4f28419497f9722a3daafe3b4186f6b6457e060405160405180910390a360058054600160a060020a031916600160a060020a0392909216919091179055565b60008054600160a060020a03161580611256575060005461125490600160a060020a0316611b54565b155b15611267576112656000611b58565b505b60008054600160a060020a0316906338cc483190604051602001526040518163ffffffff1660e060020a028152600401602060405180830381600087803b15156112b057600080fd5b6102c65a03f115156112c157600080fd5b5050506040518051600154600160a060020a0390811691161490506113645760008054600160a060020a0316906338cc483190604051602001526040518163ffffffff1660e060020a028152600401602060405180830381600087803b151561132957600080fd5b6102c65a03f1151561133a57600080fd5b505050604051805160018054600160a060020a031916600160a060020a0392909216919091179055505b600154600160a060020a031663c281d19e6000604051602001526040518163ffffffff1660e060020a028152600401602060405180830381600087803b15156113ac57600080fd5b6102c65a03f115156113bd57600080fd5b505050604051805191505090565b60006113d56121d6565b5082600080805b835181101561151c577f300000000000000000000000000000000000000000000000000000000000000084828151811061141257fe5b016020015160f860020a900460f860020a02600160f860020a0319161015801561148357507f390000000000000000000000000000000000000000000000000000000000000084828151811061146457fe5b016020015160f860020a900460f860020a02600160f860020a03191611155b156114d95781156114a25785151561149a5761151c565b600019909501945b600a8302925060308482815181106114b657fe5b016020015160f860020a900460f860020a0260f860020a90040383019250611514565b8381815181106114e557fe5b016020015160f860020a900460f860020a02600160f860020a031916602e60f860020a02141561151457600191505b6001016113dc565b600086111561152e5785600a0a830292505b509095945050505050565b60008083151561154c5760009150611568565b5082820282848281151561155c57fe5b041461156457fe5b8091505b5092915050565b600080828481151561157d57fe5b04949350505050565b60008282018381101561156457fe5b60008054600160a060020a031615806115c057506000546115be90600160a060020a0316611b54565b155b156115d1576115cf6000611b58565b505b60008054600160a060020a0316906338cc483190604051602001526040518163ffffffff1660e060020a028152600401602060405180830381600087803b151561161a57600080fd5b6102c65a03f1151561162b57600080fd5b5050506040518051600154600160a060020a0390811691161490506116ce5760008054600160a060020a0316906338cc483190604051602001526040518163ffffffff1660e060020a028152600401602060405180830381600087803b151561169357600080fd5b6102c65a03f115156116a457600080fd5b505050604051805160018054600160a060020a031916600160a060020a0392909216919091179055505b600154600160a060020a031663524f3889836000604051602001526040518263ffffffff1660e060020a0281526004018080602001828103825283818151815260200191508051906020019080838360005b83811015611738578082015183820152602001611720565b50505050905090810190601f1680156117655780820380516001836020036101000a031916815260200191505b5092505050602060405180830381600087803b151561178357600080fd5b6102c65a03f1151561179457600080fd5b50505060405180519392505050565b6117ab6121d6565b6117d68484846020604051908101604052806000815250602060405190810160405260008152611b68565b949350505050565b600080548190600160a060020a0316158061180b575060005461180990600160a060020a0316611b54565b155b1561181c5761181a6000611b58565b505b60008054600160a060020a0316906338cc483190604051602001526040518163ffffffff1660e060020a028152600401602060405180830381600087803b151561186557600080fd5b6102c65a03f1151561187657600080fd5b5050506040518051600154600160a060020a0390811691161490506119195760008054600160a060020a0316906338cc483190604051602001526040518163ffffffff1660e060020a028152600401602060405180830381600087803b15156118de57600080fd5b6102c65a03f115156118ef57600080fd5b505050604051805160018054600160a060020a031916600160a060020a0392909216919091179055505b600154600160a060020a031663524f3889856000604051602001526040518263ffffffff1660e060020a0281526004018080602001828103825283818151815260200191508051906020019080838360005b8381101561198357808201518382015260200161196b565b50505050905090810190601f1680156119b05780820380516001836020036101000a031916815260200191505b5092505050602060405180830381600087803b15156119ce57600080fd5b6102c65a03f115156119df57600080fd5b5050506040518051915050670de0b6b3a764000062030d403a0201811115611a0a5760009150611568565b600154600160a060020a031663adf59f99826000878782604051602001526040518563ffffffff1660e060020a028152600401808481526020018060200180602001838103835285818151815260200191508051906020019080838360005b83811015611a81578082015183820152602001611a69565b50505050905090810190601f168015611aae5780820380516001836020036101000a031916815260200191505b50838103825284818151815260200191508051906020019080838360005b83811015611ae4578082015183820152602001611acc565b50505050905090810190601f168015611b115780820380516001836020036101000a031916815260200191505b50955050505050506020604051808303818588803b1515611b3157600080fd5b6125ee5a03f11515611b4257600080fd5b50505050604051805195945050505050565b3b90565b6000611b62611dd8565b92915050565b611b706121d6565b611b786121d6565b611b806121d6565b611b886121d6565b611b906121d6565b611b986121d6565b611ba06121d6565b611ba86121d6565b6000808e98508d97508c96508b95508a94508451865188518a518c5101010101604051805910611bd55750595b818152601f19601f83011681016020016040529050935083925060009150600090505b8851811015611c5157888181518110611c0d57fe5b016020015160f860020a900460f860020a02838380600101945081518110611c3157fe5b906020010190600160f860020a031916908160001a905350600101611bf8565b5060005b8751811015611cae57878181518110611c6a57fe5b016020015160f860020a900460f860020a02838380600101945081518110611c8e57fe5b906020010190600160f860020a031916908160001a905350600101611c55565b5060005b8651811015611d0b57868181518110611cc757fe5b016020015160f860020a900460f860020a02838380600101945081518110611ceb57fe5b906020010190600160f860020a031916908160001a905350600101611cb2565b5060005b8551811015611d6857858181518110611d2457fe5b016020015160f860020a900460f860020a02838380600101945081518110611d4857fe5b906020010190600160f860020a031916908160001a905350600101611d0f565b5060005b8451811015611dc557848181518110611d8157fe5b016020015160f860020a900460f860020a02838380600101945081518110611da557fe5b906020010190600160f860020a031916908160001a905350600101611d6c565b50909d9c50505050505050505050505050565b600080611df8731d3b2638a7cc9f2cb3d298a3da7a90b67e5506ed611b54565b1115611e685760008054600160a060020a031916731d3b2638a7cc9f2cb3d298a3da7a90b67e5506ed179055611e6060408051908101604052600b81527f6574685f6d61696e6e657400000000000000000000000000000000000000000060208201526120fc565b506001610c17565b6000611e8773c03a2615d5efaf5f49f60b7bb6583eaec212fdf1611b54565b1115611eef5760008054600160a060020a03191673c03a2615d5efaf5f49f60b7bb6583eaec212fdf1179055611e6060408051908101604052600c81527f6574685f726f707374656e33000000000000000000000000000000000000000060208201526120fc565b6000611f0e73b7a07bcf2ba2f2703b24c0691b5278999c59ac7e611b54565b1115611f765760008054600160a060020a03191673b7a07bcf2ba2f2703b24c0691b5278999c59ac7e179055611e6060408051908101604052600981527f6574685f6b6f76616e000000000000000000000000000000000000000000000060208201526120fc565b6000611f9573146500cfd35b22e4a392fe0adc06de1a1368ed48611b54565b1115611ffd5760008054600160a060020a03191673146500cfd35b22e4a392fe0adc06de1a1368ed48179055611e6060408051908101604052600b81527f6574685f72696e6b65627900000000000000000000000000000000000000000060208201526120fc565b600061201c736f485c8bf6fc43ea212e93bbf8ce046c7f1cb475611b54565b1115612050575060008054600160a060020a031916736f485c8bf6fc43ea212e93bbf8ce046c7f1cb4751790556001610c17565b600061206f7320e12a1f859b3feae5fb2a0a32c18f5a65555bbf611b54565b11156120a3575060008054600160a060020a0319167320e12a1f859b3feae5fb2a0a32c18f5a65555bbf1790556001610c17565b60006120c27351efaf4c8b3c9afbd5ab9f4bbc82784ab6ef8faa611b54565b11156120f6575060008054600160a060020a0319167351efaf4c8b3c9afbd5ab9f4bbc82784ab6ef8faa1790556001610c17565b50600090565b600281805161210f929160200190612158565b5050565b508054600082559060005260206000209081019061213191906121e8565b50565b815481835581811511610c8c57600083815260209020610c8c9181019083016121e8565b828054600181600116156101000203166002900490600052602060002090601f016020900481019282601f1061219957805160ff19168380011785556121c6565b828001600101855582156121c6579182015b828111156121c65782518255916020019190600101906121ab565b506121d292915061220b565b5090565b60206040519081016040526000815290565b610c1791905b808211156121d25760006122028282612225565b506001016121ee565b610c1791905b808211156121d25760008155600101612211565b50805460018160011615610100020316600290046000825580601f1061224b5750612131565b601f016020900490600052602060002090810190612131919061220b5600a165627a7a723058200251ca22214a880a71109ba68b5515d98abdbbb5ac20606f8b7ebb1ce9f5ebdc0029",
  "source": "pragma solidity ^0.4.18;\r\n\r\nimport 'zeppelin-solidity/contracts/token/ERC20/MintableToken.sol';\r\nimport 'zeppelin-solidity/contracts/math/SafeMath.sol';\r\nimport 'zeppelin-solidity/contracts/lifecycle/Pausable.sol';\r\nimport './etherdelta.sol';\r\nimport './oraclizeAPI_0.5.sol';\r\n\r\n/**\r\n * The main contract of the Betoken hedge fund\r\n */\r\ncontract BetokenFund is Pausable {\r\n  using SafeMath for uint256;\r\n\r\n  enum CyclePhase { ChangeMaking, ProposalMaking, Waiting, Ended, Finalized }\r\n\r\n  struct Proposal {\r\n    address tokenAddress;\r\n    string tokenSymbol;\r\n    uint256 tokenDecimals;\r\n    uint256 buyPriceInWeis;\r\n    uint256 sellPriceInWeis;\r\n    uint256 buyOrderExpirationBlockNum;\r\n    uint256 sellOrderExpirationBlockNum;\r\n    uint256 numFor;\r\n    uint256 numAgainst;\r\n  }\r\n\r\n  /**\r\n   * Executes function only during the given cycle phase.\r\n   * @param phase the cycle phase during which the function may be called\r\n   */\r\n  modifier during(CyclePhase phase) {\r\n    require(cyclePhase == phase);\r\n    _;\r\n  }\r\n\r\n  /**\r\n   * Executes function only when msg.sender is a participant of the fund.\r\n   */\r\n  modifier onlyParticipant {\r\n    require(isParticipant[msg.sender]);\r\n    _;\r\n  }\r\n\r\n  /**\r\n   * Exucutes function only when msg.sender is the fund's OraclizeHandler.\r\n   */\r\n  modifier onlyOraclize {\r\n    require(msg.sender == oraclizeAddr);\r\n    _;\r\n  }\r\n\r\n  //Address of the control token contract.\r\n  address public controlTokenAddr;\r\n\r\n  //Address of the EtherDelta contract\r\n  address public etherDeltaAddr;\r\n\r\n  //Address of the fund's OraclizeHandler contract.\r\n  address public oraclizeAddr;\r\n\r\n  //The creator of the BetokenFund contract. Only used in initializeSubcontracts().\r\n  address public creator;\r\n\r\n  //Address to which the developer fees will be paid.\r\n  address public developerFeeAccount;\r\n\r\n  //The number of the current investment cycle.\r\n  uint256 public cycleNumber;\r\n\r\n  //10^{decimals} used for representing fixed point numbers with {decimals} decimals.\r\n  uint256 public tenToDecimals;\r\n\r\n  //The amount of funds held by the fund.\r\n  uint256 public totalFundsInWeis;\r\n\r\n  //The start time for the current investment cycle phase, in seconds since Unix epoch.\r\n  uint256 public startTimeOfCyclePhase;\r\n\r\n  //Temporal length of change making period at start of each cycle, in seconds.\r\n  uint256 public timeOfChangeMaking;\r\n\r\n  //Temporal length of proposal making period at start of each cycle, in seconds.\r\n  uint256 public timeOfProposalMaking;\r\n\r\n  //Temporal length of waiting period, after which the bets will be settled, in seconds.\r\n  uint256 public timeOfWaiting;\r\n\r\n  //The time allotted for waiting for sell orders, in seconds.\r\n  uint256 public timeOfSellOrderWaiting;\r\n\r\n  //Minimum proportion of Kairo balance people have to stake in support of a proposal. Fixed point decimal.\r\n  uint256 public minStakeProportion;\r\n\r\n  //The maximum number of proposals each cycle.\r\n  uint256 public maxProposals;\r\n\r\n  //The proportion of the fund that gets distributed to Kairo holders every cycle. Fixed point decimal.\r\n  uint256 public commissionRate;\r\n\r\n  //The expiration time for buy and sell orders made on EtherDelta.\r\n  uint256 public orderExpirationTimeInBlocks;\r\n\r\n  //The proportion of contract balance that goes the the devs every cycle. Fixed point decimal.\r\n  uint256 public developerFeeProportion;\r\n\r\n  //The max number of proposals each member can create.\r\n  uint256 public maxProposalsPerMember;\r\n\r\n  //Number of proposals already made in this cycle. Excludes deleted proposals.\r\n  uint256 public numProposals;\r\n\r\n  //Total Kairo staked this cycle.\r\n  uint256 public totalStaked;\r\n\r\n  //Flag for whether the contract has been initialized with subcontracts' addresses.\r\n  bool public initialized;\r\n\r\n  //Returns true for an address if it's in the participants array, false otherwise.\r\n  mapping(address => bool) public isParticipant;\r\n\r\n  //Mapping from a participant's address to their Ether balance, in weis.\r\n  mapping(address => uint256) public balanceOf;\r\n\r\n  //Mapping from Proposal to total amount of Control Tokens being staked by supporters.\r\n  mapping(uint256 => uint256) public forStakedControlOfProposal;\r\n\r\n  //Records the number of proposals a user has created in the current cycle. Canceling support does not decrease this number.\r\n  mapping(address => uint256) public createdProposalCount;\r\n\r\n  //mapping(proposalId => mapping(participantAddress => stakedTokensInWeis))\r\n  mapping(uint256 => mapping(address => uint256)) public forStakedControlOfProposalOfUser;\r\n  mapping(uint256 => mapping(address => uint256)) public againstStakedControlOfProposalOfUser;\r\n\r\n  //Mapping to check if a proposal for a token has already been made.\r\n  mapping(address => bool) public isTokenAlreadyProposed;\r\n\r\n  //A list of everyone who is participating in the fund.\r\n  address[] public participants;\r\n\r\n  //List of proposals in the current cycle.\r\n  Proposal[] public proposals;\r\n\r\n  //References to subcontracts and EtherDelta contract.\r\n  ControlToken internal cToken;\r\n  EtherDelta internal etherDelta;\r\n  OraclizeHandler internal oraclize;\r\n\r\n  //The current cycle phase.\r\n  CyclePhase public cyclePhase;\r\n\r\n  event CycleStarted(uint256 _cycleNumber, uint256 _timestamp);\r\n  event Deposit(uint256 _cycleNumber, address _sender, uint256 _amountInWeis, uint256 _timestamp);\r\n  event Withdraw(uint256 _cycleNumber, address _sender, uint256 _amountInWeis, uint256 _timestamp);\r\n  event ChangeMakingTimeEnded(uint256 _cycleNumber, uint256 _timestamp);\r\n  event NewProposal(uint256 _cycleNumber, uint256 _id, address _tokenAddress, string _tokenSymbol, uint256 _amountInWeis);\r\n  event SupportedProposal(uint256 _cycleNumber, uint256 _id, uint256 _amountInWeis);\r\n  event ProposalMakingTimeEnded(uint256 _cycleNumber, uint256 _timestamp);\r\n  event CycleEnded(uint256 _cycleNumber, uint256 _timestamp);\r\n  event CycleFinalized(uint256 _cycleNumber, uint256 _timestamp);\r\n  event ROI(uint256 _cycleNumber, uint256 _beforeTotalFunds, uint256 _afterTotalFunds);\r\n  event PredictionResult(uint256 _cycleNumber, address _member, bool _success);\r\n  event CommissionPaid(uint256 _cycleNumber, uint256 _totalCommissionInWeis);\r\n\r\n  /**\r\n   * Contract initialization functions\r\n   */\r\n\r\n  //Constructor\r\n  function BetokenFund(\r\n    address _etherDeltaAddr,\r\n    address _developerFeeAccount,\r\n    uint256 _tenToDecimals,\r\n    uint256 _timeOfChangeMaking,\r\n    uint256 _timeOfProposalMaking,\r\n    uint256 _timeOfWaiting,\r\n    uint256 _timeOfSellOrderWaiting,\r\n    uint256 _minStakeProportion,\r\n    uint256 _maxProposals,\r\n    uint256 _commissionRate,\r\n    uint256 _orderExpirationTimeInBlocks,\r\n    uint256 _developerFeeProportion,\r\n    uint256 _maxProposalsPerMember\r\n  )\r\n    public\r\n  {\r\n    require(_tenToDecimals > 0);\r\n    require(_minStakeProportion < _tenToDecimals);\r\n    require(_commissionRate.add(_developerFeeProportion) < _tenToDecimals);\r\n\r\n    etherDeltaAddr = _etherDeltaAddr;\r\n    developerFeeAccount = _developerFeeAccount;\r\n    tenToDecimals = _tenToDecimals;\r\n    timeOfChangeMaking = _timeOfChangeMaking;\r\n    timeOfProposalMaking = _timeOfProposalMaking;\r\n    timeOfWaiting = _timeOfWaiting;\r\n    timeOfSellOrderWaiting = _timeOfSellOrderWaiting;\r\n    minStakeProportion = _minStakeProportion;\r\n    maxProposals = _maxProposals;\r\n    commissionRate = _commissionRate;\r\n    orderExpirationTimeInBlocks = _orderExpirationTimeInBlocks;\r\n    developerFeeProportion = _developerFeeProportion;\r\n    maxProposalsPerMember = _maxProposalsPerMember;\r\n    startTimeOfCyclePhase = 0;\r\n    cyclePhase = CyclePhase.Finalized;\r\n    creator = msg.sender;\r\n    numProposals = 0;\r\n    cycleNumber = 0;\r\n    etherDelta = EtherDelta(etherDeltaAddr);\r\n  }\r\n\r\n  /**\r\n   * Initializes the addresses of the ControlToken and OraclizeHandler contracts.\r\n   * @param _cTokenAddr address of ControlToken contract\r\n   * @param _oraclizeAddr address of OraclizeHandler contract\r\n   */\r\n  function initializeSubcontracts(address _cTokenAddr, address _oraclizeAddr) public {\r\n    require(msg.sender == creator);\r\n    require(!initialized);\r\n\r\n    initialized = true;\r\n\r\n    controlTokenAddr = _cTokenAddr;\r\n    oraclizeAddr = _oraclizeAddr;\r\n\r\n    cToken = ControlToken(controlTokenAddr);\r\n    oraclize = OraclizeHandler(oraclizeAddr);\r\n  }\r\n\r\n  /**\r\n   * Getters\r\n   */\r\n\r\n  /**\r\n   * Returns the length of the participants array.\r\n   * @return length of participants array\r\n   */\r\n  function participantsCount() public view returns(uint256 _count) {\r\n    return participants.length;\r\n  }\r\n\r\n  /**\r\n   * Returns the length of the proposals array.\r\n   * @return length of proposals array\r\n   */\r\n  function proposalsCount() public view returns(uint256 _count) {\r\n    return proposals.length;\r\n  }\r\n\r\n  /**\r\n   * Meta functions\r\n   */\r\n\r\n  /**\r\n   * Changes the address of the EtherDelta contract used in the contract. Only callable by owner.\r\n   * @param _newAddr new address of EtherDelta contract\r\n   */\r\n  function changeEtherDeltaAddress(address _newAddr) public onlyOwner {\r\n    require(_newAddr != address(0));\r\n    etherDeltaAddr = _newAddr;\r\n    etherDelta = EtherDelta(_newAddr);\r\n    oraclize.__changeEtherDeltaAddress(_newAddr);\r\n  }\r\n\r\n  /**\r\n   * Changes the address of the OraclizeHandler contract used in the contract. Only callable by owner.\r\n   * @param _newAddr new address of OraclizeHandler contract\r\n   */\r\n  function changeOraclizeAddress(address _newAddr) public onlyOwner {\r\n    require(_newAddr != address(0));\r\n    oraclizeAddr = _newAddr;\r\n    oraclize = OraclizeHandler(_newAddr);\r\n  }\r\n\r\n  /**\r\n   * Changes the address to which the developer fees will be sent. Only callable by owner.\r\n   * @param _newAddr new developer fee address\r\n   */\r\n  function changeDeveloperFeeAccount(address _newAddr) public onlyOwner {\r\n    require(_newAddr != address(0));\r\n    developerFeeAccount = _newAddr;\r\n  }\r\n\r\n  /**\r\n   * Changes the proportion of fund balance sent to the developers each cycle. May only decrease. Only callable by owner.\r\n   * @param _newProp the new proportion, fixed point decimal\r\n   */\r\n  function changeDeveloperFeeProportion(uint256 _newProp) public onlyOwner {\r\n    require(_newProp < developerFeeProportion);\r\n    developerFeeProportion = _newProp;\r\n  }\r\n\r\n  /**\r\n   * Changes the proportion of fund balance given to Kairo holders each cycle. Only callable by owner.\r\n   * @param _newProp the new proportion, fixed point decimal\r\n   */\r\n  function changeCommissionRate(uint256 _newProp) public onlyOwner {\r\n    commissionRate = _newProp;\r\n  }\r\n\r\n  /**\r\n   * Sends Ether to the OraclizeHandler contract.\r\n   */\r\n  function topupOraclizeFees() public payable {\r\n    oraclizeAddr.transfer(msg.value);\r\n  }\r\n\r\n  /**\r\n   * Changes the owner of the OraclizeHandler contract.\r\n   * @param  _newOwner the new owner address\r\n   */\r\n  function changeOraclizeOwner(address _newOwner) public onlyOwner {\r\n    require(_newOwner != address(0));\r\n    oraclize.transferOwnership(_newOwner);\r\n  }\r\n\r\n  /**\r\n   * Changes the owner of the ControlToken contract.\r\n   * @param  _newOwner the new owner address\r\n   */\r\n  function changeControlTokenOwner(address _newOwner) public onlyOwner {\r\n    require(_newOwner != address(0));\r\n    cToken.transferOwnership(_newOwner);\r\n  }\r\n\r\n  /**\r\n   * Start cycle functions\r\n   */\r\n\r\n  /**\r\n   * Starts a new investment cycle.\r\n   */\r\n  function startNewCycle() public during(CyclePhase.Finalized) whenNotPaused {\r\n    require(initialized);\r\n\r\n    //Update values\r\n    cyclePhase = CyclePhase.ChangeMaking;\r\n    startTimeOfCyclePhase = now;\r\n    cycleNumber = cycleNumber.add(1);\r\n\r\n    //Reset data\r\n    for (uint256 i = 0; i < participants.length; i = i.add(1)) {\r\n      __resetMemberData(participants[i]);\r\n    }\r\n    for (i = 0; i < proposals.length; i = i.add(1)) {\r\n      __resetProposalData(i);\r\n    }\r\n    oraclize.__deleteTokenSymbolOfProposal();\r\n    delete proposals;\r\n    delete numProposals;\r\n    totalStaked = 0;\r\n\r\n    //Emit event\r\n    CycleStarted(cycleNumber, now);\r\n  }\r\n\r\n  /**\r\n   * Resets cycle specific data for a given participant.\r\n   * @param _addr the participant whose data will be reset\r\n   */\r\n  function __resetMemberData(address _addr) internal {\r\n    delete createdProposalCount[_addr];\r\n\r\n    //Remove the associated corresponding control staked for/against  each proposal\r\n    for (uint256 i = 0; i < proposals.length; i = i.add(1)) {\r\n      delete forStakedControlOfProposalOfUser[i][_addr];\r\n      delete againstStakedControlOfProposalOfUser[i][_addr];\r\n    }\r\n  }\r\n\r\n  /**\r\n   * Resets cycle specific data for a give proposal\r\n   * @param _proposalId ID of proposal whose data will be reset\r\n   */\r\n  function __resetProposalData(uint256 _proposalId) internal {\r\n    delete isTokenAlreadyProposed[proposals[_proposalId].tokenAddress];\r\n    delete forStakedControlOfProposal[_proposalId];\r\n  }\r\n\r\n  /**\r\n   * ChangeMakingTime functions\r\n   */\r\n\r\n  /**\r\n   * Deposit Ether into the fund.\r\n   */\r\n  function deposit()\r\n    public\r\n    payable\r\n    during(CyclePhase.ChangeMaking)\r\n    whenNotPaused\r\n  {\r\n    //If caller is not a participant, add them to the participants list\r\n    if (!isParticipant[msg.sender]) {\r\n      participants.push(msg.sender);\r\n      isParticipant[msg.sender] = true;\r\n    }\r\n\r\n    //Register investment\r\n    balanceOf[msg.sender] = balanceOf[msg.sender].add(msg.value);\r\n    totalFundsInWeis = totalFundsInWeis.add(msg.value);\r\n\r\n    if (cycleNumber == 1) {\r\n      //Give control tokens proportional to investment\r\n      cToken.mint(msg.sender, msg.value);\r\n    }\r\n\r\n    //Emit event\r\n    Deposit(cycleNumber, msg.sender, msg.value, now);\r\n  }\r\n\r\n  /**\r\n   * Withdraws a certain amount of Ether from the user's account. Cannot be called during the first cycle.\r\n   * @param _amountInWeis amount of Ether to be withdrawn\r\n   */\r\n  function withdraw(uint256 _amountInWeis)\r\n    public\r\n    during(CyclePhase.ChangeMaking)\r\n    onlyParticipant\r\n    whenNotPaused\r\n  {\r\n    require(cycleNumber != 1);\r\n\r\n    //Subtract from account\r\n    totalFundsInWeis = totalFundsInWeis.sub(_amountInWeis);\r\n    balanceOf[msg.sender] = balanceOf[msg.sender].sub(_amountInWeis);\r\n\r\n    //Transfer Ether to user\r\n    msg.sender.transfer(_amountInWeis);\r\n\r\n    //Emit event\r\n    Withdraw(cycleNumber, msg.sender, _amountInWeis, now);\r\n  }\r\n\r\n  /**\r\n   * Function for withdrawing all funds in times of emergency. Only callable when fund is paused.\r\n   */\r\n  function emergencyWithdraw()\r\n    public\r\n    onlyParticipant\r\n    whenPaused\r\n  {\r\n    uint256 amountInWeis = balanceOf[msg.sender];\r\n\r\n    //Subtract from account\r\n    totalFundsInWeis = totalFundsInWeis.sub(amountInWeis);\r\n    balanceOf[msg.sender] = 0;\r\n\r\n    //Transfer\r\n    msg.sender.transfer(amountInWeis);\r\n\r\n    //Emit event\r\n    Withdraw(cycleNumber, msg.sender, amountInWeis, now);\r\n  }\r\n\r\n  /**\r\n   * Ends the ChangeMaking phase.\r\n   */\r\n  function endChangeMakingTime() public during(CyclePhase.ChangeMaking) whenNotPaused {\r\n    require(now >= startTimeOfCyclePhase.add(timeOfChangeMaking));\r\n\r\n    startTimeOfCyclePhase = now;\r\n    cyclePhase = CyclePhase.ProposalMaking;\r\n\r\n    ChangeMakingTimeEnded(cycleNumber, now);\r\n  }\r\n\r\n  /**\r\n   * ProposalMakingTime functions\r\n   */\r\n\r\n  /**\r\n   * Creates a new investment proposal for an ERC20 token.\r\n   * @param _tokenAddress address of the ERC20 token contract\r\n   * @param _tokenSymbol  ticker/symbol of the token\r\n   * @param _tokenDecimals number of decimals that the token uses\r\n   * @param _stakeInWeis amount of Kairos to be staked in support of the proposal\r\n   */\r\n  function createProposal(\r\n    address _tokenAddress,\r\n    string _tokenSymbol,\r\n    uint256 _tokenDecimals,\r\n    uint256 _stakeInWeis\r\n  )\r\n    public\r\n    during(CyclePhase.ProposalMaking)\r\n    onlyParticipant\r\n    whenNotPaused\r\n  {\r\n    require(numProposals < maxProposals);\r\n    require(!isTokenAlreadyProposed[_tokenAddress]);\r\n    require(createdProposalCount[msg.sender] < maxProposalsPerMember);\r\n\r\n    //Add proposal to list\r\n    proposals.push(Proposal({\r\n      tokenAddress: _tokenAddress,\r\n      tokenSymbol: _tokenSymbol,\r\n      tokenDecimals: _tokenDecimals,\r\n      buyPriceInWeis: 0,\r\n      sellPriceInWeis: 0,\r\n      numFor: 0,\r\n      numAgainst: 0,\r\n      buyOrderExpirationBlockNum: 0,\r\n      sellOrderExpirationBlockNum: 0\r\n    }));\r\n\r\n    //Update values about proposal\r\n    isTokenAlreadyProposed[_tokenAddress] = true;\r\n    oraclize.__pushTokenSymbolOfProposal(_tokenSymbol);\r\n    createdProposalCount[msg.sender] = createdProposalCount[msg.sender].add(1);\r\n    numProposals = numProposals.add(1);\r\n\r\n    //Stake control tokens\r\n    uint256 proposalId = proposals.length - 1;\r\n    supportProposal(proposalId, _stakeInWeis);\r\n\r\n    //Emit event\r\n    NewProposal(cycleNumber, proposalId, _tokenAddress, _tokenSymbol, _stakeInWeis);\r\n  }\r\n\r\n  /**\r\n   * Supports an investment proposal.\r\n   * @param _proposalId ID of the proposal the user wants to support\r\n   * @param _stakeInWeis amount of Kairo to be staked in support of the proposal\r\n   */\r\n  function supportProposal(uint256 _proposalId, uint256 _stakeInWeis)\r\n    public\r\n    during(CyclePhase.ProposalMaking)\r\n    onlyParticipant\r\n    whenNotPaused\r\n  {\r\n    require(_proposalId < proposals.length); //Valid ID\r\n    require(isTokenAlreadyProposed[proposals[_proposalId].tokenAddress]); //Non-empty proposal\r\n\r\n    /**\r\n     * Stake Kairos\r\n     */\r\n    //Ensure stake is larger than the minimum proportion of Kairo balance\r\n    require(_stakeInWeis.mul(tenToDecimals) >= minStakeProportion.mul(cToken.balanceOf(msg.sender)));\r\n    //Collect Kairos as stake\r\n    cToken.ownerCollectFrom(msg.sender, _stakeInWeis);\r\n    //Update stake data\r\n    if (forStakedControlOfProposalOfUser[_proposalId][msg.sender] == 0) {\r\n      proposals[_proposalId].numFor = proposals[_proposalId].numFor.add(1);\r\n    }\r\n    forStakedControlOfProposal[_proposalId] = forStakedControlOfProposal[_proposalId].add(_stakeInWeis);\r\n    forStakedControlOfProposalOfUser[_proposalId][msg.sender] = forStakedControlOfProposalOfUser[_proposalId][msg.sender].add(_stakeInWeis);\r\n    totalStaked = totalStaked.add(_stakeInWeis);\r\n\r\n    //Emit event\r\n    SupportedProposal(cycleNumber, _proposalId, _stakeInWeis);\r\n  }\r\n\r\n  /**\r\n   * Cancels support of a proposal.\r\n   * @param _proposalId ID of the proposal\r\n   */\r\n  function cancelProposalSupport(uint256 _proposalId)\r\n    public\r\n    during(CyclePhase.ProposalMaking)\r\n    onlyParticipant\r\n    whenNotPaused\r\n  {\r\n    require(_proposalId < proposals.length); //Valid ID\r\n    require(proposals[_proposalId].numFor > 0); //Non-empty proposal\r\n\r\n    //Remove stake data\r\n    uint256 stake = forStakedControlOfProposalOfUser[_proposalId][msg.sender];\r\n    delete forStakedControlOfProposalOfUser[_proposalId][msg.sender];\r\n    forStakedControlOfProposal[_proposalId] = forStakedControlOfProposal[_proposalId].sub(stake);\r\n    totalStaked = totalStaked.sub(stake);\r\n\r\n    //Remove support\r\n    proposals[_proposalId].numFor = proposals[_proposalId].numFor.sub(1);\r\n\r\n    //Return stake\r\n    cToken.transfer(msg.sender, stake);\r\n\r\n    //Delete proposal if necessary\r\n    if (forStakedControlOfProposal[_proposalId] == 0) {\r\n      __resetProposalData(_proposalId);\r\n      numProposals = numProposals.sub(1);\r\n      delete proposals[_proposalId];\r\n    }\r\n  }\r\n\r\n  /**\r\n   * Ends the ProposalMaking phase.\r\n   */\r\n  function endProposalMakingTime()\r\n    public\r\n    during(CyclePhase.ProposalMaking)\r\n    whenNotPaused\r\n  {\r\n    require(now >= startTimeOfCyclePhase.add(timeOfProposalMaking));\r\n\r\n    startTimeOfCyclePhase = now;\r\n    cyclePhase = CyclePhase.Waiting;\r\n\r\n    __stakeAgainstVotes();\r\n    __makeInvestments();\r\n\r\n    ProposalMakingTimeEnded(cycleNumber, now);\r\n  }\r\n\r\n  /**\r\n   * Stakes the Kairos of the against side into proposals.\r\n   */\r\n  function __stakeAgainstVotes() internal {\r\n    for (uint256 i = 0; i < proposals.length; i = i.add(1)) {\r\n      if (proposals[i].numFor > 0) { //Ensure proposal isn't a deleted one\r\n        //Calculate total Kairo balance of users against the proposal\r\n        uint256 againstTotalBalance = 0;\r\n        for (uint256 j = 0; j < participants.length; j = j.add(1)) {\r\n          bool isFor = forStakedControlOfProposalOfUser[i][participants[j]] != 0;\r\n          if (!isFor) {\r\n            againstTotalBalance = againstTotalBalance.add(cToken.balanceOf(participants[j]));\r\n          }\r\n        }\r\n        //Calculate the proportion of Kairo each user against the proposal have to stake\r\n        uint256 stakeProportion = tenToDecimals;\r\n        if (forStakedControlOfProposal[i] < againstTotalBalance) {\r\n          stakeProportion = forStakedControlOfProposal[i].mul(tenToDecimals).div(againstTotalBalance);\r\n        } else {\r\n          //Mint new Kairo to fill the gap\r\n          uint256 mintAmount = forStakedControlOfProposal[i] - againstTotalBalance;\r\n          if (mintAmount > 0) {\r\n            cToken.mint(address(this), mintAmount);\r\n          }\r\n        }\r\n        //Collect stakes\r\n        for (j = 0; j < participants.length; j = j.add(1)) {\r\n          address participant = participants[j];\r\n          isFor = forStakedControlOfProposalOfUser[i][participant] != 0;\r\n          uint256 userBalance = cToken.balanceOf(participant);\r\n          if (!isFor && userBalance > 0) {\r\n            uint256 stake = stakeProportion.mul(userBalance).div(tenToDecimals);\r\n            cToken.ownerCollectFrom(participant, stake);\r\n            proposals[i].numAgainst = proposals[i].numAgainst.add(1);\r\n            againstStakedControlOfProposalOfUser[i][participant] = againstStakedControlOfProposalOfUser[i][participant].add(stake);\r\n          }\r\n        }\r\n      }\r\n    }\r\n  }\r\n\r\n  /**\r\n   * Turns the investment proposals into EtherDelta orders.\r\n   */\r\n  function __makeInvestments() internal {\r\n    //Invest in tokens using etherdelta\r\n    for (uint256 i = 0; i < proposals.length; i = i.add(1)) {\r\n      if (proposals[i].numFor > 0) { //Ensure proposal isn't a deleted one\r\n        //Deposit ether\r\n        uint256 investAmount = totalFundsInWeis.mul(forStakedControlOfProposal[i]).div(totalStaked);\r\n        etherDelta.deposit.value(investAmount)();\r\n        oraclize.__grabCurrentPriceFromOraclize(i);\r\n      }\r\n    }\r\n  }\r\n\r\n  /**\r\n   * Ends the Waiting phase.\r\n   */\r\n  function endWaitingTime() public during(CyclePhase.Waiting) whenNotPaused {\r\n    require(now >= startTimeOfCyclePhase.add(timeOfWaiting));\r\n\r\n    //Update values\r\n    startTimeOfCyclePhase = now;\r\n    cyclePhase = CyclePhase.Ended;\r\n\r\n    //Sell all invested tokens\r\n    for (uint256 i = 0; i < proposals.length; i = i.add(1)) {\r\n      if (proposals[i].numFor > 0) { //Ensure proposal isn't a deleted one\r\n        oraclize.__grabCurrentPriceFromOraclize(i);\r\n      }\r\n    }\r\n\r\n    //Emit event\r\n    CycleEnded(cycleNumber, now);\r\n  }\r\n\r\n  /**\r\n   * Finalize the cycle by redistributing user balances and settling investment proposals.\r\n   */\r\n  function finalizeCycle() public during(CyclePhase.Ended) whenNotPaused {\r\n    require(now >= startTimeOfCyclePhase.add(timeOfSellOrderWaiting));\r\n\r\n    //Update cycle values\r\n    startTimeOfCyclePhase = now;\r\n    cyclePhase = CyclePhase.Finalized;\r\n\r\n    //Settle investment proposal results\r\n    for (uint256 proposalId = 0; proposalId < proposals.length; proposalId = proposalId.add(1)) {\r\n      if (proposals[proposalId].numFor > 0) { //Ensure proposal isn't a deleted one\r\n        __settleBets(proposalId);\r\n      }\r\n    }\r\n    //Burn any Kairo left in BetokenFund's account\r\n    cToken.burnOwnerBalance();\r\n\r\n    //Withdraw from etherdelta\r\n    uint256 balance = etherDelta.tokens(address(0), address(this));\r\n    etherDelta.withdraw(balance);\r\n\r\n    //Get all remaining funds from OraclizeHandler\r\n    oraclize.__returnAllFunds();\r\n\r\n    //Distribute funds\r\n    __distributeFundsAfterCycleEnd();\r\n\r\n    //Emit event\r\n    CycleFinalized(cycleNumber, now);\r\n  }\r\n\r\n  /**\r\n   * Settles an investment proposal in terms of profitability.\r\n   * @param _proposalId ID of the proposal\r\n   */\r\n  function __settleBets(uint256 _proposalId) internal {\r\n    Proposal storage prop = proposals[_proposalId];\r\n\r\n    //Prevent divide by zero errors\r\n    if (prop.buyPriceInWeis == 0 || totalStaked == 0) {\r\n      __returnStakes(_proposalId);\r\n      return;\r\n    }\r\n\r\n    uint256 stake;\r\n    uint256 j;\r\n    address participant;\r\n    uint256 investAmount = totalFundsInWeis.mul(forStakedControlOfProposal[_proposalId]).div(totalStaked);\r\n\r\n    //Check if sell order has been partially or completely filled\r\n    if (etherDelta.amountFilled(prop.tokenAddress, investAmount.mul(10**prop.tokenDecimals).div(prop.buyPriceInWeis), address(0), investAmount, prop.sellOrderExpirationBlockNum, _proposalId, address(this), 0, 0, 0) != 0) {\r\n      if (prop.sellPriceInWeis > prop.buyPriceInWeis) {\r\n        //For wins\r\n        for (j = 0; j < participants.length; j = j.add(1)) {\r\n          participant = participants[j];\r\n          stake = forStakedControlOfProposalOfUser[_proposalId][participant];\r\n          if (stake > 0) {\r\n            //Give control tokens\r\n            cToken.transfer(participant, stake.mul(2));\r\n            //Emit event\r\n            PredictionResult(cycleNumber, participant, true);\r\n          } else {\r\n            //Check if participant staked against\r\n            if (againstStakedControlOfProposalOfUser[_proposalId][participant] > 0) {\r\n              //Emit event\r\n              PredictionResult(cycleNumber, participant, false);\r\n            }\r\n          }\r\n        }\r\n      } else {\r\n        //Against wins\r\n        if (prop.numAgainst > 0) {\r\n          for (j = 0; j < participants.length; j = j.add(1)) {\r\n            participant = participants[j];\r\n            stake = againstStakedControlOfProposalOfUser[_proposalId][participant];\r\n            if (stake > 0) {\r\n              //Give control tokens\r\n              cToken.transfer(participant, stake.mul(2));\r\n              //Emit event\r\n              PredictionResult(cycleNumber, participant, true);\r\n            } else {\r\n              //Check if participant staked for\r\n              if (forStakedControlOfProposalOfUser[_proposalId][participant] > 0) {\r\n                //Emit event\r\n                PredictionResult(cycleNumber, participant, false);\r\n              }\r\n            }\r\n          }\r\n        } else {\r\n          //Everyone f'ed up somehow. No point in punishing. Return stakes.\r\n          __returnStakes(_proposalId);\r\n        }\r\n      }\r\n    } else {\r\n      //Buy order failed completely. Give back stakes.\r\n      __returnStakes(_proposalId);\r\n    }\r\n  }\r\n\r\n  /**\r\n   * Returns all stakes of a proposal\r\n   * @param _proposalId ID of a proposal\r\n   */\r\n  function __returnStakes(uint256 _proposalId) internal {\r\n    for (uint256 j = 0; j < participants.length; j = j.add(1)) {\r\n      address participant = participants[j];\r\n      uint256 stake = forStakedControlOfProposalOfUser[_proposalId][participant].add(againstStakedControlOfProposalOfUser[_proposalId][participant]);\r\n      if (stake != 0) {\r\n        cToken.transfer(participant, stake);\r\n      }\r\n    }\r\n  }\r\n\r\n  /**\r\n   * Distributes the funds accourding to previously held proportions. Pays commission to Kairo holders,\r\n   * developer fees to developers, and oraclize fee to OraclizeHandler.\r\n   */\r\n  function __distributeFundsAfterCycleEnd() internal {\r\n    uint256 profit = 0;\r\n    if (this.balance > totalFundsInWeis) {\r\n      profit = this.balance - totalFundsInWeis;\r\n    }\r\n    uint256 totalCommission = commissionRate.mul(profit).div(tenToDecimals);\r\n    uint256 devFee = developerFeeProportion.mul(this.balance).div(tenToDecimals);\r\n    uint256 oraclizeFee = oraclize.__oraclizeFee().mul(maxProposals).mul(2);\r\n    uint256 newTotalRegularFunds = this.balance.sub(totalCommission).sub(devFee);\r\n    if (oraclizeFee <= newTotalRegularFunds) {\r\n      newTotalRegularFunds = newTotalRegularFunds.sub(oraclizeFee);\r\n    }\r\n\r\n    //Distributes funds to participants\r\n    for (uint256 i = 0; i < participants.length; i = i.add(1)) {\r\n      address participant = participants[i];\r\n      uint256 newBalance = 0;\r\n      //Add share\r\n      if (totalFundsInWeis > 0) {\r\n        newBalance = newBalance.add(newTotalRegularFunds.mul(balanceOf[participant]).div(totalFundsInWeis));\r\n      }\r\n      //Add commission\r\n      //Adding a check for nonzero Kairo supply here makes Truffle go apeshit. Edge case anyways, so whatevs.\r\n      newBalance = newBalance.add(totalCommission.mul(cToken.balanceOf(participant)).div(cToken.totalSupply()));\r\n      //Update balance\r\n      balanceOf[participant] = newBalance;\r\n    }\r\n\r\n    //Update values\r\n    uint256 newTotalFunds = newTotalRegularFunds.add(totalCommission);\r\n    ROI(cycleNumber, totalFundsInWeis, newTotalFunds);\r\n    totalFundsInWeis = newTotalFunds;\r\n\r\n    //Transfer fees\r\n    developerFeeAccount.transfer(devFee);\r\n    oraclize.transfer(oraclizeFee);\r\n\r\n    //Emit event\r\n    CommissionPaid(cycleNumber, totalCommission);\r\n  }\r\n\r\n  /**\r\n   * Internal use functions\r\n   */\r\n\r\n  function __addControlTokenReceipientAsParticipant(address _receipient) public {\r\n    require(msg.sender == controlTokenAddr);\r\n    isParticipant[_receipient] = true;\r\n    participants.push(_receipient);\r\n  }\r\n\r\n  function __makeOrder(address _tokenGet, uint _amountGet, address _tokenGive, uint _amountGive, uint _expires, uint _nonce) public onlyOraclize whenNotPaused {\r\n    etherDelta.order(_tokenGet, _amountGet, _tokenGive, _amountGive, _expires, _nonce);\r\n  }\r\n\r\n  function __setBuyPriceAndExpirationBlock(uint256 _proposalId, uint256 _buyPrice, uint256 _expires) public onlyOraclize {\r\n    proposals[_proposalId].buyPriceInWeis = _buyPrice;\r\n    proposals[_proposalId].buyOrderExpirationBlockNum = _expires;\r\n  }\r\n\r\n  function __setSellPriceAndExpirationBlock(uint256 _proposalId, uint256 _sellPrice, uint256 _expires) public onlyOraclize {\r\n    proposals[_proposalId].sellPriceInWeis = _sellPrice;\r\n    proposals[_proposalId].sellOrderExpirationBlockNum = _expires;\r\n  }\r\n\r\n  function() public payable {\r\n    if (msg.sender != etherDeltaAddr && msg.sender != oraclizeAddr) {\r\n      revert();\r\n    }\r\n  }\r\n}\r\n\r\n/**\r\n * Contract that handles all Oraclize related operations.\r\n */\r\ncontract OraclizeHandler is usingOraclize, Ownable {\r\n  using SafeMath for uint256;\r\n\r\n  enum CyclePhase { ChangeMaking, ProposalMaking, Waiting, Ended, Finalized }\r\n\r\n  //URL parts used for Oraclize queries.\r\n  string public priceCheckURL1;\r\n  string public priceCheckURL2;\r\n  string public currencySymbol;\r\n\r\n  //Addresses of other contracts.\r\n  address public controlTokenAddr;\r\n  address public etherDeltaAddr;\r\n\r\n  //mapping(queryHash => proposalId)\r\n  mapping(bytes32 => uint256) public proposalIdOfQuery;\r\n\r\n  //References to other contracts.\r\n  BetokenFund internal betokenFund;\r\n  ControlToken internal cToken;\r\n  EtherDelta internal etherDelta;\r\n\r\n  //Stores the token symbols of each proposal.\r\n  string[] public tokenSymbolOfProposal;\r\n\r\n  function OraclizeHandler(\r\n    address _controlTokenAddr,\r\n    address _etherDeltaAddr,\r\n    string _priceCheckURL1,\r\n    string _priceCheckURL2\r\n  )\r\n    public\r\n  {\r\n    controlTokenAddr = _controlTokenAddr;\r\n    etherDeltaAddr = _etherDeltaAddr;\r\n    cToken = ControlToken(_controlTokenAddr);\r\n    etherDelta = EtherDelta(_etherDeltaAddr);\r\n\r\n    priceCheckURL1 = _priceCheckURL1;\r\n    priceCheckURL2 = _priceCheckURL2;\r\n  }\r\n\r\n  function __changeEtherDeltaAddress(address _newAddr) public onlyOwner {\r\n    etherDeltaAddr = _newAddr;\r\n    etherDelta = EtherDelta(_newAddr);\r\n  }\r\n\r\n  function __pushTokenSymbolOfProposal(string _tokenSymbol) public onlyOwner {\r\n    tokenSymbolOfProposal.push(_tokenSymbol);\r\n  }\r\n\r\n  function __deleteTokenSymbolOfProposal() public onlyOwner {\r\n    delete tokenSymbolOfProposal;\r\n  }\r\n\r\n  function __returnAllFunds() public onlyOwner {\r\n    owner.transfer(this.balance);\r\n  }\r\n\r\n  function __oraclizeFee() public view returns(uint256) {\r\n    return oraclize_getPrice(\"URL\");\r\n  }\r\n\r\n  /**\r\n   * Oraclize functions\r\n   */\r\n\r\n  /**\r\n   * Queries the price of a proposal's token using Oraclize.\r\n   * @param _proposalId ID of the proposal\r\n   */\r\n  function __grabCurrentPriceFromOraclize(uint _proposalId) public payable onlyOwner {\r\n    require(oraclize_getPrice(\"URL\") <= this.balance);\r\n\r\n    betokenFund = BetokenFund(owner);\r\n\r\n    //Generate query\r\n    string storage tokenSymbol = tokenSymbolOfProposal[_proposalId];\r\n    string memory urlToQuery = strConcat(priceCheckURL1, tokenSymbol, priceCheckURL2);\r\n\r\n    //Call Oraclize to grab the most recent price information\r\n    proposalIdOfQuery[oraclize_query(\"URL\", urlToQuery)] = _proposalId;\r\n  }\r\n\r\n  /**\r\n   * Callback function for Oraclize queries.\r\n   * @param _myID query ID\r\n   * @param _result  result of query\r\n   */\r\n  function __callback(bytes32 _myID, string _result) public {\r\n    require(msg.sender == oraclize_cbAddress());\r\n    require(keccak256(_result) != keccak256(\"\"));\r\n\r\n    //Update BetokenFund contract in case owner has changed\r\n    betokenFund = BetokenFund(owner);\r\n\r\n    //Grab ETH price in Weis\r\n    uint256 priceInWeis = parseInt(_result, 18);\r\n\r\n    //Get proposal data\r\n    uint256 proposalId = proposalIdOfQuery[_myID];\r\n    var (tokenAddress, _, decimals,) = betokenFund.proposals(proposalId);\r\n\r\n    uint256 investAmount = betokenFund.totalFundsInWeis().mul(betokenFund.forStakedControlOfProposal(proposalId)).div(betokenFund.totalStaked());\r\n    uint256 expires = block.number.add(betokenFund.orderExpirationTimeInBlocks());\r\n    if (uint(betokenFund.cyclePhase()) == uint(CyclePhase.Waiting)) {\r\n      //Make buy orders\r\n      betokenFund.__setBuyPriceAndExpirationBlock(proposalId, priceInWeis, expires);\r\n      uint256 buyTokenAmount = investAmount.mul(10**decimals).div(priceInWeis);\r\n      betokenFund.__makeOrder(tokenAddress, buyTokenAmount, address(0), investAmount, expires, proposalId);\r\n    } else if (uint(betokenFund.cyclePhase()) == uint(CyclePhase.Ended)) {\r\n      //Make sell orders\r\n      betokenFund.__setSellPriceAndExpirationBlock(proposalId, priceInWeis, expires);\r\n      uint256 sellTokenAmount = etherDelta.tokens(tokenAddress, owner);\r\n      uint256 getWeiAmount = sellTokenAmount.mul(priceInWeis).div(10**decimals);\r\n      betokenFund.__makeOrder(address(0), getWeiAmount, tokenAddress, sellTokenAmount, expires, proposalId);\r\n    }\r\n\r\n    //Reset data\r\n    delete proposalIdOfQuery[_myID];\r\n  }\r\n\r\n  function() public payable {\r\n    if (msg.sender != owner) {\r\n      revert();\r\n    }\r\n  }\r\n}\r\n\r\n/**\r\n * ERC20 token contract for Kairo.\r\n */\r\ncontract ControlToken is MintableToken {\r\n  using SafeMath for uint256;\r\n\r\n  string public constant name = \"Kairo\";\r\n  string public constant symbol = \"KRO\";\r\n  uint8 public constant decimals = 18;\r\n\r\n  event OwnerCollectFrom(address _from, uint256 _value);\r\n\r\n  /**\r\n   * Transfer token for a specified address\r\n   * @param _to The address to transfer to.\r\n   * @param _value The amount to be transferred.\r\n   */\r\n  function transfer(address _to, uint256 _value) public returns(bool) {\r\n    require(_to != address(0));\r\n    require(_value <= balances[msg.sender]);\r\n\r\n    //Add receipient as a participant if not already a participant\r\n    addParticipant(_to);\r\n\r\n    // SafeMath.sub will throw if there is not enough balance.\r\n    balances[msg.sender] = balances[msg.sender].sub(_value);\r\n    balances[_to] = balances[_to].add(_value);\r\n    Transfer(msg.sender, _to, _value);\r\n    return true;\r\n  }\r\n\r\n  /**\r\n   * Transfer tokens from one address to another\r\n   * @param _from The address which you want to send tokens from\r\n   * @param _to The address which you want to transfer to\r\n   * @param _value the amount of tokens to be transferred\r\n   */\r\n  function transferFrom(address _from, address _to, uint256 _value) public returns (bool) {\r\n    require(_to != address(0));\r\n    require(_value <= balances[_from]);\r\n    require(_value <= allowed[_from][msg.sender]);\r\n\r\n    //Add receipient as a participant if not already a participant\r\n    addParticipant(_to);\r\n\r\n    balances[_from] = balances[_from].sub(_value);\r\n    balances[_to] = balances[_to].add(_value);\r\n    allowed[_from][msg.sender] = allowed[_from][msg.sender].sub(_value);\r\n    Transfer(_from, _to, _value);\r\n    return true;\r\n  }\r\n\r\n  /**\r\n   * Collects tokens for the owner.\r\n   * @param _from The address which you want to send tokens from\r\n   * @param _value the amount of tokens to be transferred\r\n   * @return true if succeeded, false otherwise\r\n   */\r\n  function ownerCollectFrom(address _from, uint256 _value) public onlyOwner returns(bool) {\r\n    require(_from != address(0));\r\n    require(_value <= balances[_from]);\r\n\r\n    // SafeMath.sub will throw if there is not enough balance.\r\n    balances[_from] = balances[_from].sub(_value);\r\n    balances[msg.sender] = balances[msg.sender].add(_value);\r\n    OwnerCollectFrom(_from, _value);\r\n    return true;\r\n  }\r\n\r\n  /**\r\n   * Adds an address as a BetokenFund participant.\r\n   * @param  _to the address to be added\r\n   */\r\n  function addParticipant(address _to) internal {\r\n    BetokenFund groupFund = BetokenFund(owner);\r\n    if (!groupFund.isParticipant(_to)) {\r\n      groupFund.__addControlTokenReceipientAsParticipant(_to);\r\n    }\r\n  }\r\n\r\n  /**\r\n   * Burns the owner's token balance.\r\n   */\r\n  function burnOwnerBalance() public onlyOwner {\r\n    totalSupply_ = totalSupply_.sub(balances[owner]);\r\n    balances[owner] = 0;\r\n  }\r\n\r\n  function() public {\r\n    revert();\r\n  }\r\n}\r\n",
  "sourcePath": "D:\\msi-cn\\Documents\\GitHub\\betoken\\eth\\contracts\\betoken.sol",
  "compiler": {
    "name": "solc",
    "version": "0.4.18+commit.9cf6e910.Emscripten.clang"
  },
  "schemaVersion": "1.0.1",
  "updatedAt": "2018-01-29T07:25:45.907Z"
}