{
  "contractName": "PausableToken",
  "abi": [
    {
      "constant": true,
      "inputs": [],
      "name": "totalSupply",
      "outputs": [
        {
          "name": "",
          "type": "uint256"
        }
      ],
      "payable": false,
      "stateMutability": "view",
      "type": "function"
    },
    {
      "constant": false,
      "inputs": [],
      "name": "unpause",
      "outputs": [],
      "payable": false,
      "stateMutability": "nonpayable",
      "type": "function"
    },
    {
      "constant": true,
      "inputs": [],
      "name": "paused",
      "outputs": [
        {
          "name": "",
          "type": "bool"
        }
      ],
      "payable": false,
      "stateMutability": "view",
      "type": "function"
    },
    {
      "constant": true,
      "inputs": [
        {
          "name": "_owner",
          "type": "address"
        }
      ],
      "name": "balanceOf",
      "outputs": [
        {
          "name": "balance",
          "type": "uint256"
        }
      ],
      "payable": false,
      "stateMutability": "view",
      "type": "function"
    },
    {
      "constant": false,
      "inputs": [],
      "name": "pause",
      "outputs": [],
      "payable": false,
      "stateMutability": "nonpayable",
      "type": "function"
    },
    {
      "constant": true,
      "inputs": [],
      "name": "owner",
      "outputs": [
        {
          "name": "",
          "type": "address"
        }
      ],
      "payable": false,
      "stateMutability": "view",
      "type": "function"
    },
    {
      "constant": true,
      "inputs": [
        {
          "name": "_owner",
          "type": "address"
        },
        {
          "name": "_spender",
          "type": "address"
        }
      ],
      "name": "allowance",
      "outputs": [
        {
          "name": "",
          "type": "uint256"
        }
      ],
      "payable": false,
      "stateMutability": "view",
      "type": "function"
    },
    {
      "constant": false,
      "inputs": [
        {
          "name": "newOwner",
          "type": "address"
        }
      ],
      "name": "transferOwnership",
      "outputs": [],
      "payable": false,
      "stateMutability": "nonpayable",
      "type": "function"
    },
    {
      "anonymous": false,
      "inputs": [],
      "name": "Pause",
      "type": "event"
    },
    {
      "anonymous": false,
      "inputs": [],
      "name": "Unpause",
      "type": "event"
    },
    {
      "anonymous": false,
      "inputs": [
        {
          "indexed": true,
          "name": "previousOwner",
          "type": "address"
        },
        {
          "indexed": true,
          "name": "newOwner",
          "type": "address"
        }
      ],
      "name": "OwnershipTransferred",
      "type": "event"
    },
    {
      "anonymous": false,
      "inputs": [
        {
          "indexed": true,
          "name": "owner",
          "type": "address"
        },
        {
          "indexed": true,
          "name": "spender",
          "type": "address"
        },
        {
          "indexed": false,
          "name": "value",
          "type": "uint256"
        }
      ],
      "name": "Approval",
      "type": "event"
    },
    {
      "anonymous": false,
      "inputs": [
        {
          "indexed": true,
          "name": "from",
          "type": "address"
        },
        {
          "indexed": true,
          "name": "to",
          "type": "address"
        },
        {
          "indexed": false,
          "name": "value",
          "type": "uint256"
        }
      ],
      "name": "Transfer",
      "type": "event"
    },
    {
      "constant": false,
      "inputs": [
        {
          "name": "_to",
          "type": "address"
        },
        {
          "name": "_value",
          "type": "uint256"
        }
      ],
      "name": "transfer",
      "outputs": [
        {
          "name": "",
          "type": "bool"
        }
      ],
      "payable": false,
      "stateMutability": "nonpayable",
      "type": "function"
    },
    {
      "constant": false,
      "inputs": [
        {
          "name": "_from",
          "type": "address"
        },
        {
          "name": "_to",
          "type": "address"
        },
        {
          "name": "_value",
          "type": "uint256"
        }
      ],
      "name": "transferFrom",
      "outputs": [
        {
          "name": "",
          "type": "bool"
        }
      ],
      "payable": false,
      "stateMutability": "nonpayable",
      "type": "function"
    },
    {
      "constant": false,
      "inputs": [
        {
          "name": "_spender",
          "type": "address"
        },
        {
          "name": "_value",
          "type": "uint256"
        }
      ],
      "name": "approve",
      "outputs": [
        {
          "name": "",
          "type": "bool"
        }
      ],
      "payable": false,
      "stateMutability": "nonpayable",
      "type": "function"
    },
    {
      "constant": false,
      "inputs": [
        {
          "name": "_spender",
          "type": "address"
        },
        {
          "name": "_addedValue",
          "type": "uint256"
        }
      ],
      "name": "increaseApproval",
      "outputs": [
        {
          "name": "success",
          "type": "bool"
        }
      ],
      "payable": false,
      "stateMutability": "nonpayable",
      "type": "function"
    },
    {
      "constant": false,
      "inputs": [
        {
          "name": "_spender",
          "type": "address"
        },
        {
          "name": "_subtractedValue",
          "type": "uint256"
        }
      ],
      "name": "decreaseApproval",
      "outputs": [
        {
          "name": "success",
          "type": "bool"
        }
      ],
      "payable": false,
      "stateMutability": "nonpayable",
      "type": "function"
    }
  ],
  "bytecode": "0x606060405260038054600160a860020a03191633600160a060020a0316179055610a358061002e6000396000f3006060604052600436106100c45763ffffffff7c0100000000000000000000000000000000000000000000000000000000600035041663095ea7b381146100c957806318160ddd146100ff57806323b872dd146101245780633f4ba83a1461014c5780635c975abb14610161578063661884631461017457806370a08231146101965780638456cb59146101b55780638da5cb5b146101c8578063a9059cbb146101f7578063d73dd62314610219578063dd62ed3e1461023b578063f2fde38b14610260575b600080fd5b34156100d457600080fd5b6100eb600160a060020a036004351660243561027f565b604051901515815260200160405180910390f35b341561010a57600080fd5b6101126102aa565b60405190815260200160405180910390f35b341561012f57600080fd5b6100eb600160a060020a03600435811690602435166044356102b0565b341561015757600080fd5b61015f6102dd565b005b341561016c57600080fd5b6100eb61035c565b341561017f57600080fd5b6100eb600160a060020a036004351660243561036c565b34156101a157600080fd5b610112600160a060020a0360043516610390565b34156101c057600080fd5b61015f6103ab565b34156101d357600080fd5b6101db61042f565b604051600160a060020a03909116815260200160405180910390f35b341561020257600080fd5b6100eb600160a060020a036004351660243561043e565b341561022457600080fd5b6100eb600160a060020a0360043516602435610462565b341561024657600080fd5b610112600160a060020a0360043581169060243516610486565b341561026b57600080fd5b61015f600160a060020a03600435166104b1565b60035460009060a060020a900460ff161561029957600080fd5b6102a3838361054c565b9392505050565b60015490565b60035460009060a060020a900460ff16156102ca57600080fd5b6102d58484846105b8565b949350505050565b60035433600160a060020a039081169116146102f857600080fd5b60035460a060020a900460ff16151561031057600080fd5b6003805474ff0000000000000000000000000000000000000000191690557f7805862f689e2f13df9f062ff482ad3ad112aca9e0847911ed832e158c525b3360405160405180910390a1565b60035460a060020a900460ff1681565b60035460009060a060020a900460ff161561038657600080fd5b6102a38383610738565b600160a060020a031660009081526020819052604090205490565b60035433600160a060020a039081169116146103c657600080fd5b60035460a060020a900460ff16156103dd57600080fd5b6003805474ff0000000000000000000000000000000000000000191660a060020a1790557f6985a02210a168e66602d3235cb6db0e70f92b3ba4d376a33c0f3d9434bff62560405160405180910390a1565b600354600160a060020a031681565b60035460009060a060020a900460ff161561045857600080fd5b6102a38383610832565b60035460009060a060020a900460ff161561047c57600080fd5b6102a38383610944565b600160a060020a03918216600090815260026020908152604080832093909416825291909152205490565b60035433600160a060020a039081169116146104cc57600080fd5b600160a060020a03811615156104e157600080fd5b600354600160a060020a0380831691167f8be0079c531659141344cd1fd0a4f28419497f9722a3daafe3b4186f6b6457e060405160405180910390a36003805473ffffffffffffffffffffffffffffffffffffffff1916600160a060020a0392909216919091179055565b600160a060020a03338116600081815260026020908152604080832094871680845294909152808220859055909291907f8c5be1e5ebec7d5bd14f71427d1e84f3dd0314c0f7b2291e5b200ac8c7c3b9259085905190815260200160405180910390a350600192915050565b6000600160a060020a03831615156105cf57600080fd5b600160a060020a0384166000908152602081905260409020548211156105f457600080fd5b600160a060020a038085166000908152600260209081526040808320339094168352929052205482111561062757600080fd5b600160a060020a038416600090815260208190526040902054610650908363ffffffff6109e816565b600160a060020a038086166000908152602081905260408082209390935590851681522054610685908363ffffffff6109fa16565b600160a060020a03808516600090815260208181526040808320949094558783168252600281528382203390931682529190915220546106cb908363ffffffff6109e816565b600160a060020a03808616600081815260026020908152604080832033861684529091529081902093909355908516917fddf252ad1be2c89b69c2b068fc378daa952ba7f163c4a11628f55a4df523b3ef9085905190815260200160405180910390a35060019392505050565b600160a060020a0333811660009081526002602090815260408083209386168352929052908120548083111561079557600160a060020a0333811660009081526002602090815260408083209388168352929052908120556107cc565b6107a5818463ffffffff6109e816565b600160a060020a033381166000908152600260209081526040808320938916835292905220555b600160a060020a0333811660008181526002602090815260408083209489168084529490915290819020547f8c5be1e5ebec7d5bd14f71427d1e84f3dd0314c0f7b2291e5b200ac8c7c3b925915190815260200160405180910390a35060019392505050565b6000600160a060020a038316151561084957600080fd5b600160a060020a03331660009081526020819052604090205482111561086e57600080fd5b600160a060020a033316600090815260208190526040902054610897908363ffffffff6109e816565b600160a060020a0333811660009081526020819052604080822093909355908516815220546108cc908363ffffffff6109fa16565b60008085600160a060020a0316600160a060020a031681526020019081526020016000208190555082600160a060020a031633600160a060020a03167fddf252ad1be2c89b69c2b068fc378daa952ba7f163c4a11628f55a4df523b3ef8460405190815260200160405180910390a350600192915050565b600160a060020a03338116600090815260026020908152604080832093861683529290529081205461097c908363ffffffff6109fa16565b600160a060020a0333811660008181526002602090815260408083209489168084529490915290819020849055919290917f8c5be1e5ebec7d5bd14f71427d1e84f3dd0314c0f7b2291e5b200ac8c7c3b92591905190815260200160405180910390a350600192915050565b6000828211156109f457fe5b50900390565b6000828201838110156102a357fe00a165627a7a72305820acbb1983cca78d4eca61fdf74399b4131ff20f75ce7e83153569c3bd5c29d3640029",
  "source": "pragma solidity ^0.4.18;\r\n\r\nimport \"./StandardToken.sol\";\r\nimport \"../../lifecycle/Pausable.sol\";\r\n\r\n\r\n/**\r\n * @title Pausable token\r\n * @dev StandardToken modified with pausable transfers.\r\n **/\r\ncontract PausableToken is StandardToken, Pausable {\r\n\r\n  function transfer(address _to, uint256 _value) public whenNotPaused returns (bool) {\r\n    return super.transfer(_to, _value);\r\n  }\r\n\r\n  function transferFrom(address _from, address _to, uint256 _value) public whenNotPaused returns (bool) {\r\n    return super.transferFrom(_from, _to, _value);\r\n  }\r\n\r\n  function approve(address _spender, uint256 _value) public whenNotPaused returns (bool) {\r\n    return super.approve(_spender, _value);\r\n  }\r\n\r\n  function increaseApproval(address _spender, uint _addedValue) public whenNotPaused returns (bool success) {\r\n    return super.increaseApproval(_spender, _addedValue);\r\n  }\r\n\r\n  function decreaseApproval(address _spender, uint _subtractedValue) public whenNotPaused returns (bool success) {\r\n    return super.decreaseApproval(_spender, _subtractedValue);\r\n  }\r\n}\r\n",
  "sourcePath": "zeppelin-solidity/contracts/token/ERC20/PausableToken.sol",
  "compiler": {
    "name": "solc",
    "version": "0.4.19+commit.c4cbbb05.Emscripten.clang"
  },
  "schemaVersion": "2.0.0",
  "updatedAt": "2018-04-30T02:09:42.224Z"
}