{
  "contractName": "TestKyberNetwork",
  "abi": [
    {
      "constant": true,
      "inputs": [
        {
          "name": "",
          "type": "address"
        }
      ],
      "name": "priceInDAI",
      "outputs": [
        {
          "name": "",
          "type": "uint256"
        }
      ],
      "payable": false,
      "stateMutability": "view",
      "type": "function"
    },
    {
      "inputs": [
        {
          "name": "_tokens",
          "type": "address[]"
        },
        {
          "name": "_pricesInDAI",
          "type": "uint256[]"
        }
      ],
      "payable": false,
      "stateMutability": "nonpayable",
      "type": "constructor"
    },
    {
      "constant": false,
      "inputs": [
        {
          "name": "_token",
          "type": "address"
        },
        {
          "name": "_priceInDAI",
          "type": "uint256"
        }
      ],
      "name": "setTokenPrice",
      "outputs": [],
      "payable": false,
      "stateMutability": "nonpayable",
      "type": "function"
    },
    {
      "constant": false,
      "inputs": [
        {
          "name": "src",
          "type": "address"
        },
        {
          "name": "srcAmount",
          "type": "uint256"
        },
        {
          "name": "dest",
          "type": "address"
        },
        {
          "name": "destAddress",
          "type": "address"
        },
        {
          "name": "maxDestAmount",
          "type": "uint256"
        },
        {
          "name": "minConversionRate",
          "type": "uint256"
        },
        {
          "name": "walletId",
          "type": "address"
        }
      ],
      "name": "trade",
      "outputs": [
        {
          "name": "",
          "type": "uint256"
        }
      ],
      "payable": true,
      "stateMutability": "payable",
      "type": "function"
    }
  ],
  "bytecode": "0x6060604052341561000f57600080fd5b60405161053b38038061053b83398101604052808051820191906020018051909101905060005b82518110156100a75781818151811061004b57fe5b9060200190602002015160008085848151811061006457fe5b90602001906020020151600160a060020a031681526020810191909152604001600020556100a081600164010000000061042c6100af82021704565b9050610036565b5050506100c5565b6000828201838110156100be57fe5b9392505050565b610467806100d46000396000f30060606040526004361061003d5763ffffffff60e060020a600035041663431f63c9811461004257806355fea01a14610066578063cb3c28c714610097575b600080fd5b341561004d57600080fd5b610064600160a060020a03600435166024356100c9565b005b341561007157600080fd5b610085600160a060020a03600435166100e5565b60405190815260200160405180910390f35b610085600160a060020a03600435811690602435906044358116906064358116906084359060a4359060c435166100f7565b600160a060020a03909116600090815260208190526040902055565b60006020819052908152604090205481565b6000806101866101316101098b610345565b600160a060020a038a1660009081526020819052604090205490600a0a63ffffffff6103df16565b61017a61013d8a610345565b600160a060020a038d16600090815260208190526040902054600a9190910a9061016e908d9063ffffffff6103df16565b9063ffffffff6103df16565b9063ffffffff61041516565b90508481111561019557600080fd5b600160a060020a03891673eeeeeeeeeeeeeeeeeeeeeeeeeeeeeeeeeeeeeeee14156101cb573488146101c657600080fd5b61025b565b88600160a060020a03166323b872dd33308b60006040516020015260405160e060020a63ffffffff8616028152600160a060020a0393841660048201529190921660248201526044810191909152606401602060405180830381600087803b151561023557600080fd5b6102c65a03f1151561024657600080fd5b50505060405180519050151561025b57600080fd5b600160a060020a03871673eeeeeeeeeeeeeeeeeeeeeeeeeeeeeeeeeeeeeeee14156102b657600160a060020a03861681156108fc0282604051600060405180830381858888f1935050505015156102b157600080fd5b610339565b86600160a060020a031663a9059cbb878360006040516020015260405160e060020a63ffffffff8516028152600160a060020a0390921660048301526024820152604401602060405180830381600087803b151561031357600080fd5b6102c65a03f1151561032457600080fd5b50505060405180519050151561033957600080fd5b98975050505050505050565b6000600160a060020a03821673eeeeeeeeeeeeeeeeeeeeeeeeeeeeeeeeeeeeeeee1415610374575060126103da565b81600160a060020a031663313ce5676000604051602001526040518163ffffffff1660e060020a028152600401602060405180830381600087803b15156103ba57600080fd5b6102c65a03f115156103cb57600080fd5b505050604051805160ff169150505b919050565b6000808315156103f2576000915061040e565b5082820282848281151561040257fe5b041461040a57fe5b8091505b5092915050565b600080828481151561042357fe5b04949350505050565b60008282018381101561040a57fe00a165627a7a723058203b06b4eb1d5afbee344c4bd192c7746e6a59fdf17b26d64ea68747f679309a640029",
  "source": "pragma solidity ^0.4.18;\r\n\r\nimport '../KyberNetwork.sol';\r\nimport '../Utils.sol';\r\n\r\ncontract TestKyberNetwork is KyberNetwork, Utils {\r\n  mapping(address => uint256) public priceInDAI;\r\n\r\n  function TestKyberNetwork(address[] _tokens, uint256[] _pricesInDAI) public {\r\n    for (uint256 i = 0; i < _tokens.length; i = i.add(1)) {\r\n      priceInDAI[_tokens[i]] = _pricesInDAI[i];\r\n    }\r\n  }\r\n\r\n  function setTokenPrice(address _token, uint256 _priceInDAI) public {\r\n    priceInDAI[_token] = _priceInDAI;\r\n  }\r\n\r\n  function trade(\r\n    DetailedERC20 src,\r\n    uint srcAmount,\r\n    DetailedERC20 dest,\r\n    address destAddress,\r\n    uint maxDestAmount,\r\n    uint minConversionRate,\r\n    address walletId\r\n  )\r\n    public\r\n    payable\r\n    returns(uint)\r\n  {\r\n    uint256 destAmount = srcAmount.mul(priceInDAI[address(src)]).mul(10**getDecimals(dest)).div(priceInDAI[address(dest)].mul(10**getDecimals(src)));\r\n    require(destAmount <= maxDestAmount);\r\n\r\n    if (address(src) == address(ETH_TOKEN_ADDRESS)) {\r\n      require(srcAmount == msg.value);\r\n    } else {\r\n      require(src.transferFrom(msg.sender, this, srcAmount));\r\n    }\r\n\r\n    if (address(dest) == address(ETH_TOKEN_ADDRESS)) {\r\n      destAddress.transfer(destAmount);\r\n    } else {\r\n      require(dest.transfer(destAddress, destAmount));\r\n    }\r\n    return destAmount;\r\n  }\r\n}\r\n",
  "sourcePath": "D:\\msi-cn\\Documents\\GitHub\\betoken\\eth\\contracts\\test\\TestKyberNetwork.sol",
  "compiler": {
    "name": "solc",
    "version": "0.4.19+commit.c4cbbb05.Emscripten.clang"
  },
  "schemaVersion": "2.0.0",
  "updatedAt": "2018-05-10T00:49:57.521Z"
}