{
  "contractName": "TestKyberNetwork",
  "abi": [
    {
      "inputs": [
        {
          "name": "_tokens",
          "type": "address[]"
        },
        {
          "name": "_pricesInDAI",
          "type": "uint256[]"
        }
      ],
      "payable": false,
      "stateMutability": "nonpayable",
      "type": "constructor"
    },
    {
      "constant": false,
      "inputs": [
        {
          "name": "src",
          "type": "address"
        },
        {
          "name": "srcAmount",
          "type": "uint256"
        },
        {
          "name": "dest",
          "type": "address"
        },
        {
          "name": "destAddress",
          "type": "address"
        },
        {
          "name": "maxDestAmount",
          "type": "uint256"
        },
        {
          "name": "minConversionRate",
          "type": "uint256"
        },
        {
          "name": "walletId",
          "type": "address"
        }
      ],
      "name": "trade",
      "outputs": [
        {
          "name": "",
          "type": "uint256"
        }
      ],
      "payable": true,
      "stateMutability": "payable",
      "type": "function"
    }
  ],
  "bytecode": "0x6060604052341561000f57600080fd5b6040516103d43803806103d483398101604052808051820191906020018051909101905060005b82518110156100a75781818151811061004b57fe5b9060200190602002015160008085848151811061006457fe5b90602001906020020151600160a060020a031681526020810191909152604001600020556100a08160016401000000006102c56100af82021704565b9050610036565b5050506100c5565b6000828201838110156100be57fe5b9392505050565b610300806100d46000396000f3006060604052600436106100275763ffffffff60e060020a600035041663cb3c28c7811461002c575b600080fd5b61005e600160a060020a03600435811690602435906044358116906064358116906084359060a4359060c43516610070565b60405190815260200160405180910390f35b600160a060020a03808816600090815260208190526040808220549288168252812054909182916100b991906100ad908b9063ffffffff61027816565b9063ffffffff6102ae16565b9050848111156100c857600080fd5b600160a060020a03891673eeeeeeeeeeeeeeeeeeeeeeeeeeeeeeeeeeeeeeee14156100fe573488146100f957600080fd5b61018e565b88600160a060020a03166323b872dd33308b60006040516020015260405160e060020a63ffffffff8616028152600160a060020a0393841660048201529190921660248201526044810191909152606401602060405180830381600087803b151561016857600080fd5b6102c65a03f1151561017957600080fd5b50505060405180519050151561018e57600080fd5b600160a060020a03871673eeeeeeeeeeeeeeeeeeeeeeeeeeeeeeeeeeeeeeee14156101e957600160a060020a03861681156108fc0282604051600060405180830381858888f1935050505015156101e457600080fd5b61026c565b86600160a060020a031663a9059cbb878360006040516020015260405160e060020a63ffffffff8516028152600160a060020a0390921660048301526024820152604401602060405180830381600087803b151561024657600080fd5b6102c65a03f1151561025757600080fd5b50505060405180519050151561026c57600080fd5b98975050505050505050565b60008083151561028b57600091506102a7565b5082820282848281151561029b57fe5b04146102a357fe5b8091505b5092915050565b60008082848115156102bc57fe5b04949350505050565b6000828201838110156102a357fe00a165627a7a72305820a60da2ef4f606c11bb0271a7bb330cca7ce9be68846fa4e99b4cc2e5558355830029",
  "source": "pragma solidity ^0.4.18;\r\n\r\nimport './KyberNetwork.sol';\r\nimport './Utils.sol';\r\n\r\ncontract TestKyberNetwork is KyberNetwork, Utils {\r\n  mapping(address => uint256) priceInDAI;\r\n\r\n  function TestKyberNetwork(address[] _tokens, uint256[] _pricesInDAI) public {\r\n    for (uint256 i = 0; i < _tokens.length; i = i.add(1)) {\r\n      priceInDAI[_tokens[i]] = _pricesInDAI[i];\r\n    }\r\n  }\r\n\r\n  function trade(\r\n    DetailedERC20 src,\r\n    uint srcAmount,\r\n    DetailedERC20 dest,\r\n    address destAddress,\r\n    uint maxDestAmount,\r\n    uint minConversionRate,\r\n    address walletId\r\n  )\r\n    public\r\n    payable\r\n    returns(uint)\r\n  {\r\n    uint256 destAmount = srcAmount.mul(priceInDAI[address(dest)]).div(priceInDAI[address(src)]);\r\n    require(destAmount <= maxDestAmount);\r\n\r\n    if (address(src) == address(ETH_TOKEN_ADDRESS)) {\r\n      require(srcAmount == msg.value);\r\n    } else {\r\n      require(src.transferFrom(msg.sender, this, srcAmount));\r\n    }\r\n\r\n    if (address(dest) == address(ETH_TOKEN_ADDRESS)) {\r\n      destAddress.transfer(destAmount);\r\n    } else {\r\n      require(dest.transfer(destAddress, destAmount));\r\n    }\r\n    return destAmount;\r\n  }\r\n}\r\n",
  "sourcePath": "D:\\msi-cn\\Documents\\GitHub\\betoken\\eth\\contracts\\TestKyberNetwork.sol",
  "compiler": {
    "name": "solc",
    "version": "0.4.19+commit.c4cbbb05.Emscripten.clang"
  },
  "schemaVersion": "2.0.0",
  "updatedAt": "2018-04-09T06:16:54.862Z"
}