{
  "contractName": "GroupFund",
  "abi": [
    {
      "constant": true,
      "inputs": [
        {
          "name": "",
          "type": "uint256"
        }
      ],
      "name": "proposals",
      "outputs": [
        {
          "name": "tokenAddress",
          "type": "address"
        },
        {
          "name": "tokenSymbol",
          "type": "string"
        },
        {
          "name": "buyPriceInWeis",
          "type": "uint256"
        },
        {
          "name": "sellPriceInWeis",
          "type": "uint256"
        },
        {
          "name": "buyOrderExpirationBlockNum",
          "type": "uint256"
        },
        {
          "name": "sellOrderExpirationBlockNum",
          "type": "uint256"
        },
        {
          "name": "numFor",
          "type": "uint256"
        },
        {
          "name": "numAgainst",
          "type": "uint256"
        }
      ],
      "payable": false,
      "stateMutability": "view",
      "type": "function"
    },
    {
      "constant": true,
      "inputs": [],
      "name": "creator",
      "outputs": [
        {
          "name": "",
          "type": "address"
        }
      ],
      "payable": false,
      "stateMutability": "view",
      "type": "function"
    },
    {
      "constant": false,
      "inputs": [],
      "name": "endCycle",
      "outputs": [],
      "payable": false,
      "stateMutability": "nonpayable",
      "type": "function"
    },
    {
      "constant": true,
      "inputs": [],
      "name": "proposalsCount",
      "outputs": [
        {
          "name": "_count",
          "type": "uint256"
        }
      ],
      "payable": false,
      "stateMutability": "view",
      "type": "function"
    },
    {
      "constant": true,
      "inputs": [
        {
          "name": "",
          "type": "uint256"
        },
        {
          "name": "",
          "type": "address"
        }
      ],
      "name": "forStakedControlOfProposalOfUser",
      "outputs": [
        {
          "name": "",
          "type": "uint256"
        }
      ],
      "payable": false,
      "stateMutability": "view",
      "type": "function"
    },
    {
      "constant": true,
      "inputs": [],
      "name": "isFirstCycle",
      "outputs": [
        {
          "name": "",
          "type": "bool"
        }
      ],
      "payable": false,
      "stateMutability": "view",
      "type": "function"
    },
    {
      "constant": true,
      "inputs": [],
      "name": "initialized",
      "outputs": [
        {
          "name": "",
          "type": "bool"
        }
      ],
      "payable": false,
      "stateMutability": "view",
      "type": "function"
    },
    {
      "constant": true,
      "inputs": [],
      "name": "minStakeProportion",
      "outputs": [
        {
          "name": "",
          "type": "uint256"
        }
      ],
      "payable": false,
      "stateMutability": "view",
      "type": "function"
    },
    {
      "constant": true,
      "inputs": [],
      "name": "timeOfChangeMaking",
      "outputs": [
        {
          "name": "",
          "type": "uint256"
        }
      ],
      "payable": false,
      "stateMutability": "view",
      "type": "function"
    },
    {
      "constant": false,
      "inputs": [
        {
          "name": "_amountInWeis",
          "type": "uint256"
        }
      ],
      "name": "withdraw",
      "outputs": [],
      "payable": false,
      "stateMutability": "nonpayable",
      "type": "function"
    },
    {
      "constant": true,
      "inputs": [
        {
          "name": "",
          "type": "uint256"
        },
        {
          "name": "",
          "type": "address"
        }
      ],
      "name": "againstStakedControlOfProposalOfUser",
      "outputs": [
        {
          "name": "",
          "type": "uint256"
        }
      ],
      "payable": false,
      "stateMutability": "view",
      "type": "function"
    },
    {
      "constant": true,
      "inputs": [],
      "name": "maxProposals",
      "outputs": [
        {
          "name": "",
          "type": "uint256"
        }
      ],
      "payable": false,
      "stateMutability": "view",
      "type": "function"
    },
    {
      "constant": true,
      "inputs": [],
      "name": "decimals",
      "outputs": [
        {
          "name": "",
          "type": "uint256"
        }
      ],
      "payable": false,
      "stateMutability": "view",
      "type": "function"
    },
    {
      "constant": true,
      "inputs": [
        {
          "name": "",
          "type": "uint256"
        }
      ],
      "name": "participants",
      "outputs": [
        {
          "name": "",
          "type": "address"
        }
      ],
      "payable": false,
      "stateMutability": "view",
      "type": "function"
    },
    {
      "constant": true,
      "inputs": [
        {
          "name": "",
          "type": "address"
        }
      ],
      "name": "isTokenAlreadyProposed",
      "outputs": [
        {
          "name": "",
          "type": "bool"
        }
      ],
      "payable": false,
      "stateMutability": "view",
      "type": "function"
    },
    {
      "constant": false,
      "inputs": [],
      "name": "topupOraclizeFees",
      "outputs": [],
      "payable": true,
      "stateMutability": "payable",
      "type": "function"
    },
    {
      "constant": true,
      "inputs": [],
      "name": "commissionRate",
      "outputs": [
        {
          "name": "",
          "type": "uint256"
        }
      ],
      "payable": false,
      "stateMutability": "view",
      "type": "function"
    },
    {
      "constant": true,
      "inputs": [
        {
          "name": "",
          "type": "address"
        }
      ],
      "name": "balanceOf",
      "outputs": [
        {
          "name": "",
          "type": "uint256"
        }
      ],
      "payable": false,
      "stateMutability": "view",
      "type": "function"
    },
    {
      "constant": false,
      "inputs": [
        {
          "name": "_proposalId",
          "type": "uint256"
        },
        {
          "name": "_amountInWeis",
          "type": "uint256"
        }
      ],
      "name": "supportProposal",
      "outputs": [],
      "payable": false,
      "stateMutability": "nonpayable",
      "type": "function"
    },
    {
      "constant": true,
      "inputs": [],
      "name": "totalFundsInWeis",
      "outputs": [
        {
          "name": "",
          "type": "uint256"
        }
      ],
      "payable": false,
      "stateMutability": "view",
      "type": "function"
    },
    {
      "constant": false,
      "inputs": [],
      "name": "startNewCycle",
      "outputs": [],
      "payable": false,
      "stateMutability": "nonpayable",
      "type": "function"
    },
    {
      "constant": true,
      "inputs": [],
      "name": "timeOfCycle",
      "outputs": [
        {
          "name": "",
          "type": "uint256"
        }
      ],
      "payable": false,
      "stateMutability": "view",
      "type": "function"
    },
    {
      "constant": true,
      "inputs": [],
      "name": "maxProposalsPerMember",
      "outputs": [
        {
          "name": "",
          "type": "uint256"
        }
      ],
      "payable": false,
      "stateMutability": "view",
      "type": "function"
    },
    {
      "constant": true,
      "inputs": [],
      "name": "orderExpirationTimeInBlocks",
      "outputs": [
        {
          "name": "",
          "type": "uint256"
        }
      ],
      "payable": false,
      "stateMutability": "view",
      "type": "function"
    },
    {
      "constant": false,
      "inputs": [
        {
          "name": "_cTokenAddr",
          "type": "address"
        },
        {
          "name": "_oraclizeAddr",
          "type": "address"
        }
      ],
      "name": "initializeSubcontracts",
      "outputs": [],
      "payable": false,
      "stateMutability": "nonpayable",
      "type": "function"
    },
    {
      "constant": false,
      "inputs": [],
      "name": "finalizeEndCycle",
      "outputs": [],
      "payable": false,
      "stateMutability": "nonpayable",
      "type": "function"
    },
    {
      "constant": true,
      "inputs": [],
      "name": "owner",
      "outputs": [
        {
          "name": "",
          "type": "address"
        }
      ],
      "payable": false,
      "stateMutability": "view",
      "type": "function"
    },
    {
      "constant": false,
      "inputs": [
        {
          "name": "_proposalId",
          "type": "uint256"
        }
      ],
      "name": "cancelProposalSupport",
      "outputs": [],
      "payable": false,
      "stateMutability": "nonpayable",
      "type": "function"
    },
    {
      "constant": false,
      "inputs": [],
      "name": "endProposalMakingTime",
      "outputs": [],
      "payable": false,
      "stateMutability": "nonpayable",
      "type": "function"
    },
    {
      "constant": true,
      "inputs": [
        {
          "name": "",
          "type": "address"
        }
      ],
      "name": "isParticipant",
      "outputs": [
        {
          "name": "",
          "type": "bool"
        }
      ],
      "payable": false,
      "stateMutability": "view",
      "type": "function"
    },
    {
      "constant": true,
      "inputs": [],
      "name": "startTimeOfCycle",
      "outputs": [
        {
          "name": "",
          "type": "uint256"
        }
      ],
      "payable": false,
      "stateMutability": "view",
      "type": "function"
    },
    {
      "constant": true,
      "inputs": [],
      "name": "etherDeltaAddr",
      "outputs": [
        {
          "name": "",
          "type": "address"
        }
      ],
      "payable": false,
      "stateMutability": "view",
      "type": "function"
    },
    {
      "constant": false,
      "inputs": [
        {
          "name": "_tokenAddress",
          "type": "address"
        },
        {
          "name": "_tokenSymbol",
          "type": "string"
        },
        {
          "name": "_amountInWeis",
          "type": "uint256"
        }
      ],
      "name": "createProposal",
      "outputs": [],
      "payable": false,
      "stateMutability": "nonpayable",
      "type": "function"
    },
    {
      "constant": true,
      "inputs": [],
      "name": "oraclizeAddr",
      "outputs": [
        {
          "name": "",
          "type": "address"
        }
      ],
      "payable": false,
      "stateMutability": "view",
      "type": "function"
    },
    {
      "constant": false,
      "inputs": [
        {
          "name": "_proposalId",
          "type": "uint256"
        },
        {
          "name": "_buyPrice",
          "type": "uint256"
        },
        {
          "name": "_expires",
          "type": "uint256"
        }
      ],
      "name": "__setBuyPriceAndExpirationBlock",
      "outputs": [],
      "payable": false,
      "stateMutability": "nonpayable",
      "type": "function"
    },
    {
      "constant": true,
      "inputs": [],
      "name": "oraclizeFeeProportion",
      "outputs": [
        {
          "name": "",
          "type": "uint256"
        }
      ],
      "payable": false,
      "stateMutability": "view",
      "type": "function"
    },
    {
      "constant": false,
      "inputs": [
        {
          "name": "_newAddr",
          "type": "address"
        }
      ],
      "name": "changeEtherDeltaAddress",
      "outputs": [],
      "payable": false,
      "stateMutability": "nonpayable",
      "type": "function"
    },
    {
      "constant": true,
      "inputs": [
        {
          "name": "",
          "type": "uint256"
        }
      ],
      "name": "forStakedControlOfProposal",
      "outputs": [
        {
          "name": "",
          "type": "uint256"
        }
      ],
      "payable": false,
      "stateMutability": "view",
      "type": "function"
    },
    {
      "constant": false,
      "inputs": [],
      "name": "endChangeMakingTime",
      "outputs": [],
      "payable": false,
      "stateMutability": "nonpayable",
      "type": "function"
    },
    {
      "constant": false,
      "inputs": [
        {
          "name": "_proposalId",
          "type": "uint256"
        },
        {
          "name": "_sellPrice",
          "type": "uint256"
        },
        {
          "name": "_expires",
          "type": "uint256"
        }
      ],
      "name": "__setSellPriceAndExpirationBlock",
      "outputs": [],
      "payable": false,
      "stateMutability": "nonpayable",
      "type": "function"
    },
    {
      "constant": false,
      "inputs": [],
      "name": "deposit",
      "outputs": [],
      "payable": true,
      "stateMutability": "payable",
      "type": "function"
    },
    {
      "constant": true,
      "inputs": [],
      "name": "timeOfProposalMaking",
      "outputs": [
        {
          "name": "",
          "type": "uint256"
        }
      ],
      "payable": false,
      "stateMutability": "view",
      "type": "function"
    },
    {
      "constant": true,
      "inputs": [],
      "name": "controlTokenAddr",
      "outputs": [
        {
          "name": "",
          "type": "address"
        }
      ],
      "payable": false,
      "stateMutability": "view",
      "type": "function"
    },
    {
      "constant": true,
      "inputs": [],
      "name": "participantsCount",
      "outputs": [
        {
          "name": "_count",
          "type": "uint256"
        }
      ],
      "payable": false,
      "stateMutability": "view",
      "type": "function"
    },
    {
      "constant": true,
      "inputs": [
        {
          "name": "",
          "type": "address"
        }
      ],
      "name": "createdProposalCount",
      "outputs": [
        {
          "name": "",
          "type": "uint256"
        }
      ],
      "payable": false,
      "stateMutability": "view",
      "type": "function"
    },
    {
      "constant": false,
      "inputs": [
        {
          "name": "_tokenGet",
          "type": "address"
        },
        {
          "name": "_amountGet",
          "type": "uint256"
        },
        {
          "name": "_tokenGive",
          "type": "address"
        },
        {
          "name": "_amountGive",
          "type": "uint256"
        },
        {
          "name": "_expires",
          "type": "uint256"
        },
        {
          "name": "_nonce",
          "type": "uint256"
        }
      ],
      "name": "__makeOrder",
      "outputs": [],
      "payable": false,
      "stateMutability": "nonpayable",
      "type": "function"
    },
    {
      "constant": false,
      "inputs": [
        {
          "name": "_receipient",
          "type": "address"
        }
      ],
      "name": "__addControlTokenReceipientAsParticipant",
      "outputs": [],
      "payable": false,
      "stateMutability": "nonpayable",
      "type": "function"
    },
    {
      "constant": false,
      "inputs": [
        {
          "name": "newOwner",
          "type": "address"
        }
      ],
      "name": "transferOwnership",
      "outputs": [],
      "payable": false,
      "stateMutability": "nonpayable",
      "type": "function"
    },
    {
      "constant": true,
      "inputs": [],
      "name": "cyclePhase",
      "outputs": [
        {
          "name": "",
          "type": "uint8"
        }
      ],
      "payable": false,
      "stateMutability": "view",
      "type": "function"
    },
    {
      "inputs": [
        {
          "name": "_etherDeltaAddr",
          "type": "address"
        },
        {
          "name": "_decimals",
          "type": "uint256"
        },
        {
          "name": "_timeOfCycle",
          "type": "uint256"
        },
        {
          "name": "_timeOfChangeMaking",
          "type": "uint256"
        },
        {
          "name": "_timeOfProposalMaking",
          "type": "uint256"
        },
        {
          "name": "_minStakeProportion",
          "type": "uint256"
        },
        {
          "name": "_maxProposals",
          "type": "uint256"
        },
        {
          "name": "_commissionRate",
          "type": "uint256"
        },
        {
          "name": "_orderExpirationTimeInBlocks",
          "type": "uint256"
        },
        {
          "name": "_oraclizeFeeProportion",
          "type": "uint256"
        },
        {
          "name": "_maxProposalsPerMember",
          "type": "uint256"
        }
      ],
      "payable": false,
      "stateMutability": "nonpayable",
      "type": "constructor"
    },
    {
      "payable": true,
      "stateMutability": "payable",
      "type": "fallback"
    },
    {
      "anonymous": false,
      "inputs": [
        {
          "indexed": false,
          "name": "timestamp",
          "type": "uint256"
        }
      ],
      "name": "CycleStarted",
      "type": "event"
    },
    {
      "anonymous": false,
      "inputs": [
        {
          "indexed": false,
          "name": "_sender",
          "type": "address"
        },
        {
          "indexed": false,
          "name": "_amountInWeis",
          "type": "uint256"
        }
      ],
      "name": "Deposit",
      "type": "event"
    },
    {
      "anonymous": false,
      "inputs": [
        {
          "indexed": false,
          "name": "_sender",
          "type": "address"
        },
        {
          "indexed": false,
          "name": "_amountInWeis",
          "type": "uint256"
        }
      ],
      "name": "Withdraw",
      "type": "event"
    },
    {
      "anonymous": false,
      "inputs": [
        {
          "indexed": false,
          "name": "timestamp",
          "type": "uint256"
        }
      ],
      "name": "ChangeMakingTimeEnded",
      "type": "event"
    },
    {
      "anonymous": false,
      "inputs": [
        {
          "indexed": false,
          "name": "_id",
          "type": "uint256"
        },
        {
          "indexed": false,
          "name": "_tokenAddress",
          "type": "address"
        },
        {
          "indexed": false,
          "name": "_tokenSymbol",
          "type": "string"
        },
        {
          "indexed": false,
          "name": "_amountInWeis",
          "type": "uint256"
        }
      ],
      "name": "NewProposal",
      "type": "event"
    },
    {
      "anonymous": false,
      "inputs": [
        {
          "indexed": false,
          "name": "_id",
          "type": "uint256"
        },
        {
          "indexed": false,
          "name": "_amountInWeis",
          "type": "uint256"
        }
      ],
      "name": "SupportedProposal",
      "type": "event"
    },
    {
      "anonymous": false,
      "inputs": [
        {
          "indexed": false,
          "name": "timestamp",
          "type": "uint256"
        }
      ],
      "name": "ProposalMakingTimeEnded",
      "type": "event"
    },
    {
      "anonymous": false,
      "inputs": [
        {
          "indexed": false,
          "name": "timestamp",
          "type": "uint256"
        }
      ],
      "name": "CycleEnded",
      "type": "event"
    },
    {
      "anonymous": false,
      "inputs": [
        {
          "indexed": false,
          "name": "timestamp",
          "type": "uint256"
        }
      ],
      "name": "CycleFinalized",
      "type": "event"
    },
    {
      "anonymous": false,
      "inputs": [
        {
          "indexed": false,
          "name": "_beforeTotalFunds",
          "type": "uint256"
        },
        {
          "indexed": false,
          "name": "_afterTotalFunds",
          "type": "uint256"
        }
      ],
      "name": "ROI",
      "type": "event"
    },
    {
      "anonymous": false,
      "inputs": [
        {
          "indexed": false,
          "name": "_member",
          "type": "address"
        },
        {
          "indexed": false,
          "name": "_success",
          "type": "bool"
        }
      ],
      "name": "PredictionResult",
      "type": "event"
    },
    {
      "anonymous": false,
      "inputs": [
        {
          "indexed": true,
          "name": "previousOwner",
          "type": "address"
        },
        {
          "indexed": true,
          "name": "newOwner",
          "type": "address"
        }
      ],
      "name": "OwnershipTransferred",
      "type": "event"
    }
  ],
  "bytecode": "0x606060405234156200001057600080fd5b604051610160806200558c83398101604052808051906020019091908051906020019091908051906020019091908051906020019091908051906020019091908051906020019091908051906020019091908051906020019091908051906020019091908051906020019091908051906020019091905050336000806101000a81548173ffffffffffffffffffffffffffffffffffffffff021916908373ffffffffffffffffffffffffffffffffffffffff16021790555088620000ec888a6200027e6401000000000262004066179091906401000000009004565b11151515620000fa57600080fd5b8a600260006101000a81548173ffffffffffffffffffffffffffffffffffffffff021916908373ffffffffffffffffffffffffffffffffffffffff16021790555089600581905550886008819055508760098190555086600a8190555085600b8190555084600c8190555083600d8190555082600e8190555081600f819055508060108190555060006007819055506001601160006101000a81548160ff0219169083151502179055506004601d60146101000a81548160ff02191690836004811115620001c457fe5b021790555033600460006101000a81548173ffffffffffffffffffffffffffffffffffffffff021916908373ffffffffffffffffffffffffffffffffffffffff160217905550600260009054906101000a900473ffffffffffffffffffffffffffffffffffffffff16601c60006101000a81548173ffffffffffffffffffffffffffffffffffffffff021916908373ffffffffffffffffffffffffffffffffffffffff16021790555050505050505050505050506200029d565b60008082840190508381101515156200029357fe5b8091505092915050565b6152df80620002ad6000396000f300606060405260043610610251576000357c0100000000000000000000000000000000000000000000000000000000900463ffffffff168063013cf08b146102af57806302d05d3f146103c5578063084a4faf1461041a5780630a9f46ad1461042f5780630f6f17d2146104585780631039162b146104ae578063158ef93e146104db5780631dcf8ceb1461050857806328ac1228146105315780632e1a7d4d1461055a5780632e33de6a1461057d5780632f3fe24c146105d3578063313ce567146105fc57806335c1d349146106255780634773822e1461068857806358e0abec146106d95780635ea1d6f8146106e357806370a082311461070c5780637b3b346b146107595780637e714dd2146107855780637f2736d1146107ae578063810599e9146107c357806383d32461146107ec5780638456799b1461081557806384e480771461083e5780638b4e6ba8146108965780638da5cb5b146108ab5780638fb644bb1461090057806390c31d5d14610923578063929066f51461093857806395988d821461098957806395fa9fc9146109b2578063a0a2150414610a07578063a23a6f9e14610a8c578063a418117414610ae1578063b12d2fa614610b16578063b462c8fa14610b3f578063b484cf8d14610b78578063b64af4b114610baf578063bc12730114610bc4578063d0e30db014610bf9578063d78b3b1c14610c03578063dc87454c14610c2c578063dd60c89814610c81578063ebc95b1214610caa578063f1cd92f114610cf7578063f245fbc714610d73578063f2fde38b14610dac578063f6558b0014610de5575b600260009054906101000a900473ffffffffffffffffffffffffffffffffffffffff1673ffffffffffffffffffffffffffffffffffffffff163373ffffffffffffffffffffffffffffffffffffffff161415156102ad57600080fd5b005b34156102ba57600080fd5b6102d06004808035906020019091905050610e1c565b604051808973ffffffffffffffffffffffffffffffffffffffff1673ffffffffffffffffffffffffffffffffffffffff168152602001806020018881526020018781526020018681526020018581526020018481526020018381526020018281038252898181546001816001161561010002031660029004815260200191508054600181600116156101000203166002900480156103af5780601f10610384576101008083540402835291602001916103af565b820191906000526020600020905b81548152906001019060200180831161039257829003601f168201915b5050995050505050505050505060405180910390f35b34156103d057600080fd5b6103d8610e92565b604051808273ffffffffffffffffffffffffffffffffffffffff1673ffffffffffffffffffffffffffffffffffffffff16815260200191505060405180910390f35b341561042557600080fd5b61042d610eb8565b005b341561043a57600080fd5b61044261111f565b6040518082815260200191505060405180910390f35b341561046357600080fd5b610498600480803590602001909190803573ffffffffffffffffffffffffffffffffffffffff1690602001909190505061112c565b6040518082815260200191505060405180910390f35b34156104b957600080fd5b6104c1611151565b604051808215151515815260200191505060405180910390f35b34156104e657600080fd5b6104ee611164565b604051808215151515815260200191505060405180910390f35b341561051357600080fd5b61051b611177565b6040518082815260200191505060405180910390f35b341561053c57600080fd5b61054461117d565b6040518082815260200191505060405180910390f35b341561056557600080fd5b61057b6004808035906020019091905050611183565b005b341561058857600080fd5b6105bd600480803590602001909190803573ffffffffffffffffffffffffffffffffffffffff16906020019091905050611320565b6040518082815260200191505060405180910390f35b34156105de57600080fd5b6105e6611345565b6040518082815260200191505060405180910390f35b341561060757600080fd5b61060f61134b565b6040518082815260200191505060405180910390f35b341561063057600080fd5b6106466004808035906020019091905050611351565b604051808273ffffffffffffffffffffffffffffffffffffffff1673ffffffffffffffffffffffffffffffffffffffff16815260200191505060405180910390f35b341561069357600080fd5b6106bf600480803573ffffffffffffffffffffffffffffffffffffffff16906020019091905050611390565b604051808215151515815260200191505060405180910390f35b6106e16113b0565b005b34156106ee57600080fd5b6106f661146f565b6040518082815260200191505060405180910390f35b341561071757600080fd5b610743600480803573ffffffffffffffffffffffffffffffffffffffff16906020019091905050611475565b6040518082815260200191505060405180910390f35b341561076457600080fd5b610783600480803590602001909190803590602001909190505061148d565b005b341561079057600080fd5b610798611993565b6040518082815260200191505060405180910390f35b34156107b957600080fd5b6107c1611999565b005b34156107ce57600080fd5b6107d6611a4e565b6040518082815260200191505060405180910390f35b34156107f757600080fd5b6107ff611a54565b6040518082815260200191505060405180910390f35b341561082057600080fd5b610828611a5a565b6040518082815260200191505060405180910390f35b341561084957600080fd5b610894600480803573ffffffffffffffffffffffffffffffffffffffff1690602001909190803573ffffffffffffffffffffffffffffffffffffffff16906020019091905050611a60565b005b34156108a157600080fd5b6108a9611c3f565b005b34156108b657600080fd5b6108be6124e6565b604051808273ffffffffffffffffffffffffffffffffffffffff1673ffffffffffffffffffffffffffffffffffffffff16815260200191505060405180910390f35b341561090b57600080fd5b610921600480803590602001909190505061250b565b005b341561092e57600080fd5b61093661277f565b005b341561094357600080fd5b61096f600480803573ffffffffffffffffffffffffffffffffffffffff16906020019091905050612eaf565b604051808215151515815260200191505060405180910390f35b341561099457600080fd5b61099c612ecf565b6040518082815260200191505060405180910390f35b34156109bd57600080fd5b6109c5612ed5565b604051808273ffffffffffffffffffffffffffffffffffffffff1673ffffffffffffffffffffffffffffffffffffffff16815260200191505060405180910390f35b3415610a1257600080fd5b610a8a600480803573ffffffffffffffffffffffffffffffffffffffff1690602001909190803590602001908201803590602001908080601f01602080910402602001604051908101604052809392919081815260200183838082843782019150505050505091908035906020019091905050612efb565b005b3415610a9757600080fd5b610a9f61345d565b604051808273ffffffffffffffffffffffffffffffffffffffff1673ffffffffffffffffffffffffffffffffffffffff16815260200191505060405180910390f35b3415610aec57600080fd5b610b146004808035906020019091908035906020019091908035906020019091905050613483565b005b3415610b2157600080fd5b610b2961352e565b6040518082815260200191505060405180910390f35b3415610b4a57600080fd5b610b76600480803573ffffffffffffffffffffffffffffffffffffffff16906020019091905050613534565b005b3415610b8357600080fd5b610b9960048080359060200190919050506136e4565b6040518082815260200191505060405180910390f35b3415610bba57600080fd5b610bc26136fc565b005b3415610bcf57600080fd5b610bf760048080359060200190919080359060200190919080359060200190919050506137b4565b005b610c0161385f565b005b3415610c0e57600080fd5b610c16613c0b565b6040518082815260200191505060405180910390f35b3415610c3757600080fd5b610c3f613c11565b604051808273ffffffffffffffffffffffffffffffffffffffff1673ffffffffffffffffffffffffffffffffffffffff16815260200191505060405180910390f35b3415610c8c57600080fd5b610c94613c37565b6040518082815260200191505060405180910390f35b3415610cb557600080fd5b610ce1600480803573ffffffffffffffffffffffffffffffffffffffff16906020019091905050613c44565b6040518082815260200191505060405180910390f35b3415610d0257600080fd5b610d71600480803573ffffffffffffffffffffffffffffffffffffffff1690602001909190803590602001909190803573ffffffffffffffffffffffffffffffffffffffff16906020019091908035906020019091908035906020019091908035906020019091905050613c5c565b005b3415610d7e57600080fd5b610daa600480803573ffffffffffffffffffffffffffffffffffffffff16906020019091905050613de4565b005b3415610db757600080fd5b610de3600480803573ffffffffffffffffffffffffffffffffffffffff16906020019091905050613efe565b005b3415610df057600080fd5b610df8614053565b60405180826004811115610e0857fe5b60ff16815260200191505060405180910390f35b601a81815481101515610e2b57fe5b90600052602060002090600802016000915090508060000160009054906101000a900473ffffffffffffffffffffffffffffffffffffffff169080600101908060020154908060030154908060040154908060050154908060060154908060070154905088565b600460009054906101000a900473ffffffffffffffffffffffffffffffffffffffff1681565b60006002806004811115610ec857fe5b601d60149054906101000a900460ff166004811115610ee357fe5b141515610eef57600080fd5b610f0660085460075461406690919063ffffffff16565b4210151515610f1457600080fd5b601160009054906101000a900460ff1615610fd457601b60009054906101000a900473ffffffffffffffffffffffffffffffffffffffff1673ffffffffffffffffffffffffffffffffffffffff16637d64bcb46000604051602001526040518163ffffffff167c0100000000000000000000000000000000000000000000000000000000028152600401602060405180830381600087803b1515610fb757600080fd5b6102c65a03f11515610fc857600080fd5b50505060405180519050505b6003601d60146101000a81548160ff02191690836004811115610ff357fe5b02179055506000601160006101000a81548160ff021916908315150217905550600091505b601a805490508210156110e457601d60009054906101000a900473ffffffffffffffffffffffffffffffffffffffff1673ffffffffffffffffffffffffffffffffffffffff166360fc3f8e836040518263ffffffff167c010000000000000000000000000000000000000000000000000000000002815260040180828152602001915050600060405180830381600087803b15156110b557600080fd5b6102c65a03f115156110c657600080fd5b5050506110dd60018361406690919063ffffffff16565b9150611018565b7f4878ecf95e0ab851e92c9860805d02e6413f8379c7702dc1adefab976c7a9ec3426040518082815260200191505060405180910390a15050565b6000601a80549050905090565b6016602052816000526040600020602052806000526040600020600091509150505481565b601160009054906101000a900460ff1681565b601160019054906101000a900460ff1681565b600b5481565b60095481565b600080600481111561119157fe5b601d60149054906101000a900460ff1660048111156111ac57fe5b1415156111b857600080fd5b601260003373ffffffffffffffffffffffffffffffffffffffff1673ffffffffffffffffffffffffffffffffffffffff16815260200190815260200160002060009054906101000a900460ff16151561121057600080fd5b601160009054906101000a900460ff1615151561122c57600080fd5b6112418260065461408490919063ffffffff16565b60068190555061129982601360003373ffffffffffffffffffffffffffffffffffffffff1673ffffffffffffffffffffffffffffffffffffffff1681526020019081526020016000205461408490919063ffffffff16565b601360003373ffffffffffffffffffffffffffffffffffffffff1673ffffffffffffffffffffffffffffffffffffffff168152602001908152602001600020819055503373ffffffffffffffffffffffffffffffffffffffff166108fc839081150290604051600060405180830381858888f19350505050151561131c57600080fd5b5050565b6017602052816000526040600020602052806000526040600020600091509150505481565b600c5481565b60055481565b60198181548110151561136057fe5b90600052602060002090016000915054906101000a900473ffffffffffffffffffffffffffffffffffffffff1681565b60186020528060005260406000206000915054906101000a900460ff1681565b6000809054906101000a900473ffffffffffffffffffffffffffffffffffffffff1673ffffffffffffffffffffffffffffffffffffffff163373ffffffffffffffffffffffffffffffffffffffff1614151561140b57600080fd5b600360009054906101000a900473ffffffffffffffffffffffffffffffffffffffff1673ffffffffffffffffffffffffffffffffffffffff166108fc349081150290604051600060405180830381858888f19350505050151561146d57600080fd5b565b600d5481565b60136020528060005260406000206000915090505481565b6000600180600481111561149d57fe5b601d60149054906101000a900460ff1660048111156114b857fe5b1415156114c457600080fd5b601260003373ffffffffffffffffffffffffffffffffffffffff1673ffffffffffffffffffffffffffffffffffffffff16815260200190815260200160002060009054906101000a900460ff16151561151c57600080fd5b601a805490508410151561152f57600080fd5b6115fe6006546115f0601b60009054906101000a900473ffffffffffffffffffffffffffffffffffffffff1673ffffffffffffffffffffffffffffffffffffffff166318160ddd6000604051602001526040518163ffffffff167c0100000000000000000000000000000000000000000000000000000000028152600401602060405180830381600087803b15156115c657600080fd5b6102c65a03f115156115d757600080fd5b505050604051805190508661409d90919063ffffffff16565b6140d090919063ffffffff16565b9150600b5461170c601b60009054906101000a900473ffffffffffffffffffffffffffffffffffffffff1673ffffffffffffffffffffffffffffffffffffffff166370a08231336000604051602001526040518263ffffffff167c0100000000000000000000000000000000000000000000000000000000028152600401808273ffffffffffffffffffffffffffffffffffffffff1673ffffffffffffffffffffffffffffffffffffffff168152602001915050602060405180830381600087803b15156116cb57600080fd5b6102c65a03f115156116dc57600080fd5b505050604051805190506116fe600554600a0a8661409d90919063ffffffff16565b6140d090919063ffffffff16565b1015151561171957600080fd5b601b60009054906101000a900473ffffffffffffffffffffffffffffffffffffffff1673ffffffffffffffffffffffffffffffffffffffff16632bee7bde33846000604051602001526040518363ffffffff167c0100000000000000000000000000000000000000000000000000000000028152600401808373ffffffffffffffffffffffffffffffffffffffff1673ffffffffffffffffffffffffffffffffffffffff16815260200182815260200192505050602060405180830381600087803b15156117e657600080fd5b6102c65a03f115156117f757600080fd5b50505060405180519050506118366001601a8681548110151561181657fe5b90600052602060002090600802016006015461406690919063ffffffff16565b601a8581548110151561184557fe5b90600052602060002090600802016006018190555061188082601460008781526020019081526020016000205461406690919063ffffffff16565b60146000868152602001908152602001600020819055506118fa826016600087815260200190815260200160002060003373ffffffffffffffffffffffffffffffffffffffff1673ffffffffffffffffffffffffffffffffffffffff1681526020019081526020016000205461406690919063ffffffff16565b6016600086815260200190815260200160002060003373ffffffffffffffffffffffffffffffffffffffff1673ffffffffffffffffffffffffffffffffffffffff168152602001908152602001600020819055507f20129a04dd22d5add63ed99fee5a6d3f6b688120cd4f8d10617b118e8872e1148484604051808381526020018281526020019250505060405180910390a150505050565b60065481565b60048060048111156119a757fe5b601d60149054906101000a900460ff1660048111156119c257fe5b1415156119ce57600080fd5b601160019054906101000a900460ff1615156119e957600080fd5b6000601d60146101000a81548160ff02191690836004811115611a0857fe5b0217905550426007819055507fc8a0332abe200b5e7ff117e01b27b1ea7e989a7152ad8690ca1e0f0cb1157c3f426040518082815260200191505060405180910390a150565b60085481565b60105481565b600e5481565b600460009054906101000a900473ffffffffffffffffffffffffffffffffffffffff1673ffffffffffffffffffffffffffffffffffffffff163373ffffffffffffffffffffffffffffffffffffffff16141515611abc57600080fd5b601160019054906101000a900460ff16151515611ad857600080fd5b6001601160016101000a81548160ff02191690831515021790555081600160006101000a81548173ffffffffffffffffffffffffffffffffffffffff021916908373ffffffffffffffffffffffffffffffffffffffff16021790555080600360006101000a81548173ffffffffffffffffffffffffffffffffffffffff021916908373ffffffffffffffffffffffffffffffffffffffff160217905550600160009054906101000a900473ffffffffffffffffffffffffffffffffffffffff16601b60006101000a81548173ffffffffffffffffffffffffffffffffffffffff021916908373ffffffffffffffffffffffffffffffffffffffff160217905550600360009054906101000a900473ffffffffffffffffffffffffffffffffffffffff16601d60006101000a81548173ffffffffffffffffffffffffffffffffffffffff021916908373ffffffffffffffffffffffffffffffffffffffff1602179055505050565b60008060008060008060006003806004811115611c5857fe5b601d60149054906101000a900460ff166004811115611c7357fe5b141515611c7f57600080fd5b6004601d60146101000a81548160ff02191690836004811115611c9e57fe5b0217905550600097505b601a805490508810156121d957601a88815481101515611cc457fe5b90600052602060002090600802019650601c60009054906101000a900473ffffffffffffffffffffffffffffffffffffffff1673ffffffffffffffffffffffffffffffffffffffff1663508493bc8860000160009054906101000a900473ffffffffffffffffffffffffffffffffffffffff16306000604051602001526040518363ffffffff167c0100000000000000000000000000000000000000000000000000000000028152600401808373ffffffffffffffffffffffffffffffffffffffff1673ffffffffffffffffffffffffffffffffffffffff1681526020018273ffffffffffffffffffffffffffffffffffffffff1673ffffffffffffffffffffffffffffffffffffffff16815260200192505050602060405180830381600087803b1515611df157600080fd5b6102c65a03f11515611e0257600080fd5b505050604051805190509550611e2587600301548761409d90919063ffffffff16565b9450601c60009054906101000a900473ffffffffffffffffffffffffffffffffffffffff1673ffffffffffffffffffffffffffffffffffffffff166346be96c36000878a60000160009054906101000a900473ffffffffffffffffffffffffffffffffffffffff168a8c600501548e30600080600080604051602001526040518b63ffffffff167c0100000000000000000000000000000000000000000000000000000000028152600401808b73ffffffffffffffffffffffffffffffffffffffff1673ffffffffffffffffffffffffffffffffffffffff1681526020018a81526020018973ffffffffffffffffffffffffffffffffffffffff1673ffffffffffffffffffffffffffffffffffffffff1681526020018881526020018781526020018681526020018573ffffffffffffffffffffffffffffffffffffffff1673ffffffffffffffffffffffffffffffffffffffff1681526020018460ff16815260200183600102600019168152602001826001026000191681526020019a5050505050505050505050602060405180830381600087803b1515611fc757600080fd5b6102c65a03f11515611fd857600080fd5b50505060405180519050935085841480611ff55750866005015443115b151561200057600080fd5b61214b888861010060405190810160405290816000820160009054906101000a900473ffffffffffffffffffffffffffffffffffffffff1673ffffffffffffffffffffffffffffffffffffffff1673ffffffffffffffffffffffffffffffffffffffff168152602001600182018054600181600116156101000203166002900480601f0160208091040260200160405190810160405280929190818152602001828054600181600116156101000203166002900480156121015780601f106120d657610100808354040283529160200191612101565b820191906000526020600020905b8154815290600101906020018083116120e457829003601f168201915b5050505050815260200160028201548152602001600382015481526020016004820154815260200160058201548152602001600682015481526020016007820154815250506140eb565b601860008860000160009054906101000a900473ffffffffffffffffffffffffffffffffffffffff1673ffffffffffffffffffffffffffffffffffffffff1673ffffffffffffffffffffffffffffffffffffffff16815260200190815260200160002060006101000a81549060ff02191690556121d260018961406690919063ffffffff16565b9750611ca8565b601c60009054906101000a900473ffffffffffffffffffffffffffffffffffffffff1673ffffffffffffffffffffffffffffffffffffffff1663508493bc6000306000604051602001526040518363ffffffff167c0100000000000000000000000000000000000000000000000000000000028152600401808373ffffffffffffffffffffffffffffffffffffffff1673ffffffffffffffffffffffffffffffffffffffff1681526020018273ffffffffffffffffffffffffffffffffffffffff1673ffffffffffffffffffffffffffffffffffffffff16815260200192505050602060405180830381600087803b15156122d357600080fd5b6102c65a03f115156122e457600080fd5b505050604051805190509250601c60009054906101000a900473ffffffffffffffffffffffffffffffffffffffff1673ffffffffffffffffffffffffffffffffffffffff16632e1a7d4d846040518263ffffffff167c010000000000000000000000000000000000000000000000000000000002815260040180828152602001915050600060405180830381600087803b151561238057600080fd5b6102c65a03f1151561239157600080fd5b50505061239c614d0d565b3073ffffffffffffffffffffffffffffffffffffffff163191507fb04cca5c267a38ba92be2791f01b78de817a6d4d95155578a5f75a3896f5df1660065483604051808381526020018281526020019250505060405180910390a181600681905550601d60009054906101000a900473ffffffffffffffffffffffffffffffffffffffff1673ffffffffffffffffffffffffffffffffffffffff166332f42b546040518163ffffffff167c0100000000000000000000000000000000000000000000000000000000028152600401600060405180830381600087803b151561248357600080fd5b6102c65a03f1151561249457600080fd5b505050601a60006124a591906150be565b7f6fbfbccdd0d107860c9bccfa723d97eba4f37886edeb01e7a438b1e0fe44e056426040518082815260200191505060405180910390a15050505050505050565b6000809054906101000a900473ffffffffffffffffffffffffffffffffffffffff1681565b6000600180600481111561251b57fe5b601d60149054906101000a900460ff16600481111561253657fe5b14151561254257600080fd5b601260003373ffffffffffffffffffffffffffffffffffffffff1673ffffffffffffffffffffffffffffffffffffffff16815260200190815260200160002060009054906101000a900460ff16151561259a57600080fd5b601a80549050831015156125ad57600080fd5b6016600084815260200190815260200160002060003373ffffffffffffffffffffffffffffffffffffffff1673ffffffffffffffffffffffffffffffffffffffff1681526020019081526020016000205491506016600084815260200190815260200160002060003373ffffffffffffffffffffffffffffffffffffffff1673ffffffffffffffffffffffffffffffffffffffff1681526020019081526020016000206000905561267a82601460008681526020019081526020016000205461408490919063ffffffff16565b6014600085815260200190815260200160002081905550601b60009054906101000a900473ffffffffffffffffffffffffffffffffffffffff1673ffffffffffffffffffffffffffffffffffffffff1663a9059cbb33846000604051602001526040518363ffffffff167c0100000000000000000000000000000000000000000000000000000000028152600401808373ffffffffffffffffffffffffffffffffffffffff1673ffffffffffffffffffffffffffffffffffffffff16815260200182815260200192505050602060405180830381600087803b151561275e57600080fd5b6102c65a03f1151561276f57600080fd5b5050506040518051905050505050565b600080600080600080600180600481111561279657fe5b601d60149054906101000a900460ff1660048111156127b157fe5b1415156127bd57600080fd5b6127e8600a546127da60095460075461406690919063ffffffff16565b61406690919063ffffffff16565b42101515156127f657600080fd5b6002601d60146101000a81548160ff0219169083600481111561281557fe5b0217905550600096505b601980549050871015612c205760198781548110151561283b57fe5b906000526020600020900160009054906101000a900473ffffffffffffffffffffffffffffffffffffffff169550612974600554600a0a612966600b54601b60009054906101000a900473ffffffffffffffffffffffffffffffffffffffff1673ffffffffffffffffffffffffffffffffffffffff166370a082318b6000604051602001526040518263ffffffff167c0100000000000000000000000000000000000000000000000000000000028152600401808273ffffffffffffffffffffffffffffffffffffffff1673ffffffffffffffffffffffffffffffffffffffff168152602001915050602060405180830381600087803b151561293d57600080fd5b6102c65a03f1151561294e57600080fd5b5050506040518051905061409d90919063ffffffff16565b6140d090919063ffffffff16565b9450600085141515612c0557600093505b601a80549050841015612c045760006016600086815260200190815260200160002060008873ffffffffffffffffffffffffffffffffffffffff1673ffffffffffffffffffffffffffffffffffffffff1681526020019081526020016000205414159250821515612be957601b60009054906101000a900473ffffffffffffffffffffffffffffffffffffffff1673ffffffffffffffffffffffffffffffffffffffff16632bee7bde87876000604051602001526040518363ffffffff167c0100000000000000000000000000000000000000000000000000000000028152600401808373ffffffffffffffffffffffffffffffffffffffff1673ffffffffffffffffffffffffffffffffffffffff16815260200182815260200192505050602060405180830381600087803b1515612abd57600080fd5b6102c65a03f11515612ace57600080fd5b5050506040518051905050612b0d6001601a86815481101515612aed57fe5b90600052602060002090600802016007015461406690919063ffffffff16565b601a85815481101515612b1c57fe5b906000526020600020906008020160070181905550612b94856017600087815260200190815260200160002060008973ffffffffffffffffffffffffffffffffffffffff1673ffffffffffffffffffffffffffffffffffffffff1681526020019081526020016000205461406690919063ffffffff16565b6017600086815260200190815260200160002060008873ffffffffffffffffffffffffffffffffffffffff1673ffffffffffffffffffffffffffffffffffffffff168152602001908152602001600020819055505b612bfd60018561406690919063ffffffff16565b9350612985565b5b612c1960018861406690919063ffffffff16565b965061281f565b600096505b601a80549050871015612e6f57612d14601b60009054906101000a900473ffffffffffffffffffffffffffffffffffffffff1673ffffffffffffffffffffffffffffffffffffffff166318160ddd6000604051602001526040518163ffffffff167c0100000000000000000000000000000000000000000000000000000000028152600401602060405180830381600087803b1515612cc357600080fd5b6102c65a03f11515612cd457600080fd5b50505060405180519050612d06601460008b81526020019081526020016000205460065461409d90919063ffffffff16565b6140d090919063ffffffff16565b9150601c60009054906101000a900473ffffffffffffffffffffffffffffffffffffffff1673ffffffffffffffffffffffffffffffffffffffff1663d0e30db0836040518263ffffffff167c01000000000000000000000000000000000000000000000000000000000281526004016000604051808303818588803b1515612d9b57600080fd5b6125ee5a03f11515612dac57600080fd5b50505050601d60009054906101000a900473ffffffffffffffffffffffffffffffffffffffff1673ffffffffffffffffffffffffffffffffffffffff166360fc3f8e886040518263ffffffff167c010000000000000000000000000000000000000000000000000000000002815260040180828152602001915050600060405180830381600087803b1515612e4057600080fd5b6102c65a03f11515612e5157600080fd5b505050612e6860018861406690919063ffffffff16565b9650612c25565b7f63e5255d00258d97be2d059c72be3ed43117e9f43c2439d8639988e874efa9cf426040518082815260200191505060405180910390a150505050505050565b60126020528060005260406000206000915054906101000a900460ff1681565b60075481565b600260009054906101000a900473ffffffffffffffffffffffffffffffffffffffff1681565b60006001806004811115612f0b57fe5b601d60149054906101000a900460ff166004811115612f2657fe5b141515612f3257600080fd5b601260003373ffffffffffffffffffffffffffffffffffffffff1673ffffffffffffffffffffffffffffffffffffffff16815260200190815260200160002060009054906101000a900460ff161515612f8a57600080fd5b600c54601a80549050101515612f9f57600080fd5b601860008673ffffffffffffffffffffffffffffffffffffffff1673ffffffffffffffffffffffffffffffffffffffff16815260200190815260200160002060009054906101000a900460ff16151515612ff857600080fd5b601054601560003373ffffffffffffffffffffffffffffffffffffffff1673ffffffffffffffffffffffffffffffffffffffff1681526020019081526020016000205410151561304757600080fd5b601a805480600101828161305b91906150e2565b91600052602060002090600802016000610100604051908101604052808973ffffffffffffffffffffffffffffffffffffffff16815260200188815260200160008152602001600081526020016000815260200160008152602001600081526020016000815250909190915060008201518160000160006101000a81548173ffffffffffffffffffffffffffffffffffffffff021916908373ffffffffffffffffffffffffffffffffffffffff160217905550602082015181600101908051906020019061312a929190615114565b5060408201518160020155606082015181600301556080820151816004015560a0820151816005015560c0820151816006015560e082015181600701555050506001601860008773ffffffffffffffffffffffffffffffffffffffff1673ffffffffffffffffffffffffffffffffffffffff16815260200190815260200160002060006101000a81548160ff021916908315150217905550601d60009054906101000a900473ffffffffffffffffffffffffffffffffffffffff1673ffffffffffffffffffffffffffffffffffffffff16633455d73e856040518263ffffffff167c01000000000000000000000000000000000000000000000000000000000281526004018080602001828103825283818151815260200191508051906020019080838360005b8381101561326c578082015181840152602081019050613251565b50505050905090810190601f1680156132995780820380516001836020036101000a031916815260200191505b5092505050600060405180830381600087803b15156132b757600080fd5b6102c65a03f115156132c857600080fd5b50505061331e6001601560003373ffffffffffffffffffffffffffffffffffffffff1673ffffffffffffffffffffffffffffffffffffffff1681526020019081526020016000205461406690919063ffffffff16565b601560003373ffffffffffffffffffffffffffffffffffffffff1673ffffffffffffffffffffffffffffffffffffffff168152602001908152602001600020819055506001601a80549050039150613376828461148d565b7f6838db3c5996fec3de968e640e7dd8000add88d4b31235fa327d85cdb8ffce5c82868686604051808581526020018473ffffffffffffffffffffffffffffffffffffffff1673ffffffffffffffffffffffffffffffffffffffff16815260200180602001838152602001828103825284818151815260200191508051906020019080838360005b838110156134195780820151818401526020810190506133fe565b50505050905090810190601f1680156134465780820380516001836020036101000a031916815260200191505b509550505050505060405180910390a15050505050565b600360009054906101000a900473ffffffffffffffffffffffffffffffffffffffff1681565b600360009054906101000a900473ffffffffffffffffffffffffffffffffffffffff1673ffffffffffffffffffffffffffffffffffffffff163373ffffffffffffffffffffffffffffffffffffffff161415156134df57600080fd5b81601a848154811015156134ef57fe5b90600052602060002090600802016002018190555080601a8481548110151561351457fe5b906000526020600020906008020160040181905550505050565b600f5481565b6000809054906101000a900473ffffffffffffffffffffffffffffffffffffffff1673ffffffffffffffffffffffffffffffffffffffff163373ffffffffffffffffffffffffffffffffffffffff1614151561358f57600080fd5b80600260006101000a81548173ffffffffffffffffffffffffffffffffffffffff021916908373ffffffffffffffffffffffffffffffffffffffff16021790555080601c60006101000a81548173ffffffffffffffffffffffffffffffffffffffff021916908373ffffffffffffffffffffffffffffffffffffffff160217905550601d60009054906101000a900473ffffffffffffffffffffffffffffffffffffffff1673ffffffffffffffffffffffffffffffffffffffff16635aeed50a826040518263ffffffff167c0100000000000000000000000000000000000000000000000000000000028152600401808273ffffffffffffffffffffffffffffffffffffffff1673ffffffffffffffffffffffffffffffffffffffff168152602001915050600060405180830381600087803b15156136cd57600080fd5b6102c65a03f115156136de57600080fd5b50505050565b60146020528060005260406000206000915090505481565b600080600481111561370a57fe5b601d60149054906101000a900460ff16600481111561372557fe5b14151561373157600080fd5b61374860095460075461406690919063ffffffff16565b421015151561375657600080fd5b6001601d60146101000a81548160ff0219169083600481111561377557fe5b02179055507f87a2225345e9725a08032af379cf06b2dada438a5f4e594bc1ed005a170bf53c426040518082815260200191505060405180910390a150565b600360009054906101000a900473ffffffffffffffffffffffffffffffffffffffff1673ffffffffffffffffffffffffffffffffffffffff163373ffffffffffffffffffffffffffffffffffffffff1614151561381057600080fd5b81601a8481548110151561382057fe5b90600052602060002090600802016003018190555080601a8481548110151561384557fe5b906000526020600020906008020160050181905550505050565b60008080600481111561386e57fe5b601d60149054906101000a900460ff16600481111561388957fe5b14151561389557600080fd5b601260003373ffffffffffffffffffffffffffffffffffffffff1673ffffffffffffffffffffffffffffffffffffffff16815260200190815260200160002060009054906101000a900460ff1615156139a457601980548060010182816138fc9190615194565b9160005260206000209001600033909190916101000a81548173ffffffffffffffffffffffffffffffffffffffff021916908373ffffffffffffffffffffffffffffffffffffffff160217905550506001601260003373ffffffffffffffffffffffffffffffffffffffff1673ffffffffffffffffffffffffffffffffffffffff16815260200190815260200160002060006101000a81548160ff0219169083151502179055505b6139d0600554600a0a6139c2600f543461409d90919063ffffffff16565b6140d090919063ffffffff16565b9150613a3682613a2834601360003373ffffffffffffffffffffffffffffffffffffffff1673ffffffffffffffffffffffffffffffffffffffff1681526020019081526020016000205461406690919063ffffffff16565b61408490919063ffffffff16565b601360003373ffffffffffffffffffffffffffffffffffffffff1673ffffffffffffffffffffffffffffffffffffffff16815260200190815260200160002081905550613aa082613a923460065461406690919063ffffffff16565b61408490919063ffffffff16565b600681905550600360009054906101000a900473ffffffffffffffffffffffffffffffffffffffff1673ffffffffffffffffffffffffffffffffffffffff166108fc839081150290604051600060405180830381858888f193505050501515613b0857600080fd5b601160009054906101000a900460ff1615613c0757601b60009054906101000a900473ffffffffffffffffffffffffffffffffffffffff1673ffffffffffffffffffffffffffffffffffffffff166340c10f1933346000604051602001526040518363ffffffff167c0100000000000000000000000000000000000000000000000000000000028152600401808373ffffffffffffffffffffffffffffffffffffffff1673ffffffffffffffffffffffffffffffffffffffff16815260200182815260200192505050602060405180830381600087803b1515613bea57600080fd5b6102c65a03f11515613bfb57600080fd5b50505060405180519050505b5050565b600a5481565b600160009054906101000a900473ffffffffffffffffffffffffffffffffffffffff1681565b6000601980549050905090565b60156020528060005260406000206000915090505481565b600360009054906101000a900473ffffffffffffffffffffffffffffffffffffffff1673ffffffffffffffffffffffffffffffffffffffff163373ffffffffffffffffffffffffffffffffffffffff16141515613cb857600080fd5b601c60009054906101000a900473ffffffffffffffffffffffffffffffffffffffff1673ffffffffffffffffffffffffffffffffffffffff16630b9276668787878787876040518763ffffffff167c0100000000000000000000000000000000000000000000000000000000028152600401808773ffffffffffffffffffffffffffffffffffffffff1673ffffffffffffffffffffffffffffffffffffffff1681526020018681526020018573ffffffffffffffffffffffffffffffffffffffff1673ffffffffffffffffffffffffffffffffffffffff1681526020018481526020018381526020018281526020019650505050505050600060405180830381600087803b1515613dc857600080fd5b6102c65a03f11515613dd957600080fd5b505050505050505050565b600160009054906101000a900473ffffffffffffffffffffffffffffffffffffffff1673ffffffffffffffffffffffffffffffffffffffff163373ffffffffffffffffffffffffffffffffffffffff16141515613e4057600080fd5b6001601260008373ffffffffffffffffffffffffffffffffffffffff1673ffffffffffffffffffffffffffffffffffffffff16815260200190815260200160002060006101000a81548160ff02191690831515021790555060198054806001018281613eac9190615194565b9160005260206000209001600083909190916101000a81548173ffffffffffffffffffffffffffffffffffffffff021916908373ffffffffffffffffffffffffffffffffffffffff1602179055505050565b6000809054906101000a900473ffffffffffffffffffffffffffffffffffffffff1673ffffffffffffffffffffffffffffffffffffffff163373ffffffffffffffffffffffffffffffffffffffff16141515613f5957600080fd5b600073ffffffffffffffffffffffffffffffffffffffff168173ffffffffffffffffffffffffffffffffffffffff1614151515613f9557600080fd5b8073ffffffffffffffffffffffffffffffffffffffff166000809054906101000a900473ffffffffffffffffffffffffffffffffffffffff1673ffffffffffffffffffffffffffffffffffffffff167f8be0079c531659141344cd1fd0a4f28419497f9722a3daafe3b4186f6b6457e060405160405180910390a3806000806101000a81548173ffffffffffffffffffffffffffffffffffffffff021916908373ffffffffffffffffffffffffffffffffffffffff16021790555050565b601d60149054906101000a900460ff1681565b600080828401905083811015151561407a57fe5b8091505092915050565b600082821115151561409257fe5b818303905092915050565b600080828402905060008414806140be57508284828115156140bb57fe5b04145b15156140c657fe5b8091505092915050565b60008082848115156140de57fe5b0490508091505092915050565b60008060008060006141d5601b60009054906101000a900473ffffffffffffffffffffffffffffffffffffffff1673ffffffffffffffffffffffffffffffffffffffff166318160ddd6000604051602001526040518163ffffffff167c0100000000000000000000000000000000000000000000000000000000028152600401602060405180830381600087803b151561418457600080fd5b6102c65a03f1151561419557600080fd5b505050604051805190506141c7601460008b81526020019081526020016000205460065461409d90919063ffffffff16565b6140d090919063ffffffff16565b90506000601c60009054906101000a900473ffffffffffffffffffffffffffffffffffffffff1673ffffffffffffffffffffffffffffffffffffffff166346be96c388600001516142338a60400151866140d090919063ffffffff16565b6000868c60a001518e30600080600080604051602001526040518b63ffffffff167c0100000000000000000000000000000000000000000000000000000000028152600401808b73ffffffffffffffffffffffffffffffffffffffff1673ffffffffffffffffffffffffffffffffffffffff1681526020018a81526020018973ffffffffffffffffffffffffffffffffffffffff1673ffffffffffffffffffffffffffffffffffffffff1681526020018881526020018781526020018681526020018573ffffffffffffffffffffffffffffffffffffffff1673ffffffffffffffffffffffffffffffffffffffff1681526020018460ff16815260200183600102600019168152602001826001026000191681526020019a5050505050505050505050602060405180830381600087803b151561436f57600080fd5b6102c65a03f1151561438057600080fd5b50505060405180519050141515614af057856040015186606001511015156147bb576144b16143be8760c0015160055461409d90919063ffffffff16565b600a0a6144a3600b54614495601460008d815260200190815260200160002054601b60009054906101000a900473ffffffffffffffffffffffffffffffffffffffff1673ffffffffffffffffffffffffffffffffffffffff166318160ddd6000604051602001526040518163ffffffff167c0100000000000000000000000000000000000000000000000000000000028152600401602060405180830381600087803b151561446c57600080fd5b6102c65a03f1151561447d57600080fd5b5050506040518051905061408490919063ffffffff16565b61409d90919063ffffffff16565b6140d090919063ffffffff16565b9450600092505b6019805490508310156147b6576019838154811015156144d457fe5b906000526020600020900160009054906101000a900473ffffffffffffffffffffffffffffffffffffffff1691506016600088815260200190815260200160002060008373ffffffffffffffffffffffffffffffffffffffff1673ffffffffffffffffffffffffffffffffffffffff1681526020019081526020016000205493506000841415156146cf57601b60009054906101000a900473ffffffffffffffffffffffffffffffffffffffff1673ffffffffffffffffffffffffffffffffffffffff1663a9059cbb836145b1888861406690919063ffffffff16565b6000604051602001526040518363ffffffff167c0100000000000000000000000000000000000000000000000000000000028152600401808373ffffffffffffffffffffffffffffffffffffffff1673ffffffffffffffffffffffffffffffffffffffff16815260200182815260200192505050602060405180830381600087803b151561463e57600080fd5b6102c65a03f1151561464f57600080fd5b50505060405180519050507f9abf19388aafe43a9c9e4eccb861f01f3f3a71f8e60c1ec8d4b1d87899ca60ac826001604051808373ffffffffffffffffffffffffffffffffffffffff1673ffffffffffffffffffffffffffffffffffffffff168152602001821515151581526020019250505060405180910390a161479b565b60006017600089815260200190815260200160002060008473ffffffffffffffffffffffffffffffffffffffff1673ffffffffffffffffffffffffffffffffffffffff1681526020019081526020016000205414151561479a577f9abf19388aafe43a9c9e4eccb861f01f3f3a71f8e60c1ec8d4b1d87899ca60ac826000604051808373ffffffffffffffffffffffffffffffffffffffff1673ffffffffffffffffffffffffffffffffffffffff168152602001821515151581526020019250505060405180910390a15b5b6147af60018461406690919063ffffffff16565b92506144b8565b614aeb565b6147e58660e00151601460008a8152602001908152602001600020546140d090919063ffffffff16565b9450600092505b601980549050831015614aea5760198381548110151561480857fe5b906000526020600020900160009054906101000a900473ffffffffffffffffffffffffffffffffffffffff1691506017600088815260200190815260200160002060008373ffffffffffffffffffffffffffffffffffffffff1673ffffffffffffffffffffffffffffffffffffffff168152602001908152602001600020549350600084141515614a0357601b60009054906101000a900473ffffffffffffffffffffffffffffffffffffffff1673ffffffffffffffffffffffffffffffffffffffff1663a9059cbb836148e5888861406690919063ffffffff16565b6000604051602001526040518363ffffffff167c0100000000000000000000000000000000000000000000000000000000028152600401808373ffffffffffffffffffffffffffffffffffffffff1673ffffffffffffffffffffffffffffffffffffffff16815260200182815260200192505050602060405180830381600087803b151561497257600080fd5b6102c65a03f1151561498357600080fd5b50505060405180519050507f9abf19388aafe43a9c9e4eccb861f01f3f3a71f8e60c1ec8d4b1d87899ca60ac826001604051808373ffffffffffffffffffffffffffffffffffffffff1673ffffffffffffffffffffffffffffffffffffffff168152602001821515151581526020019250505060405180910390a1614acf565b60006016600089815260200190815260200160002060008473ffffffffffffffffffffffffffffffffffffffff1673ffffffffffffffffffffffffffffffffffffffff16815260200190815260200160002054141515614ace577f9abf19388aafe43a9c9e4eccb861f01f3f3a71f8e60c1ec8d4b1d87899ca60ac826000604051808373ffffffffffffffffffffffffffffffffffffffff1673ffffffffffffffffffffffffffffffffffffffff168152602001821515151581526020019250505060405180910390a15b5b614ae360018461406690919063ffffffff16565b92506147ec565b5b614d04565b600092505b601980549050831015614d0357601983815481101515614b1157fe5b906000526020600020900160009054906101000a900473ffffffffffffffffffffffffffffffffffffffff169150614bf26017600089815260200190815260200160002060008473ffffffffffffffffffffffffffffffffffffffff1673ffffffffffffffffffffffffffffffffffffffff16815260200190815260200160002054601660008a815260200190815260200160002060008573ffffffffffffffffffffffffffffffffffffffff1673ffffffffffffffffffffffffffffffffffffffff1681526020019081526020016000205461406690919063ffffffff16565b9350600084141515614ce857601b60009054906101000a900473ffffffffffffffffffffffffffffffffffffffff1673ffffffffffffffffffffffffffffffffffffffff1663a9059cbb83866000604051602001526040518363ffffffff167c0100000000000000000000000000000000000000000000000000000000028152600401808373ffffffffffffffffffffffffffffffffffffffff1673ffffffffffffffffffffffffffffffffffffffff16815260200182815260200192505050602060405180830381600087803b1515614ccb57600080fd5b6102c65a03f11515614cdc57600080fd5b50505060405180519050505b614cfc60018461406690919063ffffffff16565b9250614af5565b5b50505050505050565b600080600080600080614d59600554600a0a614d4b3073ffffffffffffffffffffffffffffffffffffffff1631600d5461409d90919063ffffffff16565b6140d090919063ffffffff16565b955060009450614d9b85614d8d883073ffffffffffffffffffffffffffffffffffffffff163161408490919063ffffffff16565b61408490919063ffffffff16565b9350600092505b6019805490508310156150b657601983815481101515614dbe57fe5b906000526020600020900160009054906101000a900473ffffffffffffffffffffffffffffffffffffffff169150614e52600654614e44601360008673ffffffffffffffffffffffffffffffffffffffff1673ffffffffffffffffffffffffffffffffffffffff168152602001908152602001600020548761409d90919063ffffffff16565b6140d090919063ffffffff16565b9050615012615003601b60009054906101000a900473ffffffffffffffffffffffffffffffffffffffff1673ffffffffffffffffffffffffffffffffffffffff166318160ddd6000604051602001526040518163ffffffff167c0100000000000000000000000000000000000000000000000000000000028152600401602060405180830381600087803b1515614ee857600080fd5b6102c65a03f11515614ef957600080fd5b50505060405180519050614ff5601b60009054906101000a900473ffffffffffffffffffffffffffffffffffffffff1673ffffffffffffffffffffffffffffffffffffffff166370a08231876000604051602001526040518263ffffffff167c0100000000000000000000000000000000000000000000000000000000028152600401808273ffffffffffffffffffffffffffffffffffffffff1673ffffffffffffffffffffffffffffffffffffffff168152602001915050602060405180830381600087803b1515614fcb57600080fd5b6102c65a03f11515614fdc57600080fd5b505050604051805190508a61409d90919063ffffffff16565b6140d090919063ffffffff16565b8261406690919063ffffffff16565b905080601360008473ffffffffffffffffffffffffffffffffffffffff1673ffffffffffffffffffffffffffffffffffffffff16815260200190815260200160002081905550601560008373ffffffffffffffffffffffffffffffffffffffff1673ffffffffffffffffffffffffffffffffffffffff168152602001908152602001600020600090556150af60018461406690919063ffffffff16565b9250614da2565b505050505050565b50805460008255600802906000526020600020908101906150df91906151c0565b50565b81548183558181151161510f5760080281600802836000526020600020918201910161510e91906151c0565b5b505050565b828054600181600116156101000203166002900490600052602060002090601f016020900481019282601f1061515557805160ff1916838001178555615183565b82800160010185558215615183579182015b82811115615182578251825591602001919060010190615167565b5b5090506151909190615246565b5090565b8154818355818115116151bb578183600052602060002091820191016151ba9190615246565b5b505050565b61524391905b8082111561523f57600080820160006101000a81549073ffffffffffffffffffffffffffffffffffffffff0219169055600182016000615206919061526b565b600282016000905560038201600090556004820160009055600582016000905560068201600090556007820160009055506008016151c6565b5090565b90565b61526891905b8082111561526457600081600090555060010161524c565b5090565b90565b50805460018160011615610100020316600290046000825580601f1061529157506152b0565b601f0160209004906000526020600020908101906152af9190615246565b5b505600a165627a7a723058201a1a0f1f2e8ae7e8f1b3fc242081bf5a9dd26161c7a96f5f280f9d0cef73461e0029",
  "source": "pragma solidity ^0.4.18;\r\n\r\nimport 'zeppelin-solidity/contracts/token/MintableToken.sol';\r\nimport 'zeppelin-solidity/contracts/math/SafeMath.sol';\r\nimport './etherdelta.sol';\r\nimport './oraclizeAPI_0.4.sol';\r\n\r\n// The main contract that keeps track of:\r\n// - Who is in the fund\r\n// - How much the fund has\r\n// - Each person's Share\r\n// - Each person's Control\r\ncontract GroupFund is Ownable {\r\n  using SafeMath for uint256;\r\n\r\n  enum CyclePhase { ChangeMaking, ProposalMaking, Waiting, Ended, Finalized }\r\n\r\n  struct Proposal {\r\n    address tokenAddress;\r\n    string tokenSymbol;\r\n    uint256 buyPriceInWeis;\r\n    uint256 sellPriceInWeis;\r\n    uint256 buyOrderExpirationBlockNum;\r\n    uint256 sellOrderExpirationBlockNum;\r\n    uint256 numFor;\r\n    uint256 numAgainst;\r\n  }\r\n\r\n  modifier during(CyclePhase phase) {\r\n    require(cyclePhase == phase);\r\n    _;\r\n  }\r\n\r\n  modifier onlyParticipant {\r\n    require(isParticipant[msg.sender]);\r\n    _;\r\n  }\r\n\r\n  modifier onlyOraclize {\r\n    require(msg.sender == oraclizeAddr);\r\n    _;\r\n  }\r\n\r\n  //Address of the control token\r\n  address public controlTokenAddr;\r\n\r\n  address public etherDeltaAddr;\r\n\r\n  address public oraclizeAddr;\r\n\r\n  address public creator;\r\n\r\n  //Number of decimals used for proportions\r\n  uint256 public decimals;\r\n\r\n  // The total amount of funds held by the group\r\n  uint256 public totalFundsInWeis;\r\n\r\n  //The start time for the current investment cycle, in seconds since Unix epoch\r\n  uint256 public startTimeOfCycle;\r\n\r\n  //Temporal length of each investment cycle, in seconds\r\n  uint256 public timeOfCycle;\r\n\r\n  //Temporal length of change making period at start of each cycle, in seconds\r\n  uint256 public timeOfChangeMaking;\r\n\r\n  //Temporal length of proposal making period at start of each cycle, in seconds\r\n  uint256 public timeOfProposalMaking;\r\n\r\n  //Proportion of control people who vote against a proposal have to stake\r\n  uint256 public minStakeProportion;\r\n\r\n  uint256 public maxProposals;\r\n\r\n  uint256 public commissionRate;\r\n\r\n  uint256 public orderExpirationTimeInBlocks;\r\n\r\n  //The proportion of contract balance reserved for Oraclize fees\r\n  uint256 public oraclizeFeeProportion;\r\n\r\n  //The max number of proposals a member can create\r\n  uint256 public maxProposalsPerMember;\r\n\r\n  bool public isFirstCycle;\r\n\r\n  bool public initialized;\r\n\r\n  mapping(address => bool) public isParticipant;\r\n\r\n  // Mapping from Participant address to their balance\r\n  mapping(address => uint256) public balanceOf;\r\n\r\n  // Mapping from Proposal to total amount of Control Tokens being staked by supporters\r\n  mapping(uint256 => uint256) public forStakedControlOfProposal;\r\n\r\n  //Records the number of proposals a user has made in the current cycle\r\n  mapping(address => uint256) public createdProposalCount;\r\n\r\n  // Mapping from Proposal to Participant to number of Control Tokens being staked\r\n  mapping(uint256 => mapping(address => uint256)) public forStakedControlOfProposalOfUser;\r\n\r\n  mapping(uint256 => mapping(address => uint256)) public againstStakedControlOfProposalOfUser;\r\n\r\n  // Mapping to check if a proposal for a token has already been made\r\n  mapping(address => bool) public isTokenAlreadyProposed;\r\n\r\n  address[] public participants; // A list of everyone who is participating in the GroupFund\r\n  Proposal[] public proposals;\r\n  ControlToken internal cToken;\r\n  EtherDelta internal etherDelta;\r\n  OraclizeHandler internal oraclize;\r\n  CyclePhase public cyclePhase;\r\n\r\n  event CycleStarted(uint256 timestamp);\r\n  event Deposit(address _sender, uint256 _amountInWeis);\r\n  event Withdraw(address _sender, uint256 _amountInWeis);\r\n  event ChangeMakingTimeEnded(uint256 timestamp);\r\n  event NewProposal(uint256 _id, address _tokenAddress, string _tokenSymbol, uint256 _amountInWeis);\r\n  event SupportedProposal(uint256 _id, uint256 _amountInWeis);\r\n  event ProposalMakingTimeEnded(uint256 timestamp);\r\n  event CycleEnded(uint256 timestamp);\r\n  event CycleFinalized(uint256 timestamp);\r\n  event ROI(uint256 _beforeTotalFunds, uint256 _afterTotalFunds);\r\n  event PredictionResult(address _member, bool _success);\r\n\r\n  // GroupFund constructor\r\n  function GroupFund(\r\n    address _etherDeltaAddr,\r\n    uint256 _decimals,\r\n    uint256 _timeOfCycle,\r\n    uint256 _timeOfChangeMaking,\r\n    uint256 _timeOfProposalMaking,\r\n    uint256 _minStakeProportion,\r\n    uint256 _maxProposals,\r\n    uint256 _commissionRate,\r\n    uint256 _orderExpirationTimeInBlocks,\r\n    uint256 _oraclizeFeeProportion,\r\n    uint256 _maxProposalsPerMember\r\n  )\r\n    public\r\n  {\r\n    require(_timeOfChangeMaking.add(_timeOfProposalMaking) <= _timeOfCycle);\r\n    etherDeltaAddr = _etherDeltaAddr;\r\n    decimals = _decimals;\r\n    timeOfCycle = _timeOfCycle;\r\n    timeOfChangeMaking = _timeOfChangeMaking;\r\n    timeOfProposalMaking = _timeOfProposalMaking;\r\n    minStakeProportion = _minStakeProportion;\r\n    maxProposals = _maxProposals;\r\n    commissionRate = _commissionRate;\r\n    orderExpirationTimeInBlocks = _orderExpirationTimeInBlocks;\r\n    oraclizeFeeProportion = _oraclizeFeeProportion;\r\n    maxProposalsPerMember = _maxProposalsPerMember;\r\n    startTimeOfCycle = 0;\r\n    isFirstCycle = true;\r\n    cyclePhase = CyclePhase.Finalized;\r\n    creator = msg.sender;\r\n\r\n    //Initialize etherDelta contract\r\n    etherDelta = EtherDelta(etherDeltaAddr);\r\n  }\r\n\r\n  function initializeSubcontracts(address _cTokenAddr, address _oraclizeAddr) public {\r\n    require(msg.sender == creator);\r\n    require(!initialized);\r\n\r\n    initialized = true;\r\n\r\n    controlTokenAddr = _cTokenAddr;\r\n    oraclizeAddr = _oraclizeAddr;\r\n\r\n    cToken = ControlToken(controlTokenAddr);\r\n    oraclize = OraclizeHandler(oraclizeAddr);\r\n  }\r\n\r\n  function changeEtherDeltaAddress(address _newAddr) public onlyOwner {\r\n    etherDeltaAddr = _newAddr;\r\n    etherDelta = EtherDelta(_newAddr);\r\n    oraclize.__changeEtherDeltaAddress(_newAddr);\r\n  }\r\n\r\n  function topupOraclizeFees() public payable onlyOwner {\r\n    oraclizeAddr.transfer(msg.value);\r\n  }\r\n\r\n  // Creates a new Cycle\r\n  function startNewCycle() public during(CyclePhase.Finalized) {\r\n    require(initialized);\r\n\r\n    cyclePhase = CyclePhase.ChangeMaking;\r\n\r\n    startTimeOfCycle = now;\r\n    CycleStarted(now);\r\n  }\r\n\r\n  //Change making time functions\r\n\r\n  function deposit()\r\n    public\r\n    payable\r\n    during(CyclePhase.ChangeMaking)\r\n  {\r\n    if (!isParticipant[msg.sender]) {\r\n      participants.push(msg.sender);\r\n      isParticipant[msg.sender] = true;\r\n    }\r\n\r\n    //Register investment\r\n    uint256 fees = msg.value.mul(oraclizeFeeProportion).div(10**decimals);\r\n    balanceOf[msg.sender] = balanceOf[msg.sender].add(msg.value).sub(fees);\r\n    totalFundsInWeis = totalFundsInWeis.add(msg.value).sub(fees);\r\n    oraclizeAddr.transfer(fees);\r\n\r\n    if (isFirstCycle) {\r\n      //Give control tokens proportional to investment\r\n      cToken.mint(msg.sender, msg.value);\r\n    }\r\n  }\r\n\r\n  // Withdraw from GroupFund\r\n  function withdraw(uint256 _amountInWeis)\r\n    public\r\n    during(CyclePhase.ChangeMaking)\r\n    onlyParticipant\r\n  {\r\n    require(!isFirstCycle);\r\n\r\n    totalFundsInWeis = totalFundsInWeis.sub(_amountInWeis);\r\n    balanceOf[msg.sender] = balanceOf[msg.sender].sub(_amountInWeis);\r\n\r\n    msg.sender.transfer(_amountInWeis);\r\n  }\r\n\r\n  function endChangeMakingTime() public during(CyclePhase.ChangeMaking) {\r\n    require(now >= startTimeOfCycle.add(timeOfChangeMaking));\r\n\r\n    cyclePhase = CyclePhase.ProposalMaking;\r\n\r\n    ChangeMakingTimeEnded(now);\r\n  }\r\n\r\n  //Proposal making time functions\r\n  function createProposal(\r\n    address _tokenAddress,\r\n    string _tokenSymbol,\r\n    uint256 _amountInWeis\r\n  )\r\n    public\r\n    during(CyclePhase.ProposalMaking)\r\n    onlyParticipant\r\n  {\r\n    require(proposals.length < maxProposals);\r\n    require(!isTokenAlreadyProposed[_tokenAddress]);\r\n    require(createdProposalCount[msg.sender] < maxProposalsPerMember);\r\n\r\n    proposals.push(Proposal({\r\n      tokenAddress: _tokenAddress,\r\n      tokenSymbol: _tokenSymbol,\r\n      buyPriceInWeis: 0,\r\n      sellPriceInWeis: 0,\r\n      numFor: 0,\r\n      numAgainst: 0,\r\n      buyOrderExpirationBlockNum: 0,\r\n      sellOrderExpirationBlockNum: 0\r\n    }));\r\n\r\n    // Map token onto true\r\n    isTokenAlreadyProposed[_tokenAddress] = true;\r\n    oraclize.__pushTokenSymbolOfProposal(_tokenSymbol);\r\n    createdProposalCount[msg.sender] = createdProposalCount[msg.sender].add(1);\r\n\r\n    //Stake control tokens\r\n    uint256 proposalId = proposals.length - 1;\r\n    supportProposal(proposalId, _amountInWeis);\r\n\r\n    NewProposal(proposalId, _tokenAddress, _tokenSymbol, _amountInWeis);\r\n  }\r\n\r\n  function supportProposal(uint256 _proposalId, uint256 _amountInWeis)\r\n    public\r\n    during(CyclePhase.ProposalMaking)\r\n    onlyParticipant\r\n  {\r\n    require(_proposalId < proposals.length);\r\n\r\n    //Stake control tokens\r\n    uint256 controlStake = _amountInWeis.mul(cToken.totalSupply()).div(totalFundsInWeis);\r\n    //Ensure stake is larger than the minimum proportion of Kairo balance\r\n    require(controlStake.mul(10**decimals).div(cToken.balanceOf(msg.sender)) >= minStakeProportion);\r\n    //Collect staked control tokens\r\n    cToken.ownerCollectFrom(msg.sender, controlStake);\r\n    //Update stake data\r\n    proposals[_proposalId].numFor = proposals[_proposalId].numFor.add(1);\r\n    forStakedControlOfProposal[_proposalId] = forStakedControlOfProposal[_proposalId].add(controlStake);\r\n    forStakedControlOfProposalOfUser[_proposalId][msg.sender] = forStakedControlOfProposalOfUser[_proposalId][msg.sender].add(controlStake);\r\n\r\n    SupportedProposal(_proposalId, _amountInWeis);\r\n  }\r\n\r\n  function cancelProposalSupport(uint256 _proposalId)\r\n    public\r\n    during(CyclePhase.ProposalMaking)\r\n    onlyParticipant\r\n  {\r\n    require(_proposalId < proposals.length);\r\n\r\n    //Remove stake\r\n    uint256 stake = forStakedControlOfProposalOfUser[_proposalId][msg.sender];\r\n    delete forStakedControlOfProposalOfUser[_proposalId][msg.sender];\r\n    forStakedControlOfProposal[_proposalId] = forStakedControlOfProposal[_proposalId].sub(stake);\r\n\r\n    //Return stake\r\n    cToken.transfer(msg.sender, stake);\r\n  }\r\n\r\n  function endProposalMakingTime()\r\n    public\r\n    during(CyclePhase.ProposalMaking)\r\n  {\r\n    require(now >= startTimeOfCycle.add(timeOfChangeMaking).add(timeOfProposalMaking));\r\n\r\n    cyclePhase = CyclePhase.Waiting;\r\n\r\n    //Stake against votes\r\n    for (uint256 i = 0; i < participants.length; i = i.add(1)) {\r\n      address participant = participants[i];\r\n      uint256 stakeAmount = cToken.balanceOf(participant).mul(minStakeProportion).div(10**decimals);\r\n      if (stakeAmount != 0) {\r\n        for (uint256 j = 0; j < proposals.length; j = j.add(1)) {\r\n          bool isFor = forStakedControlOfProposalOfUser[j][participant] != 0;\r\n          if (!isFor) {\r\n            cToken.ownerCollectFrom(participant, stakeAmount);\r\n            proposals[j].numAgainst = proposals[j].numAgainst.add(1);\r\n            againstStakedControlOfProposalOfUser[j][participant] = againstStakedControlOfProposalOfUser[j][participant].add(stakeAmount);\r\n          }\r\n        }\r\n      }\r\n    }\r\n\r\n    //Invest in tokens using etherdelta\r\n    for (i = 0; i < proposals.length; i = i.add(1)) {\r\n      //Deposit ether\r\n      uint256 investAmount = totalFundsInWeis.mul(forStakedControlOfProposal[i]).div(cToken.totalSupply());\r\n      etherDelta.deposit.value(investAmount)();\r\n      oraclize.__grabCurrentPriceFromOraclize(i);\r\n    }\r\n\r\n    ProposalMakingTimeEnded(now);\r\n  }\r\n\r\n  function endCycle() public during(CyclePhase.Waiting) {\r\n    require(now >= startTimeOfCycle.add(timeOfCycle));\r\n\r\n    if (isFirstCycle) {\r\n      cToken.finishMinting();\r\n    }\r\n    cyclePhase = CyclePhase.Ended;\r\n    isFirstCycle = false;\r\n\r\n    //Sell all invested tokens\r\n    for (uint256 i = 0; i < proposals.length; i = i.add(1)) {\r\n      oraclize.__grabCurrentPriceFromOraclize(i);\r\n    }\r\n\r\n    CycleEnded(now);\r\n  }\r\n\r\n  function finalizeEndCycle() public during(CyclePhase.Ended) {\r\n    cyclePhase = CyclePhase.Finalized;\r\n\r\n    //Ensure all the sell orders are inactive\r\n    for (uint256 proposalId = 0; proposalId < proposals.length; proposalId = proposalId.add(1)) {\r\n      Proposal storage prop = proposals[proposalId];\r\n      uint256 sellTokenAmount = etherDelta.tokens(prop.tokenAddress, address(this));\r\n      uint256 getWeiAmount = sellTokenAmount.mul(prop.sellPriceInWeis);\r\n      uint256 amountFilled = etherDelta.amountFilled(address(0), getWeiAmount, prop.tokenAddress, sellTokenAmount, prop.sellOrderExpirationBlockNum, proposalId, address(this), 0, 0, 0);\r\n      require(amountFilled == sellTokenAmount || block.number > prop.sellOrderExpirationBlockNum);\r\n\r\n      __settleBets(proposalId, prop);\r\n      // Remove the mapping of the address of token associated w/ proposal from mapping:\r\n      delete isTokenAlreadyProposed[prop.tokenAddress];\r\n    }\r\n    //Withdraw from etherdelta\r\n    uint256 balance = etherDelta.tokens(address(0), address(this));\r\n    etherDelta.withdraw(balance);\r\n\r\n    __distributeFundsAfterCycleEnd();\r\n\r\n    uint256 newTotalFunds = this.balance;\r\n    ROI(totalFundsInWeis, newTotalFunds);\r\n    totalFundsInWeis = newTotalFunds;\r\n\r\n    //Reset data\r\n    oraclize.__deleteTokenSymbolOfProposal();\r\n    delete proposals;\r\n\r\n    CycleFinalized(now);\r\n  }\r\n\r\n  //Getters\r\n\r\n  function participantsCount() public view returns(uint256 _count) {\r\n    return participants.length;\r\n  }\r\n\r\n  function proposalsCount() public view returns(uint256 _count) {\r\n    return proposals.length;\r\n  }\r\n\r\n  //Internal use functions\r\n\r\n  //Seperated from finalizeEndCycle() to avoid StackTooDeep error\r\n  function __settleBets(uint256 proposalId, Proposal prop) internal {\r\n    //Settle bets\r\n    uint256 tokenReward;\r\n    uint256 stake;\r\n    uint256 j;\r\n    address participant;\r\n    uint256 investAmount = totalFundsInWeis.mul(forStakedControlOfProposal[proposalId]).div(cToken.totalSupply());\r\n    if (etherDelta.amountFilled(prop.tokenAddress, investAmount.div(prop.buyPriceInWeis), address(0), investAmount, prop.sellOrderExpirationBlockNum, proposalId, address(this), 0, 0, 0) != 0) {\r\n      if (prop.sellPriceInWeis >= prop.buyPriceInWeis) {\r\n        //For wins\r\n        tokenReward = cToken.totalSupply().sub(forStakedControlOfProposal[proposalId]).mul(minStakeProportion).div(10**decimals.mul(prop.numFor));\r\n        for (j = 0; j < participants.length; j = j.add(1)) {\r\n          participant = participants[j];\r\n          stake = forStakedControlOfProposalOfUser[proposalId][participant];\r\n          if (stake != 0) {\r\n            //Give control tokens\r\n            cToken.transfer(participant, stake.add(tokenReward));\r\n            //Won bet\r\n            PredictionResult(participant, true);\r\n          } else {\r\n            if (againstStakedControlOfProposalOfUser[proposalId][participant] != 0) {\r\n              //Lost bet\r\n              PredictionResult(participant, false);\r\n            }\r\n          }\r\n        }\r\n      } else {\r\n        //Against wins\r\n        tokenReward = forStakedControlOfProposal[proposalId].div(prop.numAgainst);\r\n        for (j = 0; j < participants.length; j = j.add(1)) {\r\n          participant = participants[j];\r\n          stake = againstStakedControlOfProposalOfUser[proposalId][participant];\r\n          if (stake != 0) {\r\n            //Give control tokens\r\n            cToken.transfer(participant, stake.add(tokenReward));\r\n            //Won bet\r\n            PredictionResult(participant, true);\r\n          } else {\r\n            if (forStakedControlOfProposalOfUser[proposalId][participant] != 0) {\r\n              //Lost bet\r\n              PredictionResult(participant, false);\r\n            }\r\n          }\r\n        }\r\n      }\r\n    } else {\r\n      //Buy order failed completely. Give back stakes.\r\n      for (j = 0; j < participants.length; j = j.add(1)) {\r\n        participant = participants[j];\r\n        stake = forStakedControlOfProposalOfUser[proposalId][participant].add(againstStakedControlOfProposalOfUser[proposalId][participant]);\r\n        if (stake != 0) {\r\n          cToken.transfer(participant, stake);\r\n        }\r\n      }\r\n    }\r\n  }\r\n\r\n  //Seperated from finalizeEndCycle() to avoid StackTooDeep error\r\n  function __distributeFundsAfterCycleEnd() internal {\r\n    //Distribute funds\r\n    uint256 totalCommission = commissionRate.mul(this.balance).div(10**decimals);\r\n    uint256 feeReserve = 0;//oraclizeFeeProportion.mul(this.balance).div(10**decimals);\r\n    uint256 newTotalFunds = this.balance.sub(totalCommission).sub(feeReserve);\r\n\r\n    for (uint256 i = 0; i < participants.length; i = i.add(1)) {\r\n      address participant = participants[i];\r\n      uint256 newBalance = newTotalFunds.mul(balanceOf[participant]).div(totalFundsInWeis);\r\n      //Add commission\r\n      newBalance = newBalance.add(totalCommission.mul(cToken.balanceOf(participant)).div(cToken.totalSupply()));\r\n      //Update balance\r\n      balanceOf[participant] = newBalance;\r\n      //Reset data\r\n      delete createdProposalCount[participant];\r\n    }\r\n  }\r\n\r\n  function __addControlTokenReceipientAsParticipant(address _receipient) public {\r\n    require(msg.sender == controlTokenAddr);\r\n    isParticipant[_receipient] = true;\r\n    participants.push(_receipient);\r\n  }\r\n\r\n  function __makeOrder(address _tokenGet, uint _amountGet, address _tokenGive, uint _amountGive, uint _expires, uint _nonce) public onlyOraclize {\r\n    etherDelta.order(_tokenGet, _amountGet, _tokenGive, _amountGive, _expires, _nonce);\r\n  }\r\n\r\n  function __setBuyPriceAndExpirationBlock(uint256 _proposalId, uint256 _buyPrice, uint256 _expires) public onlyOraclize {\r\n    proposals[_proposalId].buyPriceInWeis = _buyPrice;\r\n    proposals[_proposalId].buyOrderExpirationBlockNum = _expires;\r\n  }\r\n\r\n  function __setSellPriceAndExpirationBlock(uint256 _proposalId, uint256 _sellPrice, uint256 _expires) public onlyOraclize {\r\n    proposals[_proposalId].sellPriceInWeis = _sellPrice;\r\n    proposals[_proposalId].sellOrderExpirationBlockNum = _expires;\r\n  }\r\n\r\n  function() public payable {\r\n    if (msg.sender != etherDeltaAddr) {\r\n      revert();\r\n    }\r\n  }\r\n}\r\n\r\ncontract OraclizeHandler is usingOraclize, Ownable {\r\n  using SafeMath for uint256;\r\n\r\n  enum CyclePhase { ChangeMaking, ProposalMaking, Waiting, Ended, Finalized }\r\n\r\n  // URL for querying prices, default is set to cryptocompare\r\n  // Later on, modify this to be more flexible for additional queries, etc.\r\n  string public priceCheckURL1;\r\n  string public priceCheckURL2;\r\n  string public priceCheckURL3;\r\n\r\n  address public controlTokenAddr;\r\n  address public etherDeltaAddr;\r\n\r\n  mapping(bytes32 => uint256) public proposalIdOfQuery;\r\n\r\n  GroupFund internal groupFund;\r\n  ControlToken internal cToken;\r\n  EtherDelta internal etherDelta;\r\n\r\n  string[] public tokenSymbolOfProposal;\r\n\r\n  function OraclizeHandler(address _controlTokenAddr, address _etherDeltaAddr) public {\r\n    controlTokenAddr = _controlTokenAddr;\r\n    etherDeltaAddr = _etherDeltaAddr;\r\n    cToken = ControlToken(_controlTokenAddr);\r\n    etherDelta = EtherDelta(_etherDeltaAddr);\r\n    // Initialize cryptocompare URLs:\r\n    priceCheckURL1 = \"json(https://min-api.cryptocompare.com/data/price?fsym=\";\r\n    priceCheckURL2 = \"&tsyms=\";\r\n    priceCheckURL3 = \").ETH\";\r\n  }\r\n\r\n  function __changeEtherDeltaAddress(address _newAddr) public onlyOwner {\r\n    etherDeltaAddr = _newAddr;\r\n    etherDelta = EtherDelta(_newAddr);\r\n  }\r\n\r\n  function __pushTokenSymbolOfProposal(string _tokenSymbol) public onlyOwner {\r\n    tokenSymbolOfProposal.push(_tokenSymbol);\r\n  }\r\n\r\n  function __deleteTokenSymbolOfProposal() public onlyOwner {\r\n    delete tokenSymbolOfProposal;\r\n  }\r\n  //Oraclize functions\r\n\r\n  // Query Oraclize for the current price\r\n  function __grabCurrentPriceFromOraclize(uint _proposalId) public payable onlyOwner {\r\n    require(oraclize_getPrice(\"URL\") > this.balance);\r\n\r\n    groupFund = GroupFund(owner);\r\n\r\n    string storage tokenSymbol = tokenSymbolOfProposal[_proposalId];\r\n    // Grab the cryptocompare URL that is the price in ETH of the token to purchase\r\n    string memory etherSymbol = \"ETH\";\r\n    string memory urlToQuery = strConcat(priceCheckURL1, tokenSymbol, priceCheckURL2, etherSymbol, priceCheckURL3);\r\n\r\n    string memory url = \"URL\";\r\n\r\n    // Call Oraclize to grab the most recent price information via JSON\r\n    proposalIdOfQuery[oraclize_query(url, urlToQuery)] = _proposalId;\r\n  }\r\n\r\n  // Callback function from Oraclize query:\r\n  function __callback(bytes32 _myID, string _result) public {\r\n    require(msg.sender == oraclize_cbAddress());\r\n    groupFund = GroupFund(owner);\r\n\r\n    // Grab ETH price in Weis\r\n    uint256 priceInWeis = parseInt(_result, 18);\r\n\r\n    uint256 proposalId = proposalIdOfQuery[_myID];\r\n    var (tokenAddress,) = groupFund.proposals(proposalId);\r\n\r\n    //Reset data\r\n    delete proposalIdOfQuery[_myID];\r\n\r\n    uint256 investAmount = groupFund.totalFundsInWeis().mul(groupFund.forStakedControlOfProposal(proposalId)).div(cToken.totalSupply());\r\n    uint256 expires = block.number.add(groupFund.orderExpirationTimeInBlocks());\r\n    if (uint(groupFund.cyclePhase()) == uint(CyclePhase.Waiting)) {\r\n      //Buy\r\n      groupFund.__setBuyPriceAndExpirationBlock(proposalId, priceInWeis, expires);\r\n\r\n      uint256 buyTokenAmount = investAmount.div(priceInWeis);\r\n      groupFund.__makeOrder(tokenAddress, buyTokenAmount, address(0), investAmount, expires, proposalId);\r\n    } else if (uint(groupFund.cyclePhase()) == uint(CyclePhase.Ended)) {\r\n      //Sell\r\n      groupFund.__setSellPriceAndExpirationBlock(proposalId, priceInWeis, expires);\r\n\r\n      uint256 sellTokenAmount = etherDelta.tokens(tokenAddress, owner);\r\n      uint256 getWeiAmount = sellTokenAmount.mul(priceInWeis);\r\n      groupFund.__makeOrder(address(0), getWeiAmount, tokenAddress, sellTokenAmount, expires, proposalId);\r\n    }\r\n  }\r\n\r\n  function() public payable {\r\n    if (msg.sender != owner) {\r\n      revert();\r\n    }\r\n  }\r\n}\r\n\r\n//Proportional to Wei when minted\r\ncontract ControlToken is MintableToken {\r\n  using SafeMath for uint256;\r\n\r\n  string public constant name = \"Kairo\";\r\n  string public constant symbol = \"KRO\";\r\n  uint8 public constant decimals = 18;\r\n\r\n  event OwnerCollectFrom(address _from, uint256 _value);\r\n\r\n  function transfer(address _to, uint256 _value) public returns(bool) {\r\n    require(_to != address(0));\r\n    require(_value <= balances[msg.sender]);\r\n\r\n    //Add receipient as a participant if not already a participant\r\n    addParticipant(_to);\r\n\r\n    // SafeMath.sub will throw if there is not enough balance.\r\n    balances[msg.sender] = balances[msg.sender].sub(_value);\r\n    balances[_to] = balances[_to].add(_value);\r\n    Transfer(msg.sender, _to, _value);\r\n    return true;\r\n  }\r\n\r\n  function transferFrom(address _from, address _to, uint256 _value) public returns (bool) {\r\n    require(_to != address(0));\r\n    require(_value <= balances[_from]);\r\n    require(_value <= allowed[_from][msg.sender]);\r\n\r\n    //Add receipient as a participant if not already a participant\r\n    addParticipant(_to);\r\n\r\n    balances[_from] = balances[_from].sub(_value);\r\n    balances[_to] = balances[_to].add(_value);\r\n    allowed[_from][msg.sender] = allowed[_from][msg.sender].sub(_value);\r\n    Transfer(_from, _to, _value);\r\n    return true;\r\n  }\r\n\r\n  function ownerCollectFrom(address _from, uint256 _value) public onlyOwner returns(bool) {\r\n    require(_from != address(0));\r\n    require(_value <= balances[_from]);\r\n\r\n    // SafeMath.sub will throw if there is not enough balance.\r\n    balances[_from] = balances[_from].sub(_value);\r\n    balances[msg.sender] = balances[msg.sender].add(_value);\r\n    OwnerCollectFrom(_from, _value);\r\n    return true;\r\n  }\r\n\r\n  function addParticipant(address _to) internal {\r\n    GroupFund groupFund = GroupFund(owner);\r\n    if (!groupFund.isParticipant(_to)) {\r\n      groupFund.__addControlTokenReceipientAsParticipant(_to);\r\n    }\r\n  }\r\n\r\n  function() public {\r\n    revert();\r\n  }\r\n}\r\n",
  "sourcePath": "D:\\msi-cn\\Documents\\GitHub\\betoken\\eth\\contracts\\betoken.sol",
  "compiler": {
    "name": "solc",
    "version": "0.4.18+commit.9cf6e910.Emscripten.clang"
  },
  "schemaVersion": "1.0.1",
  "updatedAt": "2017-11-23T05:30:37.641Z"
}