{
  "contractName": "GroupFund",
  "abi": [
    {
      "constant": true,
      "inputs": [
        {
          "name": "",
          "type": "uint256"
        }
      ],
      "name": "proposals",
      "outputs": [
        {
          "name": "tokenAddress",
          "type": "address"
        },
        {
          "name": "tokenSymbol",
          "type": "string"
        },
        {
          "name": "tokenDecimals",
          "type": "uint256"
        },
        {
          "name": "buyPriceInWeis",
          "type": "uint256"
        },
        {
          "name": "sellPriceInWeis",
          "type": "uint256"
        },
        {
          "name": "buyOrderExpirationBlockNum",
          "type": "uint256"
        },
        {
          "name": "sellOrderExpirationBlockNum",
          "type": "uint256"
        },
        {
          "name": "numFor",
          "type": "uint256"
        },
        {
          "name": "numAgainst",
          "type": "uint256"
        }
      ],
      "payable": false,
      "stateMutability": "view",
      "type": "function"
    },
    {
      "constant": true,
      "inputs": [],
      "name": "creator",
      "outputs": [
        {
          "name": "",
          "type": "address"
        }
      ],
      "payable": false,
      "stateMutability": "view",
      "type": "function"
    },
    {
      "constant": false,
      "inputs": [],
      "name": "endCycle",
      "outputs": [],
      "payable": false,
      "stateMutability": "nonpayable",
      "type": "function"
    },
    {
      "constant": true,
      "inputs": [],
      "name": "proposalsCount",
      "outputs": [
        {
          "name": "_count",
          "type": "uint256"
        }
      ],
      "payable": false,
      "stateMutability": "view",
      "type": "function"
    },
    {
      "constant": true,
      "inputs": [
        {
          "name": "",
          "type": "uint256"
        },
        {
          "name": "",
          "type": "address"
        }
      ],
      "name": "forStakedControlOfProposalOfUser",
      "outputs": [
        {
          "name": "",
          "type": "uint256"
        }
      ],
      "payable": false,
      "stateMutability": "view",
      "type": "function"
    },
    {
      "constant": true,
      "inputs": [],
      "name": "isFirstCycle",
      "outputs": [
        {
          "name": "",
          "type": "bool"
        }
      ],
      "payable": false,
      "stateMutability": "view",
      "type": "function"
    },
    {
      "constant": true,
      "inputs": [],
      "name": "initialized",
      "outputs": [
        {
          "name": "",
          "type": "bool"
        }
      ],
      "payable": false,
      "stateMutability": "view",
      "type": "function"
    },
    {
      "constant": true,
      "inputs": [],
      "name": "developerFeeAccount",
      "outputs": [
        {
          "name": "",
          "type": "address"
        }
      ],
      "payable": false,
      "stateMutability": "view",
      "type": "function"
    },
    {
      "constant": true,
      "inputs": [],
      "name": "minStakeProportion",
      "outputs": [
        {
          "name": "",
          "type": "uint256"
        }
      ],
      "payable": false,
      "stateMutability": "view",
      "type": "function"
    },
    {
      "constant": true,
      "inputs": [],
      "name": "tenToDecimals",
      "outputs": [
        {
          "name": "",
          "type": "uint256"
        }
      ],
      "payable": false,
      "stateMutability": "view",
      "type": "function"
    },
    {
      "constant": true,
      "inputs": [],
      "name": "timeOfChangeMaking",
      "outputs": [
        {
          "name": "",
          "type": "uint256"
        }
      ],
      "payable": false,
      "stateMutability": "view",
      "type": "function"
    },
    {
      "constant": false,
      "inputs": [
        {
          "name": "_amountInWeis",
          "type": "uint256"
        }
      ],
      "name": "withdraw",
      "outputs": [],
      "payable": false,
      "stateMutability": "nonpayable",
      "type": "function"
    },
    {
      "constant": true,
      "inputs": [
        {
          "name": "",
          "type": "uint256"
        },
        {
          "name": "",
          "type": "address"
        }
      ],
      "name": "againstStakedControlOfProposalOfUser",
      "outputs": [
        {
          "name": "",
          "type": "uint256"
        }
      ],
      "payable": false,
      "stateMutability": "view",
      "type": "function"
    },
    {
      "constant": true,
      "inputs": [],
      "name": "maxProposals",
      "outputs": [
        {
          "name": "",
          "type": "uint256"
        }
      ],
      "payable": false,
      "stateMutability": "view",
      "type": "function"
    },
    {
      "constant": true,
      "inputs": [],
      "name": "cycleNumber",
      "outputs": [
        {
          "name": "",
          "type": "uint256"
        }
      ],
      "payable": false,
      "stateMutability": "view",
      "type": "function"
    },
    {
      "constant": true,
      "inputs": [
        {
          "name": "",
          "type": "uint256"
        }
      ],
      "name": "participants",
      "outputs": [
        {
          "name": "",
          "type": "address"
        }
      ],
      "payable": false,
      "stateMutability": "view",
      "type": "function"
    },
    {
      "constant": true,
      "inputs": [],
      "name": "numProposals",
      "outputs": [
        {
          "name": "",
          "type": "uint256"
        }
      ],
      "payable": false,
      "stateMutability": "view",
      "type": "function"
    },
    {
      "constant": true,
      "inputs": [
        {
          "name": "",
          "type": "address"
        }
      ],
      "name": "isTokenAlreadyProposed",
      "outputs": [
        {
          "name": "",
          "type": "bool"
        }
      ],
      "payable": false,
      "stateMutability": "view",
      "type": "function"
    },
    {
      "constant": false,
      "inputs": [],
      "name": "topupOraclizeFees",
      "outputs": [],
      "payable": true,
      "stateMutability": "payable",
      "type": "function"
    },
    {
      "constant": true,
      "inputs": [],
      "name": "commissionRate",
      "outputs": [
        {
          "name": "",
          "type": "uint256"
        }
      ],
      "payable": false,
      "stateMutability": "view",
      "type": "function"
    },
    {
      "constant": false,
      "inputs": [
        {
          "name": "_newProp",
          "type": "uint256"
        }
      ],
      "name": "changeDeveloperFeeProportion",
      "outputs": [],
      "payable": false,
      "stateMutability": "nonpayable",
      "type": "function"
    },
    {
      "constant": false,
      "inputs": [
        {
          "name": "_newProp",
          "type": "uint256"
        }
      ],
      "name": "changeCommissionRate",
      "outputs": [],
      "payable": false,
      "stateMutability": "nonpayable",
      "type": "function"
    },
    {
      "constant": false,
      "inputs": [
        {
          "name": "_tokenAddress",
          "type": "address"
        },
        {
          "name": "_tokenSymbol",
          "type": "string"
        },
        {
          "name": "_tokenDecimals",
          "type": "uint256"
        },
        {
          "name": "_stakeInWeis",
          "type": "uint256"
        }
      ],
      "name": "createProposal",
      "outputs": [],
      "payable": false,
      "stateMutability": "nonpayable",
      "type": "function"
    },
    {
      "constant": true,
      "inputs": [
        {
          "name": "",
          "type": "address"
        }
      ],
      "name": "balanceOf",
      "outputs": [
        {
          "name": "",
          "type": "uint256"
        }
      ],
      "payable": false,
      "stateMutability": "view",
      "type": "function"
    },
    {
      "constant": false,
      "inputs": [
        {
          "name": "_proposalId",
          "type": "uint256"
        },
        {
          "name": "_stakeInWeis",
          "type": "uint256"
        }
      ],
      "name": "supportProposal",
      "outputs": [],
      "payable": false,
      "stateMutability": "nonpayable",
      "type": "function"
    },
    {
      "constant": true,
      "inputs": [],
      "name": "totalFundsInWeis",
      "outputs": [
        {
          "name": "",
          "type": "uint256"
        }
      ],
      "payable": false,
      "stateMutability": "view",
      "type": "function"
    },
    {
      "constant": false,
      "inputs": [],
      "name": "startNewCycle",
      "outputs": [],
      "payable": false,
      "stateMutability": "nonpayable",
      "type": "function"
    },
    {
      "constant": true,
      "inputs": [],
      "name": "timeOfCycle",
      "outputs": [
        {
          "name": "",
          "type": "uint256"
        }
      ],
      "payable": false,
      "stateMutability": "view",
      "type": "function"
    },
    {
      "constant": true,
      "inputs": [],
      "name": "maxProposalsPerMember",
      "outputs": [
        {
          "name": "",
          "type": "uint256"
        }
      ],
      "payable": false,
      "stateMutability": "view",
      "type": "function"
    },
    {
      "constant": true,
      "inputs": [],
      "name": "orderExpirationTimeInBlocks",
      "outputs": [
        {
          "name": "",
          "type": "uint256"
        }
      ],
      "payable": false,
      "stateMutability": "view",
      "type": "function"
    },
    {
      "constant": false,
      "inputs": [
        {
          "name": "_cTokenAddr",
          "type": "address"
        },
        {
          "name": "_oraclizeAddr",
          "type": "address"
        }
      ],
      "name": "initializeSubcontracts",
      "outputs": [],
      "payable": false,
      "stateMutability": "nonpayable",
      "type": "function"
    },
    {
      "constant": false,
      "inputs": [],
      "name": "finalizeEndCycle",
      "outputs": [],
      "payable": false,
      "stateMutability": "nonpayable",
      "type": "function"
    },
    {
      "constant": true,
      "inputs": [],
      "name": "owner",
      "outputs": [
        {
          "name": "",
          "type": "address"
        }
      ],
      "payable": false,
      "stateMutability": "view",
      "type": "function"
    },
    {
      "constant": false,
      "inputs": [
        {
          "name": "_proposalId",
          "type": "uint256"
        }
      ],
      "name": "cancelProposalSupport",
      "outputs": [],
      "payable": false,
      "stateMutability": "nonpayable",
      "type": "function"
    },
    {
      "constant": false,
      "inputs": [],
      "name": "endProposalMakingTime",
      "outputs": [],
      "payable": false,
      "stateMutability": "nonpayable",
      "type": "function"
    },
    {
      "constant": true,
      "inputs": [
        {
          "name": "",
          "type": "address"
        }
      ],
      "name": "isParticipant",
      "outputs": [
        {
          "name": "",
          "type": "bool"
        }
      ],
      "payable": false,
      "stateMutability": "view",
      "type": "function"
    },
    {
      "constant": true,
      "inputs": [],
      "name": "startTimeOfCycle",
      "outputs": [
        {
          "name": "",
          "type": "uint256"
        }
      ],
      "payable": false,
      "stateMutability": "view",
      "type": "function"
    },
    {
      "constant": true,
      "inputs": [],
      "name": "etherDeltaAddr",
      "outputs": [
        {
          "name": "",
          "type": "address"
        }
      ],
      "payable": false,
      "stateMutability": "view",
      "type": "function"
    },
    {
      "constant": true,
      "inputs": [],
      "name": "oraclizeAddr",
      "outputs": [
        {
          "name": "",
          "type": "address"
        }
      ],
      "payable": false,
      "stateMutability": "view",
      "type": "function"
    },
    {
      "constant": false,
      "inputs": [
        {
          "name": "_proposalId",
          "type": "uint256"
        },
        {
          "name": "_buyPrice",
          "type": "uint256"
        },
        {
          "name": "_expires",
          "type": "uint256"
        }
      ],
      "name": "__setBuyPriceAndExpirationBlock",
      "outputs": [],
      "payable": false,
      "stateMutability": "nonpayable",
      "type": "function"
    },
    {
      "constant": true,
      "inputs": [],
      "name": "oraclizeFeeProportion",
      "outputs": [
        {
          "name": "",
          "type": "uint256"
        }
      ],
      "payable": false,
      "stateMutability": "view",
      "type": "function"
    },
    {
      "constant": false,
      "inputs": [
        {
          "name": "_newAddr",
          "type": "address"
        }
      ],
      "name": "changeDeveloperFeeAccount",
      "outputs": [],
      "payable": false,
      "stateMutability": "nonpayable",
      "type": "function"
    },
    {
      "constant": false,
      "inputs": [
        {
          "name": "_newAddr",
          "type": "address"
        }
      ],
      "name": "changeEtherDeltaAddress",
      "outputs": [],
      "payable": false,
      "stateMutability": "nonpayable",
      "type": "function"
    },
    {
      "constant": true,
      "inputs": [
        {
          "name": "",
          "type": "uint256"
        }
      ],
      "name": "forStakedControlOfProposal",
      "outputs": [
        {
          "name": "",
          "type": "uint256"
        }
      ],
      "payable": false,
      "stateMutability": "view",
      "type": "function"
    },
    {
      "constant": false,
      "inputs": [],
      "name": "endChangeMakingTime",
      "outputs": [],
      "payable": false,
      "stateMutability": "nonpayable",
      "type": "function"
    },
    {
      "constant": true,
      "inputs": [],
      "name": "developerFeeProportion",
      "outputs": [
        {
          "name": "",
          "type": "uint256"
        }
      ],
      "payable": false,
      "stateMutability": "view",
      "type": "function"
    },
    {
      "constant": false,
      "inputs": [
        {
          "name": "_proposalId",
          "type": "uint256"
        },
        {
          "name": "_sellPrice",
          "type": "uint256"
        },
        {
          "name": "_expires",
          "type": "uint256"
        }
      ],
      "name": "__setSellPriceAndExpirationBlock",
      "outputs": [],
      "payable": false,
      "stateMutability": "nonpayable",
      "type": "function"
    },
    {
      "constant": false,
      "inputs": [],
      "name": "deposit",
      "outputs": [],
      "payable": true,
      "stateMutability": "payable",
      "type": "function"
    },
    {
      "constant": false,
      "inputs": [
        {
          "name": "_newProp",
          "type": "uint256"
        }
      ],
      "name": "changeOraclizeFeeProportion",
      "outputs": [],
      "payable": false,
      "stateMutability": "nonpayable",
      "type": "function"
    },
    {
      "constant": true,
      "inputs": [],
      "name": "timeOfProposalMaking",
      "outputs": [
        {
          "name": "",
          "type": "uint256"
        }
      ],
      "payable": false,
      "stateMutability": "view",
      "type": "function"
    },
    {
      "constant": true,
      "inputs": [],
      "name": "controlTokenAddr",
      "outputs": [
        {
          "name": "",
          "type": "address"
        }
      ],
      "payable": false,
      "stateMutability": "view",
      "type": "function"
    },
    {
      "constant": true,
      "inputs": [],
      "name": "participantsCount",
      "outputs": [
        {
          "name": "_count",
          "type": "uint256"
        }
      ],
      "payable": false,
      "stateMutability": "view",
      "type": "function"
    },
    {
      "constant": true,
      "inputs": [
        {
          "name": "",
          "type": "address"
        }
      ],
      "name": "createdProposalCount",
      "outputs": [
        {
          "name": "",
          "type": "uint256"
        }
      ],
      "payable": false,
      "stateMutability": "view",
      "type": "function"
    },
    {
      "constant": false,
      "inputs": [
        {
          "name": "_tokenGet",
          "type": "address"
        },
        {
          "name": "_amountGet",
          "type": "uint256"
        },
        {
          "name": "_tokenGive",
          "type": "address"
        },
        {
          "name": "_amountGive",
          "type": "uint256"
        },
        {
          "name": "_expires",
          "type": "uint256"
        },
        {
          "name": "_nonce",
          "type": "uint256"
        }
      ],
      "name": "__makeOrder",
      "outputs": [],
      "payable": false,
      "stateMutability": "nonpayable",
      "type": "function"
    },
    {
      "constant": false,
      "inputs": [
        {
          "name": "_receipient",
          "type": "address"
        }
      ],
      "name": "__addControlTokenReceipientAsParticipant",
      "outputs": [],
      "payable": false,
      "stateMutability": "nonpayable",
      "type": "function"
    },
    {
      "constant": false,
      "inputs": [
        {
          "name": "newOwner",
          "type": "address"
        }
      ],
      "name": "transferOwnership",
      "outputs": [],
      "payable": false,
      "stateMutability": "nonpayable",
      "type": "function"
    },
    {
      "constant": true,
      "inputs": [],
      "name": "cyclePhase",
      "outputs": [
        {
          "name": "",
          "type": "uint8"
        }
      ],
      "payable": false,
      "stateMutability": "view",
      "type": "function"
    },
    {
      "inputs": [
        {
          "name": "_etherDeltaAddr",
          "type": "address"
        },
        {
          "name": "_developerFeeAccount",
          "type": "address"
        },
        {
          "name": "_tenToDecimals",
          "type": "uint256"
        },
        {
          "name": "_timeOfCycle",
          "type": "uint256"
        },
        {
          "name": "_timeOfChangeMaking",
          "type": "uint256"
        },
        {
          "name": "_timeOfProposalMaking",
          "type": "uint256"
        },
        {
          "name": "_minStakeProportion",
          "type": "uint256"
        },
        {
          "name": "_maxProposals",
          "type": "uint256"
        },
        {
          "name": "_commissionRate",
          "type": "uint256"
        },
        {
          "name": "_orderExpirationTimeInBlocks",
          "type": "uint256"
        },
        {
          "name": "_oraclizeFeeProportion",
          "type": "uint256"
        },
        {
          "name": "_developerFeeProportion",
          "type": "uint256"
        },
        {
          "name": "_maxProposalsPerMember",
          "type": "uint256"
        }
      ],
      "payable": false,
      "stateMutability": "nonpayable",
      "type": "constructor"
    },
    {
      "payable": true,
      "stateMutability": "payable",
      "type": "fallback"
    },
    {
      "anonymous": false,
      "inputs": [
        {
          "indexed": false,
          "name": "_cycleNumber",
          "type": "uint256"
        },
        {
          "indexed": false,
          "name": "_timestamp",
          "type": "uint256"
        }
      ],
      "name": "CycleStarted",
      "type": "event"
    },
    {
      "anonymous": false,
      "inputs": [
        {
          "indexed": false,
          "name": "_cycleNumber",
          "type": "uint256"
        },
        {
          "indexed": false,
          "name": "_sender",
          "type": "address"
        },
        {
          "indexed": false,
          "name": "_amountInWeis",
          "type": "uint256"
        },
        {
          "indexed": false,
          "name": "_timestamp",
          "type": "uint256"
        }
      ],
      "name": "Deposit",
      "type": "event"
    },
    {
      "anonymous": false,
      "inputs": [
        {
          "indexed": false,
          "name": "_cycleNumber",
          "type": "uint256"
        },
        {
          "indexed": false,
          "name": "_sender",
          "type": "address"
        },
        {
          "indexed": false,
          "name": "_amountInWeis",
          "type": "uint256"
        },
        {
          "indexed": false,
          "name": "_timestamp",
          "type": "uint256"
        }
      ],
      "name": "Withdraw",
      "type": "event"
    },
    {
      "anonymous": false,
      "inputs": [
        {
          "indexed": false,
          "name": "_cycleNumber",
          "type": "uint256"
        },
        {
          "indexed": false,
          "name": "_timestamp",
          "type": "uint256"
        }
      ],
      "name": "ChangeMakingTimeEnded",
      "type": "event"
    },
    {
      "anonymous": false,
      "inputs": [
        {
          "indexed": false,
          "name": "_cycleNumber",
          "type": "uint256"
        },
        {
          "indexed": false,
          "name": "_id",
          "type": "uint256"
        },
        {
          "indexed": false,
          "name": "_tokenAddress",
          "type": "address"
        },
        {
          "indexed": false,
          "name": "_tokenSymbol",
          "type": "string"
        },
        {
          "indexed": false,
          "name": "_amountInWeis",
          "type": "uint256"
        }
      ],
      "name": "NewProposal",
      "type": "event"
    },
    {
      "anonymous": false,
      "inputs": [
        {
          "indexed": false,
          "name": "_cycleNumber",
          "type": "uint256"
        },
        {
          "indexed": false,
          "name": "_id",
          "type": "uint256"
        },
        {
          "indexed": false,
          "name": "_amountInWeis",
          "type": "uint256"
        }
      ],
      "name": "SupportedProposal",
      "type": "event"
    },
    {
      "anonymous": false,
      "inputs": [
        {
          "indexed": false,
          "name": "_cycleNumber",
          "type": "uint256"
        },
        {
          "indexed": false,
          "name": "_timestamp",
          "type": "uint256"
        }
      ],
      "name": "ProposalMakingTimeEnded",
      "type": "event"
    },
    {
      "anonymous": false,
      "inputs": [
        {
          "indexed": false,
          "name": "_cycleNumber",
          "type": "uint256"
        },
        {
          "indexed": false,
          "name": "_timestamp",
          "type": "uint256"
        }
      ],
      "name": "CycleEnded",
      "type": "event"
    },
    {
      "anonymous": false,
      "inputs": [
        {
          "indexed": false,
          "name": "_cycleNumber",
          "type": "uint256"
        },
        {
          "indexed": false,
          "name": "_timestamp",
          "type": "uint256"
        }
      ],
      "name": "CycleFinalized",
      "type": "event"
    },
    {
      "anonymous": false,
      "inputs": [
        {
          "indexed": false,
          "name": "_cycleNumber",
          "type": "uint256"
        },
        {
          "indexed": false,
          "name": "_beforeTotalFunds",
          "type": "uint256"
        },
        {
          "indexed": false,
          "name": "_afterTotalFunds",
          "type": "uint256"
        }
      ],
      "name": "ROI",
      "type": "event"
    },
    {
      "anonymous": false,
      "inputs": [
        {
          "indexed": false,
          "name": "_cycleNumber",
          "type": "uint256"
        },
        {
          "indexed": false,
          "name": "_member",
          "type": "address"
        },
        {
          "indexed": false,
          "name": "_success",
          "type": "bool"
        }
      ],
      "name": "PredictionResult",
      "type": "event"
    },
    {
      "anonymous": false,
      "inputs": [
        {
          "indexed": false,
          "name": "_cycleNumber",
          "type": "uint256"
        },
        {
          "indexed": false,
          "name": "_totalCommissionInWeis",
          "type": "uint256"
        }
      ],
      "name": "CommissionPaid",
      "type": "event"
    },
    {
      "anonymous": false,
      "inputs": [
        {
          "indexed": true,
          "name": "previousOwner",
          "type": "address"
        },
        {
          "indexed": true,
          "name": "newOwner",
          "type": "address"
        }
      ],
      "name": "OwnershipTransferred",
      "type": "event"
    }
  ],
  "bytecode": "0x606060405234156200001057600080fd5b6040516101a0806200631283398101604052808051906020019091908051906020019091908051906020019091908051906020019091908051906020019091908051906020019091908051906020019091908051906020019091908051906020019091908051906020019091908051906020019091908051906020019091908051906020019091905050336000806101000a81548173ffffffffffffffffffffffffffffffffffffffff021916908373ffffffffffffffffffffffffffffffffffffffff16021790555089620000fe898b620002ea6401000000000262003cea179091906401000000009004565b111515156200010c57600080fd5b8c600260006101000a81548173ffffffffffffffffffffffffffffffffffffffff021916908373ffffffffffffffffffffffffffffffffffffffff1602179055508b600560006101000a81548173ffffffffffffffffffffffffffffffffffffffff021916908373ffffffffffffffffffffffffffffffffffffffff1602179055508a60078190555089600a8190555088600b8190555087600c8190555086600d8190555085600e8190555084600f819055508360108190555082601181905550816012819055508060138190555060006009819055506001601560006101000a81548160ff0219169083151502179055506004602160146101000a81548160ff021916908360048111156200021e57fe5b021790555033600460006101000a81548173ffffffffffffffffffffffffffffffffffffffff021916908373ffffffffffffffffffffffffffffffffffffffff16021790555060006014819055506000600681905550600260009054906101000a900473ffffffffffffffffffffffffffffffffffffffff16602060006101000a81548173ffffffffffffffffffffffffffffffffffffffff021916908373ffffffffffffffffffffffffffffffffffffffff1602179055505050505050505050505050505062000309565b6000808284019050838110151515620002ff57fe5b8091505092915050565b615ff980620003196000396000f3006060604052600436106102a9576000357c0100000000000000000000000000000000000000000000000000000000900463ffffffff168063013cf08b1461036157806302d05d3f1461047e578063084a4faf146104d35780630a9f46ad146104e85780630f6f17d2146105115780631039162b14610567578063158ef93e146105945780631ab371fc146105c15780631dcf8ceb146106165780631f12b0e81461063f57806328ac1228146106685780632e1a7d4d146106915780632e33de6a146106b45780632f3fe24c1461070a5780632f8847101461073357806335c1d3491461075c578063400e3949146107bf5780634773822e146107e857806358e0abec146108395780635ea1d6f81461084357806364542e3e1461086c5780636642642a1461088f5780636c46ab69146108b257806370a08231146109405780637b3b346b1461098d5780637e714dd2146109b95780637f2736d1146109e2578063810599e9146109f757806383d3246114610a205780638456799b14610a4957806384e4807714610a725780638b4e6ba814610aca5780638da5cb5b14610adf5780638fb644bb14610b3457806390c31d5d14610b57578063929066f514610b6c57806395988d8214610bbd57806395fa9fc914610be6578063a23a6f9e14610c3b578063a418117414610c90578063b12d2fa614610cc5578063b18e8a8d14610cee578063b462c8fa14610d27578063b484cf8d14610d60578063b64af4b114610d97578063ba25887d14610dac578063bc12730114610dd5578063d0e30db014610e0a578063d6cf33dd14610e14578063d78b3b1c14610e37578063dc87454c14610e60578063dd60c89814610eb5578063ebc95b1214610ede578063f1cd92f114610f2b578063f245fbc714610fa7578063f2fde38b14610fe0578063f6558b0014611019575b600260009054906101000a900473ffffffffffffffffffffffffffffffffffffffff1673ffffffffffffffffffffffffffffffffffffffff163373ffffffffffffffffffffffffffffffffffffffff16141580156103555750600360009054906101000a900473ffffffffffffffffffffffffffffffffffffffff1673ffffffffffffffffffffffffffffffffffffffff163373ffffffffffffffffffffffffffffffffffffffff1614155b1561035f57600080fd5b005b341561036c57600080fd5b6103826004808035906020019091905050611050565b604051808a73ffffffffffffffffffffffffffffffffffffffff1673ffffffffffffffffffffffffffffffffffffffff1681526020018060200189815260200188815260200187815260200186815260200185815260200184815260200183815260200182810382528a8181546001816001161561010002031660029004815260200191508054600181600116156101000203166002900480156104675780601f1061043c57610100808354040283529160200191610467565b820191906000526020600020905b81548152906001019060200180831161044a57829003601f168201915b50509a505050505050505050505060405180910390f35b341561048957600080fd5b6104916110cc565b604051808273ffffffffffffffffffffffffffffffffffffffff1673ffffffffffffffffffffffffffffffffffffffff16815260200191505060405180910390f35b34156104de57600080fd5b6104e66110f2565b005b34156104f357600080fd5b6104fb6112cd565b6040518082815260200191505060405180910390f35b341561051c57600080fd5b610551600480803590602001909190803573ffffffffffffffffffffffffffffffffffffffff169060200190919050506112da565b6040518082815260200191505060405180910390f35b341561057257600080fd5b61057a6112ff565b604051808215151515815260200191505060405180910390f35b341561059f57600080fd5b6105a7611312565b604051808215151515815260200191505060405180910390f35b34156105cc57600080fd5b6105d4611325565b604051808273ffffffffffffffffffffffffffffffffffffffff1673ffffffffffffffffffffffffffffffffffffffff16815260200191505060405180910390f35b341561062157600080fd5b61062961134b565b6040518082815260200191505060405180910390f35b341561064a57600080fd5b610652611351565b6040518082815260200191505060405180910390f35b341561067357600080fd5b61067b611357565b6040518082815260200191505060405180910390f35b341561069c57600080fd5b6106b2600480803590602001909190505061135d565b005b34156106bf57600080fd5b6106f4600480803590602001909190803573ffffffffffffffffffffffffffffffffffffffff16906020019091905050611577565b6040518082815260200191505060405180910390f35b341561071557600080fd5b61071d61159c565b6040518082815260200191505060405180910390f35b341561073e57600080fd5b6107466115a2565b6040518082815260200191505060405180910390f35b341561076757600080fd5b61077d60048080359060200190919050506115a8565b604051808273ffffffffffffffffffffffffffffffffffffffff1673ffffffffffffffffffffffffffffffffffffffff16815260200191505060405180910390f35b34156107ca57600080fd5b6107d26115e7565b6040518082815260200191505060405180910390f35b34156107f357600080fd5b61081f600480803573ffffffffffffffffffffffffffffffffffffffff169060200190919050506115ed565b604051808215151515815260200191505060405180910390f35b61084161160d565b005b341561084e57600080fd5b6108566116cc565b6040518082815260200191505060405180910390f35b341561087757600080fd5b61088d60048080359060200190919050506116d2565b005b341561089a57600080fd5b6108b06004808035906020019091905050611747565b005b34156108bd57600080fd5b61093e600480803573ffffffffffffffffffffffffffffffffffffffff1690602001909190803590602001908201803590602001908080601f016020809104026020016040519081016040528093929190818152602001838380828437820191505050505050919080359060200190919080359060200190919050506117ac565b005b341561094b57600080fd5b610977600480803573ffffffffffffffffffffffffffffffffffffffff16906020019091905050611d43565b6040518082815260200191505060405180910390f35b341561099857600080fd5b6109b76004808035906020019091908035906020019091905050611d5b565b005b34156109c457600080fd5b6109cc612286565b6040518082815260200191505060405180910390f35b34156109ed57600080fd5b6109f561228c565b005b3415610a0257600080fd5b610a0a6124bd565b6040518082815260200191505060405180910390f35b3415610a2b57600080fd5b610a336124c3565b6040518082815260200191505060405180910390f35b3415610a5457600080fd5b610a5c6124c9565b6040518082815260200191505060405180910390f35b3415610a7d57600080fd5b610ac8600480803573ffffffffffffffffffffffffffffffffffffffff1690602001909190803573ffffffffffffffffffffffffffffffffffffffff169060200190919050506124cf565b005b3415610ad557600080fd5b610add6126ae565b005b3415610aea57600080fd5b610af2612a20565b604051808273ffffffffffffffffffffffffffffffffffffffff1673ffffffffffffffffffffffffffffffffffffffff16815260200191505060405180910390f35b3415610b3f57600080fd5b610b556004808035906020019091905050612a45565b005b3415610b6257600080fd5b610b6a612e11565b005b3415610b7757600080fd5b610ba3600480803573ffffffffffffffffffffffffffffffffffffffff16906020019091905050612ef7565b604051808215151515815260200191505060405180910390f35b3415610bc857600080fd5b610bd0612f17565b6040518082815260200191505060405180910390f35b3415610bf157600080fd5b610bf9612f1d565b604051808273ffffffffffffffffffffffffffffffffffffffff1673ffffffffffffffffffffffffffffffffffffffff16815260200191505060405180910390f35b3415610c4657600080fd5b610c4e612f43565b604051808273ffffffffffffffffffffffffffffffffffffffff1673ffffffffffffffffffffffffffffffffffffffff16815260200191505060405180910390f35b3415610c9b57600080fd5b610cc36004808035906020019091908035906020019091908035906020019091905050612f69565b005b3415610cd057600080fd5b610cd8613014565b6040518082815260200191505060405180910390f35b3415610cf957600080fd5b610d25600480803573ffffffffffffffffffffffffffffffffffffffff1690602001909190505061301a565b005b3415610d3257600080fd5b610d5e600480803573ffffffffffffffffffffffffffffffffffffffff169060200190919050506130b9565b005b3415610d6b57600080fd5b610d816004808035906020019091905050613269565b6040518082815260200191505060405180910390f35b3415610da257600080fd5b610daa613281565b005b3415610db757600080fd5b610dbf613343565b6040518082815260200191505060405180910390f35b3415610de057600080fd5b610e086004808035906020019091908035906020019091908035906020019091905050613349565b005b610e126133f4565b005b3415610e1f57600080fd5b610e35600480803590602001909190505061381a565b005b3415610e4257600080fd5b610e4a61388f565b6040518082815260200191505060405180910390f35b3415610e6b57600080fd5b610e73613895565b604051808273ffffffffffffffffffffffffffffffffffffffff1673ffffffffffffffffffffffffffffffffffffffff16815260200191505060405180910390f35b3415610ec057600080fd5b610ec86138bb565b6040518082815260200191505060405180910390f35b3415610ee957600080fd5b610f15600480803573ffffffffffffffffffffffffffffffffffffffff169060200190919050506138c8565b6040518082815260200191505060405180910390f35b3415610f3657600080fd5b610fa5600480803573ffffffffffffffffffffffffffffffffffffffff1690602001909190803590602001909190803573ffffffffffffffffffffffffffffffffffffffff169060200190919080359060200190919080359060200190919080359060200190919050506138e0565b005b3415610fb257600080fd5b610fde600480803573ffffffffffffffffffffffffffffffffffffffff16906020019091905050613a68565b005b3415610feb57600080fd5b611017600480803573ffffffffffffffffffffffffffffffffffffffff16906020019091905050613b82565b005b341561102457600080fd5b61102c613cd7565b6040518082600481111561103c57fe5b60ff16815260200191505060405180910390f35b601e8181548110151561105f57fe5b90600052602060002090600902016000915090508060000160009054906101000a900473ffffffffffffffffffffffffffffffffffffffff169080600101908060020154908060030154908060040154908060050154908060060154908060070154908060080154905089565b600460009054906101000a900473ffffffffffffffffffffffffffffffffffffffff1681565b6000600280600481111561110257fe5b602160149054906101000a900460ff16600481111561111d57fe5b14151561112957600080fd5b611140600a54600954613cea90919063ffffffff16565b421015151561114e57600080fd5b6003602160146101000a81548160ff0219169083600481111561116d57fe5b02179055506000601560006101000a81548160ff021916908315150217905550600091505b601e80549050821015611288576000601e838154811015156111b057fe5b906000526020600020906009020160070154111561126d57602160009054906101000a900473ffffffffffffffffffffffffffffffffffffffff1673ffffffffffffffffffffffffffffffffffffffff166360fc3f8e836040518263ffffffff167c010000000000000000000000000000000000000000000000000000000002815260040180828152602001915050600060405180830381600087803b151561125857600080fd5b6102c65a03f1151561126957600080fd5b5050505b611281600183613cea90919063ffffffff16565b9150611192565b7fe1a58fd1bf66f9e9b1034d0c18caf7f52dd92caa648db643d1c98438402bd34e60065442604051808381526020018281526020019250505060405180910390a15050565b6000601e80549050905090565b601a602052816000526040600020602052806000526040600020600091509150505481565b601560009054906101000a900460ff1681565b601560019054906101000a900460ff1681565b600560009054906101000a900473ffffffffffffffffffffffffffffffffffffffff1681565b600d5481565b60075481565b600b5481565b600080600481111561136b57fe5b602160149054906101000a900460ff16600481111561138657fe5b14151561139257600080fd5b601660003373ffffffffffffffffffffffffffffffffffffffff1673ffffffffffffffffffffffffffffffffffffffff16815260200190815260200160002060009054906101000a900460ff1615156113ea57600080fd5b601560009054906101000a900460ff1615151561140657600080fd5b61141b82600854613d0890919063ffffffff16565b60088190555061147382601760003373ffffffffffffffffffffffffffffffffffffffff1673ffffffffffffffffffffffffffffffffffffffff16815260200190815260200160002054613d0890919063ffffffff16565b601760003373ffffffffffffffffffffffffffffffffffffffff1673ffffffffffffffffffffffffffffffffffffffff168152602001908152602001600020819055503373ffffffffffffffffffffffffffffffffffffffff166108fc839081150290604051600060405180830381858888f1935050505015156114f657600080fd5b7fb0ecf14e184effded5473bba77dcfab32b094b77ac1fbb36beec2aef55587970600654338442604051808581526020018473ffffffffffffffffffffffffffffffffffffffff1673ffffffffffffffffffffffffffffffffffffffff16815260200183815260200182815260200194505050505060405180910390a15050565b601b602052816000526040600020602052806000526040600020600091509150505481565b600e5481565b60065481565b601d818154811015156115b757fe5b90600052602060002090016000915054906101000a900473ffffffffffffffffffffffffffffffffffffffff1681565b60145481565b601c6020528060005260406000206000915054906101000a900460ff1681565b6000809054906101000a900473ffffffffffffffffffffffffffffffffffffffff1673ffffffffffffffffffffffffffffffffffffffff163373ffffffffffffffffffffffffffffffffffffffff1614151561166857600080fd5b600360009054906101000a900473ffffffffffffffffffffffffffffffffffffffff1673ffffffffffffffffffffffffffffffffffffffff166108fc349081150290604051600060405180830381858888f1935050505015156116ca57600080fd5b565b600f5481565b6000809054906101000a900473ffffffffffffffffffffffffffffffffffffffff1673ffffffffffffffffffffffffffffffffffffffff163373ffffffffffffffffffffffffffffffffffffffff1614151561172d57600080fd5b6012548110151561173d57600080fd5b8060128190555050565b6000809054906101000a900473ffffffffffffffffffffffffffffffffffffffff1673ffffffffffffffffffffffffffffffffffffffff163373ffffffffffffffffffffffffffffffffffffffff161415156117a257600080fd5b80600f8190555050565b600060018060048111156117bc57fe5b602160149054906101000a900460ff1660048111156117d757fe5b1415156117e357600080fd5b601660003373ffffffffffffffffffffffffffffffffffffffff1673ffffffffffffffffffffffffffffffffffffffff16815260200190815260200160002060009054906101000a900460ff16151561183b57600080fd5b600e5460145410151561184d57600080fd5b601c60008773ffffffffffffffffffffffffffffffffffffffff1673ffffffffffffffffffffffffffffffffffffffff16815260200190815260200160002060009054906101000a900460ff161515156118a657600080fd5b601354601960003373ffffffffffffffffffffffffffffffffffffffff1673ffffffffffffffffffffffffffffffffffffffff168152602001908152602001600020541015156118f557600080fd5b601e80548060010182816119099190615dd0565b91600052602060002090600902016000610120604051908101604052808a73ffffffffffffffffffffffffffffffffffffffff16815260200189815260200188815260200160008152602001600081526020016000815260200160008152602001600081526020016000815250909190915060008201518160000160006101000a81548173ffffffffffffffffffffffffffffffffffffffff021916908373ffffffffffffffffffffffffffffffffffffffff16021790555060208201518160010190805190602001906119de929190615e02565b5060408201518160020155606082015181600301556080820151816004015560a0820151816005015560c0820151816006015560e0820151816007015561010082015181600801555050506001601c60008873ffffffffffffffffffffffffffffffffffffffff1673ffffffffffffffffffffffffffffffffffffffff16815260200190815260200160002060006101000a81548160ff021916908315150217905550602160009054906101000a900473ffffffffffffffffffffffffffffffffffffffff1673ffffffffffffffffffffffffffffffffffffffff16633455d73e866040518263ffffffff167c01000000000000000000000000000000000000000000000000000000000281526004018080602001828103825283818151815260200191508051906020019080838360005b83811015611b2b578082015181840152602081019050611b10565b50505050905090810190601f168015611b585780820380516001836020036101000a031916815260200191505b5092505050600060405180830381600087803b1515611b7657600080fd5b6102c65a03f11515611b8757600080fd5b505050611bdd6001601960003373ffffffffffffffffffffffffffffffffffffffff1673ffffffffffffffffffffffffffffffffffffffff16815260200190815260200160002054613cea90919063ffffffff16565b601960003373ffffffffffffffffffffffffffffffffffffffff1673ffffffffffffffffffffffffffffffffffffffff16815260200190815260200160002081905550611c366001601454613cea90919063ffffffff16565b6014819055506001601e80549050039150611c518284611d5b565b7f39efe5de2a7fb314f1bfefde235db361176dcf978143fe59ec807b96bce0e33560065483888887604051808681526020018581526020018473ffffffffffffffffffffffffffffffffffffffff1673ffffffffffffffffffffffffffffffffffffffff16815260200180602001838152602001828103825284818151815260200191508051906020019080838360005b83811015611cfd578082015181840152602081019050611ce2565b50505050905090810190601f168015611d2a5780820380516001836020036101000a031916815260200191505b50965050505050505060405180910390a1505050505050565b60176020528060005260406000206000915090505481565b6001806004811115611d6957fe5b602160149054906101000a900460ff166004811115611d8457fe5b141515611d9057600080fd5b601660003373ffffffffffffffffffffffffffffffffffffffff1673ffffffffffffffffffffffffffffffffffffffff16815260200190815260200160002060009054906101000a900460ff161515611de857600080fd5b601e8054905083101515611dfb57600080fd5b601c6000601e85815481101515611e0e57fe5b906000526020600020906009020160000160009054906101000a900473ffffffffffffffffffffffffffffffffffffffff1673ffffffffffffffffffffffffffffffffffffffff1673ffffffffffffffffffffffffffffffffffffffff16815260200190815260200160002060009054906101000a900460ff161515611e9357600080fd5b600d54611f9c601f60009054906101000a900473ffffffffffffffffffffffffffffffffffffffff1673ffffffffffffffffffffffffffffffffffffffff166370a08231336000604051602001526040518263ffffffff167c0100000000000000000000000000000000000000000000000000000000028152600401808273ffffffffffffffffffffffffffffffffffffffff1673ffffffffffffffffffffffffffffffffffffffff168152602001915050602060405180830381600087803b1515611f5e57600080fd5b6102c65a03f11515611f6f57600080fd5b50505060405180519050611f8e60075486613d2190919063ffffffff16565b613d5490919063ffffffff16565b10151515611fa957600080fd5b601f60009054906101000a900473ffffffffffffffffffffffffffffffffffffffff1673ffffffffffffffffffffffffffffffffffffffff16632bee7bde33846000604051602001526040518363ffffffff167c0100000000000000000000000000000000000000000000000000000000028152600401808373ffffffffffffffffffffffffffffffffffffffff1673ffffffffffffffffffffffffffffffffffffffff16815260200182815260200192505050602060405180830381600087803b151561207657600080fd5b6102c65a03f1151561208757600080fd5b50505060405180519050506000601a600085815260200190815260200160002060003373ffffffffffffffffffffffffffffffffffffffff1673ffffffffffffffffffffffffffffffffffffffff1681526020019081526020016000205414156121445761211f6001601e858154811015156120ff57fe5b906000526020600020906009020160070154613cea90919063ffffffff16565b601e8481548110151561212e57fe5b9060005260206000209060090201600701819055505b61216a826018600086815260200190815260200160002054613cea90919063ffffffff16565b60186000858152602001908152602001600020819055506121e482601a600086815260200190815260200160002060003373ffffffffffffffffffffffffffffffffffffffff1673ffffffffffffffffffffffffffffffffffffffff16815260200190815260200160002054613cea90919063ffffffff16565b601a600085815260200190815260200160002060003373ffffffffffffffffffffffffffffffffffffffff1673ffffffffffffffffffffffffffffffffffffffff168152602001908152602001600020819055507fa736789dcfb52f0b1a8435926ec8b18ae01d53345345787987b86f8e5809cd4f600654848460405180848152602001838152602001828152602001935050505060405180910390a1505050565b60085481565b6000600480600481111561229c57fe5b602160149054906101000a900460ff1660048111156122b757fe5b1415156122c357600080fd5b601560019054906101000a900460ff1615156122de57600080fd5b6000602160146101000a81548160ff021916908360048111156122fd57fe5b02179055504260098190555061231f6001600654613cea90919063ffffffff16565b600681905550600091505b601d805490508210156123955761237a601d8381548110151561234957fe5b906000526020600020900160009054906101000a900473ffffffffffffffffffffffffffffffffffffffff16613d6f565b61238e600183613cea90919063ffffffff16565b915061232a565b600091505b601e805490508210156123cb576123b082613e8d565b6123c4600183613cea90919063ffffffff16565b915061239a565b602160009054906101000a900473ffffffffffffffffffffffffffffffffffffffff1673ffffffffffffffffffffffffffffffffffffffff166332f42b546040518163ffffffff167c0100000000000000000000000000000000000000000000000000000000028152600401600060405180830381600087803b151561245057600080fd5b6102c65a03f1151561246157600080fd5b505050601e60006124729190615e82565b6014600090557f62eeb403dc233a7676f50cdb0fd72dae595aeb7c63039adce5caacc33254f9c060065442604051808381526020018281526020019250505060405180910390a15050565b600a5481565b60135481565b60105481565b600460009054906101000a900473ffffffffffffffffffffffffffffffffffffffff1673ffffffffffffffffffffffffffffffffffffffff163373ffffffffffffffffffffffffffffffffffffffff1614151561252b57600080fd5b601560019054906101000a900460ff1615151561254757600080fd5b6001601560016101000a81548160ff02191690831515021790555081600160006101000a81548173ffffffffffffffffffffffffffffffffffffffff021916908373ffffffffffffffffffffffffffffffffffffffff16021790555080600360006101000a81548173ffffffffffffffffffffffffffffffffffffffff021916908373ffffffffffffffffffffffffffffffffffffffff160217905550600160009054906101000a900473ffffffffffffffffffffffffffffffffffffffff16601f60006101000a81548173ffffffffffffffffffffffffffffffffffffffff021916908373ffffffffffffffffffffffffffffffffffffffff160217905550600360009054906101000a900473ffffffffffffffffffffffffffffffffffffffff16602160006101000a81548173ffffffffffffffffffffffffffffffffffffffff021916908373ffffffffffffffffffffffffffffffffffffffff1602179055505050565b60008060038060048111156126bf57fe5b602160149054906101000a900460ff1660048111156126da57fe5b1415156126e657600080fd5b6004602160146101000a81548160ff0219169083600481111561270557fe5b0217905550600092505b601e8054905083101561277e576000601e8481548110151561272d57fe5b90600052602060002090600902016007015411156127635761274e83613f36565b151561275957600080fd5b612762836142a3565b5b612777600184613cea90919063ffffffff16565b925061270f565b602060009054906101000a900473ffffffffffffffffffffffffffffffffffffffff1673ffffffffffffffffffffffffffffffffffffffff1663508493bc6000306000604051602001526040518363ffffffff167c0100000000000000000000000000000000000000000000000000000000028152600401808373ffffffffffffffffffffffffffffffffffffffff1673ffffffffffffffffffffffffffffffffffffffff1681526020018273ffffffffffffffffffffffffffffffffffffffff1673ffffffffffffffffffffffffffffffffffffffff16815260200192505050602060405180830381600087803b151561287857600080fd5b6102c65a03f1151561288957600080fd5b505050604051805190509150602060009054906101000a900473ffffffffffffffffffffffffffffffffffffffff1673ffffffffffffffffffffffffffffffffffffffff16632e1a7d4d836040518263ffffffff167c010000000000000000000000000000000000000000000000000000000002815260040180828152602001915050600060405180830381600087803b151561292557600080fd5b6102c65a03f1151561293657600080fd5b505050602160009054906101000a900473ffffffffffffffffffffffffffffffffffffffff1673ffffffffffffffffffffffffffffffffffffffff16635fc86db16040518163ffffffff167c0100000000000000000000000000000000000000000000000000000000028152600401600060405180830381600087803b15156129be57600080fd5b6102c65a03f115156129cf57600080fd5b5050506129da614caf565b7ff4b862466a7ed84695726312fc00377bee25443b7890d8b8985f94eef497d6ff60065442604051808381526020018281526020019250505060405180910390a1505050565b6000809054906101000a900473ffffffffffffffffffffffffffffffffffffffff1681565b60006001806004811115612a5557fe5b602160149054906101000a900460ff166004811115612a7057fe5b141515612a7c57600080fd5b601660003373ffffffffffffffffffffffffffffffffffffffff1673ffffffffffffffffffffffffffffffffffffffff16815260200190815260200160002060009054906101000a900460ff161515612ad457600080fd5b601e8054905083101515612ae757600080fd5b6000601e84815481101515612af857fe5b906000526020600020906009020160070154111515612b1657600080fd5b601a600084815260200190815260200160002060003373ffffffffffffffffffffffffffffffffffffffff1673ffffffffffffffffffffffffffffffffffffffff168152602001908152602001600020549150601a600084815260200190815260200160002060003373ffffffffffffffffffffffffffffffffffffffff1673ffffffffffffffffffffffffffffffffffffffff16815260200190815260200160002060009055612be3826018600086815260200190815260200160002054613d0890919063ffffffff16565b6018600085815260200190815260200160002081905550612c2e6001601e85815481101515612c0e57fe5b906000526020600020906009020160070154613d0890919063ffffffff16565b601e84815481101515612c3d57fe5b906000526020600020906009020160070181905550601f60009054906101000a900473ffffffffffffffffffffffffffffffffffffffff1673ffffffffffffffffffffffffffffffffffffffff1663a9059cbb33846000604051602001526040518363ffffffff167c0100000000000000000000000000000000000000000000000000000000028152600401808373ffffffffffffffffffffffffffffffffffffffff1673ffffffffffffffffffffffffffffffffffffffff16815260200182815260200192505050602060405180830381600087803b1515612d1f57600080fd5b6102c65a03f11515612d3057600080fd5b5050506040518051905050600060186000858152602001908152602001600020541415612e0c57612d6083613e8d565b612d766001601454613d0890919063ffffffff16565b601481905550601e83815481101515612d8b57fe5b9060005260206000209060090201600080820160006101000a81549073ffffffffffffffffffffffffffffffffffffffff0219169055600182016000612dd19190615ea6565b600282016000905560038201600090556004820160009055600582016000905560068201600090556007820160009055600882016000905550505b505050565b6001806004811115612e1f57fe5b602160149054906101000a900460ff166004811115612e3a57fe5b141515612e4657600080fd5b612e71600c54612e63600b54600954613cea90919063ffffffff16565b613cea90919063ffffffff16565b4210151515612e7f57600080fd5b6002602160146101000a81548160ff02191690836004811115612e9e57fe5b0217905550612eab615187565b612eb3615933565b7fc26cea5d11470524f2c181454de04fcfb1a0349aba5606ea3eb1a8ec87e1f54e60065442604051808381526020018281526020019250505060405180910390a150565b60166020528060005260406000206000915054906101000a900460ff1681565b60095481565b600260009054906101000a900473ffffffffffffffffffffffffffffffffffffffff1681565b600360009054906101000a900473ffffffffffffffffffffffffffffffffffffffff1681565b600360009054906101000a900473ffffffffffffffffffffffffffffffffffffffff1673ffffffffffffffffffffffffffffffffffffffff163373ffffffffffffffffffffffffffffffffffffffff16141515612fc557600080fd5b81601e84815481101515612fd557fe5b90600052602060002090600902016003018190555080601e84815481101515612ffa57fe5b906000526020600020906009020160050181905550505050565b60115481565b6000809054906101000a900473ffffffffffffffffffffffffffffffffffffffff1673ffffffffffffffffffffffffffffffffffffffff163373ffffffffffffffffffffffffffffffffffffffff1614151561307557600080fd5b80600560006101000a81548173ffffffffffffffffffffffffffffffffffffffff021916908373ffffffffffffffffffffffffffffffffffffffff16021790555050565b6000809054906101000a900473ffffffffffffffffffffffffffffffffffffffff1673ffffffffffffffffffffffffffffffffffffffff163373ffffffffffffffffffffffffffffffffffffffff1614151561311457600080fd5b80600260006101000a81548173ffffffffffffffffffffffffffffffffffffffff021916908373ffffffffffffffffffffffffffffffffffffffff16021790555080602060006101000a81548173ffffffffffffffffffffffffffffffffffffffff021916908373ffffffffffffffffffffffffffffffffffffffff160217905550602160009054906101000a900473ffffffffffffffffffffffffffffffffffffffff1673ffffffffffffffffffffffffffffffffffffffff16635aeed50a826040518263ffffffff167c0100000000000000000000000000000000000000000000000000000000028152600401808273ffffffffffffffffffffffffffffffffffffffff1673ffffffffffffffffffffffffffffffffffffffff168152602001915050600060405180830381600087803b151561325257600080fd5b6102c65a03f1151561326357600080fd5b50505050565b60186020528060005260406000206000915090505481565b600080600481111561328f57fe5b602160149054906101000a900460ff1660048111156132aa57fe5b1415156132b657600080fd5b6132cd600b54600954613cea90919063ffffffff16565b42101515156132db57600080fd5b6001602160146101000a81548160ff021916908360048111156132fa57fe5b02179055507f3c3379a2308ae89ee638561d0222706de289bea89968dd555b533795071130fb60065442604051808381526020018281526020019250505060405180910390a150565b60125481565b600360009054906101000a900473ffffffffffffffffffffffffffffffffffffffff1673ffffffffffffffffffffffffffffffffffffffff163373ffffffffffffffffffffffffffffffffffffffff161415156133a557600080fd5b81601e848154811015156133b557fe5b90600052602060002090600902016004018190555080601e848154811015156133da57fe5b906000526020600020906009020160060181905550505050565b60008080600481111561340357fe5b602160149054906101000a900460ff16600481111561341e57fe5b14151561342a57600080fd5b601660003373ffffffffffffffffffffffffffffffffffffffff1673ffffffffffffffffffffffffffffffffffffffff16815260200190815260200160002060009054906101000a900460ff16151561353957601d80548060010182816134919190615eee565b9160005260206000209001600033909190916101000a81548173ffffffffffffffffffffffffffffffffffffffff021916908373ffffffffffffffffffffffffffffffffffffffff160217905550506001601660003373ffffffffffffffffffffffffffffffffffffffff1673ffffffffffffffffffffffffffffffffffffffff16815260200190815260200160002060006101000a81548160ff0219169083151502179055505b61356260075461355460115434613d2190919063ffffffff16565b613d5490919063ffffffff16565b91506135c8826135ba34601760003373ffffffffffffffffffffffffffffffffffffffff1673ffffffffffffffffffffffffffffffffffffffff16815260200190815260200160002054613cea90919063ffffffff16565b613d0890919063ffffffff16565b601760003373ffffffffffffffffffffffffffffffffffffffff1673ffffffffffffffffffffffffffffffffffffffff168152602001908152602001600020819055506136328261362434600854613cea90919063ffffffff16565b613d0890919063ffffffff16565b600881905550600360009054906101000a900473ffffffffffffffffffffffffffffffffffffffff1673ffffffffffffffffffffffffffffffffffffffff166108fc839081150290604051600060405180830381858888f19350505050151561369a57600080fd5b601560009054906101000a900460ff161561379957601f60009054906101000a900473ffffffffffffffffffffffffffffffffffffffff1673ffffffffffffffffffffffffffffffffffffffff166340c10f1933346000604051602001526040518363ffffffff167c0100000000000000000000000000000000000000000000000000000000028152600401808373ffffffffffffffffffffffffffffffffffffffff1673ffffffffffffffffffffffffffffffffffffffff16815260200182815260200192505050602060405180830381600087803b151561377c57600080fd5b6102c65a03f1151561378d57600080fd5b50505060405180519050505b7fd36a2f67d06d285786f61a32b052b9ace6b0b7abef5177b54358abdc83a0b69b600654333442604051808581526020018473ffffffffffffffffffffffffffffffffffffffff1673ffffffffffffffffffffffffffffffffffffffff16815260200183815260200182815260200194505050505060405180910390a15050565b6000809054906101000a900473ffffffffffffffffffffffffffffffffffffffff1673ffffffffffffffffffffffffffffffffffffffff163373ffffffffffffffffffffffffffffffffffffffff1614151561387557600080fd5b6011548110151561388557600080fd5b8060118190555050565b600c5481565b600160009054906101000a900473ffffffffffffffffffffffffffffffffffffffff1681565b6000601d80549050905090565b60196020528060005260406000206000915090505481565b600360009054906101000a900473ffffffffffffffffffffffffffffffffffffffff1673ffffffffffffffffffffffffffffffffffffffff163373ffffffffffffffffffffffffffffffffffffffff1614151561393c57600080fd5b602060009054906101000a900473ffffffffffffffffffffffffffffffffffffffff1673ffffffffffffffffffffffffffffffffffffffff16630b9276668787878787876040518763ffffffff167c0100000000000000000000000000000000000000000000000000000000028152600401808773ffffffffffffffffffffffffffffffffffffffff1673ffffffffffffffffffffffffffffffffffffffff1681526020018681526020018573ffffffffffffffffffffffffffffffffffffffff1673ffffffffffffffffffffffffffffffffffffffff1681526020018481526020018381526020018281526020019650505050505050600060405180830381600087803b1515613a4c57600080fd5b6102c65a03f11515613a5d57600080fd5b505050505050505050565b600160009054906101000a900473ffffffffffffffffffffffffffffffffffffffff1673ffffffffffffffffffffffffffffffffffffffff163373ffffffffffffffffffffffffffffffffffffffff16141515613ac457600080fd5b6001601660008373ffffffffffffffffffffffffffffffffffffffff1673ffffffffffffffffffffffffffffffffffffffff16815260200190815260200160002060006101000a81548160ff021916908315150217905550601d8054806001018281613b309190615eee565b9160005260206000209001600083909190916101000a81548173ffffffffffffffffffffffffffffffffffffffff021916908373ffffffffffffffffffffffffffffffffffffffff1602179055505050565b6000809054906101000a900473ffffffffffffffffffffffffffffffffffffffff1673ffffffffffffffffffffffffffffffffffffffff163373ffffffffffffffffffffffffffffffffffffffff16141515613bdd57600080fd5b600073ffffffffffffffffffffffffffffffffffffffff168173ffffffffffffffffffffffffffffffffffffffff1614151515613c1957600080fd5b8073ffffffffffffffffffffffffffffffffffffffff166000809054906101000a900473ffffffffffffffffffffffffffffffffffffffff1673ffffffffffffffffffffffffffffffffffffffff167f8be0079c531659141344cd1fd0a4f28419497f9722a3daafe3b4186f6b6457e060405160405180910390a3806000806101000a81548173ffffffffffffffffffffffffffffffffffffffff021916908373ffffffffffffffffffffffffffffffffffffffff16021790555050565b602160149054906101000a900460ff1681565b6000808284019050838110151515613cfe57fe5b8091505092915050565b6000828211151515613d1657fe5b818303905092915050565b60008082840290506000841480613d425750828482811515613d3f57fe5b04145b1515613d4a57fe5b8091505092915050565b6000808284811515613d6257fe5b0490508091505092915050565b6000601960008373ffffffffffffffffffffffffffffffffffffffff1673ffffffffffffffffffffffffffffffffffffffff16815260200190815260200160002060009055600090505b601e80549050811015613e8957601a600082815260200190815260200160002060008373ffffffffffffffffffffffffffffffffffffffff1673ffffffffffffffffffffffffffffffffffffffff16815260200190815260200160002060009055601b600082815260200190815260200160002060008373ffffffffffffffffffffffffffffffffffffffff1673ffffffffffffffffffffffffffffffffffffffff16815260200190815260200160002060009055613e82600182613cea90919063ffffffff16565b9050613db9565b5050565b601c6000601e83815481101515613ea057fe5b906000526020600020906009020160000160009054906101000a900473ffffffffffffffffffffffffffffffffffffffff1673ffffffffffffffffffffffffffffffffffffffff1673ffffffffffffffffffffffffffffffffffffffff16815260200190815260200160002060006101000a81549060ff0219169055601860008281526020019081526020016000206000905550565b6000806000806000601e86815481101515613f4d57fe5b90600052602060002090600902019350602060009054906101000a900473ffffffffffffffffffffffffffffffffffffffff1673ffffffffffffffffffffffffffffffffffffffff1663508493bc8560000160009054906101000a900473ffffffffffffffffffffffffffffffffffffffff16306000604051602001526040518363ffffffff167c0100000000000000000000000000000000000000000000000000000000028152600401808373ffffffffffffffffffffffffffffffffffffffff1673ffffffffffffffffffffffffffffffffffffffff1681526020018273ffffffffffffffffffffffffffffffffffffffff1673ffffffffffffffffffffffffffffffffffffffff16815260200192505050602060405180830381600087803b151561407a57600080fd5b6102c65a03f1151561408b57600080fd5b5050506040518051905092506140c78460020154600a0a6140b9866004015486613d2190919063ffffffff16565b613d5490919063ffffffff16565b9150602060009054906101000a900473ffffffffffffffffffffffffffffffffffffffff1673ffffffffffffffffffffffffffffffffffffffff166346be96c36000848760000160009054906101000a900473ffffffffffffffffffffffffffffffffffffffff168789600601548c30600080600080604051602001526040518b63ffffffff167c0100000000000000000000000000000000000000000000000000000000028152600401808b73ffffffffffffffffffffffffffffffffffffffff1673ffffffffffffffffffffffffffffffffffffffff1681526020018a81526020018973ffffffffffffffffffffffffffffffffffffffff1673ffffffffffffffffffffffffffffffffffffffff1681526020018881526020018781526020018681526020018573ffffffffffffffffffffffffffffffffffffffff1673ffffffffffffffffffffffffffffffffffffffff1681526020018460ff16815260200183600102600019168152602001826001026000191681526020019a5050505050505050505050602060405180830381600087803b151561426957600080fd5b6102c65a03f1151561427a57600080fd5b50505060405180519050905082811015806142985750836006015443115b945050505050919050565b6000806000806000601e868154811015156142ba57fe5b906000526020600020906009020194506143ac601f60009054906101000a900473ffffffffffffffffffffffffffffffffffffffff1673ffffffffffffffffffffffffffffffffffffffff166318160ddd6000604051602001526040518163ffffffff167c0100000000000000000000000000000000000000000000000000000000028152600401602060405180830381600087803b151561435b57600080fd5b6102c65a03f1151561436c57600080fd5b5050506040518051905061439e601860008a815260200190815260200160002054600854613d2190919063ffffffff16565b613d5490919063ffffffff16565b90506000602060009054906101000a900473ffffffffffffffffffffffffffffffffffffffff1673ffffffffffffffffffffffffffffffffffffffff166346be96c38760000160009054906101000a900473ffffffffffffffffffffffffffffffffffffffff1661444389600301546144358b60020154600a0a88613d2190919063ffffffff16565b613d5490919063ffffffff16565b6000868b600601548d30600080600080604051602001526040518b63ffffffff167c0100000000000000000000000000000000000000000000000000000000028152600401808b73ffffffffffffffffffffffffffffffffffffffff1673ffffffffffffffffffffffffffffffffffffffff1681526020018a81526020018973ffffffffffffffffffffffffffffffffffffffff1673ffffffffffffffffffffffffffffffffffffffff1681526020018881526020018781526020018681526020018573ffffffffffffffffffffffffffffffffffffffff1673ffffffffffffffffffffffffffffffffffffffff1681526020018460ff16815260200183600102600019168152602001826001026000191681526020019a5050505050505050505050602060405180830381600087803b151561457f57600080fd5b6102c65a03f1151561459057600080fd5b50505060405180519050141515614c04578460030154856004015411156148cc57600092505b601d805490508310156148c757601d838154811015156145d257fe5b906000526020600020900160009054906101000a900473ffffffffffffffffffffffffffffffffffffffff169150601a600087815260200190815260200160002060008373ffffffffffffffffffffffffffffffffffffffff1673ffffffffffffffffffffffffffffffffffffffff16815260200190815260200160002054935060008411156147d757601f60009054906101000a900473ffffffffffffffffffffffffffffffffffffffff1673ffffffffffffffffffffffffffffffffffffffff1663a9059cbb836146af600288613d2190919063ffffffff16565b6000604051602001526040518363ffffffff167c0100000000000000000000000000000000000000000000000000000000028152600401808373ffffffffffffffffffffffffffffffffffffffff1673ffffffffffffffffffffffffffffffffffffffff16815260200182815260200192505050602060405180830381600087803b151561473c57600080fd5b6102c65a03f1151561474d57600080fd5b50505060405180519050507f3f188c7c7d060cde17eb095b50e5e05033be925ea386e9a542ffd27923a99fe5600654836001604051808481526020018373ffffffffffffffffffffffffffffffffffffffff1673ffffffffffffffffffffffffffffffffffffffff16815260200182151515158152602001935050505060405180910390a16148ac565b6000601b600088815260200190815260200160002060008473ffffffffffffffffffffffffffffffffffffffff1673ffffffffffffffffffffffffffffffffffffffff1681526020019081526020016000205411156148ab577f3f188c7c7d060cde17eb095b50e5e05033be925ea386e9a542ffd27923a99fe5600654836000604051808481526020018373ffffffffffffffffffffffffffffffffffffffff1673ffffffffffffffffffffffffffffffffffffffff16815260200182151515158152602001935050505060405180910390a15b5b6148c0600184613cea90919063ffffffff16565b92506145b6565b614bff565b600085600801541115614bf457600092505b601d80549050831015614bef57601d838154811015156148fa57fe5b906000526020600020900160009054906101000a900473ffffffffffffffffffffffffffffffffffffffff169150601b600087815260200190815260200160002060008373ffffffffffffffffffffffffffffffffffffffff1673ffffffffffffffffffffffffffffffffffffffff1681526020019081526020016000205493506000841115614aff57601f60009054906101000a900473ffffffffffffffffffffffffffffffffffffffff1673ffffffffffffffffffffffffffffffffffffffff1663a9059cbb836149d7600288613d2190919063ffffffff16565b6000604051602001526040518363ffffffff167c0100000000000000000000000000000000000000000000000000000000028152600401808373ffffffffffffffffffffffffffffffffffffffff1673ffffffffffffffffffffffffffffffffffffffff16815260200182815260200192505050602060405180830381600087803b1515614a6457600080fd5b6102c65a03f11515614a7557600080fd5b50505060405180519050507f3f188c7c7d060cde17eb095b50e5e05033be925ea386e9a542ffd27923a99fe5600654836001604051808481526020018373ffffffffffffffffffffffffffffffffffffffff1673ffffffffffffffffffffffffffffffffffffffff16815260200182151515158152602001935050505060405180910390a1614bd4565b6000601a600088815260200190815260200160002060008473ffffffffffffffffffffffffffffffffffffffff1673ffffffffffffffffffffffffffffffffffffffff168152602001908152602001600020541115614bd3577f3f188c7c7d060cde17eb095b50e5e05033be925ea386e9a542ffd27923a99fe5600654836000604051808481526020018373ffffffffffffffffffffffffffffffffffffffff1673ffffffffffffffffffffffffffffffffffffffff16815260200182151515158152602001935050505060405180910390a15b5b614be8600184613cea90919063ffffffff16565b92506148de565b614bfe565b614bfd86615bb3565b5b5b614c0e565b614c0d86615bb3565b5b601f60009054906101000a900473ffffffffffffffffffffffffffffffffffffffff1673ffffffffffffffffffffffffffffffffffffffff1663f3123a3a6040518163ffffffff167c0100000000000000000000000000000000000000000000000000000000028152600401600060405180830381600087803b1515614c9357600080fd5b6102c65a03f11515614ca457600080fd5b505050505050505050565b6000806000806000806000614cfa600754614cec3073ffffffffffffffffffffffffffffffffffffffff1631600f54613d2190919063ffffffff16565b613d5490919063ffffffff16565b9650614d3c600754614d2e3073ffffffffffffffffffffffffffffffffffffffff1631601254613d2190919063ffffffff16565b613d5490919063ffffffff16565b9550614d7a86614d6c893073ffffffffffffffffffffffffffffffffffffffff1631613d0890919063ffffffff16565b613d0890919063ffffffff16565b9450600093505b601d8054905084101561507457601d84815481101515614d9d57fe5b906000526020600020900160009054906101000a900473ffffffffffffffffffffffffffffffffffffffff1692506000915060006008541115614e5557614e52614e43600854614e35601760008873ffffffffffffffffffffffffffffffffffffffff1673ffffffffffffffffffffffffffffffffffffffff1681526020019081526020016000205489613d2190919063ffffffff16565b613d5490919063ffffffff16565b83613cea90919063ffffffff16565b91505b615013615004601f60009054906101000a900473ffffffffffffffffffffffffffffffffffffffff1673ffffffffffffffffffffffffffffffffffffffff166318160ddd6000604051602001526040518163ffffffff167c0100000000000000000000000000000000000000000000000000000000028152600401602060405180830381600087803b1515614ee957600080fd5b6102c65a03f11515614efa57600080fd5b50505060405180519050614ff6601f60009054906101000a900473ffffffffffffffffffffffffffffffffffffffff1673ffffffffffffffffffffffffffffffffffffffff166370a08231886000604051602001526040518263ffffffff167c0100000000000000000000000000000000000000000000000000000000028152600401808273ffffffffffffffffffffffffffffffffffffffff1673ffffffffffffffffffffffffffffffffffffffff168152602001915050602060405180830381600087803b1515614fcc57600080fd5b6102c65a03f11515614fdd57600080fd5b505050604051805190508b613d2190919063ffffffff16565b613d5490919063ffffffff16565b83613cea90919063ffffffff16565b915081601760008573ffffffffffffffffffffffffffffffffffffffff1673ffffffffffffffffffffffffffffffffffffffff1681526020019081526020016000208190555061506d600185613cea90919063ffffffff16565b9350614d81565b6150878786613cea90919063ffffffff16565b90507f13a18edb371d0a74be72de10b678893b96bc8a47e776bb122c59e21d53956fbd6006546008548360405180848152602001838152602001828152602001935050505060405180910390a180600881905550600560009054906101000a900473ffffffffffffffffffffffffffffffffffffffff1673ffffffffffffffffffffffffffffffffffffffff166108fc879081150290604051600060405180830381858888f19350505050151561513d57600080fd5b7facfa15ebe340982fef95d43aafc25d741382d7928a00055a209274fa615d527760065488604051808381526020018281526020019250505060405180910390a150505050505050565b60008060008060008060008060008098505b601e80549050891015615928576000601e8a8154811015156151b757fe5b906000526020600020906009020160070154111561590d5760009750600096505b601d805490508710156153c7576000601a60008b81526020019081526020016000206000601d8a81548110151561520b57fe5b906000526020600020900160009054906101000a900473ffffffffffffffffffffffffffffffffffffffff1673ffffffffffffffffffffffffffffffffffffffff1673ffffffffffffffffffffffffffffffffffffffff16815260200190815260200160002054141595508515156153ac576153a9601f60009054906101000a900473ffffffffffffffffffffffffffffffffffffffff1673ffffffffffffffffffffffffffffffffffffffff166370a08231601d8a8154811015156152cd57fe5b906000526020600020900160009054906101000a900473ffffffffffffffffffffffffffffffffffffffff166000604051602001526040518263ffffffff167c0100000000000000000000000000000000000000000000000000000000028152600401808273ffffffffffffffffffffffffffffffffffffffff1673ffffffffffffffffffffffffffffffffffffffff168152602001915050602060405180830381600087803b151561537f57600080fd5b6102c65a03f1151561539057600080fd5b5050506040518051905089613cea90919063ffffffff16565b97505b6153c0600188613cea90919063ffffffff16565b96506151d8565b600754945087601860008b81526020019081526020016000205410156154285761542188615413600754601860008e815260200190815260200160002054613d2190919063ffffffff16565b613d5490919063ffffffff16565b9450615534565b87601860008b815260200190815260200160002054039350600084111561553357601f60009054906101000a900473ffffffffffffffffffffffffffffffffffffffff1673ffffffffffffffffffffffffffffffffffffffff166340c10f1930866000604051602001526040518363ffffffff167c0100000000000000000000000000000000000000000000000000000000028152600401808373ffffffffffffffffffffffffffffffffffffffff1673ffffffffffffffffffffffffffffffffffffffff16815260200182815260200192505050602060405180830381600087803b151561551657600080fd5b6102c65a03f1151561552757600080fd5b50505060405180519050505b5b600096505b601d8054905087101561590c57601d8781548110151561555557fe5b906000526020600020900160009054906101000a900473ffffffffffffffffffffffffffffffffffffffff1692506000601a60008b815260200190815260200160002060008573ffffffffffffffffffffffffffffffffffffffff1673ffffffffffffffffffffffffffffffffffffffff1681526020019081526020016000205414159550601f60009054906101000a900473ffffffffffffffffffffffffffffffffffffffff1673ffffffffffffffffffffffffffffffffffffffff166370a08231846000604051602001526040518263ffffffff167c0100000000000000000000000000000000000000000000000000000000028152600401808273ffffffffffffffffffffffffffffffffffffffff1673ffffffffffffffffffffffffffffffffffffffff168152602001915050602060405180830381600087803b151561569f57600080fd5b6102c65a03f115156156b057600080fd5b505050604051805190509150851580156156ca5750600082115b156158f1576156f66007546156e88488613d2190919063ffffffff16565b613d5490919063ffffffff16565b9050601f60009054906101000a900473ffffffffffffffffffffffffffffffffffffffff1673ffffffffffffffffffffffffffffffffffffffff16632bee7bde84836000604051602001526040518363ffffffff167c0100000000000000000000000000000000000000000000000000000000028152600401808373ffffffffffffffffffffffffffffffffffffffff1673ffffffffffffffffffffffffffffffffffffffff16815260200182815260200192505050602060405180830381600087803b15156157c557600080fd5b6102c65a03f115156157d657600080fd5b50505060405180519050506158156001601e8b8154811015156157f557fe5b906000526020600020906009020160080154613cea90919063ffffffff16565b601e8a81548110151561582457fe5b90600052602060002090600902016008018190555061589c81601b60008c815260200190815260200160002060008673ffffffffffffffffffffffffffffffffffffffff1673ffffffffffffffffffffffffffffffffffffffff16815260200190815260200160002054613cea90919063ffffffff16565b601b60008b815260200190815260200160002060008573ffffffffffffffffffffffffffffffffffffffff1673ffffffffffffffffffffffffffffffffffffffff168152602001908152602001600020819055505b615905600188613cea90919063ffffffff16565b9650615539565b5b61592160018a613cea90919063ffffffff16565b9850615199565b505050505050505050565b600080600091505b601e80549050821015615baf576000601e8381548110151561595957fe5b9060005260206000209060090201600701541115615b9457615a53601f60009054906101000a900473ffffffffffffffffffffffffffffffffffffffff1673ffffffffffffffffffffffffffffffffffffffff166318160ddd6000604051602001526040518163ffffffff167c0100000000000000000000000000000000000000000000000000000000028152600401602060405180830381600087803b1515615a0257600080fd5b6102c65a03f11515615a1357600080fd5b50505060405180519050615a456018600086815260200190815260200160002054600854613d2190919063ffffffff16565b613d5490919063ffffffff16565b9050602060009054906101000a900473ffffffffffffffffffffffffffffffffffffffff1673ffffffffffffffffffffffffffffffffffffffff1663d0e30db0826040518263ffffffff167c01000000000000000000000000000000000000000000000000000000000281526004016000604051808303818588803b1515615ada57600080fd5b6125ee5a03f11515615aeb57600080fd5b50505050602160009054906101000a900473ffffffffffffffffffffffffffffffffffffffff1673ffffffffffffffffffffffffffffffffffffffff166360fc3f8e836040518263ffffffff167c010000000000000000000000000000000000000000000000000000000002815260040180828152602001915050600060405180830381600087803b1515615b7f57600080fd5b6102c65a03f11515615b9057600080fd5b5050505b615ba8600183613cea90919063ffffffff16565b915061593b565b5050565b60008060008092505b601d80549050831015615dca57601d83815481101515615bd857fe5b906000526020600020900160009054906101000a900473ffffffffffffffffffffffffffffffffffffffff169150615cb9601b600086815260200190815260200160002060008473ffffffffffffffffffffffffffffffffffffffff1673ffffffffffffffffffffffffffffffffffffffff16815260200190815260200160002054601a600087815260200190815260200160002060008573ffffffffffffffffffffffffffffffffffffffff1673ffffffffffffffffffffffffffffffffffffffff16815260200190815260200160002054613cea90919063ffffffff16565b9050600081141515615daf57601f60009054906101000a900473ffffffffffffffffffffffffffffffffffffffff1673ffffffffffffffffffffffffffffffffffffffff1663a9059cbb83836000604051602001526040518363ffffffff167c0100000000000000000000000000000000000000000000000000000000028152600401808373ffffffffffffffffffffffffffffffffffffffff1673ffffffffffffffffffffffffffffffffffffffff16815260200182815260200192505050602060405180830381600087803b1515615d9257600080fd5b6102c65a03f11515615da357600080fd5b50505060405180519050505b615dc3600184613cea90919063ffffffff16565b9250615bbc565b50505050565b815481835581811511615dfd57600902816009028360005260206000209182019101615dfc9190615f1a565b5b505050565b828054600181600116156101000203166002900490600052602060002090601f016020900481019282601f10615e4357805160ff1916838001178555615e71565b82800160010185558215615e71579182015b82811115615e70578251825591602001919060010190615e55565b5b509050615e7e9190615fa8565b5090565b5080546000825560090290600052602060002090810190615ea39190615f1a565b50565b50805460018160011615610100020316600290046000825580601f10615ecc5750615eeb565b601f016020900490600052602060002090810190615eea9190615fa8565b5b50565b815481835581811511615f1557818360005260206000209182019101615f149190615fa8565b5b505050565b615fa591905b80821115615fa157600080820160006101000a81549073ffffffffffffffffffffffffffffffffffffffff0219169055600182016000615f609190615ea6565b600282016000905560038201600090556004820160009055600582016000905560068201600090556007820160009055600882016000905550600901615f20565b5090565b90565b615fca91905b80821115615fc6576000816000905550600101615fae565b5090565b905600a165627a7a723058203b161a855810b4970dbb2cad934b9acec8c93e0953a9a3285d832532ca8ba5e40029",
  "source": "pragma solidity ^0.4.18;\r\n\r\nimport 'zeppelin-solidity/contracts/token/MintableToken.sol';\r\nimport 'zeppelin-solidity/contracts/math/SafeMath.sol';\r\nimport './etherdelta.sol';\r\nimport './oraclizeAPI_0.4.sol';\r\n\r\n// The main contract\r\ncontract GroupFund is Ownable {\r\n  using SafeMath for uint256;\r\n\r\n  enum CyclePhase { ChangeMaking, ProposalMaking, Waiting, Ended, Finalized }\r\n\r\n  struct Proposal {\r\n    address tokenAddress;\r\n    string tokenSymbol;\r\n    uint256 tokenDecimals;\r\n    uint256 buyPriceInWeis;\r\n    uint256 sellPriceInWeis;\r\n    uint256 buyOrderExpirationBlockNum;\r\n    uint256 sellOrderExpirationBlockNum;\r\n    uint256 numFor;\r\n    uint256 numAgainst;\r\n  }\r\n\r\n  modifier during(CyclePhase phase) {\r\n    require(cyclePhase == phase);\r\n    _;\r\n  }\r\n\r\n  modifier onlyParticipant {\r\n    require(isParticipant[msg.sender]);\r\n    _;\r\n  }\r\n\r\n  modifier onlyOraclize {\r\n    require(msg.sender == oraclizeAddr);\r\n    _;\r\n  }\r\n\r\n  // Address of the control token\r\n  address public controlTokenAddr;\r\n\r\n  // Address of the etherDelta decentralized exchange's address\r\n  address public etherDeltaAddr;\r\n\r\n  // Address of the helper contract that calls Oraclize\r\n  address public oraclizeAddr;\r\n\r\n  // The creator of the GroupFund\r\n  address public creator;\r\n\r\n  // Address to which the developer fees will be paid\r\n  address public developerFeeAccount;\r\n\r\n  //The number of the current cycle\r\n  uint256 public cycleNumber;\r\n\r\n  //10^decimals used for representing fixed point decimals\r\n  uint256 public tenToDecimals;\r\n\r\n  // The total amount of funds held by the group\r\n  uint256 public totalFundsInWeis;\r\n\r\n  //The start time for the current investment cycle, in seconds since Unix epoch\r\n  uint256 public startTimeOfCycle;\r\n\r\n  //Temporal length of each investment cycle, in seconds\r\n  uint256 public timeOfCycle;\r\n\r\n  //Temporal length of change making period at start of each cycle, in seconds\r\n  uint256 public timeOfChangeMaking;\r\n\r\n  //Temporal length of proposal making period at start of each cycle, in seconds\r\n  uint256 public timeOfProposalMaking;\r\n\r\n  //Proportion of control people who vote against a proposal have to stake\r\n  uint256 public minStakeProportion;\r\n\r\n  // The maximum number of proposals a participant can make\r\n  uint256 public maxProposals;\r\n\r\n  // The proportion of the fund that gets distributed to Kairo holders every cycle\r\n  uint256 public commissionRate;\r\n\r\n  uint256 public orderExpirationTimeInBlocks;\r\n\r\n  //The proportion of contract balance reserved for Oraclize fees\r\n  uint256 public oraclizeFeeProportion;\r\n\r\n  // The proportion of contract balance that goes the the devs\r\n  uint256 public developerFeeProportion;\r\n\r\n  //The max number of proposals a member can create\r\n  uint256 public maxProposalsPerMember;\r\n\r\n  uint256 public numProposals;\r\n\r\n  bool public isFirstCycle;\r\n\r\n  bool public initialized;\r\n\r\n  mapping(address => bool) public isParticipant;\r\n\r\n  // Mapping from Participant address to their balance\r\n  mapping(address => uint256) public balanceOf;\r\n\r\n  // Mapping from Proposal to total amount of Control Tokens being staked by supporters\r\n  mapping(uint256 => uint256) public forStakedControlOfProposal;\r\n\r\n  //Records the number of proposals a user has made in the current cycle\r\n  mapping(address => uint256) public createdProposalCount;\r\n\r\n  // Mapping from Proposal to Participant to number of Control Tokens being staked\r\n  mapping(uint256 => mapping(address => uint256)) public forStakedControlOfProposalOfUser;\r\n  mapping(uint256 => mapping(address => uint256)) public againstStakedControlOfProposalOfUser;\r\n\r\n  // Mapping to check if a proposal for a token has already been made\r\n  mapping(address => bool) public isTokenAlreadyProposed;\r\n\r\n  address[] public participants; // A list of everyone who is participating in the GroupFund\r\n  Proposal[] public proposals;\r\n\r\n  // Referrents to other contracts\r\n  ControlToken internal cToken;\r\n  EtherDelta internal etherDelta;\r\n  OraclizeHandler internal oraclize;\r\n\r\n  CyclePhase public cyclePhase;\r\n\r\n  event CycleStarted(uint256 _cycleNumber, uint256 _timestamp);\r\n  event Deposit(uint256 _cycleNumber, address _sender, uint256 _amountInWeis, uint256 _timestamp);\r\n  event Withdraw(uint256 _cycleNumber, address _sender, uint256 _amountInWeis, uint256 _timestamp);\r\n  event ChangeMakingTimeEnded(uint256 _cycleNumber, uint256 _timestamp);\r\n  event NewProposal(uint256 _cycleNumber, uint256 _id, address _tokenAddress, string _tokenSymbol, uint256 _amountInWeis);\r\n  event SupportedProposal(uint256 _cycleNumber, uint256 _id, uint256 _amountInWeis);\r\n  event ProposalMakingTimeEnded(uint256 _cycleNumber, uint256 _timestamp);\r\n  event CycleEnded(uint256 _cycleNumber, uint256 _timestamp);\r\n  event CycleFinalized(uint256 _cycleNumber, uint256 _timestamp);\r\n  event ROI(uint256 _cycleNumber, uint256 _beforeTotalFunds, uint256 _afterTotalFunds);\r\n  event PredictionResult(uint256 _cycleNumber, address _member, bool _success);\r\n  event CommissionPaid(uint256 _cycleNumber, uint256 _totalCommissionInWeis);\r\n\r\n  // GroupFund constructor\r\n  function GroupFund(\r\n    address _etherDeltaAddr,\r\n    address _developerFeeAccount,\r\n    uint256 _tenToDecimals,\r\n    uint256 _timeOfCycle,\r\n    uint256 _timeOfChangeMaking,\r\n    uint256 _timeOfProposalMaking,\r\n    uint256 _minStakeProportion,\r\n    uint256 _maxProposals,\r\n    uint256 _commissionRate,\r\n    uint256 _orderExpirationTimeInBlocks,\r\n    uint256 _oraclizeFeeProportion,\r\n    uint256 _developerFeeProportion,\r\n    uint256 _maxProposalsPerMember\r\n  )\r\n    public\r\n  {\r\n    require(_timeOfChangeMaking.add(_timeOfProposalMaking) <= _timeOfCycle);\r\n\r\n    etherDeltaAddr = _etherDeltaAddr;\r\n    developerFeeAccount = _developerFeeAccount;\r\n    tenToDecimals = _tenToDecimals;\r\n    timeOfCycle = _timeOfCycle;\r\n    timeOfChangeMaking = _timeOfChangeMaking;\r\n    timeOfProposalMaking = _timeOfProposalMaking;\r\n    minStakeProportion = _minStakeProportion;\r\n    maxProposals = _maxProposals;\r\n    commissionRate = _commissionRate;\r\n    orderExpirationTimeInBlocks = _orderExpirationTimeInBlocks;\r\n    oraclizeFeeProportion = _oraclizeFeeProportion;\r\n    developerFeeProportion = _developerFeeProportion;\r\n    maxProposalsPerMember = _maxProposalsPerMember;\r\n    startTimeOfCycle = 0;\r\n    isFirstCycle = true;\r\n    cyclePhase = CyclePhase.Finalized;\r\n    creator = msg.sender;\r\n    numProposals = 0;\r\n    cycleNumber = 0;\r\n\r\n    //Initialize etherDelta contract\r\n    etherDelta = EtherDelta(etherDeltaAddr);\r\n  }\r\n\r\n  // Constructor for the Control Token and Oraclize contracts\r\n  function initializeSubcontracts(address _cTokenAddr, address _oraclizeAddr) public {\r\n    require(msg.sender == creator);\r\n    require(!initialized);\r\n\r\n    initialized = true;\r\n\r\n    controlTokenAddr = _cTokenAddr;\r\n    oraclizeAddr = _oraclizeAddr;\r\n\r\n    cToken = ControlToken(controlTokenAddr);\r\n    oraclize = OraclizeHandler(oraclizeAddr);\r\n  }\r\n\r\n  // Allow updating of the exchange's address\r\n  function changeEtherDeltaAddress(address _newAddr) public onlyOwner {\r\n    etherDeltaAddr = _newAddr;\r\n\r\n    // Creates new EtherDelta API contract with the new address\r\n    etherDelta = EtherDelta(_newAddr);\r\n    oraclize.__changeEtherDeltaAddress(_newAddr);\r\n  }\r\n\r\n  // Allow the developer's address to change\r\n  function changeDeveloperFeeAccount(address _newAddr) public onlyOwner {\r\n    developerFeeAccount = _newAddr;\r\n  }\r\n\r\n  // *******\r\n  // Getters\r\n  // *******\r\n  function participantsCount() public view returns(uint256 _count) {\r\n    return participants.length;\r\n  }\r\n\r\n  function proposalsCount() public view returns(uint256 _count) {\r\n    return proposals.length;\r\n  }\r\n\r\n  // *******\r\n  // Fee Proportion setters\r\n  // *******\r\n  function changeOraclizeFeeProportion(uint256 _newProp) public onlyOwner {\r\n    require(_newProp < oraclizeFeeProportion);\r\n    oraclizeFeeProportion = _newProp;\r\n  }\r\n\r\n  function changeDeveloperFeeProportion(uint256 _newProp) public onlyOwner {\r\n    require(_newProp < developerFeeProportion);\r\n    developerFeeProportion = _newProp;\r\n  }\r\n\r\n  // Modify the commission that gets distributed to token holders\r\n  function changeCommissionRate(uint256 _newProp) public onlyOwner {\r\n    commissionRate = _newProp;\r\n  }\r\n\r\n  function topupOraclizeFees() public payable onlyOwner {\r\n    oraclizeAddr.transfer(msg.value);\r\n  }\r\n\r\n  //Starts a new cycle\r\n  function startNewCycle() public during(CyclePhase.Finalized) {\r\n    // Contract needs to be initialized\r\n    // (Used to prevent function calls before initializing subcontracts)\r\n    require(initialized);\r\n\r\n    // Update the Cycles\r\n    cyclePhase = CyclePhase.ChangeMaking;\r\n    startTimeOfCycle = now;\r\n    cycleNumber = cycleNumber.add(1);\r\n\r\n    //Reset data\r\n    for (uint256 i = 0; i < participants.length; i = i.add(1)) {\r\n      __resetMemberData(participants[i]);\r\n    }\r\n\r\n    for (i = 0; i < proposals.length; i = i.add(1)) {\r\n      __resetProposalData(i);\r\n    }\r\n    oraclize.__deleteTokenSymbolOfProposal();\r\n    delete proposals;\r\n    delete numProposals;\r\n\r\n    // Updated the time when the cycle started\r\n    CycleStarted(cycleNumber, now);\r\n  }\r\n\r\n  // *******\r\n  // Reset functions\r\n  // *******\r\n  function __resetMemberData(address _addr) internal {\r\n    delete createdProposalCount[_addr];\r\n\r\n    // Remove the associated corresponding control staked for/against for each proposal\r\n    for (uint256 i = 0; i < proposals.length; i = i.add(1)) {\r\n      delete forStakedControlOfProposalOfUser[i][_addr];\r\n      delete againstStakedControlOfProposalOfUser[i][_addr];\r\n    }\r\n  }\r\n\r\n  function __resetProposalData(uint256 _proposalId) internal {\r\n    delete isTokenAlreadyProposed[proposals[_proposalId].tokenAddress];\r\n    delete forStakedControlOfProposal[_proposalId];\r\n  }\r\n\r\n  // *******\r\n  // Change making time functions\r\n  // *******\r\n\r\n  // Deposit into GroupFund\r\n  function deposit()\r\n    public\r\n    payable\r\n    during(CyclePhase.ChangeMaking)\r\n  {\r\n    // If caller is not a participant, add them onto the participants list\r\n    if (!isParticipant[msg.sender]) {\r\n      participants.push(msg.sender);\r\n      isParticipant[msg.sender] = true;\r\n    }\r\n\r\n    //Register investment\r\n    uint256 fees = msg.value.mul(oraclizeFeeProportion).div(tenToDecimals);\r\n    balanceOf[msg.sender] = balanceOf[msg.sender].add(msg.value).sub(fees);\r\n    totalFundsInWeis = totalFundsInWeis.add(msg.value).sub(fees);\r\n    oraclizeAddr.transfer(fees);\r\n\r\n    if (isFirstCycle) {\r\n      //Give control tokens proportional to investment\r\n      cToken.mint(msg.sender, msg.value);\r\n    }\r\n\r\n    Deposit(cycleNumber, msg.sender, msg.value, now);\r\n  }\r\n\r\n  // Withdraw from GroupFund\r\n  function withdraw(uint256 _amountInWeis)\r\n    public\r\n    during(CyclePhase.ChangeMaking)\r\n    onlyParticipant\r\n  {\r\n    require(!isFirstCycle);\r\n\r\n    totalFundsInWeis = totalFundsInWeis.sub(_amountInWeis);\r\n    balanceOf[msg.sender] = balanceOf[msg.sender].sub(_amountInWeis);\r\n\r\n    msg.sender.transfer(_amountInWeis);\r\n\r\n    Withdraw(cycleNumber, msg.sender, _amountInWeis, now);\r\n  }\r\n\r\n  // End the change making time phase\r\n  function endChangeMakingTime() public during(CyclePhase.ChangeMaking) {\r\n    require(now >= startTimeOfCycle.add(timeOfChangeMaking));\r\n\r\n    cyclePhase = CyclePhase.ProposalMaking;\r\n\r\n    ChangeMakingTimeEnded(cycleNumber, now);\r\n  }\r\n\r\n  //Proposal making time functions\r\n  function createProposal(\r\n    address _tokenAddress,\r\n    string _tokenSymbol,\r\n    uint256 _tokenDecimals,\r\n    uint256 _stakeInWeis\r\n  )\r\n    public\r\n    during(CyclePhase.ProposalMaking)\r\n    onlyParticipant\r\n  {\r\n    require(numProposals < maxProposals);\r\n    require(!isTokenAlreadyProposed[_tokenAddress]);\r\n    require(createdProposalCount[msg.sender] < maxProposalsPerMember);\r\n\r\n    proposals.push(Proposal({\r\n      tokenAddress: _tokenAddress,\r\n      tokenSymbol: _tokenSymbol,\r\n      tokenDecimals: _tokenDecimals,\r\n      buyPriceInWeis: 0,\r\n      sellPriceInWeis: 0,\r\n      numFor: 0,\r\n      numAgainst: 0,\r\n      buyOrderExpirationBlockNum: 0,\r\n      sellOrderExpirationBlockNum: 0\r\n    }));\r\n\r\n    isTokenAlreadyProposed[_tokenAddress] = true;\r\n    oraclize.__pushTokenSymbolOfProposal(_tokenSymbol);\r\n    createdProposalCount[msg.sender] = createdProposalCount[msg.sender].add(1);\r\n    numProposals = numProposals.add(1);\r\n\r\n    //Stake control tokens\r\n    uint256 proposalId = proposals.length - 1;\r\n    supportProposal(proposalId, _stakeInWeis);\r\n\r\n    NewProposal(cycleNumber, proposalId, _tokenAddress, _tokenSymbol, _stakeInWeis);\r\n  }\r\n\r\n  function supportProposal(uint256 _proposalId, uint256 _stakeInWeis)\r\n    public\r\n    during(CyclePhase.ProposalMaking)\r\n    onlyParticipant\r\n  {\r\n    require(_proposalId < proposals.length);\r\n    require(isTokenAlreadyProposed[proposals[_proposalId].tokenAddress]); //Non-empty proposal\r\n\r\n    //Stake control tokens\r\n\r\n    //Ensure stake is larger than the minimum proportion of Kairo balance\r\n    require(_stakeInWeis.mul(tenToDecimals).div(cToken.balanceOf(msg.sender)) >= minStakeProportion);\r\n    //Collect staked control tokens\r\n    cToken.ownerCollectFrom(msg.sender, _stakeInWeis);\r\n    //Update stake data\r\n    if (forStakedControlOfProposalOfUser[_proposalId][msg.sender] == 0) {\r\n      proposals[_proposalId].numFor = proposals[_proposalId].numFor.add(1);\r\n    }\r\n    forStakedControlOfProposal[_proposalId] = forStakedControlOfProposal[_proposalId].add(_stakeInWeis);\r\n    forStakedControlOfProposalOfUser[_proposalId][msg.sender] = forStakedControlOfProposalOfUser[_proposalId][msg.sender].add(_stakeInWeis);\r\n\r\n    SupportedProposal(cycleNumber, _proposalId, _stakeInWeis);\r\n  }\r\n\r\n  function cancelProposalSupport(uint256 _proposalId)\r\n    public\r\n    during(CyclePhase.ProposalMaking)\r\n    onlyParticipant\r\n  {\r\n    require(_proposalId < proposals.length);\r\n    require(proposals[_proposalId].numFor > 0); //Non-empty proposal\r\n\r\n    //Remove stake\r\n    uint256 stake = forStakedControlOfProposalOfUser[_proposalId][msg.sender];\r\n    delete forStakedControlOfProposalOfUser[_proposalId][msg.sender];\r\n    forStakedControlOfProposal[_proposalId] = forStakedControlOfProposal[_proposalId].sub(stake);\r\n\r\n    //Remove support\r\n    proposals[_proposalId].numFor = proposals[_proposalId].numFor.sub(1);\r\n\r\n    //Return stake\r\n    cToken.transfer(msg.sender, stake);\r\n\r\n    //Delete proposal if necessary\r\n    if (forStakedControlOfProposal[_proposalId] == 0) {\r\n      __resetProposalData(_proposalId);\r\n      numProposals = numProposals.sub(1);\r\n      delete proposals[_proposalId];\r\n    }\r\n  }\r\n\r\n  function endProposalMakingTime()\r\n    public\r\n    during(CyclePhase.ProposalMaking)\r\n  {\r\n    require(now >= startTimeOfCycle.add(timeOfChangeMaking).add(timeOfProposalMaking));\r\n\r\n    cyclePhase = CyclePhase.Waiting;\r\n\r\n    __stakeAgainstVotes();\r\n    __makeInvestments();\r\n\r\n    ProposalMakingTimeEnded(cycleNumber, now);\r\n  }\r\n\r\n  function __stakeAgainstVotes() internal {\r\n    //Stake against votes\r\n    for (uint256 i = 0; i < proposals.length; i = i.add(1)) {\r\n      if (proposals[i].numFor > 0) { //Ensure proposal isn't a deleted one\r\n        //Calculate total Kairo balance of users against the proposal\r\n        uint256 againstTotalBalance = 0;\r\n        for (uint256 j = 0; j < participants.length; j = j.add(1)) {\r\n          bool isFor = forStakedControlOfProposalOfUser[i][participants[j]] != 0;\r\n          if (!isFor) {\r\n            againstTotalBalance = againstTotalBalance.add(cToken.balanceOf(participants[j]));\r\n          }\r\n        }\r\n        //Calculate the proportion of Kairo each user against the proposal have to stake\r\n        uint256 stakeProportion = tenToDecimals;\r\n        if (forStakedControlOfProposal[i] < againstTotalBalance) {\r\n          stakeProportion = forStakedControlOfProposal[i].mul(tenToDecimals).div(againstTotalBalance);\r\n        } else {\r\n          //Mint new Kairo to fill the gap\r\n          uint256 mintAmount = forStakedControlOfProposal[i] - againstTotalBalance;\r\n          if (mintAmount > 0) {\r\n            cToken.mint(address(this), mintAmount);\r\n          }\r\n        }\r\n        //Collect stakes\r\n        for (j = 0; j < participants.length; j = j.add(1)) {\r\n          address participant = participants[j];\r\n          isFor = forStakedControlOfProposalOfUser[i][participant] != 0;\r\n          uint256 userBalance = cToken.balanceOf(participant);\r\n          if (!isFor && userBalance > 0) {\r\n            uint256 stake = stakeProportion.mul(userBalance).div(tenToDecimals);\r\n            cToken.ownerCollectFrom(participant, stake);\r\n            proposals[i].numAgainst = proposals[i].numAgainst.add(1);\r\n            againstStakedControlOfProposalOfUser[i][participant] = againstStakedControlOfProposalOfUser[i][participant].add(stake);\r\n          }\r\n        }\r\n      }\r\n    }\r\n  }\r\n\r\n  function __makeInvestments() internal {\r\n    //Invest in tokens using etherdelta\r\n    for (uint256 i = 0; i < proposals.length; i = i.add(1)) {\r\n      if (proposals[i].numFor > 0) { //Ensure proposal isn't a deleted one\r\n        //Deposit ether\r\n        uint256 investAmount = totalFundsInWeis.mul(forStakedControlOfProposal[i]).div(cToken.totalSupply());\r\n        etherDelta.deposit.value(investAmount)();\r\n        oraclize.__grabCurrentPriceFromOraclize(i);\r\n      }\r\n    }\r\n  }\r\n\r\n  function endCycle() public during(CyclePhase.Waiting) {\r\n    require(now >= startTimeOfCycle.add(timeOfCycle));\r\n\r\n    cyclePhase = CyclePhase.Ended;\r\n    isFirstCycle = false;\r\n\r\n    //Sell all invested tokens\r\n    for (uint256 i = 0; i < proposals.length; i = i.add(1)) {\r\n      if (proposals[i].numFor > 0) {\r\n        //Ensure proposal isn't a deleted one\r\n        oraclize.__grabCurrentPriceFromOraclize(i);\r\n      }\r\n    }\r\n\r\n    CycleEnded(cycleNumber, now);\r\n  }\r\n\r\n  function finalizeEndCycle() public during(CyclePhase.Ended) {\r\n    cyclePhase = CyclePhase.Finalized;\r\n\r\n    //Ensure all the sell orders are inactive\r\n    for (uint256 proposalId = 0; proposalId < proposals.length; proposalId = proposalId.add(1)) {\r\n      if (proposals[proposalId].numFor > 0) {\r\n        //Ensure proposal isn't a deleted one\r\n        require(__sellOrderFinished(proposalId));\r\n        __settleBets(proposalId);\r\n      }\r\n    }\r\n    //Withdraw from etherdelta\r\n    uint256 balance = etherDelta.tokens(address(0), address(this));\r\n    etherDelta.withdraw(balance);\r\n\r\n    //Get all remaining funds from OraclizeHandler\r\n    oraclize.__returnAllFunds();\r\n\r\n    __distributeFundsAfterCycleEnd();\r\n\r\n    CycleFinalized(cycleNumber, now);\r\n  }\r\n\r\n  //Internal use functions\r\n\r\n  function __sellOrderFinished(uint256 _proposalId) internal returns(bool) {\r\n    Proposal storage prop = proposals[_proposalId];\r\n    uint256 sellTokenAmount = etherDelta.tokens(prop.tokenAddress, address(this));\r\n    uint256 getWeiAmount = sellTokenAmount.mul(prop.sellPriceInWeis).div(10**prop.tokenDecimals);\r\n    uint256 amountFilled = etherDelta.amountFilled(address(0), getWeiAmount, prop.tokenAddress, sellTokenAmount, prop.sellOrderExpirationBlockNum, _proposalId, address(this), 0, 0, 0);\r\n\r\n    return amountFilled >= sellTokenAmount || block.number > prop.sellOrderExpirationBlockNum;\r\n  }\r\n\r\n  //Seperated from finalizeEndCycle() to avoid StackTooDeep error\r\n  function __settleBets(uint256 _proposalId) internal {\r\n    //Settle bets\r\n    Proposal storage prop = proposals[_proposalId];\r\n    uint256 stake;\r\n    uint256 j;\r\n    address participant;\r\n    uint256 investAmount = totalFundsInWeis.mul(forStakedControlOfProposal[_proposalId]).div(cToken.totalSupply());\r\n    if (etherDelta.amountFilled(prop.tokenAddress, investAmount.mul(10**prop.tokenDecimals).div(prop.buyPriceInWeis), address(0), investAmount, prop.sellOrderExpirationBlockNum, _proposalId, address(this), 0, 0, 0) != 0) {\r\n      if (prop.sellPriceInWeis > prop.buyPriceInWeis) {\r\n        //For wins\r\n        for (j = 0; j < participants.length; j = j.add(1)) {\r\n          participant = participants[j];\r\n          stake = forStakedControlOfProposalOfUser[_proposalId][participant];\r\n        if (stake > 0) {\r\n            //Give control tokens\r\n            cToken.transfer(participant, stake.mul(2));\r\n            //Won bet\r\n            PredictionResult(cycleNumber, participant, true);\r\n          } else {\r\n            if (againstStakedControlOfProposalOfUser[_proposalId][participant] > 0) {\r\n              //Lost bet\r\n              PredictionResult(cycleNumber, participant, false);\r\n            }\r\n          }\r\n        }\r\n      } else {\r\n        //Against wins\r\n        if (prop.numAgainst > 0) {\r\n          for (j = 0; j < participants.length; j = j.add(1)) {\r\n            participant = participants[j];\r\n            stake = againstStakedControlOfProposalOfUser[_proposalId][participant];\r\n            if (stake > 0) {\r\n              //Give control tokens\r\n              cToken.transfer(participant, stake.mul(2));\r\n              //Won bet\r\n              PredictionResult(cycleNumber, participant, true);\r\n            } else {\r\n              if (forStakedControlOfProposalOfUser[_proposalId][participant] > 0) {\r\n                //Lost bet\r\n                PredictionResult(cycleNumber, participant, false);\r\n              }\r\n            }\r\n          }\r\n        } else {\r\n          //Everyone f'ed up somehow. No point in punishing. Return stakes.\r\n          __returnStakes(_proposalId);\r\n        }\r\n      }\r\n    } else {\r\n      //Buy order failed completely. Give back stakes.\r\n      __returnStakes(_proposalId);\r\n    }\r\n    //Burn any Kairo left in GroupFund's account\r\n    cToken.burnOwnerBalance();\r\n  }\r\n\r\n  function __returnStakes(uint256 proposalId) internal {\r\n    for (uint256 j = 0; j < participants.length; j = j.add(1)) {\r\n      address participant = participants[j];\r\n      uint256 stake = forStakedControlOfProposalOfUser[proposalId][participant].add(againstStakedControlOfProposalOfUser[proposalId][participant]);\r\n      if (stake != 0) {\r\n        cToken.transfer(participant, stake);\r\n      }\r\n    }\r\n  }\r\n\r\n  //Seperated from finalizeEndCycle() to avoid StackTooDeep error\r\n  function __distributeFundsAfterCycleEnd() internal {\r\n    //Distribute funds\r\n    uint256 totalCommission = commissionRate.mul(this.balance).div(tenToDecimals);\r\n    uint256 devFee = developerFeeProportion.mul(this.balance).div(tenToDecimals);\r\n    uint256 newTotalRegularFunds = this.balance.sub(totalCommission).sub(devFee);\r\n\r\n    for (uint256 i = 0; i < participants.length; i = i.add(1)) {\r\n      address participant = participants[i];\r\n      uint256 newBalance = 0;\r\n      //Add share\r\n      if (totalFundsInWeis > 0) {\r\n        newBalance = newBalance.add(newTotalRegularFunds.mul(balanceOf[participant]).div(totalFundsInWeis));\r\n      }\r\n      //Add commission\r\n      //Adding a check for nonzero Kairo supply here makes Truffle go apeshit. Edge case anyways, so whatevs.\r\n      newBalance = newBalance.add(totalCommission.mul(cToken.balanceOf(participant)).div(cToken.totalSupply()));\r\n      //Update balance\r\n      balanceOf[participant] = newBalance;\r\n    }\r\n\r\n    uint256 newTotalFunds = newTotalRegularFunds.add(totalCommission);\r\n    ROI(cycleNumber, totalFundsInWeis, newTotalFunds);\r\n    totalFundsInWeis = newTotalFunds;\r\n\r\n    developerFeeAccount.transfer(devFee);\r\n\r\n    CommissionPaid(cycleNumber, totalCommission);\r\n  }\r\n\r\n  function __addControlTokenReceipientAsParticipant(address _receipient) public {\r\n    require(msg.sender == controlTokenAddr);\r\n    isParticipant[_receipient] = true;\r\n    participants.push(_receipient);\r\n  }\r\n\r\n  function __makeOrder(address _tokenGet, uint _amountGet, address _tokenGive, uint _amountGive, uint _expires, uint _nonce) public onlyOraclize {\r\n    etherDelta.order(_tokenGet, _amountGet, _tokenGive, _amountGive, _expires, _nonce);\r\n  }\r\n\r\n  function __setBuyPriceAndExpirationBlock(uint256 _proposalId, uint256 _buyPrice, uint256 _expires) public onlyOraclize {\r\n    proposals[_proposalId].buyPriceInWeis = _buyPrice;\r\n    proposals[_proposalId].buyOrderExpirationBlockNum = _expires;\r\n  }\r\n\r\n  function __setSellPriceAndExpirationBlock(uint256 _proposalId, uint256 _sellPrice, uint256 _expires) public onlyOraclize {\r\n    proposals[_proposalId].sellPriceInWeis = _sellPrice;\r\n    proposals[_proposalId].sellOrderExpirationBlockNum = _expires;\r\n  }\r\n\r\n  function() public payable {\r\n    if (msg.sender != etherDeltaAddr && msg.sender != oraclizeAddr) {\r\n      revert();\r\n    }\r\n  }\r\n}\r\n\r\ncontract OraclizeHandler is usingOraclize, Ownable {\r\n  using SafeMath for uint256;\r\n\r\n  enum CyclePhase { ChangeMaking, ProposalMaking, Waiting, Ended, Finalized }\r\n\r\n  // URL for querying prices, default is set to cryptocompare\r\n  // Later on, modify this to be more flexible for additional queries, etc.\r\n  string public priceCheckURL1;\r\n  string public priceCheckURL2;\r\n  string public priceCheckURL3;\r\n\r\n  address public controlTokenAddr;\r\n  address public etherDeltaAddr;\r\n\r\n  mapping(bytes32 => uint256) public proposalIdOfQuery;\r\n\r\n  GroupFund internal groupFund;\r\n  ControlToken internal cToken;\r\n  EtherDelta internal etherDelta;\r\n\r\n  string[] public tokenSymbolOfProposal;\r\n\r\n  function OraclizeHandler(address _controlTokenAddr, address _etherDeltaAddr) public {\r\n    controlTokenAddr = _controlTokenAddr;\r\n    etherDeltaAddr = _etherDeltaAddr;\r\n    cToken = ControlToken(_controlTokenAddr);\r\n    etherDelta = EtherDelta(_etherDeltaAddr);\r\n    // Initialize cryptocompare URLs:\r\n    priceCheckURL1 = \"json(https://min-api.cryptocompare.com/data/price?fsym=\";\r\n    priceCheckURL2 = \"&tsyms=\";\r\n    priceCheckURL3 = \").ETH\";\r\n  }\r\n\r\n  function __changeEtherDeltaAddress(address _newAddr) public onlyOwner {\r\n    etherDeltaAddr = _newAddr;\r\n    etherDelta = EtherDelta(_newAddr);\r\n  }\r\n\r\n  function __pushTokenSymbolOfProposal(string _tokenSymbol) public onlyOwner {\r\n    tokenSymbolOfProposal.push(_tokenSymbol);\r\n  }\r\n\r\n  function __deleteTokenSymbolOfProposal() public onlyOwner {\r\n    delete tokenSymbolOfProposal;\r\n  }\r\n\r\n  function __returnAllFunds() public onlyOwner {\r\n    owner.transfer(this.balance);\r\n  }\r\n\r\n  // *******\r\n  //Oraclize functions\r\n  // *******\r\n\r\n  // Query Oraclize for the current price\r\n  function __grabCurrentPriceFromOraclize(uint _proposalId) public payable onlyOwner {\r\n    require(oraclize_getPrice(\"URL\") <= this.balance);\r\n\r\n    groupFund = GroupFund(owner);\r\n\r\n    string storage tokenSymbol = tokenSymbolOfProposal[_proposalId];\r\n\r\n    // Grab the cryptocompare URL that is the price in ETH of the token to purchase\r\n    string memory etherSymbol = \"ETH\";\r\n    string memory urlToQuery = strConcat(priceCheckURL1, tokenSymbol, priceCheckURL2, etherSymbol, priceCheckURL3);\r\n\r\n    // Call Oraclize to grab the most recent price information via JSON\r\n    proposalIdOfQuery[oraclize_query(\"URL\", urlToQuery)] = _proposalId;\r\n  }\r\n\r\n  // Callback function from Oraclize query:\r\n  function __callback(bytes32 _myID, string _result) public {\r\n    require(msg.sender == oraclize_cbAddress());\r\n\r\n    // Require the callback response to be non-empty:\r\n    require(keccak256(_result) != keccak256(\"\"));\r\n\r\n    groupFund = GroupFund(owner);\r\n\r\n    // Grab ETH price in Weis\r\n    uint256 priceInWeis = parseInt(_result, 18);\r\n\r\n    uint256 proposalId = proposalIdOfQuery[_myID];\r\n    var (tokenAddress,_,decimals,) = groupFund.proposals(proposalId);\r\n\r\n    //Reset data\r\n    delete proposalIdOfQuery[_myID];\r\n\r\n    uint256 investAmount = groupFund.totalFundsInWeis().mul(groupFund.forStakedControlOfProposal(proposalId)).div(cToken.totalSupply());\r\n    uint256 expires = block.number.add(groupFund.orderExpirationTimeInBlocks());\r\n    if (uint(groupFund.cyclePhase()) == uint(CyclePhase.Waiting)) {\r\n      //Buy\r\n      groupFund.__setBuyPriceAndExpirationBlock(proposalId, priceInWeis, expires);\r\n\r\n      uint256 buyTokenAmount = investAmount.mul(10**decimals).div(priceInWeis);\r\n      groupFund.__makeOrder(tokenAddress, buyTokenAmount, address(0), investAmount, expires, proposalId);\r\n    } else if (uint(groupFund.cyclePhase()) == uint(CyclePhase.Ended)) {\r\n      //Sell\r\n      groupFund.__setSellPriceAndExpirationBlock(proposalId, priceInWeis, expires);\r\n\r\n      uint256 sellTokenAmount = etherDelta.tokens(tokenAddress, owner);\r\n      uint256 getWeiAmount = sellTokenAmount.mul(priceInWeis).div(10**decimals);\r\n      groupFund.__makeOrder(address(0), getWeiAmount, tokenAddress, sellTokenAmount, expires, proposalId);\r\n    }\r\n  }\r\n\r\n  function() public payable {\r\n    if (msg.sender != owner) {\r\n      revert();\r\n    }\r\n  }\r\n}\r\n\r\n//Proportional to Wei when minted\r\ncontract ControlToken is MintableToken {\r\n  using SafeMath for uint256;\r\n\r\n  string public constant name = \"Kairo\";\r\n  string public constant symbol = \"KRO\";\r\n  uint8 public constant decimals = 18;\r\n\r\n  event OwnerCollectFrom(address _from, uint256 _value);\r\n\r\n  function transfer(address _to, uint256 _value) public returns(bool) {\r\n    require(_to != address(0));\r\n    require(_value <= balances[msg.sender]);\r\n\r\n    //Add receipient as a participant if not already a participant\r\n    addParticipant(_to);\r\n\r\n    // SafeMath.sub will throw if there is not enough balance.\r\n    balances[msg.sender] = balances[msg.sender].sub(_value);\r\n    balances[_to] = balances[_to].add(_value);\r\n    Transfer(msg.sender, _to, _value);\r\n    return true;\r\n  }\r\n\r\n  function transferFrom(address _from, address _to, uint256 _value) public returns (bool) {\r\n    require(_to != address(0));\r\n    require(_value <= balances[_from]);\r\n    require(_value <= allowed[_from][msg.sender]);\r\n\r\n    //Add receipient as a participant if not already a participant\r\n    addParticipant(_to);\r\n\r\n    balances[_from] = balances[_from].sub(_value);\r\n    balances[_to] = balances[_to].add(_value);\r\n    allowed[_from][msg.sender] = allowed[_from][msg.sender].sub(_value);\r\n    Transfer(_from, _to, _value);\r\n    return true;\r\n  }\r\n\r\n  function ownerCollectFrom(address _from, uint256 _value) public onlyOwner returns(bool) {\r\n    require(_from != address(0));\r\n    require(_value <= balances[_from]);\r\n\r\n    // SafeMath.sub will throw if there is not enough balance.\r\n    balances[_from] = balances[_from].sub(_value);\r\n    balances[msg.sender] = balances[msg.sender].add(_value);\r\n    OwnerCollectFrom(_from, _value);\r\n    return true;\r\n  }\r\n\r\n  function addParticipant(address _to) internal {\r\n    GroupFund groupFund = GroupFund(owner);\r\n    if (!groupFund.isParticipant(_to)) {\r\n      groupFund.__addControlTokenReceipientAsParticipant(_to);\r\n    }\r\n  }\r\n\r\n  function burnOwnerBalance() public onlyOwner {\r\n    balances[owner] = 0;\r\n  }\r\n\r\n  function() public {\r\n    revert();\r\n  }\r\n}\r\n",
  "sourcePath": "D:\\msi-cn\\Documents\\GitHub\\betoken\\eth\\contracts\\betoken.sol",
  "compiler": {
    "name": "solc",
    "version": "0.4.18+commit.9cf6e910.Emscripten.clang"
  },
  "schemaVersion": "1.0.1",
  "updatedAt": "2018-01-20T08:10:26.397Z"
}