{
  "contractName": "GroupFund",
  "abi": [
    {
      "constant": true,
      "inputs": [
        {
          "name": "",
          "type": "uint256"
        }
      ],
      "name": "proposals",
      "outputs": [
        {
          "name": "tokenAddress",
          "type": "address"
        },
        {
          "name": "tokenSymbol",
          "type": "string"
        },
        {
          "name": "buyPriceInWeis",
          "type": "uint256"
        },
        {
          "name": "sellPriceInWeis",
          "type": "uint256"
        },
        {
          "name": "buyOrderExpirationBlockNum",
          "type": "uint256"
        },
        {
          "name": "sellOrderExpirationBlockNum",
          "type": "uint256"
        },
        {
          "name": "numFor",
          "type": "uint256"
        },
        {
          "name": "numAgainst",
          "type": "uint256"
        }
      ],
      "payable": false,
      "stateMutability": "view",
      "type": "function"
    },
    {
      "constant": false,
      "inputs": [],
      "name": "endCycle",
      "outputs": [],
      "payable": false,
      "stateMutability": "nonpayable",
      "type": "function"
    },
    {
      "constant": false,
      "inputs": [
        {
          "name": "_queryId",
          "type": "bytes32"
        },
        {
          "name": "_proposalId",
          "type": "uint256"
        }
      ],
      "name": "__setProposalIdOfQuery",
      "outputs": [],
      "payable": false,
      "stateMutability": "nonpayable",
      "type": "function"
    },
    {
      "constant": true,
      "inputs": [
        {
          "name": "",
          "type": "uint256"
        },
        {
          "name": "",
          "type": "address"
        }
      ],
      "name": "forStakedControlOfProposalOfUser",
      "outputs": [
        {
          "name": "",
          "type": "uint256"
        }
      ],
      "payable": false,
      "stateMutability": "view",
      "type": "function"
    },
    {
      "constant": true,
      "inputs": [],
      "name": "isFirstCycle",
      "outputs": [
        {
          "name": "",
          "type": "bool"
        }
      ],
      "payable": false,
      "stateMutability": "view",
      "type": "function"
    },
    {
      "constant": true,
      "inputs": [
        {
          "name": "",
          "type": "bytes32"
        }
      ],
      "name": "proposalIdOfQuery",
      "outputs": [
        {
          "name": "",
          "type": "uint256"
        }
      ],
      "payable": false,
      "stateMutability": "view",
      "type": "function"
    },
    {
      "constant": true,
      "inputs": [],
      "name": "timeOfChangeMaking",
      "outputs": [
        {
          "name": "",
          "type": "uint256"
        }
      ],
      "payable": false,
      "stateMutability": "view",
      "type": "function"
    },
    {
      "constant": false,
      "inputs": [
        {
          "name": "_amountInWeis",
          "type": "uint256"
        }
      ],
      "name": "withdraw",
      "outputs": [],
      "payable": false,
      "stateMutability": "nonpayable",
      "type": "function"
    },
    {
      "constant": true,
      "inputs": [
        {
          "name": "",
          "type": "uint256"
        },
        {
          "name": "",
          "type": "address"
        }
      ],
      "name": "againstStakedControlOfProposalOfUser",
      "outputs": [
        {
          "name": "",
          "type": "uint256"
        }
      ],
      "payable": false,
      "stateMutability": "view",
      "type": "function"
    },
    {
      "constant": true,
      "inputs": [],
      "name": "maxProposals",
      "outputs": [
        {
          "name": "",
          "type": "uint256"
        }
      ],
      "payable": false,
      "stateMutability": "view",
      "type": "function"
    },
    {
      "constant": false,
      "inputs": [
        {
          "name": "_queryId",
          "type": "bytes32"
        }
      ],
      "name": "__deleteProposalIdOfQuery",
      "outputs": [],
      "payable": false,
      "stateMutability": "nonpayable",
      "type": "function"
    },
    {
      "constant": true,
      "inputs": [],
      "name": "decimals",
      "outputs": [
        {
          "name": "",
          "type": "uint256"
        }
      ],
      "payable": false,
      "stateMutability": "view",
      "type": "function"
    },
    {
      "constant": true,
      "inputs": [
        {
          "name": "",
          "type": "uint256"
        }
      ],
      "name": "participants",
      "outputs": [
        {
          "name": "",
          "type": "address"
        }
      ],
      "payable": false,
      "stateMutability": "view",
      "type": "function"
    },
    {
      "constant": true,
      "inputs": [],
      "name": "commissionRate",
      "outputs": [
        {
          "name": "",
          "type": "uint256"
        }
      ],
      "payable": false,
      "stateMutability": "view",
      "type": "function"
    },
    {
      "constant": true,
      "inputs": [
        {
          "name": "",
          "type": "address"
        }
      ],
      "name": "balanceOf",
      "outputs": [
        {
          "name": "",
          "type": "uint256"
        }
      ],
      "payable": false,
      "stateMutability": "view",
      "type": "function"
    },
    {
      "constant": false,
      "inputs": [
        {
          "name": "_proposalId",
          "type": "uint256"
        },
        {
          "name": "_amountInWeis",
          "type": "uint256"
        }
      ],
      "name": "supportProposal",
      "outputs": [],
      "payable": false,
      "stateMutability": "nonpayable",
      "type": "function"
    },
    {
      "constant": true,
      "inputs": [],
      "name": "totalFundsInWeis",
      "outputs": [
        {
          "name": "",
          "type": "uint256"
        }
      ],
      "payable": false,
      "stateMutability": "view",
      "type": "function"
    },
    {
      "constant": false,
      "inputs": [],
      "name": "startNewCycle",
      "outputs": [],
      "payable": false,
      "stateMutability": "nonpayable",
      "type": "function"
    },
    {
      "constant": true,
      "inputs": [],
      "name": "timeOfCycle",
      "outputs": [
        {
          "name": "",
          "type": "uint256"
        }
      ],
      "payable": false,
      "stateMutability": "view",
      "type": "function"
    },
    {
      "constant": true,
      "inputs": [],
      "name": "orderExpirationTimeInBlocks",
      "outputs": [
        {
          "name": "",
          "type": "uint256"
        }
      ],
      "payable": false,
      "stateMutability": "view",
      "type": "function"
    },
    {
      "constant": false,
      "inputs": [
        {
          "name": "_receipient",
          "type": "address"
        }
      ],
      "name": "addControlTokenReceipientAsParticipant",
      "outputs": [],
      "payable": false,
      "stateMutability": "nonpayable",
      "type": "function"
    },
    {
      "constant": false,
      "inputs": [],
      "name": "finalizeEndCycle",
      "outputs": [],
      "payable": false,
      "stateMutability": "nonpayable",
      "type": "function"
    },
    {
      "constant": false,
      "inputs": [],
      "name": "endProposalMakingTime",
      "outputs": [],
      "payable": false,
      "stateMutability": "nonpayable",
      "type": "function"
    },
    {
      "constant": true,
      "inputs": [
        {
          "name": "",
          "type": "address"
        }
      ],
      "name": "isParticipant",
      "outputs": [
        {
          "name": "",
          "type": "bool"
        }
      ],
      "payable": false,
      "stateMutability": "view",
      "type": "function"
    },
    {
      "constant": true,
      "inputs": [],
      "name": "startTimeOfCycle",
      "outputs": [
        {
          "name": "",
          "type": "uint256"
        }
      ],
      "payable": false,
      "stateMutability": "view",
      "type": "function"
    },
    {
      "constant": true,
      "inputs": [],
      "name": "etherDeltaAddr",
      "outputs": [
        {
          "name": "",
          "type": "address"
        }
      ],
      "payable": false,
      "stateMutability": "view",
      "type": "function"
    },
    {
      "constant": false,
      "inputs": [
        {
          "name": "_tokenAddress",
          "type": "address"
        },
        {
          "name": "_tokenSymbol",
          "type": "string"
        },
        {
          "name": "_amountInWeis",
          "type": "uint256"
        }
      ],
      "name": "createProposal",
      "outputs": [],
      "payable": false,
      "stateMutability": "nonpayable",
      "type": "function"
    },
    {
      "constant": true,
      "inputs": [],
      "name": "oraclizeAddr",
      "outputs": [
        {
          "name": "",
          "type": "address"
        }
      ],
      "payable": false,
      "stateMutability": "view",
      "type": "function"
    },
    {
      "constant": false,
      "inputs": [
        {
          "name": "_proposalId",
          "type": "uint256"
        },
        {
          "name": "_buyPrice",
          "type": "uint256"
        },
        {
          "name": "_expires",
          "type": "uint256"
        }
      ],
      "name": "__setBuyPriceAndExpirationBlock",
      "outputs": [],
      "payable": false,
      "stateMutability": "nonpayable",
      "type": "function"
    },
    {
      "constant": true,
      "inputs": [],
      "name": "oraclizeFeeProportion",
      "outputs": [
        {
          "name": "",
          "type": "uint256"
        }
      ],
      "payable": false,
      "stateMutability": "view",
      "type": "function"
    },
    {
      "constant": true,
      "inputs": [
        {
          "name": "",
          "type": "uint256"
        }
      ],
      "name": "forStakedControlOfProposal",
      "outputs": [
        {
          "name": "",
          "type": "uint256"
        }
      ],
      "payable": false,
      "stateMutability": "view",
      "type": "function"
    },
    {
      "constant": false,
      "inputs": [],
      "name": "endChangeMakingTime",
      "outputs": [],
      "payable": false,
      "stateMutability": "nonpayable",
      "type": "function"
    },
    {
      "constant": false,
      "inputs": [
        {
          "name": "_proposalId",
          "type": "uint256"
        },
        {
          "name": "_sellPrice",
          "type": "uint256"
        },
        {
          "name": "_expires",
          "type": "uint256"
        }
      ],
      "name": "__setSellPriceAndExpirationBlock",
      "outputs": [],
      "payable": false,
      "stateMutability": "nonpayable",
      "type": "function"
    },
    {
      "constant": false,
      "inputs": [],
      "name": "deposit",
      "outputs": [],
      "payable": true,
      "stateMutability": "payable",
      "type": "function"
    },
    {
      "constant": true,
      "inputs": [],
      "name": "againstStakeProportion",
      "outputs": [
        {
          "name": "",
          "type": "uint256"
        }
      ],
      "payable": false,
      "stateMutability": "view",
      "type": "function"
    },
    {
      "constant": true,
      "inputs": [],
      "name": "timeOfProposalMaking",
      "outputs": [
        {
          "name": "",
          "type": "uint256"
        }
      ],
      "payable": false,
      "stateMutability": "view",
      "type": "function"
    },
    {
      "constant": true,
      "inputs": [],
      "name": "controlTokenAddr",
      "outputs": [
        {
          "name": "",
          "type": "address"
        }
      ],
      "payable": false,
      "stateMutability": "view",
      "type": "function"
    },
    {
      "constant": false,
      "inputs": [
        {
          "name": "_tokenGet",
          "type": "address"
        },
        {
          "name": "_amountGet",
          "type": "uint256"
        },
        {
          "name": "_tokenGive",
          "type": "address"
        },
        {
          "name": "_amountGive",
          "type": "uint256"
        },
        {
          "name": "_expires",
          "type": "uint256"
        },
        {
          "name": "_nonce",
          "type": "uint256"
        }
      ],
      "name": "__makeOrder",
      "outputs": [],
      "payable": false,
      "stateMutability": "nonpayable",
      "type": "function"
    },
    {
      "constant": true,
      "inputs": [],
      "name": "cyclePhase",
      "outputs": [
        {
          "name": "",
          "type": "uint8"
        }
      ],
      "payable": false,
      "stateMutability": "view",
      "type": "function"
    },
    {
      "inputs": [
        {
          "name": "_etherDeltaAddr",
          "type": "address"
        },
        {
          "name": "_decimals",
          "type": "uint256"
        },
        {
          "name": "_timeOfCycle",
          "type": "uint256"
        },
        {
          "name": "_timeOfChangeMaking",
          "type": "uint256"
        },
        {
          "name": "_timeOfProposalMaking",
          "type": "uint256"
        },
        {
          "name": "_againstStakeProportion",
          "type": "uint256"
        },
        {
          "name": "_maxProposals",
          "type": "uint256"
        },
        {
          "name": "_commissionRate",
          "type": "uint256"
        },
        {
          "name": "_orderExpirationTimeInBlocks",
          "type": "uint256"
        },
        {
          "name": "_oraclizeFeeProportion",
          "type": "uint256"
        }
      ],
      "payable": false,
      "stateMutability": "nonpayable",
      "type": "constructor"
    },
    {
      "payable": false,
      "stateMutability": "nonpayable",
      "type": "fallback"
    },
    {
      "anonymous": false,
      "inputs": [
        {
          "indexed": false,
          "name": "timestamp",
          "type": "uint256"
        }
      ],
      "name": "CycleStarted",
      "type": "event"
    },
    {
      "anonymous": false,
      "inputs": [
        {
          "indexed": false,
          "name": "timestamp",
          "type": "uint256"
        }
      ],
      "name": "ChangeMakingTimeEnded",
      "type": "event"
    },
    {
      "anonymous": false,
      "inputs": [
        {
          "indexed": false,
          "name": "timestamp",
          "type": "uint256"
        }
      ],
      "name": "ProposalMakingTimeEnded",
      "type": "event"
    },
    {
      "anonymous": false,
      "inputs": [
        {
          "indexed": false,
          "name": "timestamp",
          "type": "uint256"
        }
      ],
      "name": "CycleEnded",
      "type": "event"
    },
    {
      "anonymous": false,
      "inputs": [
        {
          "indexed": false,
          "name": "timestamp",
          "type": "uint256"
        }
      ],
      "name": "CycleFinalized",
      "type": "event"
    }
  ],
  "bytecode": "0x606060405234156200001057600080fd5b60405161014080620091498339810160405280805190602001909190805190602001909190805190602001909190805190602001909190805190602001909190805190602001909190805190602001909190805190602001909190805190602001909190805190602001909190505087620000a38789620001ec64010000000002620035d7179091906401000000009004565b11151515620000b157600080fd5b89600460006101000a81548173ffffffffffffffffffffffffffffffffffffffff021916908373ffffffffffffffffffffffffffffffffffffffff1602179055508860008190555087600781905550866008819055508560098190555084600a8190555083600b8190555082600c8190555081600d8190555080600e8190555060006006819055506001600f60006101000a81548160ff0219169083151502179055506004601960146101000a81548160ff021916908360048111156200017457fe5b0217905550600460009054906101000a900473ffffffffffffffffffffffffffffffffffffffff16601860006101000a81548173ffffffffffffffffffffffffffffffffffffffff021916908373ffffffffffffffffffffffffffffffffffffffff160217905550505050505050505050506200020b565b60008082840190508381101515156200020157fe5b8091505092915050565b618f2e806200021b6000396000f3006060604052600436106200020b576000357c0100000000000000000000000000000000000000000000000000000000900463ffffffff168063013cf08b146200021c578063084a4faf14620003395780630ccb7cde14620003515780630f6f17d214620003845780631039162b14620003dd578063239fa718146200040d57806328ac1228146200044b5780632e1a7d4d14620004775780632e33de6a146200049d5780632f3fe24c14620004f65780633021f47f1462000522578063313ce567146200054c57806335c1d34914620005785780635ea1d6f814620005de57806370a08231146200060a5780637b3b346b146200065a5780637e714dd214620006895780637f2736d114620006b5578063810599e914620006cd5780638456799b14620006f9578063883d6b7b14620007255780638b4e6ba8146200076157806390c31d5d1462000779578063929066f5146200079157806395988d8214620007e557806395fa9fc91462000811578063a0a215041462000869578063a23a6f9e14620008f1578063a41811741462000949578063b12d2fa61462000981578063b484cf8d14620009ad578063b64af4b114620009e7578063bc12730114620009ff578063d0e30db01462000a37578063d358c1661462000a43578063d78b3b1c1462000a6f578063dc87454c1462000a9b578063f1cd92f11462000af3578063f6558b001462000b72575b34156200021757600080fd5b600080fd5b34156200022857600080fd5b62000240600480803590602001909190505062000bad565b604051808973ffffffffffffffffffffffffffffffffffffffff1673ffffffffffffffffffffffffffffffffffffffff16815260200180602001888152602001878152602001868152602001858152602001848152602001838152602001828103825289818154600181600116156101000203166002900481526020019150805460018160011615610100020316600290048015620003235780601f10620002f75761010080835404028352916020019162000323565b820191906000526020600020905b8154815290600101906020018083116200030557829003601f168201915b5050995050505050505050505060405180910390f35b34156200034557600080fd5b6200034f62000c24565b005b34156200035d57600080fd5b6200038260048080356000191690602001909190803590602001909190505062000f85565b005b34156200039057600080fd5b620003c7600480803590602001909190803573ffffffffffffffffffffffffffffffffffffffff1690602001909190505062001006565b6040518082815260200191505060405180910390f35b3415620003e957600080fd5b620003f36200102b565b604051808215151515815260200191505060405180910390f35b34156200041957600080fd5b620004356004808035600019169060200190919050506200103e565b6040518082815260200191505060405180910390f35b34156200045757600080fd5b6200046162001056565b6040518082815260200191505060405180910390f35b34156200048357600080fd5b6200049b60048080359060200190919050506200105c565b005b3415620004a957600080fd5b620004e0600480803590602001909190803573ffffffffffffffffffffffffffffffffffffffff16906020019091905050620011f1565b6040518082815260200191505060405180910390f35b34156200050257600080fd5b6200050c62001216565b6040518082815260200191505060405180910390f35b34156200052e57600080fd5b6200054a6004808035600019169060200190919050506200121c565b005b34156200055857600080fd5b620005626200129b565b6040518082815260200191505060405180910390f35b34156200058457600080fd5b6200059c6004808035906020019091905050620012a1565b604051808273ffffffffffffffffffffffffffffffffffffffff1673ffffffffffffffffffffffffffffffffffffffff16815260200191505060405180910390f35b3415620005ea57600080fd5b620005f4620012e1565b6040518082815260200191505060405180910390f35b34156200061657600080fd5b62000644600480803573ffffffffffffffffffffffffffffffffffffffff16906020019091905050620012e7565b6040518082815260200191505060405180910390f35b34156200066657600080fd5b620006876004808035906020019091908035906020019091905050620012ff565b005b34156200069557600080fd5b6200069f620016ee565b6040518082815260200191505060405180910390f35b3415620006c157600080fd5b620006cb620016f4565b005b3415620006d957600080fd5b620006e362001a05565b6040518082815260200191505060405180910390f35b34156200070557600080fd5b6200070f62001a0b565b6040518082815260200191505060405180910390f35b34156200073157600080fd5b6200075f600480803573ffffffffffffffffffffffffffffffffffffffff1690602001909190505062001a11565b005b34156200076d57600080fd5b6200077762001b2e565b005b34156200078557600080fd5b6200078f62002348565b005b34156200079d57600080fd5b620007cb600480803573ffffffffffffffffffffffffffffffffffffffff1690602001909190505062002ae8565b604051808215151515815260200191505060405180910390f35b3415620007f157600080fd5b620007fb62002b08565b6040518082815260200191505060405180910390f35b34156200081d57600080fd5b6200082762002b0e565b604051808273ffffffffffffffffffffffffffffffffffffffff1673ffffffffffffffffffffffffffffffffffffffff16815260200191505060405180910390f35b34156200087557600080fd5b620008ef600480803573ffffffffffffffffffffffffffffffffffffffff1690602001909190803590602001908201803590602001908080601f0160208091040260200160405190810160405280939291908181526020018383808284378201915050505050509190803590602001909190505062002b34565b005b3415620008fd57600080fd5b6200090762002e5c565b604051808273ffffffffffffffffffffffffffffffffffffffff1673ffffffffffffffffffffffffffffffffffffffff16815260200191505060405180910390f35b34156200095557600080fd5b6200097f600480803590602001909190803590602001909190803590602001909190505062002e82565b005b34156200098d57600080fd5b6200099762002f30565b6040518082815260200191505060405180910390f35b3415620009b957600080fd5b620009d1600480803590602001909190505062002f36565b6040518082815260200191505060405180910390f35b3415620009f357600080fd5b620009fd62002f4e565b005b341562000a0b57600080fd5b62000a3560048080359060200190919080359060200190919080359060200190919050506200300b565b005b62000a41620030b9565b005b341562000a4f57600080fd5b62000a5962003407565b6040518082815260200191505060405180910390f35b341562000a7b57600080fd5b62000a856200340d565b6040518082815260200191505060405180910390f35b341562000aa757600080fd5b62000ab162003413565b604051808273ffffffffffffffffffffffffffffffffffffffff1673ffffffffffffffffffffffffffffffffffffffff16815260200191505060405180910390f35b341562000aff57600080fd5b62000b70600480803573ffffffffffffffffffffffffffffffffffffffff1690602001909190803590602001909190803573ffffffffffffffffffffffffffffffffffffffff1690602001909190803590602001909190803590602001909190803590602001909190505062003439565b005b341562000b7e57600080fd5b62000b88620035c4565b6040518082600481111562000b9957fe5b60ff16815260200191505060405180910390f35b60168181548110151562000bbd57fe5b90600052602060002090600802016000915090508060000160009054906101000a900473ffffffffffffffffffffffffffffffffffffffff169080600101908060020154908060030154908060040154908060050154908060060154908060070154905088565b6000806002600481111562000c3557fe5b601960149054906101000a900460ff16600481111562000c5157fe5b14151562000c5e57600080fd5b62000c77600754600654620035d790919063ffffffff16565b421015151562000c8657600080fd5b600f60009054906101000a900460ff161562000d4957601760009054906101000a900473ffffffffffffffffffffffffffffffffffffffff1673ffffffffffffffffffffffffffffffffffffffff16637d64bcb46000604051602001526040518163ffffffff167c0100000000000000000000000000000000000000000000000000000000028152600401602060405180830381600087803b151562000d2b57600080fd5b6102c65a03f1151562000d3d57600080fd5b50505060405180519050505b6003601960146101000a81548160ff0219169083600481111562000d6957fe5b02179055506000600f60006101000a81548160ff021916908315150217905550600091505b60168054905082101562000f4a5762000e84601760009054906101000a900473ffffffffffffffffffffffffffffffffffffffff1673ffffffffffffffffffffffffffffffffffffffff166318160ddd6000604051602001526040518163ffffffff167c0100000000000000000000000000000000000000000000000000000000028152600401602060405180830381600087803b151562000e2f57600080fd5b6102c65a03f1151562000e4157600080fd5b5050506040518051905062000e756011600086815260200190815260200160002054600554620035f690919063ffffffff16565b6200362c90919063ffffffff16565b9050601960009054906101000a900473ffffffffffffffffffffffffffffffffffffffff1673ffffffffffffffffffffffffffffffffffffffff166360fc3f8e836040518263ffffffff167c010000000000000000000000000000000000000000000000000000000002815260040180828152602001915050600060405180830381600087803b151562000f1757600080fd5b6102c65a03f1151562000f2957600080fd5b50505062000f42600183620035d790919063ffffffff16565b915062000d8e565b7f4878ecf95e0ab851e92c9860805d02e6413f8379c7702dc1adefab976c7a9ec3426040518082815260200191505060405180910390a15050565b601560009054906101000a900473ffffffffffffffffffffffffffffffffffffffff1673ffffffffffffffffffffffffffffffffffffffff163373ffffffffffffffffffffffffffffffffffffffff1614151562000fe257600080fd5b80601460008460001916600019168152602001908152602001600020819055505050565b6012602052816000526040600020602052806000526040600020600091509150505481565b600f60009054906101000a900460ff1681565b60146020528060005260406000206000915090505481565b60085481565b62001075600854600654620035d790919063ffffffff16565b421015156200108357600080fd5b600260003373ffffffffffffffffffffffffffffffffffffffff1673ffffffffffffffffffffffffffffffffffffffff16815260200190815260200160002060009054906101000a900460ff161515620010dc57600080fd5b600f60009054906101000a900460ff16151515620010f957600080fd5b62001110816005546200364890919063ffffffff16565b6005819055506200116a81601060003373ffffffffffffffffffffffffffffffffffffffff1673ffffffffffffffffffffffffffffffffffffffff168152602001908152602001600020546200364890919063ffffffff16565b601060003373ffffffffffffffffffffffffffffffffffffffff1673ffffffffffffffffffffffffffffffffffffffff168152602001908152602001600020819055503373ffffffffffffffffffffffffffffffffffffffff166108fc829081150290604051600060405180830381858888f193505050501515620011ee57600080fd5b50565b6013602052816000526040600020602052806000526040600020600091509150505481565b600b5481565b601560009054906101000a900473ffffffffffffffffffffffffffffffffffffffff1673ffffffffffffffffffffffffffffffffffffffff163373ffffffffffffffffffffffffffffffffffffffff161415156200127957600080fd5b6014600082600019166000191681526020019081526020016000206000905550565b60005481565b600181815481101515620012b157fe5b90600052602060002090016000915054906101000a900473ffffffffffffffffffffffffffffffffffffffff1681565b600c5481565b60106020528060005260406000206000915090505481565b60006200131a600854600654620035d790919063ffffffff16565b42101515156200132957600080fd5b6200135860095462001349600854600654620035d790919063ffffffff16565b620035d790919063ffffffff16565b421015156200136657600080fd5b600260003373ffffffffffffffffffffffffffffffffffffffff1673ffffffffffffffffffffffffffffffffffffffff16815260200190815260200160002060009054906101000a900460ff161515620013bf57600080fd5b60168054905083101515620013d357600080fd5b620014a860055462001499601760009054906101000a900473ffffffffffffffffffffffffffffffffffffffff1673ffffffffffffffffffffffffffffffffffffffff166318160ddd6000604051602001526040518163ffffffff167c0100000000000000000000000000000000000000000000000000000000028152600401602060405180830381600087803b15156200146d57600080fd5b6102c65a03f115156200147f57600080fd5b5050506040518051905085620035f690919063ffffffff16565b6200362c90919063ffffffff16565b9050601760009054906101000a900473ffffffffffffffffffffffffffffffffffffffff1673ffffffffffffffffffffffffffffffffffffffff16632bee7bde33836000604051602001526040518363ffffffff167c0100000000000000000000000000000000000000000000000000000000028152600401808373ffffffffffffffffffffffffffffffffffffffff1673ffffffffffffffffffffffffffffffffffffffff16815260200182815260200192505050602060405180830381600087803b15156200157857600080fd5b6102c65a03f115156200158a57600080fd5b5050506040518051905050620015cc6001601685815481101515620015ab57fe5b906000526020600020906008020160060154620035d790919063ffffffff16565b601684815481101515620015dc57fe5b90600052602060002090600802016006018190555062001619816011600086815260200190815260200160002054620035d790919063ffffffff16565b601160008581526020019081526020016000208190555062001695816012600086815260200190815260200160002060003373ffffffffffffffffffffffffffffffffffffffff1673ffffffffffffffffffffffffffffffffffffffff16815260200190815260200160002054620035d790919063ffffffff16565b6012600085815260200190815260200160002060003373ffffffffffffffffffffffffffffffffffffffff1673ffffffffffffffffffffffffffffffffffffffff16815260200190815260200160002081905550505050565b60055481565b6004808111156200170157fe5b601960149054906101000a900460ff1660048111156200171d57fe5b1415156200172a57600080fd5b62001743600754600654620035d790919063ffffffff16565b42101515156200175257600080fd5b6000601960146101000a81548160ff021916908360048111156200177257fe5b0217905550600f60009054906101000a900460ff1615620019c5576200179762004405565b604051809103906000f0801515620017ae57600080fd5b601760006101000a81548173ffffffffffffffffffffffffffffffffffffffff021916908373ffffffffffffffffffffffffffffffffffffffff160217905550601760009054906101000a900473ffffffffffffffffffffffffffffffffffffffff16600360006101000a81548173ffffffffffffffffffffffffffffffffffffffff021916908373ffffffffffffffffffffffffffffffffffffffff160217905550600360009054906101000a900473ffffffffffffffffffffffffffffffffffffffff16600460009054906101000a900473ffffffffffffffffffffffffffffffffffffffff16620018a162004416565b808373ffffffffffffffffffffffffffffffffffffffff1673ffffffffffffffffffffffffffffffffffffffff1681526020018273ffffffffffffffffffffffffffffffffffffffff1673ffffffffffffffffffffffffffffffffffffffff16815260200192505050604051809103906000f08015156200192157600080fd5b601960006101000a81548173ffffffffffffffffffffffffffffffffffffffff021916908373ffffffffffffffffffffffffffffffffffffffff160217905550601960009054906101000a900473ffffffffffffffffffffffffffffffffffffffff16601560006101000a81548173ffffffffffffffffffffffffffffffffffffffff021916908373ffffffffffffffffffffffffffffffffffffffff1602179055505b426006819055507fc8a0332abe200b5e7ff117e01b27b1ea7e989a7152ad8690ca1e0f0cb1157c3f426040518082815260200191505060405180910390a1565b60075481565b600d5481565b600360009054906101000a900473ffffffffffffffffffffffffffffffffffffffff1673ffffffffffffffffffffffffffffffffffffffff163373ffffffffffffffffffffffffffffffffffffffff1614151562001a6e57600080fd5b6001600260008373ffffffffffffffffffffffffffffffffffffffff1673ffffffffffffffffffffffffffffffffffffffff16815260200190815260200160002060006101000a81548160ff0219169083151502179055506001805480600101828162001adc919062004427565b9160005260206000209001600083909190916101000a81548173ffffffffffffffffffffffffffffffffffffffff021916908373ffffffffffffffffffffffffffffffffffffffff1602179055505050565b60008060008060006003600481111562001b4457fe5b601960149054906101000a900460ff16600481111562001b6057fe5b14151562001b6d57600080fd5b60006006541415151562001b8057600080fd5b6004601960146101000a81548160ff0219169083600481111562001ba057fe5b0217905550600094505b6016805490508510156200207b5760168581548110151562001bc857fe5b90600052602060002090600802019350601860009054906101000a900473ffffffffffffffffffffffffffffffffffffffff1673ffffffffffffffffffffffffffffffffffffffff1663508493bc8560000160009054906101000a900473ffffffffffffffffffffffffffffffffffffffff16306000604051602001526040518363ffffffff167c0100000000000000000000000000000000000000000000000000000000028152600401808373ffffffffffffffffffffffffffffffffffffffff1673ffffffffffffffffffffffffffffffffffffffff1681526020018273ffffffffffffffffffffffffffffffffffffffff1673ffffffffffffffffffffffffffffffffffffffff16815260200192505050602060405180830381600087803b151562001cf657600080fd5b6102c65a03f1151562001d0857600080fd5b50505060405180519050925062001d2d846003015484620035f690919063ffffffff16565b9150601860009054906101000a900473ffffffffffffffffffffffffffffffffffffffff1673ffffffffffffffffffffffffffffffffffffffff166346be96c36000848760000160009054906101000a900473ffffffffffffffffffffffffffffffffffffffff168789600501548b30600080600080604051602001526040518b63ffffffff167c0100000000000000000000000000000000000000000000000000000000028152600401808b73ffffffffffffffffffffffffffffffffffffffff1673ffffffffffffffffffffffffffffffffffffffff1681526020018a81526020018973ffffffffffffffffffffffffffffffffffffffff1673ffffffffffffffffffffffffffffffffffffffff1681526020018881526020018781526020018681526020018573ffffffffffffffffffffffffffffffffffffffff1673ffffffffffffffffffffffffffffffffffffffff1681526020018460ff16815260200183600102600019168152602001826001026000191681526020019a5050505050505050505050602060405180830381600087803b151562001ed057600080fd5b6102c65a03f1151562001ee257600080fd5b5050506040518051905090508281148062001f005750836005015443115b151562001f0c57600080fd5b6200205d858561010060405190810160405290816000820160009054906101000a900473ffffffffffffffffffffffffffffffffffffffff1673ffffffffffffffffffffffffffffffffffffffff1673ffffffffffffffffffffffffffffffffffffffff168152602001600182018054600181600116156101000203166002900480601f016020809104026020016040519081016040528092919081815260200182805460018160011615610100020316600290048015620020125780601f1062001fe65761010080835404028352916020019162002012565b820191906000526020600020905b81548152906001019060200180831162001ff457829003601f168201915b50505050508152602001600282015481526020016003820154815260200160048201548152602001600582015481526020016006820154815260200160078201548152505062003662565b62002073600186620035d790919063ffffffff16565b945062001baa565b601860009054906101000a900473ffffffffffffffffffffffffffffffffffffffff1673ffffffffffffffffffffffffffffffffffffffff16632e1a7d4d601860009054906101000a900473ffffffffffffffffffffffffffffffffffffffff1673ffffffffffffffffffffffffffffffffffffffff1663508493bc6000306000604051602001526040518363ffffffff167c0100000000000000000000000000000000000000000000000000000000028152600401808373ffffffffffffffffffffffffffffffffffffffff1673ffffffffffffffffffffffffffffffffffffffff1681526020018273ffffffffffffffffffffffffffffffffffffffff1673ffffffffffffffffffffffffffffffffffffffff16815260200192505050602060405180830381600087803b1515620021b457600080fd5b6102c65a03f11515620021c657600080fd5b505050604051805190506040518263ffffffff167c010000000000000000000000000000000000000000000000000000000002815260040180828152602001915050600060405180830381600087803b15156200222257600080fd5b6102c65a03f115156200223457600080fd5b505050620022416200403c565b3073ffffffffffffffffffffffffffffffffffffffff1631600581905550601960009054906101000a900473ffffffffffffffffffffffffffffffffffffffff1673ffffffffffffffffffffffffffffffffffffffff166332f42b546040518163ffffffff167c0100000000000000000000000000000000000000000000000000000000028152600401600060405180830381600087803b1515620022e557600080fd5b6102c65a03f11515620022f757600080fd5b505050601660006200230a919062004456565b7f6fbfbccdd0d107860c9bccfa723d97eba4f37886edeb01e7a438b1e0fe44e056426040518082815260200191505060405180910390a15050505050565b600080600080600080600160048111156200235f57fe5b601960149054906101000a900460ff1660048111156200237b57fe5b1415156200238857600080fd5b620023b7600954620023a8600854600654620035d790919063ffffffff16565b620035d790919063ffffffff16565b4210151515620023c657600080fd5b6002601960146101000a81548160ff02191690836004811115620023e657fe5b0217905550600095505b6001805490508610156200280a576001868154811015156200240e57fe5b906000526020600020900160009054906101000a900473ffffffffffffffffffffffffffffffffffffffff1694506200254d600054600a0a6200253e600a54601760009054906101000a900473ffffffffffffffffffffffffffffffffffffffff1673ffffffffffffffffffffffffffffffffffffffff166370a082318a6000604051602001526040518263ffffffff167c0100000000000000000000000000000000000000000000000000000000028152600401808273ffffffffffffffffffffffffffffffffffffffff1673ffffffffffffffffffffffffffffffffffffffff168152602001915050602060405180830381600087803b15156200251357600080fd5b6102c65a03f115156200252557600080fd5b50505060405180519050620035f690919063ffffffff16565b6200362c90919063ffffffff16565b9350600084141515620027ec57600092505b601680549050831015620027eb5760006012600085815260200190815260200160002060008773ffffffffffffffffffffffffffffffffffffffff1673ffffffffffffffffffffffffffffffffffffffff1681526020019081526020016000205414159150811515620027cd57601760009054906101000a900473ffffffffffffffffffffffffffffffffffffffff1673ffffffffffffffffffffffffffffffffffffffff16632bee7bde86866000604051602001526040518363ffffffff167c0100000000000000000000000000000000000000000000000000000000028152600401808373ffffffffffffffffffffffffffffffffffffffff1673ffffffffffffffffffffffffffffffffffffffff16815260200182815260200192505050602060405180830381600087803b15156200269a57600080fd5b6102c65a03f11515620026ac57600080fd5b5050506040518051905050620026ee6001601685815481101515620026cd57fe5b906000526020600020906008020160070154620035d790919063ffffffff16565b601684815481101515620026fe57fe5b90600052602060002090600802016007018190555062002778846013600086815260200190815260200160002060008873ffffffffffffffffffffffffffffffffffffffff1673ffffffffffffffffffffffffffffffffffffffff16815260200190815260200160002054620035d790919063ffffffff16565b6013600085815260200190815260200160002060008773ffffffffffffffffffffffffffffffffffffffff1673ffffffffffffffffffffffffffffffffffffffff168152602001908152602001600020819055505b620027e3600184620035d790919063ffffffff16565b92506200255f565b5b62002802600187620035d790919063ffffffff16565b9550620023f0565b600095505b60168054905086101562002aa957601860009054906101000a900473ffffffffffffffffffffffffffffffffffffffff1673ffffffffffffffffffffffffffffffffffffffff168160405180807f6465706f73697428290000000000000000000000000000000000000000000000815250600901905060405180910390207c01000000000000000000000000000000000000000000000000000000009004906040518263ffffffff167c010000000000000000000000000000000000000000000000000000000002815260040160006040518083038185886187965a03f193505050501515620028fb57fe5b620029e3601760009054906101000a900473ffffffffffffffffffffffffffffffffffffffff1673ffffffffffffffffffffffffffffffffffffffff166318160ddd6000604051602001526040518163ffffffff167c0100000000000000000000000000000000000000000000000000000000028152600401602060405180830381600087803b15156200298e57600080fd5b6102c65a03f11515620029a057600080fd5b50505060405180519050620029d4601160008a815260200190815260200160002054600554620035f690919063ffffffff16565b6200362c90919063ffffffff16565b9050601960009054906101000a900473ffffffffffffffffffffffffffffffffffffffff1673ffffffffffffffffffffffffffffffffffffffff166360fc3f8e876040518263ffffffff167c010000000000000000000000000000000000000000000000000000000002815260040180828152602001915050600060405180830381600087803b151562002a7657600080fd5b6102c65a03f1151562002a8857600080fd5b50505062002aa1600187620035d790919063ffffffff16565b95506200280f565b7f63e5255d00258d97be2d059c72be3ed43117e9f43c2439d8639988e874efa9cf426040518082815260200191505060405180910390a1505050505050565b60026020528060005260406000206000915054906101000a900460ff1681565b60065481565b600460009054906101000a900473ffffffffffffffffffffffffffffffffffffffff1681565b600062002b4f600854600654620035d790919063ffffffff16565b421015151562002b5e57600080fd5b62002b8d60095462002b7e600854600654620035d790919063ffffffff16565b620035d790919063ffffffff16565b4210151562002b9b57600080fd5b600260003373ffffffffffffffffffffffffffffffffffffffff1673ffffffffffffffffffffffffffffffffffffffff16815260200190815260200160002060009054906101000a900460ff16151562002bf457600080fd5b600b5460168054905010151562002c0a57600080fd5b6016805480600101828162002c2091906200447c565b91600052602060002090600802016000610100604051908101604052808873ffffffffffffffffffffffffffffffffffffffff16815260200187815260200160008152602001600081526020016000815260200160008152602001600181526020016000815250909190915060008201518160000160006101000a81548173ffffffffffffffffffffffffffffffffffffffff021916908373ffffffffffffffffffffffffffffffffffffffff160217905550602082015181600101908051906020019062002cf1929190620044b1565b5060408201518160020155606082015181600301556080820151816004015560a0820151816005015560c0820151816006015560e08201518160070155505050601960009054906101000a900473ffffffffffffffffffffffffffffffffffffffff1673ffffffffffffffffffffffffffffffffffffffff16633455d73e846040518263ffffffff167c01000000000000000000000000000000000000000000000000000000000281526004018080602001828103825283818151815260200191508051906020019080838360005b8381101562002ddd57808201518184015260208101905062002dc0565b50505050905090810190601f16801562002e0b5780820380516001836020036101000a031916815260200191505b5092505050600060405180830381600087803b151562002e2a57600080fd5b6102c65a03f1151562002e3c57600080fd5b505050600160168054905003905062002e568183620012ff565b50505050565b601560009054906101000a900473ffffffffffffffffffffffffffffffffffffffff1681565b601560009054906101000a900473ffffffffffffffffffffffffffffffffffffffff1673ffffffffffffffffffffffffffffffffffffffff163373ffffffffffffffffffffffffffffffffffffffff1614151562002edf57600080fd5b8160168481548110151562002ef057fe5b9060005260206000209060080201600201819055508060168481548110151562002f1657fe5b906000526020600020906008020160040181905550505050565b600e5481565b60116020528060005260406000206000915090505481565b6000600481111562002f5c57fe5b601960149054906101000a900460ff16600481111562002f7857fe5b14151562002f8557600080fd5b62002f9e600854600654620035d790919063ffffffff16565b421015151562002fad57600080fd5b6001601960146101000a81548160ff0219169083600481111562002fcd57fe5b02179055507f87a2225345e9725a08032af379cf06b2dada438a5f4e594bc1ed005a170bf53c426040518082815260200191505060405180910390a1565b601560009054906101000a900473ffffffffffffffffffffffffffffffffffffffff1673ffffffffffffffffffffffffffffffffffffffff163373ffffffffffffffffffffffffffffffffffffffff161415156200306857600080fd5b816016848154811015156200307957fe5b906000526020600020906008020160030181905550806016848154811015156200309f57fe5b906000526020600020906008020160050181905550505050565b6000620030d4600854600654620035d790919063ffffffff16565b42101515620030e257600080fd5b600260003373ffffffffffffffffffffffffffffffffffffffff1673ffffffffffffffffffffffffffffffffffffffff16815260200190815260200160002060009054906101000a900460ff161515620031f457600180548060010182816200314c919062004427565b9160005260206000209001600033909190916101000a81548173ffffffffffffffffffffffffffffffffffffffff021916908373ffffffffffffffffffffffffffffffffffffffff160217905550506001600260003373ffffffffffffffffffffffffffffffffffffffff1673ffffffffffffffffffffffffffffffffffffffff16815260200190815260200160002060006101000a81548160ff0219169083151502179055505b62003224600054600a0a62003215600e5434620035f690919063ffffffff16565b6200362c90919063ffffffff16565b90506200328e816200327f34601060003373ffffffffffffffffffffffffffffffffffffffff1673ffffffffffffffffffffffffffffffffffffffff16815260200190815260200160002054620035d790919063ffffffff16565b6200364890919063ffffffff16565b601060003373ffffffffffffffffffffffffffffffffffffffff1673ffffffffffffffffffffffffffffffffffffffff16815260200190815260200160002081905550620032fc81620032ed34600554620035d790919063ffffffff16565b6200364890919063ffffffff16565b600581905550600f60009054906101000a900460ff16156200340457601760009054906101000a900473ffffffffffffffffffffffffffffffffffffffff1673ffffffffffffffffffffffffffffffffffffffff166340c10f1933346000604051602001526040518363ffffffff167c0100000000000000000000000000000000000000000000000000000000028152600401808373ffffffffffffffffffffffffffffffffffffffff1673ffffffffffffffffffffffffffffffffffffffff16815260200182815260200192505050602060405180830381600087803b1515620033e657600080fd5b6102c65a03f11515620033f857600080fd5b50505060405180519050505b50565b600a5481565b60095481565b600360009054906101000a900473ffffffffffffffffffffffffffffffffffffffff1681565b601560009054906101000a900473ffffffffffffffffffffffffffffffffffffffff1673ffffffffffffffffffffffffffffffffffffffff163373ffffffffffffffffffffffffffffffffffffffff161415156200349657600080fd5b601860009054906101000a900473ffffffffffffffffffffffffffffffffffffffff1673ffffffffffffffffffffffffffffffffffffffff16630b9276668787878787876040518763ffffffff167c0100000000000000000000000000000000000000000000000000000000028152600401808773ffffffffffffffffffffffffffffffffffffffff1673ffffffffffffffffffffffffffffffffffffffff1681526020018681526020018573ffffffffffffffffffffffffffffffffffffffff1673ffffffffffffffffffffffffffffffffffffffff1681526020018481526020018381526020018281526020019650505050505050600060405180830381600087803b1515620035a757600080fd5b6102c65a03f11515620035b957600080fd5b505050505050505050565b601960149054906101000a900460ff1681565b6000808284019050838110151515620035ec57fe5b8091505092915050565b600080828402905060008414806200361957508284828115156200361657fe5b04145b15156200362257fe5b8091505092915050565b60008082848115156200363b57fe5b0490508091505092915050565b60008282111515156200365757fe5b818303905092915050565b600080600080600062003752601760009054906101000a900473ffffffffffffffffffffffffffffffffffffffff1673ffffffffffffffffffffffffffffffffffffffff166318160ddd6000604051602001526040518163ffffffff167c0100000000000000000000000000000000000000000000000000000000028152600401602060405180830381600087803b1515620036fd57600080fd5b6102c65a03f115156200370f57600080fd5b5050506040518051905062003743601160008b815260200190815260200160002054600554620035f690919063ffffffff16565b6200362c90919063ffffffff16565b90506000601860009054906101000a900473ffffffffffffffffffffffffffffffffffffffff1673ffffffffffffffffffffffffffffffffffffffff166346be96c38860000151620037b28a60400151866200362c90919063ffffffff16565b6000868c60a001518e30600080600080604051602001526040518b63ffffffff167c0100000000000000000000000000000000000000000000000000000000028152600401808b73ffffffffffffffffffffffffffffffffffffffff1673ffffffffffffffffffffffffffffffffffffffff1681526020018a81526020018973ffffffffffffffffffffffffffffffffffffffff1673ffffffffffffffffffffffffffffffffffffffff1681526020018881526020018781526020018681526020018573ffffffffffffffffffffffffffffffffffffffff1673ffffffffffffffffffffffffffffffffffffffff1681526020018460ff16815260200183600102600019168152602001826001026000191681526020019a5050505050505050505050602060405180830381600087803b1515620038ef57600080fd5b6102c65a03f115156200390157600080fd5b5050506040518051905014151562003e15578560400151866060015110151562003c135762003a3e620039448760c00151600054620035f690919063ffffffff16565b600a0a62003a2f600a5462003a20601160008d815260200190815260200160002054601760009054906101000a900473ffffffffffffffffffffffffffffffffffffffff1673ffffffffffffffffffffffffffffffffffffffff166318160ddd6000604051602001526040518163ffffffff167c0100000000000000000000000000000000000000000000000000000000028152600401602060405180830381600087803b1515620039f557600080fd5b6102c65a03f1151562003a0757600080fd5b505050604051805190506200364890919063ffffffff16565b620035f690919063ffffffff16565b6200362c90919063ffffffff16565b9450600092505b60018054905083101562003c0d5760018381548110151562003a6357fe5b906000526020600020900160009054906101000a900473ffffffffffffffffffffffffffffffffffffffff1691506012600088815260200190815260200160002060008373ffffffffffffffffffffffffffffffffffffffff1673ffffffffffffffffffffffffffffffffffffffff16815260200190815260200160002054935060008414151562003bef57601760009054906101000a900473ffffffffffffffffffffffffffffffffffffffff1673ffffffffffffffffffffffffffffffffffffffff1663a9059cbb8362003b438888620035d790919063ffffffff16565b6000604051602001526040518363ffffffff167c0100000000000000000000000000000000000000000000000000000000028152600401808373ffffffffffffffffffffffffffffffffffffffff1673ffffffffffffffffffffffffffffffffffffffff16815260200182815260200192505050602060405180830381600087803b151562003bd157600080fd5b6102c65a03f1151562003be357600080fd5b50505060405180519050505b62003c05600184620035d790919063ffffffff16565b925062003a45565b62003e0f565b62003c3f8660e00151601160008a8152602001908152602001600020546200362c90919063ffffffff16565b9450600092505b60018054905083101562003e0e5760018381548110151562003c6457fe5b906000526020600020900160009054906101000a900473ffffffffffffffffffffffffffffffffffffffff1691506013600088815260200190815260200160002060008373ffffffffffffffffffffffffffffffffffffffff1673ffffffffffffffffffffffffffffffffffffffff16815260200190815260200160002054935060008414151562003df057601760009054906101000a900473ffffffffffffffffffffffffffffffffffffffff1673ffffffffffffffffffffffffffffffffffffffff1663a9059cbb8362003d448888620035d790919063ffffffff16565b6000604051602001526040518363ffffffff167c0100000000000000000000000000000000000000000000000000000000028152600401808373ffffffffffffffffffffffffffffffffffffffff1673ffffffffffffffffffffffffffffffffffffffff16815260200182815260200192505050602060405180830381600087803b151562003dd257600080fd5b6102c65a03f1151562003de457600080fd5b50505060405180519050505b62003e06600184620035d790919063ffffffff16565b925062003c46565b5b62004033565b600092505b600180549050831015620040325760018381548110151562003e3857fe5b906000526020600020900160009054906101000a900473ffffffffffffffffffffffffffffffffffffffff16915062003f1b6013600089815260200190815260200160002060008473ffffffffffffffffffffffffffffffffffffffff1673ffffffffffffffffffffffffffffffffffffffff16815260200190815260200160002054601260008a815260200190815260200160002060008573ffffffffffffffffffffffffffffffffffffffff1673ffffffffffffffffffffffffffffffffffffffff16815260200190815260200160002054620035d790919063ffffffff16565b93506000841415156200401457601760009054906101000a900473ffffffffffffffffffffffffffffffffffffffff1673ffffffffffffffffffffffffffffffffffffffff1663a9059cbb83866000604051602001526040518363ffffffff167c0100000000000000000000000000000000000000000000000000000000028152600401808373ffffffffffffffffffffffffffffffffffffffff1673ffffffffffffffffffffffffffffffffffffffff16815260200182815260200192505050602060405180830381600087803b151562003ff657600080fd5b6102c65a03f115156200400857600080fd5b50505060405180519050505b6200402a600184620035d790919063ffffffff16565b925062003e1a565b5b50505050505050565b60008060008060006200408b600054600a0a6200407c3073ffffffffffffffffffffffffffffffffffffffff1631600c54620035f690919063ffffffff16565b6200362c90919063ffffffff16565b9450620040d4600054600a0a620040c53073ffffffffffffffffffffffffffffffffffffffff1631600e54620035f690919063ffffffff16565b6200362c90919063ffffffff16565b9350600092505b600180549050831015620043fe57600183815481101515620040f957fe5b906000526020600020900160009054906101000a900473ffffffffffffffffffffffffffffffffffffffff169150620041d0600554620041c1601060008673ffffffffffffffffffffffffffffffffffffffff1673ffffffffffffffffffffffffffffffffffffffff16815260200190815260200160002054620041b288620041a38b3073ffffffffffffffffffffffffffffffffffffffff16316200364890919063ffffffff16565b6200364890919063ffffffff16565b620035f690919063ffffffff16565b6200362c90919063ffffffff16565b90506200439a6200438a601760009054906101000a900473ffffffffffffffffffffffffffffffffffffffff1673ffffffffffffffffffffffffffffffffffffffff166318160ddd6000604051602001526040518163ffffffff167c0100000000000000000000000000000000000000000000000000000000028152600401602060405180830381600087803b15156200426957600080fd5b6102c65a03f115156200427b57600080fd5b505050604051805190506200437b601760009054906101000a900473ffffffffffffffffffffffffffffffffffffffff1673ffffffffffffffffffffffffffffffffffffffff166370a08231876000604051602001526040518263ffffffff167c0100000000000000000000000000000000000000000000000000000000028152600401808273ffffffffffffffffffffffffffffffffffffffff1673ffffffffffffffffffffffffffffffffffffffff168152602001915050602060405180830381600087803b15156200434f57600080fd5b6102c65a03f115156200436157600080fd5b5050506040518051905089620035f690919063ffffffff16565b6200362c90919063ffffffff16565b82620035d790919063ffffffff16565b905080601060008473ffffffffffffffffffffffffffffffffffffffff1673ffffffffffffffffffffffffffffffffffffffff16815260200190815260200160002081905550620043f6600184620035d790919063ffffffff16565b9250620040db565b5050505050565b604051611a84806200463883390190565b604051612e4780620060bc83390190565b815481835581811511620044515781836000526020600020918201910162004450919062004538565b5b505050565b508054600082556008029060005260206000209081019062004479919062004560565b50565b815481835581811511620044ac57600802816008028360005260206000209182019101620044ab919062004560565b5b505050565b828054600181600116156101000203166002900490600052602060002090601f016020900481019282601f10620044f457805160ff191683800117855562004525565b8280016001018555821562004525579182015b828111156200452457825182559160200191906001019062004507565b5b50905062004534919062004538565b5090565b6200455d91905b80821115620045595760008160009055506001016200453f565b5090565b90565b620045e891905b80821115620045e457600080820160006101000a81549073ffffffffffffffffffffffffffffffffffffffff0219169055600182016000620045aa9190620045eb565b6002820160009055600382016000905560048201600090556005820160009055600682016000905560078201600090555060080162004567565b5090565b90565b50805460018160011615610100020316600290046000825580601f1062004613575062004634565b601f01602090049060005260206000209081019062004633919062004538565b5b50560060606040526000600360146101000a81548160ff02191690831515021790555033600360006101000a81548173ffffffffffffffffffffffffffffffffffffffff021916908373ffffffffffffffffffffffffffffffffffffffff160217905550611a158061006f6000396000f3006060604052600436106100d0576000357c0100000000000000000000000000000000000000000000000000000000900463ffffffff16806305d2035b146100d5578063095ea7b31461010257806318160ddd1461015c57806323b872dd146101855780632bee7bde146101fe57806340c10f191461025857806366188463146102b257806370a082311461030c5780637d64bcb4146103595780638da5cb5b14610386578063a9059cbb146103db578063d73dd62314610435578063dd62ed3e1461048f578063f2fde38b146104fb575b600080fd5b34156100e057600080fd5b6100e8610534565b604051808215151515815260200191505060405180910390f35b341561010d57600080fd5b610142600480803573ffffffffffffffffffffffffffffffffffffffff16906020019091908035906020019091905050610547565b604051808215151515815260200191505060405180910390f35b341561016757600080fd5b61016f610639565b6040518082815260200191505060405180910390f35b341561019057600080fd5b6101e4600480803573ffffffffffffffffffffffffffffffffffffffff1690602001909190803573ffffffffffffffffffffffffffffffffffffffff1690602001909190803590602001909190505061063f565b604051808215151515815260200191505060405180910390f35b341561020957600080fd5b61023e600480803573ffffffffffffffffffffffffffffffffffffffff16906020019091908035906020019091905050610a07565b604051808215151515815260200191505060405180910390f35b341561026357600080fd5b610298600480803573ffffffffffffffffffffffffffffffffffffffff16906020019091908035906020019091905050610c8e565b604051808215151515815260200191505060405180910390f35b34156102bd57600080fd5b6102f2600480803573ffffffffffffffffffffffffffffffffffffffff16906020019091908035906020019091905050610e60565b604051808215151515815260200191505060405180910390f35b341561031757600080fd5b610343600480803573ffffffffffffffffffffffffffffffffffffffff169060200190919050506110f1565b6040518082815260200191505060405180910390f35b341561036457600080fd5b61036c61113a565b604051808215151515815260200191505060405180910390f35b341561039157600080fd5b6103996111e6565b604051808273ffffffffffffffffffffffffffffffffffffffff1673ffffffffffffffffffffffffffffffffffffffff16815260200191505060405180910390f35b34156103e657600080fd5b61041b600480803573ffffffffffffffffffffffffffffffffffffffff1690602001909190803590602001909190505061120c565b604051808215151515815260200191505060405180910390f35b341561044057600080fd5b610475600480803573ffffffffffffffffffffffffffffffffffffffff16906020019091908035906020019091905050611439565b604051808215151515815260200191505060405180910390f35b341561049a57600080fd5b6104e5600480803573ffffffffffffffffffffffffffffffffffffffff1690602001909190803573ffffffffffffffffffffffffffffffffffffffff16906020019091905050611635565b6040518082815260200191505060405180910390f35b341561050657600080fd5b610532600480803573ffffffffffffffffffffffffffffffffffffffff169060200190919050506116bc565b005b600360149054906101000a900460ff1681565b600081600260003373ffffffffffffffffffffffffffffffffffffffff1673ffffffffffffffffffffffffffffffffffffffff16815260200190815260200160002060008573ffffffffffffffffffffffffffffffffffffffff1673ffffffffffffffffffffffffffffffffffffffff168152602001908152602001600020819055508273ffffffffffffffffffffffffffffffffffffffff163373ffffffffffffffffffffffffffffffffffffffff167f8c5be1e5ebec7d5bd14f71427d1e84f3dd0314c0f7b2291e5b200ac8c7c3b925846040518082815260200191505060405180910390a36001905092915050565b60005481565b60008073ffffffffffffffffffffffffffffffffffffffff168373ffffffffffffffffffffffffffffffffffffffff161415151561067c57600080fd5b600160008573ffffffffffffffffffffffffffffffffffffffff1673ffffffffffffffffffffffffffffffffffffffff1681526020019081526020016000205482111515156106ca57600080fd5b600260008573ffffffffffffffffffffffffffffffffffffffff1673ffffffffffffffffffffffffffffffffffffffff16815260200190815260200160002060003373ffffffffffffffffffffffffffffffffffffffff1673ffffffffffffffffffffffffffffffffffffffff16815260200190815260200160002054821115151561075557600080fd5b61075e83611814565b6107b082600160008773ffffffffffffffffffffffffffffffffffffffff1673ffffffffffffffffffffffffffffffffffffffff168152602001908152602001600020546119b290919063ffffffff16565b600160008673ffffffffffffffffffffffffffffffffffffffff1673ffffffffffffffffffffffffffffffffffffffff1681526020019081526020016000208190555061084582600160008673ffffffffffffffffffffffffffffffffffffffff1673ffffffffffffffffffffffffffffffffffffffff168152602001908152602001600020546119cb90919063ffffffff16565b600160008573ffffffffffffffffffffffffffffffffffffffff1673ffffffffffffffffffffffffffffffffffffffff1681526020019081526020016000208190555061091782600260008773ffffffffffffffffffffffffffffffffffffffff1673ffffffffffffffffffffffffffffffffffffffff16815260200190815260200160002060003373ffffffffffffffffffffffffffffffffffffffff1673ffffffffffffffffffffffffffffffffffffffff168152602001908152602001600020546119b290919063ffffffff16565b600260008673ffffffffffffffffffffffffffffffffffffffff1673ffffffffffffffffffffffffffffffffffffffff16815260200190815260200160002060003373ffffffffffffffffffffffffffffffffffffffff1673ffffffffffffffffffffffffffffffffffffffff168152602001908152602001600020819055508273ffffffffffffffffffffffffffffffffffffffff168473ffffffffffffffffffffffffffffffffffffffff167fddf252ad1be2c89b69c2b068fc378daa952ba7f163c4a11628f55a4df523b3ef846040518082815260200191505060405180910390a3600190509392505050565b6000600360009054906101000a900473ffffffffffffffffffffffffffffffffffffffff1673ffffffffffffffffffffffffffffffffffffffff163373ffffffffffffffffffffffffffffffffffffffff16141515610a6557600080fd5b600073ffffffffffffffffffffffffffffffffffffffff168373ffffffffffffffffffffffffffffffffffffffff1614151515610aa157600080fd5b600160008473ffffffffffffffffffffffffffffffffffffffff1673ffffffffffffffffffffffffffffffffffffffff168152602001908152602001600020548211151515610aef57600080fd5b610b4182600160008673ffffffffffffffffffffffffffffffffffffffff1673ffffffffffffffffffffffffffffffffffffffff168152602001908152602001600020546119b290919063ffffffff16565b600160008573ffffffffffffffffffffffffffffffffffffffff1673ffffffffffffffffffffffffffffffffffffffff16815260200190815260200160002081905550610bd682600160003373ffffffffffffffffffffffffffffffffffffffff1673ffffffffffffffffffffffffffffffffffffffff168152602001908152602001600020546119cb90919063ffffffff16565b600160003373ffffffffffffffffffffffffffffffffffffffff1673ffffffffffffffffffffffffffffffffffffffff168152602001908152602001600020819055507f285da9122e12f24158745e2179a8da30488f6fa4a6292da22f90b18d9b59201e8383604051808373ffffffffffffffffffffffffffffffffffffffff1673ffffffffffffffffffffffffffffffffffffffff1681526020018281526020019250505060405180910390a16001905092915050565b6000600360009054906101000a900473ffffffffffffffffffffffffffffffffffffffff1673ffffffffffffffffffffffffffffffffffffffff163373ffffffffffffffffffffffffffffffffffffffff16141515610cec57600080fd5b600360149054906101000a900460ff16151515610d0857600080fd5b610d1d826000546119cb90919063ffffffff16565b600081905550610d7582600160008673ffffffffffffffffffffffffffffffffffffffff1673ffffffffffffffffffffffffffffffffffffffff168152602001908152602001600020546119cb90919063ffffffff16565b600160008573ffffffffffffffffffffffffffffffffffffffff1673ffffffffffffffffffffffffffffffffffffffff168152602001908152602001600020819055508273ffffffffffffffffffffffffffffffffffffffff167f0f6798a560793a54c3bcfe86a93cde1e73087d944c0ea20544137d4121396885836040518082815260200191505060405180910390a28273ffffffffffffffffffffffffffffffffffffffff1660007fddf252ad1be2c89b69c2b068fc378daa952ba7f163c4a11628f55a4df523b3ef846040518082815260200191505060405180910390a36001905092915050565b600080600260003373ffffffffffffffffffffffffffffffffffffffff1673ffffffffffffffffffffffffffffffffffffffff16815260200190815260200160002060008573ffffffffffffffffffffffffffffffffffffffff1673ffffffffffffffffffffffffffffffffffffffff16815260200190815260200160002054905080831115610f71576000600260003373ffffffffffffffffffffffffffffffffffffffff1673ffffffffffffffffffffffffffffffffffffffff16815260200190815260200160002060008673ffffffffffffffffffffffffffffffffffffffff1673ffffffffffffffffffffffffffffffffffffffff16815260200190815260200160002081905550611005565b610f8483826119b290919063ffffffff16565b600260003373ffffffffffffffffffffffffffffffffffffffff1673ffffffffffffffffffffffffffffffffffffffff16815260200190815260200160002060008673ffffffffffffffffffffffffffffffffffffffff1673ffffffffffffffffffffffffffffffffffffffff168152602001908152602001600020819055505b8373ffffffffffffffffffffffffffffffffffffffff163373ffffffffffffffffffffffffffffffffffffffff167f8c5be1e5ebec7d5bd14f71427d1e84f3dd0314c0f7b2291e5b200ac8c7c3b925600260003373ffffffffffffffffffffffffffffffffffffffff1673ffffffffffffffffffffffffffffffffffffffff16815260200190815260200160002060008873ffffffffffffffffffffffffffffffffffffffff1673ffffffffffffffffffffffffffffffffffffffff168152602001908152602001600020546040518082815260200191505060405180910390a3600191505092915050565b6000600160008373ffffffffffffffffffffffffffffffffffffffff1673ffffffffffffffffffffffffffffffffffffffff168152602001908152602001600020549050919050565b6000600360009054906101000a900473ffffffffffffffffffffffffffffffffffffffff1673ffffffffffffffffffffffffffffffffffffffff163373ffffffffffffffffffffffffffffffffffffffff1614151561119857600080fd5b6001600360146101000a81548160ff0219169083151502179055507fae5184fba832cb2b1f702aca6117b8d265eaf03ad33eb133f19dde0f5920fa0860405160405180910390a16001905090565b600360009054906101000a900473ffffffffffffffffffffffffffffffffffffffff1681565b60008073ffffffffffffffffffffffffffffffffffffffff168373ffffffffffffffffffffffffffffffffffffffff161415151561124957600080fd5b600160003373ffffffffffffffffffffffffffffffffffffffff1673ffffffffffffffffffffffffffffffffffffffff16815260200190815260200160002054821115151561129757600080fd5b6112a083611814565b6112f282600160003373ffffffffffffffffffffffffffffffffffffffff1673ffffffffffffffffffffffffffffffffffffffff168152602001908152602001600020546119b290919063ffffffff16565b600160003373ffffffffffffffffffffffffffffffffffffffff1673ffffffffffffffffffffffffffffffffffffffff1681526020019081526020016000208190555061138782600160008673ffffffffffffffffffffffffffffffffffffffff1673ffffffffffffffffffffffffffffffffffffffff168152602001908152602001600020546119cb90919063ffffffff16565b600160008573ffffffffffffffffffffffffffffffffffffffff1673ffffffffffffffffffffffffffffffffffffffff168152602001908152602001600020819055508273ffffffffffffffffffffffffffffffffffffffff163373ffffffffffffffffffffffffffffffffffffffff167fddf252ad1be2c89b69c2b068fc378daa952ba7f163c4a11628f55a4df523b3ef846040518082815260200191505060405180910390a36001905092915050565b60006114ca82600260003373ffffffffffffffffffffffffffffffffffffffff1673ffffffffffffffffffffffffffffffffffffffff16815260200190815260200160002060008673ffffffffffffffffffffffffffffffffffffffff1673ffffffffffffffffffffffffffffffffffffffff168152602001908152602001600020546119cb90919063ffffffff16565b600260003373ffffffffffffffffffffffffffffffffffffffff1673ffffffffffffffffffffffffffffffffffffffff16815260200190815260200160002060008573ffffffffffffffffffffffffffffffffffffffff1673ffffffffffffffffffffffffffffffffffffffff168152602001908152602001600020819055508273ffffffffffffffffffffffffffffffffffffffff163373ffffffffffffffffffffffffffffffffffffffff167f8c5be1e5ebec7d5bd14f71427d1e84f3dd0314c0f7b2291e5b200ac8c7c3b925600260003373ffffffffffffffffffffffffffffffffffffffff1673ffffffffffffffffffffffffffffffffffffffff16815260200190815260200160002060008773ffffffffffffffffffffffffffffffffffffffff1673ffffffffffffffffffffffffffffffffffffffff168152602001908152602001600020546040518082815260200191505060405180910390a36001905092915050565b6000600260008473ffffffffffffffffffffffffffffffffffffffff1673ffffffffffffffffffffffffffffffffffffffff16815260200190815260200160002060008373ffffffffffffffffffffffffffffffffffffffff1673ffffffffffffffffffffffffffffffffffffffff16815260200190815260200160002054905092915050565b600360009054906101000a900473ffffffffffffffffffffffffffffffffffffffff1673ffffffffffffffffffffffffffffffffffffffff163373ffffffffffffffffffffffffffffffffffffffff1614151561171857600080fd5b600073ffffffffffffffffffffffffffffffffffffffff168173ffffffffffffffffffffffffffffffffffffffff161415151561175457600080fd5b8073ffffffffffffffffffffffffffffffffffffffff16600360009054906101000a900473ffffffffffffffffffffffffffffffffffffffff1673ffffffffffffffffffffffffffffffffffffffff167f8be0079c531659141344cd1fd0a4f28419497f9722a3daafe3b4186f6b6457e060405160405180910390a380600360006101000a81548173ffffffffffffffffffffffffffffffffffffffff021916908373ffffffffffffffffffffffffffffffffffffffff16021790555050565b6000600360009054906101000a900473ffffffffffffffffffffffffffffffffffffffff1690508073ffffffffffffffffffffffffffffffffffffffff1663929066f5836000604051602001526040518263ffffffff167c0100000000000000000000000000000000000000000000000000000000028152600401808273ffffffffffffffffffffffffffffffffffffffff1673ffffffffffffffffffffffffffffffffffffffff168152602001915050602060405180830381600087803b15156118de57600080fd5b6102c65a03f115156118ef57600080fd5b5050506040518051905015156119ae578073ffffffffffffffffffffffffffffffffffffffff1663883d6b7b836040518263ffffffff167c0100000000000000000000000000000000000000000000000000000000028152600401808273ffffffffffffffffffffffffffffffffffffffff1673ffffffffffffffffffffffffffffffffffffffff168152602001915050600060405180830381600087803b151561199957600080fd5b6102c65a03f115156119aa57600080fd5b5050505b5050565b60008282111515156119c057fe5b818303905092915050565b60008082840190508381101515156119df57fe5b80915050929150505600a165627a7a723058209169d6bade50ebe3301e638a692fff62214545f845dd00dab905e9d0cc5d32cd0029606060405234156200001057600080fd5b60405160408062002e478339810160405280805190602001909190805190602001909190505033600560006101000a81548173ffffffffffffffffffffffffffffffffffffffff021916908373ffffffffffffffffffffffffffffffffffffffff16021790555033600960006101000a81548173ffffffffffffffffffffffffffffffffffffffff021916908373ffffffffffffffffffffffffffffffffffffffff16021790555081600a60006101000a81548173ffffffffffffffffffffffffffffffffffffffff021916908373ffffffffffffffffffffffffffffffffffffffff16021790555080600b60006101000a81548173ffffffffffffffffffffffffffffffffffffffff021916908373ffffffffffffffffffffffffffffffffffffffff160217905550606060405190810160405280603781526020017f6a736f6e2868747470733a2f2f6d696e2d6170692e63727970746f636f6d706181526020017f72652e636f6d2f646174612f70726963653f6673796d3d00000000000000000081525060069080519060200190620001ae92919062000253565b506040805190810160405280600781526020017f267473796d733d0000000000000000000000000000000000000000000000000081525060079080519060200190620001fc92919062000253565b506040805190810160405280600581526020017f292e455448000000000000000000000000000000000000000000000000000000815250600890805190602001906200024a92919062000253565b50505062000302565b828054600181600116156101000203166002900490600052602060002090601f016020900481019282601f106200029657805160ff1916838001178555620002c7565b82800160010185558215620002c7579182015b82811115620002c6578251825591602001919060010190620002a9565b5b509050620002d69190620002da565b5090565b620002ff91905b80821115620002fb576000816000905550600101620002e1565b5090565b90565b612b3580620003126000396000f3006060604052600436106100af576000357c0100000000000000000000000000000000000000000000000000000000900463ffffffff168063267a32aa146100b457806327dc297e1461014257806332f42b54146101ac5780633455d73e146101c157806338bbfa501461021e57806360fc3f8e146102cb5780638da5cb5b146102e3578063d6c9f59e14610338578063e3e4a6e0146103c6578063e79e3f1a14610454578063f2fde38b146104f0575b600080fd5b34156100bf57600080fd5b6100c7610529565b6040518080602001828103825283818151815260200191508051906020019080838360005b838110156101075780820151818401526020810190506100ec565b50505050905090810190601f1680156101345780820380516001836020036101000a031916815260200191505b509250505060405180910390f35b341561014d57600080fd5b6101aa60048080356000191690602001909190803590602001908201803590602001908080601f016020809104026020016040519081016040528093929190818152602001838380828437820191505050505050919050506105c7565b005b34156101b757600080fd5b6101bf611210565b005b34156101cc57600080fd5b61021c600480803590602001908201803590602001908080601f0160208091040260200160405190810160405280939291908181526020018383808284378201915050505050509190505061127c565b005b341561022957600080fd5b6102c960048080356000191690602001909190803590602001908201803590602001908080601f0160208091040260200160405190810160405280939291908181526020018383808284378201915050505050509190803590602001908201803590602001908080601f01602080910402602001604051908101604052809392919081815260200183838082843782019150505050505091905050611317565b005b6102e1600480803590602001909190505061131c565b005b34156102ee57600080fd5b6102f661169b565b604051808273ffffffffffffffffffffffffffffffffffffffff1673ffffffffffffffffffffffffffffffffffffffff16815260200191505060405180910390f35b341561034357600080fd5b61034b6116c1565b6040518080602001828103825283818151815260200191508051906020019080838360005b8381101561038b578082015181840152602081019050610370565b50505050905090810190601f1680156103b85780820380516001836020036101000a031916815260200191505b509250505060405180910390f35b34156103d157600080fd5b6103d961175f565b6040518080602001828103825283818151815260200191508051906020019080838360005b838110156104195780820151818401526020810190506103fe565b50505050905090810190601f1680156104465780820380516001836020036101000a031916815260200191505b509250505060405180910390f35b341561045f57600080fd5b61047560048080359060200190919050506117fd565b6040518080602001828103825283818151815260200191508051906020019080838360005b838110156104b557808201518184015260208101905061049a565b50505050905090810190601f1680156104e25780820380516001836020036101000a031916815260200191505b509250505060405180910390f35b34156104fb57600080fd5b610527600480803573ffffffffffffffffffffffffffffffffffffffff169060200190919050506118b9565b005b60068054600181600116156101000203166002900480601f0160208091040260200160405190810160405280929190818152602001828054600181600116156101000203166002900480156105bf5780601f10610594576101008083540402835291602001916105bf565b820191906000526020600020905b8154815290600101906020018083116105a257829003601f168201915b505050505081565b6000806000806000806000806105db611a11565b73ffffffffffffffffffffffffffffffffffffffff163373ffffffffffffffffffffffffffffffffffffffff1614151561061457600080fd5b61061f896012611d27565b9750600960009054906101000a900473ffffffffffffffffffffffffffffffffffffffff1673ffffffffffffffffffffffffffffffffffffffff1663239fa7188b6000604051602001526040518263ffffffff167c0100000000000000000000000000000000000000000000000000000000028152600401808260001916600019168152602001915050602060405180830381600087803b15156106c257600080fd5b6102c65a03f115156106d357600080fd5b505050604051805190509650600960009054906101000a900473ffffffffffffffffffffffffffffffffffffffff1673ffffffffffffffffffffffffffffffffffffffff1663013cf08b88600060405161010001526040518263ffffffff167c01000000000000000000000000000000000000000000000000000000000281526004018082815260200191505061010060405180830381600087803b151561077a57600080fd5b6102c65a03f1151561078b57600080fd5b50505060405180519060200180519060200180519060200180519060200180519060200180519060200180519060200180519050505050505050509550600960009054906101000a900473ffffffffffffffffffffffffffffffffffffffff1673ffffffffffffffffffffffffffffffffffffffff16633021f47f8b6040518263ffffffff167c0100000000000000000000000000000000000000000000000000000000028152600401808260001916600019168152602001915050600060405180830381600087803b151561086057600080fd5b6102c65a03f1151561087157600080fd5b505050610a9c600a60009054906101000a900473ffffffffffffffffffffffffffffffffffffffff1673ffffffffffffffffffffffffffffffffffffffff166318160ddd6000604051602001526040518163ffffffff167c0100000000000000000000000000000000000000000000000000000000028152600401602060405180830381600087803b151561090557600080fd5b6102c65a03f1151561091657600080fd5b50505060405180519050610a8e600960009054906101000a900473ffffffffffffffffffffffffffffffffffffffff1673ffffffffffffffffffffffffffffffffffffffff1663b484cf8d8b6000604051602001526040518263ffffffff167c010000000000000000000000000000000000000000000000000000000002815260040180828152602001915050602060405180830381600087803b15156109bc57600080fd5b6102c65a03f115156109cd57600080fd5b50505060405180519050600960009054906101000a900473ffffffffffffffffffffffffffffffffffffffff1673ffffffffffffffffffffffffffffffffffffffff16637e714dd26000604051602001526040518163ffffffff167c0100000000000000000000000000000000000000000000000000000000028152600401602060405180830381600087803b1515610a6557600080fd5b6102c65a03f11515610a7657600080fd5b5050506040518051905061202190919063ffffffff16565b61205490919063ffffffff16565b9450610b59600960009054906101000a900473ffffffffffffffffffffffffffffffffffffffff1673ffffffffffffffffffffffffffffffffffffffff16638456799b6000604051602001526040518163ffffffff167c0100000000000000000000000000000000000000000000000000000000028152600401602060405180830381600087803b1515610b2f57600080fd5b6102c65a03f11515610b4057600080fd5b505050604051805190504361206f90919063ffffffff16565b935060026004811115610b6857fe5b600960009054906101000a900473ffffffffffffffffffffffffffffffffffffffff1673ffffffffffffffffffffffffffffffffffffffff1663f6558b006000604051602001526040518163ffffffff167c0100000000000000000000000000000000000000000000000000000000028152600401602060405180830381600087803b1515610bf657600080fd5b6102c65a03f11515610c0757600080fd5b505050604051805190506004811115610c1c57fe5b1415610e1557600960009054906101000a900473ffffffffffffffffffffffffffffffffffffffff1673ffffffffffffffffffffffffffffffffffffffff1663a4181174888a876040518463ffffffff167c0100000000000000000000000000000000000000000000000000000000028152600401808481526020018381526020018281526020019350505050600060405180830381600087803b1515610cc257600080fd5b6102c65a03f11515610cd357600080fd5b505050610ce9888661205490919063ffffffff16565b9250600960009054906101000a900473ffffffffffffffffffffffffffffffffffffffff1673ffffffffffffffffffffffffffffffffffffffff1663f1cd92f18785600089898d6040518763ffffffff167c0100000000000000000000000000000000000000000000000000000000028152600401808773ffffffffffffffffffffffffffffffffffffffff1673ffffffffffffffffffffffffffffffffffffffff1681526020018681526020018573ffffffffffffffffffffffffffffffffffffffff1673ffffffffffffffffffffffffffffffffffffffff1681526020018481526020018381526020018281526020019650505050505050600060405180830381600087803b1515610dfc57600080fd5b6102c65a03f11515610e0d57600080fd5b505050611204565b60036004811115610e2257fe5b600960009054906101000a900473ffffffffffffffffffffffffffffffffffffffff1673ffffffffffffffffffffffffffffffffffffffff1663f6558b006000604051602001526040518163ffffffff167c0100000000000000000000000000000000000000000000000000000000028152600401602060405180830381600087803b1515610eb057600080fd5b6102c65a03f11515610ec157600080fd5b505050604051805190506004811115610ed657fe5b141561120357600960009054906101000a900473ffffffffffffffffffffffffffffffffffffffff1673ffffffffffffffffffffffffffffffffffffffff1663bc127301888a876040518463ffffffff167c0100000000000000000000000000000000000000000000000000000000028152600401808481526020018381526020018281526020019350505050600060405180830381600087803b1515610f7c57600080fd5b6102c65a03f11515610f8d57600080fd5b505050600b60009054906101000a900473ffffffffffffffffffffffffffffffffffffffff1673ffffffffffffffffffffffffffffffffffffffff1663508493bc87600560009054906101000a900473ffffffffffffffffffffffffffffffffffffffff166000604051602001526040518363ffffffff167c0100000000000000000000000000000000000000000000000000000000028152600401808373ffffffffffffffffffffffffffffffffffffffff1673ffffffffffffffffffffffffffffffffffffffff1681526020018273ffffffffffffffffffffffffffffffffffffffff1673ffffffffffffffffffffffffffffffffffffffff16815260200192505050602060405180830381600087803b15156110ab57600080fd5b6102c65a03f115156110bc57600080fd5b5050506040518051905091506110db888361202190919063ffffffff16565b9050600960009054906101000a900473ffffffffffffffffffffffffffffffffffffffff1673ffffffffffffffffffffffffffffffffffffffff1663f1cd92f16000838986898d6040518763ffffffff167c0100000000000000000000000000000000000000000000000000000000028152600401808773ffffffffffffffffffffffffffffffffffffffff1673ffffffffffffffffffffffffffffffffffffffff1681526020018681526020018573ffffffffffffffffffffffffffffffffffffffff1673ffffffffffffffffffffffffffffffffffffffff1681526020018481526020018381526020018281526020019650505050505050600060405180830381600087803b15156111ee57600080fd5b6102c65a03f115156111ff57600080fd5b5050505b5b50505050505050505050565b600560009054906101000a900473ffffffffffffffffffffffffffffffffffffffff1673ffffffffffffffffffffffffffffffffffffffff163373ffffffffffffffffffffffffffffffffffffffff1614151561126c57600080fd5b600c600061127a919061297b565b565b600560009054906101000a900473ffffffffffffffffffffffffffffffffffffffff1673ffffffffffffffffffffffffffffffffffffffff163373ffffffffffffffffffffffffffffffffffffffff161415156112d857600080fd5b600c80548060010182816112ec919061299c565b9160005260206000209001600083909190915090805190602001906113129291906129c8565b505050565b505050565b6000611326612a48565b61132e612a48565b611336612a48565b600560009054906101000a900473ffffffffffffffffffffffffffffffffffffffff1673ffffffffffffffffffffffffffffffffffffffff163373ffffffffffffffffffffffffffffffffffffffff1614151561139257600080fd5b600c858154811015156113a157fe5b906000526020600020900193506040805190810160405280600381526020017f4554480000000000000000000000000000000000000000000000000000000000815250925061165a60068054600181600116156101000203166002900480601f01602080910402602001604051908101604052809291908181526020018280546001816001161561010002031660029004801561147f5780601f106114545761010080835404028352916020019161147f565b820191906000526020600020905b81548152906001019060200180831161146257829003601f168201915b5050505050858054600181600116156101000203166002900480601f0160208091040260200160405190810160405280929190818152602001828054600181600116156101000203166002900480156115195780601f106114ee57610100808354040283529160200191611519565b820191906000526020600020905b8154815290600101906020018083116114fc57829003601f168201915b505050505060078054600181600116156101000203166002900480601f0160208091040260200160405190810160405280929190818152602001828054600181600116156101000203166002900480156115b45780601f10611589576101008083540402835291602001916115b4565b820191906000526020600020905b81548152906001019060200180831161159757829003601f168201915b50505050508660088054600181600116156101000203166002900480601f0160208091040260200160405190810160405280929190818152602001828054600181600116156101000203166002900480156116505780601f1061162557610100808354040283529160200191611650565b820191906000526020600020905b81548152906001019060200180831161163357829003601f168201915b505050505061208d565b91506040805190810160405280600381526020017f55524c000000000000000000000000000000000000000000000000000000000081525090505050505050565b600560009054906101000a900473ffffffffffffffffffffffffffffffffffffffff1681565b60078054600181600116156101000203166002900480601f0160208091040260200160405190810160405280929190818152602001828054600181600116156101000203166002900480156117575780601f1061172c57610100808354040283529160200191611757565b820191906000526020600020905b81548152906001019060200180831161173a57829003601f168201915b505050505081565b60088054600181600116156101000203166002900480601f0160208091040260200160405190810160405280929190818152602001828054600181600116156101000203166002900480156117f55780601f106117ca576101008083540402835291602001916117f5565b820191906000526020600020905b8154815290600101906020018083116117d857829003601f168201915b505050505081565b600c8181548110151561180c57fe5b90600052602060002090016000915090508054600181600116156101000203166002900480601f0160208091040260200160405190810160405280929190818152602001828054600181600116156101000203166002900480156118b15780601f10611886576101008083540402835291602001916118b1565b820191906000526020600020905b81548152906001019060200180831161189457829003601f168201915b505050505081565b600560009054906101000a900473ffffffffffffffffffffffffffffffffffffffff1673ffffffffffffffffffffffffffffffffffffffff163373ffffffffffffffffffffffffffffffffffffffff1614151561191557600080fd5b600073ffffffffffffffffffffffffffffffffffffffff168173ffffffffffffffffffffffffffffffffffffffff161415151561195157600080fd5b8073ffffffffffffffffffffffffffffffffffffffff16600560009054906101000a900473ffffffffffffffffffffffffffffffffffffffff1673ffffffffffffffffffffffffffffffffffffffff167f8be0079c531659141344cd1fd0a4f28419497f9722a3daafe3b4186f6b6457e060405160405180910390a380600560006101000a81548173ffffffffffffffffffffffffffffffffffffffff021916908373ffffffffffffffffffffffffffffffffffffffff16021790555050565b6000806000809054906101000a900473ffffffffffffffffffffffffffffffffffffffff1673ffffffffffffffffffffffffffffffffffffffff161480611a8157506000611a7f6000809054906101000a900473ffffffffffffffffffffffffffffffffffffffff166124c5565b145b15611a9257611a9060006124d0565b505b6000809054906101000a900473ffffffffffffffffffffffffffffffffffffffff1673ffffffffffffffffffffffffffffffffffffffff166338cc48316000604051602001526040518163ffffffff167c0100000000000000000000000000000000000000000000000000000000028152600401602060405180830381600087803b1515611b1f57600080fd5b6102c65a03f11515611b3057600080fd5b5050506040518051905073ffffffffffffffffffffffffffffffffffffffff16600160009054906101000a900473ffffffffffffffffffffffffffffffffffffffff1673ffffffffffffffffffffffffffffffffffffffff16141515611c79576000809054906101000a900473ffffffffffffffffffffffffffffffffffffffff1673ffffffffffffffffffffffffffffffffffffffff166338cc48316000604051602001526040518163ffffffff167c0100000000000000000000000000000000000000000000000000000000028152600401602060405180830381600087803b1515611c1d57600080fd5b6102c65a03f11515611c2e57600080fd5b50505060405180519050600160006101000a81548173ffffffffffffffffffffffffffffffffffffffff021916908373ffffffffffffffffffffffffffffffffffffffff1602179055505b600160009054906101000a900473ffffffffffffffffffffffffffffffffffffffff1673ffffffffffffffffffffffffffffffffffffffff1663c281d19e6000604051602001526040518163ffffffff167c0100000000000000000000000000000000000000000000000000000000028152600401602060405180830381600087803b1515611d0757600080fd5b6102c65a03f11515611d1857600080fd5b50505060405180519050905090565b6000611d31612a5c565b60008060008693506000925060009150600090505b83518110156120025760307f0100000000000000000000000000000000000000000000000000000000000000028482815181101515611d8157fe5b9060200101517f010000000000000000000000000000000000000000000000000000000000000090047f0100000000000000000000000000000000000000000000000000000000000000027effffffffffffffffffffffffffffffffffffffffffffffffffffffffffffff191610158015611e99575060397f0100000000000000000000000000000000000000000000000000000000000000028482815181101515611e2957fe5b9060200101517f010000000000000000000000000000000000000000000000000000000000000090047f0100000000000000000000000000000000000000000000000000000000000000027effffffffffffffffffffffffffffffffffffffffffffffffffffffffffffff191611155b15611f4a578115611ebc576000861415611eb257612002565b8580600190039650505b600a8302925060308482815181101515611ed257fe5b9060200101517f010000000000000000000000000000000000000000000000000000000000000090047f0100000000000000000000000000000000000000000000000000000000000000027f010000000000000000000000000000000000000000000000000000000000000090040383019250611ff5565b602e7f0100000000000000000000000000000000000000000000000000000000000000028482815181101515611f7c57fe5b9060200101517f010000000000000000000000000000000000000000000000000000000000000090047f0100000000000000000000000000000000000000000000000000000000000000027effffffffffffffffffffffffffffffffffffffffffffffffffffffffffffff19161415611ff457600191505b5b8080600101915050611d46565b60008611156120145785600a0a830292505b8294505050505092915050565b60008082840290506000841480612042575082848281151561203f57fe5b04145b151561204a57fe5b8091505092915050565b600080828481151561206257fe5b0490508091505092915050565b600080828401905083811015151561208357fe5b8091505092915050565b612095612a48565b61209d612a5c565b6120a5612a5c565b6120ad612a5c565b6120b5612a5c565b6120bd612a5c565b6120c5612a48565b6120cd612a5c565b6000808e98508d97508c96508b95508a94508451865188518a518c51010101016040518059106120fa5750595b9080825280601f01601f1916602001820160405250935083925060009150600090505b88518110156121d057888181518110151561213457fe5b9060200101517f010000000000000000000000000000000000000000000000000000000000000090047f010000000000000000000000000000000000000000000000000000000000000002838380600101945081518110151561219357fe5b9060200101907effffffffffffffffffffffffffffffffffffffffffffffffffffffffffffff1916908160001a905350808060010191505061211d565b600090505b87518110156122885787818151811015156121ec57fe5b9060200101517f010000000000000000000000000000000000000000000000000000000000000090047f010000000000000000000000000000000000000000000000000000000000000002838380600101945081518110151561224b57fe5b9060200101907effffffffffffffffffffffffffffffffffffffffffffffffffffffffffffff1916908160001a90535080806001019150506121d5565b600090505b86518110156123405786818151811015156122a457fe5b9060200101517f010000000000000000000000000000000000000000000000000000000000000090047f010000000000000000000000000000000000000000000000000000000000000002838380600101945081518110151561230357fe5b9060200101907effffffffffffffffffffffffffffffffffffffffffffffffffffffffffffff1916908160001a905350808060010191505061228d565b600090505b85518110156123f857858181518110151561235c57fe5b9060200101517f010000000000000000000000000000000000000000000000000000000000000090047f01000000000000000000000000000000000000000000000000000000000000000283838060010194508151811015156123bb57fe5b9060200101907effffffffffffffffffffffffffffffffffffffffffffffffffffffffffffff1916908160001a9053508080600101915050612345565b600090505b84518110156124b057848181518110151561241457fe5b9060200101517f010000000000000000000000000000000000000000000000000000000000000090047f010000000000000000000000000000000000000000000000000000000000000002838380600101945081518110151561247357fe5b9060200101907effffffffffffffffffffffffffffffffffffffffffffffffffffffffffffff1916908160001a90535080806001019150506123fd565b82995050505050505050505095945050505050565b6000813b9050919050565b6000806124f0731d3b2638a7cc9f2cb3d298a3da7a90b67e5506ed6124c5565b111561259157731d3b2638a7cc9f2cb3d298a3da7a90b67e5506ed6000806101000a81548173ffffffffffffffffffffffffffffffffffffffff021916908373ffffffffffffffffffffffffffffffffffffffff1602179055506125886040805190810160405280600b81526020017f6574685f6d61696e6e6574000000000000000000000000000000000000000000815250612961565b6001905061295c565b60006125b073c03a2615d5efaf5f49f60b7bb6583eaec212fdf16124c5565b11156126515773c03a2615d5efaf5f49f60b7bb6583eaec212fdf16000806101000a81548173ffffffffffffffffffffffffffffffffffffffff021916908373ffffffffffffffffffffffffffffffffffffffff1602179055506126486040805190810160405280600c81526020017f6574685f726f707374656e330000000000000000000000000000000000000000815250612961565b6001905061295c565b600061267073b7a07bcf2ba2f2703b24c0691b5278999c59ac7e6124c5565b11156127115773b7a07bcf2ba2f2703b24c0691b5278999c59ac7e6000806101000a81548173ffffffffffffffffffffffffffffffffffffffff021916908373ffffffffffffffffffffffffffffffffffffffff1602179055506127086040805190810160405280600981526020017f6574685f6b6f76616e0000000000000000000000000000000000000000000000815250612961565b6001905061295c565b600061273073146500cfd35b22e4a392fe0adc06de1a1368ed486124c5565b11156127d15773146500cfd35b22e4a392fe0adc06de1a1368ed486000806101000a81548173ffffffffffffffffffffffffffffffffffffffff021916908373ffffffffffffffffffffffffffffffffffffffff1602179055506127c86040805190810160405280600b81526020017f6574685f72696e6b656279000000000000000000000000000000000000000000815250612961565b6001905061295c565b60006127f0736f485c8bf6fc43ea212e93bbf8ce046c7f1cb4756124c5565b111561285357736f485c8bf6fc43ea212e93bbf8ce046c7f1cb4756000806101000a81548173ffffffffffffffffffffffffffffffffffffffff021916908373ffffffffffffffffffffffffffffffffffffffff1602179055506001905061295c565b60006128727320e12a1f859b3feae5fb2a0a32c18f5a65555bbf6124c5565b11156128d5577320e12a1f859b3feae5fb2a0a32c18f5a65555bbf6000806101000a81548173ffffffffffffffffffffffffffffffffffffffff021916908373ffffffffffffffffffffffffffffffffffffffff1602179055506001905061295c565b60006128f47351efaf4c8b3c9afbd5ab9f4bbc82784ab6ef8faa6124c5565b1115612957577351efaf4c8b3c9afbd5ab9f4bbc82784ab6ef8faa6000806101000a81548173ffffffffffffffffffffffffffffffffffffffff021916908373ffffffffffffffffffffffffffffffffffffffff1602179055506001905061295c565b600090505b919050565b80600290805190602001906129779291906129c8565b5050565b50805460008255906000526020600020908101906129999190612a70565b50565b8154818355818115116129c3578183600052602060002091820191016129c29190612a70565b5b505050565b828054600181600116156101000203166002900490600052602060002090601f016020900481019282601f10612a0957805160ff1916838001178555612a37565b82800160010185558215612a37579182015b82811115612a36578251825591602001919060010190612a1b565b5b509050612a449190612a9c565b5090565b602060405190810160405280600081525090565b602060405190810160405280600081525090565b612a9991905b80821115612a955760008181612a8c9190612ac1565b50600101612a76565b5090565b90565b612abe91905b80821115612aba576000816000905550600101612aa2565b5090565b90565b50805460018160011615610100020316600290046000825580601f10612ae75750612b06565b601f016020900490600052602060002090810190612b059190612a9c565b5b505600a165627a7a7230582004dae4a5223d4d6dd3080cf3251edeb5adbabffeb82659b05d4240e3afbb72b30029a165627a7a72305820ee4b7ae80554e2c39d395e2d2077bc3090ab735ddb48b716dc9ab8acf2d605200029",
  "source": "pragma solidity ^0.4.18;\r\n\r\nimport 'zeppelin-solidity/contracts/token/MintableToken.sol';\r\nimport 'zeppelin-solidity/contracts/math/SafeMath.sol';\r\nimport './etherdelta.sol';\r\nimport './oraclizeAPI_0.4.sol';\r\n\r\n// The main contract that keeps track of:\r\n// - Who is in the fund\r\n// - How much the fund has\r\n// - Each person's Share\r\n// - Each person's Control\r\ncontract GroupFund {\r\n  using SafeMath for uint256;\r\n\r\n  enum CyclePhase { ChangeMaking, ProposalMaking, Waiting, Ended, Finalized }\r\n\r\n  struct Proposal {\r\n    address tokenAddress;\r\n    string tokenSymbol;\r\n    uint256 buyPriceInWeis;\r\n    uint256 sellPriceInWeis;\r\n    uint256 buyOrderExpirationBlockNum;\r\n    uint256 sellOrderExpirationBlockNum;\r\n    uint256 numFor;\r\n    uint256 numAgainst;\r\n  }\r\n\r\n  modifier isChangeMakingTime {\r\n    require(now < startTimeOfCycle.add(timeOfChangeMaking));\r\n    _;\r\n  }\r\n\r\n  modifier isProposalMakingTime {\r\n    require(now >= startTimeOfCycle.add(timeOfChangeMaking));\r\n    require(now < startTimeOfCycle.add(timeOfChangeMaking).add(timeOfProposalMaking));\r\n    _;\r\n  }\r\n\r\n  modifier onlyParticipant {\r\n    require(isParticipant[msg.sender]);\r\n    _;\r\n  }\r\n\r\n  modifier onlyOraclize {\r\n    require(msg.sender == oraclizeAddr);\r\n    _;\r\n  }\r\n\r\n  //Number of decimals used for proportions\r\n  uint256 public decimals;\r\n\r\n  // A list of everyone who is participating in the GroupFund\r\n  address[] public participants;\r\n  mapping(address => bool) public isParticipant;\r\n\r\n  //Address of the control token\r\n  address public controlTokenAddr;\r\n\r\n  address public etherDeltaAddr;\r\n\r\n  // The total amount of funds held by the group\r\n  uint256 public totalFundsInWeis;\r\n\r\n  //The start time for the current investment cycle, in seconds since Unix epoch\r\n  uint256 public startTimeOfCycle;\r\n\r\n  //Temporal length of each investment cycle, in seconds\r\n  uint256 public timeOfCycle;\r\n\r\n  //Temporal length of change making period at start of each cycle, in seconds\r\n  uint256 public timeOfChangeMaking;\r\n\r\n  //Temporal length of proposal making period at start of each cycle, in seconds\r\n  uint256 public timeOfProposalMaking;\r\n\r\n  //Proportion of control people who vote against a proposal have to stake\r\n  uint256 public againstStakeProportion;\r\n\r\n  uint256 public maxProposals;\r\n\r\n  uint256 public commissionRate;\r\n\r\n  uint256 public orderExpirationTimeInBlocks;\r\n\r\n  //The proportion of contract balance reserved for Oraclize fees\r\n  uint256 public oraclizeFeeProportion;\r\n\r\n  bool public isFirstCycle;\r\n\r\n  // Mapping from Participant address to their balance\r\n  mapping(address => uint256) public balanceOf;\r\n\r\n  // Mapping from Proposal to total amount of Control Tokens being staked by supporters\r\n  mapping(uint256 => uint256) public forStakedControlOfProposal;\r\n\r\n  // Mapping from Proposal to Participant to number of Control Tokens being staked\r\n  mapping(uint256 => mapping(address => uint256)) public forStakedControlOfProposalOfUser;\r\n\r\n  mapping(uint256 => mapping(address => uint256)) public againstStakedControlOfProposalOfUser;\r\n\r\n  mapping(bytes32 => uint256) public proposalIdOfQuery;\r\n\r\n  address public oraclizeAddr;\r\n\r\n  Proposal[] public proposals;\r\n  ControlToken internal cToken;\r\n  EtherDelta internal etherDelta;\r\n  OraclizeHandler internal oraclize;\r\n  CyclePhase public cyclePhase;\r\n\r\n  event CycleStarted(uint256 timestamp);\r\n  event ChangeMakingTimeEnded(uint256 timestamp);\r\n  event ProposalMakingTimeEnded(uint256 timestamp);\r\n  event CycleEnded(uint256 timestamp);\r\n  event CycleFinalized(uint256 timestamp);\r\n\r\n  // GroupFund constructor\r\n  function GroupFund(\r\n    address _etherDeltaAddr,\r\n    uint256 _decimals,\r\n    uint256 _timeOfCycle,\r\n    uint256 _timeOfChangeMaking,\r\n    uint256 _timeOfProposalMaking,\r\n    uint256 _againstStakeProportion,\r\n    uint256 _maxProposals,\r\n    uint256 _commissionRate,\r\n    uint256 _orderExpirationTimeInBlocks,\r\n    uint256 _oraclizeFeeProportion\r\n  )\r\n    public\r\n  {\r\n    require(_timeOfChangeMaking.add(_timeOfProposalMaking) <= _timeOfCycle);\r\n    etherDeltaAddr = _etherDeltaAddr;\r\n    decimals = _decimals;\r\n    timeOfCycle = _timeOfCycle;\r\n    timeOfChangeMaking = _timeOfChangeMaking;\r\n    timeOfProposalMaking = _timeOfProposalMaking;\r\n    againstStakeProportion = _againstStakeProportion;\r\n    maxProposals = _maxProposals;\r\n    commissionRate = _commissionRate;\r\n    orderExpirationTimeInBlocks = _orderExpirationTimeInBlocks;\r\n    oraclizeFeeProportion = _oraclizeFeeProportion;\r\n    startTimeOfCycle = 0;\r\n    isFirstCycle = true;\r\n    cyclePhase = CyclePhase.Finalized;\r\n\r\n    //Initialize etherDelta contract\r\n    etherDelta = EtherDelta(etherDeltaAddr);\r\n  }\r\n\r\n  // Creates a new Cycle\r\n  function startNewCycle() public {\r\n    require(cyclePhase == CyclePhase.Finalized);\r\n    require(now >= startTimeOfCycle.add(timeOfCycle));\r\n\r\n    cyclePhase = CyclePhase.ChangeMaking;\r\n\r\n    if (isFirstCycle) {\r\n      cToken = new ControlToken();\r\n      controlTokenAddr = address(cToken);\r\n      oraclize = new OraclizeHandler(controlTokenAddr, etherDeltaAddr);\r\n      oraclizeAddr = address(oraclize);\r\n    }\r\n\r\n    startTimeOfCycle = now;\r\n    CycleStarted(now);\r\n  }\r\n\r\n  //Change making time functions\r\n\r\n  function deposit()\r\n    public\r\n    payable\r\n    isChangeMakingTime\r\n  {\r\n    if (!isParticipant[msg.sender]) {\r\n      participants.push(msg.sender);\r\n      isParticipant[msg.sender] = true;\r\n    }\r\n\r\n    //Register investment\r\n    uint256 fees = msg.value.mul(oraclizeFeeProportion).div(10**decimals);\r\n    balanceOf[msg.sender] = balanceOf[msg.sender].add(msg.value).sub(fees);\r\n    totalFundsInWeis = totalFundsInWeis.add(msg.value).sub(fees);\r\n\r\n    if (isFirstCycle) {\r\n      //Give control tokens proportional to investment\r\n      cToken.mint(msg.sender, msg.value);\r\n    }\r\n  }\r\n\r\n  // Withdraw from GroupFund\r\n  function withdraw(uint256 _amountInWeis)\r\n    public\r\n    isChangeMakingTime\r\n    onlyParticipant\r\n  {\r\n    require(!isFirstCycle);\r\n\r\n    totalFundsInWeis = totalFundsInWeis.sub(_amountInWeis);\r\n    balanceOf[msg.sender] = balanceOf[msg.sender].sub(_amountInWeis);\r\n\r\n    msg.sender.transfer(_amountInWeis);\r\n  }\r\n\r\n  function endChangeMakingTime() public {\r\n    require(cyclePhase == CyclePhase.ChangeMaking);\r\n    require(now >= startTimeOfCycle.add(timeOfChangeMaking));\r\n\r\n    cyclePhase = CyclePhase.ProposalMaking;\r\n\r\n    ChangeMakingTimeEnded(now);\r\n  }\r\n\r\n  //Proposal making time functions\r\n  function createProposal(\r\n    address _tokenAddress,\r\n    string _tokenSymbol,\r\n    uint256 _amountInWeis\r\n  )\r\n    public\r\n    isProposalMakingTime\r\n    onlyParticipant\r\n  {\r\n    require(proposals.length < maxProposals);\r\n\r\n    proposals.push(Proposal({\r\n      tokenAddress: _tokenAddress,\r\n      tokenSymbol: _tokenSymbol,\r\n      buyPriceInWeis: 0,\r\n      sellPriceInWeis: 0,\r\n      numFor: 1,\r\n      numAgainst: 0,\r\n      buyOrderExpirationBlockNum: 0,\r\n      sellOrderExpirationBlockNum: 0\r\n    }));\r\n\r\n    oraclize.__pushTokenSymbolOfProposal(_tokenSymbol);\r\n\r\n    //Stake control tokens\r\n    uint256 proposalId = proposals.length - 1;\r\n    supportProposal(proposalId, _amountInWeis);\r\n  }\r\n\r\n  function supportProposal(uint256 _proposalId, uint256 _amountInWeis)\r\n    public\r\n    isProposalMakingTime\r\n    onlyParticipant\r\n  {\r\n    require(_proposalId < proposals.length);\r\n\r\n    //Stake control tokens\r\n    uint256 controlStake = _amountInWeis.mul(cToken.totalSupply()).div(totalFundsInWeis);\r\n    //Collect staked control tokens\r\n    cToken.ownerCollectFrom(msg.sender, controlStake);\r\n    //Update stake data\r\n    proposals[_proposalId].numFor = proposals[_proposalId].numFor.add(1);\r\n    forStakedControlOfProposal[_proposalId] = forStakedControlOfProposal[_proposalId].add(controlStake);\r\n    forStakedControlOfProposalOfUser[_proposalId][msg.sender] = forStakedControlOfProposalOfUser[_proposalId][msg.sender].add(controlStake);\r\n  }\r\n\r\n  function endProposalMakingTime() public {\r\n    require(cyclePhase == CyclePhase.ProposalMaking);\r\n    require(now >= startTimeOfCycle.add(timeOfChangeMaking).add(timeOfProposalMaking));\r\n\r\n    cyclePhase = CyclePhase.Waiting;\r\n\r\n    //Stake against votes\r\n    for (uint256 i = 0; i < participants.length; i = i.add(1)) {\r\n      address participant = participants[i];\r\n      uint256 stakeAmount = cToken.balanceOf(participant).mul(againstStakeProportion).div(10**decimals);\r\n      if (stakeAmount != 0) {\r\n        for (uint256 j = 0; j < proposals.length; j = j.add(1)) {\r\n          bool isFor = forStakedControlOfProposalOfUser[j][participant] != 0;\r\n          if (!isFor) {\r\n            cToken.ownerCollectFrom(participant, stakeAmount);\r\n            proposals[j].numAgainst = proposals[j].numAgainst.add(1);\r\n            againstStakedControlOfProposalOfUser[j][participant] = againstStakedControlOfProposalOfUser[j][participant].add(stakeAmount);\r\n          }\r\n        }\r\n      }\r\n    }\r\n\r\n    //Invest in tokens using etherdelta\r\n    for (i = 0; i < proposals.length; i = i.add(1)) {\r\n      //Deposit ether\r\n      assert(etherDelta.call.value(investAmount)(bytes4(keccak256(\"deposit()\"))));\r\n      uint256 investAmount = totalFundsInWeis.mul(forStakedControlOfProposal[i]).div(cToken.totalSupply());\r\n      oraclize.__grabCurrentPriceFromOraclize(i);\r\n    }\r\n\r\n    ProposalMakingTimeEnded(now);\r\n  }\r\n\r\n  function endCycle() public {\r\n    require(cyclePhase == CyclePhase.Waiting);\r\n    require(now >= startTimeOfCycle.add(timeOfCycle));\r\n\r\n    if (isFirstCycle) {\r\n      cToken.finishMinting();\r\n    }\r\n    cyclePhase = CyclePhase.Ended;\r\n    isFirstCycle = false;\r\n\r\n    //Sell all invested tokens\r\n    for (uint256 i = 0; i < proposals.length; i = i.add(1)) {\r\n      uint256 investAmount = totalFundsInWeis.mul(forStakedControlOfProposal[i]).div(cToken.totalSupply());\r\n      oraclize.__grabCurrentPriceFromOraclize(i);\r\n    }\r\n\r\n    CycleEnded(now);\r\n  }\r\n\r\n  function finalizeEndCycle() public {\r\n    require(cyclePhase == CyclePhase.Ended);\r\n    require(startTimeOfCycle != 0);\r\n\r\n    cyclePhase = CyclePhase.Finalized;\r\n\r\n    //Ensure all the sell orders are inactive\r\n    for (uint256 proposalId = 0; proposalId < proposals.length; proposalId = proposalId.add(1)) {\r\n      Proposal storage prop = proposals[proposalId];\r\n      uint256 sellTokenAmount = etherDelta.tokens(prop.tokenAddress, address(this));\r\n      uint256 getWeiAmount = sellTokenAmount.mul(prop.sellPriceInWeis);\r\n\r\n      uint256 amountFilled = etherDelta.amountFilled(address(0), getWeiAmount, prop.tokenAddress, sellTokenAmount, prop.sellOrderExpirationBlockNum, proposalId, address(this), 0, 0, 0);\r\n      require(amountFilled == sellTokenAmount || block.number > prop.sellOrderExpirationBlockNum);\r\n\r\n      settleBets(proposalId, prop);\r\n    }\r\n    //Withdraw from etherdelta\r\n    etherDelta.withdraw(etherDelta.tokens(address(0), address(this)));\r\n\r\n    distributeFundsAfterCycleEnd();\r\n\r\n    //Reset data\r\n    totalFundsInWeis = this.balance;\r\n    oraclize.__deleteTokenSymbolOfProposal();\r\n    delete proposals;\r\n\r\n    CycleFinalized(now);\r\n  }\r\n\r\n  //Seperated from finalizeEndCycle() to avoid StackTooDeep error\r\n  function settleBets(uint256 proposalId, Proposal prop) internal {\r\n    //Settle bets\r\n    uint256 tokenReward;\r\n    uint256 stake;\r\n    uint256 j;\r\n    address participant;\r\n    uint256 investAmount = totalFundsInWeis.mul(forStakedControlOfProposal[proposalId]).div(cToken.totalSupply());\r\n    if (etherDelta.amountFilled(prop.tokenAddress, investAmount.div(prop.buyPriceInWeis), address(0), investAmount, prop.sellOrderExpirationBlockNum, proposalId, address(this), 0, 0, 0) != 0) {\r\n      if (prop.sellPriceInWeis >= prop.buyPriceInWeis) {\r\n        //For wins\r\n        tokenReward = cToken.totalSupply().sub(forStakedControlOfProposal[proposalId]).mul(againstStakeProportion).div(10**decimals.mul(prop.numFor));\r\n        for (j = 0; j < participants.length; j = j.add(1)) {\r\n          participant = participants[j];\r\n          stake = forStakedControlOfProposalOfUser[proposalId][participant];\r\n          if (stake != 0) {\r\n            //Give control tokens\r\n            cToken.transfer(participant, stake.add(tokenReward));\r\n          }\r\n        }\r\n      } else {\r\n        //Against wins\r\n        tokenReward = forStakedControlOfProposal[proposalId].div(prop.numAgainst);\r\n        for (j = 0; j < participants.length; j = j.add(1)) {\r\n          participant = participants[j];\r\n          stake = againstStakedControlOfProposalOfUser[proposalId][participant];\r\n          if (stake != 0) {\r\n            //Give control tokens\r\n            cToken.transfer(participant, stake.add(tokenReward));\r\n          }\r\n        }\r\n      }\r\n    } else {\r\n      //Buy order failed completely. Give back stakes.\r\n      for (j = 0; j < participants.length; j = j.add(1)) {\r\n        participant = participants[j];\r\n        stake = forStakedControlOfProposalOfUser[proposalId][participant].add(againstStakedControlOfProposalOfUser[proposalId][participant]);\r\n        if (stake != 0) {\r\n          cToken.transfer(participant, stake);\r\n        }\r\n      }\r\n    }\r\n  }\r\n\r\n  //Seperated from finalizeEndCycle() to avoid StackTooDeep error\r\n  function distributeFundsAfterCycleEnd() internal {\r\n    //Distribute funds\r\n    uint256 totalCommission = commissionRate.mul(this.balance).div(10**decimals);\r\n    uint256 feeReserve = oraclizeFeeProportion.mul(this.balance).div(10**decimals);\r\n\r\n    for (uint256 i = 0; i < participants.length; i = i.add(1)) {\r\n      address participant = participants[i];\r\n      uint256 newBalance = this.balance.sub(totalCommission).sub(feeReserve).mul(balanceOf[participant]).div(totalFundsInWeis);\r\n      //Add commission\r\n      newBalance = newBalance.add(totalCommission.mul(cToken.balanceOf(participant)).div(cToken.totalSupply()));\r\n      balanceOf[participant] = newBalance;\r\n    }\r\n  }\r\n\r\n  function addControlTokenReceipientAsParticipant(address _receipient) public {\r\n    require(msg.sender == controlTokenAddr);\r\n    isParticipant[_receipient] = true;\r\n    participants.push(_receipient);\r\n  }\r\n\r\n  function __setProposalIdOfQuery(bytes32 _queryId, uint256 _proposalId) public onlyOraclize {\r\n    proposalIdOfQuery[_queryId] = _proposalId;\r\n  }\r\n\r\n  function __deleteProposalIdOfQuery(bytes32 _queryId) public onlyOraclize {\r\n    delete proposalIdOfQuery[_queryId];\r\n  }\r\n\r\n  function __makeOrder(address _tokenGet, uint _amountGet, address _tokenGive, uint _amountGive, uint _expires, uint _nonce) public onlyOraclize {\r\n    etherDelta.order(_tokenGet, _amountGet, _tokenGive, _amountGive, _expires, _nonce);\r\n  }\r\n\r\n  function __setBuyPriceAndExpirationBlock(uint256 _proposalId, uint256 _buyPrice, uint256 _expires) public onlyOraclize {\r\n    proposals[_proposalId].buyPriceInWeis = _buyPrice;\r\n    proposals[_proposalId].buyOrderExpirationBlockNum = _expires;\r\n  }\r\n\r\n  function __setSellPriceAndExpirationBlock(uint256 _proposalId, uint256 _sellPrice, uint256 _expires) public onlyOraclize {\r\n    proposals[_proposalId].sellPriceInWeis = _sellPrice;\r\n    proposals[_proposalId].sellOrderExpirationBlockNum = _expires;\r\n  }\r\n\r\n  function() public {\r\n    revert();\r\n  }\r\n}\r\n\r\ncontract OraclizeHandler is usingOraclize, Ownable {\r\n  using SafeMath for uint256;\r\n\r\n  enum CyclePhase { ChangeMaking, ProposalMaking, Waiting, Ended, Finalized }\r\n\r\n  // URL for querying prices, default is set to cryptocompare\r\n  // Later on, modify this to be more flexible for additional queries, etc.\r\n  string public priceCheckURL1;\r\n  string public priceCheckURL2;\r\n  string public priceCheckURL3;\r\n\r\n  GroupFund internal groupFund;\r\n  ControlToken internal cToken;\r\n  EtherDelta internal etherDelta;\r\n\r\n  string[] public tokenSymbolOfProposal;\r\n\r\n  function OraclizeHandler(address _controlTokenAddr, address _etherDeltaAddr) public {\r\n    groupFund = GroupFund(msg.sender);\r\n    cToken = ControlToken(_controlTokenAddr);\r\n    etherDelta = EtherDelta(_etherDeltaAddr);\r\n    // Initialize cryptocompare URLs:\r\n    priceCheckURL1 = \"json(https://min-api.cryptocompare.com/data/price?fsym=\";\r\n    priceCheckURL2 = \"&tsyms=\";\r\n    priceCheckURL3 = \").ETH\";\r\n  }\r\n\r\n  function __pushTokenSymbolOfProposal(string _tokenSymbol) public onlyOwner {\r\n    tokenSymbolOfProposal.push(_tokenSymbol);\r\n  }\r\n\r\n  function __deleteTokenSymbolOfProposal() public onlyOwner {\r\n    delete tokenSymbolOfProposal;\r\n  }\r\n  //Oraclize functions\r\n\r\n  // Query Oraclize for the current price\r\n  function __grabCurrentPriceFromOraclize(uint _proposalId) public payable onlyOwner {\r\n    string tokenSymbol = tokenSymbolOfProposal[_proposalId];\r\n    // Grab the cryptocompare URL that is the price in ETH of the token to purchase\r\n    string memory etherSymbol = \"ETH\";\r\n    string memory urlToQuery = strConcat(priceCheckURL1, tokenSymbol, priceCheckURL2, etherSymbol, priceCheckURL3);\r\n\r\n    string memory url = \"URL\";\r\n\r\n    // Call Oraclize to grab the most recent price information via JSON\r\n    //groupFund.__setProposalIdOfQuery(oraclize_query(url, urlToQuery), _proposalId);\r\n  }\r\n\r\n  // Callback function from Oraclize query:\r\n  function __callback(bytes32 _myID, string _result) public {\r\n    require(msg.sender == oraclize_cbAddress());\r\n\r\n    // Grab ETH price in Weis\r\n    uint256 priceInWeis = parseInt(_result, 18);\r\n\r\n    uint256 proposalId = groupFund.proposalIdOfQuery(_myID);\r\n    var (\r\n      tokenAddress,\r\n    ) = groupFund.proposals(proposalId);\r\n\r\n    //Reset data\r\n    groupFund.__deleteProposalIdOfQuery(_myID);\r\n\r\n    uint256 investAmount = groupFund.totalFundsInWeis().mul(groupFund.forStakedControlOfProposal(proposalId)).div(cToken.totalSupply());\r\n    uint256 expires = block.number.add(groupFund.orderExpirationTimeInBlocks());\r\n    if (uint(groupFund.cyclePhase()) == uint(CyclePhase.Waiting)) {\r\n      //Buy\r\n      groupFund.__setBuyPriceAndExpirationBlock(proposalId, priceInWeis, expires);\r\n\r\n      uint256 buyTokenAmount = investAmount.div(priceInWeis);\r\n      groupFund.__makeOrder(tokenAddress, buyTokenAmount, address(0), investAmount, expires, proposalId);\r\n    } else if (uint(groupFund.cyclePhase()) == uint(CyclePhase.Ended)) {\r\n      //Sell\r\n      groupFund.__setSellPriceAndExpirationBlock(proposalId, priceInWeis, expires);\r\n\r\n      uint256 sellTokenAmount = etherDelta.tokens(tokenAddress, owner);\r\n      uint256 getWeiAmount = sellTokenAmount.mul(priceInWeis);\r\n      groupFund.__makeOrder(address(0), getWeiAmount, tokenAddress, sellTokenAmount, expires, proposalId);\r\n    }\r\n  }\r\n}\r\n\r\n//Proportional to Wei when minted\r\ncontract ControlToken is MintableToken {\r\n  using SafeMath for uint256;\r\n\r\n  event OwnerCollectFrom(address _from, uint256 _value);\r\n\r\n  function transfer(address _to, uint256 _value) public returns(bool) {\r\n    require(_to != address(0));\r\n    require(_value <= balances[msg.sender]);\r\n\r\n    //Add receipient as a participant if not already a participant\r\n    addParticipant(_to);\r\n\r\n    // SafeMath.sub will throw if there is not enough balance.\r\n    balances[msg.sender] = balances[msg.sender].sub(_value);\r\n    balances[_to] = balances[_to].add(_value);\r\n    Transfer(msg.sender, _to, _value);\r\n    return true;\r\n  }\r\n\r\n  function transferFrom(address _from, address _to, uint256 _value) public returns (bool) {\r\n    require(_to != address(0));\r\n    require(_value <= balances[_from]);\r\n    require(_value <= allowed[_from][msg.sender]);\r\n\r\n    //Add receipient as a participant if not already a participant\r\n    addParticipant(_to);\r\n\r\n    balances[_from] = balances[_from].sub(_value);\r\n    balances[_to] = balances[_to].add(_value);\r\n    allowed[_from][msg.sender] = allowed[_from][msg.sender].sub(_value);\r\n    Transfer(_from, _to, _value);\r\n    return true;\r\n  }\r\n\r\n  function ownerCollectFrom(address _from, uint256 _value) public onlyOwner returns(bool) {\r\n    require(_from != address(0));\r\n    require(_value <= balances[_from]);\r\n\r\n    // SafeMath.sub will throw if there is not enough balance.\r\n    balances[_from] = balances[_from].sub(_value);\r\n    balances[msg.sender] = balances[msg.sender].add(_value);\r\n    OwnerCollectFrom(_from, _value);\r\n    return true;\r\n  }\r\n\r\n  function addParticipant(address _to) internal {\r\n    GroupFund groupFund = GroupFund(owner);\r\n    if (!groupFund.isParticipant(_to)) {\r\n      groupFund.addControlTokenReceipientAsParticipant(_to);\r\n    }\r\n  }\r\n}\r\n",
  "sourcePath": "D:\\msi-cn\\Documents\\GitHub\\betoken\\contracts\\betoken.sol",
  "compiler": {
    "name": "solc",
    "version": "0.4.18+commit.9cf6e910.Emscripten.clang"
  },
  "schemaVersion": "1.0.1",
  "updatedAt": "2017-11-13T07:00:00.254Z"
}