{
  "contractName": "GroupFund",
  "abi": [
    {
      "constant": true,
      "inputs": [
        {
          "name": "",
          "type": "uint256"
        }
      ],
      "name": "proposals",
      "outputs": [
        {
          "name": "isBuy",
          "type": "bool"
        },
        {
          "name": "tokenAddress",
          "type": "address"
        },
        {
          "name": "amount",
          "type": "uint256"
        }
      ],
      "payable": false,
      "stateMutability": "view",
      "type": "function"
    },
    {
      "constant": false,
      "inputs": [],
      "name": "endCycle",
      "outputs": [],
      "payable": false,
      "stateMutability": "nonpayable",
      "type": "function"
    },
    {
      "constant": true,
      "inputs": [],
      "name": "isFirstCycle",
      "outputs": [
        {
          "name": "",
          "type": "bool"
        }
      ],
      "payable": false,
      "stateMutability": "view",
      "type": "function"
    },
    {
      "constant": true,
      "inputs": [],
      "name": "timeOfChangeMaking",
      "outputs": [
        {
          "name": "",
          "type": "uint256"
        }
      ],
      "payable": false,
      "stateMutability": "view",
      "type": "function"
    },
    {
      "constant": false,
      "inputs": [
        {
          "name": "amountInWeis",
          "type": "uint256"
        }
      ],
      "name": "withdraw",
      "outputs": [],
      "payable": false,
      "stateMutability": "nonpayable",
      "type": "function"
    },
    {
      "constant": true,
      "inputs": [],
      "name": "maxProposals",
      "outputs": [
        {
          "name": "",
          "type": "uint256"
        }
      ],
      "payable": false,
      "stateMutability": "view",
      "type": "function"
    },
    {
      "constant": true,
      "inputs": [],
      "name": "decimals",
      "outputs": [
        {
          "name": "",
          "type": "uint256"
        }
      ],
      "payable": false,
      "stateMutability": "view",
      "type": "function"
    },
    {
      "constant": true,
      "inputs": [
        {
          "name": "",
          "type": "uint256"
        }
      ],
      "name": "participants",
      "outputs": [
        {
          "name": "",
          "type": "address"
        }
      ],
      "payable": false,
      "stateMutability": "view",
      "type": "function"
    },
    {
      "constant": true,
      "inputs": [],
      "name": "cycleIsActive",
      "outputs": [
        {
          "name": "",
          "type": "bool"
        }
      ],
      "payable": false,
      "stateMutability": "view",
      "type": "function"
    },
    {
      "constant": true,
      "inputs": [
        {
          "name": "",
          "type": "uint256"
        },
        {
          "name": "",
          "type": "address"
        }
      ],
      "name": "stakedControlOfProposalOfUser",
      "outputs": [
        {
          "name": "",
          "type": "uint256"
        }
      ],
      "payable": false,
      "stateMutability": "view",
      "type": "function"
    },
    {
      "constant": true,
      "inputs": [
        {
          "name": "user",
          "type": "address"
        },
        {
          "name": "amount",
          "type": "uint256"
        }
      ],
      "name": "amountToReduceInitialDepositBy",
      "outputs": [
        {
          "name": "",
          "type": "uint256"
        }
      ],
      "payable": false,
      "stateMutability": "view",
      "type": "function"
    },
    {
      "constant": true,
      "inputs": [],
      "name": "commissionRate",
      "outputs": [
        {
          "name": "",
          "type": "uint256"
        }
      ],
      "payable": false,
      "stateMutability": "view",
      "type": "function"
    },
    {
      "constant": true,
      "inputs": [
        {
          "name": "",
          "type": "address"
        }
      ],
      "name": "initialDeposit",
      "outputs": [
        {
          "name": "",
          "type": "uint256"
        }
      ],
      "payable": false,
      "stateMutability": "view",
      "type": "function"
    },
    {
      "constant": true,
      "inputs": [],
      "name": "totalInitialDeposit",
      "outputs": [
        {
          "name": "",
          "type": "uint256"
        }
      ],
      "payable": false,
      "stateMutability": "view",
      "type": "function"
    },
    {
      "constant": false,
      "inputs": [
        {
          "name": "proposalId",
          "type": "uint256"
        },
        {
          "name": "controlStake",
          "type": "uint256"
        }
      ],
      "name": "supportProposal",
      "outputs": [],
      "payable": false,
      "stateMutability": "nonpayable",
      "type": "function"
    },
    {
      "constant": true,
      "inputs": [],
      "name": "totalFundsInWeis",
      "outputs": [
        {
          "name": "",
          "type": "uint256"
        }
      ],
      "payable": false,
      "stateMutability": "view",
      "type": "function"
    },
    {
      "constant": false,
      "inputs": [],
      "name": "startNewCycle",
      "outputs": [],
      "payable": false,
      "stateMutability": "nonpayable",
      "type": "function"
    },
    {
      "constant": true,
      "inputs": [],
      "name": "timeOfCycle",
      "outputs": [
        {
          "name": "",
          "type": "uint256"
        }
      ],
      "payable": false,
      "stateMutability": "view",
      "type": "function"
    },
    {
      "constant": true,
      "inputs": [],
      "name": "changeMakingTimeHasEnded",
      "outputs": [
        {
          "name": "",
          "type": "bool"
        }
      ],
      "payable": false,
      "stateMutability": "view",
      "type": "function"
    },
    {
      "constant": false,
      "inputs": [
        {
          "name": "receipient",
          "type": "address"
        }
      ],
      "name": "addControlTokenReceipientAsParticipant",
      "outputs": [],
      "payable": false,
      "stateMutability": "nonpayable",
      "type": "function"
    },
    {
      "constant": true,
      "inputs": [
        {
          "name": "",
          "type": "address"
        }
      ],
      "name": "isParticipant",
      "outputs": [
        {
          "name": "",
          "type": "bool"
        }
      ],
      "payable": false,
      "stateMutability": "view",
      "type": "function"
    },
    {
      "constant": true,
      "inputs": [],
      "name": "startTimeOfCycle",
      "outputs": [
        {
          "name": "",
          "type": "uint256"
        }
      ],
      "payable": false,
      "stateMutability": "view",
      "type": "function"
    },
    {
      "constant": true,
      "inputs": [],
      "name": "etherDeltaAddr",
      "outputs": [
        {
          "name": "",
          "type": "address"
        }
      ],
      "payable": false,
      "stateMutability": "view",
      "type": "function"
    },
    {
      "constant": false,
      "inputs": [],
      "name": "endChangeMakingTime",
      "outputs": [],
      "payable": false,
      "stateMutability": "nonpayable",
      "type": "function"
    },
    {
      "constant": true,
      "inputs": [
        {
          "name": "",
          "type": "uint256"
        }
      ],
      "name": "stakedControlOfProposal",
      "outputs": [
        {
          "name": "",
          "type": "uint256"
        }
      ],
      "payable": false,
      "stateMutability": "view",
      "type": "function"
    },
    {
      "constant": false,
      "inputs": [],
      "name": "deposit",
      "outputs": [],
      "payable": true,
      "stateMutability": "payable",
      "type": "function"
    },
    {
      "constant": true,
      "inputs": [],
      "name": "againstStakeProportion",
      "outputs": [
        {
          "name": "",
          "type": "uint256"
        }
      ],
      "payable": false,
      "stateMutability": "view",
      "type": "function"
    },
    {
      "constant": false,
      "inputs": [
        {
          "name": "_isBuy",
          "type": "bool"
        },
        {
          "name": "_tokenAddress",
          "type": "address"
        },
        {
          "name": "_amount",
          "type": "uint256"
        }
      ],
      "name": "createProposal",
      "outputs": [],
      "payable": false,
      "stateMutability": "nonpayable",
      "type": "function"
    },
    {
      "constant": true,
      "inputs": [],
      "name": "controlTokenAddr",
      "outputs": [
        {
          "name": "",
          "type": "address"
        }
      ],
      "payable": false,
      "stateMutability": "view",
      "type": "function"
    },
    {
      "constant": true,
      "inputs": [
        {
          "name": "",
          "type": "address"
        }
      ],
      "name": "balanceOfAtCycleStart",
      "outputs": [
        {
          "name": "",
          "type": "uint256"
        }
      ],
      "payable": false,
      "stateMutability": "view",
      "type": "function"
    },
    {
      "constant": true,
      "inputs": [],
      "name": "totalFundsAtStartOfCycleInWeis",
      "outputs": [
        {
          "name": "",
          "type": "uint256"
        }
      ],
      "payable": false,
      "stateMutability": "view",
      "type": "function"
    },
    {
      "inputs": [
        {
          "name": "_etherDeltaAddr",
          "type": "address"
        },
        {
          "name": "_decimals",
          "type": "uint256"
        },
        {
          "name": "_timeOfCycle",
          "type": "uint256"
        },
        {
          "name": "_timeOfChangeMaking",
          "type": "uint256"
        },
        {
          "name": "_againstStakeProportion",
          "type": "uint256"
        },
        {
          "name": "_maxProposals",
          "type": "uint256"
        },
        {
          "name": "_commissionRate",
          "type": "uint256"
        }
      ],
      "payable": false,
      "stateMutability": "nonpayable",
      "type": "constructor"
    },
    {
      "payable": false,
      "stateMutability": "nonpayable",
      "type": "fallback"
    },
    {
      "anonymous": false,
      "inputs": [
        {
          "indexed": false,
          "name": "timestamp",
          "type": "uint256"
        }
      ],
      "name": "CycleStarted",
      "type": "event"
    },
    {
      "anonymous": false,
      "inputs": [
        {
          "indexed": false,
          "name": "timestamp",
          "type": "uint256"
        }
      ],
      "name": "ChangeMakingTimeEnded",
      "type": "event"
    },
    {
      "anonymous": false,
      "inputs": [
        {
          "indexed": false,
          "name": "timestamp",
          "type": "uint256"
        }
      ],
      "name": "CycleEnded",
      "type": "event"
    }
  ],
  "bytecode": "0x606060405234156200001057600080fd5b60405160e0806200443c8339810160405280805190602001909190805190602001909190805190602001909190805190602001909190805190602001909190805190602001909190805190602001909190505086600660006101000a81548173ffffffffffffffffffffffffffffffffffffffff021916908373ffffffffffffffffffffffffffffffffffffffff1602179055508560008190555084600a8190555083600b8190555082600c8190555081600d8190555080600e8190555060006009819055506001600f60026101000a81548160ff021916908315150217905550620000fb62000225565b604051809103906000f08015156200011257600080fd5b601460006101000a81548173ffffffffffffffffffffffffffffffffffffffff021916908373ffffffffffffffffffffffffffffffffffffffff160217905550601460009054906101000a900473ffffffffffffffffffffffffffffffffffffffff16600560006101000a81548173ffffffffffffffffffffffffffffffffffffffff021916908373ffffffffffffffffffffffffffffffffffffffff160217905550600660009054906101000a900473ffffffffffffffffffffffffffffffffffffffff16601560006101000a81548173ffffffffffffffffffffffffffffffffffffffff021916908373ffffffffffffffffffffffffffffffffffffffff1602179055505050505050505062000236565b604051611bd8806200286483390190565b61261e80620002466000396000f30060606040526004361061018b576000357c0100000000000000000000000000000000000000000000000000000000900463ffffffff168063013cf08b1461019b578063084a4faf146102105780631039162b1461022557806328ac1228146102525780632e1a7d4d1461027b5780632f3fe24c1461029e578063313ce567146102c757806335c1d349146102f057806347b3dfa51461035357806348736543146103805780634bd1c575146103d65780635ea1d6f81461042c57806360506aff146104555780637747eec7146104a25780637b3b346b146104cb5780637e714dd2146104f75780637f2736d114610520578063810599e91461053557806381285f451461055e578063883d6b7b1461058b578063929066f5146105c457806395988d821461061557806395fa9fc91461063e578063b64af4b114610693578063cd2a7a78146106a8578063d0e30db0146106df578063d358c166146106e9578063d800327514610712578063dc87454c1461075f578063e633a299146107b4578063f4b9812e14610801575b341561019657600080fd5b600080fd5b34156101a657600080fd5b6101bc600480803590602001909190505061082a565b60405180841515151581526020018373ffffffffffffffffffffffffffffffffffffffff1673ffffffffffffffffffffffffffffffffffffffff168152602001828152602001935050505060405180910390f35b341561021b57600080fd5b610223610890565b005b341561023057600080fd5b610238610d6d565b604051808215151515815260200191505060405180910390f35b341561025d57600080fd5b610265610d80565b6040518082815260200191505060405180910390f35b341561028657600080fd5b61029c6004808035906020019091905050610d86565b005b34156102a957600080fd5b6102b1610f3b565b6040518082815260200191505060405180910390f35b34156102d257600080fd5b6102da610f41565b6040518082815260200191505060405180910390f35b34156102fb57600080fd5b6103116004808035906020019091905050610f47565b604051808273ffffffffffffffffffffffffffffffffffffffff1673ffffffffffffffffffffffffffffffffffffffff16815260200191505060405180910390f35b341561035e57600080fd5b610366610f86565b604051808215151515815260200191505060405180910390f35b341561038b57600080fd5b6103c0600480803590602001909190803573ffffffffffffffffffffffffffffffffffffffff16906020019091905050610f99565b6040518082815260200191505060405180910390f35b34156103e157600080fd5b610416600480803573ffffffffffffffffffffffffffffffffffffffff16906020019091908035906020019091905050610fbe565b6040518082815260200191505060405180910390f35b341561043757600080fd5b61043f61106b565b6040518082815260200191505060405180910390f35b341561046057600080fd5b61048c600480803573ffffffffffffffffffffffffffffffffffffffff16906020019091905050611071565b6040518082815260200191505060405180910390f35b34156104ad57600080fd5b6104b5611089565b6040518082815260200191505060405180910390f35b34156104d657600080fd5b6104f5600480803590602001909190803590602001909190505061108f565b005b341561050257600080fd5b61050a6113ed565b6040518082815260200191505060405180910390f35b341561052b57600080fd5b6105336113f3565b005b341561054057600080fd5b6105486114aa565b6040518082815260200191505060405180910390f35b341561056957600080fd5b6105716114b0565b604051808215151515815260200191505060405180910390f35b341561059657600080fd5b6105c2600480803573ffffffffffffffffffffffffffffffffffffffff169060200190919050506114c3565b005b34156105cf57600080fd5b6105fb600480803573ffffffffffffffffffffffffffffffffffffffff16906020019091905050611631565b604051808215151515815260200191505060405180910390f35b341561062057600080fd5b610628611651565b6040518082815260200191505060405180910390f35b341561064957600080fd5b610651611657565b604051808273ffffffffffffffffffffffffffffffffffffffff1673ffffffffffffffffffffffffffffffffffffffff16815260200191505060405180910390f35b341561069e57600080fd5b6106a661167d565b005b34156106b357600080fd5b6106c96004808035906020019091905050611cda565b6040518082815260200191505060405180910390f35b6106e7611cf2565b005b34156106f457600080fd5b6106fc61206b565b6040518082815260200191505060405180910390f35b341561071d57600080fd5b61075d6004808035151590602001909190803573ffffffffffffffffffffffffffffffffffffffff16906020019091908035906020019091905050612071565b005b341561076a57600080fd5b610772612420565b604051808273ffffffffffffffffffffffffffffffffffffffff1673ffffffffffffffffffffffffffffffffffffffff16815260200191505060405180910390f35b34156107bf57600080fd5b6107eb600480803573ffffffffffffffffffffffffffffffffffffffff16906020019091905050612446565b6040518082815260200191505060405180910390f35b341561080c57600080fd5b61081461245e565b6040518082815260200191505060405180910390f35b60138181548110151561083957fe5b90600052602060002090600302016000915090508060000160009054906101000a900460ff16908060000160019054906101000a900473ffffffffffffffffffffffffffffffffffffffff16908060010154905083565b600080600080600f60009054906101000a900460ff1615156108b157600080fd5b6108c8600a5460095461246490919063ffffffff16565b42101515156108d657600080fd5b600f60029054906101000a900460ff161561099657601460009054906101000a900473ffffffffffffffffffffffffffffffffffffffff1673ffffffffffffffffffffffffffffffffffffffff16637d64bcb46000604051602001526040518163ffffffff167c0100000000000000000000000000000000000000000000000000000000028152600401602060405180830381600087803b151561097957600080fd5b6102c65a03f1151561098a57600080fd5b50505060405180519050505b6000600f60006101000a81548160ff0219169083151502179055506000600f60026101000a81548160ff0219169083151502179055503073ffffffffffffffffffffffffffffffffffffffff16316007819055503073ffffffffffffffffffffffffffffffffffffffff1631600881905550610a36600054600a0a610a28600754600e5461248290919063ffffffff16565b6124b590919063ffffffff16565b9350600092505b600180549050831015610d2257600183815481101515610a5957fe5b906000526020600020900160009054906101000a900473ffffffffffffffffffffffffffffffffffffffff169150610b01600454610af3600360008673ffffffffffffffffffffffffffffffffffffffff1673ffffffffffffffffffffffffffffffffffffffff16815260200190815260200160002054610ae5886007546124d090919063ffffffff16565b61248290919063ffffffff16565b6124b590919063ffffffff16565b9050610cc1610cb2601460009054906101000a900473ffffffffffffffffffffffffffffffffffffffff1673ffffffffffffffffffffffffffffffffffffffff166318160ddd6000604051602001526040518163ffffffff167c0100000000000000000000000000000000000000000000000000000000028152600401602060405180830381600087803b1515610b9757600080fd5b6102c65a03f11515610ba857600080fd5b50505060405180519050610ca4601460009054906101000a900473ffffffffffffffffffffffffffffffffffffffff1673ffffffffffffffffffffffffffffffffffffffff166370a08231876000604051602001526040518263ffffffff167c0100000000000000000000000000000000000000000000000000000000028152600401808273ffffffffffffffffffffffffffffffffffffffff1673ffffffffffffffffffffffffffffffffffffffff168152602001915050602060405180830381600087803b1515610c7a57600080fd5b6102c65a03f11515610c8b57600080fd5b505050604051805190508861248290919063ffffffff16565b6124b590919063ffffffff16565b8261246490919063ffffffff16565b905080601060008473ffffffffffffffffffffffffffffffffffffffff1673ffffffffffffffffffffffffffffffffffffffff16815260200190815260200160002081905550610d1b60018461246490919063ffffffff16565b9250610a3d565b60136000610d3091906124e9565b7f4878ecf95e0ab851e92c9860805d02e6413f8379c7702dc1adefab976c7a9ec3426040518082815260200191505060405180910390a150505050565b600f60029054906101000a900460ff1681565b600b5481565b6000610d9f600b5460095461246490919063ffffffff16565b42101515610dac57600080fd5b600260003373ffffffffffffffffffffffffffffffffffffffff1673ffffffffffffffffffffffffffffffffffffffff16815260200190815260200160002060009054906101000a900460ff161515610e0457600080fd5b600f60029054906101000a900460ff16151515610e2057600080fd5b610e2a3383610fbe565b9050610e7e81600360003373ffffffffffffffffffffffffffffffffffffffff1673ffffffffffffffffffffffffffffffffffffffff168152602001908152602001600020546124d090919063ffffffff16565b600360003373ffffffffffffffffffffffffffffffffffffffff1673ffffffffffffffffffffffffffffffffffffffff16815260200190815260200160002081905550610ed6816004546124d090919063ffffffff16565b600481905550610ef1826007546124d090919063ffffffff16565b6007819055503373ffffffffffffffffffffffffffffffffffffffff166108fc839081150290604051600060405180830381858888f193505050501515610f3757600080fd5b5050565b600d5481565b60005481565b600181815481101515610f5657fe5b90600052602060002090016000915054906101000a900473ffffffffffffffffffffffffffffffffffffffff1681565b600f60009054906101000a900460ff1681565b6012602052816000526040600020602052806000526040600020600091509150505481565b6000611063601060008573ffffffffffffffffffffffffffffffffffffffff1673ffffffffffffffffffffffffffffffffffffffff16815260200190815260200160002054611055600360008773ffffffffffffffffffffffffffffffffffffffff1673ffffffffffffffffffffffffffffffffffffffff168152602001908152602001600020548561248290919063ffffffff16565b6124b590919063ffffffff16565b905092915050565b600e5481565b60036020528060005260406000206000915090505481565b60045481565b6110a6600b5460095461246490919063ffffffff16565b421015156110b357600080fd5b600260003373ffffffffffffffffffffffffffffffffffffffff1673ffffffffffffffffffffffffffffffffffffffff16815260200190815260200160002060009054906101000a900460ff16151561110b57600080fd5b6013805490508210151561111e57600080fd5b601460009054906101000a900473ffffffffffffffffffffffffffffffffffffffff1673ffffffffffffffffffffffffffffffffffffffff166370a08231336000604051602001526040518263ffffffff167c0100000000000000000000000000000000000000000000000000000000028152600401808273ffffffffffffffffffffffffffffffffffffffff1673ffffffffffffffffffffffffffffffffffffffff168152602001915050602060405180830381600087803b15156111e357600080fd5b6102c65a03f115156111f457600080fd5b50505060405180519050811115151561120c57600080fd5b61123281601160008581526020019081526020016000205461246490919063ffffffff16565b60116000848152602001908152602001600020819055506112ac816012600085815260200190815260200160002060003373ffffffffffffffffffffffffffffffffffffffff1673ffffffffffffffffffffffffffffffffffffffff1681526020019081526020016000205461246490919063ffffffff16565b6012600084815260200190815260200160002060003373ffffffffffffffffffffffffffffffffffffffff1673ffffffffffffffffffffffffffffffffffffffff16815260200190815260200160002081905550601460009054906101000a900473ffffffffffffffffffffffffffffffffffffffff1673ffffffffffffffffffffffffffffffffffffffff16632bee7bde33836000604051602001526040518363ffffffff167c0100000000000000000000000000000000000000000000000000000000028152600401808373ffffffffffffffffffffffffffffffffffffffff1673ffffffffffffffffffffffffffffffffffffffff16815260200182815260200192505050602060405180830381600087803b15156113cd57600080fd5b6102c65a03f115156113de57600080fd5b50505060405180519050505050565b60075481565b600f60009054906101000a900460ff1615151561140f57600080fd5b611426600a5460095461246490919063ffffffff16565b421015151561143457600080fd5b6001600f60006101000a81548160ff0219169083151502179055506000600f60016101000a81548160ff021916908315150217905550426009819055507fc8a0332abe200b5e7ff117e01b27b1ea7e989a7152ad8690ca1e0f0cb1157c3f426040518082815260200191505060405180910390a1565b600a5481565b600f60019054906101000a900460ff1681565b600560009054906101000a900473ffffffffffffffffffffffffffffffffffffffff1673ffffffffffffffffffffffffffffffffffffffff163373ffffffffffffffffffffffffffffffffffffffff1614151561151f57600080fd5b600260008273ffffffffffffffffffffffffffffffffffffffff1673ffffffffffffffffffffffffffffffffffffffff16815260200190815260200160002060009054906101000a900460ff16151561162e576001600260008373ffffffffffffffffffffffffffffffffffffffff1673ffffffffffffffffffffffffffffffffffffffff16815260200190815260200160002060006101000a81548160ff021916908315150217905550600180548060010182816115de919061250d565b9160005260206000209001600083909190916101000a81548173ffffffffffffffffffffffffffffffffffffffff021916908373ffffffffffffffffffffffffffffffffffffffff160217905550505b50565b60026020528060005260406000206000915054906101000a900460ff1681565b60095481565b600660009054906101000a900473ffffffffffffffffffffffffffffffffffffffff1681565b6000806000806000806000600f60019054906101000a900460ff161515156116a457600080fd5b6116bb600b5460095461246490919063ffffffff16565b42101515156116c957600080fd5b6116e0600a5460095461246490919063ffffffff16565b421015156116ed57600080fd5b6001600f60016101000a81548160ff021916908315150217905550600096505b600180549050871015611af257600095505b601380549050861015611ad75760018781548110151561173b57fe5b906000526020600020900160009054906101000a900473ffffffffffffffffffffffffffffffffffffffff16945060138681548110151561177857fe5b906000526020600020906003020160020160008673ffffffffffffffffffffffffffffffffffffffff1673ffffffffffffffffffffffffffffffffffffffff16815260200190815260200160002060009054906101000a900460ff169350831580156118c357506000601460009054906101000a900473ffffffffffffffffffffffffffffffffffffffff1673ffffffffffffffffffffffffffffffffffffffff166370a08231876000604051602001526040518263ffffffff167c0100000000000000000000000000000000000000000000000000000000028152600401808273ffffffffffffffffffffffffffffffffffffffff1673ffffffffffffffffffffffffffffffffffffffff168152602001915050602060405180830381600087803b15156118a657600080fd5b6102c65a03f115156118b757600080fd5b50505060405180519050115b15611abc576119d06000546119c2600c54601460009054906101000a900473ffffffffffffffffffffffffffffffffffffffff1673ffffffffffffffffffffffffffffffffffffffff166370a082318a6000604051602001526040518263ffffffff167c0100000000000000000000000000000000000000000000000000000000028152600401808273ffffffffffffffffffffffffffffffffffffffff1673ffffffffffffffffffffffffffffffffffffffff168152602001915050602060405180830381600087803b151561199957600080fd5b6102c65a03f115156119aa57600080fd5b5050506040518051905061248290919063ffffffff16565b6124b590919063ffffffff16565b9250601460009054906101000a900473ffffffffffffffffffffffffffffffffffffffff1673ffffffffffffffffffffffffffffffffffffffff16632bee7bde86856000604051602001526040518363ffffffff167c0100000000000000000000000000000000000000000000000000000000028152600401808373ffffffffffffffffffffffffffffffffffffffff1673ffffffffffffffffffffffffffffffffffffffff16815260200182815260200192505050602060405180830381600087803b1515611a9f57600080fd5b6102c65a03f11515611ab057600080fd5b50505060405180519050505b611ad060018761246490919063ffffffff16565b955061171f565b611aeb60018861246490919063ffffffff16565b965061170d565b60009150600096505b601380549050871015611c1c57611bea601460009054906101000a900473ffffffffffffffffffffffffffffffffffffffff1673ffffffffffffffffffffffffffffffffffffffff166318160ddd6000604051602001526040518163ffffffff167c0100000000000000000000000000000000000000000000000000000000028152600401602060405180830381600087803b1515611b9957600080fd5b6102c65a03f11515611baa57600080fd5b50505060405180519050611bdc601160008b81526020019081526020016000205460075461248290919063ffffffff16565b6124b590919063ffffffff16565b9050611bff818361246490919063ffffffff16565b9150611c1560018861246490919063ffffffff16565b9650611afb565b601560009054906101000a900473ffffffffffffffffffffffffffffffffffffffff1673ffffffffffffffffffffffffffffffffffffffff168260405180807f6465706f73697400000000000000000000000000000000000000000000000000815250602001905060006040518083038185876187965a03f192505050507f87a2225345e9725a08032af379cf06b2dada438a5f4e594bc1ed005a170bf53c426040518082815260200191505060405180910390a150505050505050565b60116020528060005260406000206000915090505481565b611d09600b5460095461246490919063ffffffff16565b42101515611d1657600080fd5b600260003373ffffffffffffffffffffffffffffffffffffffff1673ffffffffffffffffffffffffffffffffffffffff16815260200190815260200160002060009054906101000a900460ff161515611e255760018054806001018281611d7d919061250d565b9160005260206000209001600033909190916101000a81548173ffffffffffffffffffffffffffffffffffffffff021916908373ffffffffffffffffffffffffffffffffffffffff160217905550506001600260003373ffffffffffffffffffffffffffffffffffffffff1673ffffffffffffffffffffffffffffffffffffffff16815260200190815260200160002060006101000a81548160ff0219169083151502179055505b611e7734600360003373ffffffffffffffffffffffffffffffffffffffff1673ffffffffffffffffffffffffffffffffffffffff1681526020019081526020016000205461246490919063ffffffff16565b600360003373ffffffffffffffffffffffffffffffffffffffff1673ffffffffffffffffffffffffffffffffffffffff16815260200190815260200160002081905550611ecf3460045461246490919063ffffffff16565b600481905550611f2734601060003373ffffffffffffffffffffffffffffffffffffffff1673ffffffffffffffffffffffffffffffffffffffff1681526020019081526020016000205461246490919063ffffffff16565b601060003373ffffffffffffffffffffffffffffffffffffffff1673ffffffffffffffffffffffffffffffffffffffff16815260200190815260200160002081905550600f60029054906101000a900460ff161561206957601460009054906101000a900473ffffffffffffffffffffffffffffffffffffffff1673ffffffffffffffffffffffffffffffffffffffff166340c10f1933346000604051602001526040518363ffffffff167c0100000000000000000000000000000000000000000000000000000000028152600401808373ffffffffffffffffffffffffffffffffffffffff1673ffffffffffffffffffffffffffffffffffffffff16815260200182815260200192505050602060405180830381600087803b151561204c57600080fd5b6102c65a03f1151561205d57600080fd5b50505060405180519050505b565b600c5481565b612088600b5460095461246490919063ffffffff16565b4210151561209557600080fd5b600260003373ffffffffffffffffffffffffffffffffffffffff1673ffffffffffffffffffffffffffffffffffffffff16815260200190815260200160002060009054906101000a900460ff1615156120ed57600080fd5b600d5460138054905010151561210257600080fd5b600f60029054906101000a900460ff16801561215d5750600360003373ffffffffffffffffffffffffffffffffffffffff1673ffffffffffffffffffffffffffffffffffffffff168152602001908152602001600020548111155b8061232e5750600f60029054906101000a900460ff1615801561232d575061232960085461231b601460009054906101000a900473ffffffffffffffffffffffffffffffffffffffff1673ffffffffffffffffffffffffffffffffffffffff166318160ddd6000604051602001526040518163ffffffff167c0100000000000000000000000000000000000000000000000000000000028152600401602060405180830381600087803b151561221257600080fd5b6102c65a03f1151561222357600080fd5b50505060405180519050601460009054906101000a900473ffffffffffffffffffffffffffffffffffffffff1673ffffffffffffffffffffffffffffffffffffffff166370a08231336000604051602001526040518263ffffffff167c0100000000000000000000000000000000000000000000000000000000028152600401808273ffffffffffffffffffffffffffffffffffffffff1673ffffffffffffffffffffffffffffffffffffffff168152602001915050602060405180830381600087803b15156122f257600080fd5b6102c65a03f1151561230357600080fd5b505050604051805190506124b590919063ffffffff16565b61248290919063ffffffff16565b8111155b5b151561233957600080fd5b600754811115151561234a57600080fd5b6013805480600101828161235e9190612539565b9160005260206000209060030201600060606040519081016040528087151581526020018673ffffffffffffffffffffffffffffffffffffffff16815260200185815250909190915060008201518160000160006101000a81548160ff02191690831515021790555060208201518160000160016101000a81548173ffffffffffffffffffffffffffffffffffffffff021916908373ffffffffffffffffffffffffffffffffffffffff16021790555060408201518160010155505050505050565b600560009054906101000a900473ffffffffffffffffffffffffffffffffffffffff1681565b60106020528060005260406000206000915090505481565b60085481565b600080828401905083811015151561247857fe5b8091505092915050565b600080828402905060008414806124a357508284828115156124a057fe5b04145b15156124ab57fe5b8091505092915050565b60008082848115156124c357fe5b0490508091505092915050565b60008282111515156124de57fe5b818303905092915050565b508054600082556003029060005260206000209081019061250a919061256b565b50565b8154818355818115116125345781836000526020600020918201910161253391906125cd565b5b505050565b81548183558181151161256657600302816003028360005260206000209182019101612565919061256b565b5b505050565b6125ca91905b808211156125c657600080820160006101000a81549060ff02191690556000820160016101000a81549073ffffffffffffffffffffffffffffffffffffffff0219169055600182016000905550600301612571565b5090565b90565b6125ef91905b808211156125eb5760008160009055506001016125d3565b5090565b905600a165627a7a72305820a24ac65d5117ab5f5a8e1fb5240fd95e4befe7a72c9921864dfac688f88bcc9f002960606040526000600360146101000a81548160ff02191690831515021790555033600360006101000a81548173ffffffffffffffffffffffffffffffffffffffff021916908373ffffffffffffffffffffffffffffffffffffffff160217905550611b698061006f6000396000f3006060604052600436106100d0576000357c0100000000000000000000000000000000000000000000000000000000900463ffffffff16806305d2035b146100d5578063095ea7b31461010257806318160ddd1461015c57806323b872dd146101855780632bee7bde146101fe57806340c10f191461025857806366188463146102b257806370a082311461030c5780637d64bcb4146103595780638da5cb5b14610386578063a9059cbb146103db578063d73dd62314610435578063dd62ed3e1461048f578063f2fde38b146104fb575b600080fd5b34156100e057600080fd5b6100e8610534565b604051808215151515815260200191505060405180910390f35b341561010d57600080fd5b610142600480803573ffffffffffffffffffffffffffffffffffffffff16906020019091908035906020019091905050610547565b604051808215151515815260200191505060405180910390f35b341561016757600080fd5b61016f610639565b6040518082815260200191505060405180910390f35b341561019057600080fd5b6101e4600480803573ffffffffffffffffffffffffffffffffffffffff1690602001909190803573ffffffffffffffffffffffffffffffffffffffff1690602001909190803590602001909190505061063f565b604051808215151515815260200191505060405180910390f35b341561020957600080fd5b61023e600480803573ffffffffffffffffffffffffffffffffffffffff16906020019091908035906020019091905050610b80565b604051808215151515815260200191505060405180910390f35b341561026357600080fd5b610298600480803573ffffffffffffffffffffffffffffffffffffffff16906020019091908035906020019091905050610e07565b604051808215151515815260200191505060405180910390f35b34156102bd57600080fd5b6102f2600480803573ffffffffffffffffffffffffffffffffffffffff16906020019091908035906020019091905050610fd9565b604051808215151515815260200191505060405180910390f35b341561031757600080fd5b610343600480803573ffffffffffffffffffffffffffffffffffffffff1690602001909190505061126a565b6040518082815260200191505060405180910390f35b341561036457600080fd5b61036c6112b3565b604051808215151515815260200191505060405180910390f35b341561039157600080fd5b61039961135f565b604051808273ffffffffffffffffffffffffffffffffffffffff1673ffffffffffffffffffffffffffffffffffffffff16815260200191505060405180910390f35b34156103e657600080fd5b61041b600480803573ffffffffffffffffffffffffffffffffffffffff16906020019091908035906020019091905050611385565b604051808215151515815260200191505060405180910390f35b341561044057600080fd5b610475600480803573ffffffffffffffffffffffffffffffffffffffff1690602001909190803590602001909190505061172b565b604051808215151515815260200191505060405180910390f35b341561049a57600080fd5b6104e5600480803573ffffffffffffffffffffffffffffffffffffffff1690602001909190803573ffffffffffffffffffffffffffffffffffffffff16906020019091905050611927565b6040518082815260200191505060405180910390f35b341561050657600080fd5b610532600480803573ffffffffffffffffffffffffffffffffffffffff169060200190919050506119ae565b005b600360149054906101000a900460ff1681565b600081600260003373ffffffffffffffffffffffffffffffffffffffff1673ffffffffffffffffffffffffffffffffffffffff16815260200190815260200160002060008573ffffffffffffffffffffffffffffffffffffffff1673ffffffffffffffffffffffffffffffffffffffff168152602001908152602001600020819055508273ffffffffffffffffffffffffffffffffffffffff163373ffffffffffffffffffffffffffffffffffffffff167f8c5be1e5ebec7d5bd14f71427d1e84f3dd0314c0f7b2291e5b200ac8c7c3b925846040518082815260200191505060405180910390a36001905092915050565b60005481565b600080600073ffffffffffffffffffffffffffffffffffffffff168473ffffffffffffffffffffffffffffffffffffffff161415151561067e57600080fd5b600160008673ffffffffffffffffffffffffffffffffffffffff1673ffffffffffffffffffffffffffffffffffffffff1681526020019081526020016000205483111515156106cc57600080fd5b600260008673ffffffffffffffffffffffffffffffffffffffff1673ffffffffffffffffffffffffffffffffffffffff16815260200190815260200160002060003373ffffffffffffffffffffffffffffffffffffffff1673ffffffffffffffffffffffffffffffffffffffff16815260200190815260200160002054831115151561075757600080fd5b600460008573ffffffffffffffffffffffffffffffffffffffff1673ffffffffffffffffffffffffffffffffffffffff16815260200190815260200160002060009054906101000a900460ff1615156108d6576001600460008673ffffffffffffffffffffffffffffffffffffffff1673ffffffffffffffffffffffffffffffffffffffff16815260200190815260200160002060006101000a81548160ff021916908315150217905550600360009054906101000a900473ffffffffffffffffffffffffffffffffffffffff1690508073ffffffffffffffffffffffffffffffffffffffff1663883d6b7b856040518263ffffffff167c0100000000000000000000000000000000000000000000000000000000028152600401808273ffffffffffffffffffffffffffffffffffffffff1673ffffffffffffffffffffffffffffffffffffffff168152602001915050600060405180830381600087803b15156108c157600080fd5b6102c65a03f115156108d257600080fd5b5050505b61092883600160008873ffffffffffffffffffffffffffffffffffffffff1673ffffffffffffffffffffffffffffffffffffffff16815260200190815260200160002054611b0690919063ffffffff16565b600160008773ffffffffffffffffffffffffffffffffffffffff1673ffffffffffffffffffffffffffffffffffffffff168152602001908152602001600020819055506109bd83600160008773ffffffffffffffffffffffffffffffffffffffff1673ffffffffffffffffffffffffffffffffffffffff16815260200190815260200160002054611b1f90919063ffffffff16565b600160008673ffffffffffffffffffffffffffffffffffffffff1673ffffffffffffffffffffffffffffffffffffffff16815260200190815260200160002081905550610a8f83600260008873ffffffffffffffffffffffffffffffffffffffff1673ffffffffffffffffffffffffffffffffffffffff16815260200190815260200160002060003373ffffffffffffffffffffffffffffffffffffffff1673ffffffffffffffffffffffffffffffffffffffff16815260200190815260200160002054611b0690919063ffffffff16565b600260008773ffffffffffffffffffffffffffffffffffffffff1673ffffffffffffffffffffffffffffffffffffffff16815260200190815260200160002060003373ffffffffffffffffffffffffffffffffffffffff1673ffffffffffffffffffffffffffffffffffffffff168152602001908152602001600020819055508373ffffffffffffffffffffffffffffffffffffffff168573ffffffffffffffffffffffffffffffffffffffff167fddf252ad1be2c89b69c2b068fc378daa952ba7f163c4a11628f55a4df523b3ef856040518082815260200191505060405180910390a360019150509392505050565b6000600360009054906101000a900473ffffffffffffffffffffffffffffffffffffffff1673ffffffffffffffffffffffffffffffffffffffff163373ffffffffffffffffffffffffffffffffffffffff16141515610bde57600080fd5b600073ffffffffffffffffffffffffffffffffffffffff168373ffffffffffffffffffffffffffffffffffffffff1614151515610c1a57600080fd5b600160008473ffffffffffffffffffffffffffffffffffffffff1673ffffffffffffffffffffffffffffffffffffffff168152602001908152602001600020548211151515610c6857600080fd5b610cba82600160008673ffffffffffffffffffffffffffffffffffffffff1673ffffffffffffffffffffffffffffffffffffffff16815260200190815260200160002054611b0690919063ffffffff16565b600160008573ffffffffffffffffffffffffffffffffffffffff1673ffffffffffffffffffffffffffffffffffffffff16815260200190815260200160002081905550610d4f82600160003373ffffffffffffffffffffffffffffffffffffffff1673ffffffffffffffffffffffffffffffffffffffff16815260200190815260200160002054611b1f90919063ffffffff16565b600160003373ffffffffffffffffffffffffffffffffffffffff1673ffffffffffffffffffffffffffffffffffffffff168152602001908152602001600020819055507f285da9122e12f24158745e2179a8da30488f6fa4a6292da22f90b18d9b59201e8383604051808373ffffffffffffffffffffffffffffffffffffffff1673ffffffffffffffffffffffffffffffffffffffff1681526020018281526020019250505060405180910390a16001905092915050565b6000600360009054906101000a900473ffffffffffffffffffffffffffffffffffffffff1673ffffffffffffffffffffffffffffffffffffffff163373ffffffffffffffffffffffffffffffffffffffff16141515610e6557600080fd5b600360149054906101000a900460ff16151515610e8157600080fd5b610e9682600054611b1f90919063ffffffff16565b600081905550610eee82600160008673ffffffffffffffffffffffffffffffffffffffff1673ffffffffffffffffffffffffffffffffffffffff16815260200190815260200160002054611b1f90919063ffffffff16565b600160008573ffffffffffffffffffffffffffffffffffffffff1673ffffffffffffffffffffffffffffffffffffffff168152602001908152602001600020819055508273ffffffffffffffffffffffffffffffffffffffff167f0f6798a560793a54c3bcfe86a93cde1e73087d944c0ea20544137d4121396885836040518082815260200191505060405180910390a28273ffffffffffffffffffffffffffffffffffffffff1660007fddf252ad1be2c89b69c2b068fc378daa952ba7f163c4a11628f55a4df523b3ef846040518082815260200191505060405180910390a36001905092915050565b600080600260003373ffffffffffffffffffffffffffffffffffffffff1673ffffffffffffffffffffffffffffffffffffffff16815260200190815260200160002060008573ffffffffffffffffffffffffffffffffffffffff1673ffffffffffffffffffffffffffffffffffffffff168152602001908152602001600020549050808311156110ea576000600260003373ffffffffffffffffffffffffffffffffffffffff1673ffffffffffffffffffffffffffffffffffffffff16815260200190815260200160002060008673ffffffffffffffffffffffffffffffffffffffff1673ffffffffffffffffffffffffffffffffffffffff1681526020019081526020016000208190555061117e565b6110fd8382611b0690919063ffffffff16565b600260003373ffffffffffffffffffffffffffffffffffffffff1673ffffffffffffffffffffffffffffffffffffffff16815260200190815260200160002060008673ffffffffffffffffffffffffffffffffffffffff1673ffffffffffffffffffffffffffffffffffffffff168152602001908152602001600020819055505b8373ffffffffffffffffffffffffffffffffffffffff163373ffffffffffffffffffffffffffffffffffffffff167f8c5be1e5ebec7d5bd14f71427d1e84f3dd0314c0f7b2291e5b200ac8c7c3b925600260003373ffffffffffffffffffffffffffffffffffffffff1673ffffffffffffffffffffffffffffffffffffffff16815260200190815260200160002060008873ffffffffffffffffffffffffffffffffffffffff1673ffffffffffffffffffffffffffffffffffffffff168152602001908152602001600020546040518082815260200191505060405180910390a3600191505092915050565b6000600160008373ffffffffffffffffffffffffffffffffffffffff1673ffffffffffffffffffffffffffffffffffffffff168152602001908152602001600020549050919050565b6000600360009054906101000a900473ffffffffffffffffffffffffffffffffffffffff1673ffffffffffffffffffffffffffffffffffffffff163373ffffffffffffffffffffffffffffffffffffffff1614151561131157600080fd5b6001600360146101000a81548160ff0219169083151502179055507fae5184fba832cb2b1f702aca6117b8d265eaf03ad33eb133f19dde0f5920fa0860405160405180910390a16001905090565b600360009054906101000a900473ffffffffffffffffffffffffffffffffffffffff1681565b600080600073ffffffffffffffffffffffffffffffffffffffff168473ffffffffffffffffffffffffffffffffffffffff16141515156113c457600080fd5b600160003373ffffffffffffffffffffffffffffffffffffffff1673ffffffffffffffffffffffffffffffffffffffff16815260200190815260200160002054831115151561141257600080fd5b600460008573ffffffffffffffffffffffffffffffffffffffff1673ffffffffffffffffffffffffffffffffffffffff16815260200190815260200160002060009054906101000a900460ff161515611591576001600460008673ffffffffffffffffffffffffffffffffffffffff1673ffffffffffffffffffffffffffffffffffffffff16815260200190815260200160002060006101000a81548160ff021916908315150217905550600360009054906101000a900473ffffffffffffffffffffffffffffffffffffffff1690508073ffffffffffffffffffffffffffffffffffffffff1663883d6b7b856040518263ffffffff167c0100000000000000000000000000000000000000000000000000000000028152600401808273ffffffffffffffffffffffffffffffffffffffff1673ffffffffffffffffffffffffffffffffffffffff168152602001915050600060405180830381600087803b151561157c57600080fd5b6102c65a03f1151561158d57600080fd5b5050505b6115e383600160003373ffffffffffffffffffffffffffffffffffffffff1673ffffffffffffffffffffffffffffffffffffffff16815260200190815260200160002054611b0690919063ffffffff16565b600160003373ffffffffffffffffffffffffffffffffffffffff1673ffffffffffffffffffffffffffffffffffffffff1681526020019081526020016000208190555061167883600160008773ffffffffffffffffffffffffffffffffffffffff1673ffffffffffffffffffffffffffffffffffffffff16815260200190815260200160002054611b1f90919063ffffffff16565b600160008673ffffffffffffffffffffffffffffffffffffffff1673ffffffffffffffffffffffffffffffffffffffff168152602001908152602001600020819055508373ffffffffffffffffffffffffffffffffffffffff163373ffffffffffffffffffffffffffffffffffffffff167fddf252ad1be2c89b69c2b068fc378daa952ba7f163c4a11628f55a4df523b3ef856040518082815260200191505060405180910390a3600191505092915050565b60006117bc82600260003373ffffffffffffffffffffffffffffffffffffffff1673ffffffffffffffffffffffffffffffffffffffff16815260200190815260200160002060008673ffffffffffffffffffffffffffffffffffffffff1673ffffffffffffffffffffffffffffffffffffffff16815260200190815260200160002054611b1f90919063ffffffff16565b600260003373ffffffffffffffffffffffffffffffffffffffff1673ffffffffffffffffffffffffffffffffffffffff16815260200190815260200160002060008573ffffffffffffffffffffffffffffffffffffffff1673ffffffffffffffffffffffffffffffffffffffff168152602001908152602001600020819055508273ffffffffffffffffffffffffffffffffffffffff163373ffffffffffffffffffffffffffffffffffffffff167f8c5be1e5ebec7d5bd14f71427d1e84f3dd0314c0f7b2291e5b200ac8c7c3b925600260003373ffffffffffffffffffffffffffffffffffffffff1673ffffffffffffffffffffffffffffffffffffffff16815260200190815260200160002060008773ffffffffffffffffffffffffffffffffffffffff1673ffffffffffffffffffffffffffffffffffffffff168152602001908152602001600020546040518082815260200191505060405180910390a36001905092915050565b6000600260008473ffffffffffffffffffffffffffffffffffffffff1673ffffffffffffffffffffffffffffffffffffffff16815260200190815260200160002060008373ffffffffffffffffffffffffffffffffffffffff1673ffffffffffffffffffffffffffffffffffffffff16815260200190815260200160002054905092915050565b600360009054906101000a900473ffffffffffffffffffffffffffffffffffffffff1673ffffffffffffffffffffffffffffffffffffffff163373ffffffffffffffffffffffffffffffffffffffff16141515611a0a57600080fd5b600073ffffffffffffffffffffffffffffffffffffffff168173ffffffffffffffffffffffffffffffffffffffff1614151515611a4657600080fd5b8073ffffffffffffffffffffffffffffffffffffffff16600360009054906101000a900473ffffffffffffffffffffffffffffffffffffffff1673ffffffffffffffffffffffffffffffffffffffff167f8be0079c531659141344cd1fd0a4f28419497f9722a3daafe3b4186f6b6457e060405160405180910390a380600360006101000a81548173ffffffffffffffffffffffffffffffffffffffff021916908373ffffffffffffffffffffffffffffffffffffffff16021790555050565b6000828211151515611b1457fe5b818303905092915050565b6000808284019050838110151515611b3357fe5b80915050929150505600a165627a7a723058201af0f4797ceba1f792c4bada007bd5e82a3aa84659c9b0814b8aca79f6e5efe50029",
  "source": "pragma solidity ^0.4.18;\r\n\r\nimport 'zeppelin-solidity/contracts/token/MintableToken.sol';\r\nimport 'zeppelin-solidity/contracts/math/SafeMath.sol';\r\nimport './etherdelta.sol';\r\n\r\n// The main contract that keeps track of:\r\n// - Who is in the fund\r\n// - How much the fund has\r\n// - Each person's Share\r\n// - Each person's Control\r\ncontract GroupFund {\r\n  using SafeMath for uint256;\r\n\r\n  struct Proposal {\r\n    bool isBuy;\r\n    address tokenAddress;\r\n    uint256 amount;\r\n    mapping(address => bool) userSupportsProposal;\r\n  }\r\n\r\n  modifier isChangeMakingTime {\r\n    require(now < startTimeOfCycle.add(timeOfChangeMaking));\r\n    _;\r\n  }\r\n\r\n  modifier onlyParticipant {\r\n    require(isParticipant[msg.sender]);\r\n    _;\r\n  }\r\n\r\n  //Number of decimals used for decimal numbers\r\n  uint256 public decimals;\r\n\r\n  // A list of everyone who is participating in the GroupFund\r\n  address[] public participants;\r\n  mapping(address => bool) public isParticipant;\r\n\r\n  // Maps user address to their initial deposit\r\n  mapping(address => uint256) public initialDeposit;\r\n  uint256 public totalInitialDeposit;\r\n\r\n  //Address of the control token\r\n  address public controlTokenAddr;\r\n\r\n  address public etherDeltaAddr;\r\n\r\n  // The total amount of funds held by the group\r\n  uint256 public totalFundsInWeis;\r\n\r\n  uint256 public totalFundsAtStartOfCycleInWeis;\r\n\r\n  //The start time for the current investment cycle, in seconds since Unix epoch\r\n  uint256 public startTimeOfCycle;\r\n\r\n  //Temporal length of each investment cycle, in seconds\r\n  uint256 public timeOfCycle;\r\n\r\n  //Temporal length of change making period at start of each cycle, in seconds\r\n  uint256 public timeOfChangeMaking;\r\n\r\n  //Proportion of control people who vote against a proposal have to stake\r\n  uint256 public againstStakeProportion;\r\n\r\n  uint256 public maxProposals;\r\n\r\n  uint256 public commissionRate;\r\n\r\n  //Indicates whether the cycle has started and is not past ending time\r\n  bool public cycleIsActive;\r\n\r\n  bool public changeMakingTimeHasEnded;\r\n\r\n  bool public isFirstCycle;\r\n\r\n  mapping(address => uint256) public balanceOfAtCycleStart;\r\n\r\n  mapping(uint256 => uint256) public stakedControlOfProposal;\r\n\r\n  mapping(uint256 => mapping(address => uint256)) public stakedControlOfProposalOfUser;\r\n\r\n  Proposal[] public proposals;\r\n  ControlToken internal cToken;\r\n  EtherDelta internal etherDelta;\r\n\r\n  event CycleStarted(uint256 timestamp);\r\n  event ChangeMakingTimeEnded(uint256 timestamp);\r\n  event CycleEnded(uint256 timestamp);\r\n\r\n  function GroupFund(\r\n    address _etherDeltaAddr,\r\n    uint256 _decimals,\r\n    uint256 _timeOfCycle,\r\n    uint256 _timeOfChangeMaking,\r\n    uint256 _againstStakeProportion,\r\n    uint256 _maxProposals,\r\n    uint256 _commissionRate\r\n  )\r\n    public\r\n  {\r\n    etherDeltaAddr = _etherDeltaAddr;\r\n    decimals = _decimals;\r\n    timeOfCycle = _timeOfCycle;\r\n    timeOfChangeMaking = _timeOfChangeMaking;\r\n    againstStakeProportion = _againstStakeProportion;\r\n    maxProposals = _maxProposals;\r\n    commissionRate = _commissionRate;\r\n    startTimeOfCycle = 0;\r\n    isFirstCycle = true;\r\n\r\n    //Create control token contract\r\n    cToken = new ControlToken();\r\n    controlTokenAddr = cToken;\r\n\r\n    //Initialize etherDelta contract\r\n    etherDelta = EtherDelta(etherDeltaAddr);\r\n  }\r\n\r\n  function startNewCycle() public {\r\n    require(!cycleIsActive);\r\n    require(now >= startTimeOfCycle.add(timeOfCycle));\r\n\r\n    cycleIsActive = true;\r\n    changeMakingTimeHasEnded = false;\r\n\r\n    startTimeOfCycle = now;\r\n    CycleStarted(now);\r\n  }\r\n\r\n  function createProposal(\r\n    bool _isBuy,\r\n    address _tokenAddress,\r\n    uint256 _amount\r\n  )\r\n    public\r\n    isChangeMakingTime\r\n    onlyParticipant\r\n  {\r\n    require(proposals.length < maxProposals);\r\n    require((isFirstCycle && _amount <= initialDeposit[msg.sender])\r\n      || (!isFirstCycle && _amount <= cToken.balanceOf(msg.sender).div(cToken.totalSupply()).mul(totalFundsAtStartOfCycleInWeis)));\r\n    require(_amount <= totalFundsInWeis);\r\n\r\n    proposals.push(Proposal({\r\n      isBuy: _isBuy,\r\n      tokenAddress: _tokenAddress,\r\n      amount: _amount\r\n    }));\r\n\r\n    //Make investment on etherdelta\r\n  }\r\n\r\n  function supportProposal(uint256 proposalId, uint256 controlStake)\r\n    public\r\n    isChangeMakingTime\r\n    onlyParticipant\r\n  {\r\n    require(proposalId < proposals.length);\r\n    require(controlStake <= cToken.balanceOf(msg.sender));\r\n\r\n    //Stake control tokens\r\n    stakedControlOfProposal[proposalId] = stakedControlOfProposal[proposalId].add(controlStake);\r\n    stakedControlOfProposalOfUser[proposalId][msg.sender] = stakedControlOfProposalOfUser[proposalId][msg.sender].add(controlStake);\r\n    cToken.ownerCollectFrom(msg.sender, controlStake);\r\n\r\n    //Make investment on etherdelta\r\n  }\r\n\r\n  function deposit()\r\n    public\r\n    payable\r\n    isChangeMakingTime\r\n  {\r\n    if (!isParticipant[msg.sender]) {\r\n      participants.push(msg.sender);\r\n      isParticipant[msg.sender] = true;\r\n    }\r\n\r\n    //Register investment\r\n    initialDeposit[msg.sender] = initialDeposit[msg.sender].add(msg.value);\r\n    totalInitialDeposit = totalInitialDeposit.add(msg.value);\r\n    balanceOfAtCycleStart[msg.sender] = balanceOfAtCycleStart[msg.sender].add(msg.value);\r\n\r\n    if (isFirstCycle) {\r\n      //Give control tokens proportional to investment\r\n      cToken.mint(msg.sender, msg.value);\r\n    }\r\n  }\r\n\r\n  function withdraw(uint256 amountInWeis)\r\n    public\r\n    isChangeMakingTime\r\n    onlyParticipant\r\n  {\r\n    require(!isFirstCycle);\r\n\r\n    uint256 reduceAmount = amountToReduceInitialDepositBy(msg.sender, amountInWeis);\r\n    initialDeposit[msg.sender] = initialDeposit[msg.sender].sub(reduceAmount);\r\n    totalInitialDeposit = totalInitialDeposit.sub(reduceAmount);\r\n    totalFundsInWeis = totalFundsInWeis.sub(amountInWeis);\r\n    //Todo: check if everything checks out mathematically\r\n\r\n    msg.sender.transfer(amountInWeis);\r\n  }\r\n\r\n  function endChangeMakingTime() public {\r\n    require(!changeMakingTimeHasEnded);\r\n    require(now >= startTimeOfCycle.add(timeOfChangeMaking));\r\n    require(now < startTimeOfCycle.add(timeOfCycle));\r\n\r\n    changeMakingTimeHasEnded = true;\r\n\r\n    //Stake against votes\r\n    for (uint256 i = 0; i < participants.length; i = i.add(1)) {\r\n      for (uint256 j = 0; j < proposals.length; j = j.add(1)) {\r\n        address participant = participants[i];\r\n        bool isFor = proposals[j].userSupportsProposal[participant];\r\n        if (!isFor && cToken.balanceOf(participant) > 0) {\r\n          //Unfair to later proposals\r\n          uint256 stakeAmount = cToken.balanceOf(participant).mul(againstStakeProportion).div(decimals);\r\n          cToken.ownerCollectFrom(participant, stakeAmount);\r\n        }\r\n      }\r\n    }\r\n\r\n    //Invest in tokens using etherdelta\r\n    uint256 totalInvestment = 0;\r\n    for (i = 0; i < proposals.length; i = i.add(1)) {\r\n      uint256 investAmount = totalFundsInWeis.mul(stakedControlOfProposal[i]).div(cToken.totalSupply());\r\n      totalInvestment = totalInvestment.add(investAmount);\r\n    }\r\n    //Deposit ether\r\n    etherDelta.call.value(totalInvestment)(\"deposit\");\r\n\r\n    ChangeMakingTimeEnded(now);\r\n  }\r\n\r\n  function endCycle() public {\r\n    require(cycleIsActive);\r\n    require(now >= startTimeOfCycle.add(timeOfCycle));\r\n\r\n    if (isFirstCycle) {\r\n      cToken.finishMinting();\r\n    }\r\n    cycleIsActive = false;\r\n    isFirstCycle = false;\r\n\r\n    //Sell all invested tokens\r\n\r\n    totalFundsInWeis = this.balance;\r\n    totalFundsAtStartOfCycleInWeis = this.balance;\r\n\r\n    //Distribute staked control tokens\r\n\r\n    //Distribute funds\r\n    uint256 totalCommission = commissionRate.mul(totalFundsInWeis).div(10**decimals);\r\n\r\n    for (uint256 i = 0; i < participants.length; i = i.add(1)) {\r\n      address participant = participants[i];\r\n      uint256 newBalance = totalFundsInWeis.sub(totalCommission).mul(initialDeposit[participant]).div(totalInitialDeposit);\r\n      //Add commission\r\n      newBalance = newBalance.add(totalCommission.mul(cToken.balanceOf(participant)).div(cToken.totalSupply()));\r\n      balanceOfAtCycleStart[participant] = newBalance;\r\n    }\r\n\r\n    //Reset data\r\n    delete proposals;\r\n\r\n    CycleEnded(now);\r\n  }\r\n\r\n  function addControlTokenReceipientAsParticipant(address receipient) public {\r\n    require(msg.sender == controlTokenAddr);\r\n    if (!isParticipant[receipient]) {\r\n      isParticipant[receipient] = true;\r\n      participants.push(receipient);\r\n    }\r\n  }\r\n\r\n  function amountToReduceInitialDepositBy(address user, uint256 amount) public view returns(uint) {\r\n    return amount.mul(initialDeposit[user]).div(balanceOfAtCycleStart[user]);\r\n  }\r\n\r\n  function() public {\r\n    revert();\r\n  }\r\n}\r\n\r\n//Proportional to Wei\r\ncontract ControlToken is MintableToken {\r\n  using SafeMath for uint256;\r\n\r\n  mapping(address => bool) hasOwnedTokens;\r\n\r\n  event OwnerCollectFrom(address _from, uint256 value);\r\n\r\n  function transfer(address _to, uint256 _value) public returns(bool) {\r\n    require(_to != address(0));\r\n    require(_value <= balances[msg.sender]);\r\n\r\n    //Add receipient as a participant if not already a participant\r\n    if (!hasOwnedTokens[_to]) {\r\n      hasOwnedTokens[_to] = true;\r\n      GroupFund g = GroupFund(owner);\r\n      g.addControlTokenReceipientAsParticipant(_to);\r\n    }\r\n\r\n    // SafeMath.sub will throw if there is not enough balance.\r\n    balances[msg.sender] = balances[msg.sender].sub(_value);\r\n    balances[_to] = balances[_to].add(_value);\r\n    Transfer(msg.sender, _to, _value);\r\n    return true;\r\n  }\r\n\r\n  function transferFrom(address _from, address _to, uint256 _value) public returns (bool) {\r\n    require(_to != address(0));\r\n    require(_value <= balances[_from]);\r\n    require(_value <= allowed[_from][msg.sender]);\r\n\r\n    //Add receipient as a participant if not already a participant\r\n    if (!hasOwnedTokens[_to]) {\r\n      hasOwnedTokens[_to] = true;\r\n      GroupFund g = GroupFund(owner);\r\n      g.addControlTokenReceipientAsParticipant(_to);\r\n    }\r\n\r\n    balances[_from] = balances[_from].sub(_value);\r\n    balances[_to] = balances[_to].add(_value);\r\n    allowed[_from][msg.sender] = allowed[_from][msg.sender].sub(_value);\r\n    Transfer(_from, _to, _value);\r\n    return true;\r\n  }\r\n\r\n  function ownerCollectFrom(address _from, uint256 _value) public onlyOwner returns(bool) {\r\n    require(_from != address(0));\r\n    require(_value <= balances[_from]);\r\n\r\n    // SafeMath.sub will throw if there is not enough balance.\r\n    balances[_from] = balances[_from].sub(_value);\r\n    balances[msg.sender] = balances[msg.sender].add(_value);\r\n    OwnerCollectFrom(_from, _value);\r\n    return true;\r\n  }\r\n}\r\n",
  "sourcePath": "D:\\msi-cn\\Documents\\GitHub\\betoken\\contracts\\betoken.sol",
  "compiler": {
    "name": "solc",
    "version": "0.4.18+commit.9cf6e910.Emscripten.clang"
  },
  "schemaVersion": "1.0.1",
  "updatedAt": "2017-11-12T01:25:32.143Z"
}