{
  "contractName": "GroupFund",
  "abi": [
    {
      "constant": true,
      "inputs": [
        {
          "name": "",
          "type": "uint256"
        }
      ],
      "name": "proposals",
      "outputs": [
        {
          "name": "tokenAddress",
          "type": "address"
        },
        {
          "name": "tokenSymbol",
          "type": "string"
        },
        {
          "name": "buyPriceInWeis",
          "type": "uint256"
        },
        {
          "name": "sellPriceInWeis",
          "type": "uint256"
        },
        {
          "name": "buyOrderExpirationBlockNum",
          "type": "uint256"
        },
        {
          "name": "sellOrderExpirationBlockNum",
          "type": "uint256"
        },
        {
          "name": "numFor",
          "type": "uint256"
        },
        {
          "name": "numAgainst",
          "type": "uint256"
        }
      ],
      "payable": false,
      "stateMutability": "view",
      "type": "function"
    },
    {
      "constant": true,
      "inputs": [],
      "name": "creator",
      "outputs": [
        {
          "name": "",
          "type": "address"
        }
      ],
      "payable": false,
      "stateMutability": "view",
      "type": "function"
    },
    {
      "constant": false,
      "inputs": [],
      "name": "endCycle",
      "outputs": [],
      "payable": false,
      "stateMutability": "nonpayable",
      "type": "function"
    },
    {
      "constant": false,
      "inputs": [
        {
          "name": "_queryId",
          "type": "bytes32"
        },
        {
          "name": "_proposalId",
          "type": "uint256"
        }
      ],
      "name": "__setProposalIdOfQuery",
      "outputs": [],
      "payable": false,
      "stateMutability": "nonpayable",
      "type": "function"
    },
    {
      "constant": true,
      "inputs": [
        {
          "name": "",
          "type": "uint256"
        },
        {
          "name": "",
          "type": "address"
        }
      ],
      "name": "forStakedControlOfProposalOfUser",
      "outputs": [
        {
          "name": "",
          "type": "uint256"
        }
      ],
      "payable": false,
      "stateMutability": "view",
      "type": "function"
    },
    {
      "constant": true,
      "inputs": [],
      "name": "isFirstCycle",
      "outputs": [
        {
          "name": "",
          "type": "bool"
        }
      ],
      "payable": false,
      "stateMutability": "view",
      "type": "function"
    },
    {
      "constant": true,
      "inputs": [],
      "name": "initialized",
      "outputs": [
        {
          "name": "",
          "type": "bool"
        }
      ],
      "payable": false,
      "stateMutability": "view",
      "type": "function"
    },
    {
      "constant": true,
      "inputs": [
        {
          "name": "",
          "type": "bytes32"
        }
      ],
      "name": "proposalIdOfQuery",
      "outputs": [
        {
          "name": "",
          "type": "uint256"
        }
      ],
      "payable": false,
      "stateMutability": "view",
      "type": "function"
    },
    {
      "constant": true,
      "inputs": [],
      "name": "timeOfChangeMaking",
      "outputs": [
        {
          "name": "",
          "type": "uint256"
        }
      ],
      "payable": false,
      "stateMutability": "view",
      "type": "function"
    },
    {
      "constant": false,
      "inputs": [
        {
          "name": "_amountInWeis",
          "type": "uint256"
        }
      ],
      "name": "withdraw",
      "outputs": [],
      "payable": false,
      "stateMutability": "nonpayable",
      "type": "function"
    },
    {
      "constant": true,
      "inputs": [
        {
          "name": "",
          "type": "uint256"
        },
        {
          "name": "",
          "type": "address"
        }
      ],
      "name": "againstStakedControlOfProposalOfUser",
      "outputs": [
        {
          "name": "",
          "type": "uint256"
        }
      ],
      "payable": false,
      "stateMutability": "view",
      "type": "function"
    },
    {
      "constant": true,
      "inputs": [],
      "name": "maxProposals",
      "outputs": [
        {
          "name": "",
          "type": "uint256"
        }
      ],
      "payable": false,
      "stateMutability": "view",
      "type": "function"
    },
    {
      "constant": false,
      "inputs": [
        {
          "name": "_queryId",
          "type": "bytes32"
        }
      ],
      "name": "__deleteProposalIdOfQuery",
      "outputs": [],
      "payable": false,
      "stateMutability": "nonpayable",
      "type": "function"
    },
    {
      "constant": true,
      "inputs": [],
      "name": "decimals",
      "outputs": [
        {
          "name": "",
          "type": "uint256"
        }
      ],
      "payable": false,
      "stateMutability": "view",
      "type": "function"
    },
    {
      "constant": true,
      "inputs": [
        {
          "name": "",
          "type": "uint256"
        }
      ],
      "name": "participants",
      "outputs": [
        {
          "name": "",
          "type": "address"
        }
      ],
      "payable": false,
      "stateMutability": "view",
      "type": "function"
    },
    {
      "constant": false,
      "inputs": [],
      "name": "topupOraclizeFees",
      "outputs": [],
      "payable": true,
      "stateMutability": "payable",
      "type": "function"
    },
    {
      "constant": true,
      "inputs": [],
      "name": "commissionRate",
      "outputs": [
        {
          "name": "",
          "type": "uint256"
        }
      ],
      "payable": false,
      "stateMutability": "view",
      "type": "function"
    },
    {
      "constant": true,
      "inputs": [
        {
          "name": "",
          "type": "address"
        }
      ],
      "name": "balanceOf",
      "outputs": [
        {
          "name": "",
          "type": "uint256"
        }
      ],
      "payable": false,
      "stateMutability": "view",
      "type": "function"
    },
    {
      "constant": false,
      "inputs": [
        {
          "name": "_proposalId",
          "type": "uint256"
        },
        {
          "name": "_amountInWeis",
          "type": "uint256"
        }
      ],
      "name": "supportProposal",
      "outputs": [],
      "payable": false,
      "stateMutability": "nonpayable",
      "type": "function"
    },
    {
      "constant": true,
      "inputs": [],
      "name": "totalFundsInWeis",
      "outputs": [
        {
          "name": "",
          "type": "uint256"
        }
      ],
      "payable": false,
      "stateMutability": "view",
      "type": "function"
    },
    {
      "constant": false,
      "inputs": [],
      "name": "startNewCycle",
      "outputs": [],
      "payable": false,
      "stateMutability": "nonpayable",
      "type": "function"
    },
    {
      "constant": true,
      "inputs": [],
      "name": "timeOfCycle",
      "outputs": [
        {
          "name": "",
          "type": "uint256"
        }
      ],
      "payable": false,
      "stateMutability": "view",
      "type": "function"
    },
    {
      "constant": true,
      "inputs": [],
      "name": "orderExpirationTimeInBlocks",
      "outputs": [
        {
          "name": "",
          "type": "uint256"
        }
      ],
      "payable": false,
      "stateMutability": "view",
      "type": "function"
    },
    {
      "constant": false,
      "inputs": [
        {
          "name": "_cTokenAddr",
          "type": "address"
        },
        {
          "name": "_oraclizeAddr",
          "type": "address"
        }
      ],
      "name": "initializeSubcontracts",
      "outputs": [],
      "payable": false,
      "stateMutability": "nonpayable",
      "type": "function"
    },
    {
      "constant": false,
      "inputs": [],
      "name": "finalizeEndCycle",
      "outputs": [],
      "payable": false,
      "stateMutability": "nonpayable",
      "type": "function"
    },
    {
      "constant": true,
      "inputs": [],
      "name": "owner",
      "outputs": [
        {
          "name": "",
          "type": "address"
        }
      ],
      "payable": false,
      "stateMutability": "view",
      "type": "function"
    },
    {
      "constant": false,
      "inputs": [],
      "name": "endProposalMakingTime",
      "outputs": [],
      "payable": false,
      "stateMutability": "nonpayable",
      "type": "function"
    },
    {
      "constant": true,
      "inputs": [
        {
          "name": "",
          "type": "address"
        }
      ],
      "name": "isParticipant",
      "outputs": [
        {
          "name": "",
          "type": "bool"
        }
      ],
      "payable": false,
      "stateMutability": "view",
      "type": "function"
    },
    {
      "constant": true,
      "inputs": [],
      "name": "startTimeOfCycle",
      "outputs": [
        {
          "name": "",
          "type": "uint256"
        }
      ],
      "payable": false,
      "stateMutability": "view",
      "type": "function"
    },
    {
      "constant": true,
      "inputs": [],
      "name": "etherDeltaAddr",
      "outputs": [
        {
          "name": "",
          "type": "address"
        }
      ],
      "payable": false,
      "stateMutability": "view",
      "type": "function"
    },
    {
      "constant": false,
      "inputs": [
        {
          "name": "_tokenAddress",
          "type": "address"
        },
        {
          "name": "_tokenSymbol",
          "type": "string"
        },
        {
          "name": "_amountInWeis",
          "type": "uint256"
        }
      ],
      "name": "createProposal",
      "outputs": [],
      "payable": false,
      "stateMutability": "nonpayable",
      "type": "function"
    },
    {
      "constant": true,
      "inputs": [],
      "name": "oraclizeAddr",
      "outputs": [
        {
          "name": "",
          "type": "address"
        }
      ],
      "payable": false,
      "stateMutability": "view",
      "type": "function"
    },
    {
      "constant": false,
      "inputs": [
        {
          "name": "_proposalId",
          "type": "uint256"
        },
        {
          "name": "_buyPrice",
          "type": "uint256"
        },
        {
          "name": "_expires",
          "type": "uint256"
        }
      ],
      "name": "__setBuyPriceAndExpirationBlock",
      "outputs": [],
      "payable": false,
      "stateMutability": "nonpayable",
      "type": "function"
    },
    {
      "constant": true,
      "inputs": [],
      "name": "oraclizeFeeProportion",
      "outputs": [
        {
          "name": "",
          "type": "uint256"
        }
      ],
      "payable": false,
      "stateMutability": "view",
      "type": "function"
    },
    {
      "constant": false,
      "inputs": [
        {
          "name": "_newAddr",
          "type": "address"
        }
      ],
      "name": "changeEtherDeltaAddress",
      "outputs": [],
      "payable": false,
      "stateMutability": "nonpayable",
      "type": "function"
    },
    {
      "constant": true,
      "inputs": [
        {
          "name": "",
          "type": "uint256"
        }
      ],
      "name": "forStakedControlOfProposal",
      "outputs": [
        {
          "name": "",
          "type": "uint256"
        }
      ],
      "payable": false,
      "stateMutability": "view",
      "type": "function"
    },
    {
      "constant": false,
      "inputs": [],
      "name": "endChangeMakingTime",
      "outputs": [],
      "payable": false,
      "stateMutability": "nonpayable",
      "type": "function"
    },
    {
      "constant": false,
      "inputs": [
        {
          "name": "_proposalId",
          "type": "uint256"
        },
        {
          "name": "_sellPrice",
          "type": "uint256"
        },
        {
          "name": "_expires",
          "type": "uint256"
        }
      ],
      "name": "__setSellPriceAndExpirationBlock",
      "outputs": [],
      "payable": false,
      "stateMutability": "nonpayable",
      "type": "function"
    },
    {
      "constant": false,
      "inputs": [],
      "name": "deposit",
      "outputs": [],
      "payable": true,
      "stateMutability": "payable",
      "type": "function"
    },
    {
      "constant": true,
      "inputs": [],
      "name": "againstStakeProportion",
      "outputs": [
        {
          "name": "",
          "type": "uint256"
        }
      ],
      "payable": false,
      "stateMutability": "view",
      "type": "function"
    },
    {
      "constant": true,
      "inputs": [],
      "name": "timeOfProposalMaking",
      "outputs": [
        {
          "name": "",
          "type": "uint256"
        }
      ],
      "payable": false,
      "stateMutability": "view",
      "type": "function"
    },
    {
      "constant": true,
      "inputs": [],
      "name": "controlTokenAddr",
      "outputs": [
        {
          "name": "",
          "type": "address"
        }
      ],
      "payable": false,
      "stateMutability": "view",
      "type": "function"
    },
    {
      "constant": false,
      "inputs": [
        {
          "name": "_tokenGet",
          "type": "address"
        },
        {
          "name": "_amountGet",
          "type": "uint256"
        },
        {
          "name": "_tokenGive",
          "type": "address"
        },
        {
          "name": "_amountGive",
          "type": "uint256"
        },
        {
          "name": "_expires",
          "type": "uint256"
        },
        {
          "name": "_nonce",
          "type": "uint256"
        }
      ],
      "name": "__makeOrder",
      "outputs": [],
      "payable": false,
      "stateMutability": "nonpayable",
      "type": "function"
    },
    {
      "constant": false,
      "inputs": [
        {
          "name": "_receipient",
          "type": "address"
        }
      ],
      "name": "__addControlTokenReceipientAsParticipant",
      "outputs": [],
      "payable": false,
      "stateMutability": "nonpayable",
      "type": "function"
    },
    {
      "constant": false,
      "inputs": [
        {
          "name": "newOwner",
          "type": "address"
        }
      ],
      "name": "transferOwnership",
      "outputs": [],
      "payable": false,
      "stateMutability": "nonpayable",
      "type": "function"
    },
    {
      "constant": true,
      "inputs": [],
      "name": "cyclePhase",
      "outputs": [
        {
          "name": "",
          "type": "uint8"
        }
      ],
      "payable": false,
      "stateMutability": "view",
      "type": "function"
    },
    {
      "inputs": [
        {
          "name": "_etherDeltaAddr",
          "type": "address"
        },
        {
          "name": "_decimals",
          "type": "uint256"
        },
        {
          "name": "_timeOfCycle",
          "type": "uint256"
        },
        {
          "name": "_timeOfChangeMaking",
          "type": "uint256"
        },
        {
          "name": "_timeOfProposalMaking",
          "type": "uint256"
        },
        {
          "name": "_againstStakeProportion",
          "type": "uint256"
        },
        {
          "name": "_maxProposals",
          "type": "uint256"
        },
        {
          "name": "_commissionRate",
          "type": "uint256"
        },
        {
          "name": "_orderExpirationTimeInBlocks",
          "type": "uint256"
        },
        {
          "name": "_oraclizeFeeProportion",
          "type": "uint256"
        }
      ],
      "payable": false,
      "stateMutability": "nonpayable",
      "type": "constructor"
    },
    {
      "payable": true,
      "stateMutability": "payable",
      "type": "fallback"
    },
    {
      "anonymous": false,
      "inputs": [
        {
          "indexed": false,
          "name": "timestamp",
          "type": "uint256"
        }
      ],
      "name": "CycleStarted",
      "type": "event"
    },
    {
      "anonymous": false,
      "inputs": [
        {
          "indexed": false,
          "name": "timestamp",
          "type": "uint256"
        }
      ],
      "name": "ChangeMakingTimeEnded",
      "type": "event"
    },
    {
      "anonymous": false,
      "inputs": [
        {
          "indexed": false,
          "name": "timestamp",
          "type": "uint256"
        }
      ],
      "name": "ProposalMakingTimeEnded",
      "type": "event"
    },
    {
      "anonymous": false,
      "inputs": [
        {
          "indexed": false,
          "name": "timestamp",
          "type": "uint256"
        }
      ],
      "name": "CycleEnded",
      "type": "event"
    },
    {
      "anonymous": false,
      "inputs": [
        {
          "indexed": false,
          "name": "timestamp",
          "type": "uint256"
        }
      ],
      "name": "CycleFinalized",
      "type": "event"
    },
    {
      "anonymous": false,
      "inputs": [
        {
          "indexed": true,
          "name": "previousOwner",
          "type": "address"
        },
        {
          "indexed": true,
          "name": "newOwner",
          "type": "address"
        }
      ],
      "name": "OwnershipTransferred",
      "type": "event"
    }
  ],
  "bytecode": "0x606060405234156200001057600080fd5b6040516101408062004b8f83398101604052808051906020019091908051906020019091908051906020019091908051906020019091908051906020019091908051906020019091908051906020019091908051906020019091908051906020019091908051906020019091905050336000806101000a81548173ffffffffffffffffffffffffffffffffffffffff021916908373ffffffffffffffffffffffffffffffffffffffff16021790555087620000e387896200026d6401000000000262003942179091906401000000009004565b11151515620000f157600080fd5b89600560006101000a81548173ffffffffffffffffffffffffffffffffffffffff021916908373ffffffffffffffffffffffffffffffffffffffff16021790555088600181905550876008819055508660098190555085600a8190555084600b8190555083600c8190555082600d8190555081600e8190555080600f8190555060006007819055506001601060006101000a81548160ff0219169083151502179055506004601b60146101000a81548160ff02191690836004811115620001b457fe5b021790555033601760006101000a81548173ffffffffffffffffffffffffffffffffffffffff021916908373ffffffffffffffffffffffffffffffffffffffff160217905550600560009054906101000a900473ffffffffffffffffffffffffffffffffffffffff16601a60006101000a81548173ffffffffffffffffffffffffffffffffffffffff021916908373ffffffffffffffffffffffffffffffffffffffff160217905550505050505050505050506200028c565b60008082840190508381101515156200028257fe5b8091505092915050565b6148f3806200029c6000396000f300606060405260043610610230576000357c0100000000000000000000000000000000000000000000000000000000900463ffffffff168063013cf08b1461028e57806302d05d3f146103a4578063084a4faf146103f95780630ccb7cde1461040e5780630f6f17d21461043e5780631039162b14610494578063158ef93e146104c1578063239fa718146104ee57806328ac1228146105295780632e1a7d4d146105525780632e33de6a146105755780632f3fe24c146105cb5780633021f47f146105f4578063313ce5671461061b57806335c1d3491461064457806358e0abec146106a75780635ea1d6f8146106b157806370a08231146106da5780637b3b346b146107275780637e714dd2146107535780637f2736d11461077c578063810599e9146107915780638456799b146107ba57806384e48077146107e35780638b4e6ba81461083b5780638da5cb5b1461085057806390c31d5d146108a5578063929066f5146108ba57806395988d821461090b57806395fa9fc914610934578063a0a2150414610989578063a23a6f9e14610a0e578063a418117414610a63578063b12d2fa614610a98578063b462c8fa14610ac1578063b484cf8d14610afa578063b64af4b114610b31578063bc12730114610b46578063d0e30db014610b7b578063d358c16614610b85578063d78b3b1c14610bae578063dc87454c14610bd7578063f1cd92f114610c2c578063f245fbc714610ca8578063f2fde38b14610ce1578063f6558b0014610d1a575b600560009054906101000a900473ffffffffffffffffffffffffffffffffffffffff1673ffffffffffffffffffffffffffffffffffffffff163373ffffffffffffffffffffffffffffffffffffffff1614151561028c57600080fd5b005b341561029957600080fd5b6102af6004808035906020019091905050610d51565b604051808973ffffffffffffffffffffffffffffffffffffffff1673ffffffffffffffffffffffffffffffffffffffff1681526020018060200188815260200187815260200186815260200185815260200184815260200183815260200182810382528981815460018160011615610100020316600290048152602001915080546001816001161561010002031660029004801561038e5780601f106103635761010080835404028352916020019161038e565b820191906000526020600020905b81548152906001019060200180831161037157829003601f168201915b5050995050505050505050505060405180910390f35b34156103af57600080fd5b6103b7610dc7565b604051808273ffffffffffffffffffffffffffffffffffffffff1673ffffffffffffffffffffffffffffffffffffffff16815260200191505060405180910390f35b341561040457600080fd5b61040c610ded565b005b341561041957600080fd5b61043c60048080356000191690602001909190803590602001909190505061102f565b005b341561044957600080fd5b61047e600480803590602001909190803573ffffffffffffffffffffffffffffffffffffffff169060200190919050506110af565b6040518082815260200191505060405180910390f35b341561049f57600080fd5b6104a76110d4565b604051808215151515815260200191505060405180910390f35b34156104cc57600080fd5b6104d46110e7565b604051808215151515815260200191505060405180910390f35b34156104f957600080fd5b6105136004808035600019169060200190919050506110fa565b6040518082815260200191505060405180910390f35b341561053457600080fd5b61053c611112565b6040518082815260200191505060405180910390f35b341561055d57600080fd5b6105736004808035906020019091905050611118565b005b341561058057600080fd5b6105b5600480803590602001909190803573ffffffffffffffffffffffffffffffffffffffff169060200190919050506112b5565b6040518082815260200191505060405180910390f35b34156105d657600080fd5b6105de6112da565b6040518082815260200191505060405180910390f35b34156105ff57600080fd5b6106196004808035600019169060200190919050506112e0565b005b341561062657600080fd5b61062e61135e565b6040518082815260200191505060405180910390f35b341561064f57600080fd5b6106656004808035906020019091905050611364565b604051808273ffffffffffffffffffffffffffffffffffffffff1673ffffffffffffffffffffffffffffffffffffffff16815260200191505060405180910390f35b6106af6113a3565b005b34156106bc57600080fd5b6106c4611462565b6040518082815260200191505060405180910390f35b34156106e557600080fd5b610711600480803573ffffffffffffffffffffffffffffffffffffffff16906020019091905050611468565b6040518082815260200191505060405180910390f35b341561073257600080fd5b6107516004808035906020019091908035906020019091905050611480565b005b341561075e57600080fd5b61076661182e565b6040518082815260200191505060405180910390f35b341561078757600080fd5b61078f611834565b005b341561079c57600080fd5b6107a461190e565b6040518082815260200191505060405180910390f35b34156107c557600080fd5b6107cd611914565b6040518082815260200191505060405180910390f35b34156107ee57600080fd5b610839600480803573ffffffffffffffffffffffffffffffffffffffff1690602001909190803573ffffffffffffffffffffffffffffffffffffffff1690602001909190505061191a565b005b341561084657600080fd5b61084e611af9565b005b341561085b57600080fd5b6108636122e6565b604051808273ffffffffffffffffffffffffffffffffffffffff1673ffffffffffffffffffffffffffffffffffffffff16815260200191505060405180910390f35b34156108b057600080fd5b6108b861230b565b005b34156108c557600080fd5b6108f1600480803573ffffffffffffffffffffffffffffffffffffffff16906020019091905050612a45565b604051808215151515815260200191505060405180910390f35b341561091657600080fd5b61091e612a65565b6040518082815260200191505060405180910390f35b341561093f57600080fd5b610947612a6b565b604051808273ffffffffffffffffffffffffffffffffffffffff1673ffffffffffffffffffffffffffffffffffffffff16815260200191505060405180910390f35b341561099457600080fd5b610a0c600480803573ffffffffffffffffffffffffffffffffffffffff1690602001909190803590602001908201803590602001908080601f01602080910402602001604051908101604052809392919081815260200183838082843782019150505050505091908035906020019091905050612a91565b005b3415610a1957600080fd5b610a21612d7d565b604051808273ffffffffffffffffffffffffffffffffffffffff1673ffffffffffffffffffffffffffffffffffffffff16815260200191505060405180910390f35b3415610a6e57600080fd5b610a966004808035906020019091908035906020019091908035906020019091905050612da3565b005b3415610aa357600080fd5b610aab612e4e565b6040518082815260200191505060405180910390f35b3415610acc57600080fd5b610af8600480803573ffffffffffffffffffffffffffffffffffffffff16906020019091905050612e54565b005b3415610b0557600080fd5b610b1b6004808035906020019091905050613004565b6040518082815260200191505060405180910390f35b3415610b3c57600080fd5b610b4461301c565b005b3415610b5157600080fd5b610b7960048080359060200190919080359060200190919080359060200190919050506130af565b005b610b8361315a565b005b3415610b9057600080fd5b610b98613506565b6040518082815260200191505060405180910390f35b3415610bb957600080fd5b610bc161350c565b6040518082815260200191505060405180910390f35b3415610be257600080fd5b610bea613512565b604051808273ffffffffffffffffffffffffffffffffffffffff1673ffffffffffffffffffffffffffffffffffffffff16815260200191505060405180910390f35b3415610c3757600080fd5b610ca6600480803573ffffffffffffffffffffffffffffffffffffffff1690602001909190803590602001909190803573ffffffffffffffffffffffffffffffffffffffff16906020019091908035906020019091908035906020019091908035906020019091905050613538565b005b3415610cb357600080fd5b610cdf600480803573ffffffffffffffffffffffffffffffffffffffff169060200190919050506136c0565b005b3415610cec57600080fd5b610d18600480803573ffffffffffffffffffffffffffffffffffffffff169060200190919050506137da565b005b3415610d2557600080fd5b610d2d61392f565b60405180826004811115610d3d57fe5b60ff16815260200191505060405180910390f35b601881815481101515610d6057fe5b90600052602060002090600802016000915090508060000160009054906101000a900473ffffffffffffffffffffffffffffffffffffffff169080600101908060020154908060030154908060040154908060050154908060060154908060070154905088565b601760009054906101000a900473ffffffffffffffffffffffffffffffffffffffff1681565b60006002806004811115610dfd57fe5b601b60149054906101000a900460ff166004811115610e1857fe5b141515610e2457600080fd5b601060009054906101000a900460ff1615610ee457601960009054906101000a900473ffffffffffffffffffffffffffffffffffffffff1673ffffffffffffffffffffffffffffffffffffffff16637d64bcb46000604051602001526040518163ffffffff167c0100000000000000000000000000000000000000000000000000000000028152600401602060405180830381600087803b1515610ec757600080fd5b6102c65a03f11515610ed857600080fd5b50505060405180519050505b6003601b60146101000a81548160ff02191690836004811115610f0357fe5b02179055506000601060006101000a81548160ff021916908315150217905550600091505b601880549050821015610ff457601b60009054906101000a900473ffffffffffffffffffffffffffffffffffffffff1673ffffffffffffffffffffffffffffffffffffffff166360fc3f8e836040518263ffffffff167c010000000000000000000000000000000000000000000000000000000002815260040180828152602001915050600060405180830381600087803b1515610fc557600080fd5b6102c65a03f11515610fd657600080fd5b505050610fed60018361394290919063ffffffff16565b9150610f28565b7f4878ecf95e0ab851e92c9860805d02e6413f8379c7702dc1adefab976c7a9ec3426040518082815260200191505060405180910390a15050565b601660009054906101000a900473ffffffffffffffffffffffffffffffffffffffff1673ffffffffffffffffffffffffffffffffffffffff163373ffffffffffffffffffffffffffffffffffffffff1614151561108b57600080fd5b80601560008460001916600019168152602001908152602001600020819055505050565b6013602052816000526040600020602052806000526040600020600091509150505481565b601060009054906101000a900460ff1681565b601660149054906101000a900460ff1681565b60156020528060005260406000206000915090505481565b60095481565b600080600481111561112657fe5b601b60149054906101000a900460ff16600481111561114157fe5b14151561114d57600080fd5b600360003373ffffffffffffffffffffffffffffffffffffffff1673ffffffffffffffffffffffffffffffffffffffff16815260200190815260200160002060009054906101000a900460ff1615156111a557600080fd5b601060009054906101000a900460ff161515156111c157600080fd5b6111d68260065461396090919063ffffffff16565b60068190555061122e82601160003373ffffffffffffffffffffffffffffffffffffffff1673ffffffffffffffffffffffffffffffffffffffff1681526020019081526020016000205461396090919063ffffffff16565b601160003373ffffffffffffffffffffffffffffffffffffffff1673ffffffffffffffffffffffffffffffffffffffff168152602001908152602001600020819055503373ffffffffffffffffffffffffffffffffffffffff166108fc839081150290604051600060405180830381858888f1935050505015156112b157600080fd5b5050565b6014602052816000526040600020602052806000526040600020600091509150505481565b600c5481565b601660009054906101000a900473ffffffffffffffffffffffffffffffffffffffff1673ffffffffffffffffffffffffffffffffffffffff163373ffffffffffffffffffffffffffffffffffffffff1614151561133c57600080fd5b6015600082600019166000191681526020019081526020016000206000905550565b60015481565b60028181548110151561137357fe5b90600052602060002090016000915054906101000a900473ffffffffffffffffffffffffffffffffffffffff1681565b6000809054906101000a900473ffffffffffffffffffffffffffffffffffffffff1673ffffffffffffffffffffffffffffffffffffffff163373ffffffffffffffffffffffffffffffffffffffff161415156113fe57600080fd5b601660009054906101000a900473ffffffffffffffffffffffffffffffffffffffff1673ffffffffffffffffffffffffffffffffffffffff166108fc349081150290604051600060405180830381858888f19350505050151561146057600080fd5b565b600d5481565b60116020528060005260406000206000915090505481565b6000600180600481111561149057fe5b601b60149054906101000a900460ff1660048111156114ab57fe5b1415156114b757600080fd5b600360003373ffffffffffffffffffffffffffffffffffffffff1673ffffffffffffffffffffffffffffffffffffffff16815260200190815260200160002060009054906101000a900460ff16151561150f57600080fd5b6018805490508410151561152257600080fd5b6115f16006546115e3601960009054906101000a900473ffffffffffffffffffffffffffffffffffffffff1673ffffffffffffffffffffffffffffffffffffffff166318160ddd6000604051602001526040518163ffffffff167c0100000000000000000000000000000000000000000000000000000000028152600401602060405180830381600087803b15156115b957600080fd5b6102c65a03f115156115ca57600080fd5b505050604051805190508661397990919063ffffffff16565b6139ac90919063ffffffff16565b9150601960009054906101000a900473ffffffffffffffffffffffffffffffffffffffff1673ffffffffffffffffffffffffffffffffffffffff16632bee7bde33846000604051602001526040518363ffffffff167c0100000000000000000000000000000000000000000000000000000000028152600401808373ffffffffffffffffffffffffffffffffffffffff1673ffffffffffffffffffffffffffffffffffffffff16815260200182815260200192505050602060405180830381600087803b15156116c057600080fd5b6102c65a03f115156116d157600080fd5b505050604051805190505061171060016018868154811015156116f057fe5b90600052602060002090600802016006015461394290919063ffffffff16565b60188581548110151561171f57fe5b90600052602060002090600802016006018190555061175a82601260008781526020019081526020016000205461394290919063ffffffff16565b60126000868152602001908152602001600020819055506117d4826013600087815260200190815260200160002060003373ffffffffffffffffffffffffffffffffffffffff1673ffffffffffffffffffffffffffffffffffffffff1681526020019081526020016000205461394290919063ffffffff16565b6013600086815260200190815260200160002060003373ffffffffffffffffffffffffffffffffffffffff1673ffffffffffffffffffffffffffffffffffffffff1681526020019081526020016000208190555050505050565b60065481565b600480600481111561184257fe5b601b60149054906101000a900460ff16600481111561185d57fe5b14151561186957600080fd5b601660149054906101000a900460ff16151561188457600080fd5b61189b60085460075461394290919063ffffffff16565b42101515156118a957600080fd5b6000601b60146101000a81548160ff021916908360048111156118c857fe5b0217905550426007819055507fc8a0332abe200b5e7ff117e01b27b1ea7e989a7152ad8690ca1e0f0cb1157c3f426040518082815260200191505060405180910390a150565b60085481565b600e5481565b601760009054906101000a900473ffffffffffffffffffffffffffffffffffffffff1673ffffffffffffffffffffffffffffffffffffffff163373ffffffffffffffffffffffffffffffffffffffff1614151561197657600080fd5b601660149054906101000a900460ff1615151561199257600080fd5b6001601660146101000a81548160ff02191690831515021790555081600460006101000a81548173ffffffffffffffffffffffffffffffffffffffff021916908373ffffffffffffffffffffffffffffffffffffffff16021790555080601660006101000a81548173ffffffffffffffffffffffffffffffffffffffff021916908373ffffffffffffffffffffffffffffffffffffffff160217905550600460009054906101000a900473ffffffffffffffffffffffffffffffffffffffff16601960006101000a81548173ffffffffffffffffffffffffffffffffffffffff021916908373ffffffffffffffffffffffffffffffffffffffff160217905550601660009054906101000a900473ffffffffffffffffffffffffffffffffffffffff16601b60006101000a81548173ffffffffffffffffffffffffffffffffffffffff021916908373ffffffffffffffffffffffffffffffffffffffff1602179055505050565b6000806000806000806003806004811115611b1057fe5b601b60149054906101000a900460ff166004811115611b2b57fe5b141515611b3757600080fd5b6004601b60146101000a81548160ff02191690836004811115611b5657fe5b0217905550600096505b60188054905087101561201e57601887815481101515611b7c57fe5b90600052602060002090600802019550601a60009054906101000a900473ffffffffffffffffffffffffffffffffffffffff1673ffffffffffffffffffffffffffffffffffffffff1663508493bc8760000160009054906101000a900473ffffffffffffffffffffffffffffffffffffffff16306000604051602001526040518363ffffffff167c0100000000000000000000000000000000000000000000000000000000028152600401808373ffffffffffffffffffffffffffffffffffffffff1673ffffffffffffffffffffffffffffffffffffffff1681526020018273ffffffffffffffffffffffffffffffffffffffff1673ffffffffffffffffffffffffffffffffffffffff16815260200192505050602060405180830381600087803b1515611ca957600080fd5b6102c65a03f11515611cba57600080fd5b505050604051805190509450611cdd86600301548661397990919063ffffffff16565b9350601a60009054906101000a900473ffffffffffffffffffffffffffffffffffffffff1673ffffffffffffffffffffffffffffffffffffffff166346be96c36000868960000160009054906101000a900473ffffffffffffffffffffffffffffffffffffffff16898b600501548d30600080600080604051602001526040518b63ffffffff167c0100000000000000000000000000000000000000000000000000000000028152600401808b73ffffffffffffffffffffffffffffffffffffffff1673ffffffffffffffffffffffffffffffffffffffff1681526020018a81526020018973ffffffffffffffffffffffffffffffffffffffff1673ffffffffffffffffffffffffffffffffffffffff1681526020018881526020018781526020018681526020018573ffffffffffffffffffffffffffffffffffffffff1673ffffffffffffffffffffffffffffffffffffffff1681526020018460ff16815260200183600102600019168152602001826001026000191681526020019a5050505050505050505050602060405180830381600087803b1515611e7f57600080fd5b6102c65a03f11515611e9057600080fd5b50505060405180519050925084831480611ead5750856005015443115b1515611eb857600080fd5b612003878761010060405190810160405290816000820160009054906101000a900473ffffffffffffffffffffffffffffffffffffffff1673ffffffffffffffffffffffffffffffffffffffff1673ffffffffffffffffffffffffffffffffffffffff168152602001600182018054600181600116156101000203166002900480601f016020809104026020016040519081016040528092919081815260200182805460018160011615610100020316600290048015611fb95780601f10611f8e57610100808354040283529160200191611fb9565b820191906000526020600020905b815481529060010190602001808311611f9c57829003601f168201915b5050505050815260200160028201548152602001600382015481526020016004820154815260200160058201548152602001600682015481526020016007820154815250506139c7565b61201760018861394290919063ffffffff16565b9650611b60565b601a60009054906101000a900473ffffffffffffffffffffffffffffffffffffffff1673ffffffffffffffffffffffffffffffffffffffff1663508493bc6000306000604051602001526040518363ffffffff167c0100000000000000000000000000000000000000000000000000000000028152600401808373ffffffffffffffffffffffffffffffffffffffff1673ffffffffffffffffffffffffffffffffffffffff1681526020018273ffffffffffffffffffffffffffffffffffffffff1673ffffffffffffffffffffffffffffffffffffffff16815260200192505050602060405180830381600087803b151561211857600080fd5b6102c65a03f1151561212957600080fd5b505050604051805190509150601a60009054906101000a900473ffffffffffffffffffffffffffffffffffffffff1673ffffffffffffffffffffffffffffffffffffffff16632e1a7d4d836040518263ffffffff167c010000000000000000000000000000000000000000000000000000000002815260040180828152602001915050600060405180830381600087803b15156121c557600080fd5b6102c65a03f115156121d657600080fd5b5050506121e1614369565b3073ffffffffffffffffffffffffffffffffffffffff1631600681905550601b60009054906101000a900473ffffffffffffffffffffffffffffffffffffffff1673ffffffffffffffffffffffffffffffffffffffff166332f42b546040518163ffffffff167c0100000000000000000000000000000000000000000000000000000000028152600401600060405180830381600087803b151561228457600080fd5b6102c65a03f1151561229557600080fd5b505050601860006122a691906146d2565b7f6fbfbccdd0d107860c9bccfa723d97eba4f37886edeb01e7a438b1e0fe44e056426040518082815260200191505060405180910390a150505050505050565b6000809054906101000a900473ffffffffffffffffffffffffffffffffffffffff1681565b600080600080600080600180600481111561232257fe5b601b60149054906101000a900460ff16600481111561233d57fe5b14151561234957600080fd5b6002601b60146101000a81548160ff0219169083600481111561236857fe5b0217905550600096505b6002805490508710156127735760028781548110151561238e57fe5b906000526020600020900160009054906101000a900473ffffffffffffffffffffffffffffffffffffffff1695506124c7600154600a0a6124b9600b54601960009054906101000a900473ffffffffffffffffffffffffffffffffffffffff1673ffffffffffffffffffffffffffffffffffffffff166370a082318b6000604051602001526040518263ffffffff167c0100000000000000000000000000000000000000000000000000000000028152600401808273ffffffffffffffffffffffffffffffffffffffff1673ffffffffffffffffffffffffffffffffffffffff168152602001915050602060405180830381600087803b151561249057600080fd5b6102c65a03f115156124a157600080fd5b5050506040518051905061397990919063ffffffff16565b6139ac90919063ffffffff16565b945060008514151561275857600093505b6018805490508410156127575760006013600086815260200190815260200160002060008873ffffffffffffffffffffffffffffffffffffffff1673ffffffffffffffffffffffffffffffffffffffff168152602001908152602001600020541415925082151561273c57601960009054906101000a900473ffffffffffffffffffffffffffffffffffffffff1673ffffffffffffffffffffffffffffffffffffffff16632bee7bde87876000604051602001526040518363ffffffff167c0100000000000000000000000000000000000000000000000000000000028152600401808373ffffffffffffffffffffffffffffffffffffffff1673ffffffffffffffffffffffffffffffffffffffff16815260200182815260200192505050602060405180830381600087803b151561261057600080fd5b6102c65a03f1151561262157600080fd5b5050506040518051905050612660600160188681548110151561264057fe5b90600052602060002090600802016007015461394290919063ffffffff16565b60188581548110151561266f57fe5b9060005260206000209060080201600701819055506126e7856014600087815260200190815260200160002060008973ffffffffffffffffffffffffffffffffffffffff1673ffffffffffffffffffffffffffffffffffffffff1681526020019081526020016000205461394290919063ffffffff16565b6014600086815260200190815260200160002060008873ffffffffffffffffffffffffffffffffffffffff1673ffffffffffffffffffffffffffffffffffffffff168152602001908152602001600020819055505b61275060018561394290919063ffffffff16565b93506124d8565b5b61276c60018861394290919063ffffffff16565b9650612372565b600096505b601880549050871015612a0557612867601960009054906101000a900473ffffffffffffffffffffffffffffffffffffffff1673ffffffffffffffffffffffffffffffffffffffff166318160ddd6000604051602001526040518163ffffffff167c0100000000000000000000000000000000000000000000000000000000028152600401602060405180830381600087803b151561281657600080fd5b6102c65a03f1151561282757600080fd5b50505060405180519050612859601260008b81526020019081526020016000205460065461397990919063ffffffff16565b6139ac90919063ffffffff16565b9150601a60009054906101000a900473ffffffffffffffffffffffffffffffffffffffff1673ffffffffffffffffffffffffffffffffffffffff168260405180807f6465706f73697428290000000000000000000000000000000000000000000000815250600901905060405180910390207c01000000000000000000000000000000000000000000000000000000009004906040518263ffffffff167c010000000000000000000000000000000000000000000000000000000002815260040160006040518083038185886187965a03f19350505050151561294657fe5b601b60009054906101000a900473ffffffffffffffffffffffffffffffffffffffff1673ffffffffffffffffffffffffffffffffffffffff166360fc3f8e886040518263ffffffff167c010000000000000000000000000000000000000000000000000000000002815260040180828152602001915050600060405180830381600087803b15156129d657600080fd5b6102c65a03f115156129e757600080fd5b5050506129fe60018861394290919063ffffffff16565b9650612778565b7f63e5255d00258d97be2d059c72be3ed43117e9f43c2439d8639988e874efa9cf426040518082815260200191505060405180910390a150505050505050565b60036020528060005260406000206000915054906101000a900460ff1681565b60075481565b600560009054906101000a900473ffffffffffffffffffffffffffffffffffffffff1681565b60006001806004811115612aa157fe5b601b60149054906101000a900460ff166004811115612abc57fe5b141515612ac857600080fd5b600360003373ffffffffffffffffffffffffffffffffffffffff1673ffffffffffffffffffffffffffffffffffffffff16815260200190815260200160002060009054906101000a900460ff161515612b2057600080fd5b600c54601880549050101515612b3557600080fd5b60188054806001018281612b4991906146f6565b91600052602060002090600802016000610100604051908101604052808973ffffffffffffffffffffffffffffffffffffffff16815260200188815260200160008152602001600081526020016000815260200160008152602001600081526020016000815250909190915060008201518160000160006101000a81548173ffffffffffffffffffffffffffffffffffffffff021916908373ffffffffffffffffffffffffffffffffffffffff1602179055506020820151816001019080519060200190612c18929190614728565b5060408201518160020155606082015181600301556080820151816004015560a0820151816005015560c0820151816006015560e08201518160070155505050601b60009054906101000a900473ffffffffffffffffffffffffffffffffffffffff1673ffffffffffffffffffffffffffffffffffffffff16633455d73e856040518263ffffffff167c01000000000000000000000000000000000000000000000000000000000281526004018080602001828103825283818151815260200191508051906020019080838360005b83811015612d02578082015181840152602081019050612ce7565b50505050905090810190601f168015612d2f5780820380516001836020036101000a031916815260200191505b5092505050600060405180830381600087803b1515612d4d57600080fd5b6102c65a03f11515612d5e57600080fd5b5050506001601880549050039150612d768284611480565b5050505050565b601660009054906101000a900473ffffffffffffffffffffffffffffffffffffffff1681565b601660009054906101000a900473ffffffffffffffffffffffffffffffffffffffff1673ffffffffffffffffffffffffffffffffffffffff163373ffffffffffffffffffffffffffffffffffffffff16141515612dff57600080fd5b81601884815481101515612e0f57fe5b90600052602060002090600802016002018190555080601884815481101515612e3457fe5b906000526020600020906008020160040181905550505050565b600f5481565b6000809054906101000a900473ffffffffffffffffffffffffffffffffffffffff1673ffffffffffffffffffffffffffffffffffffffff163373ffffffffffffffffffffffffffffffffffffffff16141515612eaf57600080fd5b80600560006101000a81548173ffffffffffffffffffffffffffffffffffffffff021916908373ffffffffffffffffffffffffffffffffffffffff16021790555080601a60006101000a81548173ffffffffffffffffffffffffffffffffffffffff021916908373ffffffffffffffffffffffffffffffffffffffff160217905550601b60009054906101000a900473ffffffffffffffffffffffffffffffffffffffff1673ffffffffffffffffffffffffffffffffffffffff16635aeed50a826040518263ffffffff167c0100000000000000000000000000000000000000000000000000000000028152600401808273ffffffffffffffffffffffffffffffffffffffff1673ffffffffffffffffffffffffffffffffffffffff168152602001915050600060405180830381600087803b1515612fed57600080fd5b6102c65a03f11515612ffe57600080fd5b50505050565b60126020528060005260406000206000915090505481565b600080600481111561302a57fe5b601b60149054906101000a900460ff16600481111561304557fe5b14151561305157600080fd5b6001601b60146101000a81548160ff0219169083600481111561307057fe5b02179055507f87a2225345e9725a08032af379cf06b2dada438a5f4e594bc1ed005a170bf53c426040518082815260200191505060405180910390a150565b601660009054906101000a900473ffffffffffffffffffffffffffffffffffffffff1673ffffffffffffffffffffffffffffffffffffffff163373ffffffffffffffffffffffffffffffffffffffff1614151561310b57600080fd5b8160188481548110151561311b57fe5b9060005260206000209060080201600301819055508060188481548110151561314057fe5b906000526020600020906008020160050181905550505050565b60008080600481111561316957fe5b601b60149054906101000a900460ff16600481111561318457fe5b14151561319057600080fd5b600360003373ffffffffffffffffffffffffffffffffffffffff1673ffffffffffffffffffffffffffffffffffffffff16815260200190815260200160002060009054906101000a900460ff16151561329f57600280548060010182816131f791906147a8565b9160005260206000209001600033909190916101000a81548173ffffffffffffffffffffffffffffffffffffffff021916908373ffffffffffffffffffffffffffffffffffffffff160217905550506001600360003373ffffffffffffffffffffffffffffffffffffffff1673ffffffffffffffffffffffffffffffffffffffff16815260200190815260200160002060006101000a81548160ff0219169083151502179055505b6132cb600154600a0a6132bd600f543461397990919063ffffffff16565b6139ac90919063ffffffff16565b91506133318261332334601160003373ffffffffffffffffffffffffffffffffffffffff1673ffffffffffffffffffffffffffffffffffffffff1681526020019081526020016000205461394290919063ffffffff16565b61396090919063ffffffff16565b601160003373ffffffffffffffffffffffffffffffffffffffff1673ffffffffffffffffffffffffffffffffffffffff1681526020019081526020016000208190555061339b8261338d3460065461394290919063ffffffff16565b61396090919063ffffffff16565b600681905550601660009054906101000a900473ffffffffffffffffffffffffffffffffffffffff1673ffffffffffffffffffffffffffffffffffffffff166108fc839081150290604051600060405180830381858888f19350505050151561340357600080fd5b601060009054906101000a900460ff161561350257601960009054906101000a900473ffffffffffffffffffffffffffffffffffffffff1673ffffffffffffffffffffffffffffffffffffffff166340c10f1933346000604051602001526040518363ffffffff167c0100000000000000000000000000000000000000000000000000000000028152600401808373ffffffffffffffffffffffffffffffffffffffff1673ffffffffffffffffffffffffffffffffffffffff16815260200182815260200192505050602060405180830381600087803b15156134e557600080fd5b6102c65a03f115156134f657600080fd5b50505060405180519050505b5050565b600b5481565b600a5481565b600460009054906101000a900473ffffffffffffffffffffffffffffffffffffffff1681565b601660009054906101000a900473ffffffffffffffffffffffffffffffffffffffff1673ffffffffffffffffffffffffffffffffffffffff163373ffffffffffffffffffffffffffffffffffffffff1614151561359457600080fd5b601a60009054906101000a900473ffffffffffffffffffffffffffffffffffffffff1673ffffffffffffffffffffffffffffffffffffffff16630b9276668787878787876040518763ffffffff167c0100000000000000000000000000000000000000000000000000000000028152600401808773ffffffffffffffffffffffffffffffffffffffff1673ffffffffffffffffffffffffffffffffffffffff1681526020018681526020018573ffffffffffffffffffffffffffffffffffffffff1673ffffffffffffffffffffffffffffffffffffffff1681526020018481526020018381526020018281526020019650505050505050600060405180830381600087803b15156136a457600080fd5b6102c65a03f115156136b557600080fd5b505050505050505050565b600460009054906101000a900473ffffffffffffffffffffffffffffffffffffffff1673ffffffffffffffffffffffffffffffffffffffff163373ffffffffffffffffffffffffffffffffffffffff1614151561371c57600080fd5b6001600360008373ffffffffffffffffffffffffffffffffffffffff1673ffffffffffffffffffffffffffffffffffffffff16815260200190815260200160002060006101000a81548160ff0219169083151502179055506002805480600101828161378891906147a8565b9160005260206000209001600083909190916101000a81548173ffffffffffffffffffffffffffffffffffffffff021916908373ffffffffffffffffffffffffffffffffffffffff1602179055505050565b6000809054906101000a900473ffffffffffffffffffffffffffffffffffffffff1673ffffffffffffffffffffffffffffffffffffffff163373ffffffffffffffffffffffffffffffffffffffff1614151561383557600080fd5b600073ffffffffffffffffffffffffffffffffffffffff168173ffffffffffffffffffffffffffffffffffffffff161415151561387157600080fd5b8073ffffffffffffffffffffffffffffffffffffffff166000809054906101000a900473ffffffffffffffffffffffffffffffffffffffff1673ffffffffffffffffffffffffffffffffffffffff167f8be0079c531659141344cd1fd0a4f28419497f9722a3daafe3b4186f6b6457e060405160405180910390a3806000806101000a81548173ffffffffffffffffffffffffffffffffffffffff021916908373ffffffffffffffffffffffffffffffffffffffff16021790555050565b601b60149054906101000a900460ff1681565b600080828401905083811015151561395657fe5b8091505092915050565b600082821115151561396e57fe5b818303905092915050565b6000808284029050600084148061399a575082848281151561399757fe5b04145b15156139a257fe5b8091505092915050565b60008082848115156139ba57fe5b0490508091505092915050565b6000806000806000613ab1601960009054906101000a900473ffffffffffffffffffffffffffffffffffffffff1673ffffffffffffffffffffffffffffffffffffffff166318160ddd6000604051602001526040518163ffffffff167c0100000000000000000000000000000000000000000000000000000000028152600401602060405180830381600087803b1515613a6057600080fd5b6102c65a03f11515613a7157600080fd5b50505060405180519050613aa3601260008b81526020019081526020016000205460065461397990919063ffffffff16565b6139ac90919063ffffffff16565b90506000601a60009054906101000a900473ffffffffffffffffffffffffffffffffffffffff1673ffffffffffffffffffffffffffffffffffffffff166346be96c38860000151613b0f8a60400151866139ac90919063ffffffff16565b6000868c60a001518e30600080600080604051602001526040518b63ffffffff167c0100000000000000000000000000000000000000000000000000000000028152600401808b73ffffffffffffffffffffffffffffffffffffffff1673ffffffffffffffffffffffffffffffffffffffff1681526020018a81526020018973ffffffffffffffffffffffffffffffffffffffff1673ffffffffffffffffffffffffffffffffffffffff1681526020018881526020018781526020018681526020018573ffffffffffffffffffffffffffffffffffffffff1673ffffffffffffffffffffffffffffffffffffffff1681526020018460ff16815260200183600102600019168152602001826001026000191681526020019a5050505050505050505050602060405180830381600087803b1515613c4b57600080fd5b6102c65a03f11515613c5c57600080fd5b5050506040518051905014151561414c5785604001518660600151101515613f5757613d8d613c9a8760c0015160015461397990919063ffffffff16565b600a0a613d7f600b54613d71601260008d815260200190815260200160002054601960009054906101000a900473ffffffffffffffffffffffffffffffffffffffff1673ffffffffffffffffffffffffffffffffffffffff166318160ddd6000604051602001526040518163ffffffff167c0100000000000000000000000000000000000000000000000000000000028152600401602060405180830381600087803b1515613d4857600080fd5b6102c65a03f11515613d5957600080fd5b5050506040518051905061396090919063ffffffff16565b61397990919063ffffffff16565b6139ac90919063ffffffff16565b9450600092505b600280549050831015613f5257600283815481101515613db057fe5b906000526020600020900160009054906101000a900473ffffffffffffffffffffffffffffffffffffffff1691506013600088815260200190815260200160002060008373ffffffffffffffffffffffffffffffffffffffff1673ffffffffffffffffffffffffffffffffffffffff168152602001908152602001600020549350600084141515613f3757601960009054906101000a900473ffffffffffffffffffffffffffffffffffffffff1673ffffffffffffffffffffffffffffffffffffffff1663a9059cbb83613e8d888861394290919063ffffffff16565b6000604051602001526040518363ffffffff167c0100000000000000000000000000000000000000000000000000000000028152600401808373ffffffffffffffffffffffffffffffffffffffff1673ffffffffffffffffffffffffffffffffffffffff16815260200182815260200192505050602060405180830381600087803b1515613f1a57600080fd5b6102c65a03f11515613f2b57600080fd5b50505060405180519050505b613f4b60018461394290919063ffffffff16565b9250613d94565b614147565b613f818660e00151601260008a8152602001908152602001600020546139ac90919063ffffffff16565b9450600092505b60028054905083101561414657600283815481101515613fa457fe5b906000526020600020900160009054906101000a900473ffffffffffffffffffffffffffffffffffffffff1691506014600088815260200190815260200160002060008373ffffffffffffffffffffffffffffffffffffffff1673ffffffffffffffffffffffffffffffffffffffff16815260200190815260200160002054935060008414151561412b57601960009054906101000a900473ffffffffffffffffffffffffffffffffffffffff1673ffffffffffffffffffffffffffffffffffffffff1663a9059cbb83614081888861394290919063ffffffff16565b6000604051602001526040518363ffffffff167c0100000000000000000000000000000000000000000000000000000000028152600401808373ffffffffffffffffffffffffffffffffffffffff1673ffffffffffffffffffffffffffffffffffffffff16815260200182815260200192505050602060405180830381600087803b151561410e57600080fd5b6102c65a03f1151561411f57600080fd5b50505060405180519050505b61413f60018461394290919063ffffffff16565b9250613f88565b5b614360565b600092505b60028054905083101561435f5760028381548110151561416d57fe5b906000526020600020900160009054906101000a900473ffffffffffffffffffffffffffffffffffffffff16915061424e6014600089815260200190815260200160002060008473ffffffffffffffffffffffffffffffffffffffff1673ffffffffffffffffffffffffffffffffffffffff16815260200190815260200160002054601360008a815260200190815260200160002060008573ffffffffffffffffffffffffffffffffffffffff1673ffffffffffffffffffffffffffffffffffffffff1681526020019081526020016000205461394290919063ffffffff16565b935060008414151561434457601960009054906101000a900473ffffffffffffffffffffffffffffffffffffffff1673ffffffffffffffffffffffffffffffffffffffff1663a9059cbb83866000604051602001526040518363ffffffff167c0100000000000000000000000000000000000000000000000000000000028152600401808373ffffffffffffffffffffffffffffffffffffffff1673ffffffffffffffffffffffffffffffffffffffff16815260200182815260200192505050602060405180830381600087803b151561432757600080fd5b6102c65a03f1151561433857600080fd5b50505060405180519050505b61435860018461394290919063ffffffff16565b9250614151565b5b50505050505050565b60008060008060006143b4600154600a0a6143a63073ffffffffffffffffffffffffffffffffffffffff1631600d5461397990919063ffffffff16565b6139ac90919063ffffffff16565b945060009350600092505b6002805490508310156146cb576002838154811015156143db57fe5b906000526020600020900160009054906101000a900473ffffffffffffffffffffffffffffffffffffffff1691506144aa60065461449c601160008673ffffffffffffffffffffffffffffffffffffffff1673ffffffffffffffffffffffffffffffffffffffff1681526020019081526020016000205461448e886144808b3073ffffffffffffffffffffffffffffffffffffffff163161396090919063ffffffff16565b61396090919063ffffffff16565b61397990919063ffffffff16565b6139ac90919063ffffffff16565b905061466a61465b601960009054906101000a900473ffffffffffffffffffffffffffffffffffffffff1673ffffffffffffffffffffffffffffffffffffffff166318160ddd6000604051602001526040518163ffffffff167c0100000000000000000000000000000000000000000000000000000000028152600401602060405180830381600087803b151561454057600080fd5b6102c65a03f1151561455157600080fd5b5050506040518051905061464d601960009054906101000a900473ffffffffffffffffffffffffffffffffffffffff1673ffffffffffffffffffffffffffffffffffffffff166370a08231876000604051602001526040518263ffffffff167c0100000000000000000000000000000000000000000000000000000000028152600401808273ffffffffffffffffffffffffffffffffffffffff1673ffffffffffffffffffffffffffffffffffffffff168152602001915050602060405180830381600087803b151561462357600080fd5b6102c65a03f1151561463457600080fd5b505050604051805190508961397990919063ffffffff16565b6139ac90919063ffffffff16565b8261394290919063ffffffff16565b905080601160008473ffffffffffffffffffffffffffffffffffffffff1673ffffffffffffffffffffffffffffffffffffffff168152602001908152602001600020819055506146c460018461394290919063ffffffff16565b92506143bf565b5050505050565b50805460008255600802906000526020600020908101906146f391906147d4565b50565b8154818355818115116147235760080281600802836000526020600020918201910161472291906147d4565b5b505050565b828054600181600116156101000203166002900490600052602060002090601f016020900481019282601f1061476957805160ff1916838001178555614797565b82800160010185558215614797579182015b8281111561479657825182559160200191906001019061477b565b5b5090506147a4919061485a565b5090565b8154818355818115116147cf578183600052602060002091820191016147ce919061485a565b5b505050565b61485791905b8082111561485357600080820160006101000a81549073ffffffffffffffffffffffffffffffffffffffff021916905560018201600061481a919061487f565b600282016000905560038201600090556004820160009055600582016000905560068201600090556007820160009055506008016147da565b5090565b90565b61487c91905b80821115614878576000816000905550600101614860565b5090565b90565b50805460018160011615610100020316600290046000825580601f106148a557506148c4565b601f0160209004906000526020600020908101906148c3919061485a565b5b505600a165627a7a7230582061bb58237a92260dd2eaa58a49aad7ca2e5a7b5e7872734331f075c58b9581eb0029",
  "source": "pragma solidity ^0.4.18;\r\n\r\nimport 'zeppelin-solidity/contracts/token/MintableToken.sol';\r\nimport 'zeppelin-solidity/contracts/math/SafeMath.sol';\r\nimport './etherdelta.sol';\r\nimport './oraclizeAPI_0.4.sol';\r\n\r\n// The main contract that keeps track of:\r\n// - Who is in the fund\r\n// - How much the fund has\r\n// - Each person's Share\r\n// - Each person's Control\r\ncontract GroupFund is Ownable {\r\n  using SafeMath for uint256;\r\n\r\n  enum CyclePhase { ChangeMaking, ProposalMaking, Waiting, Ended, Finalized }\r\n\r\n  struct Proposal {\r\n    address tokenAddress;\r\n    string tokenSymbol;\r\n    uint256 buyPriceInWeis;\r\n    uint256 sellPriceInWeis;\r\n    uint256 buyOrderExpirationBlockNum;\r\n    uint256 sellOrderExpirationBlockNum;\r\n    uint256 numFor;\r\n    uint256 numAgainst;\r\n  }\r\n\r\n  modifier during(CyclePhase phase) {\r\n    require(cyclePhase == phase);\r\n    _;\r\n  }\r\n\r\n  modifier onlyParticipant {\r\n    require(isParticipant[msg.sender]);\r\n    _;\r\n  }\r\n\r\n  modifier onlyOraclize {\r\n    require(msg.sender == oraclizeAddr);\r\n    _;\r\n  }\r\n\r\n  //Number of decimals used for proportions\r\n  uint256 public decimals;\r\n\r\n  // A list of everyone who is participating in the GroupFund\r\n  address[] public participants;\r\n  mapping(address => bool) public isParticipant;\r\n\r\n  //Address of the control token\r\n  address public controlTokenAddr;\r\n\r\n  address public etherDeltaAddr;\r\n\r\n  // The total amount of funds held by the group\r\n  uint256 public totalFundsInWeis;\r\n\r\n  //The start time for the current investment cycle, in seconds since Unix epoch\r\n  uint256 public startTimeOfCycle;\r\n\r\n  //Temporal length of each investment cycle, in seconds\r\n  uint256 public timeOfCycle;\r\n\r\n  //Temporal length of change making period at start of each cycle, in seconds\r\n  uint256 public timeOfChangeMaking;\r\n\r\n  //Temporal length of proposal making period at start of each cycle, in seconds\r\n  uint256 public timeOfProposalMaking;\r\n\r\n  //Proportion of control people who vote against a proposal have to stake\r\n  uint256 public againstStakeProportion;\r\n\r\n  uint256 public maxProposals;\r\n\r\n  uint256 public commissionRate;\r\n\r\n  uint256 public orderExpirationTimeInBlocks;\r\n\r\n  //The proportion of contract balance reserved for Oraclize fees\r\n  uint256 public oraclizeFeeProportion;\r\n\r\n  bool public isFirstCycle;\r\n\r\n  // Mapping from Participant address to their balance\r\n  mapping(address => uint256) public balanceOf;\r\n\r\n  // Mapping from Proposal to total amount of Control Tokens being staked by supporters\r\n  mapping(uint256 => uint256) public forStakedControlOfProposal;\r\n\r\n  // Mapping from Proposal to Participant to number of Control Tokens being staked\r\n  mapping(uint256 => mapping(address => uint256)) public forStakedControlOfProposalOfUser;\r\n\r\n  mapping(uint256 => mapping(address => uint256)) public againstStakedControlOfProposalOfUser;\r\n\r\n  mapping(bytes32 => uint256) public proposalIdOfQuery;\r\n\r\n  address public oraclizeAddr;\r\n\r\n  bool public initialized;\r\n  address public creator;\r\n\r\n  Proposal[] public proposals;\r\n  ControlToken internal cToken;\r\n  EtherDelta internal etherDelta;\r\n  OraclizeHandler internal oraclize;\r\n  CyclePhase public cyclePhase;\r\n\r\n  event CycleStarted(uint256 timestamp);\r\n  event ChangeMakingTimeEnded(uint256 timestamp);\r\n  event ProposalMakingTimeEnded(uint256 timestamp);\r\n  event CycleEnded(uint256 timestamp);\r\n  event CycleFinalized(uint256 timestamp);\r\n\r\n  // GroupFund constructor\r\n  function GroupFund(\r\n    address _etherDeltaAddr,\r\n    uint256 _decimals,\r\n    uint256 _timeOfCycle,\r\n    uint256 _timeOfChangeMaking,\r\n    uint256 _timeOfProposalMaking,\r\n    uint256 _againstStakeProportion,\r\n    uint256 _maxProposals,\r\n    uint256 _commissionRate,\r\n    uint256 _orderExpirationTimeInBlocks,\r\n    uint256 _oraclizeFeeProportion\r\n  )\r\n    public\r\n  {\r\n    require(_timeOfChangeMaking.add(_timeOfProposalMaking) <= _timeOfCycle);\r\n    etherDeltaAddr = _etherDeltaAddr;\r\n    decimals = _decimals;\r\n    timeOfCycle = _timeOfCycle;\r\n    timeOfChangeMaking = _timeOfChangeMaking;\r\n    timeOfProposalMaking = _timeOfProposalMaking;\r\n    againstStakeProportion = _againstStakeProportion;\r\n    maxProposals = _maxProposals;\r\n    commissionRate = _commissionRate;\r\n    orderExpirationTimeInBlocks = _orderExpirationTimeInBlocks;\r\n    oraclizeFeeProportion = _oraclizeFeeProportion;\r\n    startTimeOfCycle = 0;\r\n    isFirstCycle = true;\r\n    cyclePhase = CyclePhase.Finalized;\r\n    creator = msg.sender;\r\n\r\n    //Initialize etherDelta contract\r\n    etherDelta = EtherDelta(etherDeltaAddr);\r\n  }\r\n\r\n  function initializeSubcontracts(address _cTokenAddr, address _oraclizeAddr) public {\r\n    require(msg.sender == creator);\r\n    require(!initialized);\r\n\r\n    initialized = true;\r\n\r\n    controlTokenAddr = _cTokenAddr;\r\n    oraclizeAddr = _oraclizeAddr;\r\n\r\n    cToken = ControlToken(controlTokenAddr);\r\n    oraclize = OraclizeHandler(oraclizeAddr);\r\n  }\r\n\r\n  function changeEtherDeltaAddress(address _newAddr) public onlyOwner {\r\n    etherDeltaAddr = _newAddr;\r\n    etherDelta = EtherDelta(_newAddr);\r\n    oraclize.__changeEtherDeltaAddress(_newAddr);\r\n  }\r\n\r\n  function topupOraclizeFees() public payable onlyOwner {\r\n    oraclizeAddr.transfer(msg.value);\r\n  }\r\n\r\n  // Creates a new Cycle\r\n  function startNewCycle() public during(CyclePhase.Finalized) {\r\n    require(initialized);\r\n    require(now >= startTimeOfCycle.add(timeOfCycle));\r\n\r\n    cyclePhase = CyclePhase.ChangeMaking;\r\n\r\n    startTimeOfCycle = now;\r\n    CycleStarted(now);\r\n  }\r\n\r\n  //Change making time functions\r\n\r\n  function deposit()\r\n    public\r\n    payable\r\n    during(CyclePhase.ChangeMaking)\r\n  {\r\n    if (!isParticipant[msg.sender]) {\r\n      participants.push(msg.sender);\r\n      isParticipant[msg.sender] = true;\r\n    }\r\n\r\n    //Register investment\r\n    uint256 fees = msg.value.mul(oraclizeFeeProportion).div(10**decimals);\r\n    balanceOf[msg.sender] = balanceOf[msg.sender].add(msg.value).sub(fees);\r\n    totalFundsInWeis = totalFundsInWeis.add(msg.value).sub(fees);\r\n    oraclizeAddr.transfer(fees);\r\n\r\n    if (isFirstCycle) {\r\n      //Give control tokens proportional to investment\r\n      cToken.mint(msg.sender, msg.value);\r\n    }\r\n  }\r\n\r\n  // Withdraw from GroupFund\r\n  function withdraw(uint256 _amountInWeis)\r\n    public\r\n    during(CyclePhase.ChangeMaking)\r\n    onlyParticipant\r\n  {\r\n    require(!isFirstCycle);\r\n\r\n    totalFundsInWeis = totalFundsInWeis.sub(_amountInWeis);\r\n    balanceOf[msg.sender] = balanceOf[msg.sender].sub(_amountInWeis);\r\n\r\n    msg.sender.transfer(_amountInWeis);\r\n  }\r\n\r\n  function endChangeMakingTime() public during(CyclePhase.ChangeMaking) {\r\n    //require(now >= startTimeOfCycle.add(timeOfChangeMaking));\r\n\r\n    cyclePhase = CyclePhase.ProposalMaking;\r\n\r\n    ChangeMakingTimeEnded(now);\r\n  }\r\n\r\n  //Proposal making time functions\r\n  function createProposal(\r\n    address _tokenAddress,\r\n    string _tokenSymbol,\r\n    uint256 _amountInWeis\r\n  )\r\n    public\r\n    during(CyclePhase.ProposalMaking)\r\n    onlyParticipant\r\n  {\r\n    require(proposals.length < maxProposals);\r\n\r\n    proposals.push(Proposal({\r\n      tokenAddress: _tokenAddress,\r\n      tokenSymbol: _tokenSymbol,\r\n      buyPriceInWeis: 0,\r\n      sellPriceInWeis: 0,\r\n      numFor: 0,\r\n      numAgainst: 0,\r\n      buyOrderExpirationBlockNum: 0,\r\n      sellOrderExpirationBlockNum: 0\r\n    }));\r\n\r\n    oraclize.__pushTokenSymbolOfProposal(_tokenSymbol);\r\n\r\n    //Stake control tokens\r\n    uint256 proposalId = proposals.length - 1;\r\n    supportProposal(proposalId, _amountInWeis);\r\n  }\r\n\r\n  function supportProposal(uint256 _proposalId, uint256 _amountInWeis)\r\n    public\r\n    during(CyclePhase.ProposalMaking)\r\n    onlyParticipant\r\n  {\r\n    require(_proposalId < proposals.length);\r\n\r\n    //Stake control tokens\r\n    uint256 controlStake = _amountInWeis.mul(cToken.totalSupply()).div(totalFundsInWeis);\r\n    //Collect staked control tokens\r\n    cToken.ownerCollectFrom(msg.sender, controlStake);\r\n    //Update stake data\r\n    proposals[_proposalId].numFor = proposals[_proposalId].numFor.add(1);\r\n    forStakedControlOfProposal[_proposalId] = forStakedControlOfProposal[_proposalId].add(controlStake);\r\n    forStakedControlOfProposalOfUser[_proposalId][msg.sender] = forStakedControlOfProposalOfUser[_proposalId][msg.sender].add(controlStake);\r\n  }\r\n\r\n  function endProposalMakingTime()\r\n    public\r\n    during(CyclePhase.ProposalMaking)\r\n  {\r\n    //require(now >= startTimeOfCycle.add(timeOfChangeMaking).add(timeOfProposalMaking));\r\n\r\n    cyclePhase = CyclePhase.Waiting;\r\n\r\n    //Stake against votes\r\n    for (uint256 i = 0; i < participants.length; i = i.add(1)) {\r\n      address participant = participants[i];\r\n      uint256 stakeAmount = cToken.balanceOf(participant).mul(againstStakeProportion).div(10**decimals);\r\n      if (stakeAmount != 0) {\r\n        for (uint256 j = 0; j < proposals.length; j = j.add(1)) {\r\n          bool isFor = forStakedControlOfProposalOfUser[j][participant] != 0;\r\n          if (!isFor) {\r\n            cToken.ownerCollectFrom(participant, stakeAmount);\r\n            proposals[j].numAgainst = proposals[j].numAgainst.add(1);\r\n            againstStakedControlOfProposalOfUser[j][participant] = againstStakedControlOfProposalOfUser[j][participant].add(stakeAmount);\r\n          }\r\n        }\r\n      }\r\n    }\r\n\r\n    //Invest in tokens using etherdelta\r\n    for (i = 0; i < proposals.length; i = i.add(1)) {\r\n      //Deposit ether\r\n      uint256 investAmount = totalFundsInWeis.mul(forStakedControlOfProposal[i]).div(cToken.totalSupply());\r\n      assert(etherDelta.call.value(investAmount)(bytes4(keccak256(\"deposit()\"))));\r\n      oraclize.__grabCurrentPriceFromOraclize(i);\r\n    }\r\n\r\n    ProposalMakingTimeEnded(now);\r\n  }\r\n\r\n  function endCycle() public during(CyclePhase.Waiting) {\r\n    //require(now >= startTimeOfCycle.add(timeOfCycle));\r\n\r\n    if (isFirstCycle) {\r\n      cToken.finishMinting();\r\n    }\r\n    cyclePhase = CyclePhase.Ended;\r\n    isFirstCycle = false;\r\n\r\n    //Sell all invested tokens\r\n    for (uint256 i = 0; i < proposals.length; i = i.add(1)) {\r\n      oraclize.__grabCurrentPriceFromOraclize(i);\r\n    }\r\n\r\n    CycleEnded(now);\r\n  }\r\n\r\n  function finalizeEndCycle() public during(CyclePhase.Ended) {\r\n    cyclePhase = CyclePhase.Finalized;\r\n\r\n    //Ensure all the sell orders are inactive\r\n    for (uint256 proposalId = 0; proposalId < proposals.length; proposalId = proposalId.add(1)) {\r\n      Proposal storage prop = proposals[proposalId];\r\n      uint256 sellTokenAmount = etherDelta.tokens(prop.tokenAddress, address(this));\r\n      uint256 getWeiAmount = sellTokenAmount.mul(prop.sellPriceInWeis);\r\n\r\n      uint256 amountFilled = etherDelta.amountFilled(address(0), getWeiAmount, prop.tokenAddress, sellTokenAmount, prop.sellOrderExpirationBlockNum, proposalId, address(this), 0, 0, 0);\r\n      require(amountFilled == sellTokenAmount || block.number > prop.sellOrderExpirationBlockNum);\r\n\r\n      __settleBets(proposalId, prop);\r\n    }\r\n    //Withdraw from etherdelta\r\n    uint256 balance = etherDelta.tokens(address(0), address(this));\r\n    etherDelta.withdraw(balance);\r\n\r\n    __distributeFundsAfterCycleEnd();\r\n\r\n    //Reset data\r\n    totalFundsInWeis = this.balance;\r\n    oraclize.__deleteTokenSymbolOfProposal();\r\n    delete proposals;\r\n\r\n    CycleFinalized(now);\r\n  }\r\n\r\n  //Seperated from finalizeEndCycle() to avoid StackTooDeep error\r\n  function __settleBets(uint256 proposalId, Proposal prop) internal {\r\n    //Settle bets\r\n    uint256 tokenReward;\r\n    uint256 stake;\r\n    uint256 j;\r\n    address participant;\r\n    uint256 investAmount = totalFundsInWeis.mul(forStakedControlOfProposal[proposalId]).div(cToken.totalSupply());\r\n    if (etherDelta.amountFilled(prop.tokenAddress, investAmount.div(prop.buyPriceInWeis), address(0), investAmount, prop.sellOrderExpirationBlockNum, proposalId, address(this), 0, 0, 0) != 0) {\r\n      if (prop.sellPriceInWeis >= prop.buyPriceInWeis) {\r\n        //For wins\r\n        tokenReward = cToken.totalSupply().sub(forStakedControlOfProposal[proposalId]).mul(againstStakeProportion).div(10**decimals.mul(prop.numFor));\r\n        for (j = 0; j < participants.length; j = j.add(1)) {\r\n          participant = participants[j];\r\n          stake = forStakedControlOfProposalOfUser[proposalId][participant];\r\n          if (stake != 0) {\r\n            //Give control tokens\r\n            cToken.transfer(participant, stake.add(tokenReward));\r\n          }\r\n        }\r\n      } else {\r\n        //Against wins\r\n        tokenReward = forStakedControlOfProposal[proposalId].div(prop.numAgainst);\r\n        for (j = 0; j < participants.length; j = j.add(1)) {\r\n          participant = participants[j];\r\n          stake = againstStakedControlOfProposalOfUser[proposalId][participant];\r\n          if (stake != 0) {\r\n            //Give control tokens\r\n            cToken.transfer(participant, stake.add(tokenReward));\r\n          }\r\n        }\r\n      }\r\n    } else {\r\n      //Buy order failed completely. Give back stakes.\r\n      for (j = 0; j < participants.length; j = j.add(1)) {\r\n        participant = participants[j];\r\n        stake = forStakedControlOfProposalOfUser[proposalId][participant].add(againstStakedControlOfProposalOfUser[proposalId][participant]);\r\n        if (stake != 0) {\r\n          cToken.transfer(participant, stake);\r\n        }\r\n      }\r\n    }\r\n  }\r\n\r\n  //Seperated from finalizeEndCycle() to avoid StackTooDeep error\r\n  function __distributeFundsAfterCycleEnd() internal {\r\n    //Distribute funds\r\n    uint256 totalCommission = commissionRate.mul(this.balance).div(10**decimals);\r\n    uint256 feeReserve = 0;//oraclizeFeeProportion.mul(this.balance).div(10**decimals);\r\n\r\n    for (uint256 i = 0; i < participants.length; i = i.add(1)) {\r\n      address participant = participants[i];\r\n      uint256 newBalance = this.balance.sub(totalCommission).sub(feeReserve).mul(balanceOf[participant]).div(totalFundsInWeis);\r\n      //Add commission\r\n      newBalance = newBalance.add(totalCommission.mul(cToken.balanceOf(participant)).div(cToken.totalSupply()));\r\n      balanceOf[participant] = newBalance;\r\n    }\r\n  }\r\n\r\n  function __addControlTokenReceipientAsParticipant(address _receipient) public {\r\n    require(msg.sender == controlTokenAddr);\r\n    isParticipant[_receipient] = true;\r\n    participants.push(_receipient);\r\n  }\r\n\r\n  function __setProposalIdOfQuery(bytes32 _queryId, uint256 _proposalId) public onlyOraclize {\r\n    proposalIdOfQuery[_queryId] = _proposalId;\r\n  }\r\n\r\n  function __deleteProposalIdOfQuery(bytes32 _queryId) public onlyOraclize {\r\n    delete proposalIdOfQuery[_queryId];\r\n  }\r\n\r\n  function __makeOrder(address _tokenGet, uint _amountGet, address _tokenGive, uint _amountGive, uint _expires, uint _nonce) public onlyOraclize {\r\n    etherDelta.order(_tokenGet, _amountGet, _tokenGive, _amountGive, _expires, _nonce);\r\n  }\r\n\r\n  function __setBuyPriceAndExpirationBlock(uint256 _proposalId, uint256 _buyPrice, uint256 _expires) public onlyOraclize {\r\n    proposals[_proposalId].buyPriceInWeis = _buyPrice;\r\n    proposals[_proposalId].buyOrderExpirationBlockNum = _expires;\r\n  }\r\n\r\n  function __setSellPriceAndExpirationBlock(uint256 _proposalId, uint256 _sellPrice, uint256 _expires) public onlyOraclize {\r\n    proposals[_proposalId].sellPriceInWeis = _sellPrice;\r\n    proposals[_proposalId].sellOrderExpirationBlockNum = _expires;\r\n  }\r\n\r\n  function() public payable {\r\n    if (msg.sender != etherDeltaAddr) {\r\n      revert();\r\n    }\r\n  }\r\n}\r\n\r\ncontract OraclizeHandler is usingOraclize, Ownable {\r\n  using SafeMath for uint256;\r\n\r\n  enum CyclePhase { ChangeMaking, ProposalMaking, Waiting, Ended, Finalized }\r\n\r\n  // URL for querying prices, default is set to cryptocompare\r\n  // Later on, modify this to be more flexible for additional queries, etc.\r\n  string public priceCheckURL1;\r\n  string public priceCheckURL2;\r\n  string public priceCheckURL3;\r\n\r\n  address public controlTokenAddr;\r\n  address public etherDeltaAddr;\r\n\r\n  GroupFund internal groupFund;\r\n  ControlToken internal cToken;\r\n  EtherDelta internal etherDelta;\r\n\r\n  string[] public tokenSymbolOfProposal;\r\n\r\n  function OraclizeHandler(address _controlTokenAddr, address _etherDeltaAddr) public {\r\n    controlTokenAddr = _controlTokenAddr;\r\n    etherDeltaAddr = _etherDeltaAddr;\r\n    cToken = ControlToken(_controlTokenAddr);\r\n    etherDelta = EtherDelta(_etherDeltaAddr);\r\n    // Initialize cryptocompare URLs:\r\n    priceCheckURL1 = \"json(https://min-api.cryptocompare.com/data/price?fsym=\";\r\n    priceCheckURL2 = \"&tsyms=\";\r\n    priceCheckURL3 = \").ETH\";\r\n  }\r\n\r\n  function __changeEtherDeltaAddress(address _newAddr) public onlyOwner {\r\n    etherDeltaAddr = _newAddr;\r\n    etherDelta = EtherDelta(_newAddr);\r\n  }\r\n\r\n  function __pushTokenSymbolOfProposal(string _tokenSymbol) public onlyOwner {\r\n    tokenSymbolOfProposal.push(_tokenSymbol);\r\n  }\r\n\r\n  function __deleteTokenSymbolOfProposal() public onlyOwner {\r\n    delete tokenSymbolOfProposal;\r\n  }\r\n  //Oraclize functions\r\n\r\n  // Query Oraclize for the current price\r\n  function __grabCurrentPriceFromOraclize(uint _proposalId) public payable onlyOwner {\r\n    groupFund = GroupFund(owner);\r\n\r\n    string storage tokenSymbol = tokenSymbolOfProposal[_proposalId];\r\n    // Grab the cryptocompare URL that is the price in ETH of the token to purchase\r\n    string memory etherSymbol = \"ETH\";\r\n    string memory urlToQuery = strConcat(priceCheckURL1, tokenSymbol, priceCheckURL2, etherSymbol, priceCheckURL3);\r\n\r\n    string memory url = \"URL\";\r\n\r\n    // Call Oraclize to grab the most recent price information via JSON\r\n    groupFund.__setProposalIdOfQuery(oraclize_query(url, urlToQuery), _proposalId);\r\n  }\r\n\r\n  // Callback function from Oraclize query:\r\n  function __callback(bytes32 _myID, string _result) public {\r\n    require(msg.sender == oraclize_cbAddress());\r\n    groupFund = GroupFund(owner);\r\n\r\n    // Grab ETH price in Weis\r\n    uint256 priceInWeis = parseInt(_result, 18);\r\n\r\n    uint256 proposalId = groupFund.proposalIdOfQuery(_myID);\r\n    var (tokenAddress,) = groupFund.proposals(proposalId);\r\n\r\n    //Reset data\r\n    groupFund.__deleteProposalIdOfQuery(_myID);\r\n\r\n    uint256 investAmount = groupFund.totalFundsInWeis().mul(groupFund.forStakedControlOfProposal(proposalId)).div(cToken.totalSupply());\r\n    uint256 expires = block.number.add(groupFund.orderExpirationTimeInBlocks());\r\n    if (uint(groupFund.cyclePhase()) == uint(CyclePhase.Waiting)) {\r\n      //Buy\r\n      groupFund.__setBuyPriceAndExpirationBlock(proposalId, priceInWeis, expires);\r\n\r\n      uint256 buyTokenAmount = investAmount.div(priceInWeis);\r\n      groupFund.__makeOrder(tokenAddress, buyTokenAmount, address(0), investAmount, expires, proposalId);\r\n    } else if (uint(groupFund.cyclePhase()) == uint(CyclePhase.Ended)) {\r\n      //Sell\r\n      groupFund.__setSellPriceAndExpirationBlock(proposalId, priceInWeis, expires);\r\n\r\n      uint256 sellTokenAmount = etherDelta.tokens(tokenAddress, owner);\r\n      uint256 getWeiAmount = sellTokenAmount.mul(priceInWeis);\r\n      groupFund.__makeOrder(address(0), getWeiAmount, tokenAddress, sellTokenAmount, expires, proposalId);\r\n    }\r\n  }\r\n\r\n  function() public payable {\r\n    if (msg.sender != owner) {\r\n      revert();\r\n    }\r\n  }\r\n}\r\n\r\n//Proportional to Wei when minted\r\ncontract ControlToken is MintableToken {\r\n  using SafeMath for uint256;\r\n\r\n  event OwnerCollectFrom(address _from, uint256 _value);\r\n\r\n  function transfer(address _to, uint256 _value) public returns(bool) {\r\n    require(_to != address(0));\r\n    require(_value <= balances[msg.sender]);\r\n\r\n    //Add receipient as a participant if not already a participant\r\n    addParticipant(_to);\r\n\r\n    // SafeMath.sub will throw if there is not enough balance.\r\n    balances[msg.sender] = balances[msg.sender].sub(_value);\r\n    balances[_to] = balances[_to].add(_value);\r\n    Transfer(msg.sender, _to, _value);\r\n    return true;\r\n  }\r\n\r\n  function transferFrom(address _from, address _to, uint256 _value) public returns (bool) {\r\n    require(_to != address(0));\r\n    require(_value <= balances[_from]);\r\n    require(_value <= allowed[_from][msg.sender]);\r\n\r\n    //Add receipient as a participant if not already a participant\r\n    addParticipant(_to);\r\n\r\n    balances[_from] = balances[_from].sub(_value);\r\n    balances[_to] = balances[_to].add(_value);\r\n    allowed[_from][msg.sender] = allowed[_from][msg.sender].sub(_value);\r\n    Transfer(_from, _to, _value);\r\n    return true;\r\n  }\r\n\r\n  function ownerCollectFrom(address _from, uint256 _value) public onlyOwner returns(bool) {\r\n    require(_from != address(0));\r\n    require(_value <= balances[_from]);\r\n\r\n    // SafeMath.sub will throw if there is not enough balance.\r\n    balances[_from] = balances[_from].sub(_value);\r\n    balances[msg.sender] = balances[msg.sender].add(_value);\r\n    OwnerCollectFrom(_from, _value);\r\n    return true;\r\n  }\r\n\r\n  function addParticipant(address _to) internal {\r\n    GroupFund groupFund = GroupFund(owner);\r\n    if (!groupFund.isParticipant(_to)) {\r\n      groupFund.__addControlTokenReceipientAsParticipant(_to);\r\n    }\r\n  }\r\n\r\n  function() public {\r\n    revert();\r\n  }\r\n}\r\n",
  "sourcePath": "D:\\msi-cn\\Documents\\GitHub\\betoken\\contracts\\betoken.sol",
  "compiler": {
    "name": "solc",
    "version": "0.4.18+commit.9cf6e910.Emscripten.clang"
  },
  "schemaVersion": "1.0.1",
  "updatedAt": "2017-11-16T06:04:53.843Z"
}