{
  "contractName": "GroupFund",
  "abi": [
    {
      "constant": true,
      "inputs": [
        {
          "name": "",
          "type": "uint256"
        }
      ],
      "name": "proposals",
      "outputs": [
        {
          "name": "tokenAddress",
          "type": "address"
        },
        {
          "name": "tokenSymbol",
          "type": "string"
        },
        {
          "name": "buyPriceInWeis",
          "type": "uint256"
        },
        {
          "name": "sellPriceinWeis",
          "type": "uint256"
        },
        {
          "name": "buyOrderExpirationBlockNum",
          "type": "uint256"
        },
        {
          "name": "sellOrderExpirationBlockNum",
          "type": "uint256"
        },
        {
          "name": "numFor",
          "type": "uint256"
        },
        {
          "name": "numAgainst",
          "type": "uint256"
        }
      ],
      "payable": false,
      "stateMutability": "view",
      "type": "function"
    },
    {
      "constant": false,
      "inputs": [],
      "name": "endCycle",
      "outputs": [],
      "payable": false,
      "stateMutability": "nonpayable",
      "type": "function"
    },
    {
      "constant": true,
      "inputs": [
        {
          "name": "",
          "type": "uint256"
        },
        {
          "name": "",
          "type": "address"
        }
      ],
      "name": "forStakedControlOfProposalOfUser",
      "outputs": [
        {
          "name": "",
          "type": "uint256"
        }
      ],
      "payable": false,
      "stateMutability": "view",
      "type": "function"
    },
    {
      "constant": true,
      "inputs": [],
      "name": "isFirstCycle",
      "outputs": [
        {
          "name": "",
          "type": "bool"
        }
      ],
      "payable": false,
      "stateMutability": "view",
      "type": "function"
    },
    {
      "constant": true,
      "inputs": [
        {
          "name": "_myID",
          "type": "bytes32"
        },
        {
          "name": "_result",
          "type": "string"
        }
      ],
      "name": "priceCheckURL1",
      "outputs": [
        {
          "name": "",
          "type": "string"
        }
      ],
      "payable": false,
      "stateMutability": "view",
      "type": "function"
    },
    {
      "constant": false,
      "inputs": [
        {
          "name": "_myID",
          "type": "bytes32"
        },
        {
          "name": "_result",
          "type": "string"
        }
      ],
      "name": "__callback",
      "outputs": [
        {
          "name": "",
          "type": "uint256"
        }
      ],
      "payable": false,
      "stateMutability": "nonpayable",
      "type": "function"
    },
    {
      "constant": true,
      "inputs": [
        {
          "name": "_amountInWeis",
          "type": "uint256"
        }
      ],
      "name": "timeOfChangeMaking",
      "outputs": [
        {
          "name": "",
          "type": "uint256"
        }
      ],
      "payable": false,
      "stateMutability": "view",
      "type": "function"
    },
    {
      "constant": false,
      "inputs": [
        {
          "name": "_amountInWeis",
          "type": "uint256"
        }
      ],
      "name": "withdraw",
      "outputs": [
        {
          "name": "",
          "type": "uint256"
        }
      ],
      "payable": false,
      "stateMutability": "nonpayable",
      "type": "function"
    },
    {
      "constant": true,
      "inputs": [
        {
          "name": "",
          "type": "uint256"
        },
        {
          "name": "",
          "type": "address"
        }
      ],
      "name": "againstStakedControlOfProposalOfUser",
      "outputs": [
        {
          "name": "",
          "type": "uint256"
        }
      ],
      "payable": false,
      "stateMutability": "view",
      "type": "function"
    },
    {
      "constant": true,
      "inputs": [
        {
          "name": "",
          "type": "uint256"
        },
        {
          "name": "",
          "type": "address"
        }
      ],
      "name": "maxProposals",
      "outputs": [
        {
          "name": "",
          "type": "uint256"
        }
      ],
      "payable": false,
      "stateMutability": "view",
      "type": "function"
    },
    {
      "constant": true,
      "inputs": [
        {
          "name": "myid",
          "type": "bytes32"
        },
        {
          "name": "result",
          "type": "string"
        },
        {
          "name": "proof",
          "type": "bytes"
        }
      ],
      "name": "decimals",
      "outputs": [
        {
          "name": "",
          "type": "uint256"
        }
      ],
      "payable": false,
      "stateMutability": "view",
      "type": "function"
    },
    {
      "constant": true,
      "inputs": [
        {
          "name": "",
          "type": "uint256"
        },
        {
          "name": "",
          "type": "address"
        },
        {
          "name": "_tokenPriceInWeis",
          "type": "uint256"
        },
        {
          "name": "_amountInWeis",
          "type": "uint256"
        }
      ],
      "name": "participants",
      "outputs": [
        {
          "name": "",
          "type": "address"
        }
      ],
      "payable": false,
      "stateMutability": "view",
      "type": "function"
    },
    {
      "constant": false,
      "inputs": [
        {
          "name": "myid",
          "type": "bytes32"
        },
        {
          "name": "result",
          "type": "string"
        },
        {
          "name": "proof",
          "type": "bytes"
        }
      ],
      "name": "__callback",
      "outputs": [
        {
          "name": "",
          "type": "uint256"
        }
      ],
      "payable": false,
      "stateMutability": "nonpayable",
      "type": "function"
    },
    {
      "constant": true,
      "inputs": [
        {
          "name": "",
          "type": "address"
        }
      ],
      "name": "commissionRate",
      "outputs": [
        {
          "name": "",
          "type": "uint256"
        }
      ],
      "payable": false,
      "stateMutability": "view",
      "type": "function"
    },
    {
      "constant": true,
      "inputs": [
        {
          "name": "",
          "type": "address"
        },
        {
          "name": "_amountInWeis",
          "type": "uint256"
        }
      ],
      "name": "balanceOf",
      "outputs": [
        {
          "name": "",
          "type": "uint256"
        }
      ],
      "payable": false,
      "stateMutability": "view",
      "type": "function"
    },
    {
      "constant": false,
      "inputs": [
        {
          "name": "_proposalId",
          "type": "uint256"
        },
        {
          "name": "_amountInWeis",
          "type": "uint256"
        }
      ],
      "name": "supportProposal",
      "outputs": [
        {
          "name": "",
          "type": "uint256"
        }
      ],
      "payable": false,
      "stateMutability": "nonpayable",
      "type": "function"
    },
    {
      "constant": true,
      "inputs": [
        {
          "name": "_receipient",
          "type": "address"
        }
      ],
      "name": "totalFundsInWeis",
      "outputs": [
        {
          "name": "",
          "type": "uint256"
        }
      ],
      "payable": false,
      "stateMutability": "view",
      "type": "function"
    },
    {
      "constant": false,
      "inputs": [],
      "name": "startNewCycle",
      "outputs": [
        {
          "name": "",
          "type": "uint256"
        }
      ],
      "payable": false,
      "stateMutability": "nonpayable",
      "type": "function"
    },
    {
      "constant": true,
      "inputs": [
        {
          "name": "_receipient",
          "type": "address"
        }
      ],
      "name": "timeOfCycle",
      "outputs": [
        {
          "name": "",
          "type": "uint256"
        }
      ],
      "payable": false,
      "stateMutability": "view",
      "type": "function"
    },
    {
      "constant": true,
      "inputs": [
        {
          "name": "receipient",
          "type": "address"
        }
      ],
      "name": "orderExpirationTimeInBlocks",
      "outputs": [
        {
          "name": "",
          "type": "uint256"
        }
      ],
      "payable": false,
      "stateMutability": "view",
      "type": "function"
    },
    {
      "constant": false,
      "inputs": [
        {
          "name": "_receipient",
          "type": "address"
        }
      ],
      "name": "addControlTokenReceipientAsParticipant",
      "outputs": [
        {
          "name": "",
          "type": "bool"
        }
      ],
      "payable": false,
      "stateMutability": "nonpayable",
      "type": "function"
    },
    {
      "constant": false,
      "inputs": [],
      "name": "finalizeEndCycle",
      "outputs": [
        {
          "name": "",
          "type": "uint256"
        }
      ],
      "payable": false,
      "stateMutability": "nonpayable",
      "type": "function"
    },
    {
      "constant": false,
      "inputs": [
        {
          "name": "",
          "type": "uint256"
        }
      ],
      "name": "endProposalMakingTime",
      "outputs": [
        {
          "name": "",
          "type": "address"
        }
      ],
      "payable": false,
      "stateMutability": "nonpayable",
      "type": "function"
    },
    {
      "constant": true,
      "inputs": [
        {
          "name": "",
          "type": "address"
        }
      ],
      "name": "isParticipant",
      "outputs": [
        {
          "name": "",
          "type": "bool"
        }
      ],
      "payable": false,
      "stateMutability": "view",
      "type": "function"
    },
    {
      "constant": true,
      "inputs": [
        {
          "name": "_tokenAddress",
          "type": "address"
        },
        {
          "name": "_tokenSymbol",
          "type": "string"
        },
        {
          "name": "_amountInWeis",
          "type": "uint256"
        }
      ],
      "name": "startTimeOfCycle",
      "outputs": [
        {
          "name": "",
          "type": "uint256"
        }
      ],
      "payable": false,
      "stateMutability": "view",
      "type": "function"
    },
    {
      "constant": true,
      "inputs": [],
      "name": "etherDeltaAddr",
      "outputs": [
        {
          "name": "",
          "type": "address"
        }
      ],
      "payable": false,
      "stateMutability": "view",
      "type": "function"
    },
    {
      "constant": false,
      "inputs": [
        {
          "name": "_proposalId",
          "type": "uint256"
        }
      ],
      "name": "grabCurrentPriceFromOraclize",
      "outputs": [
        {
          "name": "",
          "type": "uint256"
        }
      ],
      "payable": true,
      "stateMutability": "payable",
      "type": "function"
    },
    {
      "constant": false,
      "inputs": [
        {
          "name": "_tokenAddress",
          "type": "address"
        },
        {
          "name": "_tokenSymbol",
          "type": "string"
        },
        {
          "name": "_amountInWeis",
          "type": "uint256"
        }
      ],
      "name": "createProposal",
      "outputs": [
        {
          "name": "",
          "type": "uint8"
        }
      ],
      "payable": false,
      "stateMutability": "nonpayable",
      "type": "function"
    },
    {
      "constant": true,
      "inputs": [
        {
          "name": "_etherDeltaAddr",
          "type": "address"
        },
        {
          "name": "_decimals",
          "type": "uint256"
        },
        {
          "name": "_timeOfCycle",
          "type": "uint256"
        },
        {
          "name": "_timeOfChangeMaking",
          "type": "uint256"
        },
        {
          "name": "_timeOfProposalMaking",
          "type": "uint256"
        },
        {
          "name": "_againstStakeProportion",
          "type": "uint256"
        },
        {
          "name": "_maxProposals",
          "type": "uint256"
        },
        {
          "name": "_commissionRate",
          "type": "uint256"
        }
      ],
      "name": "oraclizeFeeProportion",
      "outputs": [
        {
          "name": "",
          "type": "uint256"
        }
      ],
      "payable": false,
      "stateMutability": "view",
      "type": "function"
    },
    {
      "constant": true,
      "inputs": [
        {
          "name": "",
          "type": "uint256"
        }
      ],
      "name": "forStakedControlOfProposal",
      "outputs": [
        {
          "name": "",
          "type": "uint256"
        }
      ],
      "payable": false,
      "stateMutability": "view",
      "type": "function"
    },
    {
      "constant": false,
      "inputs": [
        {
          "indexed": false,
          "name": "timestamp",
          "type": "uint256"
        }
      ],
      "name": "endChangeMakingTime",
      "outputs": [
        {
          "name": "",
          "type": "uint256"
        }
      ],
      "payable": false,
      "stateMutability": "nonpayable",
      "type": "function",
      "anonymous": false
    },
    {
      "inputs": [
        {
          "name": "timestamp",
          "type": "uint256",
          "indexed": false
        },
        {
          "name": "_decimals",
          "type": "uint256"
        },
        {
          "name": "_timeOfCycle",
          "type": "uint256"
        },
        {
          "name": "_timeOfChangeMaking",
          "type": "uint256"
        },
        {
          "name": "_againstStakeProportion",
          "type": "uint256"
        },
        {
          "name": "_maxProposals",
          "type": "uint256"
        },
        {
          "name": "_commissionRate",
          "type": "uint256"
        }
      ],
      "payable": true,
      "stateMutability": "payable",
      "type": "function",
      "anonymous": false,
      "name": "deposit",
      "constant": false,
      "outputs": [
        {
          "name": "",
          "type": "address"
        }
      ]
    },
    {
      "payable": false,
      "stateMutability": "view",
      "type": "function",
      "anonymous": false,
      "inputs": [
        {
          "indexed": false,
          "name": "timestamp",
          "type": "uint256"
        }
      ],
      "name": "againstStakeProportion",
      "constant": true,
      "outputs": [
        {
          "name": "",
          "type": "uint256"
        }
      ]
    },
    {
      "anonymous": false,
      "inputs": [
        {
          "indexed": false,
          "name": "timestamp",
          "type": "uint256"
        }
      ],
      "name": "priceCheckURL2",
      "type": "function",
      "constant": true,
      "outputs": [
        {
          "name": "",
          "type": "string"
        }
      ],
      "payable": false,
      "stateMutability": "view"
    },
    {
      "anonymous": false,
      "inputs": [
        {
          "indexed": false,
          "name": "_etherDeltaAddr",
          "type": "address"
        },
        {
          "name": "_decimals",
          "type": "uint256"
        },
        {
          "name": "_timeOfCycle",
          "type": "uint256"
        },
        {
          "name": "_timeOfChangeMaking",
          "type": "uint256"
        },
        {
          "name": "_timeOfProposalMaking",
          "type": "uint256"
        },
        {
          "name": "_againstStakeProportion",
          "type": "uint256"
        },
        {
          "name": "_maxProposals",
          "type": "uint256"
        },
        {
          "name": "_commissionRate",
          "type": "uint256"
        }
      ],
      "name": "timeOfProposalMaking",
      "type": "function",
      "payable": false,
      "stateMutability": "view",
      "constant": true,
      "outputs": [
        {
          "name": "",
          "type": "uint256"
        }
      ]
    },
    {
      "anonymous": false,
      "inputs": [
        {
          "indexed": false,
          "name": "timestamp",
          "type": "uint256"
        }
      ],
      "name": "controlTokenAddr",
      "type": "function",
      "payable": false,
      "stateMutability": "view",
      "constant": true,
      "outputs": [
        {
          "name": "",
          "type": "address"
        }
      ]
    },
    {
      "anonymous": false,
      "inputs": [
        {
          "indexed": false,
          "name": "timestamp",
          "type": "uint256"
        }
      ],
      "name": "priceCheckURL3",
      "type": "function",
      "constant": true,
      "outputs": [
        {
          "name": "",
          "type": "string"
        }
      ],
      "payable": false,
      "stateMutability": "view"
    },
    {
      "anonymous": false,
      "inputs": [
        {
          "indexed": false,
          "name": "timestamp",
          "type": "uint256"
        }
      ],
      "name": "cyclePhase",
      "type": "function",
      "constant": true,
      "outputs": [
        {
          "name": "",
          "type": "uint8"
        }
      ],
      "payable": false,
      "stateMutability": "view"
    },
    {
      "anonymous": false,
      "inputs": [
        {
          "indexed": false,
          "name": "_etherDeltaAddr",
          "type": "address"
        },
        {
          "name": "_decimals",
          "type": "uint256"
        },
        {
          "name": "_timeOfCycle",
          "type": "uint256"
        },
        {
          "name": "_timeOfChangeMaking",
          "type": "uint256"
        },
        {
          "name": "_timeOfProposalMaking",
          "type": "uint256"
        },
        {
          "name": "_againstStakeProportion",
          "type": "uint256"
        },
        {
          "name": "_maxProposals",
          "type": "uint256"
        },
        {
          "name": "_commissionRate",
          "type": "uint256"
        },
        {
          "name": "_orderExpirationTimeInBlocks",
          "type": "uint256"
        },
        {
          "name": "_oraclizeFeeProportion",
          "type": "uint256"
        }
      ],
      "name": "ProposalMakingTimeEnded",
      "type": "constructor",
      "payable": false,
      "stateMutability": "nonpayable"
    },
    {
      "anonymous": false,
      "inputs": [
        {
          "indexed": false,
          "name": "timestamp",
          "type": "uint256"
        }
      ],
      "name": "CycleEnded",
      "type": "fallback",
      "payable": false,
      "stateMutability": "nonpayable"
    },
    {
      "anonymous": false,
      "inputs": [
        {
          "indexed": false,
          "name": "timestamp",
          "type": "uint256"
        }
      ],
      "name": "CycleStarted",
      "type": "event"
    },
    {
      "anonymous": false,
      "inputs": [
        {
          "indexed": false,
          "name": "timestamp",
          "type": "uint256"
        }
      ],
      "name": "ChangeMakingTimeEnded",
      "type": "event"
    },
    {
      "anonymous": false,
      "inputs": [
        {
          "indexed": false,
          "name": "timestamp",
          "type": "uint256"
        }
      ],
      "name": "ProposalMakingTimeEnded",
      "type": "event"
    },
    {
      "anonymous": false,
      "inputs": [
        {
          "indexed": false,
          "name": "timestamp",
          "type": "uint256"
        }
      ],
      "name": "CycleEnded",
      "type": "event"
    }
  ],
  "bytecode": "0x606060405234156200001057600080fd5b604051610140806200757f8339810160405280805190602001909190805190602001909190805190602001909190805190602001909190805190602001909190805190602001909190805190602001909190805190602001909190805190602001909190805190602001909190505087620000a38789620003c1640100000000026200398d179091906401000000009004565b11151515620000b157600080fd5b89600960006101000a81548173ffffffffffffffffffffffffffffffffffffffff021916908373ffffffffffffffffffffffffffffffffffffffff1602179055508860058190555087600f81905550866010819055508560118190555084601281905550836013819055508260148190555081601581905550806016819055506000600e819055506001601760006101000a81548160ff0219169083151502179055506003601f60146101000a81548160ff021916908360038111156200017457fe5b0217905550606060405190810160405280603781526020017f6a736f6e2868747470733a2f2f6d696e2d6170692e63727970746f636f6d706181526020017f72652e636f6d2f646174612f70726963653f6673796d3d000000000000000000815250600a9080519060200190620001ed929190620003e0565b506040805190810160405280600781526020017f267473796d733d00000000000000000000000000000000000000000000000000815250600b90805190602001906200023b929190620003e0565b506040805190810160405280600581526020017f292e455448000000000000000000000000000000000000000000000000000000815250600c908051906020019062000289929190620003e0565b506200029462000467565b604051809103906000f0801515620002ab57600080fd5b601e60006101000a81548173ffffffffffffffffffffffffffffffffffffffff021916908373ffffffffffffffffffffffffffffffffffffffff160217905550601e60009054906101000a900473ffffffffffffffffffffffffffffffffffffffff16600860006101000a81548173ffffffffffffffffffffffffffffffffffffffff021916908373ffffffffffffffffffffffffffffffffffffffff160217905550600960009054906101000a900473ffffffffffffffffffffffffffffffffffffffff16601f60006101000a81548173ffffffffffffffffffffffffffffffffffffffff021916908373ffffffffffffffffffffffffffffffffffffffff16021790555050505050505050505050620004a0565b6000808284019050838110151515620003d657fe5b8091505092915050565b828054600181600116156101000203166002900490600052602060002090601f016020900481019282601f106200042357805160ff191683800117855562000454565b8280016001018555821562000454579182015b828111156200045357825182559160200191906001019062000436565b5b50905062000463919062000478565b5090565b604051611c0a806200597583390190565b6200049d91905b80821115620004995760008160009055506001016200047f565b5090565b90565b6154c580620004b06000396000f3006060604052600436106101d8576000357c0100000000000000000000000000000000000000000000000000000000900463ffffffff168063013cf08b146101e8578063084a4faf146102fe5780630f6f17d2146103135780631039162b14610369578063267a32aa1461039657806327dc297e1461042457806328ac12281461048e5780632e1a7d4d146104b75780632e33de6a146104da5780632f3fe24c14610530578063313ce5671461055957806335c1d3491461058257806338bbfa50146105e55780635ea1d6f81461069257806370a08231146106bb5780637b3b346b146107085780637e714dd2146107345780637f2736d11461075d578063810599e9146107725780638456799b1461079b578063883d6b7b146107c45780638b4e6ba8146107fd57806390c31d5d14610812578063929066f51461082757806395988d821461087857806395fa9fc9146108a15780639adecae2146108f6578063a0a215041461090e578063b12d2fa614610993578063b484cf8d146109bc578063b64af4b1146109f3578063d0e30db014610a08578063d358c16614610a12578063d6c9f59e14610a3b578063d78b3b1c14610ac9578063dc87454c14610af2578063e3e4a6e014610b47578063f6558b0014610bd5575b34156101e357600080fd5b600080fd5b34156101f357600080fd5b6102096004808035906020019091905050610c0c565b604051808973ffffffffffffffffffffffffffffffffffffffff1673ffffffffffffffffffffffffffffffffffffffff168152602001806020018881526020018781526020018681526020018581526020018481526020018381526020018281038252898181546001816001161561010002031660029004815260200191508054600181600116156101000203166002900480156102e85780601f106102bd576101008083540402835291602001916102e8565b820191906000526020600020905b8154815290600101906020018083116102cb57829003601f168201915b5050995050505050505050505060405180910390f35b341561030957600080fd5b610311610c82565b005b341561031e57600080fd5b610353600480803590602001909190803573ffffffffffffffffffffffffffffffffffffffff16906020019091905050610f32565b6040518082815260200191505060405180910390f35b341561037457600080fd5b61037c610f57565b604051808215151515815260200191505060405180910390f35b34156103a157600080fd5b6103a9610f6a565b6040518080602001828103825283818151815260200191508051906020019080838360005b838110156103e95780820151818401526020810190506103ce565b50505050905090810190601f1680156104165780820380516001836020036101000a031916815260200191505b509250505060405180910390f35b341561042f57600080fd5b61048c60048080356000191690602001909190803590602001908201803590602001908080601f01602080910402602001604051908101604052809392919081815260200183838082843782019150505050505091905050611008565b005b341561049957600080fd5b6104a161153f565b6040518082815260200191505060405180910390f35b34156104c257600080fd5b6104d86004808035906020019091905050611545565b005b34156104e557600080fd5b61051a600480803590602001909190803573ffffffffffffffffffffffffffffffffffffffff169060200190919050506116d0565b6040518082815260200191505060405180910390f35b341561053b57600080fd5b6105436116f5565b6040518082815260200191505060405180910390f35b341561056457600080fd5b61056c6116fb565b6040518082815260200191505060405180910390f35b341561058d57600080fd5b6105a36004808035906020019091905050611701565b604051808273ffffffffffffffffffffffffffffffffffffffff1673ffffffffffffffffffffffffffffffffffffffff16815260200191505060405180910390f35b34156105f057600080fd5b61069060048080356000191690602001909190803590602001908201803590602001908080601f0160208091040260200160405190810160405280939291908181526020018383808284378201915050505050509190803590602001908201803590602001908080601f01602080910402602001604051908101604052809392919081815260200183838082843782019150505050505091905050611740565b005b341561069d57600080fd5b6106a5611745565b6040518082815260200191505060405180910390f35b34156106c657600080fd5b6106f2600480803573ffffffffffffffffffffffffffffffffffffffff1690602001909190505061174b565b6040518082815260200191505060405180910390f35b341561071357600080fd5b6107326004808035906020019091908035906020019091905050611763565b005b341561073f57600080fd5b610747611b38565b6040518082815260200191505060405180910390f35b341561076857600080fd5b610770611b3e565b005b341561077d57600080fd5b610785611bfa565b6040518082815260200191505060405180910390f35b34156107a657600080fd5b6107ae611c00565b6040518082815260200191505060405180910390f35b34156107cf57600080fd5b6107fb600480803573ffffffffffffffffffffffffffffffffffffffff16906020019091905050611c06565b005b341561080857600080fd5b610810611d20565b005b341561081d57600080fd5b610825612781565b005b341561083257600080fd5b61085e600480803573ffffffffffffffffffffffffffffffffffffffff16906020019091905050612e57565b604051808215151515815260200191505060405180910390f35b341561088357600080fd5b61088b612e77565b6040518082815260200191505060405180910390f35b34156108ac57600080fd5b6108b4612e7d565b604051808273ffffffffffffffffffffffffffffffffffffffff1673ffffffffffffffffffffffffffffffffffffffff16815260200191505060405180910390f35b61090c6004808035906020019091905050612ea3565b005b341561091957600080fd5b610991600480803573ffffffffffffffffffffffffffffffffffffffff1690602001909190803590602001908201803590602001908080601f016020809104026020016040519081016040528093929190818152602001838380828437820191505050505050919080359060200190919050506131f5565b005b341561099e57600080fd5b6109a66133ff565b6040518082815260200191505060405180910390f35b34156109c757600080fd5b6109dd6004808035906020019091905050613405565b6040518082815260200191505060405180910390f35b34156109fe57600080fd5b610a0661341d565b005b610a106134d3565b005b3415610a1d57600080fd5b610a2561380c565b6040518082815260200191505060405180910390f35b3415610a4657600080fd5b610a4e613812565b6040518080602001828103825283818151815260200191508051906020019080838360005b83811015610a8e578082015181840152602081019050610a73565b50505050905090810190601f168015610abb5780820380516001836020036101000a031916815260200191505b509250505060405180910390f35b3415610ad457600080fd5b610adc6138b0565b6040518082815260200191505060405180910390f35b3415610afd57600080fd5b610b056138b6565b604051808273ffffffffffffffffffffffffffffffffffffffff1673ffffffffffffffffffffffffffffffffffffffff16815260200191505060405180910390f35b3415610b5257600080fd5b610b5a6138dc565b6040518080602001828103825283818151815260200191508051906020019080838360005b83811015610b9a578082015181840152602081019050610b7f565b50505050905090810190601f168015610bc75780820380516001836020036101000a031916815260200191505b509250505060405180910390f35b3415610be057600080fd5b610be861397a565b60405180826003811115610bf857fe5b60ff16815260200191505060405180910390f35b601d81815481101515610c1b57fe5b90600052602060002090600802016000915090508060000160009054906101000a900473ffffffffffffffffffffffffffffffffffffffff169080600101908060020154908060030154908060040154908060050154908060060154908060070154905088565b60008060026003811115610c9257fe5b601f60149054906101000a900460ff166003811115610cad57fe5b141515610cb957600080fd5b610cd0600f54600e5461398d90919063ffffffff16565b4210151515610cde57600080fd5b601760009054906101000a900460ff1615610d9e57601e60009054906101000a900473ffffffffffffffffffffffffffffffffffffffff1673ffffffffffffffffffffffffffffffffffffffff16637d64bcb46000604051602001526040518163ffffffff167c0100000000000000000000000000000000000000000000000000000000028152600401602060405180830381600087803b1515610d8157600080fd5b6102c65a03f11515610d9257600080fd5b50505060405180519050505b6003601f60146101000a81548160ff02191690836003811115610dbd57fe5b02179055506000601760006101000a81548160ff021916908315150217905550600091505b601d80549050821015610ef757610ed1601e60009054906101000a900473ffffffffffffffffffffffffffffffffffffffff1673ffffffffffffffffffffffffffffffffffffffff166318160ddd6000604051602001526040518163ffffffff167c0100000000000000000000000000000000000000000000000000000000028152600401602060405180830381600087803b1515610e8057600080fd5b6102c65a03f11515610e9157600080fd5b50505060405180519050610ec36019600086815260200190815260200160002054600d546139ab90919063ffffffff16565b6139de90919063ffffffff16565b9050610edc82612ea3565b610ef060018361398d90919063ffffffff16565b9150610de2565b7f4878ecf95e0ab851e92c9860805d02e6413f8379c7702dc1adefab976c7a9ec3426040518082815260200191505060405180910390a15050565b601a602052816000526040600020602052806000526040600020600091509150505481565b601760009054906101000a900460ff1681565b600a8054600181600116156101000203166002900480601f0160208091040260200160405190810160405280929190818152602001828054600181600116156101000203166002900480156110005780601f10610fd557610100808354040283529160200191611000565b820191906000526020600020905b815481529060010190602001808311610fe357829003601f168201915b505050505081565b600080600080600080600061101b6139f9565b73ffffffffffffffffffffffffffffffffffffffff163373ffffffffffffffffffffffffffffffffffffffff1614151561105457600080fd5b61105f886012613d0f565b9650601c60008a60001916600019168152602001908152602001600020549550601d8681548110151561108e57fe5b90600052602060002090600802019450601c60008a600019166000191681526020019081526020016000206000905561119f601e60009054906101000a900473ffffffffffffffffffffffffffffffffffffffff1673ffffffffffffffffffffffffffffffffffffffff166318160ddd6000604051602001526040518163ffffffff167c0100000000000000000000000000000000000000000000000000000000028152600401602060405180830381600087803b151561114e57600080fd5b6102c65a03f1151561115f57600080fd5b50505060405180519050611191601960008a815260200190815260200160002054600d546139ab90919063ffffffff16565b6139de90919063ffffffff16565b9350600260038111156111ae57fe5b601f60149054906101000a900460ff1660038111156111c957fe5b1415611360578685600201819055506111ed6015544361398d90919063ffffffff16565b856004018190555061120c8560020154856139de90919063ffffffff16565b9250601f60009054906101000a900473ffffffffffffffffffffffffffffffffffffffff1673ffffffffffffffffffffffffffffffffffffffff16630b9276668660000160009054906101000a900473ffffffffffffffffffffffffffffffffffffffff16856000888a600401548c6040518763ffffffff167c0100000000000000000000000000000000000000000000000000000000028152600401808773ffffffffffffffffffffffffffffffffffffffff1673ffffffffffffffffffffffffffffffffffffffff1681526020018681526020018573ffffffffffffffffffffffffffffffffffffffff1673ffffffffffffffffffffffffffffffffffffffff1681526020018481526020018381526020018281526020019650505050505050600060405180830381600087803b151561134757600080fd5b6102c65a03f1151561135857600080fd5b505050611534565b60038081111561136c57fe5b601f60149054906101000a900460ff16600381111561138757fe5b1415611533578685600301819055506113ab6015544361398d90919063ffffffff16565b85600501819055506113ca8560020154856139de90919063ffffffff16565b91506113e38560030154836139ab90919063ffffffff16565b9050601f60009054906101000a900473ffffffffffffffffffffffffffffffffffffffff1673ffffffffffffffffffffffffffffffffffffffff16630b9276666000838860000160009054906101000a900473ffffffffffffffffffffffffffffffffffffffff16868a600501548c6040518763ffffffff167c0100000000000000000000000000000000000000000000000000000000028152600401808773ffffffffffffffffffffffffffffffffffffffff1673ffffffffffffffffffffffffffffffffffffffff1681526020018681526020018573ffffffffffffffffffffffffffffffffffffffff1673ffffffffffffffffffffffffffffffffffffffff1681526020018481526020018381526020018281526020019650505050505050600060405180830381600087803b151561151e57600080fd5b6102c65a03f1151561152f57600080fd5b5050505b5b505050505050505050565b60105481565b61155c601054600e5461398d90919063ffffffff16565b4210151561156957600080fd5b600760003373ffffffffffffffffffffffffffffffffffffffff1673ffffffffffffffffffffffffffffffffffffffff16815260200190815260200160002060009054906101000a900460ff1615156115c157600080fd5b601760009054906101000a900460ff161515156115dd57600080fd5b6115f281600d5461400990919063ffffffff16565b600d8190555061164a81601860003373ffffffffffffffffffffffffffffffffffffffff1673ffffffffffffffffffffffffffffffffffffffff1681526020019081526020016000205461400990919063ffffffff16565b601860003373ffffffffffffffffffffffffffffffffffffffff1673ffffffffffffffffffffffffffffffffffffffff168152602001908152602001600020819055503373ffffffffffffffffffffffffffffffffffffffff166108fc829081150290604051600060405180830381858888f1935050505015156116cd57600080fd5b50565b601b602052816000526040600020602052806000526040600020600091509150505481565b60135481565b60055481565b60068181548110151561171057fe5b90600052602060002090016000915054906101000a900473ffffffffffffffffffffffffffffffffffffffff1681565b505050565b60145481565b60186020528060005260406000206000915090505481565b600061177c601054600e5461398d90919063ffffffff16565b421015151561178a57600080fd5b6117b56011546117a7601054600e5461398d90919063ffffffff16565b61398d90919063ffffffff16565b421015156117c257600080fd5b600760003373ffffffffffffffffffffffffffffffffffffffff1673ffffffffffffffffffffffffffffffffffffffff16815260200190815260200160002060009054906101000a900460ff16151561181a57600080fd5b601d805490508310151561182d57600080fd5b6118fc600d546118ee601e60009054906101000a900473ffffffffffffffffffffffffffffffffffffffff1673ffffffffffffffffffffffffffffffffffffffff166318160ddd6000604051602001526040518163ffffffff167c0100000000000000000000000000000000000000000000000000000000028152600401602060405180830381600087803b15156118c457600080fd5b6102c65a03f115156118d557600080fd5b50505060405180519050856139ab90919063ffffffff16565b6139de90919063ffffffff16565b9050601e60009054906101000a900473ffffffffffffffffffffffffffffffffffffffff1673ffffffffffffffffffffffffffffffffffffffff16632bee7bde33836000604051602001526040518363ffffffff167c0100000000000000000000000000000000000000000000000000000000028152600401808373ffffffffffffffffffffffffffffffffffffffff1673ffffffffffffffffffffffffffffffffffffffff16815260200182815260200192505050602060405180830381600087803b15156119cb57600080fd5b6102c65a03f115156119dc57600080fd5b5050506040518051905050611a1b6001601d858154811015156119fb57fe5b90600052602060002090600802016006015461398d90919063ffffffff16565b601d84815481101515611a2a57fe5b906000526020600020906008020160060181905550611a6581601960008681526020019081526020016000205461398d90919063ffffffff16565b6019600085815260200190815260200160002081905550611adf81601a600086815260200190815260200160002060003373ffffffffffffffffffffffffffffffffffffffff1673ffffffffffffffffffffffffffffffffffffffff1681526020019081526020016000205461398d90919063ffffffff16565b601a600085815260200190815260200160002060003373ffffffffffffffffffffffffffffffffffffffff1673ffffffffffffffffffffffffffffffffffffffff16815260200190815260200160002081905550505050565b600d5481565b600380811115611b4a57fe5b601f60149054906101000a900460ff166003811115611b6557fe5b141515611b7157600080fd5b611b88600f54600e5461398d90919063ffffffff16565b4210151515611b9657600080fd5b6000601f60146101000a81548160ff02191690836003811115611bb557fe5b021790555042600e819055507fc8a0332abe200b5e7ff117e01b27b1ea7e989a7152ad8690ca1e0f0cb1157c3f426040518082815260200191505060405180910390a1565b600f5481565b60155481565b600860009054906101000a900473ffffffffffffffffffffffffffffffffffffffff1673ffffffffffffffffffffffffffffffffffffffff163373ffffffffffffffffffffffffffffffffffffffff16141515611c6257600080fd5b6001600760008373ffffffffffffffffffffffffffffffffffffffff1673ffffffffffffffffffffffffffffffffffffffff16815260200190815260200160002060006101000a81548160ff02191690831515021790555060068054806001018281611cce91906151fc565b9160005260206000209001600083909190916101000a81548173ffffffffffffffffffffffffffffffffffffffff021916908373ffffffffffffffffffffffffffffffffffffffff1602179055505050565b600080600080600080600080600080600380811115611d3b57fe5b601f60149054906101000a900460ff166003811115611d5657fe5b141515611d6257600080fd5b6000600e5414151515611d7457600080fd5b600099505b601d805490508a101561258957899850601d89815481101515611d9857fe5b90600052602060002090600802019750611ea08860020154611e92601e60009054906101000a900473ffffffffffffffffffffffffffffffffffffffff1673ffffffffffffffffffffffffffffffffffffffff166318160ddd6000604051602001526040518163ffffffff167c0100000000000000000000000000000000000000000000000000000000028152600401602060405180830381600087803b1515611e4157600080fd5b6102c65a03f11515611e5257600080fd5b50505060405180519050611e84601960008f815260200190815260200160002054600d546139ab90919063ffffffff16565b6139de90919063ffffffff16565b6139de90919063ffffffff16565b9650611eb98860030154886139ab90919063ffffffff16565b9550601f60009054906101000a900473ffffffffffffffffffffffffffffffffffffffff1673ffffffffffffffffffffffffffffffffffffffff166346be96c36000888b60000160009054906101000a900473ffffffffffffffffffffffffffffffffffffffff168b8d600501548f30600080600080604051602001526040518b63ffffffff167c0100000000000000000000000000000000000000000000000000000000028152600401808b73ffffffffffffffffffffffffffffffffffffffff1673ffffffffffffffffffffffffffffffffffffffff1681526020018a81526020018973ffffffffffffffffffffffffffffffffffffffff1673ffffffffffffffffffffffffffffffffffffffff1681526020018881526020018781526020018681526020018573ffffffffffffffffffffffffffffffffffffffff1673ffffffffffffffffffffffffffffffffffffffff1681526020018460ff16815260200183600102600019168152602001826001026000191681526020019a5050505050505050505050602060405180830381600087803b151561205b57600080fd5b6102c65a03f1151561206c57600080fd5b505050604051805190509450868514806120895750876005015443115b151561209457600080fd5b8760020154886003015410151561237e576121b46120c189600601546005546139ab90919063ffffffff16565b600a0a6121a6601254612198601960008f815260200190815260200160002054601e60009054906101000a900473ffffffffffffffffffffffffffffffffffffffff1673ffffffffffffffffffffffffffffffffffffffff166318160ddd6000604051602001526040518163ffffffff167c0100000000000000000000000000000000000000000000000000000000028152600401602060405180830381600087803b151561216f57600080fd5b6102c65a03f1151561218057600080fd5b5050506040518051905061400990919063ffffffff16565b6139ab90919063ffffffff16565b6139de90919063ffffffff16565b9350600091505b600680549050821015612379576006828154811015156121d757fe5b906000526020600020900160009054906101000a900473ffffffffffffffffffffffffffffffffffffffff169050601a60008a815260200190815260200160002060008273ffffffffffffffffffffffffffffffffffffffff1673ffffffffffffffffffffffffffffffffffffffff16815260200190815260200160002054925060008314151561235e57601e60009054906101000a900473ffffffffffffffffffffffffffffffffffffffff1673ffffffffffffffffffffffffffffffffffffffff1663a9059cbb826122b4878761398d90919063ffffffff16565b6000604051602001526040518363ffffffff167c0100000000000000000000000000000000000000000000000000000000028152600401808373ffffffffffffffffffffffffffffffffffffffff1673ffffffffffffffffffffffffffffffffffffffff16815260200182815260200192505050602060405180830381600087803b151561234157600080fd5b6102c65a03f1151561235257600080fd5b50505060405180519050505b61237260018361398d90919063ffffffff16565b91506121bb565b61256e565b6123a88860070154601960008c8152602001908152602001600020546139de90919063ffffffff16565b9350600091505b60068054905082101561256d576006828154811015156123cb57fe5b906000526020600020900160009054906101000a900473ffffffffffffffffffffffffffffffffffffffff169050601b60008a815260200190815260200160002060008273ffffffffffffffffffffffffffffffffffffffff1673ffffffffffffffffffffffffffffffffffffffff16815260200190815260200160002054925060008314151561255257601e60009054906101000a900473ffffffffffffffffffffffffffffffffffffffff1673ffffffffffffffffffffffffffffffffffffffff1663a9059cbb826124a8878761398d90919063ffffffff16565b6000604051602001526040518363ffffffff167c0100000000000000000000000000000000000000000000000000000000028152600401808373ffffffffffffffffffffffffffffffffffffffff1673ffffffffffffffffffffffffffffffffffffffff16815260200182815260200192505050602060405180830381600087803b151561253557600080fd5b6102c65a03f1151561254657600080fd5b50505060405180519050505b61256660018361398d90919063ffffffff16565b91506123af565b5b61258260018b61398d90919063ffffffff16565b9950611d79565b601f60009054906101000a900473ffffffffffffffffffffffffffffffffffffffff1673ffffffffffffffffffffffffffffffffffffffff16632e1a7d4d601f60009054906101000a900473ffffffffffffffffffffffffffffffffffffffff1673ffffffffffffffffffffffffffffffffffffffff1663508493bc6000306000604051602001526040518363ffffffff167c0100000000000000000000000000000000000000000000000000000000028152600401808373ffffffffffffffffffffffffffffffffffffffff1673ffffffffffffffffffffffffffffffffffffffff1681526020018273ffffffffffffffffffffffffffffffffffffffff1673ffffffffffffffffffffffffffffffffffffffff16815260200192505050602060405180830381600087803b15156126c157600080fd5b6102c65a03f115156126d257600080fd5b505050604051805190506040518263ffffffff167c010000000000000000000000000000000000000000000000000000000002815260040180828152602001915050600060405180830381600087803b151561272d57600080fd5b6102c65a03f1151561273e57600080fd5b505050612749614022565b3073ffffffffffffffffffffffffffffffffffffffff1631600d81905550601d60006127759190615228565b50505050505050505050565b6000806000806000806001600381111561279757fe5b601f60149054906101000a900460ff1660038111156127b257fe5b1415156127be57600080fd5b6127e96011546127db601054600e5461398d90919063ffffffff16565b61398d90919063ffffffff16565b42101515156127f757600080fd5b6002601f60146101000a81548160ff0219169083600381111561281657fe5b0217905550600095505b600680549050861015612c215760068681548110151561283c57fe5b906000526020600020900160009054906101000a900473ffffffffffffffffffffffffffffffffffffffff169450612975600554600a0a612967601254601e60009054906101000a900473ffffffffffffffffffffffffffffffffffffffff1673ffffffffffffffffffffffffffffffffffffffff166370a082318a6000604051602001526040518263ffffffff167c0100000000000000000000000000000000000000000000000000000000028152600401808273ffffffffffffffffffffffffffffffffffffffff1673ffffffffffffffffffffffffffffffffffffffff168152602001915050602060405180830381600087803b151561293e57600080fd5b6102c65a03f1151561294f57600080fd5b505050604051805190506139ab90919063ffffffff16565b6139de90919063ffffffff16565b9350600084141515612c0657600092505b601d80549050831015612c05576000601a600085815260200190815260200160002060008773ffffffffffffffffffffffffffffffffffffffff1673ffffffffffffffffffffffffffffffffffffffff1681526020019081526020016000205414159150811515612bea57601e60009054906101000a900473ffffffffffffffffffffffffffffffffffffffff1673ffffffffffffffffffffffffffffffffffffffff16632bee7bde86866000604051602001526040518363ffffffff167c0100000000000000000000000000000000000000000000000000000000028152600401808373ffffffffffffffffffffffffffffffffffffffff1673ffffffffffffffffffffffffffffffffffffffff16815260200182815260200192505050602060405180830381600087803b1515612abe57600080fd5b6102c65a03f11515612acf57600080fd5b5050506040518051905050612b0e6001601d85815481101515612aee57fe5b90600052602060002090600802016007015461398d90919063ffffffff16565b601d84815481101515612b1d57fe5b906000526020600020906008020160070181905550612b9584601b600086815260200190815260200160002060008873ffffffffffffffffffffffffffffffffffffffff1673ffffffffffffffffffffffffffffffffffffffff1681526020019081526020016000205461398d90919063ffffffff16565b601b600085815260200190815260200160002060008773ffffffffffffffffffffffffffffffffffffffff1673ffffffffffffffffffffffffffffffffffffffff168152602001908152602001600020819055505b612bfe60018461398d90919063ffffffff16565b9250612986565b5b612c1a60018761398d90919063ffffffff16565b9550612820565b600095505b601d80549050861015612e1857601f60009054906101000a900473ffffffffffffffffffffffffffffffffffffffff1673ffffffffffffffffffffffffffffffffffffffff168160405180807f6465706f73697428290000000000000000000000000000000000000000000000815250600901905060405180910390207c01000000000000000000000000000000000000000000000000000000009004906040518263ffffffff167c010000000000000000000000000000000000000000000000000000000002815260040160006040518083038185886187965a03f193505050501515612d1057fe5b612df2601e60009054906101000a900473ffffffffffffffffffffffffffffffffffffffff1673ffffffffffffffffffffffffffffffffffffffff166318160ddd6000604051602001526040518163ffffffff167c0100000000000000000000000000000000000000000000000000000000028152600401602060405180830381600087803b1515612da157600080fd5b6102c65a03f11515612db257600080fd5b50505060405180519050612de4601960008a815260200190815260200160002054600d546139ab90919063ffffffff16565b6139de90919063ffffffff16565b9050612dfd86612ea3565b612e1160018761398d90919063ffffffff16565b9550612c26565b7f63e5255d00258d97be2d059c72be3ed43117e9f43c2439d8639988e874efa9cf426040518082815260200191505060405180910390a1505050505050565b60076020528060005260406000206000915054906101000a900460ff1681565b600e5481565b600960009054906101000a900473ffffffffffffffffffffffffffffffffffffffff1681565b6000612ead61524c565b612eb561524c565b612ebd61524c565b601d85815481101515612ecc57fe5b906000526020600020906008020160010193506040805190810160405280600381526020017f4554480000000000000000000000000000000000000000000000000000000000815250925061318b600a8054600181600116156101000203166002900480601f016020809104026020016040519081016040528092919081815260200182805460018160011615610100020316600290048015612fb05780601f10612f8557610100808354040283529160200191612fb0565b820191906000526020600020905b815481529060010190602001808311612f9357829003601f168201915b5050505050858054600181600116156101000203166002900480601f01602080910402602001604051908101604052809291908181526020018280546001816001161561010002031660029004801561304a5780601f1061301f5761010080835404028352916020019161304a565b820191906000526020600020905b81548152906001019060200180831161302d57829003601f168201915b5050505050600b8054600181600116156101000203166002900480601f0160208091040260200160405190810160405280929190818152602001828054600181600116156101000203166002900480156130e55780601f106130ba576101008083540402835291602001916130e5565b820191906000526020600020905b8154815290600101906020018083116130c857829003601f168201915b505050505086600c8054600181600116156101000203166002900480601f0160208091040260200160405190810160405280929190818152602001828054600181600116156101000203166002900480156131815780601f1061315657610100808354040283529160200191613181565b820191906000526020600020905b81548152906001019060200180831161316457829003601f168201915b50505050506143cc565b91506040805190810160405280600381526020017f55524c0000000000000000000000000000000000000000000000000000000000815250905084601c60006131d48486614804565b60001916600019168152602001908152602001600020819055505050505050565b600061320e601054600e5461398d90919063ffffffff16565b421015151561321c57600080fd5b613247601154613239601054600e5461398d90919063ffffffff16565b61398d90919063ffffffff16565b4210151561325457600080fd5b600760003373ffffffffffffffffffffffffffffffffffffffff1673ffffffffffffffffffffffffffffffffffffffff16815260200190815260200160002060009054906101000a900460ff1615156132ac57600080fd5b601354601d805490501015156132c157600080fd5b601d80548060010182816132d59190615260565b91600052602060002090600802016000610100604051908101604052808873ffffffffffffffffffffffffffffffffffffffff16815260200187815260200160008152602001600081526020016000815260200160008152602001600181526020016000815250909190915060008201518160000160006101000a81548173ffffffffffffffffffffffffffffffffffffffff021916908373ffffffffffffffffffffffffffffffffffffffff16021790555060208201518160010190805190602001906133a4929190615292565b5060408201518160020155606082015181600301556080820151816004015560a0820151816005015560c0820151816006015560e082015181600701555050506001601d805490500390506133f98183611763565b50505050565b60165481565b60196020528060005260406000206000915090505481565b6000600381111561342a57fe5b601f60149054906101000a900460ff16600381111561344557fe5b14151561345157600080fd5b613468601054600e5461398d90919063ffffffff16565b421015151561347657600080fd5b6001601f60146101000a81548160ff0219169083600381111561349557fe5b02179055507f87a2225345e9725a08032af379cf06b2dada438a5f4e594bc1ed005a170bf53c426040518082815260200191505060405180910390a1565b60006134ec601054600e5461398d90919063ffffffff16565b421015156134f957600080fd5b600760003373ffffffffffffffffffffffffffffffffffffffff1673ffffffffffffffffffffffffffffffffffffffff16815260200190815260200160002060009054906101000a900460ff161515613608576006805480600101828161356091906151fc565b9160005260206000209001600033909190916101000a81548173ffffffffffffffffffffffffffffffffffffffff021916908373ffffffffffffffffffffffffffffffffffffffff160217905550506001600760003373ffffffffffffffffffffffffffffffffffffffff1673ffffffffffffffffffffffffffffffffffffffff16815260200190815260200160002060006101000a81548160ff0219169083151502179055505b613634600554600a0a613626601654346139ab90919063ffffffff16565b6139de90919063ffffffff16565b905061369a8161368c34601860003373ffffffffffffffffffffffffffffffffffffffff1673ffffffffffffffffffffffffffffffffffffffff1681526020019081526020016000205461398d90919063ffffffff16565b61400990919063ffffffff16565b601860003373ffffffffffffffffffffffffffffffffffffffff1673ffffffffffffffffffffffffffffffffffffffff16815260200190815260200160002081905550613704816136f634600d5461398d90919063ffffffff16565b61400990919063ffffffff16565b600d81905550601760009054906101000a900460ff161561380957601e60009054906101000a900473ffffffffffffffffffffffffffffffffffffffff1673ffffffffffffffffffffffffffffffffffffffff166340c10f1933346000604051602001526040518363ffffffff167c0100000000000000000000000000000000000000000000000000000000028152600401808373ffffffffffffffffffffffffffffffffffffffff1673ffffffffffffffffffffffffffffffffffffffff16815260200182815260200192505050602060405180830381600087803b15156137ec57600080fd5b6102c65a03f115156137fd57600080fd5b50505060405180519050505b50565b60125481565b600b8054600181600116156101000203166002900480601f0160208091040260200160405190810160405280929190818152602001828054600181600116156101000203166002900480156138a85780601f1061387d576101008083540402835291602001916138a8565b820191906000526020600020905b81548152906001019060200180831161388b57829003601f168201915b505050505081565b60115481565b600860009054906101000a900473ffffffffffffffffffffffffffffffffffffffff1681565b600c8054600181600116156101000203166002900480601f0160208091040260200160405190810160405280929190818152602001828054600181600116156101000203166002900480156139725780601f1061394757610100808354040283529160200191613972565b820191906000526020600020905b81548152906001019060200180831161395557829003601f168201915b505050505081565b601f60149054906101000a900460ff1681565b60008082840190508381101515156139a157fe5b8091505092915050565b600080828402905060008414806139cc57508284828115156139c957fe5b04145b15156139d457fe5b8091505092915050565b60008082848115156139ec57fe5b0490508091505092915050565b6000806000809054906101000a900473ffffffffffffffffffffffffffffffffffffffff1673ffffffffffffffffffffffffffffffffffffffff161480613a6957506000613a676000809054906101000a900473ffffffffffffffffffffffffffffffffffffffff16614d46565b145b15613a7a57613a786000614d51565b505b6000809054906101000a900473ffffffffffffffffffffffffffffffffffffffff1673ffffffffffffffffffffffffffffffffffffffff166338cc48316000604051602001526040518163ffffffff167c0100000000000000000000000000000000000000000000000000000000028152600401602060405180830381600087803b1515613b0757600080fd5b6102c65a03f11515613b1857600080fd5b5050506040518051905073ffffffffffffffffffffffffffffffffffffffff16600160009054906101000a900473ffffffffffffffffffffffffffffffffffffffff1673ffffffffffffffffffffffffffffffffffffffff16141515613c61576000809054906101000a900473ffffffffffffffffffffffffffffffffffffffff1673ffffffffffffffffffffffffffffffffffffffff166338cc48316000604051602001526040518163ffffffff167c0100000000000000000000000000000000000000000000000000000000028152600401602060405180830381600087803b1515613c0557600080fd5b6102c65a03f11515613c1657600080fd5b50505060405180519050600160006101000a81548173ffffffffffffffffffffffffffffffffffffffff021916908373ffffffffffffffffffffffffffffffffffffffff1602179055505b600160009054906101000a900473ffffffffffffffffffffffffffffffffffffffff1673ffffffffffffffffffffffffffffffffffffffff1663c281d19e6000604051602001526040518163ffffffff167c0100000000000000000000000000000000000000000000000000000000028152600401602060405180830381600087803b1515613cef57600080fd5b6102c65a03f11515613d0057600080fd5b50505060405180519050905090565b6000613d19615312565b60008060008693506000925060009150600090505b8351811015613fea5760307f0100000000000000000000000000000000000000000000000000000000000000028482815181101515613d6957fe5b9060200101517f010000000000000000000000000000000000000000000000000000000000000090047f0100000000000000000000000000000000000000000000000000000000000000027effffffffffffffffffffffffffffffffffffffffffffffffffffffffffffff191610158015613e81575060397f0100000000000000000000000000000000000000000000000000000000000000028482815181101515613e1157fe5b9060200101517f010000000000000000000000000000000000000000000000000000000000000090047f0100000000000000000000000000000000000000000000000000000000000000027effffffffffffffffffffffffffffffffffffffffffffffffffffffffffffff191611155b15613f32578115613ea4576000861415613e9a57613fea565b8580600190039650505b600a8302925060308482815181101515613eba57fe5b9060200101517f010000000000000000000000000000000000000000000000000000000000000090047f0100000000000000000000000000000000000000000000000000000000000000027f010000000000000000000000000000000000000000000000000000000000000090040383019250613fdd565b602e7f0100000000000000000000000000000000000000000000000000000000000000028482815181101515613f6457fe5b9060200101517f010000000000000000000000000000000000000000000000000000000000000090047f0100000000000000000000000000000000000000000000000000000000000000027effffffffffffffffffffffffffffffffffffffffffffffffffffffffffffff19161415613fdc57600191505b5b8080600101915050613d2e565b6000861115613ffc5785600a0a830292505b8294505050505092915050565b600082821115151561401757fe5b818303905092915050565b600080600080600061406d600554600a0a61405f3073ffffffffffffffffffffffffffffffffffffffff16316014546139ab90919063ffffffff16565b6139de90919063ffffffff16565b94506140b2600554600a0a6140a43073ffffffffffffffffffffffffffffffffffffffff16316016546139ab90919063ffffffff16565b6139de90919063ffffffff16565b9350600092505b6006805490508310156143c5576006838154811015156140d557fe5b906000526020600020900160009054906101000a900473ffffffffffffffffffffffffffffffffffffffff1691506141a4600d54614196601860008673ffffffffffffffffffffffffffffffffffffffff1673ffffffffffffffffffffffffffffffffffffffff168152602001908152602001600020546141888861417a8b3073ffffffffffffffffffffffffffffffffffffffff163161400990919063ffffffff16565b61400990919063ffffffff16565b6139ab90919063ffffffff16565b6139de90919063ffffffff16565b9050614364614355601e60009054906101000a900473ffffffffffffffffffffffffffffffffffffffff1673ffffffffffffffffffffffffffffffffffffffff166318160ddd6000604051602001526040518163ffffffff167c0100000000000000000000000000000000000000000000000000000000028152600401602060405180830381600087803b151561423a57600080fd5b6102c65a03f1151561424b57600080fd5b50505060405180519050614347601e60009054906101000a900473ffffffffffffffffffffffffffffffffffffffff1673ffffffffffffffffffffffffffffffffffffffff166370a08231876000604051602001526040518263ffffffff167c0100000000000000000000000000000000000000000000000000000000028152600401808273ffffffffffffffffffffffffffffffffffffffff1673ffffffffffffffffffffffffffffffffffffffff168152602001915050602060405180830381600087803b151561431d57600080fd5b6102c65a03f1151561432e57600080fd5b50505060405180519050896139ab90919063ffffffff16565b6139de90919063ffffffff16565b8261398d90919063ffffffff16565b905080601860008473ffffffffffffffffffffffffffffffffffffffff1673ffffffffffffffffffffffffffffffffffffffff168152602001908152602001600020819055506143be60018461398d90919063ffffffff16565b92506140b9565b5050505050565b6143d461524c565b6143dc615312565b6143e4615312565b6143ec615312565b6143f4615312565b6143fc615312565b61440461524c565b61440c615312565b6000808e98508d97508c96508b95508a94508451865188518a518c51010101016040518059106144395750595b9080825280601f01601f1916602001820160405250935083925060009150600090505b885181101561450f57888181518110151561447357fe5b9060200101517f010000000000000000000000000000000000000000000000000000000000000090047f01000000000000000000000000000000000000000000000000000000000000000283838060010194508151811015156144d257fe5b9060200101907effffffffffffffffffffffffffffffffffffffffffffffffffffffffffffff1916908160001a905350808060010191505061445c565b600090505b87518110156145c757878181518110151561452b57fe5b9060200101517f010000000000000000000000000000000000000000000000000000000000000090047f010000000000000000000000000000000000000000000000000000000000000002838380600101945081518110151561458a57fe5b9060200101907effffffffffffffffffffffffffffffffffffffffffffffffffffffffffffff1916908160001a9053508080600101915050614514565b600090505b865181101561467f5786818151811015156145e357fe5b9060200101517f010000000000000000000000000000000000000000000000000000000000000090047f010000000000000000000000000000000000000000000000000000000000000002838380600101945081518110151561464257fe5b9060200101907effffffffffffffffffffffffffffffffffffffffffffffffffffffffffffff1916908160001a90535080806001019150506145cc565b600090505b855181101561473757858181518110151561469b57fe5b9060200101517f010000000000000000000000000000000000000000000000000000000000000090047f01000000000000000000000000000000000000000000000000000000000000000283838060010194508151811015156146fa57fe5b9060200101907effffffffffffffffffffffffffffffffffffffffffffffffffffffffffffff1916908160001a9053508080600101915050614684565b600090505b84518110156147ef57848181518110151561475357fe5b9060200101517f010000000000000000000000000000000000000000000000000000000000000090047f01000000000000000000000000000000000000000000000000000000000000000283838060010194508151811015156147b257fe5b9060200101907effffffffffffffffffffffffffffffffffffffffffffffffffffffffffffff1916908160001a905350808060010191505061473c565b82995050505050505050505095945050505050565b60008060008060009054906101000a900473ffffffffffffffffffffffffffffffffffffffff1673ffffffffffffffffffffffffffffffffffffffff161480614876575060006148746000809054906101000a900473ffffffffffffffffffffffffffffffffffffffff16614d46565b145b15614887576148856000614d51565b505b6000809054906101000a900473ffffffffffffffffffffffffffffffffffffffff1673ffffffffffffffffffffffffffffffffffffffff166338cc48316000604051602001526040518163ffffffff167c0100000000000000000000000000000000000000000000000000000000028152600401602060405180830381600087803b151561491457600080fd5b6102c65a03f1151561492557600080fd5b5050506040518051905073ffffffffffffffffffffffffffffffffffffffff16600160009054906101000a900473ffffffffffffffffffffffffffffffffffffffff1673ffffffffffffffffffffffffffffffffffffffff16141515614a6e576000809054906101000a900473ffffffffffffffffffffffffffffffffffffffff1673ffffffffffffffffffffffffffffffffffffffff166338cc48316000604051602001526040518163ffffffff167c0100000000000000000000000000000000000000000000000000000000028152600401602060405180830381600087803b1515614a1257600080fd5b6102c65a03f11515614a2357600080fd5b50505060405180519050600160006101000a81548173ffffffffffffffffffffffffffffffffffffffff021916908373ffffffffffffffffffffffffffffffffffffffff1602179055505b600160009054906101000a900473ffffffffffffffffffffffffffffffffffffffff1673ffffffffffffffffffffffffffffffffffffffff1663524f3889856000604051602001526040518263ffffffff167c01000000000000000000000000000000000000000000000000000000000281526004018080602001828103825283818151815260200191508051906020019080838360005b83811015614b21578082015181840152602081019050614b06565b50505050905090810190601f168015614b4e5780820380516001836020036101000a031916815260200191505b5092505050602060405180830381600087803b1515614b6c57600080fd5b6102c65a03f11515614b7d57600080fd5b50505060405180519050905062030d403a02670de0b6b3a764000001811115614bac5760006001029150614d3f565b600160009054906101000a900473ffffffffffffffffffffffffffffffffffffffff1673ffffffffffffffffffffffffffffffffffffffff1663adf59f9982600087876000604051602001526040518563ffffffff167c0100000000000000000000000000000000000000000000000000000000028152600401808481526020018060200180602001838103835285818151815260200191508051906020019080838360005b83811015614c6d578082015181840152602081019050614c52565b50505050905090810190601f168015614c9a5780820380516001836020036101000a031916815260200191505b50838103825284818151815260200191508051906020019080838360005b83811015614cd3578082015181840152602081019050614cb8565b50505050905090810190601f168015614d005780820380516001836020036101000a031916815260200191505b50955050505050506020604051808303818588803b1515614d2057600080fd5b6125ee5a03f11515614d3157600080fd5b505050506040518051905091505b5092915050565b6000813b9050919050565b600080614d71731d3b2638a7cc9f2cb3d298a3da7a90b67e5506ed614d46565b1115614e1257731d3b2638a7cc9f2cb3d298a3da7a90b67e5506ed6000806101000a81548173ffffffffffffffffffffffffffffffffffffffff021916908373ffffffffffffffffffffffffffffffffffffffff160217905550614e096040805190810160405280600b81526020017f6574685f6d61696e6e65740000000000000000000000000000000000000000008152506151e2565b600190506151dd565b6000614e3173c03a2615d5efaf5f49f60b7bb6583eaec212fdf1614d46565b1115614ed25773c03a2615d5efaf5f49f60b7bb6583eaec212fdf16000806101000a81548173ffffffffffffffffffffffffffffffffffffffff021916908373ffffffffffffffffffffffffffffffffffffffff160217905550614ec96040805190810160405280600c81526020017f6574685f726f707374656e3300000000000000000000000000000000000000008152506151e2565b600190506151dd565b6000614ef173b7a07bcf2ba2f2703b24c0691b5278999c59ac7e614d46565b1115614f925773b7a07bcf2ba2f2703b24c0691b5278999c59ac7e6000806101000a81548173ffffffffffffffffffffffffffffffffffffffff021916908373ffffffffffffffffffffffffffffffffffffffff160217905550614f896040805190810160405280600981526020017f6574685f6b6f76616e00000000000000000000000000000000000000000000008152506151e2565b600190506151dd565b6000614fb173146500cfd35b22e4a392fe0adc06de1a1368ed48614d46565b11156150525773146500cfd35b22e4a392fe0adc06de1a1368ed486000806101000a81548173ffffffffffffffffffffffffffffffffffffffff021916908373ffffffffffffffffffffffffffffffffffffffff1602179055506150496040805190810160405280600b81526020017f6574685f72696e6b6562790000000000000000000000000000000000000000008152506151e2565b600190506151dd565b6000615071736f485c8bf6fc43ea212e93bbf8ce046c7f1cb475614d46565b11156150d457736f485c8bf6fc43ea212e93bbf8ce046c7f1cb4756000806101000a81548173ffffffffffffffffffffffffffffffffffffffff021916908373ffffffffffffffffffffffffffffffffffffffff160217905550600190506151dd565b60006150f37320e12a1f859b3feae5fb2a0a32c18f5a65555bbf614d46565b1115615156577320e12a1f859b3feae5fb2a0a32c18f5a65555bbf6000806101000a81548173ffffffffffffffffffffffffffffffffffffffff021916908373ffffffffffffffffffffffffffffffffffffffff160217905550600190506151dd565b60006151757351efaf4c8b3c9afbd5ab9f4bbc82784ab6ef8faa614d46565b11156151d8577351efaf4c8b3c9afbd5ab9f4bbc82784ab6ef8faa6000806101000a81548173ffffffffffffffffffffffffffffffffffffffff021916908373ffffffffffffffffffffffffffffffffffffffff160217905550600190506151dd565b600090505b919050565b80600290805190602001906151f8929190615326565b5050565b8154818355818115116152235781836000526020600020918201910161522291906153a6565b5b505050565b508054600082556008029060005260206000209081019061524991906153cb565b50565b602060405190810160405280600081525090565b81548183558181151161528d5760080281600802836000526020600020918201910161528c91906153cb565b5b505050565b828054600181600116156101000203166002900490600052602060002090601f016020900481019282601f106152d357805160ff1916838001178555615301565b82800160010185558215615301579182015b828111156153005782518255916020019190600101906152e5565b5b50905061530e91906153a6565b5090565b602060405190810160405280600081525090565b828054600181600116156101000203166002900490600052602060002090601f016020900481019282601f1061536757805160ff1916838001178555615395565b82800160010185558215615395579182015b82811115615394578251825591602001919060010190615379565b5b5090506153a291906153a6565b5090565b6153c891905b808211156153c45760008160009055506001016153ac565b5090565b90565b61544e91905b8082111561544a57600080820160006101000a81549073ffffffffffffffffffffffffffffffffffffffff02191690556001820160006154119190615451565b600282016000905560038201600090556004820160009055600582016000905560068201600090556007820160009055506008016153d1565b5090565b90565b50805460018160011615610100020316600290046000825580601f106154775750615496565b601f01602090049060005260206000209081019061549591906153a6565b5b505600a165627a7a72305820cb08e489a137b76565f02db7fa0b4919cf6d9dc6a1880cc0ed453571a2a1123f002960606040526000600360146101000a81548160ff02191690831515021790555033600360006101000a81548173ffffffffffffffffffffffffffffffffffffffff021916908373ffffffffffffffffffffffffffffffffffffffff160217905550611b9b8061006f6000396000f3006060604052600436106100d0576000357c0100000000000000000000000000000000000000000000000000000000900463ffffffff16806305d2035b146100d5578063095ea7b31461010257806318160ddd1461015c57806323b872dd146101855780632bee7bde146101fe57806340c10f191461025857806366188463146102b257806370a082311461030c5780637d64bcb4146103595780638da5cb5b14610386578063a9059cbb146103db578063d73dd62314610435578063dd62ed3e1461048f578063f2fde38b146104fb575b600080fd5b34156100e057600080fd5b6100e8610534565b604051808215151515815260200191505060405180910390f35b341561010d57600080fd5b610142600480803573ffffffffffffffffffffffffffffffffffffffff16906020019091908035906020019091905050610547565b604051808215151515815260200191505060405180910390f35b341561016757600080fd5b61016f610639565b6040518082815260200191505060405180910390f35b341561019057600080fd5b6101e4600480803573ffffffffffffffffffffffffffffffffffffffff1690602001909190803573ffffffffffffffffffffffffffffffffffffffff1690602001909190803590602001909190505061063f565b604051808215151515815260200191505060405180910390f35b341561020957600080fd5b61023e600480803573ffffffffffffffffffffffffffffffffffffffff16906020019091908035906020019091905050610b99565b604051808215151515815260200191505060405180910390f35b341561026357600080fd5b610298600480803573ffffffffffffffffffffffffffffffffffffffff16906020019091908035906020019091905050610e20565b604051808215151515815260200191505060405180910390f35b34156102bd57600080fd5b6102f2600480803573ffffffffffffffffffffffffffffffffffffffff16906020019091908035906020019091905050610ff2565b604051808215151515815260200191505060405180910390f35b341561031757600080fd5b610343600480803573ffffffffffffffffffffffffffffffffffffffff16906020019091905050611283565b6040518082815260200191505060405180910390f35b341561036457600080fd5b61036c6112cc565b604051808215151515815260200191505060405180910390f35b341561039157600080fd5b610399611378565b604051808273ffffffffffffffffffffffffffffffffffffffff1673ffffffffffffffffffffffffffffffffffffffff16815260200191505060405180910390f35b34156103e657600080fd5b61041b600480803573ffffffffffffffffffffffffffffffffffffffff1690602001909190803590602001909190505061139e565b604051808215151515815260200191505060405180910390f35b341561044057600080fd5b610475600480803573ffffffffffffffffffffffffffffffffffffffff1690602001909190803590602001909190505061175d565b604051808215151515815260200191505060405180910390f35b341561049a57600080fd5b6104e5600480803573ffffffffffffffffffffffffffffffffffffffff1690602001909190803573ffffffffffffffffffffffffffffffffffffffff16906020019091905050611959565b6040518082815260200191505060405180910390f35b341561050657600080fd5b610532600480803573ffffffffffffffffffffffffffffffffffffffff169060200190919050506119e0565b005b600360149054906101000a900460ff1681565b600081600260003373ffffffffffffffffffffffffffffffffffffffff1673ffffffffffffffffffffffffffffffffffffffff16815260200190815260200160002060008573ffffffffffffffffffffffffffffffffffffffff1673ffffffffffffffffffffffffffffffffffffffff168152602001908152602001600020819055508273ffffffffffffffffffffffffffffffffffffffff163373ffffffffffffffffffffffffffffffffffffffff167f8c5be1e5ebec7d5bd14f71427d1e84f3dd0314c0f7b2291e5b200ac8c7c3b925846040518082815260200191505060405180910390a36001905092915050565b60005481565b600080600073ffffffffffffffffffffffffffffffffffffffff168473ffffffffffffffffffffffffffffffffffffffff161415151561067e57600080fd5b600160008673ffffffffffffffffffffffffffffffffffffffff1673ffffffffffffffffffffffffffffffffffffffff1681526020019081526020016000205483111515156106cc57600080fd5b600260008673ffffffffffffffffffffffffffffffffffffffff1673ffffffffffffffffffffffffffffffffffffffff16815260200190815260200160002060003373ffffffffffffffffffffffffffffffffffffffff1673ffffffffffffffffffffffffffffffffffffffff16815260200190815260200160002054831115151561075757600080fd5b600360009054906101000a900473ffffffffffffffffffffffffffffffffffffffff1690508073ffffffffffffffffffffffffffffffffffffffff1663929066f5856000604051602001526040518263ffffffff167c0100000000000000000000000000000000000000000000000000000000028152600401808273ffffffffffffffffffffffffffffffffffffffff1673ffffffffffffffffffffffffffffffffffffffff168152602001915050602060405180830381600087803b151561081f57600080fd5b6102c65a03f1151561083057600080fd5b5050506040518051905015156108ef578073ffffffffffffffffffffffffffffffffffffffff1663883d6b7b856040518263ffffffff167c0100000000000000000000000000000000000000000000000000000000028152600401808273ffffffffffffffffffffffffffffffffffffffff1673ffffffffffffffffffffffffffffffffffffffff168152602001915050600060405180830381600087803b15156108da57600080fd5b6102c65a03f115156108eb57600080fd5b5050505b61094183600160008873ffffffffffffffffffffffffffffffffffffffff1673ffffffffffffffffffffffffffffffffffffffff16815260200190815260200160002054611b3890919063ffffffff16565b600160008773ffffffffffffffffffffffffffffffffffffffff1673ffffffffffffffffffffffffffffffffffffffff168152602001908152602001600020819055506109d683600160008773ffffffffffffffffffffffffffffffffffffffff1673ffffffffffffffffffffffffffffffffffffffff16815260200190815260200160002054611b5190919063ffffffff16565b600160008673ffffffffffffffffffffffffffffffffffffffff1673ffffffffffffffffffffffffffffffffffffffff16815260200190815260200160002081905550610aa883600260008873ffffffffffffffffffffffffffffffffffffffff1673ffffffffffffffffffffffffffffffffffffffff16815260200190815260200160002060003373ffffffffffffffffffffffffffffffffffffffff1673ffffffffffffffffffffffffffffffffffffffff16815260200190815260200160002054611b3890919063ffffffff16565b600260008773ffffffffffffffffffffffffffffffffffffffff1673ffffffffffffffffffffffffffffffffffffffff16815260200190815260200160002060003373ffffffffffffffffffffffffffffffffffffffff1673ffffffffffffffffffffffffffffffffffffffff168152602001908152602001600020819055508373ffffffffffffffffffffffffffffffffffffffff168573ffffffffffffffffffffffffffffffffffffffff167fddf252ad1be2c89b69c2b068fc378daa952ba7f163c4a11628f55a4df523b3ef856040518082815260200191505060405180910390a360019150509392505050565b6000600360009054906101000a900473ffffffffffffffffffffffffffffffffffffffff1673ffffffffffffffffffffffffffffffffffffffff163373ffffffffffffffffffffffffffffffffffffffff16141515610bf757600080fd5b600073ffffffffffffffffffffffffffffffffffffffff168373ffffffffffffffffffffffffffffffffffffffff1614151515610c3357600080fd5b600160008473ffffffffffffffffffffffffffffffffffffffff1673ffffffffffffffffffffffffffffffffffffffff168152602001908152602001600020548211151515610c8157600080fd5b610cd382600160008673ffffffffffffffffffffffffffffffffffffffff1673ffffffffffffffffffffffffffffffffffffffff16815260200190815260200160002054611b3890919063ffffffff16565b600160008573ffffffffffffffffffffffffffffffffffffffff1673ffffffffffffffffffffffffffffffffffffffff16815260200190815260200160002081905550610d6882600160003373ffffffffffffffffffffffffffffffffffffffff1673ffffffffffffffffffffffffffffffffffffffff16815260200190815260200160002054611b5190919063ffffffff16565b600160003373ffffffffffffffffffffffffffffffffffffffff1673ffffffffffffffffffffffffffffffffffffffff168152602001908152602001600020819055507f285da9122e12f24158745e2179a8da30488f6fa4a6292da22f90b18d9b59201e8383604051808373ffffffffffffffffffffffffffffffffffffffff1673ffffffffffffffffffffffffffffffffffffffff1681526020018281526020019250505060405180910390a16001905092915050565b6000600360009054906101000a900473ffffffffffffffffffffffffffffffffffffffff1673ffffffffffffffffffffffffffffffffffffffff163373ffffffffffffffffffffffffffffffffffffffff16141515610e7e57600080fd5b600360149054906101000a900460ff16151515610e9a57600080fd5b610eaf82600054611b5190919063ffffffff16565b600081905550610f0782600160008673ffffffffffffffffffffffffffffffffffffffff1673ffffffffffffffffffffffffffffffffffffffff16815260200190815260200160002054611b5190919063ffffffff16565b600160008573ffffffffffffffffffffffffffffffffffffffff1673ffffffffffffffffffffffffffffffffffffffff168152602001908152602001600020819055508273ffffffffffffffffffffffffffffffffffffffff167f0f6798a560793a54c3bcfe86a93cde1e73087d944c0ea20544137d4121396885836040518082815260200191505060405180910390a28273ffffffffffffffffffffffffffffffffffffffff1660007fddf252ad1be2c89b69c2b068fc378daa952ba7f163c4a11628f55a4df523b3ef846040518082815260200191505060405180910390a36001905092915050565b600080600260003373ffffffffffffffffffffffffffffffffffffffff1673ffffffffffffffffffffffffffffffffffffffff16815260200190815260200160002060008573ffffffffffffffffffffffffffffffffffffffff1673ffffffffffffffffffffffffffffffffffffffff16815260200190815260200160002054905080831115611103576000600260003373ffffffffffffffffffffffffffffffffffffffff1673ffffffffffffffffffffffffffffffffffffffff16815260200190815260200160002060008673ffffffffffffffffffffffffffffffffffffffff1673ffffffffffffffffffffffffffffffffffffffff16815260200190815260200160002081905550611197565b6111168382611b3890919063ffffffff16565b600260003373ffffffffffffffffffffffffffffffffffffffff1673ffffffffffffffffffffffffffffffffffffffff16815260200190815260200160002060008673ffffffffffffffffffffffffffffffffffffffff1673ffffffffffffffffffffffffffffffffffffffff168152602001908152602001600020819055505b8373ffffffffffffffffffffffffffffffffffffffff163373ffffffffffffffffffffffffffffffffffffffff167f8c5be1e5ebec7d5bd14f71427d1e84f3dd0314c0f7b2291e5b200ac8c7c3b925600260003373ffffffffffffffffffffffffffffffffffffffff1673ffffffffffffffffffffffffffffffffffffffff16815260200190815260200160002060008873ffffffffffffffffffffffffffffffffffffffff1673ffffffffffffffffffffffffffffffffffffffff168152602001908152602001600020546040518082815260200191505060405180910390a3600191505092915050565b6000600160008373ffffffffffffffffffffffffffffffffffffffff1673ffffffffffffffffffffffffffffffffffffffff168152602001908152602001600020549050919050565b6000600360009054906101000a900473ffffffffffffffffffffffffffffffffffffffff1673ffffffffffffffffffffffffffffffffffffffff163373ffffffffffffffffffffffffffffffffffffffff1614151561132a57600080fd5b6001600360146101000a81548160ff0219169083151502179055507fae5184fba832cb2b1f702aca6117b8d265eaf03ad33eb133f19dde0f5920fa0860405160405180910390a16001905090565b600360009054906101000a900473ffffffffffffffffffffffffffffffffffffffff1681565b600080600073ffffffffffffffffffffffffffffffffffffffff168473ffffffffffffffffffffffffffffffffffffffff16141515156113dd57600080fd5b600160003373ffffffffffffffffffffffffffffffffffffffff1673ffffffffffffffffffffffffffffffffffffffff16815260200190815260200160002054831115151561142b57600080fd5b600360009054906101000a900473ffffffffffffffffffffffffffffffffffffffff1690508073ffffffffffffffffffffffffffffffffffffffff1663929066f5856000604051602001526040518263ffffffff167c0100000000000000000000000000000000000000000000000000000000028152600401808273ffffffffffffffffffffffffffffffffffffffff1673ffffffffffffffffffffffffffffffffffffffff168152602001915050602060405180830381600087803b15156114f357600080fd5b6102c65a03f1151561150457600080fd5b5050506040518051905015156115c3578073ffffffffffffffffffffffffffffffffffffffff1663883d6b7b856040518263ffffffff167c0100000000000000000000000000000000000000000000000000000000028152600401808273ffffffffffffffffffffffffffffffffffffffff1673ffffffffffffffffffffffffffffffffffffffff168152602001915050600060405180830381600087803b15156115ae57600080fd5b6102c65a03f115156115bf57600080fd5b5050505b61161583600160003373ffffffffffffffffffffffffffffffffffffffff1673ffffffffffffffffffffffffffffffffffffffff16815260200190815260200160002054611b3890919063ffffffff16565b600160003373ffffffffffffffffffffffffffffffffffffffff1673ffffffffffffffffffffffffffffffffffffffff168152602001908152602001600020819055506116aa83600160008773ffffffffffffffffffffffffffffffffffffffff1673ffffffffffffffffffffffffffffffffffffffff16815260200190815260200160002054611b5190919063ffffffff16565b600160008673ffffffffffffffffffffffffffffffffffffffff1673ffffffffffffffffffffffffffffffffffffffff168152602001908152602001600020819055508373ffffffffffffffffffffffffffffffffffffffff163373ffffffffffffffffffffffffffffffffffffffff167fddf252ad1be2c89b69c2b068fc378daa952ba7f163c4a11628f55a4df523b3ef856040518082815260200191505060405180910390a3600191505092915050565b60006117ee82600260003373ffffffffffffffffffffffffffffffffffffffff1673ffffffffffffffffffffffffffffffffffffffff16815260200190815260200160002060008673ffffffffffffffffffffffffffffffffffffffff1673ffffffffffffffffffffffffffffffffffffffff16815260200190815260200160002054611b5190919063ffffffff16565b600260003373ffffffffffffffffffffffffffffffffffffffff1673ffffffffffffffffffffffffffffffffffffffff16815260200190815260200160002060008573ffffffffffffffffffffffffffffffffffffffff1673ffffffffffffffffffffffffffffffffffffffff168152602001908152602001600020819055508273ffffffffffffffffffffffffffffffffffffffff163373ffffffffffffffffffffffffffffffffffffffff167f8c5be1e5ebec7d5bd14f71427d1e84f3dd0314c0f7b2291e5b200ac8c7c3b925600260003373ffffffffffffffffffffffffffffffffffffffff1673ffffffffffffffffffffffffffffffffffffffff16815260200190815260200160002060008773ffffffffffffffffffffffffffffffffffffffff1673ffffffffffffffffffffffffffffffffffffffff168152602001908152602001600020546040518082815260200191505060405180910390a36001905092915050565b6000600260008473ffffffffffffffffffffffffffffffffffffffff1673ffffffffffffffffffffffffffffffffffffffff16815260200190815260200160002060008373ffffffffffffffffffffffffffffffffffffffff1673ffffffffffffffffffffffffffffffffffffffff16815260200190815260200160002054905092915050565b600360009054906101000a900473ffffffffffffffffffffffffffffffffffffffff1673ffffffffffffffffffffffffffffffffffffffff163373ffffffffffffffffffffffffffffffffffffffff16141515611a3c57600080fd5b600073ffffffffffffffffffffffffffffffffffffffff168173ffffffffffffffffffffffffffffffffffffffff1614151515611a7857600080fd5b8073ffffffffffffffffffffffffffffffffffffffff16600360009054906101000a900473ffffffffffffffffffffffffffffffffffffffff1673ffffffffffffffffffffffffffffffffffffffff167f8be0079c531659141344cd1fd0a4f28419497f9722a3daafe3b4186f6b6457e060405160405180910390a380600360006101000a81548173ffffffffffffffffffffffffffffffffffffffff021916908373ffffffffffffffffffffffffffffffffffffffff16021790555050565b6000828211151515611b4657fe5b818303905092915050565b6000808284019050838110151515611b6557fe5b80915050929150505600a165627a7a723058209f3d909e2408724783fc85a3db810ca73321e910c369d0b3b3c146c1910b74320029",
  "source": "pragma solidity ^0.4.18;\r\n\r\nimport 'zeppelin-solidity/contracts/token/MintableToken.sol';\r\nimport 'zeppelin-solidity/contracts/math/SafeMath.sol';\r\nimport './etherdelta.sol';\r\nimport './oraclizeAPI_0.4.sol';\r\n\r\n\r\n\r\n// The main contract that keeps track of:\r\n// - Who is in the fund\r\n// - How much the fund has\r\n// - Each person's Share\r\n// - Each person's Control\r\ncontract GroupFund is usingOraclize {\r\n  using SafeMath for uint256;\r\n\r\n  enum CyclePhase { ChangeMaking, ProposalMaking, Waiting, Ended }\r\n\r\n  struct Proposal {\r\n    address tokenAddress;\r\n    string tokenSymbol;\r\n    uint256 buyPriceInWeis;\r\n    uint256 sellPriceinWeis;\r\n    uint256 buyOrderExpirationBlockNum;\r\n    uint256 sellOrderExpirationBlockNum;\r\n    uint256 numFor;\r\n    uint256 numAgainst;\r\n  }\r\n\r\n  modifier isChangeMakingTime {\r\n    require(now < startTimeOfCycle.add(timeOfChangeMaking));\r\n    _;\r\n  }\r\n\r\n  modifier isProposalMakingTime {\r\n    require(now >= startTimeOfCycle.add(timeOfChangeMaking));\r\n    require(now < startTimeOfCycle.add(timeOfChangeMaking).add(timeOfProposalMaking));\r\n    _;\r\n  }\r\n\r\n  modifier onlyParticipant {\r\n    require(isParticipant[msg.sender]);\r\n    _;\r\n  }\r\n\r\n  //Number of decimals used for proportions\r\n  uint256 public decimals;\r\n\r\n  // A list of everyone who is participating in the GroupFund\r\n  address[] public participants;\r\n  mapping(address => bool) public isParticipant;\r\n\r\n  //Address of the control token\r\n  address public controlTokenAddr;\r\n\r\n  address public etherDeltaAddr;\r\n\r\n  // URL for querying prices, default is set to cryptocompare\r\n  // Later on, modify this to be more flexible for additional queries, etc.\r\n  string public priceCheckURL1;\r\n  string public priceCheckURL2;\r\n  string public priceCheckURL3;\r\n\r\n  // The total amount of funds held by the group\r\n  uint256 public totalFundsInWeis;\r\n\r\n  //The start time for the current investment cycle, in seconds since Unix epoch\r\n  uint256 public startTimeOfCycle;\r\n\r\n  //Temporal length of each investment cycle, in seconds\r\n  uint256 public timeOfCycle;\r\n\r\n  //Temporal length of change making period at start of each cycle, in seconds\r\n  uint256 public timeOfChangeMaking;\r\n\r\n  //Temporal length of proposal making period at start of each cycle, in seconds\r\n  uint256 public timeOfProposalMaking;\r\n\r\n  //Proportion of control people who vote against a proposal have to stake\r\n  uint256 public againstStakeProportion;\r\n\r\n  uint256 public maxProposals;\r\n\r\n  uint256 public commissionRate;\r\n\r\n  uint256 public orderExpirationTimeInBlocks;\r\n\r\n  //The proportion of contract balance reserved for Oraclize fees\r\n  uint256 public oraclizeFeeProportion;\r\n\r\n  bool public isFirstCycle;\r\n\r\n  // Mapping from Participant address to their balance\r\n  mapping(address => uint256) public balanceOf;\r\n\r\n  // Mapping from Proposal to total amount of Control Tokens being staked by supporters\r\n  mapping(uint256 => uint256) public forStakedControlOfProposal;\r\n\r\n  // Mapping from Proposal to Participant to number of Control Tokens being staked\r\n  mapping(uint256 => mapping(address => uint256)) public forStakedControlOfProposalOfUser;\r\n\r\n  mapping(uint256 => mapping(address => uint256)) public againstStakedControlOfProposalOfUser;\r\n\r\n  mapping(bytes32 => uint256) internal proposalIdOfQuery;\r\n\r\n  Proposal[] public proposals;\r\n  ControlToken internal cToken;\r\n  EtherDelta internal etherDelta;\r\n  CyclePhase public cyclePhase;\r\n\r\n  event CycleStarted(uint256 timestamp);\r\n  event ChangeMakingTimeEnded(uint256 timestamp);\r\n  event ProposalMakingTimeEnded(uint256 timestamp);\r\n  event CycleEnded(uint256 timestamp);\r\n\r\n  // GroupFund constructor\r\n  function GroupFund(\r\n    address _etherDeltaAddr,\r\n    uint256 _decimals,\r\n    uint256 _timeOfCycle,\r\n    uint256 _timeOfChangeMaking,\r\n    uint256 _timeOfProposalMaking,\r\n    uint256 _againstStakeProportion,\r\n    uint256 _maxProposals,\r\n    uint256 _commissionRate,\r\n    uint256 _orderExpirationTimeInBlocks,\r\n    uint256 _oraclizeFeeProportion\r\n  )\r\n    public\r\n  {\r\n    require(_timeOfChangeMaking.add(_timeOfProposalMaking) <= _timeOfCycle);\r\n    etherDeltaAddr = _etherDeltaAddr;\r\n    decimals = _decimals;\r\n    timeOfCycle = _timeOfCycle;\r\n    timeOfChangeMaking = _timeOfChangeMaking;\r\n    timeOfProposalMaking = _timeOfProposalMaking;\r\n    againstStakeProportion = _againstStakeProportion;\r\n    maxProposals = _maxProposals;\r\n    commissionRate = _commissionRate;\r\n    orderExpirationTimeInBlocks = _orderExpirationTimeInBlocks;\r\n    oraclizeFeeProportion = _oraclizeFeeProportion;\r\n    startTimeOfCycle = 0;\r\n    isFirstCycle = true;\r\n    cyclePhase = CyclePhase.Ended;\r\n\r\n    // Initialize cryptocompare URLs:\r\n    priceCheckURL1 = \"json(https://min-api.cryptocompare.com/data/price?fsym=\";\r\n    priceCheckURL2 = \"&tsyms=\";\r\n    priceCheckURL3 = \").ETH\";\r\n\r\n    //Create control token contract\r\n    cToken = new ControlToken();\r\n    controlTokenAddr = cToken;\r\n\r\n    //Initialize etherDelta contract\r\n    etherDelta = EtherDelta(etherDeltaAddr);\r\n  }\r\n\r\n  // Creates a new Cycle\r\n  function startNewCycle() public {\r\n    require(cyclePhase == CyclePhase.Ended);\r\n    require(now >= startTimeOfCycle.add(timeOfCycle));\r\n\r\n    cyclePhase = CyclePhase.ChangeMaking;\r\n\r\n    startTimeOfCycle = now;\r\n    CycleStarted(now);\r\n  }\r\n\r\n  //Change making time functions\r\n\r\n  function deposit()\r\n    public\r\n    payable\r\n    isChangeMakingTime\r\n  {\r\n    if (!isParticipant[msg.sender]) {\r\n      participants.push(msg.sender);\r\n      isParticipant[msg.sender] = true;\r\n    }\r\n\r\n    //Register investment\r\n    uint256 fees = msg.value.mul(oraclizeFeeProportion).div(10**decimals);\r\n    balanceOf[msg.sender] = balanceOf[msg.sender].add(msg.value).sub(fees);\r\n    totalFundsInWeis = totalFundsInWeis.add(msg.value).sub(fees);\r\n\r\n    if (isFirstCycle) {\r\n      //Give control tokens proportional to investment\r\n      cToken.mint(msg.sender, msg.value);\r\n    }\r\n  }\r\n\r\n  // Withdraw from GroupFund\r\n  function withdraw(uint256 _amountInWeis)\r\n    public\r\n    isChangeMakingTime\r\n    onlyParticipant\r\n  {\r\n    require(!isFirstCycle);\r\n\r\n    totalFundsInWeis = totalFundsInWeis.sub(_amountInWeis);\r\n    balanceOf[msg.sender] = balanceOf[msg.sender].sub(_amountInWeis);\r\n\r\n    msg.sender.transfer(_amountInWeis);\r\n  }\r\n\r\n  function endChangeMakingTime() public {\r\n    require(cyclePhase == CyclePhase.ChangeMaking);\r\n    require(now >= startTimeOfCycle.add(timeOfChangeMaking));\r\n\r\n    cyclePhase = CyclePhase.ProposalMaking;\r\n\r\n    ChangeMakingTimeEnded(now);\r\n  }\r\n\r\n  //Proposal making time functions\r\n  function createProposal(\r\n    address _tokenAddress,\r\n    string _tokenSymbol,\r\n    uint256 _amountInWeis\r\n  )\r\n    public\r\n    isProposalMakingTime\r\n    onlyParticipant\r\n  {\r\n    require(proposals.length < maxProposals);\r\n\r\n    proposals.push(Proposal({\r\n      tokenAddress: _tokenAddress,\r\n      tokenSymbol: _tokenSymbol,\r\n      buyPriceInWeis: 0,\r\n      sellPriceinWeis: 0,\r\n      numFor: 1,\r\n      numAgainst: 0,\r\n      buyOrderExpirationBlockNum: 0,\r\n      sellOrderExpirationBlockNum: 0\r\n    }));\r\n\r\n    //Stake control tokens\r\n    uint256 proposalId = proposals.length - 1;\r\n    supportProposal(proposalId, _amountInWeis);\r\n  }\r\n\r\n  function supportProposal(uint256 _proposalId, uint256 _amountInWeis)\r\n    public\r\n    isProposalMakingTime\r\n    onlyParticipant\r\n  {\r\n    require(_proposalId < proposals.length);\r\n\r\n    //Stake control tokens\r\n    uint256 controlStake = _amountInWeis.mul(cToken.totalSupply()).div(totalFundsInWeis);\r\n    //Collect staked control tokens\r\n    cToken.ownerCollectFrom(msg.sender, controlStake);\r\n    //Update stake data\r\n    proposals[_proposalId].numFor = proposals[_proposalId].numFor.add(1);\r\n    forStakedControlOfProposal[_proposalId] = forStakedControlOfProposal[_proposalId].add(controlStake);\r\n    forStakedControlOfProposalOfUser[_proposalId][msg.sender] = forStakedControlOfProposalOfUser[_proposalId][msg.sender].add(controlStake);\r\n  }\r\n\r\n  function endProposalMakingTime() public {\r\n    require(cyclePhase == CyclePhase.ProposalMaking);\r\n    require(now >= startTimeOfCycle.add(timeOfChangeMaking).add(timeOfProposalMaking));\r\n\r\n    cyclePhase = CyclePhase.Waiting;\r\n\r\n    //Stake against votes\r\n    for (uint256 i = 0; i < participants.length; i = i.add(1)) {\r\n      address participant = participants[i];\r\n      uint256 stakeAmount = cToken.balanceOf(participant).mul(againstStakeProportion).div(10**decimals);\r\n      if (stakeAmount != 0) {\r\n        for (uint256 j = 0; j < proposals.length; j = j.add(1)) {\r\n          bool isFor = forStakedControlOfProposalOfUser[j][participant] != 0;\r\n          if (!isFor) {\r\n            cToken.ownerCollectFrom(participant, stakeAmount);\r\n            proposals[j].numAgainst = proposals[j].numAgainst.add(1);\r\n            againstStakedControlOfProposalOfUser[j][participant] = againstStakedControlOfProposalOfUser[j][participant].add(stakeAmount);\r\n          }\r\n        }\r\n      }\r\n    }\r\n\r\n    //Invest in tokens using etherdelta\r\n    for (i = 0; i < proposals.length; i = i.add(1)) {\r\n      //Deposit ether\r\n      assert(etherDelta.call.value(investAmount)(bytes4(keccak256(\"deposit()\"))));\r\n      uint256 investAmount = totalFundsInWeis.mul(forStakedControlOfProposal[i]).div(cToken.totalSupply());\r\n      grabCurrentPriceFromOraclize(i);\r\n    }\r\n\r\n    ProposalMakingTimeEnded(now);\r\n  }\r\n\r\n  function endCycle() public {\r\n    require(cyclePhase == CyclePhase.Waiting);\r\n    require(now >= startTimeOfCycle.add(timeOfCycle));\r\n\r\n    if (isFirstCycle) {\r\n      cToken.finishMinting();\r\n    }\r\n    cyclePhase = CyclePhase.Ended;\r\n    isFirstCycle = false;\r\n\r\n    //Sell all invested tokens\r\n    for (uint256 i = 0; i < proposals.length; i = i.add(1)) {\r\n      uint256 investAmount = totalFundsInWeis.mul(forStakedControlOfProposal[i]).div(cToken.totalSupply());\r\n      grabCurrentPriceFromOraclize(i);\r\n    }\r\n\r\n    CycleEnded(now);\r\n  }\r\n\r\n  function finalizeEndCycle() public {\r\n    require(cyclePhase == CyclePhase.Ended);\r\n    require(startTimeOfCycle != 0);\r\n\r\n    //Ensure all the sell orders are inactive\r\n    for (uint256 i = 0; i < proposals.length; i = i.add(1)) {\r\n      uint256 proposalId = i;\r\n      Proposal storage prop = proposals[proposalId];\r\n      uint256 sellTokenAmount = totalFundsInWeis.mul(forStakedControlOfProposal[proposalId]).div(cToken.totalSupply()).div(prop.buyPriceInWeis);\r\n      uint256 getWeiAmount = sellTokenAmount.mul(prop.sellPriceinWeis);\r\n\r\n      uint256 amountFilled = etherDelta.amountFilled(address(0), getWeiAmount, prop.tokenAddress, sellTokenAmount, prop.sellOrderExpirationBlockNum, proposalId, this, 0, 0, 0);\r\n      require(amountFilled == sellTokenAmount || block.number > prop.sellOrderExpirationBlockNum);\r\n\r\n      //Settle bets\r\n      uint256 tokenReward;\r\n      uint256 stake;\r\n      uint256 j;\r\n      address participant;\r\n      if (prop.sellPriceinWeis >= prop.buyPriceInWeis) {\r\n        //For wins\r\n        tokenReward = cToken.totalSupply().sub(forStakedControlOfProposal[proposalId]).mul(againstStakeProportion).div(10**decimals.mul(prop.numFor));\r\n        for (j = 0; j < participants.length; j = j.add(1)) {\r\n          participant = participants[j];\r\n          stake = forStakedControlOfProposalOfUser[proposalId][participant];\r\n          if (stake != 0) {\r\n            //Give control tokens\r\n            cToken.transfer(participant, stake.add(tokenReward));\r\n          }\r\n        }\r\n      } else {\r\n        //Against wins\r\n        tokenReward = forStakedControlOfProposal[proposalId].div(prop.numAgainst);\r\n        for (j = 0; j < participants.length; j = j.add(1)) {\r\n          participant = participants[j];\r\n          stake = againstStakedControlOfProposalOfUser[proposalId][participant];\r\n          if (stake != 0) {\r\n            //Give control tokens\r\n            cToken.transfer(participant, stake.add(tokenReward));\r\n          }\r\n        }\r\n      }\r\n    }\r\n    //Withdraw from etherdelta\r\n    etherDelta.withdraw(etherDelta.tokens(address(0), this));\r\n\r\n    distributeFundsAfterCycleEnd();\r\n\r\n    //Reset data\r\n    totalFundsInWeis = this.balance;\r\n    delete proposals;\r\n  }\r\n\r\n  function distributeFundsAfterCycleEnd() internal {\r\n    //Distribute funds\r\n    uint256 totalCommission = commissionRate.mul(this.balance).div(10**decimals);\r\n    uint256 feeReserve = oraclizeFeeProportion.mul(this.balance).div(10**decimals);\r\n\r\n    for (uint256 i = 0; i < participants.length; i = i.add(1)) {\r\n      address participant = participants[i];\r\n      uint256 newBalance = this.balance.sub(totalCommission).sub(feeReserve).mul(balanceOf[participant]).div(totalFundsInWeis);\r\n      //Add commission\r\n      newBalance = newBalance.add(totalCommission.mul(cToken.balanceOf(participant)).div(cToken.totalSupply()));\r\n      balanceOf[participant] = newBalance;\r\n    }\r\n  }\r\n\r\n  function addControlTokenReceipientAsParticipant(address _receipient) public {\r\n    require(msg.sender == controlTokenAddr);\r\n    isParticipant[_receipient] = true;\r\n    participants.push(_receipient);\r\n  }\r\n\r\n  //Oraclize functions\r\n\r\n  // Query Oraclize for the current price\r\n  function grabCurrentPriceFromOraclize(uint _proposalId) public payable {\r\n    // Grab the cryptocompare URL that is the price in ETH of the token to purchase\r\n    string storage tokenSymbol = proposals[_proposalId].tokenSymbol;\r\n    string memory etherSymbol = \"ETH\";\r\n    string memory urlToQuery = strConcat(priceCheckURL1, tokenSymbol, priceCheckURL2, etherSymbol, priceCheckURL3);\r\n\r\n    string memory url = \"URL\";\r\n\r\n    // Call Oraclize to grab the most recent price information via JSON\r\n    proposalIdOfQuery[oraclize_query(url, urlToQuery)] = _proposalId;\r\n  }\r\n\r\n  // Callback function from Oraclize query:\r\n  function __callback(bytes32 _myID, string _result) public {\r\n    require(msg.sender == oraclize_cbAddress());\r\n\r\n    // Grab ETH price in Weis\r\n    uint256 priceInWeis = parseInt(_result, 18);\r\n\r\n    uint256 proposalId = proposalIdOfQuery[_myID];\r\n    Proposal storage prop = proposals[proposalId];\r\n\r\n    //Reset data\r\n    delete proposalIdOfQuery[_myID];\r\n\r\n    uint256 investAmount = totalFundsInWeis.mul(forStakedControlOfProposal[proposalId]).div(cToken.totalSupply());\r\n\r\n    if (cyclePhase == CyclePhase.Waiting) {\r\n      //Buy\r\n      prop.buyPriceInWeis = priceInWeis;\r\n      prop.buyOrderExpirationBlockNum = block.number.add(orderExpirationTimeInBlocks);\r\n\r\n      uint256 buyTokenAmount = investAmount.div(prop.buyPriceInWeis);\r\n      etherDelta.order(prop.tokenAddress, buyTokenAmount, address(0), investAmount, prop.buyOrderExpirationBlockNum, proposalId);\r\n    } else if (cyclePhase == CyclePhase.Ended) {\r\n      //Sell\r\n      prop.sellPriceinWeis = priceInWeis;\r\n      prop.sellOrderExpirationBlockNum = block.number.add(orderExpirationTimeInBlocks);\r\n\r\n      uint256 sellTokenAmount = investAmount.div(prop.buyPriceInWeis);\r\n      uint256 getWeiAmount = sellTokenAmount.mul(prop.sellPriceinWeis);\r\n      etherDelta.order(address(0), getWeiAmount, prop.tokenAddress, sellTokenAmount, prop.sellOrderExpirationBlockNum, proposalId);\r\n    }\r\n  }\r\n\r\n  function() public {\r\n    revert();\r\n  }\r\n}\r\n\r\n//Proportional to Wei when minted\r\ncontract ControlToken is MintableToken {\r\n  using SafeMath for uint256;\r\n\r\n  event OwnerCollectFrom(address _from, uint256 _value);\r\n\r\n  function transfer(address _to, uint256 _value) public returns(bool) {\r\n    require(_to != address(0));\r\n    require(_value <= balances[msg.sender]);\r\n\r\n    //Add receipient as a participant if not already a participant\r\n    GroupFund g = GroupFund(owner);\r\n    if (!g.isParticipant(_to)) {\r\n      g.addControlTokenReceipientAsParticipant(_to);\r\n    }\r\n\r\n    // SafeMath.sub will throw if there is not enough balance.\r\n    balances[msg.sender] = balances[msg.sender].sub(_value);\r\n    balances[_to] = balances[_to].add(_value);\r\n    Transfer(msg.sender, _to, _value);\r\n    return true;\r\n  }\r\n\r\n  function transferFrom(address _from, address _to, uint256 _value) public returns (bool) {\r\n    require(_to != address(0));\r\n    require(_value <= balances[_from]);\r\n    require(_value <= allowed[_from][msg.sender]);\r\n\r\n    //Add receipient as a participant if not already a participant\r\n    GroupFund g = GroupFund(owner);\r\n    if (!g.isParticipant(_to)) {\r\n      g.addControlTokenReceipientAsParticipant(_to);\r\n    }\r\n\r\n    balances[_from] = balances[_from].sub(_value);\r\n    balances[_to] = balances[_to].add(_value);\r\n    allowed[_from][msg.sender] = allowed[_from][msg.sender].sub(_value);\r\n    Transfer(_from, _to, _value);\r\n    return true;\r\n  }\r\n\r\n  function ownerCollectFrom(address _from, uint256 _value) public onlyOwner returns(bool) {\r\n    require(_from != address(0));\r\n    require(_value <= balances[_from]);\r\n\r\n    // SafeMath.sub will throw if there is not enough balance.\r\n    balances[_from] = balances[_from].sub(_value);\r\n    balances[msg.sender] = balances[msg.sender].add(_value);\r\n    OwnerCollectFrom(_from, _value);\r\n    return true;\r\n  }\r\n}\r\n",
  "sourcePath": "D:\\msi-cn\\Documents\\GitHub\\betoken\\contracts\\betoken.sol",
  "compiler": {
    "name": "solc",
    "version": "0.4.18+commit.9cf6e910.Emscripten.clang"
  },
  "schemaVersion": "1.0.1",
  "updatedAt": "2017-11-12T22:56:19.333Z"
}