{
  "contractName": "OraclizeHandler",
  "abi": [
    {
      "constant": true,
      "inputs": [],
      "name": "priceCheckURL1",
      "outputs": [
        {
          "name": "",
          "type": "string"
        }
      ],
      "payable": false,
      "stateMutability": "view",
      "type": "function"
    },
    {
      "constant": false,
      "inputs": [
        {
          "name": "_myID",
          "type": "bytes32"
        },
        {
          "name": "_result",
          "type": "string"
        }
      ],
      "name": "__callback",
      "outputs": [],
      "payable": false,
      "stateMutability": "nonpayable",
      "type": "function"
    },
    {
      "constant": false,
      "inputs": [],
      "name": "__deleteTokenSymbolOfProposal",
      "outputs": [],
      "payable": false,
      "stateMutability": "nonpayable",
      "type": "function"
    },
    {
      "constant": false,
      "inputs": [
        {
          "name": "_tokenSymbol",
          "type": "string"
        }
      ],
      "name": "__pushTokenSymbolOfProposal",
      "outputs": [],
      "payable": false,
      "stateMutability": "nonpayable",
      "type": "function"
    },
    {
      "constant": false,
      "inputs": [
        {
          "name": "myid",
          "type": "bytes32"
        },
        {
          "name": "result",
          "type": "string"
        },
        {
          "name": "proof",
          "type": "bytes"
        }
      ],
      "name": "__callback",
      "outputs": [],
      "payable": false,
      "stateMutability": "nonpayable",
      "type": "function"
    },
    {
      "constant": false,
      "inputs": [
        {
          "name": "_newAddr",
          "type": "address"
        }
      ],
      "name": "__changeEtherDeltaAddress",
      "outputs": [],
      "payable": false,
      "stateMutability": "nonpayable",
      "type": "function"
    },
    {
      "constant": false,
      "inputs": [
        {
          "name": "_proposalId",
          "type": "uint256"
        }
      ],
      "name": "__grabCurrentPriceFromOraclize",
      "outputs": [],
      "payable": true,
      "stateMutability": "payable",
      "type": "function"
    },
    {
      "constant": true,
      "inputs": [],
      "name": "owner",
      "outputs": [
        {
          "name": "",
          "type": "address"
        }
      ],
      "payable": false,
      "stateMutability": "view",
      "type": "function"
    },
    {
      "constant": true,
      "inputs": [],
      "name": "etherDeltaAddr",
      "outputs": [
        {
          "name": "",
          "type": "address"
        }
      ],
      "payable": false,
      "stateMutability": "view",
      "type": "function"
    },
    {
      "constant": true,
      "inputs": [],
      "name": "priceCheckURL2",
      "outputs": [
        {
          "name": "",
          "type": "string"
        }
      ],
      "payable": false,
      "stateMutability": "view",
      "type": "function"
    },
    {
      "constant": true,
      "inputs": [],
      "name": "controlTokenAddr",
      "outputs": [
        {
          "name": "",
          "type": "address"
        }
      ],
      "payable": false,
      "stateMutability": "view",
      "type": "function"
    },
    {
      "constant": true,
      "inputs": [],
      "name": "priceCheckURL3",
      "outputs": [
        {
          "name": "",
          "type": "string"
        }
      ],
      "payable": false,
      "stateMutability": "view",
      "type": "function"
    },
    {
      "constant": true,
      "inputs": [
        {
          "name": "",
          "type": "uint256"
        }
      ],
      "name": "tokenSymbolOfProposal",
      "outputs": [
        {
          "name": "",
          "type": "string"
        }
      ],
      "payable": false,
      "stateMutability": "view",
      "type": "function"
    },
    {
      "constant": false,
      "inputs": [
        {
          "name": "newOwner",
          "type": "address"
        }
      ],
      "name": "transferOwnership",
      "outputs": [],
      "payable": false,
      "stateMutability": "nonpayable",
      "type": "function"
    },
    {
      "inputs": [
        {
          "name": "_controlTokenAddr",
          "type": "address"
        },
        {
          "name": "_etherDeltaAddr",
          "type": "address"
        }
      ],
      "payable": false,
      "stateMutability": "nonpayable",
      "type": "constructor"
    },
    {
      "payable": true,
      "stateMutability": "payable",
      "type": "fallback"
    },
    {
      "anonymous": false,
      "inputs": [
        {
          "indexed": true,
          "name": "previousOwner",
          "type": "address"
        },
        {
          "indexed": true,
          "name": "newOwner",
          "type": "address"
        }
      ],
      "name": "OwnershipTransferred",
      "type": "event"
    }
  ],
  "bytecode": "0x606060405234156200001057600080fd5b604051604080620037d78339810160405280805190602001909190805190602001909190505033600560006101000a81548173ffffffffffffffffffffffffffffffffffffffff021916908373ffffffffffffffffffffffffffffffffffffffff16021790555081600960006101000a81548173ffffffffffffffffffffffffffffffffffffffff021916908373ffffffffffffffffffffffffffffffffffffffff16021790555080600a60006101000a81548173ffffffffffffffffffffffffffffffffffffffff021916908373ffffffffffffffffffffffffffffffffffffffff16021790555081600c60006101000a81548173ffffffffffffffffffffffffffffffffffffffff021916908373ffffffffffffffffffffffffffffffffffffffff16021790555080600d60006101000a81548173ffffffffffffffffffffffffffffffffffffffff021916908373ffffffffffffffffffffffffffffffffffffffff160217905550606060405190810160405280603781526020017f6a736f6e2868747470733a2f2f6d696e2d6170692e63727970746f636f6d706181526020017f72652e636f6d2f646174612f70726963653f6673796d3d00000000000000000081525060069080519060200190620001ef92919062000294565b506040805190810160405280600781526020017f267473796d733d00000000000000000000000000000000000000000000000000815250600790805190602001906200023d92919062000294565b506040805190810160405280600581526020017f292e455448000000000000000000000000000000000000000000000000000000815250600890805190602001906200028b92919062000294565b50505062000343565b828054600181600116156101000203166002900490600052602060002090601f016020900481019282601f10620002d757805160ff191683800117855562000308565b8280016001018555821562000308579182015b8281111562000307578251825591602001919060010190620002ea565b5b5090506200031791906200031b565b5090565b6200034091905b808211156200033c57600081600090555060010162000322565b5090565b90565b61348480620003536000396000f3006060604052600436106100d0576000357c0100000000000000000000000000000000000000000000000000000000900463ffffffff168063267a32aa1461012e57806327dc297e146101bc57806332f42b54146102265780633455d73e1461023b57806338bbfa50146102985780635aeed50a1461034557806360fc3f8e1461037e5780638da5cb5b1461039657806395fa9fc9146103eb578063d6c9f59e14610440578063dc87454c146104ce578063e3e4a6e014610523578063e79e3f1a146105b1578063f2fde38b1461064d575b600560009054906101000a900473ffffffffffffffffffffffffffffffffffffffff1673ffffffffffffffffffffffffffffffffffffffff163373ffffffffffffffffffffffffffffffffffffffff1614151561012c57600080fd5b005b341561013957600080fd5b610141610686565b6040518080602001828103825283818151815260200191508051906020019080838360005b83811015610181578082015181840152602081019050610166565b50505050905090810190601f1680156101ae5780820380516001836020036101000a031916815260200191505b509250505060405180910390f35b34156101c757600080fd5b61022460048080356000191690602001909190803590602001908201803590602001908080601f01602080910402602001604051908101604052809392919081815260200183838082843782019150505050505091905050610724565b005b341561023157600080fd5b6102396113d0565b005b341561024657600080fd5b610296600480803590602001908201803590602001908080601f0160208091040260200160405190810160405280939291908181526020018383808284378201915050505050509190505061143c565b005b34156102a357600080fd5b61034360048080356000191690602001909190803590602001908201803590602001908080601f0160208091040260200160405190810160405280939291908181526020018383808284378201915050505050509190803590602001908201803590602001908080601f016020809104026020016040519081016040528093929190818152602001838380828437820191505050505050919050506114d7565b005b341561035057600080fd5b61037c600480803573ffffffffffffffffffffffffffffffffffffffff169060200190919050506114dc565b005b61039460048080359060200190919050506115bd565b005b34156103a157600080fd5b6103a9611a5c565b604051808273ffffffffffffffffffffffffffffffffffffffff1673ffffffffffffffffffffffffffffffffffffffff16815260200191505060405180910390f35b34156103f657600080fd5b6103fe611a82565b604051808273ffffffffffffffffffffffffffffffffffffffff1673ffffffffffffffffffffffffffffffffffffffff16815260200191505060405180910390f35b341561044b57600080fd5b610453611aa8565b6040518080602001828103825283818151815260200191508051906020019080838360005b83811015610493578082015181840152602081019050610478565b50505050905090810190601f1680156104c05780820380516001836020036101000a031916815260200191505b509250505060405180910390f35b34156104d957600080fd5b6104e1611b46565b604051808273ffffffffffffffffffffffffffffffffffffffff1673ffffffffffffffffffffffffffffffffffffffff16815260200191505060405180910390f35b341561052e57600080fd5b610536611b6c565b6040518080602001828103825283818151815260200191508051906020019080838360005b8381101561057657808201518184015260208101905061055b565b50505050905090810190601f1680156105a35780820380516001836020036101000a031916815260200191505b509250505060405180910390f35b34156105bc57600080fd5b6105d26004808035906020019091905050611c0a565b6040518080602001828103825283818151815260200191508051906020019080838360005b838110156106125780820151818401526020810190506105f7565b50505050905090810190601f16801561063f5780820380516001836020036101000a031916815260200191505b509250505060405180910390f35b341561065857600080fd5b610684600480803573ffffffffffffffffffffffffffffffffffffffff16906020019091905050611cc6565b005b60068054600181600116156101000203166002900480601f01602080910402602001604051908101604052809291908181526020018280546001816001161561010002031660029004801561071c5780601f106106f15761010080835404028352916020019161071c565b820191906000526020600020905b8154815290600101906020018083116106ff57829003601f168201915b505050505081565b600080600080600080600080610738611e1e565b73ffffffffffffffffffffffffffffffffffffffff163373ffffffffffffffffffffffffffffffffffffffff1614151561077157600080fd5b600560009054906101000a900473ffffffffffffffffffffffffffffffffffffffff16600b60006101000a81548173ffffffffffffffffffffffffffffffffffffffff021916908373ffffffffffffffffffffffffffffffffffffffff1602179055506107df896012612134565b9750600b60009054906101000a900473ffffffffffffffffffffffffffffffffffffffff1673ffffffffffffffffffffffffffffffffffffffff1663239fa7188b6000604051602001526040518263ffffffff167c0100000000000000000000000000000000000000000000000000000000028152600401808260001916600019168152602001915050602060405180830381600087803b151561088257600080fd5b6102c65a03f1151561089357600080fd5b505050604051805190509650600b60009054906101000a900473ffffffffffffffffffffffffffffffffffffffff1673ffffffffffffffffffffffffffffffffffffffff1663013cf08b88600060405161010001526040518263ffffffff167c01000000000000000000000000000000000000000000000000000000000281526004018082815260200191505061010060405180830381600087803b151561093a57600080fd5b6102c65a03f1151561094b57600080fd5b50505060405180519060200180519060200180519060200180519060200180519060200180519060200180519060200180519050505050505050509550600b60009054906101000a900473ffffffffffffffffffffffffffffffffffffffff1673ffffffffffffffffffffffffffffffffffffffff16633021f47f8b6040518263ffffffff167c0100000000000000000000000000000000000000000000000000000000028152600401808260001916600019168152602001915050600060405180830381600087803b1515610a2057600080fd5b6102c65a03f11515610a3157600080fd5b505050610c5c600c60009054906101000a900473ffffffffffffffffffffffffffffffffffffffff1673ffffffffffffffffffffffffffffffffffffffff166318160ddd6000604051602001526040518163ffffffff167c0100000000000000000000000000000000000000000000000000000000028152600401602060405180830381600087803b1515610ac557600080fd5b6102c65a03f11515610ad657600080fd5b50505060405180519050610c4e600b60009054906101000a900473ffffffffffffffffffffffffffffffffffffffff1673ffffffffffffffffffffffffffffffffffffffff1663b484cf8d8b6000604051602001526040518263ffffffff167c010000000000000000000000000000000000000000000000000000000002815260040180828152602001915050602060405180830381600087803b1515610b7c57600080fd5b6102c65a03f11515610b8d57600080fd5b50505060405180519050600b60009054906101000a900473ffffffffffffffffffffffffffffffffffffffff1673ffffffffffffffffffffffffffffffffffffffff16637e714dd26000604051602001526040518163ffffffff167c0100000000000000000000000000000000000000000000000000000000028152600401602060405180830381600087803b1515610c2557600080fd5b6102c65a03f11515610c3657600080fd5b5050506040518051905061242e90919063ffffffff16565b61246190919063ffffffff16565b9450610d19600b60009054906101000a900473ffffffffffffffffffffffffffffffffffffffff1673ffffffffffffffffffffffffffffffffffffffff16638456799b6000604051602001526040518163ffffffff167c0100000000000000000000000000000000000000000000000000000000028152600401602060405180830381600087803b1515610cef57600080fd5b6102c65a03f11515610d0057600080fd5b505050604051805190504361247c90919063ffffffff16565b935060026004811115610d2857fe5b600b60009054906101000a900473ffffffffffffffffffffffffffffffffffffffff1673ffffffffffffffffffffffffffffffffffffffff1663f6558b006000604051602001526040518163ffffffff167c0100000000000000000000000000000000000000000000000000000000028152600401602060405180830381600087803b1515610db657600080fd5b6102c65a03f11515610dc757600080fd5b505050604051805190506004811115610ddc57fe5b1415610fd557600b60009054906101000a900473ffffffffffffffffffffffffffffffffffffffff1673ffffffffffffffffffffffffffffffffffffffff1663a4181174888a876040518463ffffffff167c0100000000000000000000000000000000000000000000000000000000028152600401808481526020018381526020018281526020019350505050600060405180830381600087803b1515610e8257600080fd5b6102c65a03f11515610e9357600080fd5b505050610ea9888661246190919063ffffffff16565b9250600b60009054906101000a900473ffffffffffffffffffffffffffffffffffffffff1673ffffffffffffffffffffffffffffffffffffffff1663f1cd92f18785600089898d6040518763ffffffff167c0100000000000000000000000000000000000000000000000000000000028152600401808773ffffffffffffffffffffffffffffffffffffffff1673ffffffffffffffffffffffffffffffffffffffff1681526020018681526020018573ffffffffffffffffffffffffffffffffffffffff1673ffffffffffffffffffffffffffffffffffffffff1681526020018481526020018381526020018281526020019650505050505050600060405180830381600087803b1515610fbc57600080fd5b6102c65a03f11515610fcd57600080fd5b5050506113c4565b60036004811115610fe257fe5b600b60009054906101000a900473ffffffffffffffffffffffffffffffffffffffff1673ffffffffffffffffffffffffffffffffffffffff1663f6558b006000604051602001526040518163ffffffff167c0100000000000000000000000000000000000000000000000000000000028152600401602060405180830381600087803b151561107057600080fd5b6102c65a03f1151561108157600080fd5b50505060405180519050600481111561109657fe5b14156113c357600b60009054906101000a900473ffffffffffffffffffffffffffffffffffffffff1673ffffffffffffffffffffffffffffffffffffffff1663bc127301888a876040518463ffffffff167c0100000000000000000000000000000000000000000000000000000000028152600401808481526020018381526020018281526020019350505050600060405180830381600087803b151561113c57600080fd5b6102c65a03f1151561114d57600080fd5b505050600d60009054906101000a900473ffffffffffffffffffffffffffffffffffffffff1673ffffffffffffffffffffffffffffffffffffffff1663508493bc87600560009054906101000a900473ffffffffffffffffffffffffffffffffffffffff166000604051602001526040518363ffffffff167c0100000000000000000000000000000000000000000000000000000000028152600401808373ffffffffffffffffffffffffffffffffffffffff1673ffffffffffffffffffffffffffffffffffffffff1681526020018273ffffffffffffffffffffffffffffffffffffffff1673ffffffffffffffffffffffffffffffffffffffff16815260200192505050602060405180830381600087803b151561126b57600080fd5b6102c65a03f1151561127c57600080fd5b50505060405180519050915061129b888361242e90919063ffffffff16565b9050600b60009054906101000a900473ffffffffffffffffffffffffffffffffffffffff1673ffffffffffffffffffffffffffffffffffffffff1663f1cd92f16000838986898d6040518763ffffffff167c0100000000000000000000000000000000000000000000000000000000028152600401808773ffffffffffffffffffffffffffffffffffffffff1673ffffffffffffffffffffffffffffffffffffffff1681526020018681526020018573ffffffffffffffffffffffffffffffffffffffff1673ffffffffffffffffffffffffffffffffffffffff1681526020018481526020018381526020018281526020019650505050505050600060405180830381600087803b15156113ae57600080fd5b6102c65a03f115156113bf57600080fd5b5050505b5b50505050505050505050565b600560009054906101000a900473ffffffffffffffffffffffffffffffffffffffff1673ffffffffffffffffffffffffffffffffffffffff163373ffffffffffffffffffffffffffffffffffffffff1614151561142c57600080fd5b600e600061143a91906132ca565b565b600560009054906101000a900473ffffffffffffffffffffffffffffffffffffffff1673ffffffffffffffffffffffffffffffffffffffff163373ffffffffffffffffffffffffffffffffffffffff1614151561149857600080fd5b600e80548060010182816114ac91906132eb565b9160005260206000209001600083909190915090805190602001906114d2929190613317565b505050565b505050565b600560009054906101000a900473ffffffffffffffffffffffffffffffffffffffff1673ffffffffffffffffffffffffffffffffffffffff163373ffffffffffffffffffffffffffffffffffffffff1614151561153857600080fd5b80600a60006101000a81548173ffffffffffffffffffffffffffffffffffffffff021916908373ffffffffffffffffffffffffffffffffffffffff16021790555080600d60006101000a81548173ffffffffffffffffffffffffffffffffffffffff021916908373ffffffffffffffffffffffffffffffffffffffff16021790555050565b60006115c7613397565b6115cf613397565b6115d7613397565b600560009054906101000a900473ffffffffffffffffffffffffffffffffffffffff1673ffffffffffffffffffffffffffffffffffffffff163373ffffffffffffffffffffffffffffffffffffffff1614151561163357600080fd5b600560009054906101000a900473ffffffffffffffffffffffffffffffffffffffff16600b60006101000a81548173ffffffffffffffffffffffffffffffffffffffff021916908373ffffffffffffffffffffffffffffffffffffffff160217905550600e858154811015156116a557fe5b906000526020600020900193506040805190810160405280600381526020017f4554480000000000000000000000000000000000000000000000000000000000815250925061195e60068054600181600116156101000203166002900480601f0160208091040260200160405190810160405280929190818152602001828054600181600116156101000203166002900480156117835780601f1061175857610100808354040283529160200191611783565b820191906000526020600020905b81548152906001019060200180831161176657829003601f168201915b5050505050858054600181600116156101000203166002900480601f01602080910402602001604051908101604052809291908181526020018280546001816001161561010002031660029004801561181d5780601f106117f25761010080835404028352916020019161181d565b820191906000526020600020905b81548152906001019060200180831161180057829003601f168201915b505050505060078054600181600116156101000203166002900480601f0160208091040260200160405190810160405280929190818152602001828054600181600116156101000203166002900480156118b85780601f1061188d576101008083540402835291602001916118b8565b820191906000526020600020905b81548152906001019060200180831161189b57829003601f168201915b50505050508660088054600181600116156101000203166002900480601f0160208091040260200160405190810160405280929190818152602001828054600181600116156101000203166002900480156119545780601f1061192957610100808354040283529160200191611954565b820191906000526020600020905b81548152906001019060200180831161193757829003601f168201915b505050505061249a565b91506040805190810160405280600381526020017f55524c00000000000000000000000000000000000000000000000000000000008152509050600b60009054906101000a900473ffffffffffffffffffffffffffffffffffffffff1673ffffffffffffffffffffffffffffffffffffffff16630ccb7cde6119e083856128d2565b876040518363ffffffff167c010000000000000000000000000000000000000000000000000000000002815260040180836000191660001916815260200182815260200192505050600060405180830381600087803b1515611a4157600080fd5b6102c65a03f11515611a5257600080fd5b5050505050505050565b600560009054906101000a900473ffffffffffffffffffffffffffffffffffffffff1681565b600a60009054906101000a900473ffffffffffffffffffffffffffffffffffffffff1681565b60078054600181600116156101000203166002900480601f016020809104026020016040519081016040528092919081815260200182805460018160011615610100020316600290048015611b3e5780601f10611b1357610100808354040283529160200191611b3e565b820191906000526020600020905b815481529060010190602001808311611b2157829003601f168201915b505050505081565b600960009054906101000a900473ffffffffffffffffffffffffffffffffffffffff1681565b60088054600181600116156101000203166002900480601f016020809104026020016040519081016040528092919081815260200182805460018160011615610100020316600290048015611c025780601f10611bd757610100808354040283529160200191611c02565b820191906000526020600020905b815481529060010190602001808311611be557829003601f168201915b505050505081565b600e81815481101515611c1957fe5b90600052602060002090016000915090508054600181600116156101000203166002900480601f016020809104026020016040519081016040528092919081815260200182805460018160011615610100020316600290048015611cbe5780601f10611c9357610100808354040283529160200191611cbe565b820191906000526020600020905b815481529060010190602001808311611ca157829003601f168201915b505050505081565b600560009054906101000a900473ffffffffffffffffffffffffffffffffffffffff1673ffffffffffffffffffffffffffffffffffffffff163373ffffffffffffffffffffffffffffffffffffffff16141515611d2257600080fd5b600073ffffffffffffffffffffffffffffffffffffffff168173ffffffffffffffffffffffffffffffffffffffff1614151515611d5e57600080fd5b8073ffffffffffffffffffffffffffffffffffffffff16600560009054906101000a900473ffffffffffffffffffffffffffffffffffffffff1673ffffffffffffffffffffffffffffffffffffffff167f8be0079c531659141344cd1fd0a4f28419497f9722a3daafe3b4186f6b6457e060405160405180910390a380600560006101000a81548173ffffffffffffffffffffffffffffffffffffffff021916908373ffffffffffffffffffffffffffffffffffffffff16021790555050565b6000806000809054906101000a900473ffffffffffffffffffffffffffffffffffffffff1673ffffffffffffffffffffffffffffffffffffffff161480611e8e57506000611e8c6000809054906101000a900473ffffffffffffffffffffffffffffffffffffffff16612e14565b145b15611e9f57611e9d6000612e1f565b505b6000809054906101000a900473ffffffffffffffffffffffffffffffffffffffff1673ffffffffffffffffffffffffffffffffffffffff166338cc48316000604051602001526040518163ffffffff167c0100000000000000000000000000000000000000000000000000000000028152600401602060405180830381600087803b1515611f2c57600080fd5b6102c65a03f11515611f3d57600080fd5b5050506040518051905073ffffffffffffffffffffffffffffffffffffffff16600160009054906101000a900473ffffffffffffffffffffffffffffffffffffffff1673ffffffffffffffffffffffffffffffffffffffff16141515612086576000809054906101000a900473ffffffffffffffffffffffffffffffffffffffff1673ffffffffffffffffffffffffffffffffffffffff166338cc48316000604051602001526040518163ffffffff167c0100000000000000000000000000000000000000000000000000000000028152600401602060405180830381600087803b151561202a57600080fd5b6102c65a03f1151561203b57600080fd5b50505060405180519050600160006101000a81548173ffffffffffffffffffffffffffffffffffffffff021916908373ffffffffffffffffffffffffffffffffffffffff1602179055505b600160009054906101000a900473ffffffffffffffffffffffffffffffffffffffff1673ffffffffffffffffffffffffffffffffffffffff1663c281d19e6000604051602001526040518163ffffffff167c0100000000000000000000000000000000000000000000000000000000028152600401602060405180830381600087803b151561211457600080fd5b6102c65a03f1151561212557600080fd5b50505060405180519050905090565b600061213e6133ab565b60008060008693506000925060009150600090505b835181101561240f5760307f010000000000000000000000000000000000000000000000000000000000000002848281518110151561218e57fe5b9060200101517f010000000000000000000000000000000000000000000000000000000000000090047f0100000000000000000000000000000000000000000000000000000000000000027effffffffffffffffffffffffffffffffffffffffffffffffffffffffffffff1916101580156122a6575060397f010000000000000000000000000000000000000000000000000000000000000002848281518110151561223657fe5b9060200101517f010000000000000000000000000000000000000000000000000000000000000090047f0100000000000000000000000000000000000000000000000000000000000000027effffffffffffffffffffffffffffffffffffffffffffffffffffffffffffff191611155b156123575781156122c95760008614156122bf5761240f565b8580600190039650505b600a83029250603084828151811015156122df57fe5b9060200101517f010000000000000000000000000000000000000000000000000000000000000090047f0100000000000000000000000000000000000000000000000000000000000000027f010000000000000000000000000000000000000000000000000000000000000090040383019250612402565b602e7f010000000000000000000000000000000000000000000000000000000000000002848281518110151561238957fe5b9060200101517f010000000000000000000000000000000000000000000000000000000000000090047f0100000000000000000000000000000000000000000000000000000000000000027effffffffffffffffffffffffffffffffffffffffffffffffffffffffffffff1916141561240157600191505b5b8080600101915050612153565b60008611156124215785600a0a830292505b8294505050505092915050565b6000808284029050600084148061244f575082848281151561244c57fe5b04145b151561245757fe5b8091505092915050565b600080828481151561246f57fe5b0490508091505092915050565b600080828401905083811015151561249057fe5b8091505092915050565b6124a2613397565b6124aa6133ab565b6124b26133ab565b6124ba6133ab565b6124c26133ab565b6124ca6133ab565b6124d2613397565b6124da6133ab565b6000808e98508d97508c96508b95508a94508451865188518a518c51010101016040518059106125075750595b9080825280601f01601f1916602001820160405250935083925060009150600090505b88518110156125dd57888181518110151561254157fe5b9060200101517f010000000000000000000000000000000000000000000000000000000000000090047f01000000000000000000000000000000000000000000000000000000000000000283838060010194508151811015156125a057fe5b9060200101907effffffffffffffffffffffffffffffffffffffffffffffffffffffffffffff1916908160001a905350808060010191505061252a565b600090505b87518110156126955787818151811015156125f957fe5b9060200101517f010000000000000000000000000000000000000000000000000000000000000090047f010000000000000000000000000000000000000000000000000000000000000002838380600101945081518110151561265857fe5b9060200101907effffffffffffffffffffffffffffffffffffffffffffffffffffffffffffff1916908160001a90535080806001019150506125e2565b600090505b865181101561274d5786818151811015156126b157fe5b9060200101517f010000000000000000000000000000000000000000000000000000000000000090047f010000000000000000000000000000000000000000000000000000000000000002838380600101945081518110151561271057fe5b9060200101907effffffffffffffffffffffffffffffffffffffffffffffffffffffffffffff1916908160001a905350808060010191505061269a565b600090505b855181101561280557858181518110151561276957fe5b9060200101517f010000000000000000000000000000000000000000000000000000000000000090047f01000000000000000000000000000000000000000000000000000000000000000283838060010194508151811015156127c857fe5b9060200101907effffffffffffffffffffffffffffffffffffffffffffffffffffffffffffff1916908160001a9053508080600101915050612752565b600090505b84518110156128bd57848181518110151561282157fe5b9060200101517f010000000000000000000000000000000000000000000000000000000000000090047f010000000000000000000000000000000000000000000000000000000000000002838380600101945081518110151561288057fe5b9060200101907effffffffffffffffffffffffffffffffffffffffffffffffffffffffffffff1916908160001a905350808060010191505061280a565b82995050505050505050505095945050505050565b60008060008060009054906101000a900473ffffffffffffffffffffffffffffffffffffffff1673ffffffffffffffffffffffffffffffffffffffff161480612944575060006129426000809054906101000a900473ffffffffffffffffffffffffffffffffffffffff16612e14565b145b15612955576129536000612e1f565b505b6000809054906101000a900473ffffffffffffffffffffffffffffffffffffffff1673ffffffffffffffffffffffffffffffffffffffff166338cc48316000604051602001526040518163ffffffff167c0100000000000000000000000000000000000000000000000000000000028152600401602060405180830381600087803b15156129e257600080fd5b6102c65a03f115156129f357600080fd5b5050506040518051905073ffffffffffffffffffffffffffffffffffffffff16600160009054906101000a900473ffffffffffffffffffffffffffffffffffffffff1673ffffffffffffffffffffffffffffffffffffffff16141515612b3c576000809054906101000a900473ffffffffffffffffffffffffffffffffffffffff1673ffffffffffffffffffffffffffffffffffffffff166338cc48316000604051602001526040518163ffffffff167c0100000000000000000000000000000000000000000000000000000000028152600401602060405180830381600087803b1515612ae057600080fd5b6102c65a03f11515612af157600080fd5b50505060405180519050600160006101000a81548173ffffffffffffffffffffffffffffffffffffffff021916908373ffffffffffffffffffffffffffffffffffffffff1602179055505b600160009054906101000a900473ffffffffffffffffffffffffffffffffffffffff1673ffffffffffffffffffffffffffffffffffffffff1663524f3889856000604051602001526040518263ffffffff167c01000000000000000000000000000000000000000000000000000000000281526004018080602001828103825283818151815260200191508051906020019080838360005b83811015612bef578082015181840152602081019050612bd4565b50505050905090810190601f168015612c1c5780820380516001836020036101000a031916815260200191505b5092505050602060405180830381600087803b1515612c3a57600080fd5b6102c65a03f11515612c4b57600080fd5b50505060405180519050905062030d403a02670de0b6b3a764000001811115612c7a5760006001029150612e0d565b600160009054906101000a900473ffffffffffffffffffffffffffffffffffffffff1673ffffffffffffffffffffffffffffffffffffffff1663adf59f9982600087876000604051602001526040518563ffffffff167c0100000000000000000000000000000000000000000000000000000000028152600401808481526020018060200180602001838103835285818151815260200191508051906020019080838360005b83811015612d3b578082015181840152602081019050612d20565b50505050905090810190601f168015612d685780820380516001836020036101000a031916815260200191505b50838103825284818151815260200191508051906020019080838360005b83811015612da1578082015181840152602081019050612d86565b50505050905090810190601f168015612dce5780820380516001836020036101000a031916815260200191505b50955050505050506020604051808303818588803b1515612dee57600080fd5b6125ee5a03f11515612dff57600080fd5b505050506040518051905091505b5092915050565b6000813b9050919050565b600080612e3f731d3b2638a7cc9f2cb3d298a3da7a90b67e5506ed612e14565b1115612ee057731d3b2638a7cc9f2cb3d298a3da7a90b67e5506ed6000806101000a81548173ffffffffffffffffffffffffffffffffffffffff021916908373ffffffffffffffffffffffffffffffffffffffff160217905550612ed76040805190810160405280600b81526020017f6574685f6d61696e6e65740000000000000000000000000000000000000000008152506132b0565b600190506132ab565b6000612eff73c03a2615d5efaf5f49f60b7bb6583eaec212fdf1612e14565b1115612fa05773c03a2615d5efaf5f49f60b7bb6583eaec212fdf16000806101000a81548173ffffffffffffffffffffffffffffffffffffffff021916908373ffffffffffffffffffffffffffffffffffffffff160217905550612f976040805190810160405280600c81526020017f6574685f726f707374656e3300000000000000000000000000000000000000008152506132b0565b600190506132ab565b6000612fbf73b7a07bcf2ba2f2703b24c0691b5278999c59ac7e612e14565b11156130605773b7a07bcf2ba2f2703b24c0691b5278999c59ac7e6000806101000a81548173ffffffffffffffffffffffffffffffffffffffff021916908373ffffffffffffffffffffffffffffffffffffffff1602179055506130576040805190810160405280600981526020017f6574685f6b6f76616e00000000000000000000000000000000000000000000008152506132b0565b600190506132ab565b600061307f73146500cfd35b22e4a392fe0adc06de1a1368ed48612e14565b11156131205773146500cfd35b22e4a392fe0adc06de1a1368ed486000806101000a81548173ffffffffffffffffffffffffffffffffffffffff021916908373ffffffffffffffffffffffffffffffffffffffff1602179055506131176040805190810160405280600b81526020017f6574685f72696e6b6562790000000000000000000000000000000000000000008152506132b0565b600190506132ab565b600061313f736f485c8bf6fc43ea212e93bbf8ce046c7f1cb475612e14565b11156131a257736f485c8bf6fc43ea212e93bbf8ce046c7f1cb4756000806101000a81548173ffffffffffffffffffffffffffffffffffffffff021916908373ffffffffffffffffffffffffffffffffffffffff160217905550600190506132ab565b60006131c17320e12a1f859b3feae5fb2a0a32c18f5a65555bbf612e14565b1115613224577320e12a1f859b3feae5fb2a0a32c18f5a65555bbf6000806101000a81548173ffffffffffffffffffffffffffffffffffffffff021916908373ffffffffffffffffffffffffffffffffffffffff160217905550600190506132ab565b60006132437351efaf4c8b3c9afbd5ab9f4bbc82784ab6ef8faa612e14565b11156132a6577351efaf4c8b3c9afbd5ab9f4bbc82784ab6ef8faa6000806101000a81548173ffffffffffffffffffffffffffffffffffffffff021916908373ffffffffffffffffffffffffffffffffffffffff160217905550600190506132ab565b600090505b919050565b80600290805190602001906132c6929190613317565b5050565b50805460008255906000526020600020908101906132e891906133bf565b50565b8154818355818115116133125781836000526020600020918201910161331191906133bf565b5b505050565b828054600181600116156101000203166002900490600052602060002090601f016020900481019282601f1061335857805160ff1916838001178555613386565b82800160010185558215613386579182015b8281111561338557825182559160200191906001019061336a565b5b50905061339391906133eb565b5090565b602060405190810160405280600081525090565b602060405190810160405280600081525090565b6133e891905b808211156133e457600081816133db9190613410565b506001016133c5565b5090565b90565b61340d91905b808211156134095760008160009055506001016133f1565b5090565b90565b50805460018160011615610100020316600290046000825580601f106134365750613455565b601f01602090049060005260206000209081019061345491906133eb565b5b505600a165627a7a723058203b4821bedd1f3d064a63f72617f15a1c9c12b88c1ee9c2750177daf695da649d0029",
  "source": "pragma solidity ^0.4.18;\r\n\r\nimport 'zeppelin-solidity/contracts/token/MintableToken.sol';\r\nimport 'zeppelin-solidity/contracts/math/SafeMath.sol';\r\nimport './etherdelta.sol';\r\nimport './oraclizeAPI_0.4.sol';\r\n\r\n// The main contract that keeps track of:\r\n// - Who is in the fund\r\n// - How much the fund has\r\n// - Each person's Share\r\n// - Each person's Control\r\ncontract GroupFund is Ownable {\r\n  using SafeMath for uint256;\r\n\r\n  enum CyclePhase { ChangeMaking, ProposalMaking, Waiting, Ended, Finalized }\r\n\r\n  struct Proposal {\r\n    address tokenAddress;\r\n    string tokenSymbol;\r\n    uint256 buyPriceInWeis;\r\n    uint256 sellPriceInWeis;\r\n    uint256 buyOrderExpirationBlockNum;\r\n    uint256 sellOrderExpirationBlockNum;\r\n    uint256 numFor;\r\n    uint256 numAgainst;\r\n  }\r\n\r\n  modifier during(CyclePhase phase) {\r\n    require(cyclePhase == phase);\r\n    _;\r\n  }\r\n\r\n  modifier onlyParticipant {\r\n    require(isParticipant[msg.sender]);\r\n    _;\r\n  }\r\n\r\n  modifier onlyOraclize {\r\n    require(msg.sender == oraclizeAddr);\r\n    _;\r\n  }\r\n\r\n  //Number of decimals used for proportions\r\n  uint256 public decimals;\r\n\r\n  // A list of everyone who is participating in the GroupFund\r\n  address[] public participants;\r\n  mapping(address => bool) public isParticipant;\r\n\r\n  //Address of the control token\r\n  address public controlTokenAddr;\r\n\r\n  address public etherDeltaAddr;\r\n\r\n  // The total amount of funds held by the group\r\n  uint256 public totalFundsInWeis;\r\n\r\n  //The start time for the current investment cycle, in seconds since Unix epoch\r\n  uint256 public startTimeOfCycle;\r\n\r\n  //Temporal length of each investment cycle, in seconds\r\n  uint256 public timeOfCycle;\r\n\r\n  //Temporal length of change making period at start of each cycle, in seconds\r\n  uint256 public timeOfChangeMaking;\r\n\r\n  //Temporal length of proposal making period at start of each cycle, in seconds\r\n  uint256 public timeOfProposalMaking;\r\n\r\n  //Proportion of control people who vote against a proposal have to stake\r\n  uint256 public againstStakeProportion;\r\n\r\n  uint256 public maxProposals;\r\n\r\n  uint256 public commissionRate;\r\n\r\n  uint256 public orderExpirationTimeInBlocks;\r\n\r\n  //The proportion of contract balance reserved for Oraclize fees\r\n  uint256 public oraclizeFeeProportion;\r\n\r\n  bool public isFirstCycle;\r\n\r\n  // Mapping from Participant address to their balance\r\n  mapping(address => uint256) public balanceOf;\r\n\r\n  // Mapping from Proposal to total amount of Control Tokens being staked by supporters\r\n  mapping(uint256 => uint256) public forStakedControlOfProposal;\r\n\r\n  // Mapping from Proposal to Participant to number of Control Tokens being staked\r\n  mapping(uint256 => mapping(address => uint256)) public forStakedControlOfProposalOfUser;\r\n\r\n  mapping(uint256 => mapping(address => uint256)) public againstStakedControlOfProposalOfUser;\r\n\r\n  mapping(bytes32 => uint256) public proposalIdOfQuery;\r\n\r\n  address public oraclizeAddr;\r\n\r\n  bool public initialized;\r\n  address public creator;\r\n\r\n  Proposal[] public proposals;\r\n  ControlToken internal cToken;\r\n  EtherDelta internal etherDelta;\r\n  OraclizeHandler internal oraclize;\r\n  CyclePhase public cyclePhase;\r\n\r\n  event CycleStarted(uint256 timestamp);\r\n  event ChangeMakingTimeEnded(uint256 timestamp);\r\n  event ProposalMakingTimeEnded(uint256 timestamp);\r\n  event CycleEnded(uint256 timestamp);\r\n  event CycleFinalized(uint256 timestamp);\r\n\r\n  // GroupFund constructor\r\n  function GroupFund(\r\n    address _etherDeltaAddr,\r\n    uint256 _decimals,\r\n    uint256 _timeOfCycle,\r\n    uint256 _timeOfChangeMaking,\r\n    uint256 _timeOfProposalMaking,\r\n    uint256 _againstStakeProportion,\r\n    uint256 _maxProposals,\r\n    uint256 _commissionRate,\r\n    uint256 _orderExpirationTimeInBlocks,\r\n    uint256 _oraclizeFeeProportion\r\n  )\r\n    public\r\n  {\r\n    require(_timeOfChangeMaking.add(_timeOfProposalMaking) <= _timeOfCycle);\r\n    etherDeltaAddr = _etherDeltaAddr;\r\n    decimals = _decimals;\r\n    timeOfCycle = _timeOfCycle;\r\n    timeOfChangeMaking = _timeOfChangeMaking;\r\n    timeOfProposalMaking = _timeOfProposalMaking;\r\n    againstStakeProportion = _againstStakeProportion;\r\n    maxProposals = _maxProposals;\r\n    commissionRate = _commissionRate;\r\n    orderExpirationTimeInBlocks = _orderExpirationTimeInBlocks;\r\n    oraclizeFeeProportion = _oraclizeFeeProportion;\r\n    startTimeOfCycle = 0;\r\n    isFirstCycle = true;\r\n    cyclePhase = CyclePhase.Finalized;\r\n    creator = msg.sender;\r\n\r\n    //Initialize etherDelta contract\r\n    etherDelta = EtherDelta(etherDeltaAddr);\r\n  }\r\n\r\n  function initializeSubcontracts(address _cTokenAddr, address _oraclizeAddr) public {\r\n    require(msg.sender == creator);\r\n    require(!initialized);\r\n\r\n    initialized = true;\r\n\r\n    controlTokenAddr = _cTokenAddr;\r\n    oraclizeAddr = _oraclizeAddr;\r\n\r\n    cToken = ControlToken(controlTokenAddr);\r\n    oraclize = OraclizeHandler(oraclizeAddr);\r\n  }\r\n\r\n  function changeEtherDeltaAddress(address _newAddr) public onlyOwner {\r\n    etherDeltaAddr = _newAddr;\r\n    etherDelta = EtherDelta(_newAddr);\r\n    oraclize.__changeEtherDeltaAddress(_newAddr);\r\n  }\r\n\r\n  function topupOraclizeFees() public payable onlyOwner {\r\n    oraclizeAddr.transfer(msg.value);\r\n  }\r\n\r\n  // Creates a new Cycle\r\n  function startNewCycle() public during(CyclePhase.Finalized) {\r\n    require(initialized);\r\n    require(now >= startTimeOfCycle.add(timeOfCycle));\r\n\r\n    cyclePhase = CyclePhase.ChangeMaking;\r\n\r\n    startTimeOfCycle = now;\r\n    CycleStarted(now);\r\n  }\r\n\r\n  //Change making time functions\r\n\r\n  function deposit()\r\n    public\r\n    payable\r\n    during(CyclePhase.ChangeMaking)\r\n  {\r\n    if (!isParticipant[msg.sender]) {\r\n      participants.push(msg.sender);\r\n      isParticipant[msg.sender] = true;\r\n    }\r\n\r\n    //Register investment\r\n    uint256 fees = msg.value.mul(oraclizeFeeProportion).div(10**decimals);\r\n    balanceOf[msg.sender] = balanceOf[msg.sender].add(msg.value).sub(fees);\r\n    totalFundsInWeis = totalFundsInWeis.add(msg.value).sub(fees);\r\n    oraclizeAddr.transfer(fees);\r\n\r\n    if (isFirstCycle) {\r\n      //Give control tokens proportional to investment\r\n      cToken.mint(msg.sender, msg.value);\r\n    }\r\n  }\r\n\r\n  // Withdraw from GroupFund\r\n  function withdraw(uint256 _amountInWeis)\r\n    public\r\n    during(CyclePhase.ChangeMaking)\r\n    onlyParticipant\r\n  {\r\n    require(!isFirstCycle);\r\n\r\n    totalFundsInWeis = totalFundsInWeis.sub(_amountInWeis);\r\n    balanceOf[msg.sender] = balanceOf[msg.sender].sub(_amountInWeis);\r\n\r\n    msg.sender.transfer(_amountInWeis);\r\n  }\r\n\r\n  function endChangeMakingTime() public during(CyclePhase.ChangeMaking) {\r\n    //require(now >= startTimeOfCycle.add(timeOfChangeMaking));\r\n\r\n    cyclePhase = CyclePhase.ProposalMaking;\r\n\r\n    ChangeMakingTimeEnded(now);\r\n  }\r\n\r\n  //Proposal making time functions\r\n  function createProposal(\r\n    address _tokenAddress,\r\n    string _tokenSymbol,\r\n    uint256 _amountInWeis\r\n  )\r\n    public\r\n    during(CyclePhase.ProposalMaking)\r\n    onlyParticipant\r\n  {\r\n    require(proposals.length < maxProposals);\r\n\r\n    proposals.push(Proposal({\r\n      tokenAddress: _tokenAddress,\r\n      tokenSymbol: _tokenSymbol,\r\n      buyPriceInWeis: 0,\r\n      sellPriceInWeis: 0,\r\n      numFor: 0,\r\n      numAgainst: 0,\r\n      buyOrderExpirationBlockNum: 0,\r\n      sellOrderExpirationBlockNum: 0\r\n    }));\r\n\r\n    oraclize.__pushTokenSymbolOfProposal(_tokenSymbol);\r\n\r\n    //Stake control tokens\r\n    uint256 proposalId = proposals.length - 1;\r\n    supportProposal(proposalId, _amountInWeis);\r\n  }\r\n\r\n  function supportProposal(uint256 _proposalId, uint256 _amountInWeis)\r\n    public\r\n    during(CyclePhase.ProposalMaking)\r\n    onlyParticipant\r\n  {\r\n    require(_proposalId < proposals.length);\r\n\r\n    //Stake control tokens\r\n    uint256 controlStake = _amountInWeis.mul(cToken.totalSupply()).div(totalFundsInWeis);\r\n    //Collect staked control tokens\r\n    cToken.ownerCollectFrom(msg.sender, controlStake);\r\n    //Update stake data\r\n    proposals[_proposalId].numFor = proposals[_proposalId].numFor.add(1);\r\n    forStakedControlOfProposal[_proposalId] = forStakedControlOfProposal[_proposalId].add(controlStake);\r\n    forStakedControlOfProposalOfUser[_proposalId][msg.sender] = forStakedControlOfProposalOfUser[_proposalId][msg.sender].add(controlStake);\r\n  }\r\n\r\n  function endProposalMakingTime()\r\n    public\r\n    during(CyclePhase.ProposalMaking)\r\n  {\r\n    //require(now >= startTimeOfCycle.add(timeOfChangeMaking).add(timeOfProposalMaking));\r\n\r\n    cyclePhase = CyclePhase.Waiting;\r\n\r\n    //Stake against votes\r\n    for (uint256 i = 0; i < participants.length; i = i.add(1)) {\r\n      address participant = participants[i];\r\n      uint256 stakeAmount = cToken.balanceOf(participant).mul(againstStakeProportion).div(10**decimals);\r\n      if (stakeAmount != 0) {\r\n        for (uint256 j = 0; j < proposals.length; j = j.add(1)) {\r\n          bool isFor = forStakedControlOfProposalOfUser[j][participant] != 0;\r\n          if (!isFor) {\r\n            cToken.ownerCollectFrom(participant, stakeAmount);\r\n            proposals[j].numAgainst = proposals[j].numAgainst.add(1);\r\n            againstStakedControlOfProposalOfUser[j][participant] = againstStakedControlOfProposalOfUser[j][participant].add(stakeAmount);\r\n          }\r\n        }\r\n      }\r\n    }\r\n\r\n    //Invest in tokens using etherdelta\r\n    for (i = 0; i < proposals.length; i = i.add(1)) {\r\n      //Deposit ether\r\n      uint256 investAmount = totalFundsInWeis.mul(forStakedControlOfProposal[i]).div(cToken.totalSupply());\r\n      assert(etherDelta.call.value(investAmount)(bytes4(keccak256(\"deposit()\"))));\r\n      oraclize.__grabCurrentPriceFromOraclize(i);\r\n    }\r\n\r\n    ProposalMakingTimeEnded(now);\r\n  }\r\n\r\n  function endCycle() public during(CyclePhase.Waiting) {\r\n    //require(now >= startTimeOfCycle.add(timeOfCycle));\r\n\r\n    if (isFirstCycle) {\r\n      cToken.finishMinting();\r\n    }\r\n    cyclePhase = CyclePhase.Ended;\r\n    isFirstCycle = false;\r\n\r\n    //Sell all invested tokens\r\n    for (uint256 i = 0; i < proposals.length; i = i.add(1)) {\r\n      oraclize.__grabCurrentPriceFromOraclize(i);\r\n    }\r\n\r\n    CycleEnded(now);\r\n  }\r\n\r\n  function finalizeEndCycle() public during(CyclePhase.Ended) {\r\n    cyclePhase = CyclePhase.Finalized;\r\n\r\n    //Ensure all the sell orders are inactive\r\n    for (uint256 proposalId = 0; proposalId < proposals.length; proposalId = proposalId.add(1)) {\r\n      Proposal storage prop = proposals[proposalId];\r\n      uint256 sellTokenAmount = etherDelta.tokens(prop.tokenAddress, address(this));\r\n      uint256 getWeiAmount = sellTokenAmount.mul(prop.sellPriceInWeis);\r\n\r\n      uint256 amountFilled = etherDelta.amountFilled(address(0), getWeiAmount, prop.tokenAddress, sellTokenAmount, prop.sellOrderExpirationBlockNum, proposalId, address(this), 0, 0, 0);\r\n      require(amountFilled == sellTokenAmount || block.number > prop.sellOrderExpirationBlockNum);\r\n\r\n      __settleBets(proposalId, prop);\r\n    }\r\n    //Withdraw from etherdelta\r\n    uint256 balance = etherDelta.tokens(address(0), address(this));\r\n    etherDelta.withdraw(balance);\r\n\r\n    __distributeFundsAfterCycleEnd();\r\n\r\n    //Reset data\r\n    totalFundsInWeis = this.balance;\r\n    oraclize.__deleteTokenSymbolOfProposal();\r\n    delete proposals;\r\n\r\n    CycleFinalized(now);\r\n  }\r\n\r\n  //Seperated from finalizeEndCycle() to avoid StackTooDeep error\r\n  function __settleBets(uint256 proposalId, Proposal prop) internal {\r\n    //Settle bets\r\n    uint256 tokenReward;\r\n    uint256 stake;\r\n    uint256 j;\r\n    address participant;\r\n    uint256 investAmount = totalFundsInWeis.mul(forStakedControlOfProposal[proposalId]).div(cToken.totalSupply());\r\n    if (etherDelta.amountFilled(prop.tokenAddress, investAmount.div(prop.buyPriceInWeis), address(0), investAmount, prop.sellOrderExpirationBlockNum, proposalId, address(this), 0, 0, 0) != 0) {\r\n      if (prop.sellPriceInWeis >= prop.buyPriceInWeis) {\r\n        //For wins\r\n        tokenReward = cToken.totalSupply().sub(forStakedControlOfProposal[proposalId]).mul(againstStakeProportion).div(10**decimals.mul(prop.numFor));\r\n        for (j = 0; j < participants.length; j = j.add(1)) {\r\n          participant = participants[j];\r\n          stake = forStakedControlOfProposalOfUser[proposalId][participant];\r\n          if (stake != 0) {\r\n            //Give control tokens\r\n            cToken.transfer(participant, stake.add(tokenReward));\r\n          }\r\n        }\r\n      } else {\r\n        //Against wins\r\n        tokenReward = forStakedControlOfProposal[proposalId].div(prop.numAgainst);\r\n        for (j = 0; j < participants.length; j = j.add(1)) {\r\n          participant = participants[j];\r\n          stake = againstStakedControlOfProposalOfUser[proposalId][participant];\r\n          if (stake != 0) {\r\n            //Give control tokens\r\n            cToken.transfer(participant, stake.add(tokenReward));\r\n          }\r\n        }\r\n      }\r\n    } else {\r\n      //Buy order failed completely. Give back stakes.\r\n      for (j = 0; j < participants.length; j = j.add(1)) {\r\n        participant = participants[j];\r\n        stake = forStakedControlOfProposalOfUser[proposalId][participant].add(againstStakedControlOfProposalOfUser[proposalId][participant]);\r\n        if (stake != 0) {\r\n          cToken.transfer(participant, stake);\r\n        }\r\n      }\r\n    }\r\n  }\r\n\r\n  //Seperated from finalizeEndCycle() to avoid StackTooDeep error\r\n  function __distributeFundsAfterCycleEnd() internal {\r\n    //Distribute funds\r\n    uint256 totalCommission = commissionRate.mul(this.balance).div(10**decimals);\r\n    uint256 feeReserve = 0;//oraclizeFeeProportion.mul(this.balance).div(10**decimals);\r\n\r\n    for (uint256 i = 0; i < participants.length; i = i.add(1)) {\r\n      address participant = participants[i];\r\n      uint256 newBalance = this.balance.sub(totalCommission).sub(feeReserve).mul(balanceOf[participant]).div(totalFundsInWeis);\r\n      //Add commission\r\n      newBalance = newBalance.add(totalCommission.mul(cToken.balanceOf(participant)).div(cToken.totalSupply()));\r\n      balanceOf[participant] = newBalance;\r\n    }\r\n  }\r\n\r\n  function __addControlTokenReceipientAsParticipant(address _receipient) public {\r\n    require(msg.sender == controlTokenAddr);\r\n    isParticipant[_receipient] = true;\r\n    participants.push(_receipient);\r\n  }\r\n\r\n  function __setProposalIdOfQuery(bytes32 _queryId, uint256 _proposalId) public onlyOraclize {\r\n    proposalIdOfQuery[_queryId] = _proposalId;\r\n  }\r\n\r\n  function __deleteProposalIdOfQuery(bytes32 _queryId) public onlyOraclize {\r\n    delete proposalIdOfQuery[_queryId];\r\n  }\r\n\r\n  function __makeOrder(address _tokenGet, uint _amountGet, address _tokenGive, uint _amountGive, uint _expires, uint _nonce) public onlyOraclize {\r\n    etherDelta.order(_tokenGet, _amountGet, _tokenGive, _amountGive, _expires, _nonce);\r\n  }\r\n\r\n  function __setBuyPriceAndExpirationBlock(uint256 _proposalId, uint256 _buyPrice, uint256 _expires) public onlyOraclize {\r\n    proposals[_proposalId].buyPriceInWeis = _buyPrice;\r\n    proposals[_proposalId].buyOrderExpirationBlockNum = _expires;\r\n  }\r\n\r\n  function __setSellPriceAndExpirationBlock(uint256 _proposalId, uint256 _sellPrice, uint256 _expires) public onlyOraclize {\r\n    proposals[_proposalId].sellPriceInWeis = _sellPrice;\r\n    proposals[_proposalId].sellOrderExpirationBlockNum = _expires;\r\n  }\r\n\r\n  function() public payable {\r\n    if (msg.sender != etherDeltaAddr) {\r\n      revert();\r\n    }\r\n  }\r\n}\r\n\r\ncontract OraclizeHandler is usingOraclize, Ownable {\r\n  using SafeMath for uint256;\r\n\r\n  enum CyclePhase { ChangeMaking, ProposalMaking, Waiting, Ended, Finalized }\r\n\r\n  // URL for querying prices, default is set to cryptocompare\r\n  // Later on, modify this to be more flexible for additional queries, etc.\r\n  string public priceCheckURL1;\r\n  string public priceCheckURL2;\r\n  string public priceCheckURL3;\r\n\r\n  address public controlTokenAddr;\r\n  address public etherDeltaAddr;\r\n\r\n  GroupFund internal groupFund;\r\n  ControlToken internal cToken;\r\n  EtherDelta internal etherDelta;\r\n\r\n  string[] public tokenSymbolOfProposal;\r\n\r\n  function OraclizeHandler(address _controlTokenAddr, address _etherDeltaAddr) public {\r\n    controlTokenAddr = _controlTokenAddr;\r\n    etherDeltaAddr = _etherDeltaAddr;\r\n    cToken = ControlToken(_controlTokenAddr);\r\n    etherDelta = EtherDelta(_etherDeltaAddr);\r\n    // Initialize cryptocompare URLs:\r\n    priceCheckURL1 = \"json(https://min-api.cryptocompare.com/data/price?fsym=\";\r\n    priceCheckURL2 = \"&tsyms=\";\r\n    priceCheckURL3 = \").ETH\";\r\n  }\r\n\r\n  function __changeEtherDeltaAddress(address _newAddr) public onlyOwner {\r\n    etherDeltaAddr = _newAddr;\r\n    etherDelta = EtherDelta(_newAddr);\r\n  }\r\n\r\n  function __pushTokenSymbolOfProposal(string _tokenSymbol) public onlyOwner {\r\n    tokenSymbolOfProposal.push(_tokenSymbol);\r\n  }\r\n\r\n  function __deleteTokenSymbolOfProposal() public onlyOwner {\r\n    delete tokenSymbolOfProposal;\r\n  }\r\n  //Oraclize functions\r\n\r\n  // Query Oraclize for the current price\r\n  function __grabCurrentPriceFromOraclize(uint _proposalId) public payable onlyOwner {\r\n    groupFund = GroupFund(owner);\r\n\r\n    string storage tokenSymbol = tokenSymbolOfProposal[_proposalId];\r\n    // Grab the cryptocompare URL that is the price in ETH of the token to purchase\r\n    string memory etherSymbol = \"ETH\";\r\n    string memory urlToQuery = strConcat(priceCheckURL1, tokenSymbol, priceCheckURL2, etherSymbol, priceCheckURL3);\r\n\r\n    string memory url = \"URL\";\r\n\r\n    // Call Oraclize to grab the most recent price information via JSON\r\n    groupFund.__setProposalIdOfQuery(oraclize_query(url, urlToQuery), _proposalId);\r\n  }\r\n\r\n  // Callback function from Oraclize query:\r\n  function __callback(bytes32 _myID, string _result) public {\r\n    require(msg.sender == oraclize_cbAddress());\r\n    groupFund = GroupFund(owner);\r\n\r\n    // Grab ETH price in Weis\r\n    uint256 priceInWeis = parseInt(_result, 18);\r\n\r\n    uint256 proposalId = groupFund.proposalIdOfQuery(_myID);\r\n    var (tokenAddress,) = groupFund.proposals(proposalId);\r\n\r\n    //Reset data\r\n    groupFund.__deleteProposalIdOfQuery(_myID);\r\n\r\n    uint256 investAmount = groupFund.totalFundsInWeis().mul(groupFund.forStakedControlOfProposal(proposalId)).div(cToken.totalSupply());\r\n    uint256 expires = block.number.add(groupFund.orderExpirationTimeInBlocks());\r\n    if (uint(groupFund.cyclePhase()) == uint(CyclePhase.Waiting)) {\r\n      //Buy\r\n      groupFund.__setBuyPriceAndExpirationBlock(proposalId, priceInWeis, expires);\r\n\r\n      uint256 buyTokenAmount = investAmount.div(priceInWeis);\r\n      groupFund.__makeOrder(tokenAddress, buyTokenAmount, address(0), investAmount, expires, proposalId);\r\n    } else if (uint(groupFund.cyclePhase()) == uint(CyclePhase.Ended)) {\r\n      //Sell\r\n      groupFund.__setSellPriceAndExpirationBlock(proposalId, priceInWeis, expires);\r\n\r\n      uint256 sellTokenAmount = etherDelta.tokens(tokenAddress, owner);\r\n      uint256 getWeiAmount = sellTokenAmount.mul(priceInWeis);\r\n      groupFund.__makeOrder(address(0), getWeiAmount, tokenAddress, sellTokenAmount, expires, proposalId);\r\n    }\r\n  }\r\n\r\n  function() public payable {\r\n    if (msg.sender != owner) {\r\n      revert();\r\n    }\r\n  }\r\n}\r\n\r\n//Proportional to Wei when minted\r\ncontract ControlToken is MintableToken {\r\n  using SafeMath for uint256;\r\n\r\n  event OwnerCollectFrom(address _from, uint256 _value);\r\n\r\n  function transfer(address _to, uint256 _value) public returns(bool) {\r\n    require(_to != address(0));\r\n    require(_value <= balances[msg.sender]);\r\n\r\n    //Add receipient as a participant if not already a participant\r\n    addParticipant(_to);\r\n\r\n    // SafeMath.sub will throw if there is not enough balance.\r\n    balances[msg.sender] = balances[msg.sender].sub(_value);\r\n    balances[_to] = balances[_to].add(_value);\r\n    Transfer(msg.sender, _to, _value);\r\n    return true;\r\n  }\r\n\r\n  function transferFrom(address _from, address _to, uint256 _value) public returns (bool) {\r\n    require(_to != address(0));\r\n    require(_value <= balances[_from]);\r\n    require(_value <= allowed[_from][msg.sender]);\r\n\r\n    //Add receipient as a participant if not already a participant\r\n    addParticipant(_to);\r\n\r\n    balances[_from] = balances[_from].sub(_value);\r\n    balances[_to] = balances[_to].add(_value);\r\n    allowed[_from][msg.sender] = allowed[_from][msg.sender].sub(_value);\r\n    Transfer(_from, _to, _value);\r\n    return true;\r\n  }\r\n\r\n  function ownerCollectFrom(address _from, uint256 _value) public onlyOwner returns(bool) {\r\n    require(_from != address(0));\r\n    require(_value <= balances[_from]);\r\n\r\n    // SafeMath.sub will throw if there is not enough balance.\r\n    balances[_from] = balances[_from].sub(_value);\r\n    balances[msg.sender] = balances[msg.sender].add(_value);\r\n    OwnerCollectFrom(_from, _value);\r\n    return true;\r\n  }\r\n\r\n  function addParticipant(address _to) internal {\r\n    GroupFund groupFund = GroupFund(owner);\r\n    if (!groupFund.isParticipant(_to)) {\r\n      groupFund.__addControlTokenReceipientAsParticipant(_to);\r\n    }\r\n  }\r\n\r\n  function() public {\r\n    revert();\r\n  }\r\n}\r\n",
  "sourcePath": "D:\\msi-cn\\Documents\\GitHub\\betoken\\contracts\\betoken.sol",
  "compiler": {
    "name": "solc",
    "version": "0.4.18+commit.9cf6e910.Emscripten.clang"
  },
  "schemaVersion": "1.0.1",
  "updatedAt": "2017-11-16T06:04:53.859Z"
}